{
  "_format": "hh-sol-artifact-1",
  "contractName": "RNG",
  "sourceName": "contracts/Lottery/RNG.sol",
  "abi": [
    {
      "inputs": [
        {
          "internalType": "address",
          "name": "_vrfCoordinator",
          "type": "address"
        },
        {
          "internalType": "address",
          "name": "_linkToken",
          "type": "address"
        },
        {
          "internalType": "address",
          "name": "_lotteryAddr",
          "type": "address"
        },
        {
          "internalType": "bytes32",
          "name": "_keyHash",
          "type": "bytes32"
        },
        {
          "internalType": "uint256",
          "name": "_fee",
          "type": "uint256"
        }
      ],
      "stateMutability": "nonpayable",
      "type": "constructor"
    },
    {
      "anonymous": false,
      "inputs": [
        {
          "indexed": false,
          "internalType": "address",
          "name": "oldAddr",
          "type": "address"
        },
        {
          "indexed": false,
          "internalType": "address",
          "name": "newAddr",
          "type": "address"
        }
      ],
      "name": "LotteryAddressChanged",
      "type": "event"
    },
    {
      "anonymous": false,
      "inputs": [
        {
          "indexed": true,
          "internalType": "address",
          "name": "previousOwner",
          "type": "address"
        },
        {
          "indexed": true,
          "internalType": "address",
          "name": "newOwner",
          "type": "address"
        }
      ],
      "name": "OwnershipTransferred",
      "type": "event"
    },
    {
      "anonymous": false,
      "inputs": [
        {
          "indexed": true,
          "internalType": "uint256",
          "name": "lotteryId",
          "type": "uint256"
        },
        {
          "indexed": true,
          "internalType": "bytes32",
          "name": "requestId",
          "type": "bytes32"
        }
      ],
      "name": "RequestNumbers",
      "type": "event"
    },
    {
      "anonymous": false,
      "inputs": [
        {
          "indexed": true,
          "internalType": "bytes32",
          "name": "requestId",
          "type": "bytes32"
        }
      ],
      "name": "ResponseReceived",
      "type": "event"
    },
    {
      "inputs": [
        {
          "internalType": "uint256",
          "name": "lotteryId",
          "type": "uint256"
        }
      ],
      "name": "getRandomNumber",
      "outputs": [],
      "stateMutability": "nonpayable",
      "type": "function"
    },
    {
      "inputs": [],
      "name": "lotteryAddr",
      "outputs": [
        {
          "internalType": "address",
          "name": "",
          "type": "address"
        }
      ],
      "stateMutability": "view",
      "type": "function"
    },
    {
      "inputs": [],
      "name": "owner",
      "outputs": [
        {
          "internalType": "address",
          "name": "",
          "type": "address"
        }
      ],
      "stateMutability": "view",
      "type": "function"
    },
    {
      "inputs": [
        {
          "internalType": "bytes32",
          "name": "requestId",
          "type": "bytes32"
        },
        {
          "internalType": "uint256",
          "name": "randomness",
          "type": "uint256"
        }
      ],
      "name": "rawFulfillRandomness",
      "outputs": [],
      "stateMutability": "nonpayable",
      "type": "function"
    },
    {
      "inputs": [],
      "name": "renounceOwnership",
      "outputs": [],
      "stateMutability": "nonpayable",
      "type": "function"
    },
    {
      "inputs": [
        {
          "internalType": "address",
          "name": "_lotteryAddr",
          "type": "address"
        }
      ],
      "name": "setLotteryAddress",
      "outputs": [],
      "stateMutability": "nonpayable",
      "type": "function"
    },
    {
      "inputs": [
        {
          "internalType": "address",
          "name": "newOwner",
          "type": "address"
        }
      ],
      "name": "transferOwnership",
      "outputs": [],
      "stateMutability": "nonpayable",
      "type": "function"
    },
    {
      "inputs": [
        {
          "internalType": "uint256",
          "name": "amount",
          "type": "uint256"
        }
      ],
      "name": "withdrawLink",
      "outputs": [],
      "stateMutability": "nonpayable",
      "type": "function"
    }
  ],
  "bytecode": "0x60c060405234801561001057600080fd5b50604051610af0380380610af083398101604081905261002f916100e2565b848461003a33610076565b6001600160a01b0391821660a0528116608052600292909255600355600480546001600160a01b03191692909116919091179055506101389050565b600080546001600160a01b038381166001600160a01b0319831681178455604051919092169283917f8be0079c531659141344cd1fd0a4f28419497f9722a3daafe3b4186f6b6457e09190a35050565b80516001600160a01b03811681146100dd57600080fd5b919050565b600080600080600060a086880312156100fa57600080fd5b610103866100c6565b9450610111602087016100c6565b935061011f604087016100c6565b6060870151608090970151959894975095949392505050565b60805160a05161097e610172600039600081816102dd015261068b015260008181610259015281816103bb015261065c015261097e6000f3fe608060405234801561001057600080fd5b50600436106100885760003560e01c80638da5cb5b1161005b5780638da5cb5b146100ec57806394985ddd146100fd578063b37217a414610110578063f2fde38b1461012357600080fd5b80632a332b2a1461008d5780632f5b1564146100a2578063715018a6146100d15780637a8042bd146100d9575b600080fd5b6100a061009b3660046107db565b610136565b005b6004546100b5906001600160a01b031681565b6040516001600160a01b03909116815260200160405180910390f35b6100a06101dd565b6100a06100e736600461080b565b610213565b6000546001600160a01b03166100b5565b6100a061010b366004610824565b6102d2565b6100a061011e36600461080b565b610354565b6100a06101313660046107db565b6104cd565b6000546001600160a01b031633146101695760405162461bcd60e51b815260040161016090610846565b60405180910390fd5b6001600160a01b03811661017c57600080fd5b600480546001600160a01b038381166001600160a01b031983168117909355604080519190921680825260208201939093527f21f2c1f9afafef804e391c39fc3395b810079f7d94fe8770e1e851ae3370f0c4910160405180910390a15050565b6000546001600160a01b031633146102075760405162461bcd60e51b815260040161016090610846565b6102116000610568565b565b6000546001600160a01b0316331461023d5760405162461bcd60e51b815260040161016090610846565b60405163a9059cbb60e01b8152336004820152602481018290527f00000000000000000000000000000000000000000000000000000000000000006001600160a01b03169063a9059cbb906044016020604051808303816000875af11580156102aa573d6000803e3d6000fd5b505050506040513d601f19601f820116820180604052508101906102ce919061087b565b5050565b336001600160a01b037f0000000000000000000000000000000000000000000000000000000000000000161461034a5760405162461bcd60e51b815260206004820152601f60248201527f4f6e6c7920565246436f6f7264696e61746f722063616e2066756c66696c6c006044820152606401610160565b6102ce82826105b8565b6004546001600160a01b031633146103a35760405162461bcd60e51b81526020600482015260126024820152714c6f74746572792063616c6c73206f6e6c7960701b6044820152606401610160565b6003546040516370a0823160e01b81523060048201527f00000000000000000000000000000000000000000000000000000000000000006001600160a01b0316906370a0823190602401602060405180830381865afa15801561040a573d6000803e3d6000fd5b505050506040513d601f19601f8201168201806040525081019061042e919061089d565b101561047c5760405162461bcd60e51b815260206004820152601f60248201527f4e6f7420656e6f756768204c494e4b202d2066696c6c20636f6e7472616374006044820152606401610160565b600061048c600254600354610658565b60008181526005602052604080822085905551919250829184917ff8cdf8355a0f31bbad8998a631f5a75dcb3e475a010b34a111ed105fe88e751a91a35050565b6000546001600160a01b031633146104f75760405162461bcd60e51b815260040161016090610846565b6001600160a01b03811661055c5760405162461bcd60e51b815260206004820152602660248201527f4f776e61626c653a206e6577206f776e657220697320746865207a65726f206160448201526564647265737360d01b6064820152608401610160565b61056581610568565b50565b600080546001600160a01b038381166001600160a01b0319831681178455604051919092169283917f8be0079c531659141344cd1fd0a4f28419497f9722a3daafe3b4186f6b6457e09190a35050565b600480546000848152600560205260409081902054905163eb1ea52160e01b815292830152602482018390526001600160a01b03169063eb1ea52190604401600060405180830381600087803b15801561061157600080fd5b505af1158015610625573d6000803e3d6000fd5b50506040518492507f8e372cc311d12a5394f598c3c41b36e9775c6cb51b99fde2aaca7978a8ec713f9150600090a25050565b60007f00000000000000000000000000000000000000000000000000000000000000006001600160a01b0316634000aea07f0000000000000000000000000000000000000000000000000000000000000000848660006040516020016106c8929190918252602082015260400190565b6040516020818303038152906040526040518463ffffffff1660e01b81526004016106f5939291906108b6565b6020604051808303816000875af1158015610714573d6000803e3d6000fd5b505050506040513d601f19601f82011682018060405250810190610738919061087b565b50600083815260016020818152604080842054815180840189905280830186905230606082015260808082018390528351808303909101815260a0909101909252815191830191909120938790529082905261079391610922565b6000858152600160205260409020556107d38482604080516020808201949094528082019290925280518083038201815260609092019052805191012090565b949350505050565b6000602082840312156107ed57600080fd5b81356001600160a01b038116811461080457600080fd5b9392505050565b60006020828403121561081d57600080fd5b5035919050565b6000806040838503121561083757600080fd5b50508035926020909101359150565b6020808252818101527f4f776e61626c653a2063616c6c6572206973206e6f7420746865206f776e6572604082015260600190565b60006020828403121561088d57600080fd5b8151801515811461080457600080fd5b6000602082840312156108af57600080fd5b5051919050565b60018060a01b038416815260006020848184015260606040840152835180606085015260005b818110156108f8578581018301518582016080015282016108dc565b8181111561090a576000608083870101525b50601f01601f19169290920160800195945050505050565b6000821982111561094357634e487b7160e01b600052601160045260246000fd5b50019056fea2646970667358221220c4471e64412bc0a5564879d215f6d29784b19c039c4590dd4bbc9c48003cea4364736f6c634300080e0033",
  "linkReferences": {},
  "deployedLinkReferences": {}
}