{
  "_format": "hh-sol-artifact-1",
  "contractName": "RNG",
  "sourceName": "contracts/Lottery/RNG.sol",
  "abi": [
    {
      "inputs": [
        {
          "internalType": "address",
          "name": "_vrfCoordinator",
          "type": "address"
        },
        {
          "internalType": "address",
          "name": "_linkToken",
          "type": "address"
        },
        {
          "internalType": "address",
          "name": "_lotteryAddr",
          "type": "address"
        },
        {
          "internalType": "bytes32",
          "name": "_keyHash",
          "type": "bytes32"
        },
        {
          "internalType": "uint256",
          "name": "_fee",
          "type": "uint256"
        }
      ],
      "stateMutability": "nonpayable",
      "type": "constructor"
    },
    {
      "anonymous": false,
      "inputs": [
        {
          "indexed": true,
          "internalType": "address",
          "name": "previousOwner",
          "type": "address"
        },
        {
          "indexed": true,
          "internalType": "address",
          "name": "newOwner",
          "type": "address"
        }
      ],
      "name": "OwnershipTransferred",
      "type": "event"
    },
    {
      "anonymous": false,
      "inputs": [
        {
          "indexed": false,
          "internalType": "address",
          "name": "oldAddr",
          "type": "address"
        },
        {
          "indexed": false,
          "internalType": "address",
          "name": "newAddr",
          "type": "address"
        }
      ],
      "name": "lotteryAddressChanged",
      "type": "event"
    },
    {
      "inputs": [],
      "name": "currentLotteryId",
      "outputs": [
        {
          "internalType": "uint256",
          "name": "",
          "type": "uint256"
        }
      ],
      "stateMutability": "view",
      "type": "function"
    },
    {
      "inputs": [],
      "name": "getLotteryAddress",
      "outputs": [
        {
          "internalType": "address",
          "name": "",
          "type": "address"
        }
      ],
      "stateMutability": "view",
      "type": "function"
    },
    {
      "inputs": [
        {
          "internalType": "uint256",
          "name": "lotteryId",
          "type": "uint256"
        }
      ],
      "name": "getRandomNumber",
      "outputs": [
        {
          "internalType": "bytes32",
          "name": "requestId",
          "type": "bytes32"
        }
      ],
      "stateMutability": "nonpayable",
      "type": "function"
    },
    {
      "inputs": [],
      "name": "lotteryAddr",
      "outputs": [
        {
          "internalType": "address",
          "name": "",
          "type": "address"
        }
      ],
      "stateMutability": "view",
      "type": "function"
    },
    {
      "inputs": [],
      "name": "owner",
      "outputs": [
        {
          "internalType": "address",
          "name": "",
          "type": "address"
        }
      ],
      "stateMutability": "view",
      "type": "function"
    },
    {
      "inputs": [
        {
          "internalType": "bytes32",
          "name": "requestId",
          "type": "bytes32"
        },
        {
          "internalType": "uint256",
          "name": "randomness",
          "type": "uint256"
        }
      ],
      "name": "rawFulfillRandomness",
      "outputs": [],
      "stateMutability": "nonpayable",
      "type": "function"
    },
    {
      "inputs": [],
      "name": "renounceOwnership",
      "outputs": [],
      "stateMutability": "nonpayable",
      "type": "function"
    },
    {
      "inputs": [
        {
          "internalType": "address",
          "name": "_lotteryAddr",
          "type": "address"
        }
      ],
      "name": "setLotteryAddress",
      "outputs": [],
      "stateMutability": "nonpayable",
      "type": "function"
    },
    {
      "inputs": [
        {
          "internalType": "address",
          "name": "newOwner",
          "type": "address"
        }
      ],
      "name": "transferOwnership",
      "outputs": [],
      "stateMutability": "nonpayable",
      "type": "function"
    },
    {
      "inputs": [
        {
          "internalType": "uint256",
          "name": "amount",
          "type": "uint256"
        }
      ],
      "name": "withdrawLink",
      "outputs": [],
      "stateMutability": "nonpayable",
      "type": "function"
    }
  ],
  "bytecode": "0x60c060405234801561001057600080fd5b50604051610acb380380610acb83398101604081905261002f916100e2565b848461003a33610076565b6001600160a01b0391821660a0528116608052600292909255600355600480546001600160a01b03191692909116919091179055506101389050565b600080546001600160a01b038381166001600160a01b0319831681178455604051919092169283917f8be0079c531659141344cd1fd0a4f28419497f9722a3daafe3b4186f6b6457e09190a35050565b80516001600160a01b03811681146100dd57600080fd5b919050565b600080600080600060a086880312156100fa57600080fd5b610103866100c6565b9450610111602087016100c6565b935061011f604087016100c6565b6060870151608090970151959894975095949392505050565b60805160a0516109596101726000396000818161031c0152610666015260008181610298015281816103fd015261063701526109596000f3fe608060405234801561001057600080fd5b506004361061009e5760003560e01c80638da5cb5b116100665780638da5cb5b1461011a57806394985ddd1461012b578063b37217a41461013e578063f2fde38b14610151578063fc7d91781461016457600080fd5b80632a332b2a146100a35780632f5b1564146100b85780636be4097c146100e8578063715018a6146100ff5780637a8042bd14610107575b600080fd5b6100b66100b13660046107b6565b610175565b005b6004546100cb906001600160a01b031681565b6040516001600160a01b0390911681526020015b60405180910390f35b6100f160055481565b6040519081526020016100df565b6100b661021c565b6100b66101153660046107e6565b610252565b6000546001600160a01b03166100cb565b6100b66101393660046107ff565b610311565b6100f161014c3660046107e6565b610393565b6100b661015f3660046107b6565b6104d9565b6004546001600160a01b03166100cb565b6000546001600160a01b031633146101a85760405162461bcd60e51b815260040161019f90610821565b60405180910390fd5b6001600160a01b0381166101bb57600080fd5b600480546001600160a01b038381166001600160a01b031983168117909355604080519190921680825260208201939093527facbb09448c824444955405bf308c7583f424f5de51a4f1419c0b23ccb88f6b74910160405180910390a15050565b6000546001600160a01b031633146102465760405162461bcd60e51b815260040161019f90610821565b6102506000610574565b565b6000546001600160a01b0316331461027c5760405162461bcd60e51b815260040161019f90610821565b60405163a9059cbb60e01b8152336004820152602481018290527f00000000000000000000000000000000000000000000000000000000000000006001600160a01b03169063a9059cbb906044016020604051808303816000875af11580156102e9573d6000803e3d6000fd5b505050506040513d601f19601f8201168201806040525081019061030d9190610856565b5050565b336001600160a01b037f000000000000000000000000000000000000000000000000000000000000000016146103895760405162461bcd60e51b815260206004820152601f60248201527f4f6e6c7920565246436f6f7264696e61746f722063616e2066756c66696c6c00604482015260640161019f565b61030d82826105c4565b6004546000906001600160a01b031633146103e55760405162461bcd60e51b81526020600482015260126024820152714c6f74746572792063616c6c73206f6e6c7960701b604482015260640161019f565b6003546040516370a0823160e01b81523060048201527f00000000000000000000000000000000000000000000000000000000000000006001600160a01b0316906370a0823190602401602060405180830381865afa15801561044c573d6000803e3d6000fd5b505050506040513d601f19601f820116820180604052508101906104709190610878565b10156104be5760405162461bcd60e51b815260206004820152601f60248201527f4e6f7420656e6f756768204c494e4b202d2066696c6c20636f6e747261637400604482015260640161019f565b816005819055506104d3600254600354610633565b92915050565b6000546001600160a01b031633146105035760405162461bcd60e51b815260040161019f90610821565b6001600160a01b0381166105685760405162461bcd60e51b815260206004820152602660248201527f4f776e61626c653a206e6577206f776e657220697320746865207a65726f206160448201526564647265737360d01b606482015260840161019f565b61057181610574565b50565b600080546001600160a01b038381166001600160a01b0319831681178455604051919092169283917f8be0079c531659141344cd1fd0a4f28419497f9722a3daafe3b4186f6b6457e09190a35050565b60048054600554604051632899068360e01b81529283015260248201849052604482018390526001600160a01b031690632899068390606401600060405180830381600087803b15801561061757600080fd5b505af115801561062b573d6000803e3d6000fd5b505050505050565b60007f00000000000000000000000000000000000000000000000000000000000000006001600160a01b0316634000aea07f0000000000000000000000000000000000000000000000000000000000000000848660006040516020016106a3929190918252602082015260400190565b6040516020818303038152906040526040518463ffffffff1660e01b81526004016106d093929190610891565b6020604051808303816000875af11580156106ef573d6000803e3d6000fd5b505050506040513d601f19601f820116820180604052508101906107139190610856565b50600083815260016020818152604080842054815180840189905280830186905230606082015260808082018390528351808303909101815260a0909101909252815191830191909120938790529082905261076e916108fd565b6000858152600160205260409020556107ae8482604080516020808201949094528082019290925280518083038201815260609092019052805191012090565b949350505050565b6000602082840312156107c857600080fd5b81356001600160a01b03811681146107df57600080fd5b9392505050565b6000602082840312156107f857600080fd5b5035919050565b6000806040838503121561081257600080fd5b50508035926020909101359150565b6020808252818101527f4f776e61626c653a2063616c6c6572206973206e6f7420746865206f776e6572604082015260600190565b60006020828403121561086857600080fd5b815180151581146107df57600080fd5b60006020828403121561088a57600080fd5b5051919050565b60018060a01b038416815260006020848184015260606040840152835180606085015260005b818110156108d3578581018301518582016080015282016108b7565b818111156108e5576000608083870101525b50601f01601f19169290920160800195945050505050565b6000821982111561091e57634e487b7160e01b600052601160045260246000fd5b50019056fea264697066735822122080a71182936e0abe3a3f52ab33fc688be3069dc72daf7a8ee0c4e8e6c3cc9a7664736f6c634300080e0033",
  "linkReferences": {},
  "deployedLinkReferences": {}
}