{
  "_format": "hh-sol-artifact-1",
  "contractName": "RNG",
  "sourceName": "contracts/Lottery/RNG.sol",
  "abi": [
    {
      "inputs": [
        {
          "internalType": "uint64",
          "name": "_subscriptionId",
          "type": "uint64"
        },
        {
          "internalType": "address",
          "name": "_vrfCoordinator",
          "type": "address"
        },
        {
          "internalType": "address",
          "name": "_lotteryAddr",
          "type": "address"
        },
        {
          "internalType": "bytes32",
          "name": "_keyHash",
          "type": "bytes32"
        }
      ],
      "stateMutability": "nonpayable",
      "type": "constructor"
    },
    {
      "inputs": [
        {
          "internalType": "address",
          "name": "have",
          "type": "address"
        },
        {
          "internalType": "address",
          "name": "want",
          "type": "address"
        }
      ],
      "name": "OnlyCoordinatorCanFulfill",
      "type": "error"
    },
    {
      "anonymous": false,
      "inputs": [
        {
          "indexed": false,
          "internalType": "address",
          "name": "oldAddr",
          "type": "address"
        },
        {
          "indexed": false,
          "internalType": "address",
          "name": "newAddr",
          "type": "address"
        }
      ],
      "name": "LotteryAddressChanged",
      "type": "event"
    },
    {
      "anonymous": false,
      "inputs": [
        {
          "indexed": true,
          "internalType": "address",
          "name": "previousOwner",
          "type": "address"
        },
        {
          "indexed": true,
          "internalType": "address",
          "name": "newOwner",
          "type": "address"
        }
      ],
      "name": "OwnershipTransferred",
      "type": "event"
    },
    {
      "anonymous": false,
      "inputs": [
        {
          "indexed": true,
          "internalType": "uint256",
          "name": "lotteryId",
          "type": "uint256"
        },
        {
          "indexed": true,
          "internalType": "uint256",
          "name": "requestId",
          "type": "uint256"
        }
      ],
      "name": "RequestNumbers",
      "type": "event"
    },
    {
      "anonymous": false,
      "inputs": [
        {
          "indexed": true,
          "internalType": "uint256",
          "name": "requestId",
          "type": "uint256"
        },
        {
          "indexed": false,
          "internalType": "uint256",
          "name": "randomWord",
          "type": "uint256"
        }
      ],
      "name": "ResponseReceived",
      "type": "event"
    },
    {
      "inputs": [],
      "name": "lotteryAddr",
      "outputs": [
        {
          "internalType": "address",
          "name": "",
          "type": "address"
        }
      ],
      "stateMutability": "view",
      "type": "function"
    },
    {
      "inputs": [],
      "name": "owner",
      "outputs": [
        {
          "internalType": "address",
          "name": "",
          "type": "address"
        }
      ],
      "stateMutability": "view",
      "type": "function"
    },
    {
      "inputs": [
        {
          "internalType": "uint256",
          "name": "requestId",
          "type": "uint256"
        },
        {
          "internalType": "uint256[]",
          "name": "randomWords",
          "type": "uint256[]"
        }
      ],
      "name": "rawFulfillRandomWords",
      "outputs": [],
      "stateMutability": "nonpayable",
      "type": "function"
    },
    {
      "inputs": [],
      "name": "renounceOwnership",
      "outputs": [],
      "stateMutability": "nonpayable",
      "type": "function"
    },
    {
      "inputs": [
        {
          "internalType": "uint256",
          "name": "_lotteryId",
          "type": "uint256"
        }
      ],
      "name": "requestRandomWords",
      "outputs": [
        {
          "internalType": "uint256",
          "name": "requestId",
          "type": "uint256"
        }
      ],
      "stateMutability": "nonpayable",
      "type": "function"
    },
    {
      "inputs": [
        {
          "internalType": "address",
          "name": "_lotteryAddr",
          "type": "address"
        }
      ],
      "name": "setLotteryAddress",
      "outputs": [],
      "stateMutability": "nonpayable",
      "type": "function"
    },
    {
      "inputs": [
        {
          "internalType": "address",
          "name": "newOwner",
          "type": "address"
        }
      ],
      "name": "transferOwnership",
      "outputs": [],
      "stateMutability": "nonpayable",
      "type": "function"
    }
  ],
  "bytecode": "0x60a0604052600480546001600160501b0319166601000300030d4017905534801561002957600080fd5b506040516109a93803806109a983398101604081905261004891610133565b6001600160a01b03831660805261005e336100c7565b600280546001600160401b03909516600160a01b026001600160e01b03199095166001600160a01b03948516179490941790935560039290925560048054929091166a010000000000000000000002600160501b600160f01b031990921691909117905561018c565b600080546001600160a01b038381166001600160a01b0319831681178455604051919092169283917f8be0079c531659141344cd1fd0a4f28419497f9722a3daafe3b4186f6b6457e09190a35050565b80516001600160a01b038116811461012e57600080fd5b919050565b6000806000806080858703121561014957600080fd5b84516001600160401b038116811461016057600080fd5b935061016e60208601610117565b925061017c60408601610117565b6060959095015193969295505050565b6080516107fb6101ae60003960008181610139015261017b01526107fb6000f3fe608060405234801561001057600080fd5b506004361061007d5760003560e01c8063715018a61161005b578063715018a6146100e15780638da5cb5b146100e9578063bc85777c146100fa578063f2fde38b1461011b57600080fd5b80631fe543e3146100825780632a332b2a146100975780632f5b1564146100aa575b600080fd5b61009561009036600461064e565b61012e565b005b6100956100a5366004610718565b6101bb565b6004546100c490600160501b90046001600160a01b031681565b6040516001600160a01b0390911681526020015b60405180910390f35b61009561027c565b6000546001600160a01b03166100c4565b61010d610108366004610748565b6102b2565b6040519081526020016100d8565b610095610129366004610718565b61040a565b336001600160a01b037f000000000000000000000000000000000000000000000000000000000000000016146101ad5760405163073e64fd60e21b81523360048201526001600160a01b037f00000000000000000000000000000000000000000000000000000000000000001660248201526044015b60405180910390fd5b6101b782826104a5565b5050565b6000546001600160a01b031633146101e55760405162461bcd60e51b81526004016101a490610761565b6001600160a01b0381166101f857600080fd5b600480546001600160a01b03838116600160501b8181027fffff0000000000000000000000000000000000000000ffffffffffffffffffff85161790945560408051949093049091168084526020840191909152917f21f2c1f9afafef804e391c39fc3395b810079f7d94fe8770e1e851ae3370f0c4910160405180910390a15050565b6000546001600160a01b031633146102a65760405162461bcd60e51b81526004016101a490610761565b6102b060006105e8565b565b600454600090600160501b90046001600160a01b0316331461030b5760405162461bcd60e51b81526020600482015260126024820152714c6f74746572792063616c6c73206f6e6c7960701b60448201526064016101a4565b600254600354600480546040516305d3b1d360e41b815291820192909252600160a01b830467ffffffffffffffff166024820152640100000000820461ffff16604482015263ffffffff8083166064830152660100000000000090920490911660848201526001600160a01b0390911690635d3b1d309060a4016020604051808303816000875af11580156103a4573d6000803e3d6000fd5b505050506040513d601f19601f820116820180604052508101906103c89190610796565b60008181526001602052604080822085905551919250829184917f93d6602f8b060ac3b86145177895a37f6c92b4efc63e958bc8a098118217a99f91a3919050565b6000546001600160a01b031633146104345760405162461bcd60e51b81526004016101a490610761565b6001600160a01b0381166104995760405162461bcd60e51b815260206004820152602660248201527f4f776e61626c653a206e6577206f776e657220697320746865207a65726f206160448201526564647265737360d01b60648201526084016101a4565b6104a2816105e8565b50565b60008281526001602052604081205490036104f65760405162461bcd60e51b81526020600482015260116024820152701c995c5d595cdd081b9bdd08199bdd5b99607a1b60448201526064016101a4565b6004546000838152600160205260408120548351600160501b9093046001600160a01b03169263eb1ea521928591610530576105306107af565b60200260200101516040518363ffffffff1660e01b815260040161055e929190918252602082015260400190565b600060405180830381600087803b15801561057857600080fd5b505af115801561058c573d6000803e3d6000fd5b50505050817f516de2d996ecef56117e943d9014c010d315b9b8c4852dfc95b4cf21ddfab25a826000815181106105c5576105c56107af565b60200260200101516040516105dc91815260200190565b60405180910390a25050565b600080546001600160a01b038381166001600160a01b0319831681178455604051919092169283917f8be0079c531659141344cd1fd0a4f28419497f9722a3daafe3b4186f6b6457e09190a35050565b634e487b7160e01b600052604160045260246000fd5b6000806040838503121561066157600080fd5b8235915060208084013567ffffffffffffffff8082111561068157600080fd5b818601915086601f83011261069557600080fd5b8135818111156106a7576106a7610638565b8060051b604051601f19603f830116810181811085821117156106cc576106cc610638565b6040529182528482019250838101850191898311156106ea57600080fd5b938501935b82851015610708578435845293850193928501926106ef565b8096505050505050509250929050565b60006020828403121561072a57600080fd5b81356001600160a01b038116811461074157600080fd5b9392505050565b60006020828403121561075a57600080fd5b5035919050565b6020808252818101527f4f776e61626c653a2063616c6c6572206973206e6f7420746865206f776e6572604082015260600190565b6000602082840312156107a857600080fd5b5051919050565b634e487b7160e01b600052603260045260246000fdfea26469706673582212201ba6f8f386ef4060e790ff55f6a5b27dde682dd6f84f485ba66f75376064f19864736f6c634300080e0033",
  "linkReferences": {},
  "deployedLinkReferences": {}
}