{
  "_format": "hh-sol-artifact-1",
  "contractName": "Lottery",
  "sourceName": "contracts/Lottery/Lottery.sol",
  "abi": [
    {
      "anonymous": false,
      "inputs": [
        {
          "indexed": false,
          "internalType": "address",
          "name": "previousAdmin",
          "type": "address"
        },
        {
          "indexed": false,
          "internalType": "address",
          "name": "newAdmin",
          "type": "address"
        }
      ],
      "name": "AdminChanged",
      "type": "event"
    },
    {
      "anonymous": false,
      "inputs": [
        {
          "indexed": true,
          "internalType": "address",
          "name": "beacon",
          "type": "address"
        }
      ],
      "name": "BeaconUpgraded",
      "type": "event"
    },
    {
      "anonymous": false,
      "inputs": [
        {
          "indexed": false,
          "internalType": "uint8",
          "name": "version",
          "type": "uint8"
        }
      ],
      "name": "Initialized",
      "type": "event"
    },
    {
      "anonymous": false,
      "inputs": [
        {
          "indexed": true,
          "internalType": "uint256",
          "name": "lotteryId",
          "type": "uint256"
        },
        {
          "indexed": false,
          "internalType": "uint256",
          "name": "numberOfPrizes",
          "type": "uint256"
        }
      ],
      "name": "LotteryPrizesCountChanged",
      "type": "event"
    },
    {
      "anonymous": false,
      "inputs": [
        {
          "indexed": true,
          "internalType": "uint256",
          "name": "lotteryId",
          "type": "uint256"
        },
        {
          "indexed": true,
          "internalType": "enum Lottery.Status",
          "name": "status",
          "type": "uint8"
        }
      ],
      "name": "LotteryStatusChanged",
      "type": "event"
    },
    {
      "anonymous": false,
      "inputs": [
        {
          "indexed": false,
          "internalType": "address",
          "name": "account",
          "type": "address"
        }
      ],
      "name": "Paused",
      "type": "event"
    },
    {
      "anonymous": false,
      "inputs": [
        {
          "indexed": true,
          "internalType": "uint256",
          "name": "lotteryId",
          "type": "uint256"
        },
        {
          "indexed": true,
          "internalType": "address",
          "name": "participantAddress",
          "type": "address"
        },
        {
          "indexed": true,
          "internalType": "uint256",
          "name": "prizeId",
          "type": "uint256"
        }
      ],
      "name": "PrizeClaimed",
      "type": "event"
    },
    {
      "anonymous": false,
      "inputs": [
        {
          "indexed": true,
          "internalType": "uint256",
          "name": "lotteryId",
          "type": "uint256"
        },
        {
          "indexed": true,
          "internalType": "address",
          "name": "participantAddress",
          "type": "address"
        },
        {
          "indexed": false,
          "internalType": "uint256",
          "name": "refundAmount",
          "type": "uint256"
        }
      ],
      "name": "Refunded",
      "type": "event"
    },
    {
      "anonymous": false,
      "inputs": [
        {
          "indexed": true,
          "internalType": "uint256",
          "name": "lotteryId",
          "type": "uint256"
        },
        {
          "indexed": true,
          "internalType": "bytes32",
          "name": "requestId",
          "type": "bytes32"
        }
      ],
      "name": "RequestNumbers",
      "type": "event"
    },
    {
      "anonymous": false,
      "inputs": [
        {
          "indexed": true,
          "internalType": "bytes32",
          "name": "requestId",
          "type": "bytes32"
        }
      ],
      "name": "ResponseReceived",
      "type": "event"
    },
    {
      "anonymous": false,
      "inputs": [
        {
          "indexed": true,
          "internalType": "bytes32",
          "name": "role",
          "type": "bytes32"
        },
        {
          "indexed": true,
          "internalType": "bytes32",
          "name": "previousAdminRole",
          "type": "bytes32"
        },
        {
          "indexed": true,
          "internalType": "bytes32",
          "name": "newAdminRole",
          "type": "bytes32"
        }
      ],
      "name": "RoleAdminChanged",
      "type": "event"
    },
    {
      "anonymous": false,
      "inputs": [
        {
          "indexed": true,
          "internalType": "bytes32",
          "name": "role",
          "type": "bytes32"
        },
        {
          "indexed": true,
          "internalType": "address",
          "name": "account",
          "type": "address"
        },
        {
          "indexed": true,
          "internalType": "address",
          "name": "sender",
          "type": "address"
        }
      ],
      "name": "RoleGranted",
      "type": "event"
    },
    {
      "anonymous": false,
      "inputs": [
        {
          "indexed": true,
          "internalType": "bytes32",
          "name": "role",
          "type": "bytes32"
        },
        {
          "indexed": true,
          "internalType": "address",
          "name": "account",
          "type": "address"
        },
        {
          "indexed": true,
          "internalType": "address",
          "name": "sender",
          "type": "address"
        }
      ],
      "name": "RoleRevoked",
      "type": "event"
    },
    {
      "anonymous": false,
      "inputs": [
        {
          "indexed": false,
          "internalType": "address",
          "name": "operator",
          "type": "address"
        },
        {
          "indexed": false,
          "internalType": "uint256",
          "name": "lotteryId",
          "type": "uint256"
        },
        {
          "indexed": false,
          "internalType": "uint256",
          "name": "priceOfTicket",
          "type": "uint256"
        }
      ],
      "name": "TicketCostChanged",
      "type": "event"
    },
    {
      "anonymous": false,
      "inputs": [
        {
          "indexed": true,
          "internalType": "uint256",
          "name": "lotteryId",
          "type": "uint256"
        },
        {
          "indexed": false,
          "internalType": "uint256",
          "name": "ticketNumber",
          "type": "uint256"
        },
        {
          "indexed": true,
          "internalType": "address",
          "name": "participantAddress",
          "type": "address"
        }
      ],
      "name": "TicketSold",
      "type": "event"
    },
    {
      "anonymous": false,
      "inputs": [
        {
          "indexed": false,
          "internalType": "address",
          "name": "account",
          "type": "address"
        }
      ],
      "name": "Unpaused",
      "type": "event"
    },
    {
      "anonymous": false,
      "inputs": [
        {
          "indexed": true,
          "internalType": "address",
          "name": "implementation",
          "type": "address"
        }
      ],
      "name": "Upgraded",
      "type": "event"
    },
    {
      "inputs": [],
      "name": "DEFAULT_ADMIN_ROLE",
      "outputs": [
        {
          "internalType": "bytes32",
          "name": "",
          "type": "bytes32"
        }
      ],
      "stateMutability": "view",
      "type": "function"
    },
    {
      "inputs": [
        {
          "internalType": "uint256",
          "name": "_lotteryId",
          "type": "uint256"
        },
        {
          "internalType": "uint256[]",
          "name": "_prizeIds",
          "type": "uint256[]"
        },
        {
          "internalType": "uint16[]",
          "name": "_prizeAmounts",
          "type": "uint16[]"
        }
      ],
      "name": "addPrizes",
      "outputs": [],
      "stateMutability": "nonpayable",
      "type": "function"
    },
    {
      "inputs": [
        {
          "internalType": "uint256",
          "name": "_lotteryId",
          "type": "uint256"
        }
      ],
      "name": "askForRefund",
      "outputs": [],
      "stateMutability": "nonpayable",
      "type": "function"
    },
    {
      "inputs": [
        {
          "internalType": "uint256",
          "name": "_lotteryId",
          "type": "uint256"
        },
        {
          "internalType": "uint256",
          "name": "_numberOfTicketsToBuy",
          "type": "uint256"
        }
      ],
      "name": "buyTickets",
      "outputs": [
        {
          "internalType": "uint256",
          "name": "",
          "type": "uint256"
        }
      ],
      "stateMutability": "nonpayable",
      "type": "function"
    },
    {
      "inputs": [
        {
          "internalType": "address",
          "name": "_user",
          "type": "address"
        },
        {
          "internalType": "uint256",
          "name": "_points",
          "type": "uint256"
        },
        {
          "internalType": "uint256",
          "name": "_lotteryId",
          "type": "uint256"
        },
        {
          "internalType": "uint256",
          "name": "_numberOfTicketsToBuy",
          "type": "uint256"
        },
        {
          "internalType": "bytes",
          "name": "_sig",
          "type": "bytes"
        }
      ],
      "name": "buyTicketsWithSignedMessage",
      "outputs": [],
      "stateMutability": "nonpayable",
      "type": "function"
    },
    {
      "inputs": [
        {
          "internalType": "uint256",
          "name": "_lotteryId",
          "type": "uint256"
        }
      ],
      "name": "cancelLottery",
      "outputs": [],
      "stateMutability": "nonpayable",
      "type": "function"
    },
    {
      "inputs": [
        {
          "internalType": "uint256",
          "name": "_lotteryId",
          "type": "uint256"
        },
        {
          "internalType": "uint32",
          "name": "_time",
          "type": "uint32"
        }
      ],
      "name": "changeCloseTime",
      "outputs": [],
      "stateMutability": "nonpayable",
      "type": "function"
    },
    {
      "inputs": [
        {
          "internalType": "uint256",
          "name": "_lotteryId",
          "type": "uint256"
        },
        {
          "internalType": "address",
          "name": "_winner",
          "type": "address"
        },
        {
          "internalType": "uint256",
          "name": "_prizeId",
          "type": "uint256"
        },
        {
          "internalType": "uint256",
          "name": "_ticketNumber",
          "type": "uint256"
        },
        {
          "internalType": "bytes32[]",
          "name": "_proof",
          "type": "bytes32[]"
        }
      ],
      "name": "claimPrize",
      "outputs": [],
      "stateMutability": "nonpayable",
      "type": "function"
    },
    {
      "inputs": [
        {
          "internalType": "uint256",
          "name": "",
          "type": "uint256"
        },
        {
          "internalType": "uint256",
          "name": "",
          "type": "uint256"
        }
      ],
      "name": "claimedPrizes",
      "outputs": [
        {
          "internalType": "bool",
          "name": "",
          "type": "bool"
        }
      ],
      "stateMutability": "view",
      "type": "function"
    },
    {
      "inputs": [
        {
          "internalType": "uint256",
          "name": "_lotteryId",
          "type": "uint256"
        },
        {
          "internalType": "uint256",
          "name": "_collectionId",
          "type": "uint256"
        },
        {
          "internalType": "uint256",
          "name": "_ticketCostPoints",
          "type": "uint256"
        },
        {
          "internalType": "uint256",
          "name": "_ticketCostTokens",
          "type": "uint256"
        },
        {
          "internalType": "uint32",
          "name": "_startTime",
          "type": "uint32"
        },
        {
          "internalType": "uint32",
          "name": "_closeTime",
          "type": "uint32"
        },
        {
          "internalType": "contract INFT",
          "name": "_nftContract",
          "type": "address"
        },
        {
          "internalType": "bool",
          "name": "_isRefundable",
          "type": "bool"
        },
        {
          "internalType": "uint256",
          "name": "_defaultPrizeId",
          "type": "uint256"
        }
      ],
      "name": "createNewLottery",
      "outputs": [],
      "stateMutability": "nonpayable",
      "type": "function"
    },
    {
      "inputs": [],
      "name": "getLotteryCount",
      "outputs": [
        {
          "internalType": "uint256",
          "name": "",
          "type": "uint256"
        }
      ],
      "stateMutability": "view",
      "type": "function"
    },
    {
      "inputs": [
        {
          "internalType": "uint256",
          "name": "_lotteryId",
          "type": "uint256"
        }
      ],
      "name": "getLotteryInfo",
      "outputs": [
        {
          "components": [
            {
              "internalType": "uint32",
              "name": "startTime",
              "type": "uint32"
            },
            {
              "internalType": "uint32",
              "name": "closeTime",
              "type": "uint32"
            },
            {
              "internalType": "uint32",
              "name": "participantsCount",
              "type": "uint32"
            },
            {
              "internalType": "uint32",
              "name": "maxTickets",
              "type": "uint32"
            },
            {
              "internalType": "uint32",
              "name": "maxTicketsPerUser",
              "type": "uint32"
            },
            {
              "internalType": "uint32",
              "name": "numberOfTicketsSold",
              "type": "uint32"
            },
            {
              "internalType": "enum Lottery.Status",
              "name": "status",
              "type": "uint8"
            },
            {
              "internalType": "contract INFT",
              "name": "nftContract",
              "type": "address"
            },
            {
              "internalType": "bool",
              "name": "isRefundable",
              "type": "bool"
            },
            {
              "internalType": "uint256",
              "name": "lotteryID",
              "type": "uint256"
            },
            {
              "internalType": "uint256",
              "name": "dropId",
              "type": "uint256"
            },
            {
              "internalType": "uint256",
              "name": "ticketCostPoints",
              "type": "uint256"
            },
            {
              "internalType": "uint256",
              "name": "ticketCostTokens",
              "type": "uint256"
            },
            {
              "internalType": "uint256",
              "name": "defaultPrizeId",
              "type": "uint256"
            }
          ],
          "internalType": "struct Lottery.LotteryInfo",
          "name": "",
          "type": "tuple"
        }
      ],
      "stateMutability": "view",
      "type": "function"
    },
    {
      "inputs": [
        {
          "internalType": "uint256",
          "name": "_lotteryId",
          "type": "uint256"
        }
      ],
      "name": "getLotteryTicketCount",
      "outputs": [
        {
          "internalType": "uint256",
          "name": "",
          "type": "uint256"
        }
      ],
      "stateMutability": "view",
      "type": "function"
    },
    {
      "inputs": [
        {
          "internalType": "uint256",
          "name": "_lotteryId",
          "type": "uint256"
        },
        {
          "internalType": "uint256",
          "name": "_from",
          "type": "uint256"
        },
        {
          "internalType": "uint256",
          "name": "_to",
          "type": "uint256"
        }
      ],
      "name": "getLotteryTickets",
      "outputs": [
        {
          "components": [
            {
              "internalType": "uint256",
              "name": "ticketCostInCoins",
              "type": "uint256"
            },
            {
              "internalType": "address",
              "name": "owner",
              "type": "address"
            }
          ],
          "internalType": "struct Lottery.Ticket[]",
          "name": "",
          "type": "tuple[]"
        }
      ],
      "stateMutability": "view",
      "type": "function"
    },
    {
      "inputs": [
        {
          "internalType": "address",
          "name": "_participant",
          "type": "address"
        }
      ],
      "name": "getParticipantHistory",
      "outputs": [
        {
          "internalType": "uint256[]",
          "name": "",
          "type": "uint256[]"
        }
      ],
      "stateMutability": "view",
      "type": "function"
    },
    {
      "inputs": [
        {
          "internalType": "uint256",
          "name": "_lotteryId",
          "type": "uint256"
        }
      ],
      "name": "getParticipantsCount",
      "outputs": [
        {
          "internalType": "uint32",
          "name": "",
          "type": "uint32"
        }
      ],
      "stateMutability": "view",
      "type": "function"
    },
    {
      "inputs": [
        {
          "internalType": "uint256",
          "name": "_lotteryId",
          "type": "uint256"
        }
      ],
      "name": "getPrizes",
      "outputs": [
        {
          "components": [
            {
              "internalType": "uint256",
              "name": "prizeId",
              "type": "uint256"
            },
            {
              "internalType": "uint16",
              "name": "numberOfEditions",
              "type": "uint16"
            }
          ],
          "internalType": "struct Lottery.PrizeInfo[]",
          "name": "",
          "type": "tuple[]"
        }
      ],
      "stateMutability": "view",
      "type": "function"
    },
    {
      "inputs": [
        {
          "internalType": "uint256",
          "name": "_lotteryId",
          "type": "uint256"
        },
        {
          "internalType": "address",
          "name": "_user",
          "type": "address"
        }
      ],
      "name": "getRefundableCoinBalance",
      "outputs": [
        {
          "internalType": "uint256",
          "name": "",
          "type": "uint256"
        }
      ],
      "stateMutability": "view",
      "type": "function"
    },
    {
      "inputs": [
        {
          "internalType": "bytes32",
          "name": "role",
          "type": "bytes32"
        }
      ],
      "name": "getRoleAdmin",
      "outputs": [
        {
          "internalType": "bytes32",
          "name": "",
          "type": "bytes32"
        }
      ],
      "stateMutability": "view",
      "type": "function"
    },
    {
      "inputs": [
        {
          "internalType": "uint256",
          "name": "_lotteryId",
          "type": "uint256"
        },
        {
          "internalType": "address",
          "name": "_user",
          "type": "address"
        }
      ],
      "name": "getTicketCountPerUser",
      "outputs": [
        {
          "internalType": "uint256",
          "name": "",
          "type": "uint256"
        }
      ],
      "stateMutability": "view",
      "type": "function"
    },
    {
      "inputs": [
        {
          "internalType": "uint256",
          "name": "_lotteryId",
          "type": "uint256"
        }
      ],
      "name": "getWhitelist",
      "outputs": [
        {
          "internalType": "address",
          "name": "",
          "type": "address"
        }
      ],
      "stateMutability": "view",
      "type": "function"
    },
    {
      "inputs": [
        {
          "internalType": "bytes32",
          "name": "role",
          "type": "bytes32"
        },
        {
          "internalType": "address",
          "name": "account",
          "type": "address"
        }
      ],
      "name": "grantRole",
      "outputs": [],
      "stateMutability": "nonpayable",
      "type": "function"
    },
    {
      "inputs": [
        {
          "internalType": "bytes32",
          "name": "role",
          "type": "bytes32"
        },
        {
          "internalType": "address",
          "name": "account",
          "type": "address"
        }
      ],
      "name": "hasRole",
      "outputs": [
        {
          "internalType": "bool",
          "name": "",
          "type": "bool"
        }
      ],
      "stateMutability": "view",
      "type": "function"
    },
    {
      "inputs": [
        {
          "internalType": "address",
          "name": "_rewardsContract",
          "type": "address"
        },
        {
          "internalType": "address",
          "name": "_admin",
          "type": "address"
        }
      ],
      "name": "initialize",
      "outputs": [],
      "stateMutability": "nonpayable",
      "type": "function"
    },
    {
      "inputs": [
        {
          "internalType": "uint256",
          "name": "",
          "type": "uint256"
        }
      ],
      "name": "lotteries",
      "outputs": [
        {
          "internalType": "uint256",
          "name": "",
          "type": "uint256"
        }
      ],
      "stateMutability": "view",
      "type": "function"
    },
    {
      "inputs": [
        {
          "internalType": "uint256",
          "name": "",
          "type": "uint256"
        },
        {
          "internalType": "uint256",
          "name": "",
          "type": "uint256"
        }
      ],
      "name": "lotteryTickets",
      "outputs": [
        {
          "internalType": "uint256",
          "name": "ticketCostInCoins",
          "type": "uint256"
        },
        {
          "internalType": "address",
          "name": "owner",
          "type": "address"
        }
      ],
      "stateMutability": "view",
      "type": "function"
    },
    {
      "inputs": [
        {
          "internalType": "uint256",
          "name": "",
          "type": "uint256"
        },
        {
          "internalType": "address",
          "name": "",
          "type": "address"
        }
      ],
      "name": "participants",
      "outputs": [
        {
          "internalType": "uint16",
          "name": "totalTicketsBought",
          "type": "uint16"
        },
        {
          "internalType": "bool",
          "name": "claimedPrize",
          "type": "bool"
        },
        {
          "internalType": "uint256",
          "name": "refundablePoints",
          "type": "uint256"
        },
        {
          "internalType": "uint256",
          "name": "refundableValue",
          "type": "uint256"
        }
      ],
      "stateMutability": "view",
      "type": "function"
    },
    {
      "inputs": [],
      "name": "pause",
      "outputs": [],
      "stateMutability": "nonpayable",
      "type": "function"
    },
    {
      "inputs": [],
      "name": "paused",
      "outputs": [
        {
          "internalType": "bool",
          "name": "",
          "type": "bool"
        }
      ],
      "stateMutability": "view",
      "type": "function"
    },
    {
      "inputs": [
        {
          "internalType": "uint256",
          "name": "_lotteryId",
          "type": "uint256"
        },
        {
          "internalType": "uint256",
          "name": "_ticketNumber",
          "type": "uint256"
        }
      ],
      "name": "prizeClaimed",
      "outputs": [
        {
          "internalType": "bool",
          "name": "",
          "type": "bool"
        }
      ],
      "stateMutability": "view",
      "type": "function"
    },
    {
      "inputs": [
        {
          "internalType": "uint256",
          "name": "",
          "type": "uint256"
        }
      ],
      "name": "prizeMerkleRoots",
      "outputs": [
        {
          "internalType": "bytes32",
          "name": "",
          "type": "bytes32"
        }
      ],
      "stateMutability": "view",
      "type": "function"
    },
    {
      "inputs": [
        {
          "internalType": "uint256",
          "name": "",
          "type": "uint256"
        },
        {
          "internalType": "uint256",
          "name": "",
          "type": "uint256"
        }
      ],
      "name": "prizes",
      "outputs": [
        {
          "internalType": "uint256",
          "name": "prizeId",
          "type": "uint256"
        },
        {
          "internalType": "uint16",
          "name": "numberOfEditions",
          "type": "uint16"
        }
      ],
      "stateMutability": "view",
      "type": "function"
    },
    {
      "inputs": [],
      "name": "proxiableUUID",
      "outputs": [
        {
          "internalType": "bytes32",
          "name": "",
          "type": "bytes32"
        }
      ],
      "stateMutability": "view",
      "type": "function"
    },
    {
      "inputs": [],
      "name": "randomGenerator",
      "outputs": [
        {
          "internalType": "contract IRandomNumberGenerator",
          "name": "",
          "type": "address"
        }
      ],
      "stateMutability": "view",
      "type": "function"
    },
    {
      "inputs": [
        {
          "internalType": "uint256",
          "name": "",
          "type": "uint256"
        }
      ],
      "name": "randomSeeds",
      "outputs": [
        {
          "internalType": "uint256",
          "name": "",
          "type": "uint256"
        }
      ],
      "stateMutability": "view",
      "type": "function"
    },
    {
      "inputs": [
        {
          "internalType": "uint256",
          "name": "_lotteryId",
          "type": "uint256"
        },
        {
          "internalType": "bytes32",
          "name": "_requestId",
          "type": "bytes32"
        },
        {
          "internalType": "uint256",
          "name": "_randomNumber",
          "type": "uint256"
        }
      ],
      "name": "receiveRandomNumber",
      "outputs": [],
      "stateMutability": "nonpayable",
      "type": "function"
    },
    {
      "inputs": [
        {
          "internalType": "uint256",
          "name": "_lotteryId",
          "type": "uint256"
        },
        {
          "internalType": "uint256",
          "name": "_index",
          "type": "uint256"
        }
      ],
      "name": "removePrize",
      "outputs": [],
      "stateMutability": "nonpayable",
      "type": "function"
    },
    {
      "inputs": [
        {
          "internalType": "bytes32",
          "name": "role",
          "type": "bytes32"
        },
        {
          "internalType": "address",
          "name": "account",
          "type": "address"
        }
      ],
      "name": "renounceRole",
      "outputs": [],
      "stateMutability": "nonpayable",
      "type": "function"
    },
    {
      "inputs": [
        {
          "internalType": "uint256",
          "name": "_lotteryId",
          "type": "uint256"
        }
      ],
      "name": "requestRandomNumber",
      "outputs": [],
      "stateMutability": "nonpayable",
      "type": "function"
    },
    {
      "inputs": [
        {
          "internalType": "bytes32",
          "name": "role",
          "type": "bytes32"
        },
        {
          "internalType": "address",
          "name": "account",
          "type": "address"
        }
      ],
      "name": "revokeRole",
      "outputs": [],
      "stateMutability": "nonpayable",
      "type": "function"
    },
    {
      "inputs": [],
      "name": "rewardsContract",
      "outputs": [
        {
          "internalType": "contract IRewards",
          "name": "",
          "type": "address"
        }
      ],
      "stateMutability": "view",
      "type": "function"
    },
    {
      "inputs": [
        {
          "internalType": "uint256",
          "name": "_lotteryId",
          "type": "uint256"
        },
        {
          "internalType": "uint32",
          "name": "_maxTickets",
          "type": "uint32"
        }
      ],
      "name": "setMaxTickets",
      "outputs": [],
      "stateMutability": "nonpayable",
      "type": "function"
    },
    {
      "inputs": [
        {
          "internalType": "uint256",
          "name": "_lotteryId",
          "type": "uint256"
        },
        {
          "internalType": "uint32",
          "name": "_maxTicketsPerUser",
          "type": "uint32"
        }
      ],
      "name": "setMaxTicketsPerUser",
      "outputs": [],
      "stateMutability": "nonpayable",
      "type": "function"
    },
    {
      "inputs": [
        {
          "internalType": "uint256",
          "name": "_lotteryId",
          "type": "uint256"
        },
        {
          "internalType": "bytes32",
          "name": "_root",
          "type": "bytes32"
        }
      ],
      "name": "setPrizeMerkleRoot",
      "outputs": [],
      "stateMutability": "nonpayable",
      "type": "function"
    },
    {
      "inputs": [
        {
          "internalType": "address",
          "name": "_IRandomNumberGenerator",
          "type": "address"
        }
      ],
      "name": "setRandomGenerator",
      "outputs": [],
      "stateMutability": "nonpayable",
      "type": "function"
    },
    {
      "inputs": [
        {
          "internalType": "address",
          "name": "_rewardsContract",
          "type": "address"
        }
      ],
      "name": "setRewardsContract",
      "outputs": [],
      "stateMutability": "nonpayable",
      "type": "function"
    },
    {
      "inputs": [
        {
          "internalType": "address",
          "name": "_signer",
          "type": "address"
        }
      ],
      "name": "setSignerAddress",
      "outputs": [],
      "stateMutability": "nonpayable",
      "type": "function"
    },
    {
      "inputs": [
        {
          "internalType": "uint256",
          "name": "_lotteryId",
          "type": "uint256"
        },
        {
          "internalType": "address",
          "name": "_whitelist",
          "type": "address"
        }
      ],
      "name": "setWhitelist",
      "outputs": [],
      "stateMutability": "nonpayable",
      "type": "function"
    },
    {
      "inputs": [],
      "name": "signerAddress",
      "outputs": [
        {
          "internalType": "address",
          "name": "",
          "type": "address"
        }
      ],
      "stateMutability": "view",
      "type": "function"
    },
    {
      "inputs": [
        {
          "internalType": "bytes4",
          "name": "interfaceId",
          "type": "bytes4"
        }
      ],
      "name": "supportsInterface",
      "outputs": [
        {
          "internalType": "bool",
          "name": "",
          "type": "bool"
        }
      ],
      "stateMutability": "view",
      "type": "function"
    },
    {
      "inputs": [],
      "name": "token",
      "outputs": [
        {
          "internalType": "contract IERC20",
          "name": "",
          "type": "address"
        }
      ],
      "stateMutability": "view",
      "type": "function"
    },
    {
      "inputs": [],
      "name": "unpause",
      "outputs": [],
      "stateMutability": "nonpayable",
      "type": "function"
    },
    {
      "inputs": [
        {
          "internalType": "uint256",
          "name": "lotteryId",
          "type": "uint256"
        },
        {
          "internalType": "uint256",
          "name": "_ticketCostPoints",
          "type": "uint256"
        },
        {
          "internalType": "uint256",
          "name": "_ticketCostTokens",
          "type": "uint256"
        },
        {
          "internalType": "uint32",
          "name": "_startTime",
          "type": "uint32"
        },
        {
          "internalType": "uint32",
          "name": "_closeTime",
          "type": "uint32"
        },
        {
          "internalType": "contract INFT",
          "name": "_nftContract",
          "type": "address"
        },
        {
          "internalType": "uint16",
          "name": "_maxTickets",
          "type": "uint16"
        },
        {
          "internalType": "uint256",
          "name": "_defaultPrizeId",
          "type": "uint256"
        },
        {
          "internalType": "enum Lottery.Status",
          "name": "_status",
          "type": "uint8"
        },
        {
          "internalType": "bool",
          "name": "_isRefundable",
          "type": "bool"
        }
      ],
      "name": "updateLottery",
      "outputs": [],
      "stateMutability": "nonpayable",
      "type": "function"
    },
    {
      "inputs": [
        {
          "internalType": "address",
          "name": "newImplementation",
          "type": "address"
        }
      ],
      "name": "upgradeTo",
      "outputs": [],
      "stateMutability": "nonpayable",
      "type": "function"
    },
    {
      "inputs": [
        {
          "internalType": "address",
          "name": "newImplementation",
          "type": "address"
        },
        {
          "internalType": "bytes",
          "name": "data",
          "type": "bytes"
        }
      ],
      "name": "upgradeToAndCall",
      "outputs": [],
      "stateMutability": "payable",
      "type": "function"
    },
    {
      "inputs": [
        {
          "internalType": "uint256",
          "name": "",
          "type": "uint256"
        }
      ],
      "name": "whitelists",
      "outputs": [
        {
          "internalType": "address",
          "name": "",
          "type": "address"
        }
      ],
      "stateMutability": "view",
      "type": "function"
    },
    {
      "inputs": [
        {
          "internalType": "address payable",
          "name": "_to",
          "type": "address"
        },
        {
          "internalType": "uint256",
          "name": "_amount",
          "type": "uint256"
        }
      ],
      "name": "withdraw",
      "outputs": [],
      "stateMutability": "nonpayable",
      "type": "function"
    },
    {
      "inputs": [
        {
          "internalType": "uint256",
          "name": "",
          "type": "uint256"
        }
      ],
      "name": "withdrawals",
      "outputs": [
        {
          "internalType": "uint256",
          "name": "",
          "type": "uint256"
        }
      ],
      "stateMutability": "view",
      "type": "function"
    }
  ],
  "bytecode": "0x60a080604052346100315730608052614cf990816100378239608051818181610b4b0152818161122e01526112ef0152f35b600080fdfe60806040526004361015610013575b600080fd5b60003560e01c806301ffc9a71461049257806302e060c614610489578063046dc166146104805780631398e07614610477578063220cce971461046e5780632368040014610465578063248a9ca31461045c57806328990683146104535780632c75d03e1461044a5780632f2ff15d146104415780632f9aa1fe1461043857806336568abe1461042f5780633659cfe6146104265780633f4ba83a1461041d57806340cf23d9146104145780634538f2971461040b578063485cc9551461040257806349c0de88146103f95780634a004467146103f05780634bc19fee146103e75780634f1ef286146103de57806350612da6146103d557806352d1902d146103cc5780635b4bd797146103c35780635b7633d0146103ba5780635c975abb146103b15780635cc07076146103a85780636131dee61461039f5780636a55e2ae146103965780636a6be3151461038d5780636cf64a33146103845780636e55ce1d1461037b57806376b3c8a81461037257806378a03c47146103695780638456cb59146103605780638627df461461035757806391834cf41461034e57806391d148541461034557806396db752a1461033c578063987bf592146103335780639b7fecc31461032a578063a217fddf14610321578063b1eb96c914610318578063bf4002b21461030f578063c11ab61514610306578063cc307795146102fd578063d098a2f0146102f4578063d547741f146102eb578063d89da286146102e2578063db2c0fd1146102ac578063dcbad90d146102d9578063dfa0dfa5146102d0578063ec909ce2146102c7578063f3fef3a3146102be578063f5f48998146102b5578063f90328d5146102ac578063fc0c546a146102a35763fe4d5add1461029b57600080fd5b61000e611da0565b5061000e6128e8565b5061000e612533565b5061000e6128b1565b5061000e612804565b5061000e612607565b5061000e61259f565b5061000e612574565b5061000e6124b9565b5061000e612476565b5061000e612448565b5061000e6123b8565b5061000e612333565b5061000e6122b9565b5061000e61211f565b5061000e612102565b5061000e611fff565b5061000e611dd6565b5061000e611da0565b5061000e611d49565b5061000e611c43565b5061000e611c21565b5061000e611ba0565b5061000e611b18565b5061000e611a39565b5061000e6118da565b5061000e611624565b5061000e611550565b5061000e6114d9565b5061000e611490565b5061000e611462565b5061000e61143e565b5061000e611413565b5061000e6113a5565b5061000e6112db565b5061000e611289565b5061000e6111d3565b5061000e610ffc565b5061000e610f7d565b5061000e610eeb565b5061000e610dd2565b5061000e610cfc565b5061000e610ca5565b5061000e610bec565b5061000e610b1d565b5061000e610a84565b5061000e610a64565b5061000e610993565b5061000e61082c565b5061000e6106e0565b5061000e6106b0565b5061000e610682565b5061000e610657565b5061000e6105f9565b5061000e610577565b5061000e6104fa565b503461000e57602036600319011261000e5760043563ffffffff60e01b811680910361000e57602090637965db0b60e01b81149081156104d8575b506040519015158152f35b6301ffc9a760e01b149050386104cd565b6001600160a01b0381160361000e57565b503461000e57604036600319011261000e57608061054560243561051d816104e9565b60043560005261013960205260406000209060018060a01b0316600052602052604060002090565b805490600260018201549101549060ff6040519361ffff8116855260101c161515602084015260408301526060820152f35b503461000e57602036600319011261000e57600435610595816104e9565b336000908152600080516020614c64833981519152602052604090206105c09060ff905b5416613440565b61012e80546001600160a01b0319166001600160a01b03909216919091179055005b50634e487b7160e01b600052603260045260246000fd5b503461000e57602036600319011261000e5760043561013290815481101561000e576020916000527fc53bdfd4aa1ab65dfdaf681ca6bda958ae4a123d4ed68c4277796592280e78350154604051908152f35b600091031261000e57565b503461000e57600036600319011261000e57610131546040516001600160a01b039091168152602090f35b503461000e57602036600319011261000e5760043560005261013a6020526020604060002054604051908152f35b503461000e57602036600319011261000e5760043560005260656020526020600160406000200154604051908152f35b503461000e57606036600319011261000e5761013054600435906001600160a01b031633036107c45780600091825261013360205261079660408320610739600260ff835460c01c1660048110156107b7575b146141db565b6024357f8e372cc311d12a5394f598c3c41b36e9775c6cb51b99fde2aaca7978a8ec713f85604051a2805460ff60c01b1916600360c01b17815560443561078b8460005261013a602052604060002090565b555460c01c60ff1690565b61079f81611944565b60405191600080516020614c848339815191528484a3f35b6107bf61192d565b610733565b60405162461bcd60e51b815260206004820152601060248201526f4f6e6c7920524e47206164647265737360801b6044820152606490fd5b9181601f8401121561000e578235916001600160401b03831161000e576020808501948460051b01011161000e57565b503461000e57606036600319011261000e576001600160401b0360043560243582811161000e576108619036906004016107fc565b909260443590811161000e5761087b9036906004016107fc565b336000908152600080516020614c648339815191526020908152604082209196929392916108ab9060ff906105b9565b85875261013381526108dc63ffffffff6108d46108ca60408b20613509565b5163ffffffff1690565b1615156136d9565b6108e785151561371e565b6108f284861461376a565b865b85811061093057604051868152889088907f8840be43b589db14b534f6e7451c1e971a9aa90c72beae7ae076d12ce2d6e7d490602090a2604051f35b61098e9061098961094c89600052610137602052604060002090565b610957838a886137dc565b359061098461096f61096a868c8c6137dc565b6137f4565b610977611156565b93845261ffff1687840152565b6137fe565b6137cc565b6108f4565b503461000e5760408060031936011261000e57600435906024356109b6816104e9565b60009280845260656020526109d060018486200154612913565b808452606560209081528385206001600160a01b03841660009081529152604090205460ff1615610a0057505051f35b808452606560209081528385206001600160a01b0384166000908152915260409020805460ff19166001179055825133926001600160a01b031691907f2f8788117e7eff1d82e926ec794901d17c78024a50270940304540a733656f0d908690a451f35b503461000e57600036600319011261000e57602061013254604051908152f35b503461000e57604036600319011261000e57602435610aa2816104e9565b336001600160a01b03821603610ac057610abe90600435612b66565b005b60405162461bcd60e51b815260206004820152602f60248201527f416363657373436f6e74726f6c3a2063616e206f6e6c792072656e6f756e636560448201526e103937b632b9903337b91039b2b63360891b6064820152608490fd5b503461000e57602036600319011261000e57610abe600435610b3e816104e9565b610b906001600160a01b037f0000000000000000000000000000000000000000000000000000000000000000811690610b7930831415612bf6565b600080516020614ca4833981519152541614612c57565b336000908152600080516020614c6483398151915260205260409020610bb89060ff906105b9565b60405190602082018281106001600160401b03821117610bdf575b60405260008252612d9c565b610be76110ac565b610bd3565b503461000e57600080600319360112610ca25780805260656020908152604080832033600090815292529020610c249060ff906105b9565b60fb5460ff811615610c665760ff191660fb557f5db9ee0a495bf2e6ff9c91a7834c1ba4fdd244a5e8aa4e537bd38aeae4b073aa6020604051338152a1604051f35b60405162461bcd60e51b815260206004820152601460248201527314185d5cd8589b194e881b9bdd081c185d5cd95960621b6044820152606490fd5b80fd5b503461000e57604036600319011261000e57602061ffff610cf2602435610ccb816104e9565b600435600052610139845260406000209060018060a01b0316600052602052604060002090565b5416604051908152f35b503461000e57602036600319011261000e57336000908152600080516020614c648339815191526020526040812060043590610d3a9060ff906105b9565b80825261013360205260408220600360ff825460c01c166004811015610dc5575b14610d8057805460ff60c01b1916600160c01b178155610796905b5460c01c60ff1690565b60405162461bcd60e51b815260206004820152601960248201527f4c6f747465727920616c726561647920636f6d706c65746564000000000000006044820152606490fd5b610dcd61192d565b610d5b565b503461000e57604036600319011261000e57600435610df0816104e9565b60243590610dfd826104e9565b610e48610e08613400565b9283610ead575b610e1761338c565b610e3160ff60005460081c16610e2c8161332c565b61332c565b60ff1960fb541660fb55610e4361338c565b612ad0565b61013180546001600160a01b0319166001600160a01b03909216919091179055610e6e57005b610e7e61ff001960005416600055565b604051600181527f7f26b83ff96e1f2b6a682f133852f6798a09c465da95921460cefb384740249890602090a1005b61010061ff00196000541617600055610e0f565b8054821015610ede575b60005260206000209060011b0190600090565b610ee66105e2565b610ecb565b503461000e57604036600319011261000e5760243560043560005261013b6020526040600020805482101561000e57604091610f2691610ec1565b50805460019091015482519182526001600160a01b03166020820152f35b6024359063ffffffff8216820361000e57565b6084359063ffffffff8216820361000e57565b60a4359063ffffffff8216820361000e57565b503461000e57604036600319011261000e57610f97610f44565b336000908152600080516020614c64833981519152602052604081209091610ff791610fc59060ff906105b9565b600435835261013360205260408320805463ffffffff60801b191660809290921b63ffffffff60801b16919091179055565b604051f35b503461000e57602036600319011261000e5760043561101a816104e9565b336000908152600080516020614c64833981519152602052604090206110429060ff906105b9565b6001600160a01b031680156110675761013080546001600160a01b0319169091179055005b60405162461bcd60e51b815260206004820152601d60248201527f436f6e7472616374732063616e6e6f74206265203020616464726573730000006044820152606490fd5b50634e487b7160e01b600052604160045260246000fd5b6001600160401b0381116110d657604052565b6110de6110ac565b604052565b6101c081019081106001600160401b038211176110d657604052565b604081019081106001600160401b038211176110d657604052565b606081019081106001600160401b038211176110d657604052565b90601f801991011681019081106001600160401b038211176110d657604052565b60405190611163826110ff565b565b60405190611163826110e3565b6020906001600160401b03811161118f575b601f01601f19160190565b6111976110ac565b611184565b9291926111a882611172565b916111b66040519384611135565b82948184528183011161000e578281602093846000960137010152565b50604036600319011261000e576004356111ec816104e9565b602435906001600160401b03821161000e573660238301121561000e57611220610abe92369060248160040135910161119c565b9061125c6001600160a01b037f0000000000000000000000000000000000000000000000000000000000000000811690610b7930831415612bf6565b336000908152600080516020614c64833981519152602052604090206112849060ff906105b9565b612e5f565b503461000e57604036600319011261000e57336000908152600080516020614c64833981519152602052604081206112c39060ff906105b9565b60043581526101356020526024356040822055604051f35b503461000e57600036600319011261000e577f00000000000000000000000000000000000000000000000000000000000000006001600160a01b0316300361133a57604051600080516020614ca48339815191528152602090f35b0390f35b60405162461bcd60e51b815260206004820152603860248201527f555550535570677261646561626c653a206d757374206e6f742062652063616c60448201527f6c6564207468726f7567682064656c656761746563616c6c00000000000000006064820152608490fd5b503461000e5760a036600319011261000e576004356113c3816104e9565b608435906001600160401b039081831161000e573660238401121561000e57826004013591821161000e57366024838501011161000e576024610abe9301906064359060443590602435906138a3565b503461000e57600036600319011261000e5761012e546040516001600160a01b039091168152602090f35b503461000e57600036600319011261000e57602060ff60fb54166040519015158152f35b503461000e57602036600319011261000e5760043560005261013c6020526020604060002054604051908152f35b503461000e57604036600319011261000e5760206114bb6024356114b3816104e9565b600435614afa565b604051908152f35b61ffff81160361000e57565b8015150361000e57565b503461000e5761014036600319011261000e5760643563ffffffff8116810361000e57611504610f57565b60a43591611511836104e9565b60c4359061151e826114c3565b6101043591600483101561000e57610abe94610124359461153e866114cf565b60e43593604435602435600435613d32565b503461000e57604036600319011261000e5761156a610f44565b336000908152600080516020614c64833981519152602052604081209091906115959060ff906105b9565b6004358252610133602052604082209063ffffffff91828154169283156115e857610ff7936115c69184161161347f565b9067ffffffff0000000082549160201b169067ffffffff000000001916179055565b60405162461bcd60e51b8152602060048201526014602482015273131bdd1d195c9e481a59081b9bdd08199bdd5b9960621b6044820152606490fd5b503461000e5760a036600319011261000e57600435602435611645816104e9565b60443560643592608435936001600160401b03851161000e5761175461167261174f9636906004016107fc565b969061168360ff60fb541615614269565b6116b38761169c87600052610139602052604060002090565b9060018060a01b0316600052602052604060002090565b976116c986600052610133602052604060002090565b9861170b6117066117026116fb896116ec8c600052610138602052604060002090565b90600052602052604060002090565b5460ff1690565b1590565b61490b565b60018a015460a01c60ff16611897575b5061174a61172b86898b8a614a49565b9261174188600052610135602052604060002090565b549236916149b8565b614a9f565b614a06565b6117816117708561169c85600052610139602052604060002090565b805462ff0000191662010000179055565b6117d26117c56117af60016117a186600052610133602052604060002090565b01546001600160a01b031690565b926116ec85600052610138602052604060002090565b805460ff19166001179055565b600360018060a01b03809216950154853b1561000e576040516305661ce360e11b81526001600160a01b03861660048201526024810185905260016044820152606481019190915260a06084820152600060a48201819052958690829060c490829084905af1801561188a575b611871575b506040519316907f4aa95f981a8337cb337de335b965507da0879c3b49f799d20058e913f5ad2c268585a4f35b8061187e611884926110c3565b8061064c565b38611844565b611892612ce2565b61183f565b6118d260026118ba886118b58b60005261013b602052604060002090565b610ec1565b505492019182546118cd82821015614961565b61361e565b90553861171b565b503461000e57604036600319011261000e576024356004356000526101376020526040600020805482101561000e5760409161191591610ec1565b5061ffff600182549201541682519182526020820152f35b50634e487b7160e01b600052602160045260246000fd5b6004111561194e57565b61116361192d565b9060048210156119635752565b61196b61192d565b52565b815163ffffffff1681526101c08101929160208181015163ffffffff169083015260408181015163ffffffff169083015260608181015163ffffffff169083015260808181015163ffffffff169083015260a08181015163ffffffff16908301526119e160c082015160c0840190611956565b60e0818101516001600160a01b0316908301526101008181015115159083015261012080820151908301526101408082015190830152610160808201519083015261018080820151908301526101a080910151910152565b503461000e57602036600319011261000e57604051611a57816110e3565b6101a06000918281528260208201528260408201528260608201528260808201528260a08201528260c08201528260e082015282610100820152826101208201528261014082015282610160820152826101808201520152611336611ad1611acc600435600052610133602052604060002090565b613509565b6040519182918261196e565b6020908160408183019282815285518094520193019160005b828110611b04575050505090565b835185529381019392810192600101611af6565b503461000e5760208060031936011261000e57600435611b37816104e9565b6001600160a01b0316600090815261013682526040808220905181548082529183528383208185019491939092915b828210611b895761133685611b7d81890382611135565b60405191829182611add565b835486529485019460019384019390910190611b66565b503461000e57600080600319360112610ca25780805260656020908152604080832033600090815292529020611bd89060ff906105b9565b600160fb54611bea60ff821615614269565b60ff19161760fb557f62e78cea01bee320cd4e420270b5ea74000d11b0c9f74754ebdbfc544b05a2586020604051338152a1604051f35b503461000e57604036600319011261000e5760206114bb6024356004356142a8565b503461000e5760408060031936011261000e576000808052606560209081528282203383529052604081209091906004359060243590611c859060ff906105b9565b8184526101378060205283852054821015611d0f5791611cf6611d0792611d0c94838852602052611cf0611cd9878920611cd3611ccd87600052610137602052604060002090565b5461360f565b90610ec1565b50916118b585600052610137602052604060002090565b9061364c565b600052610137602052604060002090565b61368e565b51f35b835162461bcd60e51b8152602060048201526013602482015272496e646578206f7574206f6620626f756e647360681b6044820152606490fd5b503461000e57604036600319011261000e57602060ff611d94602435611d6e816104e9565b6004356000526065845260406000209060018060a01b0316600052602052604060002090565b54166040519015158152f35b503461000e57602036600319011261000e57600435600052610134602052602060018060a01b0360406000205416604051908152f35b503461000e576101208060031936011261000e57602435600435611df8610f57565b611e00610f6a565b9160c43590611e0e826104e9565b8060e43596611e1c886114cf565b336000908152600080516020614c64833981519152602052604081209098905460ff16611e4890613440565b611e5c63ffffffff8781169089161161347f565b60405163185153c360e01b81526004810189905290896001600160a01b03871683602481845a94602095f1968715611f589a611eb2611f539a611f1c97611f1296611edf95611f9f575b91611f71575b50613e98565b611ebb8d613ee4565b611ed2611ec6611165565b63ffffffff909c168c52565b63ffffffff1660208b0152565b604089018c9052606089018c9052608089018c905260a089018c905260c089018c90526001600160a01b031660e0890152565b1515610100870152565b84015284610140840152604435610160840152606435610180840152610104356101a0840152600052610133602052604060002090565b613f8d565b8160405191600080516020614c848339815191528284a3f35b611f92915060203d8111611f98575b611f8a8183611135565b810190613e83565b38611eac565b503d611f80565b611fa7612ce2565b611ea6565b60208082019080835283518092528060408094019401926000905b838210611fd657505050505090565b8451805187528301516001600160a01b0316868401529485019493820193600190910190611fc7565b503461000e57606036600319011261000e576004356024356044358181106120f5575b600182820360011981116120e8575b019061203c826134d7565b9260409261204c84519586611135565b80855261205b601f19916134d7565b016000805b8281106120c6575050505b81811115612080578251806113368682611fac565b806120a66120a06120c1936118b58960005261013b602052604060002090565b50614242565b6120b08287614220565b526120bb8186614220565b506137cc565b61206b565b60209086516120d4816110ff565b838152828481830152828a01015201612060565b6120f0613188565b612031565b6120fd613188565b612022565b503461000e57600036600319011261000e57602060405160008152f35b503461000e5760208060031936011261000e5760008080526065825260408082203383526020528120909160043591612215919061215f9060ff906105b9565b6121be60026121af61217c86600052610133602052604060002090565b60ff81546121934263ffffffff838a1c161061414b565b60c01c166121a081611944565b1561227d575460c01c60ff1690565b6121b881611944565b1461418f565b610130546121dc906001600160a01b03165b6001600160a01b031690565b604051632cdc85e960e21b8152600481018590529082908290602490829089905af1918215612270575b8592612243575b505061012d55565b61012d54604051917ff8cdf8355a0f31bbad8998a631f5a75dcb3e475a010b34a111ed105fe88e751a8484a3f35b6122629250803d10612269575b61225a8183611135565b810190612cd3565b388061220d565b503d612250565b612278612ce2565b612206565b805460ff60c01b1916600160c11b178155805460c01c60ff1661229f81611944565b87600080516020614c848339815191528a604051a3610d76565b503461000e57604036600319011261000e576122d3610f44565b336000908152600080516020614c64833981519152602052604081209091610ff7916123019060ff906105b9565b600435835261013360205260408320805463ffffffff60601b191660609290921b63ffffffff60601b16919091179055565b503461000e57602036600319011261000e57600435600052610133602052602063ffffffff60406000205460a01c16604051908152f35b60208082019080835283518092528060408094019401926000905b83821061239457505050505090565b84518051875283015161ffff16868401529485019493820193600190910190612385565b503461000e5760208060031936011261000e576004356000526101378152604090816000208054906123e9826134d7565b926123f685519485611135565b82845260009182528082208185015b84841061241957865180611336888261236a565b600283600192895161242a816110ff565b8554815261ffff858701541683820152815201920193019290612405565b503461000e57602036600319011261000e576004356000526101356020526020604060002054604051908152f35b503461000e57604036600319011261000e57610abe60243560043561249a826104e9565b8060005260656020526124b4600160406000200154612913565b612b66565b503461000e57604036600319011261000e576024356124d7816104e9565b336000908152600080516020614c64833981519152602052604081209091610ff7916125059060ff906105b9565b60043583526101346020526040832080546001600160a01b0319166001600160a01b03909216919091179055565b503461000e57604036600319011261000e576004356000526101386020526040600020602435600052602052602060ff604060002054166040519015158152f35b503461000e57600036600319011261000e57610130546040516001600160a01b039091168152602090f35b503461000e57602036600319011261000e576004356125bd816104e9565b336000908152600080516020614c64833981519152602052604090206125e59060ff906105b9565b61013180546001600160a01b0319166001600160a01b03909216919091179055005b503461000e57602036600319011261000e5760043561262b60ff60fb541615614269565b61264081600052610133602052604060002090565b61266b61265883600052610139602052604060002090565b3360009081526020919091526040902090565b9061267b815460ff9060c01c1690565b61268481611944565b6003810361270a5750600101546002919060a01c60ff16806126fe575b6126aa90614bcd565b01906000825492556126ce6000808060405186335af16126c8613120565b50614c27565b60405191825233917f7ca5472b7ea78c2c0141c5a12ee6d170cf4ce8ed06be3d22c8252ddfc7a6a2c490602090a3005b508082015415156126a1565b6001915061271781611944565b036127ac5761272b60028201541515614b8e565b61013154612741906001600160a01b03166121d0565b906001810154823b1561000e57604051633e098a6b60e21b815233600482015260248101919091526002926000908290604490829084905af1801561279f575b61278c575b506126aa565b8061187e612799926110c3565b38612786565b6127a7612ce2565b612781565b60405162461bcd60e51b815260206004820152602660248201527f43616e27742061736b20666f72206120726566756e64206f6e2074686973206c6044820152656f747465727960d01b6064820152608490fd5b0390fd5b503461000e57604036600319011261000e57600435612822816104e9565b336000908152600080516020614c648339815191526020526040812090918291829182916128529060ff906105b9565b60405190602435906001600160a01b03165af161286d613120565b501561287857604051f35b60405162461bcd60e51b815260206004820152601160248201527015da5d1a191c985dd85b0819985a5b1959607a1b6044820152606490fd5b503461000e57602036600319011261000e57600435600052610133602052602063ffffffff60406000205460401c16604051908152f35b503461000e57600036600319011261000e5761012f546040516001600160a01b039091168152602090f35b600081815260656020908152604080832033845290915290205460ff16156129385750565b3390612942612cb8565b91603061294e846131d2565b53607861295a846131e8565b5360295b60018111612a09576128006129c66129f1866129e3612986886129818915613233565b61327e565b6129c06040519586946129c0602087016017907f416363657373436f6e74726f6c3a206163636f756e742000000000000000000081520190565b90612a8d565b7001034b99036b4b9b9b4b733903937b6329607d1b815260110190565b03601f198101835282611135565b60405162461bcd60e51b815291829160048301612aa4565b9080600f612a4692166010811015612a4b575b6f181899199a1a9b1b9c1cb0b131b232b360811b901a612a3c84876131f9565b5360041c91613218565b61295e565b612a536105e2565b612a1c565b918091926000905b828210612a78575011612a71575050565b6000910152565b91508060209183015181860152018291612a60565b90612aa060209282815194859201612a58565b0190565b60409160208252612ac48151809281602086015260208686019101612a58565b601f01601f1916010190565b6001600160a01b0381166000908152600080516020614c64833981519152602052604081205460ff1615612b02575050565b8080526065602090815260408083206001600160a01b038516600090815292529020805460ff1916600117905560405133926001600160a01b031691907f2f8788117e7eff1d82e926ec794901d17c78024a50270940304540a733656f0d908290a4565b60008181526065602090815260408083206001600160a01b038616845290915290205460ff16612b94575050565b60008181526065602090815260408083206001600160a01b03861684529091529020805460ff1916905560405133926001600160a01b031691907ff6391f5c32d9c69d2a47ea670b442974b53935d1edc7fd64eb21e047a839171b90600090a4565b15612bfd57565b60405162461bcd60e51b815260206004820152602c60248201527f46756e6374696f6e206d7573742062652063616c6c6564207468726f7567682060448201526b19195b1959d85d1958d85b1b60a21b6064820152608490fd5b15612c5e57565b60405162461bcd60e51b815260206004820152602c60248201527f46756e6374696f6e206d7573742062652063616c6c6564207468726f7567682060448201526b6163746976652070726f787960a01b6064820152608490fd5b60405190612cc58261111a565b602a82526040366020840137565b9081602091031261000e575190565b506040513d6000823e3d90fd5b15612cf657565b60405162461bcd60e51b815260206004820152602960248201527f45524331393637557067726164653a20756e737570706f727465642070726f786044820152681a58589b195555525160ba1b6064820152608490fd5b60809060208152602e60208201527f45524331393637557067726164653a206e657720696d706c656d656e7461746960408201526d6f6e206973206e6f74205555505360901b60608201520190565b90612dc87f4910fdfa16fed3260ed0e7147f7cc6da11a60208b5b9406d12a635614ffd91435460ff1690565b15612dd7575061116390612f22565b6040516352d1902d60e01b8152916020836004816001600160a01b0385165afa60009381612e3f575b50612e1e5760405162461bcd60e51b81528061280060048201612d4d565b612e3a600080516020614ca48339815191526111639414612cef565b612fb2565b612e5891945060203d81116122695761225a8183611135565b9238612e00565b90612e8b7f4910fdfa16fed3260ed0e7147f7cc6da11a60208b5b9406d12a635614ffd91435460ff1690565b15612e9a575061116390612f22565b6040516352d1902d60e01b8152916020836004816001600160a01b0385165afa60009381612f02575b50612ee15760405162461bcd60e51b81528061280060048201612d4d565b612efd600080516020614ca48339815191526111639414612cef565b6130ca565b612f1b91945060203d81116122695761225a8183611135565b9238612ec3565b803b15612f5757600080516020614ca483398151915280546001600160a01b0319166001600160a01b03909216919091179055565b60405162461bcd60e51b815260206004820152602d60248201527f455243313936373a206e657720696d706c656d656e746174696f6e206973206e60448201526c1bdd08184818dbdb9d1c9858dd609a1b6064820152608490fd5b612fbb81612f22565b6040516001600160a01b0382167fbc7cd75a20ee27fd9adebab32041f755214dbc6bffa90cc0225b39da2e5c2d3b600083a28251158015906130c2575b61300157505050565b813b1561307157506000828192602061306e95519201905af4613022613120565b6040519161302f8361111a565b602783527f416464726573733a206c6f772d6c6576656c2064656c65676174652063616c6c6020840152660819985a5b195960ca1b6040840152613150565b50565b62461bcd60e51b815260206004820152602660248201527f416464726573733a2064656c65676174652063616c6c20746f206e6f6e2d636f6044820152651b9d1c9858dd60d21b6064820152608490fd5b506000612ff8565b6130d381612f22565b6040516001600160a01b0382167fbc7cd75a20ee27fd9adebab32041f755214dbc6bffa90cc0225b39da2e5c2d3b600083a28251158015906131185761300157505050565b506001612ff8565b3d1561314b573d9061313182611172565b9161313f6040519384611135565b82523d6000602084013e565b606090565b9091901561315c575090565b81511561316c5750805190602001fd5b60405162461bcd60e51b81529081906128009060048301612aa4565b50634e487b7160e01b600052601160045260246000fd5b80600019048211811515166131b2570290565b6131ba613188565b0290565b811981116131ca570190565b612aa0613188565b6020908051156131e0570190565b612aa06105e2565b6021908051600110156131e0570190565b90602091805182101561320b57010190565b6132136105e2565b010190565b8015613226575b6000190190565b61322e613188565b61321f565b1561323a57565b606460405162461bcd60e51b815260206004820152602060248201527f537472696e67733a20686578206c656e67746820696e73756666696369656e746044820152fd5b60405190608082018281106001600160401b0382111761331f575b60405260428252606036602084013760306132b3836131d2565b5360786132bf836131e8565b536041905b600182116132da576132d7915015613233565b90565b80600f61330c92166010811015613312575b6f181899199a1a9b1b9c1cb0b131b232b360811b901a612a3c84866131f9565b906132c4565b61331a6105e2565b6132ec565b6133276110ac565b613299565b1561333357565b60405162461bcd60e51b815260206004820152602b60248201527f496e697469616c697a61626c653a20636f6e7472616374206973206e6f74206960448201526a6e697469616c697a696e6760a81b6064820152608490fd5b61116360ff60005460081c1661332c565b156133a457565b60405162461bcd60e51b815260206004820152602e60248201527f496e697469616c697a61626c653a20636f6e747261637420697320616c72656160448201526d191e481a5b9a5d1a585b1a5e995960921b6064820152608490fd5b60005460ff8160081c16600014613422575061341d303b1561339d565b600090565b80613433600160ff8194161061339d565b60ff191617600055600190565b1561344757565b60405162461bcd60e51b815260206004820152601060248201526f41646d696e2063616c6c73206f6e6c7960801b6044820152606490fd5b1561348657565b60405162461bcd60e51b815260206004820152602360248201527f436c6f73652074696d65206d7573742062652061667465722073746172742074604482015262696d6560e81b6064820152608490fd5b6020906001600160401b0381116134f0575b60051b0190565b6134f86110ac565b6134e9565b60048210156119635752565b906006613514611165565b926135b760ff82546135aa63ffffffff6135368184168a9063ffffffff169052565b61354e818460201c1660208b019063ffffffff169052565b613566818460401c1660408b019063ffffffff169052565b61357e818460601c1660608b019063ffffffff169052565b613596818460801c1660808b019063ffffffff169052565b8260a01c1660a089019063ffffffff169052565b60c01c1660c086016134fd565b60018101546001600160a01b03811660e086015260a01c60ff161515610100850152600281015461012085015260038101546101408501526004810154610160850152600581015461018085015201546101a0830152565b60018110613226576000190190565b818110613629570390565b613631613188565b0390565b50634e487b7160e01b600052600060045260246000fd5b90613681575b81810361365d575050565b600161ffff81846111639554855501541691019061ffff1661ffff19825416179055565b613689613635565b613652565b805480156136c3576000190190600060016136a98484610ec1565b6136b6575b828155015555565b6136be613635565b6136ae565b634e487b7160e01b600052603160045260246000fd5b156136e057565b60405162461bcd60e51b8152602060048201526016602482015275131bdd1d195c9e48191bd95cc81b9bdd08195e1a5cdd60521b6044820152606490fd5b1561372557565b60405162461bcd60e51b815260206004820152601b60248201527f4e756d626572206f66207072697a65732063616e2774206265203000000000006044820152606490fd5b1561377157565b60405162461bcd60e51b815260206004820152602d60248201527f4e756d626572206f66207072697a652069647320616e6420616d6f756e74732060448201526c1b5d5cdd08189948195c5d585b609a1b6064820152608490fd5b60019060001981146131ca570190565b91908110156137ec5760051b0190565b6134f86105e2565b356132d7816114c3565b90600161ffff602061382761116395805490600160401b821015613856575b8582018155610ec1565b949094613849575b8051855501511691019061ffff1661ffff19825416179055565b613851613635565b61382f565b61385e6110ac565b61381d565b1561386a57565b60405162461bcd60e51b8152602060048201526011602482015270496e76616c6964207369676e617475726560781b6044820152606490fd5b91929361391e91956138f16138f7926138e9896040516138e1816129e360208201948c8660209093929193604081019460018060a01b031681520152565b519020613cef565b92369161119c565b90613a1e565b61012e5461390d906001600160a01b03166121d0565b6001600160a01b0390911614613863565b61013154613934906001600160a01b03166121d0565b60405163f662781d60e01b81526001600160a01b03831660048201529091908590602081602481875afa908115613a11575b6000916139f3575b5010613981575b505061306e92506142a8565b813b1561000e57604051630259ab7760e61b81526001600160a01b03919091166004820152602481019490945261306e93906000908290604490829084905af180156139e6575b6139d3575b80613975565b8061187e6139e0926110c3565b386139cd565b6139ee612ce2565b6139c8565b613a0b915060203d81116122695761225a8183611135565b3861396e565b613a19612ce2565b613966565b6132d791613a2b91613bbe565b919091613a3d565b6005111561194e57565b613a4681613a33565b80613a4e5750565b613a5781613a33565b60018103613aa45760405162461bcd60e51b815260206004820152601860248201527f45434453413a20696e76616c6964207369676e617475726500000000000000006044820152606490fd5b613aad81613a33565b60028103613afa5760405162461bcd60e51b815260206004820152601f60248201527f45434453413a20696e76616c6964207369676e6174757265206c656e677468006044820152606490fd5b613b0381613a33565b60038103613b5b5760405162461bcd60e51b815260206004820152602260248201527f45434453413a20696e76616c6964207369676e6174757265202773272076616c604482015261756560f01b6064820152608490fd5b80613b67600492613a33565b14613b6e57565b60405162461bcd60e51b815260206004820152602260248201527f45434453413a20696e76616c6964207369676e6174757265202776272076616c604482015261756560f01b6064820152608490fd5b815160418103613beb575090613be7916020820151906060604084015193015160001a90613c39565b9091565b604003613c2f578160406020613be79401519101519160ff601b84821c9481198611613c22575b600180841b031694011690613c39565b613c2a613188565b613c12565b5050600090600290565b9291907f7fffffffffffffffffffffffffffffff5d576e7357a4501ddfe92f46681b20a08311613ce35760ff16601b81141580613cd8575b613ccc579160809493916020936040519384528484015260408301526060820152600093849182805260015afa15613cbf575b81516001600160a01b03811615613cb9579190565b50600190565b613cc7612ce2565b613ca4565b50505050600090600490565b50601c811415613c71565b50505050600090600390565b60405160208101917f19457468657265756d205369676e6564204d6573736167653a0a3332000000008352603c820152603c8152613d2c8161111a565b51902090565b336000908152600080516020614c6483398151915260205260408120999a919990989697919694958b95949293915460ff16613d6d90613440565b8a8a5261013360205260408a2096875463ffffffff161515613d8e906136d9565b875463ffffffff191663ffffffff909116178755865467ffffffff00000000191660209190911b67ffffffff0000000016178655600486015560058501556001840180546001600160a01b0319166001600160a01b03909716969096178655835460609190911b61ffff60601b1663ffffffff60601b199091161783556006830155613e1991613e51565b815460ff60a01b191690151560a01b60ff60a01b16179055613e3a83611944565b60405190600080516020614c8483398151915291a3565b906004811015613e76575b815460ff60c01b191660c09190911b60ff60c01b16179055565b613e7e61192d565b613e5c565b9081602091031261000e57516132d7816114cf565b15613e9f57565b60405162461bcd60e51b815260206004820152601960248201527f436f6c6c656374696f6e20646f6573206e6f74206578697374000000000000006044820152606490fd5b610132805490600160401b821015613f3b575b60018201808255821015613f2e575b6000527fc53bdfd4aa1ab65dfdaf681ca6bda958ae4a123d4ed68c4277796592280e78350155565b613f366105e2565b613f06565b613f436110ac565b613ef7565b805490600160401b821015613f80575b60018201808255821015613f73575b60005260206000200155565b613f7b6105e2565b613f67565b613f886110ac565b613f58565b906101a0600691613fbb613fa5825163ffffffff1690565b855463ffffffff191663ffffffff909116178555565b613ff1613fcf602083015163ffffffff1690565b855467ffffffff00000000191660209190911b67ffffffff0000000016178555565b61402a614005604083015163ffffffff1690565b85546bffffffff0000000000000000191660409190911b63ffffffff60401b16178555565b61405e61403e606083015163ffffffff1690565b855463ffffffff60601b191660609190911b63ffffffff60601b16178555565b614092614072608083015163ffffffff1690565b855463ffffffff60801b191660809190911b63ffffffff60801b16178555565b6140c66140a660a083015163ffffffff1690565b855463ffffffff60a01b191660a09190911b63ffffffff60a01b16178555565b6140dd60c08201516140d781611944565b85613e51565b60e08101516001850180546101008401516001600160a01b039093166001600160a81b03199091161791151560a01b60ff60a01b1691909117905561012081015160028501556101408101516003850155610160810151600485015561018081015160058501550151910155565b1561415257565b60405162461bcd60e51b8152602060048201526015602482015274131bdd1d195c9e481a5cc81b9bdd0818db1bdcd959605a1b6044820152606490fd5b1561419657565b60405162461bcd60e51b815260206004820152601760248201527f4c6f7474657279206d75737420626520636c6f736564210000000000000000006044820152606490fd5b156141e257565b60405162461bcd60e51b8152602060048201526016602482015275131bdd1d195c9e481b5d5cdd0818994818db1bdcd95960521b6044820152606490fd5b6020918151811015614235575b60051b010190565b61423d6105e2565b61422d565b9060405161424f816110ff565b825481526001909201546001600160a01b03166020830152565b1561427057565b60405162461bcd60e51b815260206004820152601060248201526f14185d5cd8589b194e881c185d5cd95960821b6044820152606490fd5b906132d7916142bc60ff60fb541615614269565b600081815261013460205260409020546001600160a01b031615614519576143456143086121d06121d06142fb85600052610134602052604060002090565b546001600160a01b031690565b6040516320c18e6b60e21b81523360048201526024810184905290602090829060449082905afa908115614368575b60009161434a575b50614375565b614519565b614362915060203d8111611f9857611f8a8183611135565b3861433f565b614370612ce2565b614337565b1561437c57565b60405162461bcd60e51b815260206004820152600f60248201526e139bdd081dda1a5d195b1a5cdd1959608a1b6044820152606490fd5b156143ba57565b60405162461bcd60e51b815260206004820152601060248201526f151a58dad95d1cc81cdbdb19081bdd5d60821b6044820152606490fd5b156143f957565b606460405162461bcd60e51b815260206004820152602060248201527f43616e277420627579207468697320616d6f756e74206f66207469636b6574736044820152fd5b1561444457565b60405162461bcd60e51b81526020600482015260136024820152722637ba3a32b93c9034b9903737ba1037b832b760691b6044820152606490fd5b9063ffffffff80809316911680920381116131ca570190565b60019063ffffffff8091169081146131ca570190565b908082036144ba575050565b8054825461ffff191661ffff919091161782556002908190805462ff000060ff86549260101c16151560101b169062ff00001916178455600181015460018501550154910155565b9061ffff80809316911680920381116131ca570190565b6145c882916146b261453682600052610133602052604060002090565b80549063ffffffff91828160601c16806147a7575b506000602061467161456b61265889600052610139602052604060002090565b956145a861458561457e895461ffff1690565b61ffff1690565b958c838260801c168061478c575b5050428382161115908161477d575b5061443d565b6146306146106145e58d6145df60058b01549e8f9260048d01549061319f565b60018d016145d78282546131be565b9055336147c7565b9f61319f565b9260028a016145f58582546131be565b90558d1661460b895463ffffffff9060a01c1690565b61447f565b875463ffffffff60a01b191660a09190911b63ffffffff60a01b16178755565b61012f54614646906001600160a01b03166121d0565b60405163a9059cbb60e01b815230600482015260248101929092529093849283919082906044820190565b03925af18015614770575b614752575b50156146d7575b506146a261ffff861661469d835461ffff1690565b614502565b61ffff1661ffff19825416179055565b60005b8381106146c3575050505090565b6146d290610989843385614838565b6146b5565b3360009081526101366020526040902061472a91906146f7908690613f48565b805461470b9060401c63ffffffff16614498565b63ffffffff60401b82549160401b169063ffffffff60401b1916179055565b61474c816147473361169c87600052610139602052604060002090565b6144ae565b38614688565b6147699060203d8111611f9857611f8a8183611135565b5038614681565b614778612ce2565b61467c565b9050824291861c1611386145a2565b6147996147a0928a6131be565b11156143f2565b8c38614593565b6147c1906147ba89868560a01c166131be565b11156143b3565b3861454b565b61013154604051631e961d2760e01b81526001600160a01b039283166004820152602481019390935260209183916044918391600091165af190811561482b575b600091614813575090565b6132d7915060203d81116122695761225a8183611135565b614833612ce2565b614808565b90916148bc906040519061484b826110ff565b815260016020820194818060a01b03809116958681528560005261013b60205261488c6040600020805490600160401b821015613856578582018155610ec1565b9490946148fe575b518455511691019060018060a01b03166bffffffffffffffffffffffff60a01b825416179055565b7fc41bbb54d04f2268c7895b9330f18468c306a3f92698a92c4c86b2978739784860206148f48360005261013b602052604060002090565b54604051908152a3565b614906613635565b614894565b1561491257565b60405162461bcd60e51b815260206004820152602160248201527f5061727469636970616e7420616c726561647920636c61696d6564207072697a6044820152606560f81b6064820152608490fd5b1561496857565b60405162461bcd60e51b815260206004820152602260248201527f5061727469636970616e742068617320726571756573746564206120726566756044820152611b9960f21b6064820152608490fd5b92916149c3826134d7565b916149d16040519384611135565b829481845260208094019160051b810192831161000e57905b8282106149f75750505050565b813581529083019083016149ea565b15614a0d57565b60405162461bcd60e51b815260206004820152601460248201527324b73b30b634b21036b2b935b63290383937b7b360611b6044820152606490fd5b929091604051926020840194855260018060a01b03166040840152606083015260808201526080815260a081018181106001600160401b03821117614a92575b60405251902090565b614a9a6110ac565b614a89565b929091906000915b8451831015614af257614aba8386614220565b5190818111614add57600052602052614ad76040600020926137cc565b91614aa7565b90600052602052614ad76040600020926137cc565b915092501490565b600052610133602052614b2e60406000209161013960205260406000209060018060a01b0316600052602052604060002090565b9060ff815460c01c1690614b4182611944565b60038214918215614b78575b5081614b66575b50614b5f5750600090565b6002015490565b60ff91506001015460a01c1638614b54565b6001919250614b8681611944565b149038614b4d565b15614b9557565b60405162461bcd60e51b815260206004820152601060248201526f105b1c9958591e481c99599d5b99195960821b6044820152606490fd5b15614bd457565b60405162461bcd60e51b815260206004820152602560248201527f5061727469636970616e7420686173206e6f20726566756e6461626c65207469604482015264636b65747360d81b6064820152608490fd5b15614c2e57565b60405162461bcd60e51b815260206004820152600d60248201526c1499599d5b990819985a5b1959609a1b6044820152606490fdfeffdfc1249c027f9191656349feb0761381bb32c9f557e01f419fd08754bf5a1ba3aca9ae20a0379d4094b84c749cbed6584ab20f0b71af75f63f6615d879c939360894a13ba1a3210667c828492db98dca3e2076cc3735a920a3ca505d382bbca264697066735822122069ff8c5f6ea0af44754ed0c9d8751f87c5a4922f51de2e41e1f2a04413accb0064736f6c634300080e0033",
  "linkReferences": {},
  "deployedLinkReferences": {}
}