{
  "_format": "hh-sol-artifact-1",
  "contractName": "MockAuctionBidder",
  "sourceName": "contracts/Utils/MockAuctionBidder.sol",
  "abi": [
    {
      "inputs": [
        {
          "internalType": "address",
          "name": "_auction",
          "type": "address"
        }
      ],
      "stateMutability": "nonpayable",
      "type": "constructor"
    },
    {
      "inputs": [
        {
          "internalType": "uint256",
          "name": "auctionId",
          "type": "uint256"
        },
        {
          "internalType": "uint256",
          "name": "amount",
          "type": "uint256"
        },
        {
          "internalType": "bool",
          "name": "rejectPayments",
          "type": "bool"
        }
      ],
      "name": "makeBid",
      "outputs": [],
      "stateMutability": "nonpayable",
      "type": "function"
    },
    {
      "stateMutability": "payable",
      "type": "receive"
    }
  ],
  "bytecode": "0x608060405234801561001057600080fd5b5060405161028a38038061028a83398101604081905261002f91610054565b600080546001600160a01b0319166001600160a01b0392909216919091179055610084565b60006020828403121561006657600080fd5b81516001600160a01b038116811461007d57600080fd5b9392505050565b6101f7806100936000396000f3fe6080604052600436106100225760003560e01c80637e70d2121461002f57600080fd5b3661002a575b005b600080fd5b34801561003b57600080fd5b5061002861004a366004610117565b6000546040805180820182528581526020810185905290516001600160a01b0390921691849161007c91602401610155565b60408051601f198184030181529181526020820180516001600160e01b0316630b30c8ff60e31b179052516100b19190610186565b60006040518083038185875af1925050503d80600081146100ee576040519150601f19603f3d011682016040523d82523d6000602084013e6100f3565b606091505b505060008054921515600160a01b0260ff60a01b1990931692909217909155505050565b60008060006060848603121561012c57600080fd5b83359250602084013591506040840135801515811461014a57600080fd5b809150509250925092565b60408101818360005b600281101561017d57815183526020928301929091019060010161015e565b50505092915050565b6000825160005b818110156101a7576020818601810151858301520161018d565b818111156101b6576000828501525b50919091019291505056fea2646970667358221220d624e3f19b9f650c02bd924badd6e93ad9bf49f9e7a552a54ef7324d57bf165d64736f6c634300080e0033",
  "linkReferences": {},
  "deployedLinkReferences": {}
}