{
  "_format": "hh-sol-artifact-1",
  "contractName": "MockAuctionBidder",
  "sourceName": "contracts/Utils/MockAuctionBidder.sol",
  "abi": [
    {
      "inputs": [
        {
          "internalType": "address",
          "name": "_auction",
          "type": "address"
        }
      ],
      "stateMutability": "nonpayable",
      "type": "constructor"
    },
    {
      "inputs": [
        {
          "internalType": "uint256",
          "name": "auctionId",
          "type": "uint256"
        },
        {
          "internalType": "uint256",
          "name": "amount",
          "type": "uint256"
        },
        {
          "internalType": "bool",
          "name": "rejectPayments",
          "type": "bool"
        }
      ],
      "name": "makeBid",
      "outputs": [],
      "stateMutability": "nonpayable",
      "type": "function"
    },
    {
      "stateMutability": "payable",
      "type": "receive"
    }
  ],
  "bytecode": "0x60803461007d57601f61029138819003918201601f19168301916001600160401b038311848410176100825780849260209460405283398101031261007d57516001600160a01b038116810361007d57600080546001600160a01b0319166001600160a01b039092169190911790556040516101f890816100998239f35b600080fd5b634e487b7160e01b600052604160045260246000fdfe608080604052600436101561001d575b50361561001b57600080fd5b005b6000803560e01c637e70d21214610034575061000f565b346100fc5760603660031901126100fc5760443560243581151582036100f8579260018060a01b038354169061006981610116565b60043581526020808201869052604051630b30c8ff60e31b8183019081529296918690602483015b600283106100e357886100de8982808b8b8b8b604481526100b18161013f565b51925af1506100be61015b565b506000805460ff60a01b191691151560a01b60ff60a01b16919091179055565b604051f35b81806001928c518152019a0192019198610091565b8280fd5b80fd5b50634e487b7160e01b600052604160045260246000fd5b6040810190811067ffffffffffffffff82111761013257604052565b61013a6100ff565b604052565b6080810190811067ffffffffffffffff82111761013257604052565b3d156101bd5767ffffffffffffffff903d8281116101b0575b60405192601f8201601f19908116603f01168401908111848210176101a3575b60405282523d6000602084013e565b6101ab6100ff565b610194565b6101b86100ff565b610174565b60609056fea2646970667358221220b2356428c88b6f887b66f1d03c03b4e958ae10a519d391490b2905d6507f93ad64736f6c634300080e0033",
  "linkReferences": {},
  "deployedLinkReferences": {}
}