{
  "_format": "hh-sol-artifact-1",
  "contractName": "Auction",
  "sourceName": "contracts/Auction/Auction.sol",
  "abi": [
    {
      "anonymous": false,
      "inputs": [
        {
          "indexed": false,
          "internalType": "address",
          "name": "previousAdmin",
          "type": "address"
        },
        {
          "indexed": false,
          "internalType": "address",
          "name": "newAdmin",
          "type": "address"
        }
      ],
      "name": "AdminChanged",
      "type": "event"
    },
    {
      "anonymous": false,
      "inputs": [
        {
          "indexed": false,
          "internalType": "uint256",
          "name": "auctionId",
          "type": "uint256"
        }
      ],
      "name": "AuctionCancelled",
      "type": "event"
    },
    {
      "anonymous": false,
      "inputs": [
        {
          "indexed": true,
          "internalType": "uint256",
          "name": "collectionId",
          "type": "uint256"
        },
        {
          "indexed": false,
          "internalType": "uint256",
          "name": "auctionId",
          "type": "uint256"
        },
        {
          "indexed": false,
          "internalType": "uint256",
          "name": "nftId",
          "type": "uint256"
        }
      ],
      "name": "AuctionCreated",
      "type": "event"
    },
    {
      "anonymous": false,
      "inputs": [
        {
          "indexed": true,
          "internalType": "uint256",
          "name": "auctionId",
          "type": "uint256"
        },
        {
          "indexed": true,
          "internalType": "address",
          "name": "highestBidder",
          "type": "address"
        },
        {
          "indexed": false,
          "internalType": "uint256",
          "name": "highestBid",
          "type": "uint256"
        }
      ],
      "name": "AuctionSettled",
      "type": "event"
    },
    {
      "anonymous": false,
      "inputs": [
        {
          "indexed": true,
          "internalType": "address",
          "name": "beacon",
          "type": "address"
        }
      ],
      "name": "BeaconUpgraded",
      "type": "event"
    },
    {
      "anonymous": false,
      "inputs": [
        {
          "indexed": true,
          "internalType": "uint256",
          "name": "auctionId",
          "type": "uint256"
        },
        {
          "indexed": true,
          "internalType": "address",
          "name": "bidder",
          "type": "address"
        },
        {
          "indexed": false,
          "internalType": "uint256",
          "name": "bidAmount",
          "type": "uint256"
        },
        {
          "indexed": false,
          "internalType": "uint256",
          "name": "newEndTime",
          "type": "uint256"
        }
      ],
      "name": "BidPlaced",
      "type": "event"
    },
    {
      "anonymous": false,
      "inputs": [
        {
          "indexed": false,
          "internalType": "uint8",
          "name": "version",
          "type": "uint8"
        }
      ],
      "name": "Initialized",
      "type": "event"
    },
    {
      "anonymous": false,
      "inputs": [
        {
          "indexed": false,
          "internalType": "address",
          "name": "account",
          "type": "address"
        }
      ],
      "name": "Paused",
      "type": "event"
    },
    {
      "anonymous": false,
      "inputs": [
        {
          "indexed": true,
          "internalType": "bytes32",
          "name": "role",
          "type": "bytes32"
        },
        {
          "indexed": true,
          "internalType": "bytes32",
          "name": "previousAdminRole",
          "type": "bytes32"
        },
        {
          "indexed": true,
          "internalType": "bytes32",
          "name": "newAdminRole",
          "type": "bytes32"
        }
      ],
      "name": "RoleAdminChanged",
      "type": "event"
    },
    {
      "anonymous": false,
      "inputs": [
        {
          "indexed": true,
          "internalType": "bytes32",
          "name": "role",
          "type": "bytes32"
        },
        {
          "indexed": true,
          "internalType": "address",
          "name": "account",
          "type": "address"
        },
        {
          "indexed": true,
          "internalType": "address",
          "name": "sender",
          "type": "address"
        }
      ],
      "name": "RoleGranted",
      "type": "event"
    },
    {
      "anonymous": false,
      "inputs": [
        {
          "indexed": true,
          "internalType": "bytes32",
          "name": "role",
          "type": "bytes32"
        },
        {
          "indexed": true,
          "internalType": "address",
          "name": "account",
          "type": "address"
        },
        {
          "indexed": true,
          "internalType": "address",
          "name": "sender",
          "type": "address"
        }
      ],
      "name": "RoleRevoked",
      "type": "event"
    },
    {
      "anonymous": false,
      "inputs": [
        {
          "indexed": false,
          "internalType": "address",
          "name": "account",
          "type": "address"
        }
      ],
      "name": "Unpaused",
      "type": "event"
    },
    {
      "anonymous": false,
      "inputs": [
        {
          "indexed": true,
          "internalType": "address",
          "name": "implementation",
          "type": "address"
        }
      ],
      "name": "Upgraded",
      "type": "event"
    },
    {
      "inputs": [],
      "name": "DEFAULT_ADMIN_ROLE",
      "outputs": [
        {
          "internalType": "bytes32",
          "name": "",
          "type": "bytes32"
        }
      ],
      "stateMutability": "view",
      "type": "function"
    },
    {
      "inputs": [
        {
          "internalType": "uint256",
          "name": "",
          "type": "uint256"
        }
      ],
      "name": "auctions",
      "outputs": [
        {
          "internalType": "address",
          "name": "highestBidder",
          "type": "address"
        },
        {
          "internalType": "contract INFT",
          "name": "nftContract",
          "type": "address"
        },
        {
          "internalType": "uint32",
          "name": "startTime",
          "type": "uint32"
        },
        {
          "internalType": "uint32",
          "name": "endTime",
          "type": "uint32"
        },
        {
          "internalType": "bool",
          "name": "settled",
          "type": "bool"
        },
        {
          "internalType": "uint256",
          "name": "collectionId",
          "type": "uint256"
        },
        {
          "internalType": "uint256",
          "name": "nftId",
          "type": "uint256"
        },
        {
          "internalType": "uint256",
          "name": "buyNowPrice",
          "type": "uint256"
        },
        {
          "internalType": "uint256",
          "name": "minimumPrice",
          "type": "uint256"
        },
        {
          "internalType": "uint256",
          "name": "highestBid",
          "type": "uint256"
        }
      ],
      "stateMutability": "view",
      "type": "function"
    },
    {
      "inputs": [
        {
          "internalType": "uint256",
          "name": "_auctionId",
          "type": "uint256"
        },
        {
          "internalType": "uint256",
          "name": "_amount",
          "type": "uint256"
        }
      ],
      "name": "bid",
      "outputs": [],
      "stateMutability": "nonpayable",
      "type": "function"
    },
    {
      "inputs": [],
      "name": "bidIncrementPercentage",
      "outputs": [
        {
          "internalType": "uint256",
          "name": "",
          "type": "uint256"
        }
      ],
      "stateMutability": "view",
      "type": "function"
    },
    {
      "inputs": [
        {
          "internalType": "uint256",
          "name": "_auctionId",
          "type": "uint256"
        }
      ],
      "name": "cancelAuction",
      "outputs": [],
      "stateMutability": "nonpayable",
      "type": "function"
    },
    {
      "inputs": [
        {
          "internalType": "uint256",
          "name": "_collectionId",
          "type": "uint256"
        },
        {
          "internalType": "uint256",
          "name": "_auctionId",
          "type": "uint256"
        },
        {
          "internalType": "uint256",
          "name": "_nftId",
          "type": "uint256"
        },
        {
          "internalType": "uint256",
          "name": "_buyNowPrice",
          "type": "uint256"
        },
        {
          "internalType": "uint256",
          "name": "_minimumPrice",
          "type": "uint256"
        },
        {
          "internalType": "uint32",
          "name": "_startTime",
          "type": "uint32"
        },
        {
          "internalType": "uint32",
          "name": "_endTime",
          "type": "uint32"
        },
        {
          "internalType": "contract INFT",
          "name": "_nftContract",
          "type": "address"
        }
      ],
      "name": "createAuction",
      "outputs": [
        {
          "internalType": "uint256",
          "name": "auctionId",
          "type": "uint256"
        }
      ],
      "stateMutability": "nonpayable",
      "type": "function"
    },
    {
      "inputs": [],
      "name": "defaultTimeExtension",
      "outputs": [
        {
          "internalType": "uint256",
          "name": "",
          "type": "uint256"
        }
      ],
      "stateMutability": "view",
      "type": "function"
    },
    {
      "inputs": [
        {
          "internalType": "uint256",
          "name": "_auctionId",
          "type": "uint256"
        }
      ],
      "name": "getAuction",
      "outputs": [
        {
          "components": [
            {
              "internalType": "address",
              "name": "highestBidder",
              "type": "address"
            },
            {
              "internalType": "contract INFT",
              "name": "nftContract",
              "type": "address"
            },
            {
              "internalType": "uint32",
              "name": "startTime",
              "type": "uint32"
            },
            {
              "internalType": "uint32",
              "name": "endTime",
              "type": "uint32"
            },
            {
              "internalType": "bool",
              "name": "settled",
              "type": "bool"
            },
            {
              "internalType": "uint256",
              "name": "collectionId",
              "type": "uint256"
            },
            {
              "internalType": "uint256",
              "name": "nftId",
              "type": "uint256"
            },
            {
              "internalType": "uint256",
              "name": "buyNowPrice",
              "type": "uint256"
            },
            {
              "internalType": "uint256",
              "name": "minimumPrice",
              "type": "uint256"
            },
            {
              "internalType": "uint256",
              "name": "highestBid",
              "type": "uint256"
            }
          ],
          "internalType": "struct Auction.AuctionInfo",
          "name": "",
          "type": "tuple"
        }
      ],
      "stateMutability": "view",
      "type": "function"
    },
    {
      "inputs": [
        {
          "internalType": "bytes32",
          "name": "role",
          "type": "bytes32"
        }
      ],
      "name": "getRoleAdmin",
      "outputs": [
        {
          "internalType": "bytes32",
          "name": "",
          "type": "bytes32"
        }
      ],
      "stateMutability": "view",
      "type": "function"
    },
    {
      "inputs": [
        {
          "internalType": "bytes32",
          "name": "role",
          "type": "bytes32"
        },
        {
          "internalType": "address",
          "name": "account",
          "type": "address"
        }
      ],
      "name": "grantRole",
      "outputs": [],
      "stateMutability": "nonpayable",
      "type": "function"
    },
    {
      "inputs": [
        {
          "internalType": "bytes32",
          "name": "role",
          "type": "bytes32"
        },
        {
          "internalType": "address",
          "name": "account",
          "type": "address"
        }
      ],
      "name": "hasRole",
      "outputs": [
        {
          "internalType": "bool",
          "name": "",
          "type": "bool"
        }
      ],
      "stateMutability": "view",
      "type": "function"
    },
    {
      "inputs": [
        {
          "internalType": "address",
          "name": "_admin",
          "type": "address"
        },
        {
          "internalType": "uint256",
          "name": "_defaultTimeExtension",
          "type": "uint256"
        },
        {
          "internalType": "uint256",
          "name": "_bidIncrementPercentage",
          "type": "uint256"
        },
        {
          "internalType": "address",
          "name": "_token",
          "type": "address"
        }
      ],
      "name": "initialize",
      "outputs": [],
      "stateMutability": "nonpayable",
      "type": "function"
    },
    {
      "inputs": [],
      "name": "pause",
      "outputs": [],
      "stateMutability": "nonpayable",
      "type": "function"
    },
    {
      "inputs": [],
      "name": "paused",
      "outputs": [
        {
          "internalType": "bool",
          "name": "",
          "type": "bool"
        }
      ],
      "stateMutability": "view",
      "type": "function"
    },
    {
      "inputs": [],
      "name": "proxiableUUID",
      "outputs": [
        {
          "internalType": "bytes32",
          "name": "",
          "type": "bytes32"
        }
      ],
      "stateMutability": "view",
      "type": "function"
    },
    {
      "inputs": [
        {
          "internalType": "bytes32",
          "name": "role",
          "type": "bytes32"
        },
        {
          "internalType": "address",
          "name": "account",
          "type": "address"
        }
      ],
      "name": "renounceRole",
      "outputs": [],
      "stateMutability": "nonpayable",
      "type": "function"
    },
    {
      "inputs": [
        {
          "internalType": "bytes32",
          "name": "role",
          "type": "bytes32"
        },
        {
          "internalType": "address",
          "name": "account",
          "type": "address"
        }
      ],
      "name": "revokeRole",
      "outputs": [],
      "stateMutability": "nonpayable",
      "type": "function"
    },
    {
      "inputs": [
        {
          "internalType": "uint16",
          "name": "_bidIncrementPercentage",
          "type": "uint16"
        }
      ],
      "name": "setBidIncrementPercentage",
      "outputs": [],
      "stateMutability": "nonpayable",
      "type": "function"
    },
    {
      "inputs": [
        {
          "internalType": "uint16",
          "name": "_timeExtension",
          "type": "uint16"
        }
      ],
      "name": "setDefaultTimeExtension",
      "outputs": [],
      "stateMutability": "nonpayable",
      "type": "function"
    },
    {
      "inputs": [
        {
          "internalType": "address",
          "name": "_token",
          "type": "address"
        }
      ],
      "name": "setToken",
      "outputs": [],
      "stateMutability": "nonpayable",
      "type": "function"
    },
    {
      "inputs": [
        {
          "internalType": "uint256",
          "name": "_auctionId",
          "type": "uint256"
        }
      ],
      "name": "settleAuction",
      "outputs": [],
      "stateMutability": "nonpayable",
      "type": "function"
    },
    {
      "inputs": [
        {
          "internalType": "bytes4",
          "name": "interfaceId",
          "type": "bytes4"
        }
      ],
      "name": "supportsInterface",
      "outputs": [
        {
          "internalType": "bool",
          "name": "",
          "type": "bool"
        }
      ],
      "stateMutability": "view",
      "type": "function"
    },
    {
      "inputs": [],
      "name": "token",
      "outputs": [
        {
          "internalType": "contract IERC20",
          "name": "",
          "type": "address"
        }
      ],
      "stateMutability": "view",
      "type": "function"
    },
    {
      "inputs": [],
      "name": "unpause",
      "outputs": [],
      "stateMutability": "nonpayable",
      "type": "function"
    },
    {
      "inputs": [
        {
          "internalType": "uint256",
          "name": "_auctionId",
          "type": "uint256"
        },
        {
          "internalType": "uint256",
          "name": "_buyNowPrice",
          "type": "uint256"
        },
        {
          "internalType": "uint256",
          "name": "_minimumPrice",
          "type": "uint256"
        },
        {
          "internalType": "uint32",
          "name": "_endTime",
          "type": "uint32"
        }
      ],
      "name": "updateAuction",
      "outputs": [],
      "stateMutability": "nonpayable",
      "type": "function"
    },
    {
      "inputs": [
        {
          "internalType": "address",
          "name": "newImplementation",
          "type": "address"
        }
      ],
      "name": "upgradeTo",
      "outputs": [],
      "stateMutability": "nonpayable",
      "type": "function"
    },
    {
      "inputs": [
        {
          "internalType": "address",
          "name": "newImplementation",
          "type": "address"
        },
        {
          "internalType": "bytes",
          "name": "data",
          "type": "bytes"
        }
      ],
      "name": "upgradeToAndCall",
      "outputs": [],
      "stateMutability": "payable",
      "type": "function"
    }
  ],
  "bytecode": "0x60a080604052346100315730608052612be8908161003782396080518181816109b001528181610c580152611f9c0152f35b600080fdfe60806040526004361015610013575b600080fd5b60003560e01c806301ffc9a71461022f578063144fa6d714610226578063248a9ca31461021d5780632e993611146102145780632f2ff15d1461020b57806335b391cd1461020257806336568abe146101f95780633659cfe6146101f05780633f4ba83a146101e75780634f1ef286146101de57806352d1902d146101d5578063571a26a0146101cc578063598647f8146101c35780635c975abb146101ba57806378bd7935146101b15780638456cb59146101a857806391d148541461019f57806396b5a755146101965780639e3d87cd1461018d578063a217fddf14610184578063b3b7e48e1461017b578063c3c675bc14610172578063d2e30b2714610169578063d547741f14610160578063e9eace9114610157578063fc0c546a1461014e5763ff54a5ca1461014657600080fd5b61000e611710565b5061000e6116e5565b5061000e6116c5565b5061000e611682565b5061000e611662565b5061000e611612565b5061000e61152a565b5061000e61150d565b5061000e611411565b5061000e6112ff565b5061000e6112a8565b5061000e611227565b5061000e61109f565b5061000e61107b565b5061000e610dc5565b5061000e610d0a565b5061000e610c44565b5061000e610bc7565b5061000e610a5d565b5061000e610982565b5061000e6108e9565b5061000e61070d565b5061000e610603565b5061000e610332565b5061000e610302565b5061000e610297565b503461000e57602036600319011261000e5760043563ffffffff60e01b811680910361000e57602090637965db0b60e01b8114908115610275575b506040519015158152f35b6301ffc9a760e01b1490503861026a565b6001600160a01b0381160361000e57565b503461000e57602036600319011261000e576004356102b581610286565b336000908152600080516020612b53833981519152602052604090206102e09060ff905b54166123d4565b61015f80546001600160a01b0319166001600160a01b03909216919091179055005b503461000e57602036600319011261000e5760043560005260656020526020600160406000200154604051908152f35b503461000e57602036600319011261000e5760043561035660ff60fb541615612605565b61036b81600052610160602052604060002090565b90600182019182549061038460ff8360e01c16156127f0565b6006810154815490929063ffffffff906001600160a01b03169160c01c16421180156105f6575b6103b49061283c565b845460ff60e01b1916600160e01b1785556001600160a01b03811694856103fa575b505060405191825250600080516020612b938339815191529080602081015b0390a3005b80549293919261041a906001600160a01b03165b6001600160a01b031690565b9260026003860154950190815494803b1561000e576104ab6103f5966104ec6020956104c961040e61054a998b98600080516020612b938339815191529e604051809a8180946305661ce360e11b825260009d8e9d8e9d8e978894600485019160c0939160018060a01b03168352602083015260016040830152606082015260a06080820152600060a08201520190565b03925af180156105e9575b6105d0575b50546001600160a01b031690565b905460405194858094819363d4e4d3dd60e01b8352600483019190602083019252565b03925af19081156105c3575b829161059d575b5061015f54610516906001600160a01b031661040e565b60405163a9059cbb60e01b81526001600160a01b039092166004830152602482019390935293849291839182906044820190565b03925af18015610590575b610562575b8193506103d6565b6105829060203d8111610589575b61057a8183610b6b565b81019061249a565b503861055a565b503d610570565b610598611b53565b610555565b6105b991503d8084833e6105b18183610b6b565b810190612888565b92505050386104ff565b6105cb611b53565b6104f8565b806105dd6105e392610b2d565b80610a52565b386104bb565b6105f1611b53565b6104b6565b50600482015483146103ab565b503461000e5760408060031936011261000e576004359060243561062681610286565b600092808452606560205261064060018486200154611760565b808452606560209081528385206001600160a01b03841660009081529152604090205460ff161561067057505051f35b808452606560209081528385206001600160a01b0384166000908152915260409020805460ff19166001179055825133926001600160a01b031691907f2f8788117e7eff1d82e926ec794901d17c78024a50270940304540a733656f0d908690a451f35b60a4359063ffffffff8216820361000e57565b60c4359063ffffffff8216820361000e57565b6064359063ffffffff8216820361000e57565b503461000e576101008060031936011261000e577fd6eddd1118d71820909c1197aa966dbc15ed6f508554252169cc3d5ccac756ca600435916024356108946108208560443594606435906084359161085a6107676106d4565b61084d6107726106e7565b9160e4359889986107828a610286565b336000908152600080516020612b53833981519152602090815260408220919b8c9391926107fe92906107b79060ff906102d9565b6107cb63ffffffff808916908b1611612413565b8a1580156108df575b6107dd90612456565b60405194858094819363185153c360e01b8352600483019190602083019252565b03926001600160a01b03165af19081156108d2575b8a916108b4575b506124b2565b61084061082b610b8d565b8981526001600160a01b03909a1660208b0152565b63ffffffff166040890152565b63ffffffff166060870152565b8360808601528960a08601528760c086015260e085015283015261012082015261088f83600052610160602052604060002090565b6124fe565b604080519182526020820192909252a260405160008152602090f35b0390f35b6108cc915060203d81116105895761057a8183610b6b565b3861081a565b6108da611b53565b610813565b508c8b10156107d4565b503461000e57604036600319011261000e5760243561090781610286565b336001600160a01b0382160361092557610923906004356119b7565b005b60405162461bcd60e51b815260206004820152602f60248201527f416363657373436f6e74726f6c3a2063616e206f6e6c792072656e6f756e636560448201526e103937b632b9903337b91039b2b63360891b6064820152608490fd5b503461000e57602036600319011261000e576109236004356109a381610286565b6109f56001600160a01b037f00000000000000000000000000000000000000000000000000000000000000008116906109de30831415611a47565b600080516020612b73833981519152541614611aa8565b336000908152600080516020612b5383398151915260205260409020610a1d9060ff906102d9565b604051906020820182811067ffffffffffffffff821117610a45575b60405260008252611c0d565b610a4d610b16565b610a39565b600091031261000e57565b503461000e57600080600319360112610b135780805260656020908152604080832033600090815292529020610a959060ff906102d9565b60fb5460ff811615610ad75760ff191660fb557f5db9ee0a495bf2e6ff9c91a7834c1ba4fdd244a5e8aa4e537bd38aeae4b073aa6020604051338152a1604051f35b60405162461bcd60e51b815260206004820152601460248201527314185d5cd8589b194e881b9bdd081c185d5cd95960621b6044820152606490fd5b80fd5b50634e487b7160e01b600052604160045260246000fd5b67ffffffffffffffff8111610b4157604052565b610b49610b16565b604052565b610140810190811067ffffffffffffffff821117610b4157604052565b90601f8019910116810190811067ffffffffffffffff821117610b4157604052565b60405190610b9a82610b4e565b565b60209067ffffffffffffffff8111610bba575b601f01601f19160190565b610bc2610b16565b610baf565b50604036600319011261000e57600435610be081610286565b6024359067ffffffffffffffff821161000e573660238301121561000e57816004013590610c0d82610b9c565b91610c1b6040519384610b6b565b808352366024828601011161000e57602081600092602461092397018387013784010152611f92565b503461000e57600036600319011261000e577f00000000000000000000000000000000000000000000000000000000000000006001600160a01b03163003610c9f57604051600080516020612b738339815191528152602090f35b60405162461bcd60e51b815260206004820152603860248201527f555550535570677261646561626c653a206d757374206e6f742062652063616c60448201527f6c6564207468726f7567682064656c656761746563616c6c00000000000000006064820152608490fd5b503461000e57602036600319011261000e576004803560009081526101606020908152604091829020805460018201546002830154600384015496840154600585015460069095015487516001600160a01b0395861681529484169685019690965263ffffffff60a084811c82169886019890985260c084811c909116606086015260ff60e094851c161515608086015296840191909152948201959095529384019290925261010083019190915261012082015261014090f35b503461000e57604036600319011261000e576004356024359061012d60028154146110365760029055610dfd60ff60fb541615612605565b7f51db8e23b3f4479b162fd48823b8402895442b8f6cfd94f66239391881ec7b6f610f60610e3683600052610160602052604060002090565b600181019081549163ffffffff90610e6560ff838660c01c1695610e5b871515612916565b60e01c16156127f0565b610e70428511612956565b87151580611028575b610e8290612996565b876006600485019485548015801561101e575b610e9e906129e2565b83148015610fec575b610eb090612a2e565b61015f54610ec6906001600160a01b031661040e565b6040516323b872dd60e01b81523360048201523060248201526044810185905290602090829060649082906000905af18015610fdf575b610fc1575b50610f0c8a612aa1565b80546001600160a01b0319163317815501556101615480610f2d4287612a8a565b10610f86575b505050548015159081610f7c575b50610f6e575b6040805195865260208601919091523394918291820190565b0390a3610923600161012d55565b610f7784612644565b610f47565b9050851438610f41565b610fb9929450610f969042612142565b815463ffffffff60c01b191694811660c01b63ffffffff60c01b16949094179055565b388080610f33565b610fd89060203d81116105895761057a8183610b6b565b5038610f02565b610fe7611b53565b610efd565b50610eb061101461100c848401546110066101625461212b565b9061210c565b612710900490565b8410159050610ea7565b5080841115610e95565b506005830154881015610e79565b60405162461bcd60e51b815260206004820152601f60248201527f5265656e7472616e637947756172643a207265656e7472616e742063616c6c006044820152606490fd5b503461000e57600036600319011261000e57602060ff60fb54166040519015158152f35b503461000e57602036600319011261000e576108b06040516110c081610b4e565b6000908181528160208201528160408201528160608201528160808201528160a08201528160c08201528160e0820152600660406101009380858501528061012080950152600435815261016060205220611119610b8d565b81546001600160a01b031681529360018201546001600160a01b038116602087015263ffffffff60a082901c8116604088015260c082901c16606087015261116b9060ff9060e01c1615156080870152565b600282015460a0860152600382015460c0860152600482015460e08601526005820154908501520154908201526040519182918281516001600160a01b03168152610140810192916020818101516001600160a01b03169083015260408181015163ffffffff169083015260608181015163ffffffff169083015260808181015115159083015260a081015160a083015260c081015160c083015260e081015160e0830152610100808201519083015261012080910151910152565b503461000e57600080600319360112610b13578080526065602090815260408083203360009081529252902061125f9060ff906102d9565b600160fb5461127160ff821615612605565b60ff19161760fb557f62e78cea01bee320cd4e420270b5ea74000d11b0c9f74754ebdbfc544b05a2586020604051338152a1604051f35b503461000e57604036600319011261000e57602060ff6112f36024356112cd81610286565b6004356000526065845260406000209060018060a01b0316600052602052604060002090565b54166040519015158152f35b503461000e57602036600319011261000e57336000908152600080516020612b53833981519152602052604081206004359061133d9060ff906102d9565b80825261016060205260ff600160408420015460e01c166113cc576113c4816113867f2809c7e17bf978fbc7194c0a694b638c4215e9140cacc6c38ca36010b45697df93612aa1565b6113b460016113a083600052610160602052604060002090565b01805460ff60e01b1916600160e01b179055565b6040519081529081906020820190565b0390a1604051f35b60405162461bcd60e51b815260206004820152601b60248201527f41756374696f6e20697320616c72656164792066696e697368656400000000006044820152606490fd5b503461000e57608036600319011261000e5760043561142f81610286565b60643561143b81610286565b611486611446612394565b92836114f9575b611455612320565b61146f60ff60005460081c1661146a816122c0565b6122c0565b60ff1960fb541660fb55611481612320565b611921565b602435610161556044356101625561015f80546001600160a01b0319166001600160a01b039092169190911790556114ba57005b6114ca61ff001960005416600055565b604051600181527f7f26b83ff96e1f2b6a682f133852f6798a09c465da95921460cefb384740249890602090a1005b61010061ff0019600054161760005561144d565b503461000e57600036600319011261000e57602060405160008152f35b503461000e57608036600319011261000e5760043561160161154a6106fa565b336000908152600080516020612b538339815191526020526040812090936001916115cd919061157c9060ff906102d9565b8086526101608060205261159c60ff8560408a20015460e01c16156127f0565b8187526020526115bc63ffffffff8460408920015460c01c161515612916565b600052610160602052604060002090565b6024356004820155604435600582015501805463ffffffff60c01b191660c09290921b63ffffffff60c01b16919091179055565b604051f35b61ffff81160361000e57565b503461000e57602036600319011261000e5761ffff60043561163381611606565b336000908152600080516020612b538339815191526020526040902061165b9060ff906102d9565b1661016255005b503461000e57600036600319011261000e57602061016254604051908152f35b503461000e57604036600319011261000e576109236024356004356116a682610286565b8060005260656020526116c0600160406000200154611760565b6119b7565b503461000e57600036600319011261000e57602061016154604051908152f35b503461000e57600036600319011261000e5761015f546040516001600160a01b039091168152602090f35b503461000e57602036600319011261000e5761ffff60043561173181611606565b336000908152600080516020612b53833981519152602052604090206117599060ff906102d9565b1661016155005b600081815260656020908152604080832033845290915290205460ff16156117855750565b339061178f611b09565b91603061179b84612165565b5360786117a78461217b565b5360295b6001811161185a5761185661181361183e866118306117d3886117ce89156121c6565b612211565b61180d60405195869461180d602087016017907f416363657373436f6e74726f6c3a206163636f756e742000000000000000000081520190565b906118de565b7001034b99036b4b9b9b4b733903937b6329607d1b815260110190565b03601f198101835282610b6b565b60405162461bcd60e51b8152918291600483016118f5565b0390fd5b9080600f6118979216601081101561189c575b6f181899199a1a9b1b9c1cb0b131b232b360811b901a61188d848761218c565b5360041c916121ab565b6117ab565b6118a461214e565b61186d565b918091926000905b8282106118c95750116118c2575050565b6000910152565b915080602091830151818601520182916118b1565b906118f1602092828151948592016118a9565b0190565b6040916020825261191581518092816020860152602086860191016118a9565b601f01601f1916010190565b6001600160a01b0381166000908152600080516020612b53833981519152602052604081205460ff1615611953575050565b8080526065602090815260408083206001600160a01b038516600090815292529020805460ff1916600117905560405133926001600160a01b031691907f2f8788117e7eff1d82e926ec794901d17c78024a50270940304540a733656f0d908290a4565b60008181526065602090815260408083206001600160a01b038616845290915290205460ff166119e5575050565b60008181526065602090815260408083206001600160a01b03861684529091529020805460ff1916905560405133926001600160a01b031691907ff6391f5c32d9c69d2a47ea670b442974b53935d1edc7fd64eb21e047a839171b90600090a4565b15611a4e57565b60405162461bcd60e51b815260206004820152602c60248201527f46756e6374696f6e206d7573742062652063616c6c6564207468726f7567682060448201526b19195b1959d85d1958d85b1b60a21b6064820152608490fd5b15611aaf57565b60405162461bcd60e51b815260206004820152602c60248201527f46756e6374696f6e206d7573742062652063616c6c6564207468726f7567682060448201526b6163746976652070726f787960a01b6064820152608490fd5b604051906060820182811067ffffffffffffffff821117611b37575b604052602a8252604082602036910137565b611b3f610b16565b611b25565b9081602091031261000e575190565b506040513d6000823e3d90fd5b15611b6757565b60405162461bcd60e51b815260206004820152602960248201527f45524331393637557067726164653a20756e737570706f727465642070726f786044820152681a58589b195555525160ba1b6064820152608490fd5b60809060208152602e60208201527f45524331393637557067726164653a206e657720696d706c656d656e7461746960408201526d6f6e206973206e6f74205555505360901b60608201520190565b90611c397f4910fdfa16fed3260ed0e7147f7cc6da11a60208b5b9406d12a635614ffd91435460ff1690565b15611c485750610b9a90611ce0565b6040516352d1902d60e01b8152916020836004816001600160a01b0385165afa60009381611cb0575b50611c8f5760405162461bcd60e51b81528061185660048201611bbe565b611cab600080516020612b73833981519152610b9a9414611b60565b611d70565b611cd291945060203d8111611cd9575b611cca8183610b6b565b810190611b44565b9238611c71565b503d611cc0565b803b15611d1557600080516020612b7383398151915280546001600160a01b0319166001600160a01b03909216919091179055565b60405162461bcd60e51b815260206004820152602d60248201527f455243313936373a206e657720696d706c656d656e746174696f6e206973206e60448201526c1bdd08184818dbdb9d1c9858dd609a1b6064820152608490fd5b90611d7a82611ce0565b604051600092906001600160a01b0382167fbc7cd75a20ee27fd9adebab32041f755214dbc6bffa90cc0225b39da2e5c2d3b8583a2825115801590611e79575b611dc5575b50505050565b813b15611e285750918082611e169460208395519201905af4903d15611e20573d611def81610b9c565b90611dfd6040519283610b6b565b8152809160203d92013e5b611e10611f2a565b916120bd565b5038808080611dbf565b506060611e08565b62461bcd60e51b815260206004820152602660248201527f416464726573733a2064656c65676174652063616c6c20746f206e6f6e2d636f6044820152651b9d1c9858dd60d21b6064820152608490fd5b5083611dba565b611e8981611ce0565b6040516001600160a01b0382167fbc7cd75a20ee27fd9adebab32041f755214dbc6bffa90cc0225b39da2e5c2d3b600083a2825115801590611f22575b611ecf57505050565b813b15611e28575060008281926020611f1895519201905af43d15611f1b573d611ef881610b9c565b90611f066040519283610b6b565b81523d6000602083013e611e10611f2a565b50565b6060611e08565b506001611ec6565b604051906060820182811067ffffffffffffffff821117611f85575b60405260278252660819985a5b195960ca1b6040837f416464726573733a206c6f772d6c6576656c2064656c65676174652063616c6c60208201520152565b611f8d610b16565b611f46565b6001600160a01b037f000000000000000000000000000000000000000000000000000000000000000081169290611fcb30851415611a47565b611fe8600080516020612b73833981519152948286541614611aa8565b336000908152600080516020612b53833981519152602052604090206120109060ff906102d9565b7f4910fdfa16fed3260ed0e7147f7cc6da11a60208b5b9406d12a635614ffd91435460ff1615612046575050610b9a9150611ce0565b6020600491604094939451928380926352d1902d60e01b825286165afa6000918161209d575b5061208a5760405162461bcd60e51b81528061185660048201611bbe565b610b9a936120989114611b60565b611e80565b6120b691925060203d8111611cd957611cca8183610b6b565b903861206c565b909190156120c9575090565b8151156120d95750805190602001fd5b60405162461bcd60e51b815290819061185690600483016118f5565b50634e487b7160e01b600052601160045260246000fd5b806000190482118115151661211f570290565b6121276120f5565b0290565b6127108119811161213a570190565b6118f16120f5565b8119811161213a570190565b50634e487b7160e01b600052603260045260246000fd5b602090805115612173570190565b6118f161214e565b602190805160011015612173570190565b90602091805182101561219e57010190565b6121a661214e565b010190565b80156121b9575b6000190190565b6121c16120f5565b6121b2565b156121cd57565b606460405162461bcd60e51b815260206004820152602060248201527f537472696e67733a20686578206c656e67746820696e73756666696369656e746044820152fd5b604051906080820182811067ffffffffffffffff8211176122b3575b604052604282526060366020840137603061224783612165565b5360786122538361217b565b536041905b6001821161226e5761226b9150156121c6565b90565b80600f6122a0921660108110156122a6575b6f181899199a1a9b1b9c1cb0b131b232b360811b901a61188d848661218c565b90612258565b6122ae61214e565b612280565b6122bb610b16565b61222d565b156122c757565b60405162461bcd60e51b815260206004820152602b60248201527f496e697469616c697a61626c653a20636f6e7472616374206973206e6f74206960448201526a6e697469616c697a696e6760a81b6064820152608490fd5b610b9a60ff60005460081c166122c0565b1561233857565b60405162461bcd60e51b815260206004820152602e60248201527f496e697469616c697a61626c653a20636f6e747261637420697320616c72656160448201526d191e481a5b9a5d1a585b1a5e995960921b6064820152608490fd5b60005460ff8160081c166000146123b657506123b1303b15612331565b600090565b806123c7600160ff81941610612331565b60ff191617600055600190565b156123db57565b60405162461bcd60e51b815260206004820152601060248201526f41646d696e2063616c6c73206f6e6c7960801b6044820152606490fd5b1561241a57565b60405162461bcd60e51b8152602060048201526014602482015273496e76616c69642061756374696f6e2074696d6560601b6044820152606490fd5b1561245d57565b60405162461bcd60e51b8152602060048201526015602482015274496e76616c696420627579206e6f7720707269636560581b6044820152606490fd5b9081602091031261000e5751801515810361000e5790565b156124b957565b60405162461bcd60e51b815260206004820152601960248201527f436f6c6c656374696f6e20646f6573206e6f74206578697374000000000000006044820152606490fd5b815181546001600160a01b0319166001600160a01b03909116178155906006906101209060208101516001850180546001600160a01b0319166001600160a01b039092169190911781556125d590612580612560604085015163ffffffff1690565b825463ffffffff60a01b191660a09190911b63ffffffff60a01b16178255565b6125b4612594606085015163ffffffff1690565b825463ffffffff60c01b191660c09190911b63ffffffff60c01b16178255565b60808301511515815460ff60e01b191690151560e01b60ff60e01b16179055565b60a0810151600285015560c0810151600385015560e0810151600485015561010081015160058501550151910155565b1561260c57565b60405162461bcd60e51b815260206004820152601060248201526f14185d5cd8589b194e881c185d5cd95960821b6044820152606490fd5b61265360ff60fb541615612605565b61266881600052610160602052604060002090565b90600182019182549061268160ff8360e01c16156127f0565b6006810154815490929063ffffffff906001600160a01b03169160c01c16421180156127e3575b6126b19061283c565b845460ff60e01b1916600160e01b1785556001600160a01b03811694856126f7575b505060405191825250600080516020612b938339815191529080602081015b0390a3565b80549293919261270f906001600160a01b031661040e565b9260026003860154950190815494803b1561000e576104ab6126f2966104ec6020956104c961040e6127a0998b98600080516020612b938339815191529e604051809a8180946305661ce360e11b825260009d8e9d8e9d8e978894600485019160c0939160018060a01b03168352602083015260016040830152606082015260a06080820152600060a08201520190565b03925af180156127d6575b6127b8575b8193506126d3565b6127cf9060203d81116105895761057a8183610b6b565b50386127b0565b6127de611b53565b6127ab565b50600482015483146126a8565b156127f757565b60405162461bcd60e51b815260206004820152601760248201527f41756374696f6e20616c726561647920736574746c65640000000000000000006044820152606490fd5b1561284357565b60405162461bcd60e51b815260206004820152601860248201527f41756374696f6e206973207374696c6c2072756e6e696e6700000000000000006044820152606490fd5b60808183031261000e57805161289d81610286565b9260208201516128ac81611606565b92604083015167ffffffffffffffff811161000e5783019080601f8301121561000e578151916128db83610b9c565b916128e96040519384610b6b565b8383526020848301011161000e5760609261290a91602080850191016118a9565b92015161226b81610286565b1561291d57565b60405162461bcd60e51b8152602060048201526011602482015270105d58dd1a5bdb881b9bdd08199bdd5b99607a1b6044820152606490fd5b1561295d57565b60405162461bcd60e51b8152602060048201526011602482015270105d58dd1a5bdb881a185cc8195b991959607a1b6044820152606490fd5b1561299d57565b60405162461bcd60e51b815260206004820152601960248201527f426964206973206c6f776572207468616e206d696e696d756d000000000000006044820152606490fd5b156129e957565b60405162461bcd60e51b815260206004820152601d60248201527f42696420686967686572207468616e20627579206e6f772070726963650000006044820152606490fd5b15612a3557565b60405162461bcd60e51b815260206004820152602760248201527f426964206973206c6f776572207468616e20686967686573742062696420696e60448201526618dc995b595b9d60ca1b6064820152608490fd5b818110612a95570390565b612a9d6120f5565b0390565b612ab690600052610160602052604060002090565b80546006820180546001600160a01b03198316909355600090556001600160a01b039081169182612ae657505050565b61015f5460405163a9059cbb60e01b81526001600160a01b03949094166004850152602484019190915260209183916044918391600091165af18015612b45575b612b2e5750565b611f189060203d81116105895761057a8183610b6b565b612b4d611b53565b612b2756feffdfc1249c027f9191656349feb0761381bb32c9f557e01f419fd08754bf5a1b360894a13ba1a3210667c828492db98dca3e2076cc3735a920a3ca505d382bbcc9f72b276a388619c6d185d146697036241880c36654b1a3ffdad07c24038d99a26469706673582212203bd040d7165f569ef3d052677ce070e43c4b4fab93c07adfb52428660a62067d64736f6c634300080e0033",
  "linkReferences": {},
  "deployedLinkReferences": {}
}