{
  "_format": "hh-sol-artifact-1",
  "contractName": "NFT",
  "sourceName": "contracts/ERC-1155/NFT.sol",
  "abi": [
    {
      "inputs": [
        {
          "internalType": "string",
          "name": "_name",
          "type": "string"
        },
        {
          "internalType": "string",
          "name": "_symbol",
          "type": "string"
        },
        {
          "internalType": "address",
          "name": "_admin",
          "type": "address"
        }
      ],
      "stateMutability": "nonpayable",
      "type": "constructor"
    },
    {
      "anonymous": false,
      "inputs": [
        {
          "indexed": true,
          "internalType": "address",
          "name": "account",
          "type": "address"
        },
        {
          "indexed": true,
          "internalType": "address",
          "name": "operator",
          "type": "address"
        },
        {
          "indexed": false,
          "internalType": "bool",
          "name": "approved",
          "type": "bool"
        }
      ],
      "name": "ApprovalForAll",
      "type": "event"
    },
    {
      "anonymous": false,
      "inputs": [
        {
          "indexed": false,
          "internalType": "uint256",
          "name": "collectionId",
          "type": "uint256"
        },
        {
          "indexed": false,
          "internalType": "address",
          "name": "royaltyDestination",
          "type": "address"
        },
        {
          "indexed": false,
          "internalType": "uint16",
          "name": "royaltyPercentage",
          "type": "uint16"
        },
        {
          "indexed": false,
          "internalType": "string",
          "name": "baseMetadataURI",
          "type": "string"
        }
      ],
      "name": "CollectionCreated",
      "type": "event"
    },
    {
      "anonymous": false,
      "inputs": [
        {
          "indexed": true,
          "internalType": "bytes32",
          "name": "role",
          "type": "bytes32"
        },
        {
          "indexed": true,
          "internalType": "bytes32",
          "name": "previousAdminRole",
          "type": "bytes32"
        },
        {
          "indexed": true,
          "internalType": "bytes32",
          "name": "newAdminRole",
          "type": "bytes32"
        }
      ],
      "name": "RoleAdminChanged",
      "type": "event"
    },
    {
      "anonymous": false,
      "inputs": [
        {
          "indexed": true,
          "internalType": "bytes32",
          "name": "role",
          "type": "bytes32"
        },
        {
          "indexed": true,
          "internalType": "address",
          "name": "account",
          "type": "address"
        },
        {
          "indexed": true,
          "internalType": "address",
          "name": "sender",
          "type": "address"
        }
      ],
      "name": "RoleGranted",
      "type": "event"
    },
    {
      "anonymous": false,
      "inputs": [
        {
          "indexed": true,
          "internalType": "bytes32",
          "name": "role",
          "type": "bytes32"
        },
        {
          "indexed": true,
          "internalType": "address",
          "name": "account",
          "type": "address"
        },
        {
          "indexed": true,
          "internalType": "address",
          "name": "sender",
          "type": "address"
        }
      ],
      "name": "RoleRevoked",
      "type": "event"
    },
    {
      "anonymous": false,
      "inputs": [
        {
          "indexed": true,
          "internalType": "address",
          "name": "operator",
          "type": "address"
        },
        {
          "indexed": true,
          "internalType": "address",
          "name": "from",
          "type": "address"
        },
        {
          "indexed": true,
          "internalType": "address",
          "name": "to",
          "type": "address"
        },
        {
          "indexed": false,
          "internalType": "uint256[]",
          "name": "ids",
          "type": "uint256[]"
        },
        {
          "indexed": false,
          "internalType": "uint256[]",
          "name": "values",
          "type": "uint256[]"
        }
      ],
      "name": "TransferBatch",
      "type": "event"
    },
    {
      "anonymous": false,
      "inputs": [
        {
          "indexed": true,
          "internalType": "address",
          "name": "operator",
          "type": "address"
        },
        {
          "indexed": true,
          "internalType": "address",
          "name": "from",
          "type": "address"
        },
        {
          "indexed": true,
          "internalType": "address",
          "name": "to",
          "type": "address"
        },
        {
          "indexed": false,
          "internalType": "uint256",
          "name": "id",
          "type": "uint256"
        },
        {
          "indexed": false,
          "internalType": "uint256",
          "name": "value",
          "type": "uint256"
        }
      ],
      "name": "TransferSingle",
      "type": "event"
    },
    {
      "anonymous": false,
      "inputs": [
        {
          "indexed": false,
          "internalType": "string",
          "name": "value",
          "type": "string"
        },
        {
          "indexed": true,
          "internalType": "uint256",
          "name": "id",
          "type": "uint256"
        }
      ],
      "name": "URI",
      "type": "event"
    },
    {
      "inputs": [],
      "name": "DEFAULT_ADMIN_ROLE",
      "outputs": [
        {
          "internalType": "bytes32",
          "name": "",
          "type": "bytes32"
        }
      ],
      "stateMutability": "view",
      "type": "function"
    },
    {
      "inputs": [],
      "name": "MINTER_ROLE",
      "outputs": [
        {
          "internalType": "bytes32",
          "name": "",
          "type": "bytes32"
        }
      ],
      "stateMutability": "view",
      "type": "function"
    },
    {
      "inputs": [
        {
          "internalType": "address",
          "name": "account",
          "type": "address"
        },
        {
          "internalType": "uint256",
          "name": "id",
          "type": "uint256"
        }
      ],
      "name": "balanceOf",
      "outputs": [
        {
          "internalType": "uint256",
          "name": "",
          "type": "uint256"
        }
      ],
      "stateMutability": "view",
      "type": "function"
    },
    {
      "inputs": [
        {
          "internalType": "address[]",
          "name": "accounts",
          "type": "address[]"
        },
        {
          "internalType": "uint256[]",
          "name": "ids",
          "type": "uint256[]"
        }
      ],
      "name": "balanceOfBatch",
      "outputs": [
        {
          "internalType": "uint256[]",
          "name": "",
          "type": "uint256[]"
        }
      ],
      "stateMutability": "view",
      "type": "function"
    },
    {
      "inputs": [
        {
          "internalType": "address",
          "name": "account",
          "type": "address"
        },
        {
          "internalType": "uint256",
          "name": "id",
          "type": "uint256"
        },
        {
          "internalType": "uint256",
          "name": "value",
          "type": "uint256"
        }
      ],
      "name": "burn",
      "outputs": [],
      "stateMutability": "nonpayable",
      "type": "function"
    },
    {
      "inputs": [
        {
          "internalType": "address",
          "name": "account",
          "type": "address"
        },
        {
          "internalType": "uint256[]",
          "name": "ids",
          "type": "uint256[]"
        },
        {
          "internalType": "uint256[]",
          "name": "values",
          "type": "uint256[]"
        }
      ],
      "name": "burnBatch",
      "outputs": [],
      "stateMutability": "nonpayable",
      "type": "function"
    },
    {
      "inputs": [
        {
          "internalType": "uint256",
          "name": "_collectionId",
          "type": "uint256"
        }
      ],
      "name": "collectionExists",
      "outputs": [
        {
          "internalType": "bool",
          "name": "",
          "type": "bool"
        }
      ],
      "stateMutability": "view",
      "type": "function"
    },
    {
      "inputs": [
        {
          "internalType": "uint256",
          "name": "",
          "type": "uint256"
        }
      ],
      "name": "collections",
      "outputs": [
        {
          "internalType": "uint16",
          "name": "royalty",
          "type": "uint16"
        },
        {
          "internalType": "address",
          "name": "royaltyDestination",
          "type": "address"
        },
        {
          "internalType": "address",
          "name": "primarySalesDestination",
          "type": "address"
        },
        {
          "internalType": "string",
          "name": "dropMetadataURI",
          "type": "string"
        }
      ],
      "stateMutability": "view",
      "type": "function"
    },
    {
      "inputs": [
        {
          "internalType": "uint256",
          "name": "_collectionId",
          "type": "uint256"
        },
        {
          "internalType": "address",
          "name": "_royaltyDestination",
          "type": "address"
        },
        {
          "internalType": "uint16",
          "name": "_royaltyPercentage",
          "type": "uint16"
        },
        {
          "internalType": "string",
          "name": "_dropMetadataURI",
          "type": "string"
        },
        {
          "internalType": "address",
          "name": "_primarySalesDestination",
          "type": "address"
        }
      ],
      "name": "createCollection",
      "outputs": [],
      "stateMutability": "nonpayable",
      "type": "function"
    },
    {
      "inputs": [
        {
          "internalType": "uint256",
          "name": "id",
          "type": "uint256"
        }
      ],
      "name": "exists",
      "outputs": [
        {
          "internalType": "bool",
          "name": "",
          "type": "bool"
        }
      ],
      "stateMutability": "view",
      "type": "function"
    },
    {
      "inputs": [
        {
          "internalType": "uint256",
          "name": "_collectionId",
          "type": "uint256"
        }
      ],
      "name": "getCollectionInfo",
      "outputs": [
        {
          "internalType": "address",
          "name": "",
          "type": "address"
        },
        {
          "internalType": "uint16",
          "name": "",
          "type": "uint16"
        },
        {
          "internalType": "string",
          "name": "",
          "type": "string"
        },
        {
          "internalType": "address",
          "name": "",
          "type": "address"
        }
      ],
      "stateMutability": "view",
      "type": "function"
    },
    {
      "inputs": [
        {
          "internalType": "bytes32",
          "name": "role",
          "type": "bytes32"
        }
      ],
      "name": "getRoleAdmin",
      "outputs": [
        {
          "internalType": "bytes32",
          "name": "",
          "type": "bytes32"
        }
      ],
      "stateMutability": "view",
      "type": "function"
    },
    {
      "inputs": [
        {
          "internalType": "bytes32",
          "name": "role",
          "type": "bytes32"
        },
        {
          "internalType": "address",
          "name": "account",
          "type": "address"
        }
      ],
      "name": "grantRole",
      "outputs": [],
      "stateMutability": "nonpayable",
      "type": "function"
    },
    {
      "inputs": [
        {
          "internalType": "bytes32",
          "name": "role",
          "type": "bytes32"
        },
        {
          "internalType": "address",
          "name": "account",
          "type": "address"
        }
      ],
      "name": "hasRole",
      "outputs": [
        {
          "internalType": "bool",
          "name": "",
          "type": "bool"
        }
      ],
      "stateMutability": "view",
      "type": "function"
    },
    {
      "inputs": [
        {
          "internalType": "address",
          "name": "account",
          "type": "address"
        },
        {
          "internalType": "address",
          "name": "operator",
          "type": "address"
        }
      ],
      "name": "isApprovedForAll",
      "outputs": [
        {
          "internalType": "bool",
          "name": "",
          "type": "bool"
        }
      ],
      "stateMutability": "view",
      "type": "function"
    },
    {
      "inputs": [
        {
          "internalType": "address",
          "name": "_to",
          "type": "address"
        },
        {
          "internalType": "uint256",
          "name": "_id",
          "type": "uint256"
        },
        {
          "internalType": "uint32",
          "name": "_quantity",
          "type": "uint32"
        },
        {
          "internalType": "uint256",
          "name": "_collectionId",
          "type": "uint256"
        },
        {
          "internalType": "bytes",
          "name": "_data",
          "type": "bytes"
        }
      ],
      "name": "mint",
      "outputs": [],
      "stateMutability": "nonpayable",
      "type": "function"
    },
    {
      "inputs": [],
      "name": "name",
      "outputs": [
        {
          "internalType": "string",
          "name": "",
          "type": "string"
        }
      ],
      "stateMutability": "view",
      "type": "function"
    },
    {
      "inputs": [
        {
          "internalType": "uint256",
          "name": "",
          "type": "uint256"
        },
        {
          "internalType": "uint256",
          "name": "",
          "type": "uint256"
        }
      ],
      "name": "nftsInCollection",
      "outputs": [
        {
          "internalType": "uint256",
          "name": "",
          "type": "uint256"
        }
      ],
      "stateMutability": "view",
      "type": "function"
    },
    {
      "inputs": [
        {
          "internalType": "bytes32",
          "name": "role",
          "type": "bytes32"
        },
        {
          "internalType": "address",
          "name": "account",
          "type": "address"
        }
      ],
      "name": "renounceRole",
      "outputs": [],
      "stateMutability": "nonpayable",
      "type": "function"
    },
    {
      "inputs": [
        {
          "internalType": "bytes32",
          "name": "role",
          "type": "bytes32"
        },
        {
          "internalType": "address",
          "name": "account",
          "type": "address"
        }
      ],
      "name": "revokeRole",
      "outputs": [],
      "stateMutability": "nonpayable",
      "type": "function"
    },
    {
      "inputs": [
        {
          "internalType": "uint256",
          "name": "tokenId",
          "type": "uint256"
        },
        {
          "internalType": "uint256",
          "name": "salePrice",
          "type": "uint256"
        }
      ],
      "name": "royaltyInfo",
      "outputs": [
        {
          "internalType": "address",
          "name": "",
          "type": "address"
        },
        {
          "internalType": "uint256",
          "name": "",
          "type": "uint256"
        }
      ],
      "stateMutability": "view",
      "type": "function"
    },
    {
      "inputs": [
        {
          "internalType": "address",
          "name": "from",
          "type": "address"
        },
        {
          "internalType": "address",
          "name": "to",
          "type": "address"
        },
        {
          "internalType": "uint256[]",
          "name": "ids",
          "type": "uint256[]"
        },
        {
          "internalType": "uint256[]",
          "name": "amounts",
          "type": "uint256[]"
        },
        {
          "internalType": "bytes",
          "name": "data",
          "type": "bytes"
        }
      ],
      "name": "safeBatchTransferFrom",
      "outputs": [],
      "stateMutability": "nonpayable",
      "type": "function"
    },
    {
      "inputs": [
        {
          "internalType": "address",
          "name": "from",
          "type": "address"
        },
        {
          "internalType": "address",
          "name": "to",
          "type": "address"
        },
        {
          "internalType": "uint256",
          "name": "id",
          "type": "uint256"
        },
        {
          "internalType": "uint256",
          "name": "amount",
          "type": "uint256"
        },
        {
          "internalType": "bytes",
          "name": "data",
          "type": "bytes"
        }
      ],
      "name": "safeTransferFrom",
      "outputs": [],
      "stateMutability": "nonpayable",
      "type": "function"
    },
    {
      "inputs": [
        {
          "internalType": "address",
          "name": "operator",
          "type": "address"
        },
        {
          "internalType": "bool",
          "name": "approved",
          "type": "bool"
        }
      ],
      "name": "setApprovalForAll",
      "outputs": [],
      "stateMutability": "nonpayable",
      "type": "function"
    },
    {
      "inputs": [
        {
          "internalType": "uint256",
          "name": "_collectionId",
          "type": "uint256"
        },
        {
          "internalType": "address",
          "name": "_royaltyDestination",
          "type": "address"
        },
        {
          "internalType": "uint16",
          "name": "_royaltyPercentage",
          "type": "uint16"
        },
        {
          "internalType": "address",
          "name": "_primarySalesDestination",
          "type": "address"
        },
        {
          "internalType": "string",
          "name": "_dropMetadataURI",
          "type": "string"
        }
      ],
      "name": "setCollection",
      "outputs": [],
      "stateMutability": "nonpayable",
      "type": "function"
    },
    {
      "inputs": [
        {
          "internalType": "uint256",
          "name": "_collectionId",
          "type": "uint256"
        },
        {
          "internalType": "string",
          "name": "_newBaseMetadataURI",
          "type": "string"
        }
      ],
      "name": "setCollectionBaseMetadataURI",
      "outputs": [],
      "stateMutability": "nonpayable",
      "type": "function"
    },
    {
      "inputs": [
        {
          "internalType": "bytes4",
          "name": "interfaceId",
          "type": "bytes4"
        }
      ],
      "name": "supportsInterface",
      "outputs": [
        {
          "internalType": "bool",
          "name": "",
          "type": "bool"
        }
      ],
      "stateMutability": "view",
      "type": "function"
    },
    {
      "inputs": [],
      "name": "symbol",
      "outputs": [
        {
          "internalType": "string",
          "name": "",
          "type": "string"
        }
      ],
      "stateMutability": "view",
      "type": "function"
    },
    {
      "inputs": [
        {
          "internalType": "uint256",
          "name": "",
          "type": "uint256"
        }
      ],
      "name": "tokenToCollection",
      "outputs": [
        {
          "internalType": "uint256",
          "name": "",
          "type": "uint256"
        }
      ],
      "stateMutability": "view",
      "type": "function"
    },
    {
      "inputs": [
        {
          "internalType": "uint256",
          "name": "id",
          "type": "uint256"
        }
      ],
      "name": "totalSupply",
      "outputs": [
        {
          "internalType": "uint256",
          "name": "",
          "type": "uint256"
        }
      ],
      "stateMutability": "view",
      "type": "function"
    },
    {
      "inputs": [
        {
          "internalType": "uint256",
          "name": "_id",
          "type": "uint256"
        }
      ],
      "name": "uri",
      "outputs": [
        {
          "internalType": "string",
          "name": "",
          "type": "string"
        }
      ],
      "stateMutability": "view",
      "type": "function"
    }
  ],
  "bytecode": "0x6080604052346200009e5762003836803803806200001d81620000e9565b9283398101906060818303126200009e5780516001600160401b0392908381116200009e5781620000509184016200010f565b9260208301519081116200009e576040916200006e9184016200010f565b910151906001600160a01b03821682036200009e576200008e9262000396565b6040516132549081620005e28239f35b600080fd5b50634e487b7160e01b600052604160045260246000fd5b60405190602082016001600160401b03811183821017620000da57604052565b620000e4620000a3565b604052565b6040519190601f01601f191682016001600160401b03811183821017620000da57604052565b81601f820112156200009e578051906001600160401b03821162000193575b60209062000145601f8401601f19168301620000e9565b938385528284830101116200009e5782906000905b838383106200017a575050116200017057505090565b6000918301015290565b819350828193920101518282880101520183916200015a565b6200019d620000a3565b6200012e565b90600182811c92168015620001d5575b6020831014620001bf57565b634e487b7160e01b600052602260045260246000fd5b91607f1691620001b3565b601f8111620001ed575050565b6000906006825260208220906020601f850160051c830194106200022e575b601f0160051c01915b8281106200022257505050565b81815560010162000215565b90925082906200020c565b601f811162000246575050565b6000906005825260208220906020601f850160051c8301941062000287575b601f0160051c01915b8281106200027b57505050565b8181556001016200026e565b909250829062000265565b80519091906001600160401b03811162000386575b620002bf81620002b9600654620001a3565b620001e0565b602080601f8311600114620002fe5750819293600092620002f2575b50508160011b916000199060031b1c191617600655565b015190503880620002db565b6006600052601f198316949091907ff652222313e28459528d920b65115c16c04f3efc82aaedc97be59f3f377c0d3f926000905b8782106200036d57505083600195961062000353575b505050811b01600655565b015160001960f88460031b161c1916905538808062000348565b8060018596829496860151815501950193019062000332565b62000390620000a3565b620002a7565b92919060009384620003a7620000ba565b52620003b5600254620001a3565b601f8111620004ed575b5060028590558051906001600160401b038211620004dd575b620003f082620003ea600554620001a3565b62000239565b60209586601f8411600114620004465750916200043895968192620004329594926200043a575b50508160011b916000199060031b1c19161760055562000292565b62000538565b565b01519050388062000417565b6005600052601f198416979192907f036b6384b5eca791c62761152d0c79bb0604c104a5fb6f4eb0703f3154bb3db093905b898210620004c457505091839160019362000432969562000438999a10620004aa575b505050811b0160055562000292565b015160001960f88460031b161c191690553880806200049b565b8060018596829496860151815501950193019062000478565b620004e7620000a3565b620003d8565b60028652601f0160051c7f405787fa12a823e0f2b7631cc41b3ba8828b3321ca811111fa75cd3aa3bb5ace908101905b8181106200052c5750620003bf565b8681556001016200051d565b6001600160a01b03811660009081527f17ef568e3e12ab5b9c7254a8d58478811de00f9e6eb34345acd53bf8fd09d3ec602052604081205460ff16156200057d575050565b8080526004602090815260408083206001600160a01b038516600090815292529020805460ff1916600117905560405133926001600160a01b031691907f2f8788117e7eff1d82e926ec794901d17c78024a50270940304540a733656f0d908290a456fe60806040526004361015610013575b600080fd5b60003560e01c8062fdd58e1461027e57806301ffc9a71461027557806306fdde031461026c5780630acc39c6146102635780630e89341c1461025a578063185153c314610251578063195f78ae14610248578063248a9ca31461023f5780632a55205a146102365780632eb2c2d61461022d5780632f2ff15d1461022457806336568abe1461021b5780634e1273f4146102125780634f558e79146102095780636b20c454146102005780636cf3d064146101f757806375e2e4d8146101ee5780638b831e23146101e557806391d14854146101dc57806395d89b41146101d3578063a217fddf146101ca578063a22cb465146101c1578063bd85b039146101b8578063d4e4d3dd146101af578063d5391393146101a6578063d547741f1461019d578063e985e9c514610194578063f0c8eb831461018b578063f242432a14610182578063f5298aca146101795763fdbda0ec1461017157600080fd5b61000e611df9565b5061000e611c77565b5061000e611a3f565b5061000e61188b565b5061000e611839565b5061000e6117f9565b5061000e6117bd565b5061000e61173f565b5061000e611712565b5061000e611621565b5061000e611604565b5061000e61155c565b5061000e611509565b5061000e6114c1565b5061000e61132c565b5061000e61118c565b5061000e61101a565b5061000e610fe3565b5061000e610f29565b5061000e610e51565b5061000e610d84565b5061000e610b57565b5061000e610a49565b5061000e610a19565b5061000e6109ec565b5061000e6109b2565b5061000e610879565b5061000e610746565b5061000e6105dd565b5061000e610335565b5061000e6102f3565b600435906001600160a01b038216820361000e57565b602435906001600160a01b038216820361000e57565b608435906001600160a01b038216820361000e57565b606435906001600160a01b038216820361000e57565b35906001600160a01b038216820361000e57565b503461000e57604036600319011261000e57602061031b610312610287565b60243590612057565b604051908152f35b6001600160e01b031981160361000e57565b503461000e57602036600319011261000e5761039860043561035681610323565b63ffffffff60e01b16636cdb3d1360e11b811490819082159081610407575b83156103f6575b831561039c575b50506040519115158252509081906020820190565b0390f35b637965db0b60e01b81149350909183156103bc575b505050388080610383565b9250906103e5575b81156103d4575b503880806103b1565b6301ffc9a760e01b149050386103cb565b6303a24d0760e21b811491506103c4565b637965db0b60e01b8114935061037c565b63152a902d60e11b81149350610375565b90600182811c92168015610448575b602083101461043257565b634e487b7160e01b600052602260045260246000fd5b91607f1691610427565b50634e487b7160e01b600052604160045260246000fd5b602081019081106001600160401b0382111761048457604052565b61048c610452565b604052565b604081019081106001600160401b0382111761048457604052565b90601f801991011681019081106001600160401b0382111761048457604052565b90604051918260008254926104e184610418565b908184526001948581169081600014610550575060011461050d575b505061050b925003836104ac565b565b9093915060005260209081600020936000915b81831061053857505061050b935082010138806104fd565b85548884018501529485019487945091830191610520565b9550505050505060ff1916602083015261050b826040810138806104fd565b918091926000905b82821061058f575011610588575050565b6000910152565b91508060209183015181860152018291610577565b906020916105bd8151809281855285808601910161056f565b601f01601f1916010190565b9060206105da9281815201906105a4565b90565b503461000e576000806003193601126106b357604051908060055461060181610418565b808552916001918083169081156106925750600114610637575b6103988561062b818703826104ac565b604051918291826105c9565b9250600583527f036b6384b5eca791c62761152d0c79bb0604c104a5fb6f4eb0703f3154bb3db05b82841061067a57505050810160200161062b8261039861061b565b8054602085870181019190915290930192810161065f565b60ff19166020870152505060408401925061062b915083905061039861061b565b80fd5b60405190608082018281106001600160401b0382111761048457604052565b6020906001600160401b0381116106f2575b601f01601f19160190565b6106fa610452565b6106e7565b81601f8201121561000e57803590610716826106d5565b9261072460405194856104ac565b8284526020838301011161000e57816000926020809301838601378301015290565b503461000e5760a036600319011261000e57610760610287565b6024359060443563ffffffff811680910361000e57606435926084356001600160401b03811161000e576107989036906004016106ff565b3360009081527fc8a67ff93cd072913f31c50776e9da9e00867535cbaa98368a69dafa551e5534602052604090205490939060ff1615610834576107f994826107eb816000526007602052604060002090565b54156107fb575b5050612f47565b005b6108288261082d93610817846000526007602052604060002090565b556000526009602052604060002090565b612efd565b38826107f2565b60405162461bcd60e51b815260206004820152601a60248201527f4e46543a204e6f206d696e74696e672070726976696c656765730000000000006044820152606490fd5b503461000e5760208060031936011261000e576004356108a6816000526003602052604060002054151590565b156109795760008181526007835260408120548152600883526108cf6002604083200192613146565b604051928281546108df81610418565b9260019180831690811561095a575060011461091f575b6103988761062b818b8a6109108b8281519485920161056f565b0103601f1981018352826104ac565b90918093949550528582205b838310610947575050508201830190838161091061062b6108f6565b805486840188015291860191810161092b565b60ff19168989015250505050830184019150838161091061062b6108f6565b60405162461bcd60e51b81526004810183905260116024820152702727a722ac24a9aa22a72a2faa27a5a2a760791b6044820152606490fd5b503461000e57602036600319011261000e576004356000526008602052602060018060a01b03600160406000200154161515604051908152f35b503461000e57602036600319011261000e5760043560005260076020526020604060002054604051908152f35b503461000e57602036600319011261000e5760043560005260046020526020600160406000200154604051908152f35b503461000e57604036600319011261000e57602435600435600052600760205260406000205460005260086020526040600020549061039861ffff8316928260001904841183151516610ac6575b6040805160109290921c6001600160a01b03168252612710939094029290920460208301529091829190820190565b610ace612116565b610a97565b6020906001600160401b038111610aec575b60051b0190565b610af4610452565b610ae5565b81601f8201121561000e57803591610b1083610ad3565b92610b1e60405194856104ac565b808452602092838086019260051b82010192831161000e578301905b828210610b48575050505090565b81358152908301908301610b3a565b503461000e5760a036600319011261000e57610b71610287565b610b7961029d565b906001600160401b039060443582811161000e57610b9b903690600401610af9565b9160643581811161000e57610bb4903690600401610af9565b9060843590811161000e57610bcd9036906004016106ff565b6001600160a01b038381169491903386148015610d61575b15610d0157610bf78351855114612352565b8616610c0481151561228d565b610c10848489886128ee565b60005b8351811015610cbd5780610c2a610cb89286612145565b51610cb1610ca98b610c5e610c3f868c612145565b51948c610c9887610c7583610c5e866000526000602052604060002090565b9060018060a01b0316600052602052604060002090565b54610c82828210156122e7565b0391610c5e846000526000602052604060002090565b556000526000602052604060002090565b918254612346565b905561212d565b610c13565b50938691946107f9966040517f4a39dc06d4c0dbc64b70af90fd698a233a518aa5d07e595d983b8c0526c8f7fb339180610cf88a8a836123af565b0390a4336127aa565b60405162461bcd60e51b815260206004820152603260248201527f455243313135353a207472616e736665722063616c6c6572206973206e6f74206044820152711bdddb995c881b9bdc88185c1c1c9bdd995960721b6064820152608490fd5b50600086815260016020908152604080832033845290915290205460ff16610be5565b503461000e5760408060031936011261000e5760043590610da361029d565b6000928084526004602052610dbd60018486200154611e68565b808452600460209081528385206001600160a01b03841660009081529152604090205460ff1615610ded57505051f35b808452600460209081528385206001600160a01b0384166000908152915260409020805460ff19166001179055825133926001600160a01b031691907f2f8788117e7eff1d82e926ec794901d17c78024a50270940304540a733656f0d908690a451f35b503461000e57604036600319011261000e57610e6b61029d565b336001600160a01b03821603610e87576107f990600435611fc7565b60405162461bcd60e51b815260206004820152602f60248201527f416363657373436f6e74726f6c3a2063616e206f6e6c792072656e6f756e636560448201526e103937b632b9903337b91039b2b63360891b6064820152608490fd5b90815180825260208080930193019160005b828110610f04575050505090565b835185529381019392810192600101610ef6565b9060206105da928181520190610ee4565b503461000e57604036600319011261000e576004356001600160401b0380821161000e573660238301121561000e578160040135610f6681610ad3565b92610f7460405194856104ac565b81845260209160248386019160051b8301019136831161000e57602401905b828210610fcc578560243586811161000e5761039891610fba610fc0923690600401610af9565b90612167565b60405191829182610f18565b838091610fd8846102df565b815201910190610f93565b503461000e57602036600319011261000e5760206110106004356000526003602052604060002054151590565b6040519015158152f35b503461000e57606036600319011261000e57611034610287565b6001600160401b039060243582811161000e57611055903690600401610af9565b9160443590811161000e5761106e903690600401610af9565b6001600160a01b038216913383148015611169575b61108c9061222f565b61109783151561304e565b6110a48451835114612352565b6110ac61298a565b506110b8828583612872565b60005b845181101561112757806110d26111229287612145565b5161111c84610c5e6110e48589612145565b516110fd83610c5e876000526000602052604060002090565b5461110a828210156130a6565b03936000526000602052604060002090565b5561212d565b6110bb565b600084867f4a39dc06d4c0dbc64b70af90fd698a233a518aa5d07e595d983b8c0526c8f7fb61115e876040519182913395836123af565b0390a46107f961298a565b50600083815260016020908152604080832033845290915290205460ff16611083565b503461000e57604036600319011261000e576001600160401b0360243581811161000e576111be9036906004016106ff565b3360009081527f17ef568e3e12ab5b9c7254a8d58478811de00f9e6eb34345acd53bf8fd09d3ec602090815260408220549293919290919060ff16156112e357600435835260088252600260408420019184519182116112d6575b61122d826112278554610418565b85612b5d565b80601f8311600114611269575083948293949261125e575b50508160011b916000199060031b1c1916179055604051f35b015190503880611245565b90601f1983169561127f85600052602060002090565b9286905b8882106112be575050836001959697106112a5575b505050811b019055604051f35b015160001960f88460031b161c19169055388080611298565b80600185968294968601518155019501930190611283565b6112de610452565b611219565b60405162461bcd60e51b815260048101839052601060248201526f41646d696e2063616c6c73206f6e6c7960801b6044820152606490fd5b6044359061ffff8216820361000e57565b503461000e5760a036600319011261000e5760043561134961029d565b61135161131b565b916064356001600160401b03811161000e577fde5923b1877e4f4b0347dfd42a5f7e104c6e5d91823cd853760bce2852f5ccbd9361139661147f9236906004016106ff565b906114736113a26102b3565b3360009081527f17ef568e3e12ab5b9c7254a8d58478811de00f9e6eb34345acd53bf8fd09d3ec60205260409020546113dd9060ff16612c8d565b61142260018060a01b03611419816114126114028b6000526008602052604060002090565b5460101c6001600160a01b031690565b1615612cff565b88161515612d4b565b61145461142d6106b6565b61ffff85168152916001600160a01b03891660208401526001600160a01b03166040830152565b83606082015261146e866000526008602052604060002090565b612da6565b60405194859485612eca565b0390a1005b50634e487b7160e01b600052603260045260246000fd5b80548210156114b4575b60005260206000200190600090565b6114bc611484565b6114a5565b503461000e57604036600319011261000e5760243560043560005260096020526040600020805482101561000e576020916114fb9161149b565b90546040519160031b1c8152f35b503461000e57604036600319011261000e57602060ff61155061152a61029d565b6004356000526004845260406000209060018060a01b0316600052602052604060002090565b54166040519015158152f35b503461000e576000806003193601126106b357604051908060065461158081610418565b8085529160019180831690811561069257506001146115a9576103988561062b818703826104ac565b9250600683527ff652222313e28459528d920b65115c16c04f3efc82aaedc97be59f3f377c0d3f5b8284106115ec57505050810160200161062b8261039861061b565b805460208587018101919091529093019281016115d1565b503461000e57600036600319011261000e57602060405160008152f35b503461000e57604036600319011261000e5761163b610287565b602435801515810361000e576001600160a01b038216913383146116bb573360009081526001602052604090206116899183916116789190610c5e565b9060ff801983541691151516179055565b604051901515815233907f17307eab39ab6107e8899845ad3d59bd9653f200f220920489ca2b5937696c3190602090a3005b60405162461bcd60e51b815260206004820152602960248201527f455243313135353a2073657474696e6720617070726f76616c20737461747573604482015268103337b91039b2b63360b91b6064820152608490fd5b503461000e57602036600319011261000e5760043560005260036020526020604060002054604051908152f35b503461000e57602036600319011261000e57600435600090815260086020526040908190208054600182015461ffff82169360109290921c6001600160a01b03908116939116916117b391608090611799906002016104cd565b9180519687968752602087015285015260808401906105a4565b9060608301520390f35b503461000e57600036600319011261000e5760206040517f9f2df0fed2c77648de5860a4cc508cd0818c85b8b8a1ab4ceeef8d981c8956a68152f35b503461000e57604036600319011261000e576107f960043561181961029d565b90806000526004602052611834600160406000200154611e68565b611fc7565b503461000e57604036600319011261000e57602060ff61155061185a610287565b61186261029d565b6001600160a01b0391821660009081526001865260408082209290931681526020919091522090565b503461000e5760a036600319011261000e576004356118a861029d565b906118b161131b565b6118b96102c9565b926084356001600160401b03811161000e576118d99036906004016106ff565b3360009081527f17ef568e3e12ab5b9c7254a8d58478811de00f9e6eb34345acd53bf8fd09d3ec602052604090205490939060ff16156119ea576107f9946002936119e4936119d4926119af916119799061193e6001600160a01b0382161515612b56565b611952876000526008602052604060002090565b805462010000600160b01b03191660109290921b62010000600160b01b0316919091179055565b600161198f866000526008602052604060002090565b0180546001600160a01b0319166001600160a01b03909216919091179055565b6119c3836000526008602052604060002090565b9061ffff1661ffff19825416179055565b6000526008602052604060002090565b01612bb1565b60405162461bcd60e51b815260206004820152602760248201527f4e46543a204f6e6c792041646d696e2063616e2073657420636f6c6c656374696044820152666f6e20696e666f60c81b6064820152608490fd5b503461000e5760a036600319011261000e57611a59610287565b611a6161029d565b6064356044356084356001600160401b03811161000e57611a869036906004016106ff565b6001600160a01b0385811695919491903387148015611c54575b611aa99061222f565b8216801596611ab8881561228d565b611ac1856127e4565b97611acb876127e4565b908215611bf8575b611b7c575b506107f9975085611af784610c5e886000526000602052604060002090565b54611b04828210156122e7565b03611b1d84610c5e886000526000602052604060002090565b55611b3684610c5e876000526000602052604060002090565b611b41878254612346565b9055604080518681526020810188905233917fc3d58168c5ae7397731d063d5bbf3d657854427343f4c083240f7aacaa2d0f6291a433612684565b959391600097959391975b8951811015611be55780611b9e611be0928c612145565b5161111c611bac838c612145565b51611bc1836000526003602052604060002090565b54611bce82821015612815565b03916000526003602052604060002090565b611b87565b50919395509193956107f9975038611ad8565b9896939095926000989592985b8851811015611c44578089610cb1610ca9611c2e84611c27611c3f978f612145565b5194612145565b516000526003602052604060002090565b611c05565b5092959093969897919497611ad3565b50600087815260016020908152604080832033845290915290205460ff16611aa0565b503461000e57606036600319011261000e57611c91610287565b604435906024356001600160a01b0382163381148015611dd6575b611cb59061222f565b801591611cc2831561304e565b611ccb816127e4565b94611cd5816127e4565b936000604051611ce481610469565b52611d9a575b60005b8651811015611d175780611d04611d129289612145565b5161111c611bac8389612145565b611ced565b600084847fc3d58168c5ae7397731d063d5bbf3d657854427343f4c083240f7aacaa2d0f6261115e868b611d8082611d5d83610c5e896000526000602052604060002090565b54611d6a828210156130a6565b0391610c5e876000526000602052604060002090565b556040805194855260208501919091523393918291820190565b93919060005b8651811015611dcd5780611db7611dc89287612145565b51610cb1610ca9611c2e848c612145565b611da0565b50909193611cea565b50600081815260016020908152604080832033845290915290205460ff16611cac565b503461000e57602036600319011261000e5760043560005260086020526040600020805461039860018060a01b0392611e3b60028560018401541692016104cd565b90604051948461ffff879616865260101c16602085015260408401526080606084015260808301906105a4565b60008181526004602081815260408084203385529091529091205460ff1615611e8f575050565b3391611e996129bb565b926030611ea5856129f5565b536078611eb185612a0b565b5360295b60018111611f62575092611f37611edb611f4593611ed6611f149715612a56565b612aa1565b611f316040519687947f416363657373436f6e74726f6c3a206163636f756e742000000000000000000060208701526037860190611fb0565b7001034b99036b4b9b9b4b733903937b6329607d1b815260110190565b90611fb0565b03601f1981018452836104ac565b611f5e60405192839262461bcd60e51b845283016105c9565b0390fd5b9080600f611f9e92166010811015611fa3575b6f181899199a1a9b1b9c1cb0b131b232b360811b901a611f958488612a1c565b53841c91612a3b565b611eb5565b611fab611484565b611f75565b90611fc36020928281519485920161056f565b0190565b60008181526004602090815260408083206001600160a01b038616845290915290205460ff16611ff5575050565b60008181526004602090815260408083206001600160a01b03861684529091529020805460ff1916905560405133926001600160a01b031691907ff6391f5c32d9c69d2a47ea670b442974b53935d1edc7fd64eb21e047a839171b90600090a4565b6001600160a01b0381161561208b576000918252602082815260408084206001600160a01b03909316845291905290205490565b60405162461bcd60e51b815260206004820152602b60248201527f455243313135353a2062616c616e636520717565727920666f7220746865207a60448201526a65726f206164647265737360a81b6064820152608490fd5b906120ee82610ad3565b6120fb60405191826104ac565b828152809261210c601f1991610ad3565b0190602036910137565b50634e487b7160e01b600052601160045260246000fd5b600190600019811461213d570190565b611fc3612116565b602091815181101561215a575b60051b010190565b612162611484565b612152565b91909180518351036121d85761217d81516120e4565b9060005b81518110156121d157806121bc6121ab61219e6121cc9486612145565b516001600160a01b031690565b6121b58389612145565b5190612057565b6121c68286612145565b5261212d565b612181565b5090925050565b60405162461bcd60e51b815260206004820152602960248201527f455243313135353a206163636f756e747320616e6420696473206c656e677468604482015268040dad2e6dac2e8c6d60bb1b6064820152608490fd5b1561223657565b60405162461bcd60e51b815260206004820152602960248201527f455243313135353a2063616c6c6572206973206e6f74206f776e6572206e6f7260448201526808185c1c1c9bdd995960ba1b6064820152608490fd5b1561229457565b60405162461bcd60e51b815260206004820152602560248201527f455243313135353a207472616e7366657220746f20746865207a65726f206164604482015264647265737360d81b6064820152608490fd5b156122ee57565b60405162461bcd60e51b815260206004820152602a60248201527f455243313135353a20696e73756666696369656e742062616c616e636520666f60448201526939103a3930b739b332b960b11b6064820152608490fd5b8119811161213d570190565b1561235957565b60405162461bcd60e51b815260206004820152602860248201527f455243313135353a2069647320616e6420616d6f756e7473206c656e677468206044820152670dad2e6dac2e8c6d60c31b6064820152608490fd5b90916123c66105da93604084526040840190610ee4565b916020818403910152610ee4565b9081602091031261000e57516105da81610323565b909260a0926105da9594600180861b03168352600060208401526040830152606082015281608082015201906105a4565b91926105da95949160a094600180871b0380921685521660208401526040830152606082015281608082015201906105a4565b60809060208152602860208201527f455243313135353a204552433131353552656365697665722072656a656374656040820152676420746f6b656e7360c01b60608201520190565b60009060033d116124a357565b905060046000803e60005160e01c90565b600060443d106105da57604051600319913d83016004833e81516001600160401b03918282113d60248401111761251157818401948551938411612519573d8501016020848701011161251157506105da929101602001906104ac565b949350505050565b50949350505050565b9390803b612532575b5050505050565b61255a9360006020946040519687958694859363f23a6e6160e01b9b8c8652600486016123e9565b03926001600160a01b03165af160009181612654575b5061262c5750506001612581612496565b6308c379a0146125fd575b61259b575b388080808061252b565b60405162461bcd60e51b815260206004820152603460248201527f455243313135353a207472616e7366657220746f206e6f6e20455243313135356044820152732932b1b2b4bb32b91034b6b83632b6b2b73a32b960611b6064820152608490fd5b6126056124b4565b80612610575061258c565b60405162461bcd60e51b8152908190611f5e90600483016105c9565b6001600160e01b031916146125915760405162461bcd60e51b815280611f5e6004820161244d565b61267691925060203d811161267d575b61266e81836104ac565b8101906123d4565b9038612570565b503d612664565b9493919092813b612698575b505050505050565b60006020946126bf6040519788968795869463f23a6e6160e01b9c8d87526004870161241a565b03926001600160a01b03165af16000918161273c575b5061271457505060016126e6612496565b6308c379a014612701575b61259b575b388080808080612690565b6127096124b4565b8061261057506126f1565b6001600160e01b031916146126f65760405162461bcd60e51b815280611f5e6004820161244d565b61275591925060203d811161267d5761266e81836104ac565b90386126d5565b93906105da959361278e9161279c9460018060a01b03809216885216602087015260a0604087015260a0860190610ee4565b908482036060860152610ee4565b9160808184039101526105a4565b9493919092813b6127bd57505050505050565b60006020946126bf6040519788968795869463bc197c8160e01b9c8d87526004870161275c565b604051906127f182610491565b60018252602082016020368237825115612809575290565b612811611484565b5290565b1561281c57565b60405162461bcd60e51b815260206004820152602860248201527f455243313135353a206275726e20616d6f756e74206578636565647320746f74604482015267616c537570706c7960c01b6064820152608490fd5b909291906001600160a01b0316156128b8575b60005b83518110156128b2578061289f6128ad9286612145565b5161111c611bac8386612145565b612888565b50509050565b60005b83518110156128e857806128d26128e39284612145565b51610cb1610ca9611c2e8489612145565b6128bb565b50612885565b919392916001600160a01b03919082161561292e575b161561290f57509050565b60005b83518110156128b2578061289f6129299286612145565b612912565b929060005b8551811015612960578061294a61295b9286612145565b51610cb1610ca9611c2e848b612145565b612933565b509092612904565b600a90806000190482118115151661297e570290565b612986612116565b0290565b60405190602082018281106001600160401b038211176129ae575b60405260008252565b6129b6610452565b6129a5565b60405190606082018281106001600160401b038211176129e8575b604052602a8252604082602036910137565b6129f0610452565b6129d6565b602090805115612a03570190565b611fc3611484565b602190805160011015612a03570190565b906020918051821015612a2e57010190565b612a36611484565b010190565b8015612a49575b6000190190565b612a51612116565b612a42565b15612a5d57565b606460405162461bcd60e51b815260206004820152602060248201527f537472696e67733a20686578206c656e67746820696e73756666696369656e746044820152fd5b60405190608082018281106001600160401b03821117612b49575b6040526042825260603660208401376030612ad6836129f5565b536078612ae283612a0b565b536041905b60018211612afa576105da915015612a56565b80600f612b3692166010811015612b3c575b6f181899199a1a9b1b9c1cb0b131b232b360811b901a612b2c8486612a1c565b5360041c91612a3b565b90612ae7565b612b44611484565b612b0c565b612b51610452565b612abc565b1561000e57565b90601f8111612b6b57505050565b600091825260208220906020601f850160051c83019410612ba7575b601f0160051c01915b828110612b9c57505050565b818155600101612b90565b9092508290612b87565b91909182516001600160401b038111612c80575b612bd981612bd38454610418565b84612b5d565b602080601f8311600114612c15575081929394600092612c0a575b50508160011b916000199060031b1c1916179055565b015190503880612bf4565b90601f19831695612c2b85600052602060002090565b926000905b888210612c6857505083600195969710612c4f575b505050811b019055565b015160001960f88460031b161c19169055388080612c45565b80600185968294968601518155019501930190612c30565b612c88610452565b612bc5565b15612c9457565b60405162461bcd60e51b815260206004820152603860248201527f455243313135352e637265617465436f6c6c656374696f6e206f6e6c7920416460448201527f6d696e206f72204d696e7465722063616e2063726561746500000000000000006064820152608490fd5b15612d0657565b60405162461bcd60e51b815260206004820152601960248201527f436f6c6c656374696f6e20616c726561647920657869737473000000000000006044820152606490fd5b15612d5257565b60405162461bcd60e51b815260206004820152602660248201527f526f79616c74792064657374696e6174696f6e20616464726573732063616e2760448201526507420626520360d41b6064820152608490fd5b8151815460208085015162010000600160b01b0360109190911b166001600160b01b031990921661ffff909316929092171782556040830151600180840180546001600160a01b0319166001600160a01b03939093169290921790915591606090600201930151908151916001600160401b038311612ebd575b612e3483612e2e8754610418565b87612b5d565b81601f8411600114612e6d5750928293918392600094612e62575b50501b916000199060031b1c1916179055565b015192503880612e4f565b919083601f198116612e8488600052602060002090565b946000905b88838310612ea35750505010612c4f57505050811b019055565b858701518855909601959485019487935090810190612e89565b612ec5610452565b612e20565b9081526001600160a01b03909116602082015261ffff90911660408201526080606082018190526105da929101906105a4565b8054612f209168010000000000000000821015612f3a575b60018201815561149b565b819291549060031b600019811b9283911b16911916179055565b612f42610452565b612f15565b936001600160a01b0385169391929091908415612fff57612f67846127e4565b93612f71826127e4565b9660005b8651811015612f915780611db7612f8c928b612145565b612f75565b509193965091935061050b94612fb582610c5e856000526000602052604060002090565b612fc0858254612346565b9055604080518481526020810186905260009133917fc3d58168c5ae7397731d063d5bbf3d657854427343f4c083240f7aacaa2d0f629190a433612522565b60405162461bcd60e51b815260206004820152602160248201527f455243313135353a206d696e7420746f20746865207a65726f206164647265736044820152607360f81b6064820152608490fd5b1561305557565b60405162461bcd60e51b815260206004820152602360248201527f455243313135353a206275726e2066726f6d20746865207a65726f206164647260448201526265737360e81b6064820152608490fd5b156130ad57565b60405162461bcd60e51b8152602060048201526024808201527f455243313135353a206275726e20616d6f756e7420657863656564732062616c604482015263616e636560e01b6064820152608490fd5b60018110612a49576000190190565b818110613118570390565b613120612116565b0390565b60ff168060ff03603011613139575b60300190565b613141612116565b613133565b8015613200578060008281935b6131ec575081613162846106d5565b9361317060405195866104ac565b808552601f1961317f826106d5565b01366020870137905b6131925750505090565b61319b906130fe565b91826131e46131db6131cb6131c66131c0600a8704966131ba88612968565b9061310d565b60ff1690565b613124565b60f81b6001600160f81b03191690565b841a9186612a1c565b539182613188565b926131f8600a9161212d565b930480613153565b5060405161320d81610491565b60018152600360fc1b60208201529056fea2646970667358221220ff26c2ff1a8bffbfe8c0527225c54612e7da85ebc397b431b3a2209525798a9364736f6c634300080e0033",
  "linkReferences": {},
  "deployedLinkReferences": {}
}