{
  "_format": "hh-sol-artifact-1",
  "contractName": "NFT",
  "sourceName": "contracts/ERC-1155/NFT.sol",
  "abi": [
    {
      "anonymous": false,
      "inputs": [
        {
          "indexed": false,
          "internalType": "address",
          "name": "previousAdmin",
          "type": "address"
        },
        {
          "indexed": false,
          "internalType": "address",
          "name": "newAdmin",
          "type": "address"
        }
      ],
      "name": "AdminChanged",
      "type": "event"
    },
    {
      "anonymous": false,
      "inputs": [
        {
          "indexed": true,
          "internalType": "address",
          "name": "account",
          "type": "address"
        },
        {
          "indexed": true,
          "internalType": "address",
          "name": "operator",
          "type": "address"
        },
        {
          "indexed": false,
          "internalType": "bool",
          "name": "approved",
          "type": "bool"
        }
      ],
      "name": "ApprovalForAll",
      "type": "event"
    },
    {
      "anonymous": false,
      "inputs": [
        {
          "indexed": true,
          "internalType": "address",
          "name": "beacon",
          "type": "address"
        }
      ],
      "name": "BeaconUpgraded",
      "type": "event"
    },
    {
      "anonymous": false,
      "inputs": [
        {
          "indexed": false,
          "internalType": "uint256",
          "name": "collectionId",
          "type": "uint256"
        },
        {
          "indexed": false,
          "internalType": "address",
          "name": "royaltyDestination",
          "type": "address"
        },
        {
          "indexed": false,
          "internalType": "uint16",
          "name": "royaltyPercentage",
          "type": "uint16"
        },
        {
          "indexed": false,
          "internalType": "string",
          "name": "baseMetadataURI",
          "type": "string"
        }
      ],
      "name": "CollectionCreated",
      "type": "event"
    },
    {
      "anonymous": false,
      "inputs": [
        {
          "indexed": false,
          "internalType": "uint8",
          "name": "version",
          "type": "uint8"
        }
      ],
      "name": "Initialized",
      "type": "event"
    },
    {
      "anonymous": false,
      "inputs": [
        {
          "indexed": false,
          "internalType": "address",
          "name": "account",
          "type": "address"
        }
      ],
      "name": "Paused",
      "type": "event"
    },
    {
      "anonymous": false,
      "inputs": [
        {
          "indexed": true,
          "internalType": "bytes32",
          "name": "role",
          "type": "bytes32"
        },
        {
          "indexed": true,
          "internalType": "bytes32",
          "name": "previousAdminRole",
          "type": "bytes32"
        },
        {
          "indexed": true,
          "internalType": "bytes32",
          "name": "newAdminRole",
          "type": "bytes32"
        }
      ],
      "name": "RoleAdminChanged",
      "type": "event"
    },
    {
      "anonymous": false,
      "inputs": [
        {
          "indexed": true,
          "internalType": "bytes32",
          "name": "role",
          "type": "bytes32"
        },
        {
          "indexed": true,
          "internalType": "address",
          "name": "account",
          "type": "address"
        },
        {
          "indexed": true,
          "internalType": "address",
          "name": "sender",
          "type": "address"
        }
      ],
      "name": "RoleGranted",
      "type": "event"
    },
    {
      "anonymous": false,
      "inputs": [
        {
          "indexed": true,
          "internalType": "bytes32",
          "name": "role",
          "type": "bytes32"
        },
        {
          "indexed": true,
          "internalType": "address",
          "name": "account",
          "type": "address"
        },
        {
          "indexed": true,
          "internalType": "address",
          "name": "sender",
          "type": "address"
        }
      ],
      "name": "RoleRevoked",
      "type": "event"
    },
    {
      "anonymous": false,
      "inputs": [
        {
          "indexed": true,
          "internalType": "address",
          "name": "operator",
          "type": "address"
        },
        {
          "indexed": true,
          "internalType": "address",
          "name": "from",
          "type": "address"
        },
        {
          "indexed": true,
          "internalType": "address",
          "name": "to",
          "type": "address"
        },
        {
          "indexed": false,
          "internalType": "uint256[]",
          "name": "ids",
          "type": "uint256[]"
        },
        {
          "indexed": false,
          "internalType": "uint256[]",
          "name": "values",
          "type": "uint256[]"
        }
      ],
      "name": "TransferBatch",
      "type": "event"
    },
    {
      "anonymous": false,
      "inputs": [
        {
          "indexed": true,
          "internalType": "address",
          "name": "operator",
          "type": "address"
        },
        {
          "indexed": true,
          "internalType": "address",
          "name": "from",
          "type": "address"
        },
        {
          "indexed": true,
          "internalType": "address",
          "name": "to",
          "type": "address"
        },
        {
          "indexed": false,
          "internalType": "uint256",
          "name": "id",
          "type": "uint256"
        },
        {
          "indexed": false,
          "internalType": "uint256",
          "name": "value",
          "type": "uint256"
        }
      ],
      "name": "TransferSingle",
      "type": "event"
    },
    {
      "anonymous": false,
      "inputs": [
        {
          "indexed": false,
          "internalType": "string",
          "name": "value",
          "type": "string"
        },
        {
          "indexed": true,
          "internalType": "uint256",
          "name": "id",
          "type": "uint256"
        }
      ],
      "name": "URI",
      "type": "event"
    },
    {
      "anonymous": false,
      "inputs": [
        {
          "indexed": false,
          "internalType": "address",
          "name": "account",
          "type": "address"
        }
      ],
      "name": "Unpaused",
      "type": "event"
    },
    {
      "anonymous": false,
      "inputs": [
        {
          "indexed": true,
          "internalType": "address",
          "name": "implementation",
          "type": "address"
        }
      ],
      "name": "Upgraded",
      "type": "event"
    },
    {
      "inputs": [],
      "name": "BURNER_ROLE",
      "outputs": [
        {
          "internalType": "bytes32",
          "name": "",
          "type": "bytes32"
        }
      ],
      "stateMutability": "view",
      "type": "function"
    },
    {
      "inputs": [],
      "name": "DEFAULT_ADMIN_ROLE",
      "outputs": [
        {
          "internalType": "bytes32",
          "name": "",
          "type": "bytes32"
        }
      ],
      "stateMutability": "view",
      "type": "function"
    },
    {
      "inputs": [],
      "name": "MINTER_ROLE",
      "outputs": [
        {
          "internalType": "bytes32",
          "name": "",
          "type": "bytes32"
        }
      ],
      "stateMutability": "view",
      "type": "function"
    },
    {
      "inputs": [
        {
          "internalType": "address",
          "name": "account",
          "type": "address"
        },
        {
          "internalType": "uint256",
          "name": "id",
          "type": "uint256"
        }
      ],
      "name": "balanceOf",
      "outputs": [
        {
          "internalType": "uint256",
          "name": "",
          "type": "uint256"
        }
      ],
      "stateMutability": "view",
      "type": "function"
    },
    {
      "inputs": [
        {
          "internalType": "address[]",
          "name": "accounts",
          "type": "address[]"
        },
        {
          "internalType": "uint256[]",
          "name": "ids",
          "type": "uint256[]"
        }
      ],
      "name": "balanceOfBatch",
      "outputs": [
        {
          "internalType": "uint256[]",
          "name": "",
          "type": "uint256[]"
        }
      ],
      "stateMutability": "view",
      "type": "function"
    },
    {
      "inputs": [
        {
          "internalType": "address",
          "name": "account",
          "type": "address"
        },
        {
          "internalType": "uint256",
          "name": "id",
          "type": "uint256"
        },
        {
          "internalType": "uint256",
          "name": "value",
          "type": "uint256"
        }
      ],
      "name": "burn",
      "outputs": [],
      "stateMutability": "nonpayable",
      "type": "function"
    },
    {
      "inputs": [
        {
          "internalType": "address",
          "name": "account",
          "type": "address"
        },
        {
          "internalType": "uint256[]",
          "name": "ids",
          "type": "uint256[]"
        },
        {
          "internalType": "uint256[]",
          "name": "values",
          "type": "uint256[]"
        }
      ],
      "name": "burnBatch",
      "outputs": [],
      "stateMutability": "nonpayable",
      "type": "function"
    },
    {
      "inputs": [
        {
          "internalType": "address",
          "name": "account",
          "type": "address"
        },
        {
          "internalType": "uint256",
          "name": "id",
          "type": "uint256"
        },
        {
          "internalType": "uint256",
          "name": "value",
          "type": "uint256"
        }
      ],
      "name": "burnFromAuthorizedSC",
      "outputs": [],
      "stateMutability": "nonpayable",
      "type": "function"
    },
    {
      "inputs": [
        {
          "internalType": "uint256",
          "name": "_collectionId",
          "type": "uint256"
        }
      ],
      "name": "collectionExists",
      "outputs": [
        {
          "internalType": "bool",
          "name": "",
          "type": "bool"
        }
      ],
      "stateMutability": "view",
      "type": "function"
    },
    {
      "inputs": [
        {
          "internalType": "uint256",
          "name": "",
          "type": "uint256"
        }
      ],
      "name": "collections",
      "outputs": [
        {
          "internalType": "uint16",
          "name": "royalty",
          "type": "uint16"
        },
        {
          "internalType": "address",
          "name": "royaltyDestination",
          "type": "address"
        },
        {
          "internalType": "address",
          "name": "primarySalesDestination",
          "type": "address"
        },
        {
          "internalType": "string",
          "name": "dropMetadataURI",
          "type": "string"
        }
      ],
      "stateMutability": "view",
      "type": "function"
    },
    {
      "inputs": [
        {
          "internalType": "uint256",
          "name": "_collectionId",
          "type": "uint256"
        },
        {
          "internalType": "address",
          "name": "_royaltyDestination",
          "type": "address"
        },
        {
          "internalType": "uint16",
          "name": "_royaltyPercentage",
          "type": "uint16"
        },
        {
          "internalType": "string",
          "name": "_dropMetadataURI",
          "type": "string"
        },
        {
          "internalType": "address",
          "name": "_primarySalesDestination",
          "type": "address"
        }
      ],
      "name": "createCollection",
      "outputs": [],
      "stateMutability": "nonpayable",
      "type": "function"
    },
    {
      "inputs": [
        {
          "internalType": "uint256",
          "name": "id",
          "type": "uint256"
        }
      ],
      "name": "exists",
      "outputs": [
        {
          "internalType": "bool",
          "name": "",
          "type": "bool"
        }
      ],
      "stateMutability": "view",
      "type": "function"
    },
    {
      "inputs": [
        {
          "internalType": "uint256",
          "name": "_collectionId",
          "type": "uint256"
        }
      ],
      "name": "getCollectionInfo",
      "outputs": [
        {
          "internalType": "address",
          "name": "",
          "type": "address"
        },
        {
          "internalType": "uint16",
          "name": "",
          "type": "uint16"
        },
        {
          "internalType": "string",
          "name": "",
          "type": "string"
        },
        {
          "internalType": "address",
          "name": "",
          "type": "address"
        }
      ],
      "stateMutability": "view",
      "type": "function"
    },
    {
      "inputs": [
        {
          "internalType": "bytes32",
          "name": "role",
          "type": "bytes32"
        }
      ],
      "name": "getRoleAdmin",
      "outputs": [
        {
          "internalType": "bytes32",
          "name": "",
          "type": "bytes32"
        }
      ],
      "stateMutability": "view",
      "type": "function"
    },
    {
      "inputs": [
        {
          "internalType": "bytes32",
          "name": "role",
          "type": "bytes32"
        },
        {
          "internalType": "address",
          "name": "account",
          "type": "address"
        }
      ],
      "name": "grantRole",
      "outputs": [],
      "stateMutability": "nonpayable",
      "type": "function"
    },
    {
      "inputs": [
        {
          "internalType": "bytes32",
          "name": "role",
          "type": "bytes32"
        },
        {
          "internalType": "address",
          "name": "account",
          "type": "address"
        }
      ],
      "name": "hasRole",
      "outputs": [
        {
          "internalType": "bool",
          "name": "",
          "type": "bool"
        }
      ],
      "stateMutability": "view",
      "type": "function"
    },
    {
      "inputs": [
        {
          "internalType": "string",
          "name": "_name",
          "type": "string"
        },
        {
          "internalType": "string",
          "name": "_symbol",
          "type": "string"
        },
        {
          "internalType": "address",
          "name": "_admin",
          "type": "address"
        }
      ],
      "name": "initialize",
      "outputs": [],
      "stateMutability": "nonpayable",
      "type": "function"
    },
    {
      "inputs": [
        {
          "internalType": "address",
          "name": "account",
          "type": "address"
        },
        {
          "internalType": "address",
          "name": "operator",
          "type": "address"
        }
      ],
      "name": "isApprovedForAll",
      "outputs": [
        {
          "internalType": "bool",
          "name": "",
          "type": "bool"
        }
      ],
      "stateMutability": "view",
      "type": "function"
    },
    {
      "inputs": [
        {
          "internalType": "address",
          "name": "_to",
          "type": "address"
        },
        {
          "internalType": "uint256",
          "name": "_id",
          "type": "uint256"
        },
        {
          "internalType": "uint32",
          "name": "_quantity",
          "type": "uint32"
        },
        {
          "internalType": "uint256",
          "name": "_collectionId",
          "type": "uint256"
        },
        {
          "internalType": "bytes",
          "name": "_data",
          "type": "bytes"
        }
      ],
      "name": "mint",
      "outputs": [],
      "stateMutability": "nonpayable",
      "type": "function"
    },
    {
      "inputs": [],
      "name": "name",
      "outputs": [
        {
          "internalType": "string",
          "name": "",
          "type": "string"
        }
      ],
      "stateMutability": "view",
      "type": "function"
    },
    {
      "inputs": [
        {
          "internalType": "uint256",
          "name": "",
          "type": "uint256"
        },
        {
          "internalType": "uint256",
          "name": "",
          "type": "uint256"
        }
      ],
      "name": "nftsInCollection",
      "outputs": [
        {
          "internalType": "uint256",
          "name": "",
          "type": "uint256"
        }
      ],
      "stateMutability": "view",
      "type": "function"
    },
    {
      "inputs": [],
      "name": "pause",
      "outputs": [],
      "stateMutability": "nonpayable",
      "type": "function"
    },
    {
      "inputs": [],
      "name": "paused",
      "outputs": [
        {
          "internalType": "bool",
          "name": "",
          "type": "bool"
        }
      ],
      "stateMutability": "view",
      "type": "function"
    },
    {
      "inputs": [],
      "name": "proxiableUUID",
      "outputs": [
        {
          "internalType": "bytes32",
          "name": "",
          "type": "bytes32"
        }
      ],
      "stateMutability": "view",
      "type": "function"
    },
    {
      "inputs": [
        {
          "internalType": "bytes32",
          "name": "role",
          "type": "bytes32"
        },
        {
          "internalType": "address",
          "name": "account",
          "type": "address"
        }
      ],
      "name": "renounceRole",
      "outputs": [],
      "stateMutability": "nonpayable",
      "type": "function"
    },
    {
      "inputs": [
        {
          "internalType": "bytes32",
          "name": "role",
          "type": "bytes32"
        },
        {
          "internalType": "address",
          "name": "account",
          "type": "address"
        }
      ],
      "name": "revokeRole",
      "outputs": [],
      "stateMutability": "nonpayable",
      "type": "function"
    },
    {
      "inputs": [
        {
          "internalType": "uint256",
          "name": "tokenId",
          "type": "uint256"
        },
        {
          "internalType": "uint256",
          "name": "salePrice",
          "type": "uint256"
        }
      ],
      "name": "royaltyInfo",
      "outputs": [
        {
          "internalType": "address",
          "name": "",
          "type": "address"
        },
        {
          "internalType": "uint256",
          "name": "",
          "type": "uint256"
        }
      ],
      "stateMutability": "view",
      "type": "function"
    },
    {
      "inputs": [
        {
          "internalType": "address",
          "name": "from",
          "type": "address"
        },
        {
          "internalType": "address",
          "name": "to",
          "type": "address"
        },
        {
          "internalType": "uint256[]",
          "name": "ids",
          "type": "uint256[]"
        },
        {
          "internalType": "uint256[]",
          "name": "amounts",
          "type": "uint256[]"
        },
        {
          "internalType": "bytes",
          "name": "data",
          "type": "bytes"
        }
      ],
      "name": "safeBatchTransferFrom",
      "outputs": [],
      "stateMutability": "nonpayable",
      "type": "function"
    },
    {
      "inputs": [
        {
          "internalType": "address",
          "name": "from",
          "type": "address"
        },
        {
          "internalType": "address",
          "name": "to",
          "type": "address"
        },
        {
          "internalType": "uint256",
          "name": "id",
          "type": "uint256"
        },
        {
          "internalType": "uint256",
          "name": "amount",
          "type": "uint256"
        },
        {
          "internalType": "bytes",
          "name": "data",
          "type": "bytes"
        }
      ],
      "name": "safeTransferFrom",
      "outputs": [],
      "stateMutability": "nonpayable",
      "type": "function"
    },
    {
      "inputs": [
        {
          "internalType": "address",
          "name": "operator",
          "type": "address"
        },
        {
          "internalType": "bool",
          "name": "approved",
          "type": "bool"
        }
      ],
      "name": "setApprovalForAll",
      "outputs": [],
      "stateMutability": "nonpayable",
      "type": "function"
    },
    {
      "inputs": [
        {
          "internalType": "uint256",
          "name": "_collectionId",
          "type": "uint256"
        },
        {
          "internalType": "address",
          "name": "_royaltyDestination",
          "type": "address"
        },
        {
          "internalType": "uint16",
          "name": "_royaltyPercentage",
          "type": "uint16"
        },
        {
          "internalType": "address",
          "name": "_primarySalesDestination",
          "type": "address"
        },
        {
          "internalType": "string",
          "name": "_dropMetadataURI",
          "type": "string"
        }
      ],
      "name": "setCollection",
      "outputs": [],
      "stateMutability": "nonpayable",
      "type": "function"
    },
    {
      "inputs": [
        {
          "internalType": "uint256",
          "name": "_collectionId",
          "type": "uint256"
        },
        {
          "internalType": "string",
          "name": "_newBaseMetadataURI",
          "type": "string"
        }
      ],
      "name": "setCollectionBaseMetadataURI",
      "outputs": [],
      "stateMutability": "nonpayable",
      "type": "function"
    },
    {
      "inputs": [
        {
          "internalType": "bytes4",
          "name": "interfaceId",
          "type": "bytes4"
        }
      ],
      "name": "supportsInterface",
      "outputs": [
        {
          "internalType": "bool",
          "name": "",
          "type": "bool"
        }
      ],
      "stateMutability": "view",
      "type": "function"
    },
    {
      "inputs": [],
      "name": "symbol",
      "outputs": [
        {
          "internalType": "string",
          "name": "",
          "type": "string"
        }
      ],
      "stateMutability": "view",
      "type": "function"
    },
    {
      "inputs": [
        {
          "internalType": "uint256",
          "name": "",
          "type": "uint256"
        }
      ],
      "name": "tokenToCollection",
      "outputs": [
        {
          "internalType": "uint256",
          "name": "",
          "type": "uint256"
        }
      ],
      "stateMutability": "view",
      "type": "function"
    },
    {
      "inputs": [
        {
          "internalType": "uint256",
          "name": "id",
          "type": "uint256"
        }
      ],
      "name": "totalSupply",
      "outputs": [
        {
          "internalType": "uint256",
          "name": "",
          "type": "uint256"
        }
      ],
      "stateMutability": "view",
      "type": "function"
    },
    {
      "inputs": [],
      "name": "unpause",
      "outputs": [],
      "stateMutability": "nonpayable",
      "type": "function"
    },
    {
      "inputs": [
        {
          "internalType": "address",
          "name": "newImplementation",
          "type": "address"
        }
      ],
      "name": "upgradeTo",
      "outputs": [],
      "stateMutability": "nonpayable",
      "type": "function"
    },
    {
      "inputs": [
        {
          "internalType": "address",
          "name": "newImplementation",
          "type": "address"
        },
        {
          "internalType": "bytes",
          "name": "data",
          "type": "bytes"
        }
      ],
      "name": "upgradeToAndCall",
      "outputs": [],
      "stateMutability": "payable",
      "type": "function"
    },
    {
      "inputs": [
        {
          "internalType": "uint256",
          "name": "_id",
          "type": "uint256"
        }
      ],
      "name": "uri",
      "outputs": [
        {
          "internalType": "string",
          "name": "",
          "type": "string"
        }
      ],
      "stateMutability": "view",
      "type": "function"
    }
  ],
  "bytecode": "0x60a08060405234610031573060805261438b908161003782396080518181816112310152818161157c01526116fa0152f35b600080fdfe60806040526004361015610013575b600080fd5b60003560e01c8062fdd58e1461033257806301ffc9a71461032957806306fdde0314610320578063077f224a146103175780630acc39c61461030e5780630e89341c14610305578063185153c3146102fc578063195f78ae146102f3578063248a9ca3146102ea578063282c51f3146102e15780632a55205a146102d85780632eb2c2d6146102cf5780632f2ff15d146102c657806336568abe146102bd5780633659cfe6146102b45780633f4ba83a146102ab5780634e1273f4146102a25780634f1ef286146102995780634f558e791461029057806350d487ea1461028757806352d1902d1461027e5780635c975abb146102755780636b20c4541461026c5780636cf3d0641461026357806375e2e4d81461025a5780638456cb59146102515780638b831e231461024857806391d148541461023f57806395d89b4114610236578063a217fddf1461022d578063a22cb46514610224578063bd85b0391461021b578063d4e4d3dd14610212578063d539139314610209578063d547741f14610200578063e985e9c5146101f7578063f0c8eb83146101ee578063f242432a146101e5578063f5298aca146101dc5763fdbda0ec146101d457600080fd5b61000e6124ac565b5061000e61244f565b5061000e612217565b5061000e612071565b5061000e61201f565b5061000e611fde565b5061000e611fa2565b5061000e611f23565b5061000e611ef6565b5061000e611e05565b5061000e611de8565b5061000e611d3d565b5061000e611ce9565b5061000e611ca0565b5061000e611be0565b5061000e611a9d565b5061000e611943565b5061000e6117d1565b5061000e6117ac565b5061000e6116e6565b5061000e61164f565b5061000e6115ee565b5061000e611536565b5061000e61147c565b5061000e61137f565b5061000e61120c565b5061000e611179565b5061000e6110a7565b5061000e610e7a565b5061000e610d6a565b5061000e610d2e565b5061000e610cfd565b5061000e610ccf565b5061000e610c94565b5061000e610b59565b5061000e610a17565b5061000e610816565b5061000e6106a7565b5061000e6103ff565b5061000e6103bd565b600435906001600160a01b038216820361000e57565b604435906001600160a01b038216820361000e57565b602435906001600160a01b038216820361000e57565b608435906001600160a01b038216820361000e57565b606435906001600160a01b038216820361000e57565b35906001600160a01b038216820361000e57565b503461000e57604036600319011261000e5760206103e56103dc61033b565b60243590612ce1565b604051908152f35b6001600160e01b031981160361000e57565b503461000e57602036600319011261000e57610462600435610420816103ed565b63ffffffff60e01b16636cdb3d1360e11b8114908190821590816104d1575b83156104c0575b8315610466575b50506040519115158252509081906020820190565b0390f35b637965db0b60e01b8114935090918315610486575b50505038808061044d565b9250906104af575b811561049e575b5038808061047b565b6301ffc9a760e01b14905038610495565b6303a24d0760e21b8114915061048e565b637965db0b60e01b81149350610446565b63152a902d60e11b8114935061043f565b90600182811c92168015610512575b60208310146104fc57565b634e487b7160e01b600052602260045260246000fd5b91607f16916104f1565b50634e487b7160e01b600052604160045260246000fd5b602081019081106001600160401b0382111761054e57604052565b61055661051c565b604052565b604081019081106001600160401b0382111761054e57604052565b90601f801991011681019081106001600160401b0382111761054e57604052565b90604051918260008254926105ab846104e2565b90818452600194858116908160001461061a57506001146105d7575b50506105d592500383610576565b565b9093915060005260209081600020936000915b8183106106025750506105d5935082010138806105c7565b855488840185015294850194879450918301916105ea565b9550505050505060ff191660208301526105d5826040810138806105c7565b918091926000905b828210610659575011610652575050565b6000910152565b91508060209183015181860152018291610641565b9060209161068781518092818552858086019101610639565b601f01601f1916010190565b9060206106a492818152019061066e565b90565b503461000e57600080600319360112610783576040519080610191908154906106cf826104e2565b8086529260019280841690811561075f5750600114610705575b610462866106f981880382610576565b60405191829182610693565b815292507ffb4a0ff48df6de8777afc824e4cbf267beb8602db7c5a7456c954593226c1fd55b8284106107475750505081016020016106f982610462386106e9565b8054602085870181019190915290930192810161072b565b60ff1916602088015250506040850193506106f992508491506104629050386106e9565b80fd5b60405190608082018281106001600160401b0382111761054e57604052565b6020906001600160401b0381116107c2575b601f01601f19160190565b6107ca61051c565b6107b7565b81601f8201121561000e578035906107e6826107a5565b926107f46040519485610576565b8284526020838301011161000e57816000926020809301838601378301015290565b503461000e57606036600319011261000e576001600160401b0360043581811161000e576108489036906004016107cf565b9060243581811161000e576108619036906004016107cf565b610869610351565b916108b6610875613b6f565b9384610a03575b610884613afb565b61089e60ff60005460081c1661089981613a9b565b613a9b565b61015f805460ff191690556108b1613afb565b612679565b83519081116109f6575b610191906108d7816108d284546104e2565b6137b2565b602080601f83116001146109645750819061090e9596600092610959575b50508160011b916000199060031b1c19161790556138ea565b610915575b005b61092561ff001960005416600055565b604051600181527f7f26b83ff96e1f2b6a682f133852f6798a09c465da95921460cefb38474024989080602081015b0390a1005b0151905038806108f5565b90601f198316966109986101916000527ffb4a0ff48df6de8777afc824e4cbf267beb8602db7c5a7456c954593226c1fd590565b926000905b8982106109de5750509083929160019461090e9899106109c5575b505050811b0190556138ea565b015160001960f88460031b161c191690553880806109b8565b8060018596829496860151815501950193019061099d565b6109fe61051c565b6108c0565b61010061ff0019600054161760005561087c565b503461000e5760a036600319011261000e57610a3161033b565b6024359060443563ffffffff811680910361000e57606435926084356001600160401b03811161000e57610a699036906004016107cf565b92610a7a60ff61015f541615613e26565b3360009081527fad02ca31225c1e77b97240fae26f6efe4c4dfc9dbe77f7a176ac7a45a4e1b805602052604090205460ff1615610b14576109139482610acb81600052610193602052604060002090565b5415610ad9575b5050613eaf565b610b0882610b0d93610af684600052610193602052604060002090565b55600052610195602052604060002090565b613e65565b3882610ad2565b60405162461bcd60e51b815260206004820152601a60248201527f4e46543a204e6f206d696e74696e672070726976696c656765730000000000006044820152606490fd5b503461000e5760208060031936011261000e57600435610b868160005260fb602052604060002054151590565b15610c5b5760008181526101938352604081205481526101948352610bb1600260408320019261423d565b60405192828154610bc1816104e2565b92600191808316908115610c3c5750600114610c01575b610462876106f9818b8a610bf28b82815194859201610639565b0103601f198101835282610576565b90918093949550528582205b838310610c295750505082018301908381610bf26106f9610bd8565b8054868401880152918601918101610c0d565b60ff191689890152505050508301840191508381610bf26106f9610bd8565b60405162461bcd60e51b81526004810183905260116024820152702727a722ac24a9aa22a72a2faa27a5a2a760791b6044820152606490fd5b503461000e57602036600319011261000e57600435600052610194602052602060018060a01b03600160406000200154161515604051908152f35b503461000e57602036600319011261000e576004356000526101936020526020604060002054604051908152f35b503461000e57602036600319011261000e5760043560005261012d6020526020600160406000200154604051908152f35b503461000e57600036600319011261000e5760206040517f3c11d16cbaffd01df69ce1c404f6340ee057498f5f00246190ea54220576a8488152f35b503461000e57604036600319011261000e576024356004356000526101936020526040600020546000526101946020526040600020549061046261ffff8316928260001904841183151516610de9575b6040805160109290921c6001600160a01b03168252612710939094029290920460208301529091829190820190565b610df1612da7565b610dba565b6020906001600160401b038111610e0f575b60051b0190565b610e1761051c565b610e08565b81601f8201121561000e57803591610e3383610df6565b92610e416040519485610576565b808452602092838086019260051b82010192831161000e578301905b828210610e6b575050505090565b81358152908301908301610e5d565b503461000e5760a036600319011261000e57610e9461033b565b610e9c610367565b906001600160401b039060443582811161000e57610ebe903690600401610e1c565b9160643581811161000e57610ed7903690600401610e1c565b9060843590811161000e57610ef09036906004016107cf565b6001600160a01b038381169491903386148015611084575b1561102457610f1a8351855114612fe3565b8616610f27811515612f1e565b610f338484898861357f565b60005b8351811015610fe05780610f4d610fdb9286612dd6565b51610fd4610fcc8b610f81610f62868c612dd6565b51948c610fbb87610f9883610f818660005260c9602052604060002090565b9060018060a01b0316600052602052604060002090565b54610fa582821015612f78565b0391610f818460005260c9602052604060002090565b5560005260c9602052604060002090565b918254612fd7565b9055612dbe565b610f36565b5093869194610913966040517f4a39dc06d4c0dbc64b70af90fd698a233a518aa5d07e595d983b8c0526c8f7fb33918061101b8a8a83613040565b0390a43361343b565b60405162461bcd60e51b815260206004820152603260248201527f455243313135353a207472616e736665722063616c6c6572206973206e6f74206044820152711bdddb995c881b9bdc88185c1c1c9bdd995960721b6064820152608490fd5b50600086815260ca6020908152604080832033845290915290205460ff16610f08565b503461000e5760408060031936011261000e57600435906110c6610367565b60009280845261012d806020526110e26001858720015461251c565b81855260208181528486206001600160a01b03851660009081529152604090205460ff1615611112575b50505051f35b81855260209081528385206001600160a01b0384166000908152915260409020805460ff19166001179055825133926001600160a01b031691907f2f8788117e7eff1d82e926ec794901d17c78024a50270940304540a733656f0d908690a438808061110c565b503461000e57604036600319011261000e57611193610367565b336001600160a01b038216036111af5761091390600435612712565b60405162461bcd60e51b815260206004820152602f60248201527f416363657373436f6e74726f6c3a2063616e206f6e6c792072656e6f756e636560448201526e103937b632b9903337b91039b2b63360891b6064820152608490fd5b503461000e57602036600319011261000e5761122661033b565b6001600160a01b03907f000000000000000000000000000000000000000000000000000000000000000082169061125f308314156127a2565b61127c600080516020614316833981519152928484541614612803565b336000908152600080516020614336833981519152602052604081209093906112aa9060ff905b5416613fc7565b604051906112b782610533565b8482527f4910fdfa16fed3260ed0e7147f7cc6da11a60208b5b9406d12a635614ffd91435460ff16156112f55750506112f09150612a30565b604051f35b6020600491604094939451928380926352d1902d60e01b825286165afa85918161134f575b5061133c5760405162461bcd60e51b8152806113386004820161291e565b0390fd5b6112f09361134a91146128c0565b612ac0565b61137191925060203d8111611378575b6113698183610576565b8101906128b1565b903861131a565b503d61135f565b503461000e576000806003193601126107835780805261012d60209081526040808320336000908152925290206113b89060ff906112a3565b61015f805460ff8116156113fb5760ff191690557f5db9ee0a495bf2e6ff9c91a7834c1ba4fdd244a5e8aa4e537bd38aeae4b073aa6020604051338152a1604051f35b60405162461bcd60e51b815260206004820152601460248201527314185d5cd8589b194e881b9bdd081c185d5cd95960621b6044820152606490fd5b90815180825260208080930193019160005b828110611457575050505090565b835185529381019392810192600101611449565b9060206106a4928181520190611437565b503461000e57604036600319011261000e576004356001600160401b0380821161000e573660238301121561000e5781600401356114b981610df6565b926114c76040519485610576565b81845260209160248386019160051b8301019136831161000e57602401905b82821061151f578560243586811161000e576104629161150d611513923690600401610e1c565b90612df8565b6040519182918261146b565b83809161152b846103a9565b8152019101906114e6565b50604036600319011261000e5761154b61033b565b602435906001600160401b03821161000e5761156e6109139236906004016107cf565b906115c16001600160a01b037f00000000000000000000000000000000000000000000000000000000000000008116906115aa308314156127a2565b600080516020614316833981519152541614612803565b336000908152600080516020614336833981519152602052604090206115e99060ff906112a3565b61296d565b503461000e57602036600319011261000e57602061161b60043560005260fb602052604060002054151590565b6040519015158152f35b606090600319011261000e576004356001600160a01b038116810361000e57906024359060443590565b503461000e5761165e36611625565b3360009081527f2f0a9cc3579d9a1b82746fec99ed9e27b3c9d44e220d80b4b64711a402f0c075602052604090205490919060ff16156116a157610913926140b6565b60405162461bcd60e51b815260206004820152601760248201527f4e46543a204e6f206275726e2070726976696c656765730000000000000000006044820152606490fd5b503461000e57600036600319011261000e577f00000000000000000000000000000000000000000000000000000000000000006001600160a01b03163003611741576040516000805160206143168339815191528152602090f35b60405162461bcd60e51b815260206004820152603860248201527f555550535570677261646561626c653a206d757374206e6f742062652063616c60448201527f6c6564207468726f7567682064656c656761746563616c6c00000000000000006064820152608490fd5b503461000e57600036600319011261000e57602060ff61015f54166040519015158152f35b503461000e57606036600319011261000e576117eb61033b565b6001600160401b039060243582811161000e5761180c903690600401610e1c565b9160443590811161000e57611825903690600401610e1c565b6001600160a01b038216913383148015611920575b61184390612ec0565b61184e831515614006565b61185b8451835114612fe3565b611863612864565b5061186f828583613503565b60005b84518110156118de57806118896118d99287612dd6565b516118d384610f8161189b8589612dd6565b516118b483610f818760005260c9602052604060002090565b546118c18282101561405e565b039360005260c9602052604060002090565b55612dbe565b611872565b600084867f4a39dc06d4c0dbc64b70af90fd698a233a518aa5d07e595d983b8c0526c8f7fb61191587604051918291339583613040565b0390a4610913612864565b50600083815260ca6020908152604080832033845290915290205460ff1661183a565b503461000e57604036600319011261000e576001600160401b0360243581811161000e576119759036906004016107cf565b336000908152600080516020614336833981519152602090815260408220929391929091906119a69060ff906112a3565b6004358352610194825260026040842001918451918211611a7f575b6119d6826119d085546104e2565b85613896565b80601f8311600114611a125750839482939492611a07575b50508160011b916000199060031b1c1916179055604051f35b0151905038806119ee565b90601f19831695611a2885600052602060002090565b9286905b888210611a6757505083600195969710611a4e575b505050811b019055604051f35b015160001960f88460031b161c19169055388080611a41565b80600185968294968601518155019501930190611a2c565b611a8761051c565b6119c2565b6044359061ffff8216820361000e57565b503461000e5760a036600319011261000e57600435611aba610367565b611ac2611a8c565b916064356001600160401b03811161000e577fde5923b1877e4f4b0347dfd42a5f7e104c6e5d91823cd853760bce2852f5ccbd93611b076109549236906004016107cf565b90611bd4611b1361037d565b3360009081526000805160206143368339815191526020526040902054611b3c9060ff16613bb6565b611b8260018060a01b03611b7981611b72611b628b600052610194602052604060002090565b5460101c6001600160a01b031690565b1615613c28565b88161515613c74565b611bb4611b8d610786565b61ffff85168152916001600160a01b03891660208401526001600160a01b03166040830152565b836060820152611bcf86600052610194602052604060002090565b613ccf565b60405194859485613df3565b503461000e576000806003193601126107835780805261012d6020908152604080832033600090815292529020611c199060ff906112a3565b61015f60018154611c2d60ff821615613e26565b60ff19161790557f62e78cea01bee320cd4e420270b5ea74000d11b0c9f74754ebdbfc544b05a2586020604051338152a1604051f35b50634e487b7160e01b600052603260045260246000fd5b8054821015611c93575b60005260206000200190600090565b611c9b611c63565b611c84565b503461000e57604036600319011261000e576024356004356000526101956020526040600020805482101561000e57602091611cdb91611c7a565b90546040519160031b1c8152f35b503461000e57604036600319011261000e57602060ff611d31611d0a610367565b60043560005261012d845260406000209060018060a01b0316600052602052604060002090565b54166040519015158152f35b503461000e5760008060031936011261078357604051908061019290815490611d65826104e2565b8086529260019280841690811561075f5750600114611d8e57610462866106f981880382610576565b815292507ffcfced99f9d921eebdc59aa6f7a664084bd564a3d2d54ebc1a5c057c99c67aba5b828410611dd05750505081016020016106f982610462386106e9565b80546020858701810191909152909301928101611db4565b503461000e57600036600319011261000e57602060405160008152f35b503461000e57604036600319011261000e57611e1f61033b565b602435801515810361000e576001600160a01b03821691338314611e9f5733600090815260ca60205260409020611e6d918391611e5c9190610f81565b9060ff801983541691151516179055565b604051901515815233907f17307eab39ab6107e8899845ad3d59bd9653f200f220920489ca2b5937696c3190602090a3005b60405162461bcd60e51b815260206004820152602960248201527f455243313135353a2073657474696e6720617070726f76616c20737461747573604482015268103337b91039b2b63360b91b6064820152608490fd5b503461000e57602036600319011261000e5760043560005260fb6020526020604060002054604051908152f35b503461000e57602036600319011261000e5760043560009081526101946020526040908190208054600182015461ffff82169360109290921c6001600160a01b0390811693911691611f9891608090611f7e90600201610597565b91805196879687526020870152850152608084019061066e565b9060608301520390f35b503461000e57600036600319011261000e5760206040517f9f2df0fed2c77648de5860a4cc508cd0818c85b8b8a1ab4ceeef8d981c8956a68152f35b503461000e57604036600319011261000e57610913600435611ffe610367565b908060005261012d60205261201a60016040600020015461251c565b612712565b503461000e57604036600319011261000e57602060ff611d3161204061033b565b612048610367565b6001600160a01b03918216600090815260ca865260408082209290931681526020919091522090565b503461000e5760a036600319011261000e5760043561208e610367565b90612097611a8c565b61209f610393565b926084356001600160401b03811161000e576120bf9036906004016107cf565b336000908152600080516020614336833981519152602052604090205490939060ff16156121c257610913946002936121bc936121ab926121859161214e906121126001600160a01b0382161515613baf565b61212787600052610194602052604060002090565b805462010000600160b01b03191660109290921b62010000600160b01b0316919091179055565b600161216586600052610194602052604060002090565b0180546001600160a01b0319166001600160a01b03909216919091179055565b61219a83600052610194602052604060002090565b9061ffff1661ffff19825416179055565b600052610194602052604060002090565b016139e5565b60405162461bcd60e51b815260206004820152602760248201527f4e46543a204f6e6c792041646d696e2063616e2073657420636f6c6c656374696044820152666f6e20696e666f60c81b6064820152608490fd5b503461000e5760a036600319011261000e5761223161033b565b612239610367565b6064356044356084356001600160401b03811161000e5761225e9036906004016107cf565b6001600160a01b038581169591949190338714801561242c575b61228190612ec0565b82168015966122908815612f1e565b61229985613475565b976122a387613475565b9082156123d0575b612354575b506109139750856122cf84610f818860005260c9602052604060002090565b546122dc82821015612f78565b036122f584610f818860005260c9602052604060002090565b5561230e84610f818760005260c9602052604060002090565b612319878254612fd7565b9055604080518681526020810188905233917fc3d58168c5ae7397731d063d5bbf3d657854427343f4c083240f7aacaa2d0f6291a433613315565b959391600097959391975b89518110156123bd57806123766123b8928c612dd6565b516118d3612384838c612dd6565b516123998360005260fb602052604060002090565b546123a6828210156134a6565b039160005260fb602052604060002090565b61235f565b50919395509193956109139750386122b0565b9896939095926000989592985b885181101561241c578089610fd4610fcc612406846123ff612417978f612dd6565b5194612dd6565b5160005260fb602052604060002090565b6123dd565b50929590939698979194976122ab565b50600087815260ca6020908152604080832033845290915290205460ff16612278565b503461000e5761091361246136611625565b916001600160a01b0381163381148015612485575b6124809150612ec0565b6140b6565b50600090815260ca602090815260408083203384529091529020546124809060ff16612476565b503461000e57602036600319011261000e576004356000526101946020526040600020805461046260018060a01b03926124ef6002856001840154169201610597565b90604051948461ffff879616865260101c166020850152604084015260806060840152608083019061066e565b600081815261012d6020908152604080832033845290915290205460ff16156125425750565b339061254c612877565b9160306125588461365b565b53607861256484613671565b5360295b60018111612613576113386125d06125fb866125ed6125908861258b89156136bc565b613707565b6125ca6040519586946125ca602087016017907f416363657373436f6e74726f6c3a206163636f756e742000000000000000000081520190565b90612662565b7001034b99036b4b9b9b4b733903937b6329607d1b815260110190565b03601f198101835282610576565b60405162461bcd60e51b815291829160048301610693565b9080600f61265092166010811015612655575b6f181899199a1a9b1b9c1cb0b131b232b360811b901a6126468487613682565b5360041c916136a1565b612568565b61265d611c63565b612626565b9061267560209282815194859201610639565b0190565b6001600160a01b0381166000908152600080516020614336833981519152602052604081205461012d9060ff16156126b057505050565b818052602090815260408083206001600160a01b038516600090815292529020805460ff1916600117905560405133926001600160a01b031691907f2f8788117e7eff1d82e926ec794901d17c78024a50270940304540a733656f0d908290a4565b600081815261012d602081815260408084206001600160a01b03871685529091529091205460ff1661274357505050565b6000828152602091825260408082206001600160a01b038616835290925220805460ff1916905560405133926001600160a01b031691907ff6391f5c32d9c69d2a47ea670b442974b53935d1edc7fd64eb21e047a839171b90600090a4565b156127a957565b60405162461bcd60e51b815260206004820152602c60248201527f46756e6374696f6e206d7573742062652063616c6c6564207468726f7567682060448201526b19195b1959d85d1958d85b1b60a21b6064820152608490fd5b1561280a57565b60405162461bcd60e51b815260206004820152602c60248201527f46756e6374696f6e206d7573742062652063616c6c6564207468726f7567682060448201526b6163746976652070726f787960a01b6064820152608490fd5b6040519061287182610533565b60008252565b60405190606082018281106001600160401b038211176128a4575b604052602a8252604082602036910137565b6128ac61051c565b612892565b9081602091031261000e575190565b156128c757565b60405162461bcd60e51b815260206004820152602960248201527f45524331393637557067726164653a20756e737570706f727465642070726f786044820152681a58589b195555525160ba1b6064820152608490fd5b60809060208152602e60208201527f45524331393637557067726164653a206e657720696d706c656d656e7461746960408201526d6f6e206973206e6f74205555505360901b60608201520190565b906129997f4910fdfa16fed3260ed0e7147f7cc6da11a60208b5b9406d12a635614ffd91435460ff1690565b156129a857506105d590612a30565b6040516352d1902d60e01b8152916020836004816001600160a01b0385165afa60009381612a10575b506129ef5760405162461bcd60e51b8152806113386004820161291e565b612a0b6000805160206143168339815191526105d594146128c0565b612bd0565b612a2991945060203d8111611378576113698183610576565b92386129d1565b803b15612a655760008051602061431683398151915280546001600160a01b0319166001600160a01b03909216919091179055565b60405162461bcd60e51b815260206004820152602d60248201527f455243313936373a206e657720696d706c656d656e746174696f6e206973206e60448201526c1bdd08184818dbdb9d1c9858dd609a1b6064820152608490fd5b90612aca82612a30565b604051600092906001600160a01b0382167fbc7cd75a20ee27fd9adebab32041f755214dbc6bffa90cc0225b39da2e5c2d3b8583a2825115801590612bc9575b612b15575b50505050565b813b15612b785750918082612b669460208395519201905af4903d15612b70573d612b3f816107a5565b90612b4d6040519283610576565b8152809160203d92013e5b612b60612c7a565b916135f9565b5038808080612b0f565b506060612b58565b62461bcd60e51b815260206004820152602660248201527f416464726573733a2064656c65676174652063616c6c20746f206e6f6e2d636f6044820152651b9d1c9858dd60d21b6064820152608490fd5b5083612b0a565b612bd981612a30565b6040516001600160a01b0382167fbc7cd75a20ee27fd9adebab32041f755214dbc6bffa90cc0225b39da2e5c2d3b600083a2825115801590612c72575b612c1f57505050565b813b15612b78575060008281926020612c6895519201905af43d15612c6b573d612c48816107a5565b90612c566040519283610576565b81523d6000602083013e612b60612c7a565b50565b6060612b58565b506001612c16565b60405190606082018281106001600160401b03821117612cd4575b60405260278252660819985a5b195960ca1b6040837f416464726573733a206c6f772d6c6576656c2064656c65676174652063616c6c60208201520152565b612cdc61051c565b612c95565b6001600160a01b03811615612d1c57612d189160005260c960205260406000209060018060a01b0316600052602052604060002090565b5490565b60405162461bcd60e51b815260206004820152602b60248201527f455243313135353a2062616c616e636520717565727920666f7220746865207a60448201526a65726f206164647265737360a81b6064820152608490fd5b90612d7f82610df6565b612d8c6040519182610576565b8281528092612d9d601f1991610df6565b0190602036910137565b50634e487b7160e01b600052601160045260246000fd5b6001906000198114612dce570190565b612675612da7565b6020918151811015612deb575b60051b010190565b612df3611c63565b612de3565b9190918051835103612e6957612e0e8151612d75565b9060005b8151811015612e625780612e4d612e3c612e2f612e5d9486612dd6565b516001600160a01b031690565b612e468389612dd6565b5190612ce1565b612e578286612dd6565b52612dbe565b612e12565b5090925050565b60405162461bcd60e51b815260206004820152602960248201527f455243313135353a206163636f756e747320616e6420696473206c656e677468604482015268040dad2e6dac2e8c6d60bb1b6064820152608490fd5b15612ec757565b60405162461bcd60e51b815260206004820152602960248201527f455243313135353a2063616c6c6572206973206e6f74206f776e6572206e6f7260448201526808185c1c1c9bdd995960ba1b6064820152608490fd5b15612f2557565b60405162461bcd60e51b815260206004820152602560248201527f455243313135353a207472616e7366657220746f20746865207a65726f206164604482015264647265737360d81b6064820152608490fd5b15612f7f57565b60405162461bcd60e51b815260206004820152602a60248201527f455243313135353a20696e73756666696369656e742062616c616e636520666f60448201526939103a3930b739b332b960b11b6064820152608490fd5b81198111612dce570190565b15612fea57565b60405162461bcd60e51b815260206004820152602860248201527f455243313135353a2069647320616e6420616d6f756e7473206c656e677468206044820152670dad2e6dac2e8c6d60c31b6064820152608490fd5b90916130576106a493604084526040840190611437565b916020818403910152611437565b9081602091031261000e57516106a4816103ed565b909260a0926106a49594600180861b031683526000602084015260408301526060820152816080820152019061066e565b91926106a495949160a094600180871b03809216855216602084015260408301526060820152816080820152019061066e565b60809060208152602860208201527f455243313135353a204552433131353552656365697665722072656a656374656040820152676420746f6b656e7360c01b60608201520190565b60009060033d1161313457565b905060046000803e60005160e01c90565b600060443d106106a457604051600319913d83016004833e81516001600160401b03918282113d6024840111176131a2578184019485519384116131aa573d850101602084870101116131a257506106a492910160200190610576565b949350505050565b50949350505050565b9390803b6131c3575b5050505050565b6131eb9360006020946040519687958694859363f23a6e6160e01b9b8c86526004860161307a565b03926001600160a01b03165af1600091816132e5575b506132bd5750506001613212613127565b6308c379a01461328e575b61322c575b38808080806131bc565b60405162461bcd60e51b815260206004820152603460248201527f455243313135353a207472616e7366657220746f206e6f6e20455243313135356044820152732932b1b2b4bb32b91034b6b83632b6b2b73a32b960611b6064820152608490fd5b613296613145565b806132a1575061321d565b60405162461bcd60e51b81529081906113389060048301610693565b6001600160e01b031916146132225760405162461bcd60e51b815280611338600482016130de565b61330791925060203d811161330e575b6132ff8183610576565b810190613065565b9038613201565b503d6132f5565b9493919092813b613329575b505050505050565b60006020946133506040519788968795869463f23a6e6160e01b9c8d8752600487016130ab565b03926001600160a01b03165af1600091816133cd575b506133a55750506001613377613127565b6308c379a014613392575b61322c575b388080808080613321565b61339a613145565b806132a15750613382565b6001600160e01b031916146133875760405162461bcd60e51b815280611338600482016130de565b6133e691925060203d811161330e576132ff8183610576565b9038613366565b93906106a4959361341f9161342d9460018060a01b03809216885216602087015260a0604087015260a0860190611437565b908482036060860152611437565b91608081840391015261066e565b9493919092813b61344e57505050505050565b60006020946133506040519788968795869463bc197c8160e01b9c8d8752600487016133ed565b604051906134828261055b565b6001825260208201602036823782511561349a575290565b6134a2611c63565b5290565b156134ad57565b60405162461bcd60e51b815260206004820152602860248201527f455243313135353a206275726e20616d6f756e74206578636565647320746f74604482015267616c537570706c7960c01b6064820152608490fd5b909291906001600160a01b031615613549575b60005b8351811015613543578061353061353e9286612dd6565b516118d36123848386612dd6565b613519565b50509050565b60005b835181101561357957806135636135749284612dd6565b51610fd4610fcc6124068489612dd6565b61354c565b50613516565b919392916001600160a01b0391908216156135bf575b16156135a057509050565b60005b835181101561354357806135306135ba9286612dd6565b6135a3565b929060005b85518110156135f157806135db6135ec9286612dd6565b51610fd4610fcc612406848b612dd6565b6135c4565b509092613595565b90919015613605575090565b8151156136155750805190602001fd5b60405162461bcd60e51b81526020600482015290819061133890602483019061066e565b600a90806000190482118115151661364f570290565b613657612da7565b0290565b602090805115613669570190565b612675611c63565b602190805160011015613669570190565b90602091805182101561369457010190565b61369c611c63565b010190565b80156136af575b6000190190565b6136b7612da7565b6136a8565b156136c357565b606460405162461bcd60e51b815260206004820152602060248201527f537472696e67733a20686578206c656e67746820696e73756666696369656e746044820152fd5b60405190608082018281106001600160401b038211176137a5575b604052604282526060366020840137603061373c8361365b565b53607861374883613671565b536041905b60018211613760576106a49150156136bc565b80600f61379292166010811015613798575b6f181899199a1a9b1b9c1cb0b131b232b360811b901a6126468486613682565b9061374d565b6137a0611c63565b613772565b6137ad61051c565b613722565b601f81116137be575050565b60009061019182527ffb4a0ff48df6de8777afc824e4cbf267beb8602db7c5a7456c954593226c1fd5906020601f850160051c8301941061381a575b601f0160051c01915b82811061380f57505050565b818155600101613803565b90925082906137fa565b601f8111613830575050565b60009061019282527ffcfced99f9d921eebdc59aa6f7a664084bd564a3d2d54ebc1a5c057c99c67aba906020601f850160051c8301941061388c575b601f0160051c01915b82811061388157505050565b818155600101613875565b909250829061386c565b90601f81116138a457505050565b600091825260208220906020601f850160051c830194106138e0575b601f0160051c01915b8281106138d557505050565b8181556001016138c9565b90925082906138c0565b9081516001600160401b0381116139d8575b610192906139138161390e84546104e2565b613824565b602080601f831160011461394f575081929394600092613944575b50508160011b916000199060031b1c1916179055565b01519050388061392e565b90601f198316956139836101926000527ffcfced99f9d921eebdc59aa6f7a664084bd564a3d2d54ebc1a5c057c99c67aba90565b926000905b8882106139c0575050836001959697106139a7575b505050811b019055565b015160001960f88460031b161c1916905538808061399d565b80600185968294968601518155019501930190613988565b6139e061051c565b6138fc565b91909182516001600160401b038111613a8e575b613a0d81613a0784546104e2565b84613896565b602080601f8311600114613a3d5750819293946000926139445750508160011b916000199060031b1c1916179055565b90601f19831695613a5385600052602060002090565b926000905b888210613a76575050836001959697106139a757505050811b019055565b80600185968294968601518155019501930190613a58565b613a9661051c565b6139f9565b15613aa257565b60405162461bcd60e51b815260206004820152602b60248201527f496e697469616c697a61626c653a20636f6e7472616374206973206e6f74206960448201526a6e697469616c697a696e6760a81b6064820152608490fd5b6105d560ff60005460081c16613a9b565b15613b1357565b60405162461bcd60e51b815260206004820152602e60248201527f496e697469616c697a61626c653a20636f6e747261637420697320616c72656160448201526d191e481a5b9a5d1a585b1a5e995960921b6064820152608490fd5b60005460ff8160081c16600014613b915750613b8c303b15613b0c565b600090565b80613ba2600160ff81941610613b0c565b60ff191617600055600190565b1561000e57565b15613bbd57565b60405162461bcd60e51b815260206004820152603860248201527f455243313135352e637265617465436f6c6c656374696f6e206f6e6c7920416460448201527f6d696e206f72204d696e7465722063616e2063726561746500000000000000006064820152608490fd5b15613c2f57565b60405162461bcd60e51b815260206004820152601960248201527f436f6c6c656374696f6e20616c726561647920657869737473000000000000006044820152606490fd5b15613c7b57565b60405162461bcd60e51b815260206004820152602660248201527f526f79616c74792064657374696e6174696f6e20616464726573732063616e2760448201526507420626520360d41b6064820152608490fd5b8151815460208085015162010000600160b01b0360109190911b166001600160b01b031990921661ffff909316929092171782556040830151600180840180546001600160a01b0319166001600160a01b03939093169290921790915591606090600201930151908151916001600160401b038311613de6575b613d5d83613d5787546104e2565b87613896565b81601f8411600114613d965750928293918392600094613d8b575b50501b916000199060031b1c1916179055565b015192503880613d78565b919083601f198116613dad88600052602060002090565b946000905b88838310613dcc57505050106139a757505050811b019055565b858701518855909601959485019487935090810190613db2565b613dee61051c565b613d49565b9081526001600160a01b03909116602082015261ffff90911660408201526080606082018190526106a49291019061066e565b15613e2d57565b60405162461bcd60e51b815260206004820152601060248201526f14185d5cd8589b194e881c185d5cd95960821b6044820152606490fd5b8054613e889168010000000000000000821015613ea2575b600182018155611c7a565b819291549060031b600019811b9283911b16911916179055565b613eaa61051c565b613e7d565b936001600160a01b0385169391929091908415613f7857613ecf84613475565b93613ed982613475565b9660005b8651811015613f0a5780613ef4613f05928b612dd6565b51610fd4610fcc612406848c612dd6565b613edd565b50919396509193506105d594613f2e82610f818560005260c9602052604060002090565b613f39858254612fd7565b9055604080518481526020810186905260009133917fc3d58168c5ae7397731d063d5bbf3d657854427343f4c083240f7aacaa2d0f629190a4336131b3565b60405162461bcd60e51b815260206004820152602160248201527f455243313135353a206d696e7420746f20746865207a65726f206164647265736044820152607360f81b6064820152608490fd5b15613fce57565b60405162461bcd60e51b815260206004820152601060248201526f41646d696e2063616c6c73206f6e6c7960801b6044820152606490fd5b1561400d57565b60405162461bcd60e51b815260206004820152602360248201527f455243313135353a206275726e2066726f6d20746865207a65726f206164647260448201526265737360e81b6064820152608490fd5b1561406557565b60405162461bcd60e51b8152602060048201526024808201527f455243313135353a206275726e20616d6f756e7420657863656564732062616c604482015263616e636560e01b6064820152608490fd5b91926001600160a01b0383168015926140cf8415614006565b6140d881613475565b956140e281613475565b9460006040516140f181610533565b526141b7575b60005b8751811015614124578061411161411f928a612dd6565b516118d3612384838a612dd6565b6140fa565b506141ac919396507fc3d58168c5ae7397731d063d5bbf3d657854427343f4c083240f7aacaa2d0f629294506000956141928261416f83610f818960005260c9602052604060002090565b5461417c8282101561405e565b0391610f818760005260c9602052604060002090565b556040805194855260208501919091523393918291820190565b0390a4612c68612864565b9492919060005b87518110156141eb57806141d56141e69288612dd6565b51610fd4610fcc612406848d612dd6565b6141be565b50909192946140f7565b600181106136af576000190190565b81811061420f570390565b614217612da7565b0390565b60ff168060ff03603011614230575b60300190565b614238612da7565b61422a565b80156142f7578060008281935b6142e3575081614259846107a5565b936142676040519586610576565b808552601f19614276826107a5565b01366020870137905b6142895750505090565b614292906141f5565b91826142db6142d26142c26142bd6142b7600a8704966142b188613639565b90614204565b60ff1690565b61421b565b60f81b6001600160f81b03191690565b841a9186613682565b53918261427f565b926142ef600a91612dbe565b93048061424a565b506040516143048161055b565b60018152600360fc1b60208201529056fe360894a13ba1a3210667c828492db98dca3e2076cc3735a920a3ca505d382bbca581b17bfc4d6578e300cafbf34fd2dc1fef0270d8c73f88a99dcde2859a6639a264697066735822122063c224570c0b49e713a7c19f78e00862f4460f9854f4bfe64c69cb45420a62ce64736f6c634300080e0033",
  "linkReferences": {},
  "deployedLinkReferences": {}
}