{
  "_format": "hh-sol-artifact-1",
  "contractName": "SageNFT",
  "sourceName": "contracts/NFT/SageNFT.sol",
  "abi": [
    {
      "inputs": [
        {
          "internalType": "string",
          "name": "_name",
          "type": "string"
        },
        {
          "internalType": "string",
          "name": "_symbol",
          "type": "string"
        },
        {
          "internalType": "address",
          "name": "_sageStorage",
          "type": "address"
        }
      ],
      "stateMutability": "nonpayable",
      "type": "constructor"
    },
    {
      "anonymous": false,
      "inputs": [
        {
          "indexed": true,
          "internalType": "address",
          "name": "owner",
          "type": "address"
        },
        {
          "indexed": true,
          "internalType": "address",
          "name": "approved",
          "type": "address"
        },
        {
          "indexed": true,
          "internalType": "uint256",
          "name": "tokenId",
          "type": "uint256"
        }
      ],
      "name": "Approval",
      "type": "event"
    },
    {
      "anonymous": false,
      "inputs": [
        {
          "indexed": true,
          "internalType": "address",
          "name": "owner",
          "type": "address"
        },
        {
          "indexed": true,
          "internalType": "address",
          "name": "operator",
          "type": "address"
        },
        {
          "indexed": false,
          "internalType": "bool",
          "name": "approved",
          "type": "bool"
        }
      ],
      "name": "ApprovalForAll",
      "type": "event"
    },
    {
      "anonymous": false,
      "inputs": [
        {
          "indexed": true,
          "internalType": "address",
          "name": "previousOwner",
          "type": "address"
        },
        {
          "indexed": true,
          "internalType": "address",
          "name": "newOwner",
          "type": "address"
        }
      ],
      "name": "OwnershipTransferred",
      "type": "event"
    },
    {
      "anonymous": false,
      "inputs": [
        {
          "indexed": true,
          "internalType": "address",
          "name": "from",
          "type": "address"
        },
        {
          "indexed": true,
          "internalType": "address",
          "name": "to",
          "type": "address"
        },
        {
          "indexed": true,
          "internalType": "uint256",
          "name": "tokenId",
          "type": "uint256"
        }
      ],
      "name": "Transfer",
      "type": "event"
    },
    {
      "inputs": [
        {
          "internalType": "address",
          "name": "to",
          "type": "address"
        },
        {
          "internalType": "uint256",
          "name": "tokenId",
          "type": "uint256"
        }
      ],
      "name": "approve",
      "outputs": [],
      "stateMutability": "nonpayable",
      "type": "function"
    },
    {
      "inputs": [
        {
          "internalType": "address",
          "name": "to",
          "type": "address"
        },
        {
          "internalType": "uint256",
          "name": "tokenId",
          "type": "uint256"
        },
        {
          "internalType": "string",
          "name": "uri",
          "type": "string"
        }
      ],
      "name": "artistMint",
      "outputs": [],
      "stateMutability": "nonpayable",
      "type": "function"
    },
    {
      "inputs": [
        {
          "internalType": "address",
          "name": "owner",
          "type": "address"
        }
      ],
      "name": "balanceOf",
      "outputs": [
        {
          "internalType": "uint256",
          "name": "",
          "type": "uint256"
        }
      ],
      "stateMutability": "view",
      "type": "function"
    },
    {
      "inputs": [
        {
          "internalType": "uint256",
          "name": "tokenId",
          "type": "uint256"
        }
      ],
      "name": "burn",
      "outputs": [],
      "stateMutability": "nonpayable",
      "type": "function"
    },
    {
      "inputs": [
        {
          "internalType": "uint256",
          "name": "id",
          "type": "uint256"
        }
      ],
      "name": "burnFromAuthorizedAddress",
      "outputs": [],
      "stateMutability": "nonpayable",
      "type": "function"
    },
    {
      "inputs": [
        {
          "internalType": "uint256",
          "name": "tokenId",
          "type": "uint256"
        }
      ],
      "name": "getApproved",
      "outputs": [
        {
          "internalType": "address",
          "name": "",
          "type": "address"
        }
      ],
      "stateMutability": "view",
      "type": "function"
    },
    {
      "inputs": [
        {
          "internalType": "address",
          "name": "owner",
          "type": "address"
        },
        {
          "internalType": "address",
          "name": "operator",
          "type": "address"
        }
      ],
      "name": "isApprovedForAll",
      "outputs": [
        {
          "internalType": "bool",
          "name": "",
          "type": "bool"
        }
      ],
      "stateMutability": "view",
      "type": "function"
    },
    {
      "inputs": [],
      "name": "name",
      "outputs": [
        {
          "internalType": "string",
          "name": "",
          "type": "string"
        }
      ],
      "stateMutability": "view",
      "type": "function"
    },
    {
      "inputs": [],
      "name": "owner",
      "outputs": [
        {
          "internalType": "address",
          "name": "",
          "type": "address"
        }
      ],
      "stateMutability": "view",
      "type": "function"
    },
    {
      "inputs": [
        {
          "internalType": "uint256",
          "name": "tokenId",
          "type": "uint256"
        }
      ],
      "name": "ownerOf",
      "outputs": [
        {
          "internalType": "address",
          "name": "",
          "type": "address"
        }
      ],
      "stateMutability": "view",
      "type": "function"
    },
    {
      "inputs": [],
      "name": "renounceOwnership",
      "outputs": [],
      "stateMutability": "nonpayable",
      "type": "function"
    },
    {
      "inputs": [
        {
          "internalType": "uint256",
          "name": "tokenId",
          "type": "uint256"
        },
        {
          "internalType": "uint256",
          "name": "salePrice",
          "type": "uint256"
        }
      ],
      "name": "royaltyInfo",
      "outputs": [
        {
          "internalType": "address",
          "name": "",
          "type": "address"
        },
        {
          "internalType": "uint256",
          "name": "",
          "type": "uint256"
        }
      ],
      "stateMutability": "view",
      "type": "function"
    },
    {
      "inputs": [
        {
          "internalType": "address",
          "name": "to",
          "type": "address"
        },
        {
          "internalType": "uint256",
          "name": "tokenId",
          "type": "uint256"
        },
        {
          "internalType": "string",
          "name": "uri",
          "type": "string"
        }
      ],
      "name": "safeMint",
      "outputs": [],
      "stateMutability": "nonpayable",
      "type": "function"
    },
    {
      "inputs": [
        {
          "internalType": "address",
          "name": "from",
          "type": "address"
        },
        {
          "internalType": "address",
          "name": "to",
          "type": "address"
        },
        {
          "internalType": "uint256",
          "name": "tokenId",
          "type": "uint256"
        }
      ],
      "name": "safeTransferFrom",
      "outputs": [],
      "stateMutability": "nonpayable",
      "type": "function"
    },
    {
      "inputs": [
        {
          "internalType": "address",
          "name": "from",
          "type": "address"
        },
        {
          "internalType": "address",
          "name": "to",
          "type": "address"
        },
        {
          "internalType": "uint256",
          "name": "tokenId",
          "type": "uint256"
        },
        {
          "internalType": "bytes",
          "name": "_data",
          "type": "bytes"
        }
      ],
      "name": "safeTransferFrom",
      "outputs": [],
      "stateMutability": "nonpayable",
      "type": "function"
    },
    {
      "inputs": [
        {
          "internalType": "address",
          "name": "operator",
          "type": "address"
        },
        {
          "internalType": "bool",
          "name": "approved",
          "type": "bool"
        }
      ],
      "name": "setApprovalForAll",
      "outputs": [],
      "stateMutability": "nonpayable",
      "type": "function"
    },
    {
      "inputs": [
        {
          "internalType": "bytes4",
          "name": "interfaceId",
          "type": "bytes4"
        }
      ],
      "name": "supportsInterface",
      "outputs": [
        {
          "internalType": "bool",
          "name": "",
          "type": "bool"
        }
      ],
      "stateMutability": "view",
      "type": "function"
    },
    {
      "inputs": [],
      "name": "symbol",
      "outputs": [
        {
          "internalType": "string",
          "name": "",
          "type": "string"
        }
      ],
      "stateMutability": "view",
      "type": "function"
    },
    {
      "inputs": [
        {
          "internalType": "uint256",
          "name": "index",
          "type": "uint256"
        }
      ],
      "name": "tokenByIndex",
      "outputs": [
        {
          "internalType": "uint256",
          "name": "",
          "type": "uint256"
        }
      ],
      "stateMutability": "view",
      "type": "function"
    },
    {
      "inputs": [
        {
          "internalType": "address",
          "name": "owner",
          "type": "address"
        },
        {
          "internalType": "uint256",
          "name": "index",
          "type": "uint256"
        }
      ],
      "name": "tokenOfOwnerByIndex",
      "outputs": [
        {
          "internalType": "uint256",
          "name": "",
          "type": "uint256"
        }
      ],
      "stateMutability": "view",
      "type": "function"
    },
    {
      "inputs": [
        {
          "internalType": "uint256",
          "name": "tokenId",
          "type": "uint256"
        }
      ],
      "name": "tokenURI",
      "outputs": [
        {
          "internalType": "string",
          "name": "",
          "type": "string"
        }
      ],
      "stateMutability": "view",
      "type": "function"
    },
    {
      "inputs": [],
      "name": "totalSupply",
      "outputs": [
        {
          "internalType": "uint256",
          "name": "",
          "type": "uint256"
        }
      ],
      "stateMutability": "view",
      "type": "function"
    },
    {
      "inputs": [
        {
          "internalType": "address",
          "name": "from",
          "type": "address"
        },
        {
          "internalType": "address",
          "name": "to",
          "type": "address"
        },
        {
          "internalType": "uint256",
          "name": "tokenId",
          "type": "uint256"
        }
      ],
      "name": "transferFrom",
      "outputs": [],
      "stateMutability": "nonpayable",
      "type": "function"
    },
    {
      "inputs": [
        {
          "internalType": "address",
          "name": "newOwner",
          "type": "address"
        }
      ],
      "name": "transferOwnership",
      "outputs": [],
      "stateMutability": "nonpayable",
      "type": "function"
    },
    {
      "inputs": [],
      "name": "withdraw",
      "outputs": [],
      "stateMutability": "nonpayable",
      "type": "function"
    },
    {
      "inputs": [
        {
          "internalType": "address",
          "name": "erc20",
          "type": "address"
        }
      ],
      "name": "withdrawERC20",
      "outputs": [],
      "stateMutability": "nonpayable",
      "type": "function"
    },
    {
      "stateMutability": "payable",
      "type": "receive"
    }
  ],
  "bytecode": "0x60a06040523480156200001157600080fd5b5060405162002d1e38038062002d1e83398101604081905262000034916200025e565b8251839083906200004d906000906020850190620000eb565b50805162000063906001906020840190620000eb565b505050620000806200007a6200009560201b60201c565b62000099565b6001600160a01b031660805250620003279050565b3390565b600b80546001600160a01b038381166001600160a01b0319831681179093556040519116919082907f8be0079c531659141344cd1fd0a4f28419497f9722a3daafe3b4186f6b6457e090600090a35050565b828054620000f990620002eb565b90600052602060002090601f0160209004810192826200011d576000855562000168565b82601f106200013857805160ff191683800117855562000168565b8280016001018555821562000168579182015b82811115620001685782518255916020019190600101906200014b565b50620001769291506200017a565b5090565b5b808211156200017657600081556001016200017b565b634e487b7160e01b600052604160045260246000fd5b600082601f830112620001b957600080fd5b81516001600160401b0380821115620001d657620001d662000191565b604051601f8301601f19908116603f0116810190828211818310171562000201576200020162000191565b816040528381526020925086838588010111156200021e57600080fd5b600091505b8382101562000242578582018301518183018401529082019062000223565b83821115620002545760008385830101525b9695505050505050565b6000806000606084860312156200027457600080fd5b83516001600160401b03808211156200028c57600080fd5b6200029a87838801620001a7565b94506020860151915080821115620002b157600080fd5b50620002c086828701620001a7565b604086015190935090506001600160a01b0381168114620002e057600080fd5b809150509250925092565b600181811c908216806200030057607f821691505b6020821081036200032157634e487b7160e01b600052602260045260246000fd5b50919050565b6080516129bf6200035f6000396000818161084e01528181610d5f01528181610eaf01528181610f9c015261114801526129bf6000f3fe6080604052600436106101855760003560e01c80636352211e116100d1578063a82670d31161008a578063cd279c7c11610064578063cd279c7c1461047d578063e985e9c51461049d578063f2fde38b146104bd578063f4f3b200146104dd57600080fd5b8063a82670d31461041d578063b88d4fde1461043d578063c87b56dd1461045d57600080fd5b80636352211e1461037557806370a0823114610395578063715018a6146103b55780638da5cb5b146103ca57806395d89b41146103e8578063a22cb465146103fd57600080fd5b80632a55205a1161013e57806342842e0e1161011857806342842e0e146102f557806342966c68146103155780634f6ccce7146103355780635ce8ac791461035557600080fd5b80632a55205a146102815780632f745c59146102c05780633ccfd60b146102e057600080fd5b806301ffc9a71461019157806306fdde03146101c6578063081812fc146101e8578063095ea7b31461022057806318160ddd1461024257806323b872dd1461026157600080fd5b3661018c57005b600080fd5b34801561019d57600080fd5b506101b16101ac366004612333565b6104fd565b60405190151581526020015b60405180910390f35b3480156101d257600080fd5b506101db610528565b6040516101bd91906123a8565b3480156101f457600080fd5b506102086102033660046123bb565b6105ba565b6040516001600160a01b0390911681526020016101bd565b34801561022c57600080fd5b5061024061023b3660046123e9565b610647565b005b34801561024e57600080fd5b506008545b6040519081526020016101bd565b34801561026d57600080fd5b5061024061027c366004612415565b61075c565b34801561028d57600080fd5b506102a161029c366004612456565b61078e565b604080516001600160a01b0390931683526020830191909152016101bd565b3480156102cc57600080fd5b506102536102db3660046123e9565b6107b6565b3480156102ec57600080fd5b5061024061084c565b34801561030157600080fd5b50610240610310366004612415565b610a37565b34801561032157600080fd5b506102406103303660046123bb565b610a52565b34801561034157600080fd5b506102536103503660046123bb565b610acc565b34801561036157600080fd5b50610240610370366004612478565b610b5f565b34801561038157600080fd5b506102086103903660046123bb565b610bd9565b3480156103a157600080fd5b506102536103b0366004612501565b610c50565b3480156103c157600080fd5b50610240610cd7565b3480156103d657600080fd5b50600b546001600160a01b0316610208565b3480156103f457600080fd5b506101db610d0d565b34801561040957600080fd5b5061024061041836600461252c565b610d1c565b34801561042957600080fd5b506102406104383660046123bb565b610d2b565b34801561044957600080fd5b5061024061045836600461257b565b610e3e565b34801561046957600080fd5b506101db6104783660046123bb565b610e70565b34801561048957600080fd5b50610240610498366004612478565b610e7b565b3480156104a957600080fd5b506101b16104b836600461265b565b610f8e565b3480156104c957600080fd5b506102406104d8366004612501565b6110ae565b3480156104e957600080fd5b506102406104f8366004612501565b611146565b60006001600160e01b0319821663152a902d60e11b14806105225750610522826113e9565b92915050565b60606000805461053790612689565b80601f016020809104026020016040519081016040528092919081815260200182805461056390612689565b80156105b05780601f10610585576101008083540402835291602001916105b0565b820191906000526020600020905b81548152906001019060200180831161059357829003601f168201915b5050505050905090565b60006105c58261140e565b61062b5760405162461bcd60e51b815260206004820152602c60248201527f4552433732313a20617070726f76656420717565727920666f72206e6f6e657860448201526b34b9ba32b73a103a37b5b2b760a11b60648201526084015b60405180910390fd5b506000908152600460205260409020546001600160a01b031690565b600061065282610bd9565b9050806001600160a01b0316836001600160a01b0316036106bf5760405162461bcd60e51b815260206004820152602160248201527f4552433732313a20617070726f76616c20746f2063757272656e74206f776e656044820152603960f91b6064820152608401610622565b336001600160a01b03821614806106db57506106db8133610f8e565b61074d5760405162461bcd60e51b815260206004820152603860248201527f4552433732313a20617070726f76652063616c6c6572206973206e6f74206f7760448201527f6e6572206e6f7220617070726f76656420666f7220616c6c00000000000000006064820152608401610622565b610757838361142b565b505050565b610767335b82611499565b6107835760405162461bcd60e51b8152600401610622906126c3565b610757838383611563565b600080306127106107a16103e88661272a565b6107ab919061275f565b915091509250929050565b60006107c183610c50565b82106108235760405162461bcd60e51b815260206004820152602b60248201527f455243373231456e756d657261626c653a206f776e657220696e646578206f7560448201526a74206f6620626f756e647360a81b6064820152608401610622565b506001600160a01b03919091166000908152600660209081526040808320938352929052205490565b7f00000000000000000000000000000000000000000000000000000000000000006001600160a01b0316637ae1cfca3360405160200161088c9190612773565b604051602081830303815290604052805190602001206040518263ffffffff1660e01b81526004016108c091815260200190565b602060405180830381865afa1580156108dd573d6000803e3d6000fd5b505050506040513d601f19601f82011682018060405250810190610901919061279e565b6109405760405162461bcd60e51b815260206004820152601060248201526f41646d696e2063616c6c73206f6e6c7960801b6044820152606401610622565b600061094b30610c50565b9050600061271061095e83611f4061272a565b610968919061275f565b9050600061097e600b546001600160a01b031690565b6001600160a01b03168260405160006040518083038185875af1925050503d80600081146109c8576040519150601f19603f3d011682016040523d82523d6000602084013e6109cd565b606091505b50509050806109db57600080fd5b336109e683856127bb565b604051600081818185875af1925050503d8060008114610a22576040519150601f19603f3d011682016040523d82523d6000602084013e610a27565b606091505b5050809150508061075757600080fd5b61075783838360405180602001604052806000815250610e3e565b610a5b33610761565b610ac05760405162461bcd60e51b815260206004820152603060248201527f4552433732314275726e61626c653a2063616c6c6572206973206e6f74206f7760448201526f1b995c881b9bdc88185c1c1c9bdd995960821b6064820152608401610622565b610ac98161170a565b50565b6000610ad760085490565b8210610b3a5760405162461bcd60e51b815260206004820152602c60248201527f455243373231456e756d657261626c653a20676c6f62616c20696e646578206f60448201526b7574206f6620626f756e647360a01b6064820152608401610622565b60088281548110610b4d57610b4d6127d2565b90600052602060002001549050919050565b600b546001600160a01b03163314610b895760405162461bcd60e51b8152600401610622906127e8565b610b938484611713565b610bd38383838080601f01602080910402602001604051908101604052809392919081815260200183838082843760009201919091525061172d92505050565b50505050565b6000818152600260205260408120546001600160a01b0316806105225760405162461bcd60e51b815260206004820152602960248201527f4552433732313a206f776e657220717565727920666f72206e6f6e657869737460448201526832b73a103a37b5b2b760b91b6064820152608401610622565b60006001600160a01b038216610cbb5760405162461bcd60e51b815260206004820152602a60248201527f4552433732313a2062616c616e636520717565727920666f7220746865207a65604482015269726f206164647265737360b01b6064820152608401610622565b506001600160a01b031660009081526003602052604090205490565b600b546001600160a01b03163314610d015760405162461bcd60e51b8152600401610622906127e8565b610d0b60006117b8565b565b60606001805461053790612689565b610d2733838361180a565b5050565b6040516a3937b63297313ab93732b960a91b60208201526001600160601b03193360601b16602b8201526001600160a01b037f00000000000000000000000000000000000000000000000000000000000000001690637ae1cfca90603f01604051602081830303815290604052805190602001206040518263ffffffff1660e01b8152600401610dbd91815260200190565b602060405180830381865afa158015610dda573d6000803e3d6000fd5b505050506040513d601f19601f82011682018060405250810190610dfe919061279e565b610ac05760405162461bcd60e51b81526020600482015260116024820152704e6f206275726e696e672072696768747360781b6044820152606401610622565b610e483383611499565b610e645760405162461bcd60e51b8152600401610622906126c3565b610bd3848484846118d8565b60606105228261190b565b6040516a3937b6329736b4b73a32b960a91b60208201526001600160601b03193360601b16602b8201526001600160a01b037f00000000000000000000000000000000000000000000000000000000000000001690637ae1cfca90603f01604051602081830303815290604052805190602001206040518263ffffffff1660e01b8152600401610f0d91815260200190565b602060405180830381865afa158015610f2a573d6000803e3d6000fd5b505050506040513d601f19601f82011682018060405250810190610f4e919061279e565b610b895760405162461bcd60e51b81526020600482015260116024820152704e6f206d696e74696e672072696768747360781b6044820152606401610622565b6000816001600160a01b03167f00000000000000000000000000000000000000000000000000000000000000006001600160a01b03166321f8a721604051602001610ff29072616464726573732e6d61726b6574706c61636560681b815260130190565b604051602081830303815290604052805190602001206040518263ffffffff1660e01b815260040161102691815260200190565b602060405180830381865afa158015611043573d6000803e3d6000fd5b505050506040513d601f19601f82011682018060405250810190611067919061281d565b6001600160a01b03160361107d57506001610522565b6001600160a01b0380841660009081526005602090815260408083209386168352929052205460ff165b9392505050565b600b546001600160a01b031633146110d85760405162461bcd60e51b8152600401610622906127e8565b6001600160a01b03811661113d5760405162461bcd60e51b815260206004820152602660248201527f4f776e61626c653a206e6577206f776e657220697320746865207a65726f206160448201526564647265737360d01b6064820152608401610622565b610ac9816117b8565b7f00000000000000000000000000000000000000000000000000000000000000006001600160a01b0316637ae1cfca336040516020016111869190612773565b604051602081830303815290604052805190602001206040518263ffffffff1660e01b81526004016111ba91815260200190565b602060405180830381865afa1580156111d7573d6000803e3d6000fd5b505050506040513d601f19601f820116820180604052508101906111fb919061279e565b61123a5760405162461bcd60e51b815260206004820152601060248201526f41646d696e2063616c6c73206f6e6c7960801b6044820152606401610622565b6040516370a0823160e01b815230600482015281906000906001600160a01b038316906370a0823190602401602060405180830381865afa158015611283573d6000803e3d6000fd5b505050506040513d601f19601f820116820180604052508101906112a7919061283a565b905060006127106112ba83611f4061272a565b6112c4919061275f565b9050826001600160a01b031663a9059cbb6112e7600b546001600160a01b031690565b6040516001600160e01b031960e084901b1681526001600160a01b039091166004820152602481018490526044016020604051808303816000875af1158015611334573d6000803e3d6000fd5b505050506040513d601f19601f82011682018060405250810190611358919061279e565b506001600160a01b03831663a9059cbb3361137384866127bb565b6040516001600160e01b031960e085901b1681526001600160a01b03909216600483015260248201526044016020604051808303816000875af11580156113be573d6000803e3d6000fd5b505050506040513d601f19601f820116820180604052508101906113e2919061279e565b5050505050565b60006001600160e01b0319821663780e9d6360e01b1480610522575061052282611a79565b6000908152600260205260409020546001600160a01b0316151590565b600081815260046020526040902080546001600160a01b0319166001600160a01b038416908117909155819061146082610bd9565b6001600160a01b03167f8c5be1e5ebec7d5bd14f71427d1e84f3dd0314c0f7b2291e5b200ac8c7c3b92560405160405180910390a45050565b60006114a48261140e565b6115055760405162461bcd60e51b815260206004820152602c60248201527f4552433732313a206f70657261746f7220717565727920666f72206e6f6e657860448201526b34b9ba32b73a103a37b5b2b760a11b6064820152608401610622565b600061151083610bd9565b9050806001600160a01b0316846001600160a01b0316148061153757506115378185610f8e565b8061155b5750836001600160a01b0316611550846105ba565b6001600160a01b0316145b949350505050565b826001600160a01b031661157682610bd9565b6001600160a01b0316146115da5760405162461bcd60e51b815260206004820152602560248201527f4552433732313a207472616e736665722066726f6d20696e636f72726563742060448201526437bbb732b960d91b6064820152608401610622565b6001600160a01b03821661163c5760405162461bcd60e51b8152602060048201526024808201527f4552433732313a207472616e7366657220746f20746865207a65726f206164646044820152637265737360e01b6064820152608401610622565b611647838383611ac9565b61165260008261142b565b6001600160a01b038316600090815260036020526040812080546001929061167b9084906127bb565b90915550506001600160a01b03821660009081526003602052604081208054600192906116a9908490612853565b909155505060008181526002602052604080822080546001600160a01b0319166001600160a01b0386811691821790925591518493918716917fddf252ad1be2c89b69c2b068fc378daa952ba7f163c4a11628f55a4df523b3ef91a4505050565b610ac981611ad4565b610d27828260405180602001604052806000815250611b14565b6117368261140e565b6117995760405162461bcd60e51b815260206004820152602e60248201527f45524337323155524953746f726167653a2055524920736574206f66206e6f6e60448201526d32bc34b9ba32b73a103a37b5b2b760911b6064820152608401610622565b6000828152600a6020908152604090912082516107579284019061224e565b600b80546001600160a01b038381166001600160a01b0319831681179093556040519116919082907f8be0079c531659141344cd1fd0a4f28419497f9722a3daafe3b4186f6b6457e090600090a35050565b816001600160a01b0316836001600160a01b03160361186b5760405162461bcd60e51b815260206004820152601960248201527f4552433732313a20617070726f766520746f2063616c6c6572000000000000006044820152606401610622565b6001600160a01b03838116600081815260056020908152604080832094871680845294825291829020805460ff191686151590811790915591519182527f17307eab39ab6107e8899845ad3d59bd9653f200f220920489ca2b5937696c31910160405180910390a3505050565b6118e3848484611563565b6118ef84848484611b47565b610bd35760405162461bcd60e51b81526004016106229061286b565b60606119168261140e565b61197c5760405162461bcd60e51b815260206004820152603160248201527f45524337323155524953746f726167653a2055524920717565727920666f72206044820152703737b732bc34b9ba32b73a103a37b5b2b760791b6064820152608401610622565b6000828152600a60205260408120805461199590612689565b80601f01602080910402602001604051908101604052809291908181526020018280546119c190612689565b8015611a0e5780601f106119e357610100808354040283529160200191611a0e565b820191906000526020600020905b8154815290600101906020018083116119f157829003601f168201915b505050505090506000611a2c60408051602081019091526000815290565b90508051600003611a3e575092915050565b815115611a70578082604051602001611a589291906128bd565b60405160208183030381529060405292505050919050565b61155b84611c48565b60006001600160e01b031982166380ac58cd60e01b1480611aaa57506001600160e01b03198216635b5e139f60e01b145b8061052257506301ffc9a760e01b6001600160e01b0319831614610522565b610757838383611d1f565b611add81611dd7565b6000818152600a602052604090208054611af690612689565b159050610ac9576000818152600a60205260408120610ac9916122d2565b611b1e8383611e7e565b611b2b6000848484611b47565b6107575760405162461bcd60e51b81526004016106229061286b565b60006001600160a01b0384163b15611c3d57604051630a85bd0160e11b81526001600160a01b0385169063150b7a0290611b8b9033908990889088906004016128ec565b6020604051808303816000875af1925050508015611bc6575060408051601f3d908101601f19168201909252611bc391810190612929565b60015b611c23573d808015611bf4576040519150601f19603f3d011682016040523d82523d6000602084013e611bf9565b606091505b508051600003611c1b5760405162461bcd60e51b81526004016106229061286b565b805181602001fd5b6001600160e01b031916630a85bd0160e11b14905061155b565b506001949350505050565b6060611c538261140e565b611cb75760405162461bcd60e51b815260206004820152602f60248201527f4552433732314d657461646174613a2055524920717565727920666f72206e6f60448201526e3732bc34b9ba32b73a103a37b5b2b760891b6064820152608401610622565b6000611cce60408051602081019091526000815290565b90506000815111611cee57604051806020016040528060008152506110a7565b80611cf884611fbd565b604051602001611d099291906128bd565b6040516020818303038152906040529392505050565b6001600160a01b038316611d7a57611d7581600880546000838152600960205260408120829055600182018355919091527ff3f7a9fe364faab93b216da50a3214154f22a0a2b415b23a84c8169e8b636ee30155565b611d9d565b816001600160a01b0316836001600160a01b031614611d9d57611d9d83826120be565b6001600160a01b038216611db4576107578161215b565b826001600160a01b0316826001600160a01b03161461075757610757828261220a565b6000611de282610bd9565b9050611df081600084611ac9565b611dfb60008361142b565b6001600160a01b0381166000908152600360205260408120805460019290611e249084906127bb565b909155505060008281526002602052604080822080546001600160a01b0319169055518391906001600160a01b038416907fddf252ad1be2c89b69c2b068fc378daa952ba7f163c4a11628f55a4df523b3ef908390a45050565b6001600160a01b038216611ed45760405162461bcd60e51b815260206004820181905260248201527f4552433732313a206d696e7420746f20746865207a65726f20616464726573736044820152606401610622565b611edd8161140e565b15611f2a5760405162461bcd60e51b815260206004820152601c60248201527f4552433732313a20746f6b656e20616c7265616479206d696e746564000000006044820152606401610622565b611f3660008383611ac9565b6001600160a01b0382166000908152600360205260408120805460019290611f5f908490612853565b909155505060008181526002602052604080822080546001600160a01b0319166001600160a01b03861690811790915590518392907fddf252ad1be2c89b69c2b068fc378daa952ba7f163c4a11628f55a4df523b3ef908290a45050565b606081600003611fe45750506040805180820190915260018152600360fc1b602082015290565b8160005b811561200e5780611ff881612946565b91506120079050600a8361275f565b9150611fe8565b60008167ffffffffffffffff81111561202957612029612565565b6040519080825280601f01601f191660200182016040528015612053576020820181803683370190505b5090505b841561155b576120686001836127bb565b9150612075600a8661295f565b612080906030612853565b60f81b818381518110612095576120956127d2565b60200101906001600160f81b031916908160001a9053506120b7600a8661275f565b9450612057565b600060016120cb84610c50565b6120d591906127bb565b600083815260076020526040902054909150808214612128576001600160a01b03841660009081526006602090815260408083208584528252808320548484528184208190558352600790915290208190555b5060009182526007602090815260408084208490556001600160a01b039094168352600681528383209183525290812055565b60085460009061216d906001906127bb565b60008381526009602052604081205460088054939450909284908110612195576121956127d2565b9060005260206000200154905080600883815481106121b6576121b66127d2565b60009182526020808320909101929092558281526009909152604080822084905585825281205560088054806121ee576121ee612973565b6001900381819060005260206000200160009055905550505050565b600061221583610c50565b6001600160a01b039093166000908152600660209081526040808320868452825280832085905593825260079052919091209190915550565b82805461225a90612689565b90600052602060002090601f01602090048101928261227c57600085556122c2565b82601f1061229557805160ff19168380011785556122c2565b828001600101855582156122c2579182015b828111156122c25782518255916020019190600101906122a7565b506122ce929150612308565b5090565b5080546122de90612689565b6000825580601f106122ee575050565b601f016020900490600052602060002090810190610ac991905b5b808211156122ce5760008155600101612309565b6001600160e01b031981168114610ac957600080fd5b60006020828403121561234557600080fd5b81356110a78161231d565b60005b8381101561236b578181015183820152602001612353565b83811115610bd35750506000910152565b60008151808452612394816020860160208601612350565b601f01601f19169290920160200192915050565b6020815260006110a7602083018461237c565b6000602082840312156123cd57600080fd5b5035919050565b6001600160a01b0381168114610ac957600080fd5b600080604083850312156123fc57600080fd5b8235612407816123d4565b946020939093013593505050565b60008060006060848603121561242a57600080fd5b8335612435816123d4565b92506020840135612445816123d4565b929592945050506040919091013590565b6000806040838503121561246957600080fd5b50508035926020909101359150565b6000806000806060858703121561248e57600080fd5b8435612499816123d4565b935060208501359250604085013567ffffffffffffffff808211156124bd57600080fd5b818701915087601f8301126124d157600080fd5b8135818111156124e057600080fd5b8860208285010111156124f257600080fd5b95989497505060200194505050565b60006020828403121561251357600080fd5b81356110a7816123d4565b8015158114610ac957600080fd5b6000806040838503121561253f57600080fd5b823561254a816123d4565b9150602083013561255a8161251e565b809150509250929050565b634e487b7160e01b600052604160045260246000fd5b6000806000806080858703121561259157600080fd5b843561259c816123d4565b935060208501356125ac816123d4565b925060408501359150606085013567ffffffffffffffff808211156125d057600080fd5b818701915087601f8301126125e457600080fd5b8135818111156125f6576125f6612565565b604051601f8201601f19908116603f0116810190838211818310171561261e5761261e612565565b816040528281528a602084870101111561263757600080fd5b82602086016020830137600060208483010152809550505050505092959194509250565b6000806040838503121561266e57600080fd5b8235612679816123d4565b9150602083013561255a816123d4565b600181811c9082168061269d57607f821691505b6020821081036126bd57634e487b7160e01b600052602260045260246000fd5b50919050565b60208082526031908201527f4552433732313a207472616e736665722063616c6c6572206973206e6f74206f6040820152701ddb995c881b9bdc88185c1c1c9bdd9959607a1b606082015260800190565b634e487b7160e01b600052601160045260246000fd5b600081600019048311821515161561274457612744612714565b500290565b634e487b7160e01b600052601260045260246000fd5b60008261276e5761276e612749565b500490565b693937b6329730b236b4b760b11b815260609190911b6001600160601b031916600a820152601e0190565b6000602082840312156127b057600080fd5b81516110a78161251e565b6000828210156127cd576127cd612714565b500390565b634e487b7160e01b600052603260045260246000fd5b6020808252818101527f4f776e61626c653a2063616c6c6572206973206e6f7420746865206f776e6572604082015260600190565b60006020828403121561282f57600080fd5b81516110a7816123d4565b60006020828403121561284c57600080fd5b5051919050565b6000821982111561286657612866612714565b500190565b60208082526032908201527f4552433732313a207472616e7366657220746f206e6f6e20455243373231526560408201527131b2b4bb32b91034b6b83632b6b2b73a32b960711b606082015260800190565b600083516128cf818460208801612350565b8351908301906128e3818360208801612350565b01949350505050565b6001600160a01b038581168252841660208201526040810183905260806060820181905260009061291f9083018461237c565b9695505050505050565b60006020828403121561293b57600080fd5b81516110a78161231d565b60006001820161295857612958612714565b5060010190565b60008261296e5761296e612749565b500690565b634e487b7160e01b600052603160045260246000fdfea2646970667358221220496512a966cd3fe844d16ed30d3193f65f86f2b5a351edf207c1d8de1257a43d64736f6c634300080e0033",
  "linkReferences": {},
  "deployedLinkReferences": {}
}