{
  "_format": "hh-sol-artifact-1",
  "contractName": "SageNFT",
  "sourceName": "contracts/NFT/SageNFT.sol",
  "abi": [
    {
      "inputs": [
        {
          "internalType": "string",
          "name": "_name",
          "type": "string"
        },
        {
          "internalType": "string",
          "name": "_symbol",
          "type": "string"
        },
        {
          "internalType": "address",
          "name": "_sageStorage",
          "type": "address"
        },
        {
          "internalType": "address",
          "name": "_artist",
          "type": "address"
        }
      ],
      "stateMutability": "nonpayable",
      "type": "constructor"
    },
    {
      "anonymous": false,
      "inputs": [
        {
          "indexed": true,
          "internalType": "address",
          "name": "owner",
          "type": "address"
        },
        {
          "indexed": true,
          "internalType": "address",
          "name": "approved",
          "type": "address"
        },
        {
          "indexed": true,
          "internalType": "uint256",
          "name": "tokenId",
          "type": "uint256"
        }
      ],
      "name": "Approval",
      "type": "event"
    },
    {
      "anonymous": false,
      "inputs": [
        {
          "indexed": true,
          "internalType": "address",
          "name": "owner",
          "type": "address"
        },
        {
          "indexed": true,
          "internalType": "address",
          "name": "operator",
          "type": "address"
        },
        {
          "indexed": false,
          "internalType": "bool",
          "name": "approved",
          "type": "bool"
        }
      ],
      "name": "ApprovalForAll",
      "type": "event"
    },
    {
      "anonymous": false,
      "inputs": [
        {
          "indexed": true,
          "internalType": "address",
          "name": "previousOwner",
          "type": "address"
        },
        {
          "indexed": true,
          "internalType": "address",
          "name": "newOwner",
          "type": "address"
        }
      ],
      "name": "OwnershipTransferred",
      "type": "event"
    },
    {
      "anonymous": false,
      "inputs": [
        {
          "indexed": true,
          "internalType": "address",
          "name": "from",
          "type": "address"
        },
        {
          "indexed": true,
          "internalType": "address",
          "name": "to",
          "type": "address"
        },
        {
          "indexed": true,
          "internalType": "uint256",
          "name": "tokenId",
          "type": "uint256"
        }
      ],
      "name": "Transfer",
      "type": "event"
    },
    {
      "inputs": [],
      "name": "DEFAULT_ADMIN_ROLE",
      "outputs": [
        {
          "internalType": "bytes32",
          "name": "",
          "type": "bytes32"
        }
      ],
      "stateMutability": "view",
      "type": "function"
    },
    {
      "inputs": [
        {
          "internalType": "address",
          "name": "to",
          "type": "address"
        },
        {
          "internalType": "uint256",
          "name": "tokenId",
          "type": "uint256"
        }
      ],
      "name": "approve",
      "outputs": [],
      "stateMutability": "nonpayable",
      "type": "function"
    },
    {
      "inputs": [],
      "name": "artist",
      "outputs": [
        {
          "internalType": "address",
          "name": "",
          "type": "address"
        }
      ],
      "stateMutability": "view",
      "type": "function"
    },
    {
      "inputs": [
        {
          "internalType": "address",
          "name": "to",
          "type": "address"
        },
        {
          "internalType": "string",
          "name": "uri",
          "type": "string"
        }
      ],
      "name": "artistMint",
      "outputs": [],
      "stateMutability": "nonpayable",
      "type": "function"
    },
    {
      "inputs": [
        {
          "internalType": "address",
          "name": "owner",
          "type": "address"
        }
      ],
      "name": "balanceOf",
      "outputs": [
        {
          "internalType": "uint256",
          "name": "",
          "type": "uint256"
        }
      ],
      "stateMutability": "view",
      "type": "function"
    },
    {
      "inputs": [
        {
          "internalType": "uint256",
          "name": "tokenId",
          "type": "uint256"
        }
      ],
      "name": "burn",
      "outputs": [],
      "stateMutability": "nonpayable",
      "type": "function"
    },
    {
      "inputs": [
        {
          "internalType": "uint256",
          "name": "_id",
          "type": "uint256"
        }
      ],
      "name": "burnFromAuthorizedAddress",
      "outputs": [],
      "stateMutability": "nonpayable",
      "type": "function"
    },
    {
      "inputs": [],
      "name": "contractURI",
      "outputs": [
        {
          "internalType": "string",
          "name": "",
          "type": "string"
        }
      ],
      "stateMutability": "view",
      "type": "function"
    },
    {
      "inputs": [
        {
          "internalType": "uint256",
          "name": "tokenId",
          "type": "uint256"
        }
      ],
      "name": "getApproved",
      "outputs": [
        {
          "internalType": "address",
          "name": "",
          "type": "address"
        }
      ],
      "stateMutability": "view",
      "type": "function"
    },
    {
      "inputs": [
        {
          "internalType": "address",
          "name": "owner",
          "type": "address"
        },
        {
          "internalType": "address",
          "name": "operator",
          "type": "address"
        }
      ],
      "name": "isApprovedForAll",
      "outputs": [
        {
          "internalType": "bool",
          "name": "",
          "type": "bool"
        }
      ],
      "stateMutability": "view",
      "type": "function"
    },
    {
      "inputs": [],
      "name": "name",
      "outputs": [
        {
          "internalType": "string",
          "name": "",
          "type": "string"
        }
      ],
      "stateMutability": "view",
      "type": "function"
    },
    {
      "inputs": [],
      "name": "owner",
      "outputs": [
        {
          "internalType": "address",
          "name": "",
          "type": "address"
        }
      ],
      "stateMutability": "view",
      "type": "function"
    },
    {
      "inputs": [
        {
          "internalType": "uint256",
          "name": "tokenId",
          "type": "uint256"
        }
      ],
      "name": "ownerOf",
      "outputs": [
        {
          "internalType": "address",
          "name": "",
          "type": "address"
        }
      ],
      "stateMutability": "view",
      "type": "function"
    },
    {
      "inputs": [],
      "name": "renounceOwnership",
      "outputs": [],
      "stateMutability": "nonpayable",
      "type": "function"
    },
    {
      "inputs": [
        {
          "internalType": "uint256",
          "name": "tokenId",
          "type": "uint256"
        },
        {
          "internalType": "uint256",
          "name": "salePrice",
          "type": "uint256"
        }
      ],
      "name": "royaltyInfo",
      "outputs": [
        {
          "internalType": "address",
          "name": "",
          "type": "address"
        },
        {
          "internalType": "uint256",
          "name": "",
          "type": "uint256"
        }
      ],
      "stateMutability": "view",
      "type": "function"
    },
    {
      "inputs": [
        {
          "internalType": "address",
          "name": "to",
          "type": "address"
        },
        {
          "internalType": "string",
          "name": "uri",
          "type": "string"
        }
      ],
      "name": "safeMint",
      "outputs": [],
      "stateMutability": "nonpayable",
      "type": "function"
    },
    {
      "inputs": [
        {
          "internalType": "address",
          "name": "from",
          "type": "address"
        },
        {
          "internalType": "address",
          "name": "to",
          "type": "address"
        },
        {
          "internalType": "uint256",
          "name": "tokenId",
          "type": "uint256"
        }
      ],
      "name": "safeTransferFrom",
      "outputs": [],
      "stateMutability": "nonpayable",
      "type": "function"
    },
    {
      "inputs": [
        {
          "internalType": "address",
          "name": "from",
          "type": "address"
        },
        {
          "internalType": "address",
          "name": "to",
          "type": "address"
        },
        {
          "internalType": "uint256",
          "name": "tokenId",
          "type": "uint256"
        },
        {
          "internalType": "bytes",
          "name": "data",
          "type": "bytes"
        }
      ],
      "name": "safeTransferFrom",
      "outputs": [],
      "stateMutability": "nonpayable",
      "type": "function"
    },
    {
      "inputs": [
        {
          "internalType": "address",
          "name": "operator",
          "type": "address"
        },
        {
          "internalType": "bool",
          "name": "approved",
          "type": "bool"
        }
      ],
      "name": "setApprovalForAll",
      "outputs": [],
      "stateMutability": "nonpayable",
      "type": "function"
    },
    {
      "inputs": [
        {
          "internalType": "string",
          "name": "_contractMetadata",
          "type": "string"
        }
      ],
      "name": "setContractMetadata",
      "outputs": [],
      "stateMutability": "nonpayable",
      "type": "function"
    },
    {
      "inputs": [
        {
          "internalType": "uint256",
          "name": "_tokenId",
          "type": "uint256"
        },
        {
          "internalType": "string",
          "name": "_uri",
          "type": "string"
        }
      ],
      "name": "setTokenURI",
      "outputs": [],
      "stateMutability": "nonpayable",
      "type": "function"
    },
    {
      "inputs": [
        {
          "internalType": "bytes4",
          "name": "interfaceId",
          "type": "bytes4"
        }
      ],
      "name": "supportsInterface",
      "outputs": [
        {
          "internalType": "bool",
          "name": "",
          "type": "bool"
        }
      ],
      "stateMutability": "view",
      "type": "function"
    },
    {
      "inputs": [],
      "name": "symbol",
      "outputs": [
        {
          "internalType": "string",
          "name": "",
          "type": "string"
        }
      ],
      "stateMutability": "view",
      "type": "function"
    },
    {
      "inputs": [
        {
          "internalType": "uint256",
          "name": "index",
          "type": "uint256"
        }
      ],
      "name": "tokenByIndex",
      "outputs": [
        {
          "internalType": "uint256",
          "name": "",
          "type": "uint256"
        }
      ],
      "stateMutability": "view",
      "type": "function"
    },
    {
      "inputs": [
        {
          "internalType": "address",
          "name": "owner",
          "type": "address"
        },
        {
          "internalType": "uint256",
          "name": "index",
          "type": "uint256"
        }
      ],
      "name": "tokenOfOwnerByIndex",
      "outputs": [
        {
          "internalType": "uint256",
          "name": "",
          "type": "uint256"
        }
      ],
      "stateMutability": "view",
      "type": "function"
    },
    {
      "inputs": [
        {
          "internalType": "uint256",
          "name": "tokenId",
          "type": "uint256"
        }
      ],
      "name": "tokenURI",
      "outputs": [
        {
          "internalType": "string",
          "name": "",
          "type": "string"
        }
      ],
      "stateMutability": "view",
      "type": "function"
    },
    {
      "inputs": [],
      "name": "totalSupply",
      "outputs": [
        {
          "internalType": "uint256",
          "name": "",
          "type": "uint256"
        }
      ],
      "stateMutability": "view",
      "type": "function"
    },
    {
      "inputs": [
        {
          "internalType": "address",
          "name": "from",
          "type": "address"
        },
        {
          "internalType": "address",
          "name": "to",
          "type": "address"
        },
        {
          "internalType": "uint256",
          "name": "tokenId",
          "type": "uint256"
        }
      ],
      "name": "transferFrom",
      "outputs": [],
      "stateMutability": "nonpayable",
      "type": "function"
    },
    {
      "inputs": [
        {
          "internalType": "address",
          "name": "newOwner",
          "type": "address"
        }
      ],
      "name": "transferOwnership",
      "outputs": [],
      "stateMutability": "nonpayable",
      "type": "function"
    },
    {
      "inputs": [],
      "name": "withdraw",
      "outputs": [],
      "stateMutability": "nonpayable",
      "type": "function"
    },
    {
      "inputs": [
        {
          "internalType": "address",
          "name": "erc20",
          "type": "address"
        }
      ],
      "name": "withdrawERC20",
      "outputs": [],
      "stateMutability": "nonpayable",
      "type": "function"
    },
    {
      "stateMutability": "payable",
      "type": "receive"
    }
  ],
  "bytecode": "0x60c06040523480156200001157600080fd5b5060405162002f3438038062002f348339810160408190526200003491620002a4565b8351849084906200004d90600090602085019062000114565b5080516200006390600190602084019062000114565b505050620000806200007a620000b560201b60201c565b620000b9565b6001600160a01b03828116608052811660a052620000ab600d6200010b602090811b620014fc17901c565b505050506200036f565b3390565b600b80546001600160a01b038381166001600160a01b0319831681179093556040519116919082907f8be0079c531659141344cd1fd0a4f28419497f9722a3daafe3b4186f6b6457e090600090a35050565b80546001019055565b828054620001229062000333565b90600052602060002090601f01602090048101928262000146576000855562000191565b82601f106200016157805160ff191683800117855562000191565b8280016001018555821562000191579182015b828111156200019157825182559160200191906001019062000174565b506200019f929150620001a3565b5090565b5b808211156200019f5760008155600101620001a4565b634e487b7160e01b600052604160045260246000fd5b600082601f830112620001e257600080fd5b81516001600160401b0380821115620001ff57620001ff620001ba565b604051601f8301601f19908116603f011681019082821181831017156200022a576200022a620001ba565b816040528381526020925086838588010111156200024757600080fd5b600091505b838210156200026b57858201830151818301840152908201906200024c565b838211156200027d5760008385830101525b9695505050505050565b80516001600160a01b03811681146200029f57600080fd5b919050565b60008060008060808587031215620002bb57600080fd5b84516001600160401b0380821115620002d357600080fd5b620002e188838901620001d0565b95506020870151915080821115620002f857600080fd5b506200030787828801620001d0565b935050620003186040860162000287565b9150620003286060860162000287565b905092959194509250565b600181811c908216806200034857607f821691505b6020821081036200036957634e487b7160e01b600052602260045260246000fd5b50919050565b60805160a051612b59620003db600039600081816103de01528181610a1101528181610b08015281816112a6015261146b01526000818161080c01528181610d6d01528181610d9c01528181610f0901528181610f380152818161107d01526113e70152612b596000f3fe6080604052600436106101dc5760003560e01c80636352211e11610102578063b88d4fde11610095578063e985e9c511610064578063e985e9c514610572578063f2fde38b14610592578063f4f3b200146105b2578063fce55037146105d257600080fd5b8063b88d4fde146104fd578063c87b56dd1461051d578063d204c45e1461053d578063e8a3d4851461055d57600080fd5b806395d89b41116100d157806395d89b4114610493578063a217fddf146104a8578063a22cb465146104bd578063a82670d3146104dd57600080fd5b80636352211e1461042057806370a0823114610440578063715018a6146104605780638da5cb5b1461047557600080fd5b80632a55205a1161017a57806342842e0e1161014957806342842e0e1461038c57806342966c68146103ac57806343bc1612146103cc5780634f6ccce71461040057600080fd5b80632a55205a146102f85780632f745c59146103375780633ccfd60b14610357578063407da2521461036c57600080fd5b8063095ea7b3116101b6578063095ea7b314610277578063162094c41461029957806318160ddd146102b957806323b872dd146102d857600080fd5b806301ffc9a7146101e857806306fdde031461021d578063081812fc1461023f57600080fd5b366101e357005b600080fd5b3480156101f457600080fd5b506102086102033660046124ad565b6105f2565b60405190151581526020015b60405180910390f35b34801561022957600080fd5b5061023261061d565b6040516102149190612522565b34801561024b57600080fd5b5061025f61025a366004612535565b6106af565b6040516001600160a01b039091168152602001610214565b34801561028357600080fd5b50610297610292366004612563565b6106d6565b005b3480156102a557600080fd5b506102976102b43660046125d1565b6107f0565b3480156102c557600080fd5b506008545b604051908152602001610214565b3480156102e457600080fd5b506102976102f336600461261d565b6108fe565b34801561030457600080fd5b5061031861031336600461265e565b610930565b604080516001600160a01b039093168352602083019190915201610214565b34801561034357600080fd5b506102ca610352366004612563565b610959565b34801561036357600080fd5b506102976109ef565b34801561037857600080fd5b50610297610387366004612680565b610afd565b34801561039857600080fd5b506102976103a736600461261d565b610b74565b3480156103b857600080fd5b506102976103c7366004612535565b610b8f565b3480156103d857600080fd5b5061025f7f000000000000000000000000000000000000000000000000000000000000000081565b34801561040c57600080fd5b506102ca61041b366004612535565b610bc0565b34801561042c57600080fd5b5061025f61043b366004612535565b610c53565b34801561044c57600080fd5b506102ca61045b3660046126bc565b610cb3565b34801561046c57600080fd5b50610297610d39565b34801561048157600080fd5b50600b546001600160a01b031661025f565b34801561049f57600080fd5b50610232610d4d565b3480156104b457600080fd5b506102ca600081565b3480156104c957600080fd5b506102976104d83660046126e7565b610d5c565b3480156104e957600080fd5b506102976104f8366004612535565b610d6b565b34801561050957600080fd5b50610297610518366004612736565b610ec4565b34801561052957600080fd5b50610232610538366004612535565b610efc565b34801561054957600080fd5b50610297610558366004612680565b610f07565b34801561056957600080fd5b50610232611060565b34801561057e57600080fd5b5061020861058d366004612816565b61106f565b34801561059e57600080fd5b506102976105ad3660046126bc565b61118f565b3480156105be57600080fd5b506102976105cd3660046126bc565b611205565b3480156105de57600080fd5b506102976105ed366004612844565b6113cb565b60006001600160e01b0319821663152a902d60e11b1480610617575061061782611505565b92915050565b60606000805461062c90612886565b80601f016020809104026020016040519081016040528092919081815260200182805461065890612886565b80156106a55780601f1061067a576101008083540402835291602001916106a5565b820191906000526020600020905b81548152906001019060200180831161068857829003601f168201915b5050505050905090565b60006106ba8261152a565b506000908152600460205260409020546001600160a01b031690565b60006106e182610c53565b9050806001600160a01b0316836001600160a01b0316036107535760405162461bcd60e51b815260206004820152602160248201527f4552433732313a20617070726f76616c20746f2063757272656e74206f776e656044820152603960f91b60648201526084015b60405180910390fd5b336001600160a01b038216148061076f575061076f813361106f565b6107e15760405162461bcd60e51b815260206004820152603e60248201527f4552433732313a20617070726f76652063616c6c6572206973206e6f7420746f60448201527f6b656e206f776e6572206e6f7220617070726f76656420666f7220616c6c0000606482015260840161074a565b6107eb8383611589565b505050565b604051632474521560e21b8152600060048201523360248201527f00000000000000000000000000000000000000000000000000000000000000006001600160a01b0316906391d1485490604401602060405180830381865afa15801561085b573d6000803e3d6000fd5b505050506040513d601f19601f8201168201806040525081019061087f91906128c0565b6108be5760405162461bcd60e51b815260206004820152601060248201526f41646d696e2063616c6c73206f6e6c7960801b604482015260640161074a565b6107eb8383838080601f0160208091040260200160405190810160405280939291908181526020018383808284376000920191909152506115f792505050565b610909335b82611691565b6109255760405162461bcd60e51b815260040161074a906128dd565b6107eb8383836116f0565b600080306127106109436103e886612941565b61094d9190612976565b915091505b9250929050565b600061096483610cb3565b82106109c65760405162461bcd60e51b815260206004820152602b60248201527f455243373231456e756d657261626c653a206f776e657220696e646578206f7560448201526a74206f6620626f756e647360a81b606482015260840161074a565b506001600160a01b03919091166000908152600660209081526040808320938352929052205490565b476000612710610a0183611f40612941565b610a0b9190612976565b905060007f00000000000000000000000000000000000000000000000000000000000000006001600160a01b03168260405160006040518083038185875af1925050503d8060008114610a7a576040519150601f19603f3d011682016040523d82523d6000602084013e610a7f565b606091505b5050905080610a8d57600080fd5b737af3ba4a5854438a6bf27e4d005cd07d5497c33e610aac838561298a565b604051600081818185875af1925050503d8060008114610ae8576040519150601f19603f3d011682016040523d82523d6000602084013e610aed565b606091505b505080915050806107eb57600080fd5b336001600160a01b037f00000000000000000000000000000000000000000000000000000000000000001614610b695760405162461bcd60e51b81526020600482015260116024820152704f6e6c79206172746973742063616c6c7360781b604482015260640161074a565b6107eb838383611897565b6107eb83838360405180602001604052806000815250610ec4565b610b9833610903565b610bb45760405162461bcd60e51b815260040161074a906128dd565b610bbd816118fc565b50565b6000610bcb60085490565b8210610c2e5760405162461bcd60e51b815260206004820152602c60248201527f455243373231456e756d657261626c653a20676c6f62616c20696e646578206f60448201526b7574206f6620626f756e647360a01b606482015260840161074a565b60088281548110610c4157610c416129a1565b90600052602060002001549050919050565b6000818152600260205260408120546001600160a01b0316806106175760405162461bcd60e51b8152602060048201526018602482015277115490cdcc8c4e881a5b9d985b1a59081d1bdad95b88125160421b604482015260640161074a565b60006001600160a01b038216610d1d5760405162461bcd60e51b815260206004820152602960248201527f4552433732313a2061646472657373207a65726f206973206e6f7420612076616044820152683634b21037bbb732b960b91b606482015260840161074a565b506001600160a01b031660009081526003602052604090205490565b610d41611905565b610d4b600061195f565b565b60606001805461062c90612886565b610d673383836119b1565b5050565b7f00000000000000000000000000000000000000000000000000000000000000006001600160a01b03166391d148547f00000000000000000000000000000000000000000000000000000000000000006001600160a01b031663282c51f36040518163ffffffff1660e01b81526004016020604051808303816000875af1158015610dfa573d6000803e3d6000fd5b505050506040513d601f19601f82011682018060405250810190610e1e91906129b7565b6040516001600160e01b031960e084901b1681526004810191909152336024820152604401602060405180830381865afa158015610e60573d6000803e3d6000fd5b505050506040513d601f19601f82011682018060405250810190610e8491906128c0565b610bb45760405162461bcd60e51b81526020600482015260116024820152704e6f206275726e696e672072696768747360781b604482015260640161074a565b610ece3383611691565b610eea5760405162461bcd60e51b815260040161074a906128dd565b610ef684848484611a7f565b50505050565b606061061782611ab2565b7f00000000000000000000000000000000000000000000000000000000000000006001600160a01b03166391d148547f00000000000000000000000000000000000000000000000000000000000000006001600160a01b031663d53913936040518163ffffffff1660e01b81526004016020604051808303816000875af1158015610f96573d6000803e3d6000fd5b505050506040513d601f19601f82011682018060405250810190610fba91906129b7565b6040516001600160e01b031960e084901b1681526004810191909152336024820152604401602060405180830381865afa158015610ffc573d6000803e3d6000fd5b505050506040513d601f19601f8201168201806040525081019061102091906128c0565b610b695760405162461bcd60e51b81526020600482015260116024820152704e6f206d696e74696e672072696768747360781b604482015260640161074a565b6060600c805461062c90612886565b6000816001600160a01b03167f00000000000000000000000000000000000000000000000000000000000000006001600160a01b03166321f8a7216040516020016110d39072616464726573732e6d61726b6574706c61636560681b815260130190565b604051602081830303815290604052805190602001206040518263ffffffff1660e01b815260040161110791815260200190565b602060405180830381865afa158015611124573d6000803e3d6000fd5b505050506040513d601f19601f8201168201806040525081019061114891906129d0565b6001600160a01b03160361115e57506001610617565b6001600160a01b0380841660009081526005602090815260408083209386168352929052205460ff165b9392505050565b611197611905565b6001600160a01b0381166111fc5760405162461bcd60e51b815260206004820152602660248201527f4f776e61626c653a206e6577206f776e657220697320746865207a65726f206160448201526564647265737360d01b606482015260840161074a565b610bbd8161195f565b6040516370a0823160e01b815230600482015281906000906001600160a01b038316906370a0823190602401602060405180830381865afa15801561124e573d6000803e3d6000fd5b505050506040513d601f19601f8201168201806040525081019061127291906129b7565b9050600061271061128583611f40612941565b61128f9190612976565b60405163a9059cbb60e01b81526001600160a01b037f000000000000000000000000000000000000000000000000000000000000000081166004830152602482018390529192509084169063a9059cbb906044016020604051808303816000875af1158015611302573d6000803e3d6000fd5b505050506040513d601f19601f8201168201806040525081019061132691906128c0565b506001600160a01b03831663a9059cbb737af3ba4a5854438a6bf27e4d005cd07d5497c33e611355848661298a565b6040516001600160e01b031960e085901b1681526001600160a01b03909216600483015260248201526044016020604051808303816000875af11580156113a0573d6000803e3d6000fd5b505050506040513d601f19601f820116820180604052508101906113c491906128c0565b5050505050565b604051632474521560e21b8152600060048201523360248201527f00000000000000000000000000000000000000000000000000000000000000006001600160a01b0316906391d1485490604401602060405180830381865afa158015611436573d6000803e3d6000fd5b505050506040513d601f19601f8201168201806040525081019061145a91906128c0565b806114a45750336001600160a01b037f0000000000000000000000000000000000000000000000000000000000000000161480156114a45750600c80546114a090612886565b1590505b6114f05760405162461bcd60e51b815260206004820152601b60248201527f4f6e6c792063726561746f72206f722061646d696e2063616c6c730000000000604482015260640161074a565b6107eb600c8383612354565b80546001019055565b60006001600160e01b0319821663780e9d6360e01b1480610617575061061782611bba565b6000818152600260205260409020546001600160a01b0316610bbd5760405162461bcd60e51b8152602060048201526018602482015277115490cdcc8c4e881a5b9d985b1a59081d1bdad95b88125160421b604482015260640161074a565b600081815260046020526040902080546001600160a01b0319166001600160a01b03841690811790915581906115be82610c53565b6001600160a01b03167f8c5be1e5ebec7d5bd14f71427d1e84f3dd0314c0f7b2291e5b200ac8c7c3b92560405160405180910390a45050565b6000828152600260205260409020546001600160a01b03166116725760405162461bcd60e51b815260206004820152602e60248201527f45524337323155524953746f726167653a2055524920736574206f66206e6f6e60448201526d32bc34b9ba32b73a103a37b5b2b760911b606482015260840161074a565b6000828152600a6020908152604090912082516107eb928401906123d8565b60008061169d83610c53565b9050806001600160a01b0316846001600160a01b031614806116c457506116c4818561106f565b806116e85750836001600160a01b03166116dd846106af565b6001600160a01b0316145b949350505050565b826001600160a01b031661170382610c53565b6001600160a01b0316146117675760405162461bcd60e51b815260206004820152602560248201527f4552433732313a207472616e736665722066726f6d20696e636f72726563742060448201526437bbb732b960d91b606482015260840161074a565b6001600160a01b0382166117c95760405162461bcd60e51b8152602060048201526024808201527f4552433732313a207472616e7366657220746f20746865207a65726f206164646044820152637265737360e01b606482015260840161074a565b6117d4838383611c0a565b6117df600082611589565b6001600160a01b038316600090815260036020526040812080546001929061180890849061298a565b90915550506001600160a01b03821660009081526003602052604081208054600192906118369084906129ed565b909155505060008181526002602052604080822080546001600160a01b0319166001600160a01b0386811691821790925591518493918716917fddf252ad1be2c89b69c2b068fc378daa952ba7f163c4a11628f55a4df523b3ef91a4505050565b60006118a2600d5490565b90506118b2600d80546001019055565b6118bc8482611c15565b610ef68184848080601f0160208091040260200160405190810160405280939291908181526020018383808284376000920191909152506115f792505050565b610bbd81611c2f565b600b546001600160a01b03163314610d4b5760405162461bcd60e51b815260206004820181905260248201527f4f776e61626c653a2063616c6c6572206973206e6f7420746865206f776e6572604482015260640161074a565b600b80546001600160a01b038381166001600160a01b0319831681179093556040519116919082907f8be0079c531659141344cd1fd0a4f28419497f9722a3daafe3b4186f6b6457e090600090a35050565b816001600160a01b0316836001600160a01b031603611a125760405162461bcd60e51b815260206004820152601960248201527f4552433732313a20617070726f766520746f2063616c6c657200000000000000604482015260640161074a565b6001600160a01b03838116600081815260056020908152604080832094871680845294825291829020805460ff191686151590811790915591519182527f17307eab39ab6107e8899845ad3d59bd9653f200f220920489ca2b5937696c31910160405180910390a3505050565b611a8a8484846116f0565b611a9684848484611c6f565b610ef65760405162461bcd60e51b815260040161074a90612a05565b6060611abd8261152a565b6000828152600a602052604081208054611ad690612886565b80601f0160208091040260200160405190810160405280929190818152602001828054611b0290612886565b8015611b4f5780601f10611b2457610100808354040283529160200191611b4f565b820191906000526020600020905b815481529060010190602001808311611b3257829003601f168201915b505050505090506000611b6d60408051602081019091526000815290565b90508051600003611b7f575092915050565b815115611bb1578082604051602001611b99929190612a57565b60405160208183030381529060405292505050919050565b6116e884611d70565b60006001600160e01b031982166380ac58cd60e01b1480611beb57506001600160e01b03198216635b5e139f60e01b145b8061061757506301ffc9a760e01b6001600160e01b0319831614610617565b6107eb838383611de3565b610d67828260405180602001604052806000815250611e9b565b611c3881611ece565b6000818152600a602052604090208054611c5190612886565b159050610bbd576000818152600a60205260408120610bbd9161244c565b60006001600160a01b0384163b15611d6557604051630a85bd0160e11b81526001600160a01b0385169063150b7a0290611cb3903390899088908890600401612a86565b6020604051808303816000875af1925050508015611cee575060408051601f3d908101601f19168201909252611ceb91810190612ac3565b60015b611d4b573d808015611d1c576040519150601f19603f3d011682016040523d82523d6000602084013e611d21565b606091505b508051600003611d435760405162461bcd60e51b815260040161074a90612a05565b805181602001fd5b6001600160e01b031916630a85bd0160e11b1490506116e8565b506001949350505050565b6060611d7b8261152a565b6000611d9260408051602081019091526000815290565b90506000815111611db25760405180602001604052806000815250611188565b80611dbc84611f75565b604051602001611dcd929190612a57565b6040516020818303038152906040529392505050565b6001600160a01b038316611e3e57611e3981600880546000838152600960205260408120829055600182018355919091527ff3f7a9fe364faab93b216da50a3214154f22a0a2b415b23a84c8169e8b636ee30155565b611e61565b816001600160a01b0316836001600160a01b031614611e6157611e618382612076565b6001600160a01b038216611e78576107eb81612113565b826001600160a01b0316826001600160a01b0316146107eb576107eb82826121c2565b611ea58383612206565b611eb26000848484611c6f565b6107eb5760405162461bcd60e51b815260040161074a90612a05565b6000611ed982610c53565b9050611ee781600084611c0a565b611ef2600083611589565b6001600160a01b0381166000908152600360205260408120805460019290611f1b90849061298a565b909155505060008281526002602052604080822080546001600160a01b0319169055518391906001600160a01b038416907fddf252ad1be2c89b69c2b068fc378daa952ba7f163c4a11628f55a4df523b3ef908390a45050565b606081600003611f9c5750506040805180820190915260018152600360fc1b602082015290565b8160005b8115611fc65780611fb081612ae0565b9150611fbf9050600a83612976565b9150611fa0565b60008167ffffffffffffffff811115611fe157611fe1612720565b6040519080825280601f01601f19166020018201604052801561200b576020820181803683370190505b5090505b84156116e85761202060018361298a565b915061202d600a86612af9565b6120389060306129ed565b60f81b81838151811061204d5761204d6129a1565b60200101906001600160f81b031916908160001a90535061206f600a86612976565b945061200f565b6000600161208384610cb3565b61208d919061298a565b6000838152600760205260409020549091508082146120e0576001600160a01b03841660009081526006602090815260408083208584528252808320548484528184208190558352600790915290208190555b5060009182526007602090815260408084208490556001600160a01b039094168352600681528383209183525290812055565b6008546000906121259060019061298a565b6000838152600960205260408120546008805493945090928490811061214d5761214d6129a1565b90600052602060002001549050806008838154811061216e5761216e6129a1565b60009182526020808320909101929092558281526009909152604080822084905585825281205560088054806121a6576121a6612b0d565b6001900381819060005260206000200160009055905550505050565b60006121cd83610cb3565b6001600160a01b039093166000908152600660209081526040808320868452825280832085905593825260079052919091209190915550565b6001600160a01b03821661225c5760405162461bcd60e51b815260206004820181905260248201527f4552433732313a206d696e7420746f20746865207a65726f2061646472657373604482015260640161074a565b6000818152600260205260409020546001600160a01b0316156122c15760405162461bcd60e51b815260206004820152601c60248201527f4552433732313a20746f6b656e20616c7265616479206d696e74656400000000604482015260640161074a565b6122cd60008383611c0a565b6001600160a01b03821660009081526003602052604081208054600192906122f69084906129ed565b909155505060008181526002602052604080822080546001600160a01b0319166001600160a01b03861690811790915590518392907fddf252ad1be2c89b69c2b068fc378daa952ba7f163c4a11628f55a4df523b3ef908290a45050565b82805461236090612886565b90600052602060002090601f01602090048101928261238257600085556123c8565b82601f1061239b5782800160ff198235161785556123c8565b828001600101855582156123c8579182015b828111156123c85782358255916020019190600101906123ad565b506123d4929150612482565b5090565b8280546123e490612886565b90600052602060002090601f01602090048101928261240657600085556123c8565b82601f1061241f57805160ff19168380011785556123c8565b828001600101855582156123c8579182015b828111156123c8578251825591602001919060010190612431565b50805461245890612886565b6000825580601f10612468575050565b601f016020900490600052602060002090810190610bbd91905b5b808211156123d45760008155600101612483565b6001600160e01b031981168114610bbd57600080fd5b6000602082840312156124bf57600080fd5b813561118881612497565b60005b838110156124e55781810151838201526020016124cd565b83811115610ef65750506000910152565b6000815180845261250e8160208601602086016124ca565b601f01601f19169290920160200192915050565b60208152600061118860208301846124f6565b60006020828403121561254757600080fd5b5035919050565b6001600160a01b0381168114610bbd57600080fd5b6000806040838503121561257657600080fd5b82356125818161254e565b946020939093013593505050565b60008083601f8401126125a157600080fd5b50813567ffffffffffffffff8111156125b957600080fd5b60208301915083602082850101111561095257600080fd5b6000806000604084860312156125e657600080fd5b83359250602084013567ffffffffffffffff81111561260457600080fd5b6126108682870161258f565b9497909650939450505050565b60008060006060848603121561263257600080fd5b833561263d8161254e565b9250602084013561264d8161254e565b929592945050506040919091013590565b6000806040838503121561267157600080fd5b50508035926020909101359150565b60008060006040848603121561269557600080fd5b83356126a08161254e565b9250602084013567ffffffffffffffff81111561260457600080fd5b6000602082840312156126ce57600080fd5b81356111888161254e565b8015158114610bbd57600080fd5b600080604083850312156126fa57600080fd5b82356127058161254e565b91506020830135612715816126d9565b809150509250929050565b634e487b7160e01b600052604160045260246000fd5b6000806000806080858703121561274c57600080fd5b84356127578161254e565b935060208501356127678161254e565b925060408501359150606085013567ffffffffffffffff8082111561278b57600080fd5b818701915087601f83011261279f57600080fd5b8135818111156127b1576127b1612720565b604051601f8201601f19908116603f011681019083821181831017156127d9576127d9612720565b816040528281528a60208487010111156127f257600080fd5b82602086016020830137600060208483010152809550505050505092959194509250565b6000806040838503121561282957600080fd5b82356128348161254e565b915060208301356127158161254e565b6000806020838503121561285757600080fd5b823567ffffffffffffffff81111561286e57600080fd5b61287a8582860161258f565b90969095509350505050565b600181811c9082168061289a57607f821691505b6020821081036128ba57634e487b7160e01b600052602260045260246000fd5b50919050565b6000602082840312156128d257600080fd5b8151611188816126d9565b6020808252602e908201527f4552433732313a2063616c6c6572206973206e6f7420746f6b656e206f776e6560408201526d1c881b9bdc88185c1c1c9bdd995960921b606082015260800190565b634e487b7160e01b600052601160045260246000fd5b600081600019048311821515161561295b5761295b61292b565b500290565b634e487b7160e01b600052601260045260246000fd5b60008261298557612985612960565b500490565b60008282101561299c5761299c61292b565b500390565b634e487b7160e01b600052603260045260246000fd5b6000602082840312156129c957600080fd5b5051919050565b6000602082840312156129e257600080fd5b81516111888161254e565b60008219821115612a0057612a0061292b565b500190565b60208082526032908201527f4552433732313a207472616e7366657220746f206e6f6e20455243373231526560408201527131b2b4bb32b91034b6b83632b6b2b73a32b960711b606082015260800190565b60008351612a698184602088016124ca565b835190830190612a7d8183602088016124ca565b01949350505050565b6001600160a01b0385811682528416602082015260408101839052608060608201819052600090612ab9908301846124f6565b9695505050505050565b600060208284031215612ad557600080fd5b815161118881612497565b600060018201612af257612af261292b565b5060010190565b600082612b0857612b08612960565b500690565b634e487b7160e01b600052603160045260246000fdfea2646970667358221220daf321f05c5ce453ae6404d46de99709e828381a0b3b7f337aa8d382521ae2ab64736f6c634300080e0033",
  "linkReferences": {},
  "deployedLinkReferences": {}
}