{
  "_format": "hh-sol-artifact-1",
  "contractName": "SageNFT",
  "sourceName": "contracts/NFT/SageNFT.sol",
  "abi": [
    {
      "inputs": [
        {
          "internalType": "string",
          "name": "_name",
          "type": "string"
        },
        {
          "internalType": "string",
          "name": "_symbol",
          "type": "string"
        },
        {
          "internalType": "address",
          "name": "_sageStorage",
          "type": "address"
        }
      ],
      "stateMutability": "nonpayable",
      "type": "constructor"
    },
    {
      "anonymous": false,
      "inputs": [
        {
          "indexed": true,
          "internalType": "address",
          "name": "owner",
          "type": "address"
        },
        {
          "indexed": true,
          "internalType": "address",
          "name": "approved",
          "type": "address"
        },
        {
          "indexed": true,
          "internalType": "uint256",
          "name": "tokenId",
          "type": "uint256"
        }
      ],
      "name": "Approval",
      "type": "event"
    },
    {
      "anonymous": false,
      "inputs": [
        {
          "indexed": true,
          "internalType": "address",
          "name": "owner",
          "type": "address"
        },
        {
          "indexed": true,
          "internalType": "address",
          "name": "operator",
          "type": "address"
        },
        {
          "indexed": false,
          "internalType": "bool",
          "name": "approved",
          "type": "bool"
        }
      ],
      "name": "ApprovalForAll",
      "type": "event"
    },
    {
      "anonymous": false,
      "inputs": [
        {
          "indexed": true,
          "internalType": "address",
          "name": "previousOwner",
          "type": "address"
        },
        {
          "indexed": true,
          "internalType": "address",
          "name": "newOwner",
          "type": "address"
        }
      ],
      "name": "OwnershipTransferred",
      "type": "event"
    },
    {
      "anonymous": false,
      "inputs": [
        {
          "indexed": true,
          "internalType": "address",
          "name": "from",
          "type": "address"
        },
        {
          "indexed": true,
          "internalType": "address",
          "name": "to",
          "type": "address"
        },
        {
          "indexed": true,
          "internalType": "uint256",
          "name": "tokenId",
          "type": "uint256"
        }
      ],
      "name": "Transfer",
      "type": "event"
    },
    {
      "inputs": [
        {
          "internalType": "address",
          "name": "to",
          "type": "address"
        },
        {
          "internalType": "uint256",
          "name": "tokenId",
          "type": "uint256"
        }
      ],
      "name": "approve",
      "outputs": [],
      "stateMutability": "nonpayable",
      "type": "function"
    },
    {
      "inputs": [
        {
          "internalType": "address",
          "name": "owner",
          "type": "address"
        }
      ],
      "name": "balanceOf",
      "outputs": [
        {
          "internalType": "uint256",
          "name": "",
          "type": "uint256"
        }
      ],
      "stateMutability": "view",
      "type": "function"
    },
    {
      "inputs": [
        {
          "internalType": "uint256",
          "name": "tokenId",
          "type": "uint256"
        }
      ],
      "name": "burn",
      "outputs": [],
      "stateMutability": "nonpayable",
      "type": "function"
    },
    {
      "inputs": [
        {
          "internalType": "uint256",
          "name": "id",
          "type": "uint256"
        }
      ],
      "name": "burnFromAuthorizedAddress",
      "outputs": [],
      "stateMutability": "nonpayable",
      "type": "function"
    },
    {
      "inputs": [
        {
          "internalType": "address",
          "name": "to",
          "type": "address"
        },
        {
          "internalType": "uint256",
          "name": "tokenId",
          "type": "uint256"
        },
        {
          "internalType": "string",
          "name": "uri",
          "type": "string"
        }
      ],
      "name": "creatorMint",
      "outputs": [],
      "stateMutability": "nonpayable",
      "type": "function"
    },
    {
      "inputs": [
        {
          "internalType": "uint256",
          "name": "tokenId",
          "type": "uint256"
        }
      ],
      "name": "getApproved",
      "outputs": [
        {
          "internalType": "address",
          "name": "",
          "type": "address"
        }
      ],
      "stateMutability": "view",
      "type": "function"
    },
    {
      "inputs": [
        {
          "internalType": "address",
          "name": "owner",
          "type": "address"
        },
        {
          "internalType": "address",
          "name": "operator",
          "type": "address"
        }
      ],
      "name": "isApprovedForAll",
      "outputs": [
        {
          "internalType": "bool",
          "name": "",
          "type": "bool"
        }
      ],
      "stateMutability": "view",
      "type": "function"
    },
    {
      "inputs": [],
      "name": "name",
      "outputs": [
        {
          "internalType": "string",
          "name": "",
          "type": "string"
        }
      ],
      "stateMutability": "view",
      "type": "function"
    },
    {
      "inputs": [],
      "name": "owner",
      "outputs": [
        {
          "internalType": "address",
          "name": "",
          "type": "address"
        }
      ],
      "stateMutability": "view",
      "type": "function"
    },
    {
      "inputs": [
        {
          "internalType": "uint256",
          "name": "tokenId",
          "type": "uint256"
        }
      ],
      "name": "ownerOf",
      "outputs": [
        {
          "internalType": "address",
          "name": "",
          "type": "address"
        }
      ],
      "stateMutability": "view",
      "type": "function"
    },
    {
      "inputs": [],
      "name": "renounceOwnership",
      "outputs": [],
      "stateMutability": "nonpayable",
      "type": "function"
    },
    {
      "inputs": [
        {
          "internalType": "uint256",
          "name": "tokenId",
          "type": "uint256"
        },
        {
          "internalType": "uint256",
          "name": "salePrice",
          "type": "uint256"
        }
      ],
      "name": "royaltyInfo",
      "outputs": [
        {
          "internalType": "address",
          "name": "",
          "type": "address"
        },
        {
          "internalType": "uint256",
          "name": "",
          "type": "uint256"
        }
      ],
      "stateMutability": "view",
      "type": "function"
    },
    {
      "inputs": [
        {
          "internalType": "address",
          "name": "to",
          "type": "address"
        },
        {
          "internalType": "uint256",
          "name": "tokenId",
          "type": "uint256"
        },
        {
          "internalType": "string",
          "name": "uri",
          "type": "string"
        }
      ],
      "name": "safeMint",
      "outputs": [],
      "stateMutability": "nonpayable",
      "type": "function"
    },
    {
      "inputs": [
        {
          "internalType": "address",
          "name": "from",
          "type": "address"
        },
        {
          "internalType": "address",
          "name": "to",
          "type": "address"
        },
        {
          "internalType": "uint256",
          "name": "tokenId",
          "type": "uint256"
        }
      ],
      "name": "safeTransferFrom",
      "outputs": [],
      "stateMutability": "nonpayable",
      "type": "function"
    },
    {
      "inputs": [
        {
          "internalType": "address",
          "name": "from",
          "type": "address"
        },
        {
          "internalType": "address",
          "name": "to",
          "type": "address"
        },
        {
          "internalType": "uint256",
          "name": "tokenId",
          "type": "uint256"
        },
        {
          "internalType": "bytes",
          "name": "_data",
          "type": "bytes"
        }
      ],
      "name": "safeTransferFrom",
      "outputs": [],
      "stateMutability": "nonpayable",
      "type": "function"
    },
    {
      "inputs": [
        {
          "internalType": "address",
          "name": "operator",
          "type": "address"
        },
        {
          "internalType": "bool",
          "name": "approved",
          "type": "bool"
        }
      ],
      "name": "setApprovalForAll",
      "outputs": [],
      "stateMutability": "nonpayable",
      "type": "function"
    },
    {
      "inputs": [
        {
          "internalType": "bytes4",
          "name": "interfaceId",
          "type": "bytes4"
        }
      ],
      "name": "supportsInterface",
      "outputs": [
        {
          "internalType": "bool",
          "name": "",
          "type": "bool"
        }
      ],
      "stateMutability": "view",
      "type": "function"
    },
    {
      "inputs": [],
      "name": "symbol",
      "outputs": [
        {
          "internalType": "string",
          "name": "",
          "type": "string"
        }
      ],
      "stateMutability": "view",
      "type": "function"
    },
    {
      "inputs": [
        {
          "internalType": "uint256",
          "name": "index",
          "type": "uint256"
        }
      ],
      "name": "tokenByIndex",
      "outputs": [
        {
          "internalType": "uint256",
          "name": "",
          "type": "uint256"
        }
      ],
      "stateMutability": "view",
      "type": "function"
    },
    {
      "inputs": [
        {
          "internalType": "address",
          "name": "owner",
          "type": "address"
        },
        {
          "internalType": "uint256",
          "name": "index",
          "type": "uint256"
        }
      ],
      "name": "tokenOfOwnerByIndex",
      "outputs": [
        {
          "internalType": "uint256",
          "name": "",
          "type": "uint256"
        }
      ],
      "stateMutability": "view",
      "type": "function"
    },
    {
      "inputs": [
        {
          "internalType": "uint256",
          "name": "tokenId",
          "type": "uint256"
        }
      ],
      "name": "tokenURI",
      "outputs": [
        {
          "internalType": "string",
          "name": "",
          "type": "string"
        }
      ],
      "stateMutability": "view",
      "type": "function"
    },
    {
      "inputs": [],
      "name": "totalSupply",
      "outputs": [
        {
          "internalType": "uint256",
          "name": "",
          "type": "uint256"
        }
      ],
      "stateMutability": "view",
      "type": "function"
    },
    {
      "inputs": [
        {
          "internalType": "address",
          "name": "from",
          "type": "address"
        },
        {
          "internalType": "address",
          "name": "to",
          "type": "address"
        },
        {
          "internalType": "uint256",
          "name": "tokenId",
          "type": "uint256"
        }
      ],
      "name": "transferFrom",
      "outputs": [],
      "stateMutability": "nonpayable",
      "type": "function"
    },
    {
      "inputs": [
        {
          "internalType": "address",
          "name": "newOwner",
          "type": "address"
        }
      ],
      "name": "transferOwnership",
      "outputs": [],
      "stateMutability": "nonpayable",
      "type": "function"
    },
    {
      "inputs": [],
      "name": "withdraw",
      "outputs": [],
      "stateMutability": "nonpayable",
      "type": "function"
    },
    {
      "inputs": [
        {
          "internalType": "address",
          "name": "erc20",
          "type": "address"
        }
      ],
      "name": "withdrawERC20",
      "outputs": [],
      "stateMutability": "nonpayable",
      "type": "function"
    },
    {
      "stateMutability": "payable",
      "type": "receive"
    }
  ],
  "bytecode": "0x60a060405234620000bc5762002f16803803806200001d81620000d8565b928339810190606081830312620000bc5780516001600160401b039290838111620000bc5781620000509184016200010d565b926020830151908111620000bc576040916200006e9184016200010d565b910151906001600160a01b0382168203620000bc576200008e92620001a1565b604051612a02908162000514823960805181818161078d01528181610ea40152818161110001526128ed0152f35b600080fd5b50634e487b7160e01b600052604160045260246000fd5b6040519190601f01601f191682016001600160401b03811183821017620000fe57604052565b62000108620000c1565b604052565b81601f82011215620000bc578051906001600160401b03821162000191575b60209062000143601f8401601f19168301620000d8565b93838552828483010111620000bc5782906000905b8383831062000178575050116200016e57505090565b6000918301015290565b8193508281939201015182828801015201839162000158565b6200019b620000c1565b6200012c565b80519091906001600160401b038111620002c2575b600090620001d081620001ca8454620002d2565b6200030f565b602080601f83116001146200022e575081906200020995849262000222575b50508160011b916000199060031b1c1916179055620003c3565b6200021433620004c5565b6001600160a01b0316608052565b015190503880620001ef565b60008052939492939192601f1984167f290decd9548b62a8d60345a988386fc84ba6bc95484008f6362f93160ef3e5639386905b828210620002a95750509160019391856200020998979694106200028f575b505050811b019055620003c3565b015160001960f88460031b161c1916905538808062000281565b8060018697829497870151815501960194019062000262565b620002cc620000c1565b620001b6565b90600182811c9216801562000304575b6020831014620002ee57565b634e487b7160e01b600052602260045260246000fd5b91607f1691620002e2565b601f81116200031c575050565b60009081805260208220906020601f850160051c830194106200035c575b601f0160051c01915b8281106200035057505050565b81815560010162000343565b90925082906200033a565b90601f821162000375575050565b60019160009083825260208220906020601f850160051c83019410620003b8575b601f0160051c01915b828110620003ad5750505050565b81815583016200039f565b909250829062000396565b80519091906001600160401b038111620004b5575b600190620003f281620003ec8454620002d2565b62000367565b602080601f83116001146200043057508192939460009262000424575b5050600019600383901b1c191690821b179055565b0151905038806200040f565b6001600052601f198316959091907fb10e2d527612073b26eecdfd717e6a320cf44b4afac2b0732d9fcbe2b7fa0cf6926000905b8882106200049d575050838596971062000483575b505050811b019055565b015160001960f88460031b161c1916905538808062000479565b80878596829496860151815501950193019062000464565b620004bf620000c1565b620003d8565b600b80546001600160a01b039283166001600160a01b031982168117909255604051919216907f8be0079c531659141344cd1fd0a4f28419497f9722a3daafe3b4186f6b6457e090600090a356fe6080604052600436101561001b575b361561001957600080fd5b005b60003560e01c806301ffc9a71461022357806306fdde031461021a578063081812fc14610211578063095ea7b31461020857806318160ddd146101ff57806323b872dd146101f65780632a55205a146101ed5780632f745c59146101e45780633ccfd60b146101db57806342842e0e146101d257806342966c68146101c95780634f6ccce7146101c05780636352211e146101b757806370a08231146101ae578063715018a6146101a55780638da5cb5b1461019c57806395d89b4114610193578063a22cb4651461018a578063a3299d2b14610181578063a82670d314610178578063b88d4fde1461016f578063c87b56dd14610166578063cd279c7c1461015d578063e985e9c514610154578063f2fde38b1461014b5763f4f3b2000361000e57610146611245565b61000e565b506101466111aa565b5061014661116b565b50610146611097565b50610146611063565b50610146610ffa565b50610146610e36565b50610146610df2565b50610146610ca6565b50610146610bf6565b50610146610bcc565b50610146610b67565b50610146610b37565b50610146610b18565b50610146610a6c565b50610146610839565b50610146610810565b50610146610710565b50610146610658565b50610146610609565b506101466105df565b50610146610594565b50610146610471565b5061014661042f565b50610146610354565b50610146610243565b6001600160e01b031981160361023e57565b600080fd5b503461023e57602036600319011261023e5760206004356102638161022c565b63ffffffff60e01b1663152a902d60e11b8114908115610289575b506040519015158152f35b63780e9d6360e01b8114915081156102a3575b503861027e565b6380ac58cd60e01b8114915081156102d5575b81156102c4575b503861029c565b6301ffc9a760e01b149050386102bd565b635b5e139f60e01b811491506102b6565b918091926000905b8282106103065750116102ff575050565b6000910152565b915080602091830151818601520182916102ee565b90602091610334815180928185528580860191016102e6565b601f01601f1916010190565b90602061035192818152019061031b565b90565b503461023e5760008060031936011261042c576040519080805461037781611437565b8085529160019180831690811561040b57506001146103b1575b6103ad856103a181870382610f76565b60405191829182610340565b0390f35b80809450527f290decd9548b62a8d60345a988386fc84ba6bc95484008f6362f93160ef3e5635b8284106103f35750505081016020016103a1826103ad610391565b805460208587018101919091529093019281016103d8565b60ff1916602087015250506040840192506103a191508390506103ad610391565b80fd5b503461023e57602036600319011261023e57602061044e600435611513565b6040516001600160a01b039091168152f35b6001600160a01b0381160361023e57565b503461023e57604036600319011261023e5760043561048f81610460565b60243561049b816113bf565b6001600160a01b038181169084168114610545573314908115610533575b50156104c857610019916119dc565b60405162461bcd60e51b815260206004820152603860248201527f4552433732313a20617070726f76652063616c6c6572206973206e6f74206f7760448201527f6e6572206e6f7220617070726f76656420666f7220616c6c00000000000000006064820152608490fd5b61053f91503390612886565b386104b9565b60405162461bcd60e51b815260206004820152602160248201527f4552433732313a20617070726f76616c20746f2063757272656e74206f776e656044820152603960f91b6064820152608490fd5b503461023e57600036600319011261023e576020600854604051908152f35b606090600319011261023e576004356105cb81610460565b906024356105d881610460565b9060443590565b503461023e576100196105f1366105b3565b916106046105ff84336116c1565b6115a5565b61186f565b503461023e57604036600319011261023e576103e860243580151560001982900483111661064b575b6040805130815261271093909202929092046020820152f35b6106536117eb565b610632565b503461023e57604036600319011261023e5760043561067681610460565b6024359061068381611347565b8210156106b7576001600160a01b031660009081526006602090815260408083209383529281529082902054915191825290f35b60405162461bcd60e51b815260206004820152602b60248201527f455243373231456e756d657261626c653a206f776e657220696e646578206f7560448201526a74206f6620626f756e647360a81b6064820152608490fd5b503461023e57600036600319011261023e57604051693937b6329730b236b4b760b11b602082019081523360601b6bffffffffffffffffffffffff1916602a8301526107cd9161076d81603e81015b03601f198101835282610f76565b519020604051633d70e7e560e11b815260048101919091526020816024817f00000000000000000000000000000000000000000000000000000000000000006001600160a01b03165afa908115610803575b6000916107d5575b50611f4a565b61001961211a565b6107f6915060203d81116107fc575b6107ee8183610f76565b810190611ef5565b386107c7565b503d6107e4565b61080b611ab3565b6107bf565b503461023e57610019610822366105b3565b906040519261083084610f31565b6000845261161e565b503461023e57602036600319011261023e5760043561085881336116c1565b15610a0e57806000610869826113bf565b6001600160a01b038116906108b5908215841461093a5761088985612311565b6108928561238a565b61089b85611986565b6001600160a01b0316600090815260036020526040902090565b6108bf8154611802565b90556108e86108d8846000526002602052604060002090565b80546001600160a01b0319169055565b6000805160206129ad83398151915282604051a461091861091382600052600a602052604060002090565b61249f565b61091e57005b61093561001991600052600a602052604060002090565b6124a9565b61094381611347565b60018110610a01575b8419016109a88591878352600760205260408320548181036109ae575b508261097f896000526007602052604060002090565b556001600160a01b03841660009081526006602052604090205b90600052602052604060002090565b55610889565b8684526006602052604084208285526020526109fa6040852054806109e9846109998a60018060a01b03166000526006602052604060002090565b556000526007602052604060002090565b5538610969565b610a096117eb565b61094c565b60405162461bcd60e51b815260206004820152603060248201527f4552433732314275726e61626c653a2063616c6c6572206973206e6f74206f7760448201526f1b995c881b9bdc88185c1c1c9bdd995960821b6064820152608490fd5b503461023e57602036600319011261023e57600435600854811015610abe5760086000527ff3f7a9fe364faab93b216da50a3214154f22a0a2b415b23a84c8169e8b636ee30154604051908152602090f35b60405162461bcd60e51b815260206004820152602c60248201527f455243373231456e756d657261626c653a20676c6f62616c20696e646578206f60448201526b7574206f6620626f756e647360a01b6064820152608490fd5b503461023e57602036600319011261023e57602061044e6004356113bf565b503461023e57602036600319011261023e576020610b5f600435610b5a81610460565b611347565b604051908152f35b503461023e5760008060031936011261042c57600b546001600160a01b03811690610b933383146112ac565b6001600160a01b031916600b556040519082907f8be0079c531659141344cd1fd0a4f28419497f9722a3daafe3b4186f6b6457e08284a3f35b503461023e57600036600319011261023e57600b546040516001600160a01b039091168152602090f35b503461023e5760008060031936011261042c5760405190806001805491610c1c83611437565b8086529282811690811561040b5750600114610c42576103ad856103a181870382610f76565b92508083527fb10e2d527612073b26eecdfd717e6a320cf44b4afac2b0732d9fcbe2b7fa0cf65b828410610c845750505081016020016103a1826103ad610391565b80546020858701810191909152909301928101610c69565b8015150361023e57565b503461023e57604036600319011261023e57600435610cc481610460565b602435610cd081610c9c565b6001600160a01b03821691338314610d525781610d0f610d209233600052600560205260406000209060018060a01b0316600052602052604060002090565b9060ff801983541691151516179055565b604051901515815233907f17307eab39ab6107e8899845ad3d59bd9653f200f220920489ca2b5937696c3190602090a3005b60405162461bcd60e51b815260206004820152601960248201527f4552433732313a20617070726f766520746f2063616c6c6572000000000000006044820152606490fd5b90606060031983011261023e57600435610db081610460565b916024359160443567ffffffffffffffff9283821161023e578060238301121561023e57816004013593841161023e576024848301011161023e576024019190565b503461023e57610019610e29610e30610e0a36610d97565b9180959193610e2460018060a01b03600b541633146112ac565b611c04565b3691610fc3565b90611d91565b503461023e57602036600319011261023e57610ee4610ea06020604051818101906a3937b63297313ab93732b960a91b82523360601b602b820152601f8152610e7e81610f5a565b51902060405180938192633d70e7e560e11b8352600483019190602083019252565b03817f00000000000000000000000000000000000000000000000000000000000000006001600160a01b03165afa908115610f0d575b600091610eef575b5061258d565b6100196004356124f5565b610f07915060203d81116107fc576107ee8183610f76565b38610ede565b610f15611ab3565b610ed6565b50634e487b7160e01b600052604160045260246000fd5b6020810190811067ffffffffffffffff821117610f4d57604052565b610f55610f1a565b604052565b6040810190811067ffffffffffffffff821117610f4d57604052565b90601f8019910116810190811067ffffffffffffffff821117610f4d57604052565b60209067ffffffffffffffff8111610fb6575b601f01601f19160190565b610fbe610f1a565b610fab565b929192610fcf82610f98565b91610fdd6040519384610f76565b82948184528183011161023e578281602093846000960137010152565b503461023e57608036600319011261023e5760043561101881610460565b60243561102481610460565b6064359167ffffffffffffffff831161023e573660238401121561023e57611059610019933690602481600401359101610fc3565b916044359161161e565b503461023e57602036600319011261023e576103ad6110836004356125e0565b60405191829160208352602083019061031b565b503461023e57610019610e29610e306110af36610d97565b9180959193610e246110fc602060405181810190610e7e8161075f3385601f916a3937b6329736b4b73a32b960a91b82526bffffffffffffffffffffffff199060601b16600b8201520190565b03817f00000000000000000000000000000000000000000000000000000000000000006001600160a01b03165afa90811561115e575b600091611140575b50611f0a565b611158915060203d81116107fc576107ee8183610f76565b3861113a565b611166611ab3565b611132565b503461023e57604036600319011261023e5760206111a060043561118e81610460565b6024359061119b82610460565b612886565b6040519015158152f35b503461023e57602036600319011261023e576004356111c881610460565b600b546001600160a01b03906111e190821633146112ac565b8116156111f157610019906112f7565b60405162461bcd60e51b815260206004820152602660248201527f4f776e61626c653a206e6577206f776e657220697320746865207a65726f206160448201526564647265737360d01b6064820152608490fd5b503461023e57602036600319011261023e5761001960043561126681610460565b604051693937b6329730b236b4b760b11b602082019081523360601b6bffffffffffffffffffffffff1916602a8301526112a79161076d81603e810161075f565b611fbb565b156112b357565b606460405162461bcd60e51b815260206004820152602060248201527f4f776e61626c653a2063616c6c6572206973206e6f7420746865206f776e65726044820152fd5b600b549060018060a01b0380911691826bffffffffffffffffffffffff60a01b821617600b55167f8be0079c531659141344cd1fd0a4f28419497f9722a3daafe3b4186f6b6457e06000604051a3565b6001600160a01b0316801561136757600052600360205260406000205490565b60405162461bcd60e51b815260206004820152602a60248201527f4552433732313a2062616c616e636520717565727920666f7220746865207a65604482015269726f206164647265737360b01b6064820152608490fd5b6000908152600260205260409020546001600160a01b031680156113e05790565b60405162461bcd60e51b815260206004820152602960248201527f4552433732313a206f776e657220717565727920666f72206e6f6e657869737460448201526832b73a103a37b5b2b760b91b6064820152608490fd5b90600182811c92168015611467575b602083101461145157565b634e487b7160e01b600052602260045260246000fd5b91607f1691611446565b906040519182600082549261148584611437565b9081845260019485811690816000146114f457506001146114b1575b50506114af92500383610f76565b565b9093915060005260209081600020936000915b8183106114dc5750506114af935082010138806114a1565b855488840185015294850194879450918301916114c4565b9550505050505060ff191660208301526114af826040810138806114a1565b6000818152600260205260409020546001600160a01b03161561154b576000908152600460205260409020546001600160a01b031690565b60405162461bcd60e51b815260206004820152602c60248201527f4552433732313a20617070726f76656420717565727920666f72206e6f6e657860448201526b34b9ba32b73a103a37b5b2b760a11b6064820152608490fd5b156115ac57565b60405162461bcd60e51b815260206004820152603160248201527f4552433732313a207472616e736665722063616c6c6572206973206e6f74206f6044820152701ddb995c881b9bdc88185c1c1c9bdd9959607a1b6064820152608490fd5b6040519061161882610f31565b60008252565b916114af9391611645936116356105ff84336116c1565b61164083838361186f565b611bb1565b61169d565b60809060208152603260208201527f4552433732313a207472616e7366657220746f206e6f6e20455243373231526560408201527131b2b4bb32b91034b6b83632b6b2b73a32b960711b60608201520190565b156116a457565b60405162461bcd60e51b8152806116bd6004820161164a565b0390fd5b6000828152600260205260409020546001600160a01b031615611739576116e7826113bf565b9160018060a01b0390818316928285168414948515611726575b50508315611710575b50505090565b61171c91929350611513565b161438808061170a565b611731929550612886565b923880611701565b60405162461bcd60e51b815260206004820152602c60248201527f4552433732313a206f70657261746f7220717565727920666f72206e6f6e657860448201526b34b9ba32b73a103a37b5b2b760a11b6064820152608490fd5b1561179a57565b60405162461bcd60e51b8152602060048201526024808201527f4552433732313a207472616e7366657220746f20746865207a65726f206164646044820152637265737360e01b6064820152608490fd5b50634e487b7160e01b600052601160045260246000fd5b60018110611812575b6000190190565b61181a6117eb565b61180b565b81811061182a570390565b6118326117eb565b0390565b6001906001198111611846570190565b61184e6117eb565b0190565b8019603011611862575b60300190565b61186a6117eb565b61185c565b90611879836113bf565b6001600160a01b038381169290918216839003611933576118b961191c928216946118a5861515611793565b6118b08784836121d4565b61089b87611986565b6118c38154611802565b90556001600160a01b03811660009081526003602052604090206118e78154611836565b90556118fd856000526002602052604060002090565b80546001600160a01b0319166001600160a01b03909216919091179055565b6000805160206129ad8339815191526000604051a4565b60405162461bcd60e51b815260206004820152602560248201527f4552433732313a207472616e736665722066726f6d20696e636f72726563742060448201526437bbb732b960d91b6064820152608490fd5b600081815260046020526040812080546001600160a01b03191690556001600160a01b036119b3836113bf565b167f8c5be1e5ebec7d5bd14f71427d1e84f3dd0314c0f7b2291e5b200ac8c7c3b92582604051a4565b600082815260046020526040902080546001600160a01b0319166001600160a01b0383161790556001600160a01b0380611a15846113bf565b169116907f8c5be1e5ebec7d5bd14f71427d1e84f3dd0314c0f7b2291e5b200ac8c7c3b9256000604051a4565b9081602091031261023e57516103518161022c565b610351939260809260018060a01b03168252600060208301526040820152816060820152019061031b565b6001600160a01b0391821681529116602082015260408101919091526080606082018190526103519291019061031b565b506040513d6000823e3d90fd5b3d15611aeb573d90611ad182610f98565b91611adf6040519384610f76565b82523d6000602084013e565b606090565b909190803b15611ba957611b22602091600093604051948580948193630a85bd0160e11b998a84523360048501611a57565b03926001600160a01b03165af160009181611b79575b50611b6b57611b45611ac0565b80519081611b665760405162461bcd60e51b8152806116bd6004820161164a565b602001fd5b6001600160e01b0319161490565b611b9b91925060203d8111611ba2575b611b938183610f76565b810190611a42565b9038611b38565b503d611b89565b505050600190565b92909190823b15611be457611b22926020926000604051809681958294630a85bd0160e11b9a8b85523360048601611a82565b50505050600190565b50634e487b7160e01b600052603260045260246000fd5b90604051611c1181610f31565b600081526001600160a01b038316918215611cf1576000818152600260205260409020546001600160a01b0316611cac57838161164594611c55826114af986121a9565b6001600160a01b0383166000908152600360205260409020611c778154611836565b9055611c91836118fd846000526002602052604060002090565b60006000805160206129ad83398151915281604051a4611af0565b60405162461bcd60e51b815260206004820152601c60248201527f4552433732313a20746f6b656e20616c7265616479206d696e746564000000006044820152606490fd5b606460405162461bcd60e51b815260206004820152602060248201527f4552433732313a206d696e7420746f20746865207a65726f20616464726573736044820152fd5b818110611d40575050565b60008155600101611d35565b9190601f8111611d5b57505050565b6114af926000526020600020906020601f840160051c83019310611d87575b601f0160051c0190611d35565b9091508190611d7a565b6000818152600260205260409020549192916001600160a01b031615611e99576000526020600a815260406000209083519067ffffffffffffffff8211611e8c575b611de782611de18554611437565b85611d4c565b80601f8311600114611e21575081929394600092611e16575b50508160011b916000199060031b1c1916179055565b015190503880611e00565b90601f19831695611e3785600052602060002090565b926000905b888210611e7457505083600195969710611e5b575b505050811b019055565b015160001960f88460031b161c19169055388080611e51565b80600185968294968601518155019501930190611e3c565b611e94610f1a565b611dd3565b60405162461bcd60e51b815260206004820152602e60248201527f45524337323155524953746f726167653a2055524920736574206f66206e6f6e60448201526d32bc34b9ba32b73a103a37b5b2b760911b6064820152608490fd5b9081602091031261023e575161035181610c9c565b15611f1157565b60405162461bcd60e51b81526020600482015260116024820152704e6f206d696e74696e672072696768747360781b6044820152606490fd5b15611f5157565b60405162461bcd60e51b815260206004820152601060248201526f41646d696e2063616c6c73206f6e6c7960801b6044820152606490fd5b9081602091031261023e575190565b611f40908060001904821181151516611faf570290565b611fb76117eb565b0290565b6040516370a0823160e01b815230600482015260209161207b9183916001600160a01b03168282602481845afa91821561210d575b6000926120de575b5061205761201061200884611f98565b612710900490565b600b5460405163a9059cbb60e01b8082526001600160a01b0390921660048201526024810183905290949086816044816000895af180156120d1575b6120b4575b5061181f565b60405192835233600484015260248301529092839190829060009082906044820190565b03925af180156120a7575b61208e575050565b816120a492903d106107fc576107ee8183610f76565b50565b6120af611ab3565b612086565b6120ca90873d89116107fc576107ee8183610f76565b5038612051565b6120d9611ab3565b61204c565b6120ff919250833d8511612106575b6120f78183610f76565b810190611f89565b9038611ff8565b503d6120ed565b612115611ab3565b611ff0565b61212330611347565b612710611f40826000190481118315151661219c575b8202049060018060a01b03600b54169160008080809584604051915af161215e611ac0565b50156121985782828282949383941061218b575b6040519103335af1612182611ac0565b501561042c5750565b6121936117eb565b612172565b8280fd5b6121a46117eb565b612139565b906121b381612311565b6001600160a01b0382166121cb576114af915061238a565b6114af916122d9565b9091906001600160a01b03808216918261220e57506121f283612311565b8316806122055750506114af915061238a565b036121cb575050565b818516830361221e575b506121f2565b61228361222a82611347565b600181106122cc575b600019016109996000938785526007602052604085205483810361228a575b5084612268896000526007602052604060002090565b556001600160a01b0316600090815260066020526040902090565b5538612218565b8786526006602052604086208487526020526122c56040872054806109e9846109998760018060a01b03166000526006602052604060002090565b5538612252565b6122d46117eb565b612233565b6040906122e581611347565b9260009160018060a01b0316825260066020528282208483526020528083832055815260076020522055565b600854816000526009602052806040600020556801000000000000000081101561237d575b6001810180600855811015612370575b60086000527ff3f7a9fe364faab93b216da50a3214154f22a0a2b415b23a84c8169e8b636ee30155565b612378611bed565b612346565b612385610f1a565b612336565b6008805460018110612492575b60009083825260096020528161243960408220549560001996848881011015612485575b8684526124287ff3f7a9fe364faab93b216da50a3214154f22a0a2b415b23a84c8169e8b636ee2958681015490831015612478575b88865280837ff3f7a9fe364faab93b216da50a3214154f22a0a2b415b23a84c8169e8b636ee301556000526009602052604060002090565b556000526009602052604060002090565b5582549384156124645784019380851015612457575b838352015555565b61245f611bed565b61244f565b634e487b7160e01b83526031600452602483fd5b612480611bed565b6123f0565b61248d611bed565b6123bb565b61249a6117eb565b612397565b6103519054611437565b6124b38154611437565b90816124bd575050565b81601f600093116001146124cf575055565b818352602083206124eb91601f0160051c810190600101611d35565b8160208120915555565b806000612501826113bf565b6001600160a01b03811690612521908215841461093a5761088985612311565b61252b8154611802565b90556125446108d8846000526002602052604060002090565b6000805160206129ad83398151915282604051a461256f61091382600052600a602052604060002090565b6125765750565b6109356114af91600052600a602052604060002090565b1561259457565b60405162461bcd60e51b81526020600482015260116024820152704e6f206275726e696e672072696768747360781b6044820152606490fd5b9061184e602092828151948592016102e6565b6000818152600260205260409020546001600160a01b0316156126615761261961261482600052600a602052604060002090565b611471565b9061262261160b565b80511561265c57825161263a575061035191506126c0565b610351915061075f6126569360405194859360208501906125cd565b906125cd565b505090565b60405162461bcd60e51b815260206004820152603160248201527f45524337323155524953746f726167653a2055524920717565727920666f72206044820152703737b732bc34b9ba32b73a103a37b5b2b760791b6064820152608490fd5b6000818152600260205260409020546001600160a01b03161561271c576126e561160b565b805190919015612712576126569161075f61270261035193612798565b60405194859360208501906125cd565b505061035161160b565b60405162461bcd60e51b815260206004820152602f60248201527f4552433732314d657461646174613a2055524920717565727920666f72206e6f60448201526e3732bc34b9ba32b73a103a37b5b2b760891b6064820152608490fd5b90602091805182101561278b57010190565b612793611bed565b010190565b801561285357806000908282935b61282d57506127b483610f98565b926127c26040519485610f76565b80845281601f196127d283610f98565b013660208701375b6127e45750505090565b6127ed90611802565b90600a90612818612808612802848406611852565b60ff1690565b60f81b6001600160f81b03191690565b841a6128248487612779565b530490816127da565b926001600a916000198114612846575b019304806127a6565b61284e6117eb565b61283d565b5060405161286081610f5a565b60018152600360fc1b602082015290565b9081602091031261023e575161035181610460565b60405172616464726573732e6d61726b6574706c61636560681b602082019081526128da916128b8816033810161075f565b5190206040516321f8a72160e01b815260048101919091529081906024820190565b6001600160a01b039160209184919003817f000000000000000000000000000000000000000000000000000000000000000085165afa91821561299f575b60009261296f575b50808416911614612968576001600160a01b0316600090815260056020526040902061035191612961919060018060a01b0316600052602052604060002090565b5460ff1690565b5050600190565b61299191925060203d8111612998575b6129898183610f76565b810190612871565b9038612920565b503d61297f565b6129a7611ab3565b61291856feddf252ad1be2c89b69c2b068fc378daa952ba7f163c4a11628f55a4df523b3efa2646970667358221220e4569547c47d4f8551f263a05a288b8776431e4bc7967a71a675ff78b9ad16b764736f6c634300080e0033",
  "linkReferences": {},
  "deployedLinkReferences": {}
}