{
  "_format": "hh-sol-artifact-1",
  "contractName": "SageNFT",
  "sourceName": "contracts/NFT/SageNFT.sol",
  "abi": [
    {
      "inputs": [
        {
          "internalType": "string",
          "name": "_name",
          "type": "string"
        },
        {
          "internalType": "string",
          "name": "_symbol",
          "type": "string"
        },
        {
          "internalType": "address",
          "name": "_sageStorage",
          "type": "address"
        },
        {
          "internalType": "address",
          "name": "_artist",
          "type": "address"
        }
      ],
      "stateMutability": "nonpayable",
      "type": "constructor"
    },
    {
      "anonymous": false,
      "inputs": [
        {
          "indexed": true,
          "internalType": "address",
          "name": "owner",
          "type": "address"
        },
        {
          "indexed": true,
          "internalType": "address",
          "name": "approved",
          "type": "address"
        },
        {
          "indexed": true,
          "internalType": "uint256",
          "name": "tokenId",
          "type": "uint256"
        }
      ],
      "name": "Approval",
      "type": "event"
    },
    {
      "anonymous": false,
      "inputs": [
        {
          "indexed": true,
          "internalType": "address",
          "name": "owner",
          "type": "address"
        },
        {
          "indexed": true,
          "internalType": "address",
          "name": "operator",
          "type": "address"
        },
        {
          "indexed": false,
          "internalType": "bool",
          "name": "approved",
          "type": "bool"
        }
      ],
      "name": "ApprovalForAll",
      "type": "event"
    },
    {
      "anonymous": false,
      "inputs": [
        {
          "indexed": true,
          "internalType": "address",
          "name": "previousOwner",
          "type": "address"
        },
        {
          "indexed": true,
          "internalType": "address",
          "name": "newOwner",
          "type": "address"
        }
      ],
      "name": "OwnershipTransferred",
      "type": "event"
    },
    {
      "anonymous": false,
      "inputs": [
        {
          "indexed": true,
          "internalType": "address",
          "name": "from",
          "type": "address"
        },
        {
          "indexed": true,
          "internalType": "address",
          "name": "to",
          "type": "address"
        },
        {
          "indexed": true,
          "internalType": "uint256",
          "name": "tokenId",
          "type": "uint256"
        }
      ],
      "name": "Transfer",
      "type": "event"
    },
    {
      "inputs": [],
      "name": "DEFAULT_ADMIN_ROLE",
      "outputs": [
        {
          "internalType": "bytes32",
          "name": "",
          "type": "bytes32"
        }
      ],
      "stateMutability": "view",
      "type": "function"
    },
    {
      "inputs": [
        {
          "internalType": "address",
          "name": "to",
          "type": "address"
        },
        {
          "internalType": "uint256",
          "name": "tokenId",
          "type": "uint256"
        }
      ],
      "name": "approve",
      "outputs": [],
      "stateMutability": "nonpayable",
      "type": "function"
    },
    {
      "inputs": [],
      "name": "artist",
      "outputs": [
        {
          "internalType": "address",
          "name": "",
          "type": "address"
        }
      ],
      "stateMutability": "view",
      "type": "function"
    },
    {
      "inputs": [
        {
          "internalType": "address",
          "name": "to",
          "type": "address"
        },
        {
          "internalType": "string",
          "name": "uri",
          "type": "string"
        }
      ],
      "name": "artistMint",
      "outputs": [],
      "stateMutability": "nonpayable",
      "type": "function"
    },
    {
      "inputs": [
        {
          "internalType": "address",
          "name": "owner",
          "type": "address"
        }
      ],
      "name": "balanceOf",
      "outputs": [
        {
          "internalType": "uint256",
          "name": "",
          "type": "uint256"
        }
      ],
      "stateMutability": "view",
      "type": "function"
    },
    {
      "inputs": [
        {
          "internalType": "uint256",
          "name": "tokenId",
          "type": "uint256"
        }
      ],
      "name": "burn",
      "outputs": [],
      "stateMutability": "nonpayable",
      "type": "function"
    },
    {
      "inputs": [
        {
          "internalType": "uint256",
          "name": "_id",
          "type": "uint256"
        }
      ],
      "name": "burnFromAuthorizedAddress",
      "outputs": [],
      "stateMutability": "nonpayable",
      "type": "function"
    },
    {
      "inputs": [],
      "name": "contractURI",
      "outputs": [
        {
          "internalType": "string",
          "name": "",
          "type": "string"
        }
      ],
      "stateMutability": "view",
      "type": "function"
    },
    {
      "inputs": [
        {
          "internalType": "uint256",
          "name": "tokenId",
          "type": "uint256"
        }
      ],
      "name": "getApproved",
      "outputs": [
        {
          "internalType": "address",
          "name": "",
          "type": "address"
        }
      ],
      "stateMutability": "view",
      "type": "function"
    },
    {
      "inputs": [
        {
          "internalType": "address",
          "name": "owner",
          "type": "address"
        },
        {
          "internalType": "address",
          "name": "operator",
          "type": "address"
        }
      ],
      "name": "isApprovedForAll",
      "outputs": [
        {
          "internalType": "bool",
          "name": "",
          "type": "bool"
        }
      ],
      "stateMutability": "view",
      "type": "function"
    },
    {
      "inputs": [],
      "name": "name",
      "outputs": [
        {
          "internalType": "string",
          "name": "",
          "type": "string"
        }
      ],
      "stateMutability": "view",
      "type": "function"
    },
    {
      "inputs": [],
      "name": "owner",
      "outputs": [
        {
          "internalType": "address",
          "name": "",
          "type": "address"
        }
      ],
      "stateMutability": "view",
      "type": "function"
    },
    {
      "inputs": [
        {
          "internalType": "uint256",
          "name": "tokenId",
          "type": "uint256"
        }
      ],
      "name": "ownerOf",
      "outputs": [
        {
          "internalType": "address",
          "name": "",
          "type": "address"
        }
      ],
      "stateMutability": "view",
      "type": "function"
    },
    {
      "inputs": [],
      "name": "renounceOwnership",
      "outputs": [],
      "stateMutability": "nonpayable",
      "type": "function"
    },
    {
      "inputs": [
        {
          "internalType": "uint256",
          "name": "tokenId",
          "type": "uint256"
        },
        {
          "internalType": "uint256",
          "name": "salePrice",
          "type": "uint256"
        }
      ],
      "name": "royaltyInfo",
      "outputs": [
        {
          "internalType": "address",
          "name": "",
          "type": "address"
        },
        {
          "internalType": "uint256",
          "name": "",
          "type": "uint256"
        }
      ],
      "stateMutability": "view",
      "type": "function"
    },
    {
      "inputs": [
        {
          "internalType": "address",
          "name": "to",
          "type": "address"
        },
        {
          "internalType": "string",
          "name": "uri",
          "type": "string"
        }
      ],
      "name": "safeMint",
      "outputs": [],
      "stateMutability": "nonpayable",
      "type": "function"
    },
    {
      "inputs": [
        {
          "internalType": "address",
          "name": "from",
          "type": "address"
        },
        {
          "internalType": "address",
          "name": "to",
          "type": "address"
        },
        {
          "internalType": "uint256",
          "name": "tokenId",
          "type": "uint256"
        }
      ],
      "name": "safeTransferFrom",
      "outputs": [],
      "stateMutability": "nonpayable",
      "type": "function"
    },
    {
      "inputs": [
        {
          "internalType": "address",
          "name": "from",
          "type": "address"
        },
        {
          "internalType": "address",
          "name": "to",
          "type": "address"
        },
        {
          "internalType": "uint256",
          "name": "tokenId",
          "type": "uint256"
        },
        {
          "internalType": "bytes",
          "name": "_data",
          "type": "bytes"
        }
      ],
      "name": "safeTransferFrom",
      "outputs": [],
      "stateMutability": "nonpayable",
      "type": "function"
    },
    {
      "inputs": [
        {
          "internalType": "address",
          "name": "operator",
          "type": "address"
        },
        {
          "internalType": "bool",
          "name": "approved",
          "type": "bool"
        }
      ],
      "name": "setApprovalForAll",
      "outputs": [],
      "stateMutability": "nonpayable",
      "type": "function"
    },
    {
      "inputs": [
        {
          "internalType": "string",
          "name": "_contractMetadata",
          "type": "string"
        }
      ],
      "name": "setContractMetadata",
      "outputs": [],
      "stateMutability": "nonpayable",
      "type": "function"
    },
    {
      "inputs": [
        {
          "internalType": "uint256",
          "name": "_tokenId",
          "type": "uint256"
        },
        {
          "internalType": "string",
          "name": "_uri",
          "type": "string"
        }
      ],
      "name": "setTokenURI",
      "outputs": [],
      "stateMutability": "nonpayable",
      "type": "function"
    },
    {
      "inputs": [
        {
          "internalType": "bytes4",
          "name": "interfaceId",
          "type": "bytes4"
        }
      ],
      "name": "supportsInterface",
      "outputs": [
        {
          "internalType": "bool",
          "name": "",
          "type": "bool"
        }
      ],
      "stateMutability": "view",
      "type": "function"
    },
    {
      "inputs": [],
      "name": "symbol",
      "outputs": [
        {
          "internalType": "string",
          "name": "",
          "type": "string"
        }
      ],
      "stateMutability": "view",
      "type": "function"
    },
    {
      "inputs": [
        {
          "internalType": "uint256",
          "name": "index",
          "type": "uint256"
        }
      ],
      "name": "tokenByIndex",
      "outputs": [
        {
          "internalType": "uint256",
          "name": "",
          "type": "uint256"
        }
      ],
      "stateMutability": "view",
      "type": "function"
    },
    {
      "inputs": [
        {
          "internalType": "address",
          "name": "owner",
          "type": "address"
        },
        {
          "internalType": "uint256",
          "name": "index",
          "type": "uint256"
        }
      ],
      "name": "tokenOfOwnerByIndex",
      "outputs": [
        {
          "internalType": "uint256",
          "name": "",
          "type": "uint256"
        }
      ],
      "stateMutability": "view",
      "type": "function"
    },
    {
      "inputs": [
        {
          "internalType": "uint256",
          "name": "tokenId",
          "type": "uint256"
        }
      ],
      "name": "tokenURI",
      "outputs": [
        {
          "internalType": "string",
          "name": "",
          "type": "string"
        }
      ],
      "stateMutability": "view",
      "type": "function"
    },
    {
      "inputs": [],
      "name": "totalSupply",
      "outputs": [
        {
          "internalType": "uint256",
          "name": "",
          "type": "uint256"
        }
      ],
      "stateMutability": "view",
      "type": "function"
    },
    {
      "inputs": [
        {
          "internalType": "address",
          "name": "from",
          "type": "address"
        },
        {
          "internalType": "address",
          "name": "to",
          "type": "address"
        },
        {
          "internalType": "uint256",
          "name": "tokenId",
          "type": "uint256"
        }
      ],
      "name": "transferFrom",
      "outputs": [],
      "stateMutability": "nonpayable",
      "type": "function"
    },
    {
      "inputs": [
        {
          "internalType": "address",
          "name": "newOwner",
          "type": "address"
        }
      ],
      "name": "transferOwnership",
      "outputs": [],
      "stateMutability": "nonpayable",
      "type": "function"
    },
    {
      "inputs": [],
      "name": "withdraw",
      "outputs": [],
      "stateMutability": "nonpayable",
      "type": "function"
    },
    {
      "inputs": [
        {
          "internalType": "address",
          "name": "erc20",
          "type": "address"
        }
      ],
      "name": "withdrawERC20",
      "outputs": [],
      "stateMutability": "nonpayable",
      "type": "function"
    },
    {
      "stateMutability": "payable",
      "type": "receive"
    }
  ],
  "bytecode": "0x60c06040523480156200001157600080fd5b506040516200309a3803806200309a8339810160408190526200003491620002a4565b8351849084906200004d90600090602085019062000114565b5080516200006390600190602084019062000114565b505050620000806200007a620000b560201b60201c565b620000b9565b6001600160a01b03828116608052811660a052620000ab600d6200010b602090811b620015f917901c565b505050506200036f565b3390565b600b80546001600160a01b038381166001600160a01b0319831681179093556040519116919082907f8be0079c531659141344cd1fd0a4f28419497f9722a3daafe3b4186f6b6457e090600090a35050565b80546001019055565b828054620001229062000333565b90600052602060002090601f01602090048101928262000146576000855562000191565b82601f106200016157805160ff191683800117855562000191565b8280016001018555821562000191579182015b828111156200019157825182559160200191906001019062000174565b506200019f929150620001a3565b5090565b5b808211156200019f5760008155600101620001a4565b634e487b7160e01b600052604160045260246000fd5b600082601f830112620001e257600080fd5b81516001600160401b0380821115620001ff57620001ff620001ba565b604051601f8301601f19908116603f011681019082821181831017156200022a576200022a620001ba565b816040528381526020925086838588010111156200024757600080fd5b600091505b838210156200026b57858201830151818301840152908201906200024c565b838211156200027d5760008385830101525b9695505050505050565b80516001600160a01b03811681146200029f57600080fd5b919050565b60008060008060808587031215620002bb57600080fd5b84516001600160401b0380821115620002d357600080fd5b620002e188838901620001d0565b95506020870151915080821115620002f857600080fd5b506200030787828801620001d0565b935050620003186040860162000287565b9150620003286060860162000287565b905092959194509250565b600181811c908216806200034857607f821691505b6020821081036200036957634e487b7160e01b600052602260045260246000fd5b50919050565b60805160a051612cd4620003c6600039600081816103de0152610b5a01526000818161086d01528181610e7201528181610ea10152818161100e0152818161103d01528181611182015261153b0152612cd46000f3fe6080604052600436106101dc5760003560e01c80636352211e11610102578063b88d4fde11610095578063e985e9c511610064578063e985e9c514610572578063f2fde38b14610592578063f4f3b200146105b2578063fce55037146105d257600080fd5b8063b88d4fde146104fd578063c87b56dd1461051d578063d204c45e1461053d578063e8a3d4851461055d57600080fd5b806395d89b41116100d157806395d89b4114610493578063a217fddf146104a8578063a22cb465146104bd578063a82670d3146104dd57600080fd5b80636352211e1461042057806370a0823114610440578063715018a6146104605780638da5cb5b1461047557600080fd5b80632a55205a1161017a57806342842e0e1161014957806342842e0e1461038c57806342966c68146103ac57806343bc1612146103cc5780634f6ccce71461040057600080fd5b80632a55205a146102f85780632f745c59146103375780633ccfd60b14610357578063407da2521461036c57600080fd5b8063095ea7b3116101b6578063095ea7b314610277578063162094c41461029957806318160ddd146102b957806323b872dd146102d857600080fd5b806301ffc9a7146101e857806306fdde031461021d578063081812fc1461023f57600080fd5b366101e357005b600080fd5b3480156101f457600080fd5b50610208610203366004612625565b6105f2565b60405190151581526020015b60405180910390f35b34801561022957600080fd5b5061023261061d565b604051610214919061269a565b34801561024b57600080fd5b5061025f61025a3660046126ad565b6106af565b6040516001600160a01b039091168152602001610214565b34801561028357600080fd5b506102976102923660046126db565b61073c565b005b3480156102a557600080fd5b506102976102b4366004612749565b610851565b3480156102c557600080fd5b506008545b604051908152602001610214565b3480156102e457600080fd5b506102976102f3366004612795565b61095f565b34801561030457600080fd5b506103186103133660046127d6565b610991565b604080516001600160a01b039093168352602083019190915201610214565b34801561034357600080fd5b506102ca6103523660046126db565b6109ba565b34801561036357600080fd5b50610297610a50565b34801561037857600080fd5b506102976103873660046127f8565b610b4f565b34801561039857600080fd5b506102976103a7366004612795565b610bc6565b3480156103b857600080fd5b506102976103c73660046126ad565b610be1565b3480156103d857600080fd5b5061025f7f000000000000000000000000000000000000000000000000000000000000000081565b34801561040c57600080fd5b506102ca61041b3660046126ad565b610c5b565b34801561042c57600080fd5b5061025f61043b3660046126ad565b610cee565b34801561044c57600080fd5b506102ca61045b366004612834565b610d65565b34801561046c57600080fd5b50610297610dec565b34801561048157600080fd5b50600b546001600160a01b031661025f565b34801561049f57600080fd5b50610232610e52565b3480156104b457600080fd5b506102ca600081565b3480156104c957600080fd5b506102976104d836600461285f565b610e61565b3480156104e957600080fd5b506102976104f83660046126ad565b610e70565b34801561050957600080fd5b506102976105183660046128ae565b610fc9565b34801561052957600080fd5b506102326105383660046126ad565b611001565b34801561054957600080fd5b506102976105583660046127f8565b61100c565b34801561056957600080fd5b50610232611165565b34801561057e57600080fd5b5061020861058d36600461298e565b611174565b34801561059e57600080fd5b506102976105ad366004612834565b611294565b3480156105be57600080fd5b506102976105cd366004612834565b61135c565b3480156105de57600080fd5b506102976105ed3660046129bc565b61151f565b60006001600160e01b0319821663152a902d60e11b1480610617575061061782611602565b92915050565b60606000805461062c906129fe565b80601f0160208091040260200160405190810160405280929190818152602001828054610658906129fe565b80156106a55780601f1061067a576101008083540402835291602001916106a5565b820191906000526020600020905b81548152906001019060200180831161068857829003601f168201915b5050505050905090565b60006106ba82611627565b6107205760405162461bcd60e51b815260206004820152602c60248201527f4552433732313a20617070726f76656420717565727920666f72206e6f6e657860448201526b34b9ba32b73a103a37b5b2b760a11b60648201526084015b60405180910390fd5b506000908152600460205260409020546001600160a01b031690565b600061074782610cee565b9050806001600160a01b0316836001600160a01b0316036107b45760405162461bcd60e51b815260206004820152602160248201527f4552433732313a20617070726f76616c20746f2063757272656e74206f776e656044820152603960f91b6064820152608401610717565b336001600160a01b03821614806107d057506107d08133611174565b6108425760405162461bcd60e51b815260206004820152603860248201527f4552433732313a20617070726f76652063616c6c6572206973206e6f74206f7760448201527f6e6572206e6f7220617070726f76656420666f7220616c6c00000000000000006064820152608401610717565b61084c8383611644565b505050565b604051632474521560e21b8152600060048201523360248201527f00000000000000000000000000000000000000000000000000000000000000006001600160a01b0316906391d1485490604401602060405180830381865afa1580156108bc573d6000803e3d6000fd5b505050506040513d601f19601f820116820180604052508101906108e09190612a38565b61091f5760405162461bcd60e51b815260206004820152601060248201526f41646d696e2063616c6c73206f6e6c7960801b6044820152606401610717565b61084c8383838080601f0160208091040260200160405190810160405280939291908181526020018383808284376000920191909152506116b292505050565b61096a335b8261173d565b6109865760405162461bcd60e51b815260040161071790612a55565b61084c838383611807565b600080306127106109a46103e886612abc565b6109ae9190612af1565b915091505b9250929050565b60006109c583610d65565b8210610a275760405162461bcd60e51b815260206004820152602b60248201527f455243373231456e756d657261626c653a206f776e657220696e646578206f7560448201526a74206f6620626f756e647360a81b6064820152608401610717565b506001600160a01b03919091166000908152600660209081526040808320938352929052205490565b476000612710610a6283611f40612abc565b610a6c9190612af1565b90506000610a82600b546001600160a01b031690565b6001600160a01b03168260405160006040518083038185875af1925050503d8060008114610acc576040519150601f19603f3d011682016040523d82523d6000602084013e610ad1565b606091505b5050905080610adf57600080fd5b737af3ba4a5854438a6bf27e4d005cd07d5497c33e610afe8385612b05565b604051600081818185875af1925050503d8060008114610b3a576040519150601f19603f3d011682016040523d82523d6000602084013e610b3f565b606091505b5050809150508061084c57600080fd5b336001600160a01b037f00000000000000000000000000000000000000000000000000000000000000001614610bbb5760405162461bcd60e51b81526020600482015260116024820152704f6e6c79206172746973742063616c6c7360781b6044820152606401610717565b61084c8383836119ae565b61084c83838360405180602001604052806000815250610fc9565b610bea33610964565b610c4f5760405162461bcd60e51b815260206004820152603060248201527f4552433732314275726e61626c653a2063616c6c6572206973206e6f74206f7760448201526f1b995c881b9bdc88185c1c1c9bdd995960821b6064820152608401610717565b610c5881611a13565b50565b6000610c6660085490565b8210610cc95760405162461bcd60e51b815260206004820152602c60248201527f455243373231456e756d657261626c653a20676c6f62616c20696e646578206f60448201526b7574206f6620626f756e647360a01b6064820152608401610717565b60088281548110610cdc57610cdc612b1c565b90600052602060002001549050919050565b6000818152600260205260408120546001600160a01b0316806106175760405162461bcd60e51b815260206004820152602960248201527f4552433732313a206f776e657220717565727920666f72206e6f6e657869737460448201526832b73a103a37b5b2b760b91b6064820152608401610717565b60006001600160a01b038216610dd05760405162461bcd60e51b815260206004820152602a60248201527f4552433732313a2062616c616e636520717565727920666f7220746865207a65604482015269726f206164647265737360b01b6064820152608401610717565b506001600160a01b031660009081526003602052604090205490565b600b546001600160a01b03163314610e465760405162461bcd60e51b815260206004820181905260248201527f4f776e61626c653a2063616c6c6572206973206e6f7420746865206f776e65726044820152606401610717565b610e506000611a1c565b565b60606001805461062c906129fe565b610e6c338383611a6e565b5050565b7f00000000000000000000000000000000000000000000000000000000000000006001600160a01b03166391d148547f00000000000000000000000000000000000000000000000000000000000000006001600160a01b031663282c51f36040518163ffffffff1660e01b81526004016020604051808303816000875af1158015610eff573d6000803e3d6000fd5b505050506040513d601f19601f82011682018060405250810190610f239190612b32565b6040516001600160e01b031960e084901b1681526004810191909152336024820152604401602060405180830381865afa158015610f65573d6000803e3d6000fd5b505050506040513d601f19601f82011682018060405250810190610f899190612a38565b610c4f5760405162461bcd60e51b81526020600482015260116024820152704e6f206275726e696e672072696768747360781b6044820152606401610717565b610fd3338361173d565b610fef5760405162461bcd60e51b815260040161071790612a55565b610ffb84848484611b3c565b50505050565b606061061782611b6f565b7f00000000000000000000000000000000000000000000000000000000000000006001600160a01b03166391d148547f00000000000000000000000000000000000000000000000000000000000000006001600160a01b031663d53913936040518163ffffffff1660e01b81526004016020604051808303816000875af115801561109b573d6000803e3d6000fd5b505050506040513d601f19601f820116820180604052508101906110bf9190612b32565b6040516001600160e01b031960e084901b1681526004810191909152336024820152604401602060405180830381865afa158015611101573d6000803e3d6000fd5b505050506040513d601f19601f820116820180604052508101906111259190612a38565b610bbb5760405162461bcd60e51b81526020600482015260116024820152704e6f206d696e74696e672072696768747360781b6044820152606401610717565b6060600c805461062c906129fe565b6000816001600160a01b03167f00000000000000000000000000000000000000000000000000000000000000006001600160a01b03166321f8a7216040516020016111d89072616464726573732e6d61726b6574706c61636560681b815260130190565b604051602081830303815290604052805190602001206040518263ffffffff1660e01b815260040161120c91815260200190565b602060405180830381865afa158015611229573d6000803e3d6000fd5b505050506040513d601f19601f8201168201806040525081019061124d9190612b4b565b6001600160a01b03160361126357506001610617565b6001600160a01b0380841660009081526005602090815260408083209386168352929052205460ff165b9392505050565b600b546001600160a01b031633146112ee5760405162461bcd60e51b815260206004820181905260248201527f4f776e61626c653a2063616c6c6572206973206e6f7420746865206f776e65726044820152606401610717565b6001600160a01b0381166113535760405162461bcd60e51b815260206004820152602660248201527f4f776e61626c653a206e6577206f776e657220697320746865207a65726f206160448201526564647265737360d01b6064820152608401610717565b610c5881611a1c565b6040516370a0823160e01b815230600482015281906000906001600160a01b038316906370a0823190602401602060405180830381865afa1580156113a5573d6000803e3d6000fd5b505050506040513d601f19601f820116820180604052508101906113c99190612b32565b905060006127106113dc83611f40612abc565b6113e69190612af1565b9050826001600160a01b031663a9059cbb611409600b546001600160a01b031690565b6040516001600160e01b031960e084901b1681526001600160a01b039091166004820152602481018490526044016020604051808303816000875af1158015611456573d6000803e3d6000fd5b505050506040513d601f19601f8201168201806040525081019061147a9190612a38565b506001600160a01b03831663a9059cbb737af3ba4a5854438a6bf27e4d005cd07d5497c33e6114a98486612b05565b6040516001600160e01b031960e085901b1681526001600160a01b03909216600483015260248201526044016020604051808303816000875af11580156114f4573d6000803e3d6000fd5b505050506040513d601f19601f820116820180604052508101906115189190612a38565b5050505050565b604051632474521560e21b8152600060048201523360248201527f00000000000000000000000000000000000000000000000000000000000000006001600160a01b0316906391d1485490604401602060405180830381865afa15801561158a573d6000803e3d6000fd5b505050506040513d601f19601f820116820180604052508101906115ae9190612a38565b6115ed5760405162461bcd60e51b815260206004820152601060248201526f41646d696e2063616c6c73206f6e6c7960801b6044820152606401610717565b61084c600c83836124cc565b80546001019055565b60006001600160e01b0319821663780e9d6360e01b1480610617575061061782611cdd565b6000908152600260205260409020546001600160a01b0316151590565b600081815260046020526040902080546001600160a01b0319166001600160a01b038416908117909155819061167982610cee565b6001600160a01b03167f8c5be1e5ebec7d5bd14f71427d1e84f3dd0314c0f7b2291e5b200ac8c7c3b92560405160405180910390a45050565b6116bb82611627565b61171e5760405162461bcd60e51b815260206004820152602e60248201527f45524337323155524953746f726167653a2055524920736574206f66206e6f6e60448201526d32bc34b9ba32b73a103a37b5b2b760911b6064820152608401610717565b6000828152600a60209081526040909120825161084c92840190612550565b600061174882611627565b6117a95760405162461bcd60e51b815260206004820152602c60248201527f4552433732313a206f70657261746f7220717565727920666f72206e6f6e657860448201526b34b9ba32b73a103a37b5b2b760a11b6064820152608401610717565b60006117b483610cee565b9050806001600160a01b0316846001600160a01b031614806117db57506117db8185611174565b806117ff5750836001600160a01b03166117f4846106af565b6001600160a01b0316145b949350505050565b826001600160a01b031661181a82610cee565b6001600160a01b03161461187e5760405162461bcd60e51b815260206004820152602560248201527f4552433732313a207472616e736665722066726f6d20696e636f72726563742060448201526437bbb732b960d91b6064820152608401610717565b6001600160a01b0382166118e05760405162461bcd60e51b8152602060048201526024808201527f4552433732313a207472616e7366657220746f20746865207a65726f206164646044820152637265737360e01b6064820152608401610717565b6118eb838383611d2d565b6118f6600082611644565b6001600160a01b038316600090815260036020526040812080546001929061191f908490612b05565b90915550506001600160a01b038216600090815260036020526040812080546001929061194d908490612b68565b909155505060008181526002602052604080822080546001600160a01b0319166001600160a01b0386811691821790925591518493918716917fddf252ad1be2c89b69c2b068fc378daa952ba7f163c4a11628f55a4df523b3ef91a4505050565b60006119b9600d5490565b90506119c9600d80546001019055565b6119d38482611d38565b610ffb8184848080601f0160208091040260200160405190810160405280939291908181526020018383808284376000920191909152506116b292505050565b610c5881611d52565b600b80546001600160a01b038381166001600160a01b0319831681179093556040519116919082907f8be0079c531659141344cd1fd0a4f28419497f9722a3daafe3b4186f6b6457e090600090a35050565b816001600160a01b0316836001600160a01b031603611acf5760405162461bcd60e51b815260206004820152601960248201527f4552433732313a20617070726f766520746f2063616c6c6572000000000000006044820152606401610717565b6001600160a01b03838116600081815260056020908152604080832094871680845294825291829020805460ff191686151590811790915591519182527f17307eab39ab6107e8899845ad3d59bd9653f200f220920489ca2b5937696c31910160405180910390a3505050565b611b47848484611807565b611b5384848484611d92565b610ffb5760405162461bcd60e51b815260040161071790612b80565b6060611b7a82611627565b611be05760405162461bcd60e51b815260206004820152603160248201527f45524337323155524953746f726167653a2055524920717565727920666f72206044820152703737b732bc34b9ba32b73a103a37b5b2b760791b6064820152608401610717565b6000828152600a602052604081208054611bf9906129fe565b80601f0160208091040260200160405190810160405280929190818152602001828054611c25906129fe565b8015611c725780601f10611c4757610100808354040283529160200191611c72565b820191906000526020600020905b815481529060010190602001808311611c5557829003601f168201915b505050505090506000611c9060408051602081019091526000815290565b90508051600003611ca2575092915050565b815115611cd4578082604051602001611cbc929190612bd2565b60405160208183030381529060405292505050919050565b6117ff84611e93565b60006001600160e01b031982166380ac58cd60e01b1480611d0e57506001600160e01b03198216635b5e139f60e01b145b8061061757506301ffc9a760e01b6001600160e01b0319831614610617565b61084c838383611f6a565b610e6c828260405180602001604052806000815250612022565b611d5b81612055565b6000818152600a602052604090208054611d74906129fe565b159050610c58576000818152600a60205260408120610c58916125c4565b60006001600160a01b0384163b15611e8857604051630a85bd0160e11b81526001600160a01b0385169063150b7a0290611dd6903390899088908890600401612c01565b6020604051808303816000875af1925050508015611e11575060408051601f3d908101601f19168201909252611e0e91810190612c3e565b60015b611e6e573d808015611e3f576040519150601f19603f3d011682016040523d82523d6000602084013e611e44565b606091505b508051600003611e665760405162461bcd60e51b815260040161071790612b80565b805181602001fd5b6001600160e01b031916630a85bd0160e11b1490506117ff565b506001949350505050565b6060611e9e82611627565b611f025760405162461bcd60e51b815260206004820152602f60248201527f4552433732314d657461646174613a2055524920717565727920666f72206e6f60448201526e3732bc34b9ba32b73a103a37b5b2b760891b6064820152608401610717565b6000611f1960408051602081019091526000815290565b90506000815111611f39576040518060200160405280600081525061128d565b80611f43846120fc565b604051602001611f54929190612bd2565b6040516020818303038152906040529392505050565b6001600160a01b038316611fc557611fc081600880546000838152600960205260408120829055600182018355919091527ff3f7a9fe364faab93b216da50a3214154f22a0a2b415b23a84c8169e8b636ee30155565b611fe8565b816001600160a01b0316836001600160a01b031614611fe857611fe883826121fd565b6001600160a01b038216611fff5761084c8161229a565b826001600160a01b0316826001600160a01b03161461084c5761084c8282612349565b61202c838361238d565b6120396000848484611d92565b61084c5760405162461bcd60e51b815260040161071790612b80565b600061206082610cee565b905061206e81600084611d2d565b612079600083611644565b6001600160a01b03811660009081526003602052604081208054600192906120a2908490612b05565b909155505060008281526002602052604080822080546001600160a01b0319169055518391906001600160a01b038416907fddf252ad1be2c89b69c2b068fc378daa952ba7f163c4a11628f55a4df523b3ef908390a45050565b6060816000036121235750506040805180820190915260018152600360fc1b602082015290565b8160005b811561214d578061213781612c5b565b91506121469050600a83612af1565b9150612127565b60008167ffffffffffffffff81111561216857612168612898565b6040519080825280601f01601f191660200182016040528015612192576020820181803683370190505b5090505b84156117ff576121a7600183612b05565b91506121b4600a86612c74565b6121bf906030612b68565b60f81b8183815181106121d4576121d4612b1c565b60200101906001600160f81b031916908160001a9053506121f6600a86612af1565b9450612196565b6000600161220a84610d65565b6122149190612b05565b600083815260076020526040902054909150808214612267576001600160a01b03841660009081526006602090815260408083208584528252808320548484528184208190558352600790915290208190555b5060009182526007602090815260408084208490556001600160a01b039094168352600681528383209183525290812055565b6008546000906122ac90600190612b05565b600083815260096020526040812054600880549394509092849081106122d4576122d4612b1c565b9060005260206000200154905080600883815481106122f5576122f5612b1c565b600091825260208083209091019290925582815260099091526040808220849055858252812055600880548061232d5761232d612c88565b6001900381819060005260206000200160009055905550505050565b600061235483610d65565b6001600160a01b039093166000908152600660209081526040808320868452825280832085905593825260079052919091209190915550565b6001600160a01b0382166123e35760405162461bcd60e51b815260206004820181905260248201527f4552433732313a206d696e7420746f20746865207a65726f20616464726573736044820152606401610717565b6123ec81611627565b156124395760405162461bcd60e51b815260206004820152601c60248201527f4552433732313a20746f6b656e20616c7265616479206d696e746564000000006044820152606401610717565b61244560008383611d2d565b6001600160a01b038216600090815260036020526040812080546001929061246e908490612b68565b909155505060008181526002602052604080822080546001600160a01b0319166001600160a01b03861690811790915590518392907fddf252ad1be2c89b69c2b068fc378daa952ba7f163c4a11628f55a4df523b3ef908290a45050565b8280546124d8906129fe565b90600052602060002090601f0160209004810192826124fa5760008555612540565b82601f106125135782800160ff19823516178555612540565b82800160010185558215612540579182015b82811115612540578235825591602001919060010190612525565b5061254c9291506125fa565b5090565b82805461255c906129fe565b90600052602060002090601f01602090048101928261257e5760008555612540565b82601f1061259757805160ff1916838001178555612540565b82800160010185558215612540579182015b828111156125405782518255916020019190600101906125a9565b5080546125d0906129fe565b6000825580601f106125e0575050565b601f016020900490600052602060002090810190610c5891905b5b8082111561254c57600081556001016125fb565b6001600160e01b031981168114610c5857600080fd5b60006020828403121561263757600080fd5b813561128d8161260f565b60005b8381101561265d578181015183820152602001612645565b83811115610ffb5750506000910152565b60008151808452612686816020860160208601612642565b601f01601f19169290920160200192915050565b60208152600061128d602083018461266e565b6000602082840312156126bf57600080fd5b5035919050565b6001600160a01b0381168114610c5857600080fd5b600080604083850312156126ee57600080fd5b82356126f9816126c6565b946020939093013593505050565b60008083601f84011261271957600080fd5b50813567ffffffffffffffff81111561273157600080fd5b6020830191508360208285010111156109b357600080fd5b60008060006040848603121561275e57600080fd5b83359250602084013567ffffffffffffffff81111561277c57600080fd5b61278886828701612707565b9497909650939450505050565b6000806000606084860312156127aa57600080fd5b83356127b5816126c6565b925060208401356127c5816126c6565b929592945050506040919091013590565b600080604083850312156127e957600080fd5b50508035926020909101359150565b60008060006040848603121561280d57600080fd5b8335612818816126c6565b9250602084013567ffffffffffffffff81111561277c57600080fd5b60006020828403121561284657600080fd5b813561128d816126c6565b8015158114610c5857600080fd5b6000806040838503121561287257600080fd5b823561287d816126c6565b9150602083013561288d81612851565b809150509250929050565b634e487b7160e01b600052604160045260246000fd5b600080600080608085870312156128c457600080fd5b84356128cf816126c6565b935060208501356128df816126c6565b925060408501359150606085013567ffffffffffffffff8082111561290357600080fd5b818701915087601f83011261291757600080fd5b81358181111561292957612929612898565b604051601f8201601f19908116603f0116810190838211818310171561295157612951612898565b816040528281528a602084870101111561296a57600080fd5b82602086016020830137600060208483010152809550505050505092959194509250565b600080604083850312156129a157600080fd5b82356129ac816126c6565b9150602083013561288d816126c6565b600080602083850312156129cf57600080fd5b823567ffffffffffffffff8111156129e657600080fd5b6129f285828601612707565b90969095509350505050565b600181811c90821680612a1257607f821691505b602082108103612a3257634e487b7160e01b600052602260045260246000fd5b50919050565b600060208284031215612a4a57600080fd5b815161128d81612851565b60208082526031908201527f4552433732313a207472616e736665722063616c6c6572206973206e6f74206f6040820152701ddb995c881b9bdc88185c1c1c9bdd9959607a1b606082015260800190565b634e487b7160e01b600052601160045260246000fd5b6000816000190483118215151615612ad657612ad6612aa6565b500290565b634e487b7160e01b600052601260045260246000fd5b600082612b0057612b00612adb565b500490565b600082821015612b1757612b17612aa6565b500390565b634e487b7160e01b600052603260045260246000fd5b600060208284031215612b4457600080fd5b5051919050565b600060208284031215612b5d57600080fd5b815161128d816126c6565b60008219821115612b7b57612b7b612aa6565b500190565b60208082526032908201527f4552433732313a207472616e7366657220746f206e6f6e20455243373231526560408201527131b2b4bb32b91034b6b83632b6b2b73a32b960711b606082015260800190565b60008351612be4818460208801612642565b835190830190612bf8818360208801612642565b01949350505050565b6001600160a01b0385811682528416602082015260408101839052608060608201819052600090612c349083018461266e565b9695505050505050565b600060208284031215612c5057600080fd5b815161128d8161260f565b600060018201612c6d57612c6d612aa6565b5060010190565b600082612c8357612c83612adb565b500690565b634e487b7160e01b600052603160045260246000fdfea26469706673582212203422b589c4680088aae49f34ae7205bf90a984f7c6eeb0af5ce884cdff5aa41b64736f6c634300080e0033",
  "linkReferences": {},
  "deployedLinkReferences": {}
}