{
  "_format": "hh-sol-artifact-1",
  "contractName": "SageNFT",
  "sourceName": "contracts/NFT/SageNFT.sol",
  "abi": [
    {
      "inputs": [],
      "stateMutability": "nonpayable",
      "type": "constructor"
    },
    {
      "anonymous": false,
      "inputs": [
        {
          "indexed": false,
          "internalType": "address",
          "name": "previousAdmin",
          "type": "address"
        },
        {
          "indexed": false,
          "internalType": "address",
          "name": "newAdmin",
          "type": "address"
        }
      ],
      "name": "AdminChanged",
      "type": "event"
    },
    {
      "anonymous": false,
      "inputs": [
        {
          "indexed": true,
          "internalType": "address",
          "name": "owner",
          "type": "address"
        },
        {
          "indexed": true,
          "internalType": "address",
          "name": "approved",
          "type": "address"
        },
        {
          "indexed": true,
          "internalType": "uint256",
          "name": "tokenId",
          "type": "uint256"
        }
      ],
      "name": "Approval",
      "type": "event"
    },
    {
      "anonymous": false,
      "inputs": [
        {
          "indexed": true,
          "internalType": "address",
          "name": "owner",
          "type": "address"
        },
        {
          "indexed": true,
          "internalType": "address",
          "name": "operator",
          "type": "address"
        },
        {
          "indexed": false,
          "internalType": "bool",
          "name": "approved",
          "type": "bool"
        }
      ],
      "name": "ApprovalForAll",
      "type": "event"
    },
    {
      "anonymous": false,
      "inputs": [
        {
          "indexed": true,
          "internalType": "address",
          "name": "beacon",
          "type": "address"
        }
      ],
      "name": "BeaconUpgraded",
      "type": "event"
    },
    {
      "anonymous": false,
      "inputs": [
        {
          "indexed": false,
          "internalType": "uint8",
          "name": "version",
          "type": "uint8"
        }
      ],
      "name": "Initialized",
      "type": "event"
    },
    {
      "anonymous": false,
      "inputs": [
        {
          "indexed": true,
          "internalType": "bytes32",
          "name": "role",
          "type": "bytes32"
        },
        {
          "indexed": true,
          "internalType": "bytes32",
          "name": "previousAdminRole",
          "type": "bytes32"
        },
        {
          "indexed": true,
          "internalType": "bytes32",
          "name": "newAdminRole",
          "type": "bytes32"
        }
      ],
      "name": "RoleAdminChanged",
      "type": "event"
    },
    {
      "anonymous": false,
      "inputs": [
        {
          "indexed": true,
          "internalType": "bytes32",
          "name": "role",
          "type": "bytes32"
        },
        {
          "indexed": true,
          "internalType": "address",
          "name": "account",
          "type": "address"
        },
        {
          "indexed": true,
          "internalType": "address",
          "name": "sender",
          "type": "address"
        }
      ],
      "name": "RoleGranted",
      "type": "event"
    },
    {
      "anonymous": false,
      "inputs": [
        {
          "indexed": true,
          "internalType": "bytes32",
          "name": "role",
          "type": "bytes32"
        },
        {
          "indexed": true,
          "internalType": "address",
          "name": "account",
          "type": "address"
        },
        {
          "indexed": true,
          "internalType": "address",
          "name": "sender",
          "type": "address"
        }
      ],
      "name": "RoleRevoked",
      "type": "event"
    },
    {
      "anonymous": false,
      "inputs": [
        {
          "indexed": true,
          "internalType": "address",
          "name": "from",
          "type": "address"
        },
        {
          "indexed": true,
          "internalType": "address",
          "name": "to",
          "type": "address"
        },
        {
          "indexed": true,
          "internalType": "uint256",
          "name": "tokenId",
          "type": "uint256"
        }
      ],
      "name": "Transfer",
      "type": "event"
    },
    {
      "anonymous": false,
      "inputs": [
        {
          "indexed": true,
          "internalType": "address",
          "name": "implementation",
          "type": "address"
        }
      ],
      "name": "Upgraded",
      "type": "event"
    },
    {
      "inputs": [],
      "name": "DEFAULT_ADMIN_ROLE",
      "outputs": [
        {
          "internalType": "bytes32",
          "name": "",
          "type": "bytes32"
        }
      ],
      "stateMutability": "view",
      "type": "function"
    },
    {
      "inputs": [
        {
          "internalType": "address",
          "name": "to",
          "type": "address"
        },
        {
          "internalType": "uint256",
          "name": "tokenId",
          "type": "uint256"
        }
      ],
      "name": "approve",
      "outputs": [],
      "stateMutability": "nonpayable",
      "type": "function"
    },
    {
      "inputs": [
        {
          "internalType": "address",
          "name": "owner",
          "type": "address"
        }
      ],
      "name": "balanceOf",
      "outputs": [
        {
          "internalType": "uint256",
          "name": "",
          "type": "uint256"
        }
      ],
      "stateMutability": "view",
      "type": "function"
    },
    {
      "inputs": [
        {
          "internalType": "uint256",
          "name": "tokenId",
          "type": "uint256"
        }
      ],
      "name": "burn",
      "outputs": [],
      "stateMutability": "nonpayable",
      "type": "function"
    },
    {
      "inputs": [
        {
          "internalType": "uint256",
          "name": "id",
          "type": "uint256"
        }
      ],
      "name": "burnFromAuthorizedSC",
      "outputs": [],
      "stateMutability": "nonpayable",
      "type": "function"
    },
    {
      "inputs": [
        {
          "internalType": "uint256",
          "name": "tokenId",
          "type": "uint256"
        }
      ],
      "name": "getApproved",
      "outputs": [
        {
          "internalType": "address",
          "name": "",
          "type": "address"
        }
      ],
      "stateMutability": "view",
      "type": "function"
    },
    {
      "inputs": [],
      "name": "getPrimarySalesDestination",
      "outputs": [
        {
          "internalType": "address",
          "name": "",
          "type": "address"
        }
      ],
      "stateMutability": "view",
      "type": "function"
    },
    {
      "inputs": [
        {
          "internalType": "bytes32",
          "name": "role",
          "type": "bytes32"
        }
      ],
      "name": "getRoleAdmin",
      "outputs": [
        {
          "internalType": "bytes32",
          "name": "",
          "type": "bytes32"
        }
      ],
      "stateMutability": "view",
      "type": "function"
    },
    {
      "inputs": [
        {
          "internalType": "bytes32",
          "name": "role",
          "type": "bytes32"
        },
        {
          "internalType": "address",
          "name": "account",
          "type": "address"
        }
      ],
      "name": "grantRole",
      "outputs": [],
      "stateMutability": "nonpayable",
      "type": "function"
    },
    {
      "inputs": [
        {
          "internalType": "bytes32",
          "name": "role",
          "type": "bytes32"
        },
        {
          "internalType": "address",
          "name": "account",
          "type": "address"
        }
      ],
      "name": "hasRole",
      "outputs": [
        {
          "internalType": "bool",
          "name": "",
          "type": "bool"
        }
      ],
      "stateMutability": "view",
      "type": "function"
    },
    {
      "inputs": [
        {
          "internalType": "string",
          "name": "_name",
          "type": "string"
        },
        {
          "internalType": "string",
          "name": "_symbol",
          "type": "string"
        },
        {
          "internalType": "address",
          "name": "_primarySalesDestination",
          "type": "address"
        },
        {
          "internalType": "uint256",
          "name": "_royaltyPercentage",
          "type": "uint256"
        },
        {
          "internalType": "address",
          "name": "_royaltyDestination",
          "type": "address"
        }
      ],
      "name": "initialize",
      "outputs": [],
      "stateMutability": "nonpayable",
      "type": "function"
    },
    {
      "inputs": [
        {
          "internalType": "address",
          "name": "owner",
          "type": "address"
        },
        {
          "internalType": "address",
          "name": "operator",
          "type": "address"
        }
      ],
      "name": "isApprovedForAll",
      "outputs": [
        {
          "internalType": "bool",
          "name": "",
          "type": "bool"
        }
      ],
      "stateMutability": "view",
      "type": "function"
    },
    {
      "inputs": [],
      "name": "name",
      "outputs": [
        {
          "internalType": "string",
          "name": "",
          "type": "string"
        }
      ],
      "stateMutability": "view",
      "type": "function"
    },
    {
      "inputs": [
        {
          "internalType": "uint256",
          "name": "tokenId",
          "type": "uint256"
        }
      ],
      "name": "ownerOf",
      "outputs": [
        {
          "internalType": "address",
          "name": "",
          "type": "address"
        }
      ],
      "stateMutability": "view",
      "type": "function"
    },
    {
      "inputs": [],
      "name": "proxiableUUID",
      "outputs": [
        {
          "internalType": "bytes32",
          "name": "",
          "type": "bytes32"
        }
      ],
      "stateMutability": "view",
      "type": "function"
    },
    {
      "inputs": [
        {
          "internalType": "bytes32",
          "name": "role",
          "type": "bytes32"
        },
        {
          "internalType": "address",
          "name": "account",
          "type": "address"
        }
      ],
      "name": "renounceRole",
      "outputs": [],
      "stateMutability": "nonpayable",
      "type": "function"
    },
    {
      "inputs": [
        {
          "internalType": "bytes32",
          "name": "role",
          "type": "bytes32"
        },
        {
          "internalType": "address",
          "name": "account",
          "type": "address"
        }
      ],
      "name": "revokeRole",
      "outputs": [],
      "stateMutability": "nonpayable",
      "type": "function"
    },
    {
      "inputs": [],
      "name": "royaltyDestination",
      "outputs": [
        {
          "internalType": "address",
          "name": "",
          "type": "address"
        }
      ],
      "stateMutability": "view",
      "type": "function"
    },
    {
      "inputs": [
        {
          "internalType": "uint256",
          "name": "tokenId",
          "type": "uint256"
        },
        {
          "internalType": "uint256",
          "name": "salePrice",
          "type": "uint256"
        }
      ],
      "name": "royaltyInfo",
      "outputs": [
        {
          "internalType": "address",
          "name": "",
          "type": "address"
        },
        {
          "internalType": "uint256",
          "name": "",
          "type": "uint256"
        }
      ],
      "stateMutability": "view",
      "type": "function"
    },
    {
      "inputs": [],
      "name": "royaltyPercentage",
      "outputs": [
        {
          "internalType": "uint256",
          "name": "",
          "type": "uint256"
        }
      ],
      "stateMutability": "view",
      "type": "function"
    },
    {
      "inputs": [
        {
          "internalType": "address",
          "name": "to",
          "type": "address"
        },
        {
          "internalType": "uint256",
          "name": "tokenId",
          "type": "uint256"
        },
        {
          "internalType": "string",
          "name": "uri",
          "type": "string"
        }
      ],
      "name": "safeMint",
      "outputs": [],
      "stateMutability": "nonpayable",
      "type": "function"
    },
    {
      "inputs": [
        {
          "internalType": "address",
          "name": "from",
          "type": "address"
        },
        {
          "internalType": "address",
          "name": "to",
          "type": "address"
        },
        {
          "internalType": "uint256",
          "name": "tokenId",
          "type": "uint256"
        }
      ],
      "name": "safeTransferFrom",
      "outputs": [],
      "stateMutability": "nonpayable",
      "type": "function"
    },
    {
      "inputs": [
        {
          "internalType": "address",
          "name": "from",
          "type": "address"
        },
        {
          "internalType": "address",
          "name": "to",
          "type": "address"
        },
        {
          "internalType": "uint256",
          "name": "tokenId",
          "type": "uint256"
        },
        {
          "internalType": "bytes",
          "name": "_data",
          "type": "bytes"
        }
      ],
      "name": "safeTransferFrom",
      "outputs": [],
      "stateMutability": "nonpayable",
      "type": "function"
    },
    {
      "inputs": [
        {
          "internalType": "address",
          "name": "operator",
          "type": "address"
        },
        {
          "internalType": "bool",
          "name": "approved",
          "type": "bool"
        }
      ],
      "name": "setApprovalForAll",
      "outputs": [],
      "stateMutability": "nonpayable",
      "type": "function"
    },
    {
      "inputs": [
        {
          "internalType": "bytes4",
          "name": "interfaceId",
          "type": "bytes4"
        }
      ],
      "name": "supportsInterface",
      "outputs": [
        {
          "internalType": "bool",
          "name": "",
          "type": "bool"
        }
      ],
      "stateMutability": "view",
      "type": "function"
    },
    {
      "inputs": [],
      "name": "symbol",
      "outputs": [
        {
          "internalType": "string",
          "name": "",
          "type": "string"
        }
      ],
      "stateMutability": "view",
      "type": "function"
    },
    {
      "inputs": [
        {
          "internalType": "uint256",
          "name": "index",
          "type": "uint256"
        }
      ],
      "name": "tokenByIndex",
      "outputs": [
        {
          "internalType": "uint256",
          "name": "",
          "type": "uint256"
        }
      ],
      "stateMutability": "view",
      "type": "function"
    },
    {
      "inputs": [
        {
          "internalType": "address",
          "name": "owner",
          "type": "address"
        },
        {
          "internalType": "uint256",
          "name": "index",
          "type": "uint256"
        }
      ],
      "name": "tokenOfOwnerByIndex",
      "outputs": [
        {
          "internalType": "uint256",
          "name": "",
          "type": "uint256"
        }
      ],
      "stateMutability": "view",
      "type": "function"
    },
    {
      "inputs": [
        {
          "internalType": "uint256",
          "name": "tokenId",
          "type": "uint256"
        }
      ],
      "name": "tokenURI",
      "outputs": [
        {
          "internalType": "string",
          "name": "",
          "type": "string"
        }
      ],
      "stateMutability": "view",
      "type": "function"
    },
    {
      "inputs": [],
      "name": "totalSupply",
      "outputs": [
        {
          "internalType": "uint256",
          "name": "",
          "type": "uint256"
        }
      ],
      "stateMutability": "view",
      "type": "function"
    },
    {
      "inputs": [
        {
          "internalType": "address",
          "name": "from",
          "type": "address"
        },
        {
          "internalType": "address",
          "name": "to",
          "type": "address"
        },
        {
          "internalType": "uint256",
          "name": "tokenId",
          "type": "uint256"
        }
      ],
      "name": "transferFrom",
      "outputs": [],
      "stateMutability": "nonpayable",
      "type": "function"
    },
    {
      "inputs": [
        {
          "internalType": "address",
          "name": "newImplementation",
          "type": "address"
        }
      ],
      "name": "upgradeTo",
      "outputs": [],
      "stateMutability": "nonpayable",
      "type": "function"
    },
    {
      "inputs": [
        {
          "internalType": "address",
          "name": "newImplementation",
          "type": "address"
        },
        {
          "internalType": "bytes",
          "name": "data",
          "type": "bytes"
        }
      ],
      "name": "upgradeToAndCall",
      "outputs": [],
      "stateMutability": "payable",
      "type": "function"
    }
  ],
  "bytecode": "0x60a0604052346200004057306080526200001862000045565b506040516138fe90816200010982396080518181816109ad01528181610e070152610f350152f35b600080fd5b60005460ff8160081c16600014620000a25760405162461bcd60e51b815260206004820152602e602482015260008051602062003a0783398151915260448201526d191e481a5b9a5d1a585b1a5e995960921b6064820152608490fd5b60ff8082161015620000bd5760ff191660ff17600055600190565b60405162461bcd60e51b815260206004820152602e602482015260008051602062003a0783398151915260448201526d191e481a5b9a5d1a585b1a5e995960921b6064820152608490fdfe60806040526004361015610013575b600080fd5b60003560e01c806301ffc9a7146102a757806306fdde031461029e578063081812fc14610295578063095ea7b31461028c57806318160ddd1461028357806323b872dd1461027a578063248a9ca3146102715780632a55205a146102685780632f2ff15d1461025f5780632f745c591461025657806336568abe1461024d5780633659cfe61461024457806342842e0e1461023b57806342966c68146102325780634f1ef286146102295780634f6ccce71461022057806352d1902d146102175780636352211e1461020e57806370a08231146102055780638a71bb2d146101fc57806391d14854146101f357806395d89b41146101ea578063a1dd6a2e146101e1578063a217fddf146101d8578063a22cb465146101cf578063b88d4fde146101c6578063c861e78f146101bd578063c87b56dd146101b4578063cd279c7c146101ab578063d547741f146101a2578063e29bfaa414610199578063e8e5a51e146101905763e985e9c51461018857600080fd5b61000e611975565b5061000e6117a7565b5061000e61177c565b5061000e61173b565b5061000e6115b9565b5061000e611585565b5061000e61155a565b5061000e61150b565b5061000e61141e565b5061000e611401565b5061000e61117b565b5061000e6110a6565b5061000e611052565b5061000e611032565b5061000e611006565b5061000e610fe7565b5061000e610f21565b5061000e610e75565b5061000e610dc6565b5061000e610a9c565b5061000e610a73565b5061000e610986565b5061000e6108f3565b5061000e61083f565b5061000e61076d565b5061000e610713565b5061000e6106e2565b5061000e6106b8565b5061000e610664565b5061000e610574565b5061000e6104eb565b5061000e610412565b5061000e6102c2565b6001600160e01b031981160361000e57565b503461000e57602036600319011261000e576103186004356102e3816102b0565b63ffffffff60e01b1663152a902d60e11b8114908115610393575b811561031c575b5060405190151581529081906020820190565b0390f35b637965db0b60e01b811491508115610336575b5038610305565b63780e9d6360e01b811491508115610350575b503861032f565b6380ac58cd60e01b811491508115610382575b8115610371575b5038610349565b6301ffc9a760e01b1490503861036a565b635b5e139f60e01b81149150610363565b637965db0b60e01b811491506102fe565b918091926000905b8282106103c45750116103bd575050565b6000910152565b915080602091830151818601520182916103ac565b906020916103f2815180928185528580860191016103a4565b601f01601f1916010190565b90602061040f9281815201906103d9565b90565b503461000e576000806003193601126104e857604051908060655461043681612456565b808552916001918083169081156104c7575060011461046c575b6103188561046081870382610d29565b604051918291826103fe565b9250606583527f8ff97419363ffd7000167f130ef7168fbea05faf9251824ca5043f113cc6a7c75b8284106104af57505050810160200161046082610318610450565b80546020858701810191909152909301928101610494565b60ff1916602087015250506040840192506104609150839050610318610450565b80fd5b503461000e57602036600319011261000e57602061050a6004356125a2565b6040516001600160a01b039091168152f35b600435906001600160a01b038216820361000e57565b602435906001600160a01b038216820361000e57565b604435906001600160a01b038216820361000e57565b608435906001600160a01b038216820361000e57565b503461000e57604036600319011261000e5761058e61051c565b60243561059a816123de565b916001600160a01b038084169082168114610615576105cc936105c79133149081156105ce575b50612530565b612a33565b005b6001600160a01b03166000908152606a6020526040902061060f91506106089033905b9060018060a01b0316600052602052604060002090565b5460ff1690565b386105c1565b60405162461bcd60e51b815260206004820152602160248201527f4552433732313a20617070726f76616c20746f2063757272656e74206f776e656044820152603960f91b6064820152608490fd5b503461000e57600036600319011261000e576020609954604051908152f35b606090600319011261000e576001600160a01b0390600435828116810361000e5791602435908116810361000e579060443590565b503461000e576105cc6106ca36610683565b916106dd6106d88433612734565b612634565b6128e5565b503461000e57602036600319011261000e5760043560005261012d6020526020600160406000200154604051908152f35b503461000e57604036600319011261000e576101c5546101c4546040916001600160a01b03169061271090602435801515600019829004831116610760575b845193845202046020820152f35b61076861287c565b610752565b503461000e5760408060031936011261000e576004359061078c610532565b60009280845261012d806020526107a860018587200154611aa9565b81855260208181528486206001600160a01b03851660009081529152604090205460ff16156107d8575b50505051f35b81855260209081528385206001600160a01b0384166000908152915260409020805460ff19166001179055825133926001600160a01b031691907f2f8788117e7eff1d82e926ec794901d17c78024a50270940304540a733656f0d908690a43880806107d2565b503461000e57604036600319011261000e5761085961051c565b6024359061086681612366565b82101561089a576001600160a01b031660009081526097602090815260408083209383529281529082902054915191825290f35b60405162461bcd60e51b815260206004820152602b60248201527f455243373231456e756d657261626c653a206f776e657220696e646578206f7560448201526a74206f6620626f756e647360a81b6064820152608490fd5b503461000e57604036600319011261000e5761090d610532565b336001600160a01b03821603610929576105cc90600435611cfa565b60405162461bcd60e51b815260206004820152602f60248201527f416363657373436f6e74726f6c3a2063616e206f6e6c792072656e6f756e636560448201526e103937b632b9903337b91039b2b63360891b6064820152608490fd5b503461000e57602036600319011261000e576109a061051c565b6109f26001600160a01b037f00000000000000000000000000000000000000000000000000000000000000008116906109db30831415611d8a565b600080516020613889833981519152541614611deb565b3360009081527fa581b17bfc4d6578e300cafbf34fd2dc1fef0270d8c73f88a99dcde2859a6639602052604090205460ff1615610a3b576105cc90610a35611e5f565b90611fa0565b60405162461bcd60e51b815260206004820152601060248201526f41646d696e2063616c6c73206f6e6c7960801b6044820152606490fd5b503461000e576105cc610a8536610683565b9060405192610a9384610ce6565b6000845261269a565b503461000e57602036600319011261000e57600435610abb8133612734565b15610c7157806000610acc826123de565b6001600160a01b03811690610b189082158414610b9d57610aec85613435565b610af5856134ae565b610afe856129dd565b6001600160a01b0316600090815260686020526040902090565b610b228154612893565b9055610b4b610b3b846000526067602052604060002090565b80546001600160a01b0319169055565b6000805160206138a983398151915282604051a4610b7b610b768260005260fb602052604060002090565b6135c3565b610b8157005b610b986105cc9160005260fb602052604060002090565b6135cd565b610ba681612366565b60018110610c64575b841901610c0b859187835260986020526040832054818103610c11575b5082610be2896000526098602052604060002090565b556001600160a01b03841660009081526097602052604090205b90600052602052604060002090565b55610aec565b868452609760205260408420828552602052610c5d604085205480610c4c84610bfc8a60018060a01b03166000526097602052604060002090565b556000526098602052604060002090565b5538610bcc565b610c6c61287c565b610baf565b60405162461bcd60e51b815260206004820152603060248201527f4552433732314275726e61626c653a2063616c6c6572206973206e6f74206f7760448201526f1b995c881b9bdc88185c1c1c9bdd995960821b6064820152608490fd5b50634e487b7160e01b600052604160045260246000fd5b602081019081106001600160401b03821117610d0157604052565b610d09610ccf565b604052565b606081019081106001600160401b03821117610d0157604052565b90601f801991011681019081106001600160401b03821117610d0157604052565b6020906001600160401b038111610d67575b601f01601f19160190565b610d6f610ccf565b610d5c565b929192610d8082610d4a565b91610d8e6040519384610d29565b82948184528183011161000e578281602093846000960137010152565b9080601f8301121561000e5781602061040f93359101610d74565b50604036600319011261000e57610ddb61051c565b6024356001600160401b03811161000e57610dfa903690600401610dab565b610e356001600160a01b037f00000000000000000000000000000000000000000000000000000000000000008116906109db30831415611d8a565b3360009081527fa581b17bfc4d6578e300cafbf34fd2dc1fef0270d8c73f88a99dcde2859a6639602052604090205460ff1615610a3b576105cc91612075565b503461000e57602036600319011261000e57600435609954811015610ec75760996000527f72a152ddfb8e864297c917af52ea6c1c68aead0fee1a62673fcc7e0c94979d000154604051908152602090f35b60405162461bcd60e51b815260206004820152602c60248201527f455243373231456e756d657261626c653a20676c6f62616c20696e646578206f60448201526b7574206f6620626f756e647360a01b6064820152608490fd5b503461000e57600036600319011261000e577f00000000000000000000000000000000000000000000000000000000000000006001600160a01b03163003610f7c576040516000805160206138898339815191528152602090f35b60405162461bcd60e51b815260206004820152603860248201527f555550535570677261646561626c653a206d757374206e6f742062652063616c60448201527f6c6564207468726f7567682064656c656761746563616c6c00000000000000006064820152608490fd5b503461000e57602036600319011261000e57602061050a6004356123de565b503461000e57602036600319011261000e57602061102a61102561051c565b612366565b604051908152f35b503461000e57600036600319011261000e5760206101c454604051908152f35b503461000e57604036600319011261000e57602060ff61109a611073610532565b60043560005261012d845260406000209060018060a01b0316600052602052604060002090565b54166040519015158152f35b503461000e576000806003193601126104e85760405190806066546110ca81612456565b808552916001918083169081156104c757506001146110f3576103188561046081870382610d29565b9250606683527f46501879b8ca8525e8c2fd519e2fbfcfa2ebea26501294aa02cbfcfb12e943545b82841061113657505050810160200161046082610318610450565b8054602085870181019190915290930192810161111b565b9181601f8401121561000e578235916001600160401b03831161000e576020838186019501011161000e57565b503461000e5760a036600319011261000e576001600160401b0360043581811161000e576111ad90369060040161114e565b919060243582811161000e576111c790369060040161114e565b90926111ff6111d4610548565b946111f76111e061055e565b956111e9612edf565b98896113ed575b3691610d74565b933691610d74565b9161121a60ff60005460081c1661121581612e0b565b612e0b565b80519182116113e0575b61123882611233606554612456565b612f36565b60209081601f841160011461134c575092826112ea96959361127a936112bc96600092611341575b50508160011b916000199060031b1c191617606555613027565b611282612e6b565b61128a612e6b565b611292612e6b565b61129a612e6b565b6101c580546001600160a01b0319166001600160a01b03909216919091179055565b6112c86064356101c455565b6101c380546001600160a01b0319166001600160a01b03909216919091179055565b6112f333611b82565b6112fc33611c2d565b61130257005b61131261ff001960005416600055565b604051600181527f7f26b83ff96e1f2b6a682f133852f6798a09c465da95921460cefb384740249890602090a1005b015190503880611260565b60656000529190601f1984167f8ff97419363ffd7000167f130ef7168fbea05faf9251824ca5043f113cc6a7c7936000905b8282106113c85750509361127a936112bc9693600193836112ea9b9a98106113af575b505050811b01606555613027565b015160001960f88460031b161c191690553880806113a1565b8060018697829497870151815501960194019061137e565b6113e8610ccf565b611224565b61010061ff001960005416176000556111f0565b503461000e57600036600319011261000e57602060405160008152f35b503461000e57604036600319011261000e5761143861051c565b602435801515810361000e576001600160a01b038216913383146114c657816114836114949233600052606a60205260406000209060018060a01b0316600052602052604060002090565b9060ff801983541691151516179055565b604051901515815233907f17307eab39ab6107e8899845ad3d59bd9653f200f220920489ca2b5937696c3190602090a3005b60405162461bcd60e51b815260206004820152601960248201527f4552433732313a20617070726f766520746f2063616c6c6572000000000000006044820152606490fd5b503461000e57608036600319011261000e5761152561051c565b61152d610532565b606435916001600160401b03831161000e576115506105cc933690600401610dab565b916044359161269a565b503461000e57600036600319011261000e576101c3546040516001600160a01b039091168152602090f35b503461000e57602036600319011261000e576103186115a5600435613619565b6040519182916020835260208301906103d9565b503461000e57606036600319011261000e576115d361051c565b6024356044356001600160401b03811161000e573660238201121561000e57611606903690602481600401359101610d74565b9061160f6119c7565b6040519261161c84610ce6565b600084526001600160a01b0381169081156116f7576105cc94836116ed92816116f29561166d61166861166484600052606760205260018060a01b0360406000205416151590565b1590565b61311e565b61167782846132cd565b6001600160a01b038316600090815260686020526040902061169981546128b0565b90556116d2836116b3846000526067602052604060002090565b80546001600160a01b0319166001600160a01b03909216919091179055565b60006000805160206138a983398151915281604051a4612b0a565b612714565b61316a565b606460405162461bcd60e51b815260206004820152602060248201527f4552433732313a206d696e7420746f20746865207a65726f20616464726573736044820152fd5b503461000e57604036600319011261000e576105cc60043561175b610532565b908060005261012d602052611777600160406000200154611aa9565b611cfa565b503461000e57600036600319011261000e576101c5546040516001600160a01b039091168152602090f35b503461000e5760208060031936011261000e577f3c11d16cbaffd01df69ce1c404f6340ee057498f5f00246190ea54220576a848600090815261012d825260408082203383526020528082205491929091600435919060ff161561193257838291611831611814846123de565b6001600160a01b038116928490846118a0575050610aec85613435565b61183b8154612893565b9055611854610b3b846000526067602052604060002090565b6000805160206138a9833981519152828651a461187e610b768260005260fb602052604060002090565b611886575051f35b610b9861189d9160005260fb602052604060002090565b51f35b610c0b906118ad84612366565b60018110611925575b6000190190888452609881528a842054908282036118e6575b505082610be2896000526098602052604060002090565b878552609781528b8520908386525261191d8b85205480610c4c84610bfc8a60018060a01b03166000526097602052604060002090565b5538806118cf565b61192d61287c565b6118b6565b60649083519062461bcd60e51b82526004820152601760248201527f4e46543a204e6f206275726e2070726976696c656765730000000000000000006044820152fd5b503461000e57604036600319011261000e57602060ff61109a61199661051c565b61199e610532565b6001600160a01b039182166000908152606a865260408082209290931681526020919091522090565b3360009081527fad02ca31225c1e77b97240fae26f6efe4c4dfc9dbe77f7a176ac7a45a4e1b805602052604090205460ff1615611a0057565b611aa56048611a8d611a1133612cfc565b611a7f611a1c612d7b565b6040519485937f416363657373436f6e74726f6c3a206163636f756e74200000000000000000006020860152611a5c8151809260206037890191016103a4565b84017001034b99036b4b9b9b4b733903937b6329607d1b60378201520190611b6b565b03601f198101835282610d29565b60405162461bcd60e51b8152918291600483016103fe565b0390fd5b600081815261012d6020908152604080832033845290915290205460ff1615611acf5750565b611ad833612cfc565b90611ae1611e79565b906030611aed83612c5e565b536078611af983612c74565b5360415b60018111611b1c57611aa56048611a8d86611a7f87611a1c8815612cb1565b9080600f611b5992166010811015611b5e575b6f181899199a1a9b1b9c1cb0b131b232b360811b901a611b4f8486612c85565b5360041c91612ca4565b611afd565b611b66612c07565b611b2f565b90611b7e602092828151948592016103a4565b0190565b6001600160a01b03811660009081527fa581b17bfc4d6578e300cafbf34fd2dc1fef0270d8c73f88a99dcde2859a6639602052604081205461012d9060ff1615611bcb57505050565b818052602090815260408083206001600160a01b038516600090815292529020805460ff1916600117905560405133926001600160a01b031691907f2f8788117e7eff1d82e926ec794901d17c78024a50270940304540a733656f0d908290a4565b6001600160a01b03811660009081527fad02ca31225c1e77b97240fae26f6efe4c4dfc9dbe77f7a176ac7a45a4e1b80560205260409020547f9f2df0fed2c77648de5860a4cc508cd0818c85b8b8a1ab4ceeef8d981c8956a69061012d9060ff1615611c9857505050565b6000828152602091825260408082206001600160a01b038616835290925220805460ff1916600117905560405133926001600160a01b031691907f2f8788117e7eff1d82e926ec794901d17c78024a50270940304540a733656f0d90600090a4565b600081815261012d602081815260408084206001600160a01b03871685529091529091205460ff16611d2b57505050565b6000828152602091825260408082206001600160a01b038616835290925220805460ff1916905560405133926001600160a01b031691907ff6391f5c32d9c69d2a47ea670b442974b53935d1edc7fd64eb21e047a839171b90600090a4565b15611d9157565b60405162461bcd60e51b815260206004820152602c60248201527f46756e6374696f6e206d7573742062652063616c6c6564207468726f7567682060448201526b19195b1959d85d1958d85b1b60a21b6064820152608490fd5b15611df257565b60405162461bcd60e51b815260206004820152602c60248201527f46756e6374696f6e206d7573742062652063616c6c6564207468726f7567682060448201526b6163746976652070726f787960a01b6064820152608490fd5b60405190611e5982610ce6565b60008252565b60405190611e6c82610ce6565b6000808352366020840137565b60405190608082018281106001600160401b03821117611ea5575b604052604282526060366020840137565b611ead610ccf565b611e94565b90611ebc82610d4a565b611ec96040519182610d29565b8281528092611eda601f1991610d4a565b0190602036910137565b9081602091031261000e575190565b15611efa57565b60405162461bcd60e51b815260206004820152602960248201527f45524331393637557067726164653a20756e737570706f727465642070726f786044820152681a58589b195555525160ba1b6064820152608490fd5b60809060208152602e60208201527f45524331393637557067726164653a206e657720696d706c656d656e7461746960408201526d6f6e206973206e6f74205555505360901b60608201520190565b90611fcc7f4910fdfa16fed3260ed0e7147f7cc6da11a60208b5b9406d12a635614ffd91435460ff1690565b15611fdd5750611fdb90612138565b565b6040516352d1902d60e01b8152916020836004816001600160a01b0385165afa60009381612045575b506120245760405162461bcd60e51b815280611aa560048201611f51565b612040600080516020613889833981519152611fdb9414611ef3565b6121c8565b61206791945060203d811161206e575b61205f8183610d29565b810190611ee4565b9238612006565b503d612055565b906120a17f4910fdfa16fed3260ed0e7147f7cc6da11a60208b5b9406d12a635614ffd91435460ff1690565b156120b05750611fdb90612138565b6040516352d1902d60e01b8152916020836004816001600160a01b0385165afa60009381612118575b506120f75760405162461bcd60e51b815280611aa560048201611f51565b612113600080516020613889833981519152611fdb9414611ef3565b6122e0565b61213191945060203d811161206e5761205f8183610d29565b92386120d9565b803b1561216d5760008051602061388983398151915280546001600160a01b0319166001600160a01b03909216919091179055565b60405162461bcd60e51b815260206004820152602d60248201527f455243313936373a206e657720696d706c656d656e746174696f6e206973206e60448201526c1bdd08184818dbdb9d1c9858dd609a1b6064820152608490fd5b6121d181612138565b6040516001600160a01b0382167fbc7cd75a20ee27fd9adebab32041f755214dbc6bffa90cc0225b39da2e5c2d3b600083a28251158015906122d8575b61221757505050565b813b1561228757506000828192602061228495519201905af4612238612336565b6040519161224583610d0e565b602783527f416464726573733a206c6f772d6c6576656c2064656c65676174652063616c6c6020840152660819985a5b195960ca1b6040840152612c1e565b50565b62461bcd60e51b815260206004820152602660248201527f416464726573733a2064656c65676174652063616c6c20746f206e6f6e2d636f6044820152651b9d1c9858dd60d21b6064820152608490fd5b50600061220e565b6122e981612138565b6040516001600160a01b0382167fbc7cd75a20ee27fd9adebab32041f755214dbc6bffa90cc0225b39da2e5c2d3b600083a282511580159061232e5761221757505050565b50600161220e565b3d15612361573d9061234782610d4a565b916123556040519384610d29565b82523d6000602084013e565b606090565b6001600160a01b0316801561238657600052606860205260406000205490565b60405162461bcd60e51b815260206004820152602a60248201527f4552433732313a2062616c616e636520717565727920666f7220746865207a65604482015269726f206164647265737360b01b6064820152608490fd5b6000908152606760205260409020546001600160a01b031680156123ff5790565b60405162461bcd60e51b815260206004820152602960248201527f4552433732313a206f776e657220717565727920666f72206e6f6e657869737460448201526832b73a103a37b5b2b760b91b6064820152608490fd5b90600182811c92168015612486575b602083101461247057565b634e487b7160e01b600052602260045260246000fd5b91607f1691612465565b90604051918260008254926124a484612456565b90818452600194858116908160001461251157506001146124ce575b5050611fdb92500383610d29565b9093915060005260209081600020936000915b8183106124f9575050611fdb935082010138806124c0565b855488840185015294850194879450918301916124e1565b9550505050505060ff19166020830152611fdb826040810138806124c0565b1561253757565b60405162461bcd60e51b815260206004820152603860248201527f4552433732313a20617070726f76652063616c6c6572206973206e6f74206f7760448201527f6e6572206e6f7220617070726f76656420666f7220616c6c00000000000000006064820152608490fd5b6000818152606760205260409020546001600160a01b0316156125da576000908152606960205260409020546001600160a01b031690565b60405162461bcd60e51b815260206004820152602c60248201527f4552433732313a20617070726f76656420717565727920666f72206e6f6e657860448201526b34b9ba32b73a103a37b5b2b760a11b6064820152608490fd5b1561263b57565b60405162461bcd60e51b815260206004820152603160248201527f4552433732313a207472616e736665722063616c6c6572206973206e6f74206f6044820152701ddb995c881b9bdc88185c1c1c9bdd9959607a1b6064820152608490fd5b91611fdb93916116ed936126b16106d88433612734565b6126bc8383836128e5565b612bcb565b60809060208152603260208201527f4552433732313a207472616e7366657220746f206e6f6e20455243373231526560408201527131b2b4bb32b91034b6b83632b6b2b73a32b960711b60608201520190565b1561271b57565b60405162461bcd60e51b815280611aa5600482016126c1565b6000828152606760205260409020546001600160a01b0316156127ca5761275a826123de565b9160018060a01b0390818316928285168414948515612799575b50508315612783575b50505090565b61278f919293506125a2565b161438808061277d565b6001600160a01b03166000908152606a6020526040902091945060ff916127c091906105f1565b5416923880612774565b60405162461bcd60e51b815260206004820152602c60248201527f4552433732313a206f70657261746f7220717565727920666f72206e6f6e657860448201526b34b9ba32b73a103a37b5b2b760a11b6064820152608490fd5b1561282b57565b60405162461bcd60e51b8152602060048201526024808201527f4552433732313a207472616e7366657220746f20746865207a65726f206164646044820152637265737360e01b6064820152608490fd5b50634e487b7160e01b600052601160045260246000fd5b600181106128a3575b6000190190565b6128ab61287c565b61289c565b60019060011981116128c0570190565b611b7e61287c565b80196030116128d8575b60300190565b6128e061287c565b6128d2565b906128ef836123de565b6001600160a01b03838116929091821683900361298a5761292f6129739282169461291b861515612824565b6129268784836132f8565b610afe876129dd565b6129398154612893565b90556001600160a01b038116600090815260686020526040902061295d81546128b0565b90556116b3856000526067602052604060002090565b6000805160206138a98339815191526000604051a4565b60405162461bcd60e51b815260206004820152602560248201527f4552433732313a207472616e736665722066726f6d20696e636f72726563742060448201526437bbb732b960d91b6064820152608490fd5b600081815260696020526040812080546001600160a01b03191690556001600160a01b03612a0a836123de565b167f8c5be1e5ebec7d5bd14f71427d1e84f3dd0314c0f7b2291e5b200ac8c7c3b92582604051a4565b600082815260696020526040902080546001600160a01b0319166001600160a01b0383161790556001600160a01b0380612a6c846123de565b169116907f8c5be1e5ebec7d5bd14f71427d1e84f3dd0314c0f7b2291e5b200ac8c7c3b9256000604051a4565b9081602091031261000e575161040f816102b0565b61040f939260809260018060a01b0316825260006020830152604082015281606082015201906103d9565b6001600160a01b03918216815291166020820152604081019190915260806060820181905261040f929101906103d9565b909190803b15612bc357612b3c602091600093604051948580948193630a85bd0160e11b998a84523360048501612aae565b03926001600160a01b03165af160009181612b93575b50612b8557612b5f612336565b80519081612b805760405162461bcd60e51b815280611aa5600482016126c1565b602001fd5b6001600160e01b0319161490565b612bb591925060203d8111612bbc575b612bad8183610d29565b810190612a99565b9038612b52565b503d612ba3565b505050600190565b92909190823b15612bfe57612b3c926020926000604051809681958294630a85bd0160e11b9a8b85523360048601612ad9565b50505050600190565b50634e487b7160e01b600052603260045260246000fd5b90919015612c2a575090565b815115612c3a5750805190602001fd5b60405162461bcd60e51b815260206004820152908190611aa59060248301906103d9565b602090805115612c6c570190565b611b7e612c07565b602190805160011015612c6c570190565b906020918051821015612c9757010190565b612c9f612c07565b010190565b80156128a3576000190190565b15612cb857565b606460405162461bcd60e51b815260206004820152602060248201527f537472696e67733a20686578206c656e67746820696e73756666696369656e746044820152fd5b60405190612d0982610d0e565b602a825260403660208401376030612d2083612c5e565b536078612d2c83612c74565b536029905b60018211612d445761040f915015612cb1565b80600f612d7592166010811015611b5e576f181899199a1a9b1b9c1cb0b131b232b360811b901a611b4f8486612c85565b90612d31565b7f9f2df0fed2c77648de5860a4cc508cd0818c85b8b8a1ab4ceeef8d981c8956a6612da4611e79565b906030612db083612c5e565b536078612dbc83612c74565b536041905b60018211612dd45761040f915015612cb1565b80600f612e0592166010811015611b5e576f181899199a1a9b1b9c1cb0b131b232b360811b901a611b4f8486612c85565b90612dc1565b15612e1257565b60405162461bcd60e51b815260206004820152602b60248201527f496e697469616c697a61626c653a20636f6e7472616374206973206e6f74206960448201526a6e697469616c697a696e6760a81b6064820152608490fd5b611fdb60ff60005460081c16612e0b565b15612e8357565b60405162461bcd60e51b815260206004820152602e60248201527f496e697469616c697a61626c653a20636f6e747261637420697320616c72656160448201526d191e481a5b9a5d1a585b1a5e995960921b6064820152608490fd5b60005460ff8160081c16600014612f015750612efc303b15612e7c565b600090565b80612f12600160ff81941610612e7c565b60ff191617600055600190565b818110612f2a575050565b60008155600101612f1f565b90601f8211612f43575050565b611fdb9160656000527f8ff97419363ffd7000167f130ef7168fbea05faf9251824ca5043f113cc6a7c7906020601f840160051c83019310612f8d575b601f0160051c0190612f1f565b9091508190612f80565b90601f8211612fa4575050565b611fdb9160666000527f46501879b8ca8525e8c2fd519e2fbfcfa2ebea26501294aa02cbfcfb12e94354906020601f840160051c83019310612f8d57601f0160051c0190612f1f565b9190601f8111612ffc57505050565b611fdb926000526020600020906020601f840160051c83019310612f8d57601f0160051c0190612f1f565b9081516001600160401b038111613111575b61304d81613048606654612456565b612f97565b602080601f8311600114613089575081929360009261307e575b50508160011b916000199060031b1c191617606655565b015190503880613067565b90601f198316946130bc60666000527f46501879b8ca8525e8c2fd519e2fbfcfa2ebea26501294aa02cbfcfb12e9435490565b926000905b8782106130f95750508360019596106130e0575b505050811b01606655565b015160001960f88460031b161c191690553880806130d5565b806001859682949686015181550195019301906130c1565b613119610ccf565b613039565b1561312557565b60405162461bcd60e51b815260206004820152601c60248201527f4552433732313a20746f6b656e20616c7265616479206d696e746564000000006044820152606490fd5b6000818152606760205260409020549192916001600160a01b03161561327157600052602060fb81526040600020908351906001600160401b038211613264575b6131bf826131b98554612456565b85612fed565b80601f83116001146131f95750819293946000926131ee575b50508160011b916000199060031b1c1916179055565b0151905038806131d8565b90601f1983169561320f85600052602060002090565b926000905b88821061324c57505083600195969710613233575b505050811b019055565b015160001960f88460031b161c19169055388080613229565b80600185968294968601518155019501930190613214565b61326c610ccf565b6131ab565b60405162461bcd60e51b815260206004820152602e60248201527f45524337323155524953746f726167653a2055524920736574206f66206e6f6e60448201526d32bc34b9ba32b73a103a37b5b2b760911b6064820152608490fd5b906132d781613435565b6001600160a01b0382166132ef57611fdb91506134ae565b611fdb916133fd565b9091906001600160a01b038082169182613332575061331683613435565b831680613329575050611fdb91506134ae565b036132ef575050565b8185168303613342575b50613316565b6133a761334e82612366565b600181106133f0575b60001901610bfc600093878552609860205260408520548381036133ae575b508461338c896000526098602052604060002090565b556001600160a01b0316600090815260976020526040902090565b553861333c565b8786526097602052604086208487526020526133e9604087205480610c4c84610bfc8760018060a01b03166000526097602052604060002090565b5538613376565b6133f861287c565b613357565b60409061340981612366565b9260009160018060a01b0316825260976020528282208483526020528083832055815260986020522055565b60995481600052609a60205280604060002055680100000000000000008110156134a1575b6001810180609955811015613494575b60996000527f72a152ddfb8e864297c917af52ea6c1c68aead0fee1a62673fcc7e0c94979d000155565b61349c612c07565b61346a565b6134a9610ccf565b61345a565b60998054600181106135b6575b600090838252609a6020528161355d604082205495600019968488810110156135a9575b86845261354c7f72a152ddfb8e864297c917af52ea6c1c68aead0fee1a62673fcc7e0c94979cff95868101549083101561359c575b88865280837f72a152ddfb8e864297c917af52ea6c1c68aead0fee1a62673fcc7e0c94979d000155600052609a602052604060002090565b55600052609a602052604060002090565b558254938415613588578401938085101561357b575b838352015555565b613583612c07565b613573565b634e487b7160e01b83526031600452602483fd5b6135a4612c07565b613514565b6135b1612c07565b6134df565b6135be61287c565b6134bb565b61040f9054612456565b6135d78154612456565b90816135e1575050565b81601f600093116001146135f3575055565b8183526020832061360f91601f0160051c810190600101612f1f565b8160208120915555565b6000818152606760205260409020546001600160a01b03161561369a5761365261364d8260005260fb602052604060002090565b612490565b9061365b611e4c565b805115613695578251613673575061040f91506136f9565b61040f9150611a7f61368f936040519485936020850190611b6b565b90611b6b565b505090565b60405162461bcd60e51b815260206004820152603160248201527f45524337323155524953746f726167653a2055524920717565727920666f72206044820152703737b732bc34b9ba32b73a103a37b5b2b760791b6064820152608490fd5b6000818152606760205260409020546001600160a01b0316156137555761371e611e4c565b80519091901561374b5761368f91611a7f61373b61040f936137b2565b6040519485936020850190611b6b565b505061040f611e4c565b60405162461bcd60e51b815260206004820152602f60248201527f4552433732314d657461646174613a2055524920717565727920666f72206e6f60448201526e3732bc34b9ba32b73a103a37b5b2b760891b6064820152608490fd5b801561384c576000818181805b61382257506137cd81611eb2565b935b6137d95750505090565b6137e290612893565b90600a9061380d6137fd6137f78484066128c8565b60ff1690565b60f81b6001600160f81b03191690565b841a6138198487612c85565b530490816137cf565b91506001600a91600019811461383f575b019104808492916137bf565b61384761287c565b613833565b50604051604081018181106001600160401b0382111761387b575b60405260018152600360fc1b602082015290565b613883610ccf565b61386756fe360894a13ba1a3210667c828492db98dca3e2076cc3735a920a3ca505d382bbcddf252ad1be2c89b69c2b068fc378daa952ba7f163c4a11628f55a4df523b3efa26469706673582212201061b3ba3bcfdce521fa1aeae8ca2f20e0ee9be3ea9045b23a2dbcfb4cef8fc464736f6c634300080e0033496e697469616c697a61626c653a20636f6e747261637420697320616c726561",
  "linkReferences": {},
  "deployedLinkReferences": {}
}