{
  "_format": "hh-sol-artifact-1",
  "contractName": "Rewards",
  "sourceName": "contracts/Rewards/Rewards.sol",
  "abi": [
    {
      "anonymous": false,
      "inputs": [
        {
          "indexed": false,
          "internalType": "address",
          "name": "previousAdmin",
          "type": "address"
        },
        {
          "indexed": false,
          "internalType": "address",
          "name": "newAdmin",
          "type": "address"
        }
      ],
      "name": "AdminChanged",
      "type": "event"
    },
    {
      "anonymous": false,
      "inputs": [
        {
          "indexed": true,
          "internalType": "address",
          "name": "beacon",
          "type": "address"
        }
      ],
      "name": "BeaconUpgraded",
      "type": "event"
    },
    {
      "anonymous": false,
      "inputs": [
        {
          "indexed": false,
          "internalType": "uint8",
          "name": "version",
          "type": "uint8"
        }
      ],
      "name": "Initialized",
      "type": "event"
    },
    {
      "anonymous": false,
      "inputs": [
        {
          "indexed": true,
          "internalType": "address",
          "name": "user",
          "type": "address"
        },
        {
          "indexed": false,
          "internalType": "uint256",
          "name": "amount",
          "type": "uint256"
        }
      ],
      "name": "PointsEarned",
      "type": "event"
    },
    {
      "anonymous": false,
      "inputs": [
        {
          "indexed": true,
          "internalType": "address",
          "name": "user",
          "type": "address"
        },
        {
          "indexed": false,
          "internalType": "uint256",
          "name": "amount",
          "type": "uint256"
        },
        {
          "indexed": false,
          "internalType": "uint256",
          "name": "remaining",
          "type": "uint256"
        }
      ],
      "name": "PointsUsed",
      "type": "event"
    },
    {
      "anonymous": false,
      "inputs": [
        {
          "indexed": true,
          "internalType": "address",
          "name": "token",
          "type": "address"
        },
        {
          "indexed": false,
          "internalType": "uint256",
          "name": "pointRewardPerDay",
          "type": "uint256"
        },
        {
          "indexed": false,
          "internalType": "uint256",
          "name": "positionSize",
          "type": "uint256"
        },
        {
          "indexed": false,
          "internalType": "uint256",
          "name": "positionSizeLimit",
          "type": "uint256"
        }
      ],
      "name": "RewardChanged",
      "type": "event"
    },
    {
      "anonymous": false,
      "inputs": [
        {
          "indexed": true,
          "internalType": "bytes32",
          "name": "role",
          "type": "bytes32"
        },
        {
          "indexed": true,
          "internalType": "bytes32",
          "name": "previousAdminRole",
          "type": "bytes32"
        },
        {
          "indexed": true,
          "internalType": "bytes32",
          "name": "newAdminRole",
          "type": "bytes32"
        }
      ],
      "name": "RoleAdminChanged",
      "type": "event"
    },
    {
      "anonymous": false,
      "inputs": [
        {
          "indexed": true,
          "internalType": "bytes32",
          "name": "role",
          "type": "bytes32"
        },
        {
          "indexed": true,
          "internalType": "address",
          "name": "account",
          "type": "address"
        },
        {
          "indexed": true,
          "internalType": "address",
          "name": "sender",
          "type": "address"
        }
      ],
      "name": "RoleGranted",
      "type": "event"
    },
    {
      "anonymous": false,
      "inputs": [
        {
          "indexed": true,
          "internalType": "bytes32",
          "name": "role",
          "type": "bytes32"
        },
        {
          "indexed": true,
          "internalType": "address",
          "name": "account",
          "type": "address"
        },
        {
          "indexed": true,
          "internalType": "address",
          "name": "sender",
          "type": "address"
        }
      ],
      "name": "RoleRevoked",
      "type": "event"
    },
    {
      "anonymous": false,
      "inputs": [
        {
          "indexed": true,
          "internalType": "address",
          "name": "implementation",
          "type": "address"
        }
      ],
      "name": "Upgraded",
      "type": "event"
    },
    {
      "inputs": [],
      "name": "DEFAULT_ADMIN_ROLE",
      "outputs": [
        {
          "internalType": "bytes32",
          "name": "",
          "type": "bytes32"
        }
      ],
      "stateMutability": "view",
      "type": "function"
    },
    {
      "inputs": [],
      "name": "MANAGE_POINTS_ROLE",
      "outputs": [
        {
          "internalType": "bytes32",
          "name": "",
          "type": "bytes32"
        }
      ],
      "stateMutability": "view",
      "type": "function"
    },
    {
      "inputs": [
        {
          "internalType": "address",
          "name": "user",
          "type": "address"
        }
      ],
      "name": "availablePoints",
      "outputs": [
        {
          "internalType": "uint256",
          "name": "",
          "type": "uint256"
        }
      ],
      "stateMutability": "view",
      "type": "function"
    },
    {
      "inputs": [
        {
          "internalType": "address",
          "name": "_account",
          "type": "address"
        },
        {
          "internalType": "uint256",
          "name": "_amount",
          "type": "uint256"
        }
      ],
      "name": "burnUserPoints",
      "outputs": [
        {
          "internalType": "uint256",
          "name": "",
          "type": "uint256"
        }
      ],
      "stateMutability": "nonpayable",
      "type": "function"
    },
    {
      "inputs": [
        {
          "internalType": "address",
          "name": "_address",
          "type": "address"
        },
        {
          "internalType": "uint256",
          "name": "_points",
          "type": "uint256"
        }
      ],
      "name": "claimPoints",
      "outputs": [],
      "stateMutability": "nonpayable",
      "type": "function"
    },
    {
      "inputs": [
        {
          "internalType": "address[]",
          "name": "addresses",
          "type": "address[]"
        }
      ],
      "name": "getPointsUsedBatch",
      "outputs": [
        {
          "internalType": "uint256[]",
          "name": "",
          "type": "uint256[]"
        }
      ],
      "stateMutability": "view",
      "type": "function"
    },
    {
      "inputs": [
        {
          "internalType": "bytes32",
          "name": "role",
          "type": "bytes32"
        }
      ],
      "name": "getRoleAdmin",
      "outputs": [
        {
          "internalType": "bytes32",
          "name": "",
          "type": "bytes32"
        }
      ],
      "stateMutability": "view",
      "type": "function"
    },
    {
      "inputs": [
        {
          "internalType": "bytes32",
          "name": "role",
          "type": "bytes32"
        },
        {
          "internalType": "address",
          "name": "account",
          "type": "address"
        }
      ],
      "name": "grantRole",
      "outputs": [],
      "stateMutability": "nonpayable",
      "type": "function"
    },
    {
      "inputs": [
        {
          "internalType": "bytes32",
          "name": "role",
          "type": "bytes32"
        },
        {
          "internalType": "address",
          "name": "account",
          "type": "address"
        }
      ],
      "name": "hasRole",
      "outputs": [
        {
          "internalType": "bool",
          "name": "",
          "type": "bool"
        }
      ],
      "stateMutability": "view",
      "type": "function"
    },
    {
      "inputs": [
        {
          "internalType": "address",
          "name": "_admin",
          "type": "address"
        }
      ],
      "name": "initialize",
      "outputs": [],
      "stateMutability": "nonpayable",
      "type": "function"
    },
    {
      "inputs": [],
      "name": "proxiableUUID",
      "outputs": [
        {
          "internalType": "bytes32",
          "name": "",
          "type": "bytes32"
        }
      ],
      "stateMutability": "view",
      "type": "function"
    },
    {
      "inputs": [
        {
          "internalType": "address",
          "name": "_account",
          "type": "address"
        },
        {
          "internalType": "uint256",
          "name": "_points",
          "type": "uint256"
        }
      ],
      "name": "refundPoints",
      "outputs": [],
      "stateMutability": "nonpayable",
      "type": "function"
    },
    {
      "inputs": [
        {
          "internalType": "uint256",
          "name": "_index",
          "type": "uint256"
        }
      ],
      "name": "removeReward",
      "outputs": [],
      "stateMutability": "nonpayable",
      "type": "function"
    },
    {
      "inputs": [
        {
          "internalType": "bytes32",
          "name": "role",
          "type": "bytes32"
        },
        {
          "internalType": "address",
          "name": "account",
          "type": "address"
        }
      ],
      "name": "renounceRole",
      "outputs": [],
      "stateMutability": "nonpayable",
      "type": "function"
    },
    {
      "inputs": [
        {
          "internalType": "bytes32",
          "name": "role",
          "type": "bytes32"
        },
        {
          "internalType": "address",
          "name": "account",
          "type": "address"
        }
      ],
      "name": "revokeRole",
      "outputs": [],
      "stateMutability": "nonpayable",
      "type": "function"
    },
    {
      "inputs": [
        {
          "internalType": "address",
          "name": "",
          "type": "address"
        }
      ],
      "name": "rewardInfo",
      "outputs": [
        {
          "internalType": "uint16",
          "name": "chainId",
          "type": "uint16"
        },
        {
          "internalType": "uint256",
          "name": "pointRewardPerDay",
          "type": "uint256"
        },
        {
          "internalType": "uint256",
          "name": "positionSize",
          "type": "uint256"
        },
        {
          "internalType": "uint256",
          "name": "positionSizeLimit",
          "type": "uint256"
        }
      ],
      "stateMutability": "view",
      "type": "function"
    },
    {
      "inputs": [
        {
          "internalType": "uint256",
          "name": "",
          "type": "uint256"
        }
      ],
      "name": "rewardTokenAddresses",
      "outputs": [
        {
          "internalType": "address",
          "name": "",
          "type": "address"
        }
      ],
      "stateMutability": "view",
      "type": "function"
    },
    {
      "inputs": [
        {
          "internalType": "address",
          "name": "_token",
          "type": "address"
        },
        {
          "internalType": "uint16",
          "name": "_chainId",
          "type": "uint16"
        },
        {
          "internalType": "uint256",
          "name": "_pointRewardPerDay",
          "type": "uint256"
        },
        {
          "internalType": "uint256",
          "name": "_positionSize",
          "type": "uint256"
        },
        {
          "internalType": "uint256",
          "name": "_positionSizeLimit",
          "type": "uint256"
        }
      ],
      "name": "setRewardRate",
      "outputs": [],
      "stateMutability": "nonpayable",
      "type": "function"
    },
    {
      "inputs": [
        {
          "internalType": "bytes4",
          "name": "interfaceId",
          "type": "bytes4"
        }
      ],
      "name": "supportsInterface",
      "outputs": [
        {
          "internalType": "bool",
          "name": "",
          "type": "bool"
        }
      ],
      "stateMutability": "view",
      "type": "function"
    },
    {
      "inputs": [
        {
          "internalType": "address",
          "name": "",
          "type": "address"
        }
      ],
      "name": "totalPointsEarned",
      "outputs": [
        {
          "internalType": "uint256",
          "name": "",
          "type": "uint256"
        }
      ],
      "stateMutability": "view",
      "type": "function"
    },
    {
      "inputs": [
        {
          "internalType": "address",
          "name": "",
          "type": "address"
        }
      ],
      "name": "totalPointsUsed",
      "outputs": [
        {
          "internalType": "uint256",
          "name": "",
          "type": "uint256"
        }
      ],
      "stateMutability": "view",
      "type": "function"
    },
    {
      "inputs": [
        {
          "internalType": "address",
          "name": "newImplementation",
          "type": "address"
        }
      ],
      "name": "upgradeTo",
      "outputs": [],
      "stateMutability": "nonpayable",
      "type": "function"
    },
    {
      "inputs": [
        {
          "internalType": "address",
          "name": "newImplementation",
          "type": "address"
        },
        {
          "internalType": "bytes",
          "name": "data",
          "type": "bytes"
        }
      ],
      "name": "upgradeToAndCall",
      "outputs": [],
      "stateMutability": "payable",
      "type": "function"
    }
  ],
  "bytecode": "0x60a0806040523461003157306080526121419081610037823960805181818161060e0152818161082c01526117fa0152f35b600080fdfe60806040526004361015610013575b600080fd5b60003560e01c806301ffc9a7146101df5780631053dcc5146101d65780631e961d27146101cd578063248a9ca3146101c45780632f2ff15d146101bb57806336568abe146101b25780633659cfe6146101a957806347e134e8146101a057806349123dac146101975780634f1ef2861461018e57806352d1902d146101855780635622dd751461017c5780637b2d9b2c1461017357806389415cdb1461016a57806391d1485414610161578063966addc014610158578063a217fddf1461014f578063c4d66de814610146578063c553173f1461013d578063cbecf6b514610134578063d547741f1461012b578063f662781d146101225763f82629ac1461011a57600080fd5b61000e610f6e565b5061000e610f30565b5061000e610eed565b5061000e610e89565b5061000e610d64565b5061000e610c36565b5061000e610c19565b5061000e610aed565b5061000e610a96565b5061000e610a2f565b5061000e610998565b5061000e6108de565b5061000e610818565b5061000e61079b565b5061000e6106ee565b5061000e6106b0565b5061000e6105e0565b5061000e610549565b5061000e610478565b5061000e610448565b5061000e6102b7565b5061000e610247565b503461000e57602036600319011261000e5760043563ffffffff60e01b811680910361000e57602090637965db0b60e01b8114908115610225575b506040519015158152f35b6301ffc9a760e01b1490503861021a565b6001600160a01b0381160361000e57565b503461000e5760a036600319011261000e5760043561026581610236565b6024359061ffff8216820361000e573360009081526000805160206120cc833981519152602052604090206102b592906102a49060ff905b5416611cb4565b608435916064359160443591611d78565b005b503461000e57604036600319011261000e576004356102d581610236565b3360009081527f0dc301c53cc94a74ba6a1db40a7d20622e456098a7c4df8c526ebc502feb12786020526040902054602435919060ff1615610403576103ff91816103586103386103ef9460018060a01b031660005260fc602052604060002090565b546001600160a01b038316600090815260fb602052604090205490611ec1565b90610364831515611f54565b61037082841115611f95565b6001600160a01b038116600090815260fb6020526040902061039384825461196a565b90557f0f4865026ee2a8b7b57c8730b3b7b62eeff468bf638f5d04dcd3e21ae2a8024d6103e76103c38585611ec1565b6040805187815260208101929092526001600160a01b039094169390918291820190565b0390a2611ec1565b6040519081529081906020820190565b0390f35b60405162461bcd60e51b815260206004820152601c60248201527f536d61727420636f6e747261637420726f6c65207265717569726564000000006044820152606490fd5b503461000e57602036600319011261000e5760043560005260656020526020600160406000200154604051908152f35b503461000e5760408060031936011261000e576004359060243561049b81610236565b60009280845260656020526104b56001848620015461105f565b808452606560209081528385206001600160a01b03841660009081529152604090205460ff16156104e557505051f35b808452606560209081528385206001600160a01b0384166000908152915260409020805460ff19166001179055825133926001600160a01b031691907f2f8788117e7eff1d82e926ec794901d17c78024a50270940304540a733656f0d908690a451f35b503461000e57604036600319011261000e5760243561056781610236565b336001600160a01b03821603610583576102b590600435611220565b60405162461bcd60e51b815260206004820152602f60248201527f416363657373436f6e74726f6c3a2063616e206f6e6c792072656e6f756e636560448201526e103937b632b9903337b91039b2b63360891b6064820152608490fd5b503461000e57602036600319011261000e576102b560043561060181610236565b6106536001600160a01b037f000000000000000000000000000000000000000000000000000000000000000081169061063c308314156112b0565b6000805160206120ec833981519152541614611311565b3360009081526000805160206120cc8339815191526020526040902061067b9060ff9061029d565b604051906020820182811067ffffffffffffffff8211176106a3575b60405260008252611469565b6106ab61072a565b610697565b503461000e57602036600319011261000e576004356106ce81610236565b60018060a01b031660005260fb6020526020604060002054604051908152f35b503461000e57600036600319011261000e5760206040517f7049fdfe53181283a7dbc707a9b76a089d92452e8169bb3ba9188cb59b196ebe8152f35b50634e487b7160e01b600052604160045260246000fd5b90601f8019910116810190811067ffffffffffffffff82111761076357604052565b61076b61072a565b604052565b60209067ffffffffffffffff811161078e575b601f01601f19160190565b61079661072a565b610783565b50604036600319011261000e576004356107b481610236565b6024359067ffffffffffffffff821161000e573660238301121561000e578160040135906107e182610770565b916107ef6040519384610741565b808352366024828601011161000e5760208160009260246102b5970183870137840101526117f0565b503461000e57600036600319011261000e577f00000000000000000000000000000000000000000000000000000000000000006001600160a01b03163003610873576040516000805160206120ec8339815191528152602090f35b60405162461bcd60e51b815260206004820152603860248201527f555550535570677261646561626c653a206d757374206e6f742062652063616c60448201527f6c6564207468726f7567682064656c656761746563616c6c00000000000000006064820152608490fd5b503461000e57602036600319011261000e576004356108fc81610236565b60018060a01b031660005260fc602052602060406000205460fb825260406000205480821061092f575b60405191038152f35b610937611953565b610926565b50634e487b7160e01b600052603260045260246000fd5b60fe5481101561098b575b60fe6000527f54075df80ec1ae6ac9100e1fd0ebf3246c17f5c933137af392011f4c5f61513a0190600090565b61099361093c565b61095e565b503461000e57602036600319011261000e5760043560fe5481101561000e5760fe6000527f54075df80ec1ae6ac9100e1fd0ebf3246c17f5c933137af392011f4c5f61513a01546040516001600160a01b039091168152602090f35b6020908160408183019282815285518094520193019160005b828110610a1b575050505090565b835185529381019392810192600101610a0d565b503461000e57602036600319011261000e5767ffffffffffffffff60043581811161000e573660238201121561000e57806004013591821161000e573660248360051b8301011161000e576103ff916024610a8a9201611c1c565b604051918291826109f4565b503461000e57604036600319011261000e57602060ff610ae1602435610abb81610236565b6004356000526065845260406000209060018060a01b0316600052602052604060002090565b54166040519015158152f35b503461000e57604036600319011261000e57600435610b0b81610236565b3360009081527f0dc301c53cc94a74ba6a1db40a7d20622e456098a7c4df8c526ebc502feb12786020526040902054602435919060ff1615610bd4576001600160a01b038116600090815260fc602052604090207f2c4c0dc427a50c4a69d2fc184c47a311acf950d8d2f289fbaee64e83e9b2896791610bcf91610b90905485611ec1565b93610b9c851515612070565b6001600160a01b038216600090815260fc60205260409020556040519384526001600160a01b0316929081906020820190565b0390a2005b60405162461bcd60e51b815260206004820152601760248201527f4e6f20726f6c6520746f20636c61696d20706f696e74730000000000000000006044820152606490fd5b503461000e57600036600319011261000e57602060405160008152f35b503461000e57602036600319011261000e57600435610c5481610236565b610c5c611ba5565b80610d50575b610c6a611ad9565b610c72611ad9565b6001600160a01b03821660009081526000805160206120cc833981519152602052604081205490929060ff1615610ce7575b50610cae57604051f35b61ff001981541681557f7f26b83ff96e1f2b6a682f133852f6798a09c465da95921460cefb3847402498602060405160018152a1604051f35b8280526065602090815260408085206001600160a01b038416600090815292529020805460ff1916600117905560405133916001600160a01b03169084907f2f8788117e7eff1d82e926ec794901d17c78024a50270940304540a733656f0d908290a438610ca4565b61010061ff00196000541617600055610c62565b503461000e57602036600319011261000e573360009081526000805160206120cc8339815191526020526040902060043590610da29060ff9061029d565b60fe549081811015610e4e57610e08610e027f54075df80ec1ae6ac9100e1fd0ebf3246c17f5c933137af392011f4c5f615139846001610e2c9610610e41575b8060001981011015610e34575b60fe60005201546001600160a01b031690565b91610953565b90919082549060031b9160018060a01b039283811b93849216901b16911916179055565b6102b5611ed8565b610e3c61093c565b610def565b610e49611953565b610de2565b60405162461bcd60e51b8152602060048201526013602482015272496e646578206f7574206f6620626f756e647360681b6044820152606490fd5b503461000e57602036600319011261000e57600435610ea781610236565b60018060a01b031660005260fd6020526080604060002061ffff815416906001810154906003600282015491015491604051938452602084015260408301526060820152f35b503461000e57604036600319011261000e576102b5602435600435610f1182610236565b806000526065602052610f2b60016040600020015461105f565b611220565b503461000e57602036600319011261000e57600435610f4e81610236565b60018060a01b031660005260fc6020526020604060002054604051908152f35b503461000e57604036600319011261000e57600435610f8c81610236565b3360009081527f0dc301c53cc94a74ba6a1db40a7d20622e456098a7c4df8c526ebc502feb127860205260409020546024359060ff16156110225761100381610fd961101f931515611fd5565b6001600160a01b038416600090815260fb6020526040902054610ffe81831115612019565b611ec1565b6001600160a01b03909216600090815260fb6020526040902090565b55005b60405162461bcd60e51b81526020600482015260156024820152744e6f20726f6c6520746f20646f20726566756e647360581b6044820152606490fd5b600081815260656020908152604080832033845290915290205460ff16156110845750565b339061108e611372565b91603061109a8461197e565b5360786110a684611994565b5360295b600181116111595761115561111261113d8661112f6110d2886110cd89156119df565b611a2a565b61110c60405195869461110c602087016017907f416363657373436f6e74726f6c3a206163636f756e742000000000000000000081520190565b906111dd565b7001034b99036b4b9b9b4b733903937b6329607d1b815260110190565b03601f198101835282610741565b60405162461bcd60e51b8152918291600483016111f4565b0390fd5b9080600f6111969216601081101561119b575b6f181899199a1a9b1b9c1cb0b131b232b360811b901a61118c84876119a5565b5360041c916119c4565b6110aa565b6111a361093c565b61116c565b918091926000905b8282106111c85750116111c1575050565b6000910152565b915080602091830151818601520182916111b0565b906111f0602092828151948592016111a8565b0190565b6040916020825261121481518092816020860152602086860191016111a8565b601f01601f1916010190565b60008181526065602090815260408083206001600160a01b038616845290915290205460ff1661124e575050565b60008181526065602090815260408083206001600160a01b03861684529091529020805460ff1916905560405133926001600160a01b031691907ff6391f5c32d9c69d2a47ea670b442974b53935d1edc7fd64eb21e047a839171b90600090a4565b156112b757565b60405162461bcd60e51b815260206004820152602c60248201527f46756e6374696f6e206d7573742062652063616c6c6564207468726f7567682060448201526b19195b1959d85d1958d85b1b60a21b6064820152608490fd5b1561131857565b60405162461bcd60e51b815260206004820152602c60248201527f46756e6374696f6e206d7573742062652063616c6c6564207468726f7567682060448201526b6163746976652070726f787960a01b6064820152608490fd5b604051906060820182811067ffffffffffffffff8211176113a0575b604052602a8252604082602036910137565b6113a861072a565b61138e565b9081602091031261000e575190565b156113c357565b60405162461bcd60e51b815260206004820152602960248201527f45524331393637557067726164653a20756e737570706f727465642070726f786044820152681a58589b195555525160ba1b6064820152608490fd5b60809060208152602e60208201527f45524331393637557067726164653a206e657720696d706c656d656e7461746960408201526d6f6e206973206e6f74205555505360901b60608201520190565b906114957f4910fdfa16fed3260ed0e7147f7cc6da11a60208b5b9406d12a635614ffd91435460ff1690565b156114a657506114a49061153e565b565b6040516352d1902d60e01b8152916020836004816001600160a01b0385165afa6000938161150e575b506114ed5760405162461bcd60e51b8152806111556004820161141a565b6115096000805160206120ec8339815191526114a494146113bc565b6115ce565b61153091945060203d8111611537575b6115288183610741565b8101906113ad565b92386114cf565b503d61151e565b803b15611573576000805160206120ec83398151915280546001600160a01b0319166001600160a01b03909216919091179055565b60405162461bcd60e51b815260206004820152602d60248201527f455243313936373a206e657720696d706c656d656e746174696f6e206973206e60448201526c1bdd08184818dbdb9d1c9858dd609a1b6064820152608490fd5b906115d88261153e565b604051600092906001600160a01b0382167fbc7cd75a20ee27fd9adebab32041f755214dbc6bffa90cc0225b39da2e5c2d3b8583a28251158015906116d7575b611623575b50505050565b813b1561168657509180826116749460208395519201905af4903d1561167e573d61164d81610770565b9061165b6040519283610741565b8152809160203d92013e5b61166e611788565b9161191b565b503880808061161d565b506060611666565b62461bcd60e51b815260206004820152602660248201527f416464726573733a2064656c65676174652063616c6c20746f206e6f6e2d636f6044820152651b9d1c9858dd60d21b6064820152608490fd5b5083611618565b6116e78161153e565b6040516001600160a01b0382167fbc7cd75a20ee27fd9adebab32041f755214dbc6bffa90cc0225b39da2e5c2d3b600083a2825115801590611780575b61172d57505050565b813b1561168657506000828192602061177695519201905af43d15611779573d61175681610770565b906117646040519283610741565b81523d6000602083013e61166e611788565b50565b6060611666565b506001611724565b604051906060820182811067ffffffffffffffff8211176117e3575b60405260278252660819985a5b195960ca1b6040837f416464726573733a206c6f772d6c6576656c2064656c65676174652063616c6c60208201520152565b6117eb61072a565b6117a4565b6001600160a01b037f000000000000000000000000000000000000000000000000000000000000000081169290611829308514156112b0565b6118466000805160206120ec833981519152948286541614611311565b3360009081526000805160206120cc8339815191526020526040902061186e9060ff9061029d565b7f4910fdfa16fed3260ed0e7147f7cc6da11a60208b5b9406d12a635614ffd91435460ff16156118a45750506114a4915061153e565b6020600491604094939451928380926352d1902d60e01b825286165afa600091816118fb575b506118e85760405162461bcd60e51b8152806111556004820161141a565b6114a4936118f691146113bc565b6116de565b61191491925060203d8111611537576115288183610741565b90386118ca565b90919015611927575090565b8151156119375750805190602001fd5b60405162461bcd60e51b815290819061115590600483016111f4565b50634e487b7160e01b600052601160045260246000fd5b81198111611976570190565b6111f0611953565b60209080511561198c570190565b6111f061093c565b60219080516001101561198c570190565b9060209180518210156119b757010190565b6119bf61093c565b010190565b80156119d2575b6000190190565b6119da611953565b6119cb565b156119e657565b606460405162461bcd60e51b815260206004820152602060248201527f537472696e67733a20686578206c656e67746820696e73756666696369656e746044820152fd5b604051906080820182811067ffffffffffffffff821117611acc575b6040526042825260603660208401376030611a608361197e565b536078611a6c83611994565b536041905b60018211611a8757611a849150156119df565b90565b80600f611ab992166010811015611abf575b6f181899199a1a9b1b9c1cb0b131b232b360811b901a61118c84866119a5565b90611a71565b611ac761093c565b611a99565b611ad461072a565b611a46565b60ff60005460081c1615611ae957565b60405162461bcd60e51b815260206004820152602b60248201527f496e697469616c697a61626c653a20636f6e7472616374206973206e6f74206960448201526a6e697469616c697a696e6760a81b6064820152608490fd5b15611b4957565b60405162461bcd60e51b815260206004820152602e60248201527f496e697469616c697a61626c653a20636f6e747261637420697320616c72656160448201526d191e481a5b9a5d1a585b1a5e995960921b6064820152608490fd5b60005460ff8160081c16600014611bc75750611bc2303b15611b42565b600090565b80611bd8600160ff81941610611b42565b60ff191617600055600190565b60209067ffffffffffffffff8111611bff575b60051b0190565b611c0761072a565b611bf8565b6001906000198114611976570190565b90611c2681611be5565b91604090611c3682519485610741565b828452601f19611c4584611be5565b019160209236848701376000805b858110611c635750505050505090565b80611ca29160051b80860135611c7881610236565b6001600160a01b0316845260fb875284842054895190918891841015611ca7575b8a010152611c0c565b611c53565b611caf61093c565b611c99565b15611cbb57565b60405162461bcd60e51b815260206004820152601060248201526f41646d696e2063616c6c73206f6e6c7960801b6044820152606490fd5b60fe5468010000000000000000811015611d6b575b600181018060fe55811015611d5e575b60fe6000527f54075df80ec1ae6ac9100e1fd0ebf3246c17f5c933137af392011f4c5f61513a0180546001600160a01b0319166001600160a01b03909216919091179055565b611d6661093c565b611d18565b611d7361072a565b611d08565b927fe64e25eb3c13837403496f1bbbb97a7e47098d0718b905b9cc8b258035ca704290611e2d611e58949693611dce604051916080830183811067ffffffffffffffff821117611eb4575b60405261ffff168252565b876020820152826040820152846060820152611dfc8760018060a01b031660005260fd602052604060002090565b90606060039161ffff81511661ffff1985541617845560208101516001850155604081015160028501550151910155565b60018060a01b0395868616948594604051938493846040919493926060820195825260208201520152565b0390a260fe549260005b848110611e76575050506114a49150611cf3565b8282611e99611e8484610953565b905460039190911b1c6001600160a01b031690565b1614611ead57611ea890611c0c565b611e62565b5050505050565b611ebc61072a565b611dc3565b818110611ecc570390565b611ed4611953565b0390565b60fe548015611f3e577f54075df80ec1ae6ac9100e1fd0ebf3246c17f5c933137af392011f4c5f61513960001982019180831015611f31575b60fe600052016bffffffffffffffffffffffff60a01b815416905560fe55565b611f3961093c565b611f11565b634e487b7160e01b600052603160045260246000fd5b15611f5b57565b60405162461bcd60e51b815260206004820152601260248201527143616e277420757365203020706f696e747360701b6044820152606490fd5b15611f9c57565b60405162461bcd60e51b81526020600482015260116024820152704e6f7420656e6f75676820706f696e747360781b6044820152606490fd5b15611fdc57565b60405162461bcd60e51b815260206004820152601560248201527443616e277420726566756e64203020706f696e747360581b6044820152606490fd5b1561202057565b60405162461bcd60e51b815260206004820152602260248201527f43616e277420726566756e64206d6f726520706f696e7473207468616e207573604482015261195960f21b6064820152608490fd5b1561207757565b60405162461bcd60e51b815260206004820152602660248201527f5061727469636970616e7420616c726561647920636c61696d656420616c6c20604482015265706f696e747360d01b6064820152608490fdfeffdfc1249c027f9191656349feb0761381bb32c9f557e01f419fd08754bf5a1b360894a13ba1a3210667c828492db98dca3e2076cc3735a920a3ca505d382bbca264697066735822122052ade910f11079268665f0c6168b1e14fcfd3a0ddc92bcd784121362f1f551d664736f6c634300080e0033",
  "linkReferences": {},
  "deployedLinkReferences": {}
}