{
  "_format": "hh-sol-artifact-1",
  "contractName": "Rewards",
  "sourceName": "contracts/Rewards/Rewards.sol",
  "abi": [
    {
      "anonymous": false,
      "inputs": [
        {
          "indexed": false,
          "internalType": "address",
          "name": "previousAdmin",
          "type": "address"
        },
        {
          "indexed": false,
          "internalType": "address",
          "name": "newAdmin",
          "type": "address"
        }
      ],
      "name": "AdminChanged",
      "type": "event"
    },
    {
      "anonymous": false,
      "inputs": [
        {
          "indexed": true,
          "internalType": "address",
          "name": "beacon",
          "type": "address"
        }
      ],
      "name": "BeaconUpgraded",
      "type": "event"
    },
    {
      "anonymous": false,
      "inputs": [
        {
          "indexed": false,
          "internalType": "uint8",
          "name": "version",
          "type": "uint8"
        }
      ],
      "name": "Initialized",
      "type": "event"
    },
    {
      "anonymous": false,
      "inputs": [
        {
          "indexed": true,
          "internalType": "address",
          "name": "user",
          "type": "address"
        },
        {
          "indexed": false,
          "internalType": "uint256",
          "name": "amount",
          "type": "uint256"
        }
      ],
      "name": "PointsEarned",
      "type": "event"
    },
    {
      "anonymous": false,
      "inputs": [
        {
          "indexed": true,
          "internalType": "address",
          "name": "user",
          "type": "address"
        },
        {
          "indexed": false,
          "internalType": "uint256",
          "name": "amount",
          "type": "uint256"
        },
        {
          "indexed": false,
          "internalType": "uint256",
          "name": "remaining",
          "type": "uint256"
        }
      ],
      "name": "PointsUsed",
      "type": "event"
    },
    {
      "anonymous": false,
      "inputs": [
        {
          "indexed": true,
          "internalType": "address",
          "name": "token",
          "type": "address"
        },
        {
          "indexed": false,
          "internalType": "uint256",
          "name": "pointRewardPerDay",
          "type": "uint256"
        },
        {
          "indexed": false,
          "internalType": "uint256",
          "name": "positionSize",
          "type": "uint256"
        },
        {
          "indexed": false,
          "internalType": "uint256",
          "name": "positionSizeLimit",
          "type": "uint256"
        }
      ],
      "name": "RewardChanged",
      "type": "event"
    },
    {
      "anonymous": false,
      "inputs": [
        {
          "indexed": true,
          "internalType": "bytes32",
          "name": "role",
          "type": "bytes32"
        },
        {
          "indexed": true,
          "internalType": "bytes32",
          "name": "previousAdminRole",
          "type": "bytes32"
        },
        {
          "indexed": true,
          "internalType": "bytes32",
          "name": "newAdminRole",
          "type": "bytes32"
        }
      ],
      "name": "RoleAdminChanged",
      "type": "event"
    },
    {
      "anonymous": false,
      "inputs": [
        {
          "indexed": true,
          "internalType": "bytes32",
          "name": "role",
          "type": "bytes32"
        },
        {
          "indexed": true,
          "internalType": "address",
          "name": "account",
          "type": "address"
        },
        {
          "indexed": true,
          "internalType": "address",
          "name": "sender",
          "type": "address"
        }
      ],
      "name": "RoleGranted",
      "type": "event"
    },
    {
      "anonymous": false,
      "inputs": [
        {
          "indexed": true,
          "internalType": "bytes32",
          "name": "role",
          "type": "bytes32"
        },
        {
          "indexed": true,
          "internalType": "address",
          "name": "account",
          "type": "address"
        },
        {
          "indexed": true,
          "internalType": "address",
          "name": "sender",
          "type": "address"
        }
      ],
      "name": "RoleRevoked",
      "type": "event"
    },
    {
      "anonymous": false,
      "inputs": [
        {
          "indexed": true,
          "internalType": "address",
          "name": "implementation",
          "type": "address"
        }
      ],
      "name": "Upgraded",
      "type": "event"
    },
    {
      "inputs": [],
      "name": "DEFAULT_ADMIN_ROLE",
      "outputs": [
        {
          "internalType": "bytes32",
          "name": "",
          "type": "bytes32"
        }
      ],
      "stateMutability": "view",
      "type": "function"
    },
    {
      "inputs": [
        {
          "internalType": "address",
          "name": "user",
          "type": "address"
        }
      ],
      "name": "availablePoints",
      "outputs": [
        {
          "internalType": "uint256",
          "name": "",
          "type": "uint256"
        }
      ],
      "stateMutability": "view",
      "type": "function"
    },
    {
      "inputs": [
        {
          "internalType": "address",
          "name": "_account",
          "type": "address"
        },
        {
          "internalType": "uint256",
          "name": "_amount",
          "type": "uint256"
        }
      ],
      "name": "burnUserPoints",
      "outputs": [
        {
          "internalType": "uint256",
          "name": "",
          "type": "uint256"
        }
      ],
      "stateMutability": "nonpayable",
      "type": "function"
    },
    {
      "inputs": [
        {
          "internalType": "address",
          "name": "_address",
          "type": "address"
        },
        {
          "internalType": "uint256",
          "name": "_points",
          "type": "uint256"
        }
      ],
      "name": "claimPoints",
      "outputs": [],
      "stateMutability": "nonpayable",
      "type": "function"
    },
    {
      "inputs": [
        {
          "internalType": "address[]",
          "name": "addresses",
          "type": "address[]"
        }
      ],
      "name": "getPointsUsedBatch",
      "outputs": [
        {
          "internalType": "uint256[]",
          "name": "",
          "type": "uint256[]"
        }
      ],
      "stateMutability": "view",
      "type": "function"
    },
    {
      "inputs": [
        {
          "internalType": "bytes32",
          "name": "role",
          "type": "bytes32"
        }
      ],
      "name": "getRoleAdmin",
      "outputs": [
        {
          "internalType": "bytes32",
          "name": "",
          "type": "bytes32"
        }
      ],
      "stateMutability": "view",
      "type": "function"
    },
    {
      "inputs": [
        {
          "internalType": "bytes32",
          "name": "role",
          "type": "bytes32"
        },
        {
          "internalType": "address",
          "name": "account",
          "type": "address"
        }
      ],
      "name": "grantRole",
      "outputs": [],
      "stateMutability": "nonpayable",
      "type": "function"
    },
    {
      "inputs": [
        {
          "internalType": "bytes32",
          "name": "role",
          "type": "bytes32"
        },
        {
          "internalType": "address",
          "name": "account",
          "type": "address"
        }
      ],
      "name": "hasRole",
      "outputs": [
        {
          "internalType": "bool",
          "name": "",
          "type": "bool"
        }
      ],
      "stateMutability": "view",
      "type": "function"
    },
    {
      "inputs": [
        {
          "internalType": "address",
          "name": "_admin",
          "type": "address"
        },
        {
          "internalType": "address",
          "name": "_sageStorage",
          "type": "address"
        }
      ],
      "name": "initialize",
      "outputs": [],
      "stateMutability": "nonpayable",
      "type": "function"
    },
    {
      "inputs": [],
      "name": "proxiableUUID",
      "outputs": [
        {
          "internalType": "bytes32",
          "name": "",
          "type": "bytes32"
        }
      ],
      "stateMutability": "view",
      "type": "function"
    },
    {
      "inputs": [
        {
          "internalType": "address",
          "name": "_account",
          "type": "address"
        },
        {
          "internalType": "uint256",
          "name": "_points",
          "type": "uint256"
        }
      ],
      "name": "refundPoints",
      "outputs": [],
      "stateMutability": "nonpayable",
      "type": "function"
    },
    {
      "inputs": [
        {
          "internalType": "uint256",
          "name": "_index",
          "type": "uint256"
        }
      ],
      "name": "removeReward",
      "outputs": [],
      "stateMutability": "nonpayable",
      "type": "function"
    },
    {
      "inputs": [
        {
          "internalType": "bytes32",
          "name": "role",
          "type": "bytes32"
        },
        {
          "internalType": "address",
          "name": "account",
          "type": "address"
        }
      ],
      "name": "renounceRole",
      "outputs": [],
      "stateMutability": "nonpayable",
      "type": "function"
    },
    {
      "inputs": [
        {
          "internalType": "bytes32",
          "name": "role",
          "type": "bytes32"
        },
        {
          "internalType": "address",
          "name": "account",
          "type": "address"
        }
      ],
      "name": "revokeRole",
      "outputs": [],
      "stateMutability": "nonpayable",
      "type": "function"
    },
    {
      "inputs": [
        {
          "internalType": "address",
          "name": "",
          "type": "address"
        }
      ],
      "name": "rewardInfo",
      "outputs": [
        {
          "internalType": "uint16",
          "name": "chainId",
          "type": "uint16"
        },
        {
          "internalType": "uint256",
          "name": "pointRewardPerDay",
          "type": "uint256"
        },
        {
          "internalType": "uint256",
          "name": "positionSize",
          "type": "uint256"
        },
        {
          "internalType": "uint256",
          "name": "positionSizeLimit",
          "type": "uint256"
        }
      ],
      "stateMutability": "view",
      "type": "function"
    },
    {
      "inputs": [
        {
          "internalType": "uint256",
          "name": "",
          "type": "uint256"
        }
      ],
      "name": "rewardTokenAddresses",
      "outputs": [
        {
          "internalType": "address",
          "name": "",
          "type": "address"
        }
      ],
      "stateMutability": "view",
      "type": "function"
    },
    {
      "inputs": [
        {
          "internalType": "address",
          "name": "_token",
          "type": "address"
        },
        {
          "internalType": "uint16",
          "name": "_chainId",
          "type": "uint16"
        },
        {
          "internalType": "uint256",
          "name": "_pointRewardPerDay",
          "type": "uint256"
        },
        {
          "internalType": "uint256",
          "name": "_positionSize",
          "type": "uint256"
        },
        {
          "internalType": "uint256",
          "name": "_positionSizeLimit",
          "type": "uint256"
        }
      ],
      "name": "setRewardRate",
      "outputs": [],
      "stateMutability": "nonpayable",
      "type": "function"
    },
    {
      "inputs": [
        {
          "internalType": "bytes4",
          "name": "interfaceId",
          "type": "bytes4"
        }
      ],
      "name": "supportsInterface",
      "outputs": [
        {
          "internalType": "bool",
          "name": "",
          "type": "bool"
        }
      ],
      "stateMutability": "view",
      "type": "function"
    },
    {
      "inputs": [
        {
          "internalType": "address",
          "name": "",
          "type": "address"
        }
      ],
      "name": "totalPointsEarned",
      "outputs": [
        {
          "internalType": "uint256",
          "name": "",
          "type": "uint256"
        }
      ],
      "stateMutability": "view",
      "type": "function"
    },
    {
      "inputs": [
        {
          "internalType": "address",
          "name": "",
          "type": "address"
        }
      ],
      "name": "totalPointsUsed",
      "outputs": [
        {
          "internalType": "uint256",
          "name": "",
          "type": "uint256"
        }
      ],
      "stateMutability": "view",
      "type": "function"
    },
    {
      "inputs": [
        {
          "internalType": "address",
          "name": "newImplementation",
          "type": "address"
        }
      ],
      "name": "upgradeTo",
      "outputs": [],
      "stateMutability": "nonpayable",
      "type": "function"
    },
    {
      "inputs": [
        {
          "internalType": "address",
          "name": "newImplementation",
          "type": "address"
        },
        {
          "internalType": "bytes",
          "name": "data",
          "type": "bytes"
        }
      ],
      "name": "upgradeToAndCall",
      "outputs": [],
      "stateMutability": "payable",
      "type": "function"
    }
  ],
  "bytecode": "0x60a06040523060805234801561001457600080fd5b5060805161212d61004c60003960008181610960015281816109a001528181610ae301528181610b230152610bb2015261212d6000f3fe6080604052600436106101355760003560e01c80635622dd75116100ab578063a217fddf1161006f578063a217fddf14610389578063c553173f1461039e578063cbecf6b5146103be578063d547741f1461042a578063f662781d1461044a578063f82629ac1461047757600080fd5b80635622dd75146102c45780637b2d9b2c146102e457806389415cdb1461031c57806391d1485414610349578063966addc01461036957600080fd5b806336568abe116100fd57806336568abe1461020f5780633659cfe61461022f57806347e134e81461024f578063485cc9551461027c5780634f1ef2861461029c57806352d1902d146102af57600080fd5b806301ffc9a71461013a5780631053dcc51461016f5780631e961d2714610191578063248a9ca3146101bf5780632f2ff15d146101ef575b600080fd5b34801561014657600080fd5b5061015a610155366004611aa2565b610497565b60405190151581526020015b60405180910390f35b34801561017b57600080fd5b5061018f61018a366004611ae3565b6104ce565b005b34801561019d57600080fd5b506101b16101ac366004611b39565b6106b9565b604051908152602001610166565b3480156101cb57600080fd5b506101b16101da366004611b63565b60009081526065602052604090206001015490565b3480156101fb57600080fd5b5061018f61020a366004611b7c565b6108ae565b34801561021b57600080fd5b5061018f61022a366004611b7c565b6108d8565b34801561023b57600080fd5b5061018f61024a366004611ba8565b610956565b34801561025b57600080fd5b506101b161026a366004611ba8565b60fc6020526000908152604090205481565b34801561028857600080fd5b5061018f610297366004611bc3565b610a35565b61018f6102aa366004611c03565b610ad9565b3480156102bb57600080fd5b506101b1610ba5565b3480156102d057600080fd5b506101b16102df366004611ba8565b610c58565b3480156102f057600080fd5b506103046102ff366004611b63565b610c86565b6040516001600160a01b039091168152602001610166565b34801561032857600080fd5b5061033c610337366004611cc5565b610cb0565b6040516101669190611d3a565b34801561035557600080fd5b5061015a610364366004611b7c565b610d85565b34801561037557600080fd5b5061018f610384366004611b39565b610db0565b34801561039557600080fd5b506101b1600081565b3480156103aa57600080fd5b5061018f6103b9366004611b63565b610f3c565b3480156103ca57600080fd5b506104056103d9366004611ba8565b60fe60205260009081526040902080546001820154600283015460039093015461ffff90921692909184565b6040805161ffff90951685526020850193909352918301526060820152608001610166565b34801561043657600080fd5b5061018f610445366004611b7c565b6110c2565b34801561045657600080fd5b506101b1610465366004611ba8565b60fd6020526000908152604090205481565b34801561048357600080fd5b5061018f610492366004611b39565b6110e7565b60006001600160e01b03198216637965db0b60e01b14806104c857506301ffc9a760e01b6001600160e01b03198316145b92915050565b60fb54604051632474521560e21b8152600060048201523360248201526001600160a01b03909116906391d1485490604401602060405180830381865afa15801561051d573d6000803e3d6000fd5b505050506040513d601f19601f820116820180604052508101906105419190611d7e565b6105665760405162461bcd60e51b815260040161055d90611da0565b60405180910390fd5b6040805160808101825261ffff8681168252602080830187815283850187815260608086018881526001600160a01b038d16600081815260fe87528990209751885461ffff19169716969096178755925160018701559051600286015590516003909401939093558351878152908101869052928301849052917fe64e25eb3c13837403496f1bbbb97a7e47098d0718b905b9cc8b258035ca7042910160405180910390a260005b60ff5481101561066557856001600160a01b031660ff828154811061063557610635611dca565b6000918252602090912001546001600160a01b03160361065557506106b2565b61065e81611df6565b905061060e565b5060ff80546001810182556000919091527fe08ec2af2cfc251225e1968fd6ca21e4044f129bffa95bac3503be8bdb30a3670180546001600160a01b0319166001600160a01b0387161790555b5050505050565b60fb54604051632474521560e21b81527f408bc7479ef9119d5f38cec4b670571000f4d832df9a54fc1998e43ee684284160048201523360248201526000916001600160a01b0316906391d1485490604401602060405180830381865afa158015610728573d6000803e3d6000fd5b505050506040513d601f19601f8201168201806040525081019061074c9190611d7e565b6107685760405162461bcd60e51b815260040161055d90611e0f565b6001600160a01b038316600090815260fc602090815260408083205460fd9092528220546107969190611e46565b9050600083116107dd5760405162461bcd60e51b815260206004820152601260248201527143616e277420757365203020706f696e747360701b604482015260640161055d565b808311156108215760405162461bcd60e51b81526020600482015260116024820152704e6f7420656e6f75676820706f696e747360781b604482015260640161055d565b6001600160a01b038416600090815260fc602052604081208054859290610849908490611e5d565b90915550506001600160a01b0384167f0f4865026ee2a8b7b57c8730b3b7b62eeff468bf638f5d04dcd3e21ae2a8024d846108848185611e46565b6040805192835260208301919091520160405180910390a26108a68382611e46565b949350505050565b6000828152606560205260409020600101546108c98161127c565b6108d38383611286565b505050565b6001600160a01b03811633146109485760405162461bcd60e51b815260206004820152602f60248201527f416363657373436f6e74726f6c3a2063616e206f6e6c792072656e6f756e636560448201526e103937b632b9903337b91039b2b63360891b606482015260840161055d565b610952828261130c565b5050565b6001600160a01b037f000000000000000000000000000000000000000000000000000000000000000016300361099e5760405162461bcd60e51b815260040161055d90611e75565b7f00000000000000000000000000000000000000000000000000000000000000006001600160a01b03166109e76000805160206120b1833981519152546001600160a01b031690565b6001600160a01b031614610a0d5760405162461bcd60e51b815260040161055d90611ec1565b610a1681611373565b60408051600080825260208201909252610a3291839190611402565b50565b6000610a41600161156d565b90508015610a59576000805461ff0019166101001790555b610a616115fa565b610a696115fa565b610a74600084611286565b60fb80546001600160a01b0319166001600160a01b03841617905580156108d3576000805461ff0019169055604051600181527f7f26b83ff96e1f2b6a682f133852f6798a09c465da95921460cefb38474024989060200160405180910390a1505050565b6001600160a01b037f0000000000000000000000000000000000000000000000000000000000000000163003610b215760405162461bcd60e51b815260040161055d90611e75565b7f00000000000000000000000000000000000000000000000000000000000000006001600160a01b0316610b6a6000805160206120b1833981519152546001600160a01b031690565b6001600160a01b031614610b905760405162461bcd60e51b815260040161055d90611ec1565b610b9982611373565b61095282826001611402565b6000306001600160a01b037f00000000000000000000000000000000000000000000000000000000000000001614610c455760405162461bcd60e51b815260206004820152603860248201527f555550535570677261646561626c653a206d757374206e6f742062652063616c60448201527f6c6564207468726f7567682064656c656761746563616c6c0000000000000000606482015260840161055d565b506000805160206120b183398151915290565b6001600160a01b038116600090815260fc602090815260408083205460fd9092528220546104c89190611e46565b60ff8181548110610c9657600080fd5b6000918252602090912001546001600160a01b0316905081565b606060008267ffffffffffffffff811115610ccd57610ccd611bed565b604051908082528060200260200182016040528015610cf6578160200160208202803683370190505b50905060005b83811015610d7d5760fc6000868684818110610d1a57610d1a611dca565b9050602002016020810190610d2f9190611ba8565b6001600160a01b03166001600160a01b0316815260200190815260200160002054828281518110610d6257610d62611dca565b6020908102919091010152610d7681611df6565b9050610cfc565b509392505050565b60009182526065602090815260408084206001600160a01b0393909316845291905290205460ff1690565b60fb54604051632474521560e21b81527f408bc7479ef9119d5f38cec4b670571000f4d832df9a54fc1998e43ee684284160048201523360248201526001600160a01b03909116906391d1485490604401602060405180830381865afa158015610e1e573d6000803e3d6000fd5b505050506040513d601f19601f82011682018060405250810190610e429190611d7e565b610e5e5760405162461bcd60e51b815260040161055d90611e0f565b6001600160a01b038216600090815260fd6020526040812054610e819083611e46565b905060008111610ee25760405162461bcd60e51b815260206004820152602660248201527f5061727469636970616e7420616c726561647920636c61696d656420616c6c20604482015265706f696e747360d01b606482015260840161055d565b6001600160a01b038316600081815260fd602052604090819020849055517f2c4c0dc427a50c4a69d2fc184c47a311acf950d8d2f289fbaee64e83e9b2896790610f2f9084815260200190565b60405180910390a2505050565b60fb54604051632474521560e21b8152600060048201523360248201526001600160a01b03909116906391d1485490604401602060405180830381865afa158015610f8b573d6000803e3d6000fd5b505050506040513d601f19601f82011682018060405250810190610faf9190611d7e565b610fcb5760405162461bcd60e51b815260040161055d90611da0565b60ff5481106110125760405162461bcd60e51b8152602060048201526013602482015272496e646578206f7574206f6620626f756e647360681b604482015260640161055d565b60ff805461102290600190611e46565b8154811061103257611032611dca565b60009182526020909120015460ff80546001600160a01b03909216918390811061105e5761105e611dca565b9060005260206000200160006101000a8154816001600160a01b0302191690836001600160a01b0316021790555060ff80548061109d5761109d611f0d565b600082815260209020810160001990810180546001600160a01b031916905501905550565b6000828152606560205260409020600101546110dd8161127c565b6108d3838361130c565b60fb54604051632474521560e21b81527f408bc7479ef9119d5f38cec4b670571000f4d832df9a54fc1998e43ee684284160048201523360248201526001600160a01b03909116906391d1485490604401602060405180830381865afa158015611155573d6000803e3d6000fd5b505050506040513d601f19601f820116820180604052508101906111799190611d7e565b6111955760405162461bcd60e51b815260040161055d90611e0f565b600081116111dd5760405162461bcd60e51b815260206004820152601560248201527443616e277420726566756e64203020706f696e747360581b604482015260640161055d565b6001600160a01b038216600090815260fc6020526040902054808211156112515760405162461bcd60e51b815260206004820152602260248201527f43616e277420726566756e64206d6f726520706f696e7473207468616e207573604482015261195960f21b606482015260840161055d565b61125b8282611e46565b6001600160a01b03909316600090815260fc60205260409020929092555050565b610a328133611667565b6112908282610d85565b6109525760008281526065602090815260408083206001600160a01b03851684529091529020805460ff191660011790556112c83390565b6001600160a01b0316816001600160a01b0316837f2f8788117e7eff1d82e926ec794901d17c78024a50270940304540a733656f0d60405160405180910390a45050565b6113168282610d85565b156109525760008281526065602090815260408083206001600160a01b0385168085529252808320805460ff1916905551339285917ff6391f5c32d9c69d2a47ea670b442974b53935d1edc7fd64eb21e047a839171b9190a45050565b60fb54604051632474521560e21b8152600060048201523360248201526001600160a01b03909116906391d1485490604401602060405180830381865afa1580156113c2573d6000803e3d6000fd5b505050506040513d601f19601f820116820180604052508101906113e69190611d7e565b610a325760405162461bcd60e51b815260040161055d90611da0565b7f4910fdfa16fed3260ed0e7147f7cc6da11a60208b5b9406d12a635614ffd91435460ff1615611435576108d3836116cb565b826001600160a01b03166352d1902d6040518163ffffffff1660e01b8152600401602060405180830381865afa92505050801561148f575060408051601f3d908101601f1916820190925261148c91810190611f23565b60015b6114f25760405162461bcd60e51b815260206004820152602e60248201527f45524331393637557067726164653a206e657720696d706c656d656e7461746960448201526d6f6e206973206e6f74205555505360901b606482015260840161055d565b6000805160206120b183398151915281146115615760405162461bcd60e51b815260206004820152602960248201527f45524331393637557067726164653a20756e737570706f727465642070726f786044820152681a58589b195555525160ba1b606482015260840161055d565b506108d3838383611767565b60008054610100900460ff16156115b4578160ff1660011480156115905750303b155b6115ac5760405162461bcd60e51b815260040161055d90611f3c565b506000919050565b60005460ff8084169116106115db5760405162461bcd60e51b815260040161055d90611f3c565b506000805460ff191660ff92909216919091179055600190565b919050565b600054610100900460ff166116655760405162461bcd60e51b815260206004820152602b60248201527f496e697469616c697a61626c653a20636f6e7472616374206973206e6f74206960448201526a6e697469616c697a696e6760a81b606482015260840161055d565b565b6116718282610d85565b61095257611689816001600160a01b03166014611792565b611694836020611792565b6040516020016116a5929190611fb6565b60408051601f198184030181529082905262461bcd60e51b825261055d9160040161202b565b6001600160a01b0381163b6117385760405162461bcd60e51b815260206004820152602d60248201527f455243313936373a206e657720696d706c656d656e746174696f6e206973206e60448201526c1bdd08184818dbdb9d1c9858dd609a1b606482015260840161055d565b6000805160206120b183398151915280546001600160a01b0319166001600160a01b0392909216919091179055565b61177083611935565b60008251118061177d5750805b156108d35761178c8383611975565b50505050565b606060006117a183600261205e565b6117ac906002611e5d565b67ffffffffffffffff8111156117c4576117c4611bed565b6040519080825280601f01601f1916602001820160405280156117ee576020820181803683370190505b509050600360fc1b8160008151811061180957611809611dca565b60200101906001600160f81b031916908160001a905350600f60fb1b8160018151811061183857611838611dca565b60200101906001600160f81b031916908160001a905350600061185c84600261205e565b611867906001611e5d565b90505b60018111156118df576f181899199a1a9b1b9c1cb0b131b232b360811b85600f166010811061189b5761189b611dca565b1a60f81b8282815181106118b1576118b1611dca565b60200101906001600160f81b031916908160001a90535060049490941c936118d88161207d565b905061186a565b50831561192e5760405162461bcd60e51b815260206004820181905260248201527f537472696e67733a20686578206c656e67746820696e73756666696369656e74604482015260640161055d565b9392505050565b61193e816116cb565b6040516001600160a01b038216907fbc7cd75a20ee27fd9adebab32041f755214dbc6bffa90cc0225b39da2e5c2d3b90600090a250565b60606001600160a01b0383163b6119dd5760405162461bcd60e51b815260206004820152602660248201527f416464726573733a2064656c65676174652063616c6c20746f206e6f6e2d636f6044820152651b9d1c9858dd60d21b606482015260840161055d565b600080846001600160a01b0316846040516119f89190612094565b600060405180830381855af49150503d8060008114611a33576040519150601f19603f3d011682016040523d82523d6000602084013e611a38565b606091505b5091509150611a6082826040518060600160405280602781526020016120d160279139611a69565b95945050505050565b60608315611a7857508161192e565b825115611a885782518084602001fd5b8160405162461bcd60e51b815260040161055d919061202b565b600060208284031215611ab457600080fd5b81356001600160e01b03198116811461192e57600080fd5b80356001600160a01b03811681146115f557600080fd5b600080600080600060a08688031215611afb57600080fd5b611b0486611acc565b9450602086013561ffff81168114611b1b57600080fd5b94979496505050506040830135926060810135926080909101359150565b60008060408385031215611b4c57600080fd5b611b5583611acc565b946020939093013593505050565b600060208284031215611b7557600080fd5b5035919050565b60008060408385031215611b8f57600080fd5b82359150611b9f60208401611acc565b90509250929050565b600060208284031215611bba57600080fd5b61192e82611acc565b60008060408385031215611bd657600080fd5b611bdf83611acc565b9150611b9f60208401611acc565b634e487b7160e01b600052604160045260246000fd5b60008060408385031215611c1657600080fd5b611c1f83611acc565b9150602083013567ffffffffffffffff80821115611c3c57600080fd5b818501915085601f830112611c5057600080fd5b813581811115611c6257611c62611bed565b604051601f8201601f19908116603f01168101908382118183101715611c8a57611c8a611bed565b81604052828152886020848701011115611ca357600080fd5b8260208601602083013760006020848301015280955050505050509250929050565b60008060208385031215611cd857600080fd5b823567ffffffffffffffff80821115611cf057600080fd5b818501915085601f830112611d0457600080fd5b813581811115611d1357600080fd5b8660208260051b8501011115611d2857600080fd5b60209290920196919550909350505050565b6020808252825182820181905260009190848201906040850190845b81811015611d7257835183529284019291840191600101611d56565b50909695505050505050565b600060208284031215611d9057600080fd5b8151801515811461192e57600080fd5b60208082526010908201526f41646d696e2063616c6c73206f6e6c7960801b604082015260600190565b634e487b7160e01b600052603260045260246000fd5b634e487b7160e01b600052601160045260246000fd5b600060018201611e0857611e08611de0565b5060010190565b6020808252601a908201527f4d697373696e6720706f696e74206d616e6167657220726f6c65000000000000604082015260600190565b600082821015611e5857611e58611de0565b500390565b60008219821115611e7057611e70611de0565b500190565b6020808252602c908201527f46756e6374696f6e206d7573742062652063616c6c6564207468726f7567682060408201526b19195b1959d85d1958d85b1b60a21b606082015260800190565b6020808252602c908201527f46756e6374696f6e206d7573742062652063616c6c6564207468726f7567682060408201526b6163746976652070726f787960a01b606082015260800190565b634e487b7160e01b600052603160045260246000fd5b600060208284031215611f3557600080fd5b5051919050565b6020808252602e908201527f496e697469616c697a61626c653a20636f6e747261637420697320616c72656160408201526d191e481a5b9a5d1a585b1a5e995960921b606082015260800190565b60005b83811015611fa5578181015183820152602001611f8d565b8381111561178c5750506000910152565b7f416363657373436f6e74726f6c3a206163636f756e7420000000000000000000815260008351611fee816017850160208801611f8a565b7001034b99036b4b9b9b4b733903937b6329607d1b601791840191820152835161201f816028840160208801611f8a565b01602801949350505050565b602081526000825180602084015261204a816040850160208701611f8a565b601f01601f19169190910160400192915050565b600081600019048311821515161561207857612078611de0565b500290565b60008161208c5761208c611de0565b506000190190565b600082516120a6818460208701611f8a565b919091019291505056fe360894a13ba1a3210667c828492db98dca3e2076cc3735a920a3ca505d382bbc416464726573733a206c6f772d6c6576656c2064656c65676174652063616c6c206661696c6564a264697066735822122071b22cac1883f4f76bc5ee673e28ae9cc69a128639dde8553105336908d1abe864736f6c634300080e0033",
  "linkReferences": {},
  "deployedLinkReferences": {}
}