{
  "_format": "hh-sol-artifact-1",
  "contractName": "Rewards",
  "sourceName": "contracts/Rewards/Rewards.sol",
  "abi": [
    {
      "anonymous": false,
      "inputs": [
        {
          "indexed": false,
          "internalType": "address",
          "name": "previousAdmin",
          "type": "address"
        },
        {
          "indexed": false,
          "internalType": "address",
          "name": "newAdmin",
          "type": "address"
        }
      ],
      "name": "AdminChanged",
      "type": "event"
    },
    {
      "anonymous": false,
      "inputs": [
        {
          "indexed": true,
          "internalType": "address",
          "name": "beacon",
          "type": "address"
        }
      ],
      "name": "BeaconUpgraded",
      "type": "event"
    },
    {
      "anonymous": false,
      "inputs": [
        {
          "indexed": false,
          "internalType": "uint8",
          "name": "version",
          "type": "uint8"
        }
      ],
      "name": "Initialized",
      "type": "event"
    },
    {
      "anonymous": false,
      "inputs": [
        {
          "indexed": true,
          "internalType": "address",
          "name": "user",
          "type": "address"
        },
        {
          "indexed": false,
          "internalType": "uint256",
          "name": "amount",
          "type": "uint256"
        }
      ],
      "name": "PointsEarned",
      "type": "event"
    },
    {
      "anonymous": false,
      "inputs": [
        {
          "indexed": true,
          "internalType": "address",
          "name": "user",
          "type": "address"
        },
        {
          "indexed": false,
          "internalType": "uint256",
          "name": "amount",
          "type": "uint256"
        },
        {
          "indexed": false,
          "internalType": "uint256",
          "name": "remaining",
          "type": "uint256"
        }
      ],
      "name": "PointsUsed",
      "type": "event"
    },
    {
      "anonymous": false,
      "inputs": [
        {
          "indexed": true,
          "internalType": "address",
          "name": "token",
          "type": "address"
        },
        {
          "indexed": false,
          "internalType": "uint256",
          "name": "pointRewardPerDay",
          "type": "uint256"
        },
        {
          "indexed": false,
          "internalType": "uint256",
          "name": "positionSize",
          "type": "uint256"
        },
        {
          "indexed": false,
          "internalType": "uint256",
          "name": "positionSizeLimit",
          "type": "uint256"
        }
      ],
      "name": "RewardChanged",
      "type": "event"
    },
    {
      "anonymous": false,
      "inputs": [
        {
          "indexed": true,
          "internalType": "bytes32",
          "name": "role",
          "type": "bytes32"
        },
        {
          "indexed": true,
          "internalType": "bytes32",
          "name": "previousAdminRole",
          "type": "bytes32"
        },
        {
          "indexed": true,
          "internalType": "bytes32",
          "name": "newAdminRole",
          "type": "bytes32"
        }
      ],
      "name": "RoleAdminChanged",
      "type": "event"
    },
    {
      "anonymous": false,
      "inputs": [
        {
          "indexed": true,
          "internalType": "bytes32",
          "name": "role",
          "type": "bytes32"
        },
        {
          "indexed": true,
          "internalType": "address",
          "name": "account",
          "type": "address"
        },
        {
          "indexed": true,
          "internalType": "address",
          "name": "sender",
          "type": "address"
        }
      ],
      "name": "RoleGranted",
      "type": "event"
    },
    {
      "anonymous": false,
      "inputs": [
        {
          "indexed": true,
          "internalType": "bytes32",
          "name": "role",
          "type": "bytes32"
        },
        {
          "indexed": true,
          "internalType": "address",
          "name": "account",
          "type": "address"
        },
        {
          "indexed": true,
          "internalType": "address",
          "name": "sender",
          "type": "address"
        }
      ],
      "name": "RoleRevoked",
      "type": "event"
    },
    {
      "anonymous": false,
      "inputs": [
        {
          "indexed": true,
          "internalType": "address",
          "name": "implementation",
          "type": "address"
        }
      ],
      "name": "Upgraded",
      "type": "event"
    },
    {
      "inputs": [],
      "name": "DEFAULT_ADMIN_ROLE",
      "outputs": [
        {
          "internalType": "bytes32",
          "name": "",
          "type": "bytes32"
        }
      ],
      "stateMutability": "view",
      "type": "function"
    },
    {
      "inputs": [],
      "name": "MANAGE_POINTS_ROLE",
      "outputs": [
        {
          "internalType": "bytes32",
          "name": "",
          "type": "bytes32"
        }
      ],
      "stateMutability": "view",
      "type": "function"
    },
    {
      "inputs": [
        {
          "internalType": "address",
          "name": "user",
          "type": "address"
        }
      ],
      "name": "availablePoints",
      "outputs": [
        {
          "internalType": "uint256",
          "name": "",
          "type": "uint256"
        }
      ],
      "stateMutability": "view",
      "type": "function"
    },
    {
      "inputs": [
        {
          "internalType": "address",
          "name": "_account",
          "type": "address"
        },
        {
          "internalType": "uint256",
          "name": "_amount",
          "type": "uint256"
        }
      ],
      "name": "burnUserPoints",
      "outputs": [
        {
          "internalType": "uint256",
          "name": "",
          "type": "uint256"
        }
      ],
      "stateMutability": "nonpayable",
      "type": "function"
    },
    {
      "inputs": [
        {
          "internalType": "address",
          "name": "_address",
          "type": "address"
        },
        {
          "internalType": "uint256",
          "name": "_points",
          "type": "uint256"
        }
      ],
      "name": "claimPoints",
      "outputs": [],
      "stateMutability": "nonpayable",
      "type": "function"
    },
    {
      "inputs": [
        {
          "internalType": "address[]",
          "name": "addresses",
          "type": "address[]"
        }
      ],
      "name": "getPointsUsedBatch",
      "outputs": [
        {
          "internalType": "uint256[]",
          "name": "",
          "type": "uint256[]"
        }
      ],
      "stateMutability": "view",
      "type": "function"
    },
    {
      "inputs": [
        {
          "internalType": "bytes32",
          "name": "role",
          "type": "bytes32"
        }
      ],
      "name": "getRoleAdmin",
      "outputs": [
        {
          "internalType": "bytes32",
          "name": "",
          "type": "bytes32"
        }
      ],
      "stateMutability": "view",
      "type": "function"
    },
    {
      "inputs": [
        {
          "internalType": "bytes32",
          "name": "role",
          "type": "bytes32"
        },
        {
          "internalType": "address",
          "name": "account",
          "type": "address"
        }
      ],
      "name": "grantRole",
      "outputs": [],
      "stateMutability": "nonpayable",
      "type": "function"
    },
    {
      "inputs": [
        {
          "internalType": "bytes32",
          "name": "role",
          "type": "bytes32"
        },
        {
          "internalType": "address",
          "name": "account",
          "type": "address"
        }
      ],
      "name": "hasRole",
      "outputs": [
        {
          "internalType": "bool",
          "name": "",
          "type": "bool"
        }
      ],
      "stateMutability": "view",
      "type": "function"
    },
    {
      "inputs": [
        {
          "internalType": "address",
          "name": "_admin",
          "type": "address"
        }
      ],
      "name": "initialize",
      "outputs": [],
      "stateMutability": "nonpayable",
      "type": "function"
    },
    {
      "inputs": [],
      "name": "proxiableUUID",
      "outputs": [
        {
          "internalType": "bytes32",
          "name": "",
          "type": "bytes32"
        }
      ],
      "stateMutability": "view",
      "type": "function"
    },
    {
      "inputs": [
        {
          "internalType": "address",
          "name": "_account",
          "type": "address"
        },
        {
          "internalType": "uint256",
          "name": "_points",
          "type": "uint256"
        }
      ],
      "name": "refundPoints",
      "outputs": [],
      "stateMutability": "nonpayable",
      "type": "function"
    },
    {
      "inputs": [
        {
          "internalType": "uint256",
          "name": "_index",
          "type": "uint256"
        }
      ],
      "name": "removeReward",
      "outputs": [],
      "stateMutability": "nonpayable",
      "type": "function"
    },
    {
      "inputs": [
        {
          "internalType": "bytes32",
          "name": "role",
          "type": "bytes32"
        },
        {
          "internalType": "address",
          "name": "account",
          "type": "address"
        }
      ],
      "name": "renounceRole",
      "outputs": [],
      "stateMutability": "nonpayable",
      "type": "function"
    },
    {
      "inputs": [
        {
          "internalType": "bytes32",
          "name": "role",
          "type": "bytes32"
        },
        {
          "internalType": "address",
          "name": "account",
          "type": "address"
        }
      ],
      "name": "revokeRole",
      "outputs": [],
      "stateMutability": "nonpayable",
      "type": "function"
    },
    {
      "inputs": [
        {
          "internalType": "address",
          "name": "",
          "type": "address"
        }
      ],
      "name": "rewardInfo",
      "outputs": [
        {
          "internalType": "uint16",
          "name": "chainId",
          "type": "uint16"
        },
        {
          "internalType": "uint256",
          "name": "pointRewardPerDay",
          "type": "uint256"
        },
        {
          "internalType": "uint256",
          "name": "positionSize",
          "type": "uint256"
        },
        {
          "internalType": "uint256",
          "name": "positionSizeLimit",
          "type": "uint256"
        }
      ],
      "stateMutability": "view",
      "type": "function"
    },
    {
      "inputs": [
        {
          "internalType": "uint256",
          "name": "",
          "type": "uint256"
        }
      ],
      "name": "rewardTokenAddresses",
      "outputs": [
        {
          "internalType": "address",
          "name": "",
          "type": "address"
        }
      ],
      "stateMutability": "view",
      "type": "function"
    },
    {
      "inputs": [
        {
          "internalType": "address",
          "name": "_token",
          "type": "address"
        },
        {
          "internalType": "uint16",
          "name": "_chainId",
          "type": "uint16"
        },
        {
          "internalType": "uint256",
          "name": "_pointRewardPerDay",
          "type": "uint256"
        },
        {
          "internalType": "uint256",
          "name": "_positionSize",
          "type": "uint256"
        },
        {
          "internalType": "uint256",
          "name": "_positionSizeLimit",
          "type": "uint256"
        }
      ],
      "name": "setRewardRate",
      "outputs": [],
      "stateMutability": "nonpayable",
      "type": "function"
    },
    {
      "inputs": [
        {
          "internalType": "bytes4",
          "name": "interfaceId",
          "type": "bytes4"
        }
      ],
      "name": "supportsInterface",
      "outputs": [
        {
          "internalType": "bool",
          "name": "",
          "type": "bool"
        }
      ],
      "stateMutability": "view",
      "type": "function"
    },
    {
      "inputs": [
        {
          "internalType": "address",
          "name": "",
          "type": "address"
        }
      ],
      "name": "totalPointsEarned",
      "outputs": [
        {
          "internalType": "uint256",
          "name": "",
          "type": "uint256"
        }
      ],
      "stateMutability": "view",
      "type": "function"
    },
    {
      "inputs": [
        {
          "internalType": "address",
          "name": "",
          "type": "address"
        }
      ],
      "name": "totalPointsUsed",
      "outputs": [
        {
          "internalType": "uint256",
          "name": "",
          "type": "uint256"
        }
      ],
      "stateMutability": "view",
      "type": "function"
    },
    {
      "inputs": [
        {
          "internalType": "address",
          "name": "newImplementation",
          "type": "address"
        }
      ],
      "name": "upgradeTo",
      "outputs": [],
      "stateMutability": "nonpayable",
      "type": "function"
    },
    {
      "inputs": [
        {
          "internalType": "address",
          "name": "newImplementation",
          "type": "address"
        },
        {
          "internalType": "bytes",
          "name": "data",
          "type": "bytes"
        }
      ],
      "name": "upgradeToAndCall",
      "outputs": [],
      "stateMutability": "payable",
      "type": "function"
    }
  ],
  "bytecode": "0x60a06040523060805234801561001457600080fd5b50608051611ebe61004c600039600081816108dc0152818161091c015281816109bb015281816109fb0152610a8a0152611ebe6000f3fe6080604052600436106101405760003560e01c80635622dd75116100b6578063c4d66de81161006f578063c4d66de8146103ab578063c553173f146103cb578063cbecf6b5146103eb578063d547741f14610457578063f662781d14610477578063f82629ac146104a457600080fd5b80635622dd75146102d15780637b2d9b2c146102f157806389415cdb1461032957806391d1485414610356578063966addc014610376578063a217fddf1461039657600080fd5b806336568abe1161010857806336568abe1461021a5780633659cfe61461023a57806347e134e81461025a57806349123dac146102875780634f1ef286146102a957806352d1902d146102bc57600080fd5b806301ffc9a7146101455780631053dcc51461017a5780631e961d271461019c578063248a9ca3146101ca5780632f2ff15d146101fa575b600080fd5b34801561015157600080fd5b50610165610160366004611896565b6104c4565b60405190151581526020015b60405180910390f35b34801561018657600080fd5b5061019a6101953660046118d7565b6104fb565b005b3480156101a857600080fd5b506101bc6101b736600461192d565b61067e565b604051908152602001610171565b3480156101d657600080fd5b506101bc6101e5366004611957565b60009081526065602052604090206001015490565b34801561020657600080fd5b5061019a610215366004611970565b61082a565b34801561022657600080fd5b5061019a610235366004611970565b610854565b34801561024657600080fd5b5061019a61025536600461199c565b6108d2565b34801561026657600080fd5b506101bc61027536600461199c565b60fb6020526000908152604090205481565b34801561029357600080fd5b506101bc600080516020611e2283398151915281565b61019a6102b73660046119cd565b6109b1565b3480156102c857600080fd5b506101bc610a7d565b3480156102dd57600080fd5b506101bc6102ec36600461199c565b610b30565b3480156102fd57600080fd5b5061031161030c366004611957565b610b5e565b6040516001600160a01b039091168152602001610171565b34801561033557600080fd5b50610349610344366004611a8f565b610b88565b6040516101719190611b04565b34801561036257600080fd5b50610165610371366004611970565b610c5d565b34801561038257600080fd5b5061019a61039136600461192d565b610c88565b3480156103a257600080fd5b506101bc600081565b3480156103b757600080fd5b5061019a6103c636600461199c565b610dca565b3480156103d757600080fd5b5061019a6103e6366004611957565b610e52565b3480156103f757600080fd5b5061043261040636600461199c565b60fd60205260009081526040902080546001820154600283015460039093015461ffff90921692909184565b6040805161ffff90951685526020850193909352918301526060820152608001610171565b34801561046357600080fd5b5061019a610472366004611970565b610f70565b34801561048357600080fd5b506101bc61049236600461199c565b60fc6020526000908152604090205481565b3480156104b057600080fd5b5061019a6104bf36600461192d565b610f95565b60006001600160e01b03198216637965db0b60e01b14806104f557506301ffc9a760e01b6001600160e01b03198316145b92915050565b610506600033610c5d565b61052b5760405162461bcd60e51b815260040161052290611b48565b60405180910390fd5b6040805160808101825261ffff8681168252602080830187815283850187815260608086018881526001600160a01b038d16600081815260fd87528990209751885461ffff19169716969096178755925160018701559051600286015590516003909401939093558351878152908101869052928301849052917fe64e25eb3c13837403496f1bbbb97a7e47098d0718b905b9cc8b258035ca7042910160405180910390a260005b60fe5481101561062a57856001600160a01b031660fe82815481106105fa576105fa611b72565b6000918252602090912001546001600160a01b03160361061a5750610677565b61062381611b9e565b90506105d3565b5060fe80546001810182556000919091527f54075df80ec1ae6ac9100e1fd0ebf3246c17f5c933137af392011f4c5f61513a0180546001600160a01b0319166001600160a01b0387161790555b5050505050565b6000610698600080516020611e2283398151915233610c5d565b6106e45760405162461bcd60e51b815260206004820152601c60248201527f536d61727420636f6e747261637420726f6c65207265717569726564000000006044820152606401610522565b6001600160a01b038316600090815260fb602090815260408083205460fc9092528220546107129190611bb7565b9050600083116107595760405162461bcd60e51b815260206004820152601260248201527143616e277420757365203020706f696e747360701b6044820152606401610522565b8083111561079d5760405162461bcd60e51b81526020600482015260116024820152704e6f7420656e6f75676820706f696e747360781b6044820152606401610522565b6001600160a01b038416600090815260fb6020526040812080548592906107c5908490611bce565b90915550506001600160a01b0384167f0f4865026ee2a8b7b57c8730b3b7b62eeff468bf638f5d04dcd3e21ae2a8024d846108008185611bb7565b6040805192835260208301919091520160405180910390a26108228382611bb7565b949350505050565b600082815260656020526040902060010154610845816110d8565b61084f83836110e2565b505050565b6001600160a01b03811633146108c45760405162461bcd60e51b815260206004820152602f60248201527f416363657373436f6e74726f6c3a2063616e206f6e6c792072656e6f756e636560448201526e103937b632b9903337b91039b2b63360891b6064820152608401610522565b6108ce8282611168565b5050565b6001600160a01b037f000000000000000000000000000000000000000000000000000000000000000016300361091a5760405162461bcd60e51b815260040161052290611be6565b7f00000000000000000000000000000000000000000000000000000000000000006001600160a01b0316610963600080516020611e42833981519152546001600160a01b031690565b6001600160a01b0316146109895760405162461bcd60e51b815260040161052290611c32565b610992816111cf565b604080516000808252602082019092526109ae918391906111f6565b50565b6001600160a01b037f00000000000000000000000000000000000000000000000000000000000000001630036109f95760405162461bcd60e51b815260040161052290611be6565b7f00000000000000000000000000000000000000000000000000000000000000006001600160a01b0316610a42600080516020611e42833981519152546001600160a01b031690565b6001600160a01b031614610a685760405162461bcd60e51b815260040161052290611c32565b610a71826111cf565b6108ce828260016111f6565b6000306001600160a01b037f00000000000000000000000000000000000000000000000000000000000000001614610b1d5760405162461bcd60e51b815260206004820152603860248201527f555550535570677261646561626c653a206d757374206e6f742062652063616c60448201527f6c6564207468726f7567682064656c656761746563616c6c00000000000000006064820152608401610522565b50600080516020611e4283398151915290565b6001600160a01b038116600090815260fb602090815260408083205460fc9092528220546104f59190611bb7565b60fe8181548110610b6e57600080fd5b6000918252602090912001546001600160a01b0316905081565b606060008267ffffffffffffffff811115610ba557610ba56119b7565b604051908082528060200260200182016040528015610bce578160200160208202803683370190505b50905060005b83811015610c555760fb6000868684818110610bf257610bf2611b72565b9050602002016020810190610c07919061199c565b6001600160a01b03166001600160a01b0316815260200190815260200160002054828281518110610c3a57610c3a611b72565b6020908102919091010152610c4e81611b9e565b9050610bd4565b509392505050565b60009182526065602090815260408084206001600160a01b0393909316845291905290205460ff1690565b610ca0600080516020611e2283398151915233610c5d565b610cec5760405162461bcd60e51b815260206004820152601760248201527f4e6f20726f6c6520746f20636c61696d20706f696e74730000000000000000006044820152606401610522565b6001600160a01b038216600090815260fc6020526040812054610d0f9083611bb7565b905060008111610d705760405162461bcd60e51b815260206004820152602660248201527f5061727469636970616e7420616c726561647920636c61696d656420616c6c20604482015265706f696e747360d01b6064820152608401610522565b6001600160a01b038316600081815260fc602052604090819020849055517f2c4c0dc427a50c4a69d2fc184c47a311acf950d8d2f289fbaee64e83e9b2896790610dbd9084815260200190565b60405180910390a2505050565b6000610dd66001611361565b90508015610dee576000805461ff0019166101001790555b610df66113ee565b610dfe6113ee565b610e096000836110e2565b80156108ce576000805461ff0019169055604051600181527f7f26b83ff96e1f2b6a682f133852f6798a09c465da95921460cefb38474024989060200160405180910390a15050565b610e5d600033610c5d565b610e795760405162461bcd60e51b815260040161052290611b48565b60fe548110610ec05760405162461bcd60e51b8152602060048201526013602482015272496e646578206f7574206f6620626f756e647360681b6044820152606401610522565b60fe8054610ed090600190611bb7565b81548110610ee057610ee0611b72565b60009182526020909120015460fe80546001600160a01b039092169183908110610f0c57610f0c611b72565b9060005260206000200160006101000a8154816001600160a01b0302191690836001600160a01b0316021790555060fe805480610f4b57610f4b611c7e565b600082815260209020810160001990810180546001600160a01b031916905501905550565b600082815260656020526040902060010154610f8b816110d8565b61084f8383611168565b610fad600080516020611e2283398151915233610c5d565b610ff15760405162461bcd60e51b81526020600482015260156024820152744e6f20726f6c6520746f20646f20726566756e647360581b6044820152606401610522565b600081116110395760405162461bcd60e51b815260206004820152601560248201527443616e277420726566756e64203020706f696e747360581b6044820152606401610522565b6001600160a01b038216600090815260fb6020526040902054808211156110ad5760405162461bcd60e51b815260206004820152602260248201527f43616e277420726566756e64206d6f726520706f696e7473207468616e207573604482015261195960f21b6064820152608401610522565b6110b78282611bb7565b6001600160a01b03909316600090815260fb60205260409020929092555050565b6109ae813361145b565b6110ec8282610c5d565b6108ce5760008281526065602090815260408083206001600160a01b03851684529091529020805460ff191660011790556111243390565b6001600160a01b0316816001600160a01b0316837f2f8788117e7eff1d82e926ec794901d17c78024a50270940304540a733656f0d60405160405180910390a45050565b6111728282610c5d565b156108ce5760008281526065602090815260408083206001600160a01b0385168085529252808320805460ff1916905551339285917ff6391f5c32d9c69d2a47ea670b442974b53935d1edc7fd64eb21e047a839171b9190a45050565b6111da600033610c5d565b6109ae5760405162461bcd60e51b815260040161052290611b48565b7f4910fdfa16fed3260ed0e7147f7cc6da11a60208b5b9406d12a635614ffd91435460ff16156112295761084f836114bf565b826001600160a01b03166352d1902d6040518163ffffffff1660e01b8152600401602060405180830381865afa925050508015611283575060408051601f3d908101601f1916820190925261128091810190611c94565b60015b6112e65760405162461bcd60e51b815260206004820152602e60248201527f45524331393637557067726164653a206e657720696d706c656d656e7461746960448201526d6f6e206973206e6f74205555505360901b6064820152608401610522565b600080516020611e4283398151915281146113555760405162461bcd60e51b815260206004820152602960248201527f45524331393637557067726164653a20756e737570706f727465642070726f786044820152681a58589b195555525160ba1b6064820152608401610522565b5061084f83838361155b565b60008054610100900460ff16156113a8578160ff1660011480156113845750303b155b6113a05760405162461bcd60e51b815260040161052290611cad565b506000919050565b60005460ff8084169116106113cf5760405162461bcd60e51b815260040161052290611cad565b506000805460ff191660ff92909216919091179055600190565b919050565b600054610100900460ff166114595760405162461bcd60e51b815260206004820152602b60248201527f496e697469616c697a61626c653a20636f6e7472616374206973206e6f74206960448201526a6e697469616c697a696e6760a81b6064820152608401610522565b565b6114658282610c5d565b6108ce5761147d816001600160a01b03166014611586565b611488836020611586565b604051602001611499929190611d27565b60408051601f198184030181529082905262461bcd60e51b825261052291600401611d9c565b6001600160a01b0381163b61152c5760405162461bcd60e51b815260206004820152602d60248201527f455243313936373a206e657720696d706c656d656e746174696f6e206973206e60448201526c1bdd08184818dbdb9d1c9858dd609a1b6064820152608401610522565b600080516020611e4283398151915280546001600160a01b0319166001600160a01b0392909216919091179055565b61156483611729565b6000825111806115715750805b1561084f576115808383611769565b50505050565b60606000611595836002611dcf565b6115a0906002611bce565b67ffffffffffffffff8111156115b8576115b86119b7565b6040519080825280601f01601f1916602001820160405280156115e2576020820181803683370190505b509050600360fc1b816000815181106115fd576115fd611b72565b60200101906001600160f81b031916908160001a905350600f60fb1b8160018151811061162c5761162c611b72565b60200101906001600160f81b031916908160001a9053506000611650846002611dcf565b61165b906001611bce565b90505b60018111156116d3576f181899199a1a9b1b9c1cb0b131b232b360811b85600f166010811061168f5761168f611b72565b1a60f81b8282815181106116a5576116a5611b72565b60200101906001600160f81b031916908160001a90535060049490941c936116cc81611dee565b905061165e565b5083156117225760405162461bcd60e51b815260206004820181905260248201527f537472696e67733a20686578206c656e67746820696e73756666696369656e746044820152606401610522565b9392505050565b611732816114bf565b6040516001600160a01b038216907fbc7cd75a20ee27fd9adebab32041f755214dbc6bffa90cc0225b39da2e5c2d3b90600090a250565b60606001600160a01b0383163b6117d15760405162461bcd60e51b815260206004820152602660248201527f416464726573733a2064656c65676174652063616c6c20746f206e6f6e2d636f6044820152651b9d1c9858dd60d21b6064820152608401610522565b600080846001600160a01b0316846040516117ec9190611e05565b600060405180830381855af49150503d8060008114611827576040519150601f19603f3d011682016040523d82523d6000602084013e61182c565b606091505b50915091506118548282604051806060016040528060278152602001611e626027913961185d565b95945050505050565b6060831561186c575081611722565b82511561187c5782518084602001fd5b8160405162461bcd60e51b81526004016105229190611d9c565b6000602082840312156118a857600080fd5b81356001600160e01b03198116811461172257600080fd5b80356001600160a01b03811681146113e957600080fd5b600080600080600060a086880312156118ef57600080fd5b6118f8866118c0565b9450602086013561ffff8116811461190f57600080fd5b94979496505050506040830135926060810135926080909101359150565b6000806040838503121561194057600080fd5b611949836118c0565b946020939093013593505050565b60006020828403121561196957600080fd5b5035919050565b6000806040838503121561198357600080fd5b82359150611993602084016118c0565b90509250929050565b6000602082840312156119ae57600080fd5b611722826118c0565b634e487b7160e01b600052604160045260246000fd5b600080604083850312156119e057600080fd5b6119e9836118c0565b9150602083013567ffffffffffffffff80821115611a0657600080fd5b818501915085601f830112611a1a57600080fd5b813581811115611a2c57611a2c6119b7565b604051601f8201601f19908116603f01168101908382118183101715611a5457611a546119b7565b81604052828152886020848701011115611a6d57600080fd5b8260208601602083013760006020848301015280955050505050509250929050565b60008060208385031215611aa257600080fd5b823567ffffffffffffffff80821115611aba57600080fd5b818501915085601f830112611ace57600080fd5b813581811115611add57600080fd5b8660208260051b8501011115611af257600080fd5b60209290920196919550909350505050565b6020808252825182820181905260009190848201906040850190845b81811015611b3c57835183529284019291840191600101611b20565b50909695505050505050565b60208082526010908201526f41646d696e2063616c6c73206f6e6c7960801b604082015260600190565b634e487b7160e01b600052603260045260246000fd5b634e487b7160e01b600052601160045260246000fd5b600060018201611bb057611bb0611b88565b5060010190565b600082821015611bc957611bc9611b88565b500390565b60008219821115611be157611be1611b88565b500190565b6020808252602c908201527f46756e6374696f6e206d7573742062652063616c6c6564207468726f7567682060408201526b19195b1959d85d1958d85b1b60a21b606082015260800190565b6020808252602c908201527f46756e6374696f6e206d7573742062652063616c6c6564207468726f7567682060408201526b6163746976652070726f787960a01b606082015260800190565b634e487b7160e01b600052603160045260246000fd5b600060208284031215611ca657600080fd5b5051919050565b6020808252602e908201527f496e697469616c697a61626c653a20636f6e747261637420697320616c72656160408201526d191e481a5b9a5d1a585b1a5e995960921b606082015260800190565b60005b83811015611d16578181015183820152602001611cfe565b838111156115805750506000910152565b7f416363657373436f6e74726f6c3a206163636f756e7420000000000000000000815260008351611d5f816017850160208801611cfb565b7001034b99036b4b9b9b4b733903937b6329607d1b6017918401918201528351611d90816028840160208801611cfb565b01602801949350505050565b6020815260008251806020840152611dbb816040850160208701611cfb565b601f01601f19169190910160400192915050565b6000816000190483118215151615611de957611de9611b88565b500290565b600081611dfd57611dfd611b88565b506000190190565b60008251611e17818460208701611cfb565b919091019291505056fe7049fdfe53181283a7dbc707a9b76a089d92452e8169bb3ba9188cb59b196ebe360894a13ba1a3210667c828492db98dca3e2076cc3735a920a3ca505d382bbc416464726573733a206c6f772d6c6576656c2064656c65676174652063616c6c206661696c6564a264697066735822122098cefb17f80e6f78f6cd269d903a5f68fae81a3dd5ca97be2c701e1f7a8812dd64736f6c634300080e0033",
  "linkReferences": {},
  "deployedLinkReferences": {}
}