{
  "_format": "hh-sol-artifact-1",
  "contractName": "Rewards",
  "sourceName": "contracts/Rewards/Rewards.sol",
  "abi": [
    {
      "anonymous": false,
      "inputs": [
        {
          "indexed": false,
          "internalType": "address",
          "name": "previousAdmin",
          "type": "address"
        },
        {
          "indexed": false,
          "internalType": "address",
          "name": "newAdmin",
          "type": "address"
        }
      ],
      "name": "AdminChanged",
      "type": "event"
    },
    {
      "anonymous": false,
      "inputs": [
        {
          "indexed": true,
          "internalType": "address",
          "name": "beacon",
          "type": "address"
        }
      ],
      "name": "BeaconUpgraded",
      "type": "event"
    },
    {
      "anonymous": false,
      "inputs": [
        {
          "indexed": false,
          "internalType": "uint8",
          "name": "version",
          "type": "uint8"
        }
      ],
      "name": "Initialized",
      "type": "event"
    },
    {
      "anonymous": false,
      "inputs": [
        {
          "indexed": true,
          "internalType": "address",
          "name": "user",
          "type": "address"
        },
        {
          "indexed": false,
          "internalType": "uint256",
          "name": "amount",
          "type": "uint256"
        }
      ],
      "name": "PointsEarned",
      "type": "event"
    },
    {
      "anonymous": false,
      "inputs": [
        {
          "indexed": true,
          "internalType": "address",
          "name": "user",
          "type": "address"
        },
        {
          "indexed": false,
          "internalType": "uint256",
          "name": "amount",
          "type": "uint256"
        },
        {
          "indexed": false,
          "internalType": "uint256",
          "name": "remaining",
          "type": "uint256"
        }
      ],
      "name": "PointsUsed",
      "type": "event"
    },
    {
      "anonymous": false,
      "inputs": [
        {
          "indexed": true,
          "internalType": "address",
          "name": "token",
          "type": "address"
        },
        {
          "indexed": false,
          "internalType": "uint256",
          "name": "pointRewardPerDay",
          "type": "uint256"
        },
        {
          "indexed": false,
          "internalType": "uint256",
          "name": "positionSize",
          "type": "uint256"
        },
        {
          "indexed": false,
          "internalType": "uint256",
          "name": "positionSizeLimit",
          "type": "uint256"
        }
      ],
      "name": "RewardChanged",
      "type": "event"
    },
    {
      "anonymous": false,
      "inputs": [
        {
          "indexed": true,
          "internalType": "address",
          "name": "implementation",
          "type": "address"
        }
      ],
      "name": "Upgraded",
      "type": "event"
    },
    {
      "inputs": [
        {
          "internalType": "address",
          "name": "user",
          "type": "address"
        }
      ],
      "name": "availablePoints",
      "outputs": [
        {
          "internalType": "uint256",
          "name": "",
          "type": "uint256"
        }
      ],
      "stateMutability": "view",
      "type": "function"
    },
    {
      "inputs": [
        {
          "internalType": "address",
          "name": "_account",
          "type": "address"
        },
        {
          "internalType": "uint256",
          "name": "_amount",
          "type": "uint256"
        }
      ],
      "name": "burnUserPoints",
      "outputs": [
        {
          "internalType": "uint256",
          "name": "",
          "type": "uint256"
        }
      ],
      "stateMutability": "nonpayable",
      "type": "function"
    },
    {
      "inputs": [
        {
          "internalType": "address",
          "name": "_address",
          "type": "address"
        },
        {
          "internalType": "uint256",
          "name": "_points",
          "type": "uint256"
        }
      ],
      "name": "claimPoints",
      "outputs": [],
      "stateMutability": "nonpayable",
      "type": "function"
    },
    {
      "inputs": [
        {
          "internalType": "address[]",
          "name": "addresses",
          "type": "address[]"
        }
      ],
      "name": "getPointsUsedBatch",
      "outputs": [
        {
          "internalType": "uint256[]",
          "name": "",
          "type": "uint256[]"
        }
      ],
      "stateMutability": "view",
      "type": "function"
    },
    {
      "inputs": [
        {
          "internalType": "address",
          "name": "_sageStorage",
          "type": "address"
        }
      ],
      "name": "initialize",
      "outputs": [],
      "stateMutability": "nonpayable",
      "type": "function"
    },
    {
      "inputs": [],
      "name": "proxiableUUID",
      "outputs": [
        {
          "internalType": "bytes32",
          "name": "",
          "type": "bytes32"
        }
      ],
      "stateMutability": "view",
      "type": "function"
    },
    {
      "inputs": [
        {
          "internalType": "address",
          "name": "_account",
          "type": "address"
        },
        {
          "internalType": "uint256",
          "name": "_points",
          "type": "uint256"
        }
      ],
      "name": "refundPoints",
      "outputs": [],
      "stateMutability": "nonpayable",
      "type": "function"
    },
    {
      "inputs": [
        {
          "internalType": "uint256",
          "name": "_index",
          "type": "uint256"
        }
      ],
      "name": "removeReward",
      "outputs": [],
      "stateMutability": "nonpayable",
      "type": "function"
    },
    {
      "inputs": [
        {
          "internalType": "address",
          "name": "",
          "type": "address"
        }
      ],
      "name": "rewardInfo",
      "outputs": [
        {
          "internalType": "uint16",
          "name": "chainId",
          "type": "uint16"
        },
        {
          "internalType": "uint256",
          "name": "pointRewardPerDay",
          "type": "uint256"
        },
        {
          "internalType": "uint256",
          "name": "positionSize",
          "type": "uint256"
        },
        {
          "internalType": "uint256",
          "name": "positionSizeLimit",
          "type": "uint256"
        }
      ],
      "stateMutability": "view",
      "type": "function"
    },
    {
      "inputs": [
        {
          "internalType": "uint256",
          "name": "",
          "type": "uint256"
        }
      ],
      "name": "rewardTokenAddresses",
      "outputs": [
        {
          "internalType": "address",
          "name": "",
          "type": "address"
        }
      ],
      "stateMutability": "view",
      "type": "function"
    },
    {
      "inputs": [
        {
          "internalType": "address",
          "name": "_token",
          "type": "address"
        },
        {
          "internalType": "uint16",
          "name": "_chainId",
          "type": "uint16"
        },
        {
          "internalType": "uint256",
          "name": "_pointRewardPerDay",
          "type": "uint256"
        },
        {
          "internalType": "uint256",
          "name": "_positionSize",
          "type": "uint256"
        },
        {
          "internalType": "uint256",
          "name": "_positionSizeLimit",
          "type": "uint256"
        }
      ],
      "name": "setRewardRate",
      "outputs": [],
      "stateMutability": "nonpayable",
      "type": "function"
    },
    {
      "inputs": [
        {
          "internalType": "address",
          "name": "",
          "type": "address"
        }
      ],
      "name": "totalPointsEarned",
      "outputs": [
        {
          "internalType": "uint256",
          "name": "",
          "type": "uint256"
        }
      ],
      "stateMutability": "view",
      "type": "function"
    },
    {
      "inputs": [
        {
          "internalType": "address",
          "name": "",
          "type": "address"
        }
      ],
      "name": "totalPointsUsed",
      "outputs": [
        {
          "internalType": "uint256",
          "name": "",
          "type": "uint256"
        }
      ],
      "stateMutability": "view",
      "type": "function"
    },
    {
      "inputs": [
        {
          "internalType": "address",
          "name": "newImplementation",
          "type": "address"
        }
      ],
      "name": "upgradeTo",
      "outputs": [],
      "stateMutability": "nonpayable",
      "type": "function"
    },
    {
      "inputs": [
        {
          "internalType": "address",
          "name": "newImplementation",
          "type": "address"
        },
        {
          "internalType": "bytes",
          "name": "data",
          "type": "bytes"
        }
      ],
      "name": "upgradeToAndCall",
      "outputs": [],
      "stateMutability": "payable",
      "type": "function"
    }
  ],
  "bytecode": "0x60a06040523060805234801561001457600080fd5b50608051611abb61004c6000396000818161075e0152818161079e0152818161083d0152818161087d01526109100152611abb6000f3fe6080604052600436106100e85760003560e01c80637b2d9b2c1161008a578063c553173f11610059578063c553173f1461027c578063cbecf6b51461029c578063f662781d14610308578063f82629ac1461033557600080fd5b80637b2d9b2c146101d757806389415cdb1461020f578063966addc01461023c578063c4d66de81461025c57600080fd5b806347e134e8116100c657806347e134e8146101625780634f1ef2861461018f57806352d1902d146101a25780635622dd75146101b757600080fd5b80631053dcc5146100ed5780631e961d271461010f5780633659cfe614610142575b600080fd5b3480156100f957600080fd5b5061010d61010836600461159b565b610355565b005b34801561011b57600080fd5b5061012f61012a3660046115f3565b61055f565b6040519081526020015b60405180910390f35b34801561014e57600080fd5b5061010d61015d36600461161f565b610754565b34801561016e57600080fd5b5061012f61017d36600461161f565b60666020526000908152604090205481565b61010d61019d366004611652565b610833565b3480156101ae57600080fd5b5061012f610903565b3480156101c357600080fd5b5061012f6101d236600461161f565b6109b6565b3480156101e357600080fd5b506101f76101f2366004611716565b6109ea565b6040516001600160a01b039091168152602001610139565b34801561021b57600080fd5b5061022f61022a36600461172f565b610a14565b60405161013991906117a4565b34801561024857600080fd5b5061010d6102573660046115f3565b610ae9565b34801561026857600080fd5b5061010d61027736600461161f565b610c75565b34801561028857600080fd5b5061010d610297366004611716565b610da1565b3480156102a857600080fd5b506102e36102b736600461161f565b606860205260009081526040902080546001820154600283015460039093015461ffff90921692909184565b6040805161ffff90951685526020850193909352918301526060820152608001610139565b34801561031457600080fd5b5061012f61032336600461161f565b60676020526000908152604090205481565b34801561034157600080fd5b5061010d6103503660046115f3565b610f46565b606554604051632474521560e21b81527fe303cb88ace8c9e6ba216f1aecb44b3206dcab364c60512ffc6cbc920a1bf9d160048201523360248201526001600160a01b03909116906391d1485490604401602060405180830381865afa1580156103c3573d6000803e3d6000fd5b505050506040513d601f19601f820116820180604052508101906103e791906117e8565b61040c5760405162461bcd60e51b81526004016104039061180a565b60405180910390fd5b6040805160808101825261ffff8681168252602080830187815283850187815260608086018881526001600160a01b038d166000818152606887528990209751885461ffff19169716969096178755925160018701559051600286015590516003909401939093558351878152908101869052928301849052917fe64e25eb3c13837403496f1bbbb97a7e47098d0718b905b9cc8b258035ca7042910160405180910390a260005b60695481101561050b57856001600160a01b0316606982815481106104db576104db611834565b6000918252602090912001546001600160a01b0316036104fb5750610558565b61050481611860565b90506104b4565b50606980546001810182556000919091527f7fb4302e8e91f9110a6554c2c0a24601252c2a42c2220ca988efcfe3999143080180546001600160a01b0319166001600160a01b0387161790555b5050505050565b606554604051632474521560e21b81527f408bc7479ef9119d5f38cec4b670571000f4d832df9a54fc1998e43ee684284160048201523360248201526000916001600160a01b0316906391d1485490604401602060405180830381865afa1580156105ce573d6000803e3d6000fd5b505050506040513d601f19601f820116820180604052508101906105f291906117e8565b61060e5760405162461bcd60e51b815260040161040390611879565b6001600160a01b038316600090815260666020908152604080832054606790925282205461063c91906118b0565b9050600083116106835760405162461bcd60e51b815260206004820152601260248201527143616e277420757365203020706f696e747360701b6044820152606401610403565b808311156106c75760405162461bcd60e51b81526020600482015260116024820152704e6f7420656e6f75676820706f696e747360781b6044820152606401610403565b6001600160a01b038416600090815260666020526040812080548592906106ef9084906118c7565b90915550506001600160a01b0384167f0f4865026ee2a8b7b57c8730b3b7b62eeff468bf638f5d04dcd3e21ae2a8024d8461072a81856118b0565b6040805192835260208301919091520160405180910390a261074c83826118b0565b949350505050565b6001600160a01b037f000000000000000000000000000000000000000000000000000000000000000016300361079c5760405162461bcd60e51b8152600401610403906118df565b7f00000000000000000000000000000000000000000000000000000000000000006001600160a01b03166107e5600080516020611a3f833981519152546001600160a01b031690565b6001600160a01b03161461080b5760405162461bcd60e51b81526004016104039061192b565b610814816110db565b604080516000808252602082019092526108309183919061116e565b50565b6001600160a01b037f000000000000000000000000000000000000000000000000000000000000000016300361087b5760405162461bcd60e51b8152600401610403906118df565b7f00000000000000000000000000000000000000000000000000000000000000006001600160a01b03166108c4600080516020611a3f833981519152546001600160a01b031690565b6001600160a01b0316146108ea5760405162461bcd60e51b81526004016104039061192b565b6108f3826110db565b6108ff8282600161116e565b5050565b6000306001600160a01b037f000000000000000000000000000000000000000000000000000000000000000016146109a35760405162461bcd60e51b815260206004820152603860248201527f555550535570677261646561626c653a206d757374206e6f742062652063616c60448201527f6c6564207468726f7567682064656c656761746563616c6c00000000000000006064820152608401610403565b50600080516020611a3f83398151915290565b6001600160a01b03811660009081526066602090815260408083205460679092528220546109e491906118b0565b92915050565b606981815481106109fa57600080fd5b6000918252602090912001546001600160a01b0316905081565b606060008267ffffffffffffffff811115610a3157610a3161163c565b604051908082528060200260200182016040528015610a5a578160200160208202803683370190505b50905060005b83811015610ae15760666000868684818110610a7e57610a7e611834565b9050602002016020810190610a93919061161f565b6001600160a01b03166001600160a01b0316815260200190815260200160002054828281518110610ac657610ac6611834565b6020908102919091010152610ada81611860565b9050610a60565b509392505050565b606554604051632474521560e21b81527f408bc7479ef9119d5f38cec4b670571000f4d832df9a54fc1998e43ee684284160048201523360248201526001600160a01b03909116906391d1485490604401602060405180830381865afa158015610b57573d6000803e3d6000fd5b505050506040513d601f19601f82011682018060405250810190610b7b91906117e8565b610b975760405162461bcd60e51b815260040161040390611879565b6001600160a01b038216600090815260676020526040812054610bba90836118b0565b905060008111610c1b5760405162461bcd60e51b815260206004820152602660248201527f5061727469636970616e7420616c726561647920636c61696d656420616c6c20604482015265706f696e747360d01b6064820152608401610403565b6001600160a01b03831660008181526067602052604090819020849055517f2c4c0dc427a50c4a69d2fc184c47a311acf950d8d2f289fbaee64e83e9b2896790610c689084815260200190565b60405180910390a2505050565b600054610100900460ff1615808015610c955750600054600160ff909116105b80610caf5750303b158015610caf575060005460ff166001145b610d125760405162461bcd60e51b815260206004820152602e60248201527f496e697469616c697a61626c653a20636f6e747261637420697320616c72656160448201526d191e481a5b9a5d1a585b1a5e995960921b6064820152608401610403565b6000805460ff191660011790558015610d35576000805461ff0019166101001790555b610d3d6112de565b606580546001600160a01b0319166001600160a01b03841617905580156108ff576000805461ff0019169055604051600181527f7f26b83ff96e1f2b6a682f133852f6798a09c465da95921460cefb38474024989060200160405180910390a15050565b606554604051632474521560e21b81527fe303cb88ace8c9e6ba216f1aecb44b3206dcab364c60512ffc6cbc920a1bf9d160048201523360248201526001600160a01b03909116906391d1485490604401602060405180830381865afa158015610e0f573d6000803e3d6000fd5b505050506040513d601f19601f82011682018060405250810190610e3391906117e8565b610e4f5760405162461bcd60e51b81526004016104039061180a565b6069548110610e965760405162461bcd60e51b8152602060048201526013602482015272496e646578206f7574206f6620626f756e647360681b6044820152606401610403565b60698054610ea6906001906118b0565b81548110610eb657610eb6611834565b600091825260209091200154606980546001600160a01b039092169183908110610ee257610ee2611834565b9060005260206000200160006101000a8154816001600160a01b0302191690836001600160a01b031602179055506069805480610f2157610f21611977565b600082815260209020810160001990810180546001600160a01b031916905501905550565b606554604051632474521560e21b81527f408bc7479ef9119d5f38cec4b670571000f4d832df9a54fc1998e43ee684284160048201523360248201526001600160a01b03909116906391d1485490604401602060405180830381865afa158015610fb4573d6000803e3d6000fd5b505050506040513d601f19601f82011682018060405250810190610fd891906117e8565b610ff45760405162461bcd60e51b815260040161040390611879565b6000811161103c5760405162461bcd60e51b815260206004820152601560248201527443616e277420726566756e64203020706f696e747360581b6044820152606401610403565b6001600160a01b038216600090815260666020526040902054808211156110b05760405162461bcd60e51b815260206004820152602260248201527f43616e277420726566756e64206d6f726520706f696e7473207468616e207573604482015261195960f21b6064820152608401610403565b6110ba82826118b0565b6001600160a01b039093166000908152606660205260409020929092555050565b60655460408051634783c35b60e01b8152905133926001600160a01b031691634783c35b9160048083019260209291908290030181865afa158015611124573d6000803e3d6000fd5b505050506040513d601f19601f82011682018060405250810190611148919061198d565b6001600160a01b0316146108305760405162461bcd60e51b81526004016104039061180a565b7f4910fdfa16fed3260ed0e7147f7cc6da11a60208b5b9406d12a635614ffd91435460ff16156111a6576111a18361134b565b505050565b826001600160a01b03166352d1902d6040518163ffffffff1660e01b8152600401602060405180830381865afa925050508015611200575060408051601f3d908101601f191682019092526111fd918101906119aa565b60015b6112635760405162461bcd60e51b815260206004820152602e60248201527f45524331393637557067726164653a206e657720696d706c656d656e7461746960448201526d6f6e206973206e6f74205555505360901b6064820152608401610403565b600080516020611a3f83398151915281146112d25760405162461bcd60e51b815260206004820152602960248201527f45524331393637557067726164653a20756e737570706f727465642070726f786044820152681a58589b195555525160ba1b6064820152608401610403565b506111a18383836113e7565b600054610100900460ff166113495760405162461bcd60e51b815260206004820152602b60248201527f496e697469616c697a61626c653a20636f6e7472616374206973206e6f74206960448201526a6e697469616c697a696e6760a81b6064820152608401610403565b565b6001600160a01b0381163b6113b85760405162461bcd60e51b815260206004820152602d60248201527f455243313936373a206e657720696d706c656d656e746174696f6e206973206e60448201526c1bdd08184818dbdb9d1c9858dd609a1b6064820152608401610403565b600080516020611a3f83398151915280546001600160a01b0319166001600160a01b0392909216919091179055565b6113f083611412565b6000825111806113fd5750805b156111a15761140c8383611452565b50505050565b61141b8161134b565b6040516001600160a01b038216907fbc7cd75a20ee27fd9adebab32041f755214dbc6bffa90cc0225b39da2e5c2d3b90600090a250565b60606001600160a01b0383163b6114ba5760405162461bcd60e51b815260206004820152602660248201527f416464726573733a2064656c65676174652063616c6c20746f206e6f6e2d636f6044820152651b9d1c9858dd60d21b6064820152608401610403565b600080846001600160a01b0316846040516114d591906119ef565b600060405180830381855af49150503d8060008114611510576040519150601f19603f3d011682016040523d82523d6000602084013e611515565b606091505b509150915061153d8282604051806060016040528060278152602001611a5f60279139611546565b95945050505050565b6060831561155557508161157f565b8251156115655782518084602001fd5b8160405162461bcd60e51b81526004016104039190611a0b565b9392505050565b6001600160a01b038116811461083057600080fd5b600080600080600060a086880312156115b357600080fd5b85356115be81611586565b9450602086013561ffff811681146115d557600080fd5b94979496505050506040830135926060810135926080909101359150565b6000806040838503121561160657600080fd5b823561161181611586565b946020939093013593505050565b60006020828403121561163157600080fd5b813561157f81611586565b634e487b7160e01b600052604160045260246000fd5b6000806040838503121561166557600080fd5b823561167081611586565b9150602083013567ffffffffffffffff8082111561168d57600080fd5b818501915085601f8301126116a157600080fd5b8135818111156116b3576116b361163c565b604051601f8201601f19908116603f011681019083821181831017156116db576116db61163c565b816040528281528860208487010111156116f457600080fd5b8260208601602083013760006020848301015280955050505050509250929050565b60006020828403121561172857600080fd5b5035919050565b6000806020838503121561174257600080fd5b823567ffffffffffffffff8082111561175a57600080fd5b818501915085601f83011261176e57600080fd5b81358181111561177d57600080fd5b8660208260051b850101111561179257600080fd5b60209290920196919550909350505050565b6020808252825182820181905260009190848201906040850190845b818110156117dc578351835292840192918401916001016117c0565b50909695505050505050565b6000602082840312156117fa57600080fd5b8151801515811461157f57600080fd5b60208082526010908201526f41646d696e2063616c6c73206f6e6c7960801b604082015260600190565b634e487b7160e01b600052603260045260246000fd5b634e487b7160e01b600052601160045260246000fd5b6000600182016118725761187261184a565b5060010190565b6020808252601a908201527f4d697373696e6720706f696e74206d616e6167657220726f6c65000000000000604082015260600190565b6000828210156118c2576118c261184a565b500390565b600082198211156118da576118da61184a565b500190565b6020808252602c908201527f46756e6374696f6e206d7573742062652063616c6c6564207468726f7567682060408201526b19195b1959d85d1958d85b1b60a21b606082015260800190565b6020808252602c908201527f46756e6374696f6e206d7573742062652063616c6c6564207468726f7567682060408201526b6163746976652070726f787960a01b606082015260800190565b634e487b7160e01b600052603160045260246000fd5b60006020828403121561199f57600080fd5b815161157f81611586565b6000602082840312156119bc57600080fd5b5051919050565b60005b838110156119de5781810151838201526020016119c6565b8381111561140c5750506000910152565b60008251611a018184602087016119c3565b9190910192915050565b6020815260008251806020840152611a2a8160408501602087016119c3565b601f01601f1916919091016040019291505056fe360894a13ba1a3210667c828492db98dca3e2076cc3735a920a3ca505d382bbc416464726573733a206c6f772d6c6576656c2064656c65676174652063616c6c206661696c6564a2646970667358221220c7dd320484997ab5327e46fe1c28435ae5fde2fd1307c583059c1ae0350d752364736f6c634300080e0033",
  "linkReferences": {},
  "deployedLinkReferences": {}
}