{
  "_format": "hh-sol-artifact-1",
  "contractName": "Rewards",
  "sourceName": "contracts/Rewards/Rewards.sol",
  "abi": [
    {
      "inputs": [
        {
          "internalType": "address",
          "name": "_admin",
          "type": "address"
        }
      ],
      "stateMutability": "nonpayable",
      "type": "constructor"
    },
    {
      "anonymous": false,
      "inputs": [
        {
          "indexed": true,
          "internalType": "address",
          "name": "user",
          "type": "address"
        },
        {
          "indexed": false,
          "internalType": "uint256",
          "name": "amount",
          "type": "uint256"
        }
      ],
      "name": "PointsEarned",
      "type": "event"
    },
    {
      "anonymous": false,
      "inputs": [
        {
          "indexed": true,
          "internalType": "address",
          "name": "user",
          "type": "address"
        },
        {
          "indexed": false,
          "internalType": "uint256",
          "name": "amount",
          "type": "uint256"
        },
        {
          "indexed": false,
          "internalType": "uint256",
          "name": "remaining",
          "type": "uint256"
        }
      ],
      "name": "PointsUsed",
      "type": "event"
    },
    {
      "anonymous": false,
      "inputs": [
        {
          "indexed": true,
          "internalType": "address",
          "name": "token",
          "type": "address"
        },
        {
          "indexed": false,
          "internalType": "uint256",
          "name": "pointRewardPerDay",
          "type": "uint256"
        },
        {
          "indexed": false,
          "internalType": "uint256",
          "name": "positionSize",
          "type": "uint256"
        },
        {
          "indexed": false,
          "internalType": "uint256",
          "name": "positionSizeLimit",
          "type": "uint256"
        }
      ],
      "name": "RewardChanged",
      "type": "event"
    },
    {
      "anonymous": false,
      "inputs": [
        {
          "indexed": true,
          "internalType": "bytes32",
          "name": "role",
          "type": "bytes32"
        },
        {
          "indexed": true,
          "internalType": "bytes32",
          "name": "previousAdminRole",
          "type": "bytes32"
        },
        {
          "indexed": true,
          "internalType": "bytes32",
          "name": "newAdminRole",
          "type": "bytes32"
        }
      ],
      "name": "RoleAdminChanged",
      "type": "event"
    },
    {
      "anonymous": false,
      "inputs": [
        {
          "indexed": true,
          "internalType": "bytes32",
          "name": "role",
          "type": "bytes32"
        },
        {
          "indexed": true,
          "internalType": "address",
          "name": "account",
          "type": "address"
        },
        {
          "indexed": true,
          "internalType": "address",
          "name": "sender",
          "type": "address"
        }
      ],
      "name": "RoleGranted",
      "type": "event"
    },
    {
      "anonymous": false,
      "inputs": [
        {
          "indexed": true,
          "internalType": "bytes32",
          "name": "role",
          "type": "bytes32"
        },
        {
          "indexed": true,
          "internalType": "address",
          "name": "account",
          "type": "address"
        },
        {
          "indexed": true,
          "internalType": "address",
          "name": "sender",
          "type": "address"
        }
      ],
      "name": "RoleRevoked",
      "type": "event"
    },
    {
      "inputs": [],
      "name": "DEFAULT_ADMIN_ROLE",
      "outputs": [
        {
          "internalType": "bytes32",
          "name": "",
          "type": "bytes32"
        }
      ],
      "stateMutability": "view",
      "type": "function"
    },
    {
      "inputs": [],
      "name": "MANAGE_POINTS_ROLE",
      "outputs": [
        {
          "internalType": "bytes32",
          "name": "",
          "type": "bytes32"
        }
      ],
      "stateMutability": "view",
      "type": "function"
    },
    {
      "inputs": [
        {
          "internalType": "address",
          "name": "user",
          "type": "address"
        }
      ],
      "name": "availablePoints",
      "outputs": [
        {
          "internalType": "uint256",
          "name": "",
          "type": "uint256"
        }
      ],
      "stateMutability": "view",
      "type": "function"
    },
    {
      "inputs": [
        {
          "internalType": "address",
          "name": "_account",
          "type": "address"
        },
        {
          "internalType": "uint256",
          "name": "_amount",
          "type": "uint256"
        }
      ],
      "name": "burnUserPoints",
      "outputs": [
        {
          "internalType": "uint256",
          "name": "",
          "type": "uint256"
        }
      ],
      "stateMutability": "nonpayable",
      "type": "function"
    },
    {
      "inputs": [
        {
          "internalType": "address",
          "name": "_address",
          "type": "address"
        },
        {
          "internalType": "uint256",
          "name": "_points",
          "type": "uint256"
        }
      ],
      "name": "claimPoints",
      "outputs": [],
      "stateMutability": "nonpayable",
      "type": "function"
    },
    {
      "inputs": [
        {
          "internalType": "address",
          "name": "_address",
          "type": "address"
        },
        {
          "internalType": "uint256",
          "name": "_points",
          "type": "uint256"
        },
        {
          "internalType": "bytes32[]",
          "name": "_proof",
          "type": "bytes32[]"
        }
      ],
      "name": "claimPointsWithProof",
      "outputs": [
        {
          "internalType": "uint256",
          "name": "",
          "type": "uint256"
        }
      ],
      "stateMutability": "nonpayable",
      "type": "function"
    },
    {
      "inputs": [
        {
          "internalType": "address[]",
          "name": "addresses",
          "type": "address[]"
        }
      ],
      "name": "getPointsUsedBatch",
      "outputs": [
        {
          "internalType": "uint256[]",
          "name": "",
          "type": "uint256[]"
        }
      ],
      "stateMutability": "view",
      "type": "function"
    },
    {
      "inputs": [
        {
          "internalType": "bytes32",
          "name": "role",
          "type": "bytes32"
        }
      ],
      "name": "getRoleAdmin",
      "outputs": [
        {
          "internalType": "bytes32",
          "name": "",
          "type": "bytes32"
        }
      ],
      "stateMutability": "view",
      "type": "function"
    },
    {
      "inputs": [
        {
          "internalType": "bytes32",
          "name": "role",
          "type": "bytes32"
        },
        {
          "internalType": "address",
          "name": "account",
          "type": "address"
        }
      ],
      "name": "grantRole",
      "outputs": [],
      "stateMutability": "nonpayable",
      "type": "function"
    },
    {
      "inputs": [
        {
          "internalType": "bytes32",
          "name": "role",
          "type": "bytes32"
        },
        {
          "internalType": "address",
          "name": "account",
          "type": "address"
        }
      ],
      "name": "hasRole",
      "outputs": [
        {
          "internalType": "bool",
          "name": "",
          "type": "bool"
        }
      ],
      "stateMutability": "view",
      "type": "function"
    },
    {
      "inputs": [],
      "name": "pointsMerkleRoot",
      "outputs": [
        {
          "internalType": "bytes32",
          "name": "",
          "type": "bytes32"
        }
      ],
      "stateMutability": "view",
      "type": "function"
    },
    {
      "inputs": [
        {
          "internalType": "address",
          "name": "_account",
          "type": "address"
        },
        {
          "internalType": "uint256",
          "name": "_points",
          "type": "uint256"
        }
      ],
      "name": "refundPoints",
      "outputs": [],
      "stateMutability": "nonpayable",
      "type": "function"
    },
    {
      "inputs": [
        {
          "internalType": "uint256",
          "name": "_index",
          "type": "uint256"
        }
      ],
      "name": "removeReward",
      "outputs": [],
      "stateMutability": "nonpayable",
      "type": "function"
    },
    {
      "inputs": [
        {
          "internalType": "bytes32",
          "name": "role",
          "type": "bytes32"
        },
        {
          "internalType": "address",
          "name": "account",
          "type": "address"
        }
      ],
      "name": "renounceRole",
      "outputs": [],
      "stateMutability": "nonpayable",
      "type": "function"
    },
    {
      "inputs": [
        {
          "internalType": "bytes32",
          "name": "role",
          "type": "bytes32"
        },
        {
          "internalType": "address",
          "name": "account",
          "type": "address"
        }
      ],
      "name": "revokeRole",
      "outputs": [],
      "stateMutability": "nonpayable",
      "type": "function"
    },
    {
      "inputs": [
        {
          "internalType": "address",
          "name": "",
          "type": "address"
        }
      ],
      "name": "rewardInfo",
      "outputs": [
        {
          "internalType": "uint16",
          "name": "chainId",
          "type": "uint16"
        },
        {
          "internalType": "uint256",
          "name": "pointRewardPerDay",
          "type": "uint256"
        },
        {
          "internalType": "uint256",
          "name": "positionSize",
          "type": "uint256"
        },
        {
          "internalType": "uint256",
          "name": "positionSizeLimit",
          "type": "uint256"
        }
      ],
      "stateMutability": "view",
      "type": "function"
    },
    {
      "inputs": [
        {
          "internalType": "uint256",
          "name": "",
          "type": "uint256"
        }
      ],
      "name": "rewardTokenAddresses",
      "outputs": [
        {
          "internalType": "address",
          "name": "",
          "type": "address"
        }
      ],
      "stateMutability": "view",
      "type": "function"
    },
    {
      "inputs": [
        {
          "internalType": "bytes32",
          "name": "_root",
          "type": "bytes32"
        }
      ],
      "name": "setPointsMerkleRoot",
      "outputs": [],
      "stateMutability": "nonpayable",
      "type": "function"
    },
    {
      "inputs": [
        {
          "internalType": "address",
          "name": "_token",
          "type": "address"
        },
        {
          "internalType": "uint16",
          "name": "_chainId",
          "type": "uint16"
        },
        {
          "internalType": "uint256",
          "name": "_pointRewardPerDay",
          "type": "uint256"
        },
        {
          "internalType": "uint256",
          "name": "_positionSize",
          "type": "uint256"
        },
        {
          "internalType": "uint256",
          "name": "_positionSizeLimit",
          "type": "uint256"
        }
      ],
      "name": "setRewardRate",
      "outputs": [],
      "stateMutability": "nonpayable",
      "type": "function"
    },
    {
      "inputs": [
        {
          "internalType": "bytes4",
          "name": "interfaceId",
          "type": "bytes4"
        }
      ],
      "name": "supportsInterface",
      "outputs": [
        {
          "internalType": "bool",
          "name": "",
          "type": "bool"
        }
      ],
      "stateMutability": "view",
      "type": "function"
    },
    {
      "inputs": [
        {
          "internalType": "address",
          "name": "",
          "type": "address"
        }
      ],
      "name": "totalPointsEarned",
      "outputs": [
        {
          "internalType": "uint256",
          "name": "",
          "type": "uint256"
        }
      ],
      "stateMutability": "view",
      "type": "function"
    },
    {
      "inputs": [
        {
          "internalType": "address",
          "name": "",
          "type": "address"
        }
      ],
      "name": "totalPointsUsed",
      "outputs": [
        {
          "internalType": "uint256",
          "name": "",
          "type": "uint256"
        }
      ],
      "stateMutability": "view",
      "type": "function"
    }
  ],
  "bytecode": "0x60803461006757601f6119c138819003918201601f19168301916001600160401b0383118484101761006c5780849260209460405283398101031261006757516001600160a01b03811681036100675761005890610082565b60405161189890816101298239f35b600080fd5b634e487b7160e01b600052604160045260246000fd5b6001600160a01b03811660009081527fad3228b676f7d3cd4284a5443f17f1962b36e491b30a40b2405849e597ba5fb5602052604081205460ff16156100c6575050565b808052602081815260408083206001600160a01b038516600090815292529020805460ff1916600117905560405133926001600160a01b031691907f2f8788117e7eff1d82e926ec794901d17c78024a50270940304540a733656f0d908290a456fe60806040526004361015610013575b600080fd5b60003560e01c806301ffc9a7146101cb5780631053dcc5146101c2578063155168c0146101b95780631e961d27146101b0578063248a9ca3146101a75780632f2ff15d1461019e57806336568abe1461019557806347e134e81461018c57806349123dac146101835780635622dd751461017a5780637b2d9b2c1461017157806389415cdb1461016857806391d148541461015f578063966addc014610156578063a217fddf1461014d578063b25c6e5814610144578063bceec3ee1461013b578063c553173f14610132578063cbecf6b514610129578063d547741f14610120578063f662781d146101175763f82629ac1461010f57600080fd5b61000e610e1b565b5061000e610ddd565b5061000e610d9a565b5061000e610d36565b5061000e610bfb565b5061000e610ba7565b5061000e610a4a565b5061000e610a2d565b5061000e610901565b5061000e6108aa565b5061000e6107f4565b5061000e61072c565b5061000e610672565b5061000e610636565b5061000e6105f8565b5061000e610561565b5061000e610495565b5061000e610465565b5061000e6102d4565b5061000e6102b5565b5061000e610233565b503461000e57602036600319011261000e5760043563ffffffff60e01b811680910361000e57602090637965db0b60e01b8114908115610211575b506040519015158152f35b6301ffc9a760e01b14905038610206565b6001600160a01b0381160361000e57565b503461000e5760a036600319011261000e5760043561025181610222565b6024359061ffff8216820361000e573360009081527fad3228b676f7d3cd4284a5443f17f1962b36e491b30a40b2405849e597ba5fb5602052604090206102b392906102a29060ff905b54166113b2565b608435916064359160443591611476565b005b503461000e57600036600319011261000e576020600154604051908152f35b503461000e57604036600319011261000e576004356102f281610222565b3360009081527fc219f049e51e2457b2763be6f021239291c84ffe20f19779890a644b6138b0436020526040902054602435919060ff16156104205761041c918161037561035561040c9460018060a01b03166000526003602052604060002090565b546001600160a01b038316600090815260026020526040902054906115c1565b90610381831515611654565b61038d82841115611695565b6001600160a01b03811660009081526002602052604090206103b08482546111cf565b90557f0f4865026ee2a8b7b57c8730b3b7b62eeff468bf638f5d04dcd3e21ae2a8024d6104046103e085856115c1565b6040805187815260208101929092526001600160a01b039094169390918291820190565b0390a26115c1565b6040519081529081906020820190565b0390f35b60405162461bcd60e51b815260206004820152601c60248201527f536d61727420636f6e747261637420726f6c65207265717569726564000000006044820152606490fd5b503461000e57602036600319011261000e5760043560005260006020526020600160406000200154604051908152f35b503461000e5760408060031936011261000e57600435906024356104b881610222565b600092808452836020526104d160018486200154610f0c565b80845260208481528385206001600160a01b03841660009081529152604090205460ff16156104ff57505051f35b80845260208481528385206001600160a01b0384166000908152915260409020805460ff19166001179055825133926001600160a01b031691907f2f8788117e7eff1d82e926ec794901d17c78024a50270940304540a733656f0d908690a451f35b503461000e57604036600319011261000e5760243561057f81610222565b336001600160a01b0382160361059b576102b39060043561112c565b60405162461bcd60e51b815260206004820152602f60248201527f416363657373436f6e74726f6c3a2063616e206f6e6c792072656e6f756e636560448201526e103937b632b9903337b91039b2b63360891b6064820152608490fd5b503461000e57602036600319011261000e5760043561061681610222565b60018060a01b031660005260026020526020604060002054604051908152f35b503461000e57600036600319011261000e5760206040517f7049fdfe53181283a7dbc707a9b76a089d92452e8169bb3ba9188cb59b196ebe8152f35b503461000e57602036600319011261000e5760043561069081610222565b60018060a01b031660005260036020526020604060002054600282526040600020548082106106c3575b60405191038152f35b6106cb6111b8565b6106ba565b50634e487b7160e01b600052603260045260246000fd5b60055481101561071f575b60056000527f036b6384b5eca791c62761152d0c79bb0604c104a5fb6f4eb0703f3154bb3db00190600090565b6107276106d0565b6106f2565b503461000e57602036600319011261000e5760043560055481101561000e5760056000527f036b6384b5eca791c62761152d0c79bb0604c104a5fb6f4eb0703f3154bb3db001546040516001600160a01b039091168152602090f35b9181601f8401121561000e5782359167ffffffffffffffff831161000e576020808501948460051b01011161000e57565b6020908160408183019282815285518094520193019160005b8281106107e0575050505090565b8351855293810193928101926001016107d2565b503461000e5760208060031936011261000e5760043567ffffffffffffffff811161000e57610827903690600401610788565b61083081611359565b91604093610840855194856110de565b828452601f1961084f84611359565b013682860137600091825b84811061086e5786518061041c88826107b9565b806108a59160051b83013561088281610222565b6001600160a01b03168552600284528785205461089f8289611390565b52611380565b61085a565b503461000e57604036600319011261000e57602060ff6108f56024356108cf81610222565b6004356000526000845260406000209060018060a01b0316600052602052604060002090565b54166040519015158152f35b503461000e57604036600319011261000e5760043561091f81610222565b3360009081527fc219f049e51e2457b2763be6f021239291c84ffe20f19779890a644b6138b0436020526040902054602435919060ff16156109e8576001600160a01b03811660009081526003602052604090207f2c4c0dc427a50c4a69d2fc184c47a311acf950d8d2f289fbaee64e83e9b28967916109e3916109a49054856115c1565b936109b0851515611770565b6001600160a01b0382166000908152600360205260409020556040519384526001600160a01b0316929081906020820190565b0390a2005b60405162461bcd60e51b815260206004820152601760248201527f4e6f20726f6c6520746f20636c61696d20706f696e74730000000000000000006044820152606490fd5b503461000e57600036600319011261000e57602060405160008152f35b503461000e57606036600319011261000e57600435610a6881610222565b6024359060443567ffffffffffffffff811161000e57610a8c903690600401610788565b604080516001600160a01b03851660208083018281528385018990528484529097939591949192610abc816110b5565b5190209660015492610acd83611359565b92610ada885194856110de565b8084528284019060051b82019136831161000e57905b828210610b98575050505061041c96610b1192610b0c92611807565b6117cb565b6001600160a01b0384166000908152600360205260409020610b5e90610b389054836115c1565b94610b44861515611770565b6001600160a01b0316600090815260036020526040902090565b5581518381527f2c4c0dc427a50c4a69d2fc184c47a311acf950d8d2f289fbaee64e83e9b2896790602090a2519081529081906020820190565b81358152908301908301610af0565b503461000e57602036600319011261000e573360009081527fad3228b676f7d3cd4284a5443f17f1962b36e491b30a40b2405849e597ba5fb560205260409020610bf39060ff9061029b565b600435600155005b503461000e57602036600319011261000e573360009081527fad3228b676f7d3cd4284a5443f17f1962b36e491b30a40b2405849e597ba5fb56020526040812060043590610c4b9060ff9061029b565b6005549081811015610cfb57610cb0610caa7f036b6384b5eca791c62761152d0c79bb0604c104a5fb6f4eb0703f3154bb3daf846001610cd49610610cee575b8060001981011015610ce1575b6005875201546001600160a01b031690565b916106e7565b90919082549060031b9160018060a01b039283811b93849216901b16911916179055565b610cdc6115d8565b604051f35b610ce96106d0565b610c98565b610cf66111b8565b610c8b565b60405162461bcd60e51b8152602060048201526013602482015272496e646578206f7574206f6620626f756e647360681b6044820152606490fd5b503461000e57602036600319011261000e57600435610d5481610222565b60018060a01b031660005260046020526080604060002061ffff815416906001810154906003600282015491015491604051938452602084015260408301526060820152f35b503461000e57604036600319011261000e576102b3602435600435610dbe82610222565b806000526000602052610dd8600160406000200154610f0c565b61112c565b503461000e57602036600319011261000e57600435610dfb81610222565b60018060a01b031660005260036020526020604060002054604051908152f35b503461000e57604036600319011261000e57600435610e3981610222565b3360009081527fc219f049e51e2457b2763be6f021239291c84ffe20f19779890a644b6138b04360205260409020546024359060ff1615610ecf57610eb081610e86610ecc9315156116d5565b6001600160a01b038416600090815260026020526040902054610eab81831115611719565b6115c1565b6001600160a01b03909216600090815260026020526040902090565b55005b60405162461bcd60e51b81526020600482015260156024820152744e6f20726f6c6520746f20646f20726566756e647360581b6044820152606490fd5b60008181526020818152604080832033845290915290205460ff1615610f2f5750565b3390610f396111e3565b916030610f45846111fe565b536078610f5184611214565b5360295b6001811161100357610fff610fb6610fe786610fd9610f7d88610f78891561125f565b6112aa565b610fd36040519586947f416363657373436f6e74726f6c3a206163636f756e742000000000000000000060208701526037860190611087565b7001034b99036b4b9b9b4b733903937b6329607d1b815260110190565b90611087565b03601f1981018352826110de565b60405162461bcd60e51b815291829160048301611100565b0390fd5b9080600f61104092166010811015611045575b6f181899199a1a9b1b9c1cb0b131b232b360811b901a6110368487611225565b5360041c91611244565b610f55565b61104d6106d0565b611016565b918091926000905b82821061107257501161106b575050565b6000910152565b9150806020918301518186015201829161105a565b9061109a60209282815194859201611052565b0190565b50634e487b7160e01b600052604160045260246000fd5b6060810190811067ffffffffffffffff8211176110d157604052565b6110d961109e565b604052565b90601f8019910116810190811067ffffffffffffffff8211176110d157604052565b604091602082526111208151809281602086015260208686019101611052565b601f01601f1916010190565b6000818152602081815260408083206001600160a01b038616845290915281205490919060ff1661115c57505050565b808252602082815260408084206001600160a01b038616600090815292529020805460ff1916905560405133936001600160a01b0316927ff6391f5c32d9c69d2a47ea670b442974b53935d1edc7fd64eb21e047a839171b91a4565b50634e487b7160e01b600052601160045260246000fd5b811981116111db570190565b61109a6111b8565b604051906111f0826110b5565b602a82526040366020840137565b60209080511561120c570190565b61109a6106d0565b60219080516001101561120c570190565b90602091805182101561123757010190565b61123f6106d0565b010190565b8015611252575b6000190190565b61125a6111b8565b61124b565b1561126657565b606460405162461bcd60e51b815260206004820152602060248201527f537472696e67733a20686578206c656e67746820696e73756666696369656e746044820152fd5b604051906080820182811067ffffffffffffffff82111761134c575b60405260428252606036602084013760306112e0836111fe565b5360786112ec83611214565b536041905b600182116113075761130491501561125f565b90565b80600f6113399216601081101561133f575b6f181899199a1a9b1b9c1cb0b131b232b360811b901a6110368486611225565b906112f1565b6113476106d0565b611319565b61135461109e565b6112c6565b60209067ffffffffffffffff8111611373575b60051b0190565b61137b61109e565b61136c565b60019060001981146111db570190565b60209181518110156113a5575b60051b010190565b6113ad6106d0565b61139d565b156113b957565b60405162461bcd60e51b815260206004820152601060248201526f41646d696e2063616c6c73206f6e6c7960801b6044820152606490fd5b60055468010000000000000000811015611469575b600181018060055581101561145c575b60056000527f036b6384b5eca791c62761152d0c79bb0604c104a5fb6f4eb0703f3154bb3db00180546001600160a01b0319166001600160a01b03909216919091179055565b6114646106d0565b611416565b61147161109e565b611406565b927fe64e25eb3c13837403496f1bbbb97a7e47098d0718b905b9cc8b258035ca70429061152b6115569496936114cc604051916080830183811067ffffffffffffffff8211176115b4575b60405261ffff168252565b8760208201528260408201528460608201526114fa8760018060a01b03166000526004602052604060002090565b90606060039161ffff81511661ffff1985541617845560208101516001850155604081015160028501550151910155565b60018060a01b0395868616948594604051938493846040919493926060820195825260208201520152565b0390a26005549260005b8481106115765750505061157491506113f1565b565b8282611599611584846106e7565b905460039190911b1c6001600160a01b031690565b16146115ad576115a890611380565b611560565b5050505050565b6115bc61109e565b6114c1565b8181106115cc570390565b6115d46111b8565b0390565b600554801561163e577f036b6384b5eca791c62761152d0c79bb0604c104a5fb6f4eb0703f3154bb3daf60001982019180831015611631575b6005600052016bffffffffffffffffffffffff60a01b8154169055600555565b6116396106d0565b611611565b634e487b7160e01b600052603160045260246000fd5b1561165b57565b60405162461bcd60e51b815260206004820152601260248201527143616e277420757365203020706f696e747360701b6044820152606490fd5b1561169c57565b60405162461bcd60e51b81526020600482015260116024820152704e6f7420656e6f75676820706f696e747360781b6044820152606490fd5b156116dc57565b60405162461bcd60e51b815260206004820152601560248201527443616e277420726566756e64203020706f696e747360581b6044820152606490fd5b1561172057565b60405162461bcd60e51b815260206004820152602260248201527f43616e277420726566756e64206d6f726520706f696e7473207468616e207573604482015261195960f21b6064820152608490fd5b1561177757565b60405162461bcd60e51b815260206004820152602660248201527f5061727469636970616e7420616c726561647920636c61696d656420616c6c20604482015265706f696e747360d01b6064820152608490fd5b156117d257565b60405162461bcd60e51b815260206004820152600d60248201526c24b73b30b634b210383937b7b360991b6044820152606490fd5b929091906000915b845183101561185a576118228386611390565b51908181116118455760005260205261183f604060002092611380565b9161180f565b9060005260205261183f604060002092611380565b91509250149056fea2646970667358221220b8b4fcc406253f918ab45934fadca7fd3880ad56262d9b6632ba2676078dc93e64736f6c634300080e0033",
  "linkReferences": {},
  "deployedLinkReferences": {}
}