{
  "_format": "hh-sol-artifact-1",
  "contractName": "Splitter",
  "sourceName": "contracts/Utils/Splitter.sol",
  "abi": [
    {
      "inputs": [
        {
          "internalType": "address",
          "name": "_admin",
          "type": "address"
        },
        {
          "internalType": "address[]",
          "name": "_destinations",
          "type": "address[]"
        },
        {
          "internalType": "uint16[]",
          "name": "_weights",
          "type": "uint16[]"
        }
      ],
      "stateMutability": "nonpayable",
      "type": "constructor"
    },
    {
      "anonymous": false,
      "inputs": [
        {
          "indexed": true,
          "internalType": "bytes32",
          "name": "role",
          "type": "bytes32"
        },
        {
          "indexed": true,
          "internalType": "bytes32",
          "name": "previousAdminRole",
          "type": "bytes32"
        },
        {
          "indexed": true,
          "internalType": "bytes32",
          "name": "newAdminRole",
          "type": "bytes32"
        }
      ],
      "name": "RoleAdminChanged",
      "type": "event"
    },
    {
      "anonymous": false,
      "inputs": [
        {
          "indexed": true,
          "internalType": "bytes32",
          "name": "role",
          "type": "bytes32"
        },
        {
          "indexed": true,
          "internalType": "address",
          "name": "account",
          "type": "address"
        },
        {
          "indexed": true,
          "internalType": "address",
          "name": "sender",
          "type": "address"
        }
      ],
      "name": "RoleGranted",
      "type": "event"
    },
    {
      "anonymous": false,
      "inputs": [
        {
          "indexed": true,
          "internalType": "bytes32",
          "name": "role",
          "type": "bytes32"
        },
        {
          "indexed": true,
          "internalType": "address",
          "name": "account",
          "type": "address"
        },
        {
          "indexed": true,
          "internalType": "address",
          "name": "sender",
          "type": "address"
        }
      ],
      "name": "RoleRevoked",
      "type": "event"
    },
    {
      "inputs": [],
      "name": "DEFAULT_ADMIN_ROLE",
      "outputs": [
        {
          "internalType": "bytes32",
          "name": "",
          "type": "bytes32"
        }
      ],
      "stateMutability": "view",
      "type": "function"
    },
    {
      "inputs": [
        {
          "internalType": "uint256",
          "name": "",
          "type": "uint256"
        }
      ],
      "name": "destinations",
      "outputs": [
        {
          "internalType": "address",
          "name": "",
          "type": "address"
        }
      ],
      "stateMutability": "view",
      "type": "function"
    },
    {
      "inputs": [
        {
          "internalType": "bytes32",
          "name": "role",
          "type": "bytes32"
        }
      ],
      "name": "getRoleAdmin",
      "outputs": [
        {
          "internalType": "bytes32",
          "name": "",
          "type": "bytes32"
        }
      ],
      "stateMutability": "view",
      "type": "function"
    },
    {
      "inputs": [
        {
          "internalType": "bytes32",
          "name": "role",
          "type": "bytes32"
        },
        {
          "internalType": "address",
          "name": "account",
          "type": "address"
        }
      ],
      "name": "grantRole",
      "outputs": [],
      "stateMutability": "nonpayable",
      "type": "function"
    },
    {
      "inputs": [
        {
          "internalType": "bytes32",
          "name": "role",
          "type": "bytes32"
        },
        {
          "internalType": "address",
          "name": "account",
          "type": "address"
        }
      ],
      "name": "hasRole",
      "outputs": [
        {
          "internalType": "bool",
          "name": "",
          "type": "bool"
        }
      ],
      "stateMutability": "view",
      "type": "function"
    },
    {
      "inputs": [
        {
          "internalType": "bytes32",
          "name": "role",
          "type": "bytes32"
        },
        {
          "internalType": "address",
          "name": "account",
          "type": "address"
        }
      ],
      "name": "renounceRole",
      "outputs": [],
      "stateMutability": "nonpayable",
      "type": "function"
    },
    {
      "inputs": [
        {
          "internalType": "bytes32",
          "name": "role",
          "type": "bytes32"
        },
        {
          "internalType": "address",
          "name": "account",
          "type": "address"
        }
      ],
      "name": "revokeRole",
      "outputs": [],
      "stateMutability": "nonpayable",
      "type": "function"
    },
    {
      "inputs": [
        {
          "internalType": "address[]",
          "name": "_destinations",
          "type": "address[]"
        }
      ],
      "name": "setDestinations",
      "outputs": [],
      "stateMutability": "nonpayable",
      "type": "function"
    },
    {
      "inputs": [
        {
          "internalType": "uint16[]",
          "name": "_weights",
          "type": "uint16[]"
        }
      ],
      "name": "setWeights",
      "outputs": [],
      "stateMutability": "nonpayable",
      "type": "function"
    },
    {
      "inputs": [
        {
          "internalType": "uint256",
          "name": "_amount",
          "type": "uint256"
        }
      ],
      "name": "split",
      "outputs": [],
      "stateMutability": "payable",
      "type": "function"
    },
    {
      "inputs": [
        {
          "internalType": "uint256",
          "name": "_amount",
          "type": "uint256"
        },
        {
          "internalType": "address",
          "name": "_erc20Address",
          "type": "address"
        }
      ],
      "name": "splitERC20",
      "outputs": [],
      "stateMutability": "payable",
      "type": "function"
    },
    {
      "inputs": [
        {
          "internalType": "bytes4",
          "name": "interfaceId",
          "type": "bytes4"
        }
      ],
      "name": "supportsInterface",
      "outputs": [
        {
          "internalType": "bool",
          "name": "",
          "type": "bool"
        }
      ],
      "stateMutability": "view",
      "type": "function"
    },
    {
      "inputs": [
        {
          "internalType": "uint256",
          "name": "",
          "type": "uint256"
        }
      ],
      "name": "weights",
      "outputs": [
        {
          "internalType": "uint16",
          "name": "",
          "type": "uint16"
        }
      ],
      "stateMutability": "view",
      "type": "function"
    },
    {
      "stateMutability": "payable",
      "type": "receive"
    }
  ],
  "bytecode": "0x608060405234620000d95762001812803803806200001d816200010f565b928339810190606081830312620000d957620000398162000144565b6020808301516001600160401b03949293919290858111620000d95782019281601f85011215620000d9578351936200007c620000768662000159565b6200010f565b94828087838152019160051b83010191848311620000d9578301905b828210620000de57505050506040820151948511620000d957620000c994620000c2920162000183565b9162000497565b6040516112189081620005da8239f35b600080fd5b838091620000ec8462000144565b81520191019062000098565b50634e487b7160e01b600052604160045260246000fd5b6040519190601f01601f191682016001600160401b038111838210176200013557604052565b6200013f620000f8565b604052565b51906001600160a01b0382168203620000d957565b6020906001600160401b03811162000173575b60051b0190565b6200017d620000f8565b6200016c565b9080601f83011215620000d957815190620001a2620000768362000159565b9182938184526020808095019260051b820101928311620000d9578301905b828210620001d0575050505090565b815161ffff81168103620000d9578152908301908301620001c1565b50634e487b7160e01b600052601160045260246000fd5b8181106200020f575050565b6000815560010162000203565b805190680100000000000000008211620002cd575b60025482600255808310620002a0575b506002600090815290602090600080516020620017f28339815191529082015b84841062000270575050505050565b805182546001600160a01b0319166001600160a01b03919091161782556001938401939190910190820162000261565b6002600052620002c690600080516020620017f283398151915290810190840162000203565b3862000241565b620002d7620000f8565b62000231565b805190680100000000000000008211620003f8575b60035482600355808310620003a0575b50600360005260209081017fc2575a0e9e593c00f959f8c92f12db2869c3395a3b0502d05e2516446f71f85b91600080925b8584106200034457505050505050565b828162000377620003596002945161ffff1690565b885461ffff918216600388901b90811b92901b918216911916178855565b01910192601e841162000390575b600101929062000334565b6001909401936000935062000385565b620003d59060036000526020600020600f80860160041c820192601e8760011b1680620003dc575b500160041c019062000203565b3862000302565b600019908186019182549160200360031b1c16905538620003c8565b62000402620000f8565b620002f2565b600190600019811462000419570190565b62000423620001ec565b0190565b9060035482101562000469576003600052600482901c7fc2575a0e9e593c00f959f8c92f12db2869c3395a3b0502d05e2516446f71f85b019160011b601e1690565b634e487b7160e01b600052603260045260246000fd5b9061ffff808093169116809203811162000419570190565b60018080556001600160a01b03821660009081527fad3228b676f7d3cd4284a5443f17f1962b36e491b30a40b2405849e597ba5fb560205260408120549194909362000502939192620004fc929060ff161562000572575b509085949392916200021c565b620002dd565b905b6200050d575050565b6003548110156200056e5780620005616200054f6200054262000534620005679562000427565b905461ffff9160031b1c1690565b60045461ffff166200047f565b61ffff1661ffff196004541617600455565b62000408565b8162000504565b5050565b858052602086815260408088206001600160a01b038416600090815292529020805460ff19168817905560405133916001600160a01b03169087907f2f8788117e7eff1d82e926ec794901d17c78024a50270940304540a733656f0d908290a438620004ef56fe6080604052600436101561001b575b361561001957600080fd5b005b60003560e01c806301ffc9a71461011f578063248a9ca3146101165780632f2ff15d1461010d57806336568abe146101045780638dd4ba2e146100fb57806391d14854146100f2578063a217fddf146100e9578063b5f163ff146100e0578063bbc7dc36146100d7578063c3b9dd55146100ce578063d547741f146100c5578063dbceb005146100bc5763e24ef2540361000e576100b7610769565b61000e565b506100b761068f565b506100b761064f565b506100b76105bf565b506100b761052c565b506100b7610470565b506100b7610417565b506100b76103c4565b506100b761037a565b506100b761029d565b506100b76101d5565b506100b761017b565b50346101765760203660031901126101765760043563ffffffff60e01b811680910361017657602090637965db0b60e01b8114908115610165575b506040519015158152f35b6301ffc9a760e01b1490503861015a565b600080fd5b50346101765760203660031901126101765760043560005260006020526020600160406000200154604051908152f35b602435906001600160a01b038216820361017657565b35906001600160a01b038216820361017657565b50346101765760408060031936011261017657600435906101f46101ab565b6000928084528360205261020d60018486200154610939565b80845260208481528385206001600160a01b03841660009081529152604090205460ff161561023b57505051f35b80845260208481528385206001600160a01b0384166000908152915260409020805460ff19166001179055825133926001600160a01b031691907f2f8788117e7eff1d82e926ec794901d17c78024a50270940304540a733656f0d908690a451f35b5034610176576040366003190112610176576102b76101ab565b336001600160a01b038216036102d35761001990600435610af7565b60405162461bcd60e51b815260206004820152602f60248201527f416363657373436f6e74726f6c3a2063616e206f6e6c792072656e6f756e636560448201526e103937b632b9903337b91039b2b63360891b6064820152608490fd5b50634e487b7160e01b600052603260045260246000fd5b60025481101561036d575b60026000526000805160206111a38339815191520190600090565b610375610330565b610352565b5034610176576020366003190112610176576004356002548110156101765760026000526000805160206111a383398151915201546040516001600160a01b039091168152602090f35b503461017657604036600319011261017657602060ff61040b6103e56101ab565b6004356000526000845260406000209060018060a01b0316600052602052604060002090565b54166040519015158152f35b503461017657600036600319011261017657602060405160008152f35b90600354821015610463575b6003600052601e8260041c6000805160206111c3833981519152019260011b1690565b61046b610330565b610440565b50346101765760203660031901126101765760043560035481101561017657602090600360005261ffff8160041c6000805160206111c3833981519152015460f06040519360041b161c168152f35b50634e487b7160e01b600052604160045260246000fd5b90601f8019910116810190811067ffffffffffffffff8211176104f857604052565b6105006104bf565b604052565b60209067ffffffffffffffff811161051f575b60051b0190565b6105276104bf565b610518565b5034610176576020806003193601126101765760043567ffffffffffffffff811161017657366023820112156101765780600401359061056b82610505565b9161057960405193846104d6565b80835260248484019160051b8301019136831161017657602401905b8282106105a55761001984610e88565b813561ffff81168103610176578152908401908401610595565b5034610176576020806003193601126101765760043567ffffffffffffffff81116101765736602382011215610176578060040135906105fe82610505565b9161060c60405193846104d6565b80835260248484019160051b8301019136831161017657602401905b8282106106385761001984610d8e565b848091610644846101c1565b815201910190610628565b50346101765760403660031901126101765761001960043561066f6101ab565b9080600052600060205261068a600160406000200154610939565b610af7565b506020366003190112610176576004356002600191816106b3849384541415611073565b8083556106c2824710156110db565b60045461ffff16926000905b6106dc575b61001960018055565b8154811015610764576000808061071f8761071a61071461070d6106ff89610434565b905461ffff9160031b1c1690565b61ffff1690565b89610b9a565b61111c565b61074061072b86610347565b905460039190911b1c6001600160a01b031690565b90604051915af161074f611154565b50156101765761075e90611044565b846106ce565b6106d3565b506040806003193601126101765760049081356107846101ab565b906002936001926107988685541415611073565b8584556001600160a01b031680151590816108ba575b84936107bc845461ffff1690565b9760009861ffff8a9116975b6107db575b89896107d860018055565b51f35b81548110156108b55780898b88886108088d61071a61080261070d6106ff6108179b610434565b8b610b9a565b9061081d575b50505050611044565b866107c8565b61085f9261082d61072b87610347565b9451808095819463a9059cbb60e01b83526020988997840160209093929193604081019460018060a01b031681520152565b03918b5af180156108a8575b61087a575b508b888c9261080e565b8161089992903d106108a1575b61089181836104d6565b81019061113c565b503880610870565b503d610887565b6108b06110ce565b61086b565b6107cd565b85516370a0823160e01b8152308482019081526108f99186916020908290819083010381875afa90811561092c575b6000916108fe575b5010156110db565b6107ae565b61091f915060203d8111610925575b61091781836104d6565b8101906110bf565b386108f1565b503d61090d565b6109346110ce565b6108e9565b60008181526020818152604080832033845290915290205460ff161561095c5750565b3390610966610bb9565b91603061097284610bf4565b53607861097e84610c0a565b5360295b60018111610a3057610a2c6109e3610a1486610a066109aa886109a58915610c55565b610ca0565b610a006040519586947f416363657373436f6e74726f6c3a206163636f756e742000000000000000000060208701526037860190610ab4565b7001034b99036b4b9b9b4b733903937b6329607d1b815260110190565b90610ab4565b03601f1981018352826104d6565b60405162461bcd60e51b815291829160048301610acb565b0390fd5b9080600f610a6d92166010811015610a72575b6f181899199a1a9b1b9c1cb0b131b232b360811b901a610a638487610c1b565b5360041c91610c3a565b610982565b610a7a610330565b610a43565b918091926000905b828210610a9f575011610a98575050565b6000910152565b91508060209183015181860152018291610a87565b90610ac760209282815194859201610a7f565b0190565b60409160208252610aeb8151809281602086015260208686019101610a7f565b601f01601f1916010190565b6000818152602081815260408083206001600160a01b038616845290915281205490919060ff16610b2757505050565b808252602082815260408084206001600160a01b038616600090815292529020805460ff1916905560405133936001600160a01b0316927ff6391f5c32d9c69d2a47ea670b442974b53935d1edc7fd64eb21e047a839171b91a4565b50634e487b7160e01b600052601160045260246000fd5b8060001904821181151516610bad570290565b610bb5610b83565b0290565b604051906060820182811067ffffffffffffffff821117610be7575b604052602a8252604082602036910137565b610bef6104bf565b610bd5565b602090805115610c02570190565b610ac7610330565b602190805160011015610c02570190565b906020918051821015610c2d57010190565b610c35610330565b010190565b8015610c48575b6000190190565b610c50610b83565b610c41565b15610c5c57565b606460405162461bcd60e51b815260206004820152602060248201527f537472696e67733a20686578206c656e67746820696e73756666696369656e746044820152fd5b604051906080820182811067ffffffffffffffff821117610d42575b6040526042825260603660208401376030610cd683610bf4565b536078610ce283610c0a565b536041905b60018211610cfd57610cfa915015610c55565b90565b80600f610d2f92166010811015610d35575b6f181899199a1a9b1b9c1cb0b131b232b360811b901a610a638486610c1b565b90610ce7565b610d3d610330565b610d0f565b610d4a6104bf565b610cbc565b15610d5657565b60405162461bcd60e51b815260206004820152601060248201526f41646d696e2063616c6c73206f6e6c7960801b6044820152606490fd5b3360009081527fad3228b676f7d3cd4284a5443f17f1962b36e491b30a40b2405849e597ba5fb5602090815260408220610dcd9060ff905b5416610d4f565b80835193600160401b8511610e64575b60025485600255808610610e40575b50600284526000805160206111a383398151915291015b848410610e11575050505050565b805182546001600160a01b0319166001600160a01b039190911617825560019384019391909101908201610e03565b610e5e90866000805160206111a38339815191529182019101610e71565b38610dec565b610e6c6104bf565b610ddd565b818110610e7c575050565b60008155600101610e71565b3360009081527fad3228b676f7d3cd4284a5443f17f1962b36e491b30a40b2405849e597ba5fb5602090815260408220610ec49060ff90610dc6565b825190600160401b8211611037575b806003948554848755808510610fbd575b506003600052016000805160206111c3833981519152918485925b858410610f6757505050505050610f1c61ffff1960045416600455565b8154811015610f635780610f59610f47610f3b6106ff610f5e95610434565b60045461ffff1661105c565b61ffff1661ffff196004541617600455565b611044565b610f1c565b5050565b8281610f98610f7a6002945161ffff1690565b885461ffff918216600388901b90811b92901b918216911916178855565b01910192601e8411610faf575b6001019290610eff565b600190940193869350610fa5565b610ff890600f860160041c888852601e8760011b1680610ffe575b50600f6000805160206111c3833981519152920160041c82019101610e71565b38610ee4565b7fc2575a0e9e593c00f959f8c92f12db2869c3395a3b0502d05e2516446f71f85a8201908154906000199088038c1b1c16905538610fd8565b61103f6104bf565b610ed3565b6001906000198114611054570190565b610ac7610b83565b9061ffff8080931691168092038111611054570190565b1561107a57565b60405162461bcd60e51b815260206004820152601f60248201527f5265656e7472616e637947756172643a207265656e7472616e742063616c6c006044820152606490fd5b90816020910312610176575190565b506040513d6000823e3d90fd5b156110e257565b60405162461bcd60e51b81526020600482015260126024820152714e6f7420656e6f7567682062616c616e636560701b6044820152606490fd5b8115611126570490565b634e487b7160e01b600052601260045260246000fd5b90816020910312610176575180151581036101765790565b3d1561119d573d9067ffffffffffffffff8211611190575b60405191611184601f8201601f1916602001846104d6565b82523d6000602084013e565b6111986104bf565b61116c565b60609056fe405787fa12a823e0f2b7631cc41b3ba8828b3321ca811111fa75cd3aa3bb5acec2575a0e9e593c00f959f8c92f12db2869c3395a3b0502d05e2516446f71f85ba264697066735822122054df1431631206baf200f5a0adcf807c39ac9874e63178550a4b63838d962cb264736f6c634300080e0033405787fa12a823e0f2b7631cc41b3ba8828b3321ca811111fa75cd3aa3bb5ace",
  "linkReferences": {},
  "deployedLinkReferences": {}
}