{
  "_format": "hh-sol-artifact-1",
  "contractName": "Splitter",
  "sourceName": "contracts/Utils/Splitter.sol",
  "abi": [
    {
      "inputs": [
        {
          "internalType": "address",
          "name": "_admin",
          "type": "address"
        },
        {
          "internalType": "address[]",
          "name": "_destinations",
          "type": "address[]"
        },
        {
          "internalType": "uint16[]",
          "name": "_weights",
          "type": "uint16[]"
        }
      ],
      "stateMutability": "nonpayable",
      "type": "constructor"
    },
    {
      "anonymous": false,
      "inputs": [
        {
          "indexed": true,
          "internalType": "bytes32",
          "name": "role",
          "type": "bytes32"
        },
        {
          "indexed": true,
          "internalType": "bytes32",
          "name": "previousAdminRole",
          "type": "bytes32"
        },
        {
          "indexed": true,
          "internalType": "bytes32",
          "name": "newAdminRole",
          "type": "bytes32"
        }
      ],
      "name": "RoleAdminChanged",
      "type": "event"
    },
    {
      "anonymous": false,
      "inputs": [
        {
          "indexed": true,
          "internalType": "bytes32",
          "name": "role",
          "type": "bytes32"
        },
        {
          "indexed": true,
          "internalType": "address",
          "name": "account",
          "type": "address"
        },
        {
          "indexed": true,
          "internalType": "address",
          "name": "sender",
          "type": "address"
        }
      ],
      "name": "RoleGranted",
      "type": "event"
    },
    {
      "anonymous": false,
      "inputs": [
        {
          "indexed": true,
          "internalType": "bytes32",
          "name": "role",
          "type": "bytes32"
        },
        {
          "indexed": true,
          "internalType": "address",
          "name": "account",
          "type": "address"
        },
        {
          "indexed": true,
          "internalType": "address",
          "name": "sender",
          "type": "address"
        }
      ],
      "name": "RoleRevoked",
      "type": "event"
    },
    {
      "inputs": [],
      "name": "DEFAULT_ADMIN_ROLE",
      "outputs": [
        {
          "internalType": "bytes32",
          "name": "",
          "type": "bytes32"
        }
      ],
      "stateMutability": "view",
      "type": "function"
    },
    {
      "inputs": [
        {
          "internalType": "uint256",
          "name": "",
          "type": "uint256"
        }
      ],
      "name": "destinations",
      "outputs": [
        {
          "internalType": "address",
          "name": "",
          "type": "address"
        }
      ],
      "stateMutability": "view",
      "type": "function"
    },
    {
      "inputs": [
        {
          "internalType": "bytes32",
          "name": "role",
          "type": "bytes32"
        }
      ],
      "name": "getRoleAdmin",
      "outputs": [
        {
          "internalType": "bytes32",
          "name": "",
          "type": "bytes32"
        }
      ],
      "stateMutability": "view",
      "type": "function"
    },
    {
      "inputs": [
        {
          "internalType": "bytes32",
          "name": "role",
          "type": "bytes32"
        },
        {
          "internalType": "address",
          "name": "account",
          "type": "address"
        }
      ],
      "name": "grantRole",
      "outputs": [],
      "stateMutability": "nonpayable",
      "type": "function"
    },
    {
      "inputs": [
        {
          "internalType": "bytes32",
          "name": "role",
          "type": "bytes32"
        },
        {
          "internalType": "address",
          "name": "account",
          "type": "address"
        }
      ],
      "name": "hasRole",
      "outputs": [
        {
          "internalType": "bool",
          "name": "",
          "type": "bool"
        }
      ],
      "stateMutability": "view",
      "type": "function"
    },
    {
      "inputs": [
        {
          "internalType": "bytes32",
          "name": "role",
          "type": "bytes32"
        },
        {
          "internalType": "address",
          "name": "account",
          "type": "address"
        }
      ],
      "name": "renounceRole",
      "outputs": [],
      "stateMutability": "nonpayable",
      "type": "function"
    },
    {
      "inputs": [
        {
          "internalType": "bytes32",
          "name": "role",
          "type": "bytes32"
        },
        {
          "internalType": "address",
          "name": "account",
          "type": "address"
        }
      ],
      "name": "revokeRole",
      "outputs": [],
      "stateMutability": "nonpayable",
      "type": "function"
    },
    {
      "inputs": [
        {
          "internalType": "address[]",
          "name": "_destinations",
          "type": "address[]"
        }
      ],
      "name": "setDestinations",
      "outputs": [],
      "stateMutability": "nonpayable",
      "type": "function"
    },
    {
      "inputs": [
        {
          "internalType": "uint16[]",
          "name": "_weights",
          "type": "uint16[]"
        }
      ],
      "name": "setWeights",
      "outputs": [],
      "stateMutability": "nonpayable",
      "type": "function"
    },
    {
      "inputs": [
        {
          "internalType": "uint256",
          "name": "_amount",
          "type": "uint256"
        }
      ],
      "name": "split",
      "outputs": [],
      "stateMutability": "payable",
      "type": "function"
    },
    {
      "inputs": [
        {
          "internalType": "uint256",
          "name": "_amount",
          "type": "uint256"
        },
        {
          "internalType": "address",
          "name": "_erc20Address",
          "type": "address"
        }
      ],
      "name": "splitERC20",
      "outputs": [],
      "stateMutability": "payable",
      "type": "function"
    },
    {
      "inputs": [
        {
          "internalType": "bytes4",
          "name": "interfaceId",
          "type": "bytes4"
        }
      ],
      "name": "supportsInterface",
      "outputs": [
        {
          "internalType": "bool",
          "name": "",
          "type": "bool"
        }
      ],
      "stateMutability": "view",
      "type": "function"
    },
    {
      "inputs": [
        {
          "internalType": "uint256",
          "name": "",
          "type": "uint256"
        }
      ],
      "name": "weights",
      "outputs": [
        {
          "internalType": "uint16",
          "name": "",
          "type": "uint16"
        }
      ],
      "stateMutability": "view",
      "type": "function"
    },
    {
      "stateMutability": "payable",
      "type": "receive"
    }
  ],
  "bytecode": "0x60806040523480156200001157600080fd5b506040516200171c3803806200171c8339810160408190526200003491620003f0565b600180556200004560008462000108565b81516200005a906002906020850190620001b8565b5080516200007090600390602084019062000222565b5060005b600354811015620000fe5760038181548110620000955762000095620004d4565b60009182526020822060108204015460048054600f9093166002026101000a90910461ffff908116939192620000ce9185911662000500565b92506101000a81548161ffff021916908361ffff1602179055508080620000f59062000529565b91505062000074565b5050505062000545565b62000114828262000118565b5050565b6000828152602081815260408083206001600160a01b038516845290915290205460ff1662000114576000828152602081815260408083206001600160a01b03851684529091529020805460ff19166001179055620001743390565b6001600160a01b0316816001600160a01b0316837f2f8788117e7eff1d82e926ec794901d17c78024a50270940304540a733656f0d60405160405180910390a45050565b82805482825590600052602060002090810192821562000210579160200282015b828111156200021057825182546001600160a01b0319166001600160a01b03909116178255602090920191600190910190620001d9565b506200021e929150620002c8565b5090565b82805482825590600052602060002090600f01601090048101928215620002105791602002820160005b838211156200028e57835183826101000a81548161ffff021916908361ffff16021790555092602001926002016020816001010492830192600103026200024c565b8015620002be5782816101000a81549061ffff02191690556002016020816001010492830192600103026200028e565b50506200021e9291505b5b808211156200021e5760008155600101620002c9565b80516001600160a01b0381168114620002f757600080fd5b919050565b634e487b7160e01b600052604160045260246000fd5b604051601f8201601f191681016001600160401b03811182821017156200033d576200033d620002fc565b604052919050565b60006001600160401b03821115620003615762000361620002fc565b5060051b60200190565b600082601f8301126200037d57600080fd5b8151602062000396620003908362000345565b62000312565b82815260059290921b84018101918181019086841115620003b657600080fd5b8286015b84811015620003e557805161ffff81168114620003d75760008081fd5b8352918301918301620003ba565b509695505050505050565b6000806000606084860312156200040657600080fd5b6200041184620002df565b602085810151919450906001600160401b03808211156200043157600080fd5b818701915087601f8301126200044657600080fd5b815162000457620003908262000345565b81815260059190911b8301840190848101908a8311156200047757600080fd5b938501935b82851015620004a0576200049085620002df565b825293850193908501906200047c565b60408a01519097509450505080831115620004ba57600080fd5b5050620004ca868287016200036b565b9150509250925092565b634e487b7160e01b600052603260045260246000fd5b634e487b7160e01b600052601160045260246000fd5b600061ffff808316818516808303821115620005205762000520620004ea565b01949350505050565b6000600182016200053e576200053e620004ea565b5060010190565b6111c780620005556000396000f3fe6080604052600436106100c65760003560e01c8063a217fddf1161007f578063c3b9dd5511610059578063c3b9dd5514610247578063d547741f14610267578063dbceb00514610287578063e24ef2541461029a57600080fd5b8063a217fddf146101df578063b5f163ff146101f4578063bbc7dc361461022757600080fd5b806301ffc9a7146100d2578063248a9ca3146101075780632f2ff15d1461014557806336568abe146101675780638dd4ba2e1461018757806391d14854146101bf57600080fd5b366100cd57005b600080fd5b3480156100de57600080fd5b506100f26100ed366004610d79565b6102ad565b60405190151581526020015b60405180910390f35b34801561011357600080fd5b50610137610122366004610da3565b60009081526020819052604090206001015490565b6040519081526020016100fe565b34801561015157600080fd5b50610165610160366004610dd8565b6102e4565b005b34801561017357600080fd5b50610165610182366004610dd8565b61030e565b34801561019357600080fd5b506101a76101a2366004610da3565b610391565b6040516001600160a01b0390911681526020016100fe565b3480156101cb57600080fd5b506100f26101da366004610dd8565b6103bb565b3480156101eb57600080fd5b50610137600081565b34801561020057600080fd5b5061021461020f366004610da3565b6103e4565b60405161ffff90911681526020016100fe565b34801561023357600080fd5b50610165610242366004610e6f565b61041c565b34801561025357600080fd5b50610165610262366004610f16565b610509565b34801561027357600080fd5b50610165610282366004610dd8565b610566565b610165610295366004610da3565b61058b565b6101656102a8366004610dd8565b610725565b60006001600160e01b03198216637965db0b60e01b14806102de57506301ffc9a760e01b6001600160e01b03198316145b92915050565b6000828152602081905260409020600101546102ff81610969565b6103098383610976565b505050565b6001600160a01b03811633146103835760405162461bcd60e51b815260206004820152602f60248201527f416363657373436f6e74726f6c3a2063616e206f6e6c792072656e6f756e636560448201526e103937b632b9903337b91039b2b63360891b60648201526084015b60405180910390fd5b61038d82826109fa565b5050565b600281815481106103a157600080fd5b6000918252602090912001546001600160a01b0316905081565b6000918252602082815260408084206001600160a01b0393909316845291905290205460ff1690565b600381815481106103f457600080fd5b9060005260206000209060109182820401919006600202915054906101000a900461ffff1681565b6104276000336103bb565b6104665760405162461bcd60e51b815260206004820152601060248201526f41646d696e2063616c6c73206f6e6c7960801b604482015260640161037a565b8051610479906003906020840190610c66565b506004805461ffff1916905560005b60035481101561038d57600381815481106104a5576104a5610fa3565b60009182526020822060108204015460048054600f9093166002026101000a90910461ffff9081169391926104dc91859116610fcf565b92506101000a81548161ffff021916908361ffff160217905550808061050190610ff5565b915050610488565b6105146000336103bb565b6105535760405162461bcd60e51b815260206004820152601060248201526f41646d696e2063616c6c73206f6e6c7960801b604482015260640161037a565b805161038d906002906020840190610d0f565b60008281526020819052604090206001015461058181610969565b61030983836109fa565b6002600154036105dd5760405162461bcd60e51b815260206004820152601f60248201527f5265656e7472616e637947756172643a207265656e7472616e742063616c6c00604482015260640161037a565b6002600155478111156106275760405162461bcd60e51b81526020600482015260126024820152714e6f7420656e6f7567682062616c616e636560701b604482015260640161037a565b60045461ffff1660005b60025481101561071c5760008261ffff166003838154811061065557610655610fa3565b6000918252602090912060108204015461067f91600f166002026101000a900461ffff168661100e565b610689919061102d565b90506000600283815481106106a0576106a0610fa3565b60009182526020822001546040516001600160a01b039091169184919081818185875af1925050503d80600081146106f4576040519150601f19603f3d011682016040523d82523d6000602084013e6106f9565b606091505b505090508061070757600080fd5b5050808061071490610ff5565b915050610631565b50506001805550565b6002600154036107775760405162461bcd60e51b815260206004820152601f60248201527f5265656e7472616e637947756172643a207265656e7472616e742063616c6c00604482015260640161037a565b60026001556001600160a01b03811615610838576040516370a0823160e01b815230600482015282906001600160a01b038316906370a0823190602401602060405180830381865afa1580156107d1573d6000803e3d6000fd5b505050506040513d601f19601f820116820180604052508101906107f5919061104f565b10156108385760405162461bcd60e51b81526020600482015260126024820152714e6f7420656e6f7567682062616c616e636560701b604482015260640161037a565b60045461ffff1660005b60025481101561095f5760008261ffff166003838154811061086657610866610fa3565b6000918252602090912060108204015461089091600f166002026101000a900461ffff168761100e565b61089a919061102d565b90506001600160a01b0384161561094c57836001600160a01b031663a9059cbb600284815481106108cd576108cd610fa3565b60009182526020909120015460405160e083901b6001600160e01b03191681526001600160a01b039091166004820152602481018490526044016020604051808303816000875af1158015610926573d6000803e3d6000fd5b505050506040513d601f19601f8201168201806040525081019061094a9190611068565b505b508061095781610ff5565b915050610842565b5050600180555050565b6109738133610a5f565b50565b61098082826103bb565b61038d576000828152602081815260408083206001600160a01b03851684529091529020805460ff191660011790556109b63390565b6001600160a01b0316816001600160a01b0316837f2f8788117e7eff1d82e926ec794901d17c78024a50270940304540a733656f0d60405160405180910390a45050565b610a0482826103bb565b1561038d576000828152602081815260408083206001600160a01b0385168085529252808320805460ff1916905551339285917ff6391f5c32d9c69d2a47ea670b442974b53935d1edc7fd64eb21e047a839171b9190a45050565b610a6982826103bb565b61038d57610a81816001600160a01b03166014610ac3565b610a8c836020610ac3565b604051602001610a9d9291906110ba565b60408051601f198184030181529082905262461bcd60e51b825261037a9160040161112f565b60606000610ad283600261100e565b610add906002611162565b67ffffffffffffffff811115610af557610af5610e04565b6040519080825280601f01601f191660200182016040528015610b1f576020820181803683370190505b509050600360fc1b81600081518110610b3a57610b3a610fa3565b60200101906001600160f81b031916908160001a905350600f60fb1b81600181518110610b6957610b69610fa3565b60200101906001600160f81b031916908160001a9053506000610b8d84600261100e565b610b98906001611162565b90505b6001811115610c10576f181899199a1a9b1b9c1cb0b131b232b360811b85600f1660108110610bcc57610bcc610fa3565b1a60f81b828281518110610be257610be2610fa3565b60200101906001600160f81b031916908160001a90535060049490941c93610c098161117a565b9050610b9b565b508315610c5f5760405162461bcd60e51b815260206004820181905260248201527f537472696e67733a20686578206c656e67746820696e73756666696369656e74604482015260640161037a565b9392505050565b82805482825590600052602060002090600f01601090048101928215610cff5791602002820160005b83821115610ccf57835183826101000a81548161ffff021916908361ffff1602179055509260200192600201602081600101049283019260010302610c8f565b8015610cfd5782816101000a81549061ffff0219169055600201602081600101049283019260010302610ccf565b505b50610d0b929150610d64565b5090565b828054828255906000526020600020908101928215610cff579160200282015b82811115610cff57825182546001600160a01b0319166001600160a01b03909116178255602090920191600190910190610d2f565b5b80821115610d0b5760008155600101610d65565b600060208284031215610d8b57600080fd5b81356001600160e01b031981168114610c5f57600080fd5b600060208284031215610db557600080fd5b5035919050565b80356001600160a01b0381168114610dd357600080fd5b919050565b60008060408385031215610deb57600080fd5b82359150610dfb60208401610dbc565b90509250929050565b634e487b7160e01b600052604160045260246000fd5b604051601f8201601f1916810167ffffffffffffffff81118282101715610e4357610e43610e04565b604052919050565b600067ffffffffffffffff821115610e6557610e65610e04565b5060051b60200190565b60006020808385031215610e8257600080fd5b823567ffffffffffffffff811115610e9957600080fd5b8301601f81018513610eaa57600080fd5b8035610ebd610eb882610e4b565b610e1a565b81815260059190911b82018301908381019087831115610edc57600080fd5b928401925b82841015610f0b57833561ffff81168114610efc5760008081fd5b82529284019290840190610ee1565b979650505050505050565b60006020808385031215610f2957600080fd5b823567ffffffffffffffff811115610f4057600080fd5b8301601f81018513610f5157600080fd5b8035610f5f610eb882610e4b565b81815260059190911b82018301908381019087831115610f7e57600080fd5b928401925b82841015610f0b57610f9484610dbc565b82529284019290840190610f83565b634e487b7160e01b600052603260045260246000fd5b634e487b7160e01b600052601160045260246000fd5b600061ffff808316818516808303821115610fec57610fec610fb9565b01949350505050565b60006001820161100757611007610fb9565b5060010190565b600081600019048311821515161561102857611028610fb9565b500290565b60008261104a57634e487b7160e01b600052601260045260246000fd5b500490565b60006020828403121561106157600080fd5b5051919050565b60006020828403121561107a57600080fd5b81518015158114610c5f57600080fd5b60005b838110156110a557818101518382015260200161108d565b838111156110b4576000848401525b50505050565b7f416363657373436f6e74726f6c3a206163636f756e74200000000000000000008152600083516110f281601785016020880161108a565b7001034b99036b4b9b9b4b733903937b6329607d1b601791840191820152835161112381602884016020880161108a565b01602801949350505050565b602081526000825180602084015261114e81604085016020870161108a565b601f01601f19169190910160400192915050565b6000821982111561117557611175610fb9565b500190565b60008161118957611189610fb9565b50600019019056fea2646970667358221220c92eb6e4c5ab0df481567a9d566957d07f25c1ca22faa53434cab539c7319d2e64736f6c634300080e0033",
  "linkReferences": {},
  "deployedLinkReferences": {}
}