{
  "_format": "hh-sol-artifact-1",
  "contractName": "Lottery",
  "sourceName": "contracts/Lottery/Lottery.sol",
  "abi": [
    {
      "inputs": [],
      "stateMutability": "nonpayable",
      "type": "constructor"
    },
    {
      "anonymous": false,
      "inputs": [
        {
          "indexed": false,
          "internalType": "address",
          "name": "previousAdmin",
          "type": "address"
        },
        {
          "indexed": false,
          "internalType": "address",
          "name": "newAdmin",
          "type": "address"
        }
      ],
      "name": "AdminChanged",
      "type": "event"
    },
    {
      "anonymous": false,
      "inputs": [
        {
          "indexed": true,
          "internalType": "address",
          "name": "beacon",
          "type": "address"
        }
      ],
      "name": "BeaconUpgraded",
      "type": "event"
    },
    {
      "anonymous": false,
      "inputs": [
        {
          "indexed": false,
          "internalType": "uint8",
          "name": "version",
          "type": "uint8"
        }
      ],
      "name": "Initialized",
      "type": "event"
    },
    {
      "anonymous": false,
      "inputs": [
        {
          "indexed": true,
          "internalType": "uint256",
          "name": "lotteryId",
          "type": "uint256"
        },
        {
          "indexed": true,
          "internalType": "enum Lottery.Status",
          "name": "status",
          "type": "uint8"
        }
      ],
      "name": "LotteryStatusChanged",
      "type": "event"
    },
    {
      "anonymous": false,
      "inputs": [
        {
          "indexed": false,
          "internalType": "address",
          "name": "account",
          "type": "address"
        }
      ],
      "name": "Paused",
      "type": "event"
    },
    {
      "anonymous": false,
      "inputs": [
        {
          "indexed": true,
          "internalType": "uint256",
          "name": "lotteryId",
          "type": "uint256"
        },
        {
          "indexed": true,
          "internalType": "address",
          "name": "participantAddress",
          "type": "address"
        },
        {
          "indexed": true,
          "internalType": "uint256",
          "name": "prizeId",
          "type": "uint256"
        }
      ],
      "name": "PrizeClaimed",
      "type": "event"
    },
    {
      "anonymous": false,
      "inputs": [
        {
          "indexed": true,
          "internalType": "uint256",
          "name": "lotteryId",
          "type": "uint256"
        },
        {
          "indexed": true,
          "internalType": "address",
          "name": "participantAddress",
          "type": "address"
        },
        {
          "indexed": false,
          "internalType": "uint256",
          "name": "amount",
          "type": "uint256"
        }
      ],
      "name": "Refunded",
      "type": "event"
    },
    {
      "anonymous": false,
      "inputs": [
        {
          "indexed": false,
          "internalType": "address",
          "name": "operator",
          "type": "address"
        },
        {
          "indexed": false,
          "internalType": "uint256",
          "name": "lotteryId",
          "type": "uint256"
        },
        {
          "indexed": false,
          "internalType": "uint256",
          "name": "priceOfTicket",
          "type": "uint256"
        }
      ],
      "name": "TicketCostChanged",
      "type": "event"
    },
    {
      "anonymous": false,
      "inputs": [
        {
          "indexed": true,
          "internalType": "uint256",
          "name": "lotteryId",
          "type": "uint256"
        },
        {
          "indexed": false,
          "internalType": "uint256",
          "name": "ticketNumber",
          "type": "uint256"
        },
        {
          "indexed": true,
          "internalType": "address",
          "name": "participantAddress",
          "type": "address"
        }
      ],
      "name": "TicketSold",
      "type": "event"
    },
    {
      "anonymous": false,
      "inputs": [
        {
          "indexed": false,
          "internalType": "address",
          "name": "account",
          "type": "address"
        }
      ],
      "name": "Unpaused",
      "type": "event"
    },
    {
      "anonymous": false,
      "inputs": [
        {
          "indexed": true,
          "internalType": "address",
          "name": "implementation",
          "type": "address"
        }
      ],
      "name": "Upgraded",
      "type": "event"
    },
    {
      "inputs": [
        {
          "internalType": "uint256",
          "name": "_lotteryId",
          "type": "uint256"
        },
        {
          "internalType": "uint256",
          "name": "_numberOfTicketsToBuy",
          "type": "uint256"
        }
      ],
      "name": "buyTickets",
      "outputs": [],
      "stateMutability": "nonpayable",
      "type": "function"
    },
    {
      "inputs": [
        {
          "internalType": "uint256",
          "name": "_points",
          "type": "uint256"
        },
        {
          "internalType": "uint256",
          "name": "_lotteryId",
          "type": "uint256"
        },
        {
          "internalType": "uint256",
          "name": "_numberOfTicketsToBuy",
          "type": "uint256"
        },
        {
          "internalType": "bytes",
          "name": "_sig",
          "type": "bytes"
        }
      ],
      "name": "buyTicketsWithSignedMessage",
      "outputs": [],
      "stateMutability": "nonpayable",
      "type": "function"
    },
    {
      "inputs": [
        {
          "internalType": "uint256",
          "name": "_lotteryId",
          "type": "uint256"
        }
      ],
      "name": "cancelLottery",
      "outputs": [],
      "stateMutability": "nonpayable",
      "type": "function"
    },
    {
      "inputs": [
        {
          "internalType": "uint256",
          "name": "_lotteryId",
          "type": "uint256"
        },
        {
          "internalType": "uint32",
          "name": "_time",
          "type": "uint32"
        }
      ],
      "name": "changeCloseTime",
      "outputs": [],
      "stateMutability": "nonpayable",
      "type": "function"
    },
    {
      "inputs": [
        {
          "components": [
            {
              "internalType": "uint256",
              "name": "lotteryId",
              "type": "uint256"
            },
            {
              "internalType": "address",
              "name": "winner",
              "type": "address"
            },
            {
              "internalType": "uint256",
              "name": "ticketNumber",
              "type": "uint256"
            },
            {
              "internalType": "string",
              "name": "uri",
              "type": "string"
            },
            {
              "internalType": "bytes32[]",
              "name": "proof",
              "type": "bytes32[]"
            }
          ],
          "internalType": "struct Lottery.ProofData",
          "name": "_proofData",
          "type": "tuple"
        }
      ],
      "name": "claimPrize",
      "outputs": [],
      "stateMutability": "nonpayable",
      "type": "function"
    },
    {
      "inputs": [
        {
          "components": [
            {
              "internalType": "uint256",
              "name": "lotteryId",
              "type": "uint256"
            },
            {
              "internalType": "address",
              "name": "winner",
              "type": "address"
            },
            {
              "internalType": "uint256",
              "name": "ticketNumber",
              "type": "uint256"
            },
            {
              "internalType": "string",
              "name": "uri",
              "type": "string"
            },
            {
              "internalType": "bytes32[]",
              "name": "proof",
              "type": "bytes32[]"
            }
          ],
          "internalType": "struct Lottery.ProofData[]",
          "name": "_proofData",
          "type": "tuple[]"
        }
      ],
      "name": "claimPrizeBatch",
      "outputs": [],
      "stateMutability": "nonpayable",
      "type": "function"
    },
    {
      "inputs": [
        {
          "internalType": "uint256",
          "name": "",
          "type": "uint256"
        },
        {
          "internalType": "uint256",
          "name": "",
          "type": "uint256"
        }
      ],
      "name": "claimedPrizes",
      "outputs": [
        {
          "internalType": "bool",
          "name": "",
          "type": "bool"
        }
      ],
      "stateMutability": "view",
      "type": "function"
    },
    {
      "inputs": [
        {
          "components": [
            {
              "internalType": "uint32",
              "name": "startTime",
              "type": "uint32"
            },
            {
              "internalType": "uint32",
              "name": "closeTime",
              "type": "uint32"
            },
            {
              "internalType": "uint32",
              "name": "participantsCount",
              "type": "uint32"
            },
            {
              "internalType": "uint32",
              "name": "maxTickets",
              "type": "uint32"
            },
            {
              "internalType": "uint32",
              "name": "maxTicketsPerUser",
              "type": "uint32"
            },
            {
              "internalType": "uint32",
              "name": "numberOfTicketsSold",
              "type": "uint32"
            },
            {
              "internalType": "uint32",
              "name": "numberOfEditions",
              "type": "uint32"
            },
            {
              "internalType": "enum Lottery.Status",
              "name": "status",
              "type": "uint8"
            },
            {
              "internalType": "contract INFT",
              "name": "nftContract",
              "type": "address"
            },
            {
              "internalType": "uint256",
              "name": "lotteryID",
              "type": "uint256"
            },
            {
              "internalType": "uint256",
              "name": "ticketCostPoints",
              "type": "uint256"
            },
            {
              "internalType": "uint256",
              "name": "ticketCostTokens",
              "type": "uint256"
            }
          ],
          "internalType": "struct Lottery.LotteryInfo",
          "name": "_lotteryInfo",
          "type": "tuple"
        }
      ],
      "name": "createLottery",
      "outputs": [],
      "stateMutability": "nonpayable",
      "type": "function"
    },
    {
      "inputs": [
        {
          "components": [
            {
              "internalType": "uint32",
              "name": "startTime",
              "type": "uint32"
            },
            {
              "internalType": "uint32",
              "name": "closeTime",
              "type": "uint32"
            },
            {
              "internalType": "uint32",
              "name": "participantsCount",
              "type": "uint32"
            },
            {
              "internalType": "uint32",
              "name": "maxTickets",
              "type": "uint32"
            },
            {
              "internalType": "uint32",
              "name": "maxTicketsPerUser",
              "type": "uint32"
            },
            {
              "internalType": "uint32",
              "name": "numberOfTicketsSold",
              "type": "uint32"
            },
            {
              "internalType": "uint32",
              "name": "numberOfEditions",
              "type": "uint32"
            },
            {
              "internalType": "enum Lottery.Status",
              "name": "status",
              "type": "uint8"
            },
            {
              "internalType": "contract INFT",
              "name": "nftContract",
              "type": "address"
            },
            {
              "internalType": "uint256",
              "name": "lotteryID",
              "type": "uint256"
            },
            {
              "internalType": "uint256",
              "name": "ticketCostPoints",
              "type": "uint256"
            },
            {
              "internalType": "uint256",
              "name": "ticketCostTokens",
              "type": "uint256"
            }
          ],
          "internalType": "struct Lottery.LotteryInfo[]",
          "name": "_lotteries",
          "type": "tuple[]"
        }
      ],
      "name": "createLotteryBatch",
      "outputs": [],
      "stateMutability": "nonpayable",
      "type": "function"
    },
    {
      "inputs": [],
      "name": "getLotteryCount",
      "outputs": [
        {
          "internalType": "uint256",
          "name": "",
          "type": "uint256"
        }
      ],
      "stateMutability": "view",
      "type": "function"
    },
    {
      "inputs": [
        {
          "internalType": "uint256",
          "name": "_lotteryId",
          "type": "uint256"
        }
      ],
      "name": "getLotteryInfo",
      "outputs": [
        {
          "components": [
            {
              "internalType": "uint32",
              "name": "startTime",
              "type": "uint32"
            },
            {
              "internalType": "uint32",
              "name": "closeTime",
              "type": "uint32"
            },
            {
              "internalType": "uint32",
              "name": "participantsCount",
              "type": "uint32"
            },
            {
              "internalType": "uint32",
              "name": "maxTickets",
              "type": "uint32"
            },
            {
              "internalType": "uint32",
              "name": "maxTicketsPerUser",
              "type": "uint32"
            },
            {
              "internalType": "uint32",
              "name": "numberOfTicketsSold",
              "type": "uint32"
            },
            {
              "internalType": "uint32",
              "name": "numberOfEditions",
              "type": "uint32"
            },
            {
              "internalType": "enum Lottery.Status",
              "name": "status",
              "type": "uint8"
            },
            {
              "internalType": "contract INFT",
              "name": "nftContract",
              "type": "address"
            },
            {
              "internalType": "uint256",
              "name": "lotteryID",
              "type": "uint256"
            },
            {
              "internalType": "uint256",
              "name": "ticketCostPoints",
              "type": "uint256"
            },
            {
              "internalType": "uint256",
              "name": "ticketCostTokens",
              "type": "uint256"
            }
          ],
          "internalType": "struct Lottery.LotteryInfo",
          "name": "",
          "type": "tuple"
        }
      ],
      "stateMutability": "view",
      "type": "function"
    },
    {
      "inputs": [
        {
          "internalType": "uint256",
          "name": "_lotteryId",
          "type": "uint256"
        }
      ],
      "name": "getLotteryTicketCount",
      "outputs": [
        {
          "internalType": "uint256",
          "name": "",
          "type": "uint256"
        }
      ],
      "stateMutability": "view",
      "type": "function"
    },
    {
      "inputs": [
        {
          "internalType": "uint256",
          "name": "_lotteryId",
          "type": "uint256"
        },
        {
          "internalType": "uint256",
          "name": "_from",
          "type": "uint256"
        },
        {
          "internalType": "uint256",
          "name": "_to",
          "type": "uint256"
        }
      ],
      "name": "getLotteryTickets",
      "outputs": [
        {
          "internalType": "address[]",
          "name": "",
          "type": "address[]"
        }
      ],
      "stateMutability": "view",
      "type": "function"
    },
    {
      "inputs": [
        {
          "internalType": "uint256",
          "name": "_lotteryId",
          "type": "uint256"
        }
      ],
      "name": "getParticipantsCount",
      "outputs": [
        {
          "internalType": "uint32",
          "name": "",
          "type": "uint32"
        }
      ],
      "stateMutability": "view",
      "type": "function"
    },
    {
      "inputs": [
        {
          "internalType": "uint256",
          "name": "_lotteryId",
          "type": "uint256"
        },
        {
          "internalType": "address",
          "name": "_user",
          "type": "address"
        }
      ],
      "name": "getTicketCountPerUser",
      "outputs": [
        {
          "internalType": "uint256",
          "name": "",
          "type": "uint256"
        }
      ],
      "stateMutability": "view",
      "type": "function"
    },
    {
      "inputs": [
        {
          "internalType": "uint256",
          "name": "_lotteryId",
          "type": "uint256"
        }
      ],
      "name": "getWhitelist",
      "outputs": [
        {
          "internalType": "address",
          "name": "",
          "type": "address"
        }
      ],
      "stateMutability": "view",
      "type": "function"
    },
    {
      "inputs": [
        {
          "internalType": "address",
          "name": "_rewardsContract",
          "type": "address"
        },
        {
          "internalType": "address",
          "name": "_admin",
          "type": "address"
        },
        {
          "internalType": "address",
          "name": "_token",
          "type": "address"
        },
        {
          "internalType": "address",
          "name": "_sageStorage",
          "type": "address"
        }
      ],
      "name": "initialize",
      "outputs": [],
      "stateMutability": "nonpayable",
      "type": "function"
    },
    {
      "inputs": [
        {
          "internalType": "uint256",
          "name": "",
          "type": "uint256"
        }
      ],
      "name": "lotteries",
      "outputs": [
        {
          "internalType": "uint256",
          "name": "",
          "type": "uint256"
        }
      ],
      "stateMutability": "view",
      "type": "function"
    },
    {
      "inputs": [
        {
          "internalType": "uint256",
          "name": "",
          "type": "uint256"
        },
        {
          "internalType": "uint256",
          "name": "",
          "type": "uint256"
        }
      ],
      "name": "lotteryTickets",
      "outputs": [
        {
          "internalType": "address",
          "name": "",
          "type": "address"
        }
      ],
      "stateMutability": "view",
      "type": "function"
    },
    {
      "inputs": [
        {
          "internalType": "uint256",
          "name": "",
          "type": "uint256"
        },
        {
          "internalType": "address",
          "name": "",
          "type": "address"
        }
      ],
      "name": "participantTicketCount",
      "outputs": [
        {
          "internalType": "uint256",
          "name": "",
          "type": "uint256"
        }
      ],
      "stateMutability": "view",
      "type": "function"
    },
    {
      "inputs": [],
      "name": "pause",
      "outputs": [],
      "stateMutability": "nonpayable",
      "type": "function"
    },
    {
      "inputs": [],
      "name": "paused",
      "outputs": [
        {
          "internalType": "bool",
          "name": "",
          "type": "bool"
        }
      ],
      "stateMutability": "view",
      "type": "function"
    },
    {
      "inputs": [
        {
          "internalType": "uint256",
          "name": "_lotteryId",
          "type": "uint256"
        },
        {
          "internalType": "uint256",
          "name": "_tokenId",
          "type": "uint256"
        }
      ],
      "name": "prizeClaimed",
      "outputs": [
        {
          "internalType": "bool",
          "name": "",
          "type": "bool"
        }
      ],
      "stateMutability": "view",
      "type": "function"
    },
    {
      "inputs": [
        {
          "internalType": "uint256",
          "name": "",
          "type": "uint256"
        }
      ],
      "name": "prizeMerkleRoots",
      "outputs": [
        {
          "internalType": "bytes32",
          "name": "",
          "type": "bytes32"
        }
      ],
      "stateMutability": "view",
      "type": "function"
    },
    {
      "inputs": [],
      "name": "proxiableUUID",
      "outputs": [
        {
          "internalType": "bytes32",
          "name": "",
          "type": "bytes32"
        }
      ],
      "stateMutability": "view",
      "type": "function"
    },
    {
      "inputs": [
        {
          "internalType": "uint256",
          "name": "",
          "type": "uint256"
        }
      ],
      "name": "randomSeeds",
      "outputs": [
        {
          "internalType": "uint256",
          "name": "",
          "type": "uint256"
        }
      ],
      "stateMutability": "view",
      "type": "function"
    },
    {
      "inputs": [
        {
          "internalType": "uint256",
          "name": "_lotteryId",
          "type": "uint256"
        },
        {
          "internalType": "uint256",
          "name": "_randomNumber",
          "type": "uint256"
        }
      ],
      "name": "receiveRandomNumber",
      "outputs": [],
      "stateMutability": "nonpayable",
      "type": "function"
    },
    {
      "inputs": [
        {
          "internalType": "address",
          "name": "_assetOwner",
          "type": "address"
        },
        {
          "internalType": "uint256",
          "name": "_lotteryId",
          "type": "uint256"
        },
        {
          "internalType": "uint256",
          "name": "_amount",
          "type": "uint256"
        }
      ],
      "name": "refund",
      "outputs": [],
      "stateMutability": "nonpayable",
      "type": "function"
    },
    {
      "inputs": [
        {
          "internalType": "address[]",
          "name": "_owners",
          "type": "address[]"
        },
        {
          "internalType": "uint256",
          "name": "_lotteryId",
          "type": "uint256"
        },
        {
          "internalType": "uint256[]",
          "name": "_amounts",
          "type": "uint256[]"
        }
      ],
      "name": "refundBatch",
      "outputs": [],
      "stateMutability": "nonpayable",
      "type": "function"
    },
    {
      "inputs": [
        {
          "internalType": "uint256",
          "name": "",
          "type": "uint256"
        },
        {
          "internalType": "address",
          "name": "",
          "type": "address"
        }
      ],
      "name": "refunds",
      "outputs": [
        {
          "internalType": "uint256",
          "name": "",
          "type": "uint256"
        }
      ],
      "stateMutability": "view",
      "type": "function"
    },
    {
      "inputs": [
        {
          "internalType": "uint256",
          "name": "_lotteryId",
          "type": "uint256"
        }
      ],
      "name": "requestRandomNumber",
      "outputs": [],
      "stateMutability": "nonpayable",
      "type": "function"
    },
    {
      "inputs": [],
      "name": "rewardsContract",
      "outputs": [
        {
          "internalType": "contract IRewards",
          "name": "",
          "type": "address"
        }
      ],
      "stateMutability": "view",
      "type": "function"
    },
    {
      "inputs": [
        {
          "internalType": "uint256",
          "name": "_lotteryId",
          "type": "uint256"
        },
        {
          "internalType": "uint32",
          "name": "_maxTickets",
          "type": "uint32"
        }
      ],
      "name": "setMaxTickets",
      "outputs": [],
      "stateMutability": "nonpayable",
      "type": "function"
    },
    {
      "inputs": [
        {
          "internalType": "uint256",
          "name": "_lotteryId",
          "type": "uint256"
        },
        {
          "internalType": "uint32",
          "name": "_maxTicketsPerUser",
          "type": "uint32"
        }
      ],
      "name": "setMaxTicketsPerUser",
      "outputs": [],
      "stateMutability": "nonpayable",
      "type": "function"
    },
    {
      "inputs": [
        {
          "internalType": "uint256",
          "name": "_lotteryId",
          "type": "uint256"
        },
        {
          "internalType": "bytes32",
          "name": "_root",
          "type": "bytes32"
        }
      ],
      "name": "setPrizeMerkleRoot",
      "outputs": [],
      "stateMutability": "nonpayable",
      "type": "function"
    },
    {
      "inputs": [
        {
          "internalType": "address",
          "name": "_IRandomNumberGenerator",
          "type": "address"
        }
      ],
      "name": "setRandomGenerator",
      "outputs": [],
      "stateMutability": "nonpayable",
      "type": "function"
    },
    {
      "inputs": [
        {
          "internalType": "address",
          "name": "_rewardsContract",
          "type": "address"
        }
      ],
      "name": "setRewardsContract",
      "outputs": [],
      "stateMutability": "nonpayable",
      "type": "function"
    },
    {
      "inputs": [
        {
          "internalType": "address",
          "name": "_signer",
          "type": "address"
        }
      ],
      "name": "setSignerAddress",
      "outputs": [],
      "stateMutability": "nonpayable",
      "type": "function"
    },
    {
      "inputs": [
        {
          "internalType": "address",
          "name": "_token",
          "type": "address"
        }
      ],
      "name": "setToken",
      "outputs": [],
      "stateMutability": "nonpayable",
      "type": "function"
    },
    {
      "inputs": [
        {
          "internalType": "uint256",
          "name": "_lotteryId",
          "type": "uint256"
        },
        {
          "internalType": "address",
          "name": "_whitelist",
          "type": "address"
        }
      ],
      "name": "setWhitelist",
      "outputs": [],
      "stateMutability": "nonpayable",
      "type": "function"
    },
    {
      "inputs": [],
      "name": "token",
      "outputs": [
        {
          "internalType": "contract IERC20",
          "name": "",
          "type": "address"
        }
      ],
      "stateMutability": "view",
      "type": "function"
    },
    {
      "inputs": [],
      "name": "unpause",
      "outputs": [],
      "stateMutability": "nonpayable",
      "type": "function"
    },
    {
      "inputs": [
        {
          "internalType": "uint256",
          "name": "lotteryId",
          "type": "uint256"
        },
        {
          "internalType": "uint256",
          "name": "_ticketCostPoints",
          "type": "uint256"
        },
        {
          "internalType": "uint256",
          "name": "_ticketCostTokens",
          "type": "uint256"
        },
        {
          "internalType": "uint32",
          "name": "_startTime",
          "type": "uint32"
        },
        {
          "internalType": "uint32",
          "name": "_closeTime",
          "type": "uint32"
        },
        {
          "internalType": "contract INFT",
          "name": "_nftContract",
          "type": "address"
        },
        {
          "internalType": "uint16",
          "name": "_maxTickets",
          "type": "uint16"
        },
        {
          "internalType": "enum Lottery.Status",
          "name": "_status",
          "type": "uint8"
        },
        {
          "internalType": "uint32",
          "name": "_numberOfEditions",
          "type": "uint32"
        }
      ],
      "name": "updateLottery",
      "outputs": [],
      "stateMutability": "nonpayable",
      "type": "function"
    },
    {
      "inputs": [
        {
          "internalType": "address",
          "name": "newImplementation",
          "type": "address"
        }
      ],
      "name": "upgradeTo",
      "outputs": [],
      "stateMutability": "nonpayable",
      "type": "function"
    },
    {
      "inputs": [
        {
          "internalType": "address",
          "name": "newImplementation",
          "type": "address"
        },
        {
          "internalType": "bytes",
          "name": "data",
          "type": "bytes"
        }
      ],
      "name": "upgradeToAndCall",
      "outputs": [],
      "stateMutability": "payable",
      "type": "function"
    },
    {
      "inputs": [
        {
          "internalType": "uint256",
          "name": "",
          "type": "uint256"
        }
      ],
      "name": "whitelists",
      "outputs": [
        {
          "internalType": "address",
          "name": "",
          "type": "address"
        }
      ],
      "stateMutability": "view",
      "type": "function"
    },
    {
      "inputs": [
        {
          "internalType": "uint256",
          "name": "_amount",
          "type": "uint256"
        }
      ],
      "name": "withdraw",
      "outputs": [],
      "stateMutability": "nonpayable",
      "type": "function"
    }
  ],
  "bytecode": "0x60a0604052306080523480156200001557600080fd5b506200002062000026565b62000156565b6200003260ff62000035565b50565b60008054610100900460ff1615620000ce578160ff1660011480156200006e57506200006c306200014760201b620032b61760201c565b155b620000c65760405162461bcd60e51b815260206004820152602e602482015260008051602062004fe283398151915260448201526d191e481a5b9a5d1a585b1a5e995960921b60648201526084015b60405180910390fd5b506000919050565b60005460ff8084169116106200012d5760405162461bcd60e51b815260206004820152602e602482015260008051602062004fe283398151915260448201526d191e481a5b9a5d1a585b1a5e995960921b6064820152608401620000bd565b506000805460ff191660ff92909216919091179055600190565b6001600160a01b03163b151590565b608051614e546200018e600039600081816115d50152818161161501528181611ac101528181611b010152611c3e0152614e546000f3fe6080604052600436106102885760003560e01c80636a6be3151161015a578063c730bba0116100c1578063f4f46e351161007a578063f4f46e3514610877578063f5f4899814610897578063f8c8765e146108e6578063f90328d514610906578063fc0c546a14610941578063fe4d5add1461096157600080fd5b8063c730bba014610777578063d098a2f0146107af578063d89da286146107dc578063db2c0fd1146107fc578063dfa0dfa514610837578063eb1ea5211461085757600080fd5b80638c8bf83b116101135780638c8bf83b1461067a57806396db752a1461069a5780639b7fecc3146106d0578063b1eb96c9146106fd578063bf4002b21461071d578063c11ab6151461073d57600080fd5b80636a6be315146105b857806372f5b6c2146105d85780637350ab2c146105f857806376b3c8a8146106185780638456cb59146106455780638627df461461065a57600080fd5b80633f4ba83a116101fe5780634bc19fee116101b75780634bc19fee1461050c5780634f1ef2861461052c57806350612da61461053f57806352d1902d1461055f5780635c975abb146105745780636013457f1461059857600080fd5b80633f4ba83a1461041c57806340cf23d9146104315780634538f29714610474578063454cc4bc1461049457806349c0de88146104cc5780634a004467146104ec57600080fd5b80632368040011610250578063236804001461035a57806327a38a9e146103875780632801f84a146103a75780632e1a7d4d146103c75780632f9aa1fe146103e75780633659cfe6146103fc57600080fd5b8063046dc1661461028d5780631398e076146102af578063144fa6d7146102e257806318fd890314610302578063220cce9714610322575b600080fd5b34801561029957600080fd5b506102ad6102a8366004613e05565b610997565b005b3480156102bb57600080fd5b506102cf6102ca366004613e22565b610a5e565b6040519081526020015b60405180910390f35b3480156102ee57600080fd5b506102ad6102fd366004613e05565b610a7f565b34801561030e57600080fd5b506102ad61031d366004613e3b565b610b3d565b34801561032e57600080fd5b5060cd54610342906001600160a01b031681565b6040516001600160a01b0390911681526020016102d9565b34801561036657600080fd5b506102cf610375366004613e22565b60d56020526000908152604090205481565b34801561039357600080fd5b506102ad6103a2366004613e70565b610d85565b3480156103b357600080fd5b506102ad6103c2366004613ec9565b611218565b3480156103d357600080fd5b506102ad6103e2366004613e22565b611442565b3480156103f357600080fd5b5060ce546102cf565b34801561040857600080fd5b506102ad610417366004613e05565b6115cb565b34801561042857600080fd5b506102ad6116aa565b34801561043d57600080fd5b506102cf61044c366004613f71565b600091825260d3602090815260408084206001600160a01b0393909316845291905290205490565b34801561048057600080fd5b506102ad61048f366004613e22565b611750565b3480156104a057600080fd5b506102cf6104af366004613f71565b60d460209081526000928352604080842090915290825290205481565b3480156104d857600080fd5b506103426104e7366004613fa1565b61189c565b3480156104f857600080fd5b506102ad610507366004613fc3565b6118d4565b34801561051857600080fd5b506102ad610527366004613e05565b6119a3565b6102ad61053a3660046140ad565b611ab7565b34801561054b57600080fd5b506102ad61055a366004613fa1565b611b83565b34801561056b57600080fd5b506102cf611c31565b34801561058057600080fd5b5060975460ff165b60405190151581526020016102d9565b3480156105a457600080fd5b506102ad6105b3366004614110565b611ce4565b3480156105c457600080fd5b506102ad6105d3366004613fc3565b611f4b565b3480156105e457600080fd5b506102ad6105f3366004614129565b612091565b34801561060457600080fd5b506102ad61061336600461419e565b612170565b34801561062457600080fd5b50610638610633366004613e22565b612331565b6040516102d99190614262565b34801561065157600080fd5b506102ad61248d565b34801561066657600080fd5b506102ad610675366004613fa1565b612531565b34801561068657600080fd5b506102ad610695366004614350565b612a1c565b3480156106a657600080fd5b506103426106b5366004613e22565b600090815260d060205260409020546001600160a01b031690565b3480156106dc57600080fd5b506106f06106eb3660046143b2565b612a5f565b6040516102d991906143de565b34801561070957600080fd5b506102ad610718366004613e22565b612b49565b34801561072957600080fd5b506102ad610738366004613fc3565b612df3565b34801561074957600080fd5b506102cf610758366004613e22565b600090815260cf6020526040902054600160a01b900463ffffffff1690565b34801561078357600080fd5b506102cf610792366004613f71565b60d360209081526000928352604080842090915290825290205481565b3480156107bb57600080fd5b506102cf6107ca366004613e22565b60d16020526000908152604090205481565b3480156107e857600080fd5b506102ad6107f7366004613f71565b612ec2565b34801561080857600080fd5b50610588610817366004613fa1565b600091825260d26020908152604080842092845291905290205460ff1690565b34801561084357600080fd5b506102ad610852366004613e05565b612f8c565b34801561086357600080fd5b506102ad610872366004613fa1565b61304a565b34801561088357600080fd5b506102ad6108923660046144b9565b613149565b3480156108a357600080fd5b506108d16108b2366004613e22565b600090815260cf6020526040902054600160401b900463ffffffff1690565b60405163ffffffff90911681526020016102d9565b3480156108f257600080fd5b506102ad610901366004614583565b6131ec565b34801561091257600080fd5b50610588610921366004613fa1565b60d260209081526000928352604080842090915290825290205460ff1681565b34801561094d57600080fd5b5060cb54610342906001600160a01b031681565b34801561096d57600080fd5b5061034261097c366004613e22565b60d0602052600090815260409020546001600160a01b031681565b60c954604051632474521560e21b8152600080516020614dff83398151915260048201523360248201526001600160a01b03909116906391d1485490604401602060405180830381865afa1580156109f3573d6000803e3d6000fd5b505050506040513d601f19601f82011682018060405250810190610a1791906145df565b610a3c5760405162461bcd60e51b8152600401610a3390614601565b60405180910390fd5b60ca80546001600160a01b0319166001600160a01b0392909216919091179055565b60ce8181548110610a6e57600080fd5b600091825260209091200154905081565b60c954604051632474521560e21b8152600080516020614dff83398151915260048201523360248201526001600160a01b03909116906391d1485490604401602060405180830381865afa158015610adb573d6000803e3d6000fd5b505050506040513d601f19601f82011682018060405250810190610aff91906145df565b610b1b5760405162461bcd60e51b8152600401610a3390614601565b60cb80546001600160a01b0319166001600160a01b0392909216919091179055565b60975460ff1615610b605760405162461bcd60e51b8152600401610a339061462b565b600082815260cf6020526040902081610bac5760405162461bcd60e51b815260206004820152600e60248201526d043616e277420726566756e6420360941b6044820152606401610a33565b60008154600160e01b900460ff166003811115610bcb57610bcb61422a565b03610c105760405162461bcd60e51b8152602060048201526015602482015274496e76616c6964206c6f747465727920737461746560581b6044820152606401610a33565b600083815260d4602090815260408083206001600160a01b0388168452909152902054821115610c8c5760405162461bcd60e51b815260206004820152602160248201527f43616e277420726566756e642074686520616d6f756e742072657175657374656044820152601960fa1b6064820152608401610a33565b600083815260d4602090815260408083206001600160a01b038816845290915281208054849290610cbe90849061466b565b909155505060cb5460405163a9059cbb60e01b81526001600160a01b038681166004830152602482018590529091169063a9059cbb906044016020604051808303816000875af1158015610d16573d6000803e3d6000fd5b505050506040513d601f19601f82011682018060405250810190610d3a91906145df565b50836001600160a01b0316837f7ca5472b7ea78c2c0141c5a12ee6d170cf4ce8ed06be3d22c8252ddfc7a6a2c484604051610d7791815260200190565b60405180910390a350505050565b60975460ff1615610da85760405162461bcd60e51b8152600401610a339061462b565b8035600081815260d26020908152604080832081860135845290915290205460ff1615610e215760405162461bcd60e51b815260206004820152602160248201527f5061727469636970616e7420616c726561647920636c61696d6564207072697a6044820152606560f81b6064820152608401610a33565b610e88610e35610e3084614682565b6132c5565b600083815260d16020526040902054610e51608086018661472b565b8080602002602001604051908101604052809392919081815260200183836020028082843760009201919091525061330b92505050565b610ecb5760405162461bcd60e51b815260206004820152601460248201527324b73b30b634b21036b2b935b63290383937b7b360611b6044820152606401610a33565b600081815260cf602052604090206004810154801561111457600083815260d46020908152604080832033845290915281208054839290610f0d90849061466b565b9091555060009050612710610f24611f4084614774565b610f2e9190614793565b60cb546001850154604080516321de0b0960e11b815290519394506001600160a01b039283169363a9059cbb93909216916343bc1612916004808201926020929091908290030181865afa158015610f8a573d6000803e3d6000fd5b505050506040513d601f19601f82011682018060405250810190610fae91906147b5565b6040516001600160e01b031960e084901b1681526001600160a01b039091166004820152602481018490526044016020604051808303816000875af1158015610ffb573d6000803e3d6000fd5b505050506040513d601f19601f8201168201806040525081019061101f91906145df565b5060cb5460c95460408051634783c35b60e01b815290516001600160a01b039384169363a9059cbb931691634783c35b9160048083019260209291908290030181865afa158015611074573d6000803e3d6000fd5b505050506040513d601f19601f8201168201806040525081019061109891906147b5565b6110a2848661466b565b6040516001600160e01b031960e085901b1681526001600160a01b03909216600483015260248201526044016020604051808303816000875af11580156110ed573d6000803e3d6000fd5b505050506040513d601f19601f8201168201806040525081019061111191906145df565b50505b600083815260cf6020908152604080832060019081015460d284528285208984018035875290855292909420805460ff191690911790556001600160a01b0390921691829163d204c45e9161116a918901613e05565b61117760608901896147d2565b6040518463ffffffff1660e01b815260040161119593929190614818565b600060405180830381600087803b1580156111af57600080fd5b505af11580156111c3573d6000803e3d6000fd5b50505060408601803591506111db9060208801613e05565b6001600160a01b0316857f4aa95f981a8337cb337de335b965507da0879c3b49f799d20058e913f5ad2c2660405160405180910390a45050505050565b60c954604051632474521560e21b8152600080516020614dff83398151915260048201523360248201526001600160a01b03909116906391d1485490604401602060405180830381865afa158015611274573d6000803e3d6000fd5b505050506040513d601f19601f8201168201806040525081019061129891906145df565b6112b45760405162461bcd60e51b8152600401610a3390614601565b858560008263ffffffff16116113015760405162461bcd60e51b8152602060048201526012602482015271496e76616c69642073746172742074696d6560701b6044820152606401610a33565b8163ffffffff168163ffffffff161161132c5760405162461bcd60e51b8152600401610a3390614858565b60008b815260cf60205260409020805460038083018d9055600483018c90556001830180546001600160a01b038b166001600160a01b0319909116179055600160601b61ffff89160263ffffffff60601b1963ffffffff8c81166401000000000267ffffffffffffffff19909516908e161793909317928316811784558792849260ff60e01b1990921670ff000000000000000000000000ffffffff60601b199091161790600160e01b9084908111156113e8576113e861422a565b0217905550805463ffffffff60c01b1916600160c01b63ffffffff86160217815584600381111561141b5761141b61422a565b6040518d90600080516020614d9883398151915290600090a3505050505050505050505050565b60c954604051632474521560e21b8152600080516020614dff83398151915260048201523360248201526001600160a01b03909116906391d1485490604401602060405180830381865afa15801561149e573d6000803e3d6000fd5b505050506040513d601f19601f820116820180604052508101906114c291906145df565b6114de5760405162461bcd60e51b8152600401610a3390614601565b60cb5460c95460408051634783c35b60e01b815290516001600160a01b039384169363a9059cbb931691634783c35b9160048083019260209291908290030181865afa158015611532573d6000803e3d6000fd5b505050506040513d601f19601f8201168201806040525081019061155691906147b5565b6040516001600160e01b031960e084901b1681526001600160a01b039091166004820152602481018490526044016020604051808303816000875af11580156115a3573d6000803e3d6000fd5b505050506040513d601f19601f820116820180604052508101906115c791906145df565b5050565b6001600160a01b037f00000000000000000000000000000000000000000000000000000000000000001630036116135760405162461bcd60e51b8152600401610a339061489b565b7f00000000000000000000000000000000000000000000000000000000000000006001600160a01b031661165c600080516020614db8833981519152546001600160a01b031690565b6001600160a01b0316146116825760405162461bcd60e51b8152600401610a33906148e7565b61168b81613320565b604080516000808252602082019092526116a7918391906133b3565b50565b60c954604051632474521560e21b8152600080516020614dff83398151915260048201523360248201526001600160a01b03909116906391d1485490604401602060405180830381865afa158015611706573d6000803e3d6000fd5b505050506040513d601f19601f8201168201806040525081019061172a91906145df565b6117465760405162461bcd60e51b8152600401610a3390614601565b61174e613523565b565b60c954604051632474521560e21b8152600080516020614dff83398151915260048201523360248201526001600160a01b03909116906391d1485490604401602060405180830381865afa1580156117ac573d6000803e3d6000fd5b505050506040513d601f19601f820116820180604052508101906117d091906145df565b6117ec5760405162461bcd60e51b8152600401610a3390614601565b600081815260cf602052604090208054600160401b900463ffffffff16156118565760405162461bcd60e51b815260206004820152601760248201527f4c6f747465727920616c726561647920737461727465640000000000000000006044820152606401610a33565b805460ff60e01b1916600160e01b9081178083550460ff16600381111561187f5761187f61422a565b6040518390600080516020614d9883398151915290600090a35050565b60d660205281600052604060002081815481106118b857600080fd5b6000918252602090912001546001600160a01b03169150829050565b60c954604051632474521560e21b8152600080516020614dff83398151915260048201523360248201526001600160a01b03909116906391d1485490604401602060405180830381865afa158015611930573d6000803e3d6000fd5b505050506040513d601f19601f8201168201806040525081019061195491906145df565b6119705760405162461bcd60e51b8152600401610a3390614601565b600091825260cf6020526040909120805463ffffffff909216600160801b0263ffffffff60801b19909216919091179055565b60c954604051632474521560e21b8152600080516020614dff83398151915260048201523360248201526001600160a01b03909116906391d1485490604401602060405180830381865afa1580156119ff573d6000803e3d6000fd5b505050506040513d601f19601f82011682018060405250810190611a2391906145df565b611a3f5760405162461bcd60e51b8152600401610a3390614601565b6001600160a01b038116611a955760405162461bcd60e51b815260206004820152601d60248201527f436f6e7472616374732063616e6e6f74206265203020616464726573730000006044820152606401610a33565b60cc80546001600160a01b0319166001600160a01b0392909216919091179055565b6001600160a01b037f0000000000000000000000000000000000000000000000000000000000000000163003611aff5760405162461bcd60e51b8152600401610a339061489b565b7f00000000000000000000000000000000000000000000000000000000000000006001600160a01b0316611b48600080516020614db8833981519152546001600160a01b031690565b6001600160a01b031614611b6e5760405162461bcd60e51b8152600401610a33906148e7565b611b7782613320565b6115c7828260016133b3565b60c954604051632474521560e21b8152600080516020614dff83398151915260048201523360248201526001600160a01b03909116906391d1485490604401602060405180830381865afa158015611bdf573d6000803e3d6000fd5b505050506040513d601f19601f82011682018060405250810190611c0391906145df565b611c1f5760405162461bcd60e51b8152600401610a3390614601565b600091825260d1602052604090912055565b6000306001600160a01b037f00000000000000000000000000000000000000000000000000000000000000001614611cd15760405162461bcd60e51b815260206004820152603860248201527f555550535570677261646561626c653a206d757374206e6f742062652063616c60448201527f6c6564207468726f7567682064656c656761746563616c6c00000000000000006064820152608401610a33565b50600080516020614db883398151915290565b60c954604051632474521560e21b8152600080516020614dff83398151915260048201523360248201526001600160a01b03909116906391d1485490604401602060405180830381865afa158015611d40573d6000803e3d6000fd5b505050506040513d601f19601f82011682018060405250810190611d6491906145df565b611d805760405162461bcd60e51b8152600401610a3390614601565b611d8d6020820182614933565b611d9d6040830160208401614933565b60008263ffffffff1611611de85760405162461bcd60e51b8152602060048201526012602482015271496e76616c69642073746172742074696d6560701b6044820152606401610a33565b8163ffffffff168163ffffffff1611611e135760405162461bcd60e51b8152600401610a3390614858565b6000611e2560e0850160c08601614933565b63ffffffff1611611e695760405162461bcd60e51b815260206004820152600e60248201526d496e76616c6964207072697a657360901b6044820152606401610a33565b610120830135600090815260cf6020526040902054600160c01b900463ffffffff1615611ed15760405162461bcd60e51b81526020600482015260166024820152754c6f747465727920616c72656164792065786973747360501b6044820152606401610a33565b60ce8054600181019091556101208401357fd36cd1c74ef8d7326d8021b776c18fb5a5724b7f7bc93c2f42e43e10ef27d12a909101819055600090815260cf602052604090208390611f2382826149b8565b506000905060405161012085013590600080516020614d9883398151915290600090a3505050565b60c954604051632474521560e21b8152600080516020614dff83398151915260048201523360248201526001600160a01b03909116906391d1485490604401602060405180830381865afa158015611fa7573d6000803e3d6000fd5b505050506040513d601f19601f82011682018060405250810190611fcb91906145df565b611fe75760405162461bcd60e51b8152600401610a3390614601565b600082815260cf60205260409020805463ffffffff166120405760405162461bcd60e51b8152602060048201526014602482015273131bdd1d195c9e481a59081b9bdd08199bdd5b9960621b6044820152606401610a33565b805463ffffffff9081169083161161206a5760405162461bcd60e51b8152600401610a3390614858565b805463ffffffff9092166401000000000267ffffffff000000001990921691909117905550565b60c954604051632474521560e21b8152600080516020614dff83398151915260048201523360248201526001600160a01b03909116906391d1485490604401602060405180830381865afa1580156120ed573d6000803e3d6000fd5b505050506040513d601f19601f8201168201806040525081019061211191906145df565b61212d5760405162461bcd60e51b8152600401610a3390614601565b8060005b8181101561216a5761215a84848381811061214e5761214e614b7f565b90506101800201611ce4565b61216381614b95565b9050612131565b50505050565b6040805133602082018190529181018790526000906121a790606001604051602081830303815290604052805190602001206135b6565b60ca54604080516020601f88018190048102820181019092528681529293506001600160a01b03909116916121f99184919088908890819084018382808284376000920191909152506135f192505050565b6001600160a01b0316146122435760405162461bcd60e51b8152602060048201526011602482015270496e76616c6964207369676e617475726560781b6044820152606401610a33565b60cd5460405163f662781d60e01b81526001600160a01b0384811660048301528992169063f662781d90602401602060405180830381865afa15801561228d573d6000803e3d6000fd5b505050506040513d601f19601f820116820180604052508101906122b19190614bae565b101561231e5760cd54604051630259ab7760e61b81526001600160a01b038481166004830152602482018a90529091169063966addc090604401600060405180830381600087803b15801561230557600080fd5b505af1158015612319573d6000803e3d6000fd5b505050505b6123288686612531565b50505050505050565b61239e6040805161018081018252600080825260208201819052918101829052606081018290526080810182905260a0810182905260c081018290529060e0820190815260200160006001600160a01b031681526020016000815260200160008152602001600081525090565b600082815260cf6020908152604091829020825161018081018452815463ffffffff80821683526401000000008204811694830194909452600160401b8104841694820194909452600160601b840483166060820152600160801b840483166080820152600160a01b8404831660a0820152600160c01b840490921660c0830152909160e0830190600160e01b900460ff1660038111156124415761244161422a565b60038111156124525761245261422a565b815260018201546001600160a01b03166020820152600282015460408201526003820154606082015260049091015460809091015292915050565b60c954604051632474521560e21b8152600080516020614dff83398151915260048201523360248201526001600160a01b03909116906391d1485490604401602060405180830381865afa1580156124e9573d6000803e3d6000fd5b505050506040513d601f19601f8201168201806040525081019061250d91906145df565b6125295760405162461bcd60e51b8152600401610a3390614601565b61174e613615565b60975460ff16156125545760405162461bcd60e51b8152600401610a339061462b565b600082815260d0602052604090205482906001600160a01b03161561263157600081815260d06020526040908190205490516320c18e6b60e21b8152336004820152602481018390526001600160a01b039091169063830639ac90604401602060405180830381865afa1580156125cf573d6000803e3d6000fd5b505050506040513d601f19601f820116820180604052508101906125f391906145df565b6126315760405162461bcd60e51b815260206004820152600f60248201526e139bdd081dda1a5d195b1a5cdd1959608a1b6044820152606401610a33565b600083815260cf60205260408120805490919081908190600160601b900463ffffffff16156126bf57835463ffffffff600160601b820481169161267e918991600160a01b900416614bc7565b11156126bf5760405162461bcd60e51b815260206004820152601060248201526f151a58dad95d1cc81cdbdb19081bdd5d60821b6044820152606401610a33565b600087815260d3602090815260408083203384529091529020548454600160801b900463ffffffff1615612754578454600160801b900463ffffffff166127068883614bc7565b11156127545760405162461bcd60e51b815260206004820181905260248201527f43616e277420627579207468697320616d6f756e74206f66207469636b6574736044820152606401610a33565b84544263ffffffff9091161180159061277c575084544264010000000090910463ffffffff16115b80156127a5575060018554600160e01b900460ff1660038111156127a2576127a261422a565b14155b6127e75760405162461bcd60e51b81526020600482015260136024820152722637ba3a32b93c9034b9903737ba1037b832b760691b6044820152606401610a33565b60038501546127f69088614774565b9250821561280a57612808338461366d565b505b6004850154855490925087908690601490612833908490600160a01b900463ffffffff16614bdf565b92506101000a81548163ffffffff021916908363ffffffff1602179055506000821115612910576128648288614774565b60cb546040516323b872dd60e01b8152336004820152306024820152604481018390529195506001600160a01b0316906323b872dd906064016020604051808303816000875af11580156128bc573d6000803e3d6000fd5b505050506040513d601f19601f820116820180604052508101906128e091906145df565b50600088815260d4602090815260408083203384529091528120805486929061290a908490614bc7565b90915550505b80600003612954578454859060089061293590600160401b900463ffffffff16614c07565b91906101000a81548163ffffffff021916908363ffffffff1602179055505b600088815260d3602090815260408083203384529091528120805461ffff8a169290612981908490614bc7565b9091555050600088815260d660205260408120905b88811015612a105781546001810183556000838152602090200180546001600160a01b0319163390811790915582546040518c917fc41bbb54d04f2268c7895b9330f18468c306a3f92698a92c4c86b29787397848916129f891815260200190565b60405180910390a3612a0981614b95565b9050612996565b50505050505050505050565b8060005b8181101561216a57612a4f848483818110612a3d57612a3d614b7f565b90506020028101906103a29190614c2a565b612a5881614b95565b9050612a20565b60606000612a6d848461466b565b612a78906001614bc7565b6001600160401b03811115612a8f57612a8f613fe8565b604051908082528060200260200182016040528015612ab8578160200160208202803683370190505b509050835b838111612b3e57600086815260d660205260409020805482908110612ae457612ae4614b7f565b9060005260206000200160009054906101000a90046001600160a01b0316828281518110612b1457612b14614b7f565b6001600160a01b039092166020928302919091019091015280612b3681614b95565b915050612abd565b5090505b9392505050565b60c954604051632474521560e21b8152600080516020614dff83398151915260048201523360248201526001600160a01b03909116906391d1485490604401602060405180830381865afa158015612ba5573d6000803e3d6000fd5b505050506040513d601f19601f82011682018060405250810190612bc991906145df565b612be55760405162461bcd60e51b8152600401610a3390614601565b600081815260cf60205260409020805463ffffffff16612c3c5760405162461bcd60e51b8152602060048201526012602482015271125b9d985b1a59081b1bdd1d195c9e481a5960721b6044820152606401610a33565b80544264010000000090910463ffffffff1610612c935760405162461bcd60e51b8152602060048201526015602482015274131bdd1d195c9e481a5cc81b9bdd0818db1bdcd959605a1b6044820152606401610a33565b8054600160e01b900460ff166003816003811115612cb357612cb361422a565b03612d005760405162461bcd60e51b815260206004820152601d60248201527f4c6f7474657279206d757374206e6f7420626520636f6d706c657465640000006044820152606401610a33565b815463ffffffff600160c01b82048116600160a01b9092041611612d3457815460ff60e01b1916600360e01b178255612db8565b8154600160e11b60ff60e01b1990911617825560cc54604051632f215ddf60e21b8152600481018590526001600160a01b039091169063bc85777c906024016020604051808303816000875af1158015612d92573d6000803e3d6000fd5b505050506040513d601f19601f82011682018060405250810190612db69190614bae565b505b8154600160e01b900460ff166003811115612dd557612dd561422a565b6040518490600080516020614d9883398151915290600090a3505050565b60c954604051632474521560e21b8152600080516020614dff83398151915260048201523360248201526001600160a01b03909116906391d1485490604401602060405180830381865afa158015612e4f573d6000803e3d6000fd5b505050506040513d601f19601f82011682018060405250810190612e7391906145df565b612e8f5760405162461bcd60e51b8152600401610a3390614601565b600091825260cf6020526040909120805463ffffffff909216600160601b0263ffffffff60601b19909216919091179055565b60c954604051632474521560e21b8152600080516020614dff83398151915260048201523360248201526001600160a01b03909116906391d1485490604401602060405180830381865afa158015612f1e573d6000803e3d6000fd5b505050506040513d601f19601f82011682018060405250810190612f4291906145df565b612f5e5760405162461bcd60e51b8152600401610a3390614601565b600091825260d0602052604090912080546001600160a01b0319166001600160a01b03909216919091179055565b60c954604051632474521560e21b8152600080516020614dff83398151915260048201523360248201526001600160a01b03909116906391d1485490604401602060405180830381865afa158015612fe8573d6000803e3d6000fd5b505050506040513d601f19601f8201168201806040525081019061300c91906145df565b6130285760405162461bcd60e51b8152600401610a3390614601565b60cd80546001600160a01b0319166001600160a01b0392909216919091179055565b60cc546001600160a01b031633146130975760405162461bcd60e51b815260206004820152601060248201526f4f6e6c7920524e47206164647265737360801b6044820152606401610a33565b600082815260cf6020526040902060038154600160e01b900460ff1660038111156130c4576130c461422a565b0361310a5760405162461bcd60e51b8152602060048201526016602482015275131bdd1d195c9e481b5d5cdd0818994818db1bdcd95960521b6044820152606401610a33565b805460ff60e01b1916600360e01b178155600083815260d5602052604090208290558054600160e01b900460ff166003811115612dd557612dd561422a565b82518151811461318d5760405162461bcd60e51b815260206004820152600f60248201526e57726f6e6720617267756d656e747360881b6044820152606401610a33565b60005b818110156131e5576131d58582815181106131ad576131ad614b7f565b6020026020010151858584815181106131c8576131c8614b7f565b6020026020010151610b3d565b6131de81614b95565b9050613190565b5050505050565b60006131f860016136e5565b90508015613210576000805461ff0019166101001790555b61321861376d565b61322061379c565b60cb80546001600160a01b038086166001600160a01b03199283161790925560ca805487841690831617905560cd805488841690831617905560c980549285169290911691909117905580156131e5576000805461ff0019169055604051600181527f7f26b83ff96e1f2b6a682f133852f6798a09c465da95921460cefb38474024989060200160405180910390a15050505050565b6001600160a01b03163b151590565b600081600001518260200151836040015184606001516040516020016132ee9493929190614ca2565b604051602081830303815290604052805190602001209050919050565b60006133188284866137c3565b949350505050565b60c95460408051634783c35b60e01b8152905133926001600160a01b031691634783c35b9160048083019260209291908290030181865afa158015613369573d6000803e3d6000fd5b505050506040513d601f19601f8201168201806040525081019061338d91906147b5565b6001600160a01b0316146116a75760405162461bcd60e51b8152600401610a3390614601565b7f4910fdfa16fed3260ed0e7147f7cc6da11a60208b5b9406d12a635614ffd91435460ff16156133eb576133e6836137d9565b505050565b826001600160a01b03166352d1902d6040518163ffffffff1660e01b8152600401602060405180830381865afa925050508015613445575060408051601f3d908101601f1916820190925261344291810190614bae565b60015b6134a85760405162461bcd60e51b815260206004820152602e60248201527f45524331393637557067726164653a206e657720696d706c656d656e7461746960448201526d6f6e206973206e6f74205555505360901b6064820152608401610a33565b600080516020614db883398151915281146135175760405162461bcd60e51b815260206004820152602960248201527f45524331393637557067726164653a20756e737570706f727465642070726f786044820152681a58589b195555525160ba1b6064820152608401610a33565b506133e6838383613875565b60975460ff1661356c5760405162461bcd60e51b815260206004820152601460248201527314185d5cd8589b194e881b9bdd081c185d5cd95960621b6044820152606401610a33565b6097805460ff191690557f5db9ee0a495bf2e6ff9c91a7834c1ba4fdd244a5e8aa4e537bd38aeae4b073aa335b6040516001600160a01b03909116815260200160405180910390a1565b6040517f19457468657265756d205369676e6564204d6573736167653a0a3332000000006020820152603c8101829052600090605c016132ee565b6000806000613600858561389a565b9150915061360d81613908565b509392505050565b60975460ff16156136385760405162461bcd60e51b8152600401610a339061462b565b6097805460ff191660011790557f62e78cea01bee320cd4e420270b5ea74000d11b0c9f74754ebdbfc544b05a2586135993390565b60cd54604051631e961d2760e01b81526001600160a01b038481166004830152602482018490526000921690631e961d27906044016020604051808303816000875af11580156136c1573d6000803e3d6000fd5b505050506040513d601f19601f82011682018060405250810190612b429190614bae565b60008054610100900460ff161561372c578160ff1660011480156137085750303b155b6137245760405162461bcd60e51b8152600401610a3390614cd9565b506000919050565b60005460ff8084169116106137535760405162461bcd60e51b8152600401610a3390614cd9565b506000805460ff191660ff92909216919091179055600190565b600054610100900460ff166137945760405162461bcd60e51b8152600401610a3390614d27565b61174e613abe565b600054610100900460ff1661174e5760405162461bcd60e51b8152600401610a3390614d27565b6000826137d08584613af1565b14949350505050565b6001600160a01b0381163b6138465760405162461bcd60e51b815260206004820152602d60248201527f455243313936373a206e657720696d706c656d656e746174696f6e206973206e60448201526c1bdd08184818dbdb9d1c9858dd609a1b6064820152608401610a33565b600080516020614db883398151915280546001600160a01b0319166001600160a01b0392909216919091179055565b61387e83613b5d565b60008251118061388b5750805b156133e65761216a8383613b9d565b60008082516041036138d05760208301516040840151606085015160001a6138c487828585613c91565b94509450505050613901565b82516040036138f957602083015160408401516138ee868383613d7e565b935093505050613901565b506000905060025b9250929050565b600081600481111561391c5761391c61422a565b036139245750565b60018160048111156139385761393861422a565b036139855760405162461bcd60e51b815260206004820152601860248201527f45434453413a20696e76616c6964207369676e617475726500000000000000006044820152606401610a33565b60028160048111156139995761399961422a565b036139e65760405162461bcd60e51b815260206004820152601f60248201527f45434453413a20696e76616c6964207369676e6174757265206c656e677468006044820152606401610a33565b60038160048111156139fa576139fa61422a565b03613a525760405162461bcd60e51b815260206004820152602260248201527f45434453413a20696e76616c6964207369676e6174757265202773272076616c604482015261756560f01b6064820152608401610a33565b6004816004811115613a6657613a6661422a565b036116a75760405162461bcd60e51b815260206004820152602260248201527f45434453413a20696e76616c6964207369676e6174757265202776272076616c604482015261756560f01b6064820152608401610a33565b600054610100900460ff16613ae55760405162461bcd60e51b8152600401610a3390614d27565b6097805460ff19169055565b600081815b845181101561360d576000858281518110613b1357613b13614b7f565b60200260200101519050808311613b395760008381526020829052604090209250613b4a565b600081815260208490526040902092505b5080613b5581614b95565b915050613af6565b613b66816137d9565b6040516001600160a01b038216907fbc7cd75a20ee27fd9adebab32041f755214dbc6bffa90cc0225b39da2e5c2d3b90600090a250565b60606001600160a01b0383163b613c055760405162461bcd60e51b815260206004820152602660248201527f416464726573733a2064656c65676174652063616c6c20746f206e6f6e2d636f6044820152651b9d1c9858dd60d21b6064820152608401610a33565b600080846001600160a01b031684604051613c209190614d72565b600060405180830381855af49150503d8060008114613c5b576040519150601f19603f3d011682016040523d82523d6000602084013e613c60565b606091505b5091509150613c888282604051806060016040528060278152602001614dd860279139613db7565b95945050505050565b6000807f7fffffffffffffffffffffffffffffff5d576e7357a4501ddfe92f46681b20a0831115613cc85750600090506003613d75565b8460ff16601b14158015613ce057508460ff16601c14155b15613cf15750600090506004613d75565b6040805160008082526020820180845289905260ff881692820192909252606081018690526080810185905260019060a0016020604051602081039080840390855afa158015613d45573d6000803e3d6000fd5b5050604051601f1901519150506001600160a01b038116613d6e57600060019250925050613d75565b9150600090505b94509492505050565b6000806001600160ff1b03831681613d9b60ff86901c601b614bc7565b9050613da987828885613c91565b935093505050935093915050565b60608315613dc6575081612b42565b825115613dd65782518084602001fd5b8160405162461bcd60e51b8152600401610a339190614d84565b6001600160a01b03811681146116a757600080fd5b600060208284031215613e1757600080fd5b8135612b4281613df0565b600060208284031215613e3457600080fd5b5035919050565b600080600060608486031215613e5057600080fd5b8335613e5b81613df0565b95602085013595506040909401359392505050565b600060208284031215613e8257600080fd5b81356001600160401b03811115613e9857600080fd5b820160a08185031215612b4257600080fd5b63ffffffff811681146116a757600080fd5b600481106116a757600080fd5b60008060008060008060008060006101208a8c031215613ee857600080fd5b8935985060208a0135975060408a0135965060608a0135613f0881613eaa565b955060808a0135613f1881613eaa565b945060a08a0135613f2881613df0565b935060c08a013561ffff81168114613f3f57600080fd5b925060e08a0135613f4f81613ebc565b91506101008a0135613f6081613eaa565b809150509295985092959850929598565b60008060408385031215613f8457600080fd5b823591506020830135613f9681613df0565b809150509250929050565b60008060408385031215613fb457600080fd5b50508035926020909101359150565b60008060408385031215613fd657600080fd5b823591506020830135613f9681613eaa565b634e487b7160e01b600052604160045260246000fd5b60405160a081016001600160401b038111828210171561402057614020613fe8565b60405290565b604051601f8201601f191681016001600160401b038111828210171561404e5761404e613fe8565b604052919050565b60006001600160401b0383111561406f5761406f613fe8565b614082601f8401601f1916602001614026565b905082815283838301111561409657600080fd5b828260208301376000602084830101529392505050565b600080604083850312156140c057600080fd5b82356140cb81613df0565b915060208301356001600160401b038111156140e657600080fd5b8301601f810185136140f757600080fd5b61410685823560208401614056565b9150509250929050565b6000610180828403121561412357600080fd5b50919050565b6000806020838503121561413c57600080fd5b82356001600160401b038082111561415357600080fd5b818501915085601f83011261416757600080fd5b81358181111561417657600080fd5b8660206101808302850101111561418c57600080fd5b60209290920196919550909350505050565b6000806000806000608086880312156141b657600080fd5b85359450602086013593506040860135925060608601356001600160401b03808211156141e257600080fd5b818801915088601f8301126141f657600080fd5b81358181111561420557600080fd5b89602082850101111561421757600080fd5b9699959850939650602001949392505050565b634e487b7160e01b600052602160045260246000fd5b6004811061425e57634e487b7160e01b600052602160045260246000fd5b9052565b815163ffffffff16815261018081016020830151614288602084018263ffffffff169052565b5060408301516142a0604084018263ffffffff169052565b5060608301516142b8606084018263ffffffff169052565b5060808301516142d0608084018263ffffffff169052565b5060a08301516142e860a084018263ffffffff169052565b5060c083015161430060c084018263ffffffff169052565b5060e083015161431360e0840182614240565b50610100838101516001600160a01b0316908301526101208084015190830152610140808401519083015261016092830151929091019190915290565b6000806020838503121561436357600080fd5b82356001600160401b038082111561437a57600080fd5b818501915085601f83011261438e57600080fd5b81358181111561439d57600080fd5b8660208260051b850101111561418c57600080fd5b6000806000606084860312156143c757600080fd5b505081359360208301359350604090920135919050565b6020808252825182820181905260009190848201906040850190845b8181101561441f5783516001600160a01b0316835292840192918401916001016143fa565b50909695505050505050565b60006001600160401b0382111561444457614444613fe8565b5060051b60200190565b600082601f83011261445f57600080fd5b8135602061447461446f8361442b565b614026565b82815260059290921b8401810191818101908684111561449357600080fd5b8286015b848110156144ae5780358352918301918301614497565b509695505050505050565b6000806000606084860312156144ce57600080fd5b83356001600160401b03808211156144e557600080fd5b818601915086601f8301126144f957600080fd5b8135602061450961446f8361442b565b82815260059290921b8401810191818101908a84111561452857600080fd5b948201945b8386101561454f57853561454081613df0565b8252948201949082019061452d565b975050870135945050604086013591508082111561456c57600080fd5b506145798682870161444e565b9150509250925092565b6000806000806080858703121561459957600080fd5b84356145a481613df0565b935060208501356145b481613df0565b925060408501356145c481613df0565b915060608501356145d481613df0565b939692955090935050565b6000602082840312156145f157600080fd5b81518015158114612b4257600080fd5b60208082526010908201526f41646d696e2063616c6c73206f6e6c7960801b604082015260600190565b60208082526010908201526f14185d5cd8589b194e881c185d5cd95960821b604082015260600190565b634e487b7160e01b600052601160045260246000fd5b60008282101561467d5761467d614655565b500390565b600060a0823603121561469457600080fd5b61469c613ffe565b8235815260208301356146ae81613df0565b60208201526040838101359082015260608301356001600160401b03808211156146d757600080fd5b9084019036601f8301126146ea57600080fd5b6146f936833560208501614056565b6060840152608085013591508082111561471257600080fd5b5061471f3682860161444e565b60808301525092915050565b6000808335601e1984360301811261474257600080fd5b8301803591506001600160401b0382111561475c57600080fd5b6020019150600581901b360382131561390157600080fd5b600081600019048311821515161561478e5761478e614655565b500290565b6000826147b057634e487b7160e01b600052601260045260246000fd5b500490565b6000602082840312156147c757600080fd5b8151612b4281613df0565b6000808335601e198436030181126147e957600080fd5b8301803591506001600160401b0382111561480357600080fd5b60200191503681900382131561390157600080fd5b6001600160a01b03841681526040602082018190528101829052818360608301376000818301606090810191909152601f909201601f1916010192915050565b60208082526023908201527f436c6f73652074696d65206d7573742062652061667465722073746172742074604082015262696d6560e81b606082015260800190565b6020808252602c908201527f46756e6374696f6e206d7573742062652063616c6c6564207468726f7567682060408201526b19195b1959d85d1958d85b1b60a21b606082015260800190565b6020808252602c908201527f46756e6374696f6e206d7573742062652063616c6c6564207468726f7567682060408201526b6163746976652070726f787960a01b606082015260800190565b60006020828403121561494557600080fd5b8135612b4281613eaa565b6000813561495d81613eaa565b92915050565b6000813561495d81613ebc565b6004821061498e57634e487b7160e01b600052602160045260246000fd5b805460ff60e01b191660e09290921b60ff60e01b16919091179055565b6000813561495d81613df0565b6149db6149c483614950565b825463ffffffff191663ffffffff91909116178255565b614a0c6149ea60208401614950565b825467ffffffff00000000191660209190911b67ffffffff0000000016178255565b614a45614a1b60408401614950565b82546bffffffff0000000000000000191660409190911b6bffffffff000000000000000016178255565b614a78614a5460608401614950565b82805463ffffffff60601b191660609290921b63ffffffff60601b16919091179055565b614aab614a8760808401614950565b82805463ffffffff60801b191660809290921b63ffffffff60801b16919091179055565b614ade614aba60a08401614950565b82805463ffffffff60a01b191660a09290921b63ffffffff60a01b16919091179055565b614b11614aed60c08401614950565b82805463ffffffff60c01b191660c09290921b63ffffffff60c01b16919091179055565b614b26614b2060e08401614963565b82614970565b614b5a614b3661010084016149ab565b6001830180546001600160a01b0319166001600160a01b0392909216919091179055565b6101208201356002820155610140820135600382015561016082013560048201555050565b634e487b7160e01b600052603260045260246000fd5b600060018201614ba757614ba7614655565b5060010190565b600060208284031215614bc057600080fd5b5051919050565b60008219821115614bda57614bda614655565b500190565b600063ffffffff808316818516808303821115614bfe57614bfe614655565b01949350505050565b600063ffffffff808316818103614c2057614c20614655565b6001019392505050565b60008235609e19833603018112614c4057600080fd5b9190910192915050565b60005b83811015614c65578181015183820152602001614c4d565b8381111561216a5750506000910152565b60008151808452614c8e816020860160208601614c4a565b601f01601f19169290920160200192915050565b84815260018060a01b0384166020820152826040820152608060608201526000614ccf6080830184614c76565b9695505050505050565b6020808252602e908201527f496e697469616c697a61626c653a20636f6e747261637420697320616c72656160408201526d191e481a5b9a5d1a585b1a5e995960921b606082015260800190565b6020808252602b908201527f496e697469616c697a61626c653a20636f6e7472616374206973206e6f74206960408201526a6e697469616c697a696e6760a81b606082015260800190565b60008251614c40818460208701614c4a565b602081526000612b426020830184614c7656fea3aca9ae20a0379d4094b84c749cbed6584ab20f0b71af75f63f6615d879c939360894a13ba1a3210667c828492db98dca3e2076cc3735a920a3ca505d382bbc416464726573733a206c6f772d6c6576656c2064656c65676174652063616c6c206661696c6564e303cb88ace8c9e6ba216f1aecb44b3206dcab364c60512ffc6cbc920a1bf9d1a26469706673582212204e0ec41e02e4a5e5b28d4aa9c5c1d9500d7e55e34894edc55f9c05b0c6dacc5c64736f6c634300080e0033496e697469616c697a61626c653a20636f6e747261637420697320616c726561",
  "linkReferences": {},
  "deployedLinkReferences": {}
}