{
  "_format": "hh-sol-artifact-1",
  "contractName": "Lottery",
  "sourceName": "contracts/Lottery/Lottery.sol",
  "abi": [
    {
      "anonymous": false,
      "inputs": [
        {
          "indexed": false,
          "internalType": "address",
          "name": "previousAdmin",
          "type": "address"
        },
        {
          "indexed": false,
          "internalType": "address",
          "name": "newAdmin",
          "type": "address"
        }
      ],
      "name": "AdminChanged",
      "type": "event"
    },
    {
      "anonymous": false,
      "inputs": [
        {
          "indexed": true,
          "internalType": "address",
          "name": "beacon",
          "type": "address"
        }
      ],
      "name": "BeaconUpgraded",
      "type": "event"
    },
    {
      "anonymous": false,
      "inputs": [
        {
          "indexed": false,
          "internalType": "uint8",
          "name": "version",
          "type": "uint8"
        }
      ],
      "name": "Initialized",
      "type": "event"
    },
    {
      "anonymous": false,
      "inputs": [
        {
          "indexed": true,
          "internalType": "uint256",
          "name": "lotteryId",
          "type": "uint256"
        },
        {
          "indexed": false,
          "internalType": "uint256",
          "name": "numberOfPrizes",
          "type": "uint256"
        }
      ],
      "name": "LotteryPrizesCountChanged",
      "type": "event"
    },
    {
      "anonymous": false,
      "inputs": [
        {
          "indexed": true,
          "internalType": "uint256",
          "name": "lotteryId",
          "type": "uint256"
        },
        {
          "indexed": true,
          "internalType": "enum Lottery.Status",
          "name": "status",
          "type": "uint8"
        }
      ],
      "name": "LotteryStatusChanged",
      "type": "event"
    },
    {
      "anonymous": false,
      "inputs": [
        {
          "indexed": false,
          "internalType": "address",
          "name": "account",
          "type": "address"
        }
      ],
      "name": "Paused",
      "type": "event"
    },
    {
      "anonymous": false,
      "inputs": [
        {
          "indexed": true,
          "internalType": "uint256",
          "name": "lotteryId",
          "type": "uint256"
        },
        {
          "indexed": true,
          "internalType": "address",
          "name": "participantAddress",
          "type": "address"
        },
        {
          "indexed": true,
          "internalType": "uint256",
          "name": "prizeId",
          "type": "uint256"
        }
      ],
      "name": "PrizeClaimed",
      "type": "event"
    },
    {
      "anonymous": false,
      "inputs": [
        {
          "indexed": true,
          "internalType": "uint256",
          "name": "lotteryId",
          "type": "uint256"
        },
        {
          "indexed": true,
          "internalType": "address",
          "name": "participantAddress",
          "type": "address"
        },
        {
          "indexed": false,
          "internalType": "uint256",
          "name": "refundAmount",
          "type": "uint256"
        }
      ],
      "name": "Refunded",
      "type": "event"
    },
    {
      "anonymous": false,
      "inputs": [
        {
          "indexed": true,
          "internalType": "uint256",
          "name": "lotteryId",
          "type": "uint256"
        },
        {
          "indexed": true,
          "internalType": "bytes32",
          "name": "requestId",
          "type": "bytes32"
        }
      ],
      "name": "RequestNumbers",
      "type": "event"
    },
    {
      "anonymous": false,
      "inputs": [
        {
          "indexed": true,
          "internalType": "bytes32",
          "name": "requestId",
          "type": "bytes32"
        }
      ],
      "name": "ResponseReceived",
      "type": "event"
    },
    {
      "anonymous": false,
      "inputs": [
        {
          "indexed": true,
          "internalType": "bytes32",
          "name": "role",
          "type": "bytes32"
        },
        {
          "indexed": true,
          "internalType": "bytes32",
          "name": "previousAdminRole",
          "type": "bytes32"
        },
        {
          "indexed": true,
          "internalType": "bytes32",
          "name": "newAdminRole",
          "type": "bytes32"
        }
      ],
      "name": "RoleAdminChanged",
      "type": "event"
    },
    {
      "anonymous": false,
      "inputs": [
        {
          "indexed": true,
          "internalType": "bytes32",
          "name": "role",
          "type": "bytes32"
        },
        {
          "indexed": true,
          "internalType": "address",
          "name": "account",
          "type": "address"
        },
        {
          "indexed": true,
          "internalType": "address",
          "name": "sender",
          "type": "address"
        }
      ],
      "name": "RoleGranted",
      "type": "event"
    },
    {
      "anonymous": false,
      "inputs": [
        {
          "indexed": true,
          "internalType": "bytes32",
          "name": "role",
          "type": "bytes32"
        },
        {
          "indexed": true,
          "internalType": "address",
          "name": "account",
          "type": "address"
        },
        {
          "indexed": true,
          "internalType": "address",
          "name": "sender",
          "type": "address"
        }
      ],
      "name": "RoleRevoked",
      "type": "event"
    },
    {
      "anonymous": false,
      "inputs": [
        {
          "indexed": false,
          "internalType": "address",
          "name": "operator",
          "type": "address"
        },
        {
          "indexed": false,
          "internalType": "uint256",
          "name": "lotteryId",
          "type": "uint256"
        },
        {
          "indexed": false,
          "internalType": "uint256",
          "name": "priceOfTicket",
          "type": "uint256"
        }
      ],
      "name": "TicketCostChanged",
      "type": "event"
    },
    {
      "anonymous": false,
      "inputs": [
        {
          "indexed": true,
          "internalType": "uint256",
          "name": "lotteryId",
          "type": "uint256"
        },
        {
          "indexed": false,
          "internalType": "uint256",
          "name": "ticketNumber",
          "type": "uint256"
        },
        {
          "indexed": true,
          "internalType": "address",
          "name": "participantAddress",
          "type": "address"
        }
      ],
      "name": "TicketSold",
      "type": "event"
    },
    {
      "anonymous": false,
      "inputs": [
        {
          "indexed": false,
          "internalType": "address",
          "name": "account",
          "type": "address"
        }
      ],
      "name": "Unpaused",
      "type": "event"
    },
    {
      "anonymous": false,
      "inputs": [
        {
          "indexed": true,
          "internalType": "address",
          "name": "implementation",
          "type": "address"
        }
      ],
      "name": "Upgraded",
      "type": "event"
    },
    {
      "inputs": [],
      "name": "DEFAULT_ADMIN_ROLE",
      "outputs": [
        {
          "internalType": "bytes32",
          "name": "",
          "type": "bytes32"
        }
      ],
      "stateMutability": "view",
      "type": "function"
    },
    {
      "inputs": [
        {
          "internalType": "uint256",
          "name": "_lotteryId",
          "type": "uint256"
        },
        {
          "internalType": "uint256[]",
          "name": "_prizeIds",
          "type": "uint256[]"
        },
        {
          "internalType": "uint16[]",
          "name": "_prizeAmounts",
          "type": "uint16[]"
        }
      ],
      "name": "addPrizes",
      "outputs": [],
      "stateMutability": "nonpayable",
      "type": "function"
    },
    {
      "inputs": [
        {
          "internalType": "uint256",
          "name": "_lotteryId",
          "type": "uint256"
        }
      ],
      "name": "askForRefund",
      "outputs": [],
      "stateMutability": "nonpayable",
      "type": "function"
    },
    {
      "inputs": [
        {
          "internalType": "uint256",
          "name": "_lotteryId",
          "type": "uint256"
        },
        {
          "internalType": "uint256",
          "name": "_numberOfTicketsToBuy",
          "type": "uint256"
        }
      ],
      "name": "buyTickets",
      "outputs": [],
      "stateMutability": "nonpayable",
      "type": "function"
    },
    {
      "inputs": [
        {
          "internalType": "uint256",
          "name": "_points",
          "type": "uint256"
        },
        {
          "internalType": "uint256",
          "name": "_lotteryId",
          "type": "uint256"
        },
        {
          "internalType": "uint256",
          "name": "_numberOfTicketsToBuy",
          "type": "uint256"
        },
        {
          "internalType": "bytes",
          "name": "_sig",
          "type": "bytes"
        }
      ],
      "name": "buyTicketsWithSignedMessage",
      "outputs": [],
      "stateMutability": "nonpayable",
      "type": "function"
    },
    {
      "inputs": [
        {
          "internalType": "uint256",
          "name": "_lotteryId",
          "type": "uint256"
        }
      ],
      "name": "cancelLottery",
      "outputs": [],
      "stateMutability": "nonpayable",
      "type": "function"
    },
    {
      "inputs": [
        {
          "internalType": "uint256",
          "name": "_lotteryId",
          "type": "uint256"
        },
        {
          "internalType": "uint32",
          "name": "_time",
          "type": "uint32"
        }
      ],
      "name": "changeCloseTime",
      "outputs": [],
      "stateMutability": "nonpayable",
      "type": "function"
    },
    {
      "inputs": [
        {
          "internalType": "uint256",
          "name": "_lotteryId",
          "type": "uint256"
        },
        {
          "internalType": "address",
          "name": "_winner",
          "type": "address"
        },
        {
          "internalType": "uint256",
          "name": "_prizeId",
          "type": "uint256"
        },
        {
          "internalType": "uint256",
          "name": "_ticketNumber",
          "type": "uint256"
        },
        {
          "internalType": "bytes32[]",
          "name": "_proof",
          "type": "bytes32[]"
        }
      ],
      "name": "claimPrize",
      "outputs": [],
      "stateMutability": "nonpayable",
      "type": "function"
    },
    {
      "inputs": [
        {
          "internalType": "uint256",
          "name": "",
          "type": "uint256"
        },
        {
          "internalType": "uint256",
          "name": "",
          "type": "uint256"
        }
      ],
      "name": "claimedPrizes",
      "outputs": [
        {
          "internalType": "bool",
          "name": "",
          "type": "bool"
        }
      ],
      "stateMutability": "view",
      "type": "function"
    },
    {
      "inputs": [
        {
          "internalType": "uint256",
          "name": "_lotteryId",
          "type": "uint256"
        },
        {
          "internalType": "uint256",
          "name": "_collectionId",
          "type": "uint256"
        },
        {
          "internalType": "uint256",
          "name": "_ticketCostPoints",
          "type": "uint256"
        },
        {
          "internalType": "uint256",
          "name": "_ticketCostTokens",
          "type": "uint256"
        },
        {
          "internalType": "uint32",
          "name": "_startTime",
          "type": "uint32"
        },
        {
          "internalType": "uint32",
          "name": "_closeTime",
          "type": "uint32"
        },
        {
          "internalType": "contract INFT",
          "name": "_nftContract",
          "type": "address"
        },
        {
          "internalType": "bool",
          "name": "_isRefundable",
          "type": "bool"
        },
        {
          "internalType": "uint256",
          "name": "_defaultPrizeId",
          "type": "uint256"
        }
      ],
      "name": "createNewLottery",
      "outputs": [],
      "stateMutability": "nonpayable",
      "type": "function"
    },
    {
      "inputs": [],
      "name": "getLotteryCount",
      "outputs": [
        {
          "internalType": "uint256",
          "name": "",
          "type": "uint256"
        }
      ],
      "stateMutability": "view",
      "type": "function"
    },
    {
      "inputs": [
        {
          "internalType": "uint256",
          "name": "_lotteryId",
          "type": "uint256"
        }
      ],
      "name": "getLotteryInfo",
      "outputs": [
        {
          "components": [
            {
              "internalType": "uint32",
              "name": "startTime",
              "type": "uint32"
            },
            {
              "internalType": "uint32",
              "name": "closeTime",
              "type": "uint32"
            },
            {
              "internalType": "uint32",
              "name": "participantsCount",
              "type": "uint32"
            },
            {
              "internalType": "uint32",
              "name": "maxTickets",
              "type": "uint32"
            },
            {
              "internalType": "uint32",
              "name": "maxTicketsPerUser",
              "type": "uint32"
            },
            {
              "internalType": "uint32",
              "name": "numberOfTicketsSold",
              "type": "uint32"
            },
            {
              "internalType": "enum Lottery.Status",
              "name": "status",
              "type": "uint8"
            },
            {
              "internalType": "contract INFT",
              "name": "nftContract",
              "type": "address"
            },
            {
              "internalType": "bool",
              "name": "isRefundable",
              "type": "bool"
            },
            {
              "internalType": "uint256",
              "name": "lotteryID",
              "type": "uint256"
            },
            {
              "internalType": "uint256",
              "name": "dropId",
              "type": "uint256"
            },
            {
              "internalType": "uint256",
              "name": "ticketCostPoints",
              "type": "uint256"
            },
            {
              "internalType": "uint256",
              "name": "ticketCostTokens",
              "type": "uint256"
            },
            {
              "internalType": "uint256",
              "name": "defaultPrizeId",
              "type": "uint256"
            }
          ],
          "internalType": "struct Lottery.LotteryInfo",
          "name": "",
          "type": "tuple"
        }
      ],
      "stateMutability": "view",
      "type": "function"
    },
    {
      "inputs": [
        {
          "internalType": "uint256",
          "name": "_lotteryId",
          "type": "uint256"
        }
      ],
      "name": "getLotteryTicketCount",
      "outputs": [
        {
          "internalType": "uint256",
          "name": "",
          "type": "uint256"
        }
      ],
      "stateMutability": "view",
      "type": "function"
    },
    {
      "inputs": [
        {
          "internalType": "uint256",
          "name": "_lotteryId",
          "type": "uint256"
        },
        {
          "internalType": "uint256",
          "name": "_from",
          "type": "uint256"
        },
        {
          "internalType": "uint256",
          "name": "_to",
          "type": "uint256"
        }
      ],
      "name": "getLotteryTickets",
      "outputs": [
        {
          "components": [
            {
              "internalType": "uint256",
              "name": "ticketCostInCoins",
              "type": "uint256"
            },
            {
              "internalType": "address",
              "name": "owner",
              "type": "address"
            }
          ],
          "internalType": "struct Lottery.Ticket[]",
          "name": "",
          "type": "tuple[]"
        }
      ],
      "stateMutability": "view",
      "type": "function"
    },
    {
      "inputs": [
        {
          "internalType": "address",
          "name": "_participant",
          "type": "address"
        }
      ],
      "name": "getParticipantHistory",
      "outputs": [
        {
          "internalType": "uint256[]",
          "name": "",
          "type": "uint256[]"
        }
      ],
      "stateMutability": "view",
      "type": "function"
    },
    {
      "inputs": [
        {
          "internalType": "uint256",
          "name": "_lotteryId",
          "type": "uint256"
        }
      ],
      "name": "getParticipantsCount",
      "outputs": [
        {
          "internalType": "uint32",
          "name": "",
          "type": "uint32"
        }
      ],
      "stateMutability": "view",
      "type": "function"
    },
    {
      "inputs": [
        {
          "internalType": "uint256",
          "name": "_lotteryId",
          "type": "uint256"
        }
      ],
      "name": "getPrizes",
      "outputs": [
        {
          "components": [
            {
              "internalType": "uint256",
              "name": "prizeId",
              "type": "uint256"
            },
            {
              "internalType": "uint16",
              "name": "numberOfEditions",
              "type": "uint16"
            }
          ],
          "internalType": "struct Lottery.PrizeInfo[]",
          "name": "",
          "type": "tuple[]"
        }
      ],
      "stateMutability": "view",
      "type": "function"
    },
    {
      "inputs": [
        {
          "internalType": "uint256",
          "name": "_lotteryId",
          "type": "uint256"
        },
        {
          "internalType": "address",
          "name": "_user",
          "type": "address"
        }
      ],
      "name": "getRefundableCoinBalance",
      "outputs": [
        {
          "internalType": "uint256",
          "name": "",
          "type": "uint256"
        }
      ],
      "stateMutability": "view",
      "type": "function"
    },
    {
      "inputs": [
        {
          "internalType": "bytes32",
          "name": "role",
          "type": "bytes32"
        }
      ],
      "name": "getRoleAdmin",
      "outputs": [
        {
          "internalType": "bytes32",
          "name": "",
          "type": "bytes32"
        }
      ],
      "stateMutability": "view",
      "type": "function"
    },
    {
      "inputs": [
        {
          "internalType": "uint256",
          "name": "_lotteryId",
          "type": "uint256"
        },
        {
          "internalType": "address",
          "name": "_user",
          "type": "address"
        }
      ],
      "name": "getTicketCountPerUser",
      "outputs": [
        {
          "internalType": "uint256",
          "name": "",
          "type": "uint256"
        }
      ],
      "stateMutability": "view",
      "type": "function"
    },
    {
      "inputs": [
        {
          "internalType": "uint256",
          "name": "_lotteryId",
          "type": "uint256"
        }
      ],
      "name": "getWhitelist",
      "outputs": [
        {
          "internalType": "address",
          "name": "",
          "type": "address"
        }
      ],
      "stateMutability": "view",
      "type": "function"
    },
    {
      "inputs": [
        {
          "internalType": "bytes32",
          "name": "role",
          "type": "bytes32"
        },
        {
          "internalType": "address",
          "name": "account",
          "type": "address"
        }
      ],
      "name": "grantRole",
      "outputs": [],
      "stateMutability": "nonpayable",
      "type": "function"
    },
    {
      "inputs": [
        {
          "internalType": "bytes32",
          "name": "role",
          "type": "bytes32"
        },
        {
          "internalType": "address",
          "name": "account",
          "type": "address"
        }
      ],
      "name": "hasRole",
      "outputs": [
        {
          "internalType": "bool",
          "name": "",
          "type": "bool"
        }
      ],
      "stateMutability": "view",
      "type": "function"
    },
    {
      "inputs": [
        {
          "internalType": "address",
          "name": "_rewardsContract",
          "type": "address"
        },
        {
          "internalType": "address",
          "name": "_admin",
          "type": "address"
        },
        {
          "internalType": "address",
          "name": "_token",
          "type": "address"
        }
      ],
      "name": "initialize",
      "outputs": [],
      "stateMutability": "nonpayable",
      "type": "function"
    },
    {
      "inputs": [
        {
          "internalType": "uint256",
          "name": "",
          "type": "uint256"
        }
      ],
      "name": "lotteries",
      "outputs": [
        {
          "internalType": "uint256",
          "name": "",
          "type": "uint256"
        }
      ],
      "stateMutability": "view",
      "type": "function"
    },
    {
      "inputs": [
        {
          "internalType": "uint256",
          "name": "",
          "type": "uint256"
        },
        {
          "internalType": "uint256",
          "name": "",
          "type": "uint256"
        }
      ],
      "name": "lotteryTickets",
      "outputs": [
        {
          "internalType": "uint256",
          "name": "ticketCostInCoins",
          "type": "uint256"
        },
        {
          "internalType": "address",
          "name": "owner",
          "type": "address"
        }
      ],
      "stateMutability": "view",
      "type": "function"
    },
    {
      "inputs": [
        {
          "internalType": "uint256",
          "name": "",
          "type": "uint256"
        },
        {
          "internalType": "address",
          "name": "",
          "type": "address"
        }
      ],
      "name": "participants",
      "outputs": [
        {
          "internalType": "uint16",
          "name": "totalTicketsBought",
          "type": "uint16"
        },
        {
          "internalType": "bool",
          "name": "claimedPrize",
          "type": "bool"
        },
        {
          "internalType": "uint256",
          "name": "refundablePoints",
          "type": "uint256"
        },
        {
          "internalType": "uint256",
          "name": "refundableValue",
          "type": "uint256"
        }
      ],
      "stateMutability": "view",
      "type": "function"
    },
    {
      "inputs": [],
      "name": "pause",
      "outputs": [],
      "stateMutability": "nonpayable",
      "type": "function"
    },
    {
      "inputs": [],
      "name": "paused",
      "outputs": [
        {
          "internalType": "bool",
          "name": "",
          "type": "bool"
        }
      ],
      "stateMutability": "view",
      "type": "function"
    },
    {
      "inputs": [
        {
          "internalType": "uint256",
          "name": "_lotteryId",
          "type": "uint256"
        },
        {
          "internalType": "uint256",
          "name": "_ticketNumber",
          "type": "uint256"
        }
      ],
      "name": "prizeClaimed",
      "outputs": [
        {
          "internalType": "bool",
          "name": "",
          "type": "bool"
        }
      ],
      "stateMutability": "view",
      "type": "function"
    },
    {
      "inputs": [
        {
          "internalType": "uint256",
          "name": "",
          "type": "uint256"
        }
      ],
      "name": "prizeMerkleRoots",
      "outputs": [
        {
          "internalType": "bytes32",
          "name": "",
          "type": "bytes32"
        }
      ],
      "stateMutability": "view",
      "type": "function"
    },
    {
      "inputs": [
        {
          "internalType": "uint256",
          "name": "",
          "type": "uint256"
        },
        {
          "internalType": "uint256",
          "name": "",
          "type": "uint256"
        }
      ],
      "name": "prizes",
      "outputs": [
        {
          "internalType": "uint256",
          "name": "prizeId",
          "type": "uint256"
        },
        {
          "internalType": "uint16",
          "name": "numberOfEditions",
          "type": "uint16"
        }
      ],
      "stateMutability": "view",
      "type": "function"
    },
    {
      "inputs": [],
      "name": "proxiableUUID",
      "outputs": [
        {
          "internalType": "bytes32",
          "name": "",
          "type": "bytes32"
        }
      ],
      "stateMutability": "view",
      "type": "function"
    },
    {
      "inputs": [],
      "name": "randomGenerator",
      "outputs": [
        {
          "internalType": "contract IRandomNumberGenerator",
          "name": "",
          "type": "address"
        }
      ],
      "stateMutability": "view",
      "type": "function"
    },
    {
      "inputs": [
        {
          "internalType": "uint256",
          "name": "",
          "type": "uint256"
        }
      ],
      "name": "randomSeeds",
      "outputs": [
        {
          "internalType": "uint256",
          "name": "",
          "type": "uint256"
        }
      ],
      "stateMutability": "view",
      "type": "function"
    },
    {
      "inputs": [
        {
          "internalType": "uint256",
          "name": "_lotteryId",
          "type": "uint256"
        },
        {
          "internalType": "bytes32",
          "name": "_requestId",
          "type": "bytes32"
        },
        {
          "internalType": "uint256",
          "name": "_randomNumber",
          "type": "uint256"
        }
      ],
      "name": "receiveRandomNumber",
      "outputs": [],
      "stateMutability": "nonpayable",
      "type": "function"
    },
    {
      "inputs": [
        {
          "internalType": "uint256",
          "name": "_lotteryId",
          "type": "uint256"
        },
        {
          "internalType": "uint256",
          "name": "_index",
          "type": "uint256"
        }
      ],
      "name": "removePrize",
      "outputs": [],
      "stateMutability": "nonpayable",
      "type": "function"
    },
    {
      "inputs": [
        {
          "internalType": "bytes32",
          "name": "role",
          "type": "bytes32"
        },
        {
          "internalType": "address",
          "name": "account",
          "type": "address"
        }
      ],
      "name": "renounceRole",
      "outputs": [],
      "stateMutability": "nonpayable",
      "type": "function"
    },
    {
      "inputs": [
        {
          "internalType": "uint256",
          "name": "_lotteryId",
          "type": "uint256"
        }
      ],
      "name": "requestRandomNumber",
      "outputs": [],
      "stateMutability": "nonpayable",
      "type": "function"
    },
    {
      "inputs": [
        {
          "internalType": "bytes32",
          "name": "role",
          "type": "bytes32"
        },
        {
          "internalType": "address",
          "name": "account",
          "type": "address"
        }
      ],
      "name": "revokeRole",
      "outputs": [],
      "stateMutability": "nonpayable",
      "type": "function"
    },
    {
      "inputs": [],
      "name": "rewardsContract",
      "outputs": [
        {
          "internalType": "contract IRewards",
          "name": "",
          "type": "address"
        }
      ],
      "stateMutability": "view",
      "type": "function"
    },
    {
      "inputs": [
        {
          "internalType": "uint256",
          "name": "_lotteryId",
          "type": "uint256"
        },
        {
          "internalType": "uint32",
          "name": "_maxTickets",
          "type": "uint32"
        }
      ],
      "name": "setMaxTickets",
      "outputs": [],
      "stateMutability": "nonpayable",
      "type": "function"
    },
    {
      "inputs": [
        {
          "internalType": "uint256",
          "name": "_lotteryId",
          "type": "uint256"
        },
        {
          "internalType": "uint32",
          "name": "_maxTicketsPerUser",
          "type": "uint32"
        }
      ],
      "name": "setMaxTicketsPerUser",
      "outputs": [],
      "stateMutability": "nonpayable",
      "type": "function"
    },
    {
      "inputs": [
        {
          "internalType": "uint256",
          "name": "_lotteryId",
          "type": "uint256"
        },
        {
          "internalType": "bytes32",
          "name": "_root",
          "type": "bytes32"
        }
      ],
      "name": "setPrizeMerkleRoot",
      "outputs": [],
      "stateMutability": "nonpayable",
      "type": "function"
    },
    {
      "inputs": [
        {
          "internalType": "address",
          "name": "_IRandomNumberGenerator",
          "type": "address"
        }
      ],
      "name": "setRandomGenerator",
      "outputs": [],
      "stateMutability": "nonpayable",
      "type": "function"
    },
    {
      "inputs": [
        {
          "internalType": "address",
          "name": "_rewardsContract",
          "type": "address"
        }
      ],
      "name": "setRewardsContract",
      "outputs": [],
      "stateMutability": "nonpayable",
      "type": "function"
    },
    {
      "inputs": [
        {
          "internalType": "address",
          "name": "_signer",
          "type": "address"
        }
      ],
      "name": "setSignerAddress",
      "outputs": [],
      "stateMutability": "nonpayable",
      "type": "function"
    },
    {
      "inputs": [
        {
          "internalType": "address",
          "name": "_token",
          "type": "address"
        }
      ],
      "name": "setToken",
      "outputs": [],
      "stateMutability": "nonpayable",
      "type": "function"
    },
    {
      "inputs": [
        {
          "internalType": "uint256",
          "name": "_lotteryId",
          "type": "uint256"
        },
        {
          "internalType": "address",
          "name": "_whitelist",
          "type": "address"
        }
      ],
      "name": "setWhitelist",
      "outputs": [],
      "stateMutability": "nonpayable",
      "type": "function"
    },
    {
      "inputs": [],
      "name": "signerAddress",
      "outputs": [
        {
          "internalType": "address",
          "name": "",
          "type": "address"
        }
      ],
      "stateMutability": "view",
      "type": "function"
    },
    {
      "inputs": [
        {
          "internalType": "bytes4",
          "name": "interfaceId",
          "type": "bytes4"
        }
      ],
      "name": "supportsInterface",
      "outputs": [
        {
          "internalType": "bool",
          "name": "",
          "type": "bool"
        }
      ],
      "stateMutability": "view",
      "type": "function"
    },
    {
      "inputs": [],
      "name": "token",
      "outputs": [
        {
          "internalType": "contract IERC20",
          "name": "",
          "type": "address"
        }
      ],
      "stateMutability": "view",
      "type": "function"
    },
    {
      "inputs": [],
      "name": "unpause",
      "outputs": [],
      "stateMutability": "nonpayable",
      "type": "function"
    },
    {
      "inputs": [
        {
          "internalType": "uint256",
          "name": "lotteryId",
          "type": "uint256"
        },
        {
          "internalType": "uint256",
          "name": "_ticketCostPoints",
          "type": "uint256"
        },
        {
          "internalType": "uint256",
          "name": "_ticketCostTokens",
          "type": "uint256"
        },
        {
          "internalType": "uint32",
          "name": "_startTime",
          "type": "uint32"
        },
        {
          "internalType": "uint32",
          "name": "_closeTime",
          "type": "uint32"
        },
        {
          "internalType": "contract INFT",
          "name": "_nftContract",
          "type": "address"
        },
        {
          "internalType": "uint16",
          "name": "_maxTickets",
          "type": "uint16"
        },
        {
          "internalType": "uint256",
          "name": "_defaultPrizeId",
          "type": "uint256"
        },
        {
          "internalType": "enum Lottery.Status",
          "name": "_status",
          "type": "uint8"
        },
        {
          "internalType": "bool",
          "name": "_isRefundable",
          "type": "bool"
        }
      ],
      "name": "updateLottery",
      "outputs": [],
      "stateMutability": "nonpayable",
      "type": "function"
    },
    {
      "inputs": [
        {
          "internalType": "address",
          "name": "newImplementation",
          "type": "address"
        }
      ],
      "name": "upgradeTo",
      "outputs": [],
      "stateMutability": "nonpayable",
      "type": "function"
    },
    {
      "inputs": [
        {
          "internalType": "address",
          "name": "newImplementation",
          "type": "address"
        },
        {
          "internalType": "bytes",
          "name": "data",
          "type": "bytes"
        }
      ],
      "name": "upgradeToAndCall",
      "outputs": [],
      "stateMutability": "payable",
      "type": "function"
    },
    {
      "inputs": [
        {
          "internalType": "uint256",
          "name": "",
          "type": "uint256"
        }
      ],
      "name": "whitelists",
      "outputs": [
        {
          "internalType": "address",
          "name": "",
          "type": "address"
        }
      ],
      "stateMutability": "view",
      "type": "function"
    },
    {
      "inputs": [
        {
          "internalType": "address",
          "name": "_to",
          "type": "address"
        },
        {
          "internalType": "uint256",
          "name": "_amount",
          "type": "uint256"
        }
      ],
      "name": "withdraw",
      "outputs": [],
      "stateMutability": "nonpayable",
      "type": "function"
    },
    {
      "inputs": [
        {
          "internalType": "uint256",
          "name": "",
          "type": "uint256"
        }
      ],
      "name": "withdrawals",
      "outputs": [
        {
          "internalType": "uint256",
          "name": "",
          "type": "uint256"
        }
      ],
      "stateMutability": "view",
      "type": "function"
    }
  ],
  "bytecode": "0x60a080604052346100315730608052614e0090816100378239608051818181610bc7015281816111bb015261127c0152f35b600080fdfe60806040526004361015610013575b600080fd5b60003560e01c806301ffc9a7146104a657806302e060c61461049d578063046dc166146104945780631398e0761461048b578063144fa6d714610482578063220cce97146104795780632368040014610470578063248a9ca314610467578063289906831461045e5780632c75d03e146104555780632f2ff15d1461044c5780632f9aa1fe1461044357806336568abe1461043a5780633659cfe6146104315780633f4ba83a1461042857806340cf23d91461041f5780634538f2971461041657806349c0de881461040d5780634a004467146104045780634bc19fee146103fb5780634f1ef286146103f257806350612da6146103e957806352d1902d146103e05780635b7633d0146103d75780635c975abb146103ce5780635cc07076146103c55780636131dee6146103bc5780636a55e2ae146103b35780636a6be315146103aa5780636cf64a33146103a15780636e55ce1d146103985780637350ab2c1461038f57806376b3c8a81461038657806378a03c471461037d5780638456cb59146103745780638627df461461036b57806391834cf41461036257806391d148541461035957806396db752a14610350578063987bf592146103475780639b7fecc31461033e578063a217fddf14610335578063b1eb96c91461032c578063bf4002b214610323578063c0c53b8b1461031a578063c11ab61514610311578063cc30779514610308578063d098a2f0146102ff578063d547741f146102f6578063d89da286146102ed578063db2c0fd1146102b7578063dcbad90d146102e4578063dfa0dfa5146102db578063ec909ce2146102d2578063f3fef3a3146102c9578063f5f48998146102c0578063f90328d5146102b7578063fc0c546a146102ae5763fe4d5add146102a657600080fd5b61000e611dfe565b5061000e612a50565b5061000e6126b2565b5061000e612a19565b5061000e61295e565b5061000e612786565b5061000e61271e565b5061000e6126f3565b5061000e612638565b5061000e6125f5565b5061000e6125c7565b5061000e612537565b5061000e6124b2565b5061000e612379565b5061000e6122ff565b5061000e61216d565b5061000e612150565b5061000e61204d565b5061000e611e34565b5061000e611dfe565b5061000e611da7565b5061000e611ca1565b5061000e611b9c565b5061000e611b1b565b5061000e611a93565b5061000e6119b4565b5061000e61184c565b5061000e6117f9565b5061000e611543565b5061000e61146f565b5061000e6113f8565b5061000e6113af565b5061000e611381565b5061000e61135d565b5061000e611332565b5061000e611268565b5061000e611216565b5061000e611160565b5061000e610f89565b5061000e610f0a565b5061000e610e78565b5061000e610d78565b5061000e610d21565b5061000e610c68565b5061000e610b99565b5061000e610b00565b5061000e610ae0565b5061000e610a0f565b5061000e6108a8565b5061000e61075c565b5061000e61072c565b5061000e6106fe565b5061000e6106d3565b5061000e610660565b5061000e61060d565b5061000e61058b565b5061000e61050e565b503461000e57602036600319011261000e5760043563ffffffff60e01b811680910361000e57602090637965db0b60e01b81149081156104ec575b506040519015158152f35b6301ffc9a760e01b149050386104e1565b6001600160a01b0381160361000e57565b503461000e57604036600319011261000e576080610559602435610531816104fd565b60043560005261013960205260406000209060018060a01b0316600052602052604060002090565b805490600260018201549101549060ff6040519361ffff8116855260101c161515602084015260408301526060820152f35b503461000e57602036600319011261000e576004356105a9816104fd565b336000908152600080516020614d6b833981519152602052604090206105d49060ff905b541661360d565b61012e80546001600160a01b0319166001600160a01b03909216919091179055005b50634e487b7160e01b600052603260045260246000fd5b503461000e57602036600319011261000e5760043561013290815481101561000e576020916000527fc53bdfd4aa1ab65dfdaf681ca6bda958ae4a123d4ed68c4277796592280e78350154604051908152f35b503461000e57602036600319011261000e5760043561067e816104fd565b336000908152600080516020614d6b833981519152602052604090206106a69060ff906105cd565b61012f80546001600160a01b0319166001600160a01b03909216919091179055005b600091031261000e57565b503461000e57600036600319011261000e57610131546040516001600160a01b039091168152602090f35b503461000e57602036600319011261000e5760043560005261013a6020526020604060002054604051908152f35b503461000e57602036600319011261000e5760043560005260656020526020600160406000200154604051908152f35b503461000e57606036600319011261000e5761013054600435906001600160a01b0316330361084057806000918252610133602052610812604083206107b5600260ff835460c01c166004811015610833575b14614386565b6024357f8e372cc311d12a5394f598c3c41b36e9775c6cb51b99fde2aaca7978a8ec713f85604051a2805460ff60c01b1916600360c01b1781556044356108078460005261013a602052604060002090565b555460c01c60ff1690565b61081b816118bf565b60405191600080516020614d8b8339815191528484a3f35b61083b6118a8565b6107af565b60405162461bcd60e51b815260206004820152601060248201526f4f6e6c7920524e47206164647265737360801b6044820152606490fd5b9181601f8401121561000e578235916001600160401b03831161000e576020808501948460051b01011161000e57565b503461000e57606036600319011261000e576001600160401b0360043560243582811161000e576108dd903690600401610878565b909260443590811161000e576108f7903690600401610878565b336000908152600080516020614d6b8339815191526020908152604082209196929392916109279060ff906105cd565b858752610133815261095863ffffffff61095061094660408b206136d6565b5163ffffffff1690565b1615156138a6565b6109638515156138eb565b61096e848614613937565b865b8581106109ac57604051868152889088907f8840be43b589db14b534f6e7451c1e971a9aa90c72beae7ae076d12ce2d6e7d490602090a2604051f35b610a0a90610a056109c889600052610137602052604060002090565b6109d3838a886139a9565b3590610a006109eb6109e6868c8c6139a9565b6139c1565b6109f36110e3565b93845261ffff1687840152565b6139cb565b613999565b610970565b503461000e5760408060031936011261000e5760043590602435610a32816104fd565b6000928084526065602052610a4c60018486200154612a7b565b808452606560209081528385206001600160a01b03841660009081529152604090205460ff1615610a7c57505051f35b808452606560209081528385206001600160a01b0384166000908152915260409020805460ff19166001179055825133926001600160a01b031691907f2f8788117e7eff1d82e926ec794901d17c78024a50270940304540a733656f0d908690a451f35b503461000e57600036600319011261000e57602061013254604051908152f35b503461000e57604036600319011261000e57602435610b1e816104fd565b336001600160a01b03821603610b3c57610b3a90600435612cce565b005b60405162461bcd60e51b815260206004820152602f60248201527f416363657373436f6e74726f6c3a2063616e206f6e6c792072656e6f756e636560448201526e103937b632b9903337b91039b2b63360891b6064820152608490fd5b503461000e57602036600319011261000e57610b3a600435610bba816104fd565b610c0c6001600160a01b037f0000000000000000000000000000000000000000000000000000000000000000811690610bf530831415612d5e565b600080516020614dab833981519152541614612dbf565b336000908152600080516020614d6b83398151915260205260409020610c349060ff906105cd565b60405190602082018281106001600160401b03821117610c5b575b60405260008252612f04565b610c63611039565b610c4f565b503461000e57600080600319360112610d1e5780805260656020908152604080832033600090815292529020610ca09060ff906105cd565b60fb5460ff811615610ce25760ff191660fb557f5db9ee0a495bf2e6ff9c91a7834c1ba4fdd244a5e8aa4e537bd38aeae4b073aa6020604051338152a1604051f35b60405162461bcd60e51b815260206004820152601460248201527314185d5cd8589b194e881b9bdd081c185d5cd95960621b6044820152606490fd5b80fd5b503461000e57604036600319011261000e57602061ffff610d6e602435610d47816104fd565b600435600052610139845260406000209060018060a01b0316600052602052604060002090565b5416604051908152f35b503461000e57602036600319011261000e57336000908152600080516020614d6b8339815191526020526040812060043590610db69060ff906105cd565b80825261013360205260408220600360ff825460c01c166004811015610e41575b14610dfc57805460ff60c01b1916600160c01b178155610812905b5460c01c60ff1690565b60405162461bcd60e51b815260206004820152601960248201527f4c6f747465727920616c726561647920636f6d706c65746564000000000000006044820152606490fd5b610e496118a8565b610dd7565b8054821015610e6b575b60005260206000209060011b0190600090565b610e736105f6565b610e58565b503461000e57604036600319011261000e5760243560043560005261013b6020526040600020805482101561000e57604091610eb391610e4e565b50805460019091015482519182526001600160a01b03166020820152f35b6024359063ffffffff8216820361000e57565b6084359063ffffffff8216820361000e57565b60a4359063ffffffff8216820361000e57565b503461000e57604036600319011261000e57610f24610ed1565b336000908152600080516020614d6b833981519152602052604081209091610f8491610f529060ff906105cd565b600435835261013360205260408320805463ffffffff60801b191660809290921b63ffffffff60801b16919091179055565b604051f35b503461000e57602036600319011261000e57600435610fa7816104fd565b336000908152600080516020614d6b83398151915260205260409020610fcf9060ff906105cd565b6001600160a01b03168015610ff45761013080546001600160a01b0319169091179055005b60405162461bcd60e51b815260206004820152601d60248201527f436f6e7472616374732063616e6e6f74206265203020616464726573730000006044820152606490fd5b50634e487b7160e01b600052604160045260246000fd5b6001600160401b03811161106357604052565b61106b611039565b604052565b6101c081019081106001600160401b0382111761106357604052565b604081019081106001600160401b0382111761106357604052565b606081019081106001600160401b0382111761106357604052565b90601f801991011681019081106001600160401b0382111761106357604052565b604051906110f08261108c565b565b604051906110f082611070565b6020906001600160401b03811161111c575b601f01601f19160190565b611124611039565b611111565b929192611135826110ff565b9161114360405193846110c2565b82948184528183011161000e578281602093846000960137010152565b50604036600319011261000e57600435611179816104fd565b602435906001600160401b03821161000e573660238301121561000e576111ad610b3a923690602481600401359101611129565b906111e96001600160a01b037f0000000000000000000000000000000000000000000000000000000000000000811690610bf530831415612d5e565b336000908152600080516020614d6b833981519152602052604090206112119060ff906105cd565b612fc7565b503461000e57604036600319011261000e57336000908152600080516020614d6b833981519152602052604081206112509060ff906105cd565b60043581526101356020526024356040822055604051f35b503461000e57600036600319011261000e577f00000000000000000000000000000000000000000000000000000000000000006001600160a01b031630036112c757604051600080516020614dab8339815191528152602090f35b0390f35b60405162461bcd60e51b815260206004820152603860248201527f555550535570677261646561626c653a206d757374206e6f742062652063616c60448201527f6c6564207468726f7567682064656c656761746563616c6c00000000000000006064820152608490fd5b503461000e57600036600319011261000e5761012e546040516001600160a01b039091168152602090f35b503461000e57600036600319011261000e57602060ff60fb54166040519015158152f35b503461000e57602036600319011261000e5760043560005261013c6020526020604060002054604051908152f35b503461000e57604036600319011261000e5760206113da6024356113d2816104fd565b600435614c3d565b604051908152f35b61ffff81160361000e57565b8015150361000e57565b503461000e5761014036600319011261000e5760643563ffffffff8116810361000e57611423610ee4565b60a43591611430836104fd565b60c4359061143d826113e2565b6101043591600483101561000e57610b3a94610124359461145d866113ee565b60e43593604435602435600435613edd565b503461000e57604036600319011261000e57611489610ed1565b336000908152600080516020614d6b833981519152602052604081209091906114b49060ff906105cd565b6004358252610133602052604082209063ffffffff918281541692831561150757610f84936114e59184161161364c565b9067ffffffff0000000082549160201b169067ffffffff000000001916179055565b60405162461bcd60e51b8152602060048201526014602482015273131bdd1d195c9e481a59081b9bdd08199bdd5b9960621b6044820152606490fd5b503461000e5760a036600319011261000e57600435602435611564816104fd565b60443560643592608435936001600160401b03851161000e5761167361159161166e963690600401610878565b96906115a260ff60fb541615614414565b6115d2876115bb87600052610139602052604060002090565b9060018060a01b0316600052602052604060002090565b976115e886600052610133602052604060002090565b9861162a61162561162161161a8961160b8c600052610138602052604060002090565b90600052602052604060002090565b5460ff1690565b1590565b614a4e565b60018a015460a01c60ff166117b6575b5061166961164a86898b8a614b8c565b9261166088600052610135602052604060002090565b54923691614afb565b614be2565b614b49565b6116a061168f856115bb85600052610139602052604060002090565b805462ff0000191662010000179055565b6116f16116e46116ce60016116c086600052610133602052604060002090565b01546001600160a01b031690565b9261160b85600052610138602052604060002090565b805460ff19166001179055565b600360018060a01b03809216950154853b1561000e576040516305661ce360e11b81526001600160a01b03861660048201526024810185905260016044820152606481019190915260a06084820152600060a48201819052958690829060c490829084905af180156117a9575b611790575b506040519316907f4aa95f981a8337cb337de335b965507da0879c3b49f799d20058e913f5ad2c268585a4f35b8061179d6117a392611050565b806106c8565b38611763565b6117b1612e4a565b61175e565b6117f160026117d9886117d48b60005261013b602052604060002090565b610e4e565b505492019182546117ec82821015614aa4565b6137eb565b90553861163a565b503461000e57604036600319011261000e576024356004356000526101376020526040600020805482101561000e5760409161183491610e4e565b5061ffff600182549201541682519182526020820152f35b503461000e57608036600319011261000e576064356001600160401b0380821161000e573660238301121561000e57816004013590811161000e57366024828401011161000e576024610b3a9201604435602435600435613a70565b50634e487b7160e01b600052602160045260246000fd5b600411156118c957565b6110f06118a8565b9060048210156118de5752565b6118e66118a8565b52565b815163ffffffff1681526101c08101929160208181015163ffffffff169083015260408181015163ffffffff169083015260608181015163ffffffff169083015260808181015163ffffffff169083015260a08181015163ffffffff169083015261195c60c082015160c08401906118d1565b60e0818101516001600160a01b0316908301526101008181015115159083015261012080820151908301526101408082015190830152610160808201519083015261018080820151908301526101a080910151910152565b503461000e57602036600319011261000e576040516119d281611070565b6101a06000918281528260208201528260408201528260608201528260808201528260a08201528260c08201528260e0820152826101008201528261012082015282610140820152826101608201528261018082015201526112c3611a4c611a47600435600052610133602052604060002090565b6136d6565b604051918291826118e9565b6020908160408183019282815285518094520193019160005b828110611a7f575050505090565b835185529381019392810192600101611a71565b503461000e5760208060031936011261000e57600435611ab2816104fd565b6001600160a01b0316600090815261013682526040808220905181548082529183528383208185019491939092915b828210611b04576112c385611af8818903826110c2565b60405191829182611a58565b835486529485019460019384019390910190611ae1565b503461000e57600080600319360112610d1e5780805260656020908152604080832033600090815292529020611b539060ff906105cd565b600160fb54611b6560ff821615614414565b60ff19161760fb557f62e78cea01bee320cd4e420270b5ea74000d11b0c9f74754ebdbfc544b05a2586020604051338152a1604051f35b503461000e57604036600319011261000e57610b3a600435611bc360ff60fb541615614414565b600081815261013460205260409020546001600160a01b0316611bea575b6024359061464f565b611c61611c24611c18611c18611c0b85600052610134602052604060002090565b546001600160a01b031690565b6001600160a01b031690565b6040516320c18e6b60e21b81523360048201526024810184905290602090829060449082905afa908115611c94575b600091611c66575b506144ab565b611be1565b611c87915060203d8111611c8d575b611c7f81836110c2565b81019061402e565b38611c5b565b503d611c75565b611c9c612e4a565b611c53565b503461000e5760408060031936011261000e576000808052606560209081528282203383529052604081209091906004359060243590611ce39060ff906105cd565b8184526101378060205283852054821015611d6d5791611d54611d6592611d6a94838852602052611d4e611d37878920611d31611d2b87600052610137602052604060002090565b546137dc565b90610e4e565b50916117d485600052610137602052604060002090565b90613819565b600052610137602052604060002090565b61385b565b51f35b835162461bcd60e51b8152602060048201526013602482015272496e646578206f7574206f6620626f756e647360681b6044820152606490fd5b503461000e57604036600319011261000e57602060ff611df2602435611dcc816104fd565b6004356000526065845260406000209060018060a01b0316600052602052604060002090565b54166040519015158152f35b503461000e57602036600319011261000e57600435600052610134602052602060018060a01b0360406000205416604051908152f35b503461000e576101208060031936011261000e57602435600435611e56610ee4565b611e5e610ef7565b9160c43590611e6c826104fd565b8060e43596611e7a886113ee565b336000908152600080516020614d6b833981519152602052604081209098905460ff16611ea69061360d565b611eba63ffffffff8781169089161161364c565b60405163185153c360e01b81526004810189905290896001600160a01b03871683602481845a94602095f1968715611fb69a611f10611fb19a611f7a97611f7096611f3d95611fed575b91611fcf575b50614043565b611f198d61408f565b611f30611f246110f2565b63ffffffff909c168c52565b63ffffffff1660208b0152565b604089018c9052606089018c9052608089018c905260a089018c905260c089018c90526001600160a01b031660e0890152565b1515610100870152565b84015284610140840152604435610160840152606435610180840152610104356101a0840152600052610133602052604060002090565b614138565b8160405191600080516020614d8b8339815191528284a3f35b611fe7915060203d8111611c8d57611c7f81836110c2565b38611f0a565b611ff5612e4a565b611f04565b60208082019080835283518092528060408094019401926000905b83821061202457505050505090565b8451805187528301516001600160a01b0316868401529485019493820193600190910190612015565b503461000e57606036600319011261000e57600435602435604435818110612143575b60018282036001198111612136575b019061208a826136a4565b9260409261209a845195866110c2565b8085526120a9601f19916136a4565b016000805b828110612114575050505b818111156120ce578251806112c38682611ffa565b806120f46120ee61210f936117d48960005261013b602052604060002090565b506143ed565b6120fe82876143cb565b5261210981866143cb565b50613999565b6120b9565b60209086516121228161108c565b838152828481830152828a010152016120ae565b61213e613355565b61207f565b61214b613355565b612070565b503461000e57600036600319011261000e57602060405160008152f35b503461000e5760208060031936011261000e576000808052606582526040808220338352602052812090916004359161225b91906121ad9060ff906105cd565b61220c60026121fd6121ca86600052610133602052604060002090565b60ff81546121e14263ffffffff838a1c16106142f6565b60c01c166121ee816118bf565b156122c3575460c01c60ff1690565b612206816118bf565b1461433a565b61013054612222906001600160a01b0316611c18565b604051632cdc85e960e21b8152600481018590529082908290602490829089905af19182156122b6575b8592612289575b505061012d55565b61012d54604051917ff8cdf8355a0f31bbad8998a631f5a75dcb3e475a010b34a111ed105fe88e751a8484a3f35b6122a89250803d106122af575b6122a081836110c2565b810190612e3b565b3880612253565b503d612296565b6122be612e4a565b61224c565b805460ff60c01b1916600160c11b178155805460c01c60ff166122e5816118bf565b87600080516020614d8b8339815191528a604051a3610df2565b503461000e57604036600319011261000e57612319610ed1565b336000908152600080516020614d6b833981519152602052604081209091610f84916123479060ff906105cd565b600435835261013360205260408320805463ffffffff60601b191660609290921b63ffffffff60601b16919091179055565b503461000e57606036600319011261000e57600435612397816104fd565b612459602435916123a7836104fd565b604435906123b4826104fd565b6124366123bf6135cd565b948561249e575b6123ce613559565b6123e860ff60005460081c166123e3816134f9565b6134f9565b60ff1960fb541660fb556123fa613559565b61240381612c38565b61012f80546001600160a01b03199081166001600160a01b039687161790915561012e8054909116918516919091179055565b6101318054919092166001600160a01b03166001600160a01b0319909116179055565b61245f57005b61246f61ff001960005416600055565b604051600181527f7f26b83ff96e1f2b6a682f133852f6798a09c465da95921460cefb384740249890602090a1005b61010061ff001960005416176000556123c6565b503461000e57602036600319011261000e57600435600052610133602052602063ffffffff60406000205460a01c16604051908152f35b60208082019080835283518092528060408094019401926000905b83821061251357505050505090565b84518051875283015161ffff16868401529485019493820193600190910190612504565b503461000e5760208060031936011261000e57600435600052610137815260409081600020805490612568826136a4565b92612575855194856110c2565b82845260009182528082208185015b848410612598578651806112c388826124e9565b60028360019289516125a98161108c565b8554815261ffff858701541683820152815201920193019290612584565b503461000e57602036600319011261000e576004356000526101356020526020604060002054604051908152f35b503461000e57604036600319011261000e57610b3a602435600435612619826104fd565b806000526065602052612633600160406000200154612a7b565b612cce565b503461000e57604036600319011261000e57602435612656816104fd565b336000908152600080516020614d6b833981519152602052604081209091610f84916126849060ff906105cd565b60043583526101346020526040832080546001600160a01b0319166001600160a01b03909216919091179055565b503461000e57604036600319011261000e576004356000526101386020526040600020602435600052602052602060ff604060002054166040519015158152f35b503461000e57600036600319011261000e57610130546040516001600160a01b039091168152602090f35b503461000e57602036600319011261000e5760043561273c816104fd565b336000908152600080516020614d6b833981519152602052604090206127649060ff906105cd565b61013180546001600160a01b0319166001600160a01b03909216919091179055005b503461000e57602036600319011261000e576004356127aa60ff60fb541615614414565b6127bf81600052610133602052604060002090565b9060026127ed6127da83600052610139602052604060002090565b3360009081526020919091526040902090565b01805492612800815460ff9060c01c1690565b612809816118bf565b600381036128e15750600101546000919060a01c60ff16806128d8575b61282f90614d10565b5561012f54612846906001600160a01b0316611c18565b60405163a9059cbb60e01b81523360048201526024810184905290602090829060449082906000905af180156128cb575b6128ad575b5060405191825233917f7ca5472b7ea78c2c0141c5a12ee6d170cf4ce8ed06be3d22c8252ddfc7a6a2c490602090a3005b6128c49060203d8111611c8d57611c7f81836110c2565b503861287c565b6128d3612e4a565b612877565b50831515612826565b600191506128ee816118bf565b0361290657600090612901841515614cd1565b61282f565b60405162461bcd60e51b815260206004820152602660248201527f43616e27742061736b20666f72206120726566756e64206f6e2074686973206c6044820152656f747465727960d01b6064820152608490fd5b0390fd5b503461000e57604036600319011261000e57600060206129e4600435612983816104fd565b838052606583526040808520336000908152602091909152206129a89060ff906105cd565b61012f5460405163a9059cbb60e01b81526001600160a01b03928316600482015260248035908201529485939190921691839182906044820190565b03925af18015612a0c575b6129f557005b610b3a9060203d8111611c8d57611c7f81836110c2565b612a14612e4a565b6129ef565b503461000e57602036600319011261000e57600435600052610133602052602063ffffffff60406000205460401c16604051908152f35b503461000e57600036600319011261000e5761012f546040516001600160a01b039091168152602090f35b600081815260656020908152604080832033845290915290205460ff1615612aa05750565b3390612aaa612e20565b916030612ab68461339f565b536078612ac2846133b5565b5360295b60018111612b715761295a612b2e612b5986612b4b612aee88612ae98915613400565b61344b565b612b28604051958694612b28602087016017907f416363657373436f6e74726f6c3a206163636f756e742000000000000000000081520190565b90612bf5565b7001034b99036b4b9b9b4b733903937b6329607d1b815260110190565b03601f1981018352826110c2565b60405162461bcd60e51b815291829160048301612c0c565b9080600f612bae92166010811015612bb3575b6f181899199a1a9b1b9c1cb0b131b232b360811b901a612ba484876133c6565b5360041c916133e5565b612ac6565b612bbb6105f6565b612b84565b918091926000905b828210612be0575011612bd9575050565b6000910152565b91508060209183015181860152018291612bc8565b90612c0860209282815194859201612bc0565b0190565b60409160208252612c2c8151809281602086015260208686019101612bc0565b601f01601f1916010190565b6001600160a01b0381166000908152600080516020614d6b833981519152602052604081205460ff1615612c6a575050565b8080526065602090815260408083206001600160a01b038516600090815292529020805460ff1916600117905560405133926001600160a01b031691907f2f8788117e7eff1d82e926ec794901d17c78024a50270940304540a733656f0d908290a4565b60008181526065602090815260408083206001600160a01b038616845290915290205460ff16612cfc575050565b60008181526065602090815260408083206001600160a01b03861684529091529020805460ff1916905560405133926001600160a01b031691907ff6391f5c32d9c69d2a47ea670b442974b53935d1edc7fd64eb21e047a839171b90600090a4565b15612d6557565b60405162461bcd60e51b815260206004820152602c60248201527f46756e6374696f6e206d7573742062652063616c6c6564207468726f7567682060448201526b19195b1959d85d1958d85b1b60a21b6064820152608490fd5b15612dc657565b60405162461bcd60e51b815260206004820152602c60248201527f46756e6374696f6e206d7573742062652063616c6c6564207468726f7567682060448201526b6163746976652070726f787960a01b6064820152608490fd5b60405190612e2d826110a7565b602a82526040366020840137565b9081602091031261000e575190565b506040513d6000823e3d90fd5b15612e5e57565b60405162461bcd60e51b815260206004820152602960248201527f45524331393637557067726164653a20756e737570706f727465642070726f786044820152681a58589b195555525160ba1b6064820152608490fd5b60809060208152602e60208201527f45524331393637557067726164653a206e657720696d706c656d656e7461746960408201526d6f6e206973206e6f74205555505360901b60608201520190565b90612f307f4910fdfa16fed3260ed0e7147f7cc6da11a60208b5b9406d12a635614ffd91435460ff1690565b15612f3f57506110f09061308a565b6040516352d1902d60e01b8152916020836004816001600160a01b0385165afa60009381612fa7575b50612f865760405162461bcd60e51b81528061295a60048201612eb5565b612fa2600080516020614dab8339815191526110f09414612e57565b61311a565b612fc091945060203d81116122af576122a081836110c2565b9238612f68565b90612ff37f4910fdfa16fed3260ed0e7147f7cc6da11a60208b5b9406d12a635614ffd91435460ff1690565b1561300257506110f09061308a565b6040516352d1902d60e01b8152916020836004816001600160a01b0385165afa6000938161306a575b506130495760405162461bcd60e51b81528061295a60048201612eb5565b613065600080516020614dab8339815191526110f09414612e57565b61322a565b61308391945060203d81116122af576122a081836110c2565b923861302b565b803b156130bf57600080516020614dab83398151915280546001600160a01b0319166001600160a01b03909216919091179055565b60405162461bcd60e51b815260206004820152602d60248201527f455243313936373a206e657720696d706c656d656e746174696f6e206973206e60448201526c1bdd08184818dbdb9d1c9858dd609a1b6064820152608490fd5b906131248261308a565b604051600092906001600160a01b0382167fbc7cd75a20ee27fd9adebab32041f755214dbc6bffa90cc0225b39da2e5c2d3b8583a2825115801590613223575b61316f575b50505050565b813b156131d257509180826131c09460208395519201905af4903d156131ca573d613199816110ff565b906131a760405192836110c2565b8152809160203d92013e5b6131ba6132d4565b9161331d565b5038808080613169565b5060606131b2565b62461bcd60e51b815260206004820152602660248201527f416464726573733a2064656c65676174652063616c6c20746f206e6f6e2d636f6044820152651b9d1c9858dd60d21b6064820152608490fd5b5083613164565b6132338161308a565b6040516001600160a01b0382167fbc7cd75a20ee27fd9adebab32041f755214dbc6bffa90cc0225b39da2e5c2d3b600083a28251158015906132cc575b61327957505050565b813b156131d25750600082819260206132c295519201905af43d156132c5573d6132a2816110ff565b906132b060405192836110c2565b81523d6000602083013e6131ba6132d4565b50565b60606131b2565b506001613270565b604051906132e1826110a7565b60278252660819985a5b195960ca1b6040837f416464726573733a206c6f772d6c6576656c2064656c65676174652063616c6c60208201520152565b90919015613329575090565b8151156133395750805190602001fd5b60405162461bcd60e51b815290819061295a9060048301612c0c565b50634e487b7160e01b600052601160045260246000fd5b806000190482118115151661337f570290565b613387613355565b0290565b81198111613397570190565b612c08613355565b6020908051156133ad570190565b612c086105f6565b6021908051600110156133ad570190565b9060209180518210156133d857010190565b6133e06105f6565b010190565b80156133f3575b6000190190565b6133fb613355565b6133ec565b1561340757565b606460405162461bcd60e51b815260206004820152602060248201527f537472696e67733a20686578206c656e67746820696e73756666696369656e746044820152fd5b60405190608082018281106001600160401b038211176134ec575b60405260428252606036602084013760306134808361339f565b53607861348c836133b5565b536041905b600182116134a7576134a4915015613400565b90565b80600f6134d9921660108110156134df575b6f181899199a1a9b1b9c1cb0b131b232b360811b901a612ba484866133c6565b90613491565b6134e76105f6565b6134b9565b6134f4611039565b613466565b1561350057565b60405162461bcd60e51b815260206004820152602b60248201527f496e697469616c697a61626c653a20636f6e7472616374206973206e6f74206960448201526a6e697469616c697a696e6760a81b6064820152608490fd5b6110f060ff60005460081c166134f9565b1561357157565b60405162461bcd60e51b815260206004820152602e60248201527f496e697469616c697a61626c653a20636f6e747261637420697320616c72656160448201526d191e481a5b9a5d1a585b1a5e995960921b6064820152608490fd5b60005460ff8160081c166000146135ef57506135ea303b1561356a565b600090565b80613600600160ff8194161061356a565b60ff191617600055600190565b1561361457565b60405162461bcd60e51b815260206004820152601060248201526f41646d696e2063616c6c73206f6e6c7960801b6044820152606490fd5b1561365357565b60405162461bcd60e51b815260206004820152602360248201527f436c6f73652074696d65206d7573742062652061667465722073746172742074604482015262696d6560e81b6064820152608490fd5b6020906001600160401b0381116136bd575b60051b0190565b6136c5611039565b6136b6565b60048210156118de5752565b9060066136e16110f2565b9261378460ff825461377763ffffffff6137038184168a9063ffffffff169052565b61371b818460201c1660208b019063ffffffff169052565b613733818460401c1660408b019063ffffffff169052565b61374b818460601c1660608b019063ffffffff169052565b613763818460801c1660808b019063ffffffff169052565b8260a01c1660a089019063ffffffff169052565b60c01c1660c086016136ca565b60018101546001600160a01b03811660e086015260a01c60ff161515610100850152600281015461012085015260038101546101408501526004810154610160850152600581015461018085015201546101a0830152565b600181106133f3576000190190565b8181106137f6570390565b6137fe613355565b0390565b50634e487b7160e01b600052600060045260246000fd5b9061384e575b81810361382a575050565b600161ffff81846110f09554855501541691019061ffff1661ffff19825416179055565b613856613802565b61381f565b80548015613890576000190190600060016138768484610e4e565b613883575b828155015555565b61388b613802565b61387b565b634e487b7160e01b600052603160045260246000fd5b156138ad57565b60405162461bcd60e51b8152602060048201526016602482015275131bdd1d195c9e48191bd95cc81b9bdd08195e1a5cdd60521b6044820152606490fd5b156138f257565b60405162461bcd60e51b815260206004820152601b60248201527f4e756d626572206f66207072697a65732063616e2774206265203000000000006044820152606490fd5b1561393e57565b60405162461bcd60e51b815260206004820152602d60248201527f4e756d626572206f66207072697a652069647320616e6420616d6f756e74732060448201526c1b5d5cdd08189948195c5d585b609a1b6064820152608490fd5b6001906000198114613397570190565b91908110156139b95760051b0190565b6136c56105f6565b356134a4816113e2565b90600161ffff60206139f46110f095805490600160401b821015613a23575b8582018155610e4e565b949094613a16575b8051855501511691019061ffff1661ffff19825416179055565b613a1e613802565b6139fc565b613a2b611039565b6139ea565b15613a3757565b60405162461bcd60e51b8152602060048201526011602482015270496e76616c6964207369676e617475726560781b6044820152606490fd5b604080513360208201908152918101839052919593949293613ae593613abe939192613ab892613ab09190613aa88160608101612b4b565b519020613e9a565b923691611129565b90613bc9565b61012e54613ad4906001600160a01b0316611c18565b6001600160a01b0390911614613a30565b61013154613afb906001600160a01b0316611c18565b60405163f662781d60e01b81523360048201529093908190602081602481895afa908115613bbc575b600091613b9e575b5010613b3e575b506110f09250614453565b833b1561000e57604051630259ab7760e61b815233600482015260248101919091526110f0936000908290604490829084905af18015613b91575b15613b33578061179d613b8b92611050565b38613b33565b613b99612e4a565b613b79565b613bb6915060203d81116122af576122a081836110c2565b38613b2c565b613bc4612e4a565b613b24565b6134a491613bd691613d69565b919091613be8565b600511156118c957565b613bf181613bde565b80613bf95750565b613c0281613bde565b60018103613c4f5760405162461bcd60e51b815260206004820152601860248201527f45434453413a20696e76616c6964207369676e617475726500000000000000006044820152606490fd5b613c5881613bde565b60028103613ca55760405162461bcd60e51b815260206004820152601f60248201527f45434453413a20696e76616c6964207369676e6174757265206c656e677468006044820152606490fd5b613cae81613bde565b60038103613d065760405162461bcd60e51b815260206004820152602260248201527f45434453413a20696e76616c6964207369676e6174757265202773272076616c604482015261756560f01b6064820152608490fd5b80613d12600492613bde565b14613d1957565b60405162461bcd60e51b815260206004820152602260248201527f45434453413a20696e76616c6964207369676e6174757265202776272076616c604482015261756560f01b6064820152608490fd5b815160418103613d96575090613d92916020820151906060604084015193015160001a90613de4565b9091565b604003613dda578160406020613d929401519101519160ff601b84821c9481198611613dcd575b600180841b031694011690613de4565b613dd5613355565b613dbd565b5050600090600290565b9291907f7fffffffffffffffffffffffffffffff5d576e7357a4501ddfe92f46681b20a08311613e8e5760ff16601b81141580613e83575b613e77579160809493916020936040519384528484015260408301526060820152600093849182805260015afa15613e6a575b81516001600160a01b03811615613e64579190565b50600190565b613e72612e4a565b613e4f565b50505050600090600490565b50601c811415613e1c565b50505050600090600390565b60405160208101917f19457468657265756d205369676e6564204d6573736167653a0a3332000000008352603c820152603c8152613ed7816110a7565b51902090565b336000908152600080516020614d6b83398151915260205260408120999a919990989697919694958b95949293915460ff16613f189061360d565b8a8a5261013360205260408a2096875463ffffffff161515613f39906138a6565b875463ffffffff191663ffffffff909116178755865467ffffffff00000000191660209190911b67ffffffff0000000016178655600486015560058501556001840180546001600160a01b0319166001600160a01b03909716969096178655835460609190911b61ffff60601b1663ffffffff60601b199091161783556006830155613fc491613ffc565b815460ff60a01b191690151560a01b60ff60a01b16179055613fe5836118bf565b60405190600080516020614d8b83398151915291a3565b906004811015614021575b815460ff60c01b191660c09190911b60ff60c01b16179055565b6140296118a8565b614007565b9081602091031261000e57516134a4816113ee565b1561404a57565b60405162461bcd60e51b815260206004820152601960248201527f436f6c6c656374696f6e20646f6573206e6f74206578697374000000000000006044820152606490fd5b610132805490600160401b8210156140e6575b600182018082558210156140d9575b6000527fc53bdfd4aa1ab65dfdaf681ca6bda958ae4a123d4ed68c4277796592280e78350155565b6140e16105f6565b6140b1565b6140ee611039565b6140a2565b805490600160401b82101561412b575b6001820180825582101561411e575b60005260206000200155565b6141266105f6565b614112565b614133611039565b614103565b906101a0600691614166614150825163ffffffff1690565b855463ffffffff191663ffffffff909116178555565b61419c61417a602083015163ffffffff1690565b855467ffffffff00000000191660209190911b67ffffffff0000000016178555565b6141d56141b0604083015163ffffffff1690565b85546bffffffff0000000000000000191660409190911b63ffffffff60401b16178555565b6142096141e9606083015163ffffffff1690565b855463ffffffff60601b191660609190911b63ffffffff60601b16178555565b61423d61421d608083015163ffffffff1690565b855463ffffffff60801b191660809190911b63ffffffff60801b16178555565b61427161425160a083015163ffffffff1690565b855463ffffffff60a01b191660a09190911b63ffffffff60a01b16178555565b61428860c0820151614282816118bf565b85613ffc565b60e08101516001850180546101008401516001600160a01b039093166001600160a81b03199091161791151560a01b60ff60a01b1691909117905561012081015160028501556101408101516003850155610160810151600485015561018081015160058501550151910155565b156142fd57565b60405162461bcd60e51b8152602060048201526015602482015274131bdd1d195c9e481a5cc81b9bdd0818db1bdcd959605a1b6044820152606490fd5b1561434157565b60405162461bcd60e51b815260206004820152601760248201527f4c6f7474657279206d75737420626520636c6f736564210000000000000000006044820152606490fd5b1561438d57565b60405162461bcd60e51b8152602060048201526016602482015275131bdd1d195c9e481b5d5cdd0818994818db1bdcd95960521b6044820152606490fd5b60209181518110156143e0575b60051b010190565b6143e86105f6565b6143d8565b906040516143fa8161108c565b825481526001909201546001600160a01b03166020830152565b1561441b57565b60405162461bcd60e51b815260206004820152601060248201526f14185d5cd8589b194e881c185d5cd95960821b6044820152606490fd5b906110f09161446760ff60fb541615614414565b600081815261013460205260409020546001600160a01b03161561464f576144a6611c24611c18611c18611c0b85600052610134602052604060002090565b61464f565b156144b257565b60405162461bcd60e51b815260206004820152600f60248201526e139bdd081dda1a5d195b1a5cdd1959608a1b6044820152606490fd5b156144f057565b60405162461bcd60e51b815260206004820152601060248201526f151a58dad95d1cc81cdbdb19081bdd5d60821b6044820152606490fd5b1561452f57565b606460405162461bcd60e51b815260206004820152602060248201527f43616e277420627579207468697320616d6f756e74206f66207469636b6574736044820152fd5b1561457a57565b60405162461bcd60e51b81526020600482015260136024820152722637ba3a32b93c9034b9903737ba1037b832b760691b6044820152606490fd5b9063ffffffff8080931691168092038111613397570190565b60019063ffffffff809116908114613397570190565b908082036145f0575050565b8054825461ffff191661ffff919091161782556002908190805462ff000060ff86549260101c16151560101b169062ff00001916178455600181015460018501550154910155565b9061ffff8080931691168092038111613397570190565b61466481600052610133602052604060002090565b90614760825463ffffffff93848260601c16806148ea575b506146956127da85600052610139602052604060002090565b916146d06146af6146a8855461ffff1690565b61ffff1690565b91878160801c16806148cf575b5042888216111590816148bf575b50614573565b6146de60048301548861336c565b8061489d575b5061472a61470a6005840154978916614705855463ffffffff9060a01c1690565b6145b5565b835463ffffffff60a01b191660a09190911b63ffffffff60a01b16178355565b856147ff575b15614784575b5061475061ffff861661474b835461ffff1690565b614638565b61ffff1661ffff19825416179055565b60005b8381106147705750505050565b61477f90610a0584338561497b565b614763565b336000908152610136602052604090206147d791906147a49086906140f3565b80546147b89060401c63ffffffff166145ce565b63ffffffff60401b82549160401b169063ffffffff60401b1916179055565b6147f9816147f4336115bb87600052610139602052604060002090565b6145e4565b38614736565b614809868861336c565b61012f5461481f906001600160a01b0316611c18565b6040516323b872dd60e01b81523360048201523060248201526044810183905290602090829060649082906000905af18015614890575b614872575b5061486b6002850191825461338b565b9055614730565b6148899060203d8111611c8d57611c7f81836110c2565b503861485b565b614898612e4a565b614856565b6148b890600185016148b082825461338b565b90553361490a565b50386146e4565b905087429160201c1611386146ca565b6148e4906148dd8b8661338b565b1115614528565b386146bc565b614904906148fd88888660a01c1661338b565b11156144e9565b3861467c565b61013154604051631e961d2760e01b81526001600160a01b039283166004820152602481019390935260209183916044918391600091165af190811561496e575b600091614956575090565b6134a4915060203d81116122af576122a081836110c2565b614976612e4a565b61494b565b90916149ff906040519061498e8261108c565b815260016020820194818060a01b03809116958681528560005261013b6020526149cf6040600020805490600160401b821015613a23578582018155610e4e565b949094614a41575b518455511691019060018060a01b03166bffffffffffffffffffffffff60a01b825416179055565b7fc41bbb54d04f2268c7895b9330f18468c306a3f92698a92c4c86b297873978486020614a378360005261013b602052604060002090565b54604051908152a3565b614a49613802565b6149d7565b15614a5557565b60405162461bcd60e51b815260206004820152602160248201527f5061727469636970616e7420616c726561647920636c61696d6564207072697a6044820152606560f81b6064820152608490fd5b15614aab57565b60405162461bcd60e51b815260206004820152602260248201527f5061727469636970616e742068617320726571756573746564206120726566756044820152611b9960f21b6064820152608490fd5b9291614b06826136a4565b91614b1460405193846110c2565b829481845260208094019160051b810192831161000e57905b828210614b3a5750505050565b81358152908301908301614b2d565b15614b5057565b60405162461bcd60e51b815260206004820152601460248201527324b73b30b634b21036b2b935b63290383937b7b360611b6044820152606490fd5b929091604051926020840194855260018060a01b03166040840152606083015260808201526080815260a081018181106001600160401b03821117614bd5575b60405251902090565b614bdd611039565b614bcc565b929091906000915b8451831015614c3557614bfd83866143cb565b5190818111614c2057600052602052614c1a604060002092613999565b91614bea565b90600052602052614c1a604060002092613999565b915092501490565b600052610133602052614c7160406000209161013960205260406000209060018060a01b0316600052602052604060002090565b9060ff815460c01c1690614c84826118bf565b60038214918215614cbb575b5081614ca9575b50614ca25750600090565b6002015490565b60ff91506001015460a01c1638614c97565b6001919250614cc9816118bf565b149038614c90565b15614cd857565b60405162461bcd60e51b815260206004820152601060248201526f105b1c9958591e481c99599d5b99195960821b6044820152606490fd5b15614d1757565b60405162461bcd60e51b815260206004820152602560248201527f5061727469636970616e7420686173206e6f20726566756e6461626c65207469604482015264636b65747360d81b6064820152608490fdfeffdfc1249c027f9191656349feb0761381bb32c9f557e01f419fd08754bf5a1ba3aca9ae20a0379d4094b84c749cbed6584ab20f0b71af75f63f6615d879c939360894a13ba1a3210667c828492db98dca3e2076cc3735a920a3ca505d382bbca26469706673582212208993392d205bb714c09bed9340a41f6cfa4439b0cd3017436080457a5bde69ee64736f6c634300080e0033",
  "linkReferences": {},
  "deployedLinkReferences": {}
}