{
  "_format": "hh-sol-artifact-1",
  "contractName": "Lottery",
  "sourceName": "contracts/Lottery/Lottery.sol",
  "abi": [
    {
      "anonymous": false,
      "inputs": [
        {
          "indexed": false,
          "internalType": "address",
          "name": "previousAdmin",
          "type": "address"
        },
        {
          "indexed": false,
          "internalType": "address",
          "name": "newAdmin",
          "type": "address"
        }
      ],
      "name": "AdminChanged",
      "type": "event"
    },
    {
      "anonymous": false,
      "inputs": [
        {
          "indexed": true,
          "internalType": "address",
          "name": "beacon",
          "type": "address"
        }
      ],
      "name": "BeaconUpgraded",
      "type": "event"
    },
    {
      "anonymous": false,
      "inputs": [
        {
          "indexed": false,
          "internalType": "uint8",
          "name": "version",
          "type": "uint8"
        }
      ],
      "name": "Initialized",
      "type": "event"
    },
    {
      "anonymous": false,
      "inputs": [
        {
          "indexed": true,
          "internalType": "uint256",
          "name": "lotteryId",
          "type": "uint256"
        },
        {
          "indexed": false,
          "internalType": "uint256",
          "name": "numberOfPrizes",
          "type": "uint256"
        }
      ],
      "name": "LotteryPrizesCountChanged",
      "type": "event"
    },
    {
      "anonymous": false,
      "inputs": [
        {
          "indexed": true,
          "internalType": "uint256",
          "name": "lotteryId",
          "type": "uint256"
        },
        {
          "indexed": true,
          "internalType": "enum Lottery.Status",
          "name": "status",
          "type": "uint8"
        }
      ],
      "name": "LotteryStatusChanged",
      "type": "event"
    },
    {
      "anonymous": false,
      "inputs": [
        {
          "indexed": false,
          "internalType": "address",
          "name": "account",
          "type": "address"
        }
      ],
      "name": "Paused",
      "type": "event"
    },
    {
      "anonymous": false,
      "inputs": [
        {
          "indexed": true,
          "internalType": "uint256",
          "name": "lotteryId",
          "type": "uint256"
        },
        {
          "indexed": true,
          "internalType": "address",
          "name": "participantAddress",
          "type": "address"
        },
        {
          "indexed": true,
          "internalType": "uint256",
          "name": "prizeId",
          "type": "uint256"
        }
      ],
      "name": "PrizeClaimed",
      "type": "event"
    },
    {
      "anonymous": false,
      "inputs": [
        {
          "indexed": true,
          "internalType": "uint256",
          "name": "lotteryId",
          "type": "uint256"
        },
        {
          "indexed": true,
          "internalType": "address",
          "name": "participantAddress",
          "type": "address"
        },
        {
          "indexed": false,
          "internalType": "uint256",
          "name": "refundAmount",
          "type": "uint256"
        }
      ],
      "name": "Refunded",
      "type": "event"
    },
    {
      "anonymous": false,
      "inputs": [
        {
          "indexed": true,
          "internalType": "uint256",
          "name": "lotteryId",
          "type": "uint256"
        },
        {
          "indexed": true,
          "internalType": "bytes32",
          "name": "requestId",
          "type": "bytes32"
        }
      ],
      "name": "RequestNumbers",
      "type": "event"
    },
    {
      "anonymous": false,
      "inputs": [
        {
          "indexed": true,
          "internalType": "bytes32",
          "name": "requestId",
          "type": "bytes32"
        }
      ],
      "name": "ResponseReceived",
      "type": "event"
    },
    {
      "anonymous": false,
      "inputs": [
        {
          "indexed": true,
          "internalType": "bytes32",
          "name": "role",
          "type": "bytes32"
        },
        {
          "indexed": true,
          "internalType": "bytes32",
          "name": "previousAdminRole",
          "type": "bytes32"
        },
        {
          "indexed": true,
          "internalType": "bytes32",
          "name": "newAdminRole",
          "type": "bytes32"
        }
      ],
      "name": "RoleAdminChanged",
      "type": "event"
    },
    {
      "anonymous": false,
      "inputs": [
        {
          "indexed": true,
          "internalType": "bytes32",
          "name": "role",
          "type": "bytes32"
        },
        {
          "indexed": true,
          "internalType": "address",
          "name": "account",
          "type": "address"
        },
        {
          "indexed": true,
          "internalType": "address",
          "name": "sender",
          "type": "address"
        }
      ],
      "name": "RoleGranted",
      "type": "event"
    },
    {
      "anonymous": false,
      "inputs": [
        {
          "indexed": true,
          "internalType": "bytes32",
          "name": "role",
          "type": "bytes32"
        },
        {
          "indexed": true,
          "internalType": "address",
          "name": "account",
          "type": "address"
        },
        {
          "indexed": true,
          "internalType": "address",
          "name": "sender",
          "type": "address"
        }
      ],
      "name": "RoleRevoked",
      "type": "event"
    },
    {
      "anonymous": false,
      "inputs": [
        {
          "indexed": false,
          "internalType": "address",
          "name": "operator",
          "type": "address"
        },
        {
          "indexed": false,
          "internalType": "uint256",
          "name": "lotteryId",
          "type": "uint256"
        },
        {
          "indexed": false,
          "internalType": "uint256",
          "name": "priceOfTicket",
          "type": "uint256"
        }
      ],
      "name": "TicketCostChanged",
      "type": "event"
    },
    {
      "anonymous": false,
      "inputs": [
        {
          "indexed": true,
          "internalType": "uint256",
          "name": "lotteryId",
          "type": "uint256"
        },
        {
          "indexed": false,
          "internalType": "uint256",
          "name": "ticketNumber",
          "type": "uint256"
        },
        {
          "indexed": true,
          "internalType": "address",
          "name": "participantAddress",
          "type": "address"
        }
      ],
      "name": "TicketSold",
      "type": "event"
    },
    {
      "anonymous": false,
      "inputs": [
        {
          "indexed": false,
          "internalType": "address",
          "name": "account",
          "type": "address"
        }
      ],
      "name": "Unpaused",
      "type": "event"
    },
    {
      "anonymous": false,
      "inputs": [
        {
          "indexed": true,
          "internalType": "address",
          "name": "implementation",
          "type": "address"
        }
      ],
      "name": "Upgraded",
      "type": "event"
    },
    {
      "inputs": [],
      "name": "DEFAULT_ADMIN_ROLE",
      "outputs": [
        {
          "internalType": "bytes32",
          "name": "",
          "type": "bytes32"
        }
      ],
      "stateMutability": "view",
      "type": "function"
    },
    {
      "inputs": [
        {
          "internalType": "uint256",
          "name": "_lotteryId",
          "type": "uint256"
        },
        {
          "internalType": "uint256[]",
          "name": "_prizeIds",
          "type": "uint256[]"
        },
        {
          "internalType": "uint16[]",
          "name": "_prizeAmounts",
          "type": "uint16[]"
        }
      ],
      "name": "addPrizes",
      "outputs": [],
      "stateMutability": "nonpayable",
      "type": "function"
    },
    {
      "inputs": [
        {
          "internalType": "uint256",
          "name": "_lotteryId",
          "type": "uint256"
        }
      ],
      "name": "askForRefund",
      "outputs": [],
      "stateMutability": "nonpayable",
      "type": "function"
    },
    {
      "inputs": [
        {
          "internalType": "uint256",
          "name": "_lotteryId",
          "type": "uint256"
        },
        {
          "internalType": "uint256",
          "name": "_numberOfTicketsToBuy",
          "type": "uint256"
        }
      ],
      "name": "buyTickets",
      "outputs": [],
      "stateMutability": "nonpayable",
      "type": "function"
    },
    {
      "inputs": [
        {
          "internalType": "uint256",
          "name": "_points",
          "type": "uint256"
        },
        {
          "internalType": "uint256",
          "name": "_lotteryId",
          "type": "uint256"
        },
        {
          "internalType": "uint256",
          "name": "_numberOfTicketsToBuy",
          "type": "uint256"
        },
        {
          "internalType": "bytes",
          "name": "_sig",
          "type": "bytes"
        }
      ],
      "name": "buyTicketsWithSignedMessage",
      "outputs": [],
      "stateMutability": "nonpayable",
      "type": "function"
    },
    {
      "inputs": [
        {
          "internalType": "uint256",
          "name": "_lotteryId",
          "type": "uint256"
        }
      ],
      "name": "cancelLottery",
      "outputs": [],
      "stateMutability": "nonpayable",
      "type": "function"
    },
    {
      "inputs": [
        {
          "internalType": "uint256",
          "name": "_lotteryId",
          "type": "uint256"
        },
        {
          "internalType": "uint32",
          "name": "_time",
          "type": "uint32"
        }
      ],
      "name": "changeCloseTime",
      "outputs": [],
      "stateMutability": "nonpayable",
      "type": "function"
    },
    {
      "inputs": [
        {
          "internalType": "uint256",
          "name": "_lotteryId",
          "type": "uint256"
        },
        {
          "internalType": "address",
          "name": "_winner",
          "type": "address"
        },
        {
          "internalType": "uint256",
          "name": "_prizeId",
          "type": "uint256"
        },
        {
          "internalType": "uint256",
          "name": "_ticketNumber",
          "type": "uint256"
        },
        {
          "internalType": "bytes32[]",
          "name": "_proof",
          "type": "bytes32[]"
        }
      ],
      "name": "claimPrize",
      "outputs": [],
      "stateMutability": "nonpayable",
      "type": "function"
    },
    {
      "inputs": [
        {
          "internalType": "uint256",
          "name": "",
          "type": "uint256"
        },
        {
          "internalType": "uint256",
          "name": "",
          "type": "uint256"
        }
      ],
      "name": "claimedPrizes",
      "outputs": [
        {
          "internalType": "bool",
          "name": "",
          "type": "bool"
        }
      ],
      "stateMutability": "view",
      "type": "function"
    },
    {
      "inputs": [
        {
          "internalType": "uint256",
          "name": "_lotteryId",
          "type": "uint256"
        },
        {
          "internalType": "uint256",
          "name": "_collectionId",
          "type": "uint256"
        },
        {
          "internalType": "uint256",
          "name": "_ticketCostPoints",
          "type": "uint256"
        },
        {
          "internalType": "uint256",
          "name": "_ticketCostTokens",
          "type": "uint256"
        },
        {
          "internalType": "uint32",
          "name": "_startTime",
          "type": "uint32"
        },
        {
          "internalType": "uint32",
          "name": "_closeTime",
          "type": "uint32"
        },
        {
          "internalType": "contract INFT",
          "name": "_nftContract",
          "type": "address"
        },
        {
          "internalType": "bool",
          "name": "_isRefundable",
          "type": "bool"
        },
        {
          "internalType": "uint256",
          "name": "_defaultPrizeId",
          "type": "uint256"
        },
        {
          "internalType": "uint16",
          "name": "_maxTickets",
          "type": "uint16"
        },
        {
          "internalType": "uint16",
          "name": "_maxTicketsPerUser",
          "type": "uint16"
        },
        {
          "internalType": "uint256[]",
          "name": "_prizeIds",
          "type": "uint256[]"
        },
        {
          "internalType": "uint16[]",
          "name": "_prizeAmounts",
          "type": "uint16[]"
        }
      ],
      "name": "createLottery",
      "outputs": [],
      "stateMutability": "nonpayable",
      "type": "function"
    },
    {
      "inputs": [],
      "name": "getLotteryCount",
      "outputs": [
        {
          "internalType": "uint256",
          "name": "",
          "type": "uint256"
        }
      ],
      "stateMutability": "view",
      "type": "function"
    },
    {
      "inputs": [
        {
          "internalType": "uint256",
          "name": "_lotteryId",
          "type": "uint256"
        }
      ],
      "name": "getLotteryInfo",
      "outputs": [
        {
          "components": [
            {
              "internalType": "uint32",
              "name": "startTime",
              "type": "uint32"
            },
            {
              "internalType": "uint32",
              "name": "closeTime",
              "type": "uint32"
            },
            {
              "internalType": "uint32",
              "name": "participantsCount",
              "type": "uint32"
            },
            {
              "internalType": "uint32",
              "name": "maxTickets",
              "type": "uint32"
            },
            {
              "internalType": "uint32",
              "name": "maxTicketsPerUser",
              "type": "uint32"
            },
            {
              "internalType": "uint32",
              "name": "numberOfTicketsSold",
              "type": "uint32"
            },
            {
              "internalType": "enum Lottery.Status",
              "name": "status",
              "type": "uint8"
            },
            {
              "internalType": "contract INFT",
              "name": "nftContract",
              "type": "address"
            },
            {
              "internalType": "bool",
              "name": "isRefundable",
              "type": "bool"
            },
            {
              "internalType": "uint256",
              "name": "lotteryID",
              "type": "uint256"
            },
            {
              "internalType": "uint256",
              "name": "dropId",
              "type": "uint256"
            },
            {
              "internalType": "uint256",
              "name": "ticketCostPoints",
              "type": "uint256"
            },
            {
              "internalType": "uint256",
              "name": "ticketCostTokens",
              "type": "uint256"
            },
            {
              "internalType": "uint256",
              "name": "defaultPrizeId",
              "type": "uint256"
            }
          ],
          "internalType": "struct Lottery.LotteryInfo",
          "name": "",
          "type": "tuple"
        }
      ],
      "stateMutability": "view",
      "type": "function"
    },
    {
      "inputs": [
        {
          "internalType": "uint256",
          "name": "_lotteryId",
          "type": "uint256"
        }
      ],
      "name": "getLotteryTicketCount",
      "outputs": [
        {
          "internalType": "uint256",
          "name": "",
          "type": "uint256"
        }
      ],
      "stateMutability": "view",
      "type": "function"
    },
    {
      "inputs": [
        {
          "internalType": "uint256",
          "name": "_lotteryId",
          "type": "uint256"
        },
        {
          "internalType": "uint256",
          "name": "_from",
          "type": "uint256"
        },
        {
          "internalType": "uint256",
          "name": "_to",
          "type": "uint256"
        }
      ],
      "name": "getLotteryTickets",
      "outputs": [
        {
          "components": [
            {
              "internalType": "uint256",
              "name": "ticketCostInCoins",
              "type": "uint256"
            },
            {
              "internalType": "address",
              "name": "owner",
              "type": "address"
            }
          ],
          "internalType": "struct Lottery.Ticket[]",
          "name": "",
          "type": "tuple[]"
        }
      ],
      "stateMutability": "view",
      "type": "function"
    },
    {
      "inputs": [
        {
          "internalType": "address",
          "name": "_participant",
          "type": "address"
        }
      ],
      "name": "getParticipantHistory",
      "outputs": [
        {
          "internalType": "uint256[]",
          "name": "",
          "type": "uint256[]"
        }
      ],
      "stateMutability": "view",
      "type": "function"
    },
    {
      "inputs": [
        {
          "internalType": "uint256",
          "name": "_lotteryId",
          "type": "uint256"
        }
      ],
      "name": "getParticipantsCount",
      "outputs": [
        {
          "internalType": "uint32",
          "name": "",
          "type": "uint32"
        }
      ],
      "stateMutability": "view",
      "type": "function"
    },
    {
      "inputs": [
        {
          "internalType": "uint256",
          "name": "_lotteryId",
          "type": "uint256"
        }
      ],
      "name": "getPrizes",
      "outputs": [
        {
          "components": [
            {
              "internalType": "uint256",
              "name": "prizeId",
              "type": "uint256"
            },
            {
              "internalType": "uint16",
              "name": "numberOfEditions",
              "type": "uint16"
            }
          ],
          "internalType": "struct Lottery.PrizeInfo[]",
          "name": "",
          "type": "tuple[]"
        }
      ],
      "stateMutability": "view",
      "type": "function"
    },
    {
      "inputs": [
        {
          "internalType": "uint256",
          "name": "_lotteryId",
          "type": "uint256"
        },
        {
          "internalType": "address",
          "name": "_user",
          "type": "address"
        }
      ],
      "name": "getRefundableCoinBalance",
      "outputs": [
        {
          "internalType": "uint256",
          "name": "",
          "type": "uint256"
        }
      ],
      "stateMutability": "view",
      "type": "function"
    },
    {
      "inputs": [
        {
          "internalType": "bytes32",
          "name": "role",
          "type": "bytes32"
        }
      ],
      "name": "getRoleAdmin",
      "outputs": [
        {
          "internalType": "bytes32",
          "name": "",
          "type": "bytes32"
        }
      ],
      "stateMutability": "view",
      "type": "function"
    },
    {
      "inputs": [
        {
          "internalType": "uint256",
          "name": "_lotteryId",
          "type": "uint256"
        },
        {
          "internalType": "address",
          "name": "_user",
          "type": "address"
        }
      ],
      "name": "getTicketCountPerUser",
      "outputs": [
        {
          "internalType": "uint256",
          "name": "",
          "type": "uint256"
        }
      ],
      "stateMutability": "view",
      "type": "function"
    },
    {
      "inputs": [
        {
          "internalType": "uint256",
          "name": "_lotteryId",
          "type": "uint256"
        }
      ],
      "name": "getWhitelist",
      "outputs": [
        {
          "internalType": "address",
          "name": "",
          "type": "address"
        }
      ],
      "stateMutability": "view",
      "type": "function"
    },
    {
      "inputs": [
        {
          "internalType": "bytes32",
          "name": "role",
          "type": "bytes32"
        },
        {
          "internalType": "address",
          "name": "account",
          "type": "address"
        }
      ],
      "name": "grantRole",
      "outputs": [],
      "stateMutability": "nonpayable",
      "type": "function"
    },
    {
      "inputs": [
        {
          "internalType": "bytes32",
          "name": "role",
          "type": "bytes32"
        },
        {
          "internalType": "address",
          "name": "account",
          "type": "address"
        }
      ],
      "name": "hasRole",
      "outputs": [
        {
          "internalType": "bool",
          "name": "",
          "type": "bool"
        }
      ],
      "stateMutability": "view",
      "type": "function"
    },
    {
      "inputs": [
        {
          "internalType": "address",
          "name": "_rewardsContract",
          "type": "address"
        },
        {
          "internalType": "address",
          "name": "_admin",
          "type": "address"
        },
        {
          "internalType": "address",
          "name": "_token",
          "type": "address"
        }
      ],
      "name": "initialize",
      "outputs": [],
      "stateMutability": "nonpayable",
      "type": "function"
    },
    {
      "inputs": [
        {
          "internalType": "uint256",
          "name": "",
          "type": "uint256"
        }
      ],
      "name": "lotteries",
      "outputs": [
        {
          "internalType": "uint256",
          "name": "",
          "type": "uint256"
        }
      ],
      "stateMutability": "view",
      "type": "function"
    },
    {
      "inputs": [
        {
          "internalType": "uint256",
          "name": "",
          "type": "uint256"
        },
        {
          "internalType": "uint256",
          "name": "",
          "type": "uint256"
        }
      ],
      "name": "lotteryTickets",
      "outputs": [
        {
          "internalType": "uint256",
          "name": "ticketCostInCoins",
          "type": "uint256"
        },
        {
          "internalType": "address",
          "name": "owner",
          "type": "address"
        }
      ],
      "stateMutability": "view",
      "type": "function"
    },
    {
      "inputs": [
        {
          "internalType": "uint256",
          "name": "",
          "type": "uint256"
        },
        {
          "internalType": "address",
          "name": "",
          "type": "address"
        }
      ],
      "name": "participants",
      "outputs": [
        {
          "internalType": "uint16",
          "name": "totalTicketsBought",
          "type": "uint16"
        },
        {
          "internalType": "bool",
          "name": "claimedPrize",
          "type": "bool"
        },
        {
          "internalType": "uint256",
          "name": "refundablePoints",
          "type": "uint256"
        },
        {
          "internalType": "uint256",
          "name": "refundableValue",
          "type": "uint256"
        }
      ],
      "stateMutability": "view",
      "type": "function"
    },
    {
      "inputs": [],
      "name": "pause",
      "outputs": [],
      "stateMutability": "nonpayable",
      "type": "function"
    },
    {
      "inputs": [],
      "name": "paused",
      "outputs": [
        {
          "internalType": "bool",
          "name": "",
          "type": "bool"
        }
      ],
      "stateMutability": "view",
      "type": "function"
    },
    {
      "inputs": [
        {
          "internalType": "uint256",
          "name": "_lotteryId",
          "type": "uint256"
        },
        {
          "internalType": "uint256",
          "name": "_ticketNumber",
          "type": "uint256"
        }
      ],
      "name": "prizeClaimed",
      "outputs": [
        {
          "internalType": "bool",
          "name": "",
          "type": "bool"
        }
      ],
      "stateMutability": "view",
      "type": "function"
    },
    {
      "inputs": [
        {
          "internalType": "uint256",
          "name": "",
          "type": "uint256"
        }
      ],
      "name": "prizeMerkleRoots",
      "outputs": [
        {
          "internalType": "bytes32",
          "name": "",
          "type": "bytes32"
        }
      ],
      "stateMutability": "view",
      "type": "function"
    },
    {
      "inputs": [
        {
          "internalType": "uint256",
          "name": "",
          "type": "uint256"
        },
        {
          "internalType": "uint256",
          "name": "",
          "type": "uint256"
        }
      ],
      "name": "prizes",
      "outputs": [
        {
          "internalType": "uint256",
          "name": "prizeId",
          "type": "uint256"
        },
        {
          "internalType": "uint16",
          "name": "numberOfEditions",
          "type": "uint16"
        }
      ],
      "stateMutability": "view",
      "type": "function"
    },
    {
      "inputs": [],
      "name": "proxiableUUID",
      "outputs": [
        {
          "internalType": "bytes32",
          "name": "",
          "type": "bytes32"
        }
      ],
      "stateMutability": "view",
      "type": "function"
    },
    {
      "inputs": [],
      "name": "randomGenerator",
      "outputs": [
        {
          "internalType": "contract IRandomNumberGenerator",
          "name": "",
          "type": "address"
        }
      ],
      "stateMutability": "view",
      "type": "function"
    },
    {
      "inputs": [
        {
          "internalType": "uint256",
          "name": "",
          "type": "uint256"
        }
      ],
      "name": "randomSeeds",
      "outputs": [
        {
          "internalType": "uint256",
          "name": "",
          "type": "uint256"
        }
      ],
      "stateMutability": "view",
      "type": "function"
    },
    {
      "inputs": [
        {
          "internalType": "uint256",
          "name": "_lotteryId",
          "type": "uint256"
        },
        {
          "internalType": "bytes32",
          "name": "_requestId",
          "type": "bytes32"
        },
        {
          "internalType": "uint256",
          "name": "_randomNumber",
          "type": "uint256"
        }
      ],
      "name": "receiveRandomNumber",
      "outputs": [],
      "stateMutability": "nonpayable",
      "type": "function"
    },
    {
      "inputs": [
        {
          "internalType": "uint256",
          "name": "_lotteryId",
          "type": "uint256"
        },
        {
          "internalType": "uint256",
          "name": "_index",
          "type": "uint256"
        }
      ],
      "name": "removePrize",
      "outputs": [],
      "stateMutability": "nonpayable",
      "type": "function"
    },
    {
      "inputs": [
        {
          "internalType": "bytes32",
          "name": "role",
          "type": "bytes32"
        },
        {
          "internalType": "address",
          "name": "account",
          "type": "address"
        }
      ],
      "name": "renounceRole",
      "outputs": [],
      "stateMutability": "nonpayable",
      "type": "function"
    },
    {
      "inputs": [
        {
          "internalType": "uint256",
          "name": "_lotteryId",
          "type": "uint256"
        }
      ],
      "name": "requestRandomNumber",
      "outputs": [],
      "stateMutability": "nonpayable",
      "type": "function"
    },
    {
      "inputs": [
        {
          "internalType": "bytes32",
          "name": "role",
          "type": "bytes32"
        },
        {
          "internalType": "address",
          "name": "account",
          "type": "address"
        }
      ],
      "name": "revokeRole",
      "outputs": [],
      "stateMutability": "nonpayable",
      "type": "function"
    },
    {
      "inputs": [],
      "name": "rewardsContract",
      "outputs": [
        {
          "internalType": "contract IRewards",
          "name": "",
          "type": "address"
        }
      ],
      "stateMutability": "view",
      "type": "function"
    },
    {
      "inputs": [
        {
          "internalType": "uint256",
          "name": "_lotteryId",
          "type": "uint256"
        },
        {
          "internalType": "uint32",
          "name": "_maxTickets",
          "type": "uint32"
        }
      ],
      "name": "setMaxTickets",
      "outputs": [],
      "stateMutability": "nonpayable",
      "type": "function"
    },
    {
      "inputs": [
        {
          "internalType": "uint256",
          "name": "_lotteryId",
          "type": "uint256"
        },
        {
          "internalType": "uint32",
          "name": "_maxTicketsPerUser",
          "type": "uint32"
        }
      ],
      "name": "setMaxTicketsPerUser",
      "outputs": [],
      "stateMutability": "nonpayable",
      "type": "function"
    },
    {
      "inputs": [
        {
          "internalType": "uint256",
          "name": "_lotteryId",
          "type": "uint256"
        },
        {
          "internalType": "bytes32",
          "name": "_root",
          "type": "bytes32"
        }
      ],
      "name": "setPrizeMerkleRoot",
      "outputs": [],
      "stateMutability": "nonpayable",
      "type": "function"
    },
    {
      "inputs": [
        {
          "internalType": "address",
          "name": "_IRandomNumberGenerator",
          "type": "address"
        }
      ],
      "name": "setRandomGenerator",
      "outputs": [],
      "stateMutability": "nonpayable",
      "type": "function"
    },
    {
      "inputs": [
        {
          "internalType": "address",
          "name": "_rewardsContract",
          "type": "address"
        }
      ],
      "name": "setRewardsContract",
      "outputs": [],
      "stateMutability": "nonpayable",
      "type": "function"
    },
    {
      "inputs": [
        {
          "internalType": "address",
          "name": "_signer",
          "type": "address"
        }
      ],
      "name": "setSignerAddress",
      "outputs": [],
      "stateMutability": "nonpayable",
      "type": "function"
    },
    {
      "inputs": [
        {
          "internalType": "address",
          "name": "_token",
          "type": "address"
        }
      ],
      "name": "setToken",
      "outputs": [],
      "stateMutability": "nonpayable",
      "type": "function"
    },
    {
      "inputs": [
        {
          "internalType": "uint256",
          "name": "_lotteryId",
          "type": "uint256"
        },
        {
          "internalType": "address",
          "name": "_whitelist",
          "type": "address"
        }
      ],
      "name": "setWhitelist",
      "outputs": [],
      "stateMutability": "nonpayable",
      "type": "function"
    },
    {
      "inputs": [],
      "name": "signerAddress",
      "outputs": [
        {
          "internalType": "address",
          "name": "",
          "type": "address"
        }
      ],
      "stateMutability": "view",
      "type": "function"
    },
    {
      "inputs": [
        {
          "internalType": "bytes4",
          "name": "interfaceId",
          "type": "bytes4"
        }
      ],
      "name": "supportsInterface",
      "outputs": [
        {
          "internalType": "bool",
          "name": "",
          "type": "bool"
        }
      ],
      "stateMutability": "view",
      "type": "function"
    },
    {
      "inputs": [],
      "name": "token",
      "outputs": [
        {
          "internalType": "contract IERC20",
          "name": "",
          "type": "address"
        }
      ],
      "stateMutability": "view",
      "type": "function"
    },
    {
      "inputs": [],
      "name": "unpause",
      "outputs": [],
      "stateMutability": "nonpayable",
      "type": "function"
    },
    {
      "inputs": [
        {
          "internalType": "uint256",
          "name": "lotteryId",
          "type": "uint256"
        },
        {
          "internalType": "uint256",
          "name": "_ticketCostPoints",
          "type": "uint256"
        },
        {
          "internalType": "uint256",
          "name": "_ticketCostTokens",
          "type": "uint256"
        },
        {
          "internalType": "uint32",
          "name": "_startTime",
          "type": "uint32"
        },
        {
          "internalType": "uint32",
          "name": "_closeTime",
          "type": "uint32"
        },
        {
          "internalType": "contract INFT",
          "name": "_nftContract",
          "type": "address"
        },
        {
          "internalType": "uint16",
          "name": "_maxTickets",
          "type": "uint16"
        },
        {
          "internalType": "uint256",
          "name": "_defaultPrizeId",
          "type": "uint256"
        },
        {
          "internalType": "enum Lottery.Status",
          "name": "_status",
          "type": "uint8"
        },
        {
          "internalType": "bool",
          "name": "_isRefundable",
          "type": "bool"
        }
      ],
      "name": "updateLottery",
      "outputs": [],
      "stateMutability": "nonpayable",
      "type": "function"
    },
    {
      "inputs": [
        {
          "internalType": "address",
          "name": "newImplementation",
          "type": "address"
        }
      ],
      "name": "upgradeTo",
      "outputs": [],
      "stateMutability": "nonpayable",
      "type": "function"
    },
    {
      "inputs": [
        {
          "internalType": "address",
          "name": "newImplementation",
          "type": "address"
        },
        {
          "internalType": "bytes",
          "name": "data",
          "type": "bytes"
        }
      ],
      "name": "upgradeToAndCall",
      "outputs": [],
      "stateMutability": "payable",
      "type": "function"
    },
    {
      "inputs": [
        {
          "internalType": "uint256",
          "name": "",
          "type": "uint256"
        }
      ],
      "name": "whitelists",
      "outputs": [
        {
          "internalType": "address",
          "name": "",
          "type": "address"
        }
      ],
      "stateMutability": "view",
      "type": "function"
    },
    {
      "inputs": [
        {
          "internalType": "address",
          "name": "_to",
          "type": "address"
        },
        {
          "internalType": "uint256",
          "name": "_amount",
          "type": "uint256"
        }
      ],
      "name": "withdraw",
      "outputs": [],
      "stateMutability": "nonpayable",
      "type": "function"
    },
    {
      "inputs": [
        {
          "internalType": "uint256",
          "name": "",
          "type": "uint256"
        }
      ],
      "name": "withdrawals",
      "outputs": [
        {
          "internalType": "uint256",
          "name": "",
          "type": "uint256"
        }
      ],
      "stateMutability": "view",
      "type": "function"
    }
  ],
  "bytecode": "0x60a080604052346100315730608052614f2790816100378239608051818181610bc7015281816111bb015261127c0152f35b600080fdfe60806040526004361015610013575b600080fd5b60003560e01c806301ffc9a7146104a657806302e060c61461049d578063046dc166146104945780631398e0761461048b578063144fa6d714610482578063220cce97146104795780632368040014610470578063248a9ca314610467578063289906831461045e5780632c75d03e146104555780632f2ff15d1461044c5780632f9aa1fe1461044357806336568abe1461043a5780633659cfe6146104315780633f4ba83a1461042857806340cf23d91461041f5780634538f2971461041657806349c0de881461040d5780634a004467146104045780634bc19fee146103fb5780634f1ef286146103f257806350612da6146103e957806352d1902d146103e05780635b7633d0146103d75780635c975abb146103ce5780635cc07076146103c55780636131dee6146103bc5780636a55e2ae146103b35780636a6be315146103aa5780636cf64a33146103a15780636e55ce1d146103985780637350ab2c1461038f57806376b3c8a81461038657806378a03c471461037d5780638456cb59146103745780638627df461461036b57806391834cf41461036257806391d148541461035957806396db752a146103505780639b7fecc314610347578063a217fddf1461033e578063b1eb96c914610335578063bf4002b21461032c578063c0c53b8b14610323578063c11ab6151461031a578063cc30779514610311578063d098a2f014610308578063d547741f146102ff578063d89da286146102f6578063db2c0fd1146102b7578063dcbad90d146102ed578063dfa0dfa5146102e4578063ec909ce2146102db578063f3fef3a3146102d2578063f5f48998146102c9578063f7121de6146102c0578063f90328d5146102b7578063fc0c546a146102ae5763fe4d5add146102a657600080fd5b61000e611e34565b5061000e612960565b5061000e612522565b5061000e6128c0565b5061000e612889565b5061000e6127ce565b5061000e6125f6565b5061000e61258e565b5061000e612563565b5061000e6124a8565b5061000e612465565b5061000e612437565b5061000e6123a7565b5061000e612322565b5061000e6121e9565b5061000e61216f565b5061000e611fdd565b5061000e611fc0565b5061000e611ebd565b5061000e611e34565b5061000e611ddd565b5061000e611cd7565b5061000e611bd2565b5061000e611b51565b5061000e611ac9565b5061000e6119ea565b5061000e611882565b5061000e61182f565b5061000e611579565b5061000e6114a5565b5061000e61142e565b5061000e6113af565b5061000e611381565b5061000e61135d565b5061000e611332565b5061000e611268565b5061000e611216565b5061000e611160565b5061000e610f89565b5061000e610f0a565b5061000e610e78565b5061000e610d78565b5061000e610d21565b5061000e610c68565b5061000e610b99565b5061000e610b00565b5061000e610ae0565b5061000e610a0f565b5061000e6108a8565b5061000e61075c565b5061000e61072c565b5061000e6106fe565b5061000e6106d3565b5061000e610660565b5061000e61060d565b5061000e61058b565b5061000e61050e565b503461000e57602036600319011261000e5760043563ffffffff60e01b811680910361000e57602090637965db0b60e01b81149081156104ec575b506040519015158152f35b6301ffc9a760e01b149050386104e1565b6001600160a01b0381160361000e57565b503461000e57604036600319011261000e576080610559602435610531816104fd565b60043560005261013960205260406000209060018060a01b0316600052602052604060002090565b805490600260018201549101549060ff6040519361ffff8116855260101c161515602084015260408301526060820152f35b503461000e57602036600319011261000e576004356105a9816104fd565b336000908152600080516020614e92833981519152602052604090206105d49060ff905b541661351d565b61012e80546001600160a01b0319166001600160a01b03909216919091179055005b50634e487b7160e01b600052603260045260246000fd5b503461000e57602036600319011261000e5760043561013290815481101561000e576020916000527fc53bdfd4aa1ab65dfdaf681ca6bda958ae4a123d4ed68c4277796592280e78350154604051908152f35b503461000e57602036600319011261000e5760043561067e816104fd565b336000908152600080516020614e92833981519152602052604090206106a69060ff906105cd565b61012f80546001600160a01b0319166001600160a01b03909216919091179055005b600091031261000e57565b503461000e57600036600319011261000e57610131546040516001600160a01b039091168152602090f35b503461000e57602036600319011261000e5760043560005261013a6020526020604060002054604051908152f35b503461000e57602036600319011261000e5760043560005260656020526020600160406000200154604051908152f35b503461000e57606036600319011261000e5761013054600435906001600160a01b0316330361084057806000918252610133602052610812604083206107b5600260ff835460c01c166004811015610833575b146144ad565b6024357f8e372cc311d12a5394f598c3c41b36e9775c6cb51b99fde2aaca7978a8ec713f85604051a2805460ff60c01b1916600360c01b1781556044356108078460005261013a602052604060002090565b555460c01c60ff1690565b61081b816118f5565b60405191600080516020614eb28339815191528484a3f35b61083b6118de565b6107af565b60405162461bcd60e51b815260206004820152601060248201526f4f6e6c7920524e47206164647265737360801b6044820152606490fd5b9181601f8401121561000e578235916001600160401b03831161000e576020808501948460051b01011161000e57565b503461000e57606036600319011261000e576001600160401b0360043560243582811161000e576108dd903690600401610878565b909260443590811161000e576108f7903690600401610878565b336000908152600080516020614e928339815191526020908152604082209196929392916109279060ff906105cd565b858752610133815261095863ffffffff61095061094660408b206135e6565b5163ffffffff1690565b1615156137b6565b6109638515156137fb565b61096e848614613847565b865b8581106109ac57604051868152889088907f8840be43b589db14b534f6e7451c1e971a9aa90c72beae7ae076d12ce2d6e7d490602090a2604051f35b610a0a90610a056109c889600052610137602052604060002090565b6109d3838a886138b9565b3590610a006109eb6109e6868c8c6138b9565b6138d1565b6109f36110e3565b93845261ffff1687840152565b6138db565b6138a9565b610970565b503461000e5760408060031936011261000e5760043590602435610a32816104fd565b6000928084526065602052610a4c6001848620015461298b565b808452606560209081528385206001600160a01b03841660009081529152604090205460ff1615610a7c57505051f35b808452606560209081528385206001600160a01b0384166000908152915260409020805460ff19166001179055825133926001600160a01b031691907f2f8788117e7eff1d82e926ec794901d17c78024a50270940304540a733656f0d908690a451f35b503461000e57600036600319011261000e57602061013254604051908152f35b503461000e57604036600319011261000e57602435610b1e816104fd565b336001600160a01b03821603610b3c57610b3a90600435612bde565b005b60405162461bcd60e51b815260206004820152602f60248201527f416363657373436f6e74726f6c3a2063616e206f6e6c792072656e6f756e636560448201526e103937b632b9903337b91039b2b63360891b6064820152608490fd5b503461000e57602036600319011261000e57610b3a600435610bba816104fd565b610c0c6001600160a01b037f0000000000000000000000000000000000000000000000000000000000000000811690610bf530831415612c6e565b600080516020614ed2833981519152541614612ccf565b336000908152600080516020614e9283398151915260205260409020610c349060ff906105cd565b60405190602082018281106001600160401b03821117610c5b575b60405260008252612e14565b610c63611039565b610c4f565b503461000e57600080600319360112610d1e5780805260656020908152604080832033600090815292529020610ca09060ff906105cd565b60fb5460ff811615610ce25760ff191660fb557f5db9ee0a495bf2e6ff9c91a7834c1ba4fdd244a5e8aa4e537bd38aeae4b073aa6020604051338152a1604051f35b60405162461bcd60e51b815260206004820152601460248201527314185d5cd8589b194e881b9bdd081c185d5cd95960621b6044820152606490fd5b80fd5b503461000e57604036600319011261000e57602061ffff610d6e602435610d47816104fd565b600435600052610139845260406000209060018060a01b0316600052602052604060002090565b5416604051908152f35b503461000e57602036600319011261000e57336000908152600080516020614e928339815191526020526040812060043590610db69060ff906105cd565b80825261013360205260408220600360ff825460c01c166004811015610e41575b14610dfc57805460ff60c01b1916600160c01b178155610812905b5460c01c60ff1690565b60405162461bcd60e51b815260206004820152601960248201527f4c6f747465727920616c726561647920636f6d706c65746564000000000000006044820152606490fd5b610e496118de565b610dd7565b8054821015610e6b575b60005260206000209060011b0190600090565b610e736105f6565b610e58565b503461000e57604036600319011261000e5760243560043560005261013b6020526040600020805482101561000e57604091610eb391610e4e565b50805460019091015482519182526001600160a01b03166020820152f35b6024359063ffffffff8216820361000e57565b6084359063ffffffff8216820361000e57565b60a4359063ffffffff8216820361000e57565b503461000e57604036600319011261000e57610f24610ed1565b336000908152600080516020614e92833981519152602052604081209091610f8491610f529060ff906105cd565b600435835261013360205260408320805463ffffffff60801b191660809290921b63ffffffff60801b16919091179055565b604051f35b503461000e57602036600319011261000e57600435610fa7816104fd565b336000908152600080516020614e9283398151915260205260409020610fcf9060ff906105cd565b6001600160a01b03168015610ff45761013080546001600160a01b0319169091179055005b60405162461bcd60e51b815260206004820152601d60248201527f436f6e7472616374732063616e6e6f74206265203020616464726573730000006044820152606490fd5b50634e487b7160e01b600052604160045260246000fd5b6001600160401b03811161106357604052565b61106b611039565b604052565b6101c081019081106001600160401b0382111761106357604052565b604081019081106001600160401b0382111761106357604052565b606081019081106001600160401b0382111761106357604052565b90601f801991011681019081106001600160401b0382111761106357604052565b604051906110f08261108c565b565b604051906110f082611070565b6020906001600160401b03811161111c575b601f01601f19160190565b611124611039565b611111565b929192611135826110ff565b9161114360405193846110c2565b82948184528183011161000e578281602093846000960137010152565b50604036600319011261000e57600435611179816104fd565b602435906001600160401b03821161000e573660238301121561000e576111ad610b3a923690602481600401359101611129565b906111e96001600160a01b037f0000000000000000000000000000000000000000000000000000000000000000811690610bf530831415612c6e565b336000908152600080516020614e92833981519152602052604090206112119060ff906105cd565b612ed7565b503461000e57604036600319011261000e57336000908152600080516020614e92833981519152602052604081206112509060ff906105cd565b60043581526101356020526024356040822055604051f35b503461000e57600036600319011261000e577f00000000000000000000000000000000000000000000000000000000000000006001600160a01b031630036112c757604051600080516020614ed28339815191528152602090f35b0390f35b60405162461bcd60e51b815260206004820152603860248201527f555550535570677261646561626c653a206d757374206e6f742062652063616c60448201527f6c6564207468726f7567682064656c656761746563616c6c00000000000000006064820152608490fd5b503461000e57600036600319011261000e5761012e546040516001600160a01b039091168152602090f35b503461000e57600036600319011261000e57602060ff60fb54166040519015158152f35b503461000e57602036600319011261000e5760043560005261013c6020526020604060002054604051908152f35b503461000e57604036600319011261000e5760206113da6024356113d2816104fd565b600435614d64565b604051908152f35b60c435906110f0826104fd565b61ffff81160361000e57565b61012435906110f0826113ef565b61014435906110f0826113ef565b8015150361000e57565b60e435906110f082611417565b503461000e5761014036600319011261000e5760643563ffffffff8116810361000e57611459610ee4565b60a43591611466836104fd565b60c43590611473826113ef565b6101043591600483101561000e57610b3a94610124359461149386611417565b60e43593604435602435600435613ded565b503461000e57604036600319011261000e576114bf610ed1565b336000908152600080516020614e92833981519152602052604081209091906114ea9060ff906105cd565b6004358252610133602052604082209063ffffffff918281541692831561153d57610f849361151b9184161161355c565b9067ffffffff0000000082549160201b169067ffffffff000000001916179055565b60405162461bcd60e51b8152602060048201526014602482015273131bdd1d195c9e481a59081b9bdd08199bdd5b9960621b6044820152606490fd5b503461000e5760a036600319011261000e5760043560243561159a816104fd565b60443560643592608435936001600160401b03851161000e576116a96115c76116a4963690600401610878565b96906115d860ff60fb54161561453b565b611608876115f187600052610139602052604060002090565b9060018060a01b0316600052602052604060002090565b9761161e86600052610133602052604060002090565b9861166061165b611657611650896116418c600052610138602052604060002090565b90600052602052604060002090565b5460ff1690565b1590565b614b75565b60018a015460a01c60ff166117ec575b5061169f61168086898b8a614cb3565b9261169688600052610135602052604060002090565b54923691614c22565b614d09565b614c70565b6116d66116c5856115f185600052610139602052604060002090565b805462ff0000191662010000179055565b61172761171a61170460016116f686600052610133602052604060002090565b01546001600160a01b031690565b9261164185600052610138602052604060002090565b805460ff19166001179055565b600360018060a01b03809216950154853b1561000e576040516305661ce360e11b81526001600160a01b03861660048201526024810185905260016044820152606481019190915260a06084820152600060a48201819052958690829060c490829084905af180156117df575b6117c6575b506040519316907f4aa95f981a8337cb337de335b965507da0879c3b49f799d20058e913f5ad2c268585a4f35b806117d36117d992611050565b806106c8565b38611799565b6117e7612d5a565b611794565b611827600261180f8861180a8b60005261013b602052604060002090565b610e4e565b5054920191825461182282821015614bcb565b6136fb565b905538611670565b503461000e57604036600319011261000e576024356004356000526101376020526040600020805482101561000e5760409161186a91610e4e565b5061ffff600182549201541682519182526020820152f35b503461000e57608036600319011261000e576064356001600160401b0380821161000e573660238301121561000e57816004013590811161000e57366024828401011161000e576024610b3a9201604435602435600435613980565b50634e487b7160e01b600052602160045260246000fd5b600411156118ff57565b6110f06118de565b9060048210156119145752565b61191c6118de565b52565b815163ffffffff1681526101c08101929160208181015163ffffffff169083015260408181015163ffffffff169083015260608181015163ffffffff169083015260808181015163ffffffff169083015260a08181015163ffffffff169083015261199260c082015160c0840190611907565b60e0818101516001600160a01b0316908301526101008181015115159083015261012080820151908301526101408082015190830152610160808201519083015261018080820151908301526101a080910151910152565b503461000e57602036600319011261000e57604051611a0881611070565b6101a06000918281528260208201528260408201528260608201528260808201528260a08201528260c08201528260e0820152826101008201528261012082015282610140820152826101608201528261018082015201526112c3611a82611a7d600435600052610133602052604060002090565b6135e6565b6040519182918261191f565b6020908160408183019282815285518094520193019160005b828110611ab5575050505090565b835185529381019392810192600101611aa7565b503461000e5760208060031936011261000e57600435611ae8816104fd565b6001600160a01b0316600090815261013682526040808220905181548082529183528383208185019491939092915b828210611b3a576112c385611b2e818903826110c2565b60405191829182611a8e565b835486529485019460019384019390910190611b17565b503461000e57600080600319360112610d1e5780805260656020908152604080832033600090815292529020611b899060ff906105cd565b600160fb54611b9b60ff82161561453b565b60ff19161760fb557f62e78cea01bee320cd4e420270b5ea74000d11b0c9f74754ebdbfc544b05a2586020604051338152a1604051f35b503461000e57604036600319011261000e57610b3a600435611bf960ff60fb54161561453b565b600081815261013460205260409020546001600160a01b0316611c20575b60243590614776565b611c97611c5a611c4e611c4e611c4185600052610134602052604060002090565b546001600160a01b031690565b6001600160a01b031690565b6040516320c18e6b60e21b81523360048201526024810184905290602090829060449082905afa908115611cca575b600091611c9c575b506145d2565b611c17565b611cbd915060203d8111611cc3575b611cb581836110c2565b810190614155565b38611c91565b503d611cab565b611cd2612d5a565b611c89565b503461000e5760408060031936011261000e576000808052606560209081528282203383529052604081209091906004359060243590611d199060ff906105cd565b8184526101378060205283852054821015611da35791611d8a611d9b92611da094838852602052611d84611d6d878920611d67611d6187600052610137602052604060002090565b546136ec565b90610e4e565b509161180a85600052610137602052604060002090565b90613729565b600052610137602052604060002090565b61376b565b51f35b835162461bcd60e51b8152602060048201526013602482015272496e646578206f7574206f6620626f756e647360681b6044820152606490fd5b503461000e57604036600319011261000e57602060ff611e28602435611e02816104fd565b6004356000526065845260406000209060018060a01b0316600052602052604060002090565b54166040519015158152f35b503461000e57602036600319011261000e57600435600052610134602052602060018060a01b0360406000205416604051908152f35b60208082019080835283518092528060408094019401926000905b838210611e9457505050505090565b8451805187528301516001600160a01b0316868401529485019493820193600190910190611e85565b503461000e57606036600319011261000e57600435602435604435818110611fb3575b60018282036001198111611fa6575b0190611efa826135b4565b92604092611f0a845195866110c2565b808552611f19601f19916135b4565b016000805b828110611f84575050505b81811115611f3e578251806112c38682611e6a565b80611f64611f5e611f7f9361180a8960005261013b602052604060002090565b50614514565b611f6e82876144f2565b52611f7981866144f2565b506138a9565b611f29565b6020908651611f928161108c565b838152828481830152828a01015201611f1e565b611fae613265565b611eef565b611fbb613265565b611ee0565b503461000e57600036600319011261000e57602060405160008152f35b503461000e5760208060031936011261000e57600080805260658252604080822033835260205281209091600435916120cb919061201d9060ff906105cd565b61207c600261206d61203a86600052610133602052604060002090565b60ff81546120514263ffffffff838a1c161061441d565b60c01c1661205e816118f5565b15612133575460c01c60ff1690565b612076816118f5565b14614461565b61013054612092906001600160a01b0316611c4e565b604051632cdc85e960e21b8152600481018590529082908290602490829089905af1918215612126575b85926120f9575b505061012d55565b61012d54604051917ff8cdf8355a0f31bbad8998a631f5a75dcb3e475a010b34a111ed105fe88e751a8484a3f35b6121189250803d1061211f575b61211081836110c2565b810190612d4b565b38806120c3565b503d612106565b61212e612d5a565b6120bc565b805460ff60c01b1916600160c11b178155805460c01c60ff16612155816118f5565b87600080516020614eb28339815191528a604051a3610df2565b503461000e57604036600319011261000e57612189610ed1565b336000908152600080516020614e92833981519152602052604081209091610f84916121b79060ff906105cd565b600435835261013360205260408320805463ffffffff60601b191660609290921b63ffffffff60601b16919091179055565b503461000e57606036600319011261000e57600435612207816104fd565b6122c960243591612217836104fd565b60443590612224826104fd565b6122a661222f6134dd565b948561230e575b61223e613469565b61225860ff60005460081c1661225381613409565b613409565b60ff1960fb541660fb5561226a613469565b61227381612b48565b61012f80546001600160a01b03199081166001600160a01b039687161790915561012e8054909116918516919091179055565b6101318054919092166001600160a01b03166001600160a01b0319909116179055565b6122cf57005b6122df61ff001960005416600055565b604051600181527f7f26b83ff96e1f2b6a682f133852f6798a09c465da95921460cefb384740249890602090a1005b61010061ff00196000541617600055612236565b503461000e57602036600319011261000e57600435600052610133602052602063ffffffff60406000205460a01c16604051908152f35b60208082019080835283518092528060408094019401926000905b83821061238357505050505090565b84518051875283015161ffff16868401529485019493820193600190910190612374565b503461000e5760208060031936011261000e576004356000526101378152604090816000208054906123d8826135b4565b926123e5855194856110c2565b82845260009182528082208185015b848410612408578651806112c38882612359565b60028360019289516124198161108c565b8554815261ffff8587015416838201528152019201930192906123f4565b503461000e57602036600319011261000e576004356000526101356020526020604060002054604051908152f35b503461000e57604036600319011261000e57610b3a602435600435612489826104fd565b8060005260656020526124a360016040600020015461298b565b612bde565b503461000e57604036600319011261000e576024356124c6816104fd565b336000908152600080516020614e92833981519152602052604081209091610f84916124f49060ff906105cd565b60043583526101346020526040832080546001600160a01b0319166001600160a01b03909216919091179055565b503461000e57604036600319011261000e576004356000526101386020526040600020602435600052602052602060ff604060002054166040519015158152f35b503461000e57600036600319011261000e57610130546040516001600160a01b039091168152602090f35b503461000e57602036600319011261000e576004356125ac816104fd565b336000908152600080516020614e92833981519152602052604090206125d49060ff906105cd565b61013180546001600160a01b0319166001600160a01b03909216919091179055005b503461000e57602036600319011261000e5760043561261a60ff60fb54161561453b565b61262f81600052610133602052604060002090565b90600261265d61264a83600052610139602052604060002090565b3360009081526020919091526040902090565b01805492612670815460ff9060c01c1690565b612679816118f5565b600381036127515750600101546000919060a01c60ff1680612748575b61269f90614e37565b5561012f546126b6906001600160a01b0316611c4e565b60405163a9059cbb60e01b81523360048201526024810184905290602090829060449082906000905af1801561273b575b61271d575b5060405191825233917f7ca5472b7ea78c2c0141c5a12ee6d170cf4ce8ed06be3d22c8252ddfc7a6a2c490602090a3005b6127349060203d8111611cc357611cb581836110c2565b50386126ec565b612743612d5a565b6126e7565b50831515612696565b6001915061275e816118f5565b0361277657600090612771841515614df8565b61269f565b60405162461bcd60e51b815260206004820152602660248201527f43616e27742061736b20666f72206120726566756e64206f6e2074686973206c6044820152656f747465727960d01b6064820152608490fd5b0390fd5b503461000e57604036600319011261000e57600060206128546004356127f3816104fd565b838052606583526040808520336000908152602091909152206128189060ff906105cd565b61012f5460405163a9059cbb60e01b81526001600160a01b03928316600482015260248035908201529485939190921691839182906044820190565b03925af1801561287c575b61286557005b610b3a9060203d8111611cc357611cb581836110c2565b612884612d5a565b61285f565b503461000e57602036600319011261000e57600435600052610133602052602063ffffffff60406000205460401c16604051908152f35b503461000e576101a036600319011261000e576128db610ee4565b6128e3610ef7565b6128eb6113e2565b906128f4611421565b926128fd6113fb565b93612906611409565b6001600160401b03956101643587811161000e57612928903690600401610878565b9490936101843598891161000e57612947610b3a993690600401610878565b9890976101043593606435604435602435600435613f3e565b503461000e57600036600319011261000e5761012f546040516001600160a01b039091168152602090f35b600081815260656020908152604080832033845290915290205460ff16156129b05750565b33906129ba612d30565b9160306129c6846132af565b5360786129d2846132c5565b5360295b60018111612a81576127ca612a3e612a6986612a5b6129fe886129f98915613310565b61335b565b612a38604051958694612a38602087016017907f416363657373436f6e74726f6c3a206163636f756e742000000000000000000081520190565b90612b05565b7001034b99036b4b9b9b4b733903937b6329607d1b815260110190565b03601f1981018352826110c2565b60405162461bcd60e51b815291829160048301612b1c565b9080600f612abe92166010811015612ac3575b6f181899199a1a9b1b9c1cb0b131b232b360811b901a612ab484876132d6565b5360041c916132f5565b6129d6565b612acb6105f6565b612a94565b918091926000905b828210612af0575011612ae9575050565b6000910152565b91508060209183015181860152018291612ad8565b90612b1860209282815194859201612ad0565b0190565b60409160208252612b3c8151809281602086015260208686019101612ad0565b601f01601f1916010190565b6001600160a01b0381166000908152600080516020614e92833981519152602052604081205460ff1615612b7a575050565b8080526065602090815260408083206001600160a01b038516600090815292529020805460ff1916600117905560405133926001600160a01b031691907f2f8788117e7eff1d82e926ec794901d17c78024a50270940304540a733656f0d908290a4565b60008181526065602090815260408083206001600160a01b038616845290915290205460ff16612c0c575050565b60008181526065602090815260408083206001600160a01b03861684529091529020805460ff1916905560405133926001600160a01b031691907ff6391f5c32d9c69d2a47ea670b442974b53935d1edc7fd64eb21e047a839171b90600090a4565b15612c7557565b60405162461bcd60e51b815260206004820152602c60248201527f46756e6374696f6e206d7573742062652063616c6c6564207468726f7567682060448201526b19195b1959d85d1958d85b1b60a21b6064820152608490fd5b15612cd657565b60405162461bcd60e51b815260206004820152602c60248201527f46756e6374696f6e206d7573742062652063616c6c6564207468726f7567682060448201526b6163746976652070726f787960a01b6064820152608490fd5b60405190612d3d826110a7565b602a82526040366020840137565b9081602091031261000e575190565b506040513d6000823e3d90fd5b15612d6e57565b60405162461bcd60e51b815260206004820152602960248201527f45524331393637557067726164653a20756e737570706f727465642070726f786044820152681a58589b195555525160ba1b6064820152608490fd5b60809060208152602e60208201527f45524331393637557067726164653a206e657720696d706c656d656e7461746960408201526d6f6e206973206e6f74205555505360901b60608201520190565b90612e407f4910fdfa16fed3260ed0e7147f7cc6da11a60208b5b9406d12a635614ffd91435460ff1690565b15612e4f57506110f090612f9a565b6040516352d1902d60e01b8152916020836004816001600160a01b0385165afa60009381612eb7575b50612e965760405162461bcd60e51b8152806127ca60048201612dc5565b612eb2600080516020614ed28339815191526110f09414612d67565b61302a565b612ed091945060203d811161211f5761211081836110c2565b9238612e78565b90612f037f4910fdfa16fed3260ed0e7147f7cc6da11a60208b5b9406d12a635614ffd91435460ff1690565b15612f1257506110f090612f9a565b6040516352d1902d60e01b8152916020836004816001600160a01b0385165afa60009381612f7a575b50612f595760405162461bcd60e51b8152806127ca60048201612dc5565b612f75600080516020614ed28339815191526110f09414612d67565b61313a565b612f9391945060203d811161211f5761211081836110c2565b9238612f3b565b803b15612fcf57600080516020614ed283398151915280546001600160a01b0319166001600160a01b03909216919091179055565b60405162461bcd60e51b815260206004820152602d60248201527f455243313936373a206e657720696d706c656d656e746174696f6e206973206e60448201526c1bdd08184818dbdb9d1c9858dd609a1b6064820152608490fd5b9061303482612f9a565b604051600092906001600160a01b0382167fbc7cd75a20ee27fd9adebab32041f755214dbc6bffa90cc0225b39da2e5c2d3b8583a2825115801590613133575b61307f575b50505050565b813b156130e257509180826130d09460208395519201905af4903d156130da573d6130a9816110ff565b906130b760405192836110c2565b8152809160203d92013e5b6130ca6131e4565b9161322d565b5038808080613079565b5060606130c2565b62461bcd60e51b815260206004820152602660248201527f416464726573733a2064656c65676174652063616c6c20746f206e6f6e2d636f6044820152651b9d1c9858dd60d21b6064820152608490fd5b5083613074565b61314381612f9a565b6040516001600160a01b0382167fbc7cd75a20ee27fd9adebab32041f755214dbc6bffa90cc0225b39da2e5c2d3b600083a28251158015906131dc575b61318957505050565b813b156130e25750600082819260206131d295519201905af43d156131d5573d6131b2816110ff565b906131c060405192836110c2565b81523d6000602083013e6130ca6131e4565b50565b60606130c2565b506001613180565b604051906131f1826110a7565b60278252660819985a5b195960ca1b6040837f416464726573733a206c6f772d6c6576656c2064656c65676174652063616c6c60208201520152565b90919015613239575090565b8151156132495750805190602001fd5b60405162461bcd60e51b81529081906127ca9060048301612b1c565b50634e487b7160e01b600052601160045260246000fd5b806000190482118115151661328f570290565b613297613265565b0290565b811981116132a7570190565b612b18613265565b6020908051156132bd570190565b612b186105f6565b6021908051600110156132bd570190565b9060209180518210156132e857010190565b6132f06105f6565b010190565b8015613303575b6000190190565b61330b613265565b6132fc565b1561331757565b606460405162461bcd60e51b815260206004820152602060248201527f537472696e67733a20686578206c656e67746820696e73756666696369656e746044820152fd5b60405190608082018281106001600160401b038211176133fc575b6040526042825260603660208401376030613390836132af565b53607861339c836132c5565b536041905b600182116133b7576133b4915015613310565b90565b80600f6133e9921660108110156133ef575b6f181899199a1a9b1b9c1cb0b131b232b360811b901a612ab484866132d6565b906133a1565b6133f76105f6565b6133c9565b613404611039565b613376565b1561341057565b60405162461bcd60e51b815260206004820152602b60248201527f496e697469616c697a61626c653a20636f6e7472616374206973206e6f74206960448201526a6e697469616c697a696e6760a81b6064820152608490fd5b6110f060ff60005460081c16613409565b1561348157565b60405162461bcd60e51b815260206004820152602e60248201527f496e697469616c697a61626c653a20636f6e747261637420697320616c72656160448201526d191e481a5b9a5d1a585b1a5e995960921b6064820152608490fd5b60005460ff8160081c166000146134ff57506134fa303b1561347a565b600090565b80613510600160ff8194161061347a565b60ff191617600055600190565b1561352457565b60405162461bcd60e51b815260206004820152601060248201526f41646d696e2063616c6c73206f6e6c7960801b6044820152606490fd5b1561356357565b60405162461bcd60e51b815260206004820152602360248201527f436c6f73652074696d65206d7573742062652061667465722073746172742074604482015262696d6560e81b6064820152608490fd5b6020906001600160401b0381116135cd575b60051b0190565b6135d5611039565b6135c6565b60048210156119145752565b9060066135f16110f2565b9261369460ff825461368763ffffffff6136138184168a9063ffffffff169052565b61362b818460201c1660208b019063ffffffff169052565b613643818460401c1660408b019063ffffffff169052565b61365b818460601c1660608b019063ffffffff169052565b613673818460801c1660808b019063ffffffff169052565b8260a01c1660a089019063ffffffff169052565b60c01c1660c086016135da565b60018101546001600160a01b03811660e086015260a01c60ff161515610100850152600281015461012085015260038101546101408501526004810154610160850152600581015461018085015201546101a0830152565b60018110613303576000190190565b818110613706570390565b61370e613265565b0390565b50634e487b7160e01b600052600060045260246000fd5b9061375e575b81810361373a575050565b600161ffff81846110f09554855501541691019061ffff1661ffff19825416179055565b613766613712565b61372f565b805480156137a0576000190190600060016137868484610e4e565b613793575b828155015555565b61379b613712565b61378b565b634e487b7160e01b600052603160045260246000fd5b156137bd57565b60405162461bcd60e51b8152602060048201526016602482015275131bdd1d195c9e48191bd95cc81b9bdd08195e1a5cdd60521b6044820152606490fd5b1561380257565b60405162461bcd60e51b815260206004820152601b60248201527f4e756d626572206f66207072697a65732063616e2774206265203000000000006044820152606490fd5b1561384e57565b60405162461bcd60e51b815260206004820152602d60248201527f4e756d626572206f66207072697a652069647320616e6420616d6f756e74732060448201526c1b5d5cdd08189948195c5d585b609a1b6064820152608490fd5b60019060001981146132a7570190565b91908110156138c95760051b0190565b6135d56105f6565b356133b4816113ef565b90600161ffff60206139046110f095805490600160401b821015613933575b8582018155610e4e565b949094613926575b8051855501511691019061ffff1661ffff19825416179055565b61392e613712565b61390c565b61393b611039565b6138fa565b1561394757565b60405162461bcd60e51b8152602060048201526011602482015270496e76616c6964207369676e617475726560781b6044820152606490fd5b6040805133602082019081529181018390529195939492936139f5936139ce9391926139c8926139c091906139b88160608101612a5b565b519020613daa565b923691611129565b90613ad9565b61012e546139e4906001600160a01b0316611c4e565b6001600160a01b0390911614613940565b61013154613a0b906001600160a01b0316611c4e565b60405163f662781d60e01b81523360048201529093908190602081602481895afa908115613acc575b600091613aae575b5010613a4e575b506110f0925061457a565b833b1561000e57604051630259ab7760e61b815233600482015260248101919091526110f0936000908290604490829084905af18015613aa1575b15613a4357806117d3613a9b92611050565b38613a43565b613aa9612d5a565b613a89565b613ac6915060203d811161211f5761211081836110c2565b38613a3c565b613ad4612d5a565b613a34565b6133b491613ae691613c79565b919091613af8565b600511156118ff57565b613b0181613aee565b80613b095750565b613b1281613aee565b60018103613b5f5760405162461bcd60e51b815260206004820152601860248201527f45434453413a20696e76616c6964207369676e617475726500000000000000006044820152606490fd5b613b6881613aee565b60028103613bb55760405162461bcd60e51b815260206004820152601f60248201527f45434453413a20696e76616c6964207369676e6174757265206c656e677468006044820152606490fd5b613bbe81613aee565b60038103613c165760405162461bcd60e51b815260206004820152602260248201527f45434453413a20696e76616c6964207369676e6174757265202773272076616c604482015261756560f01b6064820152608490fd5b80613c22600492613aee565b14613c2957565b60405162461bcd60e51b815260206004820152602260248201527f45434453413a20696e76616c6964207369676e6174757265202776272076616c604482015261756560f01b6064820152608490fd5b815160418103613ca6575090613ca2916020820151906060604084015193015160001a90613cf4565b9091565b604003613cea578160406020613ca29401519101519160ff601b84821c9481198611613cdd575b600180841b031694011690613cf4565b613ce5613265565b613ccd565b5050600090600290565b9291907f7fffffffffffffffffffffffffffffff5d576e7357a4501ddfe92f46681b20a08311613d9e5760ff16601b81141580613d93575b613d87579160809493916020936040519384528484015260408301526060820152600093849182805260015afa15613d7a575b81516001600160a01b03811615613d74579190565b50600190565b613d82612d5a565b613d5f565b50505050600090600490565b50601c811415613d2c565b50505050600090600390565b60405160208101917f19457468657265756d205369676e6564204d6573736167653a0a3332000000008352603c820152603c8152613de7816110a7565b51902090565b336000908152600080516020614e9283398151915260205260408120999a919990989697919694958b95949293915460ff16613e289061351d565b8a8a5261013360205260408a2096875463ffffffff161515613e49906137b6565b875463ffffffff191663ffffffff909116178755865467ffffffff00000000191660209190911b67ffffffff0000000016178655600486015560058501556001840180546001600160a01b0319166001600160a01b03909716969096178655835460609190911b61ffff60601b1663ffffffff60601b199091161783556006830155613ed491613f0c565b815460ff60a01b191690151560a01b60ff60a01b16179055613ef5836118f5565b60405190600080516020614eb283398151915291a3565b906004811015613f31575b815460ff60c01b191660c09190911b60ff60c01b16179055565b613f396118de565b613f17565b9c9b8e9996829f93949597968f99939c97839b986000805260209e8f936065855233604060002090613f81919060018060a01b0316600052602052604060002090565b5460ff16613f8e9061351d565b613fa263ffffffff808f169083161161355c565b60405163185153c360e01b8152600481019290925284826024816001600160a01b038a165a90600091f19485156140ab9f6140066140719c6140679b6140006140499b61402f9961400b97614148575b60009161412b575b5061416a565b14613847565b6141b6565b6140226140166110f2565b63ffffffff909f168f52565b8d019063ffffffff169052565b600060408c015261ffff91821660608c01521660808a0152565b600060a0890181905260c08901526001600160a01b031660e0880152565b1515610100860152565b8a6101208501528b6101408501526101608401526101808301526101a08201526140a688600052610133602052604060002090565b61425f565b60005b8181106140d55750505050505050600090600080516020614eb283398151915282604051a3565b80610a058787610a006141116109e6868a8f6141269a8c61410461410a93600052610137602052604060002090565b986138b9565b35966138b9565b6141196110e3565b93845261ffff1689840152565b6140ae565b6141429150883d8a11611cc357611cb581836110c2565b38613ffa565b614150612d5a565b613ff2565b9081602091031261000e57516133b481611417565b1561417157565b60405162461bcd60e51b815260206004820152601960248201527f436f6c6c656374696f6e20646f6573206e6f74206578697374000000000000006044820152606490fd5b610132805490600160401b82101561420d575b60018201808255821015614200575b6000527fc53bdfd4aa1ab65dfdaf681ca6bda958ae4a123d4ed68c4277796592280e78350155565b6142086105f6565b6141d8565b614215611039565b6141c9565b805490600160401b821015614252575b60018201808255821015614245575b60005260206000200155565b61424d6105f6565b614239565b61425a611039565b61422a565b906101a060069161428d614277825163ffffffff1690565b855463ffffffff191663ffffffff909116178555565b6142c36142a1602083015163ffffffff1690565b855467ffffffff00000000191660209190911b67ffffffff0000000016178555565b6142fc6142d7604083015163ffffffff1690565b85546bffffffff0000000000000000191660409190911b63ffffffff60401b16178555565b614330614310606083015163ffffffff1690565b855463ffffffff60601b191660609190911b63ffffffff60601b16178555565b614364614344608083015163ffffffff1690565b855463ffffffff60801b191660809190911b63ffffffff60801b16178555565b61439861437860a083015163ffffffff1690565b855463ffffffff60a01b191660a09190911b63ffffffff60a01b16178555565b6143af60c08201516143a9816118f5565b85613f0c565b60e08101516001850180546101008401516001600160a01b039093166001600160a81b03199091161791151560a01b60ff60a01b1691909117905561012081015160028501556101408101516003850155610160810151600485015561018081015160058501550151910155565b1561442457565b60405162461bcd60e51b8152602060048201526015602482015274131bdd1d195c9e481a5cc81b9bdd0818db1bdcd959605a1b6044820152606490fd5b1561446857565b60405162461bcd60e51b815260206004820152601760248201527f4c6f7474657279206d75737420626520636c6f736564210000000000000000006044820152606490fd5b156144b457565b60405162461bcd60e51b8152602060048201526016602482015275131bdd1d195c9e481b5d5cdd0818994818db1bdcd95960521b6044820152606490fd5b6020918151811015614507575b60051b010190565b61450f6105f6565b6144ff565b906040516145218161108c565b825481526001909201546001600160a01b03166020830152565b1561454257565b60405162461bcd60e51b815260206004820152601060248201526f14185d5cd8589b194e881c185d5cd95960821b6044820152606490fd5b906110f09161458e60ff60fb54161561453b565b600081815261013460205260409020546001600160a01b031615614776576145cd611c5a611c4e611c4e611c4185600052610134602052604060002090565b614776565b156145d957565b60405162461bcd60e51b815260206004820152600f60248201526e139bdd081dda1a5d195b1a5cdd1959608a1b6044820152606490fd5b1561461757565b60405162461bcd60e51b815260206004820152601060248201526f151a58dad95d1cc81cdbdb19081bdd5d60821b6044820152606490fd5b1561465657565b606460405162461bcd60e51b815260206004820152602060248201527f43616e277420627579207468697320616d6f756e74206f66207469636b6574736044820152fd5b156146a157565b60405162461bcd60e51b81526020600482015260136024820152722637ba3a32b93c9034b9903737ba1037b832b760691b6044820152606490fd5b9063ffffffff80809316911680920381116132a7570190565b60019063ffffffff8091169081146132a7570190565b90808203614717575050565b8054825461ffff191661ffff919091161782556002908190805462ff000060ff86549260101c16151560101b169062ff00001916178455600181015460018501550154910155565b9061ffff80809316911680920381116132a7570190565b61478b81600052610133602052604060002090565b90614887825463ffffffff93848260601c1680614a11575b506147bc61264a85600052610139602052604060002090565b916147f76147d66147cf855461ffff1690565b61ffff1690565b91878160801c16806149f6575b5042888216111590816149e6575b5061469a565b61480560048301548861327c565b806149c4575b50614851614831600584015497891661482c855463ffffffff9060a01c1690565b6146dc565b835463ffffffff60a01b191660a09190911b63ffffffff60a01b16178355565b85614926575b156148ab575b5061487761ffff8616614872835461ffff1690565b61475f565b61ffff1661ffff19825416179055565b60005b8381106148975750505050565b6148a690610a05843385614aa2565b61488a565b336000908152610136602052604090206148fe91906148cb90869061421a565b80546148df9060401c63ffffffff166146f5565b63ffffffff60401b82549160401b169063ffffffff60401b1916179055565b6149208161491b336115f187600052610139602052604060002090565b61470b565b3861485d565b614930868861327c565b61012f54614946906001600160a01b0316611c4e565b6040516323b872dd60e01b81523360048201523060248201526044810183905290602090829060649082906000905af180156149b7575b614999575b506149926002850191825461329b565b9055614857565b6149b09060203d8111611cc357611cb581836110c2565b5038614982565b6149bf612d5a565b61497d565b6149df90600185016149d782825461329b565b905533614a31565b503861480b565b905087429160201c1611386147f1565b614a0b90614a048b8661329b565b111561464f565b386147e3565b614a2b90614a2488888660a01c1661329b565b1115614610565b386147a3565b61013154604051631e961d2760e01b81526001600160a01b039283166004820152602481019390935260209183916044918391600091165af1908115614a95575b600091614a7d575090565b6133b4915060203d811161211f5761211081836110c2565b614a9d612d5a565b614a72565b9091614b269060405190614ab58261108c565b815260016020820194818060a01b03809116958681528560005261013b602052614af66040600020805490600160401b821015613933578582018155610e4e565b949094614b68575b518455511691019060018060a01b03166bffffffffffffffffffffffff60a01b825416179055565b7fc41bbb54d04f2268c7895b9330f18468c306a3f92698a92c4c86b297873978486020614b5e8360005261013b602052604060002090565b54604051908152a3565b614b70613712565b614afe565b15614b7c57565b60405162461bcd60e51b815260206004820152602160248201527f5061727469636970616e7420616c726561647920636c61696d6564207072697a6044820152606560f81b6064820152608490fd5b15614bd257565b60405162461bcd60e51b815260206004820152602260248201527f5061727469636970616e742068617320726571756573746564206120726566756044820152611b9960f21b6064820152608490fd5b9291614c2d826135b4565b91614c3b60405193846110c2565b829481845260208094019160051b810192831161000e57905b828210614c615750505050565b81358152908301908301614c54565b15614c7757565b60405162461bcd60e51b815260206004820152601460248201527324b73b30b634b21036b2b935b63290383937b7b360611b6044820152606490fd5b929091604051926020840194855260018060a01b03166040840152606083015260808201526080815260a081018181106001600160401b03821117614cfc575b60405251902090565b614d04611039565b614cf3565b929091906000915b8451831015614d5c57614d2483866144f2565b5190818111614d4757600052602052614d416040600020926138a9565b91614d11565b90600052602052614d416040600020926138a9565b915092501490565b600052610133602052614d9860406000209161013960205260406000209060018060a01b0316600052602052604060002090565b9060ff815460c01c1690614dab826118f5565b60038214918215614de2575b5081614dd0575b50614dc95750600090565b6002015490565b60ff91506001015460a01c1638614dbe565b6001919250614df0816118f5565b149038614db7565b15614dff57565b60405162461bcd60e51b815260206004820152601060248201526f105b1c9958591e481c99599d5b99195960821b6044820152606490fd5b15614e3e57565b60405162461bcd60e51b815260206004820152602560248201527f5061727469636970616e7420686173206e6f20726566756e6461626c65207469604482015264636b65747360d81b6064820152608490fdfeffdfc1249c027f9191656349feb0761381bb32c9f557e01f419fd08754bf5a1ba3aca9ae20a0379d4094b84c749cbed6584ab20f0b71af75f63f6615d879c939360894a13ba1a3210667c828492db98dca3e2076cc3735a920a3ca505d382bbca2646970667358221220d63a0a4e8d2274185a325643eda06b36e383448cf3173a6953e353033e701c1364736f6c634300080e0033",
  "linkReferences": {},
  "deployedLinkReferences": {}
}