{
  "_format": "hh-sol-artifact-1",
  "contractName": "Lottery",
  "sourceName": "contracts/Lottery/Lottery.sol",
  "abi": [
    {
      "anonymous": false,
      "inputs": [
        {
          "indexed": false,
          "internalType": "address",
          "name": "previousAdmin",
          "type": "address"
        },
        {
          "indexed": false,
          "internalType": "address",
          "name": "newAdmin",
          "type": "address"
        }
      ],
      "name": "AdminChanged",
      "type": "event"
    },
    {
      "anonymous": false,
      "inputs": [
        {
          "indexed": true,
          "internalType": "address",
          "name": "beacon",
          "type": "address"
        }
      ],
      "name": "BeaconUpgraded",
      "type": "event"
    },
    {
      "anonymous": false,
      "inputs": [
        {
          "indexed": false,
          "internalType": "uint8",
          "name": "version",
          "type": "uint8"
        }
      ],
      "name": "Initialized",
      "type": "event"
    },
    {
      "anonymous": false,
      "inputs": [
        {
          "indexed": true,
          "internalType": "uint256",
          "name": "lotteryId",
          "type": "uint256"
        },
        {
          "indexed": true,
          "internalType": "enum Lottery.Status",
          "name": "status",
          "type": "uint8"
        }
      ],
      "name": "LotteryStatusChanged",
      "type": "event"
    },
    {
      "anonymous": false,
      "inputs": [
        {
          "indexed": false,
          "internalType": "address",
          "name": "account",
          "type": "address"
        }
      ],
      "name": "Paused",
      "type": "event"
    },
    {
      "anonymous": false,
      "inputs": [
        {
          "indexed": true,
          "internalType": "uint256",
          "name": "lotteryId",
          "type": "uint256"
        },
        {
          "indexed": true,
          "internalType": "address",
          "name": "participantAddress",
          "type": "address"
        },
        {
          "indexed": true,
          "internalType": "uint256",
          "name": "prizeId",
          "type": "uint256"
        }
      ],
      "name": "PrizeClaimed",
      "type": "event"
    },
    {
      "anonymous": false,
      "inputs": [
        {
          "indexed": true,
          "internalType": "uint256",
          "name": "lotteryId",
          "type": "uint256"
        },
        {
          "indexed": true,
          "internalType": "bytes32",
          "name": "requestId",
          "type": "bytes32"
        }
      ],
      "name": "RequestNumbers",
      "type": "event"
    },
    {
      "anonymous": false,
      "inputs": [
        {
          "indexed": true,
          "internalType": "bytes32",
          "name": "requestId",
          "type": "bytes32"
        }
      ],
      "name": "ResponseReceived",
      "type": "event"
    },
    {
      "anonymous": false,
      "inputs": [
        {
          "indexed": true,
          "internalType": "bytes32",
          "name": "role",
          "type": "bytes32"
        },
        {
          "indexed": true,
          "internalType": "bytes32",
          "name": "previousAdminRole",
          "type": "bytes32"
        },
        {
          "indexed": true,
          "internalType": "bytes32",
          "name": "newAdminRole",
          "type": "bytes32"
        }
      ],
      "name": "RoleAdminChanged",
      "type": "event"
    },
    {
      "anonymous": false,
      "inputs": [
        {
          "indexed": true,
          "internalType": "bytes32",
          "name": "role",
          "type": "bytes32"
        },
        {
          "indexed": true,
          "internalType": "address",
          "name": "account",
          "type": "address"
        },
        {
          "indexed": true,
          "internalType": "address",
          "name": "sender",
          "type": "address"
        }
      ],
      "name": "RoleGranted",
      "type": "event"
    },
    {
      "anonymous": false,
      "inputs": [
        {
          "indexed": true,
          "internalType": "bytes32",
          "name": "role",
          "type": "bytes32"
        },
        {
          "indexed": true,
          "internalType": "address",
          "name": "account",
          "type": "address"
        },
        {
          "indexed": true,
          "internalType": "address",
          "name": "sender",
          "type": "address"
        }
      ],
      "name": "RoleRevoked",
      "type": "event"
    },
    {
      "anonymous": false,
      "inputs": [
        {
          "indexed": false,
          "internalType": "address",
          "name": "operator",
          "type": "address"
        },
        {
          "indexed": false,
          "internalType": "uint256",
          "name": "lotteryId",
          "type": "uint256"
        },
        {
          "indexed": false,
          "internalType": "uint256",
          "name": "priceOfTicket",
          "type": "uint256"
        }
      ],
      "name": "TicketCostChanged",
      "type": "event"
    },
    {
      "anonymous": false,
      "inputs": [
        {
          "indexed": true,
          "internalType": "uint256",
          "name": "lotteryId",
          "type": "uint256"
        },
        {
          "indexed": false,
          "internalType": "uint256",
          "name": "ticketNumber",
          "type": "uint256"
        },
        {
          "indexed": true,
          "internalType": "address",
          "name": "participantAddress",
          "type": "address"
        }
      ],
      "name": "TicketSold",
      "type": "event"
    },
    {
      "anonymous": false,
      "inputs": [
        {
          "indexed": false,
          "internalType": "address",
          "name": "account",
          "type": "address"
        }
      ],
      "name": "Unpaused",
      "type": "event"
    },
    {
      "anonymous": false,
      "inputs": [
        {
          "indexed": true,
          "internalType": "address",
          "name": "implementation",
          "type": "address"
        }
      ],
      "name": "Upgraded",
      "type": "event"
    },
    {
      "inputs": [],
      "name": "DEFAULT_ADMIN_ROLE",
      "outputs": [
        {
          "internalType": "bytes32",
          "name": "",
          "type": "bytes32"
        }
      ],
      "stateMutability": "view",
      "type": "function"
    },
    {
      "inputs": [
        {
          "internalType": "uint256",
          "name": "_lotteryId",
          "type": "uint256"
        },
        {
          "internalType": "uint256",
          "name": "_numberOfTicketsToBuy",
          "type": "uint256"
        }
      ],
      "name": "buyTickets",
      "outputs": [],
      "stateMutability": "nonpayable",
      "type": "function"
    },
    {
      "inputs": [
        {
          "internalType": "uint256",
          "name": "_points",
          "type": "uint256"
        },
        {
          "internalType": "uint256",
          "name": "_lotteryId",
          "type": "uint256"
        },
        {
          "internalType": "uint256",
          "name": "_numberOfTicketsToBuy",
          "type": "uint256"
        },
        {
          "internalType": "bytes",
          "name": "_sig",
          "type": "bytes"
        }
      ],
      "name": "buyTicketsWithSignedMessage",
      "outputs": [],
      "stateMutability": "nonpayable",
      "type": "function"
    },
    {
      "inputs": [
        {
          "internalType": "uint256",
          "name": "_lotteryId",
          "type": "uint256"
        }
      ],
      "name": "cancelLottery",
      "outputs": [],
      "stateMutability": "nonpayable",
      "type": "function"
    },
    {
      "inputs": [
        {
          "internalType": "uint256",
          "name": "_lotteryId",
          "type": "uint256"
        },
        {
          "internalType": "uint32",
          "name": "_time",
          "type": "uint32"
        }
      ],
      "name": "changeCloseTime",
      "outputs": [],
      "stateMutability": "nonpayable",
      "type": "function"
    },
    {
      "inputs": [
        {
          "internalType": "uint256",
          "name": "_lotteryId",
          "type": "uint256"
        },
        {
          "internalType": "address",
          "name": "_winner",
          "type": "address"
        },
        {
          "internalType": "uint256",
          "name": "_prizeId",
          "type": "uint256"
        },
        {
          "internalType": "string",
          "name": "_uri",
          "type": "string"
        },
        {
          "internalType": "bytes32[]",
          "name": "_proof",
          "type": "bytes32[]"
        }
      ],
      "name": "claimPrize",
      "outputs": [],
      "stateMutability": "nonpayable",
      "type": "function"
    },
    {
      "inputs": [
        {
          "internalType": "uint256",
          "name": "",
          "type": "uint256"
        },
        {
          "internalType": "uint256",
          "name": "",
          "type": "uint256"
        }
      ],
      "name": "claimedPrizes",
      "outputs": [
        {
          "internalType": "bool",
          "name": "",
          "type": "bool"
        }
      ],
      "stateMutability": "view",
      "type": "function"
    },
    {
      "inputs": [
        {
          "internalType": "uint256",
          "name": "_lotteryId",
          "type": "uint256"
        },
        {
          "internalType": "uint256",
          "name": "_ticketCostPoints",
          "type": "uint256"
        },
        {
          "internalType": "uint256",
          "name": "_ticketCostTokens",
          "type": "uint256"
        },
        {
          "internalType": "uint32",
          "name": "_startTime",
          "type": "uint32"
        },
        {
          "internalType": "uint32",
          "name": "_closeTime",
          "type": "uint32"
        },
        {
          "internalType": "contract INFT",
          "name": "_nftContract",
          "type": "address"
        },
        {
          "internalType": "bool",
          "name": "_isRefundable",
          "type": "bool"
        },
        {
          "internalType": "uint16",
          "name": "_maxTickets",
          "type": "uint16"
        },
        {
          "internalType": "uint16",
          "name": "_maxTicketsPerUser",
          "type": "uint16"
        },
        {
          "internalType": "uint128",
          "name": "_firstPrizeId",
          "type": "uint128"
        },
        {
          "internalType": "uint128",
          "name": "_lastPrizeId",
          "type": "uint128"
        }
      ],
      "name": "createLottery",
      "outputs": [],
      "stateMutability": "nonpayable",
      "type": "function"
    },
    {
      "inputs": [],
      "name": "getLotteryCount",
      "outputs": [
        {
          "internalType": "uint256",
          "name": "",
          "type": "uint256"
        }
      ],
      "stateMutability": "view",
      "type": "function"
    },
    {
      "inputs": [
        {
          "internalType": "uint256",
          "name": "_lotteryId",
          "type": "uint256"
        }
      ],
      "name": "getLotteryInfo",
      "outputs": [
        {
          "components": [
            {
              "internalType": "uint32",
              "name": "startTime",
              "type": "uint32"
            },
            {
              "internalType": "uint32",
              "name": "closeTime",
              "type": "uint32"
            },
            {
              "internalType": "uint32",
              "name": "participantsCount",
              "type": "uint32"
            },
            {
              "internalType": "uint32",
              "name": "maxTickets",
              "type": "uint32"
            },
            {
              "internalType": "uint32",
              "name": "maxTicketsPerUser",
              "type": "uint32"
            },
            {
              "internalType": "uint32",
              "name": "numberOfTicketsSold",
              "type": "uint32"
            },
            {
              "internalType": "enum Lottery.Status",
              "name": "status",
              "type": "uint8"
            },
            {
              "internalType": "contract INFT",
              "name": "nftContract",
              "type": "address"
            },
            {
              "internalType": "bool",
              "name": "isRefundable",
              "type": "bool"
            },
            {
              "internalType": "uint128",
              "name": "firstPrizeId",
              "type": "uint128"
            },
            {
              "internalType": "uint128",
              "name": "lastPrizeId",
              "type": "uint128"
            },
            {
              "internalType": "uint256",
              "name": "lotteryID",
              "type": "uint256"
            },
            {
              "internalType": "uint256",
              "name": "ticketCostPoints",
              "type": "uint256"
            },
            {
              "internalType": "uint256",
              "name": "ticketCostTokens",
              "type": "uint256"
            }
          ],
          "internalType": "struct Lottery.LotteryInfo",
          "name": "",
          "type": "tuple"
        }
      ],
      "stateMutability": "view",
      "type": "function"
    },
    {
      "inputs": [
        {
          "internalType": "uint256",
          "name": "_lotteryId",
          "type": "uint256"
        }
      ],
      "name": "getLotteryTicketCount",
      "outputs": [
        {
          "internalType": "uint256",
          "name": "",
          "type": "uint256"
        }
      ],
      "stateMutability": "view",
      "type": "function"
    },
    {
      "inputs": [
        {
          "internalType": "uint256",
          "name": "_lotteryId",
          "type": "uint256"
        },
        {
          "internalType": "uint256",
          "name": "_from",
          "type": "uint256"
        },
        {
          "internalType": "uint256",
          "name": "_to",
          "type": "uint256"
        }
      ],
      "name": "getLotteryTickets",
      "outputs": [
        {
          "internalType": "address[]",
          "name": "",
          "type": "address[]"
        }
      ],
      "stateMutability": "view",
      "type": "function"
    },
    {
      "inputs": [
        {
          "internalType": "uint256",
          "name": "_lotteryId",
          "type": "uint256"
        }
      ],
      "name": "getParticipantsCount",
      "outputs": [
        {
          "internalType": "uint32",
          "name": "",
          "type": "uint32"
        }
      ],
      "stateMutability": "view",
      "type": "function"
    },
    {
      "inputs": [
        {
          "internalType": "bytes32",
          "name": "role",
          "type": "bytes32"
        }
      ],
      "name": "getRoleAdmin",
      "outputs": [
        {
          "internalType": "bytes32",
          "name": "",
          "type": "bytes32"
        }
      ],
      "stateMutability": "view",
      "type": "function"
    },
    {
      "inputs": [
        {
          "internalType": "uint256",
          "name": "_lotteryId",
          "type": "uint256"
        },
        {
          "internalType": "address",
          "name": "_user",
          "type": "address"
        }
      ],
      "name": "getTicketCountPerUser",
      "outputs": [
        {
          "internalType": "uint256",
          "name": "",
          "type": "uint256"
        }
      ],
      "stateMutability": "view",
      "type": "function"
    },
    {
      "inputs": [
        {
          "internalType": "uint256",
          "name": "_lotteryId",
          "type": "uint256"
        }
      ],
      "name": "getWhitelist",
      "outputs": [
        {
          "internalType": "address",
          "name": "",
          "type": "address"
        }
      ],
      "stateMutability": "view",
      "type": "function"
    },
    {
      "inputs": [
        {
          "internalType": "bytes32",
          "name": "role",
          "type": "bytes32"
        },
        {
          "internalType": "address",
          "name": "account",
          "type": "address"
        }
      ],
      "name": "grantRole",
      "outputs": [],
      "stateMutability": "nonpayable",
      "type": "function"
    },
    {
      "inputs": [
        {
          "internalType": "bytes32",
          "name": "role",
          "type": "bytes32"
        },
        {
          "internalType": "address",
          "name": "account",
          "type": "address"
        }
      ],
      "name": "hasRole",
      "outputs": [
        {
          "internalType": "bool",
          "name": "",
          "type": "bool"
        }
      ],
      "stateMutability": "view",
      "type": "function"
    },
    {
      "inputs": [
        {
          "internalType": "address",
          "name": "_rewardsContract",
          "type": "address"
        },
        {
          "internalType": "address",
          "name": "_admin",
          "type": "address"
        },
        {
          "internalType": "address",
          "name": "_token",
          "type": "address"
        },
        {
          "internalType": "address",
          "name": "_sageStorage",
          "type": "address"
        }
      ],
      "name": "initialize",
      "outputs": [],
      "stateMutability": "nonpayable",
      "type": "function"
    },
    {
      "inputs": [
        {
          "internalType": "uint256",
          "name": "",
          "type": "uint256"
        }
      ],
      "name": "lotteries",
      "outputs": [
        {
          "internalType": "uint256",
          "name": "",
          "type": "uint256"
        }
      ],
      "stateMutability": "view",
      "type": "function"
    },
    {
      "inputs": [
        {
          "internalType": "uint256",
          "name": "",
          "type": "uint256"
        },
        {
          "internalType": "uint256",
          "name": "",
          "type": "uint256"
        }
      ],
      "name": "lotteryTickets",
      "outputs": [
        {
          "internalType": "address",
          "name": "",
          "type": "address"
        }
      ],
      "stateMutability": "view",
      "type": "function"
    },
    {
      "inputs": [
        {
          "internalType": "uint256",
          "name": "",
          "type": "uint256"
        },
        {
          "internalType": "address",
          "name": "",
          "type": "address"
        }
      ],
      "name": "participants",
      "outputs": [
        {
          "internalType": "uint16",
          "name": "totalTicketsBought",
          "type": "uint16"
        },
        {
          "internalType": "bool",
          "name": "claimedPrize",
          "type": "bool"
        }
      ],
      "stateMutability": "view",
      "type": "function"
    },
    {
      "inputs": [],
      "name": "pause",
      "outputs": [],
      "stateMutability": "nonpayable",
      "type": "function"
    },
    {
      "inputs": [],
      "name": "paused",
      "outputs": [
        {
          "internalType": "bool",
          "name": "",
          "type": "bool"
        }
      ],
      "stateMutability": "view",
      "type": "function"
    },
    {
      "inputs": [
        {
          "internalType": "uint256",
          "name": "_lotteryId",
          "type": "uint256"
        },
        {
          "internalType": "uint256",
          "name": "_tokenId",
          "type": "uint256"
        }
      ],
      "name": "prizeClaimed",
      "outputs": [
        {
          "internalType": "bool",
          "name": "",
          "type": "bool"
        }
      ],
      "stateMutability": "view",
      "type": "function"
    },
    {
      "inputs": [
        {
          "internalType": "uint256",
          "name": "",
          "type": "uint256"
        }
      ],
      "name": "prizeMerkleRoots",
      "outputs": [
        {
          "internalType": "bytes32",
          "name": "",
          "type": "bytes32"
        }
      ],
      "stateMutability": "view",
      "type": "function"
    },
    {
      "inputs": [],
      "name": "proxiableUUID",
      "outputs": [
        {
          "internalType": "bytes32",
          "name": "",
          "type": "bytes32"
        }
      ],
      "stateMutability": "view",
      "type": "function"
    },
    {
      "inputs": [
        {
          "internalType": "uint256",
          "name": "",
          "type": "uint256"
        }
      ],
      "name": "randomSeeds",
      "outputs": [
        {
          "internalType": "uint256",
          "name": "",
          "type": "uint256"
        }
      ],
      "stateMutability": "view",
      "type": "function"
    },
    {
      "inputs": [
        {
          "internalType": "uint256",
          "name": "_lotteryId",
          "type": "uint256"
        },
        {
          "internalType": "bytes32",
          "name": "_requestId",
          "type": "bytes32"
        },
        {
          "internalType": "uint256",
          "name": "_randomNumber",
          "type": "uint256"
        }
      ],
      "name": "receiveRandomNumber",
      "outputs": [],
      "stateMutability": "nonpayable",
      "type": "function"
    },
    {
      "inputs": [
        {
          "internalType": "bytes32",
          "name": "role",
          "type": "bytes32"
        },
        {
          "internalType": "address",
          "name": "account",
          "type": "address"
        }
      ],
      "name": "renounceRole",
      "outputs": [],
      "stateMutability": "nonpayable",
      "type": "function"
    },
    {
      "inputs": [
        {
          "internalType": "uint256",
          "name": "_lotteryId",
          "type": "uint256"
        }
      ],
      "name": "requestRandomNumber",
      "outputs": [],
      "stateMutability": "nonpayable",
      "type": "function"
    },
    {
      "inputs": [
        {
          "internalType": "bytes32",
          "name": "role",
          "type": "bytes32"
        },
        {
          "internalType": "address",
          "name": "account",
          "type": "address"
        }
      ],
      "name": "revokeRole",
      "outputs": [],
      "stateMutability": "nonpayable",
      "type": "function"
    },
    {
      "inputs": [],
      "name": "rewardsContract",
      "outputs": [
        {
          "internalType": "contract IRewards",
          "name": "",
          "type": "address"
        }
      ],
      "stateMutability": "view",
      "type": "function"
    },
    {
      "inputs": [
        {
          "internalType": "uint256",
          "name": "_lotteryId",
          "type": "uint256"
        },
        {
          "internalType": "uint32",
          "name": "_maxTickets",
          "type": "uint32"
        }
      ],
      "name": "setMaxTickets",
      "outputs": [],
      "stateMutability": "nonpayable",
      "type": "function"
    },
    {
      "inputs": [
        {
          "internalType": "uint256",
          "name": "_lotteryId",
          "type": "uint256"
        },
        {
          "internalType": "uint32",
          "name": "_maxTicketsPerUser",
          "type": "uint32"
        }
      ],
      "name": "setMaxTicketsPerUser",
      "outputs": [],
      "stateMutability": "nonpayable",
      "type": "function"
    },
    {
      "inputs": [
        {
          "internalType": "uint256",
          "name": "_lotteryId",
          "type": "uint256"
        },
        {
          "internalType": "bytes32",
          "name": "_root",
          "type": "bytes32"
        }
      ],
      "name": "setPrizeMerkleRoot",
      "outputs": [],
      "stateMutability": "nonpayable",
      "type": "function"
    },
    {
      "inputs": [
        {
          "internalType": "address",
          "name": "_IRandomNumberGenerator",
          "type": "address"
        }
      ],
      "name": "setRandomGenerator",
      "outputs": [],
      "stateMutability": "nonpayable",
      "type": "function"
    },
    {
      "inputs": [
        {
          "internalType": "address",
          "name": "_rewardsContract",
          "type": "address"
        }
      ],
      "name": "setRewardsContract",
      "outputs": [],
      "stateMutability": "nonpayable",
      "type": "function"
    },
    {
      "inputs": [
        {
          "internalType": "address",
          "name": "_signer",
          "type": "address"
        }
      ],
      "name": "setSignerAddress",
      "outputs": [],
      "stateMutability": "nonpayable",
      "type": "function"
    },
    {
      "inputs": [
        {
          "internalType": "address",
          "name": "_token",
          "type": "address"
        }
      ],
      "name": "setToken",
      "outputs": [],
      "stateMutability": "nonpayable",
      "type": "function"
    },
    {
      "inputs": [
        {
          "internalType": "uint256",
          "name": "_lotteryId",
          "type": "uint256"
        },
        {
          "internalType": "address",
          "name": "_whitelist",
          "type": "address"
        }
      ],
      "name": "setWhitelist",
      "outputs": [],
      "stateMutability": "nonpayable",
      "type": "function"
    },
    {
      "inputs": [
        {
          "internalType": "bytes4",
          "name": "interfaceId",
          "type": "bytes4"
        }
      ],
      "name": "supportsInterface",
      "outputs": [
        {
          "internalType": "bool",
          "name": "",
          "type": "bool"
        }
      ],
      "stateMutability": "view",
      "type": "function"
    },
    {
      "inputs": [],
      "name": "token",
      "outputs": [
        {
          "internalType": "contract IERC20",
          "name": "",
          "type": "address"
        }
      ],
      "stateMutability": "view",
      "type": "function"
    },
    {
      "inputs": [],
      "name": "unpause",
      "outputs": [],
      "stateMutability": "nonpayable",
      "type": "function"
    },
    {
      "inputs": [
        {
          "internalType": "uint256",
          "name": "lotteryId",
          "type": "uint256"
        },
        {
          "internalType": "uint256",
          "name": "_ticketCostPoints",
          "type": "uint256"
        },
        {
          "internalType": "uint256",
          "name": "_ticketCostTokens",
          "type": "uint256"
        },
        {
          "internalType": "uint32",
          "name": "_startTime",
          "type": "uint32"
        },
        {
          "internalType": "uint32",
          "name": "_closeTime",
          "type": "uint32"
        },
        {
          "internalType": "contract INFT",
          "name": "_nftContract",
          "type": "address"
        },
        {
          "internalType": "uint16",
          "name": "_maxTickets",
          "type": "uint16"
        },
        {
          "internalType": "enum Lottery.Status",
          "name": "_status",
          "type": "uint8"
        },
        {
          "internalType": "bool",
          "name": "_isRefundable",
          "type": "bool"
        },
        {
          "internalType": "uint128",
          "name": "_firstPrizeId",
          "type": "uint128"
        },
        {
          "internalType": "uint128",
          "name": "_lastPrizeId",
          "type": "uint128"
        }
      ],
      "name": "updateLottery",
      "outputs": [],
      "stateMutability": "nonpayable",
      "type": "function"
    },
    {
      "inputs": [
        {
          "internalType": "address",
          "name": "newImplementation",
          "type": "address"
        }
      ],
      "name": "upgradeTo",
      "outputs": [],
      "stateMutability": "nonpayable",
      "type": "function"
    },
    {
      "inputs": [
        {
          "internalType": "address",
          "name": "newImplementation",
          "type": "address"
        },
        {
          "internalType": "bytes",
          "name": "data",
          "type": "bytes"
        }
      ],
      "name": "upgradeToAndCall",
      "outputs": [],
      "stateMutability": "payable",
      "type": "function"
    },
    {
      "inputs": [
        {
          "internalType": "uint256",
          "name": "",
          "type": "uint256"
        }
      ],
      "name": "whitelists",
      "outputs": [
        {
          "internalType": "address",
          "name": "",
          "type": "address"
        }
      ],
      "stateMutability": "view",
      "type": "function"
    },
    {
      "inputs": [
        {
          "internalType": "address",
          "name": "_to",
          "type": "address"
        },
        {
          "internalType": "uint256",
          "name": "_amount",
          "type": "uint256"
        }
      ],
      "name": "withdraw",
      "outputs": [],
      "stateMutability": "nonpayable",
      "type": "function"
    }
  ],
  "bytecode": "0x60a06040523060805234801561001457600080fd5b50608051614bbe61004c60003960008181610e3e01528181610e7e0152818161139e015281816113de01526115380152614bbe6000f3fe6080604052600436106102ae5760003560e01c80637350ab2c11610175578063c11ab615116100dc578063dfa0dfa511610095578063f8c8765e1161006f578063f8c8765e14610974578063f90328d514610994578063fc0c546a146109d0578063fe4d5add146109f157600080fd5b8063dfa0dfa5146108e4578063f3fef3a314610904578063f5f489981461092457600080fd5b8063c11ab615146107df578063d098a2f01461081a578063d225428f14610848578063d547741f14610868578063d89da28614610888578063db2c0fd1146108a857600080fd5b806396db752a1161012e57806396db752a146107065780639b7fecc31461073d578063a217fddf1461076a578063a6c76bdf1461077f578063b1eb96c91461079f578063bf4002b2146107bf57600080fd5b80637350ab2c1461064457806376b3c8a8146106645780637ccbe57b146106915780638456cb59146106b15780638627df46146106c657806391d14854146106e657600080fd5b80633659cfe6116102195780634bc19fee116101d25780634bc19fee146105a45780634f1ef286146105c457806350612da6146105d757806352d1902d146105f75780635c975abb1461060c5780636a6be3151461062457600080fd5b80633659cfe6146104c75780633f4ba83a146104e757806340cf23d9146104fc5780634538f2971461054457806349c0de88146105645780634a0044671461058457600080fd5b8063236804001161026b57806323680400146103f3578063248a9ca31461042157806328990683146104515780632f2ff15d146104715780632f9aa1fe1461049157806336568abe146104a757600080fd5b806301ffc9a7146102b357806302e060c6146102e8578063046dc1661461034a5780631398e0761461036c578063144fa6d71461039a578063220cce97146103ba575b600080fd5b3480156102bf57600080fd5b506102d36102ce366004613f4f565b610a28565b60405190151581526020015b60405180910390f35b3480156102f457600080fd5b50610330610303366004613f8e565b61013860209081526000928352604080842090915290825290205461ffff81169062010000900460ff1682565b6040805161ffff90931683529015156020830152016102df565b34801561035657600080fd5b5061036a610365366004613fbe565b610a5f565b005b34801561037857600080fd5b5061038c610387366004613fdb565b610b43565b6040519081526020016102df565b3480156103a657600080fd5b5061036a6103b5366004613fbe565b610b65565b3480156103c657600080fd5b50610132546103db906001600160a01b031681565b6040516001600160a01b0390911681526020016102df565b3480156103ff57600080fd5b5061038c61040e366004613fdb565b6101396020526000908152604090205481565b34801561042d57600080fd5b5061038c61043c366004613fdb565b60009081526065602052604090206001015490565b34801561045d57600080fd5b5061036a61046c366004613ff4565b610c40565b34801561047d57600080fd5b5061036a61048c366004613f8e565b610d8c565b34801561049d57600080fd5b506101335461038c565b3480156104b357600080fd5b5061036a6104c2366004613f8e565b610db6565b3480156104d357600080fd5b5061036a6104e2366004613fbe565b610e34565b3480156104f357600080fd5b5061036a610f13565b34801561050857600080fd5b5061038c610517366004613f8e565b6000918252610138602090815260408084206001600160a01b0393909316845291905290205461ffff1690565b34801561055057600080fd5b5061036a61055f366004613fdb565b610fd5565b34801561057057600080fd5b506103db61057f366004614020565b61113e565b34801561059057600080fd5b5061036a61059f366004614056565b611177565b3480156105b057600080fd5b5061036a6105bf366004613fbe565b611263565b61036a6105d2366004614098565b611394565b3480156105e357600080fd5b5061036a6105f2366004614020565b611460565b34801561060357600080fd5b5061038c61152b565b34801561061857600080fd5b5060fb5460ff166102d3565b34801561063057600080fd5b5061036a61063f366004614056565b6115de565b34801561065057600080fd5b5061036a61065f36600461419e565b611741565b34801561067057600080fd5b5061068461067f366004613fdb565b61193c565b6040516102df9190614237565b34801561069d57600080fd5b5061036a6106ac36600461437f565b611ac4565b3480156106bd57600080fd5b5061036a611e8d565b3480156106d257600080fd5b5061036a6106e1366004614020565b611f4d565b3480156106f257600080fd5b506102d3610701366004613f8e565b612449565b34801561071257600080fd5b506103db610721366004613fdb565b600090815261013560205260409020546001600160a01b031690565b34801561074957600080fd5b5061075d610758366004613ff4565b612474565b6040516102df919061443a565b34801561077657600080fd5b5061038c600081565b34801561078b57600080fd5b5061036a61079a366004614487565b612560565b3480156107ab57600080fd5b5061036a6107ba366004613fdb565b612766565b3480156107cb57600080fd5b5061036a6107da366004614056565b612a00565b3480156107eb57600080fd5b5061038c6107fa366004613fdb565b60009081526101346020526040902054600160a01b900463ffffffff1690565b34801561082657600080fd5b5061038c610835366004613fdb565b6101366020526000908152604090205481565b34801561085457600080fd5b5061036a610863366004614518565b612aec565b34801561087457600080fd5b5061036a610883366004613f8e565b612d5b565b34801561089457600080fd5b5061036a6108a3366004613f8e565b612d80565b3480156108b457600080fd5b506102d36108c3366004614020565b60009182526101376020908152604080842092845291905290205460ff1690565b3480156108f057600080fd5b5061036a6108ff366004613fbe565b612e67565b34801561091057600080fd5b5061036a61091f3660046145de565b612f42565b34801561093057600080fd5b5061095f61093f366004613fdb565b60009081526101346020526040902054600160401b900463ffffffff1690565b60405163ffffffff90911681526020016102df565b34801561098057600080fd5b5061036a61098f36600461460a565b613072565b3480156109a057600080fd5b506102d36109af366004614020565b61013760209081526000928352604080842090915290825290205460ff1681565b3480156109dc57600080fd5b50610130546103db906001600160a01b031681565b3480156109fd57600080fd5b506103db610a0c366004613fdb565b610135602052600090815260409020546001600160a01b031681565b60006001600160e01b03198216637965db0b60e01b1480610a5957506301ffc9a760e01b6001600160e01b03198316145b92915050565b61012d546040516001600160a01b0390911690637ae1cfca90610a86903390602001614666565b604051602081830303815290604052805190602001206040518263ffffffff1660e01b8152600401610aba91815260200190565b602060405180830381865afa158015610ad7573d6000803e3d6000fd5b505050506040513d601f19601f82011682018060405250810190610afb9190614696565b610b205760405162461bcd60e51b8152600401610b17906146b3565b60405180910390fd5b61012f80546001600160a01b0319166001600160a01b0392909216919091179055565b6101338181548110610b5457600080fd5b600091825260209091200154905081565b61012d546040516001600160a01b0390911690637ae1cfca90610b8c903390602001614666565b604051602081830303815290604052805190602001206040518263ffffffff1660e01b8152600401610bc091815260200190565b602060405180830381865afa158015610bdd573d6000803e3d6000fd5b505050506040513d601f19601f82011682018060405250810190610c019190614696565b610c1d5760405162461bcd60e51b8152600401610b17906146b3565b61013080546001600160a01b0319166001600160a01b0392909216919091179055565b610131546001600160a01b03163314610c8e5760405162461bcd60e51b815260206004820152601060248201526f4f6e6c7920524e47206164647265737360801b6044820152606401610b17565b60008381526101346020526040902060028154600160c01b900460ff166003811115610cbc57610cbc6141ff565b14610d025760405162461bcd60e51b8152602060048201526016602482015275131bdd1d195c9e481b5d5cdd0818994818db1bdcd95960521b6044820152606401610b17565b60405183907f8e372cc311d12a5394f598c3c41b36e9775c6cb51b99fde2aaca7978a8ec713f90600090a2805460ff60c01b1916600360c01b1781556000848152610139602052604090208290558054600160c01b900460ff166003811115610d6d57610d6d6141ff565b6040518590600080516020614b2283398151915290600090a350505050565b600082815260656020526040902060010154610da781613149565b610db18383613153565b505050565b6001600160a01b0381163314610e265760405162461bcd60e51b815260206004820152602f60248201527f416363657373436f6e74726f6c3a2063616e206f6e6c792072656e6f756e636560448201526e103937b632b9903337b91039b2b63360891b6064820152608401610b17565b610e3082826131d9565b5050565b6001600160a01b037f0000000000000000000000000000000000000000000000000000000000000000163003610e7c5760405162461bcd60e51b8152600401610b17906146dd565b7f00000000000000000000000000000000000000000000000000000000000000006001600160a01b0316610ec5600080516020614b42833981519152546001600160a01b031690565b6001600160a01b031614610eeb5760405162461bcd60e51b8152600401610b1790614729565b610ef481613240565b60408051600080825260208201909252610f10918391906132f8565b50565b61012d546040516001600160a01b0390911690637ae1cfca90610f3a903390602001614666565b604051602081830303815290604052805190602001206040518263ffffffff1660e01b8152600401610f6e91815260200190565b602060405180830381865afa158015610f8b573d6000803e3d6000fd5b505050506040513d601f19601f82011682018060405250810190610faf9190614696565b610fcb5760405162461bcd60e51b8152600401610b17906146b3565b610fd3613463565b565b61012d546040516001600160a01b0390911690637ae1cfca90610ffc903390602001614666565b604051602081830303815290604052805190602001206040518263ffffffff1660e01b815260040161103091815260200190565b602060405180830381865afa15801561104d573d6000803e3d6000fd5b505050506040513d601f19601f820116820180604052508101906110719190614696565b61108d5760405162461bcd60e51b8152600401610b17906146b3565b6000818152610134602052604090208054600160401b900463ffffffff16156110f85760405162461bcd60e51b815260206004820152601760248201527f4c6f747465727920616c726561647920737461727465640000000000000000006044820152606401610b17565b805460ff60c01b1916600160c01b9081178083550460ff166003811115611121576111216141ff565b6040518390600080516020614b2283398151915290600090a35050565b61013a602052816000526040600020818154811061115b57600080fd5b6000918252602090912001546001600160a01b03169150829050565b61012d546040516001600160a01b0390911690637ae1cfca9061119e903390602001614666565b604051602081830303815290604052805190602001206040518263ffffffff1660e01b81526004016111d291815260200190565b602060405180830381865afa1580156111ef573d6000803e3d6000fd5b505050506040513d601f19601f820116820180604052508101906112139190614696565b61122f5760405162461bcd60e51b8152600401610b17906146b3565b60009182526101346020526040909120805463ffffffff909216600160801b0263ffffffff60801b19909216919091179055565b61012d546040516001600160a01b0390911690637ae1cfca9061128a903390602001614666565b604051602081830303815290604052805190602001206040518263ffffffff1660e01b81526004016112be91815260200190565b602060405180830381865afa1580156112db573d6000803e3d6000fd5b505050506040513d601f19601f820116820180604052508101906112ff9190614696565b61131b5760405162461bcd60e51b8152600401610b17906146b3565b6001600160a01b0381166113715760405162461bcd60e51b815260206004820152601d60248201527f436f6e7472616374732063616e6e6f74206265203020616464726573730000006044820152606401610b17565b61013180546001600160a01b0319166001600160a01b0392909216919091179055565b6001600160a01b037f00000000000000000000000000000000000000000000000000000000000000001630036113dc5760405162461bcd60e51b8152600401610b17906146dd565b7f00000000000000000000000000000000000000000000000000000000000000006001600160a01b0316611425600080516020614b42833981519152546001600160a01b031690565b6001600160a01b03161461144b5760405162461bcd60e51b8152600401610b1790614729565b61145482613240565b610e30828260016132f8565b61012d546040516001600160a01b0390911690637ae1cfca90611487903390602001614666565b604051602081830303815290604052805190602001206040518263ffffffff1660e01b81526004016114bb91815260200190565b602060405180830381865afa1580156114d8573d6000803e3d6000fd5b505050506040513d601f19601f820116820180604052508101906114fc9190614696565b6115185760405162461bcd60e51b8152600401610b17906146b3565b6000918252610136602052604090912055565b6000306001600160a01b037f000000000000000000000000000000000000000000000000000000000000000016146115cb5760405162461bcd60e51b815260206004820152603860248201527f555550535570677261646561626c653a206d757374206e6f742062652063616c60448201527f6c6564207468726f7567682064656c656761746563616c6c00000000000000006064820152608401610b17565b50600080516020614b4283398151915290565b61012d546040516001600160a01b0390911690637ae1cfca90611605903390602001614666565b604051602081830303815290604052805190602001206040518263ffffffff1660e01b815260040161163991815260200190565b602060405180830381865afa158015611656573d6000803e3d6000fd5b505050506040513d601f19601f8201168201806040525081019061167a9190614696565b6116965760405162461bcd60e51b8152600401610b17906146b3565b600082815261013460205260409020805463ffffffff166116f05760405162461bcd60e51b8152602060048201526014602482015273131bdd1d195c9e481a59081b9bdd08199bdd5b9960621b6044820152606401610b17565b805463ffffffff9081169083161161171a5760405162461bcd60e51b8152600401610b1790614775565b805463ffffffff9092166401000000000267ffffffff000000001990921691909117905550565b604080513360208083018290528284018990528351808403850181526060840185528051908201207f19457468657265756d205369676e6564204d6573736167653a0a3332000000006080850152609c808501919091528451808503909101815260bc840180865281519183019190912061012f5460dc601f890185900490940286018401909652868252929492936001600160a01b039093169261180292859291899189918291018382808284376000920191909152506134f692505050565b6001600160a01b03161461184c5760405162461bcd60e51b8152602060048201526011602482015270496e76616c6964207369676e617475726560781b6044820152606401610b17565b6101325460405163f662781d60e01b81526001600160a01b0384811660048301528992169063f662781d90602401602060405180830381865afa158015611897573d6000803e3d6000fd5b505050506040513d601f19601f820116820180604052508101906118bb91906147b8565b10156119295761013254604051630259ab7760e61b81526001600160a01b038481166004830152602482018a90529091169063966addc090604401600060405180830381600087803b15801561191057600080fd5b505af1158015611924573d6000803e3d6000fd5b505050505b6119338686611f4d565b50505050505050565b604080516101c081018252600080825260208201819052918101829052606081018290526080810182905260a0810182905260c0810182905260e08101829052610100810182905261012081018290526101408101829052610160810182905261018081018290526101a08101919091526000828152610134602090815260409182902082516101c081018452815463ffffffff80821683526401000000008204811694830194909452600160401b8104841694820194909452600160601b840483166060820152600160801b840483166080820152600160a01b840490921660a0830152909160c0830190600160c01b900460ff166003811115611a4357611a436141ff565b6003811115611a5457611a546141ff565b815260018201546001600160a01b0381166020830152600160a01b900460ff161515604082015260028201546001600160801b038082166060840152600160801b909104166080820152600382015460a0820152600482015460c082015260059091015460e09091015292915050565b61012d546040516001600160a01b0390911690637ae1cfca90611aeb903390602001614666565b604051602081830303815290604052805190602001206040518263ffffffff1660e01b8152600401611b1f91815260200190565b602060405180830381865afa158015611b3c573d6000803e3d6000fd5b505050506040513d601f19601f82011682018060405250810190611b609190614696565b611b7c5760405162461bcd60e51b8152600401610b17906146b3565b60008863ffffffff1611611bc75760405162461bcd60e51b8152602060048201526012602482015271496e76616c69642073746172742074696d6560701b6044820152606401610b17565b8763ffffffff168763ffffffff1611611bf25760405162461bcd60e51b8152600401610b1790614775565b610133805460018101825560009182527f92e985329fb94cc1b424ebb0f7f2929b6d27383ca94c0ec71c44fb48bdf96d2c018c9055604080516101c08101825263ffffffff808c1682528a16602082015290810182905261ffff80871660608301528516608082015260a0810182905260c08101828152602001886001600160a01b031681526020018715158152602001846001600160801b03168152602001836001600160801b031681526020018d81526020018c81526020018b81525090508061013460008e815260200190815260200160002060008201518160000160006101000a81548163ffffffff021916908363ffffffff16021790555060208201518160000160046101000a81548163ffffffff021916908363ffffffff16021790555060408201518160000160086101000a81548163ffffffff021916908363ffffffff160217905550606082015181600001600c6101000a81548163ffffffff021916908363ffffffff16021790555060808201518160000160106101000a81548163ffffffff021916908363ffffffff16021790555060a08201518160000160146101000a81548163ffffffff021916908363ffffffff16021790555060c08201518160000160186101000a81548160ff02191690836003811115611ddc57611ddc6141ff565b021790555060e08201516001820180546101008501511515600160a01b026001600160a81b03199091166001600160a01b03909316929092179190911790556101208201516101408301516001600160801b03908116600160801b029116176002820155610160820151600382015561018082015160048201556101a09091015160059091015560005b6040518d90600080516020614b2283398151915290600090a3505050505050505050505050565b61012d546040516001600160a01b0390911690637ae1cfca90611eb4903390602001614666565b604051602081830303815290604052805190602001206040518263ffffffff1660e01b8152600401611ee891815260200190565b602060405180830381865afa158015611f05573d6000803e3d6000fd5b505050506040513d601f19601f82011682018060405250810190611f299190614696565b611f455760405162461bcd60e51b8152600401610b17906146b3565b610fd361351a565b60fb5460ff1615611f705760405162461bcd60e51b8152600401610b17906147d1565b6000828152610135602052604090205482906001600160a01b03161561204f5760008181526101356020526040908190205490516320c18e6b60e21b8152336004820152602481018390526001600160a01b039091169063830639ac90604401602060405180830381865afa158015611fed573d6000803e3d6000fd5b505050506040513d601f19601f820116820180604052508101906120119190614696565b61204f5760405162461bcd60e51b815260206004820152600f60248201526e139bdd081dda1a5d195b1a5cdd1959608a1b6044820152606401610b17565b600083815261013460205260408120805490919081908190600160601b900463ffffffff16156120de57835463ffffffff600160601b820481169161209d918991600160a01b900416614811565b11156120de5760405162461bcd60e51b815260206004820152601060248201526f151a58dad95d1cc81cdbdb19081bdd5d60821b6044820152606401610b17565b60008781526101386020908152604080832033845290915290208054855461ffff90911690600160801b900463ffffffff161561217c578554600160801b900463ffffffff1661212e8983614811565b111561217c5760405162461bcd60e51b815260206004820181905260248201527f43616e277420627579207468697320616d6f756e74206f66207469636b6574736044820152606401610b17565b85544263ffffffff909116118015906121a4575085544264010000000090910463ffffffff16115b6121e65760405162461bcd60e51b81526020600482015260136024820152722637ba3a32b93c9034b9903737ba1037b832b760691b6044820152606401610b17565b60048601546121f59089614829565b93508315612209576122073385613572565b505b6005860154865490935088908790601490612232908490600160a01b900463ffffffff16614848565b92506101000a81548163ffffffff021916908363ffffffff16021790555060008311156122e9576122638389614829565b6101305460018801546040516323b872dd60e01b81523360048201526001600160a01b0391821660248201526044810184905292975016906323b872dd906064016020604051808303816000875af11580156122c3573d6000803e3d6000fd5b505050506040513d601f19601f820116820180604052508101906122e79190614696565b505b8060000361237b578554869060089061230e90600160401b900463ffffffff16614870565b825463ffffffff9182166101009390930a928302919092021990911617905560008981526101386020908152604080832033845290915290208254815461ffff19811661ffff9092169182178355845460ff62010000918290041615150262ffffff199091169091171790555b81548890839060009061239390849061ffff16614893565b825461ffff9182166101009390930a928302919092021990911617905550600089815261013a60205260408120905b8981101561243c5781546001810183556000838152602090200180546001600160a01b0319163390811790915582546040518d917fc41bbb54d04f2268c7895b9330f18468c306a3f92698a92c4c86b297873978489161242491815260200190565b60405180910390a3612435816148b0565b90506123c2565b5050505050505050505050565b60009182526065602090815260408084206001600160a01b0393909316845291905290205460ff1690565b6060600061248284846148c9565b61248d906001614811565b67ffffffffffffffff8111156124a5576124a5614082565b6040519080825280602002602001820160405280156124ce578160200160208202803683370190505b509050835b83811161255557600086815261013a602052604090208054829081106124fb576124fb6148e0565b9060005260206000200160009054906101000a90046001600160a01b031682828151811061252b5761252b6148e0565b6001600160a01b03909216602092830291909101909101528061254d816148b0565b9150506124d3565b5090505b9392505050565b61012d546040516001600160a01b0390911690637ae1cfca90612587903390602001614666565b604051602081830303815290604052805190602001206040518263ffffffff1660e01b81526004016125bb91815260200190565b602060405180830381865afa1580156125d8573d6000803e3d6000fd5b505050506040513d601f19601f820116820180604052508101906125fc9190614696565b6126185760405162461bcd60e51b8152600401610b17906146b3565b60008b815261013460205260409020805463ffffffff166126745760405162461bcd60e51b8152602060048201526016602482015275131bdd1d195c9e48191bd95cc81b9bdd08195e1a5cdd60521b6044820152606401610b17565b8054600482018c9055600582018b90556001820180546001600160a01b038a166001600160a01b0319909116179055600160601b61ffff88160263ffffffff60601b1963ffffffff8b81166401000000000267ffffffffffffffff19909416908d161792909217918216811783558691839160ff60c01b19166cff0000000000000000ffffffff60601b1990911617600160c01b83600381111561271a5761271a6141ff565b0217905550600181018054851515600160a01b0260ff60a01b199091161790556001600160801b03828116600160801b02908416176002820155846003811115611e6657611e666141ff565b61012d546040516001600160a01b0390911690637ae1cfca9061278d903390602001614666565b604051602081830303815290604052805190602001206040518263ffffffff1660e01b81526004016127c191815260200190565b602060405180830381865afa1580156127de573d6000803e3d6000fd5b505050506040513d601f19601f820116820180604052508101906128029190614696565b61281e5760405162461bcd60e51b8152600401610b17906146b3565b60008181526101346020526040902080544264010000000090910463ffffffff16106128845760405162461bcd60e51b8152602060048201526015602482015274131bdd1d195c9e481a5cc81b9bdd0818db1bdcd959605a1b6044820152606401610b17565b60008154600160c01b900460ff1660038111156128a3576128a36141ff565b036128ef57805460ff60c01b1916600160c11b17808255600160c01b900460ff1660038111156128d5576128d56141ff565b6040518390600080516020614b2283398151915290600090a35b60028154600160c01b900460ff16600381111561290e5761290e6141ff565b1461295b5760405162461bcd60e51b815260206004820152601760248201527f4c6f7474657279206d75737420626520636c6f736564210000000000000000006044820152606401610b17565b61013154604051632cdc85e960e21b8152600481018490526001600160a01b039091169063b37217a4906024016020604051808303816000875af11580156129a7573d6000803e3d6000fd5b505050506040513d601f19601f820116820180604052508101906129cb91906147b8565b61012e81905560405183907ff8cdf8355a0f31bbad8998a631f5a75dcb3e475a010b34a111ed105fe88e751a90600090a35050565b61012d546040516001600160a01b0390911690637ae1cfca90612a27903390602001614666565b604051602081830303815290604052805190602001206040518263ffffffff1660e01b8152600401612a5b91815260200190565b602060405180830381865afa158015612a78573d6000803e3d6000fd5b505050506040513d601f19601f82011682018060405250810190612a9c9190614696565b612ab85760405162461bcd60e51b8152600401610b17906146b3565b60009182526101346020526040909120805463ffffffff909216600160601b0263ffffffff60601b19909216919091179055565b60fb5460ff1615612b0f5760405162461bcd60e51b8152600401610b17906147d1565b60008781526101376020908152604080832088845290915290205460ff1615612b845760405162461bcd60e51b815260206004820152602160248201527f5061727469636970616e7420616c726561647920636c61696d6564207072697a6044820152606560f81b6064820152608401610b17565b612c17612bc988888888888080601f0160208091040260200160405190810160405280939291908181526020018383808284376000920191909152506135eb92505050565b61013660008a81526020019081526020016000205484848080602002602001604051908101604052809392919081815260200183836020028082843760009201919091525061362492505050565b612c5a5760405162461bcd60e51b815260206004820152601460248201527324b73b30b634b21036b2b935b63290383937b7b360611b6044820152606401610b17565b6000878152610138602090815260408083206001600160a01b03808b168552908352818420805462ff00001916620100001790558a8452610134835281842060019081015461013785528386208b875290945293829020805460ff191690941790935551633349e71f60e21b8152911690819063cd279c7c90612ce7908a908a908a908a906004016148f6565b600060405180830381600087803b158015612d0157600080fd5b505af1158015612d15573d6000803e3d6000fd5b5050505085876001600160a01b0316897f4aa95f981a8337cb337de335b965507da0879c3b49f799d20058e913f5ad2c2660405160405180910390a45050505050505050565b600082815260656020526040902060010154612d7681613149565b610db183836131d9565b61012d546040516001600160a01b0390911690637ae1cfca90612da7903390602001614666565b604051602081830303815290604052805190602001206040518263ffffffff1660e01b8152600401612ddb91815260200190565b602060405180830381865afa158015612df8573d6000803e3d6000fd5b505050506040513d601f19601f82011682018060405250810190612e1c9190614696565b612e385760405162461bcd60e51b8152600401610b17906146b3565b6000918252610135602052604090912080546001600160a01b0319166001600160a01b03909216919091179055565b61012d546040516001600160a01b0390911690637ae1cfca90612e8e903390602001614666565b604051602081830303815290604052805190602001206040518263ffffffff1660e01b8152600401612ec291815260200190565b602060405180830381865afa158015612edf573d6000803e3d6000fd5b505050506040513d601f19601f82011682018060405250810190612f039190614696565b612f1f5760405162461bcd60e51b8152600401610b17906146b3565b61013280546001600160a01b0319166001600160a01b0392909216919091179055565b61012d546040516001600160a01b0390911690637ae1cfca90612f69903390602001614666565b604051602081830303815290604052805190602001206040518263ffffffff1660e01b8152600401612f9d91815260200190565b602060405180830381865afa158015612fba573d6000803e3d6000fd5b505050506040513d601f19601f82011682018060405250810190612fde9190614696565b612ffa5760405162461bcd60e51b8152600401610b17906146b3565b6101305460405163a9059cbb60e01b81526001600160a01b038481166004830152602482018490529091169063a9059cbb906044016020604051808303816000875af115801561304e573d6000803e3d6000fd5b505050506040513d601f19601f82011682018060405250810190610db19190614696565b600061307e6001613639565b90508015613096576000805461ff0019166101001790555b61309e6136c6565b6130a66136ed565b6130ae6136c6565b61013080546001600160a01b038086166001600160a01b03199283161790925561012f8054878416908316179055610132805488841690831617905561012d8054928516929091169190911790558015613142576000805461ff0019169055604051600181527f7f26b83ff96e1f2b6a682f133852f6798a09c465da95921460cefb38474024989060200160405180910390a15b5050505050565b610f10813361371c565b61315d8282612449565b610e305760008281526065602090815260408083206001600160a01b03851684529091529020805460ff191660011790556131953390565b6001600160a01b0316816001600160a01b0316837f2f8788117e7eff1d82e926ec794901d17c78024a50270940304540a733656f0d60405160405180910390a45050565b6131e38282612449565b15610e305760008281526065602090815260408083206001600160a01b0385168085529252808320805460ff1916905551339285917ff6391f5c32d9c69d2a47ea670b442974b53935d1edc7fd64eb21e047a839171b9190a45050565b61012d546040516001600160a01b0390911690637ae1cfca90613267903390602001614666565b604051602081830303815290604052805190602001206040518263ffffffff1660e01b815260040161329b91815260200190565b602060405180830381865afa1580156132b8573d6000803e3d6000fd5b505050506040513d601f19601f820116820180604052508101906132dc9190614696565b610f105760405162461bcd60e51b8152600401610b17906146b3565b7f4910fdfa16fed3260ed0e7147f7cc6da11a60208b5b9406d12a635614ffd91435460ff161561332b57610db183613780565b826001600160a01b03166352d1902d6040518163ffffffff1660e01b8152600401602060405180830381865afa925050508015613385575060408051601f3d908101601f19168201909252613382918101906147b8565b60015b6133e85760405162461bcd60e51b815260206004820152602e60248201527f45524331393637557067726164653a206e657720696d706c656d656e7461746960448201526d6f6e206973206e6f74205555505360901b6064820152608401610b17565b600080516020614b4283398151915281146134575760405162461bcd60e51b815260206004820152602960248201527f45524331393637557067726164653a20756e737570706f727465642070726f786044820152681a58589b195555525160ba1b6064820152608401610b17565b50610db183838361381c565b60fb5460ff166134ac5760405162461bcd60e51b815260206004820152601460248201527314185d5cd8589b194e881b9bdd081c185d5cd95960621b6044820152606401610b17565b60fb805460ff191690557f5db9ee0a495bf2e6ff9c91a7834c1ba4fdd244a5e8aa4e537bd38aeae4b073aa335b6040516001600160a01b03909116815260200160405180910390a1565b60008060006135058585613847565b91509150613512816138b5565b509392505050565b60fb5460ff161561353d5760405162461bcd60e51b8152600401610b17906147d1565b60fb805460ff191660011790557f62e78cea01bee320cd4e420270b5ea74000d11b0c9f74754ebdbfc544b05a2586134d93390565b61013254604051631e961d2760e01b81526001600160a01b038481166004830152602482018490526000921690631e961d27906044016020604051808303816000875af11580156135c7573d6000803e3d6000fd5b505050506040513d601f19601f8201168201806040525081019061255991906147b8565b6000848484846040516020016136049493929190614996565b604051602081830303815290604052805190602001209050949350505050565b6000613631828486613a6b565b949350505050565b60008054610100900460ff1615613680578160ff16600114801561365c5750303b155b6136785760405162461bcd60e51b8152600401610b17906149cd565b506000919050565b60005460ff8084169116106136a75760405162461bcd60e51b8152600401610b17906149cd565b506000805460ff191660ff92909216919091179055600190565b919050565b600054610100900460ff16610fd35760405162461bcd60e51b8152600401610b1790614a1b565b600054610100900460ff166137145760405162461bcd60e51b8152600401610b1790614a1b565b610fd3613a81565b6137268282612449565b610e305761373e816001600160a01b03166014613ab4565b613749836020613ab4565b60405160200161375a929190614a66565b60408051601f198184030181529082905262461bcd60e51b8252610b1791600401614adb565b6001600160a01b0381163b6137ed5760405162461bcd60e51b815260206004820152602d60248201527f455243313936373a206e657720696d706c656d656e746174696f6e206973206e60448201526c1bdd08184818dbdb9d1c9858dd609a1b6064820152608401610b17565b600080516020614b4283398151915280546001600160a01b0319166001600160a01b0392909216919091179055565b61382583613c50565b6000825111806138325750805b15610db1576138418383613c90565b50505050565b600080825160410361387d5760208301516040840151606085015160001a61387187828585613d84565b945094505050506138ae565b82516040036138a6576020830151604084015161389b868383613e71565b9350935050506138ae565b506000905060025b9250929050565b60008160048111156138c9576138c96141ff565b036138d15750565b60018160048111156138e5576138e56141ff565b036139325760405162461bcd60e51b815260206004820152601860248201527f45434453413a20696e76616c6964207369676e617475726500000000000000006044820152606401610b17565b6002816004811115613946576139466141ff565b036139935760405162461bcd60e51b815260206004820152601f60248201527f45434453413a20696e76616c6964207369676e6174757265206c656e677468006044820152606401610b17565b60038160048111156139a7576139a76141ff565b036139ff5760405162461bcd60e51b815260206004820152602260248201527f45434453413a20696e76616c6964207369676e6174757265202773272076616c604482015261756560f01b6064820152608401610b17565b6004816004811115613a1357613a136141ff565b03610f105760405162461bcd60e51b815260206004820152602260248201527f45434453413a20696e76616c6964207369676e6174757265202776272076616c604482015261756560f01b6064820152608401610b17565b600082613a788584613eaa565b14949350505050565b600054610100900460ff16613aa85760405162461bcd60e51b8152600401610b1790614a1b565b60fb805460ff19169055565b60606000613ac3836002614829565b613ace906002614811565b67ffffffffffffffff811115613ae657613ae6614082565b6040519080825280601f01601f191660200182016040528015613b10576020820181803683370190505b509050600360fc1b81600081518110613b2b57613b2b6148e0565b60200101906001600160f81b031916908160001a905350600f60fb1b81600181518110613b5a57613b5a6148e0565b60200101906001600160f81b031916908160001a9053506000613b7e846002614829565b613b89906001614811565b90505b6001811115613c01576f181899199a1a9b1b9c1cb0b131b232b360811b85600f1660108110613bbd57613bbd6148e0565b1a60f81b828281518110613bd357613bd36148e0565b60200101906001600160f81b031916908160001a90535060049490941c93613bfa81614aee565b9050613b8c565b5083156125595760405162461bcd60e51b815260206004820181905260248201527f537472696e67733a20686578206c656e67746820696e73756666696369656e746044820152606401610b17565b613c5981613780565b6040516001600160a01b038216907fbc7cd75a20ee27fd9adebab32041f755214dbc6bffa90cc0225b39da2e5c2d3b90600090a250565b60606001600160a01b0383163b613cf85760405162461bcd60e51b815260206004820152602660248201527f416464726573733a2064656c65676174652063616c6c20746f206e6f6e2d636f6044820152651b9d1c9858dd60d21b6064820152608401610b17565b600080846001600160a01b031684604051613d139190614b05565b600060405180830381855af49150503d8060008114613d4e576040519150601f19603f3d011682016040523d82523d6000602084013e613d53565b606091505b5091509150613d7b8282604051806060016040528060278152602001614b6260279139613f16565b95945050505050565b6000807f7fffffffffffffffffffffffffffffff5d576e7357a4501ddfe92f46681b20a0831115613dbb5750600090506003613e68565b8460ff16601b14158015613dd357508460ff16601c14155b15613de45750600090506004613e68565b6040805160008082526020820180845289905260ff881692820192909252606081018690526080810185905260019060a0016020604051602081039080840390855afa158015613e38573d6000803e3d6000fd5b5050604051601f1901519150506001600160a01b038116613e6157600060019250925050613e68565b9150600090505b94509492505050565b6000806001600160ff1b03831681613e8e60ff86901c601b614811565b9050613e9c87828885613d84565b935093505050935093915050565b600081815b8451811015613512576000858281518110613ecc57613ecc6148e0565b60200260200101519050808311613ef25760008381526020829052604090209250613f03565b600081815260208490526040902092505b5080613f0e816148b0565b915050613eaf565b60608315613f25575081612559565b825115613f355782518084602001fd5b8160405162461bcd60e51b8152600401610b179190614adb565b600060208284031215613f6157600080fd5b81356001600160e01b03198116811461255957600080fd5b6001600160a01b0381168114610f1057600080fd5b60008060408385031215613fa157600080fd5b823591506020830135613fb381613f79565b809150509250929050565b600060208284031215613fd057600080fd5b813561255981613f79565b600060208284031215613fed57600080fd5b5035919050565b60008060006060848603121561400957600080fd5b505081359360208301359350604090920135919050565b6000806040838503121561403357600080fd5b50508035926020909101359150565b803563ffffffff811681146136c157600080fd5b6000806040838503121561406957600080fd5b8235915061407960208401614042565b90509250929050565b634e487b7160e01b600052604160045260246000fd5b600080604083850312156140ab57600080fd5b82356140b681613f79565b9150602083013567ffffffffffffffff808211156140d357600080fd5b818501915085601f8301126140e757600080fd5b8135818111156140f9576140f9614082565b604051601f8201601f19908116603f0116810190838211818310171561412157614121614082565b8160405282815288602084870101111561413a57600080fd5b8260208601602083013760006020848301015280955050505050509250929050565b60008083601f84011261416e57600080fd5b50813567ffffffffffffffff81111561418657600080fd5b6020830191508360208285010111156138ae57600080fd5b6000806000806000608086880312156141b657600080fd5b853594506020860135935060408601359250606086013567ffffffffffffffff8111156141e257600080fd5b6141ee8882890161415c565b969995985093965092949392505050565b634e487b7160e01b600052602160045260246000fd5b6004811061423357634e487b7160e01b600052602160045260246000fd5b9052565b815163ffffffff1681526101c08101602083015161425d602084018263ffffffff169052565b506040830151614275604084018263ffffffff169052565b50606083015161428d606084018263ffffffff169052565b5060808301516142a5608084018263ffffffff169052565b5060a08301516142bd60a084018263ffffffff169052565b5060c08301516142d060c0840182614215565b5060e08301516142eb60e08401826001600160a01b03169052565b5061010083810151151590830152610120808401516001600160801b03908116918401919091526101408085015190911690830152610160808401519083015261018080840151908301526101a092830151929091019190915290565b8015158114610f1057600080fd5b803561ffff811681146136c157600080fd5b80356001600160801b03811681146136c157600080fd5b60008060008060008060008060008060006101608c8e0312156143a157600080fd5b8b359a5060208c0135995060408c013598506143bf60608d01614042565b97506143cd60808d01614042565b965060a08c01356143dd81613f79565b955060c08c01356143ed81614348565b94506143fb60e08d01614356565b935061440a6101008d01614356565b92506144196101208d01614368565b91506144286101408d01614368565b90509295989b509295989b9093969950565b6020808252825182820181905260009190848201906040850190845b8181101561447b5783516001600160a01b031683529284019291840191600101614456565b50909695505050505050565b60008060008060008060008060008060006101608c8e0312156144a957600080fd5b8b359a5060208c0135995060408c013598506144c760608d01614042565b97506144d560808d01614042565b965060a08c01356144e581613f79565b95506144f360c08d01614356565b945060e08c01356004811061450757600080fd5b93506101008c013561440a81614348565b600080600080600080600060a0888a03121561453357600080fd5b87359650602088013561454581613f79565b955060408801359450606088013567ffffffffffffffff8082111561456957600080fd5b6145758b838c0161415c565b909650945060808a013591508082111561458e57600080fd5b818a0191508a601f8301126145a257600080fd5b8135818111156145b157600080fd5b8b60208260051b85010111156145c657600080fd5b60208301945080935050505092959891949750929550565b600080604083850312156145f157600080fd5b82356145fc81613f79565b946020939093013593505050565b6000806000806080858703121561462057600080fd5b843561462b81613f79565b9350602085013561463b81613f79565b9250604085013561464b81613f79565b9150606085013561465b81613f79565b939692955090935050565b693937b6329730b236b4b760b11b815260609190911b6bffffffffffffffffffffffff1916600a820152601e0190565b6000602082840312156146a857600080fd5b815161255981614348565b60208082526010908201526f41646d696e2063616c6c73206f6e6c7960801b604082015260600190565b6020808252602c908201527f46756e6374696f6e206d7573742062652063616c6c6564207468726f7567682060408201526b19195b1959d85d1958d85b1b60a21b606082015260800190565b6020808252602c908201527f46756e6374696f6e206d7573742062652063616c6c6564207468726f7567682060408201526b6163746976652070726f787960a01b606082015260800190565b60208082526023908201527f436c6f73652074696d65206d7573742062652061667465722073746172742074604082015262696d6560e81b606082015260800190565b6000602082840312156147ca57600080fd5b5051919050565b60208082526010908201526f14185d5cd8589b194e881c185d5cd95960821b604082015260600190565b634e487b7160e01b600052601160045260246000fd5b60008219821115614824576148246147fb565b500190565b6000816000190483118215151615614843576148436147fb565b500290565b600063ffffffff808316818516808303821115614867576148676147fb565b01949350505050565b600063ffffffff808316818103614889576148896147fb565b6001019392505050565b600061ffff808316818516808303821115614867576148676147fb565b6000600182016148c2576148c26147fb565b5060010190565b6000828210156148db576148db6147fb565b500390565b634e487b7160e01b600052603260045260246000fd5b6001600160a01b0385168152602081018490526060604082018190528101829052818360808301376000818301608090810191909152601f909201601f191601019392505050565b60005b83811015614959578181015183820152602001614941565b838111156138415750506000910152565b6000815180845261498281602086016020860161493e565b601f01601f19169290920160200192915050565b84815260018060a01b03841660208201528260408201526080606082015260006149c3608083018461496a565b9695505050505050565b6020808252602e908201527f496e697469616c697a61626c653a20636f6e747261637420697320616c72656160408201526d191e481a5b9a5d1a585b1a5e995960921b606082015260800190565b6020808252602b908201527f496e697469616c697a61626c653a20636f6e7472616374206973206e6f74206960408201526a6e697469616c697a696e6760a81b606082015260800190565b7f416363657373436f6e74726f6c3a206163636f756e7420000000000000000000815260008351614a9e81601785016020880161493e565b7001034b99036b4b9b9b4b733903937b6329607d1b6017918401918201528351614acf81602884016020880161493e565b01602801949350505050565b602081526000612559602083018461496a565b600081614afd57614afd6147fb565b506000190190565b60008251614b1781846020870161493e565b919091019291505056fea3aca9ae20a0379d4094b84c749cbed6584ab20f0b71af75f63f6615d879c939360894a13ba1a3210667c828492db98dca3e2076cc3735a920a3ca505d382bbc416464726573733a206c6f772d6c6576656c2064656c65676174652063616c6c206661696c6564a26469706673582212209800f370aacdff141b66a5569a50a46ce65ca3a265431121c66d845f92298da864736f6c634300080e0033",
  "linkReferences": {},
  "deployedLinkReferences": {}
}