{
  "_format": "hh-sol-artifact-1",
  "contractName": "Lottery",
  "sourceName": "contracts/Lottery/Lottery.sol",
  "abi": [
    {
      "anonymous": false,
      "inputs": [
        {
          "indexed": false,
          "internalType": "address",
          "name": "previousAdmin",
          "type": "address"
        },
        {
          "indexed": false,
          "internalType": "address",
          "name": "newAdmin",
          "type": "address"
        }
      ],
      "name": "AdminChanged",
      "type": "event"
    },
    {
      "anonymous": false,
      "inputs": [
        {
          "indexed": true,
          "internalType": "address",
          "name": "beacon",
          "type": "address"
        }
      ],
      "name": "BeaconUpgraded",
      "type": "event"
    },
    {
      "anonymous": false,
      "inputs": [
        {
          "indexed": false,
          "internalType": "uint8",
          "name": "version",
          "type": "uint8"
        }
      ],
      "name": "Initialized",
      "type": "event"
    },
    {
      "anonymous": false,
      "inputs": [
        {
          "indexed": true,
          "internalType": "uint256",
          "name": "lotteryId",
          "type": "uint256"
        },
        {
          "indexed": true,
          "internalType": "enum Lottery.Status",
          "name": "status",
          "type": "uint8"
        }
      ],
      "name": "LotteryStatusChanged",
      "type": "event"
    },
    {
      "anonymous": false,
      "inputs": [
        {
          "indexed": false,
          "internalType": "address",
          "name": "account",
          "type": "address"
        }
      ],
      "name": "Paused",
      "type": "event"
    },
    {
      "anonymous": false,
      "inputs": [
        {
          "indexed": true,
          "internalType": "uint256",
          "name": "lotteryId",
          "type": "uint256"
        },
        {
          "indexed": true,
          "internalType": "address",
          "name": "participantAddress",
          "type": "address"
        },
        {
          "indexed": true,
          "internalType": "uint256",
          "name": "prizeId",
          "type": "uint256"
        }
      ],
      "name": "PrizeClaimed",
      "type": "event"
    },
    {
      "anonymous": false,
      "inputs": [
        {
          "indexed": true,
          "internalType": "uint256",
          "name": "lotteryId",
          "type": "uint256"
        },
        {
          "indexed": true,
          "internalType": "address",
          "name": "participantAddress",
          "type": "address"
        },
        {
          "indexed": false,
          "internalType": "uint256",
          "name": "amount",
          "type": "uint256"
        }
      ],
      "name": "Refunded",
      "type": "event"
    },
    {
      "anonymous": false,
      "inputs": [
        {
          "indexed": true,
          "internalType": "bytes32",
          "name": "role",
          "type": "bytes32"
        },
        {
          "indexed": true,
          "internalType": "bytes32",
          "name": "previousAdminRole",
          "type": "bytes32"
        },
        {
          "indexed": true,
          "internalType": "bytes32",
          "name": "newAdminRole",
          "type": "bytes32"
        }
      ],
      "name": "RoleAdminChanged",
      "type": "event"
    },
    {
      "anonymous": false,
      "inputs": [
        {
          "indexed": true,
          "internalType": "bytes32",
          "name": "role",
          "type": "bytes32"
        },
        {
          "indexed": true,
          "internalType": "address",
          "name": "account",
          "type": "address"
        },
        {
          "indexed": true,
          "internalType": "address",
          "name": "sender",
          "type": "address"
        }
      ],
      "name": "RoleGranted",
      "type": "event"
    },
    {
      "anonymous": false,
      "inputs": [
        {
          "indexed": true,
          "internalType": "bytes32",
          "name": "role",
          "type": "bytes32"
        },
        {
          "indexed": true,
          "internalType": "address",
          "name": "account",
          "type": "address"
        },
        {
          "indexed": true,
          "internalType": "address",
          "name": "sender",
          "type": "address"
        }
      ],
      "name": "RoleRevoked",
      "type": "event"
    },
    {
      "anonymous": false,
      "inputs": [
        {
          "indexed": false,
          "internalType": "address",
          "name": "operator",
          "type": "address"
        },
        {
          "indexed": false,
          "internalType": "uint256",
          "name": "lotteryId",
          "type": "uint256"
        },
        {
          "indexed": false,
          "internalType": "uint256",
          "name": "priceOfTicket",
          "type": "uint256"
        }
      ],
      "name": "TicketCostChanged",
      "type": "event"
    },
    {
      "anonymous": false,
      "inputs": [
        {
          "indexed": true,
          "internalType": "uint256",
          "name": "lotteryId",
          "type": "uint256"
        },
        {
          "indexed": false,
          "internalType": "uint256",
          "name": "ticketNumber",
          "type": "uint256"
        },
        {
          "indexed": true,
          "internalType": "address",
          "name": "participantAddress",
          "type": "address"
        }
      ],
      "name": "TicketSold",
      "type": "event"
    },
    {
      "anonymous": false,
      "inputs": [
        {
          "indexed": false,
          "internalType": "address",
          "name": "account",
          "type": "address"
        }
      ],
      "name": "Unpaused",
      "type": "event"
    },
    {
      "anonymous": false,
      "inputs": [
        {
          "indexed": true,
          "internalType": "address",
          "name": "implementation",
          "type": "address"
        }
      ],
      "name": "Upgraded",
      "type": "event"
    },
    {
      "inputs": [],
      "name": "DEFAULT_ADMIN_ROLE",
      "outputs": [
        {
          "internalType": "bytes32",
          "name": "",
          "type": "bytes32"
        }
      ],
      "stateMutability": "view",
      "type": "function"
    },
    {
      "inputs": [
        {
          "internalType": "uint256",
          "name": "_lotteryId",
          "type": "uint256"
        },
        {
          "internalType": "uint256",
          "name": "_numberOfTicketsToBuy",
          "type": "uint256"
        }
      ],
      "name": "buyTickets",
      "outputs": [],
      "stateMutability": "nonpayable",
      "type": "function"
    },
    {
      "inputs": [
        {
          "internalType": "uint256",
          "name": "_points",
          "type": "uint256"
        },
        {
          "internalType": "uint256",
          "name": "_lotteryId",
          "type": "uint256"
        },
        {
          "internalType": "uint256",
          "name": "_numberOfTicketsToBuy",
          "type": "uint256"
        },
        {
          "internalType": "bytes",
          "name": "_sig",
          "type": "bytes"
        }
      ],
      "name": "buyTicketsWithSignedMessage",
      "outputs": [],
      "stateMutability": "nonpayable",
      "type": "function"
    },
    {
      "inputs": [
        {
          "internalType": "uint256",
          "name": "_lotteryId",
          "type": "uint256"
        }
      ],
      "name": "cancelLottery",
      "outputs": [],
      "stateMutability": "nonpayable",
      "type": "function"
    },
    {
      "inputs": [
        {
          "internalType": "uint256",
          "name": "_lotteryId",
          "type": "uint256"
        },
        {
          "internalType": "uint32",
          "name": "_time",
          "type": "uint32"
        }
      ],
      "name": "changeCloseTime",
      "outputs": [],
      "stateMutability": "nonpayable",
      "type": "function"
    },
    {
      "inputs": [
        {
          "internalType": "uint256",
          "name": "_lotteryId",
          "type": "uint256"
        },
        {
          "internalType": "address",
          "name": "_winner",
          "type": "address"
        },
        {
          "internalType": "uint256",
          "name": "_prizeId",
          "type": "uint256"
        },
        {
          "internalType": "string",
          "name": "_uri",
          "type": "string"
        },
        {
          "internalType": "bytes32[]",
          "name": "_proof",
          "type": "bytes32[]"
        }
      ],
      "name": "claimPrize",
      "outputs": [],
      "stateMutability": "nonpayable",
      "type": "function"
    },
    {
      "inputs": [
        {
          "internalType": "uint256",
          "name": "",
          "type": "uint256"
        },
        {
          "internalType": "uint256",
          "name": "",
          "type": "uint256"
        }
      ],
      "name": "claimedPrizes",
      "outputs": [
        {
          "internalType": "bool",
          "name": "",
          "type": "bool"
        }
      ],
      "stateMutability": "view",
      "type": "function"
    },
    {
      "inputs": [
        {
          "components": [
            {
              "internalType": "uint32",
              "name": "startTime",
              "type": "uint32"
            },
            {
              "internalType": "uint32",
              "name": "closeTime",
              "type": "uint32"
            },
            {
              "internalType": "uint32",
              "name": "participantsCount",
              "type": "uint32"
            },
            {
              "internalType": "uint32",
              "name": "maxTickets",
              "type": "uint32"
            },
            {
              "internalType": "uint32",
              "name": "maxTicketsPerUser",
              "type": "uint32"
            },
            {
              "internalType": "uint32",
              "name": "numberOfTicketsSold",
              "type": "uint32"
            },
            {
              "internalType": "enum Lottery.Status",
              "name": "status",
              "type": "uint8"
            },
            {
              "internalType": "contract INFT",
              "name": "nftContract",
              "type": "address"
            },
            {
              "internalType": "uint128",
              "name": "firstPrizeId",
              "type": "uint128"
            },
            {
              "internalType": "uint128",
              "name": "lastPrizeId",
              "type": "uint128"
            },
            {
              "internalType": "uint256",
              "name": "lotteryID",
              "type": "uint256"
            },
            {
              "internalType": "uint256",
              "name": "ticketCostPoints",
              "type": "uint256"
            },
            {
              "internalType": "uint256",
              "name": "ticketCostTokens",
              "type": "uint256"
            }
          ],
          "internalType": "struct Lottery.LotteryInfo",
          "name": "_lotteryInfo",
          "type": "tuple"
        }
      ],
      "name": "createLottery",
      "outputs": [],
      "stateMutability": "nonpayable",
      "type": "function"
    },
    {
      "inputs": [
        {
          "components": [
            {
              "internalType": "uint32",
              "name": "startTime",
              "type": "uint32"
            },
            {
              "internalType": "uint32",
              "name": "closeTime",
              "type": "uint32"
            },
            {
              "internalType": "uint32",
              "name": "participantsCount",
              "type": "uint32"
            },
            {
              "internalType": "uint32",
              "name": "maxTickets",
              "type": "uint32"
            },
            {
              "internalType": "uint32",
              "name": "maxTicketsPerUser",
              "type": "uint32"
            },
            {
              "internalType": "uint32",
              "name": "numberOfTicketsSold",
              "type": "uint32"
            },
            {
              "internalType": "enum Lottery.Status",
              "name": "status",
              "type": "uint8"
            },
            {
              "internalType": "contract INFT",
              "name": "nftContract",
              "type": "address"
            },
            {
              "internalType": "uint128",
              "name": "firstPrizeId",
              "type": "uint128"
            },
            {
              "internalType": "uint128",
              "name": "lastPrizeId",
              "type": "uint128"
            },
            {
              "internalType": "uint256",
              "name": "lotteryID",
              "type": "uint256"
            },
            {
              "internalType": "uint256",
              "name": "ticketCostPoints",
              "type": "uint256"
            },
            {
              "internalType": "uint256",
              "name": "ticketCostTokens",
              "type": "uint256"
            }
          ],
          "internalType": "struct Lottery.LotteryInfo[]",
          "name": "_lotteries",
          "type": "tuple[]"
        }
      ],
      "name": "createLotteryBatch",
      "outputs": [],
      "stateMutability": "nonpayable",
      "type": "function"
    },
    {
      "inputs": [],
      "name": "getLotteryCount",
      "outputs": [
        {
          "internalType": "uint256",
          "name": "",
          "type": "uint256"
        }
      ],
      "stateMutability": "view",
      "type": "function"
    },
    {
      "inputs": [
        {
          "internalType": "uint256",
          "name": "_lotteryId",
          "type": "uint256"
        }
      ],
      "name": "getLotteryInfo",
      "outputs": [
        {
          "components": [
            {
              "internalType": "uint32",
              "name": "startTime",
              "type": "uint32"
            },
            {
              "internalType": "uint32",
              "name": "closeTime",
              "type": "uint32"
            },
            {
              "internalType": "uint32",
              "name": "participantsCount",
              "type": "uint32"
            },
            {
              "internalType": "uint32",
              "name": "maxTickets",
              "type": "uint32"
            },
            {
              "internalType": "uint32",
              "name": "maxTicketsPerUser",
              "type": "uint32"
            },
            {
              "internalType": "uint32",
              "name": "numberOfTicketsSold",
              "type": "uint32"
            },
            {
              "internalType": "enum Lottery.Status",
              "name": "status",
              "type": "uint8"
            },
            {
              "internalType": "contract INFT",
              "name": "nftContract",
              "type": "address"
            },
            {
              "internalType": "uint128",
              "name": "firstPrizeId",
              "type": "uint128"
            },
            {
              "internalType": "uint128",
              "name": "lastPrizeId",
              "type": "uint128"
            },
            {
              "internalType": "uint256",
              "name": "lotteryID",
              "type": "uint256"
            },
            {
              "internalType": "uint256",
              "name": "ticketCostPoints",
              "type": "uint256"
            },
            {
              "internalType": "uint256",
              "name": "ticketCostTokens",
              "type": "uint256"
            }
          ],
          "internalType": "struct Lottery.LotteryInfo",
          "name": "",
          "type": "tuple"
        }
      ],
      "stateMutability": "view",
      "type": "function"
    },
    {
      "inputs": [
        {
          "internalType": "uint256",
          "name": "_lotteryId",
          "type": "uint256"
        }
      ],
      "name": "getLotteryTicketCount",
      "outputs": [
        {
          "internalType": "uint256",
          "name": "",
          "type": "uint256"
        }
      ],
      "stateMutability": "view",
      "type": "function"
    },
    {
      "inputs": [
        {
          "internalType": "uint256",
          "name": "_lotteryId",
          "type": "uint256"
        },
        {
          "internalType": "uint256",
          "name": "_from",
          "type": "uint256"
        },
        {
          "internalType": "uint256",
          "name": "_to",
          "type": "uint256"
        }
      ],
      "name": "getLotteryTickets",
      "outputs": [
        {
          "internalType": "address[]",
          "name": "",
          "type": "address[]"
        }
      ],
      "stateMutability": "view",
      "type": "function"
    },
    {
      "inputs": [
        {
          "internalType": "uint256",
          "name": "_lotteryId",
          "type": "uint256"
        }
      ],
      "name": "getParticipantsCount",
      "outputs": [
        {
          "internalType": "uint32",
          "name": "",
          "type": "uint32"
        }
      ],
      "stateMutability": "view",
      "type": "function"
    },
    {
      "inputs": [
        {
          "internalType": "bytes32",
          "name": "role",
          "type": "bytes32"
        }
      ],
      "name": "getRoleAdmin",
      "outputs": [
        {
          "internalType": "bytes32",
          "name": "",
          "type": "bytes32"
        }
      ],
      "stateMutability": "view",
      "type": "function"
    },
    {
      "inputs": [
        {
          "internalType": "uint256",
          "name": "_lotteryId",
          "type": "uint256"
        },
        {
          "internalType": "address",
          "name": "_user",
          "type": "address"
        }
      ],
      "name": "getTicketCountPerUser",
      "outputs": [
        {
          "internalType": "uint256",
          "name": "",
          "type": "uint256"
        }
      ],
      "stateMutability": "view",
      "type": "function"
    },
    {
      "inputs": [
        {
          "internalType": "uint256",
          "name": "_lotteryId",
          "type": "uint256"
        }
      ],
      "name": "getWhitelist",
      "outputs": [
        {
          "internalType": "address",
          "name": "",
          "type": "address"
        }
      ],
      "stateMutability": "view",
      "type": "function"
    },
    {
      "inputs": [
        {
          "internalType": "bytes32",
          "name": "role",
          "type": "bytes32"
        },
        {
          "internalType": "address",
          "name": "account",
          "type": "address"
        }
      ],
      "name": "grantRole",
      "outputs": [],
      "stateMutability": "nonpayable",
      "type": "function"
    },
    {
      "inputs": [
        {
          "internalType": "bytes32",
          "name": "role",
          "type": "bytes32"
        },
        {
          "internalType": "address",
          "name": "account",
          "type": "address"
        }
      ],
      "name": "hasRole",
      "outputs": [
        {
          "internalType": "bool",
          "name": "",
          "type": "bool"
        }
      ],
      "stateMutability": "view",
      "type": "function"
    },
    {
      "inputs": [
        {
          "internalType": "address",
          "name": "_rewardsContract",
          "type": "address"
        },
        {
          "internalType": "address",
          "name": "_admin",
          "type": "address"
        },
        {
          "internalType": "address",
          "name": "_token",
          "type": "address"
        },
        {
          "internalType": "address",
          "name": "_sageStorage",
          "type": "address"
        }
      ],
      "name": "initialize",
      "outputs": [],
      "stateMutability": "nonpayable",
      "type": "function"
    },
    {
      "inputs": [
        {
          "internalType": "uint256",
          "name": "",
          "type": "uint256"
        }
      ],
      "name": "lotteries",
      "outputs": [
        {
          "internalType": "uint256",
          "name": "",
          "type": "uint256"
        }
      ],
      "stateMutability": "view",
      "type": "function"
    },
    {
      "inputs": [
        {
          "internalType": "uint256",
          "name": "",
          "type": "uint256"
        },
        {
          "internalType": "uint256",
          "name": "",
          "type": "uint256"
        }
      ],
      "name": "lotteryTickets",
      "outputs": [
        {
          "internalType": "address",
          "name": "",
          "type": "address"
        }
      ],
      "stateMutability": "view",
      "type": "function"
    },
    {
      "inputs": [
        {
          "internalType": "uint256",
          "name": "",
          "type": "uint256"
        },
        {
          "internalType": "address",
          "name": "",
          "type": "address"
        }
      ],
      "name": "participants",
      "outputs": [
        {
          "internalType": "uint16",
          "name": "totalTicketsBought",
          "type": "uint16"
        },
        {
          "internalType": "bool",
          "name": "claimedPrize",
          "type": "bool"
        }
      ],
      "stateMutability": "view",
      "type": "function"
    },
    {
      "inputs": [],
      "name": "pause",
      "outputs": [],
      "stateMutability": "nonpayable",
      "type": "function"
    },
    {
      "inputs": [],
      "name": "paused",
      "outputs": [
        {
          "internalType": "bool",
          "name": "",
          "type": "bool"
        }
      ],
      "stateMutability": "view",
      "type": "function"
    },
    {
      "inputs": [
        {
          "internalType": "uint256",
          "name": "_lotteryId",
          "type": "uint256"
        },
        {
          "internalType": "uint256",
          "name": "_tokenId",
          "type": "uint256"
        }
      ],
      "name": "prizeClaimed",
      "outputs": [
        {
          "internalType": "bool",
          "name": "",
          "type": "bool"
        }
      ],
      "stateMutability": "view",
      "type": "function"
    },
    {
      "inputs": [
        {
          "internalType": "uint256",
          "name": "",
          "type": "uint256"
        }
      ],
      "name": "prizeMerkleRoots",
      "outputs": [
        {
          "internalType": "bytes32",
          "name": "",
          "type": "bytes32"
        }
      ],
      "stateMutability": "view",
      "type": "function"
    },
    {
      "inputs": [],
      "name": "proxiableUUID",
      "outputs": [
        {
          "internalType": "bytes32",
          "name": "",
          "type": "bytes32"
        }
      ],
      "stateMutability": "view",
      "type": "function"
    },
    {
      "inputs": [
        {
          "internalType": "uint256",
          "name": "",
          "type": "uint256"
        }
      ],
      "name": "randomSeeds",
      "outputs": [
        {
          "internalType": "uint256",
          "name": "",
          "type": "uint256"
        }
      ],
      "stateMutability": "view",
      "type": "function"
    },
    {
      "inputs": [
        {
          "internalType": "uint256",
          "name": "_lotteryId",
          "type": "uint256"
        },
        {
          "internalType": "uint256",
          "name": "_randomNumber",
          "type": "uint256"
        }
      ],
      "name": "receiveRandomNumber",
      "outputs": [],
      "stateMutability": "nonpayable",
      "type": "function"
    },
    {
      "inputs": [
        {
          "internalType": "address",
          "name": "_assetOwner",
          "type": "address"
        },
        {
          "internalType": "uint256",
          "name": "_lotteryId",
          "type": "uint256"
        },
        {
          "internalType": "uint256",
          "name": "_amount",
          "type": "uint256"
        }
      ],
      "name": "refund",
      "outputs": [],
      "stateMutability": "nonpayable",
      "type": "function"
    },
    {
      "inputs": [
        {
          "internalType": "address[]",
          "name": "_owners",
          "type": "address[]"
        },
        {
          "internalType": "uint256",
          "name": "_lotteryId",
          "type": "uint256"
        },
        {
          "internalType": "uint256[]",
          "name": "_amounts",
          "type": "uint256[]"
        }
      ],
      "name": "refundBatch",
      "outputs": [],
      "stateMutability": "nonpayable",
      "type": "function"
    },
    {
      "inputs": [
        {
          "internalType": "uint256",
          "name": "",
          "type": "uint256"
        },
        {
          "internalType": "address",
          "name": "",
          "type": "address"
        }
      ],
      "name": "refunds",
      "outputs": [
        {
          "internalType": "uint256",
          "name": "",
          "type": "uint256"
        }
      ],
      "stateMutability": "view",
      "type": "function"
    },
    {
      "inputs": [
        {
          "internalType": "bytes32",
          "name": "role",
          "type": "bytes32"
        },
        {
          "internalType": "address",
          "name": "account",
          "type": "address"
        }
      ],
      "name": "renounceRole",
      "outputs": [],
      "stateMutability": "nonpayable",
      "type": "function"
    },
    {
      "inputs": [
        {
          "internalType": "uint256",
          "name": "_lotteryId",
          "type": "uint256"
        }
      ],
      "name": "requestRandomNumber",
      "outputs": [],
      "stateMutability": "nonpayable",
      "type": "function"
    },
    {
      "inputs": [
        {
          "internalType": "bytes32",
          "name": "role",
          "type": "bytes32"
        },
        {
          "internalType": "address",
          "name": "account",
          "type": "address"
        }
      ],
      "name": "revokeRole",
      "outputs": [],
      "stateMutability": "nonpayable",
      "type": "function"
    },
    {
      "inputs": [],
      "name": "rewardsContract",
      "outputs": [
        {
          "internalType": "contract IRewards",
          "name": "",
          "type": "address"
        }
      ],
      "stateMutability": "view",
      "type": "function"
    },
    {
      "inputs": [
        {
          "internalType": "uint256",
          "name": "_lotteryId",
          "type": "uint256"
        },
        {
          "internalType": "uint32",
          "name": "_maxTickets",
          "type": "uint32"
        }
      ],
      "name": "setMaxTickets",
      "outputs": [],
      "stateMutability": "nonpayable",
      "type": "function"
    },
    {
      "inputs": [
        {
          "internalType": "uint256",
          "name": "_lotteryId",
          "type": "uint256"
        },
        {
          "internalType": "uint32",
          "name": "_maxTicketsPerUser",
          "type": "uint32"
        }
      ],
      "name": "setMaxTicketsPerUser",
      "outputs": [],
      "stateMutability": "nonpayable",
      "type": "function"
    },
    {
      "inputs": [
        {
          "internalType": "uint256",
          "name": "_lotteryId",
          "type": "uint256"
        },
        {
          "internalType": "bytes32",
          "name": "_root",
          "type": "bytes32"
        }
      ],
      "name": "setPrizeMerkleRoot",
      "outputs": [],
      "stateMutability": "nonpayable",
      "type": "function"
    },
    {
      "inputs": [
        {
          "internalType": "address",
          "name": "_IRandomNumberGenerator",
          "type": "address"
        }
      ],
      "name": "setRandomGenerator",
      "outputs": [],
      "stateMutability": "nonpayable",
      "type": "function"
    },
    {
      "inputs": [
        {
          "internalType": "address",
          "name": "_rewardsContract",
          "type": "address"
        }
      ],
      "name": "setRewardsContract",
      "outputs": [],
      "stateMutability": "nonpayable",
      "type": "function"
    },
    {
      "inputs": [
        {
          "internalType": "address",
          "name": "_signer",
          "type": "address"
        }
      ],
      "name": "setSignerAddress",
      "outputs": [],
      "stateMutability": "nonpayable",
      "type": "function"
    },
    {
      "inputs": [
        {
          "internalType": "address",
          "name": "_token",
          "type": "address"
        }
      ],
      "name": "setToken",
      "outputs": [],
      "stateMutability": "nonpayable",
      "type": "function"
    },
    {
      "inputs": [
        {
          "internalType": "uint256",
          "name": "_lotteryId",
          "type": "uint256"
        },
        {
          "internalType": "address",
          "name": "_whitelist",
          "type": "address"
        }
      ],
      "name": "setWhitelist",
      "outputs": [],
      "stateMutability": "nonpayable",
      "type": "function"
    },
    {
      "inputs": [
        {
          "internalType": "bytes4",
          "name": "interfaceId",
          "type": "bytes4"
        }
      ],
      "name": "supportsInterface",
      "outputs": [
        {
          "internalType": "bool",
          "name": "",
          "type": "bool"
        }
      ],
      "stateMutability": "view",
      "type": "function"
    },
    {
      "inputs": [],
      "name": "token",
      "outputs": [
        {
          "internalType": "contract IERC20",
          "name": "",
          "type": "address"
        }
      ],
      "stateMutability": "view",
      "type": "function"
    },
    {
      "inputs": [],
      "name": "unpause",
      "outputs": [],
      "stateMutability": "nonpayable",
      "type": "function"
    },
    {
      "inputs": [
        {
          "internalType": "uint256",
          "name": "lotteryId",
          "type": "uint256"
        },
        {
          "internalType": "uint256",
          "name": "_ticketCostPoints",
          "type": "uint256"
        },
        {
          "internalType": "uint256",
          "name": "_ticketCostTokens",
          "type": "uint256"
        },
        {
          "internalType": "uint32",
          "name": "_startTime",
          "type": "uint32"
        },
        {
          "internalType": "uint32",
          "name": "_closeTime",
          "type": "uint32"
        },
        {
          "internalType": "contract INFT",
          "name": "_nftContract",
          "type": "address"
        },
        {
          "internalType": "uint16",
          "name": "_maxTickets",
          "type": "uint16"
        },
        {
          "internalType": "enum Lottery.Status",
          "name": "_status",
          "type": "uint8"
        },
        {
          "internalType": "uint128",
          "name": "_firstPrizeId",
          "type": "uint128"
        },
        {
          "internalType": "uint128",
          "name": "_lastPrizeId",
          "type": "uint128"
        }
      ],
      "name": "updateLottery",
      "outputs": [],
      "stateMutability": "nonpayable",
      "type": "function"
    },
    {
      "inputs": [
        {
          "internalType": "address",
          "name": "newImplementation",
          "type": "address"
        }
      ],
      "name": "upgradeTo",
      "outputs": [],
      "stateMutability": "nonpayable",
      "type": "function"
    },
    {
      "inputs": [
        {
          "internalType": "address",
          "name": "newImplementation",
          "type": "address"
        },
        {
          "internalType": "bytes",
          "name": "data",
          "type": "bytes"
        }
      ],
      "name": "upgradeToAndCall",
      "outputs": [],
      "stateMutability": "payable",
      "type": "function"
    },
    {
      "inputs": [
        {
          "internalType": "uint256",
          "name": "",
          "type": "uint256"
        }
      ],
      "name": "whitelists",
      "outputs": [
        {
          "internalType": "address",
          "name": "",
          "type": "address"
        }
      ],
      "stateMutability": "view",
      "type": "function"
    },
    {
      "inputs": [
        {
          "internalType": "address",
          "name": "_to",
          "type": "address"
        },
        {
          "internalType": "uint256",
          "name": "_amount",
          "type": "uint256"
        }
      ],
      "name": "withdraw",
      "outputs": [],
      "stateMutability": "nonpayable",
      "type": "function"
    }
  ],
  "bytecode": "0x60a06040523060805234801561001457600080fd5b5060805161522c61004c600039600081816112e001528181611320015281816117a4015281816117e40152611917015261522c6000f3fe60806040526004361061031a5760003560e01c80636a6be315116101ab578063d098a2f0116100f7578063f3fef3a311610095578063f8c8765e1161006f578063f8c8765e14610a79578063f90328d514610a99578063fc0c546a14610ad5578063fe4d5add14610af657600080fd5b8063f3fef3a3146109e9578063f4f46e3514610a09578063f5f4899814610a2957600080fd5b8063d89da286116100d1578063d89da2861461094d578063db2c0fd11461096d578063dfa0dfa5146109a9578063eb1ea521146109c957600080fd5b8063d098a2f0146108df578063d225428f1461090d578063d547741f1461092d57600080fd5b806391d1485411610164578063a217fddf1161013e578063a217fddf1461084f578063b1eb96c914610864578063bf4002b214610884578063c11ab615146108a457600080fd5b806391d14854146107cb57806396db752a146107eb5780639b7fecc31461082257600080fd5b80636a6be315146107095780637350ab2c1461072957806376b3c8a81461074957806380d4d47c146107765780638456cb59146107965780638627df46146107ab57600080fd5b806336568abe1161026a57806349c0de88116102235780634f1ef286116101fd5780634f1ef286146106a957806350612da6146106bc57806352d1902d146106dc5780635c975abb146106f157600080fd5b806349c0de88146106495780634a004467146106695780634bc19fee1461068957600080fd5b806336568abe146105535780633659cfe6146105735780633f4ba83a1461059357806340cf23d9146105a85780634538f297146105f0578063454cc4bc1461061057600080fd5b806318fd8903116102d7578063248a9ca3116102b1578063248a9ca3146104cd5780632587217d146104fd5780632f2ff15d1461051d5780632f9aa1fe1461053d57600080fd5b806318fd890314610446578063220cce9714610466578063236804001461049f57600080fd5b806301ffc9a71461031f57806302e060c614610354578063046dc166146103b65780630b9f1c02146103d85780631398e076146103f8578063144fa6d714610426575b600080fd5b34801561032b57600080fd5b5061033f61033a3660046141ad565b610b2d565b60405190151581526020015b60405180910390f35b34801561036057600080fd5b5061039c61036f3660046141ec565b61013760209081526000928352604080842090915290825290205461ffff81169062010000900460ff1682565b6040805161ffff909316835290151560208301520161034b565b3480156103c257600080fd5b506103d66103d136600461421c565b610b64565b005b3480156103e457600080fd5b506103d66103f3366004614278565b610c21565b34801561040457600080fd5b50610418610413366004614330565b610e38565b60405190815260200161034b565b34801561043257600080fd5b506103d661044136600461421c565b610e5a565b34801561045257600080fd5b506103d6610461366004614349565b610f0e565b34801561047257600080fd5b5061013154610487906001600160a01b031681565b6040516001600160a01b03909116815260200161034b565b3480156104ab57600080fd5b506104186104ba366004614330565b6101396020526000908152604090205481565b3480156104d957600080fd5b506104186104e8366004614330565b60009081526065602052604090206001015490565b34801561050957600080fd5b506103d661051836600461437e565b61115a565b34801561052957600080fd5b506103d66105383660046141ec565b61122e565b34801561054957600080fd5b5061013254610418565b34801561055f57600080fd5b506103d661056e3660046141ec565b611258565b34801561057f57600080fd5b506103d661058e36600461421c565b6112d6565b34801561059f57600080fd5b506103d66113b5565b3480156105b457600080fd5b506104186105c33660046141ec565b6000918252610137602090815260408084206001600160a01b0393909316845291905290205461ffff1690565b3480156105fc57600080fd5b506103d661060b366004614330565b611450565b34801561061c57600080fd5b5061041861062b3660046141ec565b61013860209081526000928352604080842090915290825290205481565b34801561065557600080fd5b506104876106643660046143f4565b611592565b34801561067557600080fd5b506103d6610684366004614416565b6115cb565b34801561069557600080fd5b506103d66106a436600461421c565b611690565b6103d66106b7366004614482565b61179a565b3480156106c857600080fd5b506103d66106d73660046143f4565b611866565b3480156106e857600080fd5b5061041861190a565b3480156106fd57600080fd5b5060fb5460ff1661033f565b34801561071557600080fd5b506103d6610724366004614416565b6119bd565b34801561073557600080fd5b506103d661074436600461456c565b611af9565b34801561075557600080fd5b50610769610764366004614330565b611cf4565b60405161034b9190614605565b34801561078257600080fd5b506103d6610791366004614710565b611e62565b3480156107a257600080fd5b506103d6612118565b3480156107b757600080fd5b506103d66107c63660046143f4565b6121b1565b3480156107d757600080fd5b5061033f6107e63660046141ec565b6126fe565b3480156107f757600080fd5b50610487610806366004614330565b600090815261013460205260409020546001600160a01b031690565b34801561082e57600080fd5b5061084261083d366004614729565b612729565b60405161034b9190614755565b34801561085b57600080fd5b50610418600081565b34801561087057600080fd5b506103d661087f366004614330565b612815565b34801561089057600080fd5b506103d661089f366004614416565b612a9c565b3480156108b057600080fd5b506104186108bf366004614330565b60009081526101336020526040902054600160a01b900463ffffffff1690565b3480156108eb57600080fd5b506104186108fa366004614330565b6101356020526000908152604090205481565b34801561091957600080fd5b506103d66109283660046147a2565b612b61565b34801561093957600080fd5b506103d66109483660046141ec565b612e99565b34801561095957600080fd5b506103d66109683660046141ec565b612ebe565b34801561097957600080fd5b5061033f6109883660046143f4565b60009182526101366020908152604080842092845291905290205460ff1690565b3480156109b557600080fd5b506103d66109c436600461421c565b612f7e565b3480156109d557600080fd5b506103d66109e43660046143f4565b613032565b3480156109f557600080fd5b506103d6610a04366004614868565b613152565b348015610a1557600080fd5b506103d6610a24366004614923565b61325b565b348015610a3557600080fd5b50610a64610a44366004614330565b60009081526101336020526040902054600160401b900463ffffffff1690565b60405163ffffffff909116815260200161034b565b348015610a8557600080fd5b506103d6610a943660046149ee565b6132fe565b348015610aa557600080fd5b5061033f610ab43660046143f4565b61013660209081526000928352604080842090915290825290205460ff1681565b348015610ae157600080fd5b5061012f54610487906001600160a01b031681565b348015610b0257600080fd5b50610487610b11366004614330565b610134602052600090815260409020546001600160a01b031681565b60006001600160e01b03198216637965db0b60e01b1480610b5e57506301ffc9a760e01b6001600160e01b03198316145b92915050565b61012d54604051632474521560e21b81526001600160a01b03909116906391d1485490610b98906000903390600401614a4a565b602060405180830381865afa158015610bb5573d6000803e3d6000fd5b505050506040513d601f19601f82011682018060405250810190610bd99190614a61565b610bfe5760405162461bcd60e51b8152600401610bf590614a83565b60405180910390fd5b61012e80546001600160a01b0319166001600160a01b0392909216919091179055565b61012d54604051632474521560e21b81526001600160a01b03909116906391d1485490610c55906000903390600401614a4a565b602060405180830381865afa158015610c72573d6000803e3d6000fd5b505050506040513d601f19601f82011682018060405250810190610c969190614a61565b610cb25760405162461bcd60e51b8152600401610bf590614a83565b868660008263ffffffff1611610cff5760405162461bcd60e51b8152602060048201526012602482015271496e76616c69642073746172742074696d6560701b6044820152606401610bf5565b8163ffffffff168163ffffffff1611610d2a5760405162461bcd60e51b8152600401610bf590614aad565b60008c8152610133602052604090208054600482018d9055600582018c90556001820180546001600160a01b038b166001600160a01b0319909116179055600160601b61ffff89160263ffffffff60601b1963ffffffff8c81166401000000000267ffffffffffffffff19909416908e161792909217918216811783558791839160ff60c01b19166cff0000000000000000ffffffff60601b1990911617600160c01b836003811115610ddf57610ddf6145cd565b02179055506001600160801b03848116600160801b02908616176002820155856003811115610e1057610e106145cd565b6040518e9060008051602061519083398151915290600090a350505050505050505050505050565b6101328181548110610e4957600080fd5b600091825260209091200154905081565b61012d54604051632474521560e21b81526001600160a01b03909116906391d1485490610e8e906000903390600401614a4a565b602060405180830381865afa158015610eab573d6000803e3d6000fd5b505050506040513d601f19601f82011682018060405250810190610ecf9190614a61565b610eeb5760405162461bcd60e51b8152600401610bf590614a83565b61012f80546001600160a01b0319166001600160a01b0392909216919091179055565b60fb5460ff1615610f315760405162461bcd60e51b8152600401610bf590614af0565b60008281526101336020526040902081610f7e5760405162461bcd60e51b815260206004820152600e60248201526d043616e277420726566756e6420360941b6044820152606401610bf5565b60008154600160c01b900460ff166003811115610f9d57610f9d6145cd565b03610fe25760405162461bcd60e51b8152602060048201526015602482015274496e76616c6964206c6f747465727920737461746560581b6044820152606401610bf5565b6000838152610138602090815260408083206001600160a01b038816845290915290205482111561105f5760405162461bcd60e51b815260206004820152602160248201527f43616e277420726566756e642074686520616d6f756e742072657175657374656044820152601960fa1b6064820152608401610bf5565b6000838152610138602090815260408083206001600160a01b038816845290915281208054849290611092908490614b30565b909155505061012f5460405163a9059cbb60e01b81526001600160a01b038681166004830152602482018590529091169063a9059cbb906044016020604051808303816000875af11580156110eb573d6000803e3d6000fd5b505050506040513d601f19601f8201168201806040525081019061110f9190614a61565b50836001600160a01b0316837f7ca5472b7ea78c2c0141c5a12ee6d170cf4ce8ed06be3d22c8252ddfc7a6a2c48460405161114c91815260200190565b60405180910390a350505050565b61012d54604051632474521560e21b81526001600160a01b03909116906391d148549061118e906000903390600401614a4a565b602060405180830381865afa1580156111ab573d6000803e3d6000fd5b505050506040513d601f19601f820116820180604052508101906111cf9190614a61565b6111eb5760405162461bcd60e51b8152600401610bf590614a83565b8060005b818110156112285761121884848381811061120c5761120c614b47565b90506101a00201611e62565b61122181614b5d565b90506111ef565b50505050565b600082815260656020526040902060010154611249816133d4565b61125383836133de565b505050565b6001600160a01b03811633146112c85760405162461bcd60e51b815260206004820152602f60248201527f416363657373436f6e74726f6c3a2063616e206f6e6c792072656e6f756e636560448201526e103937b632b9903337b91039b2b63360891b6064820152608401610bf5565b6112d28282613464565b5050565b6001600160a01b037f000000000000000000000000000000000000000000000000000000000000000016300361131e5760405162461bcd60e51b8152600401610bf590614b76565b7f00000000000000000000000000000000000000000000000000000000000000006001600160a01b03166113676000805160206151b0833981519152546001600160a01b031690565b6001600160a01b03161461138d5760405162461bcd60e51b8152600401610bf590614bc2565b611396816134cb565b604080516000808252602082019092526113b29183919061355c565b50565b61012d54604051632474521560e21b81526001600160a01b03909116906391d14854906113e9906000903390600401614a4a565b602060405180830381865afa158015611406573d6000803e3d6000fd5b505050506040513d601f19601f8201168201806040525081019061142a9190614a61565b6114465760405162461bcd60e51b8152600401610bf590614a83565b61144e6136c7565b565b61012d54604051632474521560e21b81526001600160a01b03909116906391d1485490611484906000903390600401614a4a565b602060405180830381865afa1580156114a1573d6000803e3d6000fd5b505050506040513d601f19601f820116820180604052508101906114c59190614a61565b6114e15760405162461bcd60e51b8152600401610bf590614a83565b6000818152610133602052604090208054600160401b900463ffffffff161561154c5760405162461bcd60e51b815260206004820152601760248201527f4c6f747465727920616c726561647920737461727465640000000000000000006044820152606401610bf5565b805460ff60c01b1916600160c01b9081178083550460ff166003811115611575576115756145cd565b604051839060008051602061519083398151915290600090a35050565b61013a60205281600052604060002081815481106115af57600080fd5b6000918252602090912001546001600160a01b03169150829050565b61012d54604051632474521560e21b81526001600160a01b03909116906391d14854906115ff906000903390600401614a4a565b602060405180830381865afa15801561161c573d6000803e3d6000fd5b505050506040513d601f19601f820116820180604052508101906116409190614a61565b61165c5760405162461bcd60e51b8152600401610bf590614a83565b60009182526101336020526040909120805463ffffffff909216600160801b0263ffffffff60801b19909216919091179055565b61012d54604051632474521560e21b81526001600160a01b03909116906391d14854906116c4906000903390600401614a4a565b602060405180830381865afa1580156116e1573d6000803e3d6000fd5b505050506040513d601f19601f820116820180604052508101906117059190614a61565b6117215760405162461bcd60e51b8152600401610bf590614a83565b6001600160a01b0381166117775760405162461bcd60e51b815260206004820152601d60248201527f436f6e7472616374732063616e6e6f74206265203020616464726573730000006044820152606401610bf5565b61013080546001600160a01b0319166001600160a01b0392909216919091179055565b6001600160a01b037f00000000000000000000000000000000000000000000000000000000000000001630036117e25760405162461bcd60e51b8152600401610bf590614b76565b7f00000000000000000000000000000000000000000000000000000000000000006001600160a01b031661182b6000805160206151b0833981519152546001600160a01b031690565b6001600160a01b0316146118515760405162461bcd60e51b8152600401610bf590614bc2565b61185a826134cb565b6112d28282600161355c565b61012d54604051632474521560e21b81526001600160a01b03909116906391d148549061189a906000903390600401614a4a565b602060405180830381865afa1580156118b7573d6000803e3d6000fd5b505050506040513d601f19601f820116820180604052508101906118db9190614a61565b6118f75760405162461bcd60e51b8152600401610bf590614a83565b6000918252610135602052604090912055565b6000306001600160a01b037f000000000000000000000000000000000000000000000000000000000000000016146119aa5760405162461bcd60e51b815260206004820152603860248201527f555550535570677261646561626c653a206d757374206e6f742062652063616c60448201527f6c6564207468726f7567682064656c656761746563616c6c00000000000000006064820152608401610bf5565b506000805160206151b083398151915290565b61012d54604051632474521560e21b81526001600160a01b03909116906391d14854906119f1906000903390600401614a4a565b602060405180830381865afa158015611a0e573d6000803e3d6000fd5b505050506040513d601f19601f82011682018060405250810190611a329190614a61565b611a4e5760405162461bcd60e51b8152600401610bf590614a83565b600082815261013360205260409020805463ffffffff16611aa85760405162461bcd60e51b8152602060048201526014602482015273131bdd1d195c9e481a59081b9bdd08199bdd5b9960621b6044820152606401610bf5565b805463ffffffff90811690831611611ad25760405162461bcd60e51b8152600401610bf590614aad565b805463ffffffff9092166401000000000267ffffffff000000001990921691909117905550565b604080513360208083018290528284018990528351808403850181526060840185528051908201207f19457468657265756d205369676e6564204d6573736167653a0a3332000000006080850152609c808501919091528451808503909101815260bc840180865281519183019190912061012e5460dc601f890185900490940286018401909652868252929492936001600160a01b0390931692611bba928592918991899182910183828082843760009201919091525061375a92505050565b6001600160a01b031614611c045760405162461bcd60e51b8152602060048201526011602482015270496e76616c6964207369676e617475726560781b6044820152606401610bf5565b6101315460405163f662781d60e01b81526001600160a01b0384811660048301528992169063f662781d90602401602060405180830381865afa158015611c4f573d6000803e3d6000fd5b505050506040513d601f19601f82011682018060405250810190611c739190614c0e565b1015611ce15761013154604051630259ab7760e61b81526001600160a01b038481166004830152602482018a90529091169063966addc090604401600060405180830381600087803b158015611cc857600080fd5b505af1158015611cdc573d6000803e3d6000fd5b505050505b611ceb86866121b1565b50505050505050565b604080516101a081018252600080825260208201819052918101829052606081018290526080810182905260a0810182905260c0810182905260e0810182905261010081018290526101208101829052610140810182905261016081018290526101808101919091526000828152610133602090815260409182902082516101a081018452815463ffffffff80821683526401000000008204811694830194909452600160401b8104841694820194909452600160601b840483166060820152600160801b840483166080820152600160a01b840490921660a0830152909160c0830190600160c01b900460ff166003811115611df357611df36145cd565b6003811115611e0457611e046145cd565b815260018201546001600160a01b0316602082015260028201546001600160801b038082166040840152600160801b90910416606082015260038201546080820152600482015460a082015260059091015460c09091015292915050565b61012d54604051632474521560e21b81526001600160a01b03909116906391d1485490611e96906000903390600401614a4a565b602060405180830381865afa158015611eb3573d6000803e3d6000fd5b505050506040513d601f19601f82011682018060405250810190611ed79190614a61565b611ef35760405162461bcd60e51b8152600401610bf590614a83565b611f006020820182614c27565b611f106040830160208401614c27565b60008263ffffffff1611611f5b5760405162461bcd60e51b8152602060048201526012602482015271496e76616c69642073746172742074696d6560701b6044820152606401610bf5565b8163ffffffff168163ffffffff1611611f865760405162461bcd60e51b8152600401610bf590614aad565b6000611f9a61012085016101008601614c44565b6001600160801b031611611fe15760405162461bcd60e51b815260206004820152600e60248201526d496e76616c6964207072697a657360901b6044820152606401610bf5565b611ff160c0840160a08501614c27565b63ffffffff16156120345760405162461bcd60e51b815260206004820152600d60248201526c496e76616c69642076616c756560981b6044820152606401610bf5565b610140830135600090815261013360205260409020600201546001600160801b03161561209c5760405162461bcd60e51b81526020600482015260166024820152754c6f747465727920616c72656164792065786973747360501b6044820152606401610bf5565b6101328054600181019091556101408401357fc53bdfd4aa1ab65dfdaf681ca6bda958ae4a123d4ed68c4277796592280e783590910181905560009081526101336020526040902083906120f08282614cd0565b50600090506040516101408501359060008051602061519083398151915290600090a3505050565b61012d54604051632474521560e21b81526001600160a01b03909116906391d148549061214c906000903390600401614a4a565b602060405180830381865afa158015612169573d6000803e3d6000fd5b505050506040513d601f19601f8201168201806040525081019061218d9190614a61565b6121a95760405162461bcd60e51b8152600401610bf590614a83565b61144e61377e565b60fb5460ff16156121d45760405162461bcd60e51b8152600401610bf590614af0565b6000828152610134602052604090205482906001600160a01b0316156122b35760008181526101346020526040908190205490516320c18e6b60e21b8152336004820152602481018390526001600160a01b039091169063830639ac90604401602060405180830381865afa158015612251573d6000803e3d6000fd5b505050506040513d601f19601f820116820180604052508101906122759190614a61565b6122b35760405162461bcd60e51b815260206004820152600f60248201526e139bdd081dda1a5d195b1a5cdd1959608a1b6044820152606401610bf5565b600083815261013360205260408120805490919081908190600160601b900463ffffffff161561234257835463ffffffff600160601b8204811691612301918991600160a01b900416614ec5565b11156123425760405162461bcd60e51b815260206004820152601060248201526f151a58dad95d1cc81cdbdb19081bdd5d60821b6044820152606401610bf5565b60008781526101376020908152604080832033845290915290208054855461ffff90911690600160801b900463ffffffff16156123e0578554600160801b900463ffffffff166123928983614ec5565b11156123e05760405162461bcd60e51b815260206004820181905260248201527f43616e277420627579207468697320616d6f756e74206f66207469636b6574736044820152606401610bf5565b85544263ffffffff90911611801590612408575085544264010000000090910463ffffffff16115b8015612431575060018654600160c01b900460ff16600381111561242e5761242e6145cd565b14155b6124735760405162461bcd60e51b81526020600482015260136024820152722637ba3a32b93c9034b9903737ba1037b832b760691b6044820152606401610bf5565b60048601546124829089614edd565b935083156124965761249433856137d6565b505b60058601548654909350889087906014906124bf908490600160a01b900463ffffffff16614efc565b92506101000a81548163ffffffff021916908363ffffffff160217905550600083111561259e576124f08389614edd565b61012f546040516323b872dd60e01b8152336004820152306024820152604481018390529196506001600160a01b0316906323b872dd906064016020604051808303816000875af1158015612549573d6000803e3d6000fd5b505050506040513d601f19601f8201168201806040525081019061256d9190614a61565b5060008981526101386020908152604080832033845290915281208054879290612598908490614ec5565b90915550505b8060000361263057855486906008906125c390600160401b900463ffffffff16614f24565b825463ffffffff9182166101009390930a928302919092021990911617905560008981526101376020908152604080832033845290915290208254815461ffff19811661ffff9092169182178355845460ff62010000918290041615150262ffffff199091169091171790555b81548890839060009061264890849061ffff16614f47565b825461ffff9182166101009390930a928302919092021990911617905550600089815261013a60205260408120905b898110156126f15781546001810183556000838152602090200180546001600160a01b0319163390811790915582546040518d917fc41bbb54d04f2268c7895b9330f18468c306a3f92698a92c4c86b29787397848916126d991815260200190565b60405180910390a36126ea81614b5d565b9050612677565b5050505050505050505050565b60009182526065602090815260408084206001600160a01b0393909316845291905290205460ff1690565b606060006127378484614b30565b612742906001614ec5565b67ffffffffffffffff81111561275a5761275a61443b565b604051908082528060200260200182016040528015612783578160200160208202803683370190505b509050835b83811161280a57600086815261013a602052604090208054829081106127b0576127b0614b47565b9060005260206000200160009054906101000a90046001600160a01b03168282815181106127e0576127e0614b47565b6001600160a01b03909216602092830291909101909101528061280281614b5d565b915050612788565b5090505b9392505050565b61012d54604051632474521560e21b81526001600160a01b03909116906391d1485490612849906000903390600401614a4a565b602060405180830381865afa158015612866573d6000803e3d6000fd5b505050506040513d601f19601f8201168201806040525081019061288a9190614a61565b6128a65760405162461bcd60e51b8152600401610bf590614a83565b600081815261013360205260409020805463ffffffff166128fe5760405162461bcd60e51b8152602060048201526012602482015271125b9d985b1a59081b1bdd1d195c9e481a5960721b6044820152606401610bf5565b80544264010000000090910463ffffffff16106129555760405162461bcd60e51b8152602060048201526015602482015274131bdd1d195c9e481a5cc81b9bdd0818db1bdcd959605a1b6044820152606401610bf5565b60008154600160c01b900460ff166003811115612974576129746145cd565b036129c057805460ff60c01b1916600160c11b17808255600160c01b900460ff1660038111156129a6576129a66145cd565b604051839060008051602061519083398151915290600090a35b60028154600160c01b900460ff1660038111156129df576129df6145cd565b14612a2c5760405162461bcd60e51b815260206004820152601760248201527f4c6f7474657279206d75737420626520636c6f736564210000000000000000006044820152606401610bf5565b61013054604051632f215ddf60e21b8152600481018490526001600160a01b039091169063bc85777c906024016020604051808303816000875af1158015612a78573d6000803e3d6000fd5b505050506040513d601f19601f820116820180604052508101906112539190614c0e565b61012d54604051632474521560e21b81526001600160a01b03909116906391d1485490612ad0906000903390600401614a4a565b602060405180830381865afa158015612aed573d6000803e3d6000fd5b505050506040513d601f19601f82011682018060405250810190612b119190614a61565b612b2d5760405162461bcd60e51b8152600401610bf590614a83565b60009182526101336020526040909120805463ffffffff909216600160601b0263ffffffff60601b19909216919091179055565b60fb5460ff1615612b845760405162461bcd60e51b8152600401610bf590614af0565b60008781526101366020908152604080832088845290915290205460ff1615612bf95760405162461bcd60e51b815260206004820152602160248201527f5061727469636970616e7420616c726561647920636c61696d6564207072697a6044820152606560f81b6064820152608401610bf5565b612c8c612c3e88888888888080601f01602080910402602001604051908101604052809392919081815260200183838082843760009201919091525061384f92505050565b61013560008a81526020019081526020016000205484848080602002602001604051908101604052809392919081815260200183836020028082843760009201919091525061388892505050565b612ccf5760405162461bcd60e51b815260206004820152601460248201527324b73b30b634b21036b2b935b63290383937b7b360611b6044820152606401610bf5565b60008781526101336020526040902060058101548015612d965760008981526101386020908152604080832033845290915281208054839290612d13908490614b30565b909155505061012f54600183015460405163a9059cbb60e01b81526001600160a01b0391821660048201526024810184905291169063a9059cbb906044016020604051808303816000875af1158015612d70573d6000803e3d6000fd5b505050506040513d601f19601f82011682018060405250810190612d949190614a61565b505b6000898152610137602090815260408083206001600160a01b03808d168552908352818420805462ff00001916620100001790558c8452610133835281842060019081015461013685528386208d875290945293829020805460ff191690941790935551633349e71f60e21b8152911690819063cd279c7c90612e23908c908c908c908c90600401614f64565b600060405180830381600087803b158015612e3d57600080fd5b505af1158015612e51573d6000803e3d6000fd5b5050505087896001600160a01b03168b7f4aa95f981a8337cb337de335b965507da0879c3b49f799d20058e913f5ad2c2660405160405180910390a450505050505050505050565b600082815260656020526040902060010154612eb4816133d4565b6112538383613464565b61012d54604051632474521560e21b81526001600160a01b03909116906391d1485490612ef2906000903390600401614a4a565b602060405180830381865afa158015612f0f573d6000803e3d6000fd5b505050506040513d601f19601f82011682018060405250810190612f339190614a61565b612f4f5760405162461bcd60e51b8152600401610bf590614a83565b6000918252610134602052604090912080546001600160a01b0319166001600160a01b03909216919091179055565b61012d54604051632474521560e21b81526001600160a01b03909116906391d1485490612fb2906000903390600401614a4a565b602060405180830381865afa158015612fcf573d6000803e3d6000fd5b505050506040513d601f19601f82011682018060405250810190612ff39190614a61565b61300f5760405162461bcd60e51b8152600401610bf590614a83565b61013180546001600160a01b0319166001600160a01b0392909216919091179055565b610130546001600160a01b031633146130805760405162461bcd60e51b815260206004820152601060248201526f4f6e6c7920524e47206164647265737360801b6044820152606401610bf5565b60008281526101336020526040902060028154600160c01b900460ff1660038111156130ae576130ae6145cd565b146130f45760405162461bcd60e51b8152602060048201526016602482015275131bdd1d195c9e481b5d5cdd0818994818db1bdcd95960521b6044820152606401610bf5565b805460ff60c01b1916600360c01b1781556000838152610139602052604090208290558054600160c01b900460ff166003811115613134576131346145cd565b604051849060008051602061519083398151915290600090a3505050565b61012d54604051632474521560e21b81526001600160a01b03909116906391d1485490613186906000903390600401614a4a565b602060405180830381865afa1580156131a3573d6000803e3d6000fd5b505050506040513d601f19601f820116820180604052508101906131c79190614a61565b6131e35760405162461bcd60e51b8152600401610bf590614a83565b61012f5460405163a9059cbb60e01b81526001600160a01b038481166004830152602482018490529091169063a9059cbb906044016020604051808303816000875af1158015613237573d6000803e3d6000fd5b505050506040513d601f19601f820116820180604052508101906112539190614a61565b82518151811461329f5760405162461bcd60e51b815260206004820152600f60248201526e57726f6e6720617267756d656e747360881b6044820152606401610bf5565b60005b818110156132f7576132e78582815181106132bf576132bf614b47565b6020026020010151858584815181106132da576132da614b47565b6020026020010151610f0e565b6132f081614b5d565b90506132a2565b5050505050565b600061330a600161389d565b90508015613322576000805461ff0019166101001790555b61332a61392a565b613332613951565b61333a61392a565b61012f80546001600160a01b038086166001600160a01b03199283161790925561012e8054878416908316179055610131805488841690831617905561012d80549285169290911691909117905580156132f7576000805461ff0019169055604051600181527f7f26b83ff96e1f2b6a682f133852f6798a09c465da95921460cefb38474024989060200160405180910390a15050505050565b6113b28133613980565b6133e882826126fe565b6112d25760008281526065602090815260408083206001600160a01b03851684529091529020805460ff191660011790556134203390565b6001600160a01b0316816001600160a01b0316837f2f8788117e7eff1d82e926ec794901d17c78024a50270940304540a733656f0d60405160405180910390a45050565b61346e82826126fe565b156112d25760008281526065602090815260408083206001600160a01b0385168085529252808320805460ff1916905551339285917ff6391f5c32d9c69d2a47ea670b442974b53935d1edc7fd64eb21e047a839171b9190a45050565b61012d54604051632474521560e21b81526001600160a01b03909116906391d14854906134ff906000903390600401614a4a565b602060405180830381865afa15801561351c573d6000803e3d6000fd5b505050506040513d601f19601f820116820180604052508101906135409190614a61565b6113b25760405162461bcd60e51b8152600401610bf590614a83565b7f4910fdfa16fed3260ed0e7147f7cc6da11a60208b5b9406d12a635614ffd91435460ff161561358f57611253836139e4565b826001600160a01b03166352d1902d6040518163ffffffff1660e01b8152600401602060405180830381865afa9250505080156135e9575060408051601f3d908101601f191682019092526135e691810190614c0e565b60015b61364c5760405162461bcd60e51b815260206004820152602e60248201527f45524331393637557067726164653a206e657720696d706c656d656e7461746960448201526d6f6e206973206e6f74205555505360901b6064820152608401610bf5565b6000805160206151b083398151915281146136bb5760405162461bcd60e51b815260206004820152602960248201527f45524331393637557067726164653a20756e737570706f727465642070726f786044820152681a58589b195555525160ba1b6064820152608401610bf5565b50611253838383613a80565b60fb5460ff166137105760405162461bcd60e51b815260206004820152601460248201527314185d5cd8589b194e881b9bdd081c185d5cd95960621b6044820152606401610bf5565b60fb805460ff191690557f5db9ee0a495bf2e6ff9c91a7834c1ba4fdd244a5e8aa4e537bd38aeae4b073aa335b6040516001600160a01b03909116815260200160405180910390a1565b60008060006137698585613aa5565b9150915061377681613b13565b509392505050565b60fb5460ff16156137a15760405162461bcd60e51b8152600401610bf590614af0565b60fb805460ff191660011790557f62e78cea01bee320cd4e420270b5ea74000d11b0c9f74754ebdbfc544b05a25861373d3390565b61013154604051631e961d2760e01b81526001600160a01b038481166004830152602482018490526000921690631e961d27906044016020604051808303816000875af115801561382b573d6000803e3d6000fd5b505050506040513d601f19601f8201168201806040525081019061280e9190614c0e565b6000848484846040516020016138689493929190615004565b604051602081830303815290604052805190602001209050949350505050565b6000613895828486613cc9565b949350505050565b60008054610100900460ff16156138e4578160ff1660011480156138c05750303b155b6138dc5760405162461bcd60e51b8152600401610bf59061503b565b506000919050565b60005460ff80841691161061390b5760405162461bcd60e51b8152600401610bf59061503b565b506000805460ff191660ff92909216919091179055600190565b919050565b600054610100900460ff1661144e5760405162461bcd60e51b8152600401610bf590615089565b600054610100900460ff166139785760405162461bcd60e51b8152600401610bf590615089565b61144e613cdf565b61398a82826126fe565b6112d2576139a2816001600160a01b03166014613d12565b6139ad836020613d12565b6040516020016139be9291906150d4565b60408051601f198184030181529082905262461bcd60e51b8252610bf591600401615149565b6001600160a01b0381163b613a515760405162461bcd60e51b815260206004820152602d60248201527f455243313936373a206e657720696d706c656d656e746174696f6e206973206e60448201526c1bdd08184818dbdb9d1c9858dd609a1b6064820152608401610bf5565b6000805160206151b083398151915280546001600160a01b0319166001600160a01b0392909216919091179055565b613a8983613eae565b600082511180613a965750805b15611253576112288383613eee565b6000808251604103613adb5760208301516040840151606085015160001a613acf87828585613fe2565b94509450505050613b0c565b8251604003613b045760208301516040840151613af98683836140cf565b935093505050613b0c565b506000905060025b9250929050565b6000816004811115613b2757613b276145cd565b03613b2f5750565b6001816004811115613b4357613b436145cd565b03613b905760405162461bcd60e51b815260206004820152601860248201527f45434453413a20696e76616c6964207369676e617475726500000000000000006044820152606401610bf5565b6002816004811115613ba457613ba46145cd565b03613bf15760405162461bcd60e51b815260206004820152601f60248201527f45434453413a20696e76616c6964207369676e6174757265206c656e677468006044820152606401610bf5565b6003816004811115613c0557613c056145cd565b03613c5d5760405162461bcd60e51b815260206004820152602260248201527f45434453413a20696e76616c6964207369676e6174757265202773272076616c604482015261756560f01b6064820152608401610bf5565b6004816004811115613c7157613c716145cd565b036113b25760405162461bcd60e51b815260206004820152602260248201527f45434453413a20696e76616c6964207369676e6174757265202776272076616c604482015261756560f01b6064820152608401610bf5565b600082613cd68584614108565b14949350505050565b600054610100900460ff16613d065760405162461bcd60e51b8152600401610bf590615089565b60fb805460ff19169055565b60606000613d21836002614edd565b613d2c906002614ec5565b67ffffffffffffffff811115613d4457613d4461443b565b6040519080825280601f01601f191660200182016040528015613d6e576020820181803683370190505b509050600360fc1b81600081518110613d8957613d89614b47565b60200101906001600160f81b031916908160001a905350600f60fb1b81600181518110613db857613db8614b47565b60200101906001600160f81b031916908160001a9053506000613ddc846002614edd565b613de7906001614ec5565b90505b6001811115613e5f576f181899199a1a9b1b9c1cb0b131b232b360811b85600f1660108110613e1b57613e1b614b47565b1a60f81b828281518110613e3157613e31614b47565b60200101906001600160f81b031916908160001a90535060049490941c93613e588161515c565b9050613dea565b50831561280e5760405162461bcd60e51b815260206004820181905260248201527f537472696e67733a20686578206c656e67746820696e73756666696369656e746044820152606401610bf5565b613eb7816139e4565b6040516001600160a01b038216907fbc7cd75a20ee27fd9adebab32041f755214dbc6bffa90cc0225b39da2e5c2d3b90600090a250565b60606001600160a01b0383163b613f565760405162461bcd60e51b815260206004820152602660248201527f416464726573733a2064656c65676174652063616c6c20746f206e6f6e2d636f6044820152651b9d1c9858dd60d21b6064820152608401610bf5565b600080846001600160a01b031684604051613f719190615173565b600060405180830381855af49150503d8060008114613fac576040519150601f19603f3d011682016040523d82523d6000602084013e613fb1565b606091505b5091509150613fd982826040518060600160405280602781526020016151d060279139614174565b95945050505050565b6000807f7fffffffffffffffffffffffffffffff5d576e7357a4501ddfe92f46681b20a083111561401957506000905060036140c6565b8460ff16601b1415801561403157508460ff16601c14155b1561404257506000905060046140c6565b6040805160008082526020820180845289905260ff881692820192909252606081018690526080810185905260019060a0016020604051602081039080840390855afa158015614096573d6000803e3d6000fd5b5050604051601f1901519150506001600160a01b0381166140bf576000600192509250506140c6565b9150600090505b94509492505050565b6000806001600160ff1b038316816140ec60ff86901c601b614ec5565b90506140fa87828885613fe2565b935093505050935093915050565b600081815b845181101561377657600085828151811061412a5761412a614b47565b602002602001015190508083116141505760008381526020829052604090209250614161565b600081815260208490526040902092505b508061416c81614b5d565b91505061410d565b6060831561418357508161280e565b8251156141935782518084602001fd5b8160405162461bcd60e51b8152600401610bf59190615149565b6000602082840312156141bf57600080fd5b81356001600160e01b03198116811461280e57600080fd5b6001600160a01b03811681146113b257600080fd5b600080604083850312156141ff57600080fd5b823591506020830135614211816141d7565b809150509250929050565b60006020828403121561422e57600080fd5b813561280e816141d7565b63ffffffff811681146113b257600080fd5b600481106113b257600080fd5b6001600160801b03811681146113b257600080fd5b803561392581614258565b6000806000806000806000806000806101408b8d03121561429857600080fd5b8a35995060208b0135985060408b0135975060608b01356142b881614239565b965060808b01356142c881614239565b955060a08b01356142d8816141d7565b945060c08b013561ffff811681146142ef57600080fd5b935060e08b01356142ff8161424b565b92506101008b013561431081614258565b915061431f6101208c0161426d565b90509295989b9194979a5092959850565b60006020828403121561434257600080fd5b5035919050565b60008060006060848603121561435e57600080fd5b8335614369816141d7565b95602085013595506040909401359392505050565b6000806020838503121561439157600080fd5b823567ffffffffffffffff808211156143a957600080fd5b818501915085601f8301126143bd57600080fd5b8135818111156143cc57600080fd5b8660206101a0830285010111156143e257600080fd5b60209290920196919550909350505050565b6000806040838503121561440757600080fd5b50508035926020909101359150565b6000806040838503121561442957600080fd5b82359150602083013561421181614239565b634e487b7160e01b600052604160045260246000fd5b604051601f8201601f1916810167ffffffffffffffff8111828210171561447a5761447a61443b565b604052919050565b6000806040838503121561449557600080fd5b82356144a0816141d7565b915060208381013567ffffffffffffffff808211156144be57600080fd5b818601915086601f8301126144d257600080fd5b8135818111156144e4576144e461443b565b6144f6601f8201601f19168501614451565b9150808252878482850101111561450c57600080fd5b80848401858401376000848284010152508093505050509250929050565b60008083601f84011261453c57600080fd5b50813567ffffffffffffffff81111561455457600080fd5b602083019150836020828501011115613b0c57600080fd5b60008060008060006080868803121561458457600080fd5b853594506020860135935060408601359250606086013567ffffffffffffffff8111156145b057600080fd5b6145bc8882890161452a565b969995985093965092949392505050565b634e487b7160e01b600052602160045260246000fd5b6004811061460157634e487b7160e01b600052602160045260246000fd5b9052565b815163ffffffff1681526101a08101602083015161462b602084018263ffffffff169052565b506040830151614643604084018263ffffffff169052565b50606083015161465b606084018263ffffffff169052565b506080830151614673608084018263ffffffff169052565b5060a083015161468b60a084018263ffffffff169052565b5060c083015161469e60c08401826145e3565b5060e08301516146b960e08401826001600160a01b03169052565b50610100838101516001600160801b038116848301525050610120838101516001600160801b0381168483015250506101408381015190830152610160808401519083015261018092830151929091019190915290565b60006101a0828403121561472357600080fd5b50919050565b60008060006060848603121561473e57600080fd5b505081359360208301359350604090920135919050565b6020808252825182820181905260009190848201906040850190845b818110156147965783516001600160a01b031683529284019291840191600101614771565b50909695505050505050565b600080600080600080600060a0888a0312156147bd57600080fd5b8735965060208801356147cf816141d7565b955060408801359450606088013567ffffffffffffffff808211156147f357600080fd5b6147ff8b838c0161452a565b909650945060808a013591508082111561481857600080fd5b818a0191508a601f83011261482c57600080fd5b81358181111561483b57600080fd5b8b60208260051b850101111561485057600080fd5b60208301945080935050505092959891949750929550565b6000806040838503121561487b57600080fd5b8235614886816141d7565b946020939093013593505050565b600067ffffffffffffffff8211156148ae576148ae61443b565b5060051b60200190565b600082601f8301126148c957600080fd5b813560206148de6148d983614894565b614451565b82815260059290921b840181019181810190868411156148fd57600080fd5b8286015b848110156149185780358352918301918301614901565b509695505050505050565b60008060006060848603121561493857600080fd5b833567ffffffffffffffff8082111561495057600080fd5b818601915086601f83011261496457600080fd5b813560206149746148d983614894565b82815260059290921b8401810191818101908a84111561499357600080fd5b948201945b838610156149ba5785356149ab816141d7565b82529482019490820190614998565b97505087013594505060408601359150808211156149d757600080fd5b506149e4868287016148b8565b9150509250925092565b60008060008060808587031215614a0457600080fd5b8435614a0f816141d7565b93506020850135614a1f816141d7565b92506040850135614a2f816141d7565b91506060850135614a3f816141d7565b939692955090935050565b9182526001600160a01b0316602082015260400190565b600060208284031215614a7357600080fd5b8151801515811461280e57600080fd5b60208082526010908201526f41646d696e2063616c6c73206f6e6c7960801b604082015260600190565b60208082526023908201527f436c6f73652074696d65206d7573742062652061667465722073746172742074604082015262696d6560e81b606082015260800190565b60208082526010908201526f14185d5cd8589b194e881c185d5cd95960821b604082015260600190565b634e487b7160e01b600052601160045260246000fd5b600082821015614b4257614b42614b1a565b500390565b634e487b7160e01b600052603260045260246000fd5b600060018201614b6f57614b6f614b1a565b5060010190565b6020808252602c908201527f46756e6374696f6e206d7573742062652063616c6c6564207468726f7567682060408201526b19195b1959d85d1958d85b1b60a21b606082015260800190565b6020808252602c908201527f46756e6374696f6e206d7573742062652063616c6c6564207468726f7567682060408201526b6163746976652070726f787960a01b606082015260800190565b600060208284031215614c2057600080fd5b5051919050565b600060208284031215614c3957600080fd5b813561280e81614239565b600060208284031215614c5657600080fd5b813561280e81614258565b60008135610b5e81614239565b60008135610b5e8161424b565b60048210614c9957634e487b7160e01b600052602160045260246000fd5b805460ff60c01b191660c09290921b60ff60c01b16919091179055565b60008135610b5e816141d7565b60008135610b5e81614258565b614cf3614cdc83614c61565b825463ffffffff191663ffffffff91909116178255565b614d24614d0260208401614c61565b825467ffffffff00000000191660209190911b67ffffffff0000000016178255565b614d5d614d3360408401614c61565b82546bffffffff0000000000000000191660409190911b6bffffffff000000000000000016178255565b614d90614d6c60608401614c61565b82805463ffffffff60601b191660609290921b63ffffffff60601b16919091179055565b614dc3614d9f60808401614c61565b82805463ffffffff60801b191660809290921b63ffffffff60801b16919091179055565b614df6614dd260a08401614c61565b82805463ffffffff60a01b191660a09290921b63ffffffff60a01b16919091179055565b614e0b614e0560c08401614c6e565b82614c7b565b614e3e614e1a60e08401614cb6565b6001830180546001600160a01b0319166001600160a01b0392909216919091179055565b60028101614e6f614e526101008501614cc3565b82546001600160801b0319166001600160801b0391909116178255565b614e9f614e7f6101208501614cc3565b82546001600160801b031660809190911b6001600160801b031916178255565b506101408201356003820155610160820135600482015561018082013560058201555050565b60008219821115614ed857614ed8614b1a565b500190565b6000816000190483118215151615614ef757614ef7614b1a565b500290565b600063ffffffff808316818516808303821115614f1b57614f1b614b1a565b01949350505050565b600063ffffffff808316818103614f3d57614f3d614b1a565b6001019392505050565b600061ffff808316818516808303821115614f1b57614f1b614b1a565b6001600160a01b0385168152602081018490526060604082018190528101829052818360808301376000818301608090810191909152601f909201601f191601019392505050565b60005b83811015614fc7578181015183820152602001614faf565b838111156112285750506000910152565b60008151808452614ff0816020860160208601614fac565b601f01601f19169290920160200192915050565b84815260018060a01b03841660208201528260408201526080606082015260006150316080830184614fd8565b9695505050505050565b6020808252602e908201527f496e697469616c697a61626c653a20636f6e747261637420697320616c72656160408201526d191e481a5b9a5d1a585b1a5e995960921b606082015260800190565b6020808252602b908201527f496e697469616c697a61626c653a20636f6e7472616374206973206e6f74206960408201526a6e697469616c697a696e6760a81b606082015260800190565b7f416363657373436f6e74726f6c3a206163636f756e742000000000000000000081526000835161510c816017850160208801614fac565b7001034b99036b4b9b9b4b733903937b6329607d1b601791840191820152835161513d816028840160208801614fac565b01602801949350505050565b60208152600061280e6020830184614fd8565b60008161516b5761516b614b1a565b506000190190565b60008251615185818460208701614fac565b919091019291505056fea3aca9ae20a0379d4094b84c749cbed6584ab20f0b71af75f63f6615d879c939360894a13ba1a3210667c828492db98dca3e2076cc3735a920a3ca505d382bbc416464726573733a206c6f772d6c6576656c2064656c65676174652063616c6c206661696c6564a2646970667358221220f3a96d8fe10be90481124f8a967a503e92d7dde6a0ee7bb813682ec63554f3b064736f6c634300080e0033",
  "linkReferences": {},
  "deployedLinkReferences": {}
}