{
  "_format": "hh-sol-artifact-1",
  "contractName": "Lottery",
  "sourceName": "contracts/Lottery/Lottery.sol",
  "abi": [
    {
      "inputs": [],
      "stateMutability": "nonpayable",
      "type": "constructor"
    },
    {
      "anonymous": false,
      "inputs": [
        {
          "indexed": false,
          "internalType": "address",
          "name": "previousAdmin",
          "type": "address"
        },
        {
          "indexed": false,
          "internalType": "address",
          "name": "newAdmin",
          "type": "address"
        }
      ],
      "name": "AdminChanged",
      "type": "event"
    },
    {
      "anonymous": false,
      "inputs": [
        {
          "indexed": true,
          "internalType": "address",
          "name": "beacon",
          "type": "address"
        }
      ],
      "name": "BeaconUpgraded",
      "type": "event"
    },
    {
      "anonymous": false,
      "inputs": [
        {
          "indexed": false,
          "internalType": "uint8",
          "name": "version",
          "type": "uint8"
        }
      ],
      "name": "Initialized",
      "type": "event"
    },
    {
      "anonymous": false,
      "inputs": [
        {
          "indexed": true,
          "internalType": "uint256",
          "name": "lotteryId",
          "type": "uint256"
        },
        {
          "indexed": true,
          "internalType": "enum Lottery.Status",
          "name": "status",
          "type": "uint8"
        }
      ],
      "name": "LotteryStatusChanged",
      "type": "event"
    },
    {
      "anonymous": false,
      "inputs": [
        {
          "indexed": false,
          "internalType": "address",
          "name": "account",
          "type": "address"
        }
      ],
      "name": "Paused",
      "type": "event"
    },
    {
      "anonymous": false,
      "inputs": [
        {
          "indexed": true,
          "internalType": "uint256",
          "name": "lotteryId",
          "type": "uint256"
        },
        {
          "indexed": true,
          "internalType": "address",
          "name": "participantAddress",
          "type": "address"
        },
        {
          "indexed": true,
          "internalType": "uint256",
          "name": "prizeId",
          "type": "uint256"
        }
      ],
      "name": "PrizeClaimed",
      "type": "event"
    },
    {
      "anonymous": false,
      "inputs": [
        {
          "indexed": true,
          "internalType": "uint256",
          "name": "lotteryId",
          "type": "uint256"
        },
        {
          "indexed": true,
          "internalType": "address",
          "name": "participantAddress",
          "type": "address"
        },
        {
          "indexed": false,
          "internalType": "uint256",
          "name": "amount",
          "type": "uint256"
        }
      ],
      "name": "Refunded",
      "type": "event"
    },
    {
      "anonymous": false,
      "inputs": [
        {
          "indexed": true,
          "internalType": "bytes32",
          "name": "role",
          "type": "bytes32"
        },
        {
          "indexed": true,
          "internalType": "bytes32",
          "name": "previousAdminRole",
          "type": "bytes32"
        },
        {
          "indexed": true,
          "internalType": "bytes32",
          "name": "newAdminRole",
          "type": "bytes32"
        }
      ],
      "name": "RoleAdminChanged",
      "type": "event"
    },
    {
      "anonymous": false,
      "inputs": [
        {
          "indexed": true,
          "internalType": "bytes32",
          "name": "role",
          "type": "bytes32"
        },
        {
          "indexed": true,
          "internalType": "address",
          "name": "account",
          "type": "address"
        },
        {
          "indexed": true,
          "internalType": "address",
          "name": "sender",
          "type": "address"
        }
      ],
      "name": "RoleGranted",
      "type": "event"
    },
    {
      "anonymous": false,
      "inputs": [
        {
          "indexed": true,
          "internalType": "bytes32",
          "name": "role",
          "type": "bytes32"
        },
        {
          "indexed": true,
          "internalType": "address",
          "name": "account",
          "type": "address"
        },
        {
          "indexed": true,
          "internalType": "address",
          "name": "sender",
          "type": "address"
        }
      ],
      "name": "RoleRevoked",
      "type": "event"
    },
    {
      "anonymous": false,
      "inputs": [
        {
          "indexed": false,
          "internalType": "address",
          "name": "operator",
          "type": "address"
        },
        {
          "indexed": false,
          "internalType": "uint256",
          "name": "lotteryId",
          "type": "uint256"
        },
        {
          "indexed": false,
          "internalType": "uint256",
          "name": "priceOfTicket",
          "type": "uint256"
        }
      ],
      "name": "TicketCostChanged",
      "type": "event"
    },
    {
      "anonymous": false,
      "inputs": [
        {
          "indexed": true,
          "internalType": "uint256",
          "name": "lotteryId",
          "type": "uint256"
        },
        {
          "indexed": false,
          "internalType": "uint256",
          "name": "ticketNumber",
          "type": "uint256"
        },
        {
          "indexed": true,
          "internalType": "address",
          "name": "participantAddress",
          "type": "address"
        }
      ],
      "name": "TicketSold",
      "type": "event"
    },
    {
      "anonymous": false,
      "inputs": [
        {
          "indexed": false,
          "internalType": "address",
          "name": "account",
          "type": "address"
        }
      ],
      "name": "Unpaused",
      "type": "event"
    },
    {
      "anonymous": false,
      "inputs": [
        {
          "indexed": true,
          "internalType": "address",
          "name": "implementation",
          "type": "address"
        }
      ],
      "name": "Upgraded",
      "type": "event"
    },
    {
      "inputs": [],
      "name": "DEFAULT_ADMIN_ROLE",
      "outputs": [
        {
          "internalType": "bytes32",
          "name": "",
          "type": "bytes32"
        }
      ],
      "stateMutability": "view",
      "type": "function"
    },
    {
      "inputs": [
        {
          "internalType": "uint256",
          "name": "_lotteryId",
          "type": "uint256"
        },
        {
          "internalType": "uint256",
          "name": "_numberOfTicketsToBuy",
          "type": "uint256"
        }
      ],
      "name": "buyTickets",
      "outputs": [],
      "stateMutability": "nonpayable",
      "type": "function"
    },
    {
      "inputs": [
        {
          "internalType": "uint256",
          "name": "_points",
          "type": "uint256"
        },
        {
          "internalType": "uint256",
          "name": "_lotteryId",
          "type": "uint256"
        },
        {
          "internalType": "uint256",
          "name": "_numberOfTicketsToBuy",
          "type": "uint256"
        },
        {
          "internalType": "bytes",
          "name": "_sig",
          "type": "bytes"
        }
      ],
      "name": "buyTicketsWithSignedMessage",
      "outputs": [],
      "stateMutability": "nonpayable",
      "type": "function"
    },
    {
      "inputs": [
        {
          "internalType": "uint256",
          "name": "_lotteryId",
          "type": "uint256"
        }
      ],
      "name": "cancelLottery",
      "outputs": [],
      "stateMutability": "nonpayable",
      "type": "function"
    },
    {
      "inputs": [
        {
          "internalType": "uint256",
          "name": "_lotteryId",
          "type": "uint256"
        },
        {
          "internalType": "uint32",
          "name": "_time",
          "type": "uint32"
        }
      ],
      "name": "changeCloseTime",
      "outputs": [],
      "stateMutability": "nonpayable",
      "type": "function"
    },
    {
      "inputs": [
        {
          "internalType": "uint256",
          "name": "_lotteryId",
          "type": "uint256"
        },
        {
          "internalType": "address",
          "name": "_winner",
          "type": "address"
        },
        {
          "internalType": "uint256",
          "name": "_ticketNumber",
          "type": "uint256"
        },
        {
          "internalType": "string",
          "name": "_uri",
          "type": "string"
        },
        {
          "internalType": "bytes32[]",
          "name": "_proof",
          "type": "bytes32[]"
        }
      ],
      "name": "claimPrize",
      "outputs": [],
      "stateMutability": "nonpayable",
      "type": "function"
    },
    {
      "inputs": [
        {
          "internalType": "uint256",
          "name": "",
          "type": "uint256"
        },
        {
          "internalType": "uint256",
          "name": "",
          "type": "uint256"
        }
      ],
      "name": "claimedPrizes",
      "outputs": [
        {
          "internalType": "bool",
          "name": "",
          "type": "bool"
        }
      ],
      "stateMutability": "view",
      "type": "function"
    },
    {
      "inputs": [
        {
          "components": [
            {
              "internalType": "uint32",
              "name": "startTime",
              "type": "uint32"
            },
            {
              "internalType": "uint32",
              "name": "closeTime",
              "type": "uint32"
            },
            {
              "internalType": "uint32",
              "name": "participantsCount",
              "type": "uint32"
            },
            {
              "internalType": "uint32",
              "name": "maxTickets",
              "type": "uint32"
            },
            {
              "internalType": "uint32",
              "name": "maxTicketsPerUser",
              "type": "uint32"
            },
            {
              "internalType": "uint32",
              "name": "numberOfTicketsSold",
              "type": "uint32"
            },
            {
              "internalType": "uint32",
              "name": "numberOfEditions",
              "type": "uint32"
            },
            {
              "internalType": "enum Lottery.Status",
              "name": "status",
              "type": "uint8"
            },
            {
              "internalType": "contract INFT",
              "name": "nftContract",
              "type": "address"
            },
            {
              "internalType": "uint256",
              "name": "lotteryID",
              "type": "uint256"
            },
            {
              "internalType": "uint256",
              "name": "ticketCostPoints",
              "type": "uint256"
            },
            {
              "internalType": "uint256",
              "name": "ticketCostTokens",
              "type": "uint256"
            }
          ],
          "internalType": "struct Lottery.LotteryInfo",
          "name": "_lotteryInfo",
          "type": "tuple"
        }
      ],
      "name": "createLottery",
      "outputs": [],
      "stateMutability": "nonpayable",
      "type": "function"
    },
    {
      "inputs": [
        {
          "components": [
            {
              "internalType": "uint32",
              "name": "startTime",
              "type": "uint32"
            },
            {
              "internalType": "uint32",
              "name": "closeTime",
              "type": "uint32"
            },
            {
              "internalType": "uint32",
              "name": "participantsCount",
              "type": "uint32"
            },
            {
              "internalType": "uint32",
              "name": "maxTickets",
              "type": "uint32"
            },
            {
              "internalType": "uint32",
              "name": "maxTicketsPerUser",
              "type": "uint32"
            },
            {
              "internalType": "uint32",
              "name": "numberOfTicketsSold",
              "type": "uint32"
            },
            {
              "internalType": "uint32",
              "name": "numberOfEditions",
              "type": "uint32"
            },
            {
              "internalType": "enum Lottery.Status",
              "name": "status",
              "type": "uint8"
            },
            {
              "internalType": "contract INFT",
              "name": "nftContract",
              "type": "address"
            },
            {
              "internalType": "uint256",
              "name": "lotteryID",
              "type": "uint256"
            },
            {
              "internalType": "uint256",
              "name": "ticketCostPoints",
              "type": "uint256"
            },
            {
              "internalType": "uint256",
              "name": "ticketCostTokens",
              "type": "uint256"
            }
          ],
          "internalType": "struct Lottery.LotteryInfo[]",
          "name": "_lotteries",
          "type": "tuple[]"
        }
      ],
      "name": "createLotteryBatch",
      "outputs": [],
      "stateMutability": "nonpayable",
      "type": "function"
    },
    {
      "inputs": [],
      "name": "getLotteryCount",
      "outputs": [
        {
          "internalType": "uint256",
          "name": "",
          "type": "uint256"
        }
      ],
      "stateMutability": "view",
      "type": "function"
    },
    {
      "inputs": [
        {
          "internalType": "uint256",
          "name": "_lotteryId",
          "type": "uint256"
        }
      ],
      "name": "getLotteryInfo",
      "outputs": [
        {
          "components": [
            {
              "internalType": "uint32",
              "name": "startTime",
              "type": "uint32"
            },
            {
              "internalType": "uint32",
              "name": "closeTime",
              "type": "uint32"
            },
            {
              "internalType": "uint32",
              "name": "participantsCount",
              "type": "uint32"
            },
            {
              "internalType": "uint32",
              "name": "maxTickets",
              "type": "uint32"
            },
            {
              "internalType": "uint32",
              "name": "maxTicketsPerUser",
              "type": "uint32"
            },
            {
              "internalType": "uint32",
              "name": "numberOfTicketsSold",
              "type": "uint32"
            },
            {
              "internalType": "uint32",
              "name": "numberOfEditions",
              "type": "uint32"
            },
            {
              "internalType": "enum Lottery.Status",
              "name": "status",
              "type": "uint8"
            },
            {
              "internalType": "contract INFT",
              "name": "nftContract",
              "type": "address"
            },
            {
              "internalType": "uint256",
              "name": "lotteryID",
              "type": "uint256"
            },
            {
              "internalType": "uint256",
              "name": "ticketCostPoints",
              "type": "uint256"
            },
            {
              "internalType": "uint256",
              "name": "ticketCostTokens",
              "type": "uint256"
            }
          ],
          "internalType": "struct Lottery.LotteryInfo",
          "name": "",
          "type": "tuple"
        }
      ],
      "stateMutability": "view",
      "type": "function"
    },
    {
      "inputs": [
        {
          "internalType": "uint256",
          "name": "_lotteryId",
          "type": "uint256"
        }
      ],
      "name": "getLotteryTicketCount",
      "outputs": [
        {
          "internalType": "uint256",
          "name": "",
          "type": "uint256"
        }
      ],
      "stateMutability": "view",
      "type": "function"
    },
    {
      "inputs": [
        {
          "internalType": "uint256",
          "name": "_lotteryId",
          "type": "uint256"
        },
        {
          "internalType": "uint256",
          "name": "_from",
          "type": "uint256"
        },
        {
          "internalType": "uint256",
          "name": "_to",
          "type": "uint256"
        }
      ],
      "name": "getLotteryTickets",
      "outputs": [
        {
          "internalType": "address[]",
          "name": "",
          "type": "address[]"
        }
      ],
      "stateMutability": "view",
      "type": "function"
    },
    {
      "inputs": [
        {
          "internalType": "uint256",
          "name": "_lotteryId",
          "type": "uint256"
        }
      ],
      "name": "getParticipantsCount",
      "outputs": [
        {
          "internalType": "uint32",
          "name": "",
          "type": "uint32"
        }
      ],
      "stateMutability": "view",
      "type": "function"
    },
    {
      "inputs": [
        {
          "internalType": "bytes32",
          "name": "role",
          "type": "bytes32"
        }
      ],
      "name": "getRoleAdmin",
      "outputs": [
        {
          "internalType": "bytes32",
          "name": "",
          "type": "bytes32"
        }
      ],
      "stateMutability": "view",
      "type": "function"
    },
    {
      "inputs": [
        {
          "internalType": "uint256",
          "name": "_lotteryId",
          "type": "uint256"
        },
        {
          "internalType": "address",
          "name": "_user",
          "type": "address"
        }
      ],
      "name": "getTicketCountPerUser",
      "outputs": [
        {
          "internalType": "uint256",
          "name": "",
          "type": "uint256"
        }
      ],
      "stateMutability": "view",
      "type": "function"
    },
    {
      "inputs": [
        {
          "internalType": "uint256",
          "name": "_lotteryId",
          "type": "uint256"
        }
      ],
      "name": "getWhitelist",
      "outputs": [
        {
          "internalType": "address",
          "name": "",
          "type": "address"
        }
      ],
      "stateMutability": "view",
      "type": "function"
    },
    {
      "inputs": [
        {
          "internalType": "bytes32",
          "name": "role",
          "type": "bytes32"
        },
        {
          "internalType": "address",
          "name": "account",
          "type": "address"
        }
      ],
      "name": "grantRole",
      "outputs": [],
      "stateMutability": "nonpayable",
      "type": "function"
    },
    {
      "inputs": [
        {
          "internalType": "bytes32",
          "name": "role",
          "type": "bytes32"
        },
        {
          "internalType": "address",
          "name": "account",
          "type": "address"
        }
      ],
      "name": "hasRole",
      "outputs": [
        {
          "internalType": "bool",
          "name": "",
          "type": "bool"
        }
      ],
      "stateMutability": "view",
      "type": "function"
    },
    {
      "inputs": [
        {
          "internalType": "address",
          "name": "_rewardsContract",
          "type": "address"
        },
        {
          "internalType": "address",
          "name": "_admin",
          "type": "address"
        },
        {
          "internalType": "address",
          "name": "_token",
          "type": "address"
        },
        {
          "internalType": "address",
          "name": "_sageStorage",
          "type": "address"
        }
      ],
      "name": "initialize",
      "outputs": [],
      "stateMutability": "nonpayable",
      "type": "function"
    },
    {
      "inputs": [
        {
          "internalType": "uint256",
          "name": "",
          "type": "uint256"
        }
      ],
      "name": "lotteries",
      "outputs": [
        {
          "internalType": "uint256",
          "name": "",
          "type": "uint256"
        }
      ],
      "stateMutability": "view",
      "type": "function"
    },
    {
      "inputs": [
        {
          "internalType": "uint256",
          "name": "",
          "type": "uint256"
        },
        {
          "internalType": "uint256",
          "name": "",
          "type": "uint256"
        }
      ],
      "name": "lotteryTickets",
      "outputs": [
        {
          "internalType": "address",
          "name": "",
          "type": "address"
        }
      ],
      "stateMutability": "view",
      "type": "function"
    },
    {
      "inputs": [
        {
          "internalType": "uint256",
          "name": "",
          "type": "uint256"
        },
        {
          "internalType": "address",
          "name": "",
          "type": "address"
        }
      ],
      "name": "participants",
      "outputs": [
        {
          "internalType": "uint16",
          "name": "totalTicketsBought",
          "type": "uint16"
        },
        {
          "internalType": "bool",
          "name": "claimedPrize",
          "type": "bool"
        }
      ],
      "stateMutability": "view",
      "type": "function"
    },
    {
      "inputs": [],
      "name": "pause",
      "outputs": [],
      "stateMutability": "nonpayable",
      "type": "function"
    },
    {
      "inputs": [],
      "name": "paused",
      "outputs": [
        {
          "internalType": "bool",
          "name": "",
          "type": "bool"
        }
      ],
      "stateMutability": "view",
      "type": "function"
    },
    {
      "inputs": [
        {
          "internalType": "uint256",
          "name": "_lotteryId",
          "type": "uint256"
        },
        {
          "internalType": "uint256",
          "name": "_tokenId",
          "type": "uint256"
        }
      ],
      "name": "prizeClaimed",
      "outputs": [
        {
          "internalType": "bool",
          "name": "",
          "type": "bool"
        }
      ],
      "stateMutability": "view",
      "type": "function"
    },
    {
      "inputs": [
        {
          "internalType": "uint256",
          "name": "",
          "type": "uint256"
        }
      ],
      "name": "prizeMerkleRoots",
      "outputs": [
        {
          "internalType": "bytes32",
          "name": "",
          "type": "bytes32"
        }
      ],
      "stateMutability": "view",
      "type": "function"
    },
    {
      "inputs": [],
      "name": "proxiableUUID",
      "outputs": [
        {
          "internalType": "bytes32",
          "name": "",
          "type": "bytes32"
        }
      ],
      "stateMutability": "view",
      "type": "function"
    },
    {
      "inputs": [
        {
          "internalType": "uint256",
          "name": "",
          "type": "uint256"
        }
      ],
      "name": "randomSeeds",
      "outputs": [
        {
          "internalType": "uint256",
          "name": "",
          "type": "uint256"
        }
      ],
      "stateMutability": "view",
      "type": "function"
    },
    {
      "inputs": [
        {
          "internalType": "uint256",
          "name": "_lotteryId",
          "type": "uint256"
        },
        {
          "internalType": "uint256",
          "name": "_randomNumber",
          "type": "uint256"
        }
      ],
      "name": "receiveRandomNumber",
      "outputs": [],
      "stateMutability": "nonpayable",
      "type": "function"
    },
    {
      "inputs": [
        {
          "internalType": "address",
          "name": "_assetOwner",
          "type": "address"
        },
        {
          "internalType": "uint256",
          "name": "_lotteryId",
          "type": "uint256"
        },
        {
          "internalType": "uint256",
          "name": "_amount",
          "type": "uint256"
        }
      ],
      "name": "refund",
      "outputs": [],
      "stateMutability": "nonpayable",
      "type": "function"
    },
    {
      "inputs": [
        {
          "internalType": "address[]",
          "name": "_owners",
          "type": "address[]"
        },
        {
          "internalType": "uint256",
          "name": "_lotteryId",
          "type": "uint256"
        },
        {
          "internalType": "uint256[]",
          "name": "_amounts",
          "type": "uint256[]"
        }
      ],
      "name": "refundBatch",
      "outputs": [],
      "stateMutability": "nonpayable",
      "type": "function"
    },
    {
      "inputs": [
        {
          "internalType": "uint256",
          "name": "",
          "type": "uint256"
        },
        {
          "internalType": "address",
          "name": "",
          "type": "address"
        }
      ],
      "name": "refunds",
      "outputs": [
        {
          "internalType": "uint256",
          "name": "",
          "type": "uint256"
        }
      ],
      "stateMutability": "view",
      "type": "function"
    },
    {
      "inputs": [
        {
          "internalType": "bytes32",
          "name": "role",
          "type": "bytes32"
        },
        {
          "internalType": "address",
          "name": "account",
          "type": "address"
        }
      ],
      "name": "renounceRole",
      "outputs": [],
      "stateMutability": "nonpayable",
      "type": "function"
    },
    {
      "inputs": [
        {
          "internalType": "uint256",
          "name": "_lotteryId",
          "type": "uint256"
        }
      ],
      "name": "requestRandomNumber",
      "outputs": [],
      "stateMutability": "nonpayable",
      "type": "function"
    },
    {
      "inputs": [
        {
          "internalType": "bytes32",
          "name": "role",
          "type": "bytes32"
        },
        {
          "internalType": "address",
          "name": "account",
          "type": "address"
        }
      ],
      "name": "revokeRole",
      "outputs": [],
      "stateMutability": "nonpayable",
      "type": "function"
    },
    {
      "inputs": [],
      "name": "rewardsContract",
      "outputs": [
        {
          "internalType": "contract IRewards",
          "name": "",
          "type": "address"
        }
      ],
      "stateMutability": "view",
      "type": "function"
    },
    {
      "inputs": [
        {
          "internalType": "uint256",
          "name": "_lotteryId",
          "type": "uint256"
        },
        {
          "internalType": "uint32",
          "name": "_maxTickets",
          "type": "uint32"
        }
      ],
      "name": "setMaxTickets",
      "outputs": [],
      "stateMutability": "nonpayable",
      "type": "function"
    },
    {
      "inputs": [
        {
          "internalType": "uint256",
          "name": "_lotteryId",
          "type": "uint256"
        },
        {
          "internalType": "uint32",
          "name": "_maxTicketsPerUser",
          "type": "uint32"
        }
      ],
      "name": "setMaxTicketsPerUser",
      "outputs": [],
      "stateMutability": "nonpayable",
      "type": "function"
    },
    {
      "inputs": [
        {
          "internalType": "uint256",
          "name": "_lotteryId",
          "type": "uint256"
        },
        {
          "internalType": "bytes32",
          "name": "_root",
          "type": "bytes32"
        }
      ],
      "name": "setPrizeMerkleRoot",
      "outputs": [],
      "stateMutability": "nonpayable",
      "type": "function"
    },
    {
      "inputs": [
        {
          "internalType": "address",
          "name": "_IRandomNumberGenerator",
          "type": "address"
        }
      ],
      "name": "setRandomGenerator",
      "outputs": [],
      "stateMutability": "nonpayable",
      "type": "function"
    },
    {
      "inputs": [
        {
          "internalType": "address",
          "name": "_rewardsContract",
          "type": "address"
        }
      ],
      "name": "setRewardsContract",
      "outputs": [],
      "stateMutability": "nonpayable",
      "type": "function"
    },
    {
      "inputs": [
        {
          "internalType": "address",
          "name": "_signer",
          "type": "address"
        }
      ],
      "name": "setSignerAddress",
      "outputs": [],
      "stateMutability": "nonpayable",
      "type": "function"
    },
    {
      "inputs": [
        {
          "internalType": "address",
          "name": "_token",
          "type": "address"
        }
      ],
      "name": "setToken",
      "outputs": [],
      "stateMutability": "nonpayable",
      "type": "function"
    },
    {
      "inputs": [
        {
          "internalType": "uint256",
          "name": "_lotteryId",
          "type": "uint256"
        },
        {
          "internalType": "address",
          "name": "_whitelist",
          "type": "address"
        }
      ],
      "name": "setWhitelist",
      "outputs": [],
      "stateMutability": "nonpayable",
      "type": "function"
    },
    {
      "inputs": [
        {
          "internalType": "bytes4",
          "name": "interfaceId",
          "type": "bytes4"
        }
      ],
      "name": "supportsInterface",
      "outputs": [
        {
          "internalType": "bool",
          "name": "",
          "type": "bool"
        }
      ],
      "stateMutability": "view",
      "type": "function"
    },
    {
      "inputs": [],
      "name": "token",
      "outputs": [
        {
          "internalType": "contract IERC20",
          "name": "",
          "type": "address"
        }
      ],
      "stateMutability": "view",
      "type": "function"
    },
    {
      "inputs": [],
      "name": "unpause",
      "outputs": [],
      "stateMutability": "nonpayable",
      "type": "function"
    },
    {
      "inputs": [
        {
          "internalType": "uint256",
          "name": "lotteryId",
          "type": "uint256"
        },
        {
          "internalType": "uint256",
          "name": "_ticketCostPoints",
          "type": "uint256"
        },
        {
          "internalType": "uint256",
          "name": "_ticketCostTokens",
          "type": "uint256"
        },
        {
          "internalType": "uint32",
          "name": "_startTime",
          "type": "uint32"
        },
        {
          "internalType": "uint32",
          "name": "_closeTime",
          "type": "uint32"
        },
        {
          "internalType": "contract INFT",
          "name": "_nftContract",
          "type": "address"
        },
        {
          "internalType": "uint16",
          "name": "_maxTickets",
          "type": "uint16"
        },
        {
          "internalType": "enum Lottery.Status",
          "name": "_status",
          "type": "uint8"
        },
        {
          "internalType": "uint32",
          "name": "_numberOfEditions",
          "type": "uint32"
        }
      ],
      "name": "updateLottery",
      "outputs": [],
      "stateMutability": "nonpayable",
      "type": "function"
    },
    {
      "inputs": [
        {
          "internalType": "address",
          "name": "newImplementation",
          "type": "address"
        }
      ],
      "name": "upgradeTo",
      "outputs": [],
      "stateMutability": "nonpayable",
      "type": "function"
    },
    {
      "inputs": [
        {
          "internalType": "address",
          "name": "newImplementation",
          "type": "address"
        },
        {
          "internalType": "bytes",
          "name": "data",
          "type": "bytes"
        }
      ],
      "name": "upgradeToAndCall",
      "outputs": [],
      "stateMutability": "payable",
      "type": "function"
    },
    {
      "inputs": [
        {
          "internalType": "uint256",
          "name": "",
          "type": "uint256"
        }
      ],
      "name": "whitelists",
      "outputs": [
        {
          "internalType": "address",
          "name": "",
          "type": "address"
        }
      ],
      "stateMutability": "view",
      "type": "function"
    },
    {
      "inputs": [
        {
          "internalType": "uint256",
          "name": "_amount",
          "type": "uint256"
        }
      ],
      "name": "withdraw",
      "outputs": [],
      "stateMutability": "nonpayable",
      "type": "function"
    }
  ],
  "bytecode": "0x60a0604052306080523480156200001557600080fd5b506200002062000026565b62000156565b6200003260ff62000035565b50565b60008054610100900460ff1615620000ce578160ff1660011480156200006e57506200006c306200014760201b620033851760201c565b155b620000c65760405162461bcd60e51b815260206004820152602e60248201526000805160206200529c83398151915260448201526d191e481a5b9a5d1a585b1a5e995960921b60648201526084015b60405180910390fd5b506000919050565b60005460ff8084169116106200012d5760405162461bcd60e51b815260206004820152602e60248201526000805160206200529c83398151915260448201526d191e481a5b9a5d1a585b1a5e995960921b6064820152608401620000bd565b506000805460ff191660ff92909216919091179055600190565b6001600160a01b03163b151590565b60805161510e6200018e6000396000818161133001528181611370015281816117f4015281816118340152611967015261510e6000f3fe60806040526004361061031a5760003560e01c80636013457f116101ab578063c11ab615116100f7578063eb1ea52111610095578063f8c8765e1161006f578063f8c8765e14610a79578063f90328d514610a99578063fc0c546a14610ad5578063fe4d5add14610af657600080fd5b8063eb1ea521146109e9578063f4f46e3514610a09578063f5f4899814610a2957600080fd5b8063d547741f116100d1578063d547741f1461094d578063d89da2861461096d578063db2c0fd11461098d578063dfa0dfa5146109c957600080fd5b8063c11ab615146108c4578063d098a2f0146108ff578063d225428f1461092d57600080fd5b80638627df46116101645780639b7fecc31161013e5780639b7fecc314610842578063a217fddf1461086f578063b1eb96c914610884578063bf4002b2146108a457600080fd5b80638627df46146107cb57806391d14854146107eb57806396db752a1461080b57600080fd5b80636013457f146107095780636a6be3151461072957806372f5b6c2146107495780637350ab2c1461076957806376b3c8a8146107895780638456cb59146107b657600080fd5b806336568abe1161026a57806349c0de88116102235780634f1ef286116101fd5780634f1ef286146106a957806350612da6146106bc57806352d1902d146106dc5780635c975abb146106f157600080fd5b806349c0de88146106495780634a004467146106695780634bc19fee1461068957600080fd5b806336568abe146105535780633659cfe6146105735780633f4ba83a1461059357806340cf23d9146105a85780634538f297146105f0578063454cc4bc1461061057600080fd5b8063220cce97116102d75780632801f84a116102b15780632801f84a146104dd5780632e1a7d4d146104fd5780632f2ff15d1461051d5780632f9aa1fe1461053d57600080fd5b8063220cce9714610446578063236804001461047f578063248a9ca3146104ad57600080fd5b806301ffc9a71461031f57806302e060c614610354578063046dc166146103b65780631398e076146103d8578063144fa6d71461040657806318fd890314610426575b600080fd5b34801561032b57600080fd5b5061033f61033a366004614168565b610b2d565b60405190151581526020015b60405180910390f35b34801561036057600080fd5b5061039c61036f3660046141a7565b61013760209081526000928352604080842090915290825290205461ffff81169062010000900460ff1682565b6040805161ffff909316835290151560208301520161034b565b3480156103c257600080fd5b506103d66103d13660046141d7565b610b64565b005b3480156103e457600080fd5b506103f86103f33660046141f4565b610c21565b60405190815260200161034b565b34801561041257600080fd5b506103d66104213660046141d7565b610c43565b34801561043257600080fd5b506103d661044136600461420d565b610cf7565b34801561045257600080fd5b5061013154610467906001600160a01b031681565b6040516001600160a01b03909116815260200161034b565b34801561048b57600080fd5b506103f861049a3660046141f4565b6101396020526000908152604090205481565b3480156104b957600080fd5b506103f86104c83660046141f4565b60009081526065602052604090206001015490565b3480156104e957600080fd5b506103d66104f8366004614261565b610f43565b34801561050957600080fd5b506103d66105183660046141f4565b611163565b34801561052957600080fd5b506103d66105383660046141a7565b611282565b34801561054957600080fd5b50610132546103f8565b34801561055f57600080fd5b506103d661056e3660046141a7565b6112ac565b34801561057f57600080fd5b506103d661058e3660046141d7565b611326565b34801561059f57600080fd5b506103d6611405565b3480156105b457600080fd5b506103f86105c33660046141a7565b6000918252610137602090815260408084206001600160a01b0393909316845291905290205461ffff1690565b3480156105fc57600080fd5b506103d661060b3660046141f4565b6114a0565b34801561061c57600080fd5b506103f861062b3660046141a7565b61013860209081526000928352604080842090915290825290205481565b34801561065557600080fd5b50610467610664366004614309565b6115e2565b34801561067557600080fd5b506103d661068436600461432b565b61161b565b34801561069557600080fd5b506103d66106a43660046141d7565b6116e0565b6103d66106b7366004614397565b6117ea565b3480156106c857600080fd5b506103d66106d7366004614309565b6118b6565b3480156106e857600080fd5b506103f861195a565b3480156106fd57600080fd5b5060fb5460ff1661033f565b34801561071557600080fd5b506103d661072436600461443f565b611a0d565b34801561073557600080fd5b506103d661074436600461432b565b611c6c565b34801561075557600080fd5b506103d6610764366004614458565b611da8565b34801561077557600080fd5b506103d6610784366004614510565b611e7c565b34801561079557600080fd5b506107a96107a43660046141f4565b612077565b60405161034b91906145a9565b3480156107c257600080fd5b506103d66121d4565b3480156107d757600080fd5b506103d66107e6366004614309565b61226d565b3480156107f757600080fd5b5061033f6108063660046141a7565b6127ba565b34801561081757600080fd5b506104676108263660046141f4565b600090815261013460205260409020546001600160a01b031690565b34801561084e57600080fd5b5061086261085d366004614697565b6127e5565b60405161034b91906146c3565b34801561087b57600080fd5b506103f8600081565b34801561089057600080fd5b506103d661089f3660046141f4565b6128d1565b3480156108b057600080fd5b506103d66108bf36600461432b565b612b58565b3480156108d057600080fd5b506103f86108df3660046141f4565b60009081526101336020526040902054600160a01b900463ffffffff1690565b34801561090b57600080fd5b506103f861091a3660046141f4565b6101356020526000908152604090205481565b34801561093957600080fd5b506103d6610948366004614710565b612c1d565b34801561095957600080fd5b506103d66109683660046141a7565b612f53565b34801561097957600080fd5b506103d66109883660046141a7565b612f78565b34801561099957600080fd5b5061033f6109a8366004614309565b60009182526101366020908152604080842092845291905290205460ff1690565b3480156109d557600080fd5b506103d66109e43660046141d7565b613038565b3480156109f557600080fd5b506103d6610a04366004614309565b6130ec565b348015610a1557600080fd5b506103d6610a24366004614865565b61320c565b348015610a3557600080fd5b50610a64610a443660046141f4565b60009081526101336020526040902054600160401b900463ffffffff1690565b60405163ffffffff909116815260200161034b565b348015610a8557600080fd5b506103d6610a94366004614930565b6132af565b348015610aa557600080fd5b5061033f610ab4366004614309565b61013660209081526000928352604080842090915290825290205460ff1681565b348015610ae157600080fd5b5061012f54610467906001600160a01b031681565b348015610b0257600080fd5b50610467610b113660046141f4565b610134602052600090815260409020546001600160a01b031681565b60006001600160e01b03198216637965db0b60e01b1480610b5e57506301ffc9a760e01b6001600160e01b03198316145b92915050565b61012d54604051632474521560e21b81526001600160a01b03909116906391d1485490610b9890600090339060040161498c565b602060405180830381865afa158015610bb5573d6000803e3d6000fd5b505050506040513d601f19601f82011682018060405250810190610bd991906149a3565b610bfe5760405162461bcd60e51b8152600401610bf5906149c5565b60405180910390fd5b61012e80546001600160a01b0319166001600160a01b0392909216919091179055565b6101328181548110610c3257600080fd5b600091825260209091200154905081565b61012d54604051632474521560e21b81526001600160a01b03909116906391d1485490610c7790600090339060040161498c565b602060405180830381865afa158015610c94573d6000803e3d6000fd5b505050506040513d601f19601f82011682018060405250810190610cb891906149a3565b610cd45760405162461bcd60e51b8152600401610bf5906149c5565b61012f80546001600160a01b0319166001600160a01b0392909216919091179055565b60fb5460ff1615610d1a5760405162461bcd60e51b8152600401610bf5906149ef565b60008281526101336020526040902081610d675760405162461bcd60e51b815260206004820152600e60248201526d043616e277420726566756e6420360941b6044820152606401610bf5565b60008154600160e01b900460ff166003811115610d8657610d86614571565b03610dcb5760405162461bcd60e51b8152602060048201526015602482015274496e76616c6964206c6f747465727920737461746560581b6044820152606401610bf5565b6000838152610138602090815260408083206001600160a01b0388168452909152902054821115610e485760405162461bcd60e51b815260206004820152602160248201527f43616e277420726566756e642074686520616d6f756e742072657175657374656044820152601960fa1b6064820152608401610bf5565b6000838152610138602090815260408083206001600160a01b038816845290915281208054849290610e7b908490614a2f565b909155505061012f5460405163a9059cbb60e01b81526001600160a01b038681166004830152602482018590529091169063a9059cbb906044016020604051808303816000875af1158015610ed4573d6000803e3d6000fd5b505050506040513d601f19601f82011682018060405250810190610ef891906149a3565b50836001600160a01b0316837f7ca5472b7ea78c2c0141c5a12ee6d170cf4ce8ed06be3d22c8252ddfc7a6a2c484604051610f3591815260200190565b60405180910390a350505050565b61012d54604051632474521560e21b81526001600160a01b03909116906391d1485490610f7790600090339060040161498c565b602060405180830381865afa158015610f94573d6000803e3d6000fd5b505050506040513d601f19601f82011682018060405250810190610fb891906149a3565b610fd45760405162461bcd60e51b8152600401610bf5906149c5565b858560008263ffffffff16116110215760405162461bcd60e51b8152602060048201526012602482015271496e76616c69642073746172742074696d6560701b6044820152606401610bf5565b8163ffffffff168163ffffffff161161104c5760405162461bcd60e51b8152600401610bf590614a46565b60008b815261013360205260409020805460038083018d9055600483018c90556001830180546001600160a01b038b166001600160a01b0319909116179055600160601b61ffff89160263ffffffff60601b1963ffffffff8c81166401000000000267ffffffffffffffff19909516908e161793909317928316811784558792849260ff60e01b1990921670ff000000000000000000000000ffffffff60601b199091161790600160e01b90849081111561110957611109614571565b0217905550805463ffffffff60c01b1916600160c01b63ffffffff86160217815584600381111561113c5761113c614571565b6040518d9060008051602061507283398151915290600090a3505050505050505050505050565b61012d54604051632474521560e21b81526001600160a01b03909116906391d148549061119790600090339060040161498c565b602060405180830381865afa1580156111b4573d6000803e3d6000fd5b505050506040513d601f19601f820116820180604052508101906111d891906149a3565b6111f45760405162461bcd60e51b8152600401610bf5906149c5565b61012f5460405163a9059cbb60e01b8152737af3ba4a5854438a6bf27e4d005cd07d5497c33e6004820152602481018390526001600160a01b039091169063a9059cbb906044016020604051808303816000875af115801561125a573d6000803e3d6000fd5b505050506040513d601f19601f8201168201806040525081019061127e91906149a3565b5050565b60008281526065602052604090206001015461129d81613394565b6112a7838361339e565b505050565b6001600160a01b038116331461131c5760405162461bcd60e51b815260206004820152602f60248201527f416363657373436f6e74726f6c3a2063616e206f6e6c792072656e6f756e636560448201526e103937b632b9903337b91039b2b63360891b6064820152608401610bf5565b61127e8282613424565b6001600160a01b037f000000000000000000000000000000000000000000000000000000000000000016300361136e5760405162461bcd60e51b8152600401610bf590614a89565b7f00000000000000000000000000000000000000000000000000000000000000006001600160a01b03166113b7600080516020615092833981519152546001600160a01b031690565b6001600160a01b0316146113dd5760405162461bcd60e51b8152600401610bf590614ad5565b6113e68161348b565b604080516000808252602082019092526114029183919061351c565b50565b61012d54604051632474521560e21b81526001600160a01b03909116906391d148549061143990600090339060040161498c565b602060405180830381865afa158015611456573d6000803e3d6000fd5b505050506040513d601f19601f8201168201806040525081019061147a91906149a3565b6114965760405162461bcd60e51b8152600401610bf5906149c5565b61149e613687565b565b61012d54604051632474521560e21b81526001600160a01b03909116906391d14854906114d490600090339060040161498c565b602060405180830381865afa1580156114f1573d6000803e3d6000fd5b505050506040513d601f19601f8201168201806040525081019061151591906149a3565b6115315760405162461bcd60e51b8152600401610bf5906149c5565b6000818152610133602052604090208054600160401b900463ffffffff161561159c5760405162461bcd60e51b815260206004820152601760248201527f4c6f747465727920616c726561647920737461727465640000000000000000006044820152606401610bf5565b805460ff60e01b1916600160e01b9081178083550460ff1660038111156115c5576115c5614571565b604051839060008051602061507283398151915290600090a35050565b61013a60205281600052604060002081815481106115ff57600080fd5b6000918252602090912001546001600160a01b03169150829050565b61012d54604051632474521560e21b81526001600160a01b03909116906391d148549061164f90600090339060040161498c565b602060405180830381865afa15801561166c573d6000803e3d6000fd5b505050506040513d601f19601f8201168201806040525081019061169091906149a3565b6116ac5760405162461bcd60e51b8152600401610bf5906149c5565b60009182526101336020526040909120805463ffffffff909216600160801b0263ffffffff60801b19909216919091179055565b61012d54604051632474521560e21b81526001600160a01b03909116906391d148549061171490600090339060040161498c565b602060405180830381865afa158015611731573d6000803e3d6000fd5b505050506040513d601f19601f8201168201806040525081019061175591906149a3565b6117715760405162461bcd60e51b8152600401610bf5906149c5565b6001600160a01b0381166117c75760405162461bcd60e51b815260206004820152601d60248201527f436f6e7472616374732063616e6e6f74206265203020616464726573730000006044820152606401610bf5565b61013080546001600160a01b0319166001600160a01b0392909216919091179055565b6001600160a01b037f00000000000000000000000000000000000000000000000000000000000000001630036118325760405162461bcd60e51b8152600401610bf590614a89565b7f00000000000000000000000000000000000000000000000000000000000000006001600160a01b031661187b600080516020615092833981519152546001600160a01b031690565b6001600160a01b0316146118a15760405162461bcd60e51b8152600401610bf590614ad5565b6118aa8261348b565b61127e8282600161351c565b61012d54604051632474521560e21b81526001600160a01b03909116906391d14854906118ea90600090339060040161498c565b602060405180830381865afa158015611907573d6000803e3d6000fd5b505050506040513d601f19601f8201168201806040525081019061192b91906149a3565b6119475760405162461bcd60e51b8152600401610bf5906149c5565b6000918252610135602052604090912055565b6000306001600160a01b037f000000000000000000000000000000000000000000000000000000000000000016146119fa5760405162461bcd60e51b815260206004820152603860248201527f555550535570677261646561626c653a206d757374206e6f742062652063616c60448201527f6c6564207468726f7567682064656c656761746563616c6c00000000000000006064820152608401610bf5565b5060008051602061509283398151915290565b61012d54604051632474521560e21b81526001600160a01b03909116906391d1485490611a4190600090339060040161498c565b602060405180830381865afa158015611a5e573d6000803e3d6000fd5b505050506040513d601f19601f82011682018060405250810190611a8291906149a3565b611a9e5760405162461bcd60e51b8152600401610bf5906149c5565b611aab6020820182614b21565b611abb6040830160208401614b21565b60008263ffffffff1611611b065760405162461bcd60e51b8152602060048201526012602482015271496e76616c69642073746172742074696d6560701b6044820152606401610bf5565b8163ffffffff168163ffffffff1611611b315760405162461bcd60e51b8152600401610bf590614a46565b6000611b4360e0850160c08601614b21565b63ffffffff1611611b875760405162461bcd60e51b815260206004820152600e60248201526d496e76616c6964207072697a657360901b6044820152606401610bf5565b61012083013560009081526101336020526040902054600160c01b900463ffffffff1615611bf05760405162461bcd60e51b81526020600482015260166024820152754c6f747465727920616c72656164792065786973747360501b6044820152606401610bf5565b6101328054600181019091556101208401357fc53bdfd4aa1ab65dfdaf681ca6bda958ae4a123d4ed68c4277796592280e78359091018190556000908152610133602052604090208390611c448282614ba0565b50600090506040516101208501359060008051602061507283398151915290600090a3505050565b61012d54604051632474521560e21b81526001600160a01b03909116906391d1485490611ca090600090339060040161498c565b602060405180830381865afa158015611cbd573d6000803e3d6000fd5b505050506040513d601f19601f82011682018060405250810190611ce191906149a3565b611cfd5760405162461bcd60e51b8152600401610bf5906149c5565b600082815261013360205260409020805463ffffffff16611d575760405162461bcd60e51b8152602060048201526014602482015273131bdd1d195c9e481a59081b9bdd08199bdd5b9960621b6044820152606401610bf5565b805463ffffffff90811690831611611d815760405162461bcd60e51b8152600401610bf590614a46565b805463ffffffff9092166401000000000267ffffffff000000001990921691909117905550565b61012d54604051632474521560e21b81526001600160a01b03909116906391d1485490611ddc90600090339060040161498c565b602060405180830381865afa158015611df9573d6000803e3d6000fd5b505050506040513d601f19601f82011682018060405250810190611e1d91906149a3565b611e395760405162461bcd60e51b8152600401610bf5906149c5565b8060005b81811015611e7657611e66848483818110611e5a57611e5a614d67565b90506101800201611a0d565b611e6f81614d7d565b9050611e3d565b50505050565b604080513360208083018290528284018990528351808403850181526060840185528051908201207f19457468657265756d205369676e6564204d6573736167653a0a3332000000006080850152609c808501919091528451808503909101815260bc840180865281519183019190912061012e5460dc601f890185900490940286018401909652868252929492936001600160a01b0390931692611f3d928592918991899182910183828082843760009201919091525061371a92505050565b6001600160a01b031614611f875760405162461bcd60e51b8152602060048201526011602482015270496e76616c6964207369676e617475726560781b6044820152606401610bf5565b6101315460405163f662781d60e01b81526001600160a01b0384811660048301528992169063f662781d90602401602060405180830381865afa158015611fd2573d6000803e3d6000fd5b505050506040513d601f19601f82011682018060405250810190611ff69190614d96565b10156120645761013154604051630259ab7760e61b81526001600160a01b038481166004830152602482018a90529091169063966addc090604401600060405180830381600087803b15801561204b57600080fd5b505af115801561205f573d6000803e3d6000fd5b505050505b61206e868661226d565b50505050505050565b6120e46040805161018081018252600080825260208201819052918101829052606081018290526080810182905260a0810182905260c081018290529060e0820190815260200160006001600160a01b031681526020016000815260200160008152602001600081525090565b60008281526101336020908152604091829020825161018081018452815463ffffffff80821683526401000000008204811694830194909452600160401b8104841694820194909452600160601b840483166060820152600160801b840483166080820152600160a01b8404831660a0820152600160c01b840490921660c0830152909160e0830190600160e01b900460ff16600381111561218857612188614571565b600381111561219957612199614571565b815260018201546001600160a01b03166020820152600282015460408201526003820154606082015260049091015460809091015292915050565b61012d54604051632474521560e21b81526001600160a01b03909116906391d148549061220890600090339060040161498c565b602060405180830381865afa158015612225573d6000803e3d6000fd5b505050506040513d601f19601f8201168201806040525081019061224991906149a3565b6122655760405162461bcd60e51b8152600401610bf5906149c5565b61149e61373e565b60fb5460ff16156122905760405162461bcd60e51b8152600401610bf5906149ef565b6000828152610134602052604090205482906001600160a01b03161561236f5760008181526101346020526040908190205490516320c18e6b60e21b8152336004820152602481018390526001600160a01b039091169063830639ac90604401602060405180830381865afa15801561230d573d6000803e3d6000fd5b505050506040513d601f19601f8201168201806040525081019061233191906149a3565b61236f5760405162461bcd60e51b815260206004820152600f60248201526e139bdd081dda1a5d195b1a5cdd1959608a1b6044820152606401610bf5565b600083815261013360205260408120805490919081908190600160601b900463ffffffff16156123fe57835463ffffffff600160601b82048116916123bd918991600160a01b900416614daf565b11156123fe5760405162461bcd60e51b815260206004820152601060248201526f151a58dad95d1cc81cdbdb19081bdd5d60821b6044820152606401610bf5565b60008781526101376020908152604080832033845290915290208054855461ffff90911690600160801b900463ffffffff161561249c578554600160801b900463ffffffff1661244e8983614daf565b111561249c5760405162461bcd60e51b815260206004820181905260248201527f43616e277420627579207468697320616d6f756e74206f66207469636b6574736044820152606401610bf5565b85544263ffffffff909116118015906124c4575085544264010000000090910463ffffffff16115b80156124ed575060018654600160e01b900460ff1660038111156124ea576124ea614571565b14155b61252f5760405162461bcd60e51b81526020600482015260136024820152722637ba3a32b93c9034b9903737ba1037b832b760691b6044820152606401610bf5565b600386015461253e9089614dc7565b93508315612552576125503385613796565b505b600486015486549093508890879060149061257b908490600160a01b900463ffffffff16614de6565b92506101000a81548163ffffffff021916908363ffffffff160217905550600083111561265a576125ac8389614dc7565b61012f546040516323b872dd60e01b8152336004820152306024820152604481018390529196506001600160a01b0316906323b872dd906064016020604051808303816000875af1158015612605573d6000803e3d6000fd5b505050506040513d601f19601f8201168201806040525081019061262991906149a3565b5060008981526101386020908152604080832033845290915281208054879290612654908490614daf565b90915550505b806000036126ec578554869060089061267f90600160401b900463ffffffff16614e0e565b825463ffffffff9182166101009390930a928302919092021990911617905560008981526101376020908152604080832033845290915290208254815461ffff19811661ffff9092169182178355845460ff62010000918290041615150262ffffff199091169091171790555b81548890839060009061270490849061ffff16614e31565b825461ffff9182166101009390930a928302919092021990911617905550600089815261013a60205260408120905b898110156127ad5781546001810183556000838152602090200180546001600160a01b0319163390811790915582546040518d917fc41bbb54d04f2268c7895b9330f18468c306a3f92698a92c4c86b297873978489161279591815260200190565b60405180910390a36127a681614d7d565b9050612733565b5050505050505050505050565b60009182526065602090815260408084206001600160a01b0393909316845291905290205460ff1690565b606060006127f38484614a2f565b6127fe906001614daf565b67ffffffffffffffff81111561281657612816614350565b60405190808252806020026020018201604052801561283f578160200160208202803683370190505b509050835b8381116128c657600086815261013a6020526040902080548290811061286c5761286c614d67565b9060005260206000200160009054906101000a90046001600160a01b031682828151811061289c5761289c614d67565b6001600160a01b0390921660209283029190910190910152806128be81614d7d565b915050612844565b5090505b9392505050565b61012d54604051632474521560e21b81526001600160a01b03909116906391d148549061290590600090339060040161498c565b602060405180830381865afa158015612922573d6000803e3d6000fd5b505050506040513d601f19601f8201168201806040525081019061294691906149a3565b6129625760405162461bcd60e51b8152600401610bf5906149c5565b600081815261013360205260409020805463ffffffff166129ba5760405162461bcd60e51b8152602060048201526012602482015271125b9d985b1a59081b1bdd1d195c9e481a5960721b6044820152606401610bf5565b80544264010000000090910463ffffffff1610612a115760405162461bcd60e51b8152602060048201526015602482015274131bdd1d195c9e481a5cc81b9bdd0818db1bdcd959605a1b6044820152606401610bf5565b60008154600160e01b900460ff166003811115612a3057612a30614571565b03612a7c57805460ff60e01b1916600160e11b17808255600160e01b900460ff166003811115612a6257612a62614571565b604051839060008051602061507283398151915290600090a35b60028154600160e01b900460ff166003811115612a9b57612a9b614571565b14612ae85760405162461bcd60e51b815260206004820152601760248201527f4c6f7474657279206d75737420626520636c6f736564210000000000000000006044820152606401610bf5565b61013054604051632f215ddf60e21b8152600481018490526001600160a01b039091169063bc85777c906024016020604051808303816000875af1158015612b34573d6000803e3d6000fd5b505050506040513d601f19601f820116820180604052508101906112a79190614d96565b61012d54604051632474521560e21b81526001600160a01b03909116906391d1485490612b8c90600090339060040161498c565b602060405180830381865afa158015612ba9573d6000803e3d6000fd5b505050506040513d601f19601f82011682018060405250810190612bcd91906149a3565b612be95760405162461bcd60e51b8152600401610bf5906149c5565b60009182526101336020526040909120805463ffffffff909216600160601b0263ffffffff60601b19909216919091179055565b60fb5460ff1615612c405760405162461bcd60e51b8152600401610bf5906149ef565b60008781526101366020908152604080832088845290915290205460ff1615612cb55760405162461bcd60e51b815260206004820152602160248201527f5061727469636970616e7420616c726561647920636c61696d6564207072697a6044820152606560f81b6064820152608401610bf5565b612d48612cfa88888888888080601f01602080910402602001604051908101604052809392919081815260200183838082843760009201919091525061380f92505050565b61013560008a81526020019081526020016000205484848080602002602001604051908101604052809392919081815260200183836020028082843760009201919091525061384892505050565b612d8b5760405162461bcd60e51b815260206004820152601460248201527324b73b30b634b21036b2b935b63290383937b7b360611b6044820152606401610bf5565b60008781526101336020526040902060048101548015612e525760008981526101386020908152604080832033845290915281208054839290612dcf908490614a2f565b909155505061012f54600183015460405163a9059cbb60e01b81526001600160a01b0391821660048201526024810184905291169063a9059cbb906044016020604051808303816000875af1158015612e2c573d6000803e3d6000fd5b505050506040513d601f19601f82011682018060405250810190612e5091906149a3565b505b6000898152610137602090815260408083206001600160a01b03808d168552908352818420805462ff00001916620100001790558c8452610133835281842060019081015461013685528386208d875290945293829020805460ff191690941790935551636902622f60e11b8152911690819063d204c45e90612edd908c908b908b90600401614e4e565b600060405180830381600087803b158015612ef757600080fd5b505af1158015612f0b573d6000803e3d6000fd5b5050505087896001600160a01b03168b7f4aa95f981a8337cb337de335b965507da0879c3b49f799d20058e913f5ad2c2660405160405180910390a450505050505050505050565b600082815260656020526040902060010154612f6e81613394565b6112a78383613424565b61012d54604051632474521560e21b81526001600160a01b03909116906391d1485490612fac90600090339060040161498c565b602060405180830381865afa158015612fc9573d6000803e3d6000fd5b505050506040513d601f19601f82011682018060405250810190612fed91906149a3565b6130095760405162461bcd60e51b8152600401610bf5906149c5565b6000918252610134602052604090912080546001600160a01b0319166001600160a01b03909216919091179055565b61012d54604051632474521560e21b81526001600160a01b03909116906391d148549061306c90600090339060040161498c565b602060405180830381865afa158015613089573d6000803e3d6000fd5b505050506040513d601f19601f820116820180604052508101906130ad91906149a3565b6130c95760405162461bcd60e51b8152600401610bf5906149c5565b61013180546001600160a01b0319166001600160a01b0392909216919091179055565b610130546001600160a01b0316331461313a5760405162461bcd60e51b815260206004820152601060248201526f4f6e6c7920524e47206164647265737360801b6044820152606401610bf5565b60008281526101336020526040902060028154600160e01b900460ff16600381111561316857613168614571565b146131ae5760405162461bcd60e51b8152602060048201526016602482015275131bdd1d195c9e481b5d5cdd0818994818db1bdcd95960521b6044820152606401610bf5565b805460ff60e01b1916600360e01b1781556000838152610139602052604090208290558054600160e01b900460ff1660038111156131ee576131ee614571565b604051849060008051602061507283398151915290600090a3505050565b8251815181146132505760405162461bcd60e51b815260206004820152600f60248201526e57726f6e6720617267756d656e747360881b6044820152606401610bf5565b60005b818110156132a85761329885828151811061327057613270614d67565b60200260200101518585848151811061328b5761328b614d67565b6020026020010151610cf7565b6132a181614d7d565b9050613253565b5050505050565b60006132bb600161385d565b905080156132d3576000805461ff0019166101001790555b6132db6138e5565b6132e361390c565b6132eb6138e5565b61012f80546001600160a01b038086166001600160a01b03199283161790925561012e8054878416908316179055610131805488841690831617905561012d80549285169290911691909117905580156132a8576000805461ff0019169055604051600181527f7f26b83ff96e1f2b6a682f133852f6798a09c465da95921460cefb38474024989060200160405180910390a15050505050565b6001600160a01b03163b151590565b611402813361393b565b6133a882826127ba565b61127e5760008281526065602090815260408083206001600160a01b03851684529091529020805460ff191660011790556133e03390565b6001600160a01b0316816001600160a01b0316837f2f8788117e7eff1d82e926ec794901d17c78024a50270940304540a733656f0d60405160405180910390a45050565b61342e82826127ba565b1561127e5760008281526065602090815260408083206001600160a01b0385168085529252808320805460ff1916905551339285917ff6391f5c32d9c69d2a47ea670b442974b53935d1edc7fd64eb21e047a839171b9190a45050565b61012d54604051632474521560e21b81526001600160a01b03909116906391d14854906134bf90600090339060040161498c565b602060405180830381865afa1580156134dc573d6000803e3d6000fd5b505050506040513d601f19601f8201168201806040525081019061350091906149a3565b6114025760405162461bcd60e51b8152600401610bf5906149c5565b7f4910fdfa16fed3260ed0e7147f7cc6da11a60208b5b9406d12a635614ffd91435460ff161561354f576112a78361399f565b826001600160a01b03166352d1902d6040518163ffffffff1660e01b8152600401602060405180830381865afa9250505080156135a9575060408051601f3d908101601f191682019092526135a691810190614d96565b60015b61360c5760405162461bcd60e51b815260206004820152602e60248201527f45524331393637557067726164653a206e657720696d706c656d656e7461746960448201526d6f6e206973206e6f74205555505360901b6064820152608401610bf5565b600080516020615092833981519152811461367b5760405162461bcd60e51b815260206004820152602960248201527f45524331393637557067726164653a20756e737570706f727465642070726f786044820152681a58589b195555525160ba1b6064820152608401610bf5565b506112a7838383613a3b565b60fb5460ff166136d05760405162461bcd60e51b815260206004820152601460248201527314185d5cd8589b194e881b9bdd081c185d5cd95960621b6044820152606401610bf5565b60fb805460ff191690557f5db9ee0a495bf2e6ff9c91a7834c1ba4fdd244a5e8aa4e537bd38aeae4b073aa335b6040516001600160a01b03909116815260200160405180910390a1565b60008060006137298585613a60565b9150915061373681613ace565b509392505050565b60fb5460ff16156137615760405162461bcd60e51b8152600401610bf5906149ef565b60fb805460ff191660011790557f62e78cea01bee320cd4e420270b5ea74000d11b0c9f74754ebdbfc544b05a2586136fd3390565b61013154604051631e961d2760e01b81526001600160a01b038481166004830152602482018490526000921690631e961d27906044016020604051808303816000875af11580156137eb573d6000803e3d6000fd5b505050506040513d601f19601f820116820180604052508101906128ca9190614d96565b6000848484846040516020016138289493929190614ee6565b604051602081830303815290604052805190602001209050949350505050565b6000613855828486613c84565b949350505050565b60008054610100900460ff16156138a4578160ff1660011480156138805750303b155b61389c5760405162461bcd60e51b8152600401610bf590614f1d565b506000919050565b60005460ff8084169116106138cb5760405162461bcd60e51b8152600401610bf590614f1d565b506000805460ff191660ff92909216919091179055600190565b600054610100900460ff1661149e5760405162461bcd60e51b8152600401610bf590614f6b565b600054610100900460ff166139335760405162461bcd60e51b8152600401610bf590614f6b565b61149e613c9a565b61394582826127ba565b61127e5761395d816001600160a01b03166014613ccd565b613968836020613ccd565b604051602001613979929190614fb6565b60408051601f198184030181529082905262461bcd60e51b8252610bf59160040161502b565b6001600160a01b0381163b613a0c5760405162461bcd60e51b815260206004820152602d60248201527f455243313936373a206e657720696d706c656d656e746174696f6e206973206e60448201526c1bdd08184818dbdb9d1c9858dd609a1b6064820152608401610bf5565b60008051602061509283398151915280546001600160a01b0319166001600160a01b0392909216919091179055565b613a4483613e69565b600082511180613a515750805b156112a757611e768383613ea9565b6000808251604103613a965760208301516040840151606085015160001a613a8a87828585613f9d565b94509450505050613ac7565b8251604003613abf5760208301516040840151613ab486838361408a565b935093505050613ac7565b506000905060025b9250929050565b6000816004811115613ae257613ae2614571565b03613aea5750565b6001816004811115613afe57613afe614571565b03613b4b5760405162461bcd60e51b815260206004820152601860248201527f45434453413a20696e76616c6964207369676e617475726500000000000000006044820152606401610bf5565b6002816004811115613b5f57613b5f614571565b03613bac5760405162461bcd60e51b815260206004820152601f60248201527f45434453413a20696e76616c6964207369676e6174757265206c656e677468006044820152606401610bf5565b6003816004811115613bc057613bc0614571565b03613c185760405162461bcd60e51b815260206004820152602260248201527f45434453413a20696e76616c6964207369676e6174757265202773272076616c604482015261756560f01b6064820152608401610bf5565b6004816004811115613c2c57613c2c614571565b036114025760405162461bcd60e51b815260206004820152602260248201527f45434453413a20696e76616c6964207369676e6174757265202776272076616c604482015261756560f01b6064820152608401610bf5565b600082613c9185846140c3565b14949350505050565b600054610100900460ff16613cc15760405162461bcd60e51b8152600401610bf590614f6b565b60fb805460ff19169055565b60606000613cdc836002614dc7565b613ce7906002614daf565b67ffffffffffffffff811115613cff57613cff614350565b6040519080825280601f01601f191660200182016040528015613d29576020820181803683370190505b509050600360fc1b81600081518110613d4457613d44614d67565b60200101906001600160f81b031916908160001a905350600f60fb1b81600181518110613d7357613d73614d67565b60200101906001600160f81b031916908160001a9053506000613d97846002614dc7565b613da2906001614daf565b90505b6001811115613e1a576f181899199a1a9b1b9c1cb0b131b232b360811b85600f1660108110613dd657613dd6614d67565b1a60f81b828281518110613dec57613dec614d67565b60200101906001600160f81b031916908160001a90535060049490941c93613e138161503e565b9050613da5565b5083156128ca5760405162461bcd60e51b815260206004820181905260248201527f537472696e67733a20686578206c656e67746820696e73756666696369656e746044820152606401610bf5565b613e728161399f565b6040516001600160a01b038216907fbc7cd75a20ee27fd9adebab32041f755214dbc6bffa90cc0225b39da2e5c2d3b90600090a250565b60606001600160a01b0383163b613f115760405162461bcd60e51b815260206004820152602660248201527f416464726573733a2064656c65676174652063616c6c20746f206e6f6e2d636f6044820152651b9d1c9858dd60d21b6064820152608401610bf5565b600080846001600160a01b031684604051613f2c9190615055565b600060405180830381855af49150503d8060008114613f67576040519150601f19603f3d011682016040523d82523d6000602084013e613f6c565b606091505b5091509150613f9482826040518060600160405280602781526020016150b26027913961412f565b95945050505050565b6000807f7fffffffffffffffffffffffffffffff5d576e7357a4501ddfe92f46681b20a0831115613fd45750600090506003614081565b8460ff16601b14158015613fec57508460ff16601c14155b15613ffd5750600090506004614081565b6040805160008082526020820180845289905260ff881692820192909252606081018690526080810185905260019060a0016020604051602081039080840390855afa158015614051573d6000803e3d6000fd5b5050604051601f1901519150506001600160a01b03811661407a57600060019250925050614081565b9150600090505b94509492505050565b6000806001600160ff1b038316816140a760ff86901c601b614daf565b90506140b587828885613f9d565b935093505050935093915050565b600081815b84518110156137365760008582815181106140e5576140e5614d67565b6020026020010151905080831161410b576000838152602082905260409020925061411c565b600081815260208490526040902092505b508061412781614d7d565b9150506140c8565b6060831561413e5750816128ca565b82511561414e5782518084602001fd5b8160405162461bcd60e51b8152600401610bf5919061502b565b60006020828403121561417a57600080fd5b81356001600160e01b0319811681146128ca57600080fd5b6001600160a01b038116811461140257600080fd5b600080604083850312156141ba57600080fd5b8235915060208301356141cc81614192565b809150509250929050565b6000602082840312156141e957600080fd5b81356128ca81614192565b60006020828403121561420657600080fd5b5035919050565b60008060006060848603121561422257600080fd5b833561422d81614192565b95602085013595506040909401359392505050565b63ffffffff8116811461140257600080fd5b6004811061140257600080fd5b60008060008060008060008060006101208a8c03121561428057600080fd5b8935985060208a0135975060408a0135965060608a01356142a081614242565b955060808a01356142b081614242565b945060a08a01356142c081614192565b935060c08a013561ffff811681146142d757600080fd5b925060e08a01356142e781614254565b91506101008a01356142f881614242565b809150509295985092959850929598565b6000806040838503121561431c57600080fd5b50508035926020909101359150565b6000806040838503121561433e57600080fd5b8235915060208301356141cc81614242565b634e487b7160e01b600052604160045260246000fd5b604051601f8201601f1916810167ffffffffffffffff8111828210171561438f5761438f614350565b604052919050565b600080604083850312156143aa57600080fd5b82356143b581614192565b915060208381013567ffffffffffffffff808211156143d357600080fd5b818601915086601f8301126143e757600080fd5b8135818111156143f9576143f9614350565b61440b601f8201601f19168501614366565b9150808252878482850101111561442157600080fd5b80848401858401376000848284010152508093505050509250929050565b6000610180828403121561445257600080fd5b50919050565b6000806020838503121561446b57600080fd5b823567ffffffffffffffff8082111561448357600080fd5b818501915085601f83011261449757600080fd5b8135818111156144a657600080fd5b866020610180830285010111156144bc57600080fd5b60209290920196919550909350505050565b60008083601f8401126144e057600080fd5b50813567ffffffffffffffff8111156144f857600080fd5b602083019150836020828501011115613ac757600080fd5b60008060008060006080868803121561452857600080fd5b853594506020860135935060408601359250606086013567ffffffffffffffff81111561455457600080fd5b614560888289016144ce565b969995985093965092949392505050565b634e487b7160e01b600052602160045260246000fd5b600481106145a557634e487b7160e01b600052602160045260246000fd5b9052565b815163ffffffff168152610180810160208301516145cf602084018263ffffffff169052565b5060408301516145e7604084018263ffffffff169052565b5060608301516145ff606084018263ffffffff169052565b506080830151614617608084018263ffffffff169052565b5060a083015161462f60a084018263ffffffff169052565b5060c083015161464760c084018263ffffffff169052565b5060e083015161465a60e0840182614587565b50610100838101516001600160a01b0316908301526101208084015190830152610140808401519083015261016092830151929091019190915290565b6000806000606084860312156146ac57600080fd5b505081359360208301359350604090920135919050565b6020808252825182820181905260009190848201906040850190845b818110156147045783516001600160a01b0316835292840192918401916001016146df565b50909695505050505050565b600080600080600080600060a0888a03121561472b57600080fd5b87359650602088013561473d81614192565b955060408801359450606088013567ffffffffffffffff8082111561476157600080fd5b61476d8b838c016144ce565b909650945060808a013591508082111561478657600080fd5b818a0191508a601f83011261479a57600080fd5b8135818111156147a957600080fd5b8b60208260051b85010111156147be57600080fd5b60208301945080935050505092959891949750929550565b600067ffffffffffffffff8211156147f0576147f0614350565b5060051b60200190565b600082601f83011261480b57600080fd5b8135602061482061481b836147d6565b614366565b82815260059290921b8401810191818101908684111561483f57600080fd5b8286015b8481101561485a5780358352918301918301614843565b509695505050505050565b60008060006060848603121561487a57600080fd5b833567ffffffffffffffff8082111561489257600080fd5b818601915086601f8301126148a657600080fd5b813560206148b661481b836147d6565b82815260059290921b8401810191818101908a8411156148d557600080fd5b948201945b838610156148fc5785356148ed81614192565b825294820194908201906148da565b975050870135945050604086013591508082111561491957600080fd5b50614926868287016147fa565b9150509250925092565b6000806000806080858703121561494657600080fd5b843561495181614192565b9350602085013561496181614192565b9250604085013561497181614192565b9150606085013561498181614192565b939692955090935050565b9182526001600160a01b0316602082015260400190565b6000602082840312156149b557600080fd5b815180151581146128ca57600080fd5b60208082526010908201526f41646d696e2063616c6c73206f6e6c7960801b604082015260600190565b60208082526010908201526f14185d5cd8589b194e881c185d5cd95960821b604082015260600190565b634e487b7160e01b600052601160045260246000fd5b600082821015614a4157614a41614a19565b500390565b60208082526023908201527f436c6f73652074696d65206d7573742062652061667465722073746172742074604082015262696d6560e81b606082015260800190565b6020808252602c908201527f46756e6374696f6e206d7573742062652063616c6c6564207468726f7567682060408201526b19195b1959d85d1958d85b1b60a21b606082015260800190565b6020808252602c908201527f46756e6374696f6e206d7573742062652063616c6c6564207468726f7567682060408201526b6163746976652070726f787960a01b606082015260800190565b600060208284031215614b3357600080fd5b81356128ca81614242565b60008135610b5e81614242565b60008135610b5e81614254565b60048210614b7657634e487b7160e01b600052602160045260246000fd5b805460ff60e01b191660e09290921b60ff60e01b16919091179055565b60008135610b5e81614192565b614bc3614bac83614b3e565b825463ffffffff191663ffffffff91909116178255565b614bf4614bd260208401614b3e565b825467ffffffff00000000191660209190911b67ffffffff0000000016178255565b614c2d614c0360408401614b3e565b82546bffffffff0000000000000000191660409190911b6bffffffff000000000000000016178255565b614c60614c3c60608401614b3e565b82805463ffffffff60601b191660609290921b63ffffffff60601b16919091179055565b614c93614c6f60808401614b3e565b82805463ffffffff60801b191660809290921b63ffffffff60801b16919091179055565b614cc6614ca260a08401614b3e565b82805463ffffffff60a01b191660a09290921b63ffffffff60a01b16919091179055565b614cf9614cd560c08401614b3e565b82805463ffffffff60c01b191660c09290921b63ffffffff60c01b16919091179055565b614d0e614d0860e08401614b4b565b82614b58565b614d42614d1e6101008401614b93565b6001830180546001600160a01b0319166001600160a01b0392909216919091179055565b6101208201356002820155610140820135600382015561016082013560048201555050565b634e487b7160e01b600052603260045260246000fd5b600060018201614d8f57614d8f614a19565b5060010190565b600060208284031215614da857600080fd5b5051919050565b60008219821115614dc257614dc2614a19565b500190565b6000816000190483118215151615614de157614de1614a19565b500290565b600063ffffffff808316818516808303821115614e0557614e05614a19565b01949350505050565b600063ffffffff808316818103614e2757614e27614a19565b6001019392505050565b600061ffff808316818516808303821115614e0557614e05614a19565b6001600160a01b03841681526040602082018190528101829052818360608301376000818301606090810191909152601f909201601f1916010192915050565b60005b83811015614ea9578181015183820152602001614e91565b83811115611e765750506000910152565b60008151808452614ed2816020860160208601614e8e565b601f01601f19169290920160200192915050565b84815260018060a01b0384166020820152826040820152608060608201526000614f136080830184614eba565b9695505050505050565b6020808252602e908201527f496e697469616c697a61626c653a20636f6e747261637420697320616c72656160408201526d191e481a5b9a5d1a585b1a5e995960921b606082015260800190565b6020808252602b908201527f496e697469616c697a61626c653a20636f6e7472616374206973206e6f74206960408201526a6e697469616c697a696e6760a81b606082015260800190565b7f416363657373436f6e74726f6c3a206163636f756e7420000000000000000000815260008351614fee816017850160208801614e8e565b7001034b99036b4b9b9b4b733903937b6329607d1b601791840191820152835161501f816028840160208801614e8e565b01602801949350505050565b6020815260006128ca6020830184614eba565b60008161504d5761504d614a19565b506000190190565b60008251615067818460208701614e8e565b919091019291505056fea3aca9ae20a0379d4094b84c749cbed6584ab20f0b71af75f63f6615d879c939360894a13ba1a3210667c828492db98dca3e2076cc3735a920a3ca505d382bbc416464726573733a206c6f772d6c6576656c2064656c65676174652063616c6c206661696c6564a2646970667358221220f37837739aa08bef45e9e24615d4566abcb1377b90fefb1f8f2472f04fef700864736f6c634300080e0033496e697469616c697a61626c653a20636f6e747261637420697320616c726561",
  "linkReferences": {},
  "deployedLinkReferences": {}
}