{
  "_format": "hh-sol-artifact-1",
  "contractName": "Lottery",
  "sourceName": "contracts/Lottery/Lottery.sol",
  "abi": [
    {
      "anonymous": false,
      "inputs": [
        {
          "indexed": false,
          "internalType": "address",
          "name": "previousAdmin",
          "type": "address"
        },
        {
          "indexed": false,
          "internalType": "address",
          "name": "newAdmin",
          "type": "address"
        }
      ],
      "name": "AdminChanged",
      "type": "event"
    },
    {
      "anonymous": false,
      "inputs": [
        {
          "indexed": true,
          "internalType": "address",
          "name": "beacon",
          "type": "address"
        }
      ],
      "name": "BeaconUpgraded",
      "type": "event"
    },
    {
      "anonymous": false,
      "inputs": [
        {
          "indexed": false,
          "internalType": "uint8",
          "name": "version",
          "type": "uint8"
        }
      ],
      "name": "Initialized",
      "type": "event"
    },
    {
      "anonymous": false,
      "inputs": [
        {
          "indexed": true,
          "internalType": "uint256",
          "name": "lotteryId",
          "type": "uint256"
        },
        {
          "indexed": true,
          "internalType": "enum Lottery.Status",
          "name": "status",
          "type": "uint8"
        }
      ],
      "name": "LotteryStatusChanged",
      "type": "event"
    },
    {
      "anonymous": false,
      "inputs": [
        {
          "indexed": false,
          "internalType": "address",
          "name": "account",
          "type": "address"
        }
      ],
      "name": "Paused",
      "type": "event"
    },
    {
      "anonymous": false,
      "inputs": [
        {
          "indexed": true,
          "internalType": "uint256",
          "name": "lotteryId",
          "type": "uint256"
        },
        {
          "indexed": true,
          "internalType": "address",
          "name": "participantAddress",
          "type": "address"
        },
        {
          "indexed": true,
          "internalType": "uint256",
          "name": "prizeId",
          "type": "uint256"
        }
      ],
      "name": "PrizeClaimed",
      "type": "event"
    },
    {
      "anonymous": false,
      "inputs": [
        {
          "indexed": true,
          "internalType": "bytes32",
          "name": "role",
          "type": "bytes32"
        },
        {
          "indexed": true,
          "internalType": "bytes32",
          "name": "previousAdminRole",
          "type": "bytes32"
        },
        {
          "indexed": true,
          "internalType": "bytes32",
          "name": "newAdminRole",
          "type": "bytes32"
        }
      ],
      "name": "RoleAdminChanged",
      "type": "event"
    },
    {
      "anonymous": false,
      "inputs": [
        {
          "indexed": true,
          "internalType": "bytes32",
          "name": "role",
          "type": "bytes32"
        },
        {
          "indexed": true,
          "internalType": "address",
          "name": "account",
          "type": "address"
        },
        {
          "indexed": true,
          "internalType": "address",
          "name": "sender",
          "type": "address"
        }
      ],
      "name": "RoleGranted",
      "type": "event"
    },
    {
      "anonymous": false,
      "inputs": [
        {
          "indexed": true,
          "internalType": "bytes32",
          "name": "role",
          "type": "bytes32"
        },
        {
          "indexed": true,
          "internalType": "address",
          "name": "account",
          "type": "address"
        },
        {
          "indexed": true,
          "internalType": "address",
          "name": "sender",
          "type": "address"
        }
      ],
      "name": "RoleRevoked",
      "type": "event"
    },
    {
      "anonymous": false,
      "inputs": [
        {
          "indexed": false,
          "internalType": "address",
          "name": "operator",
          "type": "address"
        },
        {
          "indexed": false,
          "internalType": "uint256",
          "name": "lotteryId",
          "type": "uint256"
        },
        {
          "indexed": false,
          "internalType": "uint256",
          "name": "priceOfTicket",
          "type": "uint256"
        }
      ],
      "name": "TicketCostChanged",
      "type": "event"
    },
    {
      "anonymous": false,
      "inputs": [
        {
          "indexed": true,
          "internalType": "uint256",
          "name": "lotteryId",
          "type": "uint256"
        },
        {
          "indexed": false,
          "internalType": "uint256",
          "name": "ticketNumber",
          "type": "uint256"
        },
        {
          "indexed": true,
          "internalType": "address",
          "name": "participantAddress",
          "type": "address"
        }
      ],
      "name": "TicketSold",
      "type": "event"
    },
    {
      "anonymous": false,
      "inputs": [
        {
          "indexed": false,
          "internalType": "address",
          "name": "account",
          "type": "address"
        }
      ],
      "name": "Unpaused",
      "type": "event"
    },
    {
      "anonymous": false,
      "inputs": [
        {
          "indexed": true,
          "internalType": "address",
          "name": "implementation",
          "type": "address"
        }
      ],
      "name": "Upgraded",
      "type": "event"
    },
    {
      "inputs": [],
      "name": "DEFAULT_ADMIN_ROLE",
      "outputs": [
        {
          "internalType": "bytes32",
          "name": "",
          "type": "bytes32"
        }
      ],
      "stateMutability": "view",
      "type": "function"
    },
    {
      "inputs": [
        {
          "internalType": "uint256",
          "name": "_lotteryId",
          "type": "uint256"
        },
        {
          "internalType": "uint256",
          "name": "_numberOfTicketsToBuy",
          "type": "uint256"
        }
      ],
      "name": "buyTickets",
      "outputs": [],
      "stateMutability": "nonpayable",
      "type": "function"
    },
    {
      "inputs": [
        {
          "internalType": "uint256",
          "name": "_points",
          "type": "uint256"
        },
        {
          "internalType": "uint256",
          "name": "_lotteryId",
          "type": "uint256"
        },
        {
          "internalType": "uint256",
          "name": "_numberOfTicketsToBuy",
          "type": "uint256"
        },
        {
          "internalType": "bytes",
          "name": "_sig",
          "type": "bytes"
        }
      ],
      "name": "buyTicketsWithSignedMessage",
      "outputs": [],
      "stateMutability": "nonpayable",
      "type": "function"
    },
    {
      "inputs": [
        {
          "internalType": "uint256",
          "name": "_lotteryId",
          "type": "uint256"
        }
      ],
      "name": "cancelLottery",
      "outputs": [],
      "stateMutability": "nonpayable",
      "type": "function"
    },
    {
      "inputs": [
        {
          "internalType": "uint256",
          "name": "_lotteryId",
          "type": "uint256"
        },
        {
          "internalType": "uint32",
          "name": "_time",
          "type": "uint32"
        }
      ],
      "name": "changeCloseTime",
      "outputs": [],
      "stateMutability": "nonpayable",
      "type": "function"
    },
    {
      "inputs": [
        {
          "internalType": "uint256",
          "name": "_lotteryId",
          "type": "uint256"
        },
        {
          "internalType": "address",
          "name": "_winner",
          "type": "address"
        },
        {
          "internalType": "uint256",
          "name": "_prizeId",
          "type": "uint256"
        },
        {
          "internalType": "string",
          "name": "_uri",
          "type": "string"
        },
        {
          "internalType": "bytes32[]",
          "name": "_proof",
          "type": "bytes32[]"
        }
      ],
      "name": "claimPrize",
      "outputs": [],
      "stateMutability": "nonpayable",
      "type": "function"
    },
    {
      "inputs": [
        {
          "internalType": "uint256",
          "name": "",
          "type": "uint256"
        },
        {
          "internalType": "uint256",
          "name": "",
          "type": "uint256"
        }
      ],
      "name": "claimedPrizes",
      "outputs": [
        {
          "internalType": "bool",
          "name": "",
          "type": "bool"
        }
      ],
      "stateMutability": "view",
      "type": "function"
    },
    {
      "inputs": [
        {
          "internalType": "uint256",
          "name": "_lotteryId",
          "type": "uint256"
        },
        {
          "internalType": "uint256",
          "name": "_ticketCostPoints",
          "type": "uint256"
        },
        {
          "internalType": "uint256",
          "name": "_ticketCostTokens",
          "type": "uint256"
        },
        {
          "internalType": "uint32",
          "name": "_startTime",
          "type": "uint32"
        },
        {
          "internalType": "uint32",
          "name": "_closeTime",
          "type": "uint32"
        },
        {
          "internalType": "contract INFT",
          "name": "_nftContract",
          "type": "address"
        },
        {
          "internalType": "uint16",
          "name": "_maxTickets",
          "type": "uint16"
        },
        {
          "internalType": "uint16",
          "name": "_maxTicketsPerUser",
          "type": "uint16"
        },
        {
          "internalType": "uint128",
          "name": "_firstPrizeId",
          "type": "uint128"
        },
        {
          "internalType": "uint128",
          "name": "_lastPrizeId",
          "type": "uint128"
        }
      ],
      "name": "createLottery",
      "outputs": [],
      "stateMutability": "nonpayable",
      "type": "function"
    },
    {
      "inputs": [],
      "name": "getLotteryCount",
      "outputs": [
        {
          "internalType": "uint256",
          "name": "",
          "type": "uint256"
        }
      ],
      "stateMutability": "view",
      "type": "function"
    },
    {
      "inputs": [
        {
          "internalType": "uint256",
          "name": "_lotteryId",
          "type": "uint256"
        }
      ],
      "name": "getLotteryInfo",
      "outputs": [
        {
          "components": [
            {
              "internalType": "uint32",
              "name": "startTime",
              "type": "uint32"
            },
            {
              "internalType": "uint32",
              "name": "closeTime",
              "type": "uint32"
            },
            {
              "internalType": "uint32",
              "name": "participantsCount",
              "type": "uint32"
            },
            {
              "internalType": "uint32",
              "name": "maxTickets",
              "type": "uint32"
            },
            {
              "internalType": "uint32",
              "name": "maxTicketsPerUser",
              "type": "uint32"
            },
            {
              "internalType": "uint32",
              "name": "numberOfTicketsSold",
              "type": "uint32"
            },
            {
              "internalType": "enum Lottery.Status",
              "name": "status",
              "type": "uint8"
            },
            {
              "internalType": "contract INFT",
              "name": "nftContract",
              "type": "address"
            },
            {
              "internalType": "uint128",
              "name": "firstPrizeId",
              "type": "uint128"
            },
            {
              "internalType": "uint128",
              "name": "lastPrizeId",
              "type": "uint128"
            },
            {
              "internalType": "uint256",
              "name": "lotteryID",
              "type": "uint256"
            },
            {
              "internalType": "uint256",
              "name": "ticketCostPoints",
              "type": "uint256"
            },
            {
              "internalType": "uint256",
              "name": "ticketCostTokens",
              "type": "uint256"
            }
          ],
          "internalType": "struct Lottery.LotteryInfo",
          "name": "",
          "type": "tuple"
        }
      ],
      "stateMutability": "view",
      "type": "function"
    },
    {
      "inputs": [
        {
          "internalType": "uint256",
          "name": "_lotteryId",
          "type": "uint256"
        }
      ],
      "name": "getLotteryTicketCount",
      "outputs": [
        {
          "internalType": "uint256",
          "name": "",
          "type": "uint256"
        }
      ],
      "stateMutability": "view",
      "type": "function"
    },
    {
      "inputs": [
        {
          "internalType": "uint256",
          "name": "_lotteryId",
          "type": "uint256"
        },
        {
          "internalType": "uint256",
          "name": "_from",
          "type": "uint256"
        },
        {
          "internalType": "uint256",
          "name": "_to",
          "type": "uint256"
        }
      ],
      "name": "getLotteryTickets",
      "outputs": [
        {
          "internalType": "address[]",
          "name": "",
          "type": "address[]"
        }
      ],
      "stateMutability": "view",
      "type": "function"
    },
    {
      "inputs": [
        {
          "internalType": "uint256",
          "name": "_lotteryId",
          "type": "uint256"
        }
      ],
      "name": "getParticipantsCount",
      "outputs": [
        {
          "internalType": "uint32",
          "name": "",
          "type": "uint32"
        }
      ],
      "stateMutability": "view",
      "type": "function"
    },
    {
      "inputs": [
        {
          "internalType": "bytes32",
          "name": "role",
          "type": "bytes32"
        }
      ],
      "name": "getRoleAdmin",
      "outputs": [
        {
          "internalType": "bytes32",
          "name": "",
          "type": "bytes32"
        }
      ],
      "stateMutability": "view",
      "type": "function"
    },
    {
      "inputs": [
        {
          "internalType": "uint256",
          "name": "_lotteryId",
          "type": "uint256"
        },
        {
          "internalType": "address",
          "name": "_user",
          "type": "address"
        }
      ],
      "name": "getTicketCountPerUser",
      "outputs": [
        {
          "internalType": "uint256",
          "name": "",
          "type": "uint256"
        }
      ],
      "stateMutability": "view",
      "type": "function"
    },
    {
      "inputs": [
        {
          "internalType": "uint256",
          "name": "_lotteryId",
          "type": "uint256"
        }
      ],
      "name": "getWhitelist",
      "outputs": [
        {
          "internalType": "address",
          "name": "",
          "type": "address"
        }
      ],
      "stateMutability": "view",
      "type": "function"
    },
    {
      "inputs": [
        {
          "internalType": "bytes32",
          "name": "role",
          "type": "bytes32"
        },
        {
          "internalType": "address",
          "name": "account",
          "type": "address"
        }
      ],
      "name": "grantRole",
      "outputs": [],
      "stateMutability": "nonpayable",
      "type": "function"
    },
    {
      "inputs": [
        {
          "internalType": "bytes32",
          "name": "role",
          "type": "bytes32"
        },
        {
          "internalType": "address",
          "name": "account",
          "type": "address"
        }
      ],
      "name": "hasRole",
      "outputs": [
        {
          "internalType": "bool",
          "name": "",
          "type": "bool"
        }
      ],
      "stateMutability": "view",
      "type": "function"
    },
    {
      "inputs": [
        {
          "internalType": "address",
          "name": "_rewardsContract",
          "type": "address"
        },
        {
          "internalType": "address",
          "name": "_admin",
          "type": "address"
        },
        {
          "internalType": "address",
          "name": "_token",
          "type": "address"
        },
        {
          "internalType": "address",
          "name": "_sageStorage",
          "type": "address"
        }
      ],
      "name": "initialize",
      "outputs": [],
      "stateMutability": "nonpayable",
      "type": "function"
    },
    {
      "inputs": [
        {
          "internalType": "uint256",
          "name": "",
          "type": "uint256"
        }
      ],
      "name": "lotteries",
      "outputs": [
        {
          "internalType": "uint256",
          "name": "",
          "type": "uint256"
        }
      ],
      "stateMutability": "view",
      "type": "function"
    },
    {
      "inputs": [
        {
          "internalType": "uint256",
          "name": "",
          "type": "uint256"
        },
        {
          "internalType": "uint256",
          "name": "",
          "type": "uint256"
        }
      ],
      "name": "lotteryTickets",
      "outputs": [
        {
          "internalType": "address",
          "name": "",
          "type": "address"
        }
      ],
      "stateMutability": "view",
      "type": "function"
    },
    {
      "inputs": [
        {
          "internalType": "uint256",
          "name": "",
          "type": "uint256"
        },
        {
          "internalType": "address",
          "name": "",
          "type": "address"
        }
      ],
      "name": "participants",
      "outputs": [
        {
          "internalType": "uint16",
          "name": "totalTicketsBought",
          "type": "uint16"
        },
        {
          "internalType": "bool",
          "name": "claimedPrize",
          "type": "bool"
        }
      ],
      "stateMutability": "view",
      "type": "function"
    },
    {
      "inputs": [],
      "name": "pause",
      "outputs": [],
      "stateMutability": "nonpayable",
      "type": "function"
    },
    {
      "inputs": [],
      "name": "paused",
      "outputs": [
        {
          "internalType": "bool",
          "name": "",
          "type": "bool"
        }
      ],
      "stateMutability": "view",
      "type": "function"
    },
    {
      "inputs": [
        {
          "internalType": "uint256",
          "name": "_lotteryId",
          "type": "uint256"
        },
        {
          "internalType": "uint256",
          "name": "_tokenId",
          "type": "uint256"
        }
      ],
      "name": "prizeClaimed",
      "outputs": [
        {
          "internalType": "bool",
          "name": "",
          "type": "bool"
        }
      ],
      "stateMutability": "view",
      "type": "function"
    },
    {
      "inputs": [
        {
          "internalType": "uint256",
          "name": "",
          "type": "uint256"
        }
      ],
      "name": "prizeMerkleRoots",
      "outputs": [
        {
          "internalType": "bytes32",
          "name": "",
          "type": "bytes32"
        }
      ],
      "stateMutability": "view",
      "type": "function"
    },
    {
      "inputs": [],
      "name": "proxiableUUID",
      "outputs": [
        {
          "internalType": "bytes32",
          "name": "",
          "type": "bytes32"
        }
      ],
      "stateMutability": "view",
      "type": "function"
    },
    {
      "inputs": [
        {
          "internalType": "uint256",
          "name": "",
          "type": "uint256"
        }
      ],
      "name": "randomSeeds",
      "outputs": [
        {
          "internalType": "uint256",
          "name": "",
          "type": "uint256"
        }
      ],
      "stateMutability": "view",
      "type": "function"
    },
    {
      "inputs": [
        {
          "internalType": "uint256",
          "name": "_lotteryId",
          "type": "uint256"
        },
        {
          "internalType": "uint256",
          "name": "_randomNumber",
          "type": "uint256"
        }
      ],
      "name": "receiveRandomNumber",
      "outputs": [],
      "stateMutability": "nonpayable",
      "type": "function"
    },
    {
      "inputs": [
        {
          "internalType": "bytes32",
          "name": "role",
          "type": "bytes32"
        },
        {
          "internalType": "address",
          "name": "account",
          "type": "address"
        }
      ],
      "name": "renounceRole",
      "outputs": [],
      "stateMutability": "nonpayable",
      "type": "function"
    },
    {
      "inputs": [
        {
          "internalType": "uint256",
          "name": "_lotteryId",
          "type": "uint256"
        }
      ],
      "name": "requestRandomNumber",
      "outputs": [],
      "stateMutability": "nonpayable",
      "type": "function"
    },
    {
      "inputs": [
        {
          "internalType": "bytes32",
          "name": "role",
          "type": "bytes32"
        },
        {
          "internalType": "address",
          "name": "account",
          "type": "address"
        }
      ],
      "name": "revokeRole",
      "outputs": [],
      "stateMutability": "nonpayable",
      "type": "function"
    },
    {
      "inputs": [],
      "name": "rewardsContract",
      "outputs": [
        {
          "internalType": "contract IRewards",
          "name": "",
          "type": "address"
        }
      ],
      "stateMutability": "view",
      "type": "function"
    },
    {
      "inputs": [
        {
          "internalType": "uint256",
          "name": "_lotteryId",
          "type": "uint256"
        },
        {
          "internalType": "uint32",
          "name": "_maxTickets",
          "type": "uint32"
        }
      ],
      "name": "setMaxTickets",
      "outputs": [],
      "stateMutability": "nonpayable",
      "type": "function"
    },
    {
      "inputs": [
        {
          "internalType": "uint256",
          "name": "_lotteryId",
          "type": "uint256"
        },
        {
          "internalType": "uint32",
          "name": "_maxTicketsPerUser",
          "type": "uint32"
        }
      ],
      "name": "setMaxTicketsPerUser",
      "outputs": [],
      "stateMutability": "nonpayable",
      "type": "function"
    },
    {
      "inputs": [
        {
          "internalType": "uint256",
          "name": "_lotteryId",
          "type": "uint256"
        },
        {
          "internalType": "bytes32",
          "name": "_root",
          "type": "bytes32"
        }
      ],
      "name": "setPrizeMerkleRoot",
      "outputs": [],
      "stateMutability": "nonpayable",
      "type": "function"
    },
    {
      "inputs": [
        {
          "internalType": "address",
          "name": "_IRandomNumberGenerator",
          "type": "address"
        }
      ],
      "name": "setRandomGenerator",
      "outputs": [],
      "stateMutability": "nonpayable",
      "type": "function"
    },
    {
      "inputs": [
        {
          "internalType": "address",
          "name": "_rewardsContract",
          "type": "address"
        }
      ],
      "name": "setRewardsContract",
      "outputs": [],
      "stateMutability": "nonpayable",
      "type": "function"
    },
    {
      "inputs": [
        {
          "internalType": "address",
          "name": "_signer",
          "type": "address"
        }
      ],
      "name": "setSignerAddress",
      "outputs": [],
      "stateMutability": "nonpayable",
      "type": "function"
    },
    {
      "inputs": [
        {
          "internalType": "address",
          "name": "_token",
          "type": "address"
        }
      ],
      "name": "setToken",
      "outputs": [],
      "stateMutability": "nonpayable",
      "type": "function"
    },
    {
      "inputs": [
        {
          "internalType": "uint256",
          "name": "_lotteryId",
          "type": "uint256"
        },
        {
          "internalType": "address",
          "name": "_whitelist",
          "type": "address"
        }
      ],
      "name": "setWhitelist",
      "outputs": [],
      "stateMutability": "nonpayable",
      "type": "function"
    },
    {
      "inputs": [
        {
          "internalType": "bytes4",
          "name": "interfaceId",
          "type": "bytes4"
        }
      ],
      "name": "supportsInterface",
      "outputs": [
        {
          "internalType": "bool",
          "name": "",
          "type": "bool"
        }
      ],
      "stateMutability": "view",
      "type": "function"
    },
    {
      "inputs": [],
      "name": "token",
      "outputs": [
        {
          "internalType": "contract IERC20",
          "name": "",
          "type": "address"
        }
      ],
      "stateMutability": "view",
      "type": "function"
    },
    {
      "inputs": [],
      "name": "unpause",
      "outputs": [],
      "stateMutability": "nonpayable",
      "type": "function"
    },
    {
      "inputs": [
        {
          "internalType": "uint256",
          "name": "lotteryId",
          "type": "uint256"
        },
        {
          "internalType": "uint256",
          "name": "_ticketCostPoints",
          "type": "uint256"
        },
        {
          "internalType": "uint256",
          "name": "_ticketCostTokens",
          "type": "uint256"
        },
        {
          "internalType": "uint32",
          "name": "_startTime",
          "type": "uint32"
        },
        {
          "internalType": "uint32",
          "name": "_closeTime",
          "type": "uint32"
        },
        {
          "internalType": "contract INFT",
          "name": "_nftContract",
          "type": "address"
        },
        {
          "internalType": "uint16",
          "name": "_maxTickets",
          "type": "uint16"
        },
        {
          "internalType": "enum Lottery.Status",
          "name": "_status",
          "type": "uint8"
        },
        {
          "internalType": "uint128",
          "name": "_firstPrizeId",
          "type": "uint128"
        },
        {
          "internalType": "uint128",
          "name": "_lastPrizeId",
          "type": "uint128"
        }
      ],
      "name": "updateLottery",
      "outputs": [],
      "stateMutability": "nonpayable",
      "type": "function"
    },
    {
      "inputs": [
        {
          "internalType": "address",
          "name": "newImplementation",
          "type": "address"
        }
      ],
      "name": "upgradeTo",
      "outputs": [],
      "stateMutability": "nonpayable",
      "type": "function"
    },
    {
      "inputs": [
        {
          "internalType": "address",
          "name": "newImplementation",
          "type": "address"
        },
        {
          "internalType": "bytes",
          "name": "data",
          "type": "bytes"
        }
      ],
      "name": "upgradeToAndCall",
      "outputs": [],
      "stateMutability": "payable",
      "type": "function"
    },
    {
      "inputs": [
        {
          "internalType": "uint256",
          "name": "",
          "type": "uint256"
        }
      ],
      "name": "whitelists",
      "outputs": [
        {
          "internalType": "address",
          "name": "",
          "type": "address"
        }
      ],
      "stateMutability": "view",
      "type": "function"
    },
    {
      "inputs": [
        {
          "internalType": "address",
          "name": "_to",
          "type": "address"
        },
        {
          "internalType": "uint256",
          "name": "_amount",
          "type": "uint256"
        }
      ],
      "name": "withdraw",
      "outputs": [],
      "stateMutability": "nonpayable",
      "type": "function"
    }
  ],
  "bytecode": "0x60a06040523060805234801561001457600080fd5b506080516148a461004c60003960008181610eb801528181610ef801528181611378015281816113b801526114ea01526148a46000f3fe6080604052600436106102ae5760003560e01c80637350ab2c11610175578063d098a2f0116100dc578063eb1ea52111610095578063f8c8765e1161006f578063f8c8765e14610974578063f90328d514610994578063fc0c546a146109d0578063fe4d5add146109f157600080fd5b8063eb1ea521146108e4578063f3fef3a314610904578063f5f489981461092457600080fd5b8063d098a2f0146107fa578063d225428f14610828578063d547741f14610848578063d89da28614610868578063db2c0fd114610888578063dfa0dfa5146108c457600080fd5b806396db752a1161012e57806396db752a146107065780639b7fecc31461073d578063a217fddf1461076a578063b1eb96c91461077f578063bf4002b21461079f578063c11ab615146107bf57600080fd5b80637350ab2c1461064457806376b3c8a8146106645780638456cb59146106915780638627df46146106a657806391d14854146106c657806394b35204146106e657600080fd5b80633659cfe6116102195780634bc19fee116101d25780634bc19fee146105a45780634f1ef286146105c457806350612da6146105d757806352d1902d146105f75780635c975abb1461060c5780636a6be3151461062457600080fd5b80633659cfe6146104c75780633f4ba83a146104e757806340cf23d9146104fc5780634538f2971461054457806349c0de88146105645780634a0044671461058457600080fd5b8063220cce971161026b578063220cce97146103da5780632368040014610413578063248a9ca3146104415780632f2ff15d146104715780632f9aa1fe1461049157806336568abe146104a757600080fd5b806301ffc9a7146102b357806302e060c6146102e8578063046dc1661461034a5780630b9f1c021461036c5780631398e0761461038c578063144fa6d7146103ba575b600080fd5b3480156102bf57600080fd5b506102d36102ce366004613c9b565b610a28565b60405190151581526020015b60405180910390f35b3480156102f457600080fd5b50610330610303366004613cda565b61013860209081526000928352604080842090915290825290205461ffff81169062010000900460ff1682565b6040805161ffff90931683529015156020830152016102df565b34801561035657600080fd5b5061036a610365366004613d0a565b610a5f565b005b34801561037857600080fd5b5061036a610387366004613d64565b610b1b565b34801561039857600080fd5b506103ac6103a7366004613e11565b610d31565b6040519081526020016102df565b3480156103c657600080fd5b5061036a6103d5366004613d0a565b610d53565b3480156103e657600080fd5b50610132546103fb906001600160a01b031681565b6040516001600160a01b0390911681526020016102df565b34801561041f57600080fd5b506103ac61042e366004613e11565b6101396020526000908152604090205481565b34801561044d57600080fd5b506103ac61045c366004613e11565b60009081526065602052604090206001015490565b34801561047d57600080fd5b5061036a61048c366004613cda565b610e06565b34801561049d57600080fd5b50610133546103ac565b3480156104b357600080fd5b5061036a6104c2366004613cda565b610e30565b3480156104d357600080fd5b5061036a6104e2366004613d0a565b610eae565b3480156104f357600080fd5b5061036a610f8d565b34801561050857600080fd5b506103ac610517366004613cda565b6000918252610138602090815260408084206001600160a01b0393909316845291905290205461ffff1690565b34801561055057600080fd5b5061036a61055f366004613e11565b611027565b34801561057057600080fd5b506103fb61057f366004613e2a565b611168565b34801561059057600080fd5b5061036a61059f366004613e4c565b6111a1565b3480156105b057600080fd5b5061036a6105bf366004613d0a565b611265565b61036a6105d2366004613e8e565b61136e565b3480156105e357600080fd5b5061036a6105f2366004613e2a565b61143a565b34801561060357600080fd5b506103ac6114dd565b34801561061857600080fd5b5060fb5460ff166102d3565b34801561063057600080fd5b5061036a61063f366004613e4c565b611590565b34801561065057600080fd5b5061036a61065f366004613f94565b6116cb565b34801561067057600080fd5b5061068461067f366004613e11565b6118c6565b6040516102df919061402d565b34801561069d57600080fd5b5061036a611a34565b3480156106b257600080fd5b5061036a6106c1366004613e2a565b611acc565b3480156106d257600080fd5b506102d36106e1366004613cda565b611ff1565b3480156106f257600080fd5b5061036a610701366004614138565b61201c565b34801561071257600080fd5b506103fb610721366004613e11565b600090815261013560205260409020546001600160a01b031690565b34801561074957600080fd5b5061075d6107583660046141b0565b612382565b6040516102df91906141dc565b34801561077657600080fd5b506103ac600081565b34801561078b57600080fd5b5061036a61079a366004613e11565b61246e565b3480156107ab57600080fd5b5061036a6107ba366004613e4c565b6126f4565b3480156107cb57600080fd5b506103ac6107da366004613e11565b60009081526101346020526040902054600160a01b900463ffffffff1690565b34801561080657600080fd5b506103ac610815366004613e11565b6101366020526000908152604090205481565b34801561083457600080fd5b5061036a610843366004614229565b6127b8565b34801561085457600080fd5b5061036a610863366004613cda565b612a27565b34801561087457600080fd5b5061036a610883366004613cda565b612a4c565b34801561089457600080fd5b506102d36108a3366004613e2a565b60009182526101376020908152604080842092845291905290205460ff1690565b3480156108d057600080fd5b5061036a6108df366004613d0a565b612b0b565b3480156108f057600080fd5b5061036a6108ff366004613e2a565b612bbe565b34801561091057600080fd5b5061036a61091f3660046142ef565b612cde565b34801561093057600080fd5b5061095f61093f366004613e11565b60009081526101346020526040902054600160401b900463ffffffff1690565b60405163ffffffff90911681526020016102df565b34801561098057600080fd5b5061036a61098f36600461431b565b612de6565b3480156109a057600080fd5b506102d36109af366004613e2a565b61013760209081526000928352604080842090915290825290205460ff1681565b3480156109dc57600080fd5b50610130546103fb906001600160a01b031681565b3480156109fd57600080fd5b506103fb610a0c366004613e11565b610135602052600090815260409020546001600160a01b031681565b60006001600160e01b03198216637965db0b60e01b1480610a5957506301ffc9a760e01b6001600160e01b03198316145b92915050565b61012d54604051632474521560e21b8152600060048201523360248201526001600160a01b03909116906391d1485490604401602060405180830381865afa158015610aaf573d6000803e3d6000fd5b505050506040513d601f19601f82011682018060405250810190610ad39190614377565b610af85760405162461bcd60e51b8152600401610aef90614399565b60405180910390fd5b61012f80546001600160a01b0319166001600160a01b0392909216919091179055565b61012d54604051632474521560e21b8152600060048201523360248201526001600160a01b03909116906391d1485490604401602060405180830381865afa158015610b6b573d6000803e3d6000fd5b505050506040513d601f19601f82011682018060405250810190610b8f9190614377565b610bab5760405162461bcd60e51b8152600401610aef90614399565b868660008263ffffffff1611610bf85760405162461bcd60e51b8152602060048201526012602482015271496e76616c69642073746172742074696d6560701b6044820152606401610aef565b8163ffffffff168163ffffffff1611610c235760405162461bcd60e51b8152600401610aef906143c3565b60008c8152610134602052604090208054600482018d9055600582018c90556001820180546001600160a01b038b166001600160a01b0319909116179055600160601b61ffff89160263ffffffff60601b1963ffffffff8c81166401000000000267ffffffffffffffff19909416908e161792909217918216811783558791839160ff60c01b19166cff0000000000000000ffffffff60601b1990911617600160c01b836003811115610cd857610cd8613ff5565b02179055506001600160801b03848116600160801b02908616176002820155856003811115610d0957610d09613ff5565b6040518e9060008051602061480883398151915290600090a350505050505050505050505050565b6101338181548110610d4257600080fd5b600091825260209091200154905081565b61012d54604051632474521560e21b8152600060048201523360248201526001600160a01b03909116906391d1485490604401602060405180830381865afa158015610da3573d6000803e3d6000fd5b505050506040513d601f19601f82011682018060405250810190610dc79190614377565b610de35760405162461bcd60e51b8152600401610aef90614399565b61013080546001600160a01b0319166001600160a01b0392909216919091179055565b600082815260656020526040902060010154610e2181612ebd565b610e2b8383612ec7565b505050565b6001600160a01b0381163314610ea05760405162461bcd60e51b815260206004820152602f60248201527f416363657373436f6e74726f6c3a2063616e206f6e6c792072656e6f756e636560448201526e103937b632b9903337b91039b2b63360891b6064820152608401610aef565b610eaa8282612f4d565b5050565b6001600160a01b037f0000000000000000000000000000000000000000000000000000000000000000163003610ef65760405162461bcd60e51b8152600401610aef90614406565b7f00000000000000000000000000000000000000000000000000000000000000006001600160a01b0316610f3f600080516020614828833981519152546001600160a01b031690565b6001600160a01b031614610f655760405162461bcd60e51b8152600401610aef90614452565b610f6e81612fb4565b60408051600080825260208201909252610f8a91839190613044565b50565b61012d54604051632474521560e21b8152600060048201523360248201526001600160a01b03909116906391d1485490604401602060405180830381865afa158015610fdd573d6000803e3d6000fd5b505050506040513d601f19601f820116820180604052508101906110019190614377565b61101d5760405162461bcd60e51b8152600401610aef90614399565b6110256131af565b565b61012d54604051632474521560e21b8152600060048201523360248201526001600160a01b03909116906391d1485490604401602060405180830381865afa158015611077573d6000803e3d6000fd5b505050506040513d601f19601f8201168201806040525081019061109b9190614377565b6110b75760405162461bcd60e51b8152600401610aef90614399565b6000818152610134602052604090208054600160401b900463ffffffff16156111225760405162461bcd60e51b815260206004820152601760248201527f4c6f747465727920616c726561647920737461727465640000000000000000006044820152606401610aef565b805460ff60c01b1916600160c01b9081178083550460ff16600381111561114b5761114b613ff5565b604051839060008051602061480883398151915290600090a35050565b61013a602052816000526040600020818154811061118557600080fd5b6000918252602090912001546001600160a01b03169150829050565b61012d54604051632474521560e21b8152600060048201523360248201526001600160a01b03909116906391d1485490604401602060405180830381865afa1580156111f1573d6000803e3d6000fd5b505050506040513d601f19601f820116820180604052508101906112159190614377565b6112315760405162461bcd60e51b8152600401610aef90614399565b60009182526101346020526040909120805463ffffffff909216600160801b0263ffffffff60801b19909216919091179055565b61012d54604051632474521560e21b8152600060048201523360248201526001600160a01b03909116906391d1485490604401602060405180830381865afa1580156112b5573d6000803e3d6000fd5b505050506040513d601f19601f820116820180604052508101906112d99190614377565b6112f55760405162461bcd60e51b8152600401610aef90614399565b6001600160a01b03811661134b5760405162461bcd60e51b815260206004820152601d60248201527f436f6e7472616374732063616e6e6f74206265203020616464726573730000006044820152606401610aef565b61013180546001600160a01b0319166001600160a01b0392909216919091179055565b6001600160a01b037f00000000000000000000000000000000000000000000000000000000000000001630036113b65760405162461bcd60e51b8152600401610aef90614406565b7f00000000000000000000000000000000000000000000000000000000000000006001600160a01b03166113ff600080516020614828833981519152546001600160a01b031690565b6001600160a01b0316146114255760405162461bcd60e51b8152600401610aef90614452565b61142e82612fb4565b610eaa82826001613044565b61012d54604051632474521560e21b8152600060048201523360248201526001600160a01b03909116906391d1485490604401602060405180830381865afa15801561148a573d6000803e3d6000fd5b505050506040513d601f19601f820116820180604052508101906114ae9190614377565b6114ca5760405162461bcd60e51b8152600401610aef90614399565b6000918252610136602052604090912055565b6000306001600160a01b037f0000000000000000000000000000000000000000000000000000000000000000161461157d5760405162461bcd60e51b815260206004820152603860248201527f555550535570677261646561626c653a206d757374206e6f742062652063616c60448201527f6c6564207468726f7567682064656c656761746563616c6c00000000000000006064820152608401610aef565b5060008051602061482883398151915290565b61012d54604051632474521560e21b8152600060048201523360248201526001600160a01b03909116906391d1485490604401602060405180830381865afa1580156115e0573d6000803e3d6000fd5b505050506040513d601f19601f820116820180604052508101906116049190614377565b6116205760405162461bcd60e51b8152600401610aef90614399565b600082815261013460205260409020805463ffffffff1661167a5760405162461bcd60e51b8152602060048201526014602482015273131bdd1d195c9e481a59081b9bdd08199bdd5b9960621b6044820152606401610aef565b805463ffffffff908116908316116116a45760405162461bcd60e51b8152600401610aef906143c3565b805463ffffffff9092166401000000000267ffffffff000000001990921691909117905550565b604080513360208083018290528284018990528351808403850181526060840185528051908201207f19457468657265756d205369676e6564204d6573736167653a0a3332000000006080850152609c808501919091528451808503909101815260bc840180865281519183019190912061012f5460dc601f890185900490940286018401909652868252929492936001600160a01b039093169261178c928592918991899182910183828082843760009201919091525061324292505050565b6001600160a01b0316146117d65760405162461bcd60e51b8152602060048201526011602482015270496e76616c6964207369676e617475726560781b6044820152606401610aef565b6101325460405163f662781d60e01b81526001600160a01b0384811660048301528992169063f662781d90602401602060405180830381865afa158015611821573d6000803e3d6000fd5b505050506040513d601f19601f82011682018060405250810190611845919061449e565b10156118b35761013254604051630259ab7760e61b81526001600160a01b038481166004830152602482018a90529091169063966addc090604401600060405180830381600087803b15801561189a57600080fd5b505af11580156118ae573d6000803e3d6000fd5b505050505b6118bd8686611acc565b50505050505050565b604080516101a081018252600080825260208201819052918101829052606081018290526080810182905260a0810182905260c0810182905260e0810182905261010081018290526101208101829052610140810182905261016081018290526101808101919091526000828152610134602090815260409182902082516101a081018452815463ffffffff80821683526401000000008204811694830194909452600160401b8104841694820194909452600160601b840483166060820152600160801b840483166080820152600160a01b840490921660a0830152909160c0830190600160c01b900460ff1660038111156119c5576119c5613ff5565b60038111156119d6576119d6613ff5565b815260018201546001600160a01b0316602082015260028201546001600160801b038082166040840152600160801b90910416606082015260038201546080820152600482015460a082015260059091015460c09091015292915050565b61012d54604051632474521560e21b8152600060048201523360248201526001600160a01b03909116906391d1485490604401602060405180830381865afa158015611a84573d6000803e3d6000fd5b505050506040513d601f19601f82011682018060405250810190611aa89190614377565b611ac45760405162461bcd60e51b8152600401610aef90614399565b611025613266565b60fb5460ff1615611aef5760405162461bcd60e51b8152600401610aef906144b7565b6000828152610135602052604090205482906001600160a01b031615611bce5760008181526101356020526040908190205490516320c18e6b60e21b8152336004820152602481018390526001600160a01b039091169063830639ac90604401602060405180830381865afa158015611b6c573d6000803e3d6000fd5b505050506040513d601f19601f82011682018060405250810190611b909190614377565b611bce5760405162461bcd60e51b815260206004820152600f60248201526e139bdd081dda1a5d195b1a5cdd1959608a1b6044820152606401610aef565b600083815261013460205260408120805490919081908190600160601b900463ffffffff1615611c5d57835463ffffffff600160601b8204811691611c1c918991600160a01b9004166144f7565b1115611c5d5760405162461bcd60e51b815260206004820152601060248201526f151a58dad95d1cc81cdbdb19081bdd5d60821b6044820152606401610aef565b60008781526101386020908152604080832033845290915290208054855461ffff90911690600160801b900463ffffffff1615611cfb578554600160801b900463ffffffff16611cad89836144f7565b1115611cfb5760405162461bcd60e51b815260206004820181905260248201527f43616e277420627579207468697320616d6f756e74206f66207469636b6574736044820152606401610aef565b85544263ffffffff90911611801590611d23575085544264010000000090910463ffffffff16115b8015611d4c575060018654600160c01b900460ff166003811115611d4957611d49613ff5565b14155b611d8e5760405162461bcd60e51b81526020600482015260136024820152722637ba3a32b93c9034b9903737ba1037b832b760691b6044820152606401610aef565b6004860154611d9d908961450f565b93508315611db157611daf33856132be565b505b6005860154865490935088908790601490611dda908490600160a01b900463ffffffff1661452e565b92506101000a81548163ffffffff021916908363ffffffff1602179055506000831115611e9157611e0b838961450f565b6101305460018801546040516323b872dd60e01b81523360048201526001600160a01b0391821660248201526044810184905292975016906323b872dd906064016020604051808303816000875af1158015611e6b573d6000803e3d6000fd5b505050506040513d601f19601f82011682018060405250810190611e8f9190614377565b505b80600003611f235785548690600890611eb690600160401b900463ffffffff16614556565b825463ffffffff9182166101009390930a928302919092021990911617905560008981526101386020908152604080832033845290915290208254815461ffff19811661ffff9092169182178355845460ff62010000918290041615150262ffffff199091169091171790555b815488908390600090611f3b90849061ffff16614579565b825461ffff9182166101009390930a928302919092021990911617905550600089815261013a60205260408120905b89811015611fe45781546001810183556000838152602090200180546001600160a01b0319163390811790915582546040518d917fc41bbb54d04f2268c7895b9330f18468c306a3f92698a92c4c86b2978739784891611fcc91815260200190565b60405180910390a3611fdd81614596565b9050611f6a565b5050505050505050505050565b60009182526065602090815260408084206001600160a01b0393909316845291905290205460ff1690565b61012d54604051632474521560e21b8152600060048201523360248201526001600160a01b03909116906391d1485490604401602060405180830381865afa15801561206c573d6000803e3d6000fd5b505050506040513d601f19601f820116820180604052508101906120909190614377565b6120ac5760405162461bcd60e51b8152600401610aef90614399565b868660008263ffffffff16116120f95760405162461bcd60e51b8152602060048201526012602482015271496e76616c69642073746172742074696d6560701b6044820152606401610aef565b8163ffffffff168163ffffffff16116121245760405162461bcd60e51b8152600401610aef906143c3565b610133805460018101825560009182527f92e985329fb94cc1b424ebb0f7f2929b6d27383ca94c0ec71c44fb48bdf96d2c018d9055604080516101a08101825263ffffffff808d1682528b16602082015290810182905261ffff80891660608301528716608082015260a0810182905260c08101828152602001896001600160a01b03168152602001866001600160801b03168152602001856001600160801b031681526020018e81526020018d81526020018c81525090508061013460008f815260200190815260200160002060008201518160000160006101000a81548163ffffffff021916908363ffffffff16021790555060208201518160000160046101000a81548163ffffffff021916908363ffffffff16021790555060408201518160000160086101000a81548163ffffffff021916908363ffffffff160217905550606082015181600001600c6101000a81548163ffffffff021916908363ffffffff16021790555060808201518160000160106101000a81548163ffffffff021916908363ffffffff16021790555060a08201518160000160146101000a81548163ffffffff021916908363ffffffff16021790555060c08201518160000160186101000a81548160ff0219169083600381111561230657612306613ff5565b021790555060e08201516001820180546001600160a01b039092166001600160a01b03199092169190911790556101008201516101208301516001600160801b03908116600160801b02911617600282015561014082015160038201556101608201516004820155610180909101516005909101556000610d09565b6060600061239084846145af565b61239b9060016144f7565b67ffffffffffffffff8111156123b3576123b3613e78565b6040519080825280602002602001820160405280156123dc578160200160208202803683370190505b509050835b83811161246357600086815261013a60205260409020805482908110612409576124096145c6565b9060005260206000200160009054906101000a90046001600160a01b0316828281518110612439576124396145c6565b6001600160a01b03909216602092830291909101909101528061245b81614596565b9150506123e1565b5090505b9392505050565b61012d54604051632474521560e21b8152600060048201523360248201526001600160a01b03909116906391d1485490604401602060405180830381865afa1580156124be573d6000803e3d6000fd5b505050506040513d601f19601f820116820180604052508101906124e29190614377565b6124fe5760405162461bcd60e51b8152600401610aef90614399565b600081815261013460205260409020805463ffffffff166125565760405162461bcd60e51b8152602060048201526012602482015271125b9d985b1a59081b1bdd1d195c9e481a5960721b6044820152606401610aef565b80544264010000000090910463ffffffff16106125ad5760405162461bcd60e51b8152602060048201526015602482015274131bdd1d195c9e481a5cc81b9bdd0818db1bdcd959605a1b6044820152606401610aef565b60008154600160c01b900460ff1660038111156125cc576125cc613ff5565b0361261857805460ff60c01b1916600160c11b17808255600160c01b900460ff1660038111156125fe576125fe613ff5565b604051839060008051602061480883398151915290600090a35b60028154600160c01b900460ff16600381111561263757612637613ff5565b146126845760405162461bcd60e51b815260206004820152601760248201527f4c6f7474657279206d75737420626520636c6f736564210000000000000000006044820152606401610aef565b61013154604051632cdc85e960e21b8152600481018490526001600160a01b039091169063b37217a4906024016020604051808303816000875af11580156126d0573d6000803e3d6000fd5b505050506040513d601f19601f82011682018060405250810190610e2b919061449e565b61012d54604051632474521560e21b8152600060048201523360248201526001600160a01b03909116906391d1485490604401602060405180830381865afa158015612744573d6000803e3d6000fd5b505050506040513d601f19601f820116820180604052508101906127689190614377565b6127845760405162461bcd60e51b8152600401610aef90614399565b60009182526101346020526040909120805463ffffffff909216600160601b0263ffffffff60601b19909216919091179055565b60fb5460ff16156127db5760405162461bcd60e51b8152600401610aef906144b7565b60008781526101376020908152604080832088845290915290205460ff16156128505760405162461bcd60e51b815260206004820152602160248201527f5061727469636970616e7420616c726561647920636c61696d6564207072697a6044820152606560f81b6064820152608401610aef565b6128e361289588888888888080601f01602080910402602001604051908101604052809392919081815260200183838082843760009201919091525061333792505050565b61013660008a81526020019081526020016000205484848080602002602001604051908101604052809392919081815260200183836020028082843760009201919091525061337092505050565b6129265760405162461bcd60e51b815260206004820152601460248201527324b73b30b634b21036b2b935b63290383937b7b360611b6044820152606401610aef565b6000878152610138602090815260408083206001600160a01b03808b168552908352818420805462ff00001916620100001790558a8452610134835281842060019081015461013785528386208b875290945293829020805460ff191690941790935551633349e71f60e21b8152911690819063cd279c7c906129b3908a908a908a908a906004016145dc565b600060405180830381600087803b1580156129cd57600080fd5b505af11580156129e1573d6000803e3d6000fd5b5050505085876001600160a01b0316897f4aa95f981a8337cb337de335b965507da0879c3b49f799d20058e913f5ad2c2660405160405180910390a45050505050505050565b600082815260656020526040902060010154612a4281612ebd565b610e2b8383612f4d565b61012d54604051632474521560e21b8152600060048201523360248201526001600160a01b03909116906391d1485490604401602060405180830381865afa158015612a9c573d6000803e3d6000fd5b505050506040513d601f19601f82011682018060405250810190612ac09190614377565b612adc5760405162461bcd60e51b8152600401610aef90614399565b6000918252610135602052604090912080546001600160a01b0319166001600160a01b03909216919091179055565b61012d54604051632474521560e21b8152600060048201523360248201526001600160a01b03909116906391d1485490604401602060405180830381865afa158015612b5b573d6000803e3d6000fd5b505050506040513d601f19601f82011682018060405250810190612b7f9190614377565b612b9b5760405162461bcd60e51b8152600401610aef90614399565b61013280546001600160a01b0319166001600160a01b0392909216919091179055565b610131546001600160a01b03163314612c0c5760405162461bcd60e51b815260206004820152601060248201526f4f6e6c7920524e47206164647265737360801b6044820152606401610aef565b60008281526101346020526040902060028154600160c01b900460ff166003811115612c3a57612c3a613ff5565b14612c805760405162461bcd60e51b8152602060048201526016602482015275131bdd1d195c9e481b5d5cdd0818994818db1bdcd95960521b6044820152606401610aef565b805460ff60c01b1916600360c01b1781556000838152610139602052604090208290558054600160c01b900460ff166003811115612cc057612cc0613ff5565b604051849060008051602061480883398151915290600090a3505050565b61012d54604051632474521560e21b8152600060048201523360248201526001600160a01b03909116906391d1485490604401602060405180830381865afa158015612d2e573d6000803e3d6000fd5b505050506040513d601f19601f82011682018060405250810190612d529190614377565b612d6e5760405162461bcd60e51b8152600401610aef90614399565b6101305460405163a9059cbb60e01b81526001600160a01b038481166004830152602482018490529091169063a9059cbb906044016020604051808303816000875af1158015612dc2573d6000803e3d6000fd5b505050506040513d601f19601f82011682018060405250810190610e2b9190614377565b6000612df26001613385565b90508015612e0a576000805461ff0019166101001790555b612e12613412565b612e1a613439565b612e22613412565b61013080546001600160a01b038086166001600160a01b03199283161790925561012f8054878416908316179055610132805488841690831617905561012d8054928516929091169190911790558015612eb6576000805461ff0019169055604051600181527f7f26b83ff96e1f2b6a682f133852f6798a09c465da95921460cefb38474024989060200160405180910390a15b5050505050565b610f8a8133613468565b612ed18282611ff1565b610eaa5760008281526065602090815260408083206001600160a01b03851684529091529020805460ff19166001179055612f093390565b6001600160a01b0316816001600160a01b0316837f2f8788117e7eff1d82e926ec794901d17c78024a50270940304540a733656f0d60405160405180910390a45050565b612f578282611ff1565b15610eaa5760008281526065602090815260408083206001600160a01b0385168085529252808320805460ff1916905551339285917ff6391f5c32d9c69d2a47ea670b442974b53935d1edc7fd64eb21e047a839171b9190a45050565b61012d54604051632474521560e21b8152600060048201523360248201526001600160a01b03909116906391d1485490604401602060405180830381865afa158015613004573d6000803e3d6000fd5b505050506040513d601f19601f820116820180604052508101906130289190614377565b610f8a5760405162461bcd60e51b8152600401610aef90614399565b7f4910fdfa16fed3260ed0e7147f7cc6da11a60208b5b9406d12a635614ffd91435460ff161561307757610e2b836134cc565b826001600160a01b03166352d1902d6040518163ffffffff1660e01b8152600401602060405180830381865afa9250505080156130d1575060408051601f3d908101601f191682019092526130ce9181019061449e565b60015b6131345760405162461bcd60e51b815260206004820152602e60248201527f45524331393637557067726164653a206e657720696d706c656d656e7461746960448201526d6f6e206973206e6f74205555505360901b6064820152608401610aef565b60008051602061482883398151915281146131a35760405162461bcd60e51b815260206004820152602960248201527f45524331393637557067726164653a20756e737570706f727465642070726f786044820152681a58589b195555525160ba1b6064820152608401610aef565b50610e2b838383613568565b60fb5460ff166131f85760405162461bcd60e51b815260206004820152601460248201527314185d5cd8589b194e881b9bdd081c185d5cd95960621b6044820152606401610aef565b60fb805460ff191690557f5db9ee0a495bf2e6ff9c91a7834c1ba4fdd244a5e8aa4e537bd38aeae4b073aa335b6040516001600160a01b03909116815260200160405180910390a1565b60008060006132518585613593565b9150915061325e81613601565b509392505050565b60fb5460ff16156132895760405162461bcd60e51b8152600401610aef906144b7565b60fb805460ff191660011790557f62e78cea01bee320cd4e420270b5ea74000d11b0c9f74754ebdbfc544b05a2586132253390565b61013254604051631e961d2760e01b81526001600160a01b038481166004830152602482018490526000921690631e961d27906044016020604051808303816000875af1158015613313573d6000803e3d6000fd5b505050506040513d601f19601f82011682018060405250810190612467919061449e565b600084848484604051602001613350949392919061467c565b604051602081830303815290604052805190602001209050949350505050565b600061337d8284866137b7565b949350505050565b60008054610100900460ff16156133cc578160ff1660011480156133a85750303b155b6133c45760405162461bcd60e51b8152600401610aef906146b3565b506000919050565b60005460ff8084169116106133f35760405162461bcd60e51b8152600401610aef906146b3565b506000805460ff191660ff92909216919091179055600190565b919050565b600054610100900460ff166110255760405162461bcd60e51b8152600401610aef90614701565b600054610100900460ff166134605760405162461bcd60e51b8152600401610aef90614701565b6110256137cd565b6134728282611ff1565b610eaa5761348a816001600160a01b03166014613800565b613495836020613800565b6040516020016134a692919061474c565b60408051601f198184030181529082905262461bcd60e51b8252610aef916004016147c1565b6001600160a01b0381163b6135395760405162461bcd60e51b815260206004820152602d60248201527f455243313936373a206e657720696d706c656d656e746174696f6e206973206e60448201526c1bdd08184818dbdb9d1c9858dd609a1b6064820152608401610aef565b60008051602061482883398151915280546001600160a01b0319166001600160a01b0392909216919091179055565b6135718361399c565b60008251118061357e5750805b15610e2b5761358d83836139dc565b50505050565b60008082516041036135c95760208301516040840151606085015160001a6135bd87828585613ad0565b945094505050506135fa565b82516040036135f257602083015160408401516135e7868383613bbd565b9350935050506135fa565b506000905060025b9250929050565b600081600481111561361557613615613ff5565b0361361d5750565b600181600481111561363157613631613ff5565b0361367e5760405162461bcd60e51b815260206004820152601860248201527f45434453413a20696e76616c6964207369676e617475726500000000000000006044820152606401610aef565b600281600481111561369257613692613ff5565b036136df5760405162461bcd60e51b815260206004820152601f60248201527f45434453413a20696e76616c6964207369676e6174757265206c656e677468006044820152606401610aef565b60038160048111156136f3576136f3613ff5565b0361374b5760405162461bcd60e51b815260206004820152602260248201527f45434453413a20696e76616c6964207369676e6174757265202773272076616c604482015261756560f01b6064820152608401610aef565b600481600481111561375f5761375f613ff5565b03610f8a5760405162461bcd60e51b815260206004820152602260248201527f45434453413a20696e76616c6964207369676e6174757265202776272076616c604482015261756560f01b6064820152608401610aef565b6000826137c48584613bf6565b14949350505050565b600054610100900460ff166137f45760405162461bcd60e51b8152600401610aef90614701565b60fb805460ff19169055565b6060600061380f83600261450f565b61381a9060026144f7565b67ffffffffffffffff81111561383257613832613e78565b6040519080825280601f01601f19166020018201604052801561385c576020820181803683370190505b509050600360fc1b81600081518110613877576138776145c6565b60200101906001600160f81b031916908160001a905350600f60fb1b816001815181106138a6576138a66145c6565b60200101906001600160f81b031916908160001a90535060006138ca84600261450f565b6138d59060016144f7565b90505b600181111561394d576f181899199a1a9b1b9c1cb0b131b232b360811b85600f1660108110613909576139096145c6565b1a60f81b82828151811061391f5761391f6145c6565b60200101906001600160f81b031916908160001a90535060049490941c93613946816147d4565b90506138d8565b5083156124675760405162461bcd60e51b815260206004820181905260248201527f537472696e67733a20686578206c656e67746820696e73756666696369656e746044820152606401610aef565b6139a5816134cc565b6040516001600160a01b038216907fbc7cd75a20ee27fd9adebab32041f755214dbc6bffa90cc0225b39da2e5c2d3b90600090a250565b60606001600160a01b0383163b613a445760405162461bcd60e51b815260206004820152602660248201527f416464726573733a2064656c65676174652063616c6c20746f206e6f6e2d636f6044820152651b9d1c9858dd60d21b6064820152608401610aef565b600080846001600160a01b031684604051613a5f91906147eb565b600060405180830381855af49150503d8060008114613a9a576040519150601f19603f3d011682016040523d82523d6000602084013e613a9f565b606091505b5091509150613ac7828260405180606001604052806027815260200161484860279139613c62565b95945050505050565b6000807f7fffffffffffffffffffffffffffffff5d576e7357a4501ddfe92f46681b20a0831115613b075750600090506003613bb4565b8460ff16601b14158015613b1f57508460ff16601c14155b15613b305750600090506004613bb4565b6040805160008082526020820180845289905260ff881692820192909252606081018690526080810185905260019060a0016020604051602081039080840390855afa158015613b84573d6000803e3d6000fd5b5050604051601f1901519150506001600160a01b038116613bad57600060019250925050613bb4565b9150600090505b94509492505050565b6000806001600160ff1b03831681613bda60ff86901c601b6144f7565b9050613be887828885613ad0565b935093505050935093915050565b600081815b845181101561325e576000858281518110613c1857613c186145c6565b60200260200101519050808311613c3e5760008381526020829052604090209250613c4f565b600081815260208490526040902092505b5080613c5a81614596565b915050613bfb565b60608315613c71575081612467565b825115613c815782518084602001fd5b8160405162461bcd60e51b8152600401610aef91906147c1565b600060208284031215613cad57600080fd5b81356001600160e01b03198116811461246757600080fd5b6001600160a01b0381168114610f8a57600080fd5b60008060408385031215613ced57600080fd5b823591506020830135613cff81613cc5565b809150509250929050565b600060208284031215613d1c57600080fd5b813561246781613cc5565b803563ffffffff8116811461340d57600080fd5b803561ffff8116811461340d57600080fd5b80356001600160801b038116811461340d57600080fd5b6000806000806000806000806000806101408b8d031215613d8457600080fd5b8a35995060208b0135985060408b01359750613da260608c01613d27565b9650613db060808c01613d27565b955060a08b0135613dc081613cc5565b9450613dce60c08c01613d3b565b935060e08b013560048110613de257600080fd5b9250613df16101008c01613d4d565b9150613e006101208c01613d4d565b90509295989b9194979a5092959850565b600060208284031215613e2357600080fd5b5035919050565b60008060408385031215613e3d57600080fd5b50508035926020909101359150565b60008060408385031215613e5f57600080fd5b82359150613e6f60208401613d27565b90509250929050565b634e487b7160e01b600052604160045260246000fd5b60008060408385031215613ea157600080fd5b8235613eac81613cc5565b9150602083013567ffffffffffffffff80821115613ec957600080fd5b818501915085601f830112613edd57600080fd5b813581811115613eef57613eef613e78565b604051601f8201601f19908116603f01168101908382118183101715613f1757613f17613e78565b81604052828152886020848701011115613f3057600080fd5b8260208601602083013760006020848301015280955050505050509250929050565b60008083601f840112613f6457600080fd5b50813567ffffffffffffffff811115613f7c57600080fd5b6020830191508360208285010111156135fa57600080fd5b600080600080600060808688031215613fac57600080fd5b853594506020860135935060408601359250606086013567ffffffffffffffff811115613fd857600080fd5b613fe488828901613f52565b969995985093965092949392505050565b634e487b7160e01b600052602160045260246000fd5b6004811061402957634e487b7160e01b600052602160045260246000fd5b9052565b815163ffffffff1681526101a081016020830151614053602084018263ffffffff169052565b50604083015161406b604084018263ffffffff169052565b506060830151614083606084018263ffffffff169052565b50608083015161409b608084018263ffffffff169052565b5060a08301516140b360a084018263ffffffff169052565b5060c08301516140c660c084018261400b565b5060e08301516140e160e08401826001600160a01b03169052565b50610100838101516001600160801b038116848301525050610120838101516001600160801b0381168483015250506101408381015190830152610160808401519083015261018092830151929091019190915290565b6000806000806000806000806000806101408b8d03121561415857600080fd5b8a35995060208b0135985060408b0135975061417660608c01613d27565b965061418460808c01613d27565b955060a08b013561419481613cc5565b94506141a260c08c01613d3b565b9350613de260e08c01613d3b565b6000806000606084860312156141c557600080fd5b505081359360208301359350604090920135919050565b6020808252825182820181905260009190848201906040850190845b8181101561421d5783516001600160a01b0316835292840192918401916001016141f8565b50909695505050505050565b600080600080600080600060a0888a03121561424457600080fd5b87359650602088013561425681613cc5565b955060408801359450606088013567ffffffffffffffff8082111561427a57600080fd5b6142868b838c01613f52565b909650945060808a013591508082111561429f57600080fd5b818a0191508a601f8301126142b357600080fd5b8135818111156142c257600080fd5b8b60208260051b85010111156142d757600080fd5b60208301945080935050505092959891949750929550565b6000806040838503121561430257600080fd5b823561430d81613cc5565b946020939093013593505050565b6000806000806080858703121561433157600080fd5b843561433c81613cc5565b9350602085013561434c81613cc5565b9250604085013561435c81613cc5565b9150606085013561436c81613cc5565b939692955090935050565b60006020828403121561438957600080fd5b8151801515811461246757600080fd5b60208082526010908201526f41646d696e2063616c6c73206f6e6c7960801b604082015260600190565b60208082526023908201527f436c6f73652074696d65206d7573742062652061667465722073746172742074604082015262696d6560e81b606082015260800190565b6020808252602c908201527f46756e6374696f6e206d7573742062652063616c6c6564207468726f7567682060408201526b19195b1959d85d1958d85b1b60a21b606082015260800190565b6020808252602c908201527f46756e6374696f6e206d7573742062652063616c6c6564207468726f7567682060408201526b6163746976652070726f787960a01b606082015260800190565b6000602082840312156144b057600080fd5b5051919050565b60208082526010908201526f14185d5cd8589b194e881c185d5cd95960821b604082015260600190565b634e487b7160e01b600052601160045260246000fd5b6000821982111561450a5761450a6144e1565b500190565b6000816000190483118215151615614529576145296144e1565b500290565b600063ffffffff80831681851680830382111561454d5761454d6144e1565b01949350505050565b600063ffffffff80831681810361456f5761456f6144e1565b6001019392505050565b600061ffff80831681851680830382111561454d5761454d6144e1565b6000600182016145a8576145a86144e1565b5060010190565b6000828210156145c1576145c16144e1565b500390565b634e487b7160e01b600052603260045260246000fd5b6001600160a01b0385168152602081018490526060604082018190528101829052818360808301376000818301608090810191909152601f909201601f191601019392505050565b60005b8381101561463f578181015183820152602001614627565b8381111561358d5750506000910152565b60008151808452614668816020860160208601614624565b601f01601f19169290920160200192915050565b84815260018060a01b03841660208201528260408201526080606082015260006146a96080830184614650565b9695505050505050565b6020808252602e908201527f496e697469616c697a61626c653a20636f6e747261637420697320616c72656160408201526d191e481a5b9a5d1a585b1a5e995960921b606082015260800190565b6020808252602b908201527f496e697469616c697a61626c653a20636f6e7472616374206973206e6f74206960408201526a6e697469616c697a696e6760a81b606082015260800190565b7f416363657373436f6e74726f6c3a206163636f756e7420000000000000000000815260008351614784816017850160208801614624565b7001034b99036b4b9b9b4b733903937b6329607d1b60179184019182015283516147b5816028840160208801614624565b01602801949350505050565b6020815260006124676020830184614650565b6000816147e3576147e36144e1565b506000190190565b600082516147fd818460208701614624565b919091019291505056fea3aca9ae20a0379d4094b84c749cbed6584ab20f0b71af75f63f6615d879c939360894a13ba1a3210667c828492db98dca3e2076cc3735a920a3ca505d382bbc416464726573733a206c6f772d6c6576656c2064656c65676174652063616c6c206661696c6564a2646970667358221220e0b5685450684cd7e2482bc0c620890f9690658c32f39e692130131f2ca5a99164736f6c634300080e0033",
  "linkReferences": {},
  "deployedLinkReferences": {}
}