{
  "_format": "hh-sol-artifact-1",
  "contractName": "Lottery",
  "sourceName": "contracts/Lottery/Lottery.sol",
  "abi": [
    {
      "inputs": [],
      "stateMutability": "nonpayable",
      "type": "constructor"
    },
    {
      "anonymous": false,
      "inputs": [
        {
          "indexed": false,
          "internalType": "address",
          "name": "previousAdmin",
          "type": "address"
        },
        {
          "indexed": false,
          "internalType": "address",
          "name": "newAdmin",
          "type": "address"
        }
      ],
      "name": "AdminChanged",
      "type": "event"
    },
    {
      "anonymous": false,
      "inputs": [
        {
          "indexed": true,
          "internalType": "address",
          "name": "beacon",
          "type": "address"
        }
      ],
      "name": "BeaconUpgraded",
      "type": "event"
    },
    {
      "anonymous": false,
      "inputs": [
        {
          "indexed": false,
          "internalType": "uint8",
          "name": "version",
          "type": "uint8"
        }
      ],
      "name": "Initialized",
      "type": "event"
    },
    {
      "anonymous": false,
      "inputs": [
        {
          "indexed": true,
          "internalType": "uint256",
          "name": "lotteryId",
          "type": "uint256"
        },
        {
          "indexed": true,
          "internalType": "enum Lottery.Status",
          "name": "status",
          "type": "uint8"
        }
      ],
      "name": "LotteryStatusChanged",
      "type": "event"
    },
    {
      "anonymous": false,
      "inputs": [
        {
          "indexed": false,
          "internalType": "address",
          "name": "account",
          "type": "address"
        }
      ],
      "name": "Paused",
      "type": "event"
    },
    {
      "anonymous": false,
      "inputs": [
        {
          "indexed": true,
          "internalType": "uint256",
          "name": "lotteryId",
          "type": "uint256"
        },
        {
          "indexed": true,
          "internalType": "address",
          "name": "participantAddress",
          "type": "address"
        },
        {
          "indexed": true,
          "internalType": "uint256",
          "name": "prizeId",
          "type": "uint256"
        }
      ],
      "name": "PrizeClaimed",
      "type": "event"
    },
    {
      "anonymous": false,
      "inputs": [
        {
          "indexed": true,
          "internalType": "uint256",
          "name": "lotteryId",
          "type": "uint256"
        },
        {
          "indexed": true,
          "internalType": "address",
          "name": "participantAddress",
          "type": "address"
        },
        {
          "indexed": false,
          "internalType": "uint256",
          "name": "amount",
          "type": "uint256"
        }
      ],
      "name": "Refunded",
      "type": "event"
    },
    {
      "anonymous": false,
      "inputs": [
        {
          "indexed": false,
          "internalType": "address",
          "name": "operator",
          "type": "address"
        },
        {
          "indexed": false,
          "internalType": "uint256",
          "name": "lotteryId",
          "type": "uint256"
        },
        {
          "indexed": false,
          "internalType": "uint256",
          "name": "priceOfTicket",
          "type": "uint256"
        }
      ],
      "name": "TicketCostChanged",
      "type": "event"
    },
    {
      "anonymous": false,
      "inputs": [
        {
          "indexed": true,
          "internalType": "uint256",
          "name": "lotteryId",
          "type": "uint256"
        },
        {
          "indexed": false,
          "internalType": "uint256",
          "name": "ticketNumber",
          "type": "uint256"
        },
        {
          "indexed": true,
          "internalType": "address",
          "name": "participantAddress",
          "type": "address"
        }
      ],
      "name": "TicketSold",
      "type": "event"
    },
    {
      "anonymous": false,
      "inputs": [
        {
          "indexed": false,
          "internalType": "address",
          "name": "account",
          "type": "address"
        }
      ],
      "name": "Unpaused",
      "type": "event"
    },
    {
      "anonymous": false,
      "inputs": [
        {
          "indexed": true,
          "internalType": "address",
          "name": "implementation",
          "type": "address"
        }
      ],
      "name": "Upgraded",
      "type": "event"
    },
    {
      "inputs": [
        {
          "internalType": "uint256",
          "name": "_lotteryId",
          "type": "uint256"
        },
        {
          "internalType": "uint256",
          "name": "_numberOfTicketsToBuy",
          "type": "uint256"
        }
      ],
      "name": "buyTickets",
      "outputs": [],
      "stateMutability": "nonpayable",
      "type": "function"
    },
    {
      "inputs": [
        {
          "internalType": "uint256",
          "name": "_points",
          "type": "uint256"
        },
        {
          "internalType": "uint256",
          "name": "_lotteryId",
          "type": "uint256"
        },
        {
          "internalType": "uint256",
          "name": "_numberOfTicketsToBuy",
          "type": "uint256"
        },
        {
          "internalType": "bytes",
          "name": "_sig",
          "type": "bytes"
        }
      ],
      "name": "buyTicketsWithSignedMessage",
      "outputs": [],
      "stateMutability": "nonpayable",
      "type": "function"
    },
    {
      "inputs": [
        {
          "internalType": "uint256",
          "name": "_lotteryId",
          "type": "uint256"
        }
      ],
      "name": "cancelLottery",
      "outputs": [],
      "stateMutability": "nonpayable",
      "type": "function"
    },
    {
      "inputs": [
        {
          "internalType": "uint256",
          "name": "_lotteryId",
          "type": "uint256"
        },
        {
          "internalType": "uint32",
          "name": "_time",
          "type": "uint32"
        }
      ],
      "name": "changeCloseTime",
      "outputs": [],
      "stateMutability": "nonpayable",
      "type": "function"
    },
    {
      "inputs": [
        {
          "components": [
            {
              "internalType": "uint256",
              "name": "lotteryId",
              "type": "uint256"
            },
            {
              "internalType": "address",
              "name": "winner",
              "type": "address"
            },
            {
              "internalType": "uint256",
              "name": "ticketNumber",
              "type": "uint256"
            },
            {
              "internalType": "string",
              "name": "uri",
              "type": "string"
            },
            {
              "internalType": "bytes32[]",
              "name": "proof",
              "type": "bytes32[]"
            }
          ],
          "internalType": "struct Lottery.ProofData",
          "name": "_proofData",
          "type": "tuple"
        }
      ],
      "name": "claimPrize",
      "outputs": [],
      "stateMutability": "nonpayable",
      "type": "function"
    },
    {
      "inputs": [
        {
          "components": [
            {
              "internalType": "uint256",
              "name": "lotteryId",
              "type": "uint256"
            },
            {
              "internalType": "address",
              "name": "winner",
              "type": "address"
            },
            {
              "internalType": "uint256",
              "name": "ticketNumber",
              "type": "uint256"
            },
            {
              "internalType": "string",
              "name": "uri",
              "type": "string"
            },
            {
              "internalType": "bytes32[]",
              "name": "proof",
              "type": "bytes32[]"
            }
          ],
          "internalType": "struct Lottery.ProofData[]",
          "name": "_proofData",
          "type": "tuple[]"
        }
      ],
      "name": "claimPrizeBatch",
      "outputs": [],
      "stateMutability": "nonpayable",
      "type": "function"
    },
    {
      "inputs": [
        {
          "internalType": "uint256",
          "name": "",
          "type": "uint256"
        },
        {
          "internalType": "uint256",
          "name": "",
          "type": "uint256"
        }
      ],
      "name": "claimedPrizes",
      "outputs": [
        {
          "internalType": "bool",
          "name": "",
          "type": "bool"
        }
      ],
      "stateMutability": "view",
      "type": "function"
    },
    {
      "inputs": [
        {
          "components": [
            {
              "internalType": "uint32",
              "name": "startTime",
              "type": "uint32"
            },
            {
              "internalType": "uint32",
              "name": "closeTime",
              "type": "uint32"
            },
            {
              "internalType": "uint32",
              "name": "participantsCount",
              "type": "uint32"
            },
            {
              "internalType": "uint32",
              "name": "maxTickets",
              "type": "uint32"
            },
            {
              "internalType": "uint32",
              "name": "maxTicketsPerUser",
              "type": "uint32"
            },
            {
              "internalType": "uint32",
              "name": "numberOfTicketsSold",
              "type": "uint32"
            },
            {
              "internalType": "uint32",
              "name": "numberOfEditions",
              "type": "uint32"
            },
            {
              "internalType": "enum Lottery.Status",
              "name": "status",
              "type": "uint8"
            },
            {
              "internalType": "contract INFT",
              "name": "nftContract",
              "type": "address"
            },
            {
              "internalType": "uint256",
              "name": "lotteryID",
              "type": "uint256"
            },
            {
              "internalType": "uint256",
              "name": "ticketCostPoints",
              "type": "uint256"
            },
            {
              "internalType": "uint256",
              "name": "ticketCostTokens",
              "type": "uint256"
            }
          ],
          "internalType": "struct Lottery.LotteryInfo",
          "name": "_lotteryInfo",
          "type": "tuple"
        }
      ],
      "name": "createLottery",
      "outputs": [],
      "stateMutability": "nonpayable",
      "type": "function"
    },
    {
      "inputs": [
        {
          "components": [
            {
              "internalType": "uint32",
              "name": "startTime",
              "type": "uint32"
            },
            {
              "internalType": "uint32",
              "name": "closeTime",
              "type": "uint32"
            },
            {
              "internalType": "uint32",
              "name": "participantsCount",
              "type": "uint32"
            },
            {
              "internalType": "uint32",
              "name": "maxTickets",
              "type": "uint32"
            },
            {
              "internalType": "uint32",
              "name": "maxTicketsPerUser",
              "type": "uint32"
            },
            {
              "internalType": "uint32",
              "name": "numberOfTicketsSold",
              "type": "uint32"
            },
            {
              "internalType": "uint32",
              "name": "numberOfEditions",
              "type": "uint32"
            },
            {
              "internalType": "enum Lottery.Status",
              "name": "status",
              "type": "uint8"
            },
            {
              "internalType": "contract INFT",
              "name": "nftContract",
              "type": "address"
            },
            {
              "internalType": "uint256",
              "name": "lotteryID",
              "type": "uint256"
            },
            {
              "internalType": "uint256",
              "name": "ticketCostPoints",
              "type": "uint256"
            },
            {
              "internalType": "uint256",
              "name": "ticketCostTokens",
              "type": "uint256"
            }
          ],
          "internalType": "struct Lottery.LotteryInfo[]",
          "name": "_lotteries",
          "type": "tuple[]"
        }
      ],
      "name": "createLotteryBatch",
      "outputs": [],
      "stateMutability": "nonpayable",
      "type": "function"
    },
    {
      "inputs": [],
      "name": "getLotteryCount",
      "outputs": [
        {
          "internalType": "uint256",
          "name": "",
          "type": "uint256"
        }
      ],
      "stateMutability": "view",
      "type": "function"
    },
    {
      "inputs": [
        {
          "internalType": "uint256",
          "name": "_lotteryId",
          "type": "uint256"
        }
      ],
      "name": "getLotteryInfo",
      "outputs": [
        {
          "components": [
            {
              "internalType": "uint32",
              "name": "startTime",
              "type": "uint32"
            },
            {
              "internalType": "uint32",
              "name": "closeTime",
              "type": "uint32"
            },
            {
              "internalType": "uint32",
              "name": "participantsCount",
              "type": "uint32"
            },
            {
              "internalType": "uint32",
              "name": "maxTickets",
              "type": "uint32"
            },
            {
              "internalType": "uint32",
              "name": "maxTicketsPerUser",
              "type": "uint32"
            },
            {
              "internalType": "uint32",
              "name": "numberOfTicketsSold",
              "type": "uint32"
            },
            {
              "internalType": "uint32",
              "name": "numberOfEditions",
              "type": "uint32"
            },
            {
              "internalType": "enum Lottery.Status",
              "name": "status",
              "type": "uint8"
            },
            {
              "internalType": "contract INFT",
              "name": "nftContract",
              "type": "address"
            },
            {
              "internalType": "uint256",
              "name": "lotteryID",
              "type": "uint256"
            },
            {
              "internalType": "uint256",
              "name": "ticketCostPoints",
              "type": "uint256"
            },
            {
              "internalType": "uint256",
              "name": "ticketCostTokens",
              "type": "uint256"
            }
          ],
          "internalType": "struct Lottery.LotteryInfo",
          "name": "",
          "type": "tuple"
        }
      ],
      "stateMutability": "view",
      "type": "function"
    },
    {
      "inputs": [
        {
          "internalType": "uint256",
          "name": "_lotteryId",
          "type": "uint256"
        }
      ],
      "name": "getLotteryTicketCount",
      "outputs": [
        {
          "internalType": "uint256",
          "name": "",
          "type": "uint256"
        }
      ],
      "stateMutability": "view",
      "type": "function"
    },
    {
      "inputs": [
        {
          "internalType": "uint256",
          "name": "_lotteryId",
          "type": "uint256"
        },
        {
          "internalType": "uint256",
          "name": "_from",
          "type": "uint256"
        },
        {
          "internalType": "uint256",
          "name": "_to",
          "type": "uint256"
        }
      ],
      "name": "getLotteryTickets",
      "outputs": [
        {
          "internalType": "address[]",
          "name": "",
          "type": "address[]"
        }
      ],
      "stateMutability": "view",
      "type": "function"
    },
    {
      "inputs": [
        {
          "internalType": "uint256",
          "name": "_lotteryId",
          "type": "uint256"
        }
      ],
      "name": "getParticipantsCount",
      "outputs": [
        {
          "internalType": "uint32",
          "name": "",
          "type": "uint32"
        }
      ],
      "stateMutability": "view",
      "type": "function"
    },
    {
      "inputs": [
        {
          "internalType": "uint256",
          "name": "_lotteryId",
          "type": "uint256"
        },
        {
          "internalType": "address",
          "name": "_user",
          "type": "address"
        }
      ],
      "name": "getTicketCountPerUser",
      "outputs": [
        {
          "internalType": "uint256",
          "name": "",
          "type": "uint256"
        }
      ],
      "stateMutability": "view",
      "type": "function"
    },
    {
      "inputs": [
        {
          "internalType": "uint256",
          "name": "_lotteryId",
          "type": "uint256"
        }
      ],
      "name": "getWhitelist",
      "outputs": [
        {
          "internalType": "address",
          "name": "",
          "type": "address"
        }
      ],
      "stateMutability": "view",
      "type": "function"
    },
    {
      "inputs": [
        {
          "internalType": "address",
          "name": "_rewardsContract",
          "type": "address"
        },
        {
          "internalType": "address",
          "name": "_admin",
          "type": "address"
        },
        {
          "internalType": "address",
          "name": "_token",
          "type": "address"
        },
        {
          "internalType": "address",
          "name": "_sageStorage",
          "type": "address"
        }
      ],
      "name": "initialize",
      "outputs": [],
      "stateMutability": "nonpayable",
      "type": "function"
    },
    {
      "inputs": [
        {
          "internalType": "uint256",
          "name": "",
          "type": "uint256"
        }
      ],
      "name": "lotteries",
      "outputs": [
        {
          "internalType": "uint256",
          "name": "",
          "type": "uint256"
        }
      ],
      "stateMutability": "view",
      "type": "function"
    },
    {
      "inputs": [
        {
          "internalType": "uint256",
          "name": "",
          "type": "uint256"
        },
        {
          "internalType": "uint256",
          "name": "",
          "type": "uint256"
        }
      ],
      "name": "lotteryTickets",
      "outputs": [
        {
          "internalType": "address",
          "name": "",
          "type": "address"
        }
      ],
      "stateMutability": "view",
      "type": "function"
    },
    {
      "inputs": [
        {
          "internalType": "uint256",
          "name": "",
          "type": "uint256"
        },
        {
          "internalType": "address",
          "name": "",
          "type": "address"
        }
      ],
      "name": "participantTicketCount",
      "outputs": [
        {
          "internalType": "uint256",
          "name": "",
          "type": "uint256"
        }
      ],
      "stateMutability": "view",
      "type": "function"
    },
    {
      "inputs": [],
      "name": "pause",
      "outputs": [],
      "stateMutability": "nonpayable",
      "type": "function"
    },
    {
      "inputs": [],
      "name": "paused",
      "outputs": [
        {
          "internalType": "bool",
          "name": "",
          "type": "bool"
        }
      ],
      "stateMutability": "view",
      "type": "function"
    },
    {
      "inputs": [
        {
          "internalType": "uint256",
          "name": "_lotteryId",
          "type": "uint256"
        },
        {
          "internalType": "uint256",
          "name": "_tokenId",
          "type": "uint256"
        }
      ],
      "name": "prizeClaimed",
      "outputs": [
        {
          "internalType": "bool",
          "name": "",
          "type": "bool"
        }
      ],
      "stateMutability": "view",
      "type": "function"
    },
    {
      "inputs": [
        {
          "internalType": "uint256",
          "name": "",
          "type": "uint256"
        }
      ],
      "name": "prizeMerkleRoots",
      "outputs": [
        {
          "internalType": "bytes32",
          "name": "",
          "type": "bytes32"
        }
      ],
      "stateMutability": "view",
      "type": "function"
    },
    {
      "inputs": [],
      "name": "proxiableUUID",
      "outputs": [
        {
          "internalType": "bytes32",
          "name": "",
          "type": "bytes32"
        }
      ],
      "stateMutability": "view",
      "type": "function"
    },
    {
      "inputs": [
        {
          "internalType": "uint256",
          "name": "",
          "type": "uint256"
        }
      ],
      "name": "randomSeeds",
      "outputs": [
        {
          "internalType": "uint256",
          "name": "",
          "type": "uint256"
        }
      ],
      "stateMutability": "view",
      "type": "function"
    },
    {
      "inputs": [
        {
          "internalType": "uint256",
          "name": "_lotteryId",
          "type": "uint256"
        },
        {
          "internalType": "uint256",
          "name": "_randomNumber",
          "type": "uint256"
        }
      ],
      "name": "receiveRandomNumber",
      "outputs": [],
      "stateMutability": "nonpayable",
      "type": "function"
    },
    {
      "inputs": [
        {
          "internalType": "address",
          "name": "_assetOwner",
          "type": "address"
        },
        {
          "internalType": "uint256",
          "name": "_lotteryId",
          "type": "uint256"
        },
        {
          "internalType": "uint256",
          "name": "_amount",
          "type": "uint256"
        }
      ],
      "name": "refund",
      "outputs": [],
      "stateMutability": "nonpayable",
      "type": "function"
    },
    {
      "inputs": [
        {
          "internalType": "address[]",
          "name": "_owners",
          "type": "address[]"
        },
        {
          "internalType": "uint256",
          "name": "_lotteryId",
          "type": "uint256"
        },
        {
          "internalType": "uint256[]",
          "name": "_amounts",
          "type": "uint256[]"
        }
      ],
      "name": "refundBatch",
      "outputs": [],
      "stateMutability": "nonpayable",
      "type": "function"
    },
    {
      "inputs": [
        {
          "internalType": "uint256",
          "name": "",
          "type": "uint256"
        },
        {
          "internalType": "address",
          "name": "",
          "type": "address"
        }
      ],
      "name": "refunds",
      "outputs": [
        {
          "internalType": "uint256",
          "name": "",
          "type": "uint256"
        }
      ],
      "stateMutability": "view",
      "type": "function"
    },
    {
      "inputs": [
        {
          "internalType": "uint256",
          "name": "_lotteryId",
          "type": "uint256"
        }
      ],
      "name": "requestRandomNumber",
      "outputs": [],
      "stateMutability": "nonpayable",
      "type": "function"
    },
    {
      "inputs": [],
      "name": "rewardsContract",
      "outputs": [
        {
          "internalType": "contract IRewards",
          "name": "",
          "type": "address"
        }
      ],
      "stateMutability": "view",
      "type": "function"
    },
    {
      "inputs": [
        {
          "internalType": "uint256",
          "name": "_lotteryId",
          "type": "uint256"
        },
        {
          "internalType": "uint32",
          "name": "_maxTickets",
          "type": "uint32"
        }
      ],
      "name": "setMaxTickets",
      "outputs": [],
      "stateMutability": "nonpayable",
      "type": "function"
    },
    {
      "inputs": [
        {
          "internalType": "uint256",
          "name": "_lotteryId",
          "type": "uint256"
        },
        {
          "internalType": "uint32",
          "name": "_maxTicketsPerUser",
          "type": "uint32"
        }
      ],
      "name": "setMaxTicketsPerUser",
      "outputs": [],
      "stateMutability": "nonpayable",
      "type": "function"
    },
    {
      "inputs": [
        {
          "internalType": "uint256",
          "name": "_lotteryId",
          "type": "uint256"
        },
        {
          "internalType": "bytes32",
          "name": "_root",
          "type": "bytes32"
        }
      ],
      "name": "setPrizeMerkleRoot",
      "outputs": [],
      "stateMutability": "nonpayable",
      "type": "function"
    },
    {
      "inputs": [
        {
          "internalType": "address",
          "name": "_IRandomNumberGenerator",
          "type": "address"
        }
      ],
      "name": "setRandomGenerator",
      "outputs": [],
      "stateMutability": "nonpayable",
      "type": "function"
    },
    {
      "inputs": [
        {
          "internalType": "address",
          "name": "_rewardsContract",
          "type": "address"
        }
      ],
      "name": "setRewardsContract",
      "outputs": [],
      "stateMutability": "nonpayable",
      "type": "function"
    },
    {
      "inputs": [
        {
          "internalType": "address",
          "name": "_signer",
          "type": "address"
        }
      ],
      "name": "setSignerAddress",
      "outputs": [],
      "stateMutability": "nonpayable",
      "type": "function"
    },
    {
      "inputs": [
        {
          "internalType": "address",
          "name": "_token",
          "type": "address"
        }
      ],
      "name": "setToken",
      "outputs": [],
      "stateMutability": "nonpayable",
      "type": "function"
    },
    {
      "inputs": [
        {
          "internalType": "uint256",
          "name": "_lotteryId",
          "type": "uint256"
        },
        {
          "internalType": "address",
          "name": "_whitelist",
          "type": "address"
        }
      ],
      "name": "setWhitelist",
      "outputs": [],
      "stateMutability": "nonpayable",
      "type": "function"
    },
    {
      "inputs": [],
      "name": "token",
      "outputs": [
        {
          "internalType": "contract IERC20",
          "name": "",
          "type": "address"
        }
      ],
      "stateMutability": "view",
      "type": "function"
    },
    {
      "inputs": [],
      "name": "unpause",
      "outputs": [],
      "stateMutability": "nonpayable",
      "type": "function"
    },
    {
      "inputs": [
        {
          "internalType": "uint256",
          "name": "lotteryId",
          "type": "uint256"
        },
        {
          "internalType": "uint256",
          "name": "_ticketCostPoints",
          "type": "uint256"
        },
        {
          "internalType": "uint256",
          "name": "_ticketCostTokens",
          "type": "uint256"
        },
        {
          "internalType": "uint32",
          "name": "_startTime",
          "type": "uint32"
        },
        {
          "internalType": "uint32",
          "name": "_closeTime",
          "type": "uint32"
        },
        {
          "internalType": "contract INFT",
          "name": "_nftContract",
          "type": "address"
        },
        {
          "internalType": "uint16",
          "name": "_maxTickets",
          "type": "uint16"
        },
        {
          "internalType": "enum Lottery.Status",
          "name": "_status",
          "type": "uint8"
        },
        {
          "internalType": "uint32",
          "name": "_numberOfEditions",
          "type": "uint32"
        }
      ],
      "name": "updateLottery",
      "outputs": [],
      "stateMutability": "nonpayable",
      "type": "function"
    },
    {
      "inputs": [
        {
          "internalType": "address",
          "name": "newImplementation",
          "type": "address"
        }
      ],
      "name": "upgradeTo",
      "outputs": [],
      "stateMutability": "nonpayable",
      "type": "function"
    },
    {
      "inputs": [
        {
          "internalType": "address",
          "name": "newImplementation",
          "type": "address"
        },
        {
          "internalType": "bytes",
          "name": "data",
          "type": "bytes"
        }
      ],
      "name": "upgradeToAndCall",
      "outputs": [],
      "stateMutability": "payable",
      "type": "function"
    },
    {
      "inputs": [
        {
          "internalType": "uint256",
          "name": "",
          "type": "uint256"
        }
      ],
      "name": "whitelists",
      "outputs": [
        {
          "internalType": "address",
          "name": "",
          "type": "address"
        }
      ],
      "stateMutability": "view",
      "type": "function"
    },
    {
      "inputs": [
        {
          "internalType": "uint256",
          "name": "_amount",
          "type": "uint256"
        }
      ],
      "name": "withdraw",
      "outputs": [],
      "stateMutability": "nonpayable",
      "type": "function"
    }
  ],
  "bytecode": "0x60a0604052306080523480156200001557600080fd5b506200002062000026565b620000e8565b600054610100900460ff1615620000935760405162461bcd60e51b815260206004820152602760248201527f496e697469616c697a61626c653a20636f6e747261637420697320696e697469604482015266616c697a696e6760c81b606482015260840160405180910390fd5b60005460ff9081161015620000e6576000805460ff191660ff9081179091556040519081527f7f26b83ff96e1f2b6a682f133852f6798a09c465da95921460cefb38474024989060200160405180910390a15b565b608051614d7162000120600039600081816115a7015281816115e701528181611a9301528181611ad30152611c100152614d716000f3fe6080604052600436106102885760003560e01c80636a6be3151161015a578063c730bba0116100c1578063f4f46e351161007a578063f4f46e3514610877578063f5f4899814610897578063f8c8765e146108e6578063f90328d514610906578063fc0c546a14610941578063fe4d5add1461096157600080fd5b8063c730bba014610777578063d098a2f0146107af578063d89da286146107dc578063db2c0fd1146107fc578063dfa0dfa514610837578063eb1ea5211461085757600080fd5b80638c8bf83b116101135780638c8bf83b1461067a57806396db752a1461069a5780639b7fecc3146106d0578063b1eb96c9146106fd578063bf4002b21461071d578063c11ab6151461073d57600080fd5b80636a6be315146105b857806372f5b6c2146105d85780637350ab2c146105f857806376b3c8a8146106185780638456cb59146106455780638627df461461065a57600080fd5b80633f4ba83a116101fe5780634bc19fee116101b75780634bc19fee1461050c5780634f1ef2861461052c57806350612da61461053f57806352d1902d1461055f5780635c975abb146105745780636013457f1461059857600080fd5b80633f4ba83a1461041c57806340cf23d9146104315780634538f29714610474578063454cc4bc1461049457806349c0de88146104cc5780634a004467146104ec57600080fd5b80632368040011610250578063236804001461035a57806327a38a9e146103875780632801f84a146103a75780632e1a7d4d146103c75780632f9aa1fe146103e75780633659cfe6146103fc57600080fd5b8063046dc1661461028d5780631398e076146102af578063144fa6d7146102e257806318fd890314610302578063220cce9714610322575b600080fd5b34801561029957600080fd5b506102ad6102a8366004613d9a565b610997565b005b3480156102bb57600080fd5b506102cf6102ca366004613db7565b610a5e565b6040519081526020015b60405180910390f35b3480156102ee57600080fd5b506102ad6102fd366004613d9a565b610a7f565b34801561030e57600080fd5b506102ad61031d366004613dd0565b610b3d565b34801561032e57600080fd5b5060cd54610342906001600160a01b031681565b6040516001600160a01b0390911681526020016102d9565b34801561036657600080fd5b506102cf610375366004613db7565b60d56020526000908152604090205481565b34801561039357600080fd5b506102ad6103a2366004613e05565b610d6a565b3480156103b357600080fd5b506102ad6103c2366004613e5e565b6111ea565b3480156103d357600080fd5b506102ad6103e2366004613db7565b611414565b3480156103f357600080fd5b5060ce546102cf565b34801561040857600080fd5b506102ad610417366004613d9a565b61159d565b34801561042857600080fd5b506102ad61167c565b34801561043d57600080fd5b506102cf61044c366004613f06565b600091825260d3602090815260408084206001600160a01b0393909316845291905290205490565b34801561048057600080fd5b506102ad61048f366004613db7565b611722565b3480156104a057600080fd5b506102cf6104af366004613f06565b60d460209081526000928352604080842090915290825290205481565b3480156104d857600080fd5b506103426104e7366004613f36565b61186e565b3480156104f857600080fd5b506102ad610507366004613f58565b6118a6565b34801561051857600080fd5b506102ad610527366004613d9a565b611975565b6102ad61053a366004614042565b611a89565b34801561054b57600080fd5b506102ad61055a366004613f36565b611b55565b34801561056b57600080fd5b506102cf611c03565b34801561058057600080fd5b5060975460ff165b60405190151581526020016102d9565b3480156105a457600080fd5b506102ad6105b33660046140a5565b611cb6565b3480156105c457600080fd5b506102ad6105d3366004613f58565b611f1d565b3480156105e457600080fd5b506102ad6105f33660046140be565b612063565b34801561060457600080fd5b506102ad610613366004614133565b612142565b34801561062457600080fd5b50610638610633366004613db7565b612303565b6040516102d991906141f7565b34801561065157600080fd5b506102ad61245f565b34801561066657600080fd5b506102ad610675366004613f36565b612503565b34801561068657600080fd5b506102ad6106953660046142e5565b6129d3565b3480156106a657600080fd5b506103426106b5366004613db7565b600090815260d060205260409020546001600160a01b031690565b3480156106dc57600080fd5b506106f06106eb366004614347565b612a16565b6040516102d99190614373565b34801561070957600080fd5b506102ad610718366004613db7565b612b00565b34801561072957600080fd5b506102ad610738366004613f58565b612daa565b34801561074957600080fd5b506102cf610758366004613db7565b600090815260cf6020526040902054600160a01b900463ffffffff1690565b34801561078357600080fd5b506102cf610792366004613f06565b60d360209081526000928352604080842090915290825290205481565b3480156107bb57600080fd5b506102cf6107ca366004613db7565b60d16020526000908152604090205481565b3480156107e857600080fd5b506102ad6107f7366004613f06565b612e79565b34801561080857600080fd5b50610588610817366004613f36565b600091825260d26020908152604080842092845291905290205460ff1690565b34801561084357600080fd5b506102ad610852366004613d9a565b612f43565b34801561086357600080fd5b506102ad610872366004613f36565b613001565b34801561088357600080fd5b506102ad61089236600461444e565b613100565b3480156108a357600080fd5b506108d16108b2366004613db7565b600090815260cf6020526040902054600160401b900463ffffffff1690565b60405163ffffffff90911681526020016102d9565b3480156108f257600080fd5b506102ad610901366004614518565b6131a3565b34801561091257600080fd5b50610588610921366004613f36565b60d260209081526000928352604080842090915290825290205460ff1681565b34801561094d57600080fd5b5060cb54610342906001600160a01b031681565b34801561096d57600080fd5b5061034261097c366004613db7565b60d0602052600090815260409020546001600160a01b031681565b60c954604051632474521560e21b8152600080516020614d1c83398151915260048201523360248201526001600160a01b03909116906391d1485490604401602060405180830381865afa1580156109f3573d6000803e3d6000fd5b505050506040513d601f19601f82011682018060405250810190610a179190614574565b610a3c5760405162461bcd60e51b8152600401610a3390614596565b60405180910390fd5b60ca80546001600160a01b0319166001600160a01b0392909216919091179055565b60ce8181548110610a6e57600080fd5b600091825260209091200154905081565b60c954604051632474521560e21b8152600080516020614d1c83398151915260048201523360248201526001600160a01b03909116906391d1485490604401602060405180830381865afa158015610adb573d6000803e3d6000fd5b505050506040513d601f19601f82011682018060405250810190610aff9190614574565b610b1b5760405162461bcd60e51b8152600401610a3390614596565b60cb80546001600160a01b0319166001600160a01b0392909216919091179055565b610b45613309565b600082815260cf6020526040902081610b915760405162461bcd60e51b815260206004820152600e60248201526d043616e277420726566756e6420360941b6044820152606401610a33565b60008154600160e01b900460ff166003811115610bb057610bb06141bf565b03610bf55760405162461bcd60e51b8152602060048201526015602482015274496e76616c6964206c6f747465727920737461746560581b6044820152606401610a33565b600083815260d4602090815260408083206001600160a01b0388168452909152902054821115610c715760405162461bcd60e51b815260206004820152602160248201527f43616e277420726566756e642074686520616d6f756e742072657175657374656044820152601960fa1b6064820152608401610a33565b600083815260d4602090815260408083206001600160a01b038816845290915281208054849290610ca39084906145d6565b909155505060cb5460405163a9059cbb60e01b81526001600160a01b038681166004830152602482018590529091169063a9059cbb906044016020604051808303816000875af1158015610cfb573d6000803e3d6000fd5b505050506040513d601f19601f82011682018060405250810190610d1f9190614574565b50836001600160a01b0316837f7ca5472b7ea78c2c0141c5a12ee6d170cf4ce8ed06be3d22c8252ddfc7a6a2c484604051610d5c91815260200190565b60405180910390a350505050565b610d72613309565b8035600081815260d26020908152604080832081860135845290915290205460ff1615610deb5760405162461bcd60e51b815260206004820152602160248201527f5061727469636970616e7420616c726561647920636c61696d6564207072697a6044820152606560f81b6064820152608401610a33565b610e52610dff610dfa846145ed565b61334f565b600083815260d16020526040902054610e1b6080860186614696565b8080602002602001604051908101604052809392919081815260200183836020028082843760009201919091525061339592505050565b610e955760405162461bcd60e51b815260206004820152601460248201527324b73b30b634b21036b2b935b63290383937b7b360611b6044820152606401610a33565b600081815260cf60205260409020600181015460048201546001600160a01b039091169080156110f757600084815260d46020908152604080832033845290915281208054839290610ee89084906145d6565b9091555060009050612710610eff611f40846146df565b610f0991906146fe565b905060cb60009054906101000a90046001600160a01b03166001600160a01b031663a9059cbb846001600160a01b03166343bc16126040518163ffffffff1660e01b8152600401602060405180830381865afa158015610f6d573d6000803e3d6000fd5b505050506040513d601f19601f82011682018060405250810190610f919190614720565b6040516001600160e01b031960e084901b1681526001600160a01b039091166004820152602481018490526044016020604051808303816000875af1158015610fde573d6000803e3d6000fd5b505050506040513d601f19601f820116820180604052508101906110029190614574565b5060cb5460c95460408051634783c35b60e01b815290516001600160a01b039384169363a9059cbb931691634783c35b9160048083019260209291908290030181865afa158015611057573d6000803e3d6000fd5b505050506040513d601f19601f8201168201806040525081019061107b9190614720565b61108584866145d6565b6040516001600160e01b031960e085901b1681526001600160a01b03909216600483015260248201526044016020604051808303816000875af11580156110d0573d6000803e3d6000fd5b505050506040513d601f19601f820116820180604052508101906110f49190614574565b50505b600084815260d260209081526040808320888201803585529083529220805460ff191660011790556001600160a01b0384169163d204c45e9161113c91908901613d9a565b611149606089018961473d565b6040518463ffffffff1660e01b815260040161116793929190614783565b600060405180830381600087803b15801561118157600080fd5b505af1158015611195573d6000803e3d6000fd5b50505060408601803591506111ad9060208801613d9a565b6001600160a01b0316857f4aa95f981a8337cb337de335b965507da0879c3b49f799d20058e913f5ad2c2660405160405180910390a45050505050565b60c954604051632474521560e21b8152600080516020614d1c83398151915260048201523360248201526001600160a01b03909116906391d1485490604401602060405180830381865afa158015611246573d6000803e3d6000fd5b505050506040513d601f19601f8201168201806040525081019061126a9190614574565b6112865760405162461bcd60e51b8152600401610a3390614596565b858560008263ffffffff16116112d35760405162461bcd60e51b8152602060048201526012602482015271496e76616c69642073746172742074696d6560701b6044820152606401610a33565b8163ffffffff168163ffffffff16116112fe5760405162461bcd60e51b8152600401610a33906147c3565b60008b815260cf60205260409020805460038083018d9055600483018c90556001830180546001600160a01b038b166001600160a01b0319909116179055600160601b61ffff89160263ffffffff60601b1963ffffffff8c81166401000000000267ffffffffffffffff19909516908e161793909317928316811784558792849260ff60e01b1990921670ff000000000000000000000000ffffffff60601b199091161790600160e01b9084908111156113ba576113ba6141bf565b0217905550805463ffffffff60c01b1916600160c01b63ffffffff8616021781558460038111156113ed576113ed6141bf565b6040518d90600080516020614cb583398151915290600090a3505050505050505050505050565b60c954604051632474521560e21b8152600080516020614d1c83398151915260048201523360248201526001600160a01b03909116906391d1485490604401602060405180830381865afa158015611470573d6000803e3d6000fd5b505050506040513d601f19601f820116820180604052508101906114949190614574565b6114b05760405162461bcd60e51b8152600401610a3390614596565b60cb5460c95460408051634783c35b60e01b815290516001600160a01b039384169363a9059cbb931691634783c35b9160048083019260209291908290030181865afa158015611504573d6000803e3d6000fd5b505050506040513d601f19601f820116820180604052508101906115289190614720565b6040516001600160e01b031960e084901b1681526001600160a01b039091166004820152602481018490526044016020604051808303816000875af1158015611575573d6000803e3d6000fd5b505050506040513d601f19601f820116820180604052508101906115999190614574565b5050565b6001600160a01b037f00000000000000000000000000000000000000000000000000000000000000001630036115e55760405162461bcd60e51b8152600401610a3390614806565b7f00000000000000000000000000000000000000000000000000000000000000006001600160a01b031661162e600080516020614cd5833981519152546001600160a01b031690565b6001600160a01b0316146116545760405162461bcd60e51b8152600401610a3390614852565b61165d816133aa565b604080516000808252602082019092526116799183919061343d565b50565b60c954604051632474521560e21b8152600080516020614d1c83398151915260048201523360248201526001600160a01b03909116906391d1485490604401602060405180830381865afa1580156116d8573d6000803e3d6000fd5b505050506040513d601f19601f820116820180604052508101906116fc9190614574565b6117185760405162461bcd60e51b8152600401610a3390614596565b6117206135ad565b565b60c954604051632474521560e21b8152600080516020614d1c83398151915260048201523360248201526001600160a01b03909116906391d1485490604401602060405180830381865afa15801561177e573d6000803e3d6000fd5b505050506040513d601f19601f820116820180604052508101906117a29190614574565b6117be5760405162461bcd60e51b8152600401610a3390614596565b600081815260cf602052604090208054600160401b900463ffffffff16156118285760405162461bcd60e51b815260206004820152601760248201527f4c6f747465727920616c726561647920737461727465640000000000000000006044820152606401610a33565b805460ff60e01b1916600160e01b9081178083550460ff166003811115611851576118516141bf565b6040518390600080516020614cb583398151915290600090a35050565b60d6602052816000526040600020818154811061188a57600080fd5b6000918252602090912001546001600160a01b03169150829050565b60c954604051632474521560e21b8152600080516020614d1c83398151915260048201523360248201526001600160a01b03909116906391d1485490604401602060405180830381865afa158015611902573d6000803e3d6000fd5b505050506040513d601f19601f820116820180604052508101906119269190614574565b6119425760405162461bcd60e51b8152600401610a3390614596565b600091825260cf6020526040909120805463ffffffff909216600160801b0263ffffffff60801b19909216919091179055565b60c954604051632474521560e21b8152600080516020614d1c83398151915260048201523360248201526001600160a01b03909116906391d1485490604401602060405180830381865afa1580156119d1573d6000803e3d6000fd5b505050506040513d601f19601f820116820180604052508101906119f59190614574565b611a115760405162461bcd60e51b8152600401610a3390614596565b6001600160a01b038116611a675760405162461bcd60e51b815260206004820152601d60248201527f436f6e7472616374732063616e6e6f74206265203020616464726573730000006044820152606401610a33565b60cc80546001600160a01b0319166001600160a01b0392909216919091179055565b6001600160a01b037f0000000000000000000000000000000000000000000000000000000000000000163003611ad15760405162461bcd60e51b8152600401610a3390614806565b7f00000000000000000000000000000000000000000000000000000000000000006001600160a01b0316611b1a600080516020614cd5833981519152546001600160a01b031690565b6001600160a01b031614611b405760405162461bcd60e51b8152600401610a3390614852565b611b49826133aa565b6115998282600161343d565b60c954604051632474521560e21b8152600080516020614d1c83398151915260048201523360248201526001600160a01b03909116906391d1485490604401602060405180830381865afa158015611bb1573d6000803e3d6000fd5b505050506040513d601f19601f82011682018060405250810190611bd59190614574565b611bf15760405162461bcd60e51b8152600401610a3390614596565b600091825260d1602052604090912055565b6000306001600160a01b037f00000000000000000000000000000000000000000000000000000000000000001614611ca35760405162461bcd60e51b815260206004820152603860248201527f555550535570677261646561626c653a206d757374206e6f742062652063616c60448201527f6c6564207468726f7567682064656c656761746563616c6c00000000000000006064820152608401610a33565b50600080516020614cd583398151915290565b60c954604051632474521560e21b8152600080516020614d1c83398151915260048201523360248201526001600160a01b03909116906391d1485490604401602060405180830381865afa158015611d12573d6000803e3d6000fd5b505050506040513d601f19601f82011682018060405250810190611d369190614574565b611d525760405162461bcd60e51b8152600401610a3390614596565b611d5f602082018261489e565b611d6f604083016020840161489e565b60008263ffffffff1611611dba5760405162461bcd60e51b8152602060048201526012602482015271496e76616c69642073746172742074696d6560701b6044820152606401610a33565b8163ffffffff168163ffffffff1611611de55760405162461bcd60e51b8152600401610a33906147c3565b6000611df760e0850160c0860161489e565b63ffffffff1611611e3b5760405162461bcd60e51b815260206004820152600e60248201526d496e76616c6964207072697a657360901b6044820152606401610a33565b610120830135600090815260cf6020526040902054600160c01b900463ffffffff1615611ea35760405162461bcd60e51b81526020600482015260166024820152754c6f747465727920616c72656164792065786973747360501b6044820152606401610a33565b60ce8054600181019091556101208401357fd36cd1c74ef8d7326d8021b776c18fb5a5724b7f7bc93c2f42e43e10ef27d12a909101819055600090815260cf602052604090208390611ef58282614923565b506000905060405161012085013590600080516020614cb583398151915290600090a3505050565b60c954604051632474521560e21b8152600080516020614d1c83398151915260048201523360248201526001600160a01b03909116906391d1485490604401602060405180830381865afa158015611f79573d6000803e3d6000fd5b505050506040513d601f19601f82011682018060405250810190611f9d9190614574565b611fb95760405162461bcd60e51b8152600401610a3390614596565b600082815260cf60205260409020805463ffffffff166120125760405162461bcd60e51b8152602060048201526014602482015273131bdd1d195c9e481a59081b9bdd08199bdd5b9960621b6044820152606401610a33565b805463ffffffff9081169083161161203c5760405162461bcd60e51b8152600401610a33906147c3565b805463ffffffff9092166401000000000267ffffffff000000001990921691909117905550565b60c954604051632474521560e21b8152600080516020614d1c83398151915260048201523360248201526001600160a01b03909116906391d1485490604401602060405180830381865afa1580156120bf573d6000803e3d6000fd5b505050506040513d601f19601f820116820180604052508101906120e39190614574565b6120ff5760405162461bcd60e51b8152600401610a3390614596565b8060005b8181101561213c5761212c84848381811061212057612120614aea565b90506101800201611cb6565b61213581614b00565b9050612103565b50505050565b60408051336020820181905291810187905260009061217990606001604051602081830303815290604052805190602001206135ff565b60ca54604080516020601f88018190048102820181019092528681529293506001600160a01b03909116916121cb91849190889088908190840183828082843760009201919091525061363a92505050565b6001600160a01b0316146122155760405162461bcd60e51b8152602060048201526011602482015270496e76616c6964207369676e617475726560781b6044820152606401610a33565b60cd5460405163f662781d60e01b81526001600160a01b0384811660048301528992169063f662781d90602401602060405180830381865afa15801561225f573d6000803e3d6000fd5b505050506040513d601f19601f820116820180604052508101906122839190614b19565b10156122f05760cd54604051630259ab7760e61b81526001600160a01b038481166004830152602482018a90529091169063966addc090604401600060405180830381600087803b1580156122d757600080fd5b505af11580156122eb573d6000803e3d6000fd5b505050505b6122fa8686612503565b50505050505050565b6123706040805161018081018252600080825260208201819052918101829052606081018290526080810182905260a0810182905260c081018290529060e0820190815260200160006001600160a01b031681526020016000815260200160008152602001600081525090565b600082815260cf6020908152604091829020825161018081018452815463ffffffff80821683526401000000008204811694830194909452600160401b8104841694820194909452600160601b840483166060820152600160801b840483166080820152600160a01b8404831660a0820152600160c01b840490921660c0830152909160e0830190600160e01b900460ff166003811115612413576124136141bf565b6003811115612424576124246141bf565b815260018201546001600160a01b03166020820152600282015460408201526003820154606082015260049091015460809091015292915050565b60c954604051632474521560e21b8152600080516020614d1c83398151915260048201523360248201526001600160a01b03909116906391d1485490604401602060405180830381865afa1580156124bb573d6000803e3d6000fd5b505050506040513d601f19601f820116820180604052508101906124df9190614574565b6124fb5760405162461bcd60e51b8152600401610a3390614596565b61172061365e565b61250b613309565b600082815260d0602052604090205482906001600160a01b0316156125e857600081815260d06020526040908190205490516320c18e6b60e21b8152336004820152602481018390526001600160a01b039091169063830639ac90604401602060405180830381865afa158015612586573d6000803e3d6000fd5b505050506040513d601f19601f820116820180604052508101906125aa9190614574565b6125e85760405162461bcd60e51b815260206004820152600f60248201526e139bdd081dda1a5d195b1a5cdd1959608a1b6044820152606401610a33565b600083815260cf60205260408120805490919081908190600160601b900463ffffffff161561267657835463ffffffff600160601b8204811691612635918991600160a01b900416614b32565b11156126765760405162461bcd60e51b815260206004820152601060248201526f151a58dad95d1cc81cdbdb19081bdd5d60821b6044820152606401610a33565b600087815260d3602090815260408083203384529091529020548454600160801b900463ffffffff161561270b578454600160801b900463ffffffff166126bd8883614b32565b111561270b5760405162461bcd60e51b815260206004820181905260248201527f43616e277420627579207468697320616d6f756e74206f66207469636b6574736044820152606401610a33565b84544263ffffffff90911611801590612733575084544264010000000090910463ffffffff16115b801561275c575060018554600160e01b900460ff166003811115612759576127596141bf565b14155b61279e5760405162461bcd60e51b81526020600482015260136024820152722637ba3a32b93c9034b9903737ba1037b832b760691b6044820152606401610a33565b60038501546127ad90886146df565b925082156127c1576127bf338461369b565b505b60048501548554909250879086906014906127ea908490600160a01b900463ffffffff16614b4a565b92506101000a81548163ffffffff021916908363ffffffff16021790555060008211156128c75761281b82886146df565b60cb546040516323b872dd60e01b8152336004820152306024820152604481018390529195506001600160a01b0316906323b872dd906064016020604051808303816000875af1158015612873573d6000803e3d6000fd5b505050506040513d601f19601f820116820180604052508101906128979190614574565b50600088815260d460209081526040808320338452909152812080548692906128c1908490614b32565b90915550505b8060000361290b57845485906008906128ec90600160401b900463ffffffff16614b72565b91906101000a81548163ffffffff021916908363ffffffff1602179055505b600088815260d3602090815260408083203384529091528120805461ffff8a169290612938908490614b32565b9091555050600088815260d660205260408120905b888110156129c75781546001810183556000838152602090200180546001600160a01b0319163390811790915582546040518c917fc41bbb54d04f2268c7895b9330f18468c306a3f92698a92c4c86b29787397848916129af91815260200190565b60405180910390a36129c081614b00565b905061294d565b50505050505050505050565b8060005b8181101561213c57612a068484838181106129f4576129f4614aea565b90506020028101906103a29190614b95565b612a0f81614b00565b90506129d7565b60606000612a2484846145d6565b612a2f906001614b32565b6001600160401b03811115612a4657612a46613f7d565b604051908082528060200260200182016040528015612a6f578160200160208202803683370190505b509050835b838111612af557600086815260d660205260409020805482908110612a9b57612a9b614aea565b9060005260206000200160009054906101000a90046001600160a01b0316828281518110612acb57612acb614aea565b6001600160a01b039092166020928302919091019091015280612aed81614b00565b915050612a74565b5090505b9392505050565b60c954604051632474521560e21b8152600080516020614d1c83398151915260048201523360248201526001600160a01b03909116906391d1485490604401602060405180830381865afa158015612b5c573d6000803e3d6000fd5b505050506040513d601f19601f82011682018060405250810190612b809190614574565b612b9c5760405162461bcd60e51b8152600401610a3390614596565b600081815260cf60205260409020805463ffffffff16612bf35760405162461bcd60e51b8152602060048201526012602482015271125b9d985b1a59081b1bdd1d195c9e481a5960721b6044820152606401610a33565b80544264010000000090910463ffffffff1610612c4a5760405162461bcd60e51b8152602060048201526015602482015274131bdd1d195c9e481a5cc81b9bdd0818db1bdcd959605a1b6044820152606401610a33565b8054600160e01b900460ff166003816003811115612c6a57612c6a6141bf565b03612cb75760405162461bcd60e51b815260206004820152601d60248201527f4c6f7474657279206d757374206e6f7420626520636f6d706c657465640000006044820152606401610a33565b815463ffffffff600160c01b82048116600160a01b9092041611612ceb57815460ff60e01b1916600360e01b178255612d6f565b8154600160e11b60ff60e01b1990911617825560cc54604051632f215ddf60e21b8152600481018590526001600160a01b039091169063bc85777c906024016020604051808303816000875af1158015612d49573d6000803e3d6000fd5b505050506040513d601f19601f82011682018060405250810190612d6d9190614b19565b505b8154600160e01b900460ff166003811115612d8c57612d8c6141bf565b6040518490600080516020614cb583398151915290600090a3505050565b60c954604051632474521560e21b8152600080516020614d1c83398151915260048201523360248201526001600160a01b03909116906391d1485490604401602060405180830381865afa158015612e06573d6000803e3d6000fd5b505050506040513d601f19601f82011682018060405250810190612e2a9190614574565b612e465760405162461bcd60e51b8152600401610a3390614596565b600091825260cf6020526040909120805463ffffffff909216600160601b0263ffffffff60601b19909216919091179055565b60c954604051632474521560e21b8152600080516020614d1c83398151915260048201523360248201526001600160a01b03909116906391d1485490604401602060405180830381865afa158015612ed5573d6000803e3d6000fd5b505050506040513d601f19601f82011682018060405250810190612ef99190614574565b612f155760405162461bcd60e51b8152600401610a3390614596565b600091825260d0602052604090912080546001600160a01b0319166001600160a01b03909216919091179055565b60c954604051632474521560e21b8152600080516020614d1c83398151915260048201523360248201526001600160a01b03909116906391d1485490604401602060405180830381865afa158015612f9f573d6000803e3d6000fd5b505050506040513d601f19601f82011682018060405250810190612fc39190614574565b612fdf5760405162461bcd60e51b8152600401610a3390614596565b60cd80546001600160a01b0319166001600160a01b0392909216919091179055565b60cc546001600160a01b0316331461304e5760405162461bcd60e51b815260206004820152601060248201526f4f6e6c7920524e47206164647265737360801b6044820152606401610a33565b600082815260cf6020526040902060038154600160e01b900460ff16600381111561307b5761307b6141bf565b036130c15760405162461bcd60e51b8152602060048201526016602482015275131bdd1d195c9e481b5d5cdd0818994818db1bdcd95960521b6044820152606401610a33565b805460ff60e01b1916600360e01b178155600083815260d5602052604090208290558054600160e01b900460ff166003811115612d8c57612d8c6141bf565b8251815181146131445760405162461bcd60e51b815260206004820152600f60248201526e57726f6e6720617267756d656e747360881b6044820152606401610a33565b60005b8181101561319c5761318c85828151811061316457613164614aea565b60200260200101518585848151811061317f5761317f614aea565b6020026020010151610b3d565b61319581614b00565b9050613147565b5050505050565b600054610100900460ff16158080156131c35750600054600160ff909116105b806131dd5750303b1580156131dd575060005460ff166001145b6132405760405162461bcd60e51b815260206004820152602e60248201527f496e697469616c697a61626c653a20636f6e747261637420697320616c72656160448201526d191e481a5b9a5d1a585b1a5e995960921b6064820152608401610a33565b6000805460ff191660011790558015613263576000805461ff0019166101001790555b61326b613713565b613273613742565b60cb80546001600160a01b038086166001600160a01b03199283161790925560ca805487841690831617905560cd805488841690831617905560c9805492851692909116919091179055801561319c576000805461ff0019169055604051600181527f7f26b83ff96e1f2b6a682f133852f6798a09c465da95921460cefb38474024989060200160405180910390a15050505050565b60975460ff16156117205760405162461bcd60e51b815260206004820152601060248201526f14185d5cd8589b194e881c185d5cd95960821b6044820152606401610a33565b600081600001518260200151836040015184606001516040516020016133789493929190614c0d565b604051602081830303815290604052805190602001209050919050565b60006133a2828486613769565b949350505050565b60c95460408051634783c35b60e01b8152905133926001600160a01b031691634783c35b9160048083019260209291908290030181865afa1580156133f3573d6000803e3d6000fd5b505050506040513d601f19601f820116820180604052508101906134179190614720565b6001600160a01b0316146116795760405162461bcd60e51b8152600401610a3390614596565b7f4910fdfa16fed3260ed0e7147f7cc6da11a60208b5b9406d12a635614ffd91435460ff1615613475576134708361377f565b505050565b826001600160a01b03166352d1902d6040518163ffffffff1660e01b8152600401602060405180830381865afa9250505080156134cf575060408051601f3d908101601f191682019092526134cc91810190614b19565b60015b6135325760405162461bcd60e51b815260206004820152602e60248201527f45524331393637557067726164653a206e657720696d706c656d656e7461746960448201526d6f6e206973206e6f74205555505360901b6064820152608401610a33565b600080516020614cd583398151915281146135a15760405162461bcd60e51b815260206004820152602960248201527f45524331393637557067726164653a20756e737570706f727465642070726f786044820152681a58589b195555525160ba1b6064820152608401610a33565b5061347083838361381b565b6135b5613840565b6097805460ff191690557f5db9ee0a495bf2e6ff9c91a7834c1ba4fdd244a5e8aa4e537bd38aeae4b073aa335b6040516001600160a01b03909116815260200160405180910390a1565b6040517f19457468657265756d205369676e6564204d6573736167653a0a3332000000006020820152603c8101829052600090605c01613378565b60008060006136498585613889565b91509150613656816138ce565b509392505050565b613666613309565b6097805460ff191660011790557f62e78cea01bee320cd4e420270b5ea74000d11b0c9f74754ebdbfc544b05a2586135e23390565b60cd54604051631e961d2760e01b81526001600160a01b038481166004830152602482018490526000921690631e961d27906044016020604051808303816000875af11580156136ef573d6000803e3d6000fd5b505050506040513d601f19601f82011682018060405250810190612af99190614b19565b600054610100900460ff1661373a5760405162461bcd60e51b8152600401610a3390614c44565b611720613a84565b600054610100900460ff166117205760405162461bcd60e51b8152600401610a3390614c44565b6000826137768584613ab7565b14949350505050565b6001600160a01b0381163b6137ec5760405162461bcd60e51b815260206004820152602d60248201527f455243313936373a206e657720696d706c656d656e746174696f6e206973206e60448201526c1bdd08184818dbdb9d1c9858dd609a1b6064820152608401610a33565b600080516020614cd583398151915280546001600160a01b0319166001600160a01b0392909216919091179055565b61382483613afc565b6000825111806138315750805b156134705761213c8383613b3c565b60975460ff166117205760405162461bcd60e51b815260206004820152601460248201527314185d5cd8589b194e881b9bdd081c185d5cd95960621b6044820152606401610a33565b60008082516041036138bf5760208301516040840151606085015160001a6138b387828585613c30565b945094505050506138c7565b506000905060025b9250929050565b60008160048111156138e2576138e26141bf565b036138ea5750565b60018160048111156138fe576138fe6141bf565b0361394b5760405162461bcd60e51b815260206004820152601860248201527f45434453413a20696e76616c6964207369676e617475726500000000000000006044820152606401610a33565b600281600481111561395f5761395f6141bf565b036139ac5760405162461bcd60e51b815260206004820152601f60248201527f45434453413a20696e76616c6964207369676e6174757265206c656e677468006044820152606401610a33565b60038160048111156139c0576139c06141bf565b03613a185760405162461bcd60e51b815260206004820152602260248201527f45434453413a20696e76616c6964207369676e6174757265202773272076616c604482015261756560f01b6064820152608401610a33565b6004816004811115613a2c57613a2c6141bf565b036116795760405162461bcd60e51b815260206004820152602260248201527f45434453413a20696e76616c6964207369676e6174757265202776272076616c604482015261756560f01b6064820152608401610a33565b600054610100900460ff16613aab5760405162461bcd60e51b8152600401610a3390614c44565b6097805460ff19169055565b600081815b845181101561365657613ae882868381518110613adb57613adb614aea565b6020026020010151613d1d565b915080613af481614b00565b915050613abc565b613b058161377f565b6040516001600160a01b038216907fbc7cd75a20ee27fd9adebab32041f755214dbc6bffa90cc0225b39da2e5c2d3b90600090a250565b60606001600160a01b0383163b613ba45760405162461bcd60e51b815260206004820152602660248201527f416464726573733a2064656c65676174652063616c6c20746f206e6f6e2d636f6044820152651b9d1c9858dd60d21b6064820152608401610a33565b600080846001600160a01b031684604051613bbf9190614c8f565b600060405180830381855af49150503d8060008114613bfa576040519150601f19603f3d011682016040523d82523d6000602084013e613bff565b606091505b5091509150613c278282604051806060016040528060278152602001614cf560279139613d4c565b95945050505050565b6000807f7fffffffffffffffffffffffffffffff5d576e7357a4501ddfe92f46681b20a0831115613c675750600090506003613d14565b8460ff16601b14158015613c7f57508460ff16601c14155b15613c905750600090506004613d14565b6040805160008082526020820180845289905260ff881692820192909252606081018690526080810185905260019060a0016020604051602081039080840390855afa158015613ce4573d6000803e3d6000fd5b5050604051601f1901519150506001600160a01b038116613d0d57600060019250925050613d14565b9150600090505b94509492505050565b6000818310613d39576000828152602084905260409020612af9565b6000838152602083905260409020612af9565b60608315613d5b575081612af9565b825115613d6b5782518084602001fd5b8160405162461bcd60e51b8152600401610a339190614ca1565b6001600160a01b038116811461167957600080fd5b600060208284031215613dac57600080fd5b8135612af981613d85565b600060208284031215613dc957600080fd5b5035919050565b600080600060608486031215613de557600080fd5b8335613df081613d85565b95602085013595506040909401359392505050565b600060208284031215613e1757600080fd5b81356001600160401b03811115613e2d57600080fd5b820160a08185031215612af957600080fd5b63ffffffff8116811461167957600080fd5b6004811061167957600080fd5b60008060008060008060008060006101208a8c031215613e7d57600080fd5b8935985060208a0135975060408a0135965060608a0135613e9d81613e3f565b955060808a0135613ead81613e3f565b945060a08a0135613ebd81613d85565b935060c08a013561ffff81168114613ed457600080fd5b925060e08a0135613ee481613e51565b91506101008a0135613ef581613e3f565b809150509295985092959850929598565b60008060408385031215613f1957600080fd5b823591506020830135613f2b81613d85565b809150509250929050565b60008060408385031215613f4957600080fd5b50508035926020909101359150565b60008060408385031215613f6b57600080fd5b823591506020830135613f2b81613e3f565b634e487b7160e01b600052604160045260246000fd5b60405160a081016001600160401b0381118282101715613fb557613fb5613f7d565b60405290565b604051601f8201601f191681016001600160401b0381118282101715613fe357613fe3613f7d565b604052919050565b60006001600160401b0383111561400457614004613f7d565b614017601f8401601f1916602001613fbb565b905082815283838301111561402b57600080fd5b828260208301376000602084830101529392505050565b6000806040838503121561405557600080fd5b823561406081613d85565b915060208301356001600160401b0381111561407b57600080fd5b8301601f8101851361408c57600080fd5b61409b85823560208401613feb565b9150509250929050565b600061018082840312156140b857600080fd5b50919050565b600080602083850312156140d157600080fd5b82356001600160401b03808211156140e857600080fd5b818501915085601f8301126140fc57600080fd5b81358181111561410b57600080fd5b8660206101808302850101111561412157600080fd5b60209290920196919550909350505050565b60008060008060006080868803121561414b57600080fd5b85359450602086013593506040860135925060608601356001600160401b038082111561417757600080fd5b818801915088601f83011261418b57600080fd5b81358181111561419a57600080fd5b8960208285010111156141ac57600080fd5b9699959850939650602001949392505050565b634e487b7160e01b600052602160045260246000fd5b600481106141f357634e487b7160e01b600052602160045260246000fd5b9052565b815163ffffffff1681526101808101602083015161421d602084018263ffffffff169052565b506040830151614235604084018263ffffffff169052565b50606083015161424d606084018263ffffffff169052565b506080830151614265608084018263ffffffff169052565b5060a083015161427d60a084018263ffffffff169052565b5060c083015161429560c084018263ffffffff169052565b5060e08301516142a860e08401826141d5565b50610100838101516001600160a01b0316908301526101208084015190830152610140808401519083015261016092830151929091019190915290565b600080602083850312156142f857600080fd5b82356001600160401b038082111561430f57600080fd5b818501915085601f83011261432357600080fd5b81358181111561433257600080fd5b8660208260051b850101111561412157600080fd5b60008060006060848603121561435c57600080fd5b505081359360208301359350604090920135919050565b6020808252825182820181905260009190848201906040850190845b818110156143b45783516001600160a01b03168352928401929184019160010161438f565b50909695505050505050565b60006001600160401b038211156143d9576143d9613f7d565b5060051b60200190565b600082601f8301126143f457600080fd5b81356020614409614404836143c0565b613fbb565b82815260059290921b8401810191818101908684111561442857600080fd5b8286015b84811015614443578035835291830191830161442c565b509695505050505050565b60008060006060848603121561446357600080fd5b83356001600160401b038082111561447a57600080fd5b818601915086601f83011261448e57600080fd5b8135602061449e614404836143c0565b82815260059290921b8401810191818101908a8411156144bd57600080fd5b948201945b838610156144e45785356144d581613d85565b825294820194908201906144c2565b975050870135945050604086013591508082111561450157600080fd5b5061450e868287016143e3565b9150509250925092565b6000806000806080858703121561452e57600080fd5b843561453981613d85565b9350602085013561454981613d85565b9250604085013561455981613d85565b9150606085013561456981613d85565b939692955090935050565b60006020828403121561458657600080fd5b81518015158114612af957600080fd5b60208082526010908201526f41646d696e2063616c6c73206f6e6c7960801b604082015260600190565b634e487b7160e01b600052601160045260246000fd5b6000828210156145e8576145e86145c0565b500390565b600060a082360312156145ff57600080fd5b614607613f93565b82358152602083013561461981613d85565b60208201526040838101359082015260608301356001600160401b038082111561464257600080fd5b9084019036601f83011261465557600080fd5b61466436833560208501613feb565b6060840152608085013591508082111561467d57600080fd5b5061468a368286016143e3565b60808301525092915050565b6000808335601e198436030181126146ad57600080fd5b8301803591506001600160401b038211156146c757600080fd5b6020019150600581901b36038213156138c757600080fd5b60008160001904831182151516156146f9576146f96145c0565b500290565b60008261471b57634e487b7160e01b600052601260045260246000fd5b500490565b60006020828403121561473257600080fd5b8151612af981613d85565b6000808335601e1984360301811261475457600080fd5b8301803591506001600160401b0382111561476e57600080fd5b6020019150368190038213156138c757600080fd5b6001600160a01b03841681526040602082018190528101829052818360608301376000818301606090810191909152601f909201601f1916010192915050565b60208082526023908201527f436c6f73652074696d65206d7573742062652061667465722073746172742074604082015262696d6560e81b606082015260800190565b6020808252602c908201527f46756e6374696f6e206d7573742062652063616c6c6564207468726f7567682060408201526b19195b1959d85d1958d85b1b60a21b606082015260800190565b6020808252602c908201527f46756e6374696f6e206d7573742062652063616c6c6564207468726f7567682060408201526b6163746976652070726f787960a01b606082015260800190565b6000602082840312156148b057600080fd5b8135612af981613e3f565b600081356148c881613e3f565b92915050565b600081356148c881613e51565b600482106148f957634e487b7160e01b600052602160045260246000fd5b805460ff60e01b191660e09290921b60ff60e01b16919091179055565b600081356148c881613d85565b61494661492f836148bb565b825463ffffffff191663ffffffff91909116178255565b614977614955602084016148bb565b825467ffffffff00000000191660209190911b67ffffffff0000000016178255565b6149b0614986604084016148bb565b82546bffffffff0000000000000000191660409190911b6bffffffff000000000000000016178255565b6149e36149bf606084016148bb565b82805463ffffffff60601b191660609290921b63ffffffff60601b16919091179055565b614a166149f2608084016148bb565b82805463ffffffff60801b191660809290921b63ffffffff60801b16919091179055565b614a49614a2560a084016148bb565b82805463ffffffff60a01b191660a09290921b63ffffffff60a01b16919091179055565b614a7c614a5860c084016148bb565b82805463ffffffff60c01b191660c09290921b63ffffffff60c01b16919091179055565b614a91614a8b60e084016148ce565b826148db565b614ac5614aa16101008401614916565b6001830180546001600160a01b0319166001600160a01b0392909216919091179055565b6101208201356002820155610140820135600382015561016082013560048201555050565b634e487b7160e01b600052603260045260246000fd5b600060018201614b1257614b126145c0565b5060010190565b600060208284031215614b2b57600080fd5b5051919050565b60008219821115614b4557614b456145c0565b500190565b600063ffffffff808316818516808303821115614b6957614b696145c0565b01949350505050565b600063ffffffff808316818103614b8b57614b8b6145c0565b6001019392505050565b60008235609e19833603018112614bab57600080fd5b9190910192915050565b60005b83811015614bd0578181015183820152602001614bb8565b8381111561213c5750506000910152565b60008151808452614bf9816020860160208601614bb5565b601f01601f19169290920160200192915050565b84815260018060a01b0384166020820152826040820152608060608201526000614c3a6080830184614be1565b9695505050505050565b6020808252602b908201527f496e697469616c697a61626c653a20636f6e7472616374206973206e6f74206960408201526a6e697469616c697a696e6760a81b606082015260800190565b60008251614bab818460208701614bb5565b602081526000612af96020830184614be156fea3aca9ae20a0379d4094b84c749cbed6584ab20f0b71af75f63f6615d879c939360894a13ba1a3210667c828492db98dca3e2076cc3735a920a3ca505d382bbc416464726573733a206c6f772d6c6576656c2064656c65676174652063616c6c206661696c6564e303cb88ace8c9e6ba216f1aecb44b3206dcab364c60512ffc6cbc920a1bf9d1a26469706673582212207507c0fa2754f8b30ebefc11e3736c72aa871e589b65dac4a162196fda5fe6aa64736f6c634300080e0033",
  "linkReferences": {},
  "deployedLinkReferences": {}
}