{
  "_format": "hh-sol-artifact-1",
  "contractName": "Lottery",
  "sourceName": "contracts/Lottery/Lottery.sol",
  "abi": [
    {
      "anonymous": false,
      "inputs": [
        {
          "indexed": false,
          "internalType": "address",
          "name": "previousAdmin",
          "type": "address"
        },
        {
          "indexed": false,
          "internalType": "address",
          "name": "newAdmin",
          "type": "address"
        }
      ],
      "name": "AdminChanged",
      "type": "event"
    },
    {
      "anonymous": false,
      "inputs": [
        {
          "indexed": true,
          "internalType": "address",
          "name": "beacon",
          "type": "address"
        }
      ],
      "name": "BeaconUpgraded",
      "type": "event"
    },
    {
      "anonymous": false,
      "inputs": [
        {
          "indexed": false,
          "internalType": "uint8",
          "name": "version",
          "type": "uint8"
        }
      ],
      "name": "Initialized",
      "type": "event"
    },
    {
      "anonymous": false,
      "inputs": [
        {
          "indexed": true,
          "internalType": "uint256",
          "name": "lotteryId",
          "type": "uint256"
        },
        {
          "indexed": true,
          "internalType": "enum Lottery.Status",
          "name": "status",
          "type": "uint8"
        }
      ],
      "name": "LotteryStatusChanged",
      "type": "event"
    },
    {
      "anonymous": false,
      "inputs": [
        {
          "indexed": false,
          "internalType": "address",
          "name": "account",
          "type": "address"
        }
      ],
      "name": "Paused",
      "type": "event"
    },
    {
      "anonymous": false,
      "inputs": [
        {
          "indexed": true,
          "internalType": "uint256",
          "name": "lotteryId",
          "type": "uint256"
        },
        {
          "indexed": true,
          "internalType": "address",
          "name": "participantAddress",
          "type": "address"
        },
        {
          "indexed": true,
          "internalType": "uint256",
          "name": "prizeId",
          "type": "uint256"
        }
      ],
      "name": "PrizeClaimed",
      "type": "event"
    },
    {
      "anonymous": false,
      "inputs": [
        {
          "indexed": true,
          "internalType": "uint256",
          "name": "lotteryId",
          "type": "uint256"
        },
        {
          "indexed": true,
          "internalType": "address",
          "name": "participantAddress",
          "type": "address"
        },
        {
          "indexed": false,
          "internalType": "uint256",
          "name": "refundAmount",
          "type": "uint256"
        }
      ],
      "name": "Refunded",
      "type": "event"
    },
    {
      "anonymous": false,
      "inputs": [
        {
          "indexed": true,
          "internalType": "uint256",
          "name": "lotteryId",
          "type": "uint256"
        },
        {
          "indexed": true,
          "internalType": "bytes32",
          "name": "requestId",
          "type": "bytes32"
        }
      ],
      "name": "RequestNumbers",
      "type": "event"
    },
    {
      "anonymous": false,
      "inputs": [
        {
          "indexed": true,
          "internalType": "bytes32",
          "name": "requestId",
          "type": "bytes32"
        }
      ],
      "name": "ResponseReceived",
      "type": "event"
    },
    {
      "anonymous": false,
      "inputs": [
        {
          "indexed": true,
          "internalType": "bytes32",
          "name": "role",
          "type": "bytes32"
        },
        {
          "indexed": true,
          "internalType": "bytes32",
          "name": "previousAdminRole",
          "type": "bytes32"
        },
        {
          "indexed": true,
          "internalType": "bytes32",
          "name": "newAdminRole",
          "type": "bytes32"
        }
      ],
      "name": "RoleAdminChanged",
      "type": "event"
    },
    {
      "anonymous": false,
      "inputs": [
        {
          "indexed": true,
          "internalType": "bytes32",
          "name": "role",
          "type": "bytes32"
        },
        {
          "indexed": true,
          "internalType": "address",
          "name": "account",
          "type": "address"
        },
        {
          "indexed": true,
          "internalType": "address",
          "name": "sender",
          "type": "address"
        }
      ],
      "name": "RoleGranted",
      "type": "event"
    },
    {
      "anonymous": false,
      "inputs": [
        {
          "indexed": true,
          "internalType": "bytes32",
          "name": "role",
          "type": "bytes32"
        },
        {
          "indexed": true,
          "internalType": "address",
          "name": "account",
          "type": "address"
        },
        {
          "indexed": true,
          "internalType": "address",
          "name": "sender",
          "type": "address"
        }
      ],
      "name": "RoleRevoked",
      "type": "event"
    },
    {
      "anonymous": false,
      "inputs": [
        {
          "indexed": false,
          "internalType": "address",
          "name": "operator",
          "type": "address"
        },
        {
          "indexed": false,
          "internalType": "uint256",
          "name": "lotteryId",
          "type": "uint256"
        },
        {
          "indexed": false,
          "internalType": "uint256",
          "name": "priceOfTicket",
          "type": "uint256"
        }
      ],
      "name": "TicketCostChanged",
      "type": "event"
    },
    {
      "anonymous": false,
      "inputs": [
        {
          "indexed": true,
          "internalType": "uint256",
          "name": "lotteryId",
          "type": "uint256"
        },
        {
          "indexed": false,
          "internalType": "uint256",
          "name": "ticketNumber",
          "type": "uint256"
        },
        {
          "indexed": true,
          "internalType": "address",
          "name": "participantAddress",
          "type": "address"
        }
      ],
      "name": "TicketSold",
      "type": "event"
    },
    {
      "anonymous": false,
      "inputs": [
        {
          "indexed": false,
          "internalType": "address",
          "name": "account",
          "type": "address"
        }
      ],
      "name": "Unpaused",
      "type": "event"
    },
    {
      "anonymous": false,
      "inputs": [
        {
          "indexed": true,
          "internalType": "address",
          "name": "implementation",
          "type": "address"
        }
      ],
      "name": "Upgraded",
      "type": "event"
    },
    {
      "inputs": [],
      "name": "DEFAULT_ADMIN_ROLE",
      "outputs": [
        {
          "internalType": "bytes32",
          "name": "",
          "type": "bytes32"
        }
      ],
      "stateMutability": "view",
      "type": "function"
    },
    {
      "inputs": [
        {
          "internalType": "uint256",
          "name": "_lotteryId",
          "type": "uint256"
        }
      ],
      "name": "askForRefund",
      "outputs": [],
      "stateMutability": "nonpayable",
      "type": "function"
    },
    {
      "inputs": [
        {
          "internalType": "uint256",
          "name": "_lotteryId",
          "type": "uint256"
        },
        {
          "internalType": "uint256",
          "name": "_numberOfTicketsToBuy",
          "type": "uint256"
        }
      ],
      "name": "buyTickets",
      "outputs": [],
      "stateMutability": "nonpayable",
      "type": "function"
    },
    {
      "inputs": [
        {
          "internalType": "uint256",
          "name": "_points",
          "type": "uint256"
        },
        {
          "internalType": "uint256",
          "name": "_lotteryId",
          "type": "uint256"
        },
        {
          "internalType": "uint256",
          "name": "_numberOfTicketsToBuy",
          "type": "uint256"
        },
        {
          "internalType": "bytes",
          "name": "_sig",
          "type": "bytes"
        }
      ],
      "name": "buyTicketsWithSignedMessage",
      "outputs": [],
      "stateMutability": "nonpayable",
      "type": "function"
    },
    {
      "inputs": [
        {
          "internalType": "uint256",
          "name": "_lotteryId",
          "type": "uint256"
        }
      ],
      "name": "cancelLottery",
      "outputs": [],
      "stateMutability": "nonpayable",
      "type": "function"
    },
    {
      "inputs": [
        {
          "internalType": "uint256",
          "name": "_lotteryId",
          "type": "uint256"
        },
        {
          "internalType": "uint32",
          "name": "_time",
          "type": "uint32"
        }
      ],
      "name": "changeCloseTime",
      "outputs": [],
      "stateMutability": "nonpayable",
      "type": "function"
    },
    {
      "inputs": [
        {
          "internalType": "uint256",
          "name": "_lotteryId",
          "type": "uint256"
        },
        {
          "internalType": "address",
          "name": "_winner",
          "type": "address"
        },
        {
          "internalType": "uint256",
          "name": "_prizeId",
          "type": "uint256"
        },
        {
          "internalType": "string",
          "name": "_uri",
          "type": "string"
        },
        {
          "internalType": "bytes32[]",
          "name": "_proof",
          "type": "bytes32[]"
        }
      ],
      "name": "claimPrize",
      "outputs": [],
      "stateMutability": "nonpayable",
      "type": "function"
    },
    {
      "inputs": [
        {
          "internalType": "uint256",
          "name": "",
          "type": "uint256"
        },
        {
          "internalType": "uint256",
          "name": "",
          "type": "uint256"
        }
      ],
      "name": "claimedPrizes",
      "outputs": [
        {
          "internalType": "bool",
          "name": "",
          "type": "bool"
        }
      ],
      "stateMutability": "view",
      "type": "function"
    },
    {
      "inputs": [
        {
          "internalType": "uint256",
          "name": "_lotteryId",
          "type": "uint256"
        },
        {
          "internalType": "uint256",
          "name": "_ticketCostPoints",
          "type": "uint256"
        },
        {
          "internalType": "uint256",
          "name": "_ticketCostTokens",
          "type": "uint256"
        },
        {
          "internalType": "uint32",
          "name": "_startTime",
          "type": "uint32"
        },
        {
          "internalType": "uint32",
          "name": "_closeTime",
          "type": "uint32"
        },
        {
          "internalType": "contract INFT",
          "name": "_nftContract",
          "type": "address"
        },
        {
          "internalType": "bool",
          "name": "_isRefundable",
          "type": "bool"
        },
        {
          "internalType": "uint16",
          "name": "_maxTickets",
          "type": "uint16"
        },
        {
          "internalType": "uint16",
          "name": "_maxTicketsPerUser",
          "type": "uint16"
        },
        {
          "internalType": "uint128",
          "name": "_firstPrizeId",
          "type": "uint128"
        },
        {
          "internalType": "uint128",
          "name": "_lastPrizeId",
          "type": "uint128"
        }
      ],
      "name": "createLottery",
      "outputs": [],
      "stateMutability": "nonpayable",
      "type": "function"
    },
    {
      "inputs": [],
      "name": "getLotteryCount",
      "outputs": [
        {
          "internalType": "uint256",
          "name": "",
          "type": "uint256"
        }
      ],
      "stateMutability": "view",
      "type": "function"
    },
    {
      "inputs": [
        {
          "internalType": "uint256",
          "name": "_lotteryId",
          "type": "uint256"
        }
      ],
      "name": "getLotteryInfo",
      "outputs": [
        {
          "components": [
            {
              "internalType": "uint32",
              "name": "startTime",
              "type": "uint32"
            },
            {
              "internalType": "uint32",
              "name": "closeTime",
              "type": "uint32"
            },
            {
              "internalType": "uint32",
              "name": "participantsCount",
              "type": "uint32"
            },
            {
              "internalType": "uint32",
              "name": "maxTickets",
              "type": "uint32"
            },
            {
              "internalType": "uint32",
              "name": "maxTicketsPerUser",
              "type": "uint32"
            },
            {
              "internalType": "uint32",
              "name": "numberOfTicketsSold",
              "type": "uint32"
            },
            {
              "internalType": "enum Lottery.Status",
              "name": "status",
              "type": "uint8"
            },
            {
              "internalType": "contract INFT",
              "name": "nftContract",
              "type": "address"
            },
            {
              "internalType": "bool",
              "name": "isRefundable",
              "type": "bool"
            },
            {
              "internalType": "uint128",
              "name": "firstPrizeId",
              "type": "uint128"
            },
            {
              "internalType": "uint128",
              "name": "lastPrizeId",
              "type": "uint128"
            },
            {
              "internalType": "uint256",
              "name": "lotteryID",
              "type": "uint256"
            },
            {
              "internalType": "uint256",
              "name": "ticketCostPoints",
              "type": "uint256"
            },
            {
              "internalType": "uint256",
              "name": "ticketCostTokens",
              "type": "uint256"
            }
          ],
          "internalType": "struct Lottery.LotteryInfo",
          "name": "",
          "type": "tuple"
        }
      ],
      "stateMutability": "view",
      "type": "function"
    },
    {
      "inputs": [
        {
          "internalType": "uint256",
          "name": "_lotteryId",
          "type": "uint256"
        }
      ],
      "name": "getLotteryTicketCount",
      "outputs": [
        {
          "internalType": "uint256",
          "name": "",
          "type": "uint256"
        }
      ],
      "stateMutability": "view",
      "type": "function"
    },
    {
      "inputs": [
        {
          "internalType": "uint256",
          "name": "_lotteryId",
          "type": "uint256"
        },
        {
          "internalType": "uint256",
          "name": "_from",
          "type": "uint256"
        },
        {
          "internalType": "uint256",
          "name": "_to",
          "type": "uint256"
        }
      ],
      "name": "getLotteryTickets",
      "outputs": [
        {
          "components": [
            {
              "internalType": "uint256",
              "name": "ticketCostInCoins",
              "type": "uint256"
            },
            {
              "internalType": "address",
              "name": "owner",
              "type": "address"
            }
          ],
          "internalType": "struct Lottery.Ticket[]",
          "name": "",
          "type": "tuple[]"
        }
      ],
      "stateMutability": "view",
      "type": "function"
    },
    {
      "inputs": [
        {
          "internalType": "address",
          "name": "_participant",
          "type": "address"
        }
      ],
      "name": "getParticipantHistory",
      "outputs": [
        {
          "internalType": "uint256[]",
          "name": "",
          "type": "uint256[]"
        }
      ],
      "stateMutability": "view",
      "type": "function"
    },
    {
      "inputs": [
        {
          "internalType": "uint256",
          "name": "_lotteryId",
          "type": "uint256"
        }
      ],
      "name": "getParticipantsCount",
      "outputs": [
        {
          "internalType": "uint32",
          "name": "",
          "type": "uint32"
        }
      ],
      "stateMutability": "view",
      "type": "function"
    },
    {
      "inputs": [
        {
          "internalType": "uint256",
          "name": "_lotteryId",
          "type": "uint256"
        },
        {
          "internalType": "address",
          "name": "_user",
          "type": "address"
        }
      ],
      "name": "getRefundableCoinBalance",
      "outputs": [
        {
          "internalType": "uint256",
          "name": "",
          "type": "uint256"
        }
      ],
      "stateMutability": "view",
      "type": "function"
    },
    {
      "inputs": [
        {
          "internalType": "bytes32",
          "name": "role",
          "type": "bytes32"
        }
      ],
      "name": "getRoleAdmin",
      "outputs": [
        {
          "internalType": "bytes32",
          "name": "",
          "type": "bytes32"
        }
      ],
      "stateMutability": "view",
      "type": "function"
    },
    {
      "inputs": [
        {
          "internalType": "uint256",
          "name": "_lotteryId",
          "type": "uint256"
        },
        {
          "internalType": "address",
          "name": "_user",
          "type": "address"
        }
      ],
      "name": "getTicketCountPerUser",
      "outputs": [
        {
          "internalType": "uint256",
          "name": "",
          "type": "uint256"
        }
      ],
      "stateMutability": "view",
      "type": "function"
    },
    {
      "inputs": [
        {
          "internalType": "uint256",
          "name": "_lotteryId",
          "type": "uint256"
        }
      ],
      "name": "getWhitelist",
      "outputs": [
        {
          "internalType": "address",
          "name": "",
          "type": "address"
        }
      ],
      "stateMutability": "view",
      "type": "function"
    },
    {
      "inputs": [
        {
          "internalType": "bytes32",
          "name": "role",
          "type": "bytes32"
        },
        {
          "internalType": "address",
          "name": "account",
          "type": "address"
        }
      ],
      "name": "grantRole",
      "outputs": [],
      "stateMutability": "nonpayable",
      "type": "function"
    },
    {
      "inputs": [
        {
          "internalType": "bytes32",
          "name": "role",
          "type": "bytes32"
        },
        {
          "internalType": "address",
          "name": "account",
          "type": "address"
        }
      ],
      "name": "hasRole",
      "outputs": [
        {
          "internalType": "bool",
          "name": "",
          "type": "bool"
        }
      ],
      "stateMutability": "view",
      "type": "function"
    },
    {
      "inputs": [
        {
          "internalType": "address",
          "name": "_rewardsContract",
          "type": "address"
        },
        {
          "internalType": "address",
          "name": "_admin",
          "type": "address"
        },
        {
          "internalType": "address",
          "name": "_token",
          "type": "address"
        }
      ],
      "name": "initialize",
      "outputs": [],
      "stateMutability": "nonpayable",
      "type": "function"
    },
    {
      "inputs": [
        {
          "internalType": "uint256",
          "name": "",
          "type": "uint256"
        }
      ],
      "name": "lotteries",
      "outputs": [
        {
          "internalType": "uint256",
          "name": "",
          "type": "uint256"
        }
      ],
      "stateMutability": "view",
      "type": "function"
    },
    {
      "inputs": [
        {
          "internalType": "uint256",
          "name": "",
          "type": "uint256"
        },
        {
          "internalType": "uint256",
          "name": "",
          "type": "uint256"
        }
      ],
      "name": "lotteryTickets",
      "outputs": [
        {
          "internalType": "uint256",
          "name": "ticketCostInCoins",
          "type": "uint256"
        },
        {
          "internalType": "address",
          "name": "owner",
          "type": "address"
        }
      ],
      "stateMutability": "view",
      "type": "function"
    },
    {
      "inputs": [
        {
          "internalType": "uint256",
          "name": "",
          "type": "uint256"
        },
        {
          "internalType": "address",
          "name": "",
          "type": "address"
        }
      ],
      "name": "participants",
      "outputs": [
        {
          "internalType": "uint16",
          "name": "totalTicketsBought",
          "type": "uint16"
        },
        {
          "internalType": "bool",
          "name": "claimedPrize",
          "type": "bool"
        },
        {
          "internalType": "uint256",
          "name": "refundablePoints",
          "type": "uint256"
        },
        {
          "internalType": "uint256",
          "name": "refundableValue",
          "type": "uint256"
        }
      ],
      "stateMutability": "view",
      "type": "function"
    },
    {
      "inputs": [],
      "name": "pause",
      "outputs": [],
      "stateMutability": "nonpayable",
      "type": "function"
    },
    {
      "inputs": [],
      "name": "paused",
      "outputs": [
        {
          "internalType": "bool",
          "name": "",
          "type": "bool"
        }
      ],
      "stateMutability": "view",
      "type": "function"
    },
    {
      "inputs": [
        {
          "internalType": "uint256",
          "name": "_lotteryId",
          "type": "uint256"
        },
        {
          "internalType": "uint256",
          "name": "_ticketNumber",
          "type": "uint256"
        }
      ],
      "name": "prizeClaimed",
      "outputs": [
        {
          "internalType": "bool",
          "name": "",
          "type": "bool"
        }
      ],
      "stateMutability": "view",
      "type": "function"
    },
    {
      "inputs": [
        {
          "internalType": "uint256",
          "name": "",
          "type": "uint256"
        }
      ],
      "name": "prizeMerkleRoots",
      "outputs": [
        {
          "internalType": "bytes32",
          "name": "",
          "type": "bytes32"
        }
      ],
      "stateMutability": "view",
      "type": "function"
    },
    {
      "inputs": [],
      "name": "proxiableUUID",
      "outputs": [
        {
          "internalType": "bytes32",
          "name": "",
          "type": "bytes32"
        }
      ],
      "stateMutability": "view",
      "type": "function"
    },
    {
      "inputs": [],
      "name": "randomGenerator",
      "outputs": [
        {
          "internalType": "contract IRandomNumberGenerator",
          "name": "",
          "type": "address"
        }
      ],
      "stateMutability": "view",
      "type": "function"
    },
    {
      "inputs": [
        {
          "internalType": "uint256",
          "name": "",
          "type": "uint256"
        }
      ],
      "name": "randomSeeds",
      "outputs": [
        {
          "internalType": "uint256",
          "name": "",
          "type": "uint256"
        }
      ],
      "stateMutability": "view",
      "type": "function"
    },
    {
      "inputs": [
        {
          "internalType": "uint256",
          "name": "_lotteryId",
          "type": "uint256"
        },
        {
          "internalType": "bytes32",
          "name": "_requestId",
          "type": "bytes32"
        },
        {
          "internalType": "uint256",
          "name": "_randomNumber",
          "type": "uint256"
        }
      ],
      "name": "receiveRandomNumber",
      "outputs": [],
      "stateMutability": "nonpayable",
      "type": "function"
    },
    {
      "inputs": [
        {
          "internalType": "bytes32",
          "name": "role",
          "type": "bytes32"
        },
        {
          "internalType": "address",
          "name": "account",
          "type": "address"
        }
      ],
      "name": "renounceRole",
      "outputs": [],
      "stateMutability": "nonpayable",
      "type": "function"
    },
    {
      "inputs": [
        {
          "internalType": "uint256",
          "name": "_lotteryId",
          "type": "uint256"
        }
      ],
      "name": "requestRandomNumber",
      "outputs": [],
      "stateMutability": "nonpayable",
      "type": "function"
    },
    {
      "inputs": [
        {
          "internalType": "bytes32",
          "name": "role",
          "type": "bytes32"
        },
        {
          "internalType": "address",
          "name": "account",
          "type": "address"
        }
      ],
      "name": "revokeRole",
      "outputs": [],
      "stateMutability": "nonpayable",
      "type": "function"
    },
    {
      "inputs": [],
      "name": "rewardsContract",
      "outputs": [
        {
          "internalType": "contract IRewards",
          "name": "",
          "type": "address"
        }
      ],
      "stateMutability": "view",
      "type": "function"
    },
    {
      "inputs": [
        {
          "internalType": "uint256",
          "name": "_lotteryId",
          "type": "uint256"
        },
        {
          "internalType": "uint32",
          "name": "_maxTickets",
          "type": "uint32"
        }
      ],
      "name": "setMaxTickets",
      "outputs": [],
      "stateMutability": "nonpayable",
      "type": "function"
    },
    {
      "inputs": [
        {
          "internalType": "uint256",
          "name": "_lotteryId",
          "type": "uint256"
        },
        {
          "internalType": "uint32",
          "name": "_maxTicketsPerUser",
          "type": "uint32"
        }
      ],
      "name": "setMaxTicketsPerUser",
      "outputs": [],
      "stateMutability": "nonpayable",
      "type": "function"
    },
    {
      "inputs": [
        {
          "internalType": "uint256",
          "name": "_lotteryId",
          "type": "uint256"
        },
        {
          "internalType": "bytes32",
          "name": "_root",
          "type": "bytes32"
        }
      ],
      "name": "setPrizeMerkleRoot",
      "outputs": [],
      "stateMutability": "nonpayable",
      "type": "function"
    },
    {
      "inputs": [
        {
          "internalType": "address",
          "name": "_IRandomNumberGenerator",
          "type": "address"
        }
      ],
      "name": "setRandomGenerator",
      "outputs": [],
      "stateMutability": "nonpayable",
      "type": "function"
    },
    {
      "inputs": [
        {
          "internalType": "address",
          "name": "_rewardsContract",
          "type": "address"
        }
      ],
      "name": "setRewardsContract",
      "outputs": [],
      "stateMutability": "nonpayable",
      "type": "function"
    },
    {
      "inputs": [
        {
          "internalType": "address",
          "name": "_signer",
          "type": "address"
        }
      ],
      "name": "setSignerAddress",
      "outputs": [],
      "stateMutability": "nonpayable",
      "type": "function"
    },
    {
      "inputs": [
        {
          "internalType": "address",
          "name": "_token",
          "type": "address"
        }
      ],
      "name": "setToken",
      "outputs": [],
      "stateMutability": "nonpayable",
      "type": "function"
    },
    {
      "inputs": [
        {
          "internalType": "uint256",
          "name": "_lotteryId",
          "type": "uint256"
        },
        {
          "internalType": "address",
          "name": "_whitelist",
          "type": "address"
        }
      ],
      "name": "setWhitelist",
      "outputs": [],
      "stateMutability": "nonpayable",
      "type": "function"
    },
    {
      "inputs": [],
      "name": "signerAddress",
      "outputs": [
        {
          "internalType": "address",
          "name": "",
          "type": "address"
        }
      ],
      "stateMutability": "view",
      "type": "function"
    },
    {
      "inputs": [
        {
          "internalType": "bytes4",
          "name": "interfaceId",
          "type": "bytes4"
        }
      ],
      "name": "supportsInterface",
      "outputs": [
        {
          "internalType": "bool",
          "name": "",
          "type": "bool"
        }
      ],
      "stateMutability": "view",
      "type": "function"
    },
    {
      "inputs": [],
      "name": "token",
      "outputs": [
        {
          "internalType": "contract IERC20",
          "name": "",
          "type": "address"
        }
      ],
      "stateMutability": "view",
      "type": "function"
    },
    {
      "inputs": [],
      "name": "unpause",
      "outputs": [],
      "stateMutability": "nonpayable",
      "type": "function"
    },
    {
      "inputs": [
        {
          "internalType": "uint256",
          "name": "lotteryId",
          "type": "uint256"
        },
        {
          "internalType": "uint256",
          "name": "_ticketCostPoints",
          "type": "uint256"
        },
        {
          "internalType": "uint256",
          "name": "_ticketCostTokens",
          "type": "uint256"
        },
        {
          "internalType": "uint32",
          "name": "_startTime",
          "type": "uint32"
        },
        {
          "internalType": "uint32",
          "name": "_closeTime",
          "type": "uint32"
        },
        {
          "internalType": "contract INFT",
          "name": "_nftContract",
          "type": "address"
        },
        {
          "internalType": "uint16",
          "name": "_maxTickets",
          "type": "uint16"
        },
        {
          "internalType": "enum Lottery.Status",
          "name": "_status",
          "type": "uint8"
        },
        {
          "internalType": "bool",
          "name": "_isRefundable",
          "type": "bool"
        },
        {
          "internalType": "uint128",
          "name": "_firstPrizeId",
          "type": "uint128"
        },
        {
          "internalType": "uint128",
          "name": "_lastPrizeId",
          "type": "uint128"
        }
      ],
      "name": "updateLottery",
      "outputs": [],
      "stateMutability": "nonpayable",
      "type": "function"
    },
    {
      "inputs": [
        {
          "internalType": "address",
          "name": "newImplementation",
          "type": "address"
        }
      ],
      "name": "upgradeTo",
      "outputs": [],
      "stateMutability": "nonpayable",
      "type": "function"
    },
    {
      "inputs": [
        {
          "internalType": "address",
          "name": "newImplementation",
          "type": "address"
        },
        {
          "internalType": "bytes",
          "name": "data",
          "type": "bytes"
        }
      ],
      "name": "upgradeToAndCall",
      "outputs": [],
      "stateMutability": "payable",
      "type": "function"
    },
    {
      "inputs": [
        {
          "internalType": "uint256",
          "name": "",
          "type": "uint256"
        }
      ],
      "name": "whitelists",
      "outputs": [
        {
          "internalType": "address",
          "name": "",
          "type": "address"
        }
      ],
      "stateMutability": "view",
      "type": "function"
    },
    {
      "inputs": [
        {
          "internalType": "address",
          "name": "_to",
          "type": "address"
        },
        {
          "internalType": "uint256",
          "name": "_amount",
          "type": "uint256"
        }
      ],
      "name": "withdraw",
      "outputs": [],
      "stateMutability": "nonpayable",
      "type": "function"
    },
    {
      "inputs": [
        {
          "internalType": "uint256",
          "name": "",
          "type": "uint256"
        }
      ],
      "name": "withdrawals",
      "outputs": [
        {
          "internalType": "uint256",
          "name": "",
          "type": "uint256"
        }
      ],
      "stateMutability": "view",
      "type": "function"
    }
  ],
  "bytecode": "0x60a08060405234610031573060805261491c908161003782396080518181816109e001528181610fc701526110880152f35b600080fdfe60806040526004361015610013575b600080fd5b60003560e01c806301ffc9a71461045657806302e060c61461044d578063046dc166146104445780631398e0761461043b578063144fa6d714610432578063220cce97146104295780632368040014610420578063248a9ca314610417578063289906831461040e5780632f2ff15d146104055780632f9aa1fe146103fc57806336568abe146103f35780633659cfe6146103ea5780633f4ba83a146103e157806340cf23d9146103d85780634538f297146103cf57806349c0de88146103c65780634a004467146103bd5780634bc19fee146103b45780634f1ef286146103ab57806350612da6146103a257806352d1902d146103995780635b7633d0146103905780635c975abb146103875780635cc070761461037e5780636131dee6146103755780636a6be3151461036c5780637350ab2c1461036357806376b3c8a81461035a57806378a03c47146103515780637ccbe57b146103485780638456cb591461033f5780638627df461461033657806391d148541461032d57806396db752a146103245780639b7fecc31461031b578063a217fddf14610312578063a6c76bdf14610309578063b1eb96c914610300578063bf4002b2146102f7578063c0c53b8b146102ee578063c11ab615146102e5578063d098a2f0146102dc578063d225428f146102d3578063d547741f146102ca578063d89da286146102c1578063db2c0fd11461028b578063dcbad90d146102b8578063dfa0dfa5146102af578063ec909ce2146102a6578063f3fef3a31461029d578063f5f4899814610294578063f90328d51461028b578063fc0c546a146102825763fe4d5add1461027a57600080fd5b61000e6119b9565b5061000e612459565b5061000e6120bb565b5061000e612422565b5061000e612367565b5061000e61218f565b5061000e612127565b5061000e6120fc565b5061000e612041565b5061000e611ffe565b5061000e611f7a565b5061000e611f4c565b5061000e611f15565b5061000e611ddc565b5061000e611d62565b5061000e611be0565b5061000e611b67565b5061000e611b4a565b5061000e611a42565b5061000e6119b9565b5061000e611962565b5061000e611869565b5061000e6117e8565b5061000e61176a565b5061000e61169c565b5061000e6115bd565b5061000e6112ef565b5061000e6111ee565b5061000e6111bb565b5061000e61118d565b5061000e611169565b5061000e61113e565b5061000e611074565b5061000e611022565b5061000e610f6c565b5061000e610da2565b5061000e610d23565b5061000e610c91565b5061000e610b91565b5061000e610b3a565b5061000e610a81565b5061000e6109b2565b5061000e610919565b5061000e6108f9565b5061000e610828565b5061000e61070c565b5061000e6106dc565b5061000e6106ae565b5061000e610683565b5061000e610610565b5061000e6105bd565b5061000e61053b565b5061000e6104be565b503461000e57602036600319011261000e5760043563ffffffff60e01b811680910361000e57602090637965db0b60e01b811490811561049c575b506040519015158152f35b6301ffc9a760e01b14905038610491565b6001600160a01b0381160361000e57565b503461000e57604036600319011261000e5760806105096024356104e1816104ad565b60043560005261013860205260406000209060018060a01b0316600052602052604060002090565b805490600260018201549101549060ff6040519361ffff8116855260101c161515602084015260408301526060820152f35b503461000e57602036600319011261000e57600435610559816104ad565b336000908152600080516020614887833981519152602052604090206105849060ff905b541661301a565b61012e80546001600160a01b0319166001600160a01b03909216919091179055005b50634e487b7160e01b600052603260045260246000fd5b503461000e57602036600319011261000e5760043561013290815481101561000e576020916000527fc53bdfd4aa1ab65dfdaf681ca6bda958ae4a123d4ed68c4277796592280e78350154604051908152f35b503461000e57602036600319011261000e5760043561062e816104ad565b336000908152600080516020614887833981519152602052604090206106569060ff9061057d565b61012f80546001600160a01b0319166001600160a01b03909216919091179055005b600091031261000e57565b503461000e57600036600319011261000e57610131546040516001600160a01b039091168152602090f35b503461000e57602036600319011261000e576004356000526101396020526020604060002054604051908152f35b503461000e57602036600319011261000e5760043560005260656020526020600160406000200154604051908152f35b503461000e57606036600319011261000e5761013054600435906001600160a01b031633036107f0578060009182526101336020526107c260408320610765600260ff835460c01c1660048110156107e3575b14613bb8565b6024357f8e372cc311d12a5394f598c3c41b36e9775c6cb51b99fde2aaca7978a8ec713f85604051a2805460ff60c01b1916600360c01b1781556044356107b784600052610139602052604060002090565b555460c01c60ff1690565b6107cb816114b6565b604051916000805160206148a78339815191528484a3f35b6107eb61149f565b61075f565b60405162461bcd60e51b815260206004820152601060248201526f4f6e6c7920524e47206164647265737360801b6044820152606490fd5b503461000e5760408060031936011261000e576004359060243561084b816104ad565b600092808452606560205261086560018486200154612484565b808452606560209081528385206001600160a01b03841660009081529152604090205460ff161561089557505051f35b808452606560209081528385206001600160a01b0384166000908152915260409020805460ff19166001179055825133926001600160a01b031691907f2f8788117e7eff1d82e926ec794901d17c78024a50270940304540a733656f0d908690a451f35b503461000e57600036600319011261000e57602061013254604051908152f35b503461000e57604036600319011261000e57602435610937816104ad565b336001600160a01b0382160361095557610953906004356126d6565b005b60405162461bcd60e51b815260206004820152602f60248201527f416363657373436f6e74726f6c3a2063616e206f6e6c792072656e6f756e636560448201526e103937b632b9903337b91039b2b63360891b6064820152608490fd5b503461000e57602036600319011261000e576109536004356109d3816104ad565b610a256001600160a01b037f0000000000000000000000000000000000000000000000000000000000000000811690610a0e30831415612766565b6000805160206148c78339815191525416146127c7565b33600090815260008051602061488783398151915260205260409020610a4d9060ff9061057d565b60405190602082018281106001600160401b03821117610a74575b6040526000825261290c565b610a7c610e52565b610a68565b503461000e57600080600319360112610b375780805260656020908152604080832033600090815292529020610ab99060ff9061057d565b60fb5460ff811615610afb5760ff191660fb557f5db9ee0a495bf2e6ff9c91a7834c1ba4fdd244a5e8aa4e537bd38aeae4b073aa6020604051338152a1604051f35b60405162461bcd60e51b815260206004820152601460248201527314185d5cd8589b194e881b9bdd081c185d5cd95960621b6044820152606490fd5b80fd5b503461000e57604036600319011261000e57602061ffff610b87602435610b60816104ad565b600435600052610138845260406000209060018060a01b0316600052602052604060002090565b5416604051908152f35b503461000e57602036600319011261000e573360009081526000805160206148878339815191526020526040812060043590610bcf9060ff9061057d565b80825261013360205260408220600360ff825460c01c166004811015610c5a575b14610c1557805460ff60c01b1916600160c01b1781556107c2905b5460c01c60ff1690565b60405162461bcd60e51b815260206004820152601960248201527f4c6f747465727920616c726561647920636f6d706c65746564000000000000006044820152606490fd5b610c6261149f565b610bf0565b8054821015610c84575b60005260206000209060011b0190600090565b610c8c6105a6565b610c71565b503461000e57604036600319011261000e5760243560043560005261013a6020526040600020805482101561000e57604091610ccc91610c67565b50805460019091015482519182526001600160a01b03166020820152f35b6024359063ffffffff8216820361000e57565b6064359063ffffffff8216820361000e57565b6084359063ffffffff8216820361000e57565b503461000e57604036600319011261000e57610d3d610cea565b336000908152600080516020614887833981519152602052604081209091610d9d91610d6b9060ff9061057d565b600435835261013360205260408320805463ffffffff60801b191660809290921b63ffffffff60801b16919091179055565b604051f35b503461000e57602036600319011261000e57600435610dc0816104ad565b33600090815260008051602061488783398151915260205260409020610de89060ff9061057d565b6001600160a01b03168015610e0d5761013080546001600160a01b0319169091179055005b60405162461bcd60e51b815260206004820152601d60248201527f436f6e7472616374732063616e6e6f74206265203020616464726573730000006044820152606490fd5b50634e487b7160e01b600052604160045260246000fd5b6001600160401b038111610e7c57604052565b610e84610e52565b604052565b6101c081019081106001600160401b03821117610e7c57604052565b604081019081106001600160401b03821117610e7c57604052565b606081019081106001600160401b03821117610e7c57604052565b90601f801991011681019081106001600160401b03821117610e7c57604052565b60405190610f0982610e89565b565b6020906001600160401b038111610f28575b601f01601f19160190565b610f30610e52565b610f1d565b929192610f4182610f0b565b91610f4f6040519384610edb565b82948184528183011161000e578281602093846000960137010152565b50604036600319011261000e57600435610f85816104ad565b602435906001600160401b03821161000e573660238301121561000e57610fb9610953923690602481600401359101610f35565b90610ff56001600160a01b037f0000000000000000000000000000000000000000000000000000000000000000811690610a0e30831415612766565b3360009081526000805160206148878339815191526020526040902061101d9060ff9061057d565b6129cf565b503461000e57604036600319011261000e573360009081526000805160206148878339815191526020526040812061105c9060ff9061057d565b60043581526101356020526024356040822055604051f35b503461000e57600036600319011261000e577f00000000000000000000000000000000000000000000000000000000000000006001600160a01b031630036110d3576040516000805160206148c78339815191528152602090f35b0390f35b60405162461bcd60e51b815260206004820152603860248201527f555550535570677261646561626c653a206d757374206e6f742062652063616c60448201527f6c6564207468726f7567682064656c656761746563616c6c00000000000000006064820152608490fd5b503461000e57600036600319011261000e5761012e546040516001600160a01b039091168152602090f35b503461000e57600036600319011261000e57602060ff60fb54166040519015158152f35b503461000e57602036600319011261000e5760043560005261013b6020526020604060002054604051908152f35b503461000e57604036600319011261000e5760206111e66024356111de816104ad565b600435614759565b604051908152f35b503461000e57604036600319011261000e57611208610cea565b336000908152600080516020614887833981519152602052604081209091906112339060ff9061057d565b6004358252610133602052604082209063ffffffff918281541692831561128657610d9d9361126491841611613059565b9067ffffffff0000000082549160201b169067ffffffff000000001916179055565b60405162461bcd60e51b8152602060048201526014602482015273131bdd1d195c9e481a59081b9bdd08199bdd5b9960621b6044820152606490fd5b9181601f8401121561000e578235916001600160401b03831161000e576020838186019501011161000e57565b503461000e57608036600319011261000e576004356064356001600160401b03811161000e5761137461136e61132c6113a39336906004016112c2565b60408051336020820190815291810188905291939291611366919061135e81606081015b03601f198101835282610edb565b5190206134dc565b923691610f35565b9061320b565b61012e54611392906001600160a01b03165b6001600160a01b031690565b6001600160a01b03909116146131cb565b610131546113b9906001600160a01b0316611386565b60405163f662781d60e01b81523360048201528290602081602481865afa908115611492575b600091611464575b50106113fc575b610953604435602435613cd2565b803b1561000e57604051630259ab7760e61b815233600482015260248101929092526000908290604490829084905af18015611457575b61143e575b806113ee565b8061144b61145192610e69565b80610678565b38611438565b61145f612852565b611433565b611485915060203d811161148b575b61147d8183610edb565b810190612843565b386113e7565b503d611473565b61149a612852565b6113df565b50634e487b7160e01b600052602160045260246000fd5b600411156114c057565b610f0961149f565b9060048210156114d55752565b6114dd61149f565b52565b815163ffffffff1681526101c08101929160208181015163ffffffff169083015260408181015163ffffffff169083015260608181015163ffffffff169083015260808181015163ffffffff169083015260a08181015163ffffffff169083015261155360c082015160c08401906114c8565b60e0818101516001600160a01b03169083015261010081810151151590830152610120818101516001600160801b031690830152610140818101516001600160801b031690830152610160808201519083015261018080820151908301526101a080910151910152565b503461000e57602036600319011261000e576040516115db81610e89565b6101a06000918281528260208201528260408201528260608201528260808201528260a08201528260c08201528260e0820152826101008201528261012082015282610140820152826101608201528261018082015201526110cf611655611650600435600052610133602052604060002090565b6130bd565b604051918291826114e0565b6020908160408183019282815285518094520193019160005b828110611688575050505090565b83518552938101939281019260010161167a565b503461000e5760208060031936011261000e576004356116bb816104ad565b6001600160a01b0316600090815261013682526040808220905181548082529183528383208185019491939092915b82821061170d576110cf8561170181890382610edb565b60405191829182611661565b8354865294850194600193840193909101906116ea565b8015150361000e57565b6101043590610f0982611724565b61012435906001600160801b038216820361000e57565b61014435906001600160801b038216820361000e57565b503461000e5761016036600319011261000e57611785610cfd565b61178d610d10565b9060a4359161179b836104ad565b60c4356117a781611724565b60e43561ffff91828216820361000e5761010435928316830361000e57610953956117d061173c565b946117d9611753565b96604435602435600435613700565b503461000e57600080600319360112610b3757808052606560209081526040808320336000908152925290206118209060ff9061057d565b600160fb5461183260ff821615613c93565b60ff19161760fb557f62e78cea01bee320cd4e420270b5ea74000d11b0c9f74754ebdbfc544b05a2586020604051338152a1604051f35b503461000e57604036600319011261000e5761095360043561189060ff60fb541615613c93565b600081815261013460205260409020546001600160a01b03166118b7575b60243590613ee3565b6119226118e56113866113866118d885600052610134602052604060002090565b546001600160a01b031690565b6040516320c18e6b60e21b81523360048201526024810184905290602090829060449082905afa908115611955575b600091611927575b50613d3f565b6118ae565b611948915060203d811161194e575b6119408183610edb565b810190613d2a565b3861191c565b503d611936565b61195d612852565b611914565b503461000e57604036600319011261000e57602060ff6119ad602435611987816104ad565b6004356000526065845260406000209060018060a01b0316600052602052604060002090565b54166040519015158152f35b503461000e57602036600319011261000e57600435600052610134602052602060018060a01b0360406000205416604051908152f35b60208082019080835283518092528060408094019401926000905b838210611a1957505050505090565b8451805187528301516001600160a01b0316868401529485019493820193600190910190611a0a565b503461000e57606036600319011261000e57600435602435604435818110611b3d575b60018282036001198111611b30575b0190611a7f82613c14565b92604092611a8f84519586610edb565b808552611a9e601f1991613c14565b016000805b828110611b0e575050505b81811115611ac3578251806110cf86826119ef565b80611aee611ae8611b0993611ae38960005261013a602052604060002090565b610c67565b50613c6c565b611af88287613c4a565b52611b038186613c4a565b50613c3a565b611aae565b6020908651611b1c81610ea5565b838152828481830152828a01015201611aa3565b611b38612d65565b611a74565b611b45612d65565b611a65565b503461000e57600036600319011261000e57602060405160008152f35b503461000e5761016036600319011261000e57611b82610cfd565b611b8a610d10565b9060a43591611b98836104ad565b60c4359261ffff8416840361000e5760e435600481101561000e5761095394611bbf61172e565b92611bc861173c565b94611bd1611753565b9660443560243560043561351f565b503461000e5760208060031936011261000e5760008080526065825260408082203383526020528120909160043591611cce9190611c209060ff9061057d565b611c7f6002611c70611c3d86600052610133602052604060002090565b60ff8154611c544263ffffffff838a1c1610613b28565b60c01c16611c61816114b6565b15611d26575460c01c60ff1690565b611c79816114b6565b14613b6c565b61013054611c95906001600160a01b0316611386565b604051632cdc85e960e21b8152600481018590529082908290602490829089905af1918215611d19575b8592611cfc575b505061012d55565b61012d54604051917ff8cdf8355a0f31bbad8998a631f5a75dcb3e475a010b34a111ed105fe88e751a8484a3f35b611d129250803d1061148b5761147d8183610edb565b3880611cc6565b611d21612852565b611cbf565b805460ff60c01b1916600160c11b178155805460c01c60ff16611d48816114b6565b876000805160206148a78339815191528a604051a3610c0b565b503461000e57604036600319011261000e57611d7c610cea565b336000908152600080516020614887833981519152602052604081209091610d9d91611daa9060ff9061057d565b600435835261013360205260408320805463ffffffff60601b191660609290921b63ffffffff60601b16919091179055565b503461000e57606036600319011261000e57600435611dfa816104ad565b611ebc60243591611e0a836104ad565b60443590611e17826104ad565b611e99611e22612fda565b9485611f01575b611e31612f66565b611e4b60ff60005460081c16611e4681612f06565b612f06565b60ff1960fb541660fb55611e5d612f66565b611e6681612640565b61012f80546001600160a01b03199081166001600160a01b039687161790915561012e8054909116918516919091179055565b6101318054919092166001600160a01b03166001600160a01b0319909116179055565b611ec257005b611ed261ff001960005416600055565b604051600181527f7f26b83ff96e1f2b6a682f133852f6798a09c465da95921460cefb384740249890602090a1005b61010061ff00196000541617600055611e29565b503461000e57602036600319011261000e57600435600052610133602052602063ffffffff60406000205460a01c16604051908152f35b503461000e57602036600319011261000e576004356000526101356020526020604060002054604051908152f35b503461000e5760a036600319011261000e57602435611f98816104ad565b6001600160401b0360643581811161000e57611fb89036906004016112c2565b608435939183851161000e573660238601121561000e57846004013593841161000e573660248560051b8701011161000e57602461095395019260443590600435614316565b503461000e57604036600319011261000e57610953602435600435612022826104ad565b80600052606560205261203c600160406000200154612484565b6126d6565b503461000e57604036600319011261000e5760243561205f816104ad565b336000908152600080516020614887833981519152602052604081209091610d9d9161208d9060ff9061057d565b60043583526101346020526040832080546001600160a01b0319166001600160a01b03909216919091179055565b503461000e57604036600319011261000e576004356000526101376020526040600020602435600052602052602060ff604060002054166040519015158152f35b503461000e57600036600319011261000e57610130546040516001600160a01b039091168152602090f35b503461000e57602036600319011261000e57600435612145816104ad565b3360009081526000805160206148878339815191526020526040902061216d9060ff9061057d565b61013180546001600160a01b0319166001600160a01b03909216919091179055005b503461000e57602036600319011261000e576004356121b360ff60fb541615613c93565b6121c881600052610133602052604060002090565b9060026121f66121e383600052610138602052604060002090565b3360009081526020919091526040902090565b01805492612209815460ff9060c01c1690565b612212816114b6565b600381036122ea5750600101546000919060a01c60ff16806122e1575b6122389061482c565b5561012f5461224f906001600160a01b0316611386565b60405163a9059cbb60e01b81523360048201526024810184905290602090829060449082906000905af180156122d4575b6122b6575b5060405191825233917f7ca5472b7ea78c2c0141c5a12ee6d170cf4ce8ed06be3d22c8252ddfc7a6a2c490602090a3005b6122cd9060203d811161194e576119408183610edb565b5038612285565b6122dc612852565b612280565b5083151561222f565b600191506122f7816114b6565b0361230f5760009061230a8415156147ed565b612238565b60405162461bcd60e51b815260206004820152602660248201527f43616e27742061736b20666f72206120726566756e64206f6e2074686973206c6044820152656f747465727960d01b6064820152608490fd5b0390fd5b503461000e57604036600319011261000e57600060206123ed60043561238c816104ad565b838052606583526040808520336000908152602091909152206123b19060ff9061057d565b61012f5460405163a9059cbb60e01b81526001600160a01b03928316600482015260248035908201529485939190921691839182906044820190565b03925af18015612415575b6123fe57005b6109539060203d811161194e576119408183610edb565b61241d612852565b6123f8565b503461000e57602036600319011261000e57600435600052610133602052602063ffffffff60406000205460401c16604051908152f35b503461000e57600036600319011261000e5761012f546040516001600160a01b039091168152602090f35b600081815260656020908152604080832033845290915290205460ff16156124a95750565b33906124b3612828565b9160306124bf84612daf565b5360786124cb84612dc5565b5360295b6001811161256c57612363612537612554866113506124f7886124f28915612e10565b612e5b565b612531604051958694612531602087016017907f416363657373436f6e74726f6c3a206163636f756e742000000000000000000081520190565b906125f0565b7001034b99036b4b9b9b4b733903937b6329607d1b815260110190565b60405162461bcd60e51b81529182916004830161262c565b9080600f6125a9921660108110156125ae575b6f181899199a1a9b1b9c1cb0b131b232b360811b901a61259f8487612dd6565b5360041c91612df5565b6124cf565b6125b66105a6565b61257f565b918091926000905b8282106125db5750116125d4575050565b6000910152565b915080602091830151818601520182916125c3565b90612603602092828151948592016125bb565b0190565b90602091612620815180928185528580860191016125bb565b601f01601f1916010190565b90602061263d928181520190612607565b90565b6001600160a01b0381166000908152600080516020614887833981519152602052604081205460ff1615612672575050565b8080526065602090815260408083206001600160a01b038516600090815292529020805460ff1916600117905560405133926001600160a01b031691907f2f8788117e7eff1d82e926ec794901d17c78024a50270940304540a733656f0d908290a4565b60008181526065602090815260408083206001600160a01b038616845290915290205460ff16612704575050565b60008181526065602090815260408083206001600160a01b03861684529091529020805460ff1916905560405133926001600160a01b031691907ff6391f5c32d9c69d2a47ea670b442974b53935d1edc7fd64eb21e047a839171b90600090a4565b1561276d57565b60405162461bcd60e51b815260206004820152602c60248201527f46756e6374696f6e206d7573742062652063616c6c6564207468726f7567682060448201526b19195b1959d85d1958d85b1b60a21b6064820152608490fd5b156127ce57565b60405162461bcd60e51b815260206004820152602c60248201527f46756e6374696f6e206d7573742062652063616c6c6564207468726f7567682060448201526b6163746976652070726f787960a01b6064820152608490fd5b6040519061283582610ec0565b602a82526040366020840137565b9081602091031261000e575190565b506040513d6000823e3d90fd5b1561286657565b60405162461bcd60e51b815260206004820152602960248201527f45524331393637557067726164653a20756e737570706f727465642070726f786044820152681a58589b195555525160ba1b6064820152608490fd5b60809060208152602e60208201527f45524331393637557067726164653a206e657720696d706c656d656e7461746960408201526d6f6e206973206e6f74205555505360901b60608201520190565b906129387f4910fdfa16fed3260ed0e7147f7cc6da11a60208b5b9406d12a635614ffd91435460ff1690565b156129475750610f0990612a92565b6040516352d1902d60e01b8152916020836004816001600160a01b0385165afa600093816129af575b5061298e5760405162461bcd60e51b815280612363600482016128bd565b6129aa6000805160206148c7833981519152610f09941461285f565b612b22565b6129c891945060203d811161148b5761147d8183610edb565b9238612970565b906129fb7f4910fdfa16fed3260ed0e7147f7cc6da11a60208b5b9406d12a635614ffd91435460ff1690565b15612a0a5750610f0990612a92565b6040516352d1902d60e01b8152916020836004816001600160a01b0385165afa60009381612a72575b50612a515760405162461bcd60e51b815280612363600482016128bd565b612a6d6000805160206148c7833981519152610f09941461285f565b612c32565b612a8b91945060203d811161148b5761147d8183610edb565b9238612a33565b803b15612ac7576000805160206148c783398151915280546001600160a01b0319166001600160a01b03909216919091179055565b60405162461bcd60e51b815260206004820152602d60248201527f455243313936373a206e657720696d706c656d656e746174696f6e206973206e60448201526c1bdd08184818dbdb9d1c9858dd609a1b6064820152608490fd5b90612b2c82612a92565b604051600092906001600160a01b0382167fbc7cd75a20ee27fd9adebab32041f755214dbc6bffa90cc0225b39da2e5c2d3b8583a2825115801590612c2b575b612b77575b50505050565b813b15612bda5750918082612bc89460208395519201905af4903d15612bd2573d612ba181610f0b565b90612baf6040519283610edb565b8152809160203d92013e5b612bc2612cdc565b91612d25565b5038808080612b71565b506060612bba565b62461bcd60e51b815260206004820152602660248201527f416464726573733a2064656c65676174652063616c6c20746f206e6f6e2d636f6044820152651b9d1c9858dd60d21b6064820152608490fd5b5083612b6c565b612c3b81612a92565b6040516001600160a01b0382167fbc7cd75a20ee27fd9adebab32041f755214dbc6bffa90cc0225b39da2e5c2d3b600083a2825115801590612cd4575b612c8157505050565b813b15612bda575060008281926020612cca95519201905af43d15612ccd573d612caa81610f0b565b90612cb86040519283610edb565b81523d6000602083013e612bc2612cdc565b50565b6060612bba565b506001612c78565b60405190612ce982610ec0565b60278252660819985a5b195960ca1b6040837f416464726573733a206c6f772d6c6576656c2064656c65676174652063616c6c60208201520152565b90919015612d31575090565b815115612d415750805190602001fd5b60405162461bcd60e51b815260206004820152908190612363906024830190612607565b50634e487b7160e01b600052601160045260246000fd5b8060001904821181151516612d8f570290565b612d97612d65565b0290565b81198111612da7570190565b612603612d65565b602090805115612dbd570190565b6126036105a6565b602190805160011015612dbd570190565b906020918051821015612de857010190565b612df06105a6565b010190565b8015612e03575b6000190190565b612e0b612d65565b612dfc565b15612e1757565b606460405162461bcd60e51b815260206004820152602060248201527f537472696e67733a20686578206c656e67746820696e73756666696369656e746044820152fd5b60405190608082018281106001600160401b03821117612ef9575b6040526042825260603660208401376030612e9083612daf565b536078612e9c83612dc5565b536041905b60018211612eb45761263d915015612e10565b80600f612ee692166010811015612eec575b6f181899199a1a9b1b9c1cb0b131b232b360811b901a61259f8486612dd6565b90612ea1565b612ef46105a6565b612ec6565b612f01610e52565b612e76565b15612f0d57565b60405162461bcd60e51b815260206004820152602b60248201527f496e697469616c697a61626c653a20636f6e7472616374206973206e6f74206960448201526a6e697469616c697a696e6760a81b6064820152608490fd5b610f0960ff60005460081c16612f06565b15612f7e57565b60405162461bcd60e51b815260206004820152602e60248201527f496e697469616c697a61626c653a20636f6e747261637420697320616c72656160448201526d191e481a5b9a5d1a585b1a5e995960921b6064820152608490fd5b60005460ff8160081c16600014612ffc5750612ff7303b15612f77565b600090565b8061300d600160ff81941610612f77565b60ff191617600055600190565b1561302157565b60405162461bcd60e51b815260206004820152601060248201526f41646d696e2063616c6c73206f6e6c7960801b6044820152606490fd5b1561306057565b60405162461bcd60e51b815260206004820152602360248201527f436c6f73652074696d65206d7573742062652061667465722073746172742074604482015262696d6560e81b6064820152608490fd5b60048210156114d55752565b9060056130c8610efc565b9261316b60ff825461315e63ffffffff6130ea8184168a9063ffffffff169052565b613102818460201c1660208b019063ffffffff169052565b61311a818460401c1660408b019063ffffffff169052565b613132818460601c1660608b019063ffffffff169052565b61314a818460801c1660808b019063ffffffff169052565b8260a01c1660a089019063ffffffff169052565b60c01c1660c086016130b1565b60018101546001600160a01b03811660e086015260a01c60ff16151561010085015260028101546001600160801b03811661012086015260801c6101408501526003810154610160850152600481015461018085015201546101a0830152565b156131d257565b60405162461bcd60e51b8152602060048201526011602482015270496e76616c6964207369676e617475726560781b6044820152606490fd5b61263d91613218916133ab565b91909161322a565b600511156114c057565b61323381613220565b8061323b5750565b61324481613220565b600181036132915760405162461bcd60e51b815260206004820152601860248201527f45434453413a20696e76616c6964207369676e617475726500000000000000006044820152606490fd5b61329a81613220565b600281036132e75760405162461bcd60e51b815260206004820152601f60248201527f45434453413a20696e76616c6964207369676e6174757265206c656e677468006044820152606490fd5b6132f081613220565b600381036133485760405162461bcd60e51b815260206004820152602260248201527f45434453413a20696e76616c6964207369676e6174757265202773272076616c604482015261756560f01b6064820152608490fd5b80613354600492613220565b1461335b57565b60405162461bcd60e51b815260206004820152602260248201527f45434453413a20696e76616c6964207369676e6174757265202776272076616c604482015261756560f01b6064820152608490fd5b8151604181036133d85750906133d4916020820151906060604084015193015160001a90613426565b9091565b60400361341c5781604060206133d49401519101519160ff601b84821c948119861161340f575b600180841b031694011690613426565b613417612d65565b6133ff565b5050600090600290565b9291907f7fffffffffffffffffffffffffffffff5d576e7357a4501ddfe92f46681b20a083116134d05760ff16601b811415806134c5575b6134b9579160809493916020936040519384528484015260408301526060820152600093849182805260015afa156134ac575b81516001600160a01b038116156134a6579190565b50600190565b6134b4612852565b613491565b50505050600090600490565b50601c81141561345e565b50505050600090600390565b60405160208101917f19457468657265756d205369676e6564204d6573736167653a0a3332000000008352603c820152603c815261351981610ec0565b51902090565b33600090815260008051602061488783398151915260205260408120989b919a94999098959791969495919492916135599060ff9061057d565b8a8952610133602052604089209263ffffffff845416156136905761362261ffff61366797600297613649966000805160206148a78339815191529f6136819e6135b66135d8928c9063ffffffff1663ffffffff19825416179055565b8a5467ffffffff00000000191660209190911b67ffffffff0000000016178a55565b600489015560058801556001870180546001600160a01b0319166001600160a01b03909516949094178455865463ffffffff60601b1916911660601b63ffffffff60601b16178555565b61362c8d856136ce565b805460ff60a01b191691151560a01b60ff60a01b16919091179055565b019182906001600160801b03166001600160801b0319825416179055565b906001600160801b0382549181199060801b169116179055565b61368a846114b6565b604051a3565b60405162461bcd60e51b8152602060048201526016602482015275131bdd1d195c9e48191bd95cc81b9bdd08195e1a5cdd60521b6044820152606490fd5b9060048110156136f3575b815460ff60c01b191660c09190911b60ff60c01b16179055565b6136fb61149f565b6136d9565b33600090815260008051602061488783398151915260205260408120909b919a9499939892979196949591949391905460ff1661373c9061301a565b63ffffffff8a81169061375082151561382c565b82161161375c90613059565b6137658b61386d565b61376d610efc565b63ffffffff909a168a5263ffffffff1660208a0152604089018b905261ffff91821660608a01521663ffffffff16608088015260a0870189905260c087018990526001600160a01b031660e087015215156101008601526001600160801b03166101208501526001600160801b0316610140840152836101608401526101808301526101a082015261380a82600052610133602052604060002090565b9061381491613916565b81604051906000805160206148a783398151915291a3565b1561383357565b60405162461bcd60e51b8152602060048201526012602482015271496e76616c69642073746172742074696d6560701b6044820152606490fd5b610132805490600160401b8210156138c4575b600182018082558210156138b7575b6000527fc53bdfd4aa1ab65dfdaf681ca6bda958ae4a123d4ed68c4277796592280e78350155565b6138bf6105a6565b61388f565b6138cc610e52565b613880565b805490600160401b821015613909575b600182018082558210156138fc575b60005260206000200155565b6139046105a6565b6138f0565b613911610e52565b6138e1565b906101a060059161394461392e825163ffffffff1690565b855463ffffffff191663ffffffff909116178555565b61397a613958602083015163ffffffff1690565b855467ffffffff00000000191660209190911b67ffffffff0000000016178555565b6139b361398e604083015163ffffffff1690565b85546bffffffff0000000000000000191660409190911b63ffffffff60401b16178555565b6139e76139c7606083015163ffffffff1690565b855463ffffffff60601b191660609190911b63ffffffff60601b16178555565b613a1b6139fb608083015163ffffffff1690565b855463ffffffff60801b191660809190911b63ffffffff60801b16178555565b613a4f613a2f60a083015163ffffffff1690565b855463ffffffff60a01b191660a09190911b63ffffffff60a01b16178555565b613a6660c0820151613a60816114b6565b856136ce565b60e08101516001850180546101008401516001600160a01b039093166001600160a81b03199091161791151560a01b60ff60a01b16919091179055613b0b60028501613adc613ac06101208501516001600160801b031690565b82546001600160801b0319166001600160801b03909116178255565b6101408301516001600160801b031681546001600160801b031660809190911b6001600160801b031916179055565b610160810151600385015561018081015160048501550151910155565b15613b2f57565b60405162461bcd60e51b8152602060048201526015602482015274131bdd1d195c9e481a5cc81b9bdd0818db1bdcd959605a1b6044820152606490fd5b15613b7357565b60405162461bcd60e51b815260206004820152601760248201527f4c6f7474657279206d75737420626520636c6f736564210000000000000000006044820152606490fd5b15613bbf57565b60405162461bcd60e51b8152602060048201526016602482015275131bdd1d195c9e481b5d5cdd0818994818db1bdcd95960521b6044820152606490fd5b818110613c08570390565b613c10612d65565b0390565b6020906001600160401b038111613c2d575b60051b0190565b613c35610e52565b613c26565b6001906000198114612da7570190565b6020918151811015613c5f575b60051b010190565b613c676105a6565b613c57565b90604051613c7981610ea5565b825481526001909201546001600160a01b03166020830152565b15613c9a57565b60405162461bcd60e51b815260206004820152601060248201526f14185d5cd8589b194e881c185d5cd95960821b6044820152606490fd5b90610f0991613ce660ff60fb541615613c93565b600081815261013460205260409020546001600160a01b031615613ee357613d256118e56113866113866118d885600052610134602052604060002090565b613ee3565b9081602091031261000e575161263d81611724565b15613d4657565b60405162461bcd60e51b815260206004820152600f60248201526e139bdd081dda1a5d195b1a5cdd1959608a1b6044820152606490fd5b15613d8457565b60405162461bcd60e51b815260206004820152601060248201526f151a58dad95d1cc81cdbdb19081bdd5d60821b6044820152606490fd5b15613dc357565b606460405162461bcd60e51b815260206004820152602060248201527f43616e277420627579207468697320616d6f756e74206f66207469636b6574736044820152fd5b15613e0e57565b60405162461bcd60e51b81526020600482015260136024820152722637ba3a32b93c9034b9903737ba1037b832b760691b6044820152606490fd5b9063ffffffff8080931691168092038111612da7570190565b60019063ffffffff809116908114612da7570190565b90808203613e84575050565b8054825461ffff191661ffff919091161782556002908190805462ff000060ff86549260101c16151560101b169062ff00001916178455600181015460018501550154910155565b9061ffff8080931691168092038111612da7570190565b613ef881600052610133602052604060002090565b90613ff4825463ffffffff93848260601c168061419a575b50613f296121e385600052610138602052604060002090565b91613f64613f43613f3c855461ffff1690565b61ffff1690565b91878160801c168061417f575b50428882161115908161416f575b50613e07565b613f72600483015488612d7c565b8061414d575b50613fbe613f9e6005840154978916613f99855463ffffffff9060a01c1690565b613e49565b835463ffffffff60a01b191660a09190911b63ffffffff60a01b16178355565b856140af575b1561401d575b50613fe461ffff8616613fdf835461ffff1690565b613ecc565b61ffff1661ffff19825416179055565b60005b8381106140045750505050565b6140189061401384338561422b565b613c3a565b613ff7565b33600090815261013660205260409020614070919061403d9086906138d1565b80546140519060401c63ffffffff16613e62565b63ffffffff60401b82549160401b169063ffffffff60401b1916179055565b6140a9816140a43361408d87600052610138602052604060002090565b9060018060a01b0316600052602052604060002090565b613e78565b38613fca565b6140b98688612d7c565b61012f546140cf906001600160a01b0316611386565b6040516323b872dd60e01b81523360048201523060248201526044810183905290602090829060649082906000905af18015614140575b614122575b5061411b60028501918254612d9b565b9055613fc4565b6141399060203d811161194e576119408183610edb565b503861410b565b614148612852565b614106565b6141689060018501614160828254612d9b565b9055336141ba565b5038613f78565b905087429160201c161138613f5e565b6141949061418d8b86612d9b565b1115613dbc565b38613f50565b6141b4906141ad88888660a01c16612d9b565b1115613d7d565b38613f10565b61013154604051631e961d2760e01b81526001600160a01b039283166004820152602481019390935260209183916044918391600091165af190811561421e575b600091614206575090565b61263d915060203d811161148b5761147d8183610edb565b614226612852565b6141fb565b906040519261423984610ea5565b8352602083019060018060a01b03809116938483528360005261013a60205261427b6040600020805490600160401b821015614309575b600182018155610c67565b9290926142f3576142b193600192518455511691019060018060a01b03166bffffffffffffffffffffffff60a01b825416179055565b7fc41bbb54d04f2268c7895b9330f18468c306a3f92698a92c4c86b2978739784860206142e98360005261013a602052604060002090565b54604051908152a3565b634e487b7160e01b600052600060045260246000fd5b614311610e52565b614270565b946143f6908397839596946143b360018a6143a86143a361439f61439861435e6143fb9c61434960ff60fb541615613c93565b61408d87600052610138602052604060002090565b9761438961437787600052610133602052604060002090565b96600052610137602052604060002090565b90600052602052604060002090565b5460ff1690565b1590565b61454d565b015460a01c60ff1690565b61450f575b506143f16143d26143ca36888b610f35565b8b898c6146c6565b926143e88a600052610135602052604060002090565b549236916145fa565b6146fe565b614648565b6144286144178361408d87600052610138602052604060002090565b805462ff0000191662010000179055565b614450600161444286600052610133602052604060002090565b01546001600160a01b031690565b9261447a61446d8761438988600052610137602052604060002090565b805460ff19166001179055565b6001600160a01b0393841691823b1561000e576144b39260009283604051809681958294633349e71f60e21b84528d8b6004860161468b565b03925af18015614502575b6144ef575b5016907f4aa95f981a8337cb337de335b965507da0879c3b49f799d20058e913f5ad2c266000604051a4565b8061144b6144fc92610e69565b386144c3565b61450a612852565b6144be565b614545600261452d8c611ae38d60005261013a602052604060002090565b50549201918254614540828210156145a3565b613bfd565b9055386143b8565b1561455457565b60405162461bcd60e51b815260206004820152602160248201527f5061727469636970616e7420616c726561647920636c61696d6564207072697a6044820152606560f81b6064820152608490fd5b156145aa57565b60405162461bcd60e51b815260206004820152602260248201527f5061727469636970616e742068617320726571756573746564206120726566756044820152611b9960f21b6064820152608490fd5b929161460582613c14565b916146136040519384610edb565b829481845260208094019160051b810192831161000e57905b8282106146395750505050565b8135815290830190830161462c565b1561464f57565b60405162461bcd60e51b815260206004820152601460248201527324b73b30b634b21036b2b935b63290383937b7b360611b6044820152606490fd5b9284926080959260018060a01b03168552602085015260606040850152816060850152848401376000828201840152601f01601f1916010190565b9290611350613519926040519485936020850197885260018060a01b03166040850152606084015260808084015260a0830190612607565b929091906000915b8451831015614751576147198386613c4a565b519081811161473c57600052602052614736604060002092613c3a565b91614706565b90600052602052614736604060002092613c3a565b915092501490565b60005261013360205261478d60406000209161013860205260406000209060018060a01b0316600052602052604060002090565b9060ff815460c01c16906147a0826114b6565b600382149182156147d7575b50816147c5575b506147be5750600090565b6002015490565b60ff91506001015460a01c16386147b3565b60019192506147e5816114b6565b1490386147ac565b156147f457565b60405162461bcd60e51b815260206004820152601060248201526f105b1c9958591e481c99599d5b99195960821b6044820152606490fd5b1561483357565b60405162461bcd60e51b815260206004820152602560248201527f5061727469636970616e7420686173206e6f20726566756e6461626c65207469604482015264636b65747360d81b6064820152608490fdfeffdfc1249c027f9191656349feb0761381bb32c9f557e01f419fd08754bf5a1ba3aca9ae20a0379d4094b84c749cbed6584ab20f0b71af75f63f6615d879c939360894a13ba1a3210667c828492db98dca3e2076cc3735a920a3ca505d382bbca26469706673582212202b6cd2766557320321953762448e5b3c2a5d7d019d590d6295d96c51987059ac64736f6c634300080e0033",
  "linkReferences": {},
  "deployedLinkReferences": {}
}