{
  "_format": "hh-sol-artifact-1",
  "contractName": "Lottery",
  "sourceName": "contracts/Lottery/Lottery.sol",
  "abi": [
    {
      "anonymous": false,
      "inputs": [
        {
          "indexed": false,
          "internalType": "address",
          "name": "previousAdmin",
          "type": "address"
        },
        {
          "indexed": false,
          "internalType": "address",
          "name": "newAdmin",
          "type": "address"
        }
      ],
      "name": "AdminChanged",
      "type": "event"
    },
    {
      "anonymous": false,
      "inputs": [
        {
          "indexed": true,
          "internalType": "address",
          "name": "beacon",
          "type": "address"
        }
      ],
      "name": "BeaconUpgraded",
      "type": "event"
    },
    {
      "anonymous": false,
      "inputs": [
        {
          "indexed": false,
          "internalType": "uint8",
          "name": "version",
          "type": "uint8"
        }
      ],
      "name": "Initialized",
      "type": "event"
    },
    {
      "anonymous": false,
      "inputs": [
        {
          "indexed": true,
          "internalType": "uint256",
          "name": "lotteryId",
          "type": "uint256"
        },
        {
          "indexed": true,
          "internalType": "enum Lottery.Status",
          "name": "status",
          "type": "uint8"
        }
      ],
      "name": "LotteryStatusChanged",
      "type": "event"
    },
    {
      "anonymous": false,
      "inputs": [
        {
          "indexed": false,
          "internalType": "address",
          "name": "account",
          "type": "address"
        }
      ],
      "name": "Paused",
      "type": "event"
    },
    {
      "anonymous": false,
      "inputs": [
        {
          "indexed": true,
          "internalType": "uint256",
          "name": "lotteryId",
          "type": "uint256"
        },
        {
          "indexed": true,
          "internalType": "address",
          "name": "participantAddress",
          "type": "address"
        },
        {
          "indexed": true,
          "internalType": "uint256",
          "name": "prizeId",
          "type": "uint256"
        }
      ],
      "name": "PrizeClaimed",
      "type": "event"
    },
    {
      "anonymous": false,
      "inputs": [
        {
          "indexed": true,
          "internalType": "uint256",
          "name": "lotteryId",
          "type": "uint256"
        },
        {
          "indexed": true,
          "internalType": "address",
          "name": "participantAddress",
          "type": "address"
        },
        {
          "indexed": false,
          "internalType": "uint256",
          "name": "amount",
          "type": "uint256"
        }
      ],
      "name": "Refunded",
      "type": "event"
    },
    {
      "anonymous": false,
      "inputs": [
        {
          "indexed": true,
          "internalType": "bytes32",
          "name": "role",
          "type": "bytes32"
        },
        {
          "indexed": true,
          "internalType": "bytes32",
          "name": "previousAdminRole",
          "type": "bytes32"
        },
        {
          "indexed": true,
          "internalType": "bytes32",
          "name": "newAdminRole",
          "type": "bytes32"
        }
      ],
      "name": "RoleAdminChanged",
      "type": "event"
    },
    {
      "anonymous": false,
      "inputs": [
        {
          "indexed": true,
          "internalType": "bytes32",
          "name": "role",
          "type": "bytes32"
        },
        {
          "indexed": true,
          "internalType": "address",
          "name": "account",
          "type": "address"
        },
        {
          "indexed": true,
          "internalType": "address",
          "name": "sender",
          "type": "address"
        }
      ],
      "name": "RoleGranted",
      "type": "event"
    },
    {
      "anonymous": false,
      "inputs": [
        {
          "indexed": true,
          "internalType": "bytes32",
          "name": "role",
          "type": "bytes32"
        },
        {
          "indexed": true,
          "internalType": "address",
          "name": "account",
          "type": "address"
        },
        {
          "indexed": true,
          "internalType": "address",
          "name": "sender",
          "type": "address"
        }
      ],
      "name": "RoleRevoked",
      "type": "event"
    },
    {
      "anonymous": false,
      "inputs": [
        {
          "indexed": false,
          "internalType": "address",
          "name": "operator",
          "type": "address"
        },
        {
          "indexed": false,
          "internalType": "uint256",
          "name": "lotteryId",
          "type": "uint256"
        },
        {
          "indexed": false,
          "internalType": "uint256",
          "name": "priceOfTicket",
          "type": "uint256"
        }
      ],
      "name": "TicketCostChanged",
      "type": "event"
    },
    {
      "anonymous": false,
      "inputs": [
        {
          "indexed": true,
          "internalType": "uint256",
          "name": "lotteryId",
          "type": "uint256"
        },
        {
          "indexed": false,
          "internalType": "uint256",
          "name": "ticketNumber",
          "type": "uint256"
        },
        {
          "indexed": true,
          "internalType": "address",
          "name": "participantAddress",
          "type": "address"
        }
      ],
      "name": "TicketSold",
      "type": "event"
    },
    {
      "anonymous": false,
      "inputs": [
        {
          "indexed": false,
          "internalType": "address",
          "name": "account",
          "type": "address"
        }
      ],
      "name": "Unpaused",
      "type": "event"
    },
    {
      "anonymous": false,
      "inputs": [
        {
          "indexed": true,
          "internalType": "address",
          "name": "implementation",
          "type": "address"
        }
      ],
      "name": "Upgraded",
      "type": "event"
    },
    {
      "inputs": [],
      "name": "DEFAULT_ADMIN_ROLE",
      "outputs": [
        {
          "internalType": "bytes32",
          "name": "",
          "type": "bytes32"
        }
      ],
      "stateMutability": "view",
      "type": "function"
    },
    {
      "inputs": [
        {
          "internalType": "uint256",
          "name": "_lotteryId",
          "type": "uint256"
        },
        {
          "internalType": "uint256",
          "name": "_numberOfTicketsToBuy",
          "type": "uint256"
        }
      ],
      "name": "buyTickets",
      "outputs": [],
      "stateMutability": "nonpayable",
      "type": "function"
    },
    {
      "inputs": [
        {
          "internalType": "uint256",
          "name": "_points",
          "type": "uint256"
        },
        {
          "internalType": "uint256",
          "name": "_lotteryId",
          "type": "uint256"
        },
        {
          "internalType": "uint256",
          "name": "_numberOfTicketsToBuy",
          "type": "uint256"
        },
        {
          "internalType": "bytes",
          "name": "_sig",
          "type": "bytes"
        }
      ],
      "name": "buyTicketsWithSignedMessage",
      "outputs": [],
      "stateMutability": "nonpayable",
      "type": "function"
    },
    {
      "inputs": [
        {
          "internalType": "uint256",
          "name": "_lotteryId",
          "type": "uint256"
        }
      ],
      "name": "cancelLottery",
      "outputs": [],
      "stateMutability": "nonpayable",
      "type": "function"
    },
    {
      "inputs": [
        {
          "internalType": "uint256",
          "name": "_lotteryId",
          "type": "uint256"
        },
        {
          "internalType": "uint32",
          "name": "_time",
          "type": "uint32"
        }
      ],
      "name": "changeCloseTime",
      "outputs": [],
      "stateMutability": "nonpayable",
      "type": "function"
    },
    {
      "inputs": [
        {
          "internalType": "uint256",
          "name": "_lotteryId",
          "type": "uint256"
        },
        {
          "internalType": "address",
          "name": "_winner",
          "type": "address"
        },
        {
          "internalType": "uint256",
          "name": "_prizeId",
          "type": "uint256"
        },
        {
          "internalType": "string",
          "name": "_uri",
          "type": "string"
        },
        {
          "internalType": "bytes32[]",
          "name": "_proof",
          "type": "bytes32[]"
        }
      ],
      "name": "claimPrize",
      "outputs": [],
      "stateMutability": "nonpayable",
      "type": "function"
    },
    {
      "inputs": [
        {
          "internalType": "uint256",
          "name": "",
          "type": "uint256"
        },
        {
          "internalType": "uint256",
          "name": "",
          "type": "uint256"
        }
      ],
      "name": "claimedPrizes",
      "outputs": [
        {
          "internalType": "bool",
          "name": "",
          "type": "bool"
        }
      ],
      "stateMutability": "view",
      "type": "function"
    },
    {
      "inputs": [
        {
          "internalType": "uint256",
          "name": "_lotteryId",
          "type": "uint256"
        },
        {
          "internalType": "uint256",
          "name": "_ticketCostPoints",
          "type": "uint256"
        },
        {
          "internalType": "uint256",
          "name": "_ticketCostTokens",
          "type": "uint256"
        },
        {
          "internalType": "uint32",
          "name": "_startTime",
          "type": "uint32"
        },
        {
          "internalType": "uint32",
          "name": "_closeTime",
          "type": "uint32"
        },
        {
          "internalType": "contract INFT",
          "name": "_nftContract",
          "type": "address"
        },
        {
          "internalType": "uint16",
          "name": "_maxTickets",
          "type": "uint16"
        },
        {
          "internalType": "uint16",
          "name": "_maxTicketsPerUser",
          "type": "uint16"
        },
        {
          "internalType": "uint128",
          "name": "_firstPrizeId",
          "type": "uint128"
        },
        {
          "internalType": "uint128",
          "name": "_lastPrizeId",
          "type": "uint128"
        }
      ],
      "name": "createLottery",
      "outputs": [],
      "stateMutability": "nonpayable",
      "type": "function"
    },
    {
      "inputs": [],
      "name": "getLotteryCount",
      "outputs": [
        {
          "internalType": "uint256",
          "name": "",
          "type": "uint256"
        }
      ],
      "stateMutability": "view",
      "type": "function"
    },
    {
      "inputs": [
        {
          "internalType": "uint256",
          "name": "_lotteryId",
          "type": "uint256"
        }
      ],
      "name": "getLotteryInfo",
      "outputs": [
        {
          "components": [
            {
              "internalType": "uint32",
              "name": "startTime",
              "type": "uint32"
            },
            {
              "internalType": "uint32",
              "name": "closeTime",
              "type": "uint32"
            },
            {
              "internalType": "uint32",
              "name": "participantsCount",
              "type": "uint32"
            },
            {
              "internalType": "uint32",
              "name": "maxTickets",
              "type": "uint32"
            },
            {
              "internalType": "uint32",
              "name": "maxTicketsPerUser",
              "type": "uint32"
            },
            {
              "internalType": "uint32",
              "name": "numberOfTicketsSold",
              "type": "uint32"
            },
            {
              "internalType": "enum Lottery.Status",
              "name": "status",
              "type": "uint8"
            },
            {
              "internalType": "contract INFT",
              "name": "nftContract",
              "type": "address"
            },
            {
              "internalType": "uint128",
              "name": "firstPrizeId",
              "type": "uint128"
            },
            {
              "internalType": "uint128",
              "name": "lastPrizeId",
              "type": "uint128"
            },
            {
              "internalType": "uint256",
              "name": "lotteryID",
              "type": "uint256"
            },
            {
              "internalType": "uint256",
              "name": "ticketCostPoints",
              "type": "uint256"
            },
            {
              "internalType": "uint256",
              "name": "ticketCostTokens",
              "type": "uint256"
            }
          ],
          "internalType": "struct Lottery.LotteryInfo",
          "name": "",
          "type": "tuple"
        }
      ],
      "stateMutability": "view",
      "type": "function"
    },
    {
      "inputs": [
        {
          "internalType": "uint256",
          "name": "_lotteryId",
          "type": "uint256"
        }
      ],
      "name": "getLotteryTicketCount",
      "outputs": [
        {
          "internalType": "uint256",
          "name": "",
          "type": "uint256"
        }
      ],
      "stateMutability": "view",
      "type": "function"
    },
    {
      "inputs": [
        {
          "internalType": "uint256",
          "name": "_lotteryId",
          "type": "uint256"
        },
        {
          "internalType": "uint256",
          "name": "_from",
          "type": "uint256"
        },
        {
          "internalType": "uint256",
          "name": "_to",
          "type": "uint256"
        }
      ],
      "name": "getLotteryTickets",
      "outputs": [
        {
          "internalType": "address[]",
          "name": "",
          "type": "address[]"
        }
      ],
      "stateMutability": "view",
      "type": "function"
    },
    {
      "inputs": [
        {
          "internalType": "uint256",
          "name": "_lotteryId",
          "type": "uint256"
        }
      ],
      "name": "getParticipantsCount",
      "outputs": [
        {
          "internalType": "uint32",
          "name": "",
          "type": "uint32"
        }
      ],
      "stateMutability": "view",
      "type": "function"
    },
    {
      "inputs": [
        {
          "internalType": "bytes32",
          "name": "role",
          "type": "bytes32"
        }
      ],
      "name": "getRoleAdmin",
      "outputs": [
        {
          "internalType": "bytes32",
          "name": "",
          "type": "bytes32"
        }
      ],
      "stateMutability": "view",
      "type": "function"
    },
    {
      "inputs": [
        {
          "internalType": "uint256",
          "name": "_lotteryId",
          "type": "uint256"
        },
        {
          "internalType": "address",
          "name": "_user",
          "type": "address"
        }
      ],
      "name": "getTicketCountPerUser",
      "outputs": [
        {
          "internalType": "uint256",
          "name": "",
          "type": "uint256"
        }
      ],
      "stateMutability": "view",
      "type": "function"
    },
    {
      "inputs": [
        {
          "internalType": "uint256",
          "name": "_lotteryId",
          "type": "uint256"
        }
      ],
      "name": "getWhitelist",
      "outputs": [
        {
          "internalType": "address",
          "name": "",
          "type": "address"
        }
      ],
      "stateMutability": "view",
      "type": "function"
    },
    {
      "inputs": [
        {
          "internalType": "bytes32",
          "name": "role",
          "type": "bytes32"
        },
        {
          "internalType": "address",
          "name": "account",
          "type": "address"
        }
      ],
      "name": "grantRole",
      "outputs": [],
      "stateMutability": "nonpayable",
      "type": "function"
    },
    {
      "inputs": [
        {
          "internalType": "bytes32",
          "name": "role",
          "type": "bytes32"
        },
        {
          "internalType": "address",
          "name": "account",
          "type": "address"
        }
      ],
      "name": "hasRole",
      "outputs": [
        {
          "internalType": "bool",
          "name": "",
          "type": "bool"
        }
      ],
      "stateMutability": "view",
      "type": "function"
    },
    {
      "inputs": [
        {
          "internalType": "address",
          "name": "_rewardsContract",
          "type": "address"
        },
        {
          "internalType": "address",
          "name": "_admin",
          "type": "address"
        },
        {
          "internalType": "address",
          "name": "_token",
          "type": "address"
        },
        {
          "internalType": "address",
          "name": "_sageStorage",
          "type": "address"
        }
      ],
      "name": "initialize",
      "outputs": [],
      "stateMutability": "nonpayable",
      "type": "function"
    },
    {
      "inputs": [
        {
          "internalType": "uint256",
          "name": "",
          "type": "uint256"
        }
      ],
      "name": "lotteries",
      "outputs": [
        {
          "internalType": "uint256",
          "name": "",
          "type": "uint256"
        }
      ],
      "stateMutability": "view",
      "type": "function"
    },
    {
      "inputs": [
        {
          "internalType": "uint256",
          "name": "",
          "type": "uint256"
        },
        {
          "internalType": "uint256",
          "name": "",
          "type": "uint256"
        }
      ],
      "name": "lotteryTickets",
      "outputs": [
        {
          "internalType": "address",
          "name": "",
          "type": "address"
        }
      ],
      "stateMutability": "view",
      "type": "function"
    },
    {
      "inputs": [
        {
          "internalType": "uint256",
          "name": "",
          "type": "uint256"
        },
        {
          "internalType": "address",
          "name": "",
          "type": "address"
        }
      ],
      "name": "participants",
      "outputs": [
        {
          "internalType": "uint16",
          "name": "totalTicketsBought",
          "type": "uint16"
        },
        {
          "internalType": "bool",
          "name": "claimedPrize",
          "type": "bool"
        }
      ],
      "stateMutability": "view",
      "type": "function"
    },
    {
      "inputs": [],
      "name": "pause",
      "outputs": [],
      "stateMutability": "nonpayable",
      "type": "function"
    },
    {
      "inputs": [],
      "name": "paused",
      "outputs": [
        {
          "internalType": "bool",
          "name": "",
          "type": "bool"
        }
      ],
      "stateMutability": "view",
      "type": "function"
    },
    {
      "inputs": [
        {
          "internalType": "uint256",
          "name": "_lotteryId",
          "type": "uint256"
        },
        {
          "internalType": "uint256",
          "name": "_tokenId",
          "type": "uint256"
        }
      ],
      "name": "prizeClaimed",
      "outputs": [
        {
          "internalType": "bool",
          "name": "",
          "type": "bool"
        }
      ],
      "stateMutability": "view",
      "type": "function"
    },
    {
      "inputs": [
        {
          "internalType": "uint256",
          "name": "",
          "type": "uint256"
        }
      ],
      "name": "prizeMerkleRoots",
      "outputs": [
        {
          "internalType": "bytes32",
          "name": "",
          "type": "bytes32"
        }
      ],
      "stateMutability": "view",
      "type": "function"
    },
    {
      "inputs": [],
      "name": "proxiableUUID",
      "outputs": [
        {
          "internalType": "bytes32",
          "name": "",
          "type": "bytes32"
        }
      ],
      "stateMutability": "view",
      "type": "function"
    },
    {
      "inputs": [
        {
          "internalType": "uint256",
          "name": "",
          "type": "uint256"
        }
      ],
      "name": "randomSeeds",
      "outputs": [
        {
          "internalType": "uint256",
          "name": "",
          "type": "uint256"
        }
      ],
      "stateMutability": "view",
      "type": "function"
    },
    {
      "inputs": [
        {
          "internalType": "uint256",
          "name": "_lotteryId",
          "type": "uint256"
        },
        {
          "internalType": "uint256",
          "name": "_randomNumber",
          "type": "uint256"
        }
      ],
      "name": "receiveRandomNumber",
      "outputs": [],
      "stateMutability": "nonpayable",
      "type": "function"
    },
    {
      "inputs": [
        {
          "internalType": "address",
          "name": "_assetOwner",
          "type": "address"
        },
        {
          "internalType": "uint256",
          "name": "_lotteryId",
          "type": "uint256"
        },
        {
          "internalType": "uint256",
          "name": "_amount",
          "type": "uint256"
        }
      ],
      "name": "refund",
      "outputs": [],
      "stateMutability": "nonpayable",
      "type": "function"
    },
    {
      "inputs": [
        {
          "internalType": "uint256",
          "name": "",
          "type": "uint256"
        },
        {
          "internalType": "address",
          "name": "",
          "type": "address"
        }
      ],
      "name": "refunds",
      "outputs": [
        {
          "internalType": "uint256",
          "name": "",
          "type": "uint256"
        }
      ],
      "stateMutability": "view",
      "type": "function"
    },
    {
      "inputs": [
        {
          "internalType": "bytes32",
          "name": "role",
          "type": "bytes32"
        },
        {
          "internalType": "address",
          "name": "account",
          "type": "address"
        }
      ],
      "name": "renounceRole",
      "outputs": [],
      "stateMutability": "nonpayable",
      "type": "function"
    },
    {
      "inputs": [
        {
          "internalType": "uint256",
          "name": "_lotteryId",
          "type": "uint256"
        }
      ],
      "name": "requestRandomNumber",
      "outputs": [],
      "stateMutability": "nonpayable",
      "type": "function"
    },
    {
      "inputs": [
        {
          "internalType": "bytes32",
          "name": "role",
          "type": "bytes32"
        },
        {
          "internalType": "address",
          "name": "account",
          "type": "address"
        }
      ],
      "name": "revokeRole",
      "outputs": [],
      "stateMutability": "nonpayable",
      "type": "function"
    },
    {
      "inputs": [],
      "name": "rewardsContract",
      "outputs": [
        {
          "internalType": "contract IRewards",
          "name": "",
          "type": "address"
        }
      ],
      "stateMutability": "view",
      "type": "function"
    },
    {
      "inputs": [
        {
          "internalType": "uint256",
          "name": "_lotteryId",
          "type": "uint256"
        },
        {
          "internalType": "uint32",
          "name": "_maxTickets",
          "type": "uint32"
        }
      ],
      "name": "setMaxTickets",
      "outputs": [],
      "stateMutability": "nonpayable",
      "type": "function"
    },
    {
      "inputs": [
        {
          "internalType": "uint256",
          "name": "_lotteryId",
          "type": "uint256"
        },
        {
          "internalType": "uint32",
          "name": "_maxTicketsPerUser",
          "type": "uint32"
        }
      ],
      "name": "setMaxTicketsPerUser",
      "outputs": [],
      "stateMutability": "nonpayable",
      "type": "function"
    },
    {
      "inputs": [
        {
          "internalType": "uint256",
          "name": "_lotteryId",
          "type": "uint256"
        },
        {
          "internalType": "bytes32",
          "name": "_root",
          "type": "bytes32"
        }
      ],
      "name": "setPrizeMerkleRoot",
      "outputs": [],
      "stateMutability": "nonpayable",
      "type": "function"
    },
    {
      "inputs": [
        {
          "internalType": "address",
          "name": "_IRandomNumberGenerator",
          "type": "address"
        }
      ],
      "name": "setRandomGenerator",
      "outputs": [],
      "stateMutability": "nonpayable",
      "type": "function"
    },
    {
      "inputs": [
        {
          "internalType": "address",
          "name": "_rewardsContract",
          "type": "address"
        }
      ],
      "name": "setRewardsContract",
      "outputs": [],
      "stateMutability": "nonpayable",
      "type": "function"
    },
    {
      "inputs": [
        {
          "internalType": "address",
          "name": "_signer",
          "type": "address"
        }
      ],
      "name": "setSignerAddress",
      "outputs": [],
      "stateMutability": "nonpayable",
      "type": "function"
    },
    {
      "inputs": [
        {
          "internalType": "address",
          "name": "_token",
          "type": "address"
        }
      ],
      "name": "setToken",
      "outputs": [],
      "stateMutability": "nonpayable",
      "type": "function"
    },
    {
      "inputs": [
        {
          "internalType": "uint256",
          "name": "_lotteryId",
          "type": "uint256"
        },
        {
          "internalType": "address",
          "name": "_whitelist",
          "type": "address"
        }
      ],
      "name": "setWhitelist",
      "outputs": [],
      "stateMutability": "nonpayable",
      "type": "function"
    },
    {
      "inputs": [
        {
          "internalType": "bytes4",
          "name": "interfaceId",
          "type": "bytes4"
        }
      ],
      "name": "supportsInterface",
      "outputs": [
        {
          "internalType": "bool",
          "name": "",
          "type": "bool"
        }
      ],
      "stateMutability": "view",
      "type": "function"
    },
    {
      "inputs": [],
      "name": "token",
      "outputs": [
        {
          "internalType": "contract IERC20",
          "name": "",
          "type": "address"
        }
      ],
      "stateMutability": "view",
      "type": "function"
    },
    {
      "inputs": [],
      "name": "unpause",
      "outputs": [],
      "stateMutability": "nonpayable",
      "type": "function"
    },
    {
      "inputs": [
        {
          "internalType": "uint256",
          "name": "lotteryId",
          "type": "uint256"
        },
        {
          "internalType": "uint256",
          "name": "_ticketCostPoints",
          "type": "uint256"
        },
        {
          "internalType": "uint256",
          "name": "_ticketCostTokens",
          "type": "uint256"
        },
        {
          "internalType": "uint32",
          "name": "_startTime",
          "type": "uint32"
        },
        {
          "internalType": "uint32",
          "name": "_closeTime",
          "type": "uint32"
        },
        {
          "internalType": "contract INFT",
          "name": "_nftContract",
          "type": "address"
        },
        {
          "internalType": "uint16",
          "name": "_maxTickets",
          "type": "uint16"
        },
        {
          "internalType": "enum Lottery.Status",
          "name": "_status",
          "type": "uint8"
        },
        {
          "internalType": "uint128",
          "name": "_firstPrizeId",
          "type": "uint128"
        },
        {
          "internalType": "uint128",
          "name": "_lastPrizeId",
          "type": "uint128"
        }
      ],
      "name": "updateLottery",
      "outputs": [],
      "stateMutability": "nonpayable",
      "type": "function"
    },
    {
      "inputs": [
        {
          "internalType": "address",
          "name": "newImplementation",
          "type": "address"
        }
      ],
      "name": "upgradeTo",
      "outputs": [],
      "stateMutability": "nonpayable",
      "type": "function"
    },
    {
      "inputs": [
        {
          "internalType": "address",
          "name": "newImplementation",
          "type": "address"
        },
        {
          "internalType": "bytes",
          "name": "data",
          "type": "bytes"
        }
      ],
      "name": "upgradeToAndCall",
      "outputs": [],
      "stateMutability": "payable",
      "type": "function"
    },
    {
      "inputs": [
        {
          "internalType": "uint256",
          "name": "",
          "type": "uint256"
        }
      ],
      "name": "whitelists",
      "outputs": [
        {
          "internalType": "address",
          "name": "",
          "type": "address"
        }
      ],
      "stateMutability": "view",
      "type": "function"
    },
    {
      "inputs": [
        {
          "internalType": "address",
          "name": "_to",
          "type": "address"
        },
        {
          "internalType": "uint256",
          "name": "_amount",
          "type": "uint256"
        }
      ],
      "name": "withdraw",
      "outputs": [],
      "stateMutability": "nonpayable",
      "type": "function"
    }
  ],
  "bytecode": "0x60a06040523060805234801561001457600080fd5b50608051614c6661004c6000396000818161115401528181611194015281816116140152818161165401526117860152614c666000f3fe6080604052600436106102e45760003560e01c80636a6be31511610190578063d098a2f0116100dc578063eb1ea52111610095578063f8c8765e1161006f578063f8c8765e14610a03578063f90328d514610a23578063fc0c546a14610a5f578063fe4d5add14610a8057600080fd5b8063eb1ea52114610973578063f3fef3a314610993578063f5f48998146109b357600080fd5b8063d098a2f014610889578063d225428f146108b7578063d547741f146108d7578063d89da286146108f7578063db2c0fd114610917578063dfa0dfa51461095357600080fd5b806394b3520411610149578063a217fddf11610123578063a217fddf146107f9578063b1eb96c91461080e578063bf4002b21461082e578063c11ab6151461084e57600080fd5b806394b352041461077557806396db752a146107955780639b7fecc3146107cc57600080fd5b80636a6be315146106b35780637350ab2c146106d357806376b3c8a8146106f35780638456cb59146107205780638627df461461073557806391d148541461075557600080fd5b806336568abe1161024f57806349c0de88116102085780634f1ef286116101e25780634f1ef2861461065357806350612da61461066657806352d1902d146106865780635c975abb1461069b57600080fd5b806349c0de88146105f35780634a004467146106135780634bc19fee1461063357600080fd5b806336568abe146104fd5780633659cfe61461051d5780633f4ba83a1461053d57806340cf23d9146105525780634538f2971461059a578063454cc4bc146105ba57600080fd5b806318fd8903116102a157806318fd890314610410578063220cce97146104305780632368040014610469578063248a9ca3146104975780632f2ff15d146104c75780632f9aa1fe146104e757600080fd5b806301ffc9a7146102e957806302e060c61461031e578063046dc166146103805780630b9f1c02146103a25780631398e076146103c2578063144fa6d7146103f0575b600080fd5b3480156102f557600080fd5b50610309610304366004614028565b610ab7565b60405190151581526020015b60405180910390f35b34801561032a57600080fd5b50610366610339366004614067565b61013860209081526000928352604080842090915290825290205461ffff81169062010000900460ff1682565b6040805161ffff9093168352901515602083015201610315565b34801561038c57600080fd5b506103a061039b366004614097565b610aee565b005b3480156103ae57600080fd5b506103a06103bd3660046140f1565b610baa565b3480156103ce57600080fd5b506103e26103dd36600461419e565b610dc0565b604051908152602001610315565b3480156103fc57600080fd5b506103a061040b366004614097565b610de2565b34801561041c57600080fd5b506103a061042b3660046141b7565b610e95565b34801561043c57600080fd5b5061013254610451906001600160a01b031681565b6040516001600160a01b039091168152602001610315565b34801561047557600080fd5b506103e261048436600461419e565b61013a6020526000908152604090205481565b3480156104a357600080fd5b506103e26104b236600461419e565b60009081526065602052604090206001015490565b3480156104d357600080fd5b506103a06104e2366004614067565b6110a2565b3480156104f357600080fd5b50610133546103e2565b34801561050957600080fd5b506103a0610518366004614067565b6110cc565b34801561052957600080fd5b506103a0610538366004614097565b61114a565b34801561054957600080fd5b506103a0611229565b34801561055e57600080fd5b506103e261056d366004614067565b6000918252610138602090815260408084206001600160a01b0393909316845291905290205461ffff1690565b3480156105a657600080fd5b506103a06105b536600461419e565b6112c3565b3480156105c657600080fd5b506103e26105d5366004614067565b61013960209081526000928352604080842090915290825290205481565b3480156105ff57600080fd5b5061045161060e3660046141ec565b611404565b34801561061f57600080fd5b506103a061062e36600461420e565b61143d565b34801561063f57600080fd5b506103a061064e366004614097565b611501565b6103a0610661366004614250565b61160a565b34801561067257600080fd5b506103a06106813660046141ec565b6116d6565b34801561069257600080fd5b506103e2611779565b3480156106a757600080fd5b5060fb5460ff16610309565b3480156106bf57600080fd5b506103a06106ce36600461420e565b61182c565b3480156106df57600080fd5b506103a06106ee366004614356565b611967565b3480156106ff57600080fd5b5061071361070e36600461419e565b611b62565b60405161031591906143ef565b34801561072c57600080fd5b506103a0611cd0565b34801561074157600080fd5b506103a06107503660046141ec565b611d68565b34801561076157600080fd5b50610309610770366004614067565b6122b5565b34801561078157600080fd5b506103a06107903660046144fa565b6122e0565b3480156107a157600080fd5b506104516107b036600461419e565b600090815261013560205260409020546001600160a01b031690565b3480156107d857600080fd5b506107ec6107e7366004614572565b612646565b604051610315919061459e565b34801561080557600080fd5b506103e2600081565b34801561081a57600080fd5b506103a061082936600461419e565b612732565b34801561083a57600080fd5b506103a061084936600461420e565b6129b8565b34801561085a57600080fd5b506103e261086936600461419e565b60009081526101346020526040902054600160a01b900463ffffffff1690565b34801561089557600080fd5b506103e26108a436600461419e565b6101366020526000908152604090205481565b3480156108c357600080fd5b506103a06108d23660046145eb565b612a7c565b3480156108e357600080fd5b506103a06108f2366004614067565b612db4565b34801561090357600080fd5b506103a0610912366004614067565b612dd9565b34801561092357600080fd5b506103096109323660046141ec565b60009182526101376020908152604080842092845291905290205460ff1690565b34801561095f57600080fd5b506103a061096e366004614097565b612e98565b34801561097f57600080fd5b506103a061098e3660046141ec565b612f4b565b34801561099f57600080fd5b506103a06109ae3660046146b1565b61306b565b3480156109bf57600080fd5b506109ee6109ce36600461419e565b60009081526101346020526040902054600160401b900463ffffffff1690565b60405163ffffffff9091168152602001610315565b348015610a0f57600080fd5b506103a0610a1e3660046146dd565b613173565b348015610a2f57600080fd5b50610309610a3e3660046141ec565b61013760209081526000928352604080842090915290825290205460ff1681565b348015610a6b57600080fd5b5061013054610451906001600160a01b031681565b348015610a8c57600080fd5b50610451610a9b36600461419e565b610135602052600090815260409020546001600160a01b031681565b60006001600160e01b03198216637965db0b60e01b1480610ae857506301ffc9a760e01b6001600160e01b03198316145b92915050565b61012d54604051632474521560e21b8152600060048201523360248201526001600160a01b03909116906391d1485490604401602060405180830381865afa158015610b3e573d6000803e3d6000fd5b505050506040513d601f19601f82011682018060405250810190610b629190614739565b610b875760405162461bcd60e51b8152600401610b7e9061475b565b60405180910390fd5b61012f80546001600160a01b0319166001600160a01b0392909216919091179055565b61012d54604051632474521560e21b8152600060048201523360248201526001600160a01b03909116906391d1485490604401602060405180830381865afa158015610bfa573d6000803e3d6000fd5b505050506040513d601f19601f82011682018060405250810190610c1e9190614739565b610c3a5760405162461bcd60e51b8152600401610b7e9061475b565b868660008263ffffffff1611610c875760405162461bcd60e51b8152602060048201526012602482015271496e76616c69642073746172742074696d6560701b6044820152606401610b7e565b8163ffffffff168163ffffffff1611610cb25760405162461bcd60e51b8152600401610b7e90614785565b60008c8152610134602052604090208054600482018d9055600582018c90556001820180546001600160a01b038b166001600160a01b0319909116179055600160601b61ffff89160263ffffffff60601b1963ffffffff8c81166401000000000267ffffffffffffffff19909416908e161792909217918216811783558791839160ff60c01b19166cff0000000000000000ffffffff60601b1990911617600160c01b836003811115610d6757610d676143b7565b02179055506001600160801b03848116600160801b02908616176002820155856003811115610d9857610d986143b7565b6040518e90600080516020614bca83398151915290600090a350505050505050505050505050565b6101338181548110610dd157600080fd5b600091825260209091200154905081565b61012d54604051632474521560e21b8152600060048201523360248201526001600160a01b03909116906391d1485490604401602060405180830381865afa158015610e32573d6000803e3d6000fd5b505050506040513d601f19601f82011682018060405250810190610e569190614739565b610e725760405162461bcd60e51b8152600401610b7e9061475b565b61013080546001600160a01b0319166001600160a01b0392909216919091179055565b60fb5460ff1615610eb85760405162461bcd60e51b8152600401610b7e906147c8565b600082815261013460205260408120908154600160c01b900460ff166003811115610ee557610ee56143b7565b03610f2a5760405162461bcd60e51b8152602060048201526015602482015274496e76616c6964206c6f747465727920737461746560581b6044820152606401610b7e565b6000838152610139602090815260408083206001600160a01b0388168452909152902054821115610fa75760405162461bcd60e51b815260206004820152602160248201527f43616e277420726566756e642074686520616d6f756e742072657175657374656044820152601960fa1b6064820152608401610b7e565b6000838152610139602090815260408083206001600160a01b038816845290915281208054849290610fda908490614808565b90915550506101305460405163a9059cbb60e01b81526001600160a01b038681166004830152602482018590529091169063a9059cbb906044016020604051808303816000875af1158015611033573d6000803e3d6000fd5b505050506040513d601f19601f820116820180604052508101906110579190614739565b50836001600160a01b0316837f7ca5472b7ea78c2c0141c5a12ee6d170cf4ce8ed06be3d22c8252ddfc7a6a2c48460405161109491815260200190565b60405180910390a350505050565b6000828152606560205260409020600101546110bd8161324a565b6110c78383613254565b505050565b6001600160a01b038116331461113c5760405162461bcd60e51b815260206004820152602f60248201527f416363657373436f6e74726f6c3a2063616e206f6e6c792072656e6f756e636560448201526e103937b632b9903337b91039b2b63360891b6064820152608401610b7e565b61114682826132da565b5050565b6001600160a01b037f00000000000000000000000000000000000000000000000000000000000000001630036111925760405162461bcd60e51b8152600401610b7e9061481f565b7f00000000000000000000000000000000000000000000000000000000000000006001600160a01b03166111db600080516020614bea833981519152546001600160a01b031690565b6001600160a01b0316146112015760405162461bcd60e51b8152600401610b7e9061486b565b61120a81613341565b60408051600080825260208201909252611226918391906133d1565b50565b61012d54604051632474521560e21b8152600060048201523360248201526001600160a01b03909116906391d1485490604401602060405180830381865afa158015611279573d6000803e3d6000fd5b505050506040513d601f19601f8201168201806040525081019061129d9190614739565b6112b95760405162461bcd60e51b8152600401610b7e9061475b565b6112c161353c565b565b61012d54604051632474521560e21b8152600060048201523360248201526001600160a01b03909116906391d1485490604401602060405180830381865afa158015611313573d6000803e3d6000fd5b505050506040513d601f19601f820116820180604052508101906113379190614739565b6113535760405162461bcd60e51b8152600401610b7e9061475b565b6000818152610134602052604090208054600160401b900463ffffffff16156113be5760405162461bcd60e51b815260206004820152601760248201527f4c6f747465727920616c726561647920737461727465640000000000000000006044820152606401610b7e565b805460ff60c01b1916600160c01b9081178083550460ff1660038111156113e7576113e76143b7565b6040518390600080516020614bca83398151915290600090a35050565b61013b602052816000526040600020818154811061142157600080fd5b6000918252602090912001546001600160a01b03169150829050565b61012d54604051632474521560e21b8152600060048201523360248201526001600160a01b03909116906391d1485490604401602060405180830381865afa15801561148d573d6000803e3d6000fd5b505050506040513d601f19601f820116820180604052508101906114b19190614739565b6114cd5760405162461bcd60e51b8152600401610b7e9061475b565b60009182526101346020526040909120805463ffffffff909216600160801b0263ffffffff60801b19909216919091179055565b61012d54604051632474521560e21b8152600060048201523360248201526001600160a01b03909116906391d1485490604401602060405180830381865afa158015611551573d6000803e3d6000fd5b505050506040513d601f19601f820116820180604052508101906115759190614739565b6115915760405162461bcd60e51b8152600401610b7e9061475b565b6001600160a01b0381166115e75760405162461bcd60e51b815260206004820152601d60248201527f436f6e7472616374732063616e6e6f74206265203020616464726573730000006044820152606401610b7e565b61013180546001600160a01b0319166001600160a01b0392909216919091179055565b6001600160a01b037f00000000000000000000000000000000000000000000000000000000000000001630036116525760405162461bcd60e51b8152600401610b7e9061481f565b7f00000000000000000000000000000000000000000000000000000000000000006001600160a01b031661169b600080516020614bea833981519152546001600160a01b031690565b6001600160a01b0316146116c15760405162461bcd60e51b8152600401610b7e9061486b565b6116ca82613341565b611146828260016133d1565b61012d54604051632474521560e21b8152600060048201523360248201526001600160a01b03909116906391d1485490604401602060405180830381865afa158015611726573d6000803e3d6000fd5b505050506040513d601f19601f8201168201806040525081019061174a9190614739565b6117665760405162461bcd60e51b8152600401610b7e9061475b565b6000918252610136602052604090912055565b6000306001600160a01b037f000000000000000000000000000000000000000000000000000000000000000016146118195760405162461bcd60e51b815260206004820152603860248201527f555550535570677261646561626c653a206d757374206e6f742062652063616c60448201527f6c6564207468726f7567682064656c656761746563616c6c00000000000000006064820152608401610b7e565b50600080516020614bea83398151915290565b61012d54604051632474521560e21b8152600060048201523360248201526001600160a01b03909116906391d1485490604401602060405180830381865afa15801561187c573d6000803e3d6000fd5b505050506040513d601f19601f820116820180604052508101906118a09190614739565b6118bc5760405162461bcd60e51b8152600401610b7e9061475b565b600082815261013460205260409020805463ffffffff166119165760405162461bcd60e51b8152602060048201526014602482015273131bdd1d195c9e481a59081b9bdd08199bdd5b9960621b6044820152606401610b7e565b805463ffffffff908116908316116119405760405162461bcd60e51b8152600401610b7e90614785565b805463ffffffff9092166401000000000267ffffffff000000001990921691909117905550565b604080513360208083018290528284018990528351808403850181526060840185528051908201207f19457468657265756d205369676e6564204d6573736167653a0a3332000000006080850152609c808501919091528451808503909101815260bc840180865281519183019190912061012f5460dc601f890185900490940286018401909652868252929492936001600160a01b0390931692611a2892859291899189918291018382808284376000920191909152506135cf92505050565b6001600160a01b031614611a725760405162461bcd60e51b8152602060048201526011602482015270496e76616c6964207369676e617475726560781b6044820152606401610b7e565b6101325460405163f662781d60e01b81526001600160a01b0384811660048301528992169063f662781d90602401602060405180830381865afa158015611abd573d6000803e3d6000fd5b505050506040513d601f19601f82011682018060405250810190611ae191906148b7565b1015611b4f5761013254604051630259ab7760e61b81526001600160a01b038481166004830152602482018a90529091169063966addc090604401600060405180830381600087803b158015611b3657600080fd5b505af1158015611b4a573d6000803e3d6000fd5b505050505b611b598686611d68565b50505050505050565b604080516101a081018252600080825260208201819052918101829052606081018290526080810182905260a0810182905260c0810182905260e0810182905261010081018290526101208101829052610140810182905261016081018290526101808101919091526000828152610134602090815260409182902082516101a081018452815463ffffffff80821683526401000000008204811694830194909452600160401b8104841694820194909452600160601b840483166060820152600160801b840483166080820152600160a01b840490921660a0830152909160c0830190600160c01b900460ff166003811115611c6157611c616143b7565b6003811115611c7257611c726143b7565b815260018201546001600160a01b0316602082015260028201546001600160801b038082166040840152600160801b90910416606082015260038201546080820152600482015460a082015260059091015460c09091015292915050565b61012d54604051632474521560e21b8152600060048201523360248201526001600160a01b03909116906391d1485490604401602060405180830381865afa158015611d20573d6000803e3d6000fd5b505050506040513d601f19601f82011682018060405250810190611d449190614739565b611d605760405162461bcd60e51b8152600401610b7e9061475b565b6112c16135f3565b60fb5460ff1615611d8b5760405162461bcd60e51b8152600401610b7e906147c8565b6000828152610135602052604090205482906001600160a01b031615611e6a5760008181526101356020526040908190205490516320c18e6b60e21b8152336004820152602481018390526001600160a01b039091169063830639ac90604401602060405180830381865afa158015611e08573d6000803e3d6000fd5b505050506040513d601f19601f82011682018060405250810190611e2c9190614739565b611e6a5760405162461bcd60e51b815260206004820152600f60248201526e139bdd081dda1a5d195b1a5cdd1959608a1b6044820152606401610b7e565b600083815261013460205260408120805490919081908190600160601b900463ffffffff1615611ef957835463ffffffff600160601b8204811691611eb8918991600160a01b9004166148d0565b1115611ef95760405162461bcd60e51b815260206004820152601060248201526f151a58dad95d1cc81cdbdb19081bdd5d60821b6044820152606401610b7e565b60008781526101386020908152604080832033845290915290208054855461ffff90911690600160801b900463ffffffff1615611f97578554600160801b900463ffffffff16611f4989836148d0565b1115611f975760405162461bcd60e51b815260206004820181905260248201527f43616e277420627579207468697320616d6f756e74206f66207469636b6574736044820152606401610b7e565b85544263ffffffff90911611801590611fbf575085544264010000000090910463ffffffff16115b8015611fe8575060018654600160c01b900460ff166003811115611fe557611fe56143b7565b14155b61202a5760405162461bcd60e51b81526020600482015260136024820152722637ba3a32b93c9034b9903737ba1037b832b760691b6044820152606401610b7e565b600486015461203990896148e8565b9350831561204d5761204b338561364b565b505b6005860154865490935088908790601490612076908490600160a01b900463ffffffff16614907565b92506101000a81548163ffffffff021916908363ffffffff1602179055506000831115612155576120a783896148e8565b610130546040516323b872dd60e01b8152336004820152306024820152604481018390529196506001600160a01b0316906323b872dd906064016020604051808303816000875af1158015612100573d6000803e3d6000fd5b505050506040513d601f19601f820116820180604052508101906121249190614739565b506000898152610139602090815260408083203384529091528120805487929061214f9084906148d0565b90915550505b806000036121e7578554869060089061217a90600160401b900463ffffffff1661492f565b825463ffffffff9182166101009390930a928302919092021990911617905560008981526101386020908152604080832033845290915290208254815461ffff19811661ffff9092169182178355845460ff62010000918290041615150262ffffff199091169091171790555b8154889083906000906121ff90849061ffff16614952565b825461ffff9182166101009390930a928302919092021990911617905550600089815261013b60205260408120905b898110156122a85781546001810183556000838152602090200180546001600160a01b0319163390811790915582546040518d917fc41bbb54d04f2268c7895b9330f18468c306a3f92698a92c4c86b297873978489161229091815260200190565b60405180910390a36122a18161496f565b905061222e565b5050505050505050505050565b60009182526065602090815260408084206001600160a01b0393909316845291905290205460ff1690565b61012d54604051632474521560e21b8152600060048201523360248201526001600160a01b03909116906391d1485490604401602060405180830381865afa158015612330573d6000803e3d6000fd5b505050506040513d601f19601f820116820180604052508101906123549190614739565b6123705760405162461bcd60e51b8152600401610b7e9061475b565b868660008263ffffffff16116123bd5760405162461bcd60e51b8152602060048201526012602482015271496e76616c69642073746172742074696d6560701b6044820152606401610b7e565b8163ffffffff168163ffffffff16116123e85760405162461bcd60e51b8152600401610b7e90614785565b610133805460018101825560009182527f92e985329fb94cc1b424ebb0f7f2929b6d27383ca94c0ec71c44fb48bdf96d2c018d9055604080516101a08101825263ffffffff808d1682528b16602082015290810182905261ffff80891660608301528716608082015260a0810182905260c08101828152602001896001600160a01b03168152602001866001600160801b03168152602001856001600160801b031681526020018e81526020018d81526020018c81525090508061013460008f815260200190815260200160002060008201518160000160006101000a81548163ffffffff021916908363ffffffff16021790555060208201518160000160046101000a81548163ffffffff021916908363ffffffff16021790555060408201518160000160086101000a81548163ffffffff021916908363ffffffff160217905550606082015181600001600c6101000a81548163ffffffff021916908363ffffffff16021790555060808201518160000160106101000a81548163ffffffff021916908363ffffffff16021790555060a08201518160000160146101000a81548163ffffffff021916908363ffffffff16021790555060c08201518160000160186101000a81548160ff021916908360038111156125ca576125ca6143b7565b021790555060e08201516001820180546001600160a01b039092166001600160a01b03199092169190911790556101008201516101208301516001600160801b03908116600160801b02911617600282015561014082015160038201556101608201516004820155610180909101516005909101556000610d98565b606060006126548484614808565b61265f9060016148d0565b67ffffffffffffffff8111156126775761267761423a565b6040519080825280602002602001820160405280156126a0578160200160208202803683370190505b509050835b83811161272757600086815261013b602052604090208054829081106126cd576126cd614988565b9060005260206000200160009054906101000a90046001600160a01b03168282815181106126fd576126fd614988565b6001600160a01b03909216602092830291909101909101528061271f8161496f565b9150506126a5565b5090505b9392505050565b61012d54604051632474521560e21b8152600060048201523360248201526001600160a01b03909116906391d1485490604401602060405180830381865afa158015612782573d6000803e3d6000fd5b505050506040513d601f19601f820116820180604052508101906127a69190614739565b6127c25760405162461bcd60e51b8152600401610b7e9061475b565b600081815261013460205260409020805463ffffffff1661281a5760405162461bcd60e51b8152602060048201526012602482015271125b9d985b1a59081b1bdd1d195c9e481a5960721b6044820152606401610b7e565b80544264010000000090910463ffffffff16106128715760405162461bcd60e51b8152602060048201526015602482015274131bdd1d195c9e481a5cc81b9bdd0818db1bdcd959605a1b6044820152606401610b7e565b60008154600160c01b900460ff166003811115612890576128906143b7565b036128dc57805460ff60c01b1916600160c11b17808255600160c01b900460ff1660038111156128c2576128c26143b7565b6040518390600080516020614bca83398151915290600090a35b60028154600160c01b900460ff1660038111156128fb576128fb6143b7565b146129485760405162461bcd60e51b815260206004820152601760248201527f4c6f7474657279206d75737420626520636c6f736564210000000000000000006044820152606401610b7e565b61013154604051632cdc85e960e21b8152600481018490526001600160a01b039091169063b37217a4906024016020604051808303816000875af1158015612994573d6000803e3d6000fd5b505050506040513d601f19601f820116820180604052508101906110c791906148b7565b61012d54604051632474521560e21b8152600060048201523360248201526001600160a01b03909116906391d1485490604401602060405180830381865afa158015612a08573d6000803e3d6000fd5b505050506040513d601f19601f82011682018060405250810190612a2c9190614739565b612a485760405162461bcd60e51b8152600401610b7e9061475b565b60009182526101346020526040909120805463ffffffff909216600160601b0263ffffffff60601b19909216919091179055565b60fb5460ff1615612a9f5760405162461bcd60e51b8152600401610b7e906147c8565b60008781526101376020908152604080832088845290915290205460ff1615612b145760405162461bcd60e51b815260206004820152602160248201527f5061727469636970616e7420616c726561647920636c61696d6564207072697a6044820152606560f81b6064820152608401610b7e565b612ba7612b5988888888888080601f0160208091040260200160405190810160405280939291908181526020018383808284376000920191909152506136c492505050565b61013660008a8152602001908152602001600020548484808060200260200160405190810160405280939291908181526020018383602002808284376000920191909152506136fd92505050565b612bea5760405162461bcd60e51b815260206004820152601460248201527324b73b30b634b21036b2b935b63290383937b7b360611b6044820152606401610b7e565b60008781526101346020526040902060058101548015612cb15760008981526101396020908152604080832033845290915281208054839290612c2e908490614808565b909155505061013054600183015460405163a9059cbb60e01b81526001600160a01b0391821660048201526024810184905291169063a9059cbb906044016020604051808303816000875af1158015612c8b573d6000803e3d6000fd5b505050506040513d601f19601f82011682018060405250810190612caf9190614739565b505b6000898152610138602090815260408083206001600160a01b03808d168552908352818420805462ff00001916620100001790558c8452610134835281842060019081015461013785528386208d875290945293829020805460ff191690941790935551633349e71f60e21b8152911690819063cd279c7c90612d3e908c908c908c908c9060040161499e565b600060405180830381600087803b158015612d5857600080fd5b505af1158015612d6c573d6000803e3d6000fd5b5050505087896001600160a01b03168b7f4aa95f981a8337cb337de335b965507da0879c3b49f799d20058e913f5ad2c2660405160405180910390a450505050505050505050565b600082815260656020526040902060010154612dcf8161324a565b6110c783836132da565b61012d54604051632474521560e21b8152600060048201523360248201526001600160a01b03909116906391d1485490604401602060405180830381865afa158015612e29573d6000803e3d6000fd5b505050506040513d601f19601f82011682018060405250810190612e4d9190614739565b612e695760405162461bcd60e51b8152600401610b7e9061475b565b6000918252610135602052604090912080546001600160a01b0319166001600160a01b03909216919091179055565b61012d54604051632474521560e21b8152600060048201523360248201526001600160a01b03909116906391d1485490604401602060405180830381865afa158015612ee8573d6000803e3d6000fd5b505050506040513d601f19601f82011682018060405250810190612f0c9190614739565b612f285760405162461bcd60e51b8152600401610b7e9061475b565b61013280546001600160a01b0319166001600160a01b0392909216919091179055565b610131546001600160a01b03163314612f995760405162461bcd60e51b815260206004820152601060248201526f4f6e6c7920524e47206164647265737360801b6044820152606401610b7e565b60008281526101346020526040902060028154600160c01b900460ff166003811115612fc757612fc76143b7565b1461300d5760405162461bcd60e51b8152602060048201526016602482015275131bdd1d195c9e481b5d5cdd0818994818db1bdcd95960521b6044820152606401610b7e565b805460ff60c01b1916600360c01b178155600083815261013a602052604090208290558054600160c01b900460ff16600381111561304d5761304d6143b7565b6040518490600080516020614bca83398151915290600090a3505050565b61012d54604051632474521560e21b8152600060048201523360248201526001600160a01b03909116906391d1485490604401602060405180830381865afa1580156130bb573d6000803e3d6000fd5b505050506040513d601f19601f820116820180604052508101906130df9190614739565b6130fb5760405162461bcd60e51b8152600401610b7e9061475b565b6101305460405163a9059cbb60e01b81526001600160a01b038481166004830152602482018490529091169063a9059cbb906044016020604051808303816000875af115801561314f573d6000803e3d6000fd5b505050506040513d601f19601f820116820180604052508101906110c79190614739565b600061317f6001613712565b90508015613197576000805461ff0019166101001790555b61319f61379f565b6131a76137c6565b6131af61379f565b61013080546001600160a01b038086166001600160a01b03199283161790925561012f8054878416908316179055610132805488841690831617905561012d8054928516929091169190911790558015613243576000805461ff0019169055604051600181527f7f26b83ff96e1f2b6a682f133852f6798a09c465da95921460cefb38474024989060200160405180910390a15b5050505050565b61122681336137f5565b61325e82826122b5565b6111465760008281526065602090815260408083206001600160a01b03851684529091529020805460ff191660011790556132963390565b6001600160a01b0316816001600160a01b0316837f2f8788117e7eff1d82e926ec794901d17c78024a50270940304540a733656f0d60405160405180910390a45050565b6132e482826122b5565b156111465760008281526065602090815260408083206001600160a01b0385168085529252808320805460ff1916905551339285917ff6391f5c32d9c69d2a47ea670b442974b53935d1edc7fd64eb21e047a839171b9190a45050565b61012d54604051632474521560e21b8152600060048201523360248201526001600160a01b03909116906391d1485490604401602060405180830381865afa158015613391573d6000803e3d6000fd5b505050506040513d601f19601f820116820180604052508101906133b59190614739565b6112265760405162461bcd60e51b8152600401610b7e9061475b565b7f4910fdfa16fed3260ed0e7147f7cc6da11a60208b5b9406d12a635614ffd91435460ff1615613404576110c783613859565b826001600160a01b03166352d1902d6040518163ffffffff1660e01b8152600401602060405180830381865afa92505050801561345e575060408051601f3d908101601f1916820190925261345b918101906148b7565b60015b6134c15760405162461bcd60e51b815260206004820152602e60248201527f45524331393637557067726164653a206e657720696d706c656d656e7461746960448201526d6f6e206973206e6f74205555505360901b6064820152608401610b7e565b600080516020614bea83398151915281146135305760405162461bcd60e51b815260206004820152602960248201527f45524331393637557067726164653a20756e737570706f727465642070726f786044820152681a58589b195555525160ba1b6064820152608401610b7e565b506110c78383836138f5565b60fb5460ff166135855760405162461bcd60e51b815260206004820152601460248201527314185d5cd8589b194e881b9bdd081c185d5cd95960621b6044820152606401610b7e565b60fb805460ff191690557f5db9ee0a495bf2e6ff9c91a7834c1ba4fdd244a5e8aa4e537bd38aeae4b073aa335b6040516001600160a01b03909116815260200160405180910390a1565b60008060006135de8585613920565b915091506135eb8161398e565b509392505050565b60fb5460ff16156136165760405162461bcd60e51b8152600401610b7e906147c8565b60fb805460ff191660011790557f62e78cea01bee320cd4e420270b5ea74000d11b0c9f74754ebdbfc544b05a2586135b23390565b61013254604051631e961d2760e01b81526001600160a01b038481166004830152602482018490526000921690631e961d27906044016020604051808303816000875af11580156136a0573d6000803e3d6000fd5b505050506040513d601f19601f8201168201806040525081019061272b91906148b7565b6000848484846040516020016136dd9493929190614a3e565b604051602081830303815290604052805190602001209050949350505050565b600061370a828486613b44565b949350505050565b60008054610100900460ff1615613759578160ff1660011480156137355750303b155b6137515760405162461bcd60e51b8152600401610b7e90614a75565b506000919050565b60005460ff8084169116106137805760405162461bcd60e51b8152600401610b7e90614a75565b506000805460ff191660ff92909216919091179055600190565b919050565b600054610100900460ff166112c15760405162461bcd60e51b8152600401610b7e90614ac3565b600054610100900460ff166137ed5760405162461bcd60e51b8152600401610b7e90614ac3565b6112c1613b5a565b6137ff82826122b5565b61114657613817816001600160a01b03166014613b8d565b613822836020613b8d565b604051602001613833929190614b0e565b60408051601f198184030181529082905262461bcd60e51b8252610b7e91600401614b83565b6001600160a01b0381163b6138c65760405162461bcd60e51b815260206004820152602d60248201527f455243313936373a206e657720696d706c656d656e746174696f6e206973206e60448201526c1bdd08184818dbdb9d1c9858dd609a1b6064820152608401610b7e565b600080516020614bea83398151915280546001600160a01b0319166001600160a01b0392909216919091179055565b6138fe83613d29565b60008251118061390b5750805b156110c75761391a8383613d69565b50505050565b60008082516041036139565760208301516040840151606085015160001a61394a87828585613e5d565b94509450505050613987565b825160400361397f5760208301516040840151613974868383613f4a565b935093505050613987565b506000905060025b9250929050565b60008160048111156139a2576139a26143b7565b036139aa5750565b60018160048111156139be576139be6143b7565b03613a0b5760405162461bcd60e51b815260206004820152601860248201527f45434453413a20696e76616c6964207369676e617475726500000000000000006044820152606401610b7e565b6002816004811115613a1f57613a1f6143b7565b03613a6c5760405162461bcd60e51b815260206004820152601f60248201527f45434453413a20696e76616c6964207369676e6174757265206c656e677468006044820152606401610b7e565b6003816004811115613a8057613a806143b7565b03613ad85760405162461bcd60e51b815260206004820152602260248201527f45434453413a20696e76616c6964207369676e6174757265202773272076616c604482015261756560f01b6064820152608401610b7e565b6004816004811115613aec57613aec6143b7565b036112265760405162461bcd60e51b815260206004820152602260248201527f45434453413a20696e76616c6964207369676e6174757265202776272076616c604482015261756560f01b6064820152608401610b7e565b600082613b518584613f83565b14949350505050565b600054610100900460ff16613b815760405162461bcd60e51b8152600401610b7e90614ac3565b60fb805460ff19169055565b60606000613b9c8360026148e8565b613ba79060026148d0565b67ffffffffffffffff811115613bbf57613bbf61423a565b6040519080825280601f01601f191660200182016040528015613be9576020820181803683370190505b509050600360fc1b81600081518110613c0457613c04614988565b60200101906001600160f81b031916908160001a905350600f60fb1b81600181518110613c3357613c33614988565b60200101906001600160f81b031916908160001a9053506000613c578460026148e8565b613c629060016148d0565b90505b6001811115613cda576f181899199a1a9b1b9c1cb0b131b232b360811b85600f1660108110613c9657613c96614988565b1a60f81b828281518110613cac57613cac614988565b60200101906001600160f81b031916908160001a90535060049490941c93613cd381614b96565b9050613c65565b50831561272b5760405162461bcd60e51b815260206004820181905260248201527f537472696e67733a20686578206c656e67746820696e73756666696369656e746044820152606401610b7e565b613d3281613859565b6040516001600160a01b038216907fbc7cd75a20ee27fd9adebab32041f755214dbc6bffa90cc0225b39da2e5c2d3b90600090a250565b60606001600160a01b0383163b613dd15760405162461bcd60e51b815260206004820152602660248201527f416464726573733a2064656c65676174652063616c6c20746f206e6f6e2d636f6044820152651b9d1c9858dd60d21b6064820152608401610b7e565b600080846001600160a01b031684604051613dec9190614bad565b600060405180830381855af49150503d8060008114613e27576040519150601f19603f3d011682016040523d82523d6000602084013e613e2c565b606091505b5091509150613e548282604051806060016040528060278152602001614c0a60279139613fef565b95945050505050565b6000807f7fffffffffffffffffffffffffffffff5d576e7357a4501ddfe92f46681b20a0831115613e945750600090506003613f41565b8460ff16601b14158015613eac57508460ff16601c14155b15613ebd5750600090506004613f41565b6040805160008082526020820180845289905260ff881692820192909252606081018690526080810185905260019060a0016020604051602081039080840390855afa158015613f11573d6000803e3d6000fd5b5050604051601f1901519150506001600160a01b038116613f3a57600060019250925050613f41565b9150600090505b94509492505050565b6000806001600160ff1b03831681613f6760ff86901c601b6148d0565b9050613f7587828885613e5d565b935093505050935093915050565b600081815b84518110156135eb576000858281518110613fa557613fa5614988565b60200260200101519050808311613fcb5760008381526020829052604090209250613fdc565b600081815260208490526040902092505b5080613fe78161496f565b915050613f88565b60608315613ffe57508161272b565b82511561400e5782518084602001fd5b8160405162461bcd60e51b8152600401610b7e9190614b83565b60006020828403121561403a57600080fd5b81356001600160e01b03198116811461272b57600080fd5b6001600160a01b038116811461122657600080fd5b6000806040838503121561407a57600080fd5b82359150602083013561408c81614052565b809150509250929050565b6000602082840312156140a957600080fd5b813561272b81614052565b803563ffffffff8116811461379a57600080fd5b803561ffff8116811461379a57600080fd5b80356001600160801b038116811461379a57600080fd5b6000806000806000806000806000806101408b8d03121561411157600080fd5b8a35995060208b0135985060408b0135975061412f60608c016140b4565b965061413d60808c016140b4565b955060a08b013561414d81614052565b945061415b60c08c016140c8565b935060e08b01356004811061416f57600080fd5b925061417e6101008c016140da565b915061418d6101208c016140da565b90509295989b9194979a5092959850565b6000602082840312156141b057600080fd5b5035919050565b6000806000606084860312156141cc57600080fd5b83356141d781614052565b95602085013595506040909401359392505050565b600080604083850312156141ff57600080fd5b50508035926020909101359150565b6000806040838503121561422157600080fd5b82359150614231602084016140b4565b90509250929050565b634e487b7160e01b600052604160045260246000fd5b6000806040838503121561426357600080fd5b823561426e81614052565b9150602083013567ffffffffffffffff8082111561428b57600080fd5b818501915085601f83011261429f57600080fd5b8135818111156142b1576142b161423a565b604051601f8201601f19908116603f011681019083821181831017156142d9576142d961423a565b816040528281528860208487010111156142f257600080fd5b8260208601602083013760006020848301015280955050505050509250929050565b60008083601f84011261432657600080fd5b50813567ffffffffffffffff81111561433e57600080fd5b60208301915083602082850101111561398757600080fd5b60008060008060006080868803121561436e57600080fd5b853594506020860135935060408601359250606086013567ffffffffffffffff81111561439a57600080fd5b6143a688828901614314565b969995985093965092949392505050565b634e487b7160e01b600052602160045260246000fd5b600481106143eb57634e487b7160e01b600052602160045260246000fd5b9052565b815163ffffffff1681526101a081016020830151614415602084018263ffffffff169052565b50604083015161442d604084018263ffffffff169052565b506060830151614445606084018263ffffffff169052565b50608083015161445d608084018263ffffffff169052565b5060a083015161447560a084018263ffffffff169052565b5060c083015161448860c08401826143cd565b5060e08301516144a360e08401826001600160a01b03169052565b50610100838101516001600160801b038116848301525050610120838101516001600160801b0381168483015250506101408381015190830152610160808401519083015261018092830151929091019190915290565b6000806000806000806000806000806101408b8d03121561451a57600080fd5b8a35995060208b0135985060408b0135975061453860608c016140b4565b965061454660808c016140b4565b955060a08b013561455681614052565b945061456460c08c016140c8565b935061416f60e08c016140c8565b60008060006060848603121561458757600080fd5b505081359360208301359350604090920135919050565b6020808252825182820181905260009190848201906040850190845b818110156145df5783516001600160a01b0316835292840192918401916001016145ba565b50909695505050505050565b600080600080600080600060a0888a03121561460657600080fd5b87359650602088013561461881614052565b955060408801359450606088013567ffffffffffffffff8082111561463c57600080fd5b6146488b838c01614314565b909650945060808a013591508082111561466157600080fd5b818a0191508a601f83011261467557600080fd5b81358181111561468457600080fd5b8b60208260051b850101111561469957600080fd5b60208301945080935050505092959891949750929550565b600080604083850312156146c457600080fd5b82356146cf81614052565b946020939093013593505050565b600080600080608085870312156146f357600080fd5b84356146fe81614052565b9350602085013561470e81614052565b9250604085013561471e81614052565b9150606085013561472e81614052565b939692955090935050565b60006020828403121561474b57600080fd5b8151801515811461272b57600080fd5b60208082526010908201526f41646d696e2063616c6c73206f6e6c7960801b604082015260600190565b60208082526023908201527f436c6f73652074696d65206d7573742062652061667465722073746172742074604082015262696d6560e81b606082015260800190565b60208082526010908201526f14185d5cd8589b194e881c185d5cd95960821b604082015260600190565b634e487b7160e01b600052601160045260246000fd5b60008282101561481a5761481a6147f2565b500390565b6020808252602c908201527f46756e6374696f6e206d7573742062652063616c6c6564207468726f7567682060408201526b19195b1959d85d1958d85b1b60a21b606082015260800190565b6020808252602c908201527f46756e6374696f6e206d7573742062652063616c6c6564207468726f7567682060408201526b6163746976652070726f787960a01b606082015260800190565b6000602082840312156148c957600080fd5b5051919050565b600082198211156148e3576148e36147f2565b500190565b6000816000190483118215151615614902576149026147f2565b500290565b600063ffffffff808316818516808303821115614926576149266147f2565b01949350505050565b600063ffffffff808316818103614948576149486147f2565b6001019392505050565b600061ffff808316818516808303821115614926576149266147f2565b600060018201614981576149816147f2565b5060010190565b634e487b7160e01b600052603260045260246000fd5b6001600160a01b0385168152602081018490526060604082018190528101829052818360808301376000818301608090810191909152601f909201601f191601019392505050565b60005b83811015614a015781810151838201526020016149e9565b8381111561391a5750506000910152565b60008151808452614a2a8160208601602086016149e6565b601f01601f19169290920160200192915050565b84815260018060a01b0384166020820152826040820152608060608201526000614a6b6080830184614a12565b9695505050505050565b6020808252602e908201527f496e697469616c697a61626c653a20636f6e747261637420697320616c72656160408201526d191e481a5b9a5d1a585b1a5e995960921b606082015260800190565b6020808252602b908201527f496e697469616c697a61626c653a20636f6e7472616374206973206e6f74206960408201526a6e697469616c697a696e6760a81b606082015260800190565b7f416363657373436f6e74726f6c3a206163636f756e7420000000000000000000815260008351614b468160178501602088016149e6565b7001034b99036b4b9b9b4b733903937b6329607d1b6017918401918201528351614b778160288401602088016149e6565b01602801949350505050565b60208152600061272b6020830184614a12565b600081614ba557614ba56147f2565b506000190190565b60008251614bbf8184602087016149e6565b919091019291505056fea3aca9ae20a0379d4094b84c749cbed6584ab20f0b71af75f63f6615d879c939360894a13ba1a3210667c828492db98dca3e2076cc3735a920a3ca505d382bbc416464726573733a206c6f772d6c6576656c2064656c65676174652063616c6c206661696c6564a264697066735822122039d9f42abb9297059bf14ede82a16e954e49b24fcab9b08989f9901f85007b3564736f6c634300080e0033",
  "linkReferences": {},
  "deployedLinkReferences": {}
}