{
  "_format": "hh-sol-artifact-1",
  "contractName": "Lottery",
  "sourceName": "contracts/Lottery/Lottery.sol",
  "abi": [
    {
      "anonymous": false,
      "inputs": [
        {
          "indexed": false,
          "internalType": "address",
          "name": "previousAdmin",
          "type": "address"
        },
        {
          "indexed": false,
          "internalType": "address",
          "name": "newAdmin",
          "type": "address"
        }
      ],
      "name": "AdminChanged",
      "type": "event"
    },
    {
      "anonymous": false,
      "inputs": [
        {
          "indexed": true,
          "internalType": "address",
          "name": "beacon",
          "type": "address"
        }
      ],
      "name": "BeaconUpgraded",
      "type": "event"
    },
    {
      "anonymous": false,
      "inputs": [
        {
          "indexed": false,
          "internalType": "uint8",
          "name": "version",
          "type": "uint8"
        }
      ],
      "name": "Initialized",
      "type": "event"
    },
    {
      "anonymous": false,
      "inputs": [
        {
          "indexed": true,
          "internalType": "uint256",
          "name": "lotteryId",
          "type": "uint256"
        },
        {
          "indexed": true,
          "internalType": "enum Lottery.Status",
          "name": "status",
          "type": "uint8"
        }
      ],
      "name": "LotteryStatusChanged",
      "type": "event"
    },
    {
      "anonymous": false,
      "inputs": [
        {
          "indexed": false,
          "internalType": "address",
          "name": "account",
          "type": "address"
        }
      ],
      "name": "Paused",
      "type": "event"
    },
    {
      "anonymous": false,
      "inputs": [
        {
          "indexed": true,
          "internalType": "uint256",
          "name": "lotteryId",
          "type": "uint256"
        },
        {
          "indexed": true,
          "internalType": "address",
          "name": "participantAddress",
          "type": "address"
        },
        {
          "indexed": true,
          "internalType": "uint256",
          "name": "prizeId",
          "type": "uint256"
        }
      ],
      "name": "PrizeClaimed",
      "type": "event"
    },
    {
      "anonymous": false,
      "inputs": [
        {
          "indexed": true,
          "internalType": "uint256",
          "name": "lotteryId",
          "type": "uint256"
        },
        {
          "indexed": true,
          "internalType": "address",
          "name": "participantAddress",
          "type": "address"
        },
        {
          "indexed": false,
          "internalType": "uint256",
          "name": "amount",
          "type": "uint256"
        }
      ],
      "name": "Refunded",
      "type": "event"
    },
    {
      "anonymous": false,
      "inputs": [
        {
          "indexed": true,
          "internalType": "bytes32",
          "name": "role",
          "type": "bytes32"
        },
        {
          "indexed": true,
          "internalType": "bytes32",
          "name": "previousAdminRole",
          "type": "bytes32"
        },
        {
          "indexed": true,
          "internalType": "bytes32",
          "name": "newAdminRole",
          "type": "bytes32"
        }
      ],
      "name": "RoleAdminChanged",
      "type": "event"
    },
    {
      "anonymous": false,
      "inputs": [
        {
          "indexed": true,
          "internalType": "bytes32",
          "name": "role",
          "type": "bytes32"
        },
        {
          "indexed": true,
          "internalType": "address",
          "name": "account",
          "type": "address"
        },
        {
          "indexed": true,
          "internalType": "address",
          "name": "sender",
          "type": "address"
        }
      ],
      "name": "RoleGranted",
      "type": "event"
    },
    {
      "anonymous": false,
      "inputs": [
        {
          "indexed": true,
          "internalType": "bytes32",
          "name": "role",
          "type": "bytes32"
        },
        {
          "indexed": true,
          "internalType": "address",
          "name": "account",
          "type": "address"
        },
        {
          "indexed": true,
          "internalType": "address",
          "name": "sender",
          "type": "address"
        }
      ],
      "name": "RoleRevoked",
      "type": "event"
    },
    {
      "anonymous": false,
      "inputs": [
        {
          "indexed": false,
          "internalType": "address",
          "name": "operator",
          "type": "address"
        },
        {
          "indexed": false,
          "internalType": "uint256",
          "name": "lotteryId",
          "type": "uint256"
        },
        {
          "indexed": false,
          "internalType": "uint256",
          "name": "priceOfTicket",
          "type": "uint256"
        }
      ],
      "name": "TicketCostChanged",
      "type": "event"
    },
    {
      "anonymous": false,
      "inputs": [
        {
          "indexed": true,
          "internalType": "uint256",
          "name": "lotteryId",
          "type": "uint256"
        },
        {
          "indexed": false,
          "internalType": "uint256",
          "name": "ticketNumber",
          "type": "uint256"
        },
        {
          "indexed": true,
          "internalType": "address",
          "name": "participantAddress",
          "type": "address"
        }
      ],
      "name": "TicketSold",
      "type": "event"
    },
    {
      "anonymous": false,
      "inputs": [
        {
          "indexed": false,
          "internalType": "address",
          "name": "account",
          "type": "address"
        }
      ],
      "name": "Unpaused",
      "type": "event"
    },
    {
      "anonymous": false,
      "inputs": [
        {
          "indexed": true,
          "internalType": "address",
          "name": "implementation",
          "type": "address"
        }
      ],
      "name": "Upgraded",
      "type": "event"
    },
    {
      "inputs": [],
      "name": "DEFAULT_ADMIN_ROLE",
      "outputs": [
        {
          "internalType": "bytes32",
          "name": "",
          "type": "bytes32"
        }
      ],
      "stateMutability": "view",
      "type": "function"
    },
    {
      "inputs": [
        {
          "internalType": "uint256",
          "name": "_lotteryId",
          "type": "uint256"
        },
        {
          "internalType": "uint256",
          "name": "_numberOfTicketsToBuy",
          "type": "uint256"
        }
      ],
      "name": "buyTickets",
      "outputs": [],
      "stateMutability": "nonpayable",
      "type": "function"
    },
    {
      "inputs": [
        {
          "internalType": "uint256",
          "name": "_points",
          "type": "uint256"
        },
        {
          "internalType": "uint256",
          "name": "_lotteryId",
          "type": "uint256"
        },
        {
          "internalType": "uint256",
          "name": "_numberOfTicketsToBuy",
          "type": "uint256"
        },
        {
          "internalType": "bytes",
          "name": "_sig",
          "type": "bytes"
        }
      ],
      "name": "buyTicketsWithSignedMessage",
      "outputs": [],
      "stateMutability": "nonpayable",
      "type": "function"
    },
    {
      "inputs": [
        {
          "internalType": "uint256",
          "name": "_lotteryId",
          "type": "uint256"
        }
      ],
      "name": "cancelLottery",
      "outputs": [],
      "stateMutability": "nonpayable",
      "type": "function"
    },
    {
      "inputs": [
        {
          "internalType": "uint256",
          "name": "_lotteryId",
          "type": "uint256"
        },
        {
          "internalType": "uint32",
          "name": "_time",
          "type": "uint32"
        }
      ],
      "name": "changeCloseTime",
      "outputs": [],
      "stateMutability": "nonpayable",
      "type": "function"
    },
    {
      "inputs": [
        {
          "internalType": "uint256",
          "name": "_lotteryId",
          "type": "uint256"
        },
        {
          "internalType": "address",
          "name": "_winner",
          "type": "address"
        },
        {
          "internalType": "uint256",
          "name": "_ticketNumber",
          "type": "uint256"
        },
        {
          "internalType": "string",
          "name": "_uri",
          "type": "string"
        },
        {
          "internalType": "bytes32[]",
          "name": "_proof",
          "type": "bytes32[]"
        }
      ],
      "name": "claimPrize",
      "outputs": [],
      "stateMutability": "nonpayable",
      "type": "function"
    },
    {
      "inputs": [
        {
          "internalType": "uint256",
          "name": "",
          "type": "uint256"
        },
        {
          "internalType": "uint256",
          "name": "",
          "type": "uint256"
        }
      ],
      "name": "claimedPrizes",
      "outputs": [
        {
          "internalType": "bool",
          "name": "",
          "type": "bool"
        }
      ],
      "stateMutability": "view",
      "type": "function"
    },
    {
      "inputs": [
        {
          "components": [
            {
              "internalType": "uint32",
              "name": "startTime",
              "type": "uint32"
            },
            {
              "internalType": "uint32",
              "name": "closeTime",
              "type": "uint32"
            },
            {
              "internalType": "uint32",
              "name": "participantsCount",
              "type": "uint32"
            },
            {
              "internalType": "uint32",
              "name": "maxTickets",
              "type": "uint32"
            },
            {
              "internalType": "uint32",
              "name": "maxTicketsPerUser",
              "type": "uint32"
            },
            {
              "internalType": "uint32",
              "name": "numberOfTicketsSold",
              "type": "uint32"
            },
            {
              "internalType": "uint32",
              "name": "numberOfEditions",
              "type": "uint32"
            },
            {
              "internalType": "enum Lottery.Status",
              "name": "status",
              "type": "uint8"
            },
            {
              "internalType": "contract INFT",
              "name": "nftContract",
              "type": "address"
            },
            {
              "internalType": "uint256",
              "name": "lotteryID",
              "type": "uint256"
            },
            {
              "internalType": "uint256",
              "name": "ticketCostPoints",
              "type": "uint256"
            },
            {
              "internalType": "uint256",
              "name": "ticketCostTokens",
              "type": "uint256"
            }
          ],
          "internalType": "struct Lottery.LotteryInfo",
          "name": "_lotteryInfo",
          "type": "tuple"
        }
      ],
      "name": "createLottery",
      "outputs": [],
      "stateMutability": "nonpayable",
      "type": "function"
    },
    {
      "inputs": [
        {
          "components": [
            {
              "internalType": "uint32",
              "name": "startTime",
              "type": "uint32"
            },
            {
              "internalType": "uint32",
              "name": "closeTime",
              "type": "uint32"
            },
            {
              "internalType": "uint32",
              "name": "participantsCount",
              "type": "uint32"
            },
            {
              "internalType": "uint32",
              "name": "maxTickets",
              "type": "uint32"
            },
            {
              "internalType": "uint32",
              "name": "maxTicketsPerUser",
              "type": "uint32"
            },
            {
              "internalType": "uint32",
              "name": "numberOfTicketsSold",
              "type": "uint32"
            },
            {
              "internalType": "uint32",
              "name": "numberOfEditions",
              "type": "uint32"
            },
            {
              "internalType": "enum Lottery.Status",
              "name": "status",
              "type": "uint8"
            },
            {
              "internalType": "contract INFT",
              "name": "nftContract",
              "type": "address"
            },
            {
              "internalType": "uint256",
              "name": "lotteryID",
              "type": "uint256"
            },
            {
              "internalType": "uint256",
              "name": "ticketCostPoints",
              "type": "uint256"
            },
            {
              "internalType": "uint256",
              "name": "ticketCostTokens",
              "type": "uint256"
            }
          ],
          "internalType": "struct Lottery.LotteryInfo[]",
          "name": "_lotteries",
          "type": "tuple[]"
        }
      ],
      "name": "createLotteryBatch",
      "outputs": [],
      "stateMutability": "nonpayable",
      "type": "function"
    },
    {
      "inputs": [],
      "name": "getLotteryCount",
      "outputs": [
        {
          "internalType": "uint256",
          "name": "",
          "type": "uint256"
        }
      ],
      "stateMutability": "view",
      "type": "function"
    },
    {
      "inputs": [
        {
          "internalType": "uint256",
          "name": "_lotteryId",
          "type": "uint256"
        }
      ],
      "name": "getLotteryInfo",
      "outputs": [
        {
          "components": [
            {
              "internalType": "uint32",
              "name": "startTime",
              "type": "uint32"
            },
            {
              "internalType": "uint32",
              "name": "closeTime",
              "type": "uint32"
            },
            {
              "internalType": "uint32",
              "name": "participantsCount",
              "type": "uint32"
            },
            {
              "internalType": "uint32",
              "name": "maxTickets",
              "type": "uint32"
            },
            {
              "internalType": "uint32",
              "name": "maxTicketsPerUser",
              "type": "uint32"
            },
            {
              "internalType": "uint32",
              "name": "numberOfTicketsSold",
              "type": "uint32"
            },
            {
              "internalType": "uint32",
              "name": "numberOfEditions",
              "type": "uint32"
            },
            {
              "internalType": "enum Lottery.Status",
              "name": "status",
              "type": "uint8"
            },
            {
              "internalType": "contract INFT",
              "name": "nftContract",
              "type": "address"
            },
            {
              "internalType": "uint256",
              "name": "lotteryID",
              "type": "uint256"
            },
            {
              "internalType": "uint256",
              "name": "ticketCostPoints",
              "type": "uint256"
            },
            {
              "internalType": "uint256",
              "name": "ticketCostTokens",
              "type": "uint256"
            }
          ],
          "internalType": "struct Lottery.LotteryInfo",
          "name": "",
          "type": "tuple"
        }
      ],
      "stateMutability": "view",
      "type": "function"
    },
    {
      "inputs": [
        {
          "internalType": "uint256",
          "name": "_lotteryId",
          "type": "uint256"
        }
      ],
      "name": "getLotteryTicketCount",
      "outputs": [
        {
          "internalType": "uint256",
          "name": "",
          "type": "uint256"
        }
      ],
      "stateMutability": "view",
      "type": "function"
    },
    {
      "inputs": [
        {
          "internalType": "uint256",
          "name": "_lotteryId",
          "type": "uint256"
        },
        {
          "internalType": "uint256",
          "name": "_from",
          "type": "uint256"
        },
        {
          "internalType": "uint256",
          "name": "_to",
          "type": "uint256"
        }
      ],
      "name": "getLotteryTickets",
      "outputs": [
        {
          "internalType": "address[]",
          "name": "",
          "type": "address[]"
        }
      ],
      "stateMutability": "view",
      "type": "function"
    },
    {
      "inputs": [
        {
          "internalType": "uint256",
          "name": "_lotteryId",
          "type": "uint256"
        }
      ],
      "name": "getParticipantsCount",
      "outputs": [
        {
          "internalType": "uint32",
          "name": "",
          "type": "uint32"
        }
      ],
      "stateMutability": "view",
      "type": "function"
    },
    {
      "inputs": [
        {
          "internalType": "bytes32",
          "name": "role",
          "type": "bytes32"
        }
      ],
      "name": "getRoleAdmin",
      "outputs": [
        {
          "internalType": "bytes32",
          "name": "",
          "type": "bytes32"
        }
      ],
      "stateMutability": "view",
      "type": "function"
    },
    {
      "inputs": [
        {
          "internalType": "uint256",
          "name": "_lotteryId",
          "type": "uint256"
        },
        {
          "internalType": "address",
          "name": "_user",
          "type": "address"
        }
      ],
      "name": "getTicketCountPerUser",
      "outputs": [
        {
          "internalType": "uint256",
          "name": "",
          "type": "uint256"
        }
      ],
      "stateMutability": "view",
      "type": "function"
    },
    {
      "inputs": [
        {
          "internalType": "uint256",
          "name": "_lotteryId",
          "type": "uint256"
        }
      ],
      "name": "getWhitelist",
      "outputs": [
        {
          "internalType": "address",
          "name": "",
          "type": "address"
        }
      ],
      "stateMutability": "view",
      "type": "function"
    },
    {
      "inputs": [
        {
          "internalType": "bytes32",
          "name": "role",
          "type": "bytes32"
        },
        {
          "internalType": "address",
          "name": "account",
          "type": "address"
        }
      ],
      "name": "grantRole",
      "outputs": [],
      "stateMutability": "nonpayable",
      "type": "function"
    },
    {
      "inputs": [
        {
          "internalType": "bytes32",
          "name": "role",
          "type": "bytes32"
        },
        {
          "internalType": "address",
          "name": "account",
          "type": "address"
        }
      ],
      "name": "hasRole",
      "outputs": [
        {
          "internalType": "bool",
          "name": "",
          "type": "bool"
        }
      ],
      "stateMutability": "view",
      "type": "function"
    },
    {
      "inputs": [
        {
          "internalType": "address",
          "name": "_rewardsContract",
          "type": "address"
        },
        {
          "internalType": "address",
          "name": "_admin",
          "type": "address"
        },
        {
          "internalType": "address",
          "name": "_token",
          "type": "address"
        },
        {
          "internalType": "address",
          "name": "_sageStorage",
          "type": "address"
        }
      ],
      "name": "initialize",
      "outputs": [],
      "stateMutability": "nonpayable",
      "type": "function"
    },
    {
      "inputs": [
        {
          "internalType": "uint256",
          "name": "",
          "type": "uint256"
        }
      ],
      "name": "lotteries",
      "outputs": [
        {
          "internalType": "uint256",
          "name": "",
          "type": "uint256"
        }
      ],
      "stateMutability": "view",
      "type": "function"
    },
    {
      "inputs": [
        {
          "internalType": "uint256",
          "name": "",
          "type": "uint256"
        },
        {
          "internalType": "uint256",
          "name": "",
          "type": "uint256"
        }
      ],
      "name": "lotteryTickets",
      "outputs": [
        {
          "internalType": "address",
          "name": "",
          "type": "address"
        }
      ],
      "stateMutability": "view",
      "type": "function"
    },
    {
      "inputs": [
        {
          "internalType": "uint256",
          "name": "",
          "type": "uint256"
        },
        {
          "internalType": "address",
          "name": "",
          "type": "address"
        }
      ],
      "name": "participants",
      "outputs": [
        {
          "internalType": "uint16",
          "name": "totalTicketsBought",
          "type": "uint16"
        },
        {
          "internalType": "bool",
          "name": "claimedPrize",
          "type": "bool"
        }
      ],
      "stateMutability": "view",
      "type": "function"
    },
    {
      "inputs": [],
      "name": "pause",
      "outputs": [],
      "stateMutability": "nonpayable",
      "type": "function"
    },
    {
      "inputs": [],
      "name": "paused",
      "outputs": [
        {
          "internalType": "bool",
          "name": "",
          "type": "bool"
        }
      ],
      "stateMutability": "view",
      "type": "function"
    },
    {
      "inputs": [
        {
          "internalType": "uint256",
          "name": "_lotteryId",
          "type": "uint256"
        },
        {
          "internalType": "uint256",
          "name": "_tokenId",
          "type": "uint256"
        }
      ],
      "name": "prizeClaimed",
      "outputs": [
        {
          "internalType": "bool",
          "name": "",
          "type": "bool"
        }
      ],
      "stateMutability": "view",
      "type": "function"
    },
    {
      "inputs": [
        {
          "internalType": "uint256",
          "name": "",
          "type": "uint256"
        }
      ],
      "name": "prizeMerkleRoots",
      "outputs": [
        {
          "internalType": "bytes32",
          "name": "",
          "type": "bytes32"
        }
      ],
      "stateMutability": "view",
      "type": "function"
    },
    {
      "inputs": [],
      "name": "proxiableUUID",
      "outputs": [
        {
          "internalType": "bytes32",
          "name": "",
          "type": "bytes32"
        }
      ],
      "stateMutability": "view",
      "type": "function"
    },
    {
      "inputs": [
        {
          "internalType": "uint256",
          "name": "",
          "type": "uint256"
        }
      ],
      "name": "randomSeeds",
      "outputs": [
        {
          "internalType": "uint256",
          "name": "",
          "type": "uint256"
        }
      ],
      "stateMutability": "view",
      "type": "function"
    },
    {
      "inputs": [
        {
          "internalType": "uint256",
          "name": "_lotteryId",
          "type": "uint256"
        },
        {
          "internalType": "uint256",
          "name": "_randomNumber",
          "type": "uint256"
        }
      ],
      "name": "receiveRandomNumber",
      "outputs": [],
      "stateMutability": "nonpayable",
      "type": "function"
    },
    {
      "inputs": [
        {
          "internalType": "address",
          "name": "_assetOwner",
          "type": "address"
        },
        {
          "internalType": "uint256",
          "name": "_lotteryId",
          "type": "uint256"
        },
        {
          "internalType": "uint256",
          "name": "_amount",
          "type": "uint256"
        }
      ],
      "name": "refund",
      "outputs": [],
      "stateMutability": "nonpayable",
      "type": "function"
    },
    {
      "inputs": [
        {
          "internalType": "address[]",
          "name": "_owners",
          "type": "address[]"
        },
        {
          "internalType": "uint256",
          "name": "_lotteryId",
          "type": "uint256"
        },
        {
          "internalType": "uint256[]",
          "name": "_amounts",
          "type": "uint256[]"
        }
      ],
      "name": "refundBatch",
      "outputs": [],
      "stateMutability": "nonpayable",
      "type": "function"
    },
    {
      "inputs": [
        {
          "internalType": "uint256",
          "name": "",
          "type": "uint256"
        },
        {
          "internalType": "address",
          "name": "",
          "type": "address"
        }
      ],
      "name": "refunds",
      "outputs": [
        {
          "internalType": "uint256",
          "name": "",
          "type": "uint256"
        }
      ],
      "stateMutability": "view",
      "type": "function"
    },
    {
      "inputs": [
        {
          "internalType": "bytes32",
          "name": "role",
          "type": "bytes32"
        },
        {
          "internalType": "address",
          "name": "account",
          "type": "address"
        }
      ],
      "name": "renounceRole",
      "outputs": [],
      "stateMutability": "nonpayable",
      "type": "function"
    },
    {
      "inputs": [
        {
          "internalType": "uint256",
          "name": "_lotteryId",
          "type": "uint256"
        }
      ],
      "name": "requestRandomNumber",
      "outputs": [],
      "stateMutability": "nonpayable",
      "type": "function"
    },
    {
      "inputs": [
        {
          "internalType": "bytes32",
          "name": "role",
          "type": "bytes32"
        },
        {
          "internalType": "address",
          "name": "account",
          "type": "address"
        }
      ],
      "name": "revokeRole",
      "outputs": [],
      "stateMutability": "nonpayable",
      "type": "function"
    },
    {
      "inputs": [],
      "name": "rewardsContract",
      "outputs": [
        {
          "internalType": "contract IRewards",
          "name": "",
          "type": "address"
        }
      ],
      "stateMutability": "view",
      "type": "function"
    },
    {
      "inputs": [
        {
          "internalType": "uint256",
          "name": "_lotteryId",
          "type": "uint256"
        },
        {
          "internalType": "uint32",
          "name": "_maxTickets",
          "type": "uint32"
        }
      ],
      "name": "setMaxTickets",
      "outputs": [],
      "stateMutability": "nonpayable",
      "type": "function"
    },
    {
      "inputs": [
        {
          "internalType": "uint256",
          "name": "_lotteryId",
          "type": "uint256"
        },
        {
          "internalType": "uint32",
          "name": "_maxTicketsPerUser",
          "type": "uint32"
        }
      ],
      "name": "setMaxTicketsPerUser",
      "outputs": [],
      "stateMutability": "nonpayable",
      "type": "function"
    },
    {
      "inputs": [
        {
          "internalType": "uint256",
          "name": "_lotteryId",
          "type": "uint256"
        },
        {
          "internalType": "bytes32",
          "name": "_root",
          "type": "bytes32"
        }
      ],
      "name": "setPrizeMerkleRoot",
      "outputs": [],
      "stateMutability": "nonpayable",
      "type": "function"
    },
    {
      "inputs": [
        {
          "internalType": "address",
          "name": "_IRandomNumberGenerator",
          "type": "address"
        }
      ],
      "name": "setRandomGenerator",
      "outputs": [],
      "stateMutability": "nonpayable",
      "type": "function"
    },
    {
      "inputs": [
        {
          "internalType": "address",
          "name": "_rewardsContract",
          "type": "address"
        }
      ],
      "name": "setRewardsContract",
      "outputs": [],
      "stateMutability": "nonpayable",
      "type": "function"
    },
    {
      "inputs": [
        {
          "internalType": "address",
          "name": "_signer",
          "type": "address"
        }
      ],
      "name": "setSignerAddress",
      "outputs": [],
      "stateMutability": "nonpayable",
      "type": "function"
    },
    {
      "inputs": [
        {
          "internalType": "address",
          "name": "_token",
          "type": "address"
        }
      ],
      "name": "setToken",
      "outputs": [],
      "stateMutability": "nonpayable",
      "type": "function"
    },
    {
      "inputs": [
        {
          "internalType": "uint256",
          "name": "_lotteryId",
          "type": "uint256"
        },
        {
          "internalType": "address",
          "name": "_whitelist",
          "type": "address"
        }
      ],
      "name": "setWhitelist",
      "outputs": [],
      "stateMutability": "nonpayable",
      "type": "function"
    },
    {
      "inputs": [
        {
          "internalType": "bytes4",
          "name": "interfaceId",
          "type": "bytes4"
        }
      ],
      "name": "supportsInterface",
      "outputs": [
        {
          "internalType": "bool",
          "name": "",
          "type": "bool"
        }
      ],
      "stateMutability": "view",
      "type": "function"
    },
    {
      "inputs": [],
      "name": "token",
      "outputs": [
        {
          "internalType": "contract IERC20",
          "name": "",
          "type": "address"
        }
      ],
      "stateMutability": "view",
      "type": "function"
    },
    {
      "inputs": [],
      "name": "unpause",
      "outputs": [],
      "stateMutability": "nonpayable",
      "type": "function"
    },
    {
      "inputs": [
        {
          "internalType": "uint256",
          "name": "lotteryId",
          "type": "uint256"
        },
        {
          "internalType": "uint256",
          "name": "_ticketCostPoints",
          "type": "uint256"
        },
        {
          "internalType": "uint256",
          "name": "_ticketCostTokens",
          "type": "uint256"
        },
        {
          "internalType": "uint32",
          "name": "_startTime",
          "type": "uint32"
        },
        {
          "internalType": "uint32",
          "name": "_closeTime",
          "type": "uint32"
        },
        {
          "internalType": "contract INFT",
          "name": "_nftContract",
          "type": "address"
        },
        {
          "internalType": "uint16",
          "name": "_maxTickets",
          "type": "uint16"
        },
        {
          "internalType": "enum Lottery.Status",
          "name": "_status",
          "type": "uint8"
        },
        {
          "internalType": "uint32",
          "name": "_numberOfEditions",
          "type": "uint32"
        }
      ],
      "name": "updateLottery",
      "outputs": [],
      "stateMutability": "nonpayable",
      "type": "function"
    },
    {
      "inputs": [
        {
          "internalType": "address",
          "name": "newImplementation",
          "type": "address"
        }
      ],
      "name": "upgradeTo",
      "outputs": [],
      "stateMutability": "nonpayable",
      "type": "function"
    },
    {
      "inputs": [
        {
          "internalType": "address",
          "name": "newImplementation",
          "type": "address"
        },
        {
          "internalType": "bytes",
          "name": "data",
          "type": "bytes"
        }
      ],
      "name": "upgradeToAndCall",
      "outputs": [],
      "stateMutability": "payable",
      "type": "function"
    },
    {
      "inputs": [
        {
          "internalType": "uint256",
          "name": "",
          "type": "uint256"
        }
      ],
      "name": "whitelists",
      "outputs": [
        {
          "internalType": "address",
          "name": "",
          "type": "address"
        }
      ],
      "stateMutability": "view",
      "type": "function"
    },
    {
      "inputs": [
        {
          "internalType": "address",
          "name": "_to",
          "type": "address"
        },
        {
          "internalType": "uint256",
          "name": "_amount",
          "type": "uint256"
        }
      ],
      "name": "withdraw",
      "outputs": [],
      "stateMutability": "nonpayable",
      "type": "function"
    }
  ],
  "bytecode": "0x60a06040523060805234801561001457600080fd5b5060805161511961004c6000396000818161121501528181611255015281816116d901528181611719015261184c01526151196000f3fe60806040526004361061031a5760003560e01c80636a6be315116101ab578063d098a2f0116100f7578063f3fef3a311610095578063f8c8765e1161006f578063f8c8765e14610a79578063f90328d514610a99578063fc0c546a14610ad5578063fe4d5add14610af657600080fd5b8063f3fef3a3146109e9578063f4f46e3514610a09578063f5f4899814610a2957600080fd5b8063d89da286116100d1578063d89da2861461094d578063db2c0fd11461096d578063dfa0dfa5146109a9578063eb1ea521146109c957600080fd5b8063d098a2f0146108df578063d225428f1461090d578063d547741f1461092d57600080fd5b806391d1485411610164578063a217fddf1161013e578063a217fddf1461084f578063b1eb96c914610864578063bf4002b214610884578063c11ab615146108a457600080fd5b806391d14854146107cb57806396db752a146107eb5780639b7fecc31461082257600080fd5b80636a6be3151461070957806372f5b6c2146107295780637350ab2c1461074957806376b3c8a8146107695780638456cb59146107965780638627df46146107ab57600080fd5b80633659cfe61161026a5780634a0044671161022357806350612da6116101fd57806350612da61461069c57806352d1902d146106bc5780635c975abb146106d15780636013457f146106e957600080fd5b80634a004467146106495780634bc19fee146106695780634f1ef2861461068957600080fd5b80633659cfe6146105535780633f4ba83a1461057357806340cf23d9146105885780634538f297146105d0578063454cc4bc146105f057806349c0de881461062957600080fd5b8063220cce97116102d75780632801f84a116102b15780632801f84a146104dd5780632f2ff15d146104fd5780632f9aa1fe1461051d57806336568abe1461053357600080fd5b8063220cce9714610446578063236804001461047f578063248a9ca3146104ad57600080fd5b806301ffc9a71461031f57806302e060c614610354578063046dc166146103b65780631398e076146103d8578063144fa6d71461040657806318fd890314610426575b600080fd5b34801561032b57600080fd5b5061033f61033a366004614147565b610b2d565b60405190151581526020015b60405180910390f35b34801561036057600080fd5b5061039c61036f366004614186565b61013760209081526000928352604080842090915290825290205461ffff81169062010000900460ff1682565b6040805161ffff909316835290151560208301520161034b565b3480156103c257600080fd5b506103d66103d13660046141b6565b610b64565b005b3480156103e457600080fd5b506103f86103f33660046141d3565b610c21565b60405190815260200161034b565b34801561041257600080fd5b506103d66104213660046141b6565b610c43565b34801561043257600080fd5b506103d66104413660046141ec565b610cf7565b34801561045257600080fd5b5061013154610467906001600160a01b031681565b6040516001600160a01b03909116815260200161034b565b34801561048b57600080fd5b506103f861049a3660046141d3565b6101396020526000908152604090205481565b3480156104b957600080fd5b506103f86104c83660046141d3565b60009081526065602052604090206001015490565b3480156104e957600080fd5b506103d66104f8366004614240565b610f43565b34801561050957600080fd5b506103d6610518366004614186565b611163565b34801561052957600080fd5b50610132546103f8565b34801561053f57600080fd5b506103d661054e366004614186565b61118d565b34801561055f57600080fd5b506103d661056e3660046141b6565b61120b565b34801561057f57600080fd5b506103d66112ea565b34801561059457600080fd5b506103f86105a3366004614186565b6000918252610137602090815260408084206001600160a01b0393909316845291905290205461ffff1690565b3480156105dc57600080fd5b506103d66105eb3660046141d3565b611385565b3480156105fc57600080fd5b506103f861060b366004614186565b61013860209081526000928352604080842090915290825290205481565b34801561063557600080fd5b506104676106443660046142e8565b6114c7565b34801561065557600080fd5b506103d661066436600461430a565b611500565b34801561067557600080fd5b506103d66106843660046141b6565b6115c5565b6103d6610697366004614376565b6116cf565b3480156106a857600080fd5b506103d66106b73660046142e8565b61179b565b3480156106c857600080fd5b506103f861183f565b3480156106dd57600080fd5b5060fb5460ff1661033f565b3480156106f557600080fd5b506103d661070436600461441e565b6118f2565b34801561071557600080fd5b506103d661072436600461430a565b611b51565b34801561073557600080fd5b506103d6610744366004614437565b611c8d565b34801561075557600080fd5b506103d66107643660046144ef565b611d61565b34801561077557600080fd5b506107896107843660046141d3565b611f5c565b60405161034b9190614588565b3480156107a257600080fd5b506103d66120b9565b3480156107b757600080fd5b506103d66107c63660046142e8565b612152565b3480156107d757600080fd5b5061033f6107e6366004614186565b61269f565b3480156107f757600080fd5b506104676108063660046141d3565b600090815261013460205260409020546001600160a01b031690565b34801561082e57600080fd5b5061084261083d366004614676565b6126ca565b60405161034b91906146a2565b34801561085b57600080fd5b506103f8600081565b34801561087057600080fd5b506103d661087f3660046141d3565b6127b6565b34801561089057600080fd5b506103d661089f36600461430a565b612a3d565b3480156108b057600080fd5b506103f86108bf3660046141d3565b60009081526101336020526040902054600160a01b900463ffffffff1690565b3480156108eb57600080fd5b506103f86108fa3660046141d3565b6101356020526000908152604090205481565b34801561091957600080fd5b506103d66109283660046146ef565b612b02565b34801561093957600080fd5b506103d6610948366004614186565b612e38565b34801561095957600080fd5b506103d6610968366004614186565b612e5d565b34801561097957600080fd5b5061033f6109883660046142e8565b60009182526101366020908152604080842092845291905290205460ff1690565b3480156109b557600080fd5b506103d66109c43660046141b6565b612f1d565b3480156109d557600080fd5b506103d66109e43660046142e8565b612fd1565b3480156109f557600080fd5b506103d6610a043660046147b5565b6130f1565b348015610a1557600080fd5b506103d6610a24366004614870565b6131fa565b348015610a3557600080fd5b50610a64610a443660046141d3565b60009081526101336020526040902054600160401b900463ffffffff1690565b60405163ffffffff909116815260200161034b565b348015610a8557600080fd5b506103d6610a9436600461493b565b61329d565b348015610aa557600080fd5b5061033f610ab43660046142e8565b61013660209081526000928352604080842090915290825290205460ff1681565b348015610ae157600080fd5b5061012f54610467906001600160a01b031681565b348015610b0257600080fd5b50610467610b113660046141d3565b610134602052600090815260409020546001600160a01b031681565b60006001600160e01b03198216637965db0b60e01b1480610b5e57506301ffc9a760e01b6001600160e01b03198316145b92915050565b61012d54604051632474521560e21b81526001600160a01b03909116906391d1485490610b98906000903390600401614997565b602060405180830381865afa158015610bb5573d6000803e3d6000fd5b505050506040513d601f19601f82011682018060405250810190610bd991906149ae565b610bfe5760405162461bcd60e51b8152600401610bf5906149d0565b60405180910390fd5b61012e80546001600160a01b0319166001600160a01b0392909216919091179055565b6101328181548110610c3257600080fd5b600091825260209091200154905081565b61012d54604051632474521560e21b81526001600160a01b03909116906391d1485490610c77906000903390600401614997565b602060405180830381865afa158015610c94573d6000803e3d6000fd5b505050506040513d601f19601f82011682018060405250810190610cb891906149ae565b610cd45760405162461bcd60e51b8152600401610bf5906149d0565b61012f80546001600160a01b0319166001600160a01b0392909216919091179055565b60fb5460ff1615610d1a5760405162461bcd60e51b8152600401610bf5906149fa565b60008281526101336020526040902081610d675760405162461bcd60e51b815260206004820152600e60248201526d043616e277420726566756e6420360941b6044820152606401610bf5565b60008154600160e01b900460ff166003811115610d8657610d86614550565b03610dcb5760405162461bcd60e51b8152602060048201526015602482015274496e76616c6964206c6f747465727920737461746560581b6044820152606401610bf5565b6000838152610138602090815260408083206001600160a01b0388168452909152902054821115610e485760405162461bcd60e51b815260206004820152602160248201527f43616e277420726566756e642074686520616d6f756e742072657175657374656044820152601960fa1b6064820152608401610bf5565b6000838152610138602090815260408083206001600160a01b038816845290915281208054849290610e7b908490614a3a565b909155505061012f5460405163a9059cbb60e01b81526001600160a01b038681166004830152602482018590529091169063a9059cbb906044016020604051808303816000875af1158015610ed4573d6000803e3d6000fd5b505050506040513d601f19601f82011682018060405250810190610ef891906149ae565b50836001600160a01b0316837f7ca5472b7ea78c2c0141c5a12ee6d170cf4ce8ed06be3d22c8252ddfc7a6a2c484604051610f3591815260200190565b60405180910390a350505050565b61012d54604051632474521560e21b81526001600160a01b03909116906391d1485490610f77906000903390600401614997565b602060405180830381865afa158015610f94573d6000803e3d6000fd5b505050506040513d601f19601f82011682018060405250810190610fb891906149ae565b610fd45760405162461bcd60e51b8152600401610bf5906149d0565b858560008263ffffffff16116110215760405162461bcd60e51b8152602060048201526012602482015271496e76616c69642073746172742074696d6560701b6044820152606401610bf5565b8163ffffffff168163ffffffff161161104c5760405162461bcd60e51b8152600401610bf590614a51565b60008b815261013360205260409020805460038083018d9055600483018c90556001830180546001600160a01b038b166001600160a01b0319909116179055600160601b61ffff89160263ffffffff60601b1963ffffffff8c81166401000000000267ffffffffffffffff19909516908e161793909317928316811784558792849260ff60e01b1990921670ff000000000000000000000000ffffffff60601b199091161790600160e01b90849081111561110957611109614550565b0217905550805463ffffffff60c01b1916600160c01b63ffffffff86160217815584600381111561113c5761113c614550565b6040518d9060008051602061507d83398151915290600090a3505050505050505050505050565b60008281526065602052604090206001015461117e81613373565b611188838361337d565b505050565b6001600160a01b03811633146111fd5760405162461bcd60e51b815260206004820152602f60248201527f416363657373436f6e74726f6c3a2063616e206f6e6c792072656e6f756e636560448201526e103937b632b9903337b91039b2b63360891b6064820152608401610bf5565b6112078282613403565b5050565b6001600160a01b037f00000000000000000000000000000000000000000000000000000000000000001630036112535760405162461bcd60e51b8152600401610bf590614a94565b7f00000000000000000000000000000000000000000000000000000000000000006001600160a01b031661129c60008051602061509d833981519152546001600160a01b031690565b6001600160a01b0316146112c25760405162461bcd60e51b8152600401610bf590614ae0565b6112cb8161346a565b604080516000808252602082019092526112e7918391906134fb565b50565b61012d54604051632474521560e21b81526001600160a01b03909116906391d148549061131e906000903390600401614997565b602060405180830381865afa15801561133b573d6000803e3d6000fd5b505050506040513d601f19601f8201168201806040525081019061135f91906149ae565b61137b5760405162461bcd60e51b8152600401610bf5906149d0565b611383613666565b565b61012d54604051632474521560e21b81526001600160a01b03909116906391d14854906113b9906000903390600401614997565b602060405180830381865afa1580156113d6573d6000803e3d6000fd5b505050506040513d601f19601f820116820180604052508101906113fa91906149ae565b6114165760405162461bcd60e51b8152600401610bf5906149d0565b6000818152610133602052604090208054600160401b900463ffffffff16156114815760405162461bcd60e51b815260206004820152601760248201527f4c6f747465727920616c726561647920737461727465640000000000000000006044820152606401610bf5565b805460ff60e01b1916600160e01b9081178083550460ff1660038111156114aa576114aa614550565b604051839060008051602061507d83398151915290600090a35050565b61013a60205281600052604060002081815481106114e457600080fd5b6000918252602090912001546001600160a01b03169150829050565b61012d54604051632474521560e21b81526001600160a01b03909116906391d1485490611534906000903390600401614997565b602060405180830381865afa158015611551573d6000803e3d6000fd5b505050506040513d601f19601f8201168201806040525081019061157591906149ae565b6115915760405162461bcd60e51b8152600401610bf5906149d0565b60009182526101336020526040909120805463ffffffff909216600160801b0263ffffffff60801b19909216919091179055565b61012d54604051632474521560e21b81526001600160a01b03909116906391d14854906115f9906000903390600401614997565b602060405180830381865afa158015611616573d6000803e3d6000fd5b505050506040513d601f19601f8201168201806040525081019061163a91906149ae565b6116565760405162461bcd60e51b8152600401610bf5906149d0565b6001600160a01b0381166116ac5760405162461bcd60e51b815260206004820152601d60248201527f436f6e7472616374732063616e6e6f74206265203020616464726573730000006044820152606401610bf5565b61013080546001600160a01b0319166001600160a01b0392909216919091179055565b6001600160a01b037f00000000000000000000000000000000000000000000000000000000000000001630036117175760405162461bcd60e51b8152600401610bf590614a94565b7f00000000000000000000000000000000000000000000000000000000000000006001600160a01b031661176060008051602061509d833981519152546001600160a01b031690565b6001600160a01b0316146117865760405162461bcd60e51b8152600401610bf590614ae0565b61178f8261346a565b611207828260016134fb565b61012d54604051632474521560e21b81526001600160a01b03909116906391d14854906117cf906000903390600401614997565b602060405180830381865afa1580156117ec573d6000803e3d6000fd5b505050506040513d601f19601f8201168201806040525081019061181091906149ae565b61182c5760405162461bcd60e51b8152600401610bf5906149d0565b6000918252610135602052604090912055565b6000306001600160a01b037f000000000000000000000000000000000000000000000000000000000000000016146118df5760405162461bcd60e51b815260206004820152603860248201527f555550535570677261646561626c653a206d757374206e6f742062652063616c60448201527f6c6564207468726f7567682064656c656761746563616c6c00000000000000006064820152608401610bf5565b5060008051602061509d83398151915290565b61012d54604051632474521560e21b81526001600160a01b03909116906391d1485490611926906000903390600401614997565b602060405180830381865afa158015611943573d6000803e3d6000fd5b505050506040513d601f19601f8201168201806040525081019061196791906149ae565b6119835760405162461bcd60e51b8152600401610bf5906149d0565b6119906020820182614b2c565b6119a06040830160208401614b2c565b60008263ffffffff16116119eb5760405162461bcd60e51b8152602060048201526012602482015271496e76616c69642073746172742074696d6560701b6044820152606401610bf5565b8163ffffffff168163ffffffff1611611a165760405162461bcd60e51b8152600401610bf590614a51565b6000611a2860e0850160c08601614b2c565b63ffffffff1611611a6c5760405162461bcd60e51b815260206004820152600e60248201526d496e76616c6964207072697a657360901b6044820152606401610bf5565b61012083013560009081526101336020526040902054600160c01b900463ffffffff1615611ad55760405162461bcd60e51b81526020600482015260166024820152754c6f747465727920616c72656164792065786973747360501b6044820152606401610bf5565b6101328054600181019091556101208401357fc53bdfd4aa1ab65dfdaf681ca6bda958ae4a123d4ed68c4277796592280e78359091018190556000908152610133602052604090208390611b298282614bab565b50600090506040516101208501359060008051602061507d83398151915290600090a3505050565b61012d54604051632474521560e21b81526001600160a01b03909116906391d1485490611b85906000903390600401614997565b602060405180830381865afa158015611ba2573d6000803e3d6000fd5b505050506040513d601f19601f82011682018060405250810190611bc691906149ae565b611be25760405162461bcd60e51b8152600401610bf5906149d0565b600082815261013360205260409020805463ffffffff16611c3c5760405162461bcd60e51b8152602060048201526014602482015273131bdd1d195c9e481a59081b9bdd08199bdd5b9960621b6044820152606401610bf5565b805463ffffffff90811690831611611c665760405162461bcd60e51b8152600401610bf590614a51565b805463ffffffff9092166401000000000267ffffffff000000001990921691909117905550565b61012d54604051632474521560e21b81526001600160a01b03909116906391d1485490611cc1906000903390600401614997565b602060405180830381865afa158015611cde573d6000803e3d6000fd5b505050506040513d601f19601f82011682018060405250810190611d0291906149ae565b611d1e5760405162461bcd60e51b8152600401610bf5906149d0565b8060005b81811015611d5b57611d4b848483818110611d3f57611d3f614d72565b905061018002016118f2565b611d5481614d88565b9050611d22565b50505050565b604080513360208083018290528284018990528351808403850181526060840185528051908201207f19457468657265756d205369676e6564204d6573736167653a0a3332000000006080850152609c808501919091528451808503909101815260bc840180865281519183019190912061012e5460dc601f890185900490940286018401909652868252929492936001600160a01b0390931692611e2292859291899189918291018382808284376000920191909152506136f992505050565b6001600160a01b031614611e6c5760405162461bcd60e51b8152602060048201526011602482015270496e76616c6964207369676e617475726560781b6044820152606401610bf5565b6101315460405163f662781d60e01b81526001600160a01b0384811660048301528992169063f662781d90602401602060405180830381865afa158015611eb7573d6000803e3d6000fd5b505050506040513d601f19601f82011682018060405250810190611edb9190614da1565b1015611f495761013154604051630259ab7760e61b81526001600160a01b038481166004830152602482018a90529091169063966addc090604401600060405180830381600087803b158015611f3057600080fd5b505af1158015611f44573d6000803e3d6000fd5b505050505b611f538686612152565b50505050505050565b611fc96040805161018081018252600080825260208201819052918101829052606081018290526080810182905260a0810182905260c081018290529060e0820190815260200160006001600160a01b031681526020016000815260200160008152602001600081525090565b60008281526101336020908152604091829020825161018081018452815463ffffffff80821683526401000000008204811694830194909452600160401b8104841694820194909452600160601b840483166060820152600160801b840483166080820152600160a01b8404831660a0820152600160c01b840490921660c0830152909160e0830190600160e01b900460ff16600381111561206d5761206d614550565b600381111561207e5761207e614550565b815260018201546001600160a01b03166020820152600282015460408201526003820154606082015260049091015460809091015292915050565b61012d54604051632474521560e21b81526001600160a01b03909116906391d14854906120ed906000903390600401614997565b602060405180830381865afa15801561210a573d6000803e3d6000fd5b505050506040513d601f19601f8201168201806040525081019061212e91906149ae565b61214a5760405162461bcd60e51b8152600401610bf5906149d0565b61138361371d565b60fb5460ff16156121755760405162461bcd60e51b8152600401610bf5906149fa565b6000828152610134602052604090205482906001600160a01b0316156122545760008181526101346020526040908190205490516320c18e6b60e21b8152336004820152602481018390526001600160a01b039091169063830639ac90604401602060405180830381865afa1580156121f2573d6000803e3d6000fd5b505050506040513d601f19601f8201168201806040525081019061221691906149ae565b6122545760405162461bcd60e51b815260206004820152600f60248201526e139bdd081dda1a5d195b1a5cdd1959608a1b6044820152606401610bf5565b600083815261013360205260408120805490919081908190600160601b900463ffffffff16156122e357835463ffffffff600160601b82048116916122a2918991600160a01b900416614dba565b11156122e35760405162461bcd60e51b815260206004820152601060248201526f151a58dad95d1cc81cdbdb19081bdd5d60821b6044820152606401610bf5565b60008781526101376020908152604080832033845290915290208054855461ffff90911690600160801b900463ffffffff1615612381578554600160801b900463ffffffff166123338983614dba565b11156123815760405162461bcd60e51b815260206004820181905260248201527f43616e277420627579207468697320616d6f756e74206f66207469636b6574736044820152606401610bf5565b85544263ffffffff909116118015906123a9575085544264010000000090910463ffffffff16115b80156123d2575060018654600160e01b900460ff1660038111156123cf576123cf614550565b14155b6124145760405162461bcd60e51b81526020600482015260136024820152722637ba3a32b93c9034b9903737ba1037b832b760691b6044820152606401610bf5565b60038601546124239089614dd2565b93508315612437576124353385613775565b505b6004860154865490935088908790601490612460908490600160a01b900463ffffffff16614df1565b92506101000a81548163ffffffff021916908363ffffffff160217905550600083111561253f576124918389614dd2565b61012f546040516323b872dd60e01b8152336004820152306024820152604481018390529196506001600160a01b0316906323b872dd906064016020604051808303816000875af11580156124ea573d6000803e3d6000fd5b505050506040513d601f19601f8201168201806040525081019061250e91906149ae565b5060008981526101386020908152604080832033845290915281208054879290612539908490614dba565b90915550505b806000036125d1578554869060089061256490600160401b900463ffffffff16614e19565b825463ffffffff9182166101009390930a928302919092021990911617905560008981526101376020908152604080832033845290915290208254815461ffff19811661ffff9092169182178355845460ff62010000918290041615150262ffffff199091169091171790555b8154889083906000906125e990849061ffff16614e3c565b825461ffff9182166101009390930a928302919092021990911617905550600089815261013a60205260408120905b898110156126925781546001810183556000838152602090200180546001600160a01b0319163390811790915582546040518d917fc41bbb54d04f2268c7895b9330f18468c306a3f92698a92c4c86b297873978489161267a91815260200190565b60405180910390a361268b81614d88565b9050612618565b5050505050505050505050565b60009182526065602090815260408084206001600160a01b0393909316845291905290205460ff1690565b606060006126d88484614a3a565b6126e3906001614dba565b67ffffffffffffffff8111156126fb576126fb61432f565b604051908082528060200260200182016040528015612724578160200160208202803683370190505b509050835b8381116127ab57600086815261013a6020526040902080548290811061275157612751614d72565b9060005260206000200160009054906101000a90046001600160a01b031682828151811061278157612781614d72565b6001600160a01b0390921660209283029190910190910152806127a381614d88565b915050612729565b5090505b9392505050565b61012d54604051632474521560e21b81526001600160a01b03909116906391d14854906127ea906000903390600401614997565b602060405180830381865afa158015612807573d6000803e3d6000fd5b505050506040513d601f19601f8201168201806040525081019061282b91906149ae565b6128475760405162461bcd60e51b8152600401610bf5906149d0565b600081815261013360205260409020805463ffffffff1661289f5760405162461bcd60e51b8152602060048201526012602482015271125b9d985b1a59081b1bdd1d195c9e481a5960721b6044820152606401610bf5565b80544264010000000090910463ffffffff16106128f65760405162461bcd60e51b8152602060048201526015602482015274131bdd1d195c9e481a5cc81b9bdd0818db1bdcd959605a1b6044820152606401610bf5565b60008154600160e01b900460ff16600381111561291557612915614550565b0361296157805460ff60e01b1916600160e11b17808255600160e01b900460ff16600381111561294757612947614550565b604051839060008051602061507d83398151915290600090a35b60028154600160e01b900460ff16600381111561298057612980614550565b146129cd5760405162461bcd60e51b815260206004820152601760248201527f4c6f7474657279206d75737420626520636c6f736564210000000000000000006044820152606401610bf5565b61013054604051632f215ddf60e21b8152600481018490526001600160a01b039091169063bc85777c906024016020604051808303816000875af1158015612a19573d6000803e3d6000fd5b505050506040513d601f19601f820116820180604052508101906111889190614da1565b61012d54604051632474521560e21b81526001600160a01b03909116906391d1485490612a71906000903390600401614997565b602060405180830381865afa158015612a8e573d6000803e3d6000fd5b505050506040513d601f19601f82011682018060405250810190612ab291906149ae565b612ace5760405162461bcd60e51b8152600401610bf5906149d0565b60009182526101336020526040909120805463ffffffff909216600160601b0263ffffffff60601b19909216919091179055565b60fb5460ff1615612b255760405162461bcd60e51b8152600401610bf5906149fa565b60008781526101366020908152604080832088845290915290205460ff1615612b9a5760405162461bcd60e51b815260206004820152602160248201527f5061727469636970616e7420616c726561647920636c61696d6564207072697a6044820152606560f81b6064820152608401610bf5565b612c2d612bdf88888888888080601f0160208091040260200160405190810160405280939291908181526020018383808284376000920191909152506137ee92505050565b61013560008a81526020019081526020016000205484848080602002602001604051908101604052809392919081815260200183836020028082843760009201919091525061382792505050565b612c705760405162461bcd60e51b815260206004820152601460248201527324b73b30b634b21036b2b935b63290383937b7b360611b6044820152606401610bf5565b60008781526101336020526040902060048101548015612d375760008981526101386020908152604080832033845290915281208054839290612cb4908490614a3a565b909155505061012f54600183015460405163a9059cbb60e01b81526001600160a01b0391821660048201526024810184905291169063a9059cbb906044016020604051808303816000875af1158015612d11573d6000803e3d6000fd5b505050506040513d601f19601f82011682018060405250810190612d3591906149ae565b505b6000898152610137602090815260408083206001600160a01b03808d168552908352818420805462ff00001916620100001790558c8452610133835281842060019081015461013685528386208d875290945293829020805460ff191690941790935551636902622f60e11b8152911690819063d204c45e90612dc2908c908b908b90600401614e59565b600060405180830381600087803b158015612ddc57600080fd5b505af1158015612df0573d6000803e3d6000fd5b5050505087896001600160a01b03168b7f4aa95f981a8337cb337de335b965507da0879c3b49f799d20058e913f5ad2c2660405160405180910390a450505050505050505050565b600082815260656020526040902060010154612e5381613373565b6111888383613403565b61012d54604051632474521560e21b81526001600160a01b03909116906391d1485490612e91906000903390600401614997565b602060405180830381865afa158015612eae573d6000803e3d6000fd5b505050506040513d601f19601f82011682018060405250810190612ed291906149ae565b612eee5760405162461bcd60e51b8152600401610bf5906149d0565b6000918252610134602052604090912080546001600160a01b0319166001600160a01b03909216919091179055565b61012d54604051632474521560e21b81526001600160a01b03909116906391d1485490612f51906000903390600401614997565b602060405180830381865afa158015612f6e573d6000803e3d6000fd5b505050506040513d601f19601f82011682018060405250810190612f9291906149ae565b612fae5760405162461bcd60e51b8152600401610bf5906149d0565b61013180546001600160a01b0319166001600160a01b0392909216919091179055565b610130546001600160a01b0316331461301f5760405162461bcd60e51b815260206004820152601060248201526f4f6e6c7920524e47206164647265737360801b6044820152606401610bf5565b60008281526101336020526040902060028154600160e01b900460ff16600381111561304d5761304d614550565b146130935760405162461bcd60e51b8152602060048201526016602482015275131bdd1d195c9e481b5d5cdd0818994818db1bdcd95960521b6044820152606401610bf5565b805460ff60e01b1916600360e01b1781556000838152610139602052604090208290558054600160e01b900460ff1660038111156130d3576130d3614550565b604051849060008051602061507d83398151915290600090a3505050565b61012d54604051632474521560e21b81526001600160a01b03909116906391d1485490613125906000903390600401614997565b602060405180830381865afa158015613142573d6000803e3d6000fd5b505050506040513d601f19601f8201168201806040525081019061316691906149ae565b6131825760405162461bcd60e51b8152600401610bf5906149d0565b61012f5460405163a9059cbb60e01b81526001600160a01b038481166004830152602482018490529091169063a9059cbb906044016020604051808303816000875af11580156131d6573d6000803e3d6000fd5b505050506040513d601f19601f8201168201806040525081019061118891906149ae565b82518151811461323e5760405162461bcd60e51b815260206004820152600f60248201526e57726f6e6720617267756d656e747360881b6044820152606401610bf5565b60005b818110156132965761328685828151811061325e5761325e614d72565b60200260200101518585848151811061327957613279614d72565b6020026020010151610cf7565b61328f81614d88565b9050613241565b5050505050565b60006132a9600161383c565b905080156132c1576000805461ff0019166101001790555b6132c96138c4565b6132d16138eb565b6132d96138c4565b61012f80546001600160a01b038086166001600160a01b03199283161790925561012e8054878416908316179055610131805488841690831617905561012d8054928516929091169190911790558015613296576000805461ff0019169055604051600181527f7f26b83ff96e1f2b6a682f133852f6798a09c465da95921460cefb38474024989060200160405180910390a15050505050565b6112e7813361391a565b613387828261269f565b6112075760008281526065602090815260408083206001600160a01b03851684529091529020805460ff191660011790556133bf3390565b6001600160a01b0316816001600160a01b0316837f2f8788117e7eff1d82e926ec794901d17c78024a50270940304540a733656f0d60405160405180910390a45050565b61340d828261269f565b156112075760008281526065602090815260408083206001600160a01b0385168085529252808320805460ff1916905551339285917ff6391f5c32d9c69d2a47ea670b442974b53935d1edc7fd64eb21e047a839171b9190a45050565b61012d54604051632474521560e21b81526001600160a01b03909116906391d148549061349e906000903390600401614997565b602060405180830381865afa1580156134bb573d6000803e3d6000fd5b505050506040513d601f19601f820116820180604052508101906134df91906149ae565b6112e75760405162461bcd60e51b8152600401610bf5906149d0565b7f4910fdfa16fed3260ed0e7147f7cc6da11a60208b5b9406d12a635614ffd91435460ff161561352e576111888361397e565b826001600160a01b03166352d1902d6040518163ffffffff1660e01b8152600401602060405180830381865afa925050508015613588575060408051601f3d908101601f1916820190925261358591810190614da1565b60015b6135eb5760405162461bcd60e51b815260206004820152602e60248201527f45524331393637557067726164653a206e657720696d706c656d656e7461746960448201526d6f6e206973206e6f74205555505360901b6064820152608401610bf5565b60008051602061509d833981519152811461365a5760405162461bcd60e51b815260206004820152602960248201527f45524331393637557067726164653a20756e737570706f727465642070726f786044820152681a58589b195555525160ba1b6064820152608401610bf5565b50611188838383613a1a565b60fb5460ff166136af5760405162461bcd60e51b815260206004820152601460248201527314185d5cd8589b194e881b9bdd081c185d5cd95960621b6044820152606401610bf5565b60fb805460ff191690557f5db9ee0a495bf2e6ff9c91a7834c1ba4fdd244a5e8aa4e537bd38aeae4b073aa335b6040516001600160a01b03909116815260200160405180910390a1565b60008060006137088585613a3f565b9150915061371581613aad565b509392505050565b60fb5460ff16156137405760405162461bcd60e51b8152600401610bf5906149fa565b60fb805460ff191660011790557f62e78cea01bee320cd4e420270b5ea74000d11b0c9f74754ebdbfc544b05a2586136dc3390565b61013154604051631e961d2760e01b81526001600160a01b038481166004830152602482018490526000921690631e961d27906044016020604051808303816000875af11580156137ca573d6000803e3d6000fd5b505050506040513d601f19601f820116820180604052508101906127af9190614da1565b6000848484846040516020016138079493929190614ef1565b604051602081830303815290604052805190602001209050949350505050565b6000613834828486613c63565b949350505050565b60008054610100900460ff1615613883578160ff16600114801561385f5750303b155b61387b5760405162461bcd60e51b8152600401610bf590614f28565b506000919050565b60005460ff8084169116106138aa5760405162461bcd60e51b8152600401610bf590614f28565b506000805460ff191660ff92909216919091179055600190565b600054610100900460ff166113835760405162461bcd60e51b8152600401610bf590614f76565b600054610100900460ff166139125760405162461bcd60e51b8152600401610bf590614f76565b611383613c79565b613924828261269f565b6112075761393c816001600160a01b03166014613cac565b613947836020613cac565b604051602001613958929190614fc1565b60408051601f198184030181529082905262461bcd60e51b8252610bf591600401615036565b6001600160a01b0381163b6139eb5760405162461bcd60e51b815260206004820152602d60248201527f455243313936373a206e657720696d706c656d656e746174696f6e206973206e60448201526c1bdd08184818dbdb9d1c9858dd609a1b6064820152608401610bf5565b60008051602061509d83398151915280546001600160a01b0319166001600160a01b0392909216919091179055565b613a2383613e48565b600082511180613a305750805b1561118857611d5b8383613e88565b6000808251604103613a755760208301516040840151606085015160001a613a6987828585613f7c565b94509450505050613aa6565b8251604003613a9e5760208301516040840151613a93868383614069565b935093505050613aa6565b506000905060025b9250929050565b6000816004811115613ac157613ac1614550565b03613ac95750565b6001816004811115613add57613add614550565b03613b2a5760405162461bcd60e51b815260206004820152601860248201527f45434453413a20696e76616c6964207369676e617475726500000000000000006044820152606401610bf5565b6002816004811115613b3e57613b3e614550565b03613b8b5760405162461bcd60e51b815260206004820152601f60248201527f45434453413a20696e76616c6964207369676e6174757265206c656e677468006044820152606401610bf5565b6003816004811115613b9f57613b9f614550565b03613bf75760405162461bcd60e51b815260206004820152602260248201527f45434453413a20696e76616c6964207369676e6174757265202773272076616c604482015261756560f01b6064820152608401610bf5565b6004816004811115613c0b57613c0b614550565b036112e75760405162461bcd60e51b815260206004820152602260248201527f45434453413a20696e76616c6964207369676e6174757265202776272076616c604482015261756560f01b6064820152608401610bf5565b600082613c7085846140a2565b14949350505050565b600054610100900460ff16613ca05760405162461bcd60e51b8152600401610bf590614f76565b60fb805460ff19169055565b60606000613cbb836002614dd2565b613cc6906002614dba565b67ffffffffffffffff811115613cde57613cde61432f565b6040519080825280601f01601f191660200182016040528015613d08576020820181803683370190505b509050600360fc1b81600081518110613d2357613d23614d72565b60200101906001600160f81b031916908160001a905350600f60fb1b81600181518110613d5257613d52614d72565b60200101906001600160f81b031916908160001a9053506000613d76846002614dd2565b613d81906001614dba565b90505b6001811115613df9576f181899199a1a9b1b9c1cb0b131b232b360811b85600f1660108110613db557613db5614d72565b1a60f81b828281518110613dcb57613dcb614d72565b60200101906001600160f81b031916908160001a90535060049490941c93613df281615049565b9050613d84565b5083156127af5760405162461bcd60e51b815260206004820181905260248201527f537472696e67733a20686578206c656e67746820696e73756666696369656e746044820152606401610bf5565b613e518161397e565b6040516001600160a01b038216907fbc7cd75a20ee27fd9adebab32041f755214dbc6bffa90cc0225b39da2e5c2d3b90600090a250565b60606001600160a01b0383163b613ef05760405162461bcd60e51b815260206004820152602660248201527f416464726573733a2064656c65676174652063616c6c20746f206e6f6e2d636f6044820152651b9d1c9858dd60d21b6064820152608401610bf5565b600080846001600160a01b031684604051613f0b9190615060565b600060405180830381855af49150503d8060008114613f46576040519150601f19603f3d011682016040523d82523d6000602084013e613f4b565b606091505b5091509150613f7382826040518060600160405280602781526020016150bd6027913961410e565b95945050505050565b6000807f7fffffffffffffffffffffffffffffff5d576e7357a4501ddfe92f46681b20a0831115613fb35750600090506003614060565b8460ff16601b14158015613fcb57508460ff16601c14155b15613fdc5750600090506004614060565b6040805160008082526020820180845289905260ff881692820192909252606081018690526080810185905260019060a0016020604051602081039080840390855afa158015614030573d6000803e3d6000fd5b5050604051601f1901519150506001600160a01b03811661405957600060019250925050614060565b9150600090505b94509492505050565b6000806001600160ff1b0383168161408660ff86901c601b614dba565b905061409487828885613f7c565b935093505050935093915050565b600081815b84518110156137155760008582815181106140c4576140c4614d72565b602002602001015190508083116140ea57600083815260208290526040902092506140fb565b600081815260208490526040902092505b508061410681614d88565b9150506140a7565b6060831561411d5750816127af565b82511561412d5782518084602001fd5b8160405162461bcd60e51b8152600401610bf59190615036565b60006020828403121561415957600080fd5b81356001600160e01b0319811681146127af57600080fd5b6001600160a01b03811681146112e757600080fd5b6000806040838503121561419957600080fd5b8235915060208301356141ab81614171565b809150509250929050565b6000602082840312156141c857600080fd5b81356127af81614171565b6000602082840312156141e557600080fd5b5035919050565b60008060006060848603121561420157600080fd5b833561420c81614171565b95602085013595506040909401359392505050565b63ffffffff811681146112e757600080fd5b600481106112e757600080fd5b60008060008060008060008060006101208a8c03121561425f57600080fd5b8935985060208a0135975060408a0135965060608a013561427f81614221565b955060808a013561428f81614221565b945060a08a013561429f81614171565b935060c08a013561ffff811681146142b657600080fd5b925060e08a01356142c681614233565b91506101008a01356142d781614221565b809150509295985092959850929598565b600080604083850312156142fb57600080fd5b50508035926020909101359150565b6000806040838503121561431d57600080fd5b8235915060208301356141ab81614221565b634e487b7160e01b600052604160045260246000fd5b604051601f8201601f1916810167ffffffffffffffff8111828210171561436e5761436e61432f565b604052919050565b6000806040838503121561438957600080fd5b823561439481614171565b915060208381013567ffffffffffffffff808211156143b257600080fd5b818601915086601f8301126143c657600080fd5b8135818111156143d8576143d861432f565b6143ea601f8201601f19168501614345565b9150808252878482850101111561440057600080fd5b80848401858401376000848284010152508093505050509250929050565b6000610180828403121561443157600080fd5b50919050565b6000806020838503121561444a57600080fd5b823567ffffffffffffffff8082111561446257600080fd5b818501915085601f83011261447657600080fd5b81358181111561448557600080fd5b8660206101808302850101111561449b57600080fd5b60209290920196919550909350505050565b60008083601f8401126144bf57600080fd5b50813567ffffffffffffffff8111156144d757600080fd5b602083019150836020828501011115613aa657600080fd5b60008060008060006080868803121561450757600080fd5b853594506020860135935060408601359250606086013567ffffffffffffffff81111561453357600080fd5b61453f888289016144ad565b969995985093965092949392505050565b634e487b7160e01b600052602160045260246000fd5b6004811061458457634e487b7160e01b600052602160045260246000fd5b9052565b815163ffffffff168152610180810160208301516145ae602084018263ffffffff169052565b5060408301516145c6604084018263ffffffff169052565b5060608301516145de606084018263ffffffff169052565b5060808301516145f6608084018263ffffffff169052565b5060a083015161460e60a084018263ffffffff169052565b5060c083015161462660c084018263ffffffff169052565b5060e083015161463960e0840182614566565b50610100838101516001600160a01b0316908301526101208084015190830152610140808401519083015261016092830151929091019190915290565b60008060006060848603121561468b57600080fd5b505081359360208301359350604090920135919050565b6020808252825182820181905260009190848201906040850190845b818110156146e35783516001600160a01b0316835292840192918401916001016146be565b50909695505050505050565b600080600080600080600060a0888a03121561470a57600080fd5b87359650602088013561471c81614171565b955060408801359450606088013567ffffffffffffffff8082111561474057600080fd5b61474c8b838c016144ad565b909650945060808a013591508082111561476557600080fd5b818a0191508a601f83011261477957600080fd5b81358181111561478857600080fd5b8b60208260051b850101111561479d57600080fd5b60208301945080935050505092959891949750929550565b600080604083850312156147c857600080fd5b82356147d381614171565b946020939093013593505050565b600067ffffffffffffffff8211156147fb576147fb61432f565b5060051b60200190565b600082601f83011261481657600080fd5b8135602061482b614826836147e1565b614345565b82815260059290921b8401810191818101908684111561484a57600080fd5b8286015b84811015614865578035835291830191830161484e565b509695505050505050565b60008060006060848603121561488557600080fd5b833567ffffffffffffffff8082111561489d57600080fd5b818601915086601f8301126148b157600080fd5b813560206148c1614826836147e1565b82815260059290921b8401810191818101908a8411156148e057600080fd5b948201945b838610156149075785356148f881614171565b825294820194908201906148e5565b975050870135945050604086013591508082111561492457600080fd5b5061493186828701614805565b9150509250925092565b6000806000806080858703121561495157600080fd5b843561495c81614171565b9350602085013561496c81614171565b9250604085013561497c81614171565b9150606085013561498c81614171565b939692955090935050565b9182526001600160a01b0316602082015260400190565b6000602082840312156149c057600080fd5b815180151581146127af57600080fd5b60208082526010908201526f41646d696e2063616c6c73206f6e6c7960801b604082015260600190565b60208082526010908201526f14185d5cd8589b194e881c185d5cd95960821b604082015260600190565b634e487b7160e01b600052601160045260246000fd5b600082821015614a4c57614a4c614a24565b500390565b60208082526023908201527f436c6f73652074696d65206d7573742062652061667465722073746172742074604082015262696d6560e81b606082015260800190565b6020808252602c908201527f46756e6374696f6e206d7573742062652063616c6c6564207468726f7567682060408201526b19195b1959d85d1958d85b1b60a21b606082015260800190565b6020808252602c908201527f46756e6374696f6e206d7573742062652063616c6c6564207468726f7567682060408201526b6163746976652070726f787960a01b606082015260800190565b600060208284031215614b3e57600080fd5b81356127af81614221565b60008135610b5e81614221565b60008135610b5e81614233565b60048210614b8157634e487b7160e01b600052602160045260246000fd5b805460ff60e01b191660e09290921b60ff60e01b16919091179055565b60008135610b5e81614171565b614bce614bb783614b49565b825463ffffffff191663ffffffff91909116178255565b614bff614bdd60208401614b49565b825467ffffffff00000000191660209190911b67ffffffff0000000016178255565b614c38614c0e60408401614b49565b82546bffffffff0000000000000000191660409190911b6bffffffff000000000000000016178255565b614c6b614c4760608401614b49565b82805463ffffffff60601b191660609290921b63ffffffff60601b16919091179055565b614c9e614c7a60808401614b49565b82805463ffffffff60801b191660809290921b63ffffffff60801b16919091179055565b614cd1614cad60a08401614b49565b82805463ffffffff60a01b191660a09290921b63ffffffff60a01b16919091179055565b614d04614ce060c08401614b49565b82805463ffffffff60c01b191660c09290921b63ffffffff60c01b16919091179055565b614d19614d1360e08401614b56565b82614b63565b614d4d614d296101008401614b9e565b6001830180546001600160a01b0319166001600160a01b0392909216919091179055565b6101208201356002820155610140820135600382015561016082013560048201555050565b634e487b7160e01b600052603260045260246000fd5b600060018201614d9a57614d9a614a24565b5060010190565b600060208284031215614db357600080fd5b5051919050565b60008219821115614dcd57614dcd614a24565b500190565b6000816000190483118215151615614dec57614dec614a24565b500290565b600063ffffffff808316818516808303821115614e1057614e10614a24565b01949350505050565b600063ffffffff808316818103614e3257614e32614a24565b6001019392505050565b600061ffff808316818516808303821115614e1057614e10614a24565b6001600160a01b03841681526040602082018190528101829052818360608301376000818301606090810191909152601f909201601f1916010192915050565b60005b83811015614eb4578181015183820152602001614e9c565b83811115611d5b5750506000910152565b60008151808452614edd816020860160208601614e99565b601f01601f19169290920160200192915050565b84815260018060a01b0384166020820152826040820152608060608201526000614f1e6080830184614ec5565b9695505050505050565b6020808252602e908201527f496e697469616c697a61626c653a20636f6e747261637420697320616c72656160408201526d191e481a5b9a5d1a585b1a5e995960921b606082015260800190565b6020808252602b908201527f496e697469616c697a61626c653a20636f6e7472616374206973206e6f74206960408201526a6e697469616c697a696e6760a81b606082015260800190565b7f416363657373436f6e74726f6c3a206163636f756e7420000000000000000000815260008351614ff9816017850160208801614e99565b7001034b99036b4b9b9b4b733903937b6329607d1b601791840191820152835161502a816028840160208801614e99565b01602801949350505050565b6020815260006127af6020830184614ec5565b60008161505857615058614a24565b506000190190565b60008251615072818460208701614e99565b919091019291505056fea3aca9ae20a0379d4094b84c749cbed6584ab20f0b71af75f63f6615d879c939360894a13ba1a3210667c828492db98dca3e2076cc3735a920a3ca505d382bbc416464726573733a206c6f772d6c6576656c2064656c65676174652063616c6c206661696c6564a2646970667358221220cc6a5830191caf9510e78fc848caa0f059f87872eda33aeb2b7d4844d85b186c64736f6c634300080e0033",
  "linkReferences": {},
  "deployedLinkReferences": {}
}