{
  "_format": "hh-sol-artifact-1",
  "contractName": "Lottery",
  "sourceName": "contracts/Lottery/Lottery.sol",
  "abi": [
    {
      "anonymous": false,
      "inputs": [
        {
          "indexed": false,
          "internalType": "address",
          "name": "previousAdmin",
          "type": "address"
        },
        {
          "indexed": false,
          "internalType": "address",
          "name": "newAdmin",
          "type": "address"
        }
      ],
      "name": "AdminChanged",
      "type": "event"
    },
    {
      "anonymous": false,
      "inputs": [
        {
          "indexed": true,
          "internalType": "address",
          "name": "beacon",
          "type": "address"
        }
      ],
      "name": "BeaconUpgraded",
      "type": "event"
    },
    {
      "anonymous": false,
      "inputs": [
        {
          "indexed": false,
          "internalType": "uint8",
          "name": "version",
          "type": "uint8"
        }
      ],
      "name": "Initialized",
      "type": "event"
    },
    {
      "anonymous": false,
      "inputs": [
        {
          "indexed": true,
          "internalType": "uint256",
          "name": "lotteryId",
          "type": "uint256"
        },
        {
          "indexed": true,
          "internalType": "enum Lottery.Status",
          "name": "status",
          "type": "uint8"
        }
      ],
      "name": "LotteryStatusChanged",
      "type": "event"
    },
    {
      "anonymous": false,
      "inputs": [
        {
          "indexed": false,
          "internalType": "address",
          "name": "account",
          "type": "address"
        }
      ],
      "name": "Paused",
      "type": "event"
    },
    {
      "anonymous": false,
      "inputs": [
        {
          "indexed": true,
          "internalType": "uint256",
          "name": "lotteryId",
          "type": "uint256"
        },
        {
          "indexed": true,
          "internalType": "address",
          "name": "participantAddress",
          "type": "address"
        },
        {
          "indexed": true,
          "internalType": "uint256",
          "name": "prizeId",
          "type": "uint256"
        }
      ],
      "name": "PrizeClaimed",
      "type": "event"
    },
    {
      "anonymous": false,
      "inputs": [
        {
          "indexed": true,
          "internalType": "uint256",
          "name": "lotteryId",
          "type": "uint256"
        },
        {
          "indexed": true,
          "internalType": "bytes32",
          "name": "requestId",
          "type": "bytes32"
        }
      ],
      "name": "RequestNumbers",
      "type": "event"
    },
    {
      "anonymous": false,
      "inputs": [
        {
          "indexed": true,
          "internalType": "bytes32",
          "name": "requestId",
          "type": "bytes32"
        }
      ],
      "name": "ResponseReceived",
      "type": "event"
    },
    {
      "anonymous": false,
      "inputs": [
        {
          "indexed": true,
          "internalType": "bytes32",
          "name": "role",
          "type": "bytes32"
        },
        {
          "indexed": true,
          "internalType": "bytes32",
          "name": "previousAdminRole",
          "type": "bytes32"
        },
        {
          "indexed": true,
          "internalType": "bytes32",
          "name": "newAdminRole",
          "type": "bytes32"
        }
      ],
      "name": "RoleAdminChanged",
      "type": "event"
    },
    {
      "anonymous": false,
      "inputs": [
        {
          "indexed": true,
          "internalType": "bytes32",
          "name": "role",
          "type": "bytes32"
        },
        {
          "indexed": true,
          "internalType": "address",
          "name": "account",
          "type": "address"
        },
        {
          "indexed": true,
          "internalType": "address",
          "name": "sender",
          "type": "address"
        }
      ],
      "name": "RoleGranted",
      "type": "event"
    },
    {
      "anonymous": false,
      "inputs": [
        {
          "indexed": true,
          "internalType": "bytes32",
          "name": "role",
          "type": "bytes32"
        },
        {
          "indexed": true,
          "internalType": "address",
          "name": "account",
          "type": "address"
        },
        {
          "indexed": true,
          "internalType": "address",
          "name": "sender",
          "type": "address"
        }
      ],
      "name": "RoleRevoked",
      "type": "event"
    },
    {
      "anonymous": false,
      "inputs": [
        {
          "indexed": false,
          "internalType": "address",
          "name": "operator",
          "type": "address"
        },
        {
          "indexed": false,
          "internalType": "uint256",
          "name": "lotteryId",
          "type": "uint256"
        },
        {
          "indexed": false,
          "internalType": "uint256",
          "name": "priceOfTicket",
          "type": "uint256"
        }
      ],
      "name": "TicketCostChanged",
      "type": "event"
    },
    {
      "anonymous": false,
      "inputs": [
        {
          "indexed": true,
          "internalType": "uint256",
          "name": "lotteryId",
          "type": "uint256"
        },
        {
          "indexed": false,
          "internalType": "uint256",
          "name": "ticketNumber",
          "type": "uint256"
        },
        {
          "indexed": true,
          "internalType": "address",
          "name": "participantAddress",
          "type": "address"
        }
      ],
      "name": "TicketSold",
      "type": "event"
    },
    {
      "anonymous": false,
      "inputs": [
        {
          "indexed": false,
          "internalType": "address",
          "name": "account",
          "type": "address"
        }
      ],
      "name": "Unpaused",
      "type": "event"
    },
    {
      "anonymous": false,
      "inputs": [
        {
          "indexed": true,
          "internalType": "address",
          "name": "implementation",
          "type": "address"
        }
      ],
      "name": "Upgraded",
      "type": "event"
    },
    {
      "inputs": [],
      "name": "DEFAULT_ADMIN_ROLE",
      "outputs": [
        {
          "internalType": "bytes32",
          "name": "",
          "type": "bytes32"
        }
      ],
      "stateMutability": "view",
      "type": "function"
    },
    {
      "inputs": [
        {
          "internalType": "uint256",
          "name": "_lotteryId",
          "type": "uint256"
        },
        {
          "internalType": "uint256",
          "name": "_numberOfTicketsToBuy",
          "type": "uint256"
        }
      ],
      "name": "buyTickets",
      "outputs": [],
      "stateMutability": "nonpayable",
      "type": "function"
    },
    {
      "inputs": [
        {
          "internalType": "uint256",
          "name": "_points",
          "type": "uint256"
        },
        {
          "internalType": "uint256",
          "name": "_lotteryId",
          "type": "uint256"
        },
        {
          "internalType": "uint256",
          "name": "_numberOfTicketsToBuy",
          "type": "uint256"
        },
        {
          "internalType": "bytes",
          "name": "_sig",
          "type": "bytes"
        }
      ],
      "name": "buyTicketsWithSignedMessage",
      "outputs": [],
      "stateMutability": "nonpayable",
      "type": "function"
    },
    {
      "inputs": [
        {
          "internalType": "uint256",
          "name": "_lotteryId",
          "type": "uint256"
        }
      ],
      "name": "cancelLottery",
      "outputs": [],
      "stateMutability": "nonpayable",
      "type": "function"
    },
    {
      "inputs": [
        {
          "internalType": "uint256",
          "name": "_lotteryId",
          "type": "uint256"
        },
        {
          "internalType": "uint32",
          "name": "_time",
          "type": "uint32"
        }
      ],
      "name": "changeCloseTime",
      "outputs": [],
      "stateMutability": "nonpayable",
      "type": "function"
    },
    {
      "inputs": [
        {
          "internalType": "uint256",
          "name": "_lotteryId",
          "type": "uint256"
        },
        {
          "internalType": "address",
          "name": "_winner",
          "type": "address"
        },
        {
          "internalType": "uint256",
          "name": "_prizeId",
          "type": "uint256"
        },
        {
          "internalType": "string",
          "name": "_uri",
          "type": "string"
        },
        {
          "internalType": "bytes32[]",
          "name": "_proof",
          "type": "bytes32[]"
        }
      ],
      "name": "claimPrize",
      "outputs": [],
      "stateMutability": "nonpayable",
      "type": "function"
    },
    {
      "inputs": [
        {
          "internalType": "uint256",
          "name": "",
          "type": "uint256"
        },
        {
          "internalType": "uint256",
          "name": "",
          "type": "uint256"
        }
      ],
      "name": "claimedPrizes",
      "outputs": [
        {
          "internalType": "bool",
          "name": "",
          "type": "bool"
        }
      ],
      "stateMutability": "view",
      "type": "function"
    },
    {
      "inputs": [
        {
          "internalType": "uint256",
          "name": "_lotteryId",
          "type": "uint256"
        },
        {
          "internalType": "uint256",
          "name": "_ticketCostPoints",
          "type": "uint256"
        },
        {
          "internalType": "uint256",
          "name": "_ticketCostTokens",
          "type": "uint256"
        },
        {
          "internalType": "uint32",
          "name": "_startTime",
          "type": "uint32"
        },
        {
          "internalType": "uint32",
          "name": "_closeTime",
          "type": "uint32"
        },
        {
          "internalType": "contract INFT",
          "name": "_nftContract",
          "type": "address"
        },
        {
          "internalType": "bool",
          "name": "_isRefundable",
          "type": "bool"
        },
        {
          "internalType": "uint16",
          "name": "_maxTickets",
          "type": "uint16"
        },
        {
          "internalType": "uint16",
          "name": "_maxTicketsPerUser",
          "type": "uint16"
        },
        {
          "internalType": "uint128",
          "name": "_firstPrizeId",
          "type": "uint128"
        },
        {
          "internalType": "uint128",
          "name": "_lastPrizeId",
          "type": "uint128"
        }
      ],
      "name": "createLottery",
      "outputs": [],
      "stateMutability": "nonpayable",
      "type": "function"
    },
    {
      "inputs": [],
      "name": "getLotteryCount",
      "outputs": [
        {
          "internalType": "uint256",
          "name": "",
          "type": "uint256"
        }
      ],
      "stateMutability": "view",
      "type": "function"
    },
    {
      "inputs": [
        {
          "internalType": "uint256",
          "name": "_lotteryId",
          "type": "uint256"
        }
      ],
      "name": "getLotteryInfo",
      "outputs": [
        {
          "components": [
            {
              "internalType": "uint32",
              "name": "startTime",
              "type": "uint32"
            },
            {
              "internalType": "uint32",
              "name": "closeTime",
              "type": "uint32"
            },
            {
              "internalType": "uint32",
              "name": "participantsCount",
              "type": "uint32"
            },
            {
              "internalType": "uint32",
              "name": "maxTickets",
              "type": "uint32"
            },
            {
              "internalType": "uint32",
              "name": "maxTicketsPerUser",
              "type": "uint32"
            },
            {
              "internalType": "uint32",
              "name": "numberOfTicketsSold",
              "type": "uint32"
            },
            {
              "internalType": "enum Lottery.Status",
              "name": "status",
              "type": "uint8"
            },
            {
              "internalType": "contract INFT",
              "name": "nftContract",
              "type": "address"
            },
            {
              "internalType": "bool",
              "name": "isRefundable",
              "type": "bool"
            },
            {
              "internalType": "uint128",
              "name": "firstPrizeId",
              "type": "uint128"
            },
            {
              "internalType": "uint128",
              "name": "lastPrizeId",
              "type": "uint128"
            },
            {
              "internalType": "uint256",
              "name": "lotteryID",
              "type": "uint256"
            },
            {
              "internalType": "uint256",
              "name": "ticketCostPoints",
              "type": "uint256"
            },
            {
              "internalType": "uint256",
              "name": "ticketCostTokens",
              "type": "uint256"
            }
          ],
          "internalType": "struct Lottery.LotteryInfo",
          "name": "",
          "type": "tuple"
        }
      ],
      "stateMutability": "view",
      "type": "function"
    },
    {
      "inputs": [
        {
          "internalType": "uint256",
          "name": "_lotteryId",
          "type": "uint256"
        }
      ],
      "name": "getLotteryTicketCount",
      "outputs": [
        {
          "internalType": "uint256",
          "name": "",
          "type": "uint256"
        }
      ],
      "stateMutability": "view",
      "type": "function"
    },
    {
      "inputs": [
        {
          "internalType": "uint256",
          "name": "_lotteryId",
          "type": "uint256"
        },
        {
          "internalType": "uint256",
          "name": "_from",
          "type": "uint256"
        },
        {
          "internalType": "uint256",
          "name": "_to",
          "type": "uint256"
        }
      ],
      "name": "getLotteryTickets",
      "outputs": [
        {
          "internalType": "address[]",
          "name": "",
          "type": "address[]"
        }
      ],
      "stateMutability": "view",
      "type": "function"
    },
    {
      "inputs": [
        {
          "internalType": "address",
          "name": "_participant",
          "type": "address"
        }
      ],
      "name": "getParticipantHistory",
      "outputs": [
        {
          "internalType": "uint256[]",
          "name": "",
          "type": "uint256[]"
        }
      ],
      "stateMutability": "view",
      "type": "function"
    },
    {
      "inputs": [
        {
          "internalType": "uint256",
          "name": "_lotteryId",
          "type": "uint256"
        }
      ],
      "name": "getParticipantsCount",
      "outputs": [
        {
          "internalType": "uint32",
          "name": "",
          "type": "uint32"
        }
      ],
      "stateMutability": "view",
      "type": "function"
    },
    {
      "inputs": [
        {
          "internalType": "bytes32",
          "name": "role",
          "type": "bytes32"
        }
      ],
      "name": "getRoleAdmin",
      "outputs": [
        {
          "internalType": "bytes32",
          "name": "",
          "type": "bytes32"
        }
      ],
      "stateMutability": "view",
      "type": "function"
    },
    {
      "inputs": [
        {
          "internalType": "uint256",
          "name": "_lotteryId",
          "type": "uint256"
        },
        {
          "internalType": "address",
          "name": "_user",
          "type": "address"
        }
      ],
      "name": "getTicketCountPerUser",
      "outputs": [
        {
          "internalType": "uint256",
          "name": "",
          "type": "uint256"
        }
      ],
      "stateMutability": "view",
      "type": "function"
    },
    {
      "inputs": [
        {
          "internalType": "uint256",
          "name": "_lotteryId",
          "type": "uint256"
        }
      ],
      "name": "getWhitelist",
      "outputs": [
        {
          "internalType": "address",
          "name": "",
          "type": "address"
        }
      ],
      "stateMutability": "view",
      "type": "function"
    },
    {
      "inputs": [
        {
          "internalType": "bytes32",
          "name": "role",
          "type": "bytes32"
        },
        {
          "internalType": "address",
          "name": "account",
          "type": "address"
        }
      ],
      "name": "grantRole",
      "outputs": [],
      "stateMutability": "nonpayable",
      "type": "function"
    },
    {
      "inputs": [
        {
          "internalType": "bytes32",
          "name": "role",
          "type": "bytes32"
        },
        {
          "internalType": "address",
          "name": "account",
          "type": "address"
        }
      ],
      "name": "hasRole",
      "outputs": [
        {
          "internalType": "bool",
          "name": "",
          "type": "bool"
        }
      ],
      "stateMutability": "view",
      "type": "function"
    },
    {
      "inputs": [
        {
          "internalType": "address",
          "name": "_rewardsContract",
          "type": "address"
        },
        {
          "internalType": "address",
          "name": "_admin",
          "type": "address"
        },
        {
          "internalType": "address",
          "name": "_token",
          "type": "address"
        },
        {
          "internalType": "address",
          "name": "_sageStorage",
          "type": "address"
        }
      ],
      "name": "initialize",
      "outputs": [],
      "stateMutability": "nonpayable",
      "type": "function"
    },
    {
      "inputs": [
        {
          "internalType": "uint256",
          "name": "",
          "type": "uint256"
        }
      ],
      "name": "lotteries",
      "outputs": [
        {
          "internalType": "uint256",
          "name": "",
          "type": "uint256"
        }
      ],
      "stateMutability": "view",
      "type": "function"
    },
    {
      "inputs": [
        {
          "internalType": "uint256",
          "name": "",
          "type": "uint256"
        },
        {
          "internalType": "uint256",
          "name": "",
          "type": "uint256"
        }
      ],
      "name": "lotteryTickets",
      "outputs": [
        {
          "internalType": "address",
          "name": "",
          "type": "address"
        }
      ],
      "stateMutability": "view",
      "type": "function"
    },
    {
      "inputs": [
        {
          "internalType": "uint256",
          "name": "",
          "type": "uint256"
        },
        {
          "internalType": "address",
          "name": "",
          "type": "address"
        }
      ],
      "name": "participants",
      "outputs": [
        {
          "internalType": "uint16",
          "name": "totalTicketsBought",
          "type": "uint16"
        },
        {
          "internalType": "bool",
          "name": "claimedPrize",
          "type": "bool"
        }
      ],
      "stateMutability": "view",
      "type": "function"
    },
    {
      "inputs": [],
      "name": "pause",
      "outputs": [],
      "stateMutability": "nonpayable",
      "type": "function"
    },
    {
      "inputs": [],
      "name": "paused",
      "outputs": [
        {
          "internalType": "bool",
          "name": "",
          "type": "bool"
        }
      ],
      "stateMutability": "view",
      "type": "function"
    },
    {
      "inputs": [
        {
          "internalType": "uint256",
          "name": "_lotteryId",
          "type": "uint256"
        },
        {
          "internalType": "uint256",
          "name": "_tokenId",
          "type": "uint256"
        }
      ],
      "name": "prizeClaimed",
      "outputs": [
        {
          "internalType": "bool",
          "name": "",
          "type": "bool"
        }
      ],
      "stateMutability": "view",
      "type": "function"
    },
    {
      "inputs": [
        {
          "internalType": "uint256",
          "name": "",
          "type": "uint256"
        }
      ],
      "name": "prizeMerkleRoots",
      "outputs": [
        {
          "internalType": "bytes32",
          "name": "",
          "type": "bytes32"
        }
      ],
      "stateMutability": "view",
      "type": "function"
    },
    {
      "inputs": [],
      "name": "proxiableUUID",
      "outputs": [
        {
          "internalType": "bytes32",
          "name": "",
          "type": "bytes32"
        }
      ],
      "stateMutability": "view",
      "type": "function"
    },
    {
      "inputs": [],
      "name": "randomGenerator",
      "outputs": [
        {
          "internalType": "contract IRandomNumberGenerator",
          "name": "",
          "type": "address"
        }
      ],
      "stateMutability": "view",
      "type": "function"
    },
    {
      "inputs": [
        {
          "internalType": "uint256",
          "name": "",
          "type": "uint256"
        }
      ],
      "name": "randomSeeds",
      "outputs": [
        {
          "internalType": "uint256",
          "name": "",
          "type": "uint256"
        }
      ],
      "stateMutability": "view",
      "type": "function"
    },
    {
      "inputs": [
        {
          "internalType": "uint256",
          "name": "_lotteryId",
          "type": "uint256"
        },
        {
          "internalType": "bytes32",
          "name": "_requestId",
          "type": "bytes32"
        },
        {
          "internalType": "uint256",
          "name": "_randomNumber",
          "type": "uint256"
        }
      ],
      "name": "receiveRandomNumber",
      "outputs": [],
      "stateMutability": "nonpayable",
      "type": "function"
    },
    {
      "inputs": [
        {
          "internalType": "bytes32",
          "name": "role",
          "type": "bytes32"
        },
        {
          "internalType": "address",
          "name": "account",
          "type": "address"
        }
      ],
      "name": "renounceRole",
      "outputs": [],
      "stateMutability": "nonpayable",
      "type": "function"
    },
    {
      "inputs": [
        {
          "internalType": "uint256",
          "name": "_lotteryId",
          "type": "uint256"
        }
      ],
      "name": "requestRandomNumber",
      "outputs": [],
      "stateMutability": "nonpayable",
      "type": "function"
    },
    {
      "inputs": [
        {
          "internalType": "bytes32",
          "name": "role",
          "type": "bytes32"
        },
        {
          "internalType": "address",
          "name": "account",
          "type": "address"
        }
      ],
      "name": "revokeRole",
      "outputs": [],
      "stateMutability": "nonpayable",
      "type": "function"
    },
    {
      "inputs": [],
      "name": "rewardsContract",
      "outputs": [
        {
          "internalType": "contract IRewards",
          "name": "",
          "type": "address"
        }
      ],
      "stateMutability": "view",
      "type": "function"
    },
    {
      "inputs": [
        {
          "internalType": "uint256",
          "name": "_lotteryId",
          "type": "uint256"
        },
        {
          "internalType": "uint32",
          "name": "_maxTickets",
          "type": "uint32"
        }
      ],
      "name": "setMaxTickets",
      "outputs": [],
      "stateMutability": "nonpayable",
      "type": "function"
    },
    {
      "inputs": [
        {
          "internalType": "uint256",
          "name": "_lotteryId",
          "type": "uint256"
        },
        {
          "internalType": "uint32",
          "name": "_maxTicketsPerUser",
          "type": "uint32"
        }
      ],
      "name": "setMaxTicketsPerUser",
      "outputs": [],
      "stateMutability": "nonpayable",
      "type": "function"
    },
    {
      "inputs": [
        {
          "internalType": "uint256",
          "name": "_lotteryId",
          "type": "uint256"
        },
        {
          "internalType": "bytes32",
          "name": "_root",
          "type": "bytes32"
        }
      ],
      "name": "setPrizeMerkleRoot",
      "outputs": [],
      "stateMutability": "nonpayable",
      "type": "function"
    },
    {
      "inputs": [
        {
          "internalType": "address",
          "name": "_IRandomNumberGenerator",
          "type": "address"
        }
      ],
      "name": "setRandomGenerator",
      "outputs": [],
      "stateMutability": "nonpayable",
      "type": "function"
    },
    {
      "inputs": [
        {
          "internalType": "address",
          "name": "_rewardsContract",
          "type": "address"
        }
      ],
      "name": "setRewardsContract",
      "outputs": [],
      "stateMutability": "nonpayable",
      "type": "function"
    },
    {
      "inputs": [
        {
          "internalType": "address",
          "name": "_signer",
          "type": "address"
        }
      ],
      "name": "setSignerAddress",
      "outputs": [],
      "stateMutability": "nonpayable",
      "type": "function"
    },
    {
      "inputs": [
        {
          "internalType": "address",
          "name": "_token",
          "type": "address"
        }
      ],
      "name": "setToken",
      "outputs": [],
      "stateMutability": "nonpayable",
      "type": "function"
    },
    {
      "inputs": [
        {
          "internalType": "uint256",
          "name": "_lotteryId",
          "type": "uint256"
        },
        {
          "internalType": "address",
          "name": "_whitelist",
          "type": "address"
        }
      ],
      "name": "setWhitelist",
      "outputs": [],
      "stateMutability": "nonpayable",
      "type": "function"
    },
    {
      "inputs": [],
      "name": "signerAddress",
      "outputs": [
        {
          "internalType": "address",
          "name": "",
          "type": "address"
        }
      ],
      "stateMutability": "view",
      "type": "function"
    },
    {
      "inputs": [
        {
          "internalType": "bytes4",
          "name": "interfaceId",
          "type": "bytes4"
        }
      ],
      "name": "supportsInterface",
      "outputs": [
        {
          "internalType": "bool",
          "name": "",
          "type": "bool"
        }
      ],
      "stateMutability": "view",
      "type": "function"
    },
    {
      "inputs": [],
      "name": "token",
      "outputs": [
        {
          "internalType": "contract IERC20",
          "name": "",
          "type": "address"
        }
      ],
      "stateMutability": "view",
      "type": "function"
    },
    {
      "inputs": [],
      "name": "unpause",
      "outputs": [],
      "stateMutability": "nonpayable",
      "type": "function"
    },
    {
      "inputs": [
        {
          "internalType": "uint256",
          "name": "lotteryId",
          "type": "uint256"
        },
        {
          "internalType": "uint256",
          "name": "_ticketCostPoints",
          "type": "uint256"
        },
        {
          "internalType": "uint256",
          "name": "_ticketCostTokens",
          "type": "uint256"
        },
        {
          "internalType": "uint32",
          "name": "_startTime",
          "type": "uint32"
        },
        {
          "internalType": "uint32",
          "name": "_closeTime",
          "type": "uint32"
        },
        {
          "internalType": "contract INFT",
          "name": "_nftContract",
          "type": "address"
        },
        {
          "internalType": "uint16",
          "name": "_maxTickets",
          "type": "uint16"
        },
        {
          "internalType": "enum Lottery.Status",
          "name": "_status",
          "type": "uint8"
        },
        {
          "internalType": "bool",
          "name": "_isRefundable",
          "type": "bool"
        },
        {
          "internalType": "uint128",
          "name": "_firstPrizeId",
          "type": "uint128"
        },
        {
          "internalType": "uint128",
          "name": "_lastPrizeId",
          "type": "uint128"
        }
      ],
      "name": "updateLottery",
      "outputs": [],
      "stateMutability": "nonpayable",
      "type": "function"
    },
    {
      "inputs": [
        {
          "internalType": "address",
          "name": "newImplementation",
          "type": "address"
        }
      ],
      "name": "upgradeTo",
      "outputs": [],
      "stateMutability": "nonpayable",
      "type": "function"
    },
    {
      "inputs": [
        {
          "internalType": "address",
          "name": "newImplementation",
          "type": "address"
        },
        {
          "internalType": "bytes",
          "name": "data",
          "type": "bytes"
        }
      ],
      "name": "upgradeToAndCall",
      "outputs": [],
      "stateMutability": "payable",
      "type": "function"
    },
    {
      "inputs": [
        {
          "internalType": "uint256",
          "name": "",
          "type": "uint256"
        }
      ],
      "name": "whitelists",
      "outputs": [
        {
          "internalType": "address",
          "name": "",
          "type": "address"
        }
      ],
      "stateMutability": "view",
      "type": "function"
    },
    {
      "inputs": [
        {
          "internalType": "address",
          "name": "_to",
          "type": "address"
        },
        {
          "internalType": "uint256",
          "name": "_amount",
          "type": "uint256"
        }
      ],
      "name": "withdraw",
      "outputs": [],
      "stateMutability": "nonpayable",
      "type": "function"
    }
  ],
  "bytecode": "0x60a0806040523461003157306080526143b290816100378239608051818181610a3e01528181610e1a0152610ea90152f35b600080fdfe60806040526004361015610013575b600080fd5b60003560e01c806301ffc9a71461041a57806302e060c614610411578063046dc166146104085780631398e076146103ff578063144fa6d7146103f6578063220cce97146103ed57806323680400146103e4578063248a9ca3146103db57806328990683146103d25780632f2ff15d146103c95780632f9aa1fe146103c057806336568abe146103b75780633659cfe6146103ae5780633f4ba83a146103a557806340cf23d91461039c5780634538f2971461039357806349c0de881461038a5780634a004467146103815780634bc19fee146103785780634f1ef2861461036f57806350612da61461036657806352d1902d1461035d5780635b7633d0146103545780635c975abb1461034b5780636a6be315146103425780637350ab2c1461033957806376b3c8a81461033057806378a03c47146103275780637ccbe57b1461031e5780638456cb59146103155780638627df461461030c57806391d148541461030357806396db752a146102fa5780639b7fecc3146102f1578063a217fddf146102e8578063a6c76bdf146102df578063b1eb96c9146102d6578063bf4002b2146102cd578063c11ab615146102c4578063d098a2f0146102bb578063d225428f146102b2578063d547741f146102a9578063d89da286146102a0578063db2c0fd11461026a578063dcbad90d14610297578063dfa0dfa51461028e578063f3fef3a314610285578063f5f489981461027c578063f8c8765e14610273578063f90328d51461026a578063fc0c546a146102615763fe4d5add1461025957600080fd5b61000e611685565b5061000e611d5c565b5061000e611ac7565b5061000e611c11565b5061000e611bda565b5061000e611b93565b5061000e611b33565b5061000e611b08565b5061000e611a58565b5061000e611a15565b5061000e611990565b5061000e611962565b5061000e61192b565b5061000e6118bc565b5061000e611882565b5061000e611809565b5061000e6117ec565b5061000e6116ff565b5061000e611685565b5061000e61162e565b5061000e611545565b5061000e61150e565b5061000e611490565b5061000e6113c2565b5061000e6112e3565b5061000e61101e565b5061000e610fae565b5061000e610f8a565b5061000e610f5f565b5061000e610e95565b5061000e610e4c565b5061000e610db6565b5061000e610c6f565b5061000e610c00565b5061000e610b73565b5061000e610b39565b5061000e610ae2565b5061000e610aab565b5061000e610a08565b5061000e610971565b5061000e610951565b5061000e610880565b5061000e610764565b5061000e610734565b5061000e610706565b5061000e6106db565b5061000e610670565b5061000e61061d565b5061000e6104e6565b5061000e610482565b503461000e57602036600319011261000e5760043563ffffffff60e01b811680910361000e57602090637965db0b60e01b8114908115610460575b506040519015158152f35b6301ffc9a760e01b14905038610455565b6001600160a01b0381160361000e57565b503461000e57604036600319011261000e5760406104cc6024356104a581610471565b600435600052610139602052826000209060018060a01b0316600052602052604060002090565b5460ff82519161ffff8116835260101c1615156020820152f35b503461000e57602036600319011261000e576105a360043561050781610471565b61012d5461058190610567906020906001600160a01b03165b604051828101906105438161053533856128c5565b03601f198101835282610d23565b519020906040518080958194633d70e7e560e11b8352600483019190602083019252565b03915afa9081156105d3575b6000916105a5575b50612909565b61012f80546001600160a01b0319166001600160a01b03909216919091179055565b005b6105c6915060203d81116105cc575b6105be8183610d23565b8101906128f4565b3861057b565b503d6105b4565b6105db6120fc565b610573565b50634e487b7160e01b600052603260045260246000fd5b8054821015610610575b60005260206000200190600090565b6106186105e0565b610601565b503461000e57602036600319011261000e5760043561013390815481101561000e576020916000527f92e985329fb94cc1b424ebb0f7f2929b6d27383ca94c0ec71c44fb48bdf96d2c0154604051908152f35b503461000e57602036600319011261000e576105a360043561069181610471565b61012d546106ae90610567906020906001600160a01b0316610520565b61013080546001600160a01b0319166001600160a01b03909216919091179055565b600091031261000e57565b503461000e57600036600319011261000e57610132546040516001600160a01b039091168152602090f35b503461000e57602036600319011261000e5760043560005261013a6020526020604060002054604051908152f35b503461000e57602036600319011261000e5760043560005260656020526020600160406000200154604051908152f35b503461000e57606036600319011261000e5761013154600435906001600160a01b031633036108485780600091825261013460205261081a604083206107bd600260ff835460c01c16600481101561083b575b1461376b565b6024357f8e372cc311d12a5394f598c3c41b36e9775c6cb51b99fde2aaca7978a8ec713f85604051a2805460ff60c01b1916600360c01b17815560443561080f8460005261013a602052604060002090565b555460c01c60ff1690565b610823816111dc565b6040519160008051602061433d8339815191528484a3f35b6108436111c5565b6107b7565b60405162461bcd60e51b815260206004820152601060248201526f4f6e6c7920524e47206164647265737360801b6044820152606490fd5b503461000e5760408060031936011261000e57600435906024356108a381610471565b60009280845260656020526108bd60018486200154611d87565b808452606560209081528385206001600160a01b03841660009081529152604090205460ff16156108ed57505051f35b808452606560209081528385206001600160a01b0384166000908152915260409020805460ff19166001179055825133926001600160a01b031691907f2f8788117e7eff1d82e926ec794901d17c78024a50270940304540a733656f0d908690a451f35b503461000e57600036600319011261000e57602061013354604051908152f35b503461000e57604036600319011261000e5760243561098f81610471565b336001600160a01b038216036109ab576105a390600435611f47565b60405162461bcd60e51b815260206004820152602f60248201527f416363657373436f6e74726f6c3a2063616e206f6e6c792072656e6f756e636560448201526e103937b632b9903337b91039b2b63360891b6064820152608490fd5b503461000e57602036600319011261000e576105a3600435610a2981610471565b610a9d61056760206001600160a01b03610a837f00000000000000000000000000000000000000000000000000000000000000008216610a6b30821415611fd7565b8260008051602061435d833981519152541614612038565b61012d5416604051828101906105438161053533856128c5565b610aa5612099565b906121b6565b503461000e57600036600319011261000e5761012d54610ada90610567906020906001600160a01b0316610520565b6105a36142c1565b503461000e57604036600319011261000e57602061ffff610b2f602435610b0881610471565b600435600052610139845260406000209060018060a01b0316600052602052604060002090565b5416604051908152f35b503461000e57602036600319011261000e5761012d54610b6890610567906020906001600160a01b0316610520565b6105a3600435613809565b503461000e57604036600319011261000e5760243560043560005261013b6020526040600020805482101561000e57602091610bae916105f7565b905460405160039290921b1c6001600160a01b03168152f35b6024359063ffffffff8216820361000e57565b6064359063ffffffff8216820361000e57565b6084359063ffffffff8216820361000e57565b503461000e57604036600319011261000e576105a3610c1d610bc7565b61012d54610c3a90610567906020906001600160a01b0316610520565b600435600090815261013460205260409020805463ffffffff60801b191660809290921b63ffffffff60801b16919091179055565b503461000e57602036600319011261000e576105a3600435610c9081610471565b61012d54610cad90610567906020906001600160a01b0316610520565b612a2e565b50634e487b7160e01b600052604160045260246000fd5b67ffffffffffffffff8111610cdd57604052565b610ce5610cb2565b604052565b6101c0810190811067ffffffffffffffff821117610cdd57604052565b6060810190811067ffffffffffffffff821117610cdd57604052565b90601f8019910116810190811067ffffffffffffffff821117610cdd57604052565b60405190610d5282610cea565b565b60209067ffffffffffffffff8111610d72575b601f01601f19160190565b610d7a610cb2565b610d67565b929192610d8b82610d54565b91610d996040519384610d23565b82948184528183011161000e578281602093846000960137010152565b50604036600319011261000e57600435610dcf81610471565b6024359067ffffffffffffffff821161000e573660238301121561000e57610e046105a3923690602481600401359101610d7f565b90610e4761056760206001600160a01b03610a837f00000000000000000000000000000000000000000000000000000000000000008216610a6b30821415611fd7565b612279565b503461000e57604036600319011261000e5761012d54610e7b90610567906020906001600160a01b0316610520565b6105a3602435600435600052610136602052604060002055565b503461000e57600036600319011261000e577f00000000000000000000000000000000000000000000000000000000000000006001600160a01b03163003610ef45760405160008051602061435d8339815191528152602090f35b0390f35b60405162461bcd60e51b815260206004820152603860248201527f555550535570677261646561626c653a206d757374206e6f742062652063616c60448201527f6c6564207468726f7567682064656c656761746563616c6c00000000000000006064820152608490fd5b503461000e57600036600319011261000e5761012f546040516001600160a01b039091168152602090f35b503461000e57600036600319011261000e57602060ff60fb54166040519015158152f35b503461000e57604036600319011261000e576105a3610fcb610bc7565b61012d54610fe890610567906020906001600160a01b0316610520565b6004356129a0565b9181601f8401121561000e5782359167ffffffffffffffff831161000e576020838186019501011161000e57565b503461000e57608036600319011261000e5760043560643567ffffffffffffffff811161000e5761109a61109461105c6110c9933690600401610ff0565b6040805133602082019081529181018890529193929161108c91906110848160608101610535565b519020612ec3565b923691610d7f565b90612bf2565b61012f546110b8906001600160a01b03165b6001600160a01b031690565b6001600160a01b0390911614612bb2565b610132546110df906001600160a01b03166110ac565b60405163f662781d60e01b81523360048201528290602081602481865afa9081156111b8575b60009161118a575b5010611122575b6105a36044356024356138d0565b803b1561000e57604051630259ab7760e61b815233600482015260248101929092526000908290604490829084905af1801561117d575b611164575b80611114565b8061117161117792610cc9565b806106d0565b3861115e565b6111856120fc565b611159565b6111ab915060203d81116111b1575b6111a38183610d23565b8101906120ed565b3861110d565b503d611199565b6111c06120fc565b611105565b50634e487b7160e01b600052602160045260246000fd5b600411156111e657565b610d526111c5565b9060048210156111fb5752565b6112036111c5565b52565b815163ffffffff1681526101c08101929160208181015163ffffffff169083015260408181015163ffffffff169083015260608181015163ffffffff169083015260808181015163ffffffff169083015260a08181015163ffffffff169083015261127960c082015160c08401906111ee565b60e0818101516001600160a01b03169083015261010081810151151590830152610120818101516001600160801b031690830152610140818101516001600160801b031690830152610160808201519083015261018080820151908301526101a080910151910152565b503461000e57602036600319011261000e5760405161130181610cea565b6101a06000918281528260208201528260408201528260608201528260808201528260a08201528260c08201528260e082015282610100820152826101208201528261014082015282610160820152826101808201520152610ef061137b611376600435600052610134602052604060002090565b612aa4565b60405191829182611206565b6020908160408183019282815285518094520193019160005b8281106113ae575050505090565b8351855293810193928101926001016113a0565b503461000e5760208060031936011261000e576004356113e181610471565b6001600160a01b0316600090815261013782526040808220905181548082529183528383208185019491939092915b82821061143357610ef08561142781890382610d23565b60405191829182611387565b835486529485019460019384019390910190611410565b8015150361000e57565b6101043590610d528261144a565b61012435906001600160801b038216820361000e57565b61014435906001600160801b038216820361000e57565b503461000e5761016036600319011261000e576114ab610bda565b6114b3610bed565b9060a435916114c183610471565b60c4356114cd8161144a565b60e43561ffff91828216820361000e5761010435928316830361000e576105a3956114f6611462565b946114ff611479565b9660443560243560043561313e565b503461000e57600036600319011261000e5761012d5461153d90610567906020906001600160a01b0316610520565b6105a361427b565b503461000e57604036600319011261000e576105a360043561156c60ff60fb541615613891565b600081815261013560205260409020546001600160a01b0316611593575b60243590613af7565b6115fe6115c16110ac6110ac6115b485600052610135602052604060002090565b546001600160a01b031690565b6040516320c18e6b60e21b81523360048201526024810184905290602090829060449082905afa908115611621575b600091611603575b50613928565b61158a565b61161b915060203d81116105cc576105be8183610d23565b386115f8565b6116296120fc565b6115f0565b503461000e57604036600319011261000e57602060ff61167960243561165381610471565b6004356000526065845260406000209060018060a01b0316600052602052604060002090565b54166040519015158152f35b503461000e57602036600319011261000e57600435600052610135602052602060018060a01b0360406000205416604051908152f35b6020908160408183019282815285518094520193019160005b8281106116e2575050505090565b83516001600160a01b0316855293810193928101926001016116d4565b503461000e57606036600319011261000e576004356024356044358181106117df575b600182820360011981116117d2575b019261173c846137b0565b9260409461174c86519586610d23565b80855261175b601f19916137b0565b019060209136838701375b8381111561177b57855180610ef087826116bb565b806117c86117af61179a6117cd948a600089815261013b8952206105f7565b905460039190911b1c6001600160a01b031690565b6117b983896137e7565b6001600160a01b039091169052565b6137d7565b611766565b6117da61260f565b611731565b6117e761260f565b611722565b503461000e57600036600319011261000e57602060405160008152f35b503461000e5761016036600319011261000e57611824610bda565b61182c610bed565b9060a4359161183a83610471565b60c4359261ffff8416840361000e5760e435600481101561000e576105a394611861611454565b9261186a611462565b94611873611479565b96604435602435600435612f06565b503461000e57602036600319011261000e5761012d546118b190610567906020906001600160a01b0316610520565b6105a360043561361f565b503461000e57604036600319011261000e576105a36118d9610bc7565b61012d546118f690610567906020906001600160a01b0316610520565b600435600090815261013460205260409020805463ffffffff60601b191660609290921b63ffffffff60601b16919091179055565b503461000e57602036600319011261000e57600435600052610134602052602063ffffffff60406000205460a01c16604051908152f35b503461000e57602036600319011261000e576004356000526101366020526020604060002054604051908152f35b503461000e5760a036600319011261000e576024356119ae81610471565b67ffffffffffffffff60643581811161000e576119cf903690600401610ff0565b608435939183851161000e573660238601121561000e57846004013593841161000e573660248560051b8701011161000e5760246105a395019260443590600435613ea8565b503461000e57604036600319011261000e576105a3602435600435611a3982610471565b806000526065602052611a53600160406000200154611d87565b611f47565b503461000e57604036600319011261000e576105a3602435611a7981610471565b61012d54611a9690610567906020906001600160a01b0316610520565b60043560009081526101356020526040902080546001600160a01b0319166001600160a01b03909216919091179055565b503461000e57604036600319011261000e576004356000526101386020526040600020602435600052602052602060ff604060002054166040519015158152f35b503461000e57600036600319011261000e57610131546040516001600160a01b039091168152602090f35b503461000e57602036600319011261000e576105a3600435611b5481610471565b61012d54611b7190610567906020906001600160a01b0316610520565b61013280546001600160a01b0319166001600160a01b03909216919091179055565b503461000e57604036600319011261000e576105a3600435611bb481610471565b61012d54611bd190610567906020906001600160a01b0316610520565b60243590614210565b503461000e57602036600319011261000e57600435600052610134602052602063ffffffff60406000205460401c16604051908152f35b503461000e57608036600319011261000e57600435611c2f81610471565b611d03602435611c3e81610471565b604435611c4a81610471565b611ce060643591611c5a83610471565b611c62612885565b9586611d48575b611c71612811565b611c8b60ff60005460081c16611c86816127b1565b6127b1565b60ff1960fb541660fb55611c9d612811565b61013080546001600160a01b039384166001600160a01b03199182161790915561012f805496841696821696909617909555610132805490951690821617909355565b61012d8054919092166001600160a01b03166001600160a01b0319909116179055565b611d0957005b611d1961ff001960005416600055565b604051600181527f7f26b83ff96e1f2b6a682f133852f6798a09c465da95921460cefb384740249890602090a1005b61010061ff00196000541617600055611c69565b503461000e57600036600319011261000e57610130546040516001600160a01b039091168152602090f35b600081815260656020908152604080832033845290915290205460ff1615611dac5750565b3390611db66120d2565b916030611dc284612659565b536078611dce8461266f565b5360295b60018111611e7357611e6f611e3a611e5786610535611dfa88611df589156126ba565b612705565b611e34604051958694611e34602087016017907f416363657373436f6e74726f6c3a206163636f756e742000000000000000000081520190565b90611ef7565b7001034b99036b4b9b9b4b733903937b6329607d1b815260110190565b60405162461bcd60e51b815291829160048301611f33565b0390fd5b9080600f611eb092166010811015611eb5575b6f181899199a1a9b1b9c1cb0b131b232b360811b901a611ea68487612680565b5360041c9161269f565b611dd2565b611ebd6105e0565b611e86565b918091926000905b828210611ee2575011611edb575050565b6000910152565b91508060209183015181860152018291611eca565b90611f0a60209282815194859201611ec2565b0190565b90602091611f2781518092818552858086019101611ec2565b601f01601f1916010190565b906020611f44928181520190611f0e565b90565b60008181526065602090815260408083206001600160a01b038616845290915290205460ff16611f75575050565b60008181526065602090815260408083206001600160a01b03861684529091529020805460ff1916905560405133926001600160a01b031691907ff6391f5c32d9c69d2a47ea670b442974b53935d1edc7fd64eb21e047a839171b90600090a4565b15611fde57565b60405162461bcd60e51b815260206004820152602c60248201527f46756e6374696f6e206d7573742062652063616c6c6564207468726f7567682060448201526b19195b1959d85d1958d85b1b60a21b6064820152608490fd5b1561203f57565b60405162461bcd60e51b815260206004820152602c60248201527f46756e6374696f6e206d7573742062652063616c6c6564207468726f7567682060448201526b6163746976652070726f787960a01b6064820152608490fd5b604051906000602083019280841067ffffffffffffffff8511176120c5575b8360405281815292369037565b6120cd610cb2565b6120b8565b604051906120df82610d07565b602a82526040366020840137565b9081602091031261000e575190565b506040513d6000823e3d90fd5b1561211057565b60405162461bcd60e51b815260206004820152602960248201527f45524331393637557067726164653a20756e737570706f727465642070726f786044820152681a58589b195555525160ba1b6064820152608490fd5b60809060208152602e60208201527f45524331393637557067726164653a206e657720696d706c656d656e7461746960408201526d6f6e206973206e6f74205555505360901b60608201520190565b906121e27f4910fdfa16fed3260ed0e7147f7cc6da11a60208b5b9406d12a635614ffd91435460ff1690565b156121f15750610d529061233c565b6040516352d1902d60e01b8152916020836004816001600160a01b0385165afa60009381612259575b506122385760405162461bcd60e51b815280611e6f60048201612167565b61225460008051602061435d833981519152610d529414612109565b6123cc565b61227291945060203d81116111b1576111a38183610d23565b923861221a565b906122a57f4910fdfa16fed3260ed0e7147f7cc6da11a60208b5b9406d12a635614ffd91435460ff1690565b156122b45750610d529061233c565b6040516352d1902d60e01b8152916020836004816001600160a01b0385165afa6000938161231c575b506122fb5760405162461bcd60e51b815280611e6f60048201612167565b61231760008051602061435d833981519152610d529414612109565b6124dc565b61233591945060203d81116111b1576111a38183610d23565b92386122dd565b803b156123715760008051602061435d83398151915280546001600160a01b0319166001600160a01b03909216919091179055565b60405162461bcd60e51b815260206004820152602d60248201527f455243313936373a206e657720696d706c656d656e746174696f6e206973206e60448201526c1bdd08184818dbdb9d1c9858dd609a1b6064820152608490fd5b906123d68261233c565b604051600092906001600160a01b0382167fbc7cd75a20ee27fd9adebab32041f755214dbc6bffa90cc0225b39da2e5c2d3b8583a28251158015906124d5575b612421575b50505050565b813b1561248457509180826124729460208395519201905af4903d1561247c573d61244b81610d54565b906124596040519283610d23565b8152809160203d92013e5b61246c612586565b916125cf565b503880808061241b565b506060612464565b62461bcd60e51b815260206004820152602660248201527f416464726573733a2064656c65676174652063616c6c20746f206e6f6e2d636f6044820152651b9d1c9858dd60d21b6064820152608490fd5b5083612416565b6124e58161233c565b6040516001600160a01b0382167fbc7cd75a20ee27fd9adebab32041f755214dbc6bffa90cc0225b39da2e5c2d3b600083a282511580159061257e575b61252b57505050565b813b1561248457506000828192602061257495519201905af43d15612577573d61255481610d54565b906125626040519283610d23565b81523d6000602083013e61246c612586565b50565b6060612464565b506001612522565b6040519061259382610d07565b60278252660819985a5b195960ca1b6040837f416464726573733a206c6f772d6c6576656c2064656c65676174652063616c6c60208201520152565b909190156125db575090565b8151156125eb5750805190602001fd5b60405162461bcd60e51b815260206004820152908190611e6f906024830190611f0e565b50634e487b7160e01b600052601160045260246000fd5b8060001904821181151516612639570290565b61264161260f565b0290565b81198111612651570190565b611f0a61260f565b602090805115612667570190565b611f0a6105e0565b602190805160011015612667570190565b90602091805182101561269257010190565b61269a6105e0565b010190565b80156126ad575b6000190190565b6126b561260f565b6126a6565b156126c157565b606460405162461bcd60e51b815260206004820152602060248201527f537472696e67733a20686578206c656e67746820696e73756666696369656e746044820152fd5b604051906080820182811067ffffffffffffffff8211176127a4575b604052604282526060366020840137603061273b83612659565b5360786127478361266f565b536041905b6001821161275f57611f449150156126ba565b80600f61279192166010811015612797575b6f181899199a1a9b1b9c1cb0b131b232b360811b901a611ea68486612680565b9061274c565b61279f6105e0565b612771565b6127ac610cb2565b612721565b156127b857565b60405162461bcd60e51b815260206004820152602b60248201527f496e697469616c697a61626c653a20636f6e7472616374206973206e6f74206960448201526a6e697469616c697a696e6760a81b6064820152608490fd5b610d5260ff60005460081c166127b1565b1561282957565b60405162461bcd60e51b815260206004820152602e60248201527f496e697469616c697a61626c653a20636f6e747261637420697320616c72656160448201526d191e481a5b9a5d1a585b1a5e995960921b6064820152608490fd5b60005460ff8160081c166000146128a757506128a2303b15612822565b600090565b806128b8600160ff81941610612822565b60ff191617600055600190565b601e91693937b6329730b236b4b760b11b82526bffffffffffffffffffffffff199060601b16600a8201520190565b9081602091031261000e5751611f448161144a565b1561291057565b60405162461bcd60e51b815260206004820152601060248201526f41646d696e2063616c6c73206f6e6c7960801b6044820152606490fd5b1561294f57565b60405162461bcd60e51b815260206004820152602360248201527f436c6f73652074696d65206d7573742062652061667465722073746172742074604482015262696d6560e81b6064820152608490fd5b60005261013460205260406000209063ffffffff91828154169283156129f257610d52936129d091841611612948565b9067ffffffff0000000082549160201b169067ffffffff000000001916179055565b60405162461bcd60e51b8152602060048201526014602482015273131bdd1d195c9e481a59081b9bdd08199bdd5b9960621b6044820152606490fd5b6001600160a01b03168015612a535761013180546001600160a01b0319169091179055565b60405162461bcd60e51b815260206004820152601d60248201527f436f6e7472616374732063616e6e6f74206265203020616464726573730000006044820152606490fd5b60048210156111fb5752565b906005612aaf610d45565b92612b5260ff8254612b4563ffffffff612ad18184168a9063ffffffff169052565b612ae9818460201c1660208b019063ffffffff169052565b612b01818460401c1660408b019063ffffffff169052565b612b19818460601c1660608b019063ffffffff169052565b612b31818460801c1660808b019063ffffffff169052565b8260a01c1660a089019063ffffffff169052565b60c01c1660c08601612a98565b60018101546001600160a01b03811660e086015260a01c60ff16151561010085015260028101546001600160801b03811661012086015260801c6101408501526003810154610160850152600481015461018085015201546101a0830152565b15612bb957565b60405162461bcd60e51b8152602060048201526011602482015270496e76616c6964207369676e617475726560781b6044820152606490fd5b611f4491612bff91612d92565b919091612c11565b600511156111e657565b612c1a81612c07565b80612c225750565b612c2b81612c07565b60018103612c785760405162461bcd60e51b815260206004820152601860248201527f45434453413a20696e76616c6964207369676e617475726500000000000000006044820152606490fd5b612c8181612c07565b60028103612cce5760405162461bcd60e51b815260206004820152601f60248201527f45434453413a20696e76616c6964207369676e6174757265206c656e677468006044820152606490fd5b612cd781612c07565b60038103612d2f5760405162461bcd60e51b815260206004820152602260248201527f45434453413a20696e76616c6964207369676e6174757265202773272076616c604482015261756560f01b6064820152608490fd5b80612d3b600492612c07565b14612d4257565b60405162461bcd60e51b815260206004820152602260248201527f45434453413a20696e76616c6964207369676e6174757265202776272076616c604482015261756560f01b6064820152608490fd5b815160418103612dbf575090612dbb916020820151906060604084015193015160001a90612e0d565b9091565b604003612e03578160406020612dbb9401519101519160ff601b84821c9481198611612df6575b600180841b031694011690612e0d565b612dfe61260f565b612de6565b5050600090600290565b9291907f7fffffffffffffffffffffffffffffff5d576e7357a4501ddfe92f46681b20a08311612eb75760ff16601b81141580612eac575b612ea0579160809493916020936040519384528484015260408301526060820152600093849182805260015afa15612e93575b81516001600160a01b03811615612e8d579190565b50600190565b612e9b6120fc565b612e78565b50505050600090600490565b50601c811415612e45565b50505050600090600390565b60405160208101917f19457468657265756d205369676e6564204d6573736167653a0a3332000000008352603c820152603c8152612f0081610d07565b51902090565b98969997949395929560018060a01b0361012d541696612f6b6040519860208a81809c0190612f398161053533856128c5565b519020602460405180948193633d70e7e560e11b835260048301525afa9081156130ff575b6000916130e85750612909565b8a600052610134885260406000209763ffffffff895416156130ab575061ffff8895613053956130719995612fe260029a9661308b9f9e9d61302c97612fc0919063ffffffff1663ffffffff19825416179055565b8a5467ffffffff00000000191660209190911b67ffffffff0000000016178a55565b600489015560058801556001870180546001600160a01b0319166001600160a01b03909516949094178455865463ffffffff60601b1916911660601b63ffffffff60601b16178555565b6130368b8561310c565b805460ff60a01b191691151560a01b60ff60a01b16919091179055565b019182906001600160801b03166001600160801b0319825416179055565b906001600160801b0382549181199060801b169116179055565b613094826111dc565b60008051602061433d8339815191526000604051a3565b6064906040519062461bcd60e51b825260048201526016602482015275131bdd1d195c9e48191bd95cc81b9bdd08195e1a5cdd60521b6044820152fd5b6105c691508a3d8c116105cc576105be8183610d23565b6131076120fc565b612f5e565b906004811015613131575b815460ff60c01b191660c09190911b60ff60c01b16179055565b6131396111c5565b613117565b9995939894929897909691976131a160018060a01b0361012d54166020604051818101906131708161053533856128c5565b519020602460405180948193633d70e7e560e11b835260048301525afa9081156105d3576000916105a55750612909565b63ffffffff8a8116906131b5821515613293565b8216116131c190612948565b6131ca8b6132d4565b6131d2610d45565b63ffffffff909a168a5263ffffffff1660208a0152600060408a015261ffff91821660608a01521663ffffffff166080880152600060a0880181905260c08801526001600160a01b031660e087015215156101008601526001600160801b03166101208501526001600160801b0316610140840152836101608401526101808301526101a082015261326f82600052610134602052604060002090565b906132799161337d565b6040519060008051602061433d83398151915260008093a3565b1561329a57565b60405162461bcd60e51b8152602060048201526012602482015271496e76616c69642073746172742074696d6560701b6044820152606490fd5b610133805490600160401b82101561332b575b6001820180825582101561331e575b6000527f92e985329fb94cc1b424ebb0f7f2929b6d27383ca94c0ec71c44fb48bdf96d2c0155565b6133266105e0565b6132f6565b613333610cb2565b6132e7565b805461335691600160401b821015613370575b6001820181556105f7565b819291549060031b600019811b9283911b16911916179055565b613378610cb2565b61334b565b906101a06005916133ab613395825163ffffffff1690565b855463ffffffff191663ffffffff909116178555565b6133e16133bf602083015163ffffffff1690565b855467ffffffff00000000191660209190911b67ffffffff0000000016178555565b61341a6133f5604083015163ffffffff1690565b85546bffffffff0000000000000000191660409190911b63ffffffff60401b16178555565b61344e61342e606083015163ffffffff1690565b855463ffffffff60601b191660609190911b63ffffffff60601b16178555565b613482613462608083015163ffffffff1690565b855463ffffffff60801b191660809190911b63ffffffff60801b16178555565b6134b661349660a083015163ffffffff1690565b855463ffffffff60a01b191660a09190911b63ffffffff60a01b16178555565b6134cd60c08201516134c7816111dc565b8561310c565b60e08101516001850180546101008401516001600160a01b039093166001600160a81b03199091161791151560a01b60ff60a01b16919091179055613572600285016135436135276101208501516001600160801b031690565b82546001600160801b0319166001600160801b03909116178255565b6101408301516001600160801b031681546001600160801b031660809190911b6001600160801b031916179055565b610160810151600385015561018081015160048501550151910155565b1561359657565b60405162461bcd60e51b8152602060048201526015602482015274131bdd1d195c9e481a5cc81b9bdd0818db1bdcd959605a1b6044820152606490fd5b156135da57565b60405162461bcd60e51b815260206004820152601760248201527f4c6f7474657279206d75737420626520636c6f736564210000000000000000006044820152606490fd5b613680600261367161363c84600052610134602052604060002090565b60ff81546136544263ffffffff8360201c161061358f565b60c01c16613661816111dc565b1561372e575b5460c01c60ff1690565b61367a816111dc565b146135d3565b610131546136d59061369a906001600160a01b03166110ac565b604051632cdc85e960e21b81526004810184905290602090829060249082906000905af1908115613721575b600091613703575b5061012e55565b61012e54907ff8cdf8355a0f31bbad8998a631f5a75dcb3e475a010b34a111ed105fe88e751a6000604051a3565b61371b915060203d81116111b1576111a38183610d23565b386136ce565b6137296120fc565b6136c6565b805460ff60c01b1916600160c11b178155805460c01c60ff16613750816111dc565b8560008051602061433d8339815191526000604051a3613667565b1561377257565b60405162461bcd60e51b8152602060048201526016602482015275131bdd1d195c9e481b5d5cdd0818994818db1bdcd95960521b6044820152606490fd5b60209067ffffffffffffffff81116137ca575b60051b0190565b6137d2610cb2565b6137c3565b6001906000198114612651570190565b60209181518110156137fc575b60051b010190565b6138046105e0565b6137f4565b80600052610134602052604060002080549063ffffffff8260401c1661384c5760ff60c01b19909116600160c01b179081905560c01c60ff1690613094826111dc565b60405162461bcd60e51b815260206004820152601760248201527f4c6f747465727920616c726561647920737461727465640000000000000000006044820152606490fd5b1561389857565b60405162461bcd60e51b815260206004820152601060248201526f14185d5cd8589b194e881c185d5cd95960821b6044820152606490fd5b90610d52916138e460ff60fb541615613891565b600081815261013560205260409020546001600160a01b031615613af7576139236115c16110ac6110ac6115b485600052610135602052604060002090565b613af7565b1561392f57565b60405162461bcd60e51b815260206004820152600f60248201526e139bdd081dda1a5d195b1a5cdd1959608a1b6044820152606490fd5b1561396d57565b60405162461bcd60e51b815260206004820152601060248201526f151a58dad95d1cc81cdbdb19081bdd5d60821b6044820152606490fd5b156139ac57565b606460405162461bcd60e51b815260206004820152602060248201527f43616e277420627579207468697320616d6f756e74206f66207469636b6574736044820152fd5b156139f757565b60405162461bcd60e51b81526020600482015260136024820152722637ba3a32b93c9034b9903737ba1037b832b760691b6044820152606490fd5b9063ffffffff8080931691168092038111612651570190565b60019063ffffffff809116908114612651570190565b90808203613a6d575050565b8054825461ffff191661ffff919091161782555462ff000060ff83549260101c16151560101b169062ff00001916179055565b9061ffff8080931691168092038111612651570190565b8054613ad491600160401b821015613370576001820181556105f7565b819291549060031b9160018060a01b039283811b93849216901b16911916179055565b613c1c613b0f82600052610134602052604060002090565b80549063ffffffff91828160601c1680613e17575b50613b50613b3d86600052610139602052604060002090565b3360009081526020919091526040902090565b92613b8b613b6a613b63865461ffff1690565b61ffff1690565b92828160801c1680613dfc575b504283821611159081613dec575b506139f0565b613b99600484015488612626565b80613ddb575b50613be5613bc56005850154928916613bc0865463ffffffff9060a01c1690565b613a32565b845463ffffffff60a01b191660a09190911b63ffffffff60a01b16178455565b80613d26575b5015613c94575b50613c0c61ffff8516613c07835461ffff1690565b613aa0565b61ffff1661ffff19825416179055565b613c318160005261013b602052604060002090565b60005b838110613c415750505050565b613c8f90613c4f3384613ab7565b8254847fc41bbb54d04f2268c7895b9330f18468c306a3f92698a92c4c86b2978739784860405180613c873395829190602083019252565b0390a36137d7565b613c34565b33600090815261013760205260409020613ce79190613cb4908690613338565b8054613cc89060401c63ffffffff16613a4b565b63ffffffff60401b82549160401b169063ffffffff60401b1916179055565b613d2081613d1b33613d0487600052610139602052604060002090565b9060018060a01b0316600052602052604060002090565b613a61565b38613bf2565b6020613d35613da09289612626565b61013054613d4b906001600160a01b03166110ac565b6001860154613d62906001600160a01b03166110ac565b6040516323b872dd60e01b81523360048201526001600160a01b03909116602482015260448101929092529092839190829060009082906064820190565b03925af18015613dce575b15613beb57613dc79060203d81116105cc576105be8183610d23565b5038613beb565b613dd66120fc565b613dab565b613de59033613e37565b5038613b9f565b905082429160201c161138613b85565b613e1190613e0a8b87612645565b11156139a5565b38613b77565b613e3190613e2a88868560a01c16612645565b1115613966565b38613b24565b61013254604051631e961d2760e01b81526001600160a01b039283166004820152602481019390935260209183916044918391600091165af1908115613e9b575b600091613e83575090565b611f44915060203d81116111b1576111a38183610d23565b613ea36120fc565b613e78565b94613f4290613f479294959397613ec460ff60fb541615613891565b613f05613f00613efc613ef58c613ee68d600052610138602052604060002090565b90600052602052604060002090565b5460ff1690565b1590565b61405b565b613f3d613f1e613f1636888b610d7f565b8b898c61417d565b92613f348a600052610136602052604060002090565b549236916140b1565b6141b5565b6140ff565b613f74613f6383613d0487600052610139602052604060002090565b805462ff0000191662010000179055565b613f9c6001613f8e86600052610134602052604060002090565b01546001600160a01b031690565b92613fc6613fb987613ee688600052610138602052604060002090565b805460ff19166001179055565b6001600160a01b0393841691823b1561000e57613fff9260009283604051809681958294633349e71f60e21b84528d8b60048601614142565b03925af1801561404e575b61403b575b5016907f4aa95f981a8337cb337de335b965507da0879c3b49f799d20058e913f5ad2c266000604051a4565b8061117161404892610cc9565b3861400f565b6140566120fc565b61400a565b1561406257565b60405162461bcd60e51b815260206004820152602160248201527f5061727469636970616e7420616c726561647920636c61696d6564207072697a6044820152606560f81b6064820152608490fd5b92916140bc826137b0565b916140ca6040519384610d23565b829481845260208094019160051b810192831161000e57905b8282106140f05750505050565b813581529083019083016140e3565b1561410657565b60405162461bcd60e51b815260206004820152601460248201527324b73b30b634b21036b2b935b63290383937b7b360611b6044820152606490fd5b9284926080959260018060a01b03168552602085015260606040850152816060850152848401376000828201840152601f01601f1916010190565b9290610535612f00926040519485936020850197885260018060a01b03166040850152606084015260808084015260a0830190611f0e565b929091906000915b8451831015614208576141d083866137e7565b51908181116141f3576000526020526141ed6040600020926137d7565b916141bd565b906000526020526141ed6040600020926137d7565b915092501490565b6101305460405163a9059cbb60e01b81526001600160a01b039283166004820152602481019390935260209183916044918391600091165af1801561426e575b6142575750565b6125749060203d81116105cc576105be8183610d23565b6142766120fc565b614250565b600160fb5461428d60ff821615613891565b60ff19161760fb557f62e78cea01bee320cd4e420270b5ea74000d11b0c9f74754ebdbfc544b05a2586020604051338152a1565b60fb5460ff8116156143005760ff191660fb557f5db9ee0a495bf2e6ff9c91a7834c1ba4fdd244a5e8aa4e537bd38aeae4b073aa6020604051338152a1565b60405162461bcd60e51b815260206004820152601460248201527314185d5cd8589b194e881b9bdd081c185d5cd95960621b6044820152606490fdfea3aca9ae20a0379d4094b84c749cbed6584ab20f0b71af75f63f6615d879c939360894a13ba1a3210667c828492db98dca3e2076cc3735a920a3ca505d382bbca264697066735822122012a8a4adaa9f09ed5cbe86c15c42c7563ee9e92d58ea8af6aca4dc5963ca0bf364736f6c634300080e0033",
  "linkReferences": {},
  "deployedLinkReferences": {}
}