{
  "_format": "hh-sol-artifact-1",
  "contractName": "Lottery",
  "sourceName": "contracts/Lottery/Lottery.sol",
  "abi": [
    {
      "anonymous": false,
      "inputs": [
        {
          "indexed": false,
          "internalType": "address",
          "name": "previousAdmin",
          "type": "address"
        },
        {
          "indexed": false,
          "internalType": "address",
          "name": "newAdmin",
          "type": "address"
        }
      ],
      "name": "AdminChanged",
      "type": "event"
    },
    {
      "anonymous": false,
      "inputs": [
        {
          "indexed": true,
          "internalType": "address",
          "name": "beacon",
          "type": "address"
        }
      ],
      "name": "BeaconUpgraded",
      "type": "event"
    },
    {
      "anonymous": false,
      "inputs": [
        {
          "indexed": false,
          "internalType": "uint8",
          "name": "version",
          "type": "uint8"
        }
      ],
      "name": "Initialized",
      "type": "event"
    },
    {
      "anonymous": false,
      "inputs": [
        {
          "indexed": true,
          "internalType": "uint256",
          "name": "lotteryId",
          "type": "uint256"
        },
        {
          "indexed": false,
          "internalType": "uint256",
          "name": "numberOfPrizes",
          "type": "uint256"
        }
      ],
      "name": "LotteryPrizesCountChanged",
      "type": "event"
    },
    {
      "anonymous": false,
      "inputs": [
        {
          "indexed": true,
          "internalType": "uint256",
          "name": "lotteryId",
          "type": "uint256"
        },
        {
          "indexed": true,
          "internalType": "enum Lottery.Status",
          "name": "status",
          "type": "uint8"
        }
      ],
      "name": "LotteryStatusChanged",
      "type": "event"
    },
    {
      "anonymous": false,
      "inputs": [
        {
          "indexed": false,
          "internalType": "address",
          "name": "account",
          "type": "address"
        }
      ],
      "name": "Paused",
      "type": "event"
    },
    {
      "anonymous": false,
      "inputs": [
        {
          "indexed": true,
          "internalType": "uint256",
          "name": "lotteryId",
          "type": "uint256"
        },
        {
          "indexed": true,
          "internalType": "address",
          "name": "participantAddress",
          "type": "address"
        },
        {
          "indexed": true,
          "internalType": "uint256",
          "name": "prizeId",
          "type": "uint256"
        }
      ],
      "name": "PrizeClaimed",
      "type": "event"
    },
    {
      "anonymous": false,
      "inputs": [
        {
          "indexed": true,
          "internalType": "uint256",
          "name": "lotteryId",
          "type": "uint256"
        },
        {
          "indexed": true,
          "internalType": "address",
          "name": "participantAddress",
          "type": "address"
        },
        {
          "indexed": false,
          "internalType": "uint256",
          "name": "refundAmount",
          "type": "uint256"
        }
      ],
      "name": "Refunded",
      "type": "event"
    },
    {
      "anonymous": false,
      "inputs": [
        {
          "indexed": true,
          "internalType": "uint256",
          "name": "lotteryId",
          "type": "uint256"
        },
        {
          "indexed": true,
          "internalType": "bytes32",
          "name": "requestId",
          "type": "bytes32"
        }
      ],
      "name": "RequestNumbers",
      "type": "event"
    },
    {
      "anonymous": false,
      "inputs": [
        {
          "indexed": true,
          "internalType": "bytes32",
          "name": "requestId",
          "type": "bytes32"
        }
      ],
      "name": "ResponseReceived",
      "type": "event"
    },
    {
      "anonymous": false,
      "inputs": [
        {
          "indexed": true,
          "internalType": "bytes32",
          "name": "role",
          "type": "bytes32"
        },
        {
          "indexed": true,
          "internalType": "bytes32",
          "name": "previousAdminRole",
          "type": "bytes32"
        },
        {
          "indexed": true,
          "internalType": "bytes32",
          "name": "newAdminRole",
          "type": "bytes32"
        }
      ],
      "name": "RoleAdminChanged",
      "type": "event"
    },
    {
      "anonymous": false,
      "inputs": [
        {
          "indexed": true,
          "internalType": "bytes32",
          "name": "role",
          "type": "bytes32"
        },
        {
          "indexed": true,
          "internalType": "address",
          "name": "account",
          "type": "address"
        },
        {
          "indexed": true,
          "internalType": "address",
          "name": "sender",
          "type": "address"
        }
      ],
      "name": "RoleGranted",
      "type": "event"
    },
    {
      "anonymous": false,
      "inputs": [
        {
          "indexed": true,
          "internalType": "bytes32",
          "name": "role",
          "type": "bytes32"
        },
        {
          "indexed": true,
          "internalType": "address",
          "name": "account",
          "type": "address"
        },
        {
          "indexed": true,
          "internalType": "address",
          "name": "sender",
          "type": "address"
        }
      ],
      "name": "RoleRevoked",
      "type": "event"
    },
    {
      "anonymous": false,
      "inputs": [
        {
          "indexed": false,
          "internalType": "address",
          "name": "operator",
          "type": "address"
        },
        {
          "indexed": false,
          "internalType": "uint256",
          "name": "lotteryId",
          "type": "uint256"
        },
        {
          "indexed": false,
          "internalType": "uint256",
          "name": "priceOfTicket",
          "type": "uint256"
        }
      ],
      "name": "TicketCostChanged",
      "type": "event"
    },
    {
      "anonymous": false,
      "inputs": [
        {
          "indexed": true,
          "internalType": "uint256",
          "name": "lotteryId",
          "type": "uint256"
        },
        {
          "indexed": false,
          "internalType": "uint256",
          "name": "ticketNumber",
          "type": "uint256"
        },
        {
          "indexed": true,
          "internalType": "address",
          "name": "participantAddress",
          "type": "address"
        }
      ],
      "name": "TicketSold",
      "type": "event"
    },
    {
      "anonymous": false,
      "inputs": [
        {
          "indexed": false,
          "internalType": "address",
          "name": "account",
          "type": "address"
        }
      ],
      "name": "Unpaused",
      "type": "event"
    },
    {
      "anonymous": false,
      "inputs": [
        {
          "indexed": true,
          "internalType": "address",
          "name": "implementation",
          "type": "address"
        }
      ],
      "name": "Upgraded",
      "type": "event"
    },
    {
      "inputs": [],
      "name": "DEFAULT_ADMIN_ROLE",
      "outputs": [
        {
          "internalType": "bytes32",
          "name": "",
          "type": "bytes32"
        }
      ],
      "stateMutability": "view",
      "type": "function"
    },
    {
      "inputs": [
        {
          "internalType": "uint256",
          "name": "_lotteryId",
          "type": "uint256"
        },
        {
          "internalType": "uint256[]",
          "name": "_prizeIds",
          "type": "uint256[]"
        },
        {
          "internalType": "uint16[]",
          "name": "_prizeAmounts",
          "type": "uint16[]"
        }
      ],
      "name": "addPrizes",
      "outputs": [],
      "stateMutability": "nonpayable",
      "type": "function"
    },
    {
      "inputs": [
        {
          "internalType": "uint256",
          "name": "_lotteryId",
          "type": "uint256"
        }
      ],
      "name": "askForRefund",
      "outputs": [],
      "stateMutability": "nonpayable",
      "type": "function"
    },
    {
      "inputs": [
        {
          "internalType": "uint256",
          "name": "_lotteryId",
          "type": "uint256"
        },
        {
          "internalType": "uint256",
          "name": "_numberOfTicketsToBuy",
          "type": "uint256"
        }
      ],
      "name": "buyTickets",
      "outputs": [],
      "stateMutability": "nonpayable",
      "type": "function"
    },
    {
      "inputs": [
        {
          "internalType": "uint256",
          "name": "_points",
          "type": "uint256"
        },
        {
          "internalType": "uint256",
          "name": "_lotteryId",
          "type": "uint256"
        },
        {
          "internalType": "uint256",
          "name": "_numberOfTicketsToBuy",
          "type": "uint256"
        },
        {
          "internalType": "bytes",
          "name": "_sig",
          "type": "bytes"
        }
      ],
      "name": "buyTicketsWithSignedMessage",
      "outputs": [],
      "stateMutability": "nonpayable",
      "type": "function"
    },
    {
      "inputs": [
        {
          "internalType": "uint256",
          "name": "_lotteryId",
          "type": "uint256"
        }
      ],
      "name": "cancelLottery",
      "outputs": [],
      "stateMutability": "nonpayable",
      "type": "function"
    },
    {
      "inputs": [
        {
          "internalType": "uint256",
          "name": "_lotteryId",
          "type": "uint256"
        },
        {
          "internalType": "uint32",
          "name": "_time",
          "type": "uint32"
        }
      ],
      "name": "changeCloseTime",
      "outputs": [],
      "stateMutability": "nonpayable",
      "type": "function"
    },
    {
      "inputs": [
        {
          "internalType": "uint256",
          "name": "_lotteryId",
          "type": "uint256"
        },
        {
          "internalType": "address",
          "name": "_winner",
          "type": "address"
        },
        {
          "internalType": "uint256",
          "name": "_prizeId",
          "type": "uint256"
        },
        {
          "internalType": "uint256",
          "name": "_ticketNumber",
          "type": "uint256"
        },
        {
          "internalType": "bytes32[]",
          "name": "_proof",
          "type": "bytes32[]"
        }
      ],
      "name": "claimPrize",
      "outputs": [],
      "stateMutability": "nonpayable",
      "type": "function"
    },
    {
      "inputs": [
        {
          "internalType": "uint256",
          "name": "",
          "type": "uint256"
        },
        {
          "internalType": "uint256",
          "name": "",
          "type": "uint256"
        }
      ],
      "name": "claimedPrizes",
      "outputs": [
        {
          "internalType": "bool",
          "name": "",
          "type": "bool"
        }
      ],
      "stateMutability": "view",
      "type": "function"
    },
    {
      "inputs": [
        {
          "internalType": "uint256",
          "name": "_lotteryId",
          "type": "uint256"
        },
        {
          "internalType": "uint256",
          "name": "_collectionId",
          "type": "uint256"
        },
        {
          "internalType": "uint256",
          "name": "_ticketCostPoints",
          "type": "uint256"
        },
        {
          "internalType": "uint256",
          "name": "_ticketCostTokens",
          "type": "uint256"
        },
        {
          "internalType": "uint32",
          "name": "_startTime",
          "type": "uint32"
        },
        {
          "internalType": "uint32",
          "name": "_closeTime",
          "type": "uint32"
        },
        {
          "internalType": "contract INFT",
          "name": "_nftContract",
          "type": "address"
        },
        {
          "internalType": "bool",
          "name": "_isRefundable",
          "type": "bool"
        },
        {
          "internalType": "uint256",
          "name": "_defaultPrizeId",
          "type": "uint256"
        },
        {
          "internalType": "uint16",
          "name": "_maxTickets",
          "type": "uint16"
        },
        {
          "internalType": "uint16",
          "name": "_maxTicketsPerUser",
          "type": "uint16"
        }
      ],
      "name": "createLottery",
      "outputs": [],
      "stateMutability": "nonpayable",
      "type": "function"
    },
    {
      "inputs": [],
      "name": "getLotteryCount",
      "outputs": [
        {
          "internalType": "uint256",
          "name": "",
          "type": "uint256"
        }
      ],
      "stateMutability": "view",
      "type": "function"
    },
    {
      "inputs": [
        {
          "internalType": "uint256",
          "name": "_lotteryId",
          "type": "uint256"
        }
      ],
      "name": "getLotteryInfo",
      "outputs": [
        {
          "components": [
            {
              "internalType": "uint32",
              "name": "startTime",
              "type": "uint32"
            },
            {
              "internalType": "uint32",
              "name": "closeTime",
              "type": "uint32"
            },
            {
              "internalType": "uint32",
              "name": "participantsCount",
              "type": "uint32"
            },
            {
              "internalType": "uint32",
              "name": "maxTickets",
              "type": "uint32"
            },
            {
              "internalType": "uint32",
              "name": "maxTicketsPerUser",
              "type": "uint32"
            },
            {
              "internalType": "uint32",
              "name": "numberOfTicketsSold",
              "type": "uint32"
            },
            {
              "internalType": "enum Lottery.Status",
              "name": "status",
              "type": "uint8"
            },
            {
              "internalType": "contract INFT",
              "name": "nftContract",
              "type": "address"
            },
            {
              "internalType": "bool",
              "name": "isRefundable",
              "type": "bool"
            },
            {
              "internalType": "uint256",
              "name": "lotteryID",
              "type": "uint256"
            },
            {
              "internalType": "uint256",
              "name": "dropId",
              "type": "uint256"
            },
            {
              "internalType": "uint256",
              "name": "ticketCostPoints",
              "type": "uint256"
            },
            {
              "internalType": "uint256",
              "name": "ticketCostTokens",
              "type": "uint256"
            },
            {
              "internalType": "uint256",
              "name": "defaultPrizeId",
              "type": "uint256"
            }
          ],
          "internalType": "struct Lottery.LotteryInfo",
          "name": "",
          "type": "tuple"
        }
      ],
      "stateMutability": "view",
      "type": "function"
    },
    {
      "inputs": [
        {
          "internalType": "uint256",
          "name": "_lotteryId",
          "type": "uint256"
        }
      ],
      "name": "getLotteryTicketCount",
      "outputs": [
        {
          "internalType": "uint256",
          "name": "",
          "type": "uint256"
        }
      ],
      "stateMutability": "view",
      "type": "function"
    },
    {
      "inputs": [
        {
          "internalType": "uint256",
          "name": "_lotteryId",
          "type": "uint256"
        },
        {
          "internalType": "uint256",
          "name": "_from",
          "type": "uint256"
        },
        {
          "internalType": "uint256",
          "name": "_to",
          "type": "uint256"
        }
      ],
      "name": "getLotteryTickets",
      "outputs": [
        {
          "components": [
            {
              "internalType": "uint256",
              "name": "ticketCostInCoins",
              "type": "uint256"
            },
            {
              "internalType": "address",
              "name": "owner",
              "type": "address"
            }
          ],
          "internalType": "struct Lottery.Ticket[]",
          "name": "",
          "type": "tuple[]"
        }
      ],
      "stateMutability": "view",
      "type": "function"
    },
    {
      "inputs": [
        {
          "internalType": "address",
          "name": "_participant",
          "type": "address"
        }
      ],
      "name": "getParticipantHistory",
      "outputs": [
        {
          "internalType": "uint256[]",
          "name": "",
          "type": "uint256[]"
        }
      ],
      "stateMutability": "view",
      "type": "function"
    },
    {
      "inputs": [
        {
          "internalType": "uint256",
          "name": "_lotteryId",
          "type": "uint256"
        }
      ],
      "name": "getParticipantsCount",
      "outputs": [
        {
          "internalType": "uint32",
          "name": "",
          "type": "uint32"
        }
      ],
      "stateMutability": "view",
      "type": "function"
    },
    {
      "inputs": [
        {
          "internalType": "uint256",
          "name": "_lotteryId",
          "type": "uint256"
        }
      ],
      "name": "getPrizes",
      "outputs": [
        {
          "components": [
            {
              "internalType": "uint256",
              "name": "prizeId",
              "type": "uint256"
            },
            {
              "internalType": "uint16",
              "name": "numberOfEditions",
              "type": "uint16"
            }
          ],
          "internalType": "struct Lottery.PrizeInfo[]",
          "name": "",
          "type": "tuple[]"
        }
      ],
      "stateMutability": "view",
      "type": "function"
    },
    {
      "inputs": [
        {
          "internalType": "uint256",
          "name": "_lotteryId",
          "type": "uint256"
        },
        {
          "internalType": "address",
          "name": "_user",
          "type": "address"
        }
      ],
      "name": "getRefundableCoinBalance",
      "outputs": [
        {
          "internalType": "uint256",
          "name": "",
          "type": "uint256"
        }
      ],
      "stateMutability": "view",
      "type": "function"
    },
    {
      "inputs": [
        {
          "internalType": "bytes32",
          "name": "role",
          "type": "bytes32"
        }
      ],
      "name": "getRoleAdmin",
      "outputs": [
        {
          "internalType": "bytes32",
          "name": "",
          "type": "bytes32"
        }
      ],
      "stateMutability": "view",
      "type": "function"
    },
    {
      "inputs": [
        {
          "internalType": "uint256",
          "name": "_lotteryId",
          "type": "uint256"
        },
        {
          "internalType": "address",
          "name": "_user",
          "type": "address"
        }
      ],
      "name": "getTicketCountPerUser",
      "outputs": [
        {
          "internalType": "uint256",
          "name": "",
          "type": "uint256"
        }
      ],
      "stateMutability": "view",
      "type": "function"
    },
    {
      "inputs": [
        {
          "internalType": "uint256",
          "name": "_lotteryId",
          "type": "uint256"
        }
      ],
      "name": "getWhitelist",
      "outputs": [
        {
          "internalType": "address",
          "name": "",
          "type": "address"
        }
      ],
      "stateMutability": "view",
      "type": "function"
    },
    {
      "inputs": [
        {
          "internalType": "bytes32",
          "name": "role",
          "type": "bytes32"
        },
        {
          "internalType": "address",
          "name": "account",
          "type": "address"
        }
      ],
      "name": "grantRole",
      "outputs": [],
      "stateMutability": "nonpayable",
      "type": "function"
    },
    {
      "inputs": [
        {
          "internalType": "bytes32",
          "name": "role",
          "type": "bytes32"
        },
        {
          "internalType": "address",
          "name": "account",
          "type": "address"
        }
      ],
      "name": "hasRole",
      "outputs": [
        {
          "internalType": "bool",
          "name": "",
          "type": "bool"
        }
      ],
      "stateMutability": "view",
      "type": "function"
    },
    {
      "inputs": [
        {
          "internalType": "address",
          "name": "_rewardsContract",
          "type": "address"
        },
        {
          "internalType": "address",
          "name": "_admin",
          "type": "address"
        },
        {
          "internalType": "address",
          "name": "_token",
          "type": "address"
        }
      ],
      "name": "initialize",
      "outputs": [],
      "stateMutability": "nonpayable",
      "type": "function"
    },
    {
      "inputs": [
        {
          "internalType": "uint256",
          "name": "",
          "type": "uint256"
        }
      ],
      "name": "lotteries",
      "outputs": [
        {
          "internalType": "uint256",
          "name": "",
          "type": "uint256"
        }
      ],
      "stateMutability": "view",
      "type": "function"
    },
    {
      "inputs": [
        {
          "internalType": "uint256",
          "name": "",
          "type": "uint256"
        },
        {
          "internalType": "uint256",
          "name": "",
          "type": "uint256"
        }
      ],
      "name": "lotteryTickets",
      "outputs": [
        {
          "internalType": "uint256",
          "name": "ticketCostInCoins",
          "type": "uint256"
        },
        {
          "internalType": "address",
          "name": "owner",
          "type": "address"
        }
      ],
      "stateMutability": "view",
      "type": "function"
    },
    {
      "inputs": [
        {
          "internalType": "uint256",
          "name": "",
          "type": "uint256"
        },
        {
          "internalType": "address",
          "name": "",
          "type": "address"
        }
      ],
      "name": "participants",
      "outputs": [
        {
          "internalType": "uint16",
          "name": "totalTicketsBought",
          "type": "uint16"
        },
        {
          "internalType": "bool",
          "name": "claimedPrize",
          "type": "bool"
        },
        {
          "internalType": "uint256",
          "name": "refundablePoints",
          "type": "uint256"
        },
        {
          "internalType": "uint256",
          "name": "refundableValue",
          "type": "uint256"
        }
      ],
      "stateMutability": "view",
      "type": "function"
    },
    {
      "inputs": [],
      "name": "pause",
      "outputs": [],
      "stateMutability": "nonpayable",
      "type": "function"
    },
    {
      "inputs": [],
      "name": "paused",
      "outputs": [
        {
          "internalType": "bool",
          "name": "",
          "type": "bool"
        }
      ],
      "stateMutability": "view",
      "type": "function"
    },
    {
      "inputs": [
        {
          "internalType": "uint256",
          "name": "_lotteryId",
          "type": "uint256"
        },
        {
          "internalType": "uint256",
          "name": "_ticketNumber",
          "type": "uint256"
        }
      ],
      "name": "prizeClaimed",
      "outputs": [
        {
          "internalType": "bool",
          "name": "",
          "type": "bool"
        }
      ],
      "stateMutability": "view",
      "type": "function"
    },
    {
      "inputs": [
        {
          "internalType": "uint256",
          "name": "",
          "type": "uint256"
        }
      ],
      "name": "prizeMerkleRoots",
      "outputs": [
        {
          "internalType": "bytes32",
          "name": "",
          "type": "bytes32"
        }
      ],
      "stateMutability": "view",
      "type": "function"
    },
    {
      "inputs": [
        {
          "internalType": "uint256",
          "name": "",
          "type": "uint256"
        },
        {
          "internalType": "uint256",
          "name": "",
          "type": "uint256"
        }
      ],
      "name": "prizes",
      "outputs": [
        {
          "internalType": "uint256",
          "name": "prizeId",
          "type": "uint256"
        },
        {
          "internalType": "uint16",
          "name": "numberOfEditions",
          "type": "uint16"
        }
      ],
      "stateMutability": "view",
      "type": "function"
    },
    {
      "inputs": [],
      "name": "proxiableUUID",
      "outputs": [
        {
          "internalType": "bytes32",
          "name": "",
          "type": "bytes32"
        }
      ],
      "stateMutability": "view",
      "type": "function"
    },
    {
      "inputs": [],
      "name": "randomGenerator",
      "outputs": [
        {
          "internalType": "contract IRandomNumberGenerator",
          "name": "",
          "type": "address"
        }
      ],
      "stateMutability": "view",
      "type": "function"
    },
    {
      "inputs": [
        {
          "internalType": "uint256",
          "name": "",
          "type": "uint256"
        }
      ],
      "name": "randomSeeds",
      "outputs": [
        {
          "internalType": "uint256",
          "name": "",
          "type": "uint256"
        }
      ],
      "stateMutability": "view",
      "type": "function"
    },
    {
      "inputs": [
        {
          "internalType": "uint256",
          "name": "_lotteryId",
          "type": "uint256"
        },
        {
          "internalType": "bytes32",
          "name": "_requestId",
          "type": "bytes32"
        },
        {
          "internalType": "uint256",
          "name": "_randomNumber",
          "type": "uint256"
        }
      ],
      "name": "receiveRandomNumber",
      "outputs": [],
      "stateMutability": "nonpayable",
      "type": "function"
    },
    {
      "inputs": [
        {
          "internalType": "uint256",
          "name": "_lotteryId",
          "type": "uint256"
        },
        {
          "internalType": "uint256",
          "name": "_index",
          "type": "uint256"
        }
      ],
      "name": "removePrize",
      "outputs": [],
      "stateMutability": "nonpayable",
      "type": "function"
    },
    {
      "inputs": [
        {
          "internalType": "bytes32",
          "name": "role",
          "type": "bytes32"
        },
        {
          "internalType": "address",
          "name": "account",
          "type": "address"
        }
      ],
      "name": "renounceRole",
      "outputs": [],
      "stateMutability": "nonpayable",
      "type": "function"
    },
    {
      "inputs": [
        {
          "internalType": "uint256",
          "name": "_lotteryId",
          "type": "uint256"
        }
      ],
      "name": "requestRandomNumber",
      "outputs": [],
      "stateMutability": "nonpayable",
      "type": "function"
    },
    {
      "inputs": [
        {
          "internalType": "bytes32",
          "name": "role",
          "type": "bytes32"
        },
        {
          "internalType": "address",
          "name": "account",
          "type": "address"
        }
      ],
      "name": "revokeRole",
      "outputs": [],
      "stateMutability": "nonpayable",
      "type": "function"
    },
    {
      "inputs": [],
      "name": "rewardsContract",
      "outputs": [
        {
          "internalType": "contract IRewards",
          "name": "",
          "type": "address"
        }
      ],
      "stateMutability": "view",
      "type": "function"
    },
    {
      "inputs": [
        {
          "internalType": "uint256",
          "name": "_lotteryId",
          "type": "uint256"
        },
        {
          "internalType": "uint32",
          "name": "_maxTickets",
          "type": "uint32"
        }
      ],
      "name": "setMaxTickets",
      "outputs": [],
      "stateMutability": "nonpayable",
      "type": "function"
    },
    {
      "inputs": [
        {
          "internalType": "uint256",
          "name": "_lotteryId",
          "type": "uint256"
        },
        {
          "internalType": "uint32",
          "name": "_maxTicketsPerUser",
          "type": "uint32"
        }
      ],
      "name": "setMaxTicketsPerUser",
      "outputs": [],
      "stateMutability": "nonpayable",
      "type": "function"
    },
    {
      "inputs": [
        {
          "internalType": "uint256",
          "name": "_lotteryId",
          "type": "uint256"
        },
        {
          "internalType": "bytes32",
          "name": "_root",
          "type": "bytes32"
        }
      ],
      "name": "setPrizeMerkleRoot",
      "outputs": [],
      "stateMutability": "nonpayable",
      "type": "function"
    },
    {
      "inputs": [
        {
          "internalType": "address",
          "name": "_IRandomNumberGenerator",
          "type": "address"
        }
      ],
      "name": "setRandomGenerator",
      "outputs": [],
      "stateMutability": "nonpayable",
      "type": "function"
    },
    {
      "inputs": [
        {
          "internalType": "address",
          "name": "_rewardsContract",
          "type": "address"
        }
      ],
      "name": "setRewardsContract",
      "outputs": [],
      "stateMutability": "nonpayable",
      "type": "function"
    },
    {
      "inputs": [
        {
          "internalType": "address",
          "name": "_signer",
          "type": "address"
        }
      ],
      "name": "setSignerAddress",
      "outputs": [],
      "stateMutability": "nonpayable",
      "type": "function"
    },
    {
      "inputs": [
        {
          "internalType": "address",
          "name": "_token",
          "type": "address"
        }
      ],
      "name": "setToken",
      "outputs": [],
      "stateMutability": "nonpayable",
      "type": "function"
    },
    {
      "inputs": [
        {
          "internalType": "uint256",
          "name": "_lotteryId",
          "type": "uint256"
        },
        {
          "internalType": "address",
          "name": "_whitelist",
          "type": "address"
        }
      ],
      "name": "setWhitelist",
      "outputs": [],
      "stateMutability": "nonpayable",
      "type": "function"
    },
    {
      "inputs": [],
      "name": "signerAddress",
      "outputs": [
        {
          "internalType": "address",
          "name": "",
          "type": "address"
        }
      ],
      "stateMutability": "view",
      "type": "function"
    },
    {
      "inputs": [
        {
          "internalType": "bytes4",
          "name": "interfaceId",
          "type": "bytes4"
        }
      ],
      "name": "supportsInterface",
      "outputs": [
        {
          "internalType": "bool",
          "name": "",
          "type": "bool"
        }
      ],
      "stateMutability": "view",
      "type": "function"
    },
    {
      "inputs": [],
      "name": "token",
      "outputs": [
        {
          "internalType": "contract IERC20",
          "name": "",
          "type": "address"
        }
      ],
      "stateMutability": "view",
      "type": "function"
    },
    {
      "inputs": [],
      "name": "unpause",
      "outputs": [],
      "stateMutability": "nonpayable",
      "type": "function"
    },
    {
      "inputs": [
        {
          "internalType": "uint256",
          "name": "lotteryId",
          "type": "uint256"
        },
        {
          "internalType": "uint256",
          "name": "_ticketCostPoints",
          "type": "uint256"
        },
        {
          "internalType": "uint256",
          "name": "_ticketCostTokens",
          "type": "uint256"
        },
        {
          "internalType": "uint32",
          "name": "_startTime",
          "type": "uint32"
        },
        {
          "internalType": "uint32",
          "name": "_closeTime",
          "type": "uint32"
        },
        {
          "internalType": "contract INFT",
          "name": "_nftContract",
          "type": "address"
        },
        {
          "internalType": "uint16",
          "name": "_maxTickets",
          "type": "uint16"
        },
        {
          "internalType": "uint256",
          "name": "_defaultPrizeId",
          "type": "uint256"
        },
        {
          "internalType": "enum Lottery.Status",
          "name": "_status",
          "type": "uint8"
        },
        {
          "internalType": "bool",
          "name": "_isRefundable",
          "type": "bool"
        }
      ],
      "name": "updateLottery",
      "outputs": [],
      "stateMutability": "nonpayable",
      "type": "function"
    },
    {
      "inputs": [
        {
          "internalType": "address",
          "name": "newImplementation",
          "type": "address"
        }
      ],
      "name": "upgradeTo",
      "outputs": [],
      "stateMutability": "nonpayable",
      "type": "function"
    },
    {
      "inputs": [
        {
          "internalType": "address",
          "name": "newImplementation",
          "type": "address"
        },
        {
          "internalType": "bytes",
          "name": "data",
          "type": "bytes"
        }
      ],
      "name": "upgradeToAndCall",
      "outputs": [],
      "stateMutability": "payable",
      "type": "function"
    },
    {
      "inputs": [
        {
          "internalType": "uint256",
          "name": "",
          "type": "uint256"
        }
      ],
      "name": "whitelists",
      "outputs": [
        {
          "internalType": "address",
          "name": "",
          "type": "address"
        }
      ],
      "stateMutability": "view",
      "type": "function"
    },
    {
      "inputs": [
        {
          "internalType": "address",
          "name": "_to",
          "type": "address"
        },
        {
          "internalType": "uint256",
          "name": "_amount",
          "type": "uint256"
        }
      ],
      "name": "withdraw",
      "outputs": [],
      "stateMutability": "nonpayable",
      "type": "function"
    },
    {
      "inputs": [
        {
          "internalType": "uint256",
          "name": "",
          "type": "uint256"
        }
      ],
      "name": "withdrawals",
      "outputs": [
        {
          "internalType": "uint256",
          "name": "",
          "type": "uint256"
        }
      ],
      "stateMutability": "view",
      "type": "function"
    }
  ],
  "bytecode": "0x60a080604052346100315730608052614e2190816100378239608051818181610bc70152818161123801526112f90152f35b600080fdfe60806040526004361015610013575b600080fd5b60003560e01c806301ffc9a7146104a657806302e060c61461049d578063046dc166146104945780631398e0761461048b578063144fa6d714610482578063220cce97146104795780632368040014610470578063248a9ca314610467578063289906831461045e5780632c75d03e146104555780632f2ff15d1461044c5780632f9aa1fe1461044357806336568abe1461043a5780633659cfe61461043157806338e71f67146104285780633f4ba83a1461041f57806340cf23d9146104165780634538f2971461040d57806349c0de88146104045780634a004467146103fb5780634bc19fee146103f25780634f1ef286146103e957806350612da6146103e057806352d1902d146103d75780635b7633d0146103ce5780635c975abb146103c55780635cc07076146103bc5780636131dee6146103b35780636a55e2ae146103aa5780636a6be315146103a15780636cf64a33146103985780636e55ce1d1461038f5780637350ab2c1461038657806376b3c8a81461037d57806378a03c47146103745780638456cb591461036b5780638627df461461036257806391834cf41461035957806391d148541461035057806396db752a146103475780639b7fecc31461033e578063a217fddf14610335578063b1eb96c91461032c578063bf4002b214610323578063c0c53b8b1461031a578063c11ab61514610311578063cc30779514610308578063d098a2f0146102ff578063d547741f146102f6578063d89da286146102ed578063db2c0fd1146102b7578063dcbad90d146102e4578063dfa0dfa5146102db578063ec909ce2146102d2578063f3fef3a3146102c9578063f5f48998146102c0578063f90328d5146102b7578063fc0c546a146102ae5763fe4d5add146102a657600080fd5b61000e611e65565b5061000e6128f1565b5061000e612553565b5061000e6128ba565b5061000e6127ff565b5061000e612627565b5061000e6125bf565b5061000e612594565b5061000e6124d9565b5061000e612496565b5061000e612468565b5061000e6123d8565b5061000e612353565b5061000e61221a565b5061000e6121a0565b5061000e61200e565b5061000e611ff1565b5061000e611eee565b5061000e611e65565b5061000e611e0e565b5061000e611d08565b5061000e611c03565b5061000e611b82565b5061000e611afa565b5061000e611a1b565b5061000e6118b3565b5061000e611860565b5061000e6115aa565b5061000e6114d6565b5061000e61145f565b5061000e61142c565b5061000e6113fe565b5061000e6113da565b5061000e6113af565b5061000e6112e5565b5061000e611293565b5061000e6111dd565b5061000e611006565b5061000e610f87565b5061000e610f2e565b5061000e610e2e565b5061000e610dd7565b5061000e610d1e565b5061000e610ca4565b5061000e610b99565b5061000e610b00565b5061000e610ae0565b5061000e610a0f565b5061000e6108a8565b5061000e61075c565b5061000e61072c565b5061000e6106fe565b5061000e6106d3565b5061000e610660565b5061000e61060d565b5061000e61058b565b5061000e61050e565b503461000e57602036600319011261000e5760043563ffffffff60e01b811680910361000e57602090637965db0b60e01b81149081156104ec575b506040519015158152f35b6301ffc9a760e01b149050386104e1565b6001600160a01b0381160361000e57565b503461000e57604036600319011261000e576080610559602435610531816104fd565b60043560005261013960205260406000209060018060a01b0316600052602052604060002090565b805490600260018201549101549060ff6040519361ffff8116855260101c161515602084015260408301526060820152f35b503461000e57602036600319011261000e576004356105a9816104fd565b336000908152600080516020614d8c833981519152602052604090206105d49060ff905b54166134ae565b61012e80546001600160a01b0319166001600160a01b03909216919091179055005b50634e487b7160e01b600052603260045260246000fd5b503461000e57602036600319011261000e5760043561013290815481101561000e576020916000527fc53bdfd4aa1ab65dfdaf681ca6bda958ae4a123d4ed68c4277796592280e78350154604051908152f35b503461000e57602036600319011261000e5760043561067e816104fd565b336000908152600080516020614d8c833981519152602052604090206106a69060ff906105cd565b61012f80546001600160a01b0319166001600160a01b03909216919091179055005b600091031261000e57565b503461000e57600036600319011261000e57610131546040516001600160a01b039091168152602090f35b503461000e57602036600319011261000e5760043560005261013a6020526020604060002054604051908152f35b503461000e57602036600319011261000e5760043560005260656020526020600160406000200154604051908152f35b503461000e57606036600319011261000e5761013054600435906001600160a01b0316330361084057806000918252610133602052610812604083206107b5600260ff835460c01c166004811015610833575b146143a7565b6024357f8e372cc311d12a5394f598c3c41b36e9775c6cb51b99fde2aaca7978a8ec713f85604051a2805460ff60c01b1916600360c01b1781556044356108078460005261013a602052604060002090565b555460c01c60ff1690565b61081b81611926565b60405191600080516020614dac8339815191528484a3f35b61083b61190f565b6107af565b60405162461bcd60e51b815260206004820152601060248201526f4f6e6c7920524e47206164647265737360801b6044820152606490fd5b9181601f8401121561000e578235916001600160401b03831161000e576020808501948460051b01011161000e57565b503461000e57606036600319011261000e576001600160401b0360043560243582811161000e576108dd903690600401610878565b909260443590811161000e576108f7903690600401610878565b336000908152600080516020614d8c8339815191526020908152604082209196929392916109279060ff906105cd565b858752610133815261095863ffffffff61095061094660408b20613577565b5163ffffffff1690565b161515613747565b61096385151561378c565b61096e8486146137d8565b865b8581106109ac57604051868152889088907f8840be43b589db14b534f6e7451c1e971a9aa90c72beae7ae076d12ce2d6e7d490602090a2604051f35b610a0a90610a056109c889600052610137602052604060002090565b6109d3838a8861384a565b3590610a006109eb6109e6868c8c61384a565b613862565b6109f3611160565b93845261ffff1687840152565b61386c565b61383a565b610970565b503461000e5760408060031936011261000e5760043590602435610a32816104fd565b6000928084526065602052610a4c6001848620015461291c565b808452606560209081528385206001600160a01b03841660009081529152604090205460ff1615610a7c57505051f35b808452606560209081528385206001600160a01b0384166000908152915260409020805460ff19166001179055825133926001600160a01b031691907f2f8788117e7eff1d82e926ec794901d17c78024a50270940304540a733656f0d908690a451f35b503461000e57600036600319011261000e57602061013254604051908152f35b503461000e57604036600319011261000e57602435610b1e816104fd565b336001600160a01b03821603610b3c57610b3a90600435612b6f565b005b60405162461bcd60e51b815260206004820152602f60248201527f416363657373436f6e74726f6c3a2063616e206f6e6c792072656e6f756e636560448201526e103937b632b9903337b91039b2b63360891b6064820152608490fd5b503461000e57602036600319011261000e57610b3a600435610bba816104fd565b610c0c6001600160a01b037f0000000000000000000000000000000000000000000000000000000000000000811690610bf530831415612bff565b600080516020614dcc833981519152541614612c60565b336000908152600080516020614d8c83398151915260205260409020610c349060ff906105cd565b60405190602082018281106001600160401b03821117610c5b575b60405260008252612da5565b610c636110b6565b610c4f565b6084359063ffffffff8216820361000e57565b6024359063ffffffff8216820361000e57565b8015150361000e57565b61ffff81160361000e57565b503461000e5761016036600319011261000e57610cbf610c68565b60a43563ffffffff8116810361000e57610b3a9160c43590610ce0826104fd565b60e435610cec81610c8e565b6101243592610cfa84610c98565b6101443594610d0886610c98565b6101043593606435604435602435600435613ecf565b503461000e57600080600319360112610dd45780805260656020908152604080832033600090815292529020610d569060ff906105cd565b60fb5460ff811615610d985760ff191660fb557f5db9ee0a495bf2e6ff9c91a7834c1ba4fdd244a5e8aa4e537bd38aeae4b073aa6020604051338152a1604051f35b60405162461bcd60e51b815260206004820152601460248201527314185d5cd8589b194e881b9bdd081c185d5cd95960621b6044820152606490fd5b80fd5b503461000e57604036600319011261000e57602061ffff610e24602435610dfd816104fd565b600435600052610139845260406000209060018060a01b0316600052602052604060002090565b5416604051908152f35b503461000e57602036600319011261000e57336000908152600080516020614d8c8339815191526020526040812060043590610e6c9060ff906105cd565b80825261013360205260408220600360ff825460c01c166004811015610ef7575b14610eb257805460ff60c01b1916600160c01b178155610812905b5460c01c60ff1690565b60405162461bcd60e51b815260206004820152601960248201527f4c6f747465727920616c726561647920636f6d706c65746564000000000000006044820152606490fd5b610eff61190f565b610e8d565b8054821015610f21575b60005260206000209060011b0190600090565b610f296105f6565b610f0e565b503461000e57604036600319011261000e5760243560043560005261013b6020526040600020805482101561000e57604091610f6991610f04565b50805460019091015482519182526001600160a01b03166020820152f35b503461000e57604036600319011261000e57610fa1610c7b565b336000908152600080516020614d8c83398151915260205260408120909161100191610fcf9060ff906105cd565b600435835261013360205260408320805463ffffffff60801b191660809290921b63ffffffff60801b16919091179055565b604051f35b503461000e57602036600319011261000e57600435611024816104fd565b336000908152600080516020614d8c8339815191526020526040902061104c9060ff906105cd565b6001600160a01b031680156110715761013080546001600160a01b0319169091179055005b60405162461bcd60e51b815260206004820152601d60248201527f436f6e7472616374732063616e6e6f74206265203020616464726573730000006044820152606490fd5b50634e487b7160e01b600052604160045260246000fd5b6001600160401b0381116110e057604052565b6110e86110b6565b604052565b6101c081019081106001600160401b038211176110e057604052565b604081019081106001600160401b038211176110e057604052565b606081019081106001600160401b038211176110e057604052565b90601f801991011681019081106001600160401b038211176110e057604052565b6040519061116d82611109565b565b6040519061116d826110ed565b6020906001600160401b038111611199575b601f01601f19160190565b6111a16110b6565b61118e565b9291926111b28261117c565b916111c0604051938461113f565b82948184528183011161000e578281602093846000960137010152565b50604036600319011261000e576004356111f6816104fd565b602435906001600160401b03821161000e573660238301121561000e5761122a610b3a9236906024816004013591016111a6565b906112666001600160a01b037f0000000000000000000000000000000000000000000000000000000000000000811690610bf530831415612bff565b336000908152600080516020614d8c8339815191526020526040902061128e9060ff906105cd565b612e68565b503461000e57604036600319011261000e57336000908152600080516020614d8c833981519152602052604081206112cd9060ff906105cd565b60043581526101356020526024356040822055604051f35b503461000e57600036600319011261000e577f00000000000000000000000000000000000000000000000000000000000000006001600160a01b0316300361134457604051600080516020614dcc8339815191528152602090f35b0390f35b60405162461bcd60e51b815260206004820152603860248201527f555550535570677261646561626c653a206d757374206e6f742062652063616c60448201527f6c6564207468726f7567682064656c656761746563616c6c00000000000000006064820152608490fd5b503461000e57600036600319011261000e5761012e546040516001600160a01b039091168152602090f35b503461000e57600036600319011261000e57602060ff60fb54166040519015158152f35b503461000e57602036600319011261000e5760043560005261013c6020526020604060002054604051908152f35b503461000e57604036600319011261000e57602061145760243561144f816104fd565b600435614c5e565b604051908152f35b503461000e5761014036600319011261000e5760643563ffffffff8116810361000e5761148a610c68565b60a43591611497836104fd565b60c435906114a482610c98565b6101043591600483101561000e57610b3a9461012435946114c486610c8e565b60e43593604435602435600435613d7e565b503461000e57604036600319011261000e576114f0610c7b565b336000908152600080516020614d8c8339815191526020526040812090919061151b9060ff906105cd565b6004358252610133602052604082209063ffffffff918281541692831561156e576110019361154c918416116134ed565b9067ffffffff0000000082549160201b169067ffffffff000000001916179055565b60405162461bcd60e51b8152602060048201526014602482015273131bdd1d195c9e481a59081b9bdd08199bdd5b9960621b6044820152606490fd5b503461000e5760a036600319011261000e576004356024356115cb816104fd565b60443560643592608435936001600160401b03851161000e576116da6115f86116d5963690600401610878565b969061160960ff60fb541615614435565b6116398761162287600052610139602052604060002090565b9060018060a01b0316600052602052604060002090565b9761164f86600052610133602052604060002090565b9861169161168c611688611681896116728c600052610138602052604060002090565b90600052602052604060002090565b5460ff1690565b1590565b614a6f565b60018a015460a01c60ff1661181d575b506116d06116b186898b8a614bad565b926116c788600052610135602052604060002090565b54923691614b1c565b614c03565b614b6a565b6117076116f68561162285600052610139602052604060002090565b805462ff0000191662010000179055565b61175861174b611735600161172786600052610133602052604060002090565b01546001600160a01b031690565b9261167285600052610138602052604060002090565b805460ff19166001179055565b600360018060a01b03809216950154853b1561000e576040516305661ce360e11b81526001600160a01b03861660048201526024810185905260016044820152606481019190915260a06084820152600060a48201819052958690829060c490829084905af18015611810575b6117f7575b506040519316907f4aa95f981a8337cb337de335b965507da0879c3b49f799d20058e913f5ad2c268585a4f35b8061180461180a926110cd565b806106c8565b386117ca565b611818612ceb565b6117c5565b61185860026118408861183b8b60005261013b602052604060002090565b610f04565b5054920191825461185382821015614ac5565b61368c565b9055386116a1565b503461000e57604036600319011261000e576024356004356000526101376020526040600020805482101561000e5760409161189b91610f04565b5061ffff600182549201541682519182526020820152f35b503461000e57608036600319011261000e576064356001600160401b0380821161000e573660238301121561000e57816004013590811161000e57366024828401011161000e576024610b3a9201604435602435600435613911565b50634e487b7160e01b600052602160045260246000fd5b6004111561193057565b61116d61190f565b9060048210156119455752565b61194d61190f565b52565b815163ffffffff1681526101c08101929160208181015163ffffffff169083015260408181015163ffffffff169083015260608181015163ffffffff169083015260808181015163ffffffff169083015260a08181015163ffffffff16908301526119c360c082015160c0840190611938565b60e0818101516001600160a01b0316908301526101008181015115159083015261012080820151908301526101408082015190830152610160808201519083015261018080820151908301526101a080910151910152565b503461000e57602036600319011261000e57604051611a39816110ed565b6101a06000918281528260208201528260408201528260608201528260808201528260a08201528260c08201528260e082015282610100820152826101208201528261014082015282610160820152826101808201520152611340611ab3611aae600435600052610133602052604060002090565b613577565b60405191829182611950565b6020908160408183019282815285518094520193019160005b828110611ae6575050505090565b835185529381019392810192600101611ad8565b503461000e5760208060031936011261000e57600435611b19816104fd565b6001600160a01b0316600090815261013682526040808220905181548082529183528383208185019491939092915b828210611b6b5761134085611b5f8189038261113f565b60405191829182611abf565b835486529485019460019384019390910190611b48565b503461000e57600080600319360112610dd45780805260656020908152604080832033600090815292529020611bba9060ff906105cd565b600160fb54611bcc60ff821615614435565b60ff19161760fb557f62e78cea01bee320cd4e420270b5ea74000d11b0c9f74754ebdbfc544b05a2586020604051338152a1604051f35b503461000e57604036600319011261000e57610b3a600435611c2a60ff60fb541615614435565b600081815261013460205260409020546001600160a01b0316611c51575b60243590614670565b611cc8611c8b611c7f611c7f611c7285600052610134602052604060002090565b546001600160a01b031690565b6001600160a01b031690565b6040516320c18e6b60e21b81523360048201526024810184905290602090829060449082905afa908115611cfb575b600091611ccd575b506144cc565b611c48565b611cee915060203d8111611cf4575b611ce6818361113f565b81019061404f565b38611cc2565b503d611cdc565b611d03612ceb565b611cba565b503461000e5760408060031936011261000e576000808052606560209081528282203383529052604081209091906004359060243590611d4a9060ff906105cd565b8184526101378060205283852054821015611dd45791611dbb611dcc92611dd194838852602052611db5611d9e878920611d98611d9287600052610137602052604060002090565b5461367d565b90610f04565b509161183b85600052610137602052604060002090565b906136ba565b600052610137602052604060002090565b6136fc565b51f35b835162461bcd60e51b8152602060048201526013602482015272496e646578206f7574206f6620626f756e647360681b6044820152606490fd5b503461000e57604036600319011261000e57602060ff611e59602435611e33816104fd565b6004356000526065845260406000209060018060a01b0316600052602052604060002090565b54166040519015158152f35b503461000e57602036600319011261000e57600435600052610134602052602060018060a01b0360406000205416604051908152f35b60208082019080835283518092528060408094019401926000905b838210611ec557505050505090565b8451805187528301516001600160a01b0316868401529485019493820193600190910190611eb6565b503461000e57606036600319011261000e57600435602435604435818110611fe4575b60018282036001198111611fd7575b0190611f2b82613545565b92604092611f3b8451958661113f565b808552611f4a601f1991613545565b016000805b828110611fb5575050505b81811115611f6f578251806113408682611e9b565b80611f95611f8f611fb09361183b8960005261013b602052604060002090565b5061440e565b611f9f82876143ec565b52611faa81866143ec565b5061383a565b611f5a565b6020908651611fc381611109565b838152828481830152828a01015201611f4f565b611fdf6131f6565b611f20565b611fec6131f6565b611f11565b503461000e57600036600319011261000e57602060405160008152f35b503461000e5760208060031936011261000e57600080805260658252604080822033835260205281209091600435916120fc919061204e9060ff906105cd565b6120ad600261209e61206b86600052610133602052604060002090565b60ff81546120824263ffffffff838a1c1610614317565b60c01c1661208f81611926565b15612164575460c01c60ff1690565b6120a781611926565b1461435b565b610130546120c3906001600160a01b0316611c7f565b604051632cdc85e960e21b8152600481018590529082908290602490829089905af1918215612157575b859261212a575b505061012d55565b61012d54604051917ff8cdf8355a0f31bbad8998a631f5a75dcb3e475a010b34a111ed105fe88e751a8484a3f35b6121499250803d10612150575b612141818361113f565b810190612cdc565b38806120f4565b503d612137565b61215f612ceb565b6120ed565b805460ff60c01b1916600160c11b178155805460c01c60ff1661218681611926565b87600080516020614dac8339815191528a604051a3610ea8565b503461000e57604036600319011261000e576121ba610c7b565b336000908152600080516020614d8c833981519152602052604081209091611001916121e89060ff906105cd565b600435835261013360205260408320805463ffffffff60601b191660609290921b63ffffffff60601b16919091179055565b503461000e57606036600319011261000e57600435612238816104fd565b6122fa60243591612248836104fd565b60443590612255826104fd565b6122d761226061346e565b948561233f575b61226f6133fa565b61228960ff60005460081c166122848161339a565b61339a565b60ff1960fb541660fb5561229b6133fa565b6122a481612ad9565b61012f80546001600160a01b03199081166001600160a01b039687161790915561012e8054909116918516919091179055565b6101318054919092166001600160a01b03166001600160a01b0319909116179055565b61230057005b61231061ff001960005416600055565b604051600181527f7f26b83ff96e1f2b6a682f133852f6798a09c465da95921460cefb384740249890602090a1005b61010061ff00196000541617600055612267565b503461000e57602036600319011261000e57600435600052610133602052602063ffffffff60406000205460a01c16604051908152f35b60208082019080835283518092528060408094019401926000905b8382106123b457505050505090565b84518051875283015161ffff168684015294850194938201936001909101906123a5565b503461000e5760208060031936011261000e5760043560005261013781526040908160002080549061240982613545565b926124168551948561113f565b82845260009182528082208185015b84841061243957865180611340888261238a565b600283600192895161244a81611109565b8554815261ffff858701541683820152815201920193019290612425565b503461000e57602036600319011261000e576004356000526101356020526020604060002054604051908152f35b503461000e57604036600319011261000e57610b3a6024356004356124ba826104fd565b8060005260656020526124d460016040600020015461291c565b612b6f565b503461000e57604036600319011261000e576024356124f7816104fd565b336000908152600080516020614d8c833981519152602052604081209091611001916125259060ff906105cd565b60043583526101346020526040832080546001600160a01b0319166001600160a01b03909216919091179055565b503461000e57604036600319011261000e576004356000526101386020526040600020602435600052602052602060ff604060002054166040519015158152f35b503461000e57600036600319011261000e57610130546040516001600160a01b039091168152602090f35b503461000e57602036600319011261000e576004356125dd816104fd565b336000908152600080516020614d8c833981519152602052604090206126059060ff906105cd565b61013180546001600160a01b0319166001600160a01b03909216919091179055005b503461000e57602036600319011261000e5760043561264b60ff60fb541615614435565b61266081600052610133602052604060002090565b90600261268e61267b83600052610139602052604060002090565b3360009081526020919091526040902090565b018054926126a1815460ff9060c01c1690565b6126aa81611926565b600381036127825750600101546000919060a01c60ff1680612779575b6126d090614d31565b5561012f546126e7906001600160a01b0316611c7f565b60405163a9059cbb60e01b81523360048201526024810184905290602090829060449082906000905af1801561276c575b61274e575b5060405191825233917f7ca5472b7ea78c2c0141c5a12ee6d170cf4ce8ed06be3d22c8252ddfc7a6a2c490602090a3005b6127659060203d8111611cf457611ce6818361113f565b503861271d565b612774612ceb565b612718565b508315156126c7565b6001915061278f81611926565b036127a7576000906127a2841515614cf2565b6126d0565b60405162461bcd60e51b815260206004820152602660248201527f43616e27742061736b20666f72206120726566756e64206f6e2074686973206c6044820152656f747465727960d01b6064820152608490fd5b0390fd5b503461000e57604036600319011261000e5760006020612885600435612824816104fd565b838052606583526040808520336000908152602091909152206128499060ff906105cd565b61012f5460405163a9059cbb60e01b81526001600160a01b03928316600482015260248035908201529485939190921691839182906044820190565b03925af180156128ad575b61289657005b610b3a9060203d8111611cf457611ce6818361113f565b6128b5612ceb565b612890565b503461000e57602036600319011261000e57600435600052610133602052602063ffffffff60406000205460401c16604051908152f35b503461000e57600036600319011261000e5761012f546040516001600160a01b039091168152602090f35b600081815260656020908152604080832033845290915290205460ff16156129415750565b339061294b612cc1565b91603061295784613240565b53607861296384613256565b5360295b60018111612a12576127fb6129cf6129fa866129ec61298f8861298a89156132a1565b6132ec565b6129c96040519586946129c9602087016017907f416363657373436f6e74726f6c3a206163636f756e742000000000000000000081520190565b90612a96565b7001034b99036b4b9b9b4b733903937b6329607d1b815260110190565b03601f19810183528261113f565b60405162461bcd60e51b815291829160048301612aad565b9080600f612a4f92166010811015612a54575b6f181899199a1a9b1b9c1cb0b131b232b360811b901a612a458487613267565b5360041c91613286565b612967565b612a5c6105f6565b612a25565b918091926000905b828210612a81575011612a7a575050565b6000910152565b91508060209183015181860152018291612a69565b90612aa960209282815194859201612a61565b0190565b60409160208252612acd8151809281602086015260208686019101612a61565b601f01601f1916010190565b6001600160a01b0381166000908152600080516020614d8c833981519152602052604081205460ff1615612b0b575050565b8080526065602090815260408083206001600160a01b038516600090815292529020805460ff1916600117905560405133926001600160a01b031691907f2f8788117e7eff1d82e926ec794901d17c78024a50270940304540a733656f0d908290a4565b60008181526065602090815260408083206001600160a01b038616845290915290205460ff16612b9d575050565b60008181526065602090815260408083206001600160a01b03861684529091529020805460ff1916905560405133926001600160a01b031691907ff6391f5c32d9c69d2a47ea670b442974b53935d1edc7fd64eb21e047a839171b90600090a4565b15612c0657565b60405162461bcd60e51b815260206004820152602c60248201527f46756e6374696f6e206d7573742062652063616c6c6564207468726f7567682060448201526b19195b1959d85d1958d85b1b60a21b6064820152608490fd5b15612c6757565b60405162461bcd60e51b815260206004820152602c60248201527f46756e6374696f6e206d7573742062652063616c6c6564207468726f7567682060448201526b6163746976652070726f787960a01b6064820152608490fd5b60405190612cce82611124565b602a82526040366020840137565b9081602091031261000e575190565b506040513d6000823e3d90fd5b15612cff57565b60405162461bcd60e51b815260206004820152602960248201527f45524331393637557067726164653a20756e737570706f727465642070726f786044820152681a58589b195555525160ba1b6064820152608490fd5b60809060208152602e60208201527f45524331393637557067726164653a206e657720696d706c656d656e7461746960408201526d6f6e206973206e6f74205555505360901b60608201520190565b90612dd17f4910fdfa16fed3260ed0e7147f7cc6da11a60208b5b9406d12a635614ffd91435460ff1690565b15612de0575061116d90612f2b565b6040516352d1902d60e01b8152916020836004816001600160a01b0385165afa60009381612e48575b50612e275760405162461bcd60e51b8152806127fb60048201612d56565b612e43600080516020614dcc83398151915261116d9414612cf8565b612fbb565b612e6191945060203d811161215057612141818361113f565b9238612e09565b90612e947f4910fdfa16fed3260ed0e7147f7cc6da11a60208b5b9406d12a635614ffd91435460ff1690565b15612ea3575061116d90612f2b565b6040516352d1902d60e01b8152916020836004816001600160a01b0385165afa60009381612f0b575b50612eea5760405162461bcd60e51b8152806127fb60048201612d56565b612f06600080516020614dcc83398151915261116d9414612cf8565b6130cb565b612f2491945060203d811161215057612141818361113f565b9238612ecc565b803b15612f6057600080516020614dcc83398151915280546001600160a01b0319166001600160a01b03909216919091179055565b60405162461bcd60e51b815260206004820152602d60248201527f455243313936373a206e657720696d706c656d656e746174696f6e206973206e60448201526c1bdd08184818dbdb9d1c9858dd609a1b6064820152608490fd5b90612fc582612f2b565b604051600092906001600160a01b0382167fbc7cd75a20ee27fd9adebab32041f755214dbc6bffa90cc0225b39da2e5c2d3b8583a28251158015906130c4575b613010575b50505050565b813b1561307357509180826130619460208395519201905af4903d1561306b573d61303a8161117c565b90613048604051928361113f565b8152809160203d92013e5b61305b613175565b916131be565b503880808061300a565b506060613053565b62461bcd60e51b815260206004820152602660248201527f416464726573733a2064656c65676174652063616c6c20746f206e6f6e2d636f6044820152651b9d1c9858dd60d21b6064820152608490fd5b5083613005565b6130d481612f2b565b6040516001600160a01b0382167fbc7cd75a20ee27fd9adebab32041f755214dbc6bffa90cc0225b39da2e5c2d3b600083a282511580159061316d575b61311a57505050565b813b1561307357506000828192602061316395519201905af43d15613166573d6131438161117c565b90613151604051928361113f565b81523d6000602083013e61305b613175565b50565b6060613053565b506001613111565b6040519061318282611124565b60278252660819985a5b195960ca1b6040837f416464726573733a206c6f772d6c6576656c2064656c65676174652063616c6c60208201520152565b909190156131ca575090565b8151156131da5750805190602001fd5b60405162461bcd60e51b81529081906127fb9060048301612aad565b50634e487b7160e01b600052601160045260246000fd5b8060001904821181151516613220570290565b6132286131f6565b0290565b81198111613238570190565b612aa96131f6565b60209080511561324e570190565b612aa96105f6565b60219080516001101561324e570190565b90602091805182101561327957010190565b6132816105f6565b010190565b8015613294575b6000190190565b61329c6131f6565b61328d565b156132a857565b606460405162461bcd60e51b815260206004820152602060248201527f537472696e67733a20686578206c656e67746820696e73756666696369656e746044820152fd5b60405190608082018281106001600160401b0382111761338d575b604052604282526060366020840137603061332183613240565b53607861332d83613256565b536041905b60018211613348576133459150156132a1565b90565b80600f61337a92166010811015613380575b6f181899199a1a9b1b9c1cb0b131b232b360811b901a612a458486613267565b90613332565b6133886105f6565b61335a565b6133956110b6565b613307565b156133a157565b60405162461bcd60e51b815260206004820152602b60248201527f496e697469616c697a61626c653a20636f6e7472616374206973206e6f74206960448201526a6e697469616c697a696e6760a81b6064820152608490fd5b61116d60ff60005460081c1661339a565b1561341257565b60405162461bcd60e51b815260206004820152602e60248201527f496e697469616c697a61626c653a20636f6e747261637420697320616c72656160448201526d191e481a5b9a5d1a585b1a5e995960921b6064820152608490fd5b60005460ff8160081c16600014613490575061348b303b1561340b565b600090565b806134a1600160ff8194161061340b565b60ff191617600055600190565b156134b557565b60405162461bcd60e51b815260206004820152601060248201526f41646d696e2063616c6c73206f6e6c7960801b6044820152606490fd5b156134f457565b60405162461bcd60e51b815260206004820152602360248201527f436c6f73652074696d65206d7573742062652061667465722073746172742074604482015262696d6560e81b6064820152608490fd5b6020906001600160401b03811161355e575b60051b0190565b6135666110b6565b613557565b60048210156119455752565b90600661358261116f565b9261362560ff825461361863ffffffff6135a48184168a9063ffffffff169052565b6135bc818460201c1660208b019063ffffffff169052565b6135d4818460401c1660408b019063ffffffff169052565b6135ec818460601c1660608b019063ffffffff169052565b613604818460801c1660808b019063ffffffff169052565b8260a01c1660a089019063ffffffff169052565b60c01c1660c0860161356b565b60018101546001600160a01b03811660e086015260a01c60ff161515610100850152600281015461012085015260038101546101408501526004810154610160850152600581015461018085015201546101a0830152565b60018110613294576000190190565b818110613697570390565b61369f6131f6565b0390565b50634e487b7160e01b600052600060045260246000fd5b906136ef575b8181036136cb575050565b600161ffff818461116d9554855501541691019061ffff1661ffff19825416179055565b6136f76136a3565b6136c0565b80548015613731576000190190600060016137178484610f04565b613724575b828155015555565b61372c6136a3565b61371c565b634e487b7160e01b600052603160045260246000fd5b1561374e57565b60405162461bcd60e51b8152602060048201526016602482015275131bdd1d195c9e48191bd95cc81b9bdd08195e1a5cdd60521b6044820152606490fd5b1561379357565b60405162461bcd60e51b815260206004820152601b60248201527f4e756d626572206f66207072697a65732063616e2774206265203000000000006044820152606490fd5b156137df57565b60405162461bcd60e51b815260206004820152602d60248201527f4e756d626572206f66207072697a652069647320616e6420616d6f756e74732060448201526c1b5d5cdd08189948195c5d585b609a1b6064820152608490fd5b6001906000198114613238570190565b919081101561385a5760051b0190565b6135666105f6565b3561334581610c98565b90600161ffff602061389561116d95805490600160401b8210156138c4575b8582018155610f04565b9490946138b7575b8051855501511691019061ffff1661ffff19825416179055565b6138bf6136a3565b61389d565b6138cc6110b6565b61388b565b156138d857565b60405162461bcd60e51b8152602060048201526011602482015270496e76616c6964207369676e617475726560781b6044820152606490fd5b6040805133602082019081529181018390529195939492936139869361395f93919261395992613951919061394981606081016129ec565b519020613d3b565b9236916111a6565b90613a6a565b61012e54613975906001600160a01b0316611c7f565b6001600160a01b03909116146138d1565b6101315461399c906001600160a01b0316611c7f565b60405163f662781d60e01b81523360048201529093908190602081602481895afa908115613a5d575b600091613a3f575b50106139df575b5061116d9250614474565b833b1561000e57604051630259ab7760e61b8152336004820152602481019190915261116d936000908290604490829084905af18015613a32575b156139d45780611804613a2c926110cd565b386139d4565b613a3a612ceb565b613a1a565b613a57915060203d811161215057612141818361113f565b386139cd565b613a65612ceb565b6139c5565b61334591613a7791613c0a565b919091613a89565b6005111561193057565b613a9281613a7f565b80613a9a5750565b613aa381613a7f565b60018103613af05760405162461bcd60e51b815260206004820152601860248201527f45434453413a20696e76616c6964207369676e617475726500000000000000006044820152606490fd5b613af981613a7f565b60028103613b465760405162461bcd60e51b815260206004820152601f60248201527f45434453413a20696e76616c6964207369676e6174757265206c656e677468006044820152606490fd5b613b4f81613a7f565b60038103613ba75760405162461bcd60e51b815260206004820152602260248201527f45434453413a20696e76616c6964207369676e6174757265202773272076616c604482015261756560f01b6064820152608490fd5b80613bb3600492613a7f565b14613bba57565b60405162461bcd60e51b815260206004820152602260248201527f45434453413a20696e76616c6964207369676e6174757265202776272076616c604482015261756560f01b6064820152608490fd5b815160418103613c37575090613c33916020820151906060604084015193015160001a90613c85565b9091565b604003613c7b578160406020613c339401519101519160ff601b84821c9481198611613c6e575b600180841b031694011690613c85565b613c766131f6565b613c5e565b5050600090600290565b9291907f7fffffffffffffffffffffffffffffff5d576e7357a4501ddfe92f46681b20a08311613d2f5760ff16601b81141580613d24575b613d18579160809493916020936040519384528484015260408301526060820152600093849182805260015afa15613d0b575b81516001600160a01b03811615613d05579190565b50600190565b613d13612ceb565b613cf0565b50505050600090600490565b50601c811415613cbd565b50505050600090600390565b60405160208101917f19457468657265756d205369676e6564204d6573736167653a0a3332000000008352603c820152603c8152613d7881611124565b51902090565b336000908152600080516020614d8c83398151915260205260408120999a919990989697919694958b95949293915460ff16613db9906134ae565b8a8a5261013360205260408a2096875463ffffffff161515613dda90613747565b875463ffffffff191663ffffffff909116178755865467ffffffff00000000191660209190911b67ffffffff0000000016178655600486015560058501556001840180546001600160a01b0319166001600160a01b03909716969096178655835460609190911b61ffff60601b1663ffffffff60601b199091161783556006830155613e6591613e9d565b815460ff60a01b191690151560a01b60ff60a01b16179055613e8683611926565b60405190600080516020614dac83398151915291a3565b906004811015613ec2575b815460ff60c01b191660c09190911b60ff60c01b16179055565b613eca61190f565b613ea8565b336000908152600080516020614d8c83398151915260205260408120909b929a95999198919794969395919493919291905460ff16613f0d906134ae565b613f2163ffffffff8b8116908316116134ed565b60405163185153c360e01b8152600481018c90528c906001600160a01b03861681602481855a94602095f190811592613f6593614042575b91614024575b50614064565b613f6e896140b0565b613f7661116f565b63ffffffff909a168a5263ffffffff1660208a0152604089018b905261ffff91821660608a01521663ffffffff16608088015260a0870189905260c087018990526001600160a01b031660e0870152151561010086015283610120860152856101408601526101608501526101808401526101a083015261400290600052610133602052604060002090565b9061400c91614159565b8160405190600080516020614dac83398151915291a3565b61403c915060203d8111611cf457611ce6818361113f565b38613f5f565b61404a612ceb565b613f59565b9081602091031261000e575161334581610c8e565b1561406b57565b60405162461bcd60e51b815260206004820152601960248201527f436f6c6c656374696f6e20646f6573206e6f74206578697374000000000000006044820152606490fd5b610132805490600160401b821015614107575b600182018082558210156140fa575b6000527fc53bdfd4aa1ab65dfdaf681ca6bda958ae4a123d4ed68c4277796592280e78350155565b6141026105f6565b6140d2565b61410f6110b6565b6140c3565b805490600160401b82101561414c575b6001820180825582101561413f575b60005260206000200155565b6141476105f6565b614133565b6141546110b6565b614124565b906101a0600691614187614171825163ffffffff1690565b855463ffffffff191663ffffffff909116178555565b6141bd61419b602083015163ffffffff1690565b855467ffffffff00000000191660209190911b67ffffffff0000000016178555565b6141f66141d1604083015163ffffffff1690565b85546bffffffff0000000000000000191660409190911b63ffffffff60401b16178555565b61422a61420a606083015163ffffffff1690565b855463ffffffff60601b191660609190911b63ffffffff60601b16178555565b61425e61423e608083015163ffffffff1690565b855463ffffffff60801b191660809190911b63ffffffff60801b16178555565b61429261427260a083015163ffffffff1690565b855463ffffffff60a01b191660a09190911b63ffffffff60a01b16178555565b6142a960c08201516142a381611926565b85613e9d565b60e08101516001850180546101008401516001600160a01b039093166001600160a81b03199091161791151560a01b60ff60a01b1691909117905561012081015160028501556101408101516003850155610160810151600485015561018081015160058501550151910155565b1561431e57565b60405162461bcd60e51b8152602060048201526015602482015274131bdd1d195c9e481a5cc81b9bdd0818db1bdcd959605a1b6044820152606490fd5b1561436257565b60405162461bcd60e51b815260206004820152601760248201527f4c6f7474657279206d75737420626520636c6f736564210000000000000000006044820152606490fd5b156143ae57565b60405162461bcd60e51b8152602060048201526016602482015275131bdd1d195c9e481b5d5cdd0818994818db1bdcd95960521b6044820152606490fd5b6020918151811015614401575b60051b010190565b6144096105f6565b6143f9565b9060405161441b81611109565b825481526001909201546001600160a01b03166020830152565b1561443c57565b60405162461bcd60e51b815260206004820152601060248201526f14185d5cd8589b194e881c185d5cd95960821b6044820152606490fd5b9061116d9161448860ff60fb541615614435565b600081815261013460205260409020546001600160a01b031615614670576144c7611c8b611c7f611c7f611c7285600052610134602052604060002090565b614670565b156144d357565b60405162461bcd60e51b815260206004820152600f60248201526e139bdd081dda1a5d195b1a5cdd1959608a1b6044820152606490fd5b1561451157565b60405162461bcd60e51b815260206004820152601060248201526f151a58dad95d1cc81cdbdb19081bdd5d60821b6044820152606490fd5b1561455057565b606460405162461bcd60e51b815260206004820152602060248201527f43616e277420627579207468697320616d6f756e74206f66207469636b6574736044820152fd5b1561459b57565b60405162461bcd60e51b81526020600482015260136024820152722637ba3a32b93c9034b9903737ba1037b832b760691b6044820152606490fd5b9063ffffffff8080931691168092038111613238570190565b60019063ffffffff809116908114613238570190565b90808203614611575050565b8054825461ffff191661ffff919091161782556002908190805462ff000060ff86549260101c16151560101b169062ff00001916178455600181015460018501550154910155565b9061ffff8080931691168092038111613238570190565b61468581600052610133602052604060002090565b90614781825463ffffffff93848260601c168061490b575b506146b661267b85600052610139602052604060002090565b916146f16146d06146c9855461ffff1690565b61ffff1690565b91878160801c16806148f0575b5042888216111590816148e0575b50614594565b6146ff60048301548861320d565b806148be575b5061474b61472b6005840154978916614726855463ffffffff9060a01c1690565b6145d6565b835463ffffffff60a01b191660a09190911b63ffffffff60a01b16178355565b85614820575b156147a5575b5061477161ffff861661476c835461ffff1690565b614659565b61ffff1661ffff19825416179055565b60005b8381106147915750505050565b6147a090610a0584338561499c565b614784565b336000908152610136602052604090206147f891906147c5908690614114565b80546147d99060401c63ffffffff166145ef565b63ffffffff60401b82549160401b169063ffffffff60401b1916179055565b61481a816148153361162287600052610139602052604060002090565b614605565b38614757565b61482a868861320d565b61012f54614840906001600160a01b0316611c7f565b6040516323b872dd60e01b81523360048201523060248201526044810183905290602090829060649082906000905af180156148b1575b614893575b5061488c6002850191825461322c565b9055614751565b6148aa9060203d8111611cf457611ce6818361113f565b503861487c565b6148b9612ceb565b614877565b6148d990600185016148d182825461322c565b90553361492b565b5038614705565b905087429160201c1611386146eb565b614905906148fe8b8661322c565b1115614549565b386146dd565b6149259061491e88888660a01c1661322c565b111561450a565b3861469d565b61013154604051631e961d2760e01b81526001600160a01b039283166004820152602481019390935260209183916044918391600091165af190811561498f575b600091614977575090565b613345915060203d811161215057612141818361113f565b614997612ceb565b61496c565b9091614a2090604051906149af82611109565b815260016020820194818060a01b03809116958681528560005261013b6020526149f06040600020805490600160401b8210156138c4578582018155610f04565b949094614a62575b518455511691019060018060a01b03166bffffffffffffffffffffffff60a01b825416179055565b7fc41bbb54d04f2268c7895b9330f18468c306a3f92698a92c4c86b297873978486020614a588360005261013b602052604060002090565b54604051908152a3565b614a6a6136a3565b6149f8565b15614a7657565b60405162461bcd60e51b815260206004820152602160248201527f5061727469636970616e7420616c726561647920636c61696d6564207072697a6044820152606560f81b6064820152608490fd5b15614acc57565b60405162461bcd60e51b815260206004820152602260248201527f5061727469636970616e742068617320726571756573746564206120726566756044820152611b9960f21b6064820152608490fd5b9291614b2782613545565b91614b35604051938461113f565b829481845260208094019160051b810192831161000e57905b828210614b5b5750505050565b81358152908301908301614b4e565b15614b7157565b60405162461bcd60e51b815260206004820152601460248201527324b73b30b634b21036b2b935b63290383937b7b360611b6044820152606490fd5b929091604051926020840194855260018060a01b03166040840152606083015260808201526080815260a081018181106001600160401b03821117614bf6575b60405251902090565b614bfe6110b6565b614bed565b929091906000915b8451831015614c5657614c1e83866143ec565b5190818111614c4157600052602052614c3b60406000209261383a565b91614c0b565b90600052602052614c3b60406000209261383a565b915092501490565b600052610133602052614c9260406000209161013960205260406000209060018060a01b0316600052602052604060002090565b9060ff815460c01c1690614ca582611926565b60038214918215614cdc575b5081614cca575b50614cc35750600090565b6002015490565b60ff91506001015460a01c1638614cb8565b6001919250614cea81611926565b149038614cb1565b15614cf957565b60405162461bcd60e51b815260206004820152601060248201526f105b1c9958591e481c99599d5b99195960821b6044820152606490fd5b15614d3857565b60405162461bcd60e51b815260206004820152602560248201527f5061727469636970616e7420686173206e6f20726566756e6461626c65207469604482015264636b65747360d81b6064820152608490fdfeffdfc1249c027f9191656349feb0761381bb32c9f557e01f419fd08754bf5a1ba3aca9ae20a0379d4094b84c749cbed6584ab20f0b71af75f63f6615d879c939360894a13ba1a3210667c828492db98dca3e2076cc3735a920a3ca505d382bbca2646970667358221220ceb47e413884e164a901f1a901f5d2c65f1b429830bd1db22f119faec672c26b64736f6c634300080e0033",
  "linkReferences": {},
  "deployedLinkReferences": {}
}