{
  "_format": "hh-sol-artifact-1",
  "contractName": "Lottery",
  "sourceName": "contracts/Lottery/Lottery.sol",
  "abi": [
    {
      "anonymous": false,
      "inputs": [
        {
          "indexed": false,
          "internalType": "address",
          "name": "previousAdmin",
          "type": "address"
        },
        {
          "indexed": false,
          "internalType": "address",
          "name": "newAdmin",
          "type": "address"
        }
      ],
      "name": "AdminChanged",
      "type": "event"
    },
    {
      "anonymous": false,
      "inputs": [
        {
          "indexed": true,
          "internalType": "address",
          "name": "beacon",
          "type": "address"
        }
      ],
      "name": "BeaconUpgraded",
      "type": "event"
    },
    {
      "anonymous": false,
      "inputs": [
        {
          "indexed": false,
          "internalType": "uint8",
          "name": "version",
          "type": "uint8"
        }
      ],
      "name": "Initialized",
      "type": "event"
    },
    {
      "anonymous": false,
      "inputs": [
        {
          "indexed": true,
          "internalType": "uint256",
          "name": "lotteryId",
          "type": "uint256"
        },
        {
          "indexed": true,
          "internalType": "enum Lottery.Status",
          "name": "status",
          "type": "uint8"
        }
      ],
      "name": "LotteryStatusChanged",
      "type": "event"
    },
    {
      "anonymous": false,
      "inputs": [
        {
          "indexed": false,
          "internalType": "address",
          "name": "account",
          "type": "address"
        }
      ],
      "name": "Paused",
      "type": "event"
    },
    {
      "anonymous": false,
      "inputs": [
        {
          "indexed": true,
          "internalType": "uint256",
          "name": "lotteryId",
          "type": "uint256"
        },
        {
          "indexed": true,
          "internalType": "address",
          "name": "participantAddress",
          "type": "address"
        },
        {
          "indexed": true,
          "internalType": "uint256",
          "name": "prizeId",
          "type": "uint256"
        }
      ],
      "name": "PrizeClaimed",
      "type": "event"
    },
    {
      "anonymous": false,
      "inputs": [
        {
          "indexed": true,
          "internalType": "uint256",
          "name": "lotteryId",
          "type": "uint256"
        },
        {
          "indexed": true,
          "internalType": "address",
          "name": "participantAddress",
          "type": "address"
        },
        {
          "indexed": false,
          "internalType": "uint256",
          "name": "amount",
          "type": "uint256"
        }
      ],
      "name": "Refunded",
      "type": "event"
    },
    {
      "anonymous": false,
      "inputs": [
        {
          "indexed": true,
          "internalType": "bytes32",
          "name": "role",
          "type": "bytes32"
        },
        {
          "indexed": true,
          "internalType": "bytes32",
          "name": "previousAdminRole",
          "type": "bytes32"
        },
        {
          "indexed": true,
          "internalType": "bytes32",
          "name": "newAdminRole",
          "type": "bytes32"
        }
      ],
      "name": "RoleAdminChanged",
      "type": "event"
    },
    {
      "anonymous": false,
      "inputs": [
        {
          "indexed": true,
          "internalType": "bytes32",
          "name": "role",
          "type": "bytes32"
        },
        {
          "indexed": true,
          "internalType": "address",
          "name": "account",
          "type": "address"
        },
        {
          "indexed": true,
          "internalType": "address",
          "name": "sender",
          "type": "address"
        }
      ],
      "name": "RoleGranted",
      "type": "event"
    },
    {
      "anonymous": false,
      "inputs": [
        {
          "indexed": true,
          "internalType": "bytes32",
          "name": "role",
          "type": "bytes32"
        },
        {
          "indexed": true,
          "internalType": "address",
          "name": "account",
          "type": "address"
        },
        {
          "indexed": true,
          "internalType": "address",
          "name": "sender",
          "type": "address"
        }
      ],
      "name": "RoleRevoked",
      "type": "event"
    },
    {
      "anonymous": false,
      "inputs": [
        {
          "indexed": false,
          "internalType": "address",
          "name": "operator",
          "type": "address"
        },
        {
          "indexed": false,
          "internalType": "uint256",
          "name": "lotteryId",
          "type": "uint256"
        },
        {
          "indexed": false,
          "internalType": "uint256",
          "name": "priceOfTicket",
          "type": "uint256"
        }
      ],
      "name": "TicketCostChanged",
      "type": "event"
    },
    {
      "anonymous": false,
      "inputs": [
        {
          "indexed": true,
          "internalType": "uint256",
          "name": "lotteryId",
          "type": "uint256"
        },
        {
          "indexed": false,
          "internalType": "uint256",
          "name": "ticketNumber",
          "type": "uint256"
        },
        {
          "indexed": true,
          "internalType": "address",
          "name": "participantAddress",
          "type": "address"
        }
      ],
      "name": "TicketSold",
      "type": "event"
    },
    {
      "anonymous": false,
      "inputs": [
        {
          "indexed": false,
          "internalType": "address",
          "name": "account",
          "type": "address"
        }
      ],
      "name": "Unpaused",
      "type": "event"
    },
    {
      "anonymous": false,
      "inputs": [
        {
          "indexed": true,
          "internalType": "address",
          "name": "implementation",
          "type": "address"
        }
      ],
      "name": "Upgraded",
      "type": "event"
    },
    {
      "inputs": [],
      "name": "DEFAULT_ADMIN_ROLE",
      "outputs": [
        {
          "internalType": "bytes32",
          "name": "",
          "type": "bytes32"
        }
      ],
      "stateMutability": "view",
      "type": "function"
    },
    {
      "inputs": [
        {
          "internalType": "uint256",
          "name": "_lotteryId",
          "type": "uint256"
        },
        {
          "internalType": "uint256",
          "name": "_numberOfTicketsToBuy",
          "type": "uint256"
        }
      ],
      "name": "buyTickets",
      "outputs": [],
      "stateMutability": "nonpayable",
      "type": "function"
    },
    {
      "inputs": [
        {
          "internalType": "uint256",
          "name": "_points",
          "type": "uint256"
        },
        {
          "internalType": "uint256",
          "name": "_lotteryId",
          "type": "uint256"
        },
        {
          "internalType": "uint256",
          "name": "_numberOfTicketsToBuy",
          "type": "uint256"
        },
        {
          "internalType": "bytes",
          "name": "_sig",
          "type": "bytes"
        }
      ],
      "name": "buyTicketsWithSignedMessage",
      "outputs": [],
      "stateMutability": "nonpayable",
      "type": "function"
    },
    {
      "inputs": [
        {
          "internalType": "uint256",
          "name": "_lotteryId",
          "type": "uint256"
        }
      ],
      "name": "cancelLottery",
      "outputs": [],
      "stateMutability": "nonpayable",
      "type": "function"
    },
    {
      "inputs": [
        {
          "internalType": "uint256",
          "name": "_lotteryId",
          "type": "uint256"
        },
        {
          "internalType": "uint32",
          "name": "_time",
          "type": "uint32"
        }
      ],
      "name": "changeCloseTime",
      "outputs": [],
      "stateMutability": "nonpayable",
      "type": "function"
    },
    {
      "inputs": [
        {
          "internalType": "uint256",
          "name": "_lotteryId",
          "type": "uint256"
        },
        {
          "internalType": "address",
          "name": "_winner",
          "type": "address"
        },
        {
          "internalType": "uint256",
          "name": "_prizeId",
          "type": "uint256"
        },
        {
          "internalType": "string",
          "name": "_uri",
          "type": "string"
        },
        {
          "internalType": "bytes32[]",
          "name": "_proof",
          "type": "bytes32[]"
        }
      ],
      "name": "claimPrize",
      "outputs": [],
      "stateMutability": "nonpayable",
      "type": "function"
    },
    {
      "inputs": [
        {
          "internalType": "uint256",
          "name": "",
          "type": "uint256"
        },
        {
          "internalType": "uint256",
          "name": "",
          "type": "uint256"
        }
      ],
      "name": "claimedPrizes",
      "outputs": [
        {
          "internalType": "bool",
          "name": "",
          "type": "bool"
        }
      ],
      "stateMutability": "view",
      "type": "function"
    },
    {
      "inputs": [
        {
          "internalType": "uint256",
          "name": "_lotteryId",
          "type": "uint256"
        },
        {
          "internalType": "uint256",
          "name": "_ticketCostPoints",
          "type": "uint256"
        },
        {
          "internalType": "uint256",
          "name": "_ticketCostTokens",
          "type": "uint256"
        },
        {
          "internalType": "uint32",
          "name": "_startTime",
          "type": "uint32"
        },
        {
          "internalType": "uint32",
          "name": "_closeTime",
          "type": "uint32"
        },
        {
          "internalType": "contract INFT",
          "name": "_nftContract",
          "type": "address"
        },
        {
          "internalType": "uint16",
          "name": "_maxTickets",
          "type": "uint16"
        },
        {
          "internalType": "uint16",
          "name": "_maxTicketsPerUser",
          "type": "uint16"
        },
        {
          "internalType": "uint128",
          "name": "_firstPrizeId",
          "type": "uint128"
        },
        {
          "internalType": "uint128",
          "name": "_lastPrizeId",
          "type": "uint128"
        }
      ],
      "name": "createLottery",
      "outputs": [],
      "stateMutability": "nonpayable",
      "type": "function"
    },
    {
      "inputs": [],
      "name": "getLotteryCount",
      "outputs": [
        {
          "internalType": "uint256",
          "name": "",
          "type": "uint256"
        }
      ],
      "stateMutability": "view",
      "type": "function"
    },
    {
      "inputs": [
        {
          "internalType": "uint256",
          "name": "_lotteryId",
          "type": "uint256"
        }
      ],
      "name": "getLotteryInfo",
      "outputs": [
        {
          "components": [
            {
              "internalType": "uint32",
              "name": "startTime",
              "type": "uint32"
            },
            {
              "internalType": "uint32",
              "name": "closeTime",
              "type": "uint32"
            },
            {
              "internalType": "uint32",
              "name": "participantsCount",
              "type": "uint32"
            },
            {
              "internalType": "uint32",
              "name": "maxTickets",
              "type": "uint32"
            },
            {
              "internalType": "uint32",
              "name": "maxTicketsPerUser",
              "type": "uint32"
            },
            {
              "internalType": "uint32",
              "name": "numberOfTicketsSold",
              "type": "uint32"
            },
            {
              "internalType": "enum Lottery.Status",
              "name": "status",
              "type": "uint8"
            },
            {
              "internalType": "contract INFT",
              "name": "nftContract",
              "type": "address"
            },
            {
              "internalType": "uint128",
              "name": "firstPrizeId",
              "type": "uint128"
            },
            {
              "internalType": "uint128",
              "name": "lastPrizeId",
              "type": "uint128"
            },
            {
              "internalType": "uint256",
              "name": "lotteryID",
              "type": "uint256"
            },
            {
              "internalType": "uint256",
              "name": "ticketCostPoints",
              "type": "uint256"
            },
            {
              "internalType": "uint256",
              "name": "ticketCostTokens",
              "type": "uint256"
            }
          ],
          "internalType": "struct Lottery.LotteryInfo",
          "name": "",
          "type": "tuple"
        }
      ],
      "stateMutability": "view",
      "type": "function"
    },
    {
      "inputs": [
        {
          "internalType": "uint256",
          "name": "_lotteryId",
          "type": "uint256"
        }
      ],
      "name": "getLotteryTicketCount",
      "outputs": [
        {
          "internalType": "uint256",
          "name": "",
          "type": "uint256"
        }
      ],
      "stateMutability": "view",
      "type": "function"
    },
    {
      "inputs": [
        {
          "internalType": "uint256",
          "name": "_lotteryId",
          "type": "uint256"
        },
        {
          "internalType": "uint256",
          "name": "_from",
          "type": "uint256"
        },
        {
          "internalType": "uint256",
          "name": "_to",
          "type": "uint256"
        }
      ],
      "name": "getLotteryTickets",
      "outputs": [
        {
          "internalType": "address[]",
          "name": "",
          "type": "address[]"
        }
      ],
      "stateMutability": "view",
      "type": "function"
    },
    {
      "inputs": [
        {
          "internalType": "uint256",
          "name": "_lotteryId",
          "type": "uint256"
        }
      ],
      "name": "getParticipantsCount",
      "outputs": [
        {
          "internalType": "uint32",
          "name": "",
          "type": "uint32"
        }
      ],
      "stateMutability": "view",
      "type": "function"
    },
    {
      "inputs": [
        {
          "internalType": "bytes32",
          "name": "role",
          "type": "bytes32"
        }
      ],
      "name": "getRoleAdmin",
      "outputs": [
        {
          "internalType": "bytes32",
          "name": "",
          "type": "bytes32"
        }
      ],
      "stateMutability": "view",
      "type": "function"
    },
    {
      "inputs": [
        {
          "internalType": "uint256",
          "name": "_lotteryId",
          "type": "uint256"
        },
        {
          "internalType": "address",
          "name": "_user",
          "type": "address"
        }
      ],
      "name": "getTicketCountPerUser",
      "outputs": [
        {
          "internalType": "uint256",
          "name": "",
          "type": "uint256"
        }
      ],
      "stateMutability": "view",
      "type": "function"
    },
    {
      "inputs": [
        {
          "internalType": "uint256",
          "name": "_lotteryId",
          "type": "uint256"
        }
      ],
      "name": "getWhitelist",
      "outputs": [
        {
          "internalType": "address",
          "name": "",
          "type": "address"
        }
      ],
      "stateMutability": "view",
      "type": "function"
    },
    {
      "inputs": [
        {
          "internalType": "bytes32",
          "name": "role",
          "type": "bytes32"
        },
        {
          "internalType": "address",
          "name": "account",
          "type": "address"
        }
      ],
      "name": "grantRole",
      "outputs": [],
      "stateMutability": "nonpayable",
      "type": "function"
    },
    {
      "inputs": [
        {
          "internalType": "bytes32",
          "name": "role",
          "type": "bytes32"
        },
        {
          "internalType": "address",
          "name": "account",
          "type": "address"
        }
      ],
      "name": "hasRole",
      "outputs": [
        {
          "internalType": "bool",
          "name": "",
          "type": "bool"
        }
      ],
      "stateMutability": "view",
      "type": "function"
    },
    {
      "inputs": [
        {
          "internalType": "address",
          "name": "_rewardsContract",
          "type": "address"
        },
        {
          "internalType": "address",
          "name": "_admin",
          "type": "address"
        },
        {
          "internalType": "address",
          "name": "_token",
          "type": "address"
        },
        {
          "internalType": "address",
          "name": "_sageStorage",
          "type": "address"
        }
      ],
      "name": "initialize",
      "outputs": [],
      "stateMutability": "nonpayable",
      "type": "function"
    },
    {
      "inputs": [
        {
          "internalType": "uint256",
          "name": "",
          "type": "uint256"
        }
      ],
      "name": "lotteries",
      "outputs": [
        {
          "internalType": "uint256",
          "name": "",
          "type": "uint256"
        }
      ],
      "stateMutability": "view",
      "type": "function"
    },
    {
      "inputs": [
        {
          "internalType": "uint256",
          "name": "",
          "type": "uint256"
        },
        {
          "internalType": "uint256",
          "name": "",
          "type": "uint256"
        }
      ],
      "name": "lotteryTickets",
      "outputs": [
        {
          "internalType": "address",
          "name": "",
          "type": "address"
        }
      ],
      "stateMutability": "view",
      "type": "function"
    },
    {
      "inputs": [
        {
          "internalType": "uint256",
          "name": "",
          "type": "uint256"
        },
        {
          "internalType": "address",
          "name": "",
          "type": "address"
        }
      ],
      "name": "participants",
      "outputs": [
        {
          "internalType": "uint16",
          "name": "totalTicketsBought",
          "type": "uint16"
        },
        {
          "internalType": "bool",
          "name": "claimedPrize",
          "type": "bool"
        }
      ],
      "stateMutability": "view",
      "type": "function"
    },
    {
      "inputs": [],
      "name": "pause",
      "outputs": [],
      "stateMutability": "nonpayable",
      "type": "function"
    },
    {
      "inputs": [],
      "name": "paused",
      "outputs": [
        {
          "internalType": "bool",
          "name": "",
          "type": "bool"
        }
      ],
      "stateMutability": "view",
      "type": "function"
    },
    {
      "inputs": [
        {
          "internalType": "uint256",
          "name": "_lotteryId",
          "type": "uint256"
        },
        {
          "internalType": "uint256",
          "name": "_tokenId",
          "type": "uint256"
        }
      ],
      "name": "prizeClaimed",
      "outputs": [
        {
          "internalType": "bool",
          "name": "",
          "type": "bool"
        }
      ],
      "stateMutability": "view",
      "type": "function"
    },
    {
      "inputs": [
        {
          "internalType": "uint256",
          "name": "",
          "type": "uint256"
        }
      ],
      "name": "prizeMerkleRoots",
      "outputs": [
        {
          "internalType": "bytes32",
          "name": "",
          "type": "bytes32"
        }
      ],
      "stateMutability": "view",
      "type": "function"
    },
    {
      "inputs": [],
      "name": "proxiableUUID",
      "outputs": [
        {
          "internalType": "bytes32",
          "name": "",
          "type": "bytes32"
        }
      ],
      "stateMutability": "view",
      "type": "function"
    },
    {
      "inputs": [
        {
          "internalType": "uint256",
          "name": "",
          "type": "uint256"
        }
      ],
      "name": "randomSeeds",
      "outputs": [
        {
          "internalType": "uint256",
          "name": "",
          "type": "uint256"
        }
      ],
      "stateMutability": "view",
      "type": "function"
    },
    {
      "inputs": [
        {
          "internalType": "uint256",
          "name": "_lotteryId",
          "type": "uint256"
        },
        {
          "internalType": "uint256",
          "name": "_randomNumber",
          "type": "uint256"
        }
      ],
      "name": "receiveRandomNumber",
      "outputs": [],
      "stateMutability": "nonpayable",
      "type": "function"
    },
    {
      "inputs": [
        {
          "internalType": "address",
          "name": "_assetOwner",
          "type": "address"
        },
        {
          "internalType": "uint256",
          "name": "_lotteryId",
          "type": "uint256"
        },
        {
          "internalType": "uint256",
          "name": "_amount",
          "type": "uint256"
        }
      ],
      "name": "refund",
      "outputs": [],
      "stateMutability": "nonpayable",
      "type": "function"
    },
    {
      "inputs": [
        {
          "internalType": "address[]",
          "name": "_owners",
          "type": "address[]"
        },
        {
          "internalType": "uint256",
          "name": "_lotteryId",
          "type": "uint256"
        },
        {
          "internalType": "uint256[]",
          "name": "_amounts",
          "type": "uint256[]"
        }
      ],
      "name": "refundBatch",
      "outputs": [],
      "stateMutability": "nonpayable",
      "type": "function"
    },
    {
      "inputs": [
        {
          "internalType": "uint256",
          "name": "",
          "type": "uint256"
        },
        {
          "internalType": "address",
          "name": "",
          "type": "address"
        }
      ],
      "name": "refunds",
      "outputs": [
        {
          "internalType": "uint256",
          "name": "",
          "type": "uint256"
        }
      ],
      "stateMutability": "view",
      "type": "function"
    },
    {
      "inputs": [
        {
          "internalType": "bytes32",
          "name": "role",
          "type": "bytes32"
        },
        {
          "internalType": "address",
          "name": "account",
          "type": "address"
        }
      ],
      "name": "renounceRole",
      "outputs": [],
      "stateMutability": "nonpayable",
      "type": "function"
    },
    {
      "inputs": [
        {
          "internalType": "uint256",
          "name": "_lotteryId",
          "type": "uint256"
        }
      ],
      "name": "requestRandomNumber",
      "outputs": [],
      "stateMutability": "nonpayable",
      "type": "function"
    },
    {
      "inputs": [
        {
          "internalType": "bytes32",
          "name": "role",
          "type": "bytes32"
        },
        {
          "internalType": "address",
          "name": "account",
          "type": "address"
        }
      ],
      "name": "revokeRole",
      "outputs": [],
      "stateMutability": "nonpayable",
      "type": "function"
    },
    {
      "inputs": [],
      "name": "rewardsContract",
      "outputs": [
        {
          "internalType": "contract IRewards",
          "name": "",
          "type": "address"
        }
      ],
      "stateMutability": "view",
      "type": "function"
    },
    {
      "inputs": [
        {
          "internalType": "uint256",
          "name": "_lotteryId",
          "type": "uint256"
        },
        {
          "internalType": "uint32",
          "name": "_maxTickets",
          "type": "uint32"
        }
      ],
      "name": "setMaxTickets",
      "outputs": [],
      "stateMutability": "nonpayable",
      "type": "function"
    },
    {
      "inputs": [
        {
          "internalType": "uint256",
          "name": "_lotteryId",
          "type": "uint256"
        },
        {
          "internalType": "uint32",
          "name": "_maxTicketsPerUser",
          "type": "uint32"
        }
      ],
      "name": "setMaxTicketsPerUser",
      "outputs": [],
      "stateMutability": "nonpayable",
      "type": "function"
    },
    {
      "inputs": [
        {
          "internalType": "uint256",
          "name": "_lotteryId",
          "type": "uint256"
        },
        {
          "internalType": "bytes32",
          "name": "_root",
          "type": "bytes32"
        }
      ],
      "name": "setPrizeMerkleRoot",
      "outputs": [],
      "stateMutability": "nonpayable",
      "type": "function"
    },
    {
      "inputs": [
        {
          "internalType": "address",
          "name": "_IRandomNumberGenerator",
          "type": "address"
        }
      ],
      "name": "setRandomGenerator",
      "outputs": [],
      "stateMutability": "nonpayable",
      "type": "function"
    },
    {
      "inputs": [
        {
          "internalType": "address",
          "name": "_rewardsContract",
          "type": "address"
        }
      ],
      "name": "setRewardsContract",
      "outputs": [],
      "stateMutability": "nonpayable",
      "type": "function"
    },
    {
      "inputs": [
        {
          "internalType": "address",
          "name": "_signer",
          "type": "address"
        }
      ],
      "name": "setSignerAddress",
      "outputs": [],
      "stateMutability": "nonpayable",
      "type": "function"
    },
    {
      "inputs": [
        {
          "internalType": "address",
          "name": "_token",
          "type": "address"
        }
      ],
      "name": "setToken",
      "outputs": [],
      "stateMutability": "nonpayable",
      "type": "function"
    },
    {
      "inputs": [
        {
          "internalType": "uint256",
          "name": "_lotteryId",
          "type": "uint256"
        },
        {
          "internalType": "address",
          "name": "_whitelist",
          "type": "address"
        }
      ],
      "name": "setWhitelist",
      "outputs": [],
      "stateMutability": "nonpayable",
      "type": "function"
    },
    {
      "inputs": [
        {
          "internalType": "bytes4",
          "name": "interfaceId",
          "type": "bytes4"
        }
      ],
      "name": "supportsInterface",
      "outputs": [
        {
          "internalType": "bool",
          "name": "",
          "type": "bool"
        }
      ],
      "stateMutability": "view",
      "type": "function"
    },
    {
      "inputs": [],
      "name": "token",
      "outputs": [
        {
          "internalType": "contract IERC20",
          "name": "",
          "type": "address"
        }
      ],
      "stateMutability": "view",
      "type": "function"
    },
    {
      "inputs": [],
      "name": "unpause",
      "outputs": [],
      "stateMutability": "nonpayable",
      "type": "function"
    },
    {
      "inputs": [
        {
          "internalType": "uint256",
          "name": "lotteryId",
          "type": "uint256"
        },
        {
          "internalType": "uint256",
          "name": "_ticketCostPoints",
          "type": "uint256"
        },
        {
          "internalType": "uint256",
          "name": "_ticketCostTokens",
          "type": "uint256"
        },
        {
          "internalType": "uint32",
          "name": "_startTime",
          "type": "uint32"
        },
        {
          "internalType": "uint32",
          "name": "_closeTime",
          "type": "uint32"
        },
        {
          "internalType": "contract INFT",
          "name": "_nftContract",
          "type": "address"
        },
        {
          "internalType": "uint16",
          "name": "_maxTickets",
          "type": "uint16"
        },
        {
          "internalType": "enum Lottery.Status",
          "name": "_status",
          "type": "uint8"
        },
        {
          "internalType": "uint128",
          "name": "_firstPrizeId",
          "type": "uint128"
        },
        {
          "internalType": "uint128",
          "name": "_lastPrizeId",
          "type": "uint128"
        }
      ],
      "name": "updateLottery",
      "outputs": [],
      "stateMutability": "nonpayable",
      "type": "function"
    },
    {
      "inputs": [
        {
          "internalType": "address",
          "name": "newImplementation",
          "type": "address"
        }
      ],
      "name": "upgradeTo",
      "outputs": [],
      "stateMutability": "nonpayable",
      "type": "function"
    },
    {
      "inputs": [
        {
          "internalType": "address",
          "name": "newImplementation",
          "type": "address"
        },
        {
          "internalType": "bytes",
          "name": "data",
          "type": "bytes"
        }
      ],
      "name": "upgradeToAndCall",
      "outputs": [],
      "stateMutability": "payable",
      "type": "function"
    },
    {
      "inputs": [
        {
          "internalType": "uint256",
          "name": "",
          "type": "uint256"
        }
      ],
      "name": "whitelists",
      "outputs": [
        {
          "internalType": "address",
          "name": "",
          "type": "address"
        }
      ],
      "stateMutability": "view",
      "type": "function"
    },
    {
      "inputs": [
        {
          "internalType": "address",
          "name": "_to",
          "type": "address"
        },
        {
          "internalType": "uint256",
          "name": "_amount",
          "type": "uint256"
        }
      ],
      "name": "withdraw",
      "outputs": [],
      "stateMutability": "nonpayable",
      "type": "function"
    }
  ],
  "bytecode": "0x60a06040523060805234801561001457600080fd5b50608051614ef161004c600039600081816111ce0152818161120e0152818161168e015281816116ce01526118000152614ef16000f3fe6080604052600436106102ff5760003560e01c80637350ab2c11610190578063d225428f116100dc578063f3fef3a311610095578063f8c8765e1161006f578063f8c8765e14610a3e578063f90328d514610a5e578063fc0c546a14610a9a578063fe4d5add14610abb57600080fd5b8063f3fef3a3146109ae578063f4f46e35146109ce578063f5f48998146109ee57600080fd5b8063d225428f146108d2578063d547741f146108f2578063d89da28614610912578063db2c0fd114610932578063dfa0dfa51461096e578063eb1ea5211461098e57600080fd5b806396db752a11610149578063b1eb96c911610123578063b1eb96c914610829578063bf4002b214610849578063c11ab61514610869578063d098a2f0146108a457600080fd5b806396db752a146107b05780639b7fecc3146107e7578063a217fddf1461081457600080fd5b80637350ab2c146106ee57806376b3c8a81461070e5780638456cb591461073b5780638627df461461075057806391d148541461077057806394b352041461079057600080fd5b80633659cfe61161024f5780634a0044671161020857806350612da6116101e257806350612da61461068157806352d1902d146106a15780635c975abb146106b65780636a6be315146106ce57600080fd5b80634a0044671461062e5780634bc19fee1461064e5780634f1ef2861461066e57600080fd5b80633659cfe6146105385780633f4ba83a1461055857806340cf23d91461056d5780634538f297146105b5578063454cc4bc146105d557806349c0de881461060e57600080fd5b806318fd8903116102bc578063248a9ca311610296578063248a9ca3146104b25780632f2ff15d146104e25780632f9aa1fe1461050257806336568abe1461051857600080fd5b806318fd89031461042b578063220cce971461044b578063236804001461048457600080fd5b806301ffc9a71461030457806302e060c614610339578063046dc1661461039b5780630b9f1c02146103bd5780631398e076146103dd578063144fa6d71461040b575b600080fd5b34801561031057600080fd5b5061032461031f366004614144565b610af2565b60405190151581526020015b60405180910390f35b34801561034557600080fd5b50610381610354366004614183565b61013860209081526000928352604080842090915290825290205461ffff81169062010000900460ff1682565b6040805161ffff9093168352901515602083015201610330565b3480156103a757600080fd5b506103bb6103b63660046141b3565b610b29565b005b3480156103c957600080fd5b506103bb6103d836600461420d565b610be5565b3480156103e957600080fd5b506103fd6103f83660046142ba565b610dfb565b604051908152602001610330565b34801561041757600080fd5b506103bb6104263660046141b3565b610e1d565b34801561043757600080fd5b506103bb6104463660046142d3565b610ed0565b34801561045757600080fd5b506101325461046c906001600160a01b031681565b6040516001600160a01b039091168152602001610330565b34801561049057600080fd5b506103fd61049f3660046142ba565b61013a6020526000908152604090205481565b3480156104be57600080fd5b506103fd6104cd3660046142ba565b60009081526065602052604090206001015490565b3480156104ee57600080fd5b506103bb6104fd366004614183565b61111c565b34801561050e57600080fd5b50610133546103fd565b34801561052457600080fd5b506103bb610533366004614183565b611146565b34801561054457600080fd5b506103bb6105533660046141b3565b6111c4565b34801561056457600080fd5b506103bb6112a3565b34801561057957600080fd5b506103fd610588366004614183565b6000918252610138602090815260408084206001600160a01b0393909316845291905290205461ffff1690565b3480156105c157600080fd5b506103bb6105d03660046142ba565b61133d565b3480156105e157600080fd5b506103fd6105f0366004614183565b61013960209081526000928352604080842090915290825290205481565b34801561061a57600080fd5b5061046c610629366004614308565b61147e565b34801561063a57600080fd5b506103bb61064936600461432a565b6114b7565b34801561065a57600080fd5b506103bb6106693660046141b3565b61157b565b6103bb61067c36600461439d565b611684565b34801561068d57600080fd5b506103bb61069c366004614308565b611750565b3480156106ad57600080fd5b506103fd6117f3565b3480156106c257600080fd5b5060fb5460ff16610324565b3480156106da57600080fd5b506103bb6106e936600461432a565b6118a6565b3480156106fa57600080fd5b506103bb610709366004614487565b6119e1565b34801561071a57600080fd5b5061072e6107293660046142ba565b611bdc565b6040516103309190614520565b34801561074757600080fd5b506103bb611d4a565b34801561075c57600080fd5b506103bb61076b366004614308565b611de2565b34801561077c57600080fd5b5061032461078b366004614183565b61232f565b34801561079c57600080fd5b506103bb6107ab36600461462b565b61235a565b3480156107bc57600080fd5b5061046c6107cb3660046142ba565b600090815261013560205260409020546001600160a01b031690565b3480156107f357600080fd5b506108076108023660046146a3565b6126c0565b60405161033091906146cf565b34801561082057600080fd5b506103fd600081565b34801561083557600080fd5b506103bb6108443660046142ba565b6127ac565b34801561085557600080fd5b506103bb61086436600461432a565b612a32565b34801561087557600080fd5b506103fd6108843660046142ba565b60009081526101346020526040902054600160a01b900463ffffffff1690565b3480156108b057600080fd5b506103fd6108bf3660046142ba565b6101366020526000908152604090205481565b3480156108de57600080fd5b506103bb6108ed36600461471c565b612af6565b3480156108fe57600080fd5b506103bb61090d366004614183565b612e2e565b34801561091e57600080fd5b506103bb61092d366004614183565b612e53565b34801561093e57600080fd5b5061032461094d366004614308565b60009182526101376020908152604080842092845291905290205460ff1690565b34801561097a57600080fd5b506103bb6109893660046141b3565b612f12565b34801561099a57600080fd5b506103bb6109a9366004614308565b612fc5565b3480156109ba57600080fd5b506103bb6109c93660046147e2565b6130e5565b3480156109da57600080fd5b506103bb6109e936600461489d565b6131ed565b3480156109fa57600080fd5b50610a29610a093660046142ba565b60009081526101346020526040902054600160401b900463ffffffff1690565b60405163ffffffff9091168152602001610330565b348015610a4a57600080fd5b506103bb610a59366004614968565b613290565b348015610a6a57600080fd5b50610324610a79366004614308565b61013760209081526000928352604080842090915290825290205460ff1681565b348015610aa657600080fd5b506101305461046c906001600160a01b031681565b348015610ac757600080fd5b5061046c610ad63660046142ba565b610135602052600090815260409020546001600160a01b031681565b60006001600160e01b03198216637965db0b60e01b1480610b2357506301ffc9a760e01b6001600160e01b03198316145b92915050565b61012d54604051632474521560e21b8152600060048201523360248201526001600160a01b03909116906391d1485490604401602060405180830381865afa158015610b79573d6000803e3d6000fd5b505050506040513d601f19601f82011682018060405250810190610b9d91906149c4565b610bc25760405162461bcd60e51b8152600401610bb9906149e6565b60405180910390fd5b61012f80546001600160a01b0319166001600160a01b0392909216919091179055565b61012d54604051632474521560e21b8152600060048201523360248201526001600160a01b03909116906391d1485490604401602060405180830381865afa158015610c35573d6000803e3d6000fd5b505050506040513d601f19601f82011682018060405250810190610c5991906149c4565b610c755760405162461bcd60e51b8152600401610bb9906149e6565b868660008263ffffffff1611610cc25760405162461bcd60e51b8152602060048201526012602482015271496e76616c69642073746172742074696d6560701b6044820152606401610bb9565b8163ffffffff168163ffffffff1611610ced5760405162461bcd60e51b8152600401610bb990614a10565b60008c8152610134602052604090208054600482018d9055600582018c90556001820180546001600160a01b038b166001600160a01b0319909116179055600160601b61ffff89160263ffffffff60601b1963ffffffff8c81166401000000000267ffffffffffffffff19909416908e161792909217918216811783558791839160ff60c01b19166cff0000000000000000ffffffff60601b1990911617600160c01b836003811115610da257610da26144e8565b02179055506001600160801b03848116600160801b02908616176002820155856003811115610dd357610dd36144e8565b6040518e90600080516020614e5583398151915290600090a350505050505050505050505050565b6101338181548110610e0c57600080fd5b600091825260209091200154905081565b61012d54604051632474521560e21b8152600060048201523360248201526001600160a01b03909116906391d1485490604401602060405180830381865afa158015610e6d573d6000803e3d6000fd5b505050506040513d601f19601f82011682018060405250810190610e9191906149c4565b610ead5760405162461bcd60e51b8152600401610bb9906149e6565b61013080546001600160a01b0319166001600160a01b0392909216919091179055565b60fb5460ff1615610ef35760405162461bcd60e51b8152600401610bb990614a53565b60008281526101346020526040902081610f405760405162461bcd60e51b815260206004820152600e60248201526d043616e277420726566756e6420360941b6044820152606401610bb9565b60008154600160c01b900460ff166003811115610f5f57610f5f6144e8565b03610fa45760405162461bcd60e51b8152602060048201526015602482015274496e76616c6964206c6f747465727920737461746560581b6044820152606401610bb9565b6000838152610139602090815260408083206001600160a01b03881684529091529020548211156110215760405162461bcd60e51b815260206004820152602160248201527f43616e277420726566756e642074686520616d6f756e742072657175657374656044820152601960fa1b6064820152608401610bb9565b6000838152610139602090815260408083206001600160a01b038816845290915281208054849290611054908490614a93565b90915550506101305460405163a9059cbb60e01b81526001600160a01b038681166004830152602482018590529091169063a9059cbb906044016020604051808303816000875af11580156110ad573d6000803e3d6000fd5b505050506040513d601f19601f820116820180604052508101906110d191906149c4565b50836001600160a01b0316837f7ca5472b7ea78c2c0141c5a12ee6d170cf4ce8ed06be3d22c8252ddfc7a6a2c48460405161110e91815260200190565b60405180910390a350505050565b60008281526065602052604090206001015461113781613366565b6111418383613370565b505050565b6001600160a01b03811633146111b65760405162461bcd60e51b815260206004820152602f60248201527f416363657373436f6e74726f6c3a2063616e206f6e6c792072656e6f756e636560448201526e103937b632b9903337b91039b2b63360891b6064820152608401610bb9565b6111c082826133f6565b5050565b6001600160a01b037f000000000000000000000000000000000000000000000000000000000000000016300361120c5760405162461bcd60e51b8152600401610bb990614aaa565b7f00000000000000000000000000000000000000000000000000000000000000006001600160a01b0316611255600080516020614e75833981519152546001600160a01b031690565b6001600160a01b03161461127b5760405162461bcd60e51b8152600401610bb990614af6565b6112848161345d565b604080516000808252602082019092526112a0918391906134ed565b50565b61012d54604051632474521560e21b8152600060048201523360248201526001600160a01b03909116906391d1485490604401602060405180830381865afa1580156112f3573d6000803e3d6000fd5b505050506040513d601f19601f8201168201806040525081019061131791906149c4565b6113335760405162461bcd60e51b8152600401610bb9906149e6565b61133b613658565b565b61012d54604051632474521560e21b8152600060048201523360248201526001600160a01b03909116906391d1485490604401602060405180830381865afa15801561138d573d6000803e3d6000fd5b505050506040513d601f19601f820116820180604052508101906113b191906149c4565b6113cd5760405162461bcd60e51b8152600401610bb9906149e6565b6000818152610134602052604090208054600160401b900463ffffffff16156114385760405162461bcd60e51b815260206004820152601760248201527f4c6f747465727920616c726561647920737461727465640000000000000000006044820152606401610bb9565b805460ff60c01b1916600160c01b9081178083550460ff166003811115611461576114616144e8565b6040518390600080516020614e5583398151915290600090a35050565b61013b602052816000526040600020818154811061149b57600080fd5b6000918252602090912001546001600160a01b03169150829050565b61012d54604051632474521560e21b8152600060048201523360248201526001600160a01b03909116906391d1485490604401602060405180830381865afa158015611507573d6000803e3d6000fd5b505050506040513d601f19601f8201168201806040525081019061152b91906149c4565b6115475760405162461bcd60e51b8152600401610bb9906149e6565b60009182526101346020526040909120805463ffffffff909216600160801b0263ffffffff60801b19909216919091179055565b61012d54604051632474521560e21b8152600060048201523360248201526001600160a01b03909116906391d1485490604401602060405180830381865afa1580156115cb573d6000803e3d6000fd5b505050506040513d601f19601f820116820180604052508101906115ef91906149c4565b61160b5760405162461bcd60e51b8152600401610bb9906149e6565b6001600160a01b0381166116615760405162461bcd60e51b815260206004820152601d60248201527f436f6e7472616374732063616e6e6f74206265203020616464726573730000006044820152606401610bb9565b61013180546001600160a01b0319166001600160a01b0392909216919091179055565b6001600160a01b037f00000000000000000000000000000000000000000000000000000000000000001630036116cc5760405162461bcd60e51b8152600401610bb990614aaa565b7f00000000000000000000000000000000000000000000000000000000000000006001600160a01b0316611715600080516020614e75833981519152546001600160a01b031690565b6001600160a01b03161461173b5760405162461bcd60e51b8152600401610bb990614af6565b6117448261345d565b6111c0828260016134ed565b61012d54604051632474521560e21b8152600060048201523360248201526001600160a01b03909116906391d1485490604401602060405180830381865afa1580156117a0573d6000803e3d6000fd5b505050506040513d601f19601f820116820180604052508101906117c491906149c4565b6117e05760405162461bcd60e51b8152600401610bb9906149e6565b6000918252610136602052604090912055565b6000306001600160a01b037f000000000000000000000000000000000000000000000000000000000000000016146118935760405162461bcd60e51b815260206004820152603860248201527f555550535570677261646561626c653a206d757374206e6f742062652063616c60448201527f6c6564207468726f7567682064656c656761746563616c6c00000000000000006064820152608401610bb9565b50600080516020614e7583398151915290565b61012d54604051632474521560e21b8152600060048201523360248201526001600160a01b03909116906391d1485490604401602060405180830381865afa1580156118f6573d6000803e3d6000fd5b505050506040513d601f19601f8201168201806040525081019061191a91906149c4565b6119365760405162461bcd60e51b8152600401610bb9906149e6565b600082815261013460205260409020805463ffffffff166119905760405162461bcd60e51b8152602060048201526014602482015273131bdd1d195c9e481a59081b9bdd08199bdd5b9960621b6044820152606401610bb9565b805463ffffffff908116908316116119ba5760405162461bcd60e51b8152600401610bb990614a10565b805463ffffffff9092166401000000000267ffffffff000000001990921691909117905550565b604080513360208083018290528284018990528351808403850181526060840185528051908201207f19457468657265756d205369676e6564204d6573736167653a0a3332000000006080850152609c808501919091528451808503909101815260bc840180865281519183019190912061012f5460dc601f890185900490940286018401909652868252929492936001600160a01b0390931692611aa292859291899189918291018382808284376000920191909152506136eb92505050565b6001600160a01b031614611aec5760405162461bcd60e51b8152602060048201526011602482015270496e76616c6964207369676e617475726560781b6044820152606401610bb9565b6101325460405163f662781d60e01b81526001600160a01b0384811660048301528992169063f662781d90602401602060405180830381865afa158015611b37573d6000803e3d6000fd5b505050506040513d601f19601f82011682018060405250810190611b5b9190614b42565b1015611bc95761013254604051630259ab7760e61b81526001600160a01b038481166004830152602482018a90529091169063966addc090604401600060405180830381600087803b158015611bb057600080fd5b505af1158015611bc4573d6000803e3d6000fd5b505050505b611bd38686611de2565b50505050505050565b604080516101a081018252600080825260208201819052918101829052606081018290526080810182905260a0810182905260c0810182905260e0810182905261010081018290526101208101829052610140810182905261016081018290526101808101919091526000828152610134602090815260409182902082516101a081018452815463ffffffff80821683526401000000008204811694830194909452600160401b8104841694820194909452600160601b840483166060820152600160801b840483166080820152600160a01b840490921660a0830152909160c0830190600160c01b900460ff166003811115611cdb57611cdb6144e8565b6003811115611cec57611cec6144e8565b815260018201546001600160a01b0316602082015260028201546001600160801b038082166040840152600160801b90910416606082015260038201546080820152600482015460a082015260059091015460c09091015292915050565b61012d54604051632474521560e21b8152600060048201523360248201526001600160a01b03909116906391d1485490604401602060405180830381865afa158015611d9a573d6000803e3d6000fd5b505050506040513d601f19601f82011682018060405250810190611dbe91906149c4565b611dda5760405162461bcd60e51b8152600401610bb9906149e6565b61133b61370f565b60fb5460ff1615611e055760405162461bcd60e51b8152600401610bb990614a53565b6000828152610135602052604090205482906001600160a01b031615611ee45760008181526101356020526040908190205490516320c18e6b60e21b8152336004820152602481018390526001600160a01b039091169063830639ac90604401602060405180830381865afa158015611e82573d6000803e3d6000fd5b505050506040513d601f19601f82011682018060405250810190611ea691906149c4565b611ee45760405162461bcd60e51b815260206004820152600f60248201526e139bdd081dda1a5d195b1a5cdd1959608a1b6044820152606401610bb9565b600083815261013460205260408120805490919081908190600160601b900463ffffffff1615611f7357835463ffffffff600160601b8204811691611f32918991600160a01b900416614b5b565b1115611f735760405162461bcd60e51b815260206004820152601060248201526f151a58dad95d1cc81cdbdb19081bdd5d60821b6044820152606401610bb9565b60008781526101386020908152604080832033845290915290208054855461ffff90911690600160801b900463ffffffff1615612011578554600160801b900463ffffffff16611fc38983614b5b565b11156120115760405162461bcd60e51b815260206004820181905260248201527f43616e277420627579207468697320616d6f756e74206f66207469636b6574736044820152606401610bb9565b85544263ffffffff90911611801590612039575085544264010000000090910463ffffffff16115b8015612062575060018654600160c01b900460ff16600381111561205f5761205f6144e8565b14155b6120a45760405162461bcd60e51b81526020600482015260136024820152722637ba3a32b93c9034b9903737ba1037b832b760691b6044820152606401610bb9565b60048601546120b39089614b73565b935083156120c7576120c53385613767565b505b60058601548654909350889087906014906120f0908490600160a01b900463ffffffff16614b92565b92506101000a81548163ffffffff021916908363ffffffff16021790555060008311156121cf576121218389614b73565b610130546040516323b872dd60e01b8152336004820152306024820152604481018390529196506001600160a01b0316906323b872dd906064016020604051808303816000875af115801561217a573d6000803e3d6000fd5b505050506040513d601f19601f8201168201806040525081019061219e91906149c4565b50600089815261013960209081526040808320338452909152812080548792906121c9908490614b5b565b90915550505b8060000361226157855486906008906121f490600160401b900463ffffffff16614bba565b825463ffffffff9182166101009390930a928302919092021990911617905560008981526101386020908152604080832033845290915290208254815461ffff19811661ffff9092169182178355845460ff62010000918290041615150262ffffff199091169091171790555b81548890839060009061227990849061ffff16614bdd565b825461ffff9182166101009390930a928302919092021990911617905550600089815261013b60205260408120905b898110156123225781546001810183556000838152602090200180546001600160a01b0319163390811790915582546040518d917fc41bbb54d04f2268c7895b9330f18468c306a3f92698a92c4c86b297873978489161230a91815260200190565b60405180910390a361231b81614bfa565b90506122a8565b5050505050505050505050565b60009182526065602090815260408084206001600160a01b0393909316845291905290205460ff1690565b61012d54604051632474521560e21b8152600060048201523360248201526001600160a01b03909116906391d1485490604401602060405180830381865afa1580156123aa573d6000803e3d6000fd5b505050506040513d601f19601f820116820180604052508101906123ce91906149c4565b6123ea5760405162461bcd60e51b8152600401610bb9906149e6565b868660008263ffffffff16116124375760405162461bcd60e51b8152602060048201526012602482015271496e76616c69642073746172742074696d6560701b6044820152606401610bb9565b8163ffffffff168163ffffffff16116124625760405162461bcd60e51b8152600401610bb990614a10565b610133805460018101825560009182527f92e985329fb94cc1b424ebb0f7f2929b6d27383ca94c0ec71c44fb48bdf96d2c018d9055604080516101a08101825263ffffffff808d1682528b16602082015290810182905261ffff80891660608301528716608082015260a0810182905260c08101828152602001896001600160a01b03168152602001866001600160801b03168152602001856001600160801b031681526020018e81526020018d81526020018c81525090508061013460008f815260200190815260200160002060008201518160000160006101000a81548163ffffffff021916908363ffffffff16021790555060208201518160000160046101000a81548163ffffffff021916908363ffffffff16021790555060408201518160000160086101000a81548163ffffffff021916908363ffffffff160217905550606082015181600001600c6101000a81548163ffffffff021916908363ffffffff16021790555060808201518160000160106101000a81548163ffffffff021916908363ffffffff16021790555060a08201518160000160146101000a81548163ffffffff021916908363ffffffff16021790555060c08201518160000160186101000a81548160ff02191690836003811115612644576126446144e8565b021790555060e08201516001820180546001600160a01b039092166001600160a01b03199092169190911790556101008201516101208301516001600160801b03908116600160801b02911617600282015561014082015160038201556101608201516004820155610180909101516005909101556000610dd3565b606060006126ce8484614a93565b6126d9906001614b5b565b67ffffffffffffffff8111156126f1576126f1614356565b60405190808252806020026020018201604052801561271a578160200160208202803683370190505b509050835b8381116127a157600086815261013b6020526040902080548290811061274757612747614c13565b9060005260206000200160009054906101000a90046001600160a01b031682828151811061277757612777614c13565b6001600160a01b03909216602092830291909101909101528061279981614bfa565b91505061271f565b5090505b9392505050565b61012d54604051632474521560e21b8152600060048201523360248201526001600160a01b03909116906391d1485490604401602060405180830381865afa1580156127fc573d6000803e3d6000fd5b505050506040513d601f19601f8201168201806040525081019061282091906149c4565b61283c5760405162461bcd60e51b8152600401610bb9906149e6565b600081815261013460205260409020805463ffffffff166128945760405162461bcd60e51b8152602060048201526012602482015271125b9d985b1a59081b1bdd1d195c9e481a5960721b6044820152606401610bb9565b80544264010000000090910463ffffffff16106128eb5760405162461bcd60e51b8152602060048201526015602482015274131bdd1d195c9e481a5cc81b9bdd0818db1bdcd959605a1b6044820152606401610bb9565b60008154600160c01b900460ff16600381111561290a5761290a6144e8565b0361295657805460ff60c01b1916600160c11b17808255600160c01b900460ff16600381111561293c5761293c6144e8565b6040518390600080516020614e5583398151915290600090a35b60028154600160c01b900460ff166003811115612975576129756144e8565b146129c25760405162461bcd60e51b815260206004820152601760248201527f4c6f7474657279206d75737420626520636c6f736564210000000000000000006044820152606401610bb9565b61013154604051632cdc85e960e21b8152600481018490526001600160a01b039091169063b37217a4906024016020604051808303816000875af1158015612a0e573d6000803e3d6000fd5b505050506040513d601f19601f820116820180604052508101906111419190614b42565b61012d54604051632474521560e21b8152600060048201523360248201526001600160a01b03909116906391d1485490604401602060405180830381865afa158015612a82573d6000803e3d6000fd5b505050506040513d601f19601f82011682018060405250810190612aa691906149c4565b612ac25760405162461bcd60e51b8152600401610bb9906149e6565b60009182526101346020526040909120805463ffffffff909216600160601b0263ffffffff60601b19909216919091179055565b60fb5460ff1615612b195760405162461bcd60e51b8152600401610bb990614a53565b60008781526101376020908152604080832088845290915290205460ff1615612b8e5760405162461bcd60e51b815260206004820152602160248201527f5061727469636970616e7420616c726561647920636c61696d6564207072697a6044820152606560f81b6064820152608401610bb9565b612c21612bd388888888888080601f0160208091040260200160405190810160405280939291908181526020018383808284376000920191909152506137e092505050565b61013660008a81526020019081526020016000205484848080602002602001604051908101604052809392919081815260200183836020028082843760009201919091525061381992505050565b612c645760405162461bcd60e51b815260206004820152601460248201527324b73b30b634b21036b2b935b63290383937b7b360611b6044820152606401610bb9565b60008781526101346020526040902060058101548015612d2b5760008981526101396020908152604080832033845290915281208054839290612ca8908490614a93565b909155505061013054600183015460405163a9059cbb60e01b81526001600160a01b0391821660048201526024810184905291169063a9059cbb906044016020604051808303816000875af1158015612d05573d6000803e3d6000fd5b505050506040513d601f19601f82011682018060405250810190612d2991906149c4565b505b6000898152610138602090815260408083206001600160a01b03808d168552908352818420805462ff00001916620100001790558c8452610134835281842060019081015461013785528386208d875290945293829020805460ff191690941790935551633349e71f60e21b8152911690819063cd279c7c90612db8908c908c908c908c90600401614c29565b600060405180830381600087803b158015612dd257600080fd5b505af1158015612de6573d6000803e3d6000fd5b5050505087896001600160a01b03168b7f4aa95f981a8337cb337de335b965507da0879c3b49f799d20058e913f5ad2c2660405160405180910390a450505050505050505050565b600082815260656020526040902060010154612e4981613366565b61114183836133f6565b61012d54604051632474521560e21b8152600060048201523360248201526001600160a01b03909116906391d1485490604401602060405180830381865afa158015612ea3573d6000803e3d6000fd5b505050506040513d601f19601f82011682018060405250810190612ec791906149c4565b612ee35760405162461bcd60e51b8152600401610bb9906149e6565b6000918252610135602052604090912080546001600160a01b0319166001600160a01b03909216919091179055565b61012d54604051632474521560e21b8152600060048201523360248201526001600160a01b03909116906391d1485490604401602060405180830381865afa158015612f62573d6000803e3d6000fd5b505050506040513d601f19601f82011682018060405250810190612f8691906149c4565b612fa25760405162461bcd60e51b8152600401610bb9906149e6565b61013280546001600160a01b0319166001600160a01b0392909216919091179055565b610131546001600160a01b031633146130135760405162461bcd60e51b815260206004820152601060248201526f4f6e6c7920524e47206164647265737360801b6044820152606401610bb9565b60008281526101346020526040902060028154600160c01b900460ff166003811115613041576130416144e8565b146130875760405162461bcd60e51b8152602060048201526016602482015275131bdd1d195c9e481b5d5cdd0818994818db1bdcd95960521b6044820152606401610bb9565b805460ff60c01b1916600360c01b178155600083815261013a602052604090208290558054600160c01b900460ff1660038111156130c7576130c76144e8565b6040518490600080516020614e5583398151915290600090a3505050565b61012d54604051632474521560e21b8152600060048201523360248201526001600160a01b03909116906391d1485490604401602060405180830381865afa158015613135573d6000803e3d6000fd5b505050506040513d601f19601f8201168201806040525081019061315991906149c4565b6131755760405162461bcd60e51b8152600401610bb9906149e6565b6101305460405163a9059cbb60e01b81526001600160a01b038481166004830152602482018490529091169063a9059cbb906044016020604051808303816000875af11580156131c9573d6000803e3d6000fd5b505050506040513d601f19601f8201168201806040525081019061114191906149c4565b8251815181146132315760405162461bcd60e51b815260206004820152600f60248201526e57726f6e6720617267756d656e747360881b6044820152606401610bb9565b60005b818110156132895761327985828151811061325157613251614c13565b60200260200101518585848151811061326c5761326c614c13565b6020026020010151610ed0565b61328281614bfa565b9050613234565b5050505050565b600061329c600161382e565b905080156132b4576000805461ff0019166101001790555b6132bc6138bb565b6132c46138e2565b6132cc6138bb565b61013080546001600160a01b038086166001600160a01b03199283161790925561012f8054878416908316179055610132805488841690831617905561012d8054928516929091169190911790558015613289576000805461ff0019169055604051600181527f7f26b83ff96e1f2b6a682f133852f6798a09c465da95921460cefb38474024989060200160405180910390a15050505050565b6112a08133613911565b61337a828261232f565b6111c05760008281526065602090815260408083206001600160a01b03851684529091529020805460ff191660011790556133b23390565b6001600160a01b0316816001600160a01b0316837f2f8788117e7eff1d82e926ec794901d17c78024a50270940304540a733656f0d60405160405180910390a45050565b613400828261232f565b156111c05760008281526065602090815260408083206001600160a01b0385168085529252808320805460ff1916905551339285917ff6391f5c32d9c69d2a47ea670b442974b53935d1edc7fd64eb21e047a839171b9190a45050565b61012d54604051632474521560e21b8152600060048201523360248201526001600160a01b03909116906391d1485490604401602060405180830381865afa1580156134ad573d6000803e3d6000fd5b505050506040513d601f19601f820116820180604052508101906134d191906149c4565b6112a05760405162461bcd60e51b8152600401610bb9906149e6565b7f4910fdfa16fed3260ed0e7147f7cc6da11a60208b5b9406d12a635614ffd91435460ff16156135205761114183613975565b826001600160a01b03166352d1902d6040518163ffffffff1660e01b8152600401602060405180830381865afa92505050801561357a575060408051601f3d908101601f1916820190925261357791810190614b42565b60015b6135dd5760405162461bcd60e51b815260206004820152602e60248201527f45524331393637557067726164653a206e657720696d706c656d656e7461746960448201526d6f6e206973206e6f74205555505360901b6064820152608401610bb9565b600080516020614e75833981519152811461364c5760405162461bcd60e51b815260206004820152602960248201527f45524331393637557067726164653a20756e737570706f727465642070726f786044820152681a58589b195555525160ba1b6064820152608401610bb9565b50611141838383613a11565b60fb5460ff166136a15760405162461bcd60e51b815260206004820152601460248201527314185d5cd8589b194e881b9bdd081c185d5cd95960621b6044820152606401610bb9565b60fb805460ff191690557f5db9ee0a495bf2e6ff9c91a7834c1ba4fdd244a5e8aa4e537bd38aeae4b073aa335b6040516001600160a01b03909116815260200160405180910390a1565b60008060006136fa8585613a3c565b9150915061370781613aaa565b509392505050565b60fb5460ff16156137325760405162461bcd60e51b8152600401610bb990614a53565b60fb805460ff191660011790557f62e78cea01bee320cd4e420270b5ea74000d11b0c9f74754ebdbfc544b05a2586136ce3390565b61013254604051631e961d2760e01b81526001600160a01b038481166004830152602482018490526000921690631e961d27906044016020604051808303816000875af11580156137bc573d6000803e3d6000fd5b505050506040513d601f19601f820116820180604052508101906127a59190614b42565b6000848484846040516020016137f99493929190614cc9565b604051602081830303815290604052805190602001209050949350505050565b6000613826828486613c60565b949350505050565b60008054610100900460ff1615613875578160ff1660011480156138515750303b155b61386d5760405162461bcd60e51b8152600401610bb990614d00565b506000919050565b60005460ff80841691161061389c5760405162461bcd60e51b8152600401610bb990614d00565b506000805460ff191660ff92909216919091179055600190565b919050565b600054610100900460ff1661133b5760405162461bcd60e51b8152600401610bb990614d4e565b600054610100900460ff166139095760405162461bcd60e51b8152600401610bb990614d4e565b61133b613c76565b61391b828261232f565b6111c057613933816001600160a01b03166014613ca9565b61393e836020613ca9565b60405160200161394f929190614d99565b60408051601f198184030181529082905262461bcd60e51b8252610bb991600401614e0e565b6001600160a01b0381163b6139e25760405162461bcd60e51b815260206004820152602d60248201527f455243313936373a206e657720696d706c656d656e746174696f6e206973206e60448201526c1bdd08184818dbdb9d1c9858dd609a1b6064820152608401610bb9565b600080516020614e7583398151915280546001600160a01b0319166001600160a01b0392909216919091179055565b613a1a83613e45565b600082511180613a275750805b1561114157613a368383613e85565b50505050565b6000808251604103613a725760208301516040840151606085015160001a613a6687828585613f79565b94509450505050613aa3565b8251604003613a9b5760208301516040840151613a90868383614066565b935093505050613aa3565b506000905060025b9250929050565b6000816004811115613abe57613abe6144e8565b03613ac65750565b6001816004811115613ada57613ada6144e8565b03613b275760405162461bcd60e51b815260206004820152601860248201527f45434453413a20696e76616c6964207369676e617475726500000000000000006044820152606401610bb9565b6002816004811115613b3b57613b3b6144e8565b03613b885760405162461bcd60e51b815260206004820152601f60248201527f45434453413a20696e76616c6964207369676e6174757265206c656e677468006044820152606401610bb9565b6003816004811115613b9c57613b9c6144e8565b03613bf45760405162461bcd60e51b815260206004820152602260248201527f45434453413a20696e76616c6964207369676e6174757265202773272076616c604482015261756560f01b6064820152608401610bb9565b6004816004811115613c0857613c086144e8565b036112a05760405162461bcd60e51b815260206004820152602260248201527f45434453413a20696e76616c6964207369676e6174757265202776272076616c604482015261756560f01b6064820152608401610bb9565b600082613c6d858461409f565b14949350505050565b600054610100900460ff16613c9d5760405162461bcd60e51b8152600401610bb990614d4e565b60fb805460ff19169055565b60606000613cb8836002614b73565b613cc3906002614b5b565b67ffffffffffffffff811115613cdb57613cdb614356565b6040519080825280601f01601f191660200182016040528015613d05576020820181803683370190505b509050600360fc1b81600081518110613d2057613d20614c13565b60200101906001600160f81b031916908160001a905350600f60fb1b81600181518110613d4f57613d4f614c13565b60200101906001600160f81b031916908160001a9053506000613d73846002614b73565b613d7e906001614b5b565b90505b6001811115613df6576f181899199a1a9b1b9c1cb0b131b232b360811b85600f1660108110613db257613db2614c13565b1a60f81b828281518110613dc857613dc8614c13565b60200101906001600160f81b031916908160001a90535060049490941c93613def81614e21565b9050613d81565b5083156127a55760405162461bcd60e51b815260206004820181905260248201527f537472696e67733a20686578206c656e67746820696e73756666696369656e746044820152606401610bb9565b613e4e81613975565b6040516001600160a01b038216907fbc7cd75a20ee27fd9adebab32041f755214dbc6bffa90cc0225b39da2e5c2d3b90600090a250565b60606001600160a01b0383163b613eed5760405162461bcd60e51b815260206004820152602660248201527f416464726573733a2064656c65676174652063616c6c20746f206e6f6e2d636f6044820152651b9d1c9858dd60d21b6064820152608401610bb9565b600080846001600160a01b031684604051613f089190614e38565b600060405180830381855af49150503d8060008114613f43576040519150601f19603f3d011682016040523d82523d6000602084013e613f48565b606091505b5091509150613f708282604051806060016040528060278152602001614e956027913961410b565b95945050505050565b6000807f7fffffffffffffffffffffffffffffff5d576e7357a4501ddfe92f46681b20a0831115613fb0575060009050600361405d565b8460ff16601b14158015613fc857508460ff16601c14155b15613fd9575060009050600461405d565b6040805160008082526020820180845289905260ff881692820192909252606081018690526080810185905260019060a0016020604051602081039080840390855afa15801561402d573d6000803e3d6000fd5b5050604051601f1901519150506001600160a01b0381166140565760006001925092505061405d565b9150600090505b94509492505050565b6000806001600160ff1b0383168161408360ff86901c601b614b5b565b905061409187828885613f79565b935093505050935093915050565b600081815b84518110156137075760008582815181106140c1576140c1614c13565b602002602001015190508083116140e757600083815260208290526040902092506140f8565b600081815260208490526040902092505b508061410381614bfa565b9150506140a4565b6060831561411a5750816127a5565b82511561412a5782518084602001fd5b8160405162461bcd60e51b8152600401610bb99190614e0e565b60006020828403121561415657600080fd5b81356001600160e01b0319811681146127a557600080fd5b6001600160a01b03811681146112a057600080fd5b6000806040838503121561419657600080fd5b8235915060208301356141a88161416e565b809150509250929050565b6000602082840312156141c557600080fd5b81356127a58161416e565b803563ffffffff811681146138b657600080fd5b803561ffff811681146138b657600080fd5b80356001600160801b03811681146138b657600080fd5b6000806000806000806000806000806101408b8d03121561422d57600080fd5b8a35995060208b0135985060408b0135975061424b60608c016141d0565b965061425960808c016141d0565b955060a08b01356142698161416e565b945061427760c08c016141e4565b935060e08b01356004811061428b57600080fd5b925061429a6101008c016141f6565b91506142a96101208c016141f6565b90509295989b9194979a5092959850565b6000602082840312156142cc57600080fd5b5035919050565b6000806000606084860312156142e857600080fd5b83356142f38161416e565b95602085013595506040909401359392505050565b6000806040838503121561431b57600080fd5b50508035926020909101359150565b6000806040838503121561433d57600080fd5b8235915061434d602084016141d0565b90509250929050565b634e487b7160e01b600052604160045260246000fd5b604051601f8201601f1916810167ffffffffffffffff8111828210171561439557614395614356565b604052919050565b600080604083850312156143b057600080fd5b82356143bb8161416e565b915060208381013567ffffffffffffffff808211156143d957600080fd5b818601915086601f8301126143ed57600080fd5b8135818111156143ff576143ff614356565b614411601f8201601f1916850161436c565b9150808252878482850101111561442757600080fd5b80848401858401376000848284010152508093505050509250929050565b60008083601f84011261445757600080fd5b50813567ffffffffffffffff81111561446f57600080fd5b602083019150836020828501011115613aa357600080fd5b60008060008060006080868803121561449f57600080fd5b853594506020860135935060408601359250606086013567ffffffffffffffff8111156144cb57600080fd5b6144d788828901614445565b969995985093965092949392505050565b634e487b7160e01b600052602160045260246000fd5b6004811061451c57634e487b7160e01b600052602160045260246000fd5b9052565b815163ffffffff1681526101a081016020830151614546602084018263ffffffff169052565b50604083015161455e604084018263ffffffff169052565b506060830151614576606084018263ffffffff169052565b50608083015161458e608084018263ffffffff169052565b5060a08301516145a660a084018263ffffffff169052565b5060c08301516145b960c08401826144fe565b5060e08301516145d460e08401826001600160a01b03169052565b50610100838101516001600160801b038116848301525050610120838101516001600160801b0381168483015250506101408381015190830152610160808401519083015261018092830151929091019190915290565b6000806000806000806000806000806101408b8d03121561464b57600080fd5b8a35995060208b0135985060408b0135975061466960608c016141d0565b965061467760808c016141d0565b955060a08b01356146878161416e565b945061469560c08c016141e4565b935061428b60e08c016141e4565b6000806000606084860312156146b857600080fd5b505081359360208301359350604090920135919050565b6020808252825182820181905260009190848201906040850190845b818110156147105783516001600160a01b0316835292840192918401916001016146eb565b50909695505050505050565b600080600080600080600060a0888a03121561473757600080fd5b8735965060208801356147498161416e565b955060408801359450606088013567ffffffffffffffff8082111561476d57600080fd5b6147798b838c01614445565b909650945060808a013591508082111561479257600080fd5b818a0191508a601f8301126147a657600080fd5b8135818111156147b557600080fd5b8b60208260051b85010111156147ca57600080fd5b60208301945080935050505092959891949750929550565b600080604083850312156147f557600080fd5b82356148008161416e565b946020939093013593505050565b600067ffffffffffffffff82111561482857614828614356565b5060051b60200190565b600082601f83011261484357600080fd5b813560206148586148538361480e565b61436c565b82815260059290921b8401810191818101908684111561487757600080fd5b8286015b84811015614892578035835291830191830161487b565b509695505050505050565b6000806000606084860312156148b257600080fd5b833567ffffffffffffffff808211156148ca57600080fd5b818601915086601f8301126148de57600080fd5b813560206148ee6148538361480e565b82815260059290921b8401810191818101908a84111561490d57600080fd5b948201945b838610156149345785356149258161416e565b82529482019490820190614912565b975050870135945050604086013591508082111561495157600080fd5b5061495e86828701614832565b9150509250925092565b6000806000806080858703121561497e57600080fd5b84356149898161416e565b935060208501356149998161416e565b925060408501356149a98161416e565b915060608501356149b98161416e565b939692955090935050565b6000602082840312156149d657600080fd5b815180151581146127a557600080fd5b60208082526010908201526f41646d696e2063616c6c73206f6e6c7960801b604082015260600190565b60208082526023908201527f436c6f73652074696d65206d7573742062652061667465722073746172742074604082015262696d6560e81b606082015260800190565b60208082526010908201526f14185d5cd8589b194e881c185d5cd95960821b604082015260600190565b634e487b7160e01b600052601160045260246000fd5b600082821015614aa557614aa5614a7d565b500390565b6020808252602c908201527f46756e6374696f6e206d7573742062652063616c6c6564207468726f7567682060408201526b19195b1959d85d1958d85b1b60a21b606082015260800190565b6020808252602c908201527f46756e6374696f6e206d7573742062652063616c6c6564207468726f7567682060408201526b6163746976652070726f787960a01b606082015260800190565b600060208284031215614b5457600080fd5b5051919050565b60008219821115614b6e57614b6e614a7d565b500190565b6000816000190483118215151615614b8d57614b8d614a7d565b500290565b600063ffffffff808316818516808303821115614bb157614bb1614a7d565b01949350505050565b600063ffffffff808316818103614bd357614bd3614a7d565b6001019392505050565b600061ffff808316818516808303821115614bb157614bb1614a7d565b600060018201614c0c57614c0c614a7d565b5060010190565b634e487b7160e01b600052603260045260246000fd5b6001600160a01b0385168152602081018490526060604082018190528101829052818360808301376000818301608090810191909152601f909201601f191601019392505050565b60005b83811015614c8c578181015183820152602001614c74565b83811115613a365750506000910152565b60008151808452614cb5816020860160208601614c71565b601f01601f19169290920160200192915050565b84815260018060a01b0384166020820152826040820152608060608201526000614cf66080830184614c9d565b9695505050505050565b6020808252602e908201527f496e697469616c697a61626c653a20636f6e747261637420697320616c72656160408201526d191e481a5b9a5d1a585b1a5e995960921b606082015260800190565b6020808252602b908201527f496e697469616c697a61626c653a20636f6e7472616374206973206e6f74206960408201526a6e697469616c697a696e6760a81b606082015260800190565b7f416363657373436f6e74726f6c3a206163636f756e7420000000000000000000815260008351614dd1816017850160208801614c71565b7001034b99036b4b9b9b4b733903937b6329607d1b6017918401918201528351614e02816028840160208801614c71565b01602801949350505050565b6020815260006127a56020830184614c9d565b600081614e3057614e30614a7d565b506000190190565b60008251614e4a818460208701614c71565b919091019291505056fea3aca9ae20a0379d4094b84c749cbed6584ab20f0b71af75f63f6615d879c939360894a13ba1a3210667c828492db98dca3e2076cc3735a920a3ca505d382bbc416464726573733a206c6f772d6c6576656c2064656c65676174652063616c6c206661696c6564a2646970667358221220f46b09111c9799f7b690ed04444db64e798577c00e5a55f0212c606da26428b364736f6c634300080e0033",
  "linkReferences": {},
  "deployedLinkReferences": {}
}