{
  "_format": "hh-sol-artifact-1",
  "contractName": "Lottery",
  "sourceName": "contracts/Lottery/Lottery.sol",
  "abi": [
    {
      "anonymous": false,
      "inputs": [
        {
          "indexed": false,
          "internalType": "address",
          "name": "previousAdmin",
          "type": "address"
        },
        {
          "indexed": false,
          "internalType": "address",
          "name": "newAdmin",
          "type": "address"
        }
      ],
      "name": "AdminChanged",
      "type": "event"
    },
    {
      "anonymous": false,
      "inputs": [
        {
          "indexed": true,
          "internalType": "address",
          "name": "beacon",
          "type": "address"
        }
      ],
      "name": "BeaconUpgraded",
      "type": "event"
    },
    {
      "anonymous": false,
      "inputs": [
        {
          "indexed": false,
          "internalType": "uint8",
          "name": "version",
          "type": "uint8"
        }
      ],
      "name": "Initialized",
      "type": "event"
    },
    {
      "anonymous": false,
      "inputs": [
        {
          "indexed": true,
          "internalType": "uint256",
          "name": "lotteryId",
          "type": "uint256"
        },
        {
          "indexed": true,
          "internalType": "enum Lottery.Status",
          "name": "status",
          "type": "uint8"
        }
      ],
      "name": "LotteryStatusChanged",
      "type": "event"
    },
    {
      "anonymous": false,
      "inputs": [
        {
          "indexed": false,
          "internalType": "address",
          "name": "account",
          "type": "address"
        }
      ],
      "name": "Paused",
      "type": "event"
    },
    {
      "anonymous": false,
      "inputs": [
        {
          "indexed": true,
          "internalType": "uint256",
          "name": "lotteryId",
          "type": "uint256"
        },
        {
          "indexed": true,
          "internalType": "address",
          "name": "participantAddress",
          "type": "address"
        },
        {
          "indexed": true,
          "internalType": "uint256",
          "name": "prizeId",
          "type": "uint256"
        }
      ],
      "name": "PrizeClaimed",
      "type": "event"
    },
    {
      "anonymous": false,
      "inputs": [
        {
          "indexed": true,
          "internalType": "uint256",
          "name": "lotteryId",
          "type": "uint256"
        },
        {
          "indexed": true,
          "internalType": "bytes32",
          "name": "requestId",
          "type": "bytes32"
        }
      ],
      "name": "RequestNumbers",
      "type": "event"
    },
    {
      "anonymous": false,
      "inputs": [
        {
          "indexed": true,
          "internalType": "bytes32",
          "name": "requestId",
          "type": "bytes32"
        }
      ],
      "name": "ResponseReceived",
      "type": "event"
    },
    {
      "anonymous": false,
      "inputs": [
        {
          "indexed": true,
          "internalType": "bytes32",
          "name": "role",
          "type": "bytes32"
        },
        {
          "indexed": true,
          "internalType": "bytes32",
          "name": "previousAdminRole",
          "type": "bytes32"
        },
        {
          "indexed": true,
          "internalType": "bytes32",
          "name": "newAdminRole",
          "type": "bytes32"
        }
      ],
      "name": "RoleAdminChanged",
      "type": "event"
    },
    {
      "anonymous": false,
      "inputs": [
        {
          "indexed": true,
          "internalType": "bytes32",
          "name": "role",
          "type": "bytes32"
        },
        {
          "indexed": true,
          "internalType": "address",
          "name": "account",
          "type": "address"
        },
        {
          "indexed": true,
          "internalType": "address",
          "name": "sender",
          "type": "address"
        }
      ],
      "name": "RoleGranted",
      "type": "event"
    },
    {
      "anonymous": false,
      "inputs": [
        {
          "indexed": true,
          "internalType": "bytes32",
          "name": "role",
          "type": "bytes32"
        },
        {
          "indexed": true,
          "internalType": "address",
          "name": "account",
          "type": "address"
        },
        {
          "indexed": true,
          "internalType": "address",
          "name": "sender",
          "type": "address"
        }
      ],
      "name": "RoleRevoked",
      "type": "event"
    },
    {
      "anonymous": false,
      "inputs": [
        {
          "indexed": false,
          "internalType": "address",
          "name": "operator",
          "type": "address"
        },
        {
          "indexed": false,
          "internalType": "uint256",
          "name": "lotteryId",
          "type": "uint256"
        },
        {
          "indexed": false,
          "internalType": "uint256",
          "name": "priceOfTicket",
          "type": "uint256"
        }
      ],
      "name": "TicketCostChanged",
      "type": "event"
    },
    {
      "anonymous": false,
      "inputs": [
        {
          "indexed": true,
          "internalType": "uint256",
          "name": "lotteryId",
          "type": "uint256"
        },
        {
          "indexed": false,
          "internalType": "uint256",
          "name": "ticketNumber",
          "type": "uint256"
        },
        {
          "indexed": true,
          "internalType": "address",
          "name": "participantAddress",
          "type": "address"
        }
      ],
      "name": "TicketSold",
      "type": "event"
    },
    {
      "anonymous": false,
      "inputs": [
        {
          "indexed": false,
          "internalType": "address",
          "name": "account",
          "type": "address"
        }
      ],
      "name": "Unpaused",
      "type": "event"
    },
    {
      "anonymous": false,
      "inputs": [
        {
          "indexed": true,
          "internalType": "address",
          "name": "implementation",
          "type": "address"
        }
      ],
      "name": "Upgraded",
      "type": "event"
    },
    {
      "inputs": [],
      "name": "DEFAULT_ADMIN_ROLE",
      "outputs": [
        {
          "internalType": "bytes32",
          "name": "",
          "type": "bytes32"
        }
      ],
      "stateMutability": "view",
      "type": "function"
    },
    {
      "inputs": [
        {
          "internalType": "uint256",
          "name": "_lotteryId",
          "type": "uint256"
        },
        {
          "internalType": "uint256",
          "name": "_numberOfTicketsToBuy",
          "type": "uint256"
        }
      ],
      "name": "buyTickets",
      "outputs": [],
      "stateMutability": "nonpayable",
      "type": "function"
    },
    {
      "inputs": [
        {
          "internalType": "uint256",
          "name": "_points",
          "type": "uint256"
        },
        {
          "internalType": "uint256",
          "name": "_lotteryId",
          "type": "uint256"
        },
        {
          "internalType": "uint256",
          "name": "_numberOfTicketsToBuy",
          "type": "uint256"
        },
        {
          "internalType": "bytes",
          "name": "_sig",
          "type": "bytes"
        }
      ],
      "name": "buyTicketsWithSignedMessage",
      "outputs": [],
      "stateMutability": "nonpayable",
      "type": "function"
    },
    {
      "inputs": [
        {
          "internalType": "uint256",
          "name": "_lotteryId",
          "type": "uint256"
        }
      ],
      "name": "cancelLottery",
      "outputs": [],
      "stateMutability": "nonpayable",
      "type": "function"
    },
    {
      "inputs": [
        {
          "internalType": "uint256",
          "name": "_lotteryId",
          "type": "uint256"
        },
        {
          "internalType": "uint32",
          "name": "_time",
          "type": "uint32"
        }
      ],
      "name": "changeCloseTime",
      "outputs": [],
      "stateMutability": "nonpayable",
      "type": "function"
    },
    {
      "inputs": [
        {
          "internalType": "uint256",
          "name": "_lotteryId",
          "type": "uint256"
        },
        {
          "internalType": "address",
          "name": "_winner",
          "type": "address"
        },
        {
          "internalType": "uint256",
          "name": "_prizeId",
          "type": "uint256"
        },
        {
          "internalType": "string",
          "name": "_uri",
          "type": "string"
        },
        {
          "internalType": "bytes32[]",
          "name": "_proof",
          "type": "bytes32[]"
        }
      ],
      "name": "claimPrize",
      "outputs": [],
      "stateMutability": "nonpayable",
      "type": "function"
    },
    {
      "inputs": [
        {
          "internalType": "uint256",
          "name": "",
          "type": "uint256"
        },
        {
          "internalType": "uint256",
          "name": "",
          "type": "uint256"
        }
      ],
      "name": "claimedPrizes",
      "outputs": [
        {
          "internalType": "bool",
          "name": "",
          "type": "bool"
        }
      ],
      "stateMutability": "view",
      "type": "function"
    },
    {
      "inputs": [
        {
          "internalType": "uint256",
          "name": "_lotteryId",
          "type": "uint256"
        },
        {
          "internalType": "uint256",
          "name": "_ticketCostPoints",
          "type": "uint256"
        },
        {
          "internalType": "uint256",
          "name": "_ticketCostTokens",
          "type": "uint256"
        },
        {
          "internalType": "uint32",
          "name": "_startTime",
          "type": "uint32"
        },
        {
          "internalType": "uint32",
          "name": "_closeTime",
          "type": "uint32"
        },
        {
          "internalType": "contract INFT",
          "name": "_nftContract",
          "type": "address"
        },
        {
          "internalType": "bool",
          "name": "_isRefundable",
          "type": "bool"
        },
        {
          "internalType": "uint16",
          "name": "_maxTickets",
          "type": "uint16"
        },
        {
          "internalType": "uint16",
          "name": "_maxTicketsPerUser",
          "type": "uint16"
        },
        {
          "internalType": "uint128",
          "name": "_firstPrizeId",
          "type": "uint128"
        },
        {
          "internalType": "uint128",
          "name": "_lastPrizeId",
          "type": "uint128"
        }
      ],
      "name": "createLottery",
      "outputs": [],
      "stateMutability": "nonpayable",
      "type": "function"
    },
    {
      "inputs": [],
      "name": "getLotteryCount",
      "outputs": [
        {
          "internalType": "uint256",
          "name": "",
          "type": "uint256"
        }
      ],
      "stateMutability": "view",
      "type": "function"
    },
    {
      "inputs": [
        {
          "internalType": "uint256",
          "name": "_lotteryId",
          "type": "uint256"
        }
      ],
      "name": "getLotteryInfo",
      "outputs": [
        {
          "components": [
            {
              "internalType": "uint32",
              "name": "startTime",
              "type": "uint32"
            },
            {
              "internalType": "uint32",
              "name": "closeTime",
              "type": "uint32"
            },
            {
              "internalType": "uint32",
              "name": "participantsCount",
              "type": "uint32"
            },
            {
              "internalType": "uint32",
              "name": "maxTickets",
              "type": "uint32"
            },
            {
              "internalType": "uint32",
              "name": "maxTicketsPerUser",
              "type": "uint32"
            },
            {
              "internalType": "uint32",
              "name": "numberOfTicketsSold",
              "type": "uint32"
            },
            {
              "internalType": "enum Lottery.Status",
              "name": "status",
              "type": "uint8"
            },
            {
              "internalType": "contract INFT",
              "name": "nftContract",
              "type": "address"
            },
            {
              "internalType": "bool",
              "name": "isRefundable",
              "type": "bool"
            },
            {
              "internalType": "uint128",
              "name": "firstPrizeId",
              "type": "uint128"
            },
            {
              "internalType": "uint128",
              "name": "lastPrizeId",
              "type": "uint128"
            },
            {
              "internalType": "uint256",
              "name": "lotteryID",
              "type": "uint256"
            },
            {
              "internalType": "uint256",
              "name": "ticketCostPoints",
              "type": "uint256"
            },
            {
              "internalType": "uint256",
              "name": "ticketCostTokens",
              "type": "uint256"
            }
          ],
          "internalType": "struct Lottery.LotteryInfo",
          "name": "",
          "type": "tuple"
        }
      ],
      "stateMutability": "view",
      "type": "function"
    },
    {
      "inputs": [
        {
          "internalType": "uint256",
          "name": "_lotteryId",
          "type": "uint256"
        }
      ],
      "name": "getLotteryTicketCount",
      "outputs": [
        {
          "internalType": "uint256",
          "name": "",
          "type": "uint256"
        }
      ],
      "stateMutability": "view",
      "type": "function"
    },
    {
      "inputs": [
        {
          "internalType": "uint256",
          "name": "_lotteryId",
          "type": "uint256"
        },
        {
          "internalType": "uint256",
          "name": "_from",
          "type": "uint256"
        },
        {
          "internalType": "uint256",
          "name": "_to",
          "type": "uint256"
        }
      ],
      "name": "getLotteryTickets",
      "outputs": [
        {
          "internalType": "address[]",
          "name": "",
          "type": "address[]"
        }
      ],
      "stateMutability": "view",
      "type": "function"
    },
    {
      "inputs": [
        {
          "internalType": "uint256",
          "name": "_lotteryId",
          "type": "uint256"
        }
      ],
      "name": "getParticipantsCount",
      "outputs": [
        {
          "internalType": "uint32",
          "name": "",
          "type": "uint32"
        }
      ],
      "stateMutability": "view",
      "type": "function"
    },
    {
      "inputs": [
        {
          "internalType": "bytes32",
          "name": "role",
          "type": "bytes32"
        }
      ],
      "name": "getRoleAdmin",
      "outputs": [
        {
          "internalType": "bytes32",
          "name": "",
          "type": "bytes32"
        }
      ],
      "stateMutability": "view",
      "type": "function"
    },
    {
      "inputs": [
        {
          "internalType": "uint256",
          "name": "_lotteryId",
          "type": "uint256"
        },
        {
          "internalType": "address",
          "name": "_user",
          "type": "address"
        }
      ],
      "name": "getTicketCountPerUser",
      "outputs": [
        {
          "internalType": "uint256",
          "name": "",
          "type": "uint256"
        }
      ],
      "stateMutability": "view",
      "type": "function"
    },
    {
      "inputs": [
        {
          "internalType": "uint256",
          "name": "_lotteryId",
          "type": "uint256"
        }
      ],
      "name": "getWhitelist",
      "outputs": [
        {
          "internalType": "address",
          "name": "",
          "type": "address"
        }
      ],
      "stateMutability": "view",
      "type": "function"
    },
    {
      "inputs": [
        {
          "internalType": "bytes32",
          "name": "role",
          "type": "bytes32"
        },
        {
          "internalType": "address",
          "name": "account",
          "type": "address"
        }
      ],
      "name": "grantRole",
      "outputs": [],
      "stateMutability": "nonpayable",
      "type": "function"
    },
    {
      "inputs": [
        {
          "internalType": "bytes32",
          "name": "role",
          "type": "bytes32"
        },
        {
          "internalType": "address",
          "name": "account",
          "type": "address"
        }
      ],
      "name": "hasRole",
      "outputs": [
        {
          "internalType": "bool",
          "name": "",
          "type": "bool"
        }
      ],
      "stateMutability": "view",
      "type": "function"
    },
    {
      "inputs": [
        {
          "internalType": "address",
          "name": "_rewardsContract",
          "type": "address"
        },
        {
          "internalType": "address",
          "name": "_admin",
          "type": "address"
        },
        {
          "internalType": "address",
          "name": "_token",
          "type": "address"
        },
        {
          "internalType": "address",
          "name": "_sageStorage",
          "type": "address"
        }
      ],
      "name": "initialize",
      "outputs": [],
      "stateMutability": "nonpayable",
      "type": "function"
    },
    {
      "inputs": [
        {
          "internalType": "uint256",
          "name": "",
          "type": "uint256"
        }
      ],
      "name": "lotteries",
      "outputs": [
        {
          "internalType": "uint256",
          "name": "",
          "type": "uint256"
        }
      ],
      "stateMutability": "view",
      "type": "function"
    },
    {
      "inputs": [
        {
          "internalType": "uint256",
          "name": "",
          "type": "uint256"
        },
        {
          "internalType": "uint256",
          "name": "",
          "type": "uint256"
        }
      ],
      "name": "lotteryTickets",
      "outputs": [
        {
          "internalType": "address",
          "name": "",
          "type": "address"
        }
      ],
      "stateMutability": "view",
      "type": "function"
    },
    {
      "inputs": [
        {
          "internalType": "uint256",
          "name": "",
          "type": "uint256"
        },
        {
          "internalType": "address",
          "name": "",
          "type": "address"
        }
      ],
      "name": "participants",
      "outputs": [
        {
          "internalType": "uint16",
          "name": "totalTicketsBought",
          "type": "uint16"
        },
        {
          "internalType": "bool",
          "name": "claimedPrize",
          "type": "bool"
        }
      ],
      "stateMutability": "view",
      "type": "function"
    },
    {
      "inputs": [],
      "name": "pause",
      "outputs": [],
      "stateMutability": "nonpayable",
      "type": "function"
    },
    {
      "inputs": [],
      "name": "paused",
      "outputs": [
        {
          "internalType": "bool",
          "name": "",
          "type": "bool"
        }
      ],
      "stateMutability": "view",
      "type": "function"
    },
    {
      "inputs": [
        {
          "internalType": "uint256",
          "name": "_lotteryId",
          "type": "uint256"
        },
        {
          "internalType": "uint256",
          "name": "_tokenId",
          "type": "uint256"
        }
      ],
      "name": "prizeClaimed",
      "outputs": [
        {
          "internalType": "bool",
          "name": "",
          "type": "bool"
        }
      ],
      "stateMutability": "view",
      "type": "function"
    },
    {
      "inputs": [
        {
          "internalType": "uint256",
          "name": "",
          "type": "uint256"
        }
      ],
      "name": "prizeMerkleRoots",
      "outputs": [
        {
          "internalType": "bytes32",
          "name": "",
          "type": "bytes32"
        }
      ],
      "stateMutability": "view",
      "type": "function"
    },
    {
      "inputs": [],
      "name": "proxiableUUID",
      "outputs": [
        {
          "internalType": "bytes32",
          "name": "",
          "type": "bytes32"
        }
      ],
      "stateMutability": "view",
      "type": "function"
    },
    {
      "inputs": [
        {
          "internalType": "uint256",
          "name": "",
          "type": "uint256"
        }
      ],
      "name": "randomSeeds",
      "outputs": [
        {
          "internalType": "uint256",
          "name": "",
          "type": "uint256"
        }
      ],
      "stateMutability": "view",
      "type": "function"
    },
    {
      "inputs": [
        {
          "internalType": "uint256",
          "name": "_lotteryId",
          "type": "uint256"
        },
        {
          "internalType": "bytes32",
          "name": "_requestId",
          "type": "bytes32"
        },
        {
          "internalType": "uint256",
          "name": "_randomNumber",
          "type": "uint256"
        }
      ],
      "name": "receiveRandomNumber",
      "outputs": [],
      "stateMutability": "nonpayable",
      "type": "function"
    },
    {
      "inputs": [
        {
          "internalType": "bytes32",
          "name": "role",
          "type": "bytes32"
        },
        {
          "internalType": "address",
          "name": "account",
          "type": "address"
        }
      ],
      "name": "renounceRole",
      "outputs": [],
      "stateMutability": "nonpayable",
      "type": "function"
    },
    {
      "inputs": [
        {
          "internalType": "uint256",
          "name": "_lotteryId",
          "type": "uint256"
        }
      ],
      "name": "requestRandomNumber",
      "outputs": [],
      "stateMutability": "nonpayable",
      "type": "function"
    },
    {
      "inputs": [
        {
          "internalType": "bytes32",
          "name": "role",
          "type": "bytes32"
        },
        {
          "internalType": "address",
          "name": "account",
          "type": "address"
        }
      ],
      "name": "revokeRole",
      "outputs": [],
      "stateMutability": "nonpayable",
      "type": "function"
    },
    {
      "inputs": [],
      "name": "rewardsContract",
      "outputs": [
        {
          "internalType": "contract IRewards",
          "name": "",
          "type": "address"
        }
      ],
      "stateMutability": "view",
      "type": "function"
    },
    {
      "inputs": [
        {
          "internalType": "uint256",
          "name": "_lotteryId",
          "type": "uint256"
        },
        {
          "internalType": "uint32",
          "name": "_maxTickets",
          "type": "uint32"
        }
      ],
      "name": "setMaxTickets",
      "outputs": [],
      "stateMutability": "nonpayable",
      "type": "function"
    },
    {
      "inputs": [
        {
          "internalType": "uint256",
          "name": "_lotteryId",
          "type": "uint256"
        },
        {
          "internalType": "uint32",
          "name": "_maxTicketsPerUser",
          "type": "uint32"
        }
      ],
      "name": "setMaxTicketsPerUser",
      "outputs": [],
      "stateMutability": "nonpayable",
      "type": "function"
    },
    {
      "inputs": [
        {
          "internalType": "uint256",
          "name": "_lotteryId",
          "type": "uint256"
        },
        {
          "internalType": "bytes32",
          "name": "_root",
          "type": "bytes32"
        }
      ],
      "name": "setPrizeMerkleRoot",
      "outputs": [],
      "stateMutability": "nonpayable",
      "type": "function"
    },
    {
      "inputs": [
        {
          "internalType": "address",
          "name": "_IRandomNumberGenerator",
          "type": "address"
        }
      ],
      "name": "setRandomGenerator",
      "outputs": [],
      "stateMutability": "nonpayable",
      "type": "function"
    },
    {
      "inputs": [
        {
          "internalType": "address",
          "name": "_rewardsContract",
          "type": "address"
        }
      ],
      "name": "setRewardsContract",
      "outputs": [],
      "stateMutability": "nonpayable",
      "type": "function"
    },
    {
      "inputs": [
        {
          "internalType": "address",
          "name": "_signer",
          "type": "address"
        }
      ],
      "name": "setSignerAddress",
      "outputs": [],
      "stateMutability": "nonpayable",
      "type": "function"
    },
    {
      "inputs": [
        {
          "internalType": "address",
          "name": "_token",
          "type": "address"
        }
      ],
      "name": "setToken",
      "outputs": [],
      "stateMutability": "nonpayable",
      "type": "function"
    },
    {
      "inputs": [
        {
          "internalType": "uint256",
          "name": "_lotteryId",
          "type": "uint256"
        },
        {
          "internalType": "address",
          "name": "_whitelist",
          "type": "address"
        }
      ],
      "name": "setWhitelist",
      "outputs": [],
      "stateMutability": "nonpayable",
      "type": "function"
    },
    {
      "inputs": [
        {
          "internalType": "bytes4",
          "name": "interfaceId",
          "type": "bytes4"
        }
      ],
      "name": "supportsInterface",
      "outputs": [
        {
          "internalType": "bool",
          "name": "",
          "type": "bool"
        }
      ],
      "stateMutability": "view",
      "type": "function"
    },
    {
      "inputs": [],
      "name": "token",
      "outputs": [
        {
          "internalType": "contract IERC20",
          "name": "",
          "type": "address"
        }
      ],
      "stateMutability": "view",
      "type": "function"
    },
    {
      "inputs": [],
      "name": "unpause",
      "outputs": [],
      "stateMutability": "nonpayable",
      "type": "function"
    },
    {
      "inputs": [
        {
          "internalType": "uint256",
          "name": "lotteryId",
          "type": "uint256"
        },
        {
          "internalType": "uint256",
          "name": "_ticketCostPoints",
          "type": "uint256"
        },
        {
          "internalType": "uint256",
          "name": "_ticketCostTokens",
          "type": "uint256"
        },
        {
          "internalType": "uint32",
          "name": "_startTime",
          "type": "uint32"
        },
        {
          "internalType": "uint32",
          "name": "_closeTime",
          "type": "uint32"
        },
        {
          "internalType": "contract INFT",
          "name": "_nftContract",
          "type": "address"
        },
        {
          "internalType": "uint16",
          "name": "_maxTickets",
          "type": "uint16"
        },
        {
          "internalType": "enum Lottery.Status",
          "name": "_status",
          "type": "uint8"
        },
        {
          "internalType": "bool",
          "name": "_isRefundable",
          "type": "bool"
        },
        {
          "internalType": "uint128",
          "name": "_firstPrizeId",
          "type": "uint128"
        },
        {
          "internalType": "uint128",
          "name": "_lastPrizeId",
          "type": "uint128"
        }
      ],
      "name": "updateLottery",
      "outputs": [],
      "stateMutability": "nonpayable",
      "type": "function"
    },
    {
      "inputs": [
        {
          "internalType": "address",
          "name": "newImplementation",
          "type": "address"
        }
      ],
      "name": "upgradeTo",
      "outputs": [],
      "stateMutability": "nonpayable",
      "type": "function"
    },
    {
      "inputs": [
        {
          "internalType": "address",
          "name": "newImplementation",
          "type": "address"
        },
        {
          "internalType": "bytes",
          "name": "data",
          "type": "bytes"
        }
      ],
      "name": "upgradeToAndCall",
      "outputs": [],
      "stateMutability": "payable",
      "type": "function"
    },
    {
      "inputs": [
        {
          "internalType": "uint256",
          "name": "",
          "type": "uint256"
        }
      ],
      "name": "whitelists",
      "outputs": [
        {
          "internalType": "address",
          "name": "",
          "type": "address"
        }
      ],
      "stateMutability": "view",
      "type": "function"
    },
    {
      "inputs": [
        {
          "internalType": "address",
          "name": "_to",
          "type": "address"
        },
        {
          "internalType": "uint256",
          "name": "_amount",
          "type": "uint256"
        }
      ],
      "name": "withdraw",
      "outputs": [],
      "stateMutability": "nonpayable",
      "type": "function"
    }
  ],
  "bytecode": "0x60a08060405234610031573060805261421090816100378239608051818181610a0201528181610dde0152610e6d0152f35b600080fdfe60806040526004361015610013575b600080fd5b60003560e01c806301ffc9a7146103de57806302e060c6146103d5578063046dc166146103cc5780631398e076146103c3578063144fa6d7146103ba578063220cce97146103b157806323680400146103a8578063248a9ca31461039f57806328990683146103965780632f2ff15d1461038d5780632f9aa1fe1461038457806336568abe1461037b5780633659cfe6146103725780633f4ba83a1461036957806340cf23d9146103605780634538f2971461035757806349c0de881461034e5780634a004467146103455780634bc19fee1461033c5780634f1ef2861461033357806350612da61461032a57806352d1902d146103215780635c975abb146103185780636a6be3151461030f5780637350ab2c1461030657806376b3c8a8146102fd5780637ccbe57b146102f45780638456cb59146102eb5780638627df46146102e257806391d14854146102d957806396db752a146102d05780639b7fecc3146102c7578063a217fddf146102be578063a6c76bdf146102b5578063b1eb96c9146102ac578063bf4002b2146102a3578063c11ab6151461029a578063d098a2f014610291578063d225428f14610288578063d547741f1461027f578063d89da28614610276578063db2c0fd114610249578063dfa0dfa51461026d578063f3fef3a314610264578063f5f489981461025b578063f8c8765e14610252578063f90328d514610249578063fc0c546a146102405763fe4d5add1461023857600080fd5b61000e61155b565b5061000e611c07565b5061000e61199d565b5061000e611abc565b5061000e611a85565b5061000e611a3e565b5061000e6119de565b5061000e61192e565b5061000e6118eb565b5061000e611866565b5061000e611838565b5061000e611801565b5061000e611792565b5061000e611758565b5061000e6116df565b5061000e6116c2565b5061000e6115d5565b5061000e61155b565b5061000e611504565b5061000e61141b565b5061000e6113e4565b5061000e611366565b5061000e61127c565b5061000e610fb7565b5061000e610f47565b5061000e610f23565b5061000e610e59565b5061000e610e10565b5061000e610d7a565b5061000e610c33565b5061000e610bc4565b5061000e610b37565b5061000e610afd565b5061000e610aa6565b5061000e610a6f565b5061000e6109cc565b5061000e610935565b5061000e610915565b5061000e610844565b5061000e610728565b5061000e6106f8565b5061000e6106ca565b5061000e61069f565b5061000e610634565b5061000e6105e1565b5061000e6104aa565b5061000e610446565b503461000e57602036600319011261000e5760043563ffffffff60e01b811680910361000e57602090637965db0b60e01b8114908115610424575b506040519015158152f35b6301ffc9a760e01b14905038610419565b6001600160a01b0381160361000e57565b503461000e57604036600319011261000e57604061049060243561046981610435565b600435600052610138602052826000209060018060a01b0316600052602052604060002090565b5460ff82519161ffff8116835260101c1615156020820152f35b503461000e57602036600319011261000e576105676004356104cb81610435565b61012d546105459061052b906020906001600160a01b03165b60405182810190610507816104f93385612770565b03601f198101835282610ce7565b519020906040518080958194633d70e7e560e11b8352600483019190602083019252565b03915afa908115610597575b600091610569575b506127b4565b61012f80546001600160a01b0319166001600160a01b03909216919091179055565b005b61058a915060203d8111610590575b6105828183610ce7565b81019061279f565b3861053f565b503d610578565b61059f611fa7565b610537565b50634e487b7160e01b600052603260045260246000fd5b80548210156105d4575b60005260206000200190600090565b6105dc6105a4565b6105c5565b503461000e57602036600319011261000e5760043561013390815481101561000e576020916000527f92e985329fb94cc1b424ebb0f7f2929b6d27383ca94c0ec71c44fb48bdf96d2c0154604051908152f35b503461000e57602036600319011261000e5761056760043561065581610435565b61012d546106729061052b906020906001600160a01b03166104e4565b61013080546001600160a01b0319166001600160a01b03909216919091179055565b600091031261000e57565b503461000e57600036600319011261000e57610132546040516001600160a01b039091168152602090f35b503461000e57602036600319011261000e576004356000526101396020526020604060002054604051908152f35b503461000e57602036600319011261000e5760043560005260656020526020600160406000200154604051908152f35b503461000e57606036600319011261000e5761013154600435906001600160a01b0316330361080c578060009182526101346020526107de60408320610781600260ff835460c01c1660048110156107ff575b146135d1565b6024357f8e372cc311d12a5394f598c3c41b36e9775c6cb51b99fde2aaca7978a8ec713f85604051a2805460ff60c01b1916600360c01b1781556044356107d384600052610139602052604060002090565b555460c01c60ff1690565b6107e781611175565b6040519160008051602061419b8339815191528484a3f35b61080761115e565b61077b565b60405162461bcd60e51b815260206004820152601060248201526f4f6e6c7920524e47206164647265737360801b6044820152606490fd5b503461000e5760408060031936011261000e576004359060243561086781610435565b600092808452606560205261088160018486200154611c32565b808452606560209081528385206001600160a01b03841660009081529152604090205460ff16156108b157505051f35b808452606560209081528385206001600160a01b0384166000908152915260409020805460ff19166001179055825133926001600160a01b031691907f2f8788117e7eff1d82e926ec794901d17c78024a50270940304540a733656f0d908690a451f35b503461000e57600036600319011261000e57602061013354604051908152f35b503461000e57604036600319011261000e5760243561095381610435565b336001600160a01b0382160361096f5761056790600435611df2565b60405162461bcd60e51b815260206004820152602f60248201527f416363657373436f6e74726f6c3a2063616e206f6e6c792072656e6f756e636560448201526e103937b632b9903337b91039b2b63360891b6064820152608490fd5b503461000e57602036600319011261000e576105676004356109ed81610435565b610a6161052b60206001600160a01b03610a477f00000000000000000000000000000000000000000000000000000000000000008216610a2f30821415611e82565b826000805160206141bb833981519152541614611ee3565b61012d541660405182810190610507816104f93385612770565b610a69611f44565b90612061565b503461000e57600036600319011261000e5761012d54610a9e9061052b906020906001600160a01b03166104e4565b61056761411f565b503461000e57604036600319011261000e57602061ffff610af3602435610acc81610435565b600435600052610138845260406000209060018060a01b0316600052602052604060002090565b5416604051908152f35b503461000e57602036600319011261000e5761012d54610b2c9061052b906020906001600160a01b03166104e4565b61056760043561366f565b503461000e57604036600319011261000e5760243560043560005261013a6020526040600020805482101561000e57602091610b72916105bb565b905460405160039290921b1c6001600160a01b03168152f35b6024359063ffffffff8216820361000e57565b6064359063ffffffff8216820361000e57565b6084359063ffffffff8216820361000e57565b503461000e57604036600319011261000e57610567610be1610b8b565b61012d54610bfe9061052b906020906001600160a01b03166104e4565b600435600090815261013460205260409020805463ffffffff60801b191660809290921b63ffffffff60801b16919091179055565b503461000e57602036600319011261000e57610567600435610c5481610435565b61012d54610c719061052b906020906001600160a01b03166104e4565b6128d9565b50634e487b7160e01b600052604160045260246000fd5b67ffffffffffffffff8111610ca157604052565b610ca9610c76565b604052565b6101c0810190811067ffffffffffffffff821117610ca157604052565b6060810190811067ffffffffffffffff821117610ca157604052565b90601f8019910116810190811067ffffffffffffffff821117610ca157604052565b60405190610d1682610cae565b565b60209067ffffffffffffffff8111610d36575b601f01601f19160190565b610d3e610c76565b610d2b565b929192610d4f82610d18565b91610d5d6040519384610ce7565b82948184528183011161000e578281602093846000960137010152565b50604036600319011261000e57600435610d9381610435565b6024359067ffffffffffffffff821161000e573660238301121561000e57610dc8610567923690602481600401359101610d43565b90610e0b61052b60206001600160a01b03610a477f00000000000000000000000000000000000000000000000000000000000000008216610a2f30821415611e82565b612124565b503461000e57604036600319011261000e5761012d54610e3f9061052b906020906001600160a01b03166104e4565b610567602435600435600052610136602052604060002055565b503461000e57600036600319011261000e577f00000000000000000000000000000000000000000000000000000000000000006001600160a01b03163003610eb8576040516000805160206141bb8339815191528152602090f35b0390f35b60405162461bcd60e51b815260206004820152603860248201527f555550535570677261646561626c653a206d757374206e6f742062652063616c60448201527f6c6564207468726f7567682064656c656761746563616c6c00000000000000006064820152608490fd5b503461000e57600036600319011261000e57602060ff60fb54166040519015158152f35b503461000e57604036600319011261000e57610567610f64610b8b565b61012d54610f819061052b906020906001600160a01b03166104e4565b60043561284b565b9181601f8401121561000e5782359167ffffffffffffffff831161000e576020838186019501011161000e57565b503461000e57608036600319011261000e5760043560643567ffffffffffffffff811161000e5761103361102d610ff5611062933690600401610f89565b60408051336020820190815291810188905291939291611025919061101d81606081016104f9565b519020612d6e565b923691610d43565b90612a9d565b61012f54611051906001600160a01b03165b6001600160a01b031690565b6001600160a01b0390911614612a5d565b61013254611078906001600160a01b0316611045565b60405163f662781d60e01b81523360048201528290602081602481865afa908115611151575b600091611123575b50106110bb575b610567604435602435613736565b803b1561000e57604051630259ab7760e61b815233600482015260248101929092526000908290604490829084905af18015611116575b6110fd575b806110ad565b8061110a61111092610c8d565b80610694565b386110f7565b61111e611fa7565b6110f2565b611144915060203d811161114a575b61113c8183610ce7565b810190611f98565b386110a6565b503d611132565b611159611fa7565b61109e565b50634e487b7160e01b600052602160045260246000fd5b6004111561117f57565b610d1661115e565b9060048210156111945752565b61119c61115e565b52565b815163ffffffff1681526101c08101929160208181015163ffffffff169083015260408181015163ffffffff169083015260608181015163ffffffff169083015260808181015163ffffffff169083015260a08181015163ffffffff169083015261121260c082015160c0840190611187565b60e0818101516001600160a01b03169083015261010081810151151590830152610120818101516001600160801b031690830152610140818101516001600160801b031690830152610160808201519083015261018080820151908301526101a080910151910152565b503461000e57602036600319011261000e5760405161129a81610cae565b6101a06000918281528260208201528260408201528260608201528260808201528260a08201528260c08201528260e082015282610100820152826101208201528261014082015282610160820152826101808201520152610eb461131461130f600435600052610134602052604060002090565b61294f565b6040519182918261119f565b8015150361000e57565b6101043590610d1682611320565b61012435906001600160801b038216820361000e57565b61014435906001600160801b038216820361000e57565b503461000e5761016036600319011261000e57611381610b9e565b611389610bb1565b9060a4359161139783610435565b60c4356113a381611320565b60e43561ffff91828216820361000e5761010435928316830361000e57610567956113cc611338565b946113d561134f565b96604435602435600435612fe9565b503461000e57600036600319011261000e5761012d546114139061052b906020906001600160a01b03166104e4565b6105676140d9565b503461000e57604036600319011261000e5761056760043561144260ff60fb5416156136f7565b600081815261013560205260409020546001600160a01b0316611469575b6024359061396b565b6114d461149761104561104561148a85600052610135602052604060002090565b546001600160a01b031690565b6040516320c18e6b60e21b81523360048201526024810184905290602090829060449082905afa9081156114f7575b6000916114d9575b5061378e565b611460565b6114f1915060203d8111610590576105828183610ce7565b386114ce565b6114ff611fa7565b6114c6565b503461000e57604036600319011261000e57602060ff61154f60243561152981610435565b6004356000526065845260406000209060018060a01b0316600052602052604060002090565b54166040519015158152f35b503461000e57602036600319011261000e57600435600052610135602052602060018060a01b0360406000205416604051908152f35b6020908160408183019282815285518094520193019160005b8281106115b8575050505090565b83516001600160a01b0316855293810193928101926001016115aa565b503461000e57606036600319011261000e576004356024356044358181106116b5575b600182820360011981116116a8575b019261161284613616565b9260409461162286519586610ce7565b808552611631601f1991613616565b019060209136838701375b8381111561165157855180610eb48782611591565b8061169e6116856116706116a3948a600089815261013a8952206105bb565b905460039190911b1c6001600160a01b031690565b61168f838961364d565b6001600160a01b039091169052565b61363d565b61163c565b6116b06124ba565b611607565b6116bd6124ba565b6115f8565b503461000e57600036600319011261000e57602060405160008152f35b503461000e5761016036600319011261000e576116fa610b9e565b611702610bb1565b9060a4359161171083610435565b60c4359261ffff8416840361000e5760e435600481101561000e576105679461173761132a565b92611740611338565b9461174961134f565b96604435602435600435612db1565b503461000e57602036600319011261000e5761012d546117879061052b906020906001600160a01b03166104e4565b610567600435613485565b503461000e57604036600319011261000e576105676117af610b8b565b61012d546117cc9061052b906020906001600160a01b03166104e4565b600435600090815261013460205260409020805463ffffffff60601b191660609290921b63ffffffff60601b16919091179055565b503461000e57602036600319011261000e57600435600052610134602052602063ffffffff60406000205460a01c16604051908152f35b503461000e57602036600319011261000e576004356000526101366020526020604060002054604051908152f35b503461000e5760a036600319011261000e5760243561188481610435565b67ffffffffffffffff60643581811161000e576118a5903690600401610f89565b608435939183851161000e573660238601121561000e57846004013593841161000e573660248560051b8701011161000e57602461056795019260443590600435613d06565b503461000e57604036600319011261000e5761056760243560043561190f82610435565b806000526065602052611929600160406000200154611c32565b611df2565b503461000e57604036600319011261000e5761056760243561194f81610435565b61012d5461196c9061052b906020906001600160a01b03166104e4565b60043560009081526101356020526040902080546001600160a01b0319166001600160a01b03909216919091179055565b503461000e57604036600319011261000e576004356000526101376020526040600020602435600052602052602060ff604060002054166040519015158152f35b503461000e57602036600319011261000e576105676004356119ff81610435565b61012d54611a1c9061052b906020906001600160a01b03166104e4565b61013280546001600160a01b0319166001600160a01b03909216919091179055565b503461000e57604036600319011261000e57610567600435611a5f81610435565b61012d54611a7c9061052b906020906001600160a01b03166104e4565b6024359061406e565b503461000e57602036600319011261000e57600435600052610134602052602063ffffffff60406000205460401c16604051908152f35b503461000e57608036600319011261000e57600435611ada81610435565b611bae602435611ae981610435565b604435611af581610435565b611b8b60643591611b0583610435565b611b0d612730565b9586611bf3575b611b1c6126bc565b611b3660ff60005460081c16611b318161265c565b61265c565b60ff1960fb541660fb55611b486126bc565b61013080546001600160a01b039384166001600160a01b03199182161790915561012f805496841696821696909617909555610132805490951690821617909355565b61012d8054919092166001600160a01b03166001600160a01b0319909116179055565b611bb457005b611bc461ff001960005416600055565b604051600181527f7f26b83ff96e1f2b6a682f133852f6798a09c465da95921460cefb384740249890602090a1005b61010061ff00196000541617600055611b14565b503461000e57600036600319011261000e57610130546040516001600160a01b039091168152602090f35b600081815260656020908152604080832033845290915290205460ff1615611c575750565b3390611c61611f7d565b916030611c6d84612504565b536078611c798461251a565b5360295b60018111611d1e57611d1a611ce5611d02866104f9611ca588611ca08915612565565b6125b0565b611cdf604051958694611cdf602087016017907f416363657373436f6e74726f6c3a206163636f756e742000000000000000000081520190565b90611da2565b7001034b99036b4b9b9b4b733903937b6329607d1b815260110190565b60405162461bcd60e51b815291829160048301611dde565b0390fd5b9080600f611d5b92166010811015611d60575b6f181899199a1a9b1b9c1cb0b131b232b360811b901a611d51848761252b565b5360041c9161254a565b611c7d565b611d686105a4565b611d31565b918091926000905b828210611d8d575011611d86575050565b6000910152565b91508060209183015181860152018291611d75565b90611db560209282815194859201611d6d565b0190565b90602091611dd281518092818552858086019101611d6d565b601f01601f1916010190565b906020611def928181520190611db9565b90565b60008181526065602090815260408083206001600160a01b038616845290915290205460ff16611e20575050565b60008181526065602090815260408083206001600160a01b03861684529091529020805460ff1916905560405133926001600160a01b031691907ff6391f5c32d9c69d2a47ea670b442974b53935d1edc7fd64eb21e047a839171b90600090a4565b15611e8957565b60405162461bcd60e51b815260206004820152602c60248201527f46756e6374696f6e206d7573742062652063616c6c6564207468726f7567682060448201526b19195b1959d85d1958d85b1b60a21b6064820152608490fd5b15611eea57565b60405162461bcd60e51b815260206004820152602c60248201527f46756e6374696f6e206d7573742062652063616c6c6564207468726f7567682060448201526b6163746976652070726f787960a01b6064820152608490fd5b604051906000602083019280841067ffffffffffffffff851117611f70575b8360405281815292369037565b611f78610c76565b611f63565b60405190611f8a82610ccb565b602a82526040366020840137565b9081602091031261000e575190565b506040513d6000823e3d90fd5b15611fbb57565b60405162461bcd60e51b815260206004820152602960248201527f45524331393637557067726164653a20756e737570706f727465642070726f786044820152681a58589b195555525160ba1b6064820152608490fd5b60809060208152602e60208201527f45524331393637557067726164653a206e657720696d706c656d656e7461746960408201526d6f6e206973206e6f74205555505360901b60608201520190565b9061208d7f4910fdfa16fed3260ed0e7147f7cc6da11a60208b5b9406d12a635614ffd91435460ff1690565b1561209c5750610d16906121e7565b6040516352d1902d60e01b8152916020836004816001600160a01b0385165afa60009381612104575b506120e35760405162461bcd60e51b815280611d1a60048201612012565b6120ff6000805160206141bb833981519152610d169414611fb4565b612277565b61211d91945060203d811161114a5761113c8183610ce7565b92386120c5565b906121507f4910fdfa16fed3260ed0e7147f7cc6da11a60208b5b9406d12a635614ffd91435460ff1690565b1561215f5750610d16906121e7565b6040516352d1902d60e01b8152916020836004816001600160a01b0385165afa600093816121c7575b506121a65760405162461bcd60e51b815280611d1a60048201612012565b6121c26000805160206141bb833981519152610d169414611fb4565b612387565b6121e091945060203d811161114a5761113c8183610ce7565b9238612188565b803b1561221c576000805160206141bb83398151915280546001600160a01b0319166001600160a01b03909216919091179055565b60405162461bcd60e51b815260206004820152602d60248201527f455243313936373a206e657720696d706c656d656e746174696f6e206973206e60448201526c1bdd08184818dbdb9d1c9858dd609a1b6064820152608490fd5b90612281826121e7565b604051600092906001600160a01b0382167fbc7cd75a20ee27fd9adebab32041f755214dbc6bffa90cc0225b39da2e5c2d3b8583a2825115801590612380575b6122cc575b50505050565b813b1561232f575091808261231d9460208395519201905af4903d15612327573d6122f681610d18565b906123046040519283610ce7565b8152809160203d92013e5b612317612431565b9161247a565b50388080806122c6565b50606061230f565b62461bcd60e51b815260206004820152602660248201527f416464726573733a2064656c65676174652063616c6c20746f206e6f6e2d636f6044820152651b9d1c9858dd60d21b6064820152608490fd5b50836122c1565b612390816121e7565b6040516001600160a01b0382167fbc7cd75a20ee27fd9adebab32041f755214dbc6bffa90cc0225b39da2e5c2d3b600083a2825115801590612429575b6123d657505050565b813b1561232f57506000828192602061241f95519201905af43d15612422573d6123ff81610d18565b9061240d6040519283610ce7565b81523d6000602083013e612317612431565b50565b606061230f565b5060016123cd565b6040519061243e82610ccb565b60278252660819985a5b195960ca1b6040837f416464726573733a206c6f772d6c6576656c2064656c65676174652063616c6c60208201520152565b90919015612486575090565b8151156124965750805190602001fd5b60405162461bcd60e51b815260206004820152908190611d1a906024830190611db9565b50634e487b7160e01b600052601160045260246000fd5b80600019048211811515166124e4570290565b6124ec6124ba565b0290565b811981116124fc570190565b611db56124ba565b602090805115612512570190565b611db56105a4565b602190805160011015612512570190565b90602091805182101561253d57010190565b6125456105a4565b010190565b8015612558575b6000190190565b6125606124ba565b612551565b1561256c57565b606460405162461bcd60e51b815260206004820152602060248201527f537472696e67733a20686578206c656e67746820696e73756666696369656e746044820152fd5b604051906080820182811067ffffffffffffffff82111761264f575b60405260428252606036602084013760306125e683612504565b5360786125f28361251a565b536041905b6001821161260a57611def915015612565565b80600f61263c92166010811015612642575b6f181899199a1a9b1b9c1cb0b131b232b360811b901a611d51848661252b565b906125f7565b61264a6105a4565b61261c565b612657610c76565b6125cc565b1561266357565b60405162461bcd60e51b815260206004820152602b60248201527f496e697469616c697a61626c653a20636f6e7472616374206973206e6f74206960448201526a6e697469616c697a696e6760a81b6064820152608490fd5b610d1660ff60005460081c1661265c565b156126d457565b60405162461bcd60e51b815260206004820152602e60248201527f496e697469616c697a61626c653a20636f6e747261637420697320616c72656160448201526d191e481a5b9a5d1a585b1a5e995960921b6064820152608490fd5b60005460ff8160081c16600014612752575061274d303b156126cd565b600090565b80612763600160ff819416106126cd565b60ff191617600055600190565b601e91693937b6329730b236b4b760b11b82526bffffffffffffffffffffffff199060601b16600a8201520190565b9081602091031261000e5751611def81611320565b156127bb57565b60405162461bcd60e51b815260206004820152601060248201526f41646d696e2063616c6c73206f6e6c7960801b6044820152606490fd5b156127fa57565b60405162461bcd60e51b815260206004820152602360248201527f436c6f73652074696d65206d7573742062652061667465722073746172742074604482015262696d6560e81b6064820152608490fd5b60005261013460205260406000209063ffffffff918281541692831561289d57610d169361287b918416116127f3565b9067ffffffff0000000082549160201b169067ffffffff000000001916179055565b60405162461bcd60e51b8152602060048201526014602482015273131bdd1d195c9e481a59081b9bdd08199bdd5b9960621b6044820152606490fd5b6001600160a01b031680156128fe5761013180546001600160a01b0319169091179055565b60405162461bcd60e51b815260206004820152601d60248201527f436f6e7472616374732063616e6e6f74206265203020616464726573730000006044820152606490fd5b60048210156111945752565b90600561295a610d09565b926129fd60ff82546129f063ffffffff61297c8184168a9063ffffffff169052565b612994818460201c1660208b019063ffffffff169052565b6129ac818460401c1660408b019063ffffffff169052565b6129c4818460601c1660608b019063ffffffff169052565b6129dc818460801c1660808b019063ffffffff169052565b8260a01c1660a089019063ffffffff169052565b60c01c1660c08601612943565b60018101546001600160a01b03811660e086015260a01c60ff16151561010085015260028101546001600160801b03811661012086015260801c6101408501526003810154610160850152600481015461018085015201546101a0830152565b15612a6457565b60405162461bcd60e51b8152602060048201526011602482015270496e76616c6964207369676e617475726560781b6044820152606490fd5b611def91612aaa91612c3d565b919091612abc565b6005111561117f57565b612ac581612ab2565b80612acd5750565b612ad681612ab2565b60018103612b235760405162461bcd60e51b815260206004820152601860248201527f45434453413a20696e76616c6964207369676e617475726500000000000000006044820152606490fd5b612b2c81612ab2565b60028103612b795760405162461bcd60e51b815260206004820152601f60248201527f45434453413a20696e76616c6964207369676e6174757265206c656e677468006044820152606490fd5b612b8281612ab2565b60038103612bda5760405162461bcd60e51b815260206004820152602260248201527f45434453413a20696e76616c6964207369676e6174757265202773272076616c604482015261756560f01b6064820152608490fd5b80612be6600492612ab2565b14612bed57565b60405162461bcd60e51b815260206004820152602260248201527f45434453413a20696e76616c6964207369676e6174757265202776272076616c604482015261756560f01b6064820152608490fd5b815160418103612c6a575090612c66916020820151906060604084015193015160001a90612cb8565b9091565b604003612cae578160406020612c669401519101519160ff601b84821c9481198611612ca1575b600180841b031694011690612cb8565b612ca96124ba565b612c91565b5050600090600290565b9291907f7fffffffffffffffffffffffffffffff5d576e7357a4501ddfe92f46681b20a08311612d625760ff16601b81141580612d57575b612d4b579160809493916020936040519384528484015260408301526060820152600093849182805260015afa15612d3e575b81516001600160a01b03811615612d38579190565b50600190565b612d46611fa7565b612d23565b50505050600090600490565b50601c811415612cf0565b50505050600090600390565b60405160208101917f19457468657265756d205369676e6564204d6573736167653a0a3332000000008352603c820152603c8152612dab81610ccb565b51902090565b98969997949395929560018060a01b0361012d541696612e166040519860208a81809c0190612de4816104f93385612770565b519020602460405180948193633d70e7e560e11b835260048301525afa908115612faa575b600091612f9357506127b4565b8a600052610134885260406000209763ffffffff89541615612f56575061ffff8895612efe95612f1c9995612e8d60029a96612f369f9e9d612ed797612e6b919063ffffffff1663ffffffff19825416179055565b8a5467ffffffff00000000191660209190911b67ffffffff0000000016178a55565b600489015560058801556001870180546001600160a01b0319166001600160a01b03909516949094178455865463ffffffff60601b1916911660601b63ffffffff60601b16178555565b612ee18b85612fb7565b805460ff60a01b191691151560a01b60ff60a01b16919091179055565b019182906001600160801b03166001600160801b0319825416179055565b906001600160801b0382549181199060801b169116179055565b612f3f82611175565b60008051602061419b8339815191526000604051a3565b6064906040519062461bcd60e51b825260048201526016602482015275131bdd1d195c9e48191bd95cc81b9bdd08195e1a5cdd60521b6044820152fd5b61058a91508a3d8c11610590576105828183610ce7565b612fb2611fa7565b612e09565b906004811015612fdc575b815460ff60c01b191660c09190911b60ff60c01b16179055565b612fe461115e565b612fc2565b99959398949298979096919761304c60018060a01b0361012d541660206040518181019061301b816104f93385612770565b519020602460405180948193633d70e7e560e11b835260048301525afa9081156105975760009161056957506127b4565b63ffffffff8a81169061306082151561313e565b82161161306c906127f3565b6130758b61317f565b61307d610d09565b63ffffffff909a168a5263ffffffff1660208a0152600060408a015261ffff91821660608a01521663ffffffff166080880152600060a0880181905260c08801526001600160a01b031660e087015215156101008601526001600160801b03166101208501526001600160801b0316610140840152836101608401526101808301526101a082015261311a82600052610134602052604060002090565b90613124916131e3565b6040519060008051602061419b83398151915260008093a3565b1561314557565b60405162461bcd60e51b8152602060048201526012602482015271496e76616c69642073746172742074696d6560701b6044820152606490fd5b610133805490600160401b8210156131d6575b600182018082558210156131c9575b6000527f92e985329fb94cc1b424ebb0f7f2929b6d27383ca94c0ec71c44fb48bdf96d2c0155565b6131d16105a4565b6131a1565b6131de610c76565b613192565b906101a06005916132116131fb825163ffffffff1690565b855463ffffffff191663ffffffff909116178555565b613247613225602083015163ffffffff1690565b855467ffffffff00000000191660209190911b67ffffffff0000000016178555565b61328061325b604083015163ffffffff1690565b85546bffffffff0000000000000000191660409190911b63ffffffff60401b16178555565b6132b4613294606083015163ffffffff1690565b855463ffffffff60601b191660609190911b63ffffffff60601b16178555565b6132e86132c8608083015163ffffffff1690565b855463ffffffff60801b191660809190911b63ffffffff60801b16178555565b61331c6132fc60a083015163ffffffff1690565b855463ffffffff60a01b191660a09190911b63ffffffff60a01b16178555565b61333360c082015161332d81611175565b85612fb7565b60e08101516001850180546101008401516001600160a01b039093166001600160a81b03199091161791151560a01b60ff60a01b169190911790556133d8600285016133a961338d6101208501516001600160801b031690565b82546001600160801b0319166001600160801b03909116178255565b6101408301516001600160801b031681546001600160801b031660809190911b6001600160801b031916179055565b610160810151600385015561018081015160048501550151910155565b156133fc57565b60405162461bcd60e51b8152602060048201526015602482015274131bdd1d195c9e481a5cc81b9bdd0818db1bdcd959605a1b6044820152606490fd5b1561344057565b60405162461bcd60e51b815260206004820152601760248201527f4c6f7474657279206d75737420626520636c6f736564210000000000000000006044820152606490fd5b6134e660026134d76134a284600052610134602052604060002090565b60ff81546134ba4263ffffffff8360201c16106133f5565b60c01c166134c781611175565b15613594575b5460c01c60ff1690565b6134e081611175565b14613439565b6101315461353b90613500906001600160a01b0316611045565b604051632cdc85e960e21b81526004810184905290602090829060249082906000905af1908115613587575b600091613569575b5061012e55565b61012e54907ff8cdf8355a0f31bbad8998a631f5a75dcb3e475a010b34a111ed105fe88e751a6000604051a3565b613581915060203d811161114a5761113c8183610ce7565b38613534565b61358f611fa7565b61352c565b805460ff60c01b1916600160c11b178155805460c01c60ff166135b681611175565b8560008051602061419b8339815191526000604051a36134cd565b156135d857565b60405162461bcd60e51b8152602060048201526016602482015275131bdd1d195c9e481b5d5cdd0818994818db1bdcd95960521b6044820152606490fd5b60209067ffffffffffffffff8111613630575b60051b0190565b613638610c76565b613629565b60019060001981146124fc570190565b6020918151811015613662575b60051b010190565b61366a6105a4565b61365a565b80600052610134602052604060002080549063ffffffff8260401c166136b25760ff60c01b19909116600160c01b179081905560c01c60ff1690612f3f82611175565b60405162461bcd60e51b815260206004820152601760248201527f4c6f747465727920616c726561647920737461727465640000000000000000006044820152606490fd5b156136fe57565b60405162461bcd60e51b815260206004820152601060248201526f14185d5cd8589b194e881c185d5cd95960821b6044820152606490fd5b90610d169161374a60ff60fb5416156136f7565b600081815261013560205260409020546001600160a01b03161561396b5761378961149761104561104561148a85600052610135602052604060002090565b61396b565b1561379557565b60405162461bcd60e51b815260206004820152600f60248201526e139bdd081dda1a5d195b1a5cdd1959608a1b6044820152606490fd5b156137d357565b60405162461bcd60e51b815260206004820152601060248201526f151a58dad95d1cc81cdbdb19081bdd5d60821b6044820152606490fd5b1561381257565b606460405162461bcd60e51b815260206004820152602060248201527f43616e277420627579207468697320616d6f756e74206f66207469636b6574736044820152fd5b1561385d57565b60405162461bcd60e51b81526020600482015260136024820152722637ba3a32b93c9034b9903737ba1037b832b760691b6044820152606490fd5b9063ffffffff80809316911680920381116124fc570190565b60019063ffffffff8091169081146124fc570190565b908082036138d3575050565b8054825461ffff191661ffff919091161782555462ff000060ff83549260101c16151560101b169062ff00001916179055565b9061ffff80809316911680920381116124fc570190565b805461393b91600160401b82101561395e575b6001820181556105bb565b819291549060031b9160018060a01b039283811b93849216901b16911916179055565b613966610c76565b613930565b613a9061398382600052610134602052604060002090565b80549063ffffffff91828160601c1680613c75575b506139c46139b186600052610138602052604060002090565b3360009081526020919091526040902090565b926139ff6139de6139d7865461ffff1690565b61ffff1690565b92828160801c1680613c5a575b504283821611159081613c4a575b50613856565b613a0d6004840154886124d1565b80613c39575b50613a59613a396005850154928916613a34865463ffffffff9060a01c1690565b613898565b845463ffffffff60a01b191660a09190911b63ffffffff60a01b16178455565b80613b84575b5015613b08575b50613a8061ffff8516613a7b835461ffff1690565b613906565b61ffff1661ffff19825416179055565b613aa58160005261013a602052604060002090565b60005b838110613ab55750505050565b613b0390613ac3338461391d565b8254847fc41bbb54d04f2268c7895b9330f18468c306a3f92698a92c4c86b2978739784860405180613afb3395829190602083019252565b0390a361363d565b613aa8565b80613b26613b21613b45935463ffffffff9060401c1690565b6138b1565b63ffffffff60401b82549160401b169063ffffffff60401b1916179055565b613b7e81613b7933613b6287600052610138602052604060002090565b9060018060a01b0316600052602052604060002090565b6138c7565b38613a66565b6020613b93613bfe92896124d1565b61013054613ba9906001600160a01b0316611045565b6001860154613bc0906001600160a01b0316611045565b6040516323b872dd60e01b81523360048201526001600160a01b03909116602482015260448101929092529092839190829060009082906064820190565b03925af18015613c2c575b15613a5f57613c259060203d8111610590576105828183610ce7565b5038613a5f565b613c34611fa7565b613c09565b613c439033613c95565b5038613a13565b905082429160201c1611386139f9565b613c6f90613c688b876124f0565b111561380b565b386139eb565b613c8f90613c8888868560a01c166124f0565b11156137cc565b38613998565b61013254604051631e961d2760e01b81526001600160a01b039283166004820152602481019390935260209183916044918391600091165af1908115613cf9575b600091613ce1575090565b611def915060203d811161114a5761113c8183610ce7565b613d01611fa7565b613cd6565b94613da090613da59294959397613d2260ff60fb5416156136f7565b613d63613d5e613d5a613d538c613d448d600052610137602052604060002090565b90600052602052604060002090565b5460ff1690565b1590565b613eb9565b613d9b613d7c613d7436888b610d43565b8b898c613fdb565b92613d928a600052610136602052604060002090565b54923691613f0f565b614013565b613f5d565b613dd2613dc183613b6287600052610138602052604060002090565b805462ff0000191662010000179055565b613dfa6001613dec86600052610134602052604060002090565b01546001600160a01b031690565b92613e24613e1787613d4488600052610137602052604060002090565b805460ff19166001179055565b6001600160a01b0393841691823b1561000e57613e5d9260009283604051809681958294633349e71f60e21b84528d8b60048601613fa0565b03925af18015613eac575b613e99575b5016907f4aa95f981a8337cb337de335b965507da0879c3b49f799d20058e913f5ad2c266000604051a4565b8061110a613ea692610c8d565b38613e6d565b613eb4611fa7565b613e68565b15613ec057565b60405162461bcd60e51b815260206004820152602160248201527f5061727469636970616e7420616c726561647920636c61696d6564207072697a6044820152606560f81b6064820152608490fd5b9291613f1a82613616565b91613f286040519384610ce7565b829481845260208094019160051b810192831161000e57905b828210613f4e5750505050565b81358152908301908301613f41565b15613f6457565b60405162461bcd60e51b815260206004820152601460248201527324b73b30b634b21036b2b935b63290383937b7b360611b6044820152606490fd5b9284926080959260018060a01b03168552602085015260606040850152816060850152848401376000828201840152601f01601f1916010190565b92906104f9612dab926040519485936020850197885260018060a01b03166040850152606084015260808084015260a0830190611db9565b929091906000915b84518310156140665761402e838661364d565b51908181116140515760005260205261404b60406000209261363d565b9161401b565b9060005260205261404b60406000209261363d565b915092501490565b6101305460405163a9059cbb60e01b81526001600160a01b039283166004820152602481019390935260209183916044918391600091165af180156140cc575b6140b55750565b61241f9060203d8111610590576105828183610ce7565b6140d4611fa7565b6140ae565b600160fb546140eb60ff8216156136f7565b60ff19161760fb557f62e78cea01bee320cd4e420270b5ea74000d11b0c9f74754ebdbfc544b05a2586020604051338152a1565b60fb5460ff81161561415e5760ff191660fb557f5db9ee0a495bf2e6ff9c91a7834c1ba4fdd244a5e8aa4e537bd38aeae4b073aa6020604051338152a1565b60405162461bcd60e51b815260206004820152601460248201527314185d5cd8589b194e881b9bdd081c185d5cd95960621b6044820152606490fdfea3aca9ae20a0379d4094b84c749cbed6584ab20f0b71af75f63f6615d879c939360894a13ba1a3210667c828492db98dca3e2076cc3735a920a3ca505d382bbca264697066735822122046d6fd3202b0a63e4eededdc283344efddb872601c2605287551faa4a5034caa64736f6c634300080e0033",
  "linkReferences": {},
  "deployedLinkReferences": {}
}