{
  "_format": "hh-sol-artifact-1",
  "contractName": "Lottery",
  "sourceName": "contracts/Lottery/Lottery.sol",
  "abi": [
    {
      "inputs": [],
      "stateMutability": "nonpayable",
      "type": "constructor"
    },
    {
      "anonymous": false,
      "inputs": [
        {
          "indexed": false,
          "internalType": "address",
          "name": "previousAdmin",
          "type": "address"
        },
        {
          "indexed": false,
          "internalType": "address",
          "name": "newAdmin",
          "type": "address"
        }
      ],
      "name": "AdminChanged",
      "type": "event"
    },
    {
      "anonymous": false,
      "inputs": [
        {
          "indexed": true,
          "internalType": "address",
          "name": "beacon",
          "type": "address"
        }
      ],
      "name": "BeaconUpgraded",
      "type": "event"
    },
    {
      "anonymous": false,
      "inputs": [
        {
          "indexed": false,
          "internalType": "uint8",
          "name": "version",
          "type": "uint8"
        }
      ],
      "name": "Initialized",
      "type": "event"
    },
    {
      "anonymous": false,
      "inputs": [
        {
          "indexed": true,
          "internalType": "uint256",
          "name": "lotteryId",
          "type": "uint256"
        },
        {
          "indexed": true,
          "internalType": "enum Lottery.Status",
          "name": "status",
          "type": "uint8"
        }
      ],
      "name": "LotteryStatusChanged",
      "type": "event"
    },
    {
      "anonymous": false,
      "inputs": [
        {
          "indexed": false,
          "internalType": "address",
          "name": "account",
          "type": "address"
        }
      ],
      "name": "Paused",
      "type": "event"
    },
    {
      "anonymous": false,
      "inputs": [
        {
          "indexed": true,
          "internalType": "uint256",
          "name": "lotteryId",
          "type": "uint256"
        },
        {
          "indexed": true,
          "internalType": "address",
          "name": "participantAddress",
          "type": "address"
        },
        {
          "indexed": true,
          "internalType": "uint256",
          "name": "prizeId",
          "type": "uint256"
        }
      ],
      "name": "PrizeClaimed",
      "type": "event"
    },
    {
      "anonymous": false,
      "inputs": [
        {
          "indexed": true,
          "internalType": "uint256",
          "name": "lotteryId",
          "type": "uint256"
        },
        {
          "indexed": true,
          "internalType": "address",
          "name": "participantAddress",
          "type": "address"
        },
        {
          "indexed": false,
          "internalType": "uint256",
          "name": "amount",
          "type": "uint256"
        }
      ],
      "name": "Refunded",
      "type": "event"
    },
    {
      "anonymous": false,
      "inputs": [
        {
          "indexed": true,
          "internalType": "bytes32",
          "name": "role",
          "type": "bytes32"
        },
        {
          "indexed": true,
          "internalType": "bytes32",
          "name": "previousAdminRole",
          "type": "bytes32"
        },
        {
          "indexed": true,
          "internalType": "bytes32",
          "name": "newAdminRole",
          "type": "bytes32"
        }
      ],
      "name": "RoleAdminChanged",
      "type": "event"
    },
    {
      "anonymous": false,
      "inputs": [
        {
          "indexed": true,
          "internalType": "bytes32",
          "name": "role",
          "type": "bytes32"
        },
        {
          "indexed": true,
          "internalType": "address",
          "name": "account",
          "type": "address"
        },
        {
          "indexed": true,
          "internalType": "address",
          "name": "sender",
          "type": "address"
        }
      ],
      "name": "RoleGranted",
      "type": "event"
    },
    {
      "anonymous": false,
      "inputs": [
        {
          "indexed": true,
          "internalType": "bytes32",
          "name": "role",
          "type": "bytes32"
        },
        {
          "indexed": true,
          "internalType": "address",
          "name": "account",
          "type": "address"
        },
        {
          "indexed": true,
          "internalType": "address",
          "name": "sender",
          "type": "address"
        }
      ],
      "name": "RoleRevoked",
      "type": "event"
    },
    {
      "anonymous": false,
      "inputs": [
        {
          "indexed": false,
          "internalType": "address",
          "name": "operator",
          "type": "address"
        },
        {
          "indexed": false,
          "internalType": "uint256",
          "name": "lotteryId",
          "type": "uint256"
        },
        {
          "indexed": false,
          "internalType": "uint256",
          "name": "priceOfTicket",
          "type": "uint256"
        }
      ],
      "name": "TicketCostChanged",
      "type": "event"
    },
    {
      "anonymous": false,
      "inputs": [
        {
          "indexed": true,
          "internalType": "uint256",
          "name": "lotteryId",
          "type": "uint256"
        },
        {
          "indexed": false,
          "internalType": "uint256",
          "name": "ticketNumber",
          "type": "uint256"
        },
        {
          "indexed": true,
          "internalType": "address",
          "name": "participantAddress",
          "type": "address"
        }
      ],
      "name": "TicketSold",
      "type": "event"
    },
    {
      "anonymous": false,
      "inputs": [
        {
          "indexed": false,
          "internalType": "address",
          "name": "account",
          "type": "address"
        }
      ],
      "name": "Unpaused",
      "type": "event"
    },
    {
      "anonymous": false,
      "inputs": [
        {
          "indexed": true,
          "internalType": "address",
          "name": "implementation",
          "type": "address"
        }
      ],
      "name": "Upgraded",
      "type": "event"
    },
    {
      "inputs": [],
      "name": "DEFAULT_ADMIN_ROLE",
      "outputs": [
        {
          "internalType": "bytes32",
          "name": "",
          "type": "bytes32"
        }
      ],
      "stateMutability": "view",
      "type": "function"
    },
    {
      "inputs": [
        {
          "internalType": "uint256",
          "name": "_lotteryId",
          "type": "uint256"
        },
        {
          "internalType": "uint256",
          "name": "_numberOfTicketsToBuy",
          "type": "uint256"
        }
      ],
      "name": "buyTickets",
      "outputs": [],
      "stateMutability": "nonpayable",
      "type": "function"
    },
    {
      "inputs": [
        {
          "internalType": "uint256",
          "name": "_points",
          "type": "uint256"
        },
        {
          "internalType": "uint256",
          "name": "_lotteryId",
          "type": "uint256"
        },
        {
          "internalType": "uint256",
          "name": "_numberOfTicketsToBuy",
          "type": "uint256"
        },
        {
          "internalType": "bytes",
          "name": "_sig",
          "type": "bytes"
        }
      ],
      "name": "buyTicketsWithSignedMessage",
      "outputs": [],
      "stateMutability": "nonpayable",
      "type": "function"
    },
    {
      "inputs": [
        {
          "internalType": "uint256",
          "name": "_lotteryId",
          "type": "uint256"
        }
      ],
      "name": "cancelLottery",
      "outputs": [],
      "stateMutability": "nonpayable",
      "type": "function"
    },
    {
      "inputs": [
        {
          "internalType": "uint256",
          "name": "_lotteryId",
          "type": "uint256"
        },
        {
          "internalType": "uint32",
          "name": "_time",
          "type": "uint32"
        }
      ],
      "name": "changeCloseTime",
      "outputs": [],
      "stateMutability": "nonpayable",
      "type": "function"
    },
    {
      "inputs": [
        {
          "components": [
            {
              "internalType": "uint256",
              "name": "lotteryId",
              "type": "uint256"
            },
            {
              "internalType": "address",
              "name": "winner",
              "type": "address"
            },
            {
              "internalType": "uint256",
              "name": "ticketNumber",
              "type": "uint256"
            },
            {
              "internalType": "string",
              "name": "uri",
              "type": "string"
            },
            {
              "internalType": "bytes32[]",
              "name": "proof",
              "type": "bytes32[]"
            }
          ],
          "internalType": "struct Lottery.ProofData",
          "name": "_proofData",
          "type": "tuple"
        }
      ],
      "name": "claimPrize",
      "outputs": [],
      "stateMutability": "nonpayable",
      "type": "function"
    },
    {
      "inputs": [
        {
          "components": [
            {
              "internalType": "uint256",
              "name": "lotteryId",
              "type": "uint256"
            },
            {
              "internalType": "address",
              "name": "winner",
              "type": "address"
            },
            {
              "internalType": "uint256",
              "name": "ticketNumber",
              "type": "uint256"
            },
            {
              "internalType": "string",
              "name": "uri",
              "type": "string"
            },
            {
              "internalType": "bytes32[]",
              "name": "proof",
              "type": "bytes32[]"
            }
          ],
          "internalType": "struct Lottery.ProofData[]",
          "name": "_proofData",
          "type": "tuple[]"
        }
      ],
      "name": "claimPrizeBatch",
      "outputs": [],
      "stateMutability": "nonpayable",
      "type": "function"
    },
    {
      "inputs": [
        {
          "internalType": "uint256",
          "name": "",
          "type": "uint256"
        },
        {
          "internalType": "uint256",
          "name": "",
          "type": "uint256"
        }
      ],
      "name": "claimedPrizes",
      "outputs": [
        {
          "internalType": "bool",
          "name": "",
          "type": "bool"
        }
      ],
      "stateMutability": "view",
      "type": "function"
    },
    {
      "inputs": [
        {
          "components": [
            {
              "internalType": "uint32",
              "name": "startTime",
              "type": "uint32"
            },
            {
              "internalType": "uint32",
              "name": "closeTime",
              "type": "uint32"
            },
            {
              "internalType": "uint32",
              "name": "participantsCount",
              "type": "uint32"
            },
            {
              "internalType": "uint32",
              "name": "maxTickets",
              "type": "uint32"
            },
            {
              "internalType": "uint32",
              "name": "maxTicketsPerUser",
              "type": "uint32"
            },
            {
              "internalType": "uint32",
              "name": "numberOfTicketsSold",
              "type": "uint32"
            },
            {
              "internalType": "uint32",
              "name": "numberOfEditions",
              "type": "uint32"
            },
            {
              "internalType": "enum Lottery.Status",
              "name": "status",
              "type": "uint8"
            },
            {
              "internalType": "contract INFT",
              "name": "nftContract",
              "type": "address"
            },
            {
              "internalType": "uint256",
              "name": "lotteryID",
              "type": "uint256"
            },
            {
              "internalType": "uint256",
              "name": "ticketCostPoints",
              "type": "uint256"
            },
            {
              "internalType": "uint256",
              "name": "ticketCostTokens",
              "type": "uint256"
            }
          ],
          "internalType": "struct Lottery.LotteryInfo",
          "name": "_lotteryInfo",
          "type": "tuple"
        }
      ],
      "name": "createLottery",
      "outputs": [],
      "stateMutability": "nonpayable",
      "type": "function"
    },
    {
      "inputs": [
        {
          "components": [
            {
              "internalType": "uint32",
              "name": "startTime",
              "type": "uint32"
            },
            {
              "internalType": "uint32",
              "name": "closeTime",
              "type": "uint32"
            },
            {
              "internalType": "uint32",
              "name": "participantsCount",
              "type": "uint32"
            },
            {
              "internalType": "uint32",
              "name": "maxTickets",
              "type": "uint32"
            },
            {
              "internalType": "uint32",
              "name": "maxTicketsPerUser",
              "type": "uint32"
            },
            {
              "internalType": "uint32",
              "name": "numberOfTicketsSold",
              "type": "uint32"
            },
            {
              "internalType": "uint32",
              "name": "numberOfEditions",
              "type": "uint32"
            },
            {
              "internalType": "enum Lottery.Status",
              "name": "status",
              "type": "uint8"
            },
            {
              "internalType": "contract INFT",
              "name": "nftContract",
              "type": "address"
            },
            {
              "internalType": "uint256",
              "name": "lotteryID",
              "type": "uint256"
            },
            {
              "internalType": "uint256",
              "name": "ticketCostPoints",
              "type": "uint256"
            },
            {
              "internalType": "uint256",
              "name": "ticketCostTokens",
              "type": "uint256"
            }
          ],
          "internalType": "struct Lottery.LotteryInfo[]",
          "name": "_lotteries",
          "type": "tuple[]"
        }
      ],
      "name": "createLotteryBatch",
      "outputs": [],
      "stateMutability": "nonpayable",
      "type": "function"
    },
    {
      "inputs": [],
      "name": "getLotteryCount",
      "outputs": [
        {
          "internalType": "uint256",
          "name": "",
          "type": "uint256"
        }
      ],
      "stateMutability": "view",
      "type": "function"
    },
    {
      "inputs": [
        {
          "internalType": "uint256",
          "name": "_lotteryId",
          "type": "uint256"
        }
      ],
      "name": "getLotteryInfo",
      "outputs": [
        {
          "components": [
            {
              "internalType": "uint32",
              "name": "startTime",
              "type": "uint32"
            },
            {
              "internalType": "uint32",
              "name": "closeTime",
              "type": "uint32"
            },
            {
              "internalType": "uint32",
              "name": "participantsCount",
              "type": "uint32"
            },
            {
              "internalType": "uint32",
              "name": "maxTickets",
              "type": "uint32"
            },
            {
              "internalType": "uint32",
              "name": "maxTicketsPerUser",
              "type": "uint32"
            },
            {
              "internalType": "uint32",
              "name": "numberOfTicketsSold",
              "type": "uint32"
            },
            {
              "internalType": "uint32",
              "name": "numberOfEditions",
              "type": "uint32"
            },
            {
              "internalType": "enum Lottery.Status",
              "name": "status",
              "type": "uint8"
            },
            {
              "internalType": "contract INFT",
              "name": "nftContract",
              "type": "address"
            },
            {
              "internalType": "uint256",
              "name": "lotteryID",
              "type": "uint256"
            },
            {
              "internalType": "uint256",
              "name": "ticketCostPoints",
              "type": "uint256"
            },
            {
              "internalType": "uint256",
              "name": "ticketCostTokens",
              "type": "uint256"
            }
          ],
          "internalType": "struct Lottery.LotteryInfo",
          "name": "",
          "type": "tuple"
        }
      ],
      "stateMutability": "view",
      "type": "function"
    },
    {
      "inputs": [
        {
          "internalType": "uint256",
          "name": "_lotteryId",
          "type": "uint256"
        }
      ],
      "name": "getLotteryTicketCount",
      "outputs": [
        {
          "internalType": "uint256",
          "name": "",
          "type": "uint256"
        }
      ],
      "stateMutability": "view",
      "type": "function"
    },
    {
      "inputs": [
        {
          "internalType": "uint256",
          "name": "_lotteryId",
          "type": "uint256"
        },
        {
          "internalType": "uint256",
          "name": "_from",
          "type": "uint256"
        },
        {
          "internalType": "uint256",
          "name": "_to",
          "type": "uint256"
        }
      ],
      "name": "getLotteryTickets",
      "outputs": [
        {
          "internalType": "address[]",
          "name": "",
          "type": "address[]"
        }
      ],
      "stateMutability": "view",
      "type": "function"
    },
    {
      "inputs": [
        {
          "internalType": "uint256",
          "name": "_lotteryId",
          "type": "uint256"
        }
      ],
      "name": "getParticipantsCount",
      "outputs": [
        {
          "internalType": "uint32",
          "name": "",
          "type": "uint32"
        }
      ],
      "stateMutability": "view",
      "type": "function"
    },
    {
      "inputs": [
        {
          "internalType": "bytes32",
          "name": "role",
          "type": "bytes32"
        }
      ],
      "name": "getRoleAdmin",
      "outputs": [
        {
          "internalType": "bytes32",
          "name": "",
          "type": "bytes32"
        }
      ],
      "stateMutability": "view",
      "type": "function"
    },
    {
      "inputs": [
        {
          "internalType": "uint256",
          "name": "_lotteryId",
          "type": "uint256"
        },
        {
          "internalType": "address",
          "name": "_user",
          "type": "address"
        }
      ],
      "name": "getTicketCountPerUser",
      "outputs": [
        {
          "internalType": "uint256",
          "name": "",
          "type": "uint256"
        }
      ],
      "stateMutability": "view",
      "type": "function"
    },
    {
      "inputs": [
        {
          "internalType": "uint256",
          "name": "_lotteryId",
          "type": "uint256"
        }
      ],
      "name": "getWhitelist",
      "outputs": [
        {
          "internalType": "address",
          "name": "",
          "type": "address"
        }
      ],
      "stateMutability": "view",
      "type": "function"
    },
    {
      "inputs": [
        {
          "internalType": "bytes32",
          "name": "role",
          "type": "bytes32"
        },
        {
          "internalType": "address",
          "name": "account",
          "type": "address"
        }
      ],
      "name": "grantRole",
      "outputs": [],
      "stateMutability": "nonpayable",
      "type": "function"
    },
    {
      "inputs": [
        {
          "internalType": "bytes32",
          "name": "role",
          "type": "bytes32"
        },
        {
          "internalType": "address",
          "name": "account",
          "type": "address"
        }
      ],
      "name": "hasRole",
      "outputs": [
        {
          "internalType": "bool",
          "name": "",
          "type": "bool"
        }
      ],
      "stateMutability": "view",
      "type": "function"
    },
    {
      "inputs": [
        {
          "internalType": "address",
          "name": "_rewardsContract",
          "type": "address"
        },
        {
          "internalType": "address",
          "name": "_admin",
          "type": "address"
        },
        {
          "internalType": "address",
          "name": "_token",
          "type": "address"
        },
        {
          "internalType": "address",
          "name": "_sageStorage",
          "type": "address"
        }
      ],
      "name": "initialize",
      "outputs": [],
      "stateMutability": "nonpayable",
      "type": "function"
    },
    {
      "inputs": [
        {
          "internalType": "uint256",
          "name": "",
          "type": "uint256"
        }
      ],
      "name": "lotteries",
      "outputs": [
        {
          "internalType": "uint256",
          "name": "",
          "type": "uint256"
        }
      ],
      "stateMutability": "view",
      "type": "function"
    },
    {
      "inputs": [
        {
          "internalType": "uint256",
          "name": "",
          "type": "uint256"
        },
        {
          "internalType": "uint256",
          "name": "",
          "type": "uint256"
        }
      ],
      "name": "lotteryTickets",
      "outputs": [
        {
          "internalType": "address",
          "name": "",
          "type": "address"
        }
      ],
      "stateMutability": "view",
      "type": "function"
    },
    {
      "inputs": [
        {
          "internalType": "uint256",
          "name": "",
          "type": "uint256"
        },
        {
          "internalType": "address",
          "name": "",
          "type": "address"
        }
      ],
      "name": "participantTicketCount",
      "outputs": [
        {
          "internalType": "uint256",
          "name": "",
          "type": "uint256"
        }
      ],
      "stateMutability": "view",
      "type": "function"
    },
    {
      "inputs": [],
      "name": "pause",
      "outputs": [],
      "stateMutability": "nonpayable",
      "type": "function"
    },
    {
      "inputs": [],
      "name": "paused",
      "outputs": [
        {
          "internalType": "bool",
          "name": "",
          "type": "bool"
        }
      ],
      "stateMutability": "view",
      "type": "function"
    },
    {
      "inputs": [
        {
          "internalType": "uint256",
          "name": "_lotteryId",
          "type": "uint256"
        },
        {
          "internalType": "uint256",
          "name": "_tokenId",
          "type": "uint256"
        }
      ],
      "name": "prizeClaimed",
      "outputs": [
        {
          "internalType": "bool",
          "name": "",
          "type": "bool"
        }
      ],
      "stateMutability": "view",
      "type": "function"
    },
    {
      "inputs": [
        {
          "internalType": "uint256",
          "name": "",
          "type": "uint256"
        }
      ],
      "name": "prizeMerkleRoots",
      "outputs": [
        {
          "internalType": "bytes32",
          "name": "",
          "type": "bytes32"
        }
      ],
      "stateMutability": "view",
      "type": "function"
    },
    {
      "inputs": [],
      "name": "proxiableUUID",
      "outputs": [
        {
          "internalType": "bytes32",
          "name": "",
          "type": "bytes32"
        }
      ],
      "stateMutability": "view",
      "type": "function"
    },
    {
      "inputs": [
        {
          "internalType": "uint256",
          "name": "",
          "type": "uint256"
        }
      ],
      "name": "randomSeeds",
      "outputs": [
        {
          "internalType": "uint256",
          "name": "",
          "type": "uint256"
        }
      ],
      "stateMutability": "view",
      "type": "function"
    },
    {
      "inputs": [
        {
          "internalType": "uint256",
          "name": "_lotteryId",
          "type": "uint256"
        },
        {
          "internalType": "uint256",
          "name": "_randomNumber",
          "type": "uint256"
        }
      ],
      "name": "receiveRandomNumber",
      "outputs": [],
      "stateMutability": "nonpayable",
      "type": "function"
    },
    {
      "inputs": [
        {
          "internalType": "address",
          "name": "_assetOwner",
          "type": "address"
        },
        {
          "internalType": "uint256",
          "name": "_lotteryId",
          "type": "uint256"
        },
        {
          "internalType": "uint256",
          "name": "_amount",
          "type": "uint256"
        }
      ],
      "name": "refund",
      "outputs": [],
      "stateMutability": "nonpayable",
      "type": "function"
    },
    {
      "inputs": [
        {
          "internalType": "address[]",
          "name": "_owners",
          "type": "address[]"
        },
        {
          "internalType": "uint256",
          "name": "_lotteryId",
          "type": "uint256"
        },
        {
          "internalType": "uint256[]",
          "name": "_amounts",
          "type": "uint256[]"
        }
      ],
      "name": "refundBatch",
      "outputs": [],
      "stateMutability": "nonpayable",
      "type": "function"
    },
    {
      "inputs": [
        {
          "internalType": "uint256",
          "name": "",
          "type": "uint256"
        },
        {
          "internalType": "address",
          "name": "",
          "type": "address"
        }
      ],
      "name": "refunds",
      "outputs": [
        {
          "internalType": "uint256",
          "name": "",
          "type": "uint256"
        }
      ],
      "stateMutability": "view",
      "type": "function"
    },
    {
      "inputs": [
        {
          "internalType": "bytes32",
          "name": "role",
          "type": "bytes32"
        },
        {
          "internalType": "address",
          "name": "account",
          "type": "address"
        }
      ],
      "name": "renounceRole",
      "outputs": [],
      "stateMutability": "nonpayable",
      "type": "function"
    },
    {
      "inputs": [
        {
          "internalType": "uint256",
          "name": "_lotteryId",
          "type": "uint256"
        }
      ],
      "name": "requestRandomNumber",
      "outputs": [],
      "stateMutability": "nonpayable",
      "type": "function"
    },
    {
      "inputs": [
        {
          "internalType": "bytes32",
          "name": "role",
          "type": "bytes32"
        },
        {
          "internalType": "address",
          "name": "account",
          "type": "address"
        }
      ],
      "name": "revokeRole",
      "outputs": [],
      "stateMutability": "nonpayable",
      "type": "function"
    },
    {
      "inputs": [],
      "name": "rewardsContract",
      "outputs": [
        {
          "internalType": "contract IRewards",
          "name": "",
          "type": "address"
        }
      ],
      "stateMutability": "view",
      "type": "function"
    },
    {
      "inputs": [
        {
          "internalType": "uint256",
          "name": "_lotteryId",
          "type": "uint256"
        },
        {
          "internalType": "uint32",
          "name": "_maxTickets",
          "type": "uint32"
        }
      ],
      "name": "setMaxTickets",
      "outputs": [],
      "stateMutability": "nonpayable",
      "type": "function"
    },
    {
      "inputs": [
        {
          "internalType": "uint256",
          "name": "_lotteryId",
          "type": "uint256"
        },
        {
          "internalType": "uint32",
          "name": "_maxTicketsPerUser",
          "type": "uint32"
        }
      ],
      "name": "setMaxTicketsPerUser",
      "outputs": [],
      "stateMutability": "nonpayable",
      "type": "function"
    },
    {
      "inputs": [
        {
          "internalType": "uint256",
          "name": "_lotteryId",
          "type": "uint256"
        },
        {
          "internalType": "bytes32",
          "name": "_root",
          "type": "bytes32"
        }
      ],
      "name": "setPrizeMerkleRoot",
      "outputs": [],
      "stateMutability": "nonpayable",
      "type": "function"
    },
    {
      "inputs": [
        {
          "internalType": "address",
          "name": "_IRandomNumberGenerator",
          "type": "address"
        }
      ],
      "name": "setRandomGenerator",
      "outputs": [],
      "stateMutability": "nonpayable",
      "type": "function"
    },
    {
      "inputs": [
        {
          "internalType": "address",
          "name": "_rewardsContract",
          "type": "address"
        }
      ],
      "name": "setRewardsContract",
      "outputs": [],
      "stateMutability": "nonpayable",
      "type": "function"
    },
    {
      "inputs": [
        {
          "internalType": "address",
          "name": "_signer",
          "type": "address"
        }
      ],
      "name": "setSignerAddress",
      "outputs": [],
      "stateMutability": "nonpayable",
      "type": "function"
    },
    {
      "inputs": [
        {
          "internalType": "address",
          "name": "_token",
          "type": "address"
        }
      ],
      "name": "setToken",
      "outputs": [],
      "stateMutability": "nonpayable",
      "type": "function"
    },
    {
      "inputs": [
        {
          "internalType": "uint256",
          "name": "_lotteryId",
          "type": "uint256"
        },
        {
          "internalType": "address",
          "name": "_whitelist",
          "type": "address"
        }
      ],
      "name": "setWhitelist",
      "outputs": [],
      "stateMutability": "nonpayable",
      "type": "function"
    },
    {
      "inputs": [
        {
          "internalType": "bytes4",
          "name": "interfaceId",
          "type": "bytes4"
        }
      ],
      "name": "supportsInterface",
      "outputs": [
        {
          "internalType": "bool",
          "name": "",
          "type": "bool"
        }
      ],
      "stateMutability": "view",
      "type": "function"
    },
    {
      "inputs": [],
      "name": "token",
      "outputs": [
        {
          "internalType": "contract IERC20",
          "name": "",
          "type": "address"
        }
      ],
      "stateMutability": "view",
      "type": "function"
    },
    {
      "inputs": [],
      "name": "unpause",
      "outputs": [],
      "stateMutability": "nonpayable",
      "type": "function"
    },
    {
      "inputs": [
        {
          "internalType": "uint256",
          "name": "lotteryId",
          "type": "uint256"
        },
        {
          "internalType": "uint256",
          "name": "_ticketCostPoints",
          "type": "uint256"
        },
        {
          "internalType": "uint256",
          "name": "_ticketCostTokens",
          "type": "uint256"
        },
        {
          "internalType": "uint32",
          "name": "_startTime",
          "type": "uint32"
        },
        {
          "internalType": "uint32",
          "name": "_closeTime",
          "type": "uint32"
        },
        {
          "internalType": "contract INFT",
          "name": "_nftContract",
          "type": "address"
        },
        {
          "internalType": "uint16",
          "name": "_maxTickets",
          "type": "uint16"
        },
        {
          "internalType": "enum Lottery.Status",
          "name": "_status",
          "type": "uint8"
        },
        {
          "internalType": "uint32",
          "name": "_numberOfEditions",
          "type": "uint32"
        }
      ],
      "name": "updateLottery",
      "outputs": [],
      "stateMutability": "nonpayable",
      "type": "function"
    },
    {
      "inputs": [
        {
          "internalType": "address",
          "name": "newImplementation",
          "type": "address"
        }
      ],
      "name": "upgradeTo",
      "outputs": [],
      "stateMutability": "nonpayable",
      "type": "function"
    },
    {
      "inputs": [
        {
          "internalType": "address",
          "name": "newImplementation",
          "type": "address"
        },
        {
          "internalType": "bytes",
          "name": "data",
          "type": "bytes"
        }
      ],
      "name": "upgradeToAndCall",
      "outputs": [],
      "stateMutability": "payable",
      "type": "function"
    },
    {
      "inputs": [
        {
          "internalType": "uint256",
          "name": "",
          "type": "uint256"
        }
      ],
      "name": "whitelists",
      "outputs": [
        {
          "internalType": "address",
          "name": "",
          "type": "address"
        }
      ],
      "stateMutability": "view",
      "type": "function"
    },
    {
      "inputs": [
        {
          "internalType": "uint256",
          "name": "_amount",
          "type": "uint256"
        }
      ],
      "name": "withdraw",
      "outputs": [],
      "stateMutability": "nonpayable",
      "type": "function"
    }
  ],
  "bytecode": "0x60a0604052306080523480156200001557600080fd5b506200002062000026565b62000156565b6200003260ff62000035565b50565b60008054610100900460ff1615620000ce578160ff1660011480156200006e57506200006c306200014760201b620033191760201c565b155b620000c65760405162461bcd60e51b815260206004820152602e60248201526000805160206200539d83398151915260448201526d191e481a5b9a5d1a585b1a5e995960921b60648201526084015b60405180910390fd5b506000919050565b60005460ff8084169116106200012d5760405162461bcd60e51b815260206004820152602e60248201526000805160206200539d83398151915260448201526d191e481a5b9a5d1a585b1a5e995960921b6064820152608401620000bd565b506000805460ff191660ff92909216919091179055600190565b6001600160a01b03163b151590565b60805161520f6200018e600039600081816116490152818161168901528181611b0d01528181611b4d0152611c80015261520f6000f3fe6080604052600436106103355760003560e01c80636a6be315116101ab578063c11ab615116100f7578063eb1ea52111610095578063f8c8765e1161006f578063f8c8765e14610a7d578063f90328d514610a9d578063fc0c546a14610ad9578063fe4d5add14610afa57600080fd5b8063eb1ea521146109ed578063f4f46e3514610a0d578063f5f4899814610a2d57600080fd5b8063d547741f116100d1578063d547741f14610951578063d89da28614610971578063db2c0fd114610991578063dfa0dfa5146109cd57600080fd5b8063c11ab615146108af578063c730bba0146108ea578063d098a2f01461092357600080fd5b80638c8bf83b116101645780639b7fecc31161013e5780639b7fecc31461082d578063a217fddf1461085a578063b1eb96c91461086f578063bf4002b21461088f57600080fd5b80638c8bf83b146107b657806391d14854146107d657806396db752a146107f657600080fd5b80636a6be315146106f457806372f5b6c2146107145780637350ab2c1461073457806376b3c8a8146107545780638456cb59146107815780638627df461461079657600080fd5b806336568abe116102855780634a0044671161022357806350612da6116101fd57806350612da61461068757806352d1902d146106a75780635c975abb146106bc5780636013457f146106d457600080fd5b80634a004467146106345780634bc19fee146106545780634f1ef2861461067457600080fd5b806340cf23d91161025f57806340cf23d9146105815780634538f297146105bb578063454cc4bc146105db57806349c0de881461061457600080fd5b806336568abe1461052c5780633659cfe61461054c5780633f4ba83a1461056c57600080fd5b806323680400116102f25780632801f84a116102cc5780632801f84a146104b65780632e1a7d4d146104d65780632f2ff15d146104f65780632f9aa1fe1461051657600080fd5b80632368040014610438578063248a9ca31461046657806327a38a9e1461049657600080fd5b806301ffc9a71461033a578063046dc1661461036f5780631398e07614610391578063144fa6d7146103bf57806318fd8903146103df578063220cce97146103ff575b600080fd5b34801561034657600080fd5b5061035a610355366004614143565b610b31565b60405190151581526020015b60405180910390f35b34801561037b57600080fd5b5061038f61038a366004614182565b610b68565b005b34801561039d57600080fd5b506103b16103ac36600461419f565b610c25565b604051908152602001610366565b3480156103cb57600080fd5b5061038f6103da366004614182565b610c47565b3480156103eb57600080fd5b5061038f6103fa3660046141b8565b610cfb565b34801561040b57600080fd5b5061013154610420906001600160a01b031681565b6040516001600160a01b039091168152602001610366565b34801561044457600080fd5b506103b161045336600461419f565b6101396020526000908152604090205481565b34801561047257600080fd5b506103b161048136600461419f565b60009081526065602052604090206001015490565b3480156104a257600080fd5b5061038f6104b13660046141ed565b610f47565b3480156104c257600080fd5b5061038f6104d1366004614246565b61125c565b3480156104e257600080fd5b5061038f6104f136600461419f565b61147c565b34801561050257600080fd5b5061038f6105113660046142ee565b61159b565b34801561052257600080fd5b50610132546103b1565b34801561053857600080fd5b5061038f6105473660046142ee565b6115c5565b34801561055857600080fd5b5061038f610567366004614182565b61163f565b34801561057857600080fd5b5061038f61171e565b34801561058d57600080fd5b506103b161059c3660046142ee565b5060009081526101376020908152604080832033845290915290205490565b3480156105c757600080fd5b5061038f6105d636600461419f565b6117b9565b3480156105e757600080fd5b506103b16105f63660046142ee565b61013860209081526000928352604080842090915290825290205481565b34801561062057600080fd5b5061042061062f36600461431e565b6118fb565b34801561064057600080fd5b5061038f61064f366004614340565b611934565b34801561066057600080fd5b5061038f61066f366004614182565b6119f9565b61038f61068236600461442a565b611b03565b34801561069357600080fd5b5061038f6106a236600461431e565b611bcf565b3480156106b357600080fd5b506103b1611c73565b3480156106c857600080fd5b5060fb5460ff1661035a565b3480156106e057600080fd5b5061038f6106ef36600461448d565b611d26565b34801561070057600080fd5b5061038f61070f366004614340565b611f85565b34801561072057600080fd5b5061038f61072f3660046144a6565b6120c1565b34801561074057600080fd5b5061038f61074f36600461451b565b612195565b34801561076057600080fd5b5061077461076f36600461419f565b612359565b60405161036691906145df565b34801561078d57600080fd5b5061038f6124b6565b3480156107a257600080fd5b5061038f6107b136600461431e565b61254f565b3480156107c257600080fd5b5061038f6107d13660046146cd565b612a42565b3480156107e257600080fd5b5061035a6107f13660046142ee565b612a85565b34801561080257600080fd5b5061042061081136600461419f565b600090815261013460205260409020546001600160a01b031690565b34801561083957600080fd5b5061084d61084836600461472f565b612ab0565b604051610366919061475b565b34801561086657600080fd5b506103b1600081565b34801561087b57600080fd5b5061038f61088a36600461419f565b612b9b565b34801561089b57600080fd5b5061038f6108aa366004614340565b612e22565b3480156108bb57600080fd5b506103b16108ca36600461419f565b60009081526101336020526040902054600160a01b900463ffffffff1690565b3480156108f657600080fd5b506103b16109053660046142ee565b61013760209081526000928352604080842090915290825290205481565b34801561092f57600080fd5b506103b161093e36600461419f565b6101356020526000908152604090205481565b34801561095d57600080fd5b5061038f61096c3660046142ee565b612ee7565b34801561097d57600080fd5b5061038f61098c3660046142ee565b612f0c565b34801561099d57600080fd5b5061035a6109ac36600461431e565b60009182526101366020908152604080842092845291905290205460ff1690565b3480156109d957600080fd5b5061038f6109e8366004614182565b612fcc565b3480156109f957600080fd5b5061038f610a0836600461431e565b613080565b348015610a1957600080fd5b5061038f610a28366004614836565b6131a0565b348015610a3957600080fd5b50610a68610a4836600461419f565b60009081526101336020526040902054600160401b900463ffffffff1690565b60405163ffffffff9091168152602001610366565b348015610a8957600080fd5b5061038f610a98366004614900565b613243565b348015610aa957600080fd5b5061035a610ab836600461431e565b61013660209081526000928352604080842090915290825290205460ff1681565b348015610ae557600080fd5b5061012f54610420906001600160a01b031681565b348015610b0657600080fd5b50610420610b1536600461419f565b610134602052600090815260409020546001600160a01b031681565b60006001600160e01b03198216637965db0b60e01b1480610b6257506301ffc9a760e01b6001600160e01b03198316145b92915050565b61012d54604051632474521560e21b81526001600160a01b03909116906391d1485490610b9c90600090339060040161495c565b602060405180830381865afa158015610bb9573d6000803e3d6000fd5b505050506040513d601f19601f82011682018060405250810190610bdd9190614973565b610c025760405162461bcd60e51b8152600401610bf990614995565b60405180910390fd5b61012e80546001600160a01b0319166001600160a01b0392909216919091179055565b6101328181548110610c3657600080fd5b600091825260209091200154905081565b61012d54604051632474521560e21b81526001600160a01b03909116906391d1485490610c7b90600090339060040161495c565b602060405180830381865afa158015610c98573d6000803e3d6000fd5b505050506040513d601f19601f82011682018060405250810190610cbc9190614973565b610cd85760405162461bcd60e51b8152600401610bf990614995565b61012f80546001600160a01b0319166001600160a01b0392909216919091179055565b60fb5460ff1615610d1e5760405162461bcd60e51b8152600401610bf9906149bf565b60008281526101336020526040902081610d6b5760405162461bcd60e51b815260206004820152600e60248201526d043616e277420726566756e6420360941b6044820152606401610bf9565b60008154600160e01b900460ff166003811115610d8a57610d8a6145a7565b03610dcf5760405162461bcd60e51b8152602060048201526015602482015274496e76616c6964206c6f747465727920737461746560581b6044820152606401610bf9565b6000838152610138602090815260408083206001600160a01b0388168452909152902054821115610e4c5760405162461bcd60e51b815260206004820152602160248201527f43616e277420726566756e642074686520616d6f756e742072657175657374656044820152601960fa1b6064820152608401610bf9565b6000838152610138602090815260408083206001600160a01b038816845290915281208054849290610e7f9084906149ff565b909155505061012f5460405163a9059cbb60e01b81526001600160a01b038681166004830152602482018590529091169063a9059cbb906044016020604051808303816000875af1158015610ed8573d6000803e3d6000fd5b505050506040513d601f19601f82011682018060405250810190610efc9190614973565b50836001600160a01b0316837f7ca5472b7ea78c2c0141c5a12ee6d170cf4ce8ed06be3d22c8252ddfc7a6a2c484604051610f3991815260200190565b60405180910390a350505050565b60fb5460ff1615610f6a5760405162461bcd60e51b8152600401610bf9906149bf565b803560008181526101366020908152604080832081860135845290915290205460ff1615610fe45760405162461bcd60e51b815260206004820152602160248201527f5061727469636970616e7420616c726561647920636c61696d6564207072697a6044820152606560f81b6064820152608401610bf9565b61104c610ff8610ff384614a16565b613328565b600083815261013560205260409020546110156080860186614abf565b8080602002602001604051908101604052809392919081815260200183836020028082843760009201919091525061336e92505050565b61108f5760405162461bcd60e51b815260206004820152601460248201527324b73b30b634b21036b2b935b63290383937b7b360611b6044820152606401610bf9565b6000818152610133602052604090206004810154801561115657600083815261013860209081526040808320338452909152812080548392906110d39084906149ff565b909155505061012f54600183015460405163a9059cbb60e01b81526001600160a01b0391821660048201526024810184905291169063a9059cbb906044016020604051808303816000875af1158015611130573d6000803e3d6000fd5b505050506040513d601f19601f820116820180604052508101906111549190614973565b505b60008381526101336020908152604080832060019081015461013684528285208984018035875290855292909420805460ff191690911790556001600160a01b0390921691829163d204c45e916111ae918901614182565b6111bb6060890189614b08565b6040518463ffffffff1660e01b81526004016111d993929190614b4e565b600060405180830381600087803b1580156111f357600080fd5b505af1158015611207573d6000803e3d6000fd5b505050604086018035915061121f9060208801614182565b6001600160a01b0316857f4aa95f981a8337cb337de335b965507da0879c3b49f799d20058e913f5ad2c2660405160405180910390a45050505050565b61012d54604051632474521560e21b81526001600160a01b03909116906391d148549061129090600090339060040161495c565b602060405180830381865afa1580156112ad573d6000803e3d6000fd5b505050506040513d601f19601f820116820180604052508101906112d19190614973565b6112ed5760405162461bcd60e51b8152600401610bf990614995565b858560008263ffffffff161161133a5760405162461bcd60e51b8152602060048201526012602482015271496e76616c69642073746172742074696d6560701b6044820152606401610bf9565b8163ffffffff168163ffffffff16116113655760405162461bcd60e51b8152600401610bf990614b8e565b60008b815261013360205260409020805460038083018d9055600483018c90556001830180546001600160a01b038b166001600160a01b0319909116179055600160601b61ffff89160263ffffffff60601b1963ffffffff8c81166401000000000267ffffffffffffffff19909516908e161793909317928316811784558792849260ff60e01b1990921670ff000000000000000000000000ffffffff60601b199091161790600160e01b908490811115611422576114226145a7565b0217905550805463ffffffff60c01b1916600160c01b63ffffffff861602178155846003811115611455576114556145a7565b6040518d9060008051602061517383398151915290600090a3505050505050505050505050565b61012d54604051632474521560e21b81526001600160a01b03909116906391d14854906114b090600090339060040161495c565b602060405180830381865afa1580156114cd573d6000803e3d6000fd5b505050506040513d601f19601f820116820180604052508101906114f19190614973565b61150d5760405162461bcd60e51b8152600401610bf990614995565b61012f5460405163a9059cbb60e01b8152737af3ba4a5854438a6bf27e4d005cd07d5497c33e6004820152602481018390526001600160a01b039091169063a9059cbb906044016020604051808303816000875af1158015611573573d6000803e3d6000fd5b505050506040513d601f19601f820116820180604052508101906115979190614973565b5050565b6000828152606560205260409020600101546115b681613383565b6115c0838361338d565b505050565b6001600160a01b03811633146116355760405162461bcd60e51b815260206004820152602f60248201527f416363657373436f6e74726f6c3a2063616e206f6e6c792072656e6f756e636560448201526e103937b632b9903337b91039b2b63360891b6064820152608401610bf9565b6115978282613413565b6001600160a01b037f00000000000000000000000000000000000000000000000000000000000000001630036116875760405162461bcd60e51b8152600401610bf990614bd1565b7f00000000000000000000000000000000000000000000000000000000000000006001600160a01b03166116d0600080516020615193833981519152546001600160a01b031690565b6001600160a01b0316146116f65760405162461bcd60e51b8152600401610bf990614c1d565b6116ff8161347a565b6040805160008082526020820190925261171b9183919061350b565b50565b61012d54604051632474521560e21b81526001600160a01b03909116906391d148549061175290600090339060040161495c565b602060405180830381865afa15801561176f573d6000803e3d6000fd5b505050506040513d601f19601f820116820180604052508101906117939190614973565b6117af5760405162461bcd60e51b8152600401610bf990614995565b6117b7613676565b565b61012d54604051632474521560e21b81526001600160a01b03909116906391d14854906117ed90600090339060040161495c565b602060405180830381865afa15801561180a573d6000803e3d6000fd5b505050506040513d601f19601f8201168201806040525081019061182e9190614973565b61184a5760405162461bcd60e51b8152600401610bf990614995565b6000818152610133602052604090208054600160401b900463ffffffff16156118b55760405162461bcd60e51b815260206004820152601760248201527f4c6f747465727920616c726561647920737461727465640000000000000000006044820152606401610bf9565b805460ff60e01b1916600160e01b9081178083550460ff1660038111156118de576118de6145a7565b604051839060008051602061517383398151915290600090a35050565b61013a602052816000526040600020818154811061191857600080fd5b6000918252602090912001546001600160a01b03169150829050565b61012d54604051632474521560e21b81526001600160a01b03909116906391d148549061196890600090339060040161495c565b602060405180830381865afa158015611985573d6000803e3d6000fd5b505050506040513d601f19601f820116820180604052508101906119a99190614973565b6119c55760405162461bcd60e51b8152600401610bf990614995565b60009182526101336020526040909120805463ffffffff909216600160801b0263ffffffff60801b19909216919091179055565b61012d54604051632474521560e21b81526001600160a01b03909116906391d1485490611a2d90600090339060040161495c565b602060405180830381865afa158015611a4a573d6000803e3d6000fd5b505050506040513d601f19601f82011682018060405250810190611a6e9190614973565b611a8a5760405162461bcd60e51b8152600401610bf990614995565b6001600160a01b038116611ae05760405162461bcd60e51b815260206004820152601d60248201527f436f6e7472616374732063616e6e6f74206265203020616464726573730000006044820152606401610bf9565b61013080546001600160a01b0319166001600160a01b0392909216919091179055565b6001600160a01b037f0000000000000000000000000000000000000000000000000000000000000000163003611b4b5760405162461bcd60e51b8152600401610bf990614bd1565b7f00000000000000000000000000000000000000000000000000000000000000006001600160a01b0316611b94600080516020615193833981519152546001600160a01b031690565b6001600160a01b031614611bba5760405162461bcd60e51b8152600401610bf990614c1d565b611bc38261347a565b6115978282600161350b565b61012d54604051632474521560e21b81526001600160a01b03909116906391d1485490611c0390600090339060040161495c565b602060405180830381865afa158015611c20573d6000803e3d6000fd5b505050506040513d601f19601f82011682018060405250810190611c449190614973565b611c605760405162461bcd60e51b8152600401610bf990614995565b6000918252610135602052604090912055565b6000306001600160a01b037f00000000000000000000000000000000000000000000000000000000000000001614611d135760405162461bcd60e51b815260206004820152603860248201527f555550535570677261646561626c653a206d757374206e6f742062652063616c60448201527f6c6564207468726f7567682064656c656761746563616c6c00000000000000006064820152608401610bf9565b5060008051602061519383398151915290565b61012d54604051632474521560e21b81526001600160a01b03909116906391d1485490611d5a90600090339060040161495c565b602060405180830381865afa158015611d77573d6000803e3d6000fd5b505050506040513d601f19601f82011682018060405250810190611d9b9190614973565b611db75760405162461bcd60e51b8152600401610bf990614995565b611dc46020820182614c69565b611dd46040830160208401614c69565b60008263ffffffff1611611e1f5760405162461bcd60e51b8152602060048201526012602482015271496e76616c69642073746172742074696d6560701b6044820152606401610bf9565b8163ffffffff168163ffffffff1611611e4a5760405162461bcd60e51b8152600401610bf990614b8e565b6000611e5c60e0850160c08601614c69565b63ffffffff1611611ea05760405162461bcd60e51b815260206004820152600e60248201526d496e76616c6964207072697a657360901b6044820152606401610bf9565b61012083013560009081526101336020526040902054600160c01b900463ffffffff1615611f095760405162461bcd60e51b81526020600482015260166024820152754c6f747465727920616c72656164792065786973747360501b6044820152606401610bf9565b6101328054600181019091556101208401357fc53bdfd4aa1ab65dfdaf681ca6bda958ae4a123d4ed68c4277796592280e78359091018190556000908152610133602052604090208390611f5d8282614ce8565b50600090506040516101208501359060008051602061517383398151915290600090a3505050565b61012d54604051632474521560e21b81526001600160a01b03909116906391d1485490611fb990600090339060040161495c565b602060405180830381865afa158015611fd6573d6000803e3d6000fd5b505050506040513d601f19601f82011682018060405250810190611ffa9190614973565b6120165760405162461bcd60e51b8152600401610bf990614995565b600082815261013360205260409020805463ffffffff166120705760405162461bcd60e51b8152602060048201526014602482015273131bdd1d195c9e481a59081b9bdd08199bdd5b9960621b6044820152606401610bf9565b805463ffffffff9081169083161161209a5760405162461bcd60e51b8152600401610bf990614b8e565b805463ffffffff9092166401000000000267ffffffff000000001990921691909117905550565b61012d54604051632474521560e21b81526001600160a01b03909116906391d14854906120f590600090339060040161495c565b602060405180830381865afa158015612112573d6000803e3d6000fd5b505050506040513d601f19601f820116820180604052508101906121369190614973565b6121525760405162461bcd60e51b8152600401610bf990614995565b8060005b8181101561218f5761217f84848381811061217357612173614eaf565b90506101800201611d26565b61218881614ec5565b9050612156565b50505050565b6040805133602082018190529181018790526000906121cc9060600160405160208183030381529060405280519060200120613709565b61012e54604080516020601f88018190048102820181019092528681529293506001600160a01b039091169161221f91849190889088908190840183828082843760009201919091525061374492505050565b6001600160a01b0316146122695760405162461bcd60e51b8152602060048201526011602482015270496e76616c6964207369676e617475726560781b6044820152606401610bf9565b6101315460405163f662781d60e01b81526001600160a01b0384811660048301528992169063f662781d90602401602060405180830381865afa1580156122b4573d6000803e3d6000fd5b505050506040513d601f19601f820116820180604052508101906122d89190614ede565b10156123465761013154604051630259ab7760e61b81526001600160a01b038481166004830152602482018a90529091169063966addc090604401600060405180830381600087803b15801561232d57600080fd5b505af1158015612341573d6000803e3d6000fd5b505050505b612350868661254f565b50505050505050565b6123c66040805161018081018252600080825260208201819052918101829052606081018290526080810182905260a0810182905260c081018290529060e0820190815260200160006001600160a01b031681526020016000815260200160008152602001600081525090565b60008281526101336020908152604091829020825161018081018452815463ffffffff80821683526401000000008204811694830194909452600160401b8104841694820194909452600160601b840483166060820152600160801b840483166080820152600160a01b8404831660a0820152600160c01b840490921660c0830152909160e0830190600160e01b900460ff16600381111561246a5761246a6145a7565b600381111561247b5761247b6145a7565b815260018201546001600160a01b03166020820152600282015460408201526003820154606082015260049091015460809091015292915050565b61012d54604051632474521560e21b81526001600160a01b03909116906391d14854906124ea90600090339060040161495c565b602060405180830381865afa158015612507573d6000803e3d6000fd5b505050506040513d601f19601f8201168201806040525081019061252b9190614973565b6125475760405162461bcd60e51b8152600401610bf990614995565b6117b7613768565b60fb5460ff16156125725760405162461bcd60e51b8152600401610bf9906149bf565b6000828152610134602052604090205482906001600160a01b0316156126515760008181526101346020526040908190205490516320c18e6b60e21b8152336004820152602481018390526001600160a01b039091169063830639ac90604401602060405180830381865afa1580156125ef573d6000803e3d6000fd5b505050506040513d601f19601f820116820180604052508101906126139190614973565b6126515760405162461bcd60e51b815260206004820152600f60248201526e139bdd081dda1a5d195b1a5cdd1959608a1b6044820152606401610bf9565b600083815261013360205260408120805490919081908190600160601b900463ffffffff16156126e057835463ffffffff600160601b820481169161269f918991600160a01b900416614ef7565b11156126e05760405162461bcd60e51b815260206004820152601060248201526f151a58dad95d1cc81cdbdb19081bdd5d60821b6044820152606401610bf9565b6000878152610137602090815260408083203384529091529020548454600160801b900463ffffffff1615612776578454600160801b900463ffffffff166127288883614ef7565b11156127765760405162461bcd60e51b815260206004820181905260248201527f43616e277420627579207468697320616d6f756e74206f66207469636b6574736044820152606401610bf9565b84544263ffffffff9091161180159061279e575084544264010000000090910463ffffffff16115b80156127c7575060018554600160e01b900460ff1660038111156127c4576127c46145a7565b14155b6128095760405162461bcd60e51b81526020600482015260136024820152722637ba3a32b93c9034b9903737ba1037b832b760691b6044820152606401610bf9565b60038501546128189088614f0f565b9250821561282c5761282a33846137c0565b505b6004850154855490925087908690601490612855908490600160a01b900463ffffffff16614f2e565b92506101000a81548163ffffffff021916908363ffffffff1602179055506000821115612934576128868288614f0f565b61012f546040516323b872dd60e01b8152336004820152306024820152604481018390529195506001600160a01b0316906323b872dd906064016020604051808303816000875af11580156128df573d6000803e3d6000fd5b505050506040513d601f19601f820116820180604052508101906129039190614973565b506000888152610138602090815260408083203384529091528120805486929061292e908490614ef7565b90915550505b80600003612978578454859060089061295990600160401b900463ffffffff16614f56565b91906101000a81548163ffffffff021916908363ffffffff1602179055505b6000888152610137602090815260408083203384529091528120805461ffff8a1692906129a6908490614ef7565b9091555050600088815261013a60205260408120905b88811015612a365781546001810183556000838152602090200180546001600160a01b0319163390811790915582546040518c917fc41bbb54d04f2268c7895b9330f18468c306a3f92698a92c4c86b2978739784891612a1e91815260200190565b60405180910390a3612a2f81614ec5565b90506129bc565b50505050505050505050565b8060005b8181101561218f57612a75848483818110612a6357612a63614eaf565b90506020028101906104b19190614f79565b612a7e81614ec5565b9050612a46565b60009182526065602090815260408084206001600160a01b0393909316845291905290205460ff1690565b60606000612abe84846149ff565b612ac9906001614ef7565b6001600160401b03811115612ae057612ae0614365565b604051908082528060200260200182016040528015612b09578160200160208202803683370190505b509050835b838111612b9057600086815261013a60205260409020805482908110612b3657612b36614eaf565b9060005260206000200160009054906101000a90046001600160a01b0316828281518110612b6657612b66614eaf565b6001600160a01b039092166020928302919091019091015280612b8881614ec5565b915050612b0e565b5090505b9392505050565b61012d54604051632474521560e21b81526001600160a01b03909116906391d1485490612bcf90600090339060040161495c565b602060405180830381865afa158015612bec573d6000803e3d6000fd5b505050506040513d601f19601f82011682018060405250810190612c109190614973565b612c2c5760405162461bcd60e51b8152600401610bf990614995565b600081815261013360205260409020805463ffffffff16612c845760405162461bcd60e51b8152602060048201526012602482015271125b9d985b1a59081b1bdd1d195c9e481a5960721b6044820152606401610bf9565b80544264010000000090910463ffffffff1610612cdb5760405162461bcd60e51b8152602060048201526015602482015274131bdd1d195c9e481a5cc81b9bdd0818db1bdcd959605a1b6044820152606401610bf9565b60008154600160e01b900460ff166003811115612cfa57612cfa6145a7565b03612d4657805460ff60e01b1916600160e11b17808255600160e01b900460ff166003811115612d2c57612d2c6145a7565b604051839060008051602061517383398151915290600090a35b60028154600160e01b900460ff166003811115612d6557612d656145a7565b14612db25760405162461bcd60e51b815260206004820152601760248201527f4c6f7474657279206d75737420626520636c6f736564210000000000000000006044820152606401610bf9565b61013054604051632f215ddf60e21b8152600481018490526001600160a01b039091169063bc85777c906024016020604051808303816000875af1158015612dfe573d6000803e3d6000fd5b505050506040513d601f19601f820116820180604052508101906115c09190614ede565b61012d54604051632474521560e21b81526001600160a01b03909116906391d1485490612e5690600090339060040161495c565b602060405180830381865afa158015612e73573d6000803e3d6000fd5b505050506040513d601f19601f82011682018060405250810190612e979190614973565b612eb35760405162461bcd60e51b8152600401610bf990614995565b60009182526101336020526040909120805463ffffffff909216600160601b0263ffffffff60601b19909216919091179055565b600082815260656020526040902060010154612f0281613383565b6115c08383613413565b61012d54604051632474521560e21b81526001600160a01b03909116906391d1485490612f4090600090339060040161495c565b602060405180830381865afa158015612f5d573d6000803e3d6000fd5b505050506040513d601f19601f82011682018060405250810190612f819190614973565b612f9d5760405162461bcd60e51b8152600401610bf990614995565b6000918252610134602052604090912080546001600160a01b0319166001600160a01b03909216919091179055565b61012d54604051632474521560e21b81526001600160a01b03909116906391d148549061300090600090339060040161495c565b602060405180830381865afa15801561301d573d6000803e3d6000fd5b505050506040513d601f19601f820116820180604052508101906130419190614973565b61305d5760405162461bcd60e51b8152600401610bf990614995565b61013180546001600160a01b0319166001600160a01b0392909216919091179055565b610130546001600160a01b031633146130ce5760405162461bcd60e51b815260206004820152601060248201526f4f6e6c7920524e47206164647265737360801b6044820152606401610bf9565b60008281526101336020526040902060028154600160e01b900460ff1660038111156130fc576130fc6145a7565b146131425760405162461bcd60e51b8152602060048201526016602482015275131bdd1d195c9e481b5d5cdd0818994818db1bdcd95960521b6044820152606401610bf9565b805460ff60e01b1916600360e01b1781556000838152610139602052604090208290558054600160e01b900460ff166003811115613182576131826145a7565b604051849060008051602061517383398151915290600090a3505050565b8251815181146131e45760405162461bcd60e51b815260206004820152600f60248201526e57726f6e6720617267756d656e747360881b6044820152606401610bf9565b60005b8181101561323c5761322c85828151811061320457613204614eaf565b60200260200101518585848151811061321f5761321f614eaf565b6020026020010151610cfb565b61323581614ec5565b90506131e7565b5050505050565b600061324f6001613839565b90508015613267576000805461ff0019166101001790555b61326f6138c1565b6132776138e8565b61327f6138c1565b61012f80546001600160a01b038086166001600160a01b03199283161790925561012e8054878416908316179055610131805488841690831617905561012d805492851692909116919091179055801561323c576000805461ff0019169055604051600181527f7f26b83ff96e1f2b6a682f133852f6798a09c465da95921460cefb38474024989060200160405180910390a15050505050565b6001600160a01b03163b151590565b600081600001518260200151836040015184606001516040516020016133519493929190614ff1565b604051602081830303815290604052805190602001209050919050565b600061337b828486613917565b949350505050565b61171b813361392d565b6133978282612a85565b6115975760008281526065602090815260408083206001600160a01b03851684529091529020805460ff191660011790556133cf3390565b6001600160a01b0316816001600160a01b0316837f2f8788117e7eff1d82e926ec794901d17c78024a50270940304540a733656f0d60405160405180910390a45050565b61341d8282612a85565b156115975760008281526065602090815260408083206001600160a01b0385168085529252808320805460ff1916905551339285917ff6391f5c32d9c69d2a47ea670b442974b53935d1edc7fd64eb21e047a839171b9190a45050565b61012d54604051632474521560e21b81526001600160a01b03909116906391d14854906134ae90600090339060040161495c565b602060405180830381865afa1580156134cb573d6000803e3d6000fd5b505050506040513d601f19601f820116820180604052508101906134ef9190614973565b61171b5760405162461bcd60e51b8152600401610bf990614995565b7f4910fdfa16fed3260ed0e7147f7cc6da11a60208b5b9406d12a635614ffd91435460ff161561353e576115c083613991565b826001600160a01b03166352d1902d6040518163ffffffff1660e01b8152600401602060405180830381865afa925050508015613598575060408051601f3d908101601f1916820190925261359591810190614ede565b60015b6135fb5760405162461bcd60e51b815260206004820152602e60248201527f45524331393637557067726164653a206e657720696d706c656d656e7461746960448201526d6f6e206973206e6f74205555505360901b6064820152608401610bf9565b600080516020615193833981519152811461366a5760405162461bcd60e51b815260206004820152602960248201527f45524331393637557067726164653a20756e737570706f727465642070726f786044820152681a58589b195555525160ba1b6064820152608401610bf9565b506115c0838383613a2d565b60fb5460ff166136bf5760405162461bcd60e51b815260206004820152601460248201527314185d5cd8589b194e881b9bdd081c185d5cd95960621b6044820152606401610bf9565b60fb805460ff191690557f5db9ee0a495bf2e6ff9c91a7834c1ba4fdd244a5e8aa4e537bd38aeae4b073aa335b6040516001600160a01b03909116815260200160405180910390a1565b6040517f19457468657265756d205369676e6564204d6573736167653a0a3332000000006020820152603c8101829052600090605c01613351565b60008060006137538585613a52565b9150915061376081613ac0565b509392505050565b60fb5460ff161561378b5760405162461bcd60e51b8152600401610bf9906149bf565b60fb805460ff191660011790557f62e78cea01bee320cd4e420270b5ea74000d11b0c9f74754ebdbfc544b05a2586136ec3390565b61013154604051631e961d2760e01b81526001600160a01b038481166004830152602482018490526000921690631e961d27906044016020604051808303816000875af1158015613815573d6000803e3d6000fd5b505050506040513d601f19601f82011682018060405250810190612b949190614ede565b60008054610100900460ff1615613880578160ff16600114801561385c5750303b155b6138785760405162461bcd60e51b8152600401610bf990615028565b506000919050565b60005460ff8084169116106138a75760405162461bcd60e51b8152600401610bf990615028565b506000805460ff191660ff92909216919091179055600190565b600054610100900460ff166117b75760405162461bcd60e51b8152600401610bf990615076565b600054610100900460ff1661390f5760405162461bcd60e51b8152600401610bf990615076565b6117b7613c76565b6000826139248584613ca9565b14949350505050565b6139378282612a85565b6115975761394f816001600160a01b03166014613d15565b61395a836020613d15565b60405160200161396b9291906150c1565b60408051601f198184030181529082905262461bcd60e51b8252610bf991600401615136565b6001600160a01b0381163b6139fe5760405162461bcd60e51b815260206004820152602d60248201527f455243313936373a206e657720696d706c656d656e746174696f6e206973206e60448201526c1bdd08184818dbdb9d1c9858dd609a1b6064820152608401610bf9565b60008051602061519383398151915280546001600160a01b0319166001600160a01b0392909216919091179055565b613a3683613eb0565b600082511180613a435750805b156115c05761218f8383613ef0565b6000808251604103613a885760208301516040840151606085015160001a613a7c87828585613fe4565b94509450505050613ab9565b8251604003613ab15760208301516040840151613aa68683836140d1565b935093505050613ab9565b506000905060025b9250929050565b6000816004811115613ad457613ad46145a7565b03613adc5750565b6001816004811115613af057613af06145a7565b03613b3d5760405162461bcd60e51b815260206004820152601860248201527f45434453413a20696e76616c6964207369676e617475726500000000000000006044820152606401610bf9565b6002816004811115613b5157613b516145a7565b03613b9e5760405162461bcd60e51b815260206004820152601f60248201527f45434453413a20696e76616c6964207369676e6174757265206c656e677468006044820152606401610bf9565b6003816004811115613bb257613bb26145a7565b03613c0a5760405162461bcd60e51b815260206004820152602260248201527f45434453413a20696e76616c6964207369676e6174757265202773272076616c604482015261756560f01b6064820152608401610bf9565b6004816004811115613c1e57613c1e6145a7565b0361171b5760405162461bcd60e51b815260206004820152602260248201527f45434453413a20696e76616c6964207369676e6174757265202776272076616c604482015261756560f01b6064820152608401610bf9565b600054610100900460ff16613c9d5760405162461bcd60e51b8152600401610bf990615076565b60fb805460ff19169055565b600081815b8451811015613760576000858281518110613ccb57613ccb614eaf565b60200260200101519050808311613cf15760008381526020829052604090209250613d02565b600081815260208490526040902092505b5080613d0d81614ec5565b915050613cae565b60606000613d24836002614f0f565b613d2f906002614ef7565b6001600160401b03811115613d4657613d46614365565b6040519080825280601f01601f191660200182016040528015613d70576020820181803683370190505b509050600360fc1b81600081518110613d8b57613d8b614eaf565b60200101906001600160f81b031916908160001a905350600f60fb1b81600181518110613dba57613dba614eaf565b60200101906001600160f81b031916908160001a9053506000613dde846002614f0f565b613de9906001614ef7565b90505b6001811115613e61576f181899199a1a9b1b9c1cb0b131b232b360811b85600f1660108110613e1d57613e1d614eaf565b1a60f81b828281518110613e3357613e33614eaf565b60200101906001600160f81b031916908160001a90535060049490941c93613e5a81615149565b9050613dec565b508315612b945760405162461bcd60e51b815260206004820181905260248201527f537472696e67733a20686578206c656e67746820696e73756666696369656e746044820152606401610bf9565b613eb981613991565b6040516001600160a01b038216907fbc7cd75a20ee27fd9adebab32041f755214dbc6bffa90cc0225b39da2e5c2d3b90600090a250565b60606001600160a01b0383163b613f585760405162461bcd60e51b815260206004820152602660248201527f416464726573733a2064656c65676174652063616c6c20746f206e6f6e2d636f6044820152651b9d1c9858dd60d21b6064820152608401610bf9565b600080846001600160a01b031684604051613f739190615160565b600060405180830381855af49150503d8060008114613fae576040519150601f19603f3d011682016040523d82523d6000602084013e613fb3565b606091505b5091509150613fdb82826040518060600160405280602781526020016151b36027913961410a565b95945050505050565b6000807f7fffffffffffffffffffffffffffffff5d576e7357a4501ddfe92f46681b20a083111561401b57506000905060036140c8565b8460ff16601b1415801561403357508460ff16601c14155b1561404457506000905060046140c8565b6040805160008082526020820180845289905260ff881692820192909252606081018690526080810185905260019060a0016020604051602081039080840390855afa158015614098573d6000803e3d6000fd5b5050604051601f1901519150506001600160a01b0381166140c1576000600192509250506140c8565b9150600090505b94509492505050565b6000806001600160ff1b038316816140ee60ff86901c601b614ef7565b90506140fc87828885613fe4565b935093505050935093915050565b60608315614119575081612b94565b8251156141295782518084602001fd5b8160405162461bcd60e51b8152600401610bf99190615136565b60006020828403121561415557600080fd5b81356001600160e01b031981168114612b9457600080fd5b6001600160a01b038116811461171b57600080fd5b60006020828403121561419457600080fd5b8135612b948161416d565b6000602082840312156141b157600080fd5b5035919050565b6000806000606084860312156141cd57600080fd5b83356141d88161416d565b95602085013595506040909401359392505050565b6000602082840312156141ff57600080fd5b81356001600160401b0381111561421557600080fd5b820160a08185031215612b9457600080fd5b63ffffffff8116811461171b57600080fd5b6004811061171b57600080fd5b60008060008060008060008060006101208a8c03121561426557600080fd5b8935985060208a0135975060408a0135965060608a013561428581614227565b955060808a013561429581614227565b945060a08a01356142a58161416d565b935060c08a013561ffff811681146142bc57600080fd5b925060e08a01356142cc81614239565b91506101008a01356142dd81614227565b809150509295985092959850929598565b6000806040838503121561430157600080fd5b8235915060208301356143138161416d565b809150509250929050565b6000806040838503121561433157600080fd5b50508035926020909101359150565b6000806040838503121561435357600080fd5b82359150602083013561431381614227565b634e487b7160e01b600052604160045260246000fd5b60405160a081016001600160401b038111828210171561439d5761439d614365565b60405290565b604051601f8201601f191681016001600160401b03811182821017156143cb576143cb614365565b604052919050565b60006001600160401b038311156143ec576143ec614365565b6143ff601f8401601f19166020016143a3565b905082815283838301111561441357600080fd5b828260208301376000602084830101529392505050565b6000806040838503121561443d57600080fd5b82356144488161416d565b915060208301356001600160401b0381111561446357600080fd5b8301601f8101851361447457600080fd5b614483858235602084016143d3565b9150509250929050565b600061018082840312156144a057600080fd5b50919050565b600080602083850312156144b957600080fd5b82356001600160401b03808211156144d057600080fd5b818501915085601f8301126144e457600080fd5b8135818111156144f357600080fd5b8660206101808302850101111561450957600080fd5b60209290920196919550909350505050565b60008060008060006080868803121561453357600080fd5b85359450602086013593506040860135925060608601356001600160401b038082111561455f57600080fd5b818801915088601f83011261457357600080fd5b81358181111561458257600080fd5b89602082850101111561459457600080fd5b9699959850939650602001949392505050565b634e487b7160e01b600052602160045260246000fd5b600481106145db57634e487b7160e01b600052602160045260246000fd5b9052565b815163ffffffff16815261018081016020830151614605602084018263ffffffff169052565b50604083015161461d604084018263ffffffff169052565b506060830151614635606084018263ffffffff169052565b50608083015161464d608084018263ffffffff169052565b5060a083015161466560a084018263ffffffff169052565b5060c083015161467d60c084018263ffffffff169052565b5060e083015161469060e08401826145bd565b50610100838101516001600160a01b0316908301526101208084015190830152610140808401519083015261016092830151929091019190915290565b600080602083850312156146e057600080fd5b82356001600160401b03808211156146f757600080fd5b818501915085601f83011261470b57600080fd5b81358181111561471a57600080fd5b8660208260051b850101111561450957600080fd5b60008060006060848603121561474457600080fd5b505081359360208301359350604090920135919050565b6020808252825182820181905260009190848201906040850190845b8181101561479c5783516001600160a01b031683529284019291840191600101614777565b50909695505050505050565b60006001600160401b038211156147c1576147c1614365565b5060051b60200190565b600082601f8301126147dc57600080fd5b813560206147f16147ec836147a8565b6143a3565b82815260059290921b8401810191818101908684111561481057600080fd5b8286015b8481101561482b5780358352918301918301614814565b509695505050505050565b60008060006060848603121561484b57600080fd5b83356001600160401b038082111561486257600080fd5b818601915086601f83011261487657600080fd5b813560206148866147ec836147a8565b82815260059290921b8401810191818101908a8411156148a557600080fd5b948201945b838610156148cc5785356148bd8161416d565b825294820194908201906148aa565b97505087013594505060408601359150808211156148e957600080fd5b506148f6868287016147cb565b9150509250925092565b6000806000806080858703121561491657600080fd5b84356149218161416d565b935060208501356149318161416d565b925060408501356149418161416d565b915060608501356149518161416d565b939692955090935050565b9182526001600160a01b0316602082015260400190565b60006020828403121561498557600080fd5b81518015158114612b9457600080fd5b60208082526010908201526f41646d696e2063616c6c73206f6e6c7960801b604082015260600190565b60208082526010908201526f14185d5cd8589b194e881c185d5cd95960821b604082015260600190565b634e487b7160e01b600052601160045260246000fd5b600082821015614a1157614a116149e9565b500390565b600060a08236031215614a2857600080fd5b614a3061437b565b823581526020830135614a428161416d565b60208201526040838101359082015260608301356001600160401b0380821115614a6b57600080fd5b9084019036601f830112614a7e57600080fd5b614a8d368335602085016143d3565b60608401526080850135915080821115614aa657600080fd5b50614ab3368286016147cb565b60808301525092915050565b6000808335601e19843603018112614ad657600080fd5b8301803591506001600160401b03821115614af057600080fd5b6020019150600581901b3603821315613ab957600080fd5b6000808335601e19843603018112614b1f57600080fd5b8301803591506001600160401b03821115614b3957600080fd5b602001915036819003821315613ab957600080fd5b6001600160a01b03841681526040602082018190528101829052818360608301376000818301606090810191909152601f909201601f1916010192915050565b60208082526023908201527f436c6f73652074696d65206d7573742062652061667465722073746172742074604082015262696d6560e81b606082015260800190565b6020808252602c908201527f46756e6374696f6e206d7573742062652063616c6c6564207468726f7567682060408201526b19195b1959d85d1958d85b1b60a21b606082015260800190565b6020808252602c908201527f46756e6374696f6e206d7573742062652063616c6c6564207468726f7567682060408201526b6163746976652070726f787960a01b606082015260800190565b600060208284031215614c7b57600080fd5b8135612b9481614227565b60008135610b6281614227565b60008135610b6281614239565b60048210614cbe57634e487b7160e01b600052602160045260246000fd5b805460ff60e01b191660e09290921b60ff60e01b16919091179055565b60008135610b628161416d565b614d0b614cf483614c86565b825463ffffffff191663ffffffff91909116178255565b614d3c614d1a60208401614c86565b825467ffffffff00000000191660209190911b67ffffffff0000000016178255565b614d75614d4b60408401614c86565b82546bffffffff0000000000000000191660409190911b6bffffffff000000000000000016178255565b614da8614d8460608401614c86565b82805463ffffffff60601b191660609290921b63ffffffff60601b16919091179055565b614ddb614db760808401614c86565b82805463ffffffff60801b191660809290921b63ffffffff60801b16919091179055565b614e0e614dea60a08401614c86565b82805463ffffffff60a01b191660a09290921b63ffffffff60a01b16919091179055565b614e41614e1d60c08401614c86565b82805463ffffffff60c01b191660c09290921b63ffffffff60c01b16919091179055565b614e56614e5060e08401614c93565b82614ca0565b614e8a614e666101008401614cdb565b6001830180546001600160a01b0319166001600160a01b0392909216919091179055565b6101208201356002820155610140820135600382015561016082013560048201555050565b634e487b7160e01b600052603260045260246000fd5b600060018201614ed757614ed76149e9565b5060010190565b600060208284031215614ef057600080fd5b5051919050565b60008219821115614f0a57614f0a6149e9565b500190565b6000816000190483118215151615614f2957614f296149e9565b500290565b600063ffffffff808316818516808303821115614f4d57614f4d6149e9565b01949350505050565b600063ffffffff808316818103614f6f57614f6f6149e9565b6001019392505050565b60008235609e19833603018112614f8f57600080fd5b9190910192915050565b60005b83811015614fb4578181015183820152602001614f9c565b8381111561218f5750506000910152565b60008151808452614fdd816020860160208601614f99565b601f01601f19169290920160200192915050565b84815260018060a01b038416602082015282604082015260806060820152600061501e6080830184614fc5565b9695505050505050565b6020808252602e908201527f496e697469616c697a61626c653a20636f6e747261637420697320616c72656160408201526d191e481a5b9a5d1a585b1a5e995960921b606082015260800190565b6020808252602b908201527f496e697469616c697a61626c653a20636f6e7472616374206973206e6f74206960408201526a6e697469616c697a696e6760a81b606082015260800190565b7f416363657373436f6e74726f6c3a206163636f756e74200000000000000000008152600083516150f9816017850160208801614f99565b7001034b99036b4b9b9b4b733903937b6329607d1b601791840191820152835161512a816028840160208801614f99565b01602801949350505050565b602081526000612b946020830184614fc5565b600081615158576151586149e9565b506000190190565b60008251614f8f818460208701614f9956fea3aca9ae20a0379d4094b84c749cbed6584ab20f0b71af75f63f6615d879c939360894a13ba1a3210667c828492db98dca3e2076cc3735a920a3ca505d382bbc416464726573733a206c6f772d6c6576656c2064656c65676174652063616c6c206661696c6564a2646970667358221220bc5dcdd41cb7f2d866a1d3ca70db57f7b809853ab3d9e544f2617206512f624e64736f6c634300080e0033496e697469616c697a61626c653a20636f6e747261637420697320616c726561",
  "linkReferences": {},
  "deployedLinkReferences": {}
}