{
  "_format": "hh-sol-artifact-1",
  "contractName": "MockRNG",
  "sourceName": "contracts/Lottery/MockRNG.sol",
  "abi": [
    {
      "inputs": [
        {
          "internalType": "address",
          "name": "_lotteryAddr",
          "type": "address"
        }
      ],
      "stateMutability": "nonpayable",
      "type": "constructor"
    },
    {
      "anonymous": false,
      "inputs": [
        {
          "indexed": true,
          "internalType": "address",
          "name": "previousOwner",
          "type": "address"
        },
        {
          "indexed": true,
          "internalType": "address",
          "name": "newOwner",
          "type": "address"
        }
      ],
      "name": "OwnershipTransferred",
      "type": "event"
    },
    {
      "inputs": [],
      "name": "currentLotteryId",
      "outputs": [
        {
          "internalType": "uint256",
          "name": "",
          "type": "uint256"
        }
      ],
      "stateMutability": "view",
      "type": "function"
    },
    {
      "inputs": [
        {
          "internalType": "uint256",
          "name": "_requestId",
          "type": "uint256"
        },
        {
          "internalType": "uint256[]",
          "name": "_randomWords",
          "type": "uint256[]"
        }
      ],
      "name": "fulfillRandomWords",
      "outputs": [],
      "stateMutability": "nonpayable",
      "type": "function"
    },
    {
      "inputs": [],
      "name": "owner",
      "outputs": [
        {
          "internalType": "address",
          "name": "",
          "type": "address"
        }
      ],
      "stateMutability": "view",
      "type": "function"
    },
    {
      "inputs": [],
      "name": "randomResult",
      "outputs": [
        {
          "internalType": "uint256",
          "name": "",
          "type": "uint256"
        }
      ],
      "stateMutability": "view",
      "type": "function"
    },
    {
      "inputs": [],
      "name": "renounceOwnership",
      "outputs": [],
      "stateMutability": "nonpayable",
      "type": "function"
    },
    {
      "inputs": [
        {
          "internalType": "uint256",
          "name": "lotteryId",
          "type": "uint256"
        }
      ],
      "name": "requestRandomWords",
      "outputs": [
        {
          "internalType": "bytes32",
          "name": "requestId",
          "type": "bytes32"
        }
      ],
      "stateMutability": "nonpayable",
      "type": "function"
    },
    {
      "inputs": [
        {
          "internalType": "address",
          "name": "newOwner",
          "type": "address"
        }
      ],
      "name": "transferOwnership",
      "outputs": [],
      "stateMutability": "nonpayable",
      "type": "function"
    }
  ],
  "bytecode": "0x608060405234801561001057600080fd5b506040516105b03803806105b083398101604081905261002f916100ad565b6100383361005d565b600480546001600160a01b0319166001600160a01b03929092169190911790556100dd565b600080546001600160a01b038381166001600160a01b0319831681178455604051919092169283917f8be0079c531659141344cd1fd0a4f28419497f9722a3daafe3b4186f6b6457e09190a35050565b6000602082840312156100bf57600080fd5b81516001600160a01b03811681146100d657600080fd5b9392505050565b6104c4806100ec6000396000f3fe608060405234801561001057600080fd5b506004361061007d5760003560e01c8063715018a61161005b578063715018a6146100bc5780638da5cb5b146100c4578063bc85777c146100df578063f2fde38b1461012857600080fd5b806338ba46141461008257806342619f66146100975780636be4097c146100b3575b600080fd5b610095610090366004610365565b61013b565b005b6100a060035481565b6040519081526020015b60405180910390f35b6100a060065481565b6100956101c9565b6000546040516001600160a01b0390911681526020016100aa565b6100a06100ed36600461042f565b600580546001600160a01b03191633179055600681905560408051602080820193909352815180820384018152908201909152805191012090565b610095610136366004610448565b610234565b60045481516001600160a01b039091169063eb1ea521908490849060009061016557610165610478565b60200260200101516040518363ffffffff1660e01b8152600401610193929190918252602082015260400190565b600060405180830381600087803b1580156101ad57600080fd5b505af11580156101c1573d6000803e3d6000fd5b505050505050565b6000546001600160a01b031633146102285760405162461bcd60e51b815260206004820181905260248201527f4f776e61626c653a2063616c6c6572206973206e6f7420746865206f776e657260448201526064015b60405180910390fd5b61023260006102ff565b565b6000546001600160a01b0316331461028e5760405162461bcd60e51b815260206004820181905260248201527f4f776e61626c653a2063616c6c6572206973206e6f7420746865206f776e6572604482015260640161021f565b6001600160a01b0381166102f35760405162461bcd60e51b815260206004820152602660248201527f4f776e61626c653a206e6577206f776e657220697320746865207a65726f206160448201526564647265737360d01b606482015260840161021f565b6102fc816102ff565b50565b600080546001600160a01b038381166001600160a01b0319831681178455604051919092169283917f8be0079c531659141344cd1fd0a4f28419497f9722a3daafe3b4186f6b6457e09190a35050565b634e487b7160e01b600052604160045260246000fd5b6000806040838503121561037857600080fd5b8235915060208084013567ffffffffffffffff8082111561039857600080fd5b818601915086601f8301126103ac57600080fd5b8135818111156103be576103be61034f565b8060051b604051601f19603f830116810181811085821117156103e3576103e361034f565b60405291825284820192508381018501918983111561040157600080fd5b938501935b8285101561041f57843584529385019392850192610406565b8096505050505050509250929050565b60006020828403121561044157600080fd5b5035919050565b60006020828403121561045a57600080fd5b81356001600160a01b038116811461047157600080fd5b9392505050565b634e487b7160e01b600052603260045260246000fdfea2646970667358221220f6f30bd91e485c973830103af3ed5d1fb9d89b067dfbb602ad9c9fb402eea25264736f6c634300080e0033",
  "linkReferences": {},
  "deployedLinkReferences": {}
}