{
  "_format": "hh-sol-artifact-1",
  "contractName": "MockRNG",
  "sourceName": "contracts/Lottery/MockRNG.sol",
  "abi": [
    {
      "inputs": [
        {
          "internalType": "address",
          "name": "_lotteryAddr",
          "type": "address"
        }
      ],
      "stateMutability": "nonpayable",
      "type": "constructor"
    },
    {
      "anonymous": false,
      "inputs": [
        {
          "indexed": true,
          "internalType": "address",
          "name": "previousOwner",
          "type": "address"
        },
        {
          "indexed": true,
          "internalType": "address",
          "name": "newOwner",
          "type": "address"
        }
      ],
      "name": "OwnershipTransferred",
      "type": "event"
    },
    {
      "inputs": [],
      "name": "currentLotteryId",
      "outputs": [
        {
          "internalType": "uint256",
          "name": "",
          "type": "uint256"
        }
      ],
      "stateMutability": "view",
      "type": "function"
    },
    {
      "inputs": [
        {
          "internalType": "uint256",
          "name": "_requestId",
          "type": "uint256"
        },
        {
          "internalType": "uint256[]",
          "name": "_randomWords",
          "type": "uint256[]"
        }
      ],
      "name": "fulfillRandomWords",
      "outputs": [],
      "stateMutability": "nonpayable",
      "type": "function"
    },
    {
      "inputs": [],
      "name": "owner",
      "outputs": [
        {
          "internalType": "address",
          "name": "",
          "type": "address"
        }
      ],
      "stateMutability": "view",
      "type": "function"
    },
    {
      "inputs": [],
      "name": "randomResult",
      "outputs": [
        {
          "internalType": "uint256",
          "name": "",
          "type": "uint256"
        }
      ],
      "stateMutability": "view",
      "type": "function"
    },
    {
      "inputs": [],
      "name": "renounceOwnership",
      "outputs": [],
      "stateMutability": "nonpayable",
      "type": "function"
    },
    {
      "inputs": [
        {
          "internalType": "uint256",
          "name": "lotteryId",
          "type": "uint256"
        }
      ],
      "name": "requestRandomWords",
      "outputs": [
        {
          "internalType": "bytes32",
          "name": "requestId",
          "type": "bytes32"
        }
      ],
      "stateMutability": "nonpayable",
      "type": "function"
    },
    {
      "inputs": [
        {
          "internalType": "address",
          "name": "newOwner",
          "type": "address"
        }
      ],
      "name": "transferOwnership",
      "outputs": [],
      "stateMutability": "nonpayable",
      "type": "function"
    }
  ],
  "bytecode": "0x608060405234801561001057600080fd5b5060405161056638038061056683398101604081905261002f916100ad565b6100383361005d565b600480546001600160a01b0319166001600160a01b03929092169190911790556100dd565b600080546001600160a01b038381166001600160a01b0319831681178455604051919092169283917f8be0079c531659141344cd1fd0a4f28419497f9722a3daafe3b4186f6b6457e09190a35050565b6000602082840312156100bf57600080fd5b81516001600160a01b03811681146100d657600080fd5b9392505050565b61047a806100ec6000396000f3fe608060405234801561001057600080fd5b506004361061007d5760003560e01c8063715018a61161005b578063715018a6146100bc5780638da5cb5b146100c4578063bc85777c146100df578063f2fde38b1461012857600080fd5b806338ba46141461008257806342619f66146100975780636be4097c146100b3575b600080fd5b61009561009036600461031b565b61013b565b005b6100a060035481565b6040519081526020015b60405180910390f35b6100a060065481565b6100956101c9565b6000546040516001600160a01b0390911681526020016100aa565b6100a06100ed3660046103e5565b600580546001600160a01b03191633179055600681905560408051602080820193909352815180820384018152908201909152805191012090565b6100956101363660046103fe565b6101dd565b60045481516001600160a01b039091169063eb1ea52190849084906000906101655761016561042e565b60200260200101516040518363ffffffff1660e01b8152600401610193929190918252602082015260400190565b600060405180830381600087803b1580156101ad57600080fd5b505af11580156101c1573d6000803e3d6000fd5b505050505050565b6101d161025b565b6101db60006102b5565b565b6101e561025b565b6001600160a01b03811661024f5760405162461bcd60e51b815260206004820152602660248201527f4f776e61626c653a206e6577206f776e657220697320746865207a65726f206160448201526564647265737360d01b60648201526084015b60405180910390fd5b610258816102b5565b50565b6000546001600160a01b031633146101db5760405162461bcd60e51b815260206004820181905260248201527f4f776e61626c653a2063616c6c6572206973206e6f7420746865206f776e65726044820152606401610246565b600080546001600160a01b038381166001600160a01b0319831681178455604051919092169283917f8be0079c531659141344cd1fd0a4f28419497f9722a3daafe3b4186f6b6457e09190a35050565b634e487b7160e01b600052604160045260246000fd5b6000806040838503121561032e57600080fd5b8235915060208084013567ffffffffffffffff8082111561034e57600080fd5b818601915086601f83011261036257600080fd5b81358181111561037457610374610305565b8060051b604051601f19603f8301168101818110858211171561039957610399610305565b6040529182528482019250838101850191898311156103b757600080fd5b938501935b828510156103d5578435845293850193928501926103bc565b8096505050505050509250929050565b6000602082840312156103f757600080fd5b5035919050565b60006020828403121561041057600080fd5b81356001600160a01b038116811461042757600080fd5b9392505050565b634e487b7160e01b600052603260045260246000fdfea26469706673582212204b1911833841daf947f7e851820de4edc34c2a0de171ff696f66712ca59e906a64736f6c634300080e0033",
  "linkReferences": {},
  "deployedLinkReferences": {}
}