{
  "_format": "hh-sol-artifact-1",
  "contractName": "Marketplace",
  "sourceName": "contracts/Market/Marketplace.sol",
  "abi": [
    {
      "inputs": [
        {
          "internalType": "address",
          "name": "_storage",
          "type": "address"
        },
        {
          "internalType": "address",
          "name": "_token",
          "type": "address"
        }
      ],
      "stateMutability": "nonpayable",
      "type": "constructor"
    },
    {
      "anonymous": false,
      "inputs": [
        {
          "indexed": true,
          "internalType": "address",
          "name": "buyer",
          "type": "address"
        },
        {
          "indexed": true,
          "internalType": "uint256",
          "name": "tokenId",
          "type": "uint256"
        },
        {
          "indexed": false,
          "internalType": "uint256",
          "name": "price",
          "type": "uint256"
        }
      ],
      "name": "ListedNFTSold",
      "type": "event"
    },
    {
      "inputs": [
        {
          "internalType": "address",
          "name": "tokenOwner",
          "type": "address"
        },
        {
          "internalType": "address",
          "name": "contractAddress",
          "type": "address"
        },
        {
          "internalType": "uint256",
          "name": "price",
          "type": "uint256"
        },
        {
          "internalType": "uint256",
          "name": "tokenId",
          "type": "uint256"
        },
        {
          "internalType": "uint256",
          "name": "expiresAt",
          "type": "uint256"
        },
        {
          "internalType": "bytes",
          "name": "signature",
          "type": "bytes"
        }
      ],
      "name": "buyFromSellOffer",
      "outputs": [],
      "stateMutability": "nonpayable",
      "type": "function"
    },
    {
      "inputs": [
        {
          "internalType": "address",
          "name": "from",
          "type": "address"
        },
        {
          "internalType": "address",
          "name": "contractAddress",
          "type": "address"
        },
        {
          "internalType": "uint256",
          "name": "price",
          "type": "uint256"
        },
        {
          "internalType": "uint256",
          "name": "tokenId",
          "type": "uint256"
        }
      ],
      "name": "cancelSignedOffer",
      "outputs": [],
      "stateMutability": "nonpayable",
      "type": "function"
    },
    {
      "inputs": [
        {
          "internalType": "address",
          "name": "from",
          "type": "address"
        },
        {
          "internalType": "address",
          "name": "contractAddress",
          "type": "address"
        },
        {
          "internalType": "uint256",
          "name": "price",
          "type": "uint256"
        },
        {
          "internalType": "uint256",
          "name": "tokenId",
          "type": "uint256"
        },
        {
          "internalType": "uint256",
          "name": "expiresAt",
          "type": "uint256"
        },
        {
          "internalType": "bytes",
          "name": "signature",
          "type": "bytes"
        }
      ],
      "name": "sellFromBuyOffer",
      "outputs": [],
      "stateMutability": "nonpayable",
      "type": "function"
    },
    {
      "inputs": [],
      "name": "token",
      "outputs": [
        {
          "internalType": "contract IERC20",
          "name": "",
          "type": "address"
        }
      ],
      "stateMutability": "view",
      "type": "function"
    }
  ],
  "bytecode": "0x60a03461009057601f61103938819003918201601f19168301916001600160401b038311848410176100955780849260409485528339810103126100905780610056602061004f61007b946100ab565b92016100ab565b6001600160a01b03918216608052600080546001600160a01b03191691909216179055565b604051610f7990816100c08239608051815050f35b600080fd5b634e487b7160e01b600052604160045260246000fd5b51906001600160a01b03821682036100905756fe6040608081526004908136101561001557600080fd5b600090813560e01c9283632ea6d3971461006c57505050806343d9e822146100635780636139c5bf1461005a5763fc0c546a14610052575b600080fd5b61004d610883565b5061004d6107a2565b5061004d610488565b346104045761009e6100cf8461008136610419565b916100959a9499939a969596428211610985565b8a8a8888610b19565b89516331a9108f60e11b81528381018a81526020986001600160a01b0397881697929492918a918691829190840190565b03818a5afa9384156103f7575b88946103b8575b50916100fb61013892846101459587169116146109e6565b61012861012361011f610118846000526001602052604060002090565b5460ff1690565b1590565b610a32565b6000526001602052604060002090565b805460ff19166001179055565b833b156103b4578851635c46a7ef60e11b81526001600160a01b03909116828201908152336020820152604081018990526080606082018190526000908201526101d69587958b938a93919290918290819060a001038183865af180156103a7575b61038e575b50898c845180998195829463152a902d60e11b845289840160209093929193604081019481520152565b03925af1908115610381575b89948a9261034f575b508954610208906001600160a01b03165b6001600160a01b031690565b89516323b872dd60e01b808252338483019081526001600160a01b03909816602089015260408801859052969091869183919082908f90829060600103925af18015610342575b610325575b5089548a906102769061026f906001600160a01b03166101fc565b9389610ac2565b8a51968752339287019283526001600160a01b039094166020830152604082019390935284928391829060600103925af18015610318575b6102ea575b5050825190815233907f61acef2aad9606c6292e919872b0289e7bd1db84840e160a7997459756e6c0b09080602081015b0390a351f35b8161030992903d10610311575b6103018183610901565b810190610a93565b5084806102b3565b503d6102f7565b6103206109d9565b6102ae565b61033b90853d8711610311576103018183610901565b508a610254565b61034a6109d9565b61024f565b9094506103729150883d8a1161037a575b61036a8183610901565b810190610a74565b90938a6101eb565b503d610360565b6103896109d9565b6101e2565b8061039b6103a1926108c4565b80610878565b8c6101ac565b6103af6109d9565b6101a7565b8480fd5b61014593919450610138926103e56100fb928c8d3d106103f0575b6103dd8183610901565b8101906109c1565b9592945092506100e3565b503d6103d3565b6103ff6109d9565b6100dc565b8280fd5b6001600160a01b0381160361004d57565b60c060031982011261004d5760043561043181610408565b9160243561043e81610408565b9160443591606435916084359160a43567ffffffffffffffff9283821161004d578060238301121561004d57816004013593841161004d576024848301011161004d576024019190565b503461004d576104b561049a36610419565b916104ac979395969497428211610985565b85888887610bce565b604080516331a9108f60e11b8152600481018690526001600160a01b03968716979196939493909260209182856024818d5afa948515610795575b600095610768575b5061051d916100fb826105116101389489163314610f01565b80891699168914610ad9565b873b1561004d5786816102e4946105dc7f61acef2aad9606c6292e919872b0289e7bd1db84840e160a7997459756e6c0b097848760009e8f61059e908f855180938192635c46a7ef60e11b8352898c60048501919060a09391600180861b038092168452166020830152604082015260806060820152600060808201520190565b038183865af1801561075b575b610748575b508f8e90845180978195829463152a902d60e11b84526004840160209093929193604081019481520152565b03925af191821561073b575b8d90819361071b575b508d548e9190610609906001600160a01b03166101fc565b87516323b872dd60e01b8082526001600160a01b038681166004840152939093166024820152604481018690529087908290606490829087905af1801561070e575b6106f1575b5081546106a5906106749061066d906001600160a01b03166101fc565b958b610ac2565b97519788968795869485526004850160409194939294606082019560018060a01b0380921683521660208201520152565b03925af180156106e4575b6106c6575b505085519081529081906020820190565b816106dc92903d10610311576103018183610901565b5038806106b5565b6106ec6109d9565b6106b0565b61070790873d8911610311576103018183610901565b5038610650565b6107166109d9565b61064b565b8e93506107359150863d881161037a5761036a8183610901565b926105f1565b6107436109d9565b6105e8565b8061039b610755926108c4565b386105b0565b6107636109d9565b6105ab565b610138919550916100fb61078b61051d94863d88116103f0576103dd8183610901565b96925050916104f8565b61079d6109d9565b6104f0565b503461004d57608036600319011261004d576004356107c081610408565b602435906107cd82610408565b6001600160a01b038116330361083357604080516001600160a01b03928316602082019081529390921690820152604435606082015260643560808083019190915281526108319161013891610128919061082960a082610901565b519020610923565b005b60405162461bcd60e51b815260206004820152601a60248201527f43616e206f6e6c792063616e63656c206f776e206f66666572730000000000006044820152606490fd5b600091031261004d57565b503461004d57600036600319011261004d576000546040516001600160a01b039091168152602090f35b50634e487b7160e01b600052604160045260246000fd5b67ffffffffffffffff81116108d857604052565b6108e06108ad565b604052565b60e0810190811067ffffffffffffffff8211176108d857604052565b90601f8019910116810190811067ffffffffffffffff8211176108d857604052565b60405160208101917f19457468657265756d205369676e6564204d6573736167653a0a3332000000008352603c820152603c81526060810181811067ffffffffffffffff821117610978575b60405251902090565b6109806108ad565b61096f565b1561098c57565b60405162461bcd60e51b815260206004820152600d60248201526c13d999995c88195e1c1a5c9959609a1b6044820152606490fd5b9081602091031261004d57516109d681610408565b90565b506040513d6000823e3d90fd5b156109ed57565b60405162461bcd60e51b815260206004820152601f60248201527f4f66666572206e6f74207369676e656420627920746f6b656e206f776e6572006044820152606490fd5b15610a3957565b60405162461bcd60e51b815260206004820152601360248201527213d999995c881dd85cc818d85b98d95b1b1959606a1b6044820152606490fd5b919082604091031261004d5760208251610a8d81610408565b92015190565b9081602091031261004d5751801515810361004d5790565b50634e487b7160e01b600052601160045260246000fd5b818110610acd570390565b610ad5610aab565b0390565b15610ae057565b60405162461bcd60e51b8152602060048201526011602482015270496e76616c6964207369676e617475726560781b6044820152606490fd5b9496959392610b6592919360405191602083019360018060a01b0380809a16978887521660408501526060840152608083015260a0820152600160c082015260c08152610829816108e5565b9467ffffffffffffffff8311610bc1575b604051610b8d601f8501601f191660200182610901565b838152368483011161004d576000602085610bbd96610bb495838601378301015286610c1a565b92831614610ad9565b9190565b610bc96108ad565b610b76565b9496959392610b6592919360405191602083019360018060a01b0380809a16978887521660408501526060840152608083015260a0820152600060c082015260c08152610829816108e5565b6109d691610c2791610dd0565b919091610c4f565b60051115610c3957565b634e487b7160e01b600052602160045260246000fd5b610c5881610c2f565b80610c605750565b610c6981610c2f565b60018103610cb65760405162461bcd60e51b815260206004820152601860248201527f45434453413a20696e76616c6964207369676e617475726500000000000000006044820152606490fd5b610cbf81610c2f565b60028103610d0c5760405162461bcd60e51b815260206004820152601f60248201527f45434453413a20696e76616c6964207369676e6174757265206c656e677468006044820152606490fd5b610d1581610c2f565b60038103610d6d5760405162461bcd60e51b815260206004820152602260248201527f45434453413a20696e76616c6964207369676e6174757265202773272076616c604482015261756560f01b6064820152608490fd5b80610d79600492610c2f565b14610d8057565b60405162461bcd60e51b815260206004820152602260248201527f45434453413a20696e76616c6964207369676e6174757265202776272076616c604482015261756560f01b6064820152608490fd5b815160418103610dfd575090610df9916020820151906060604084015193015160001a90610e4b565b9091565b604003610e41578160406020610df99401519101519160ff601b84821c9481198611610e34575b600180841b031694011690610e4b565b610e3c610aab565b610e24565b5050600090600290565b9291907f7fffffffffffffffffffffffffffffff5d576e7357a4501ddfe92f46681b20a08311610ef55760ff16601b81141580610eea575b610ede579160809493916020936040519384528484015260408301526060820152600093849182805260015afa15610ed1575b81516001600160a01b03811615610ecb579190565b50600190565b610ed96109d9565b610eb6565b50505050600090600490565b50601c811415610e83565b50505050600090600390565b15610f0857565b60405162461bcd60e51b81526020600482015260136024820152722737ba103a3432903a37b5b2b71037bbb732b960691b6044820152606490fdfea26469706673582212207f554799407caaa8ca55725c5a664bc84d79d87a1329784dffa9ea10045ed78364736f6c634300080e0033",
  "linkReferences": {},
  "deployedLinkReferences": {}
}