{
  "_format": "hh-sol-artifact-1",
  "contractName": "Marketplace",
  "sourceName": "contracts/Market/Marketplace.sol",
  "abi": [
    {
      "inputs": [
        {
          "internalType": "address",
          "name": "_storage",
          "type": "address"
        },
        {
          "internalType": "address",
          "name": "_token",
          "type": "address"
        }
      ],
      "stateMutability": "nonpayable",
      "type": "constructor"
    },
    {
      "anonymous": false,
      "inputs": [
        {
          "indexed": true,
          "internalType": "address",
          "name": "seller",
          "type": "address"
        },
        {
          "indexed": true,
          "internalType": "address",
          "name": "buyer",
          "type": "address"
        },
        {
          "indexed": true,
          "internalType": "address",
          "name": "contractAddress",
          "type": "address"
        },
        {
          "indexed": false,
          "internalType": "uint256",
          "name": "tokenId",
          "type": "uint256"
        },
        {
          "indexed": false,
          "internalType": "uint256",
          "name": "price",
          "type": "uint256"
        }
      ],
      "name": "ListedNFTSold",
      "type": "event"
    },
    {
      "inputs": [
        {
          "internalType": "address",
          "name": "signer",
          "type": "address"
        },
        {
          "internalType": "address",
          "name": "contractAddress",
          "type": "address"
        },
        {
          "internalType": "uint256",
          "name": "price",
          "type": "uint256"
        },
        {
          "internalType": "uint256",
          "name": "tokenId",
          "type": "uint256"
        },
        {
          "internalType": "uint256",
          "name": "expiresAt",
          "type": "uint256"
        },
        {
          "internalType": "bytes",
          "name": "signature",
          "type": "bytes"
        }
      ],
      "name": "buyFromSellOffer",
      "outputs": [],
      "stateMutability": "nonpayable",
      "type": "function"
    },
    {
      "inputs": [
        {
          "internalType": "address",
          "name": "signer",
          "type": "address"
        },
        {
          "internalType": "address",
          "name": "contractAddress",
          "type": "address"
        },
        {
          "internalType": "uint256",
          "name": "price",
          "type": "uint256"
        },
        {
          "internalType": "uint256",
          "name": "tokenId",
          "type": "uint256"
        },
        {
          "internalType": "uint256",
          "name": "expiresAt",
          "type": "uint256"
        },
        {
          "internalType": "bool",
          "name": "isSellOffer",
          "type": "bool"
        },
        {
          "internalType": "bytes",
          "name": "signature",
          "type": "bytes"
        }
      ],
      "name": "cancelSignedOffer",
      "outputs": [],
      "stateMutability": "nonpayable",
      "type": "function"
    },
    {
      "inputs": [
        {
          "internalType": "address",
          "name": "buyer",
          "type": "address"
        },
        {
          "internalType": "address",
          "name": "contractAddress",
          "type": "address"
        },
        {
          "internalType": "uint256",
          "name": "price",
          "type": "uint256"
        },
        {
          "internalType": "uint256",
          "name": "tokenId",
          "type": "uint256"
        },
        {
          "internalType": "uint256",
          "name": "expiresAt",
          "type": "uint256"
        },
        {
          "internalType": "bytes",
          "name": "signature",
          "type": "bytes"
        }
      ],
      "name": "sellFromBuyOffer",
      "outputs": [],
      "stateMutability": "nonpayable",
      "type": "function"
    },
    {
      "inputs": [],
      "name": "token",
      "outputs": [
        {
          "internalType": "contract IERC20",
          "name": "",
          "type": "address"
        }
      ],
      "stateMutability": "view",
      "type": "function"
    }
  ],
  "bytecode": "0x60a060405234801561001057600080fd5b5060405161130a38038061130a83398101604081905261002f91610073565b6001600160a01b03918216608052600080546001600160a01b031916919092161790556100a6565b80516001600160a01b038116811461006e57600080fd5b919050565b6000806040838503121561008657600080fd5b61008f83610057565b915061009d60208401610057565b90509250929050565b60805161124c6100be6000396000505061124c6000f3fe608060405234801561001057600080fd5b506004361061004c5760003560e01c80632ea6d3971461005157806343d9e82214610066578063d39f7a2014610079578063fc0c546a1461008c575b600080fd5b61006461005f366004610ffc565b6100bb565b005b610064610074366004610ffc565b610591565b610064610087366004611090565b610a51565b60005461009f906001600160a01b031681565b6040516001600160a01b03909116815260200160405180910390f35b4283116100ff5760405162461bcd60e51b815260206004820152600d60248201526c13d999995c88195e1c1a5c9959609a1b60448201526064015b60405180910390fd5b6000610112888888888860018989610ae2565b6040516331a9108f60e11b81526004810187905290915087906000906001600160a01b03831690636352211e90602401602060405180830381865afa15801561015f573d6000803e3d6000fd5b505050506040513d601f19601f820116820180604052508101906101839190611128565b9050806001600160a01b03168a6001600160a01b0316146101e65760405162461bcd60e51b815260206004820152601f60248201527f4f66666572206e6f74207369676e656420627920746f6b656e206f776e65720060448201526064016100f6565b60008381526001602052604090205460ff161561023b5760405162461bcd60e51b815260206004820152601360248201527213d999995c881dd85cc818d85b98d95b1b1959606a1b60448201526064016100f6565b6000838152600160208190526040808320805460ff191690921790915551635c46a7ef60e11b81526001600160a01b038381166004830152336024830152604482018a90526080606483015260848201929092529083169063b88d4fde9060a401600060405180830381600087803b1580156102b657600080fd5b505af11580156102ca573d6000803e3d6000fd5b50505050886001600160a01b0316638da5cb5b6040518163ffffffff1660e01b8152600401602060405180830381865afa15801561030c573d6000803e3d6000fd5b505050506040513d601f19601f820116820180604052508101906103309190611128565b6001600160a01b0316816001600160a01b0316036103c5576000546040516323b872dd60e01b81526001600160a01b03909116906323b872dd9061037c9033908d908d9060040161114c565b6020604051808303816000875af115801561039b573d6000803e3d6000fd5b505050506040513d601f19601f820116820180604052508101906103bf9190611170565b50610539565b60405163152a902d60e11b8152600481018890526024810189905260009081906001600160a01b038c1690632a55205a9060440160408051808303816000875af1158015610417573d6000803e3d6000fd5b505050506040513d601f19601f8201168201806040525081019061043b919061118d565b6000546040516323b872dd60e01b81529294509092506001600160a01b0316906323b872dd906104739033908690869060040161114c565b6020604051808303816000875af1158015610492573d6000803e3d6000fd5b505050506040513d601f19601f820116820180604052508101906104b69190611170565b506000546001600160a01b03166323b872dd338e6104d4858f6111d1565b6040518463ffffffff1660e01b81526004016104f29392919061114c565b6020604051808303816000875af1158015610511573d6000803e3d6000fd5b505050506040513d601f19601f820116820180604052508101906105359190611170565b5050505b60408051888152602081018a90526001600160a01b03808c16923392918516917f1290e46983831321879b11cac756bc8aa08901170f37c279f1537b1c65d51fba91015b60405180910390a450505050505050505050565b4283116105d05760405162461bcd60e51b815260206004820152600d60248201526c13d999995c88195e1c1a5c9959609a1b60448201526064016100f6565b60006105e3888888888860008989610ae2565b6040516331a9108f60e11b81526004810187905290915087906000906001600160a01b03831690636352211e90602401602060405180830381865afa158015610630573d6000803e3d6000fd5b505050506040513d601f19601f820116820180604052508101906106549190611128565b9050336001600160a01b038216146106a45760405162461bcd60e51b81526020600482015260136024820152722737ba103a3432903a37b5b2b71037bbb732b960691b60448201526064016100f6565b60008381526001602052604090205460ff16156106f95760405162461bcd60e51b815260206004820152601360248201527213d999995c881dd85cc818d85b98d95b1b1959606a1b60448201526064016100f6565b6000838152600160208190526040808320805460ff191690921790915551635c46a7ef60e11b81526001600160a01b0383811660048301528c81166024830152604482018a90526080606483015260848201929092529083169063b88d4fde9060a401600060405180830381600087803b15801561077657600080fd5b505af115801561078a573d6000803e3d6000fd5b50505050886001600160a01b0316638da5cb5b6040518163ffffffff1660e01b8152600401602060405180830381865afa1580156107cc573d6000803e3d6000fd5b505050506040513d601f19601f820116820180604052508101906107f09190611128565b6001600160a01b0316816001600160a01b031603610885576000546040516323b872dd60e01b81526001600160a01b03909116906323b872dd9061083c908d908d908d9060040161114c565b6020604051808303816000875af115801561085b573d6000803e3d6000fd5b505050506040513d601f19601f8201168201806040525081019061087f9190611170565b506109f9565b60405163152a902d60e11b8152600481018890526024810189905260009081906001600160a01b038c1690632a55205a9060440160408051808303816000875af11580156108d7573d6000803e3d6000fd5b505050506040513d601f19601f820116820180604052508101906108fb919061118d565b6000546040516323b872dd60e01b81529294509092506001600160a01b0316906323b872dd90610933908f908690869060040161114c565b6020604051808303816000875af1158015610952573d6000803e3d6000fd5b505050506040513d601f19601f820116820180604052508101906109769190611170565b506000546001600160a01b03166323b872dd8d85610994858f6111d1565b6040518463ffffffff1660e01b81526004016109b29392919061114c565b6020604051808303816000875af11580156109d1573d6000803e3d6000fd5b505050506040513d601f19601f820116820180604052508101906109f59190611170565b5050505b886001600160a01b03168a6001600160a01b0316826001600160a01b03167f1290e46983831321879b11cac756bc8aa08901170f37c279f1537b1c65d51fba8a8c60405161057d929190918252602082015260400190565b336001600160a01b03891614610aa95760405162461bcd60e51b815260206004820152601a60248201527f43616e206f6e6c792063616e63656c206f776e206f666665727300000000000060448201526064016100f6565b6000610abb8989898989898989610ae2565b6000908152600160208190526040909120805460ff19169091179055505050505050505050565b604080516001600160a01b03808b166020830152891691810191909152606081018790526080810186905260a0810185905283151560c08201526000908190610b919060e001604051602081830303815290604052805190602001206040517f19457468657265756d205369676e6564204d6573736167653a0a3332000000006020820152603c8101829052600090605c01604051602081830303815290604052805190602001209050919050565b9050896001600160a01b0316610bdd8286868080601f016020809104026020016040519081016040528093929190818152602001838380828437600092019190915250610c3492505050565b6001600160a01b031614610c275760405162461bcd60e51b8152602060048201526011602482015270496e76616c6964207369676e617475726560781b60448201526064016100f6565b9998505050505050505050565b6000806000610c438585610c58565b91509150610c5081610cc6565b509392505050565b6000808251604103610c8e5760208301516040840151606085015160001a610c8287828585610e7f565b94509450505050610cbf565b8251604003610cb75760208301516040840151610cac868383610f6c565b935093505050610cbf565b506000905060025b9250929050565b6000816004811115610cda57610cda6111e8565b03610ce25750565b6001816004811115610cf657610cf66111e8565b03610d435760405162461bcd60e51b815260206004820152601860248201527f45434453413a20696e76616c6964207369676e6174757265000000000000000060448201526064016100f6565b6002816004811115610d5757610d576111e8565b03610da45760405162461bcd60e51b815260206004820152601f60248201527f45434453413a20696e76616c6964207369676e6174757265206c656e6774680060448201526064016100f6565b6003816004811115610db857610db86111e8565b03610e105760405162461bcd60e51b815260206004820152602260248201527f45434453413a20696e76616c6964207369676e6174757265202773272076616c604482015261756560f01b60648201526084016100f6565b6004816004811115610e2457610e246111e8565b03610e7c5760405162461bcd60e51b815260206004820152602260248201527f45434453413a20696e76616c6964207369676e6174757265202776272076616c604482015261756560f01b60648201526084016100f6565b50565b6000807f7fffffffffffffffffffffffffffffff5d576e7357a4501ddfe92f46681b20a0831115610eb65750600090506003610f63565b8460ff16601b14158015610ece57508460ff16601c14155b15610edf5750600090506004610f63565b6040805160008082526020820180845289905260ff881692820192909252606081018690526080810185905260019060a0016020604051602081039080840390855afa158015610f33573d6000803e3d6000fd5b5050604051601f1901519150506001600160a01b038116610f5c57600060019250925050610f63565b9150600090505b94509492505050565b6000806001600160ff1b03831681610f8960ff86901c601b6111fe565b9050610f9787828885610e7f565b935093505050935093915050565b6001600160a01b0381168114610e7c57600080fd5b60008083601f840112610fcc57600080fd5b50813567ffffffffffffffff811115610fe457600080fd5b602083019150836020828501011115610cbf57600080fd5b600080600080600080600060c0888a03121561101757600080fd5b873561102281610fa5565b9650602088013561103281610fa5565b955060408801359450606088013593506080880135925060a088013567ffffffffffffffff81111561106357600080fd5b61106f8a828b01610fba565b989b979a50959850939692959293505050565b8015158114610e7c57600080fd5b60008060008060008060008060e0898b0312156110ac57600080fd5b88356110b781610fa5565b975060208901356110c781610fa5565b965060408901359550606089013594506080890135935060a08901356110ec81611082565b925060c089013567ffffffffffffffff81111561110857600080fd5b6111148b828c01610fba565b999c989b5096995094979396929594505050565b60006020828403121561113a57600080fd5b815161114581610fa5565b9392505050565b6001600160a01b039384168152919092166020820152604081019190915260600190565b60006020828403121561118257600080fd5b815161114581611082565b600080604083850312156111a057600080fd5b82516111ab81610fa5565b6020939093015192949293505050565b634e487b7160e01b600052601160045260246000fd5b6000828210156111e3576111e36111bb565b500390565b634e487b7160e01b600052602160045260246000fd5b60008219821115611211576112116111bb565b50019056fea2646970667358221220fa06e8e268f7a0c165acb686bd11d31bf09533a489b02a2df2e09ac00755079464736f6c634300080e0033",
  "linkReferences": {},
  "deployedLinkReferences": {}
}