{
  "_format": "hh-sol-artifact-1",
  "contractName": "Marketplace",
  "sourceName": "contracts/Market/Marketplace.sol",
  "abi": [
    {
      "inputs": [
        {
          "internalType": "address",
          "name": "_storage",
          "type": "address"
        },
        {
          "internalType": "address",
          "name": "_token",
          "type": "address"
        }
      ],
      "stateMutability": "nonpayable",
      "type": "constructor"
    },
    {
      "anonymous": false,
      "inputs": [
        {
          "indexed": true,
          "internalType": "address",
          "name": "buyer",
          "type": "address"
        },
        {
          "indexed": true,
          "internalType": "uint256",
          "name": "tokenId",
          "type": "uint256"
        },
        {
          "indexed": false,
          "internalType": "uint256",
          "name": "price",
          "type": "uint256"
        }
      ],
      "name": "ListedNFTSold",
      "type": "event"
    },
    {
      "anonymous": false,
      "inputs": [
        {
          "indexed": true,
          "internalType": "address",
          "name": "from",
          "type": "address"
        },
        {
          "indexed": true,
          "internalType": "address",
          "name": "contractAddress",
          "type": "address"
        },
        {
          "indexed": false,
          "internalType": "uint256",
          "name": "tokenId",
          "type": "uint256"
        },
        {
          "indexed": false,
          "internalType": "uint256",
          "name": "priceOffer",
          "type": "uint256"
        }
      ],
      "name": "NewBuyOffer",
      "type": "event"
    },
    {
      "inputs": [
        {
          "internalType": "address",
          "name": "contractAddress",
          "type": "address"
        },
        {
          "internalType": "uint256",
          "name": "tokenId",
          "type": "uint256"
        },
        {
          "internalType": "uint256",
          "name": "index",
          "type": "uint256"
        }
      ],
      "name": "acceptBuyOffer",
      "outputs": [],
      "stateMutability": "nonpayable",
      "type": "function"
    },
    {
      "inputs": [
        {
          "internalType": "address",
          "name": "tokenOwner",
          "type": "address"
        },
        {
          "internalType": "address",
          "name": "contractAddress",
          "type": "address"
        },
        {
          "internalType": "uint256",
          "name": "price",
          "type": "uint256"
        },
        {
          "internalType": "uint256",
          "name": "tokenId",
          "type": "uint256"
        },
        {
          "internalType": "uint256",
          "name": "salesNonce",
          "type": "uint256"
        },
        {
          "internalType": "bytes",
          "name": "signature",
          "type": "bytes"
        }
      ],
      "name": "buyFromSellOffer",
      "outputs": [],
      "stateMutability": "nonpayable",
      "type": "function"
    },
    {
      "inputs": [
        {
          "internalType": "address",
          "name": "contractAddress",
          "type": "address"
        },
        {
          "internalType": "uint256",
          "name": "tokenId",
          "type": "uint256"
        },
        {
          "internalType": "uint256",
          "name": "price",
          "type": "uint256"
        }
      ],
      "name": "createSellOffer",
      "outputs": [],
      "stateMutability": "nonpayable",
      "type": "function"
    },
    {
      "inputs": [
        {
          "internalType": "address",
          "name": "contractAddress",
          "type": "address"
        },
        {
          "internalType": "uint256",
          "name": "tokenId",
          "type": "uint256"
        }
      ],
      "name": "takeSellOffer",
      "outputs": [],
      "stateMutability": "nonpayable",
      "type": "function"
    },
    {
      "inputs": [],
      "name": "token",
      "outputs": [
        {
          "internalType": "contract IERC20",
          "name": "",
          "type": "address"
        }
      ],
      "stateMutability": "view",
      "type": "function"
    }
  ],
  "bytecode": "0x60a03461009057601f610f0738819003918201601f19168301916001600160401b038311848410176100955780849260409485528339810103126100905780610056602061004f61007b946100ab565b92016100ab565b6001600160a01b03918216608052600280546001600160a01b03191691909216179055565b604051610e4790816100c08239608051815050f35b600080fd5b634e487b7160e01b600052604160045260246000fd5b51906001600160a01b03821682036100905756fe60806040526004361015610013575b600080fd5b6000803560e01c908163242985631461007a575080632ea6d3971461007157806349d1f33e14610068578063f84390d31461005f5763fc0c546a1461005757600080fd5b61000e61063f565b5061000e610517565b5061000e610375565b5061000e6102f7565b346102c05780610089366102d4565b9060018060a01b03908061018c610114848716956331a9108f60e11b60805261010f8461010060209a8b60808c81607f196100c7889060a491608452565b01915afa80156102b3575b8d90610283575b6100e6908b16331461075b565b6001600160a01b0316600090815260208190526040902090565b90600052602052604060002090565b6107a7565b50600254610132906001600160a01b03165b6001600160a01b031690565b81546002830180546040516323b872dd60e01b81526001600160a01b039093166004840152336024840152604483015298918290829060649082908e905af18015610276575b610248575b5050546001600160a01b031690565b855460405190815290938416907f61acef2aad9606c6292e919872b0289e7bd1db84840e160a7997459756e6c0b090602090a3823b1561024457604051635c46a7ef60e11b81523360048201526001600160a01b0392909216602483015260448201526080606482015260006084820152908390829060a490829084905af18015610237575b61021e575b5055604051f35b8061022b610231926106b0565b80610634565b83610217565b61023f61074e565b610212565b8480fd5b8161026792903d1061026f575b61025f81836106fc565b8101906107d9565b50898061017d565b503d610255565b61027e61074e565b610178565b508b3d8d116102ac575b6102a58161029d6100e693610680565b60800161071e565b90506100d9565b503d61028d565b6102bb61074e565b6100d2565b80fd5b6001600160a01b0381160361000e57565b606090600319011261000e576004356102ec816102c3565b906024359060443590565b503461000e5760c036600319011261000e57600435610315816102c3565b60243590610322826102c3565b60a4359167ffffffffffffffff9182841161000e573660238501121561000e57836004013592831161000e57366024848601011161000e576024610373940191608435916064359160443591610877565b005b503461000e57604036600319011261000e57600435610393816102c3565b6024356103b6816101008460018060a01b03166000526001602052604060002090565b80546001600160a01b03908116931690813b1561000e57604051635c46a7ef60e11b81526001600160a01b039490941660048501523360248501526044840183905260806064850152600060848501819052936104c9928590829060a490829084905af1801561050a575b6104f7575b5060025461043c906001600160a01b0316610126565b81546002830180546040516323b872dd60e01b81523360048201526001600160a01b03909316602484015260448301529491602090829060649082908a905af180156104ea575b6104cc575b50835460405190815233907f61acef2aad9606c6292e919872b0289e7bd1db84840e160a7997459756e6c0b090602090a380546001600160a01b0319169055565b55005b6104e39060203d811161026f5761025f81836106fc565b5038610488565b6104f261074e565b610483565b8061022b610504926106b0565b38610426565b61051261074e565b610421565b503461000e57610526366102d4565b6040516331a9108f60e11b815260048101839052919290916001600160a01b036020826024818487165afa918215610627575b6000926105f7575b50339116036105a8576001600160a01b031660009081526001602052604090206103739261058e91610100565b600281019190915580546001600160a01b03191633179055565b60405162461bcd60e51b815260206004820152602160248201527f4f6e6c79206f776e65722063616e206372656174652073656c6c206f666665726044820152607360f81b6064820152608490fd5b61061991925060203d8111610620575b61061181836106fc565b810190610739565b9038610561565b503d610607565b61062f61074e565b610559565b600091031261000e57565b503461000e57600036600319011261000e576002546040516001600160a01b039091168152602090f35b50634e487b7160e01b600052604160045260246000fd5b601f80199101166080016080811067ffffffffffffffff8211176106a357604052565b6106ab610669565b604052565b67ffffffffffffffff81116106a357604052565b60c0810190811067ffffffffffffffff8211176106a357604052565b6060810190811067ffffffffffffffff8211176106a357604052565b90601f8019910116810190811067ffffffffffffffff8211176106a357604052565b602090607f19011261000e57608051610736816102c3565b90565b9081602091031261000e5751610736816102c3565b506040513d6000823e3d90fd5b1561076257565b60405162461bcd60e51b815260206004820152601b60248201527f4f6e6c79206f776e65722063616e20616363657074206f6666657200000000006044820152606490fd5b80548210156107c35760005260206000209060021b0190600090565b634e487b7160e01b600052603260045260246000fd5b9081602091031261000e5751801515810361000e5790565b156107f857565b60405162461bcd60e51b815260206004820152601f60248201527f4f66666572206e6f74207369676e656420627920746f6b656e206f776e6572006044820152606490fd5b1561084457565b60405162461bcd60e51b815260206004820152600b60248201526a57726f6e67206e6f6e636560a81b6044820152606490fd5b93838197938361088a96979894986109f6565b6040516331a9108f60e11b8152600481018390526001600160a01b03938416949093602085602481895afa9485156109a9575b600095610979575b5061090292916108de826108fd938816908516146107f1565b6001600160a01b0383166000908152600360205260409020541461083d565b610dda565b823b1561000e57604051635c46a7ef60e11b81526001600160a01b039290921660048301523360248301526044820152608060648201526000608482018190529091829060a490829084905af1801561096c575b61095d5750565b8061022b61096a926106b0565b565b61097461074e565b610956565b6108fd919550916108de61099e610902959460203d81116106205761061181836106fc565b9692505091926108c5565b6109b161074e565b6108bd565b156109bd57565b60405162461bcd60e51b8152602060048201526011602482015270496e76616c6964207369676e617475726560781b6044820152606490fd5b959492909360405191602083019360018060a01b0380809a16978887521660408501526060840152608083015260a082015260a08152610a35816106c4565b51902060405160208101917f19457468657265756d205369676e6564204d6573736167653a0a3332000000008352603c820152603c8152610a75816106e0565b51902067ffffffffffffffff8411610acf575b60405190610aa0601f8601601f1916602001836106fc565b848252368584011161000e57600060208661073697610ac6968387013784010152610adc565b928316146109b6565b610ad7610669565b610a88565b61073691610ae991610c92565b919091610b11565b60051115610afb57565b634e487b7160e01b600052602160045260246000fd5b610b1a81610af1565b80610b225750565b610b2b81610af1565b60018103610b785760405162461bcd60e51b815260206004820152601860248201527f45434453413a20696e76616c6964207369676e617475726500000000000000006044820152606490fd5b610b8181610af1565b60028103610bce5760405162461bcd60e51b815260206004820152601f60248201527f45434453413a20696e76616c6964207369676e6174757265206c656e677468006044820152606490fd5b610bd781610af1565b60038103610c2f5760405162461bcd60e51b815260206004820152602260248201527f45434453413a20696e76616c6964207369676e6174757265202773272076616c604482015261756560f01b6064820152608490fd5b80610c3b600492610af1565b14610c4257565b60405162461bcd60e51b815260206004820152602260248201527f45434453413a20696e76616c6964207369676e6174757265202776272076616c604482015261756560f01b6064820152608490fd5b815160418103610cbf575090610cbb916020820151906060604084015193015160001a90610d24565b9091565b604003610d03578160406020610cbb9401519101519160ff601b84821c9481198611610cf6575b600180841b031694011690610d24565b610cfe610d0d565b610ce6565b5050600090600290565b50634e487b7160e01b600052601160045260246000fd5b9291907f7fffffffffffffffffffffffffffffff5d576e7357a4501ddfe92f46681b20a08311610dce5760ff16601b81141580610dc3575b610db7579160809493916020936040519384528484015260408301526060820152600093849182805260015afa15610daa575b81516001600160a01b03811615610da4579190565b50600190565b610db261074e565b610d8f565b50505050600090600490565b50601c811415610d5c565b50505050600090600390565b6001600160a01b0316600090815260036020526040902080546001906000198114610e0457019055565b610e0c610d0d565b01905556fea2646970667358221220834f0b7ce2471a0bb1e9ff81e347b538a6e3bc8e9b7f125c74d07a4965acdcde64736f6c634300080e0033",
  "linkReferences": {},
  "deployedLinkReferences": {}
}