{
  "_format": "hh-sol-artifact-1",
  "contractName": "Marketplace",
  "sourceName": "contracts/Market/Marketplace.sol",
  "abi": [
    {
      "inputs": [
        {
          "internalType": "address",
          "name": "_storage",
          "type": "address"
        },
        {
          "internalType": "address",
          "name": "_token",
          "type": "address"
        }
      ],
      "stateMutability": "nonpayable",
      "type": "constructor"
    },
    {
      "anonymous": false,
      "inputs": [
        {
          "indexed": true,
          "internalType": "address",
          "name": "seller",
          "type": "address"
        },
        {
          "indexed": true,
          "internalType": "address",
          "name": "buyer",
          "type": "address"
        },
        {
          "indexed": true,
          "internalType": "address",
          "name": "contractAddress",
          "type": "address"
        },
        {
          "indexed": false,
          "internalType": "uint256",
          "name": "tokenId",
          "type": "uint256"
        },
        {
          "indexed": false,
          "internalType": "uint256",
          "name": "price",
          "type": "uint256"
        }
      ],
      "name": "ListedNFTSold",
      "type": "event"
    },
    {
      "inputs": [
        {
          "internalType": "address",
          "name": "signer",
          "type": "address"
        },
        {
          "internalType": "address",
          "name": "contractAddress",
          "type": "address"
        },
        {
          "internalType": "uint256",
          "name": "price",
          "type": "uint256"
        },
        {
          "internalType": "uint256",
          "name": "tokenId",
          "type": "uint256"
        },
        {
          "internalType": "uint256",
          "name": "expiresAt",
          "type": "uint256"
        },
        {
          "internalType": "uint256",
          "name": "chainId",
          "type": "uint256"
        },
        {
          "internalType": "bytes",
          "name": "signature",
          "type": "bytes"
        }
      ],
      "name": "buyFromSellOffer",
      "outputs": [],
      "stateMutability": "nonpayable",
      "type": "function"
    },
    {
      "inputs": [
        {
          "internalType": "address",
          "name": "signer",
          "type": "address"
        },
        {
          "internalType": "address",
          "name": "contractAddress",
          "type": "address"
        },
        {
          "internalType": "uint256",
          "name": "price",
          "type": "uint256"
        },
        {
          "internalType": "uint256",
          "name": "tokenId",
          "type": "uint256"
        },
        {
          "internalType": "uint256",
          "name": "expiresAt",
          "type": "uint256"
        },
        {
          "internalType": "uint256",
          "name": "chainId",
          "type": "uint256"
        },
        {
          "internalType": "bool",
          "name": "isSellOffer",
          "type": "bool"
        },
        {
          "internalType": "bytes",
          "name": "signature",
          "type": "bytes"
        }
      ],
      "name": "cancelSignedOffer",
      "outputs": [],
      "stateMutability": "nonpayable",
      "type": "function"
    },
    {
      "inputs": [
        {
          "internalType": "address",
          "name": "buyer",
          "type": "address"
        },
        {
          "internalType": "address",
          "name": "contractAddress",
          "type": "address"
        },
        {
          "internalType": "uint256",
          "name": "price",
          "type": "uint256"
        },
        {
          "internalType": "uint256",
          "name": "tokenId",
          "type": "uint256"
        },
        {
          "internalType": "uint256",
          "name": "expiresAt",
          "type": "uint256"
        },
        {
          "internalType": "uint256",
          "name": "chainId",
          "type": "uint256"
        },
        {
          "internalType": "bytes",
          "name": "signature",
          "type": "bytes"
        }
      ],
      "name": "sellFromBuyOffer",
      "outputs": [],
      "stateMutability": "nonpayable",
      "type": "function"
    },
    {
      "inputs": [],
      "name": "token",
      "outputs": [
        {
          "internalType": "contract IERC20",
          "name": "",
          "type": "address"
        }
      ],
      "stateMutability": "view",
      "type": "function"
    }
  ],
  "bytecode": "0x60a060405234801561001057600080fd5b506040516112e53803806112e583398101604081905261002f91610073565b6001600160a01b03918216608052600080546001600160a01b031916919092161790556100a6565b80516001600160a01b038116811461006e57600080fd5b919050565b6000806040838503121561008657600080fd5b61008f83610057565b915061009d60208401610057565b90509250929050565b6080516112276100be600039600050506112276000f3fe608060405234801561001057600080fd5b506004361061004c5760003560e01c8063058698a7146100515780634fc5d8d81461006657806395425adc14610079578063fc0c546a1461008c575b600080fd5b61006461005f366004610fef565b6100bb565b005b610064610074366004611094565b610153565b610064610087366004611094565b61064b565b60005461009f906001600160a01b031681565b6040516001600160a01b03909116815260200160405180910390f35b336001600160a01b038a16146101185760405162461bcd60e51b815260206004820152601a60248201527f43616e206f6e6c792063616e63656c206f776e206f666665727300000000000060448201526064015b60405180910390fd5b600061012b8a8a8a8a8a8a8a8a8a610b20565b6000908152600160208190526040909120805460ff1916909117905550505050505050505050565b4284116101925760405162461bcd60e51b815260206004820152600d60248201526c13d999995c88195e1c1a5c9959609a1b604482015260640161010f565b60006101a689898989898960008a8a610b20565b6040516331a9108f60e11b81526004810188905290915088906000906001600160a01b03831690636352211e90602401602060405180830381865afa1580156101f3573d6000803e3d6000fd5b505050506040513d601f19601f820116820180604052508101906102179190611123565b9050336001600160a01b038216146102675760405162461bcd60e51b81526020600482015260136024820152722737ba103a3432903a37b5b2b71037bbb732b960691b604482015260640161010f565b60008381526001602052604090205460ff16156102bc5760405162461bcd60e51b815260206004820152601360248201527213d999995c881dd85cc818d85b98d95b1b1959606a1b604482015260640161010f565b6000838152600160208190526040808320805460ff191690921790915551635c46a7ef60e11b81526001600160a01b0383811660048301528d81166024830152604482018b90526080606483015260848201929092529083169063b88d4fde9060a401600060405180830381600087803b15801561033957600080fd5b505af115801561034d573d6000803e3d6000fd5b50505050896001600160a01b0316638da5cb5b6040518163ffffffff1660e01b8152600401602060405180830381865afa15801561038f573d6000803e3d6000fd5b505050506040513d601f19601f820116820180604052508101906103b39190611123565b6001600160a01b0316816001600160a01b031603610448576000546040516323b872dd60e01b81526001600160a01b03909116906323b872dd906103ff908e908e908e90600401611147565b6020604051808303816000875af115801561041e573d6000803e3d6000fd5b505050506040513d601f19601f82011682018060405250810190610442919061116b565b506105de565b60405163152a902d60e11b815260048101899052602481018a905260009081906001600160a01b038d1690632a55205a9060440160408051808303816000875af115801561049a573d6000803e3d6000fd5b505050506040513d601f19601f820116820180604052508101906104be9190611188565b9150915060008054906101000a90046001600160a01b03166001600160a01b03166323b872dd8e84846040518463ffffffff1660e01b815260040161050593929190611147565b6020604051808303816000875af1158015610524573d6000803e3d6000fd5b505050506040513d601f19601f82011682018060405250810190610548919061116b565b5060008054906101000a90046001600160a01b03166001600160a01b03166323b872dd8e85848f61057991906111b6565b6040518463ffffffff1660e01b815260040161059793929190611147565b6020604051808303816000875af11580156105b6573d6000803e3d6000fd5b505050506040513d601f19601f820116820180604052508101906105da919061116b565b5050505b896001600160a01b03168b6001600160a01b0316826001600160a01b03167f1290e46983831321879b11cac756bc8aa08901170f37c279f1537b1c65d51fba8b8d604051610636929190918252602082015260400190565b60405180910390a45050505050505050505050565b42841161068a5760405162461bcd60e51b815260206004820152600d60248201526c13d999995c88195e1c1a5c9959609a1b604482015260640161010f565b600061069e89898989898960018a8a610b20565b6040516331a9108f60e11b81526004810188905290915088906000906001600160a01b03831690636352211e90602401602060405180830381865afa1580156106eb573d6000803e3d6000fd5b505050506040513d601f19601f8201168201806040525081019061070f9190611123565b9050806001600160a01b03168b6001600160a01b0316146107725760405162461bcd60e51b815260206004820152601f60248201527f4f66666572206e6f74207369676e656420627920746f6b656e206f776e657200604482015260640161010f565b60008381526001602052604090205460ff16156107c75760405162461bcd60e51b815260206004820152601360248201527213d999995c881dd85cc818d85b98d95b1b1959606a1b604482015260640161010f565b6000838152600160208190526040808320805460ff191690921790915551635c46a7ef60e11b81526001600160a01b038381166004830152336024830152604482018b90526080606483015260848201929092529083169063b88d4fde9060a401600060405180830381600087803b15801561084257600080fd5b505af1158015610856573d6000803e3d6000fd5b50505050896001600160a01b03166343bc16126040518163ffffffff1660e01b8152600401602060405180830381865afa158015610898573d6000803e3d6000fd5b505050506040513d601f19601f820116820180604052508101906108bc9190611123565b6001600160a01b0316816001600160a01b031603610951576000546040516323b872dd60e01b81526001600160a01b03909116906323b872dd906109089033908e908e90600401611147565b6020604051808303816000875af1158015610927573d6000803e3d6000fd5b505050506040513d601f19601f8201168201806040525081019061094b919061116b565b50610ad8565b60405163152a902d60e11b815260048101899052602481018a905260009081906001600160a01b038d1690632a55205a9060440160408051808303816000875af11580156109a3573d6000803e3d6000fd5b505050506040513d601f19601f820116820180604052508101906109c79190611188565b6000546040516323b872dd60e01b81529294509092506001600160a01b0316906323b872dd906109ff90339086908690600401611147565b6020604051808303816000875af1158015610a1e573d6000803e3d6000fd5b505050506040513d601f19601f82011682018060405250810190610a42919061116b565b5060008054906101000a90046001600160a01b03166001600160a01b03166323b872dd338f848f610a7391906111b6565b6040518463ffffffff1660e01b8152600401610a9193929190611147565b6020604051808303816000875af1158015610ab0573d6000803e3d6000fd5b505050506040513d601f19601f82011682018060405250810190610ad4919061116b565b5050505b60408051898152602081018b90526001600160a01b03808d16923392918516917f1290e46983831321879b11cac756bc8aa08901170f37c279f1537b1c65d51fba9101610636565b604080516001600160a01b03808c1660208301528a1691810191909152606081018890526080810187905260a0810186905260c0810185905283151560e08201526000908190610bd79061010001604051602081830303815290604052805190602001206040517f19457468657265756d205369676e6564204d6573736167653a0a3332000000006020820152603c8101829052600090605c01604051602081830303815290604052805190602001209050919050565b90508a6001600160a01b0316610c238286868080601f016020809104026020016040519081016040528093929190818152602001838380828437600092019190915250610c7b92505050565b6001600160a01b031614610c6d5760405162461bcd60e51b8152602060048201526011602482015270496e76616c6964207369676e617475726560781b604482015260640161010f565b9a9950505050505050505050565b6000806000610c8a8585610c9f565b91509150610c9781610ce4565b509392505050565b6000808251604103610cd55760208301516040840151606085015160001a610cc987828585610e9d565b94509450505050610cdd565b506000905060025b9250929050565b6000816004811115610cf857610cf86111db565b03610d005750565b6001816004811115610d1457610d146111db565b03610d615760405162461bcd60e51b815260206004820152601860248201527f45434453413a20696e76616c6964207369676e61747572650000000000000000604482015260640161010f565b6002816004811115610d7557610d756111db565b03610dc25760405162461bcd60e51b815260206004820152601f60248201527f45434453413a20696e76616c6964207369676e6174757265206c656e67746800604482015260640161010f565b6003816004811115610dd657610dd66111db565b03610e2e5760405162461bcd60e51b815260206004820152602260248201527f45434453413a20696e76616c6964207369676e6174757265202773272076616c604482015261756560f01b606482015260840161010f565b6004816004811115610e4257610e426111db565b03610e9a5760405162461bcd60e51b815260206004820152602260248201527f45434453413a20696e76616c6964207369676e6174757265202776272076616c604482015261756560f01b606482015260840161010f565b50565b6000807f7fffffffffffffffffffffffffffffff5d576e7357a4501ddfe92f46681b20a0831115610ed45750600090506003610f81565b8460ff16601b14158015610eec57508460ff16601c14155b15610efd5750600090506004610f81565b6040805160008082526020820180845289905260ff881692820192909252606081018690526080810185905260019060a0016020604051602081039080840390855afa158015610f51573d6000803e3d6000fd5b5050604051601f1901519150506001600160a01b038116610f7a57600060019250925050610f81565b9150600090505b94509492505050565b6001600160a01b0381168114610e9a57600080fd5b8015158114610e9a57600080fd5b60008083601f840112610fbf57600080fd5b50813567ffffffffffffffff811115610fd757600080fd5b602083019150836020828501011115610cdd57600080fd5b60008060008060008060008060006101008a8c03121561100e57600080fd5b893561101981610f8a565b985060208a013561102981610f8a565b975060408a0135965060608a0135955060808a0135945060a08a0135935060c08a013561105581610f9f565b925060e08a013567ffffffffffffffff81111561107157600080fd5b61107d8c828d01610fad565b915080935050809150509295985092959850929598565b60008060008060008060008060e0898b0312156110b057600080fd5b88356110bb81610f8a565b975060208901356110cb81610f8a565b965060408901359550606089013594506080890135935060a0890135925060c089013567ffffffffffffffff81111561110357600080fd5b61110f8b828c01610fad565b999c989b5096995094979396929594505050565b60006020828403121561113557600080fd5b815161114081610f8a565b9392505050565b6001600160a01b039384168152919092166020820152604081019190915260600190565b60006020828403121561117d57600080fd5b815161114081610f9f565b6000806040838503121561119b57600080fd5b82516111a681610f8a565b6020939093015192949293505050565b6000828210156111d657634e487b7160e01b600052601160045260246000fd5b500390565b634e487b7160e01b600052602160045260246000fdfea26469706673582212206c3e74a541a703e22db02621754ad1f8f7703ca0c6aaba886f98380b53bd218964736f6c634300080e0033",
  "linkReferences": {},
  "deployedLinkReferences": {}
}