{
  "_format": "hh-sol-artifact-1",
  "contractName": "Marketplace",
  "sourceName": "contracts/Market/Marketplace.sol",
  "abi": [
    {
      "anonymous": false,
      "inputs": [],
      "name": "BuyOfferAccepted",
      "type": "event"
    },
    {
      "anonymous": false,
      "inputs": [
        {
          "indexed": true,
          "internalType": "address",
          "name": "from",
          "type": "address"
        },
        {
          "indexed": true,
          "internalType": "address",
          "name": "contractAddress",
          "type": "address"
        },
        {
          "indexed": false,
          "internalType": "uint256",
          "name": "tokenId",
          "type": "uint256"
        },
        {
          "indexed": false,
          "internalType": "uint256",
          "name": "amount",
          "type": "uint256"
        }
      ],
      "name": "NewBuyOffer",
      "type": "event"
    },
    {
      "inputs": [
        {
          "internalType": "address",
          "name": "contractAddress",
          "type": "address"
        },
        {
          "internalType": "uint256",
          "name": "tokenId",
          "type": "uint256"
        }
      ],
      "name": "acceptBuyOffer",
      "outputs": [],
      "stateMutability": "nonpayable",
      "type": "function"
    },
    {
      "inputs": [
        {
          "internalType": "address",
          "name": "contractAddress",
          "type": "address"
        },
        {
          "internalType": "uint256",
          "name": "tokenId",
          "type": "uint256"
        },
        {
          "internalType": "uint256",
          "name": "amount",
          "type": "uint256"
        }
      ],
      "name": "createBuyOffer",
      "outputs": [],
      "stateMutability": "nonpayable",
      "type": "function"
    },
    {
      "inputs": [
        {
          "internalType": "address",
          "name": "contractAddress",
          "type": "address"
        },
        {
          "internalType": "uint256",
          "name": "tokenId",
          "type": "uint256"
        },
        {
          "internalType": "uint256",
          "name": "price",
          "type": "uint256"
        }
      ],
      "name": "createSellOffer",
      "outputs": [],
      "stateMutability": "nonpayable",
      "type": "function"
    },
    {
      "inputs": [
        {
          "internalType": "address",
          "name": "contractAddress",
          "type": "address"
        },
        {
          "internalType": "uint256",
          "name": "tokenId",
          "type": "uint256"
        }
      ],
      "name": "getBuyOffer",
      "outputs": [
        {
          "internalType": "address",
          "name": "",
          "type": "address"
        },
        {
          "internalType": "uint256",
          "name": "",
          "type": "uint256"
        }
      ],
      "stateMutability": "view",
      "type": "function"
    },
    {
      "inputs": [],
      "name": "takeSellOffer",
      "outputs": [],
      "stateMutability": "nonpayable",
      "type": "function"
    },
    {
      "inputs": [],
      "name": "token",
      "outputs": [
        {
          "internalType": "contract IERC20",
          "name": "",
          "type": "address"
        }
      ],
      "stateMutability": "view",
      "type": "function"
    }
  ],
  "bytecode": "0x6080806040523461001657610587908161001c8239f35b600080fdfe608080604052600436101561001357600080fd5b6000803560e01c918263403b2ba7146100905750508063ad5bdcc014610087578063c79a8ece1461007e578063cbdc1d2614610075578063f84390d31461006c5763fc0c546a14610064575b600080fd5b61005f610466565b5061005f610398565b5061005f6102f5565b5061005f61025d565b5061005f610226565b346102115760403660031901126102115761018461010d916101366004356100b781610215565b610127602435916331a9108f60e11b855260209685806100e08660048c9a019190602083019252565b6001600160a01b0391899184919003818785165afa918215610204575b8b926101d5575b501633146104ed565b6001600160a01b0316600090815260208190526040902090565b90600052602052604060002090565b6001546001600160a01b031681546001909201546040516323b872dd60e01b81526001600160a01b039093166004840152336024840152604483015290928391908290879082906064820190565b03925af180156101c8575b61019a575b82604051f35b816101b992903d106101c1575b6101b18183610490565b810190610539565b508180610194565b503d6101a7565b6101d06104e0565b61018f565b6101f6919250883d8a116101fd575b6101ee8183610490565b8101906104c8565b908b610104565b503d6101e4565b61020c6104e0565b6100fd565b5080fd5b6001600160a01b0381160361005f57565b503461005f57600036600319011261005f57005b606090600319011261005f5760043561025281610215565b906024359060443590565b503461005f5761026c3661023a565b9060009260018060a01b03168352826020526040832090835260205260408220906001820180548211156102b0575580546001600160a01b03191633179055604051f35b60405162461bcd60e51b815260206004820152601760248201527f5468657265206973206120686967686572206f666665720000000000000000006044820152606490fd5b503461005f5760408060031936011261005f5760043561031481610215565b6001600160a01b0390811660009081526020818152838220602435835290528281208351909290918285019067ffffffffffffffff82118483101761038457508452825416808252600190920154602091820181905292516001600160a01b039092168252810191909152604090f35b634e487b7160e01b81526041600452602490fd5b503461005f576103a73661023a565b5090604051916331a9108f60e11b8352600483015260208260248160018060a01b038095165afa918215610459575b600092610439575b50339116036103e957005b60405162461bcd60e51b815260206004820152602260248201527f4f6e6c79206f776e65722063616e2063726561746520612073656c6c206f666660448201526132b960f11b6064820152608490fd5b61045291925060203d81116101fd576101ee8183610490565b90386103de565b6104616104e0565b6103d6565b503461005f57600036600319011261005f576001546040516001600160a01b039091168152602090f35b90601f8019910116810190811067ffffffffffffffff8211176104b257604052565b634e487b7160e01b600052604160045260246000fd5b9081602091031261005f57516104dd81610215565b90565b506040513d6000823e3d90fd5b156104f457565b60405162461bcd60e51b815260206004820152601b60248201527f4f6e6c79206f776e65722063616e20616363657074206f6666657200000000006044820152606490fd5b9081602091031261005f5751801515810361005f579056fea2646970667358221220f338800ec34f234ceb7a65af6fccc507c12cc1072d5351b21fccd124be70014664736f6c634300080e0033",
  "linkReferences": {},
  "deployedLinkReferences": {}
}