{
  "_format": "hh-sol-artifact-1",
  "contractName": "Marketplace",
  "sourceName": "contracts/Market/Marketplace.sol",
  "abi": [
    {
      "inputs": [
        {
          "internalType": "address",
          "name": "_storage",
          "type": "address"
        },
        {
          "internalType": "address",
          "name": "_token",
          "type": "address"
        }
      ],
      "stateMutability": "nonpayable",
      "type": "constructor"
    },
    {
      "anonymous": false,
      "inputs": [
        {
          "indexed": true,
          "internalType": "address",
          "name": "seller",
          "type": "address"
        },
        {
          "indexed": true,
          "internalType": "address",
          "name": "buyer",
          "type": "address"
        },
        {
          "indexed": true,
          "internalType": "address",
          "name": "contractAddress",
          "type": "address"
        },
        {
          "indexed": false,
          "internalType": "uint256",
          "name": "tokenId",
          "type": "uint256"
        },
        {
          "indexed": false,
          "internalType": "uint256",
          "name": "price",
          "type": "uint256"
        }
      ],
      "name": "ListedNFTSold",
      "type": "event"
    },
    {
      "inputs": [
        {
          "internalType": "address",
          "name": "signer",
          "type": "address"
        },
        {
          "internalType": "address",
          "name": "contractAddress",
          "type": "address"
        },
        {
          "internalType": "uint256",
          "name": "price",
          "type": "uint256"
        },
        {
          "internalType": "uint256",
          "name": "tokenId",
          "type": "uint256"
        },
        {
          "internalType": "uint256",
          "name": "expiresAt",
          "type": "uint256"
        },
        {
          "internalType": "uint256",
          "name": "chainId",
          "type": "uint256"
        },
        {
          "internalType": "bytes",
          "name": "signature",
          "type": "bytes"
        }
      ],
      "name": "buyFromSellOffer",
      "outputs": [],
      "stateMutability": "nonpayable",
      "type": "function"
    },
    {
      "inputs": [
        {
          "internalType": "address",
          "name": "signer",
          "type": "address"
        },
        {
          "internalType": "address",
          "name": "contractAddress",
          "type": "address"
        },
        {
          "internalType": "uint256",
          "name": "price",
          "type": "uint256"
        },
        {
          "internalType": "uint256",
          "name": "tokenId",
          "type": "uint256"
        },
        {
          "internalType": "uint256",
          "name": "expiresAt",
          "type": "uint256"
        },
        {
          "internalType": "uint256",
          "name": "chainId",
          "type": "uint256"
        },
        {
          "internalType": "bool",
          "name": "isSellOffer",
          "type": "bool"
        },
        {
          "internalType": "bytes",
          "name": "signature",
          "type": "bytes"
        }
      ],
      "name": "cancelSignedOffer",
      "outputs": [],
      "stateMutability": "nonpayable",
      "type": "function"
    },
    {
      "inputs": [
        {
          "internalType": "address",
          "name": "buyer",
          "type": "address"
        },
        {
          "internalType": "address",
          "name": "contractAddress",
          "type": "address"
        },
        {
          "internalType": "uint256",
          "name": "price",
          "type": "uint256"
        },
        {
          "internalType": "uint256",
          "name": "tokenId",
          "type": "uint256"
        },
        {
          "internalType": "uint256",
          "name": "expiresAt",
          "type": "uint256"
        },
        {
          "internalType": "uint256",
          "name": "chainId",
          "type": "uint256"
        },
        {
          "internalType": "bytes",
          "name": "signature",
          "type": "bytes"
        }
      ],
      "name": "sellFromBuyOffer",
      "outputs": [],
      "stateMutability": "nonpayable",
      "type": "function"
    },
    {
      "inputs": [],
      "name": "token",
      "outputs": [
        {
          "internalType": "contract IERC20",
          "name": "",
          "type": "address"
        }
      ],
      "stateMutability": "view",
      "type": "function"
    }
  ],
  "bytecode": "0x60a060405234801561001057600080fd5b506040516115ab3803806115ab83398101604081905261002f91610073565b6001600160a01b03918216608052600080546001600160a01b031916919092161790556100a6565b80516001600160a01b038116811461006e57600080fd5b919050565b6000806040838503121561008657600080fd5b61008f83610057565b915061009d60208401610057565b90509250929050565b6080516114e36100c860003960008181610155015261074e01526114e36000f3fe608060405234801561001057600080fd5b506004361061004c5760003560e01c8063058698a7146100515780634fc5d8d81461006657806395425adc14610079578063fc0c546a1461008c575b600080fd5b61006461005f366004611253565b6100bb565b005b6100646100743660046112f8565b610153565b6100646100873660046112f8565b61074c565b60005461009f906001600160a01b031681565b6040516001600160a01b03909116815260200160405180910390f35b336001600160a01b038a16146101185760405162461bcd60e51b815260206004820152601a60248201527f43616e206f6e6c792063616e63656c206f776e206f666665727300000000000060448201526064015b60405180910390fd5b600061012b8a8a8a8a8a8a8a8a8a610d22565b6000908152600160208190526040909120805460ff1916909117905550505050505050505050565b7f00000000000000000000000000000000000000000000000000000000000000006001600160a01b0316637ae1cfca886040516020016101939190611387565b604051602081830303815290604052805190602001206040518263ffffffff1660e01b81526004016101c791815260200190565b602060405180830381865afa1580156101e4573d6000803e3d6000fd5b505050506040513d601f19601f8201168201806040525081019061020891906113bf565b6102545760405162461bcd60e51b815260206004820152601a60248201527f4f6e6c792077686974656c697374656420636f6e747261637473000000000000604482015260640161010f565b4284116102935760405162461bcd60e51b815260206004820152600d60248201526c13d999995c88195e1c1a5c9959609a1b604482015260640161010f565b60006102a789898989898960008a8a610d22565b6040516331a9108f60e11b81526004810188905290915088906000906001600160a01b03831690636352211e90602401602060405180830381865afa1580156102f4573d6000803e3d6000fd5b505050506040513d601f19601f8201168201806040525081019061031891906113e3565b9050336001600160a01b038216146103685760405162461bcd60e51b81526020600482015260136024820152722737ba103a3432903a37b5b2b71037bbb732b960691b604482015260640161010f565b60008381526001602052604090205460ff16156103bd5760405162461bcd60e51b815260206004820152601360248201527213d999995c881dd85cc818d85b98d95b1b1959606a1b604482015260640161010f565b6000838152600160208190526040808320805460ff191690921790915551635c46a7ef60e11b81526001600160a01b0383811660048301528d81166024830152604482018b90526080606483015260848201929092529083169063b88d4fde9060a401600060405180830381600087803b15801561043a57600080fd5b505af115801561044e573d6000803e3d6000fd5b50505050896001600160a01b0316638da5cb5b6040518163ffffffff1660e01b8152600401602060405180830381865afa158015610490573d6000803e3d6000fd5b505050506040513d601f19601f820116820180604052508101906104b491906113e3565b6001600160a01b0316816001600160a01b031603610549576000546040516323b872dd60e01b81526001600160a01b03909116906323b872dd90610500908e908e908e90600401611400565b6020604051808303816000875af115801561051f573d6000803e3d6000fd5b505050506040513d601f19601f8201168201806040525081019061054391906113bf565b506106df565b60405163152a902d60e11b815260048101899052602481018a905260009081906001600160a01b038d1690632a55205a9060440160408051808303816000875af115801561059b573d6000803e3d6000fd5b505050506040513d601f19601f820116820180604052508101906105bf9190611424565b9150915060008054906101000a90046001600160a01b03166001600160a01b03166323b872dd8e84846040518463ffffffff1660e01b815260040161060693929190611400565b6020604051808303816000875af1158015610625573d6000803e3d6000fd5b505050506040513d601f19601f8201168201806040525081019061064991906113bf565b5060008054906101000a90046001600160a01b03166001600160a01b03166323b872dd8e85848f61067a9190611468565b6040518463ffffffff1660e01b815260040161069893929190611400565b6020604051808303816000875af11580156106b7573d6000803e3d6000fd5b505050506040513d601f19601f820116820180604052508101906106db91906113bf565b5050505b896001600160a01b03168b6001600160a01b0316826001600160a01b03167f1290e46983831321879b11cac756bc8aa08901170f37c279f1537b1c65d51fba8b8d604051610737929190918252602082015260400190565b60405180910390a45050505050505050505050565b7f00000000000000000000000000000000000000000000000000000000000000006001600160a01b0316637ae1cfca8860405160200161078c9190611387565b604051602081830303815290604052805190602001206040518263ffffffff1660e01b81526004016107c091815260200190565b602060405180830381865afa1580156107dd573d6000803e3d6000fd5b505050506040513d601f19601f8201168201806040525081019061080191906113bf565b61084d5760405162461bcd60e51b815260206004820152601a60248201527f4f6e6c792077686974656c697374656420636f6e747261637473000000000000604482015260640161010f565b42841161088c5760405162461bcd60e51b815260206004820152600d60248201526c13d999995c88195e1c1a5c9959609a1b604482015260640161010f565b60006108a089898989898960018a8a610d22565b6040516331a9108f60e11b81526004810188905290915088906000906001600160a01b03831690636352211e90602401602060405180830381865afa1580156108ed573d6000803e3d6000fd5b505050506040513d601f19601f8201168201806040525081019061091191906113e3565b9050806001600160a01b03168b6001600160a01b0316146109745760405162461bcd60e51b815260206004820152601f60248201527f4f66666572206e6f74207369676e656420627920746f6b656e206f776e657200604482015260640161010f565b60008381526001602052604090205460ff16156109c95760405162461bcd60e51b815260206004820152601360248201527213d999995c881dd85cc818d85b98d95b1b1959606a1b604482015260640161010f565b6000838152600160208190526040808320805460ff191690921790915551635c46a7ef60e11b81526001600160a01b038381166004830152336024830152604482018b90526080606483015260848201929092529083169063b88d4fde9060a401600060405180830381600087803b158015610a4457600080fd5b505af1158015610a58573d6000803e3d6000fd5b50505050896001600160a01b0316638da5cb5b6040518163ffffffff1660e01b8152600401602060405180830381865afa158015610a9a573d6000803e3d6000fd5b505050506040513d601f19601f82011682018060405250810190610abe91906113e3565b6001600160a01b0316816001600160a01b031603610b53576000546040516323b872dd60e01b81526001600160a01b03909116906323b872dd90610b0a9033908e908e90600401611400565b6020604051808303816000875af1158015610b29573d6000803e3d6000fd5b505050506040513d601f19601f82011682018060405250810190610b4d91906113bf565b50610cda565b60405163152a902d60e11b815260048101899052602481018a905260009081906001600160a01b038d1690632a55205a9060440160408051808303816000875af1158015610ba5573d6000803e3d6000fd5b505050506040513d601f19601f82011682018060405250810190610bc99190611424565b6000546040516323b872dd60e01b81529294509092506001600160a01b0316906323b872dd90610c0190339086908690600401611400565b6020604051808303816000875af1158015610c20573d6000803e3d6000fd5b505050506040513d601f19601f82011682018060405250810190610c4491906113bf565b5060008054906101000a90046001600160a01b03166001600160a01b03166323b872dd338f848f610c759190611468565b6040518463ffffffff1660e01b8152600401610c9393929190611400565b6020604051808303816000875af1158015610cb2573d6000803e3d6000fd5b505050506040513d601f19601f82011682018060405250810190610cd691906113bf565b5050505b60408051898152602081018b90526001600160a01b03808d16923392918516917f1290e46983831321879b11cac756bc8aa08901170f37c279f1537b1c65d51fba9101610737565b604080516001600160a01b03808c1660208301528a1691810191909152606081018890526080810187905260a0810186905260c0810185905283151560e08201526000908190610dd99061010001604051602081830303815290604052805190602001206040517f19457468657265756d205369676e6564204d6573736167653a0a3332000000006020820152603c8101829052600090605c01604051602081830303815290604052805190602001209050919050565b90508a6001600160a01b0316610e258286868080601f016020809104026020016040519081016040528093929190818152602001838380828437600092019190915250610e7d92505050565b6001600160a01b031614610e6f5760405162461bcd60e51b8152602060048201526011602482015270496e76616c6964207369676e617475726560781b604482015260640161010f565b9a9950505050505050505050565b6000806000610e8c8585610ea1565b91509150610e9981610f0f565b509392505050565b6000808251604103610ed75760208301516040840151606085015160001a610ecb878285856110c8565b94509450505050610f08565b8251604003610f005760208301516040840151610ef58683836111b5565b935093505050610f08565b506000905060025b9250929050565b6000816004811115610f2357610f2361147f565b03610f2b5750565b6001816004811115610f3f57610f3f61147f565b03610f8c5760405162461bcd60e51b815260206004820152601860248201527f45434453413a20696e76616c6964207369676e61747572650000000000000000604482015260640161010f565b6002816004811115610fa057610fa061147f565b03610fed5760405162461bcd60e51b815260206004820152601f60248201527f45434453413a20696e76616c6964207369676e6174757265206c656e67746800604482015260640161010f565b60038160048111156110015761100161147f565b036110595760405162461bcd60e51b815260206004820152602260248201527f45434453413a20696e76616c6964207369676e6174757265202773272076616c604482015261756560f01b606482015260840161010f565b600481600481111561106d5761106d61147f565b036110c55760405162461bcd60e51b815260206004820152602260248201527f45434453413a20696e76616c6964207369676e6174757265202776272076616c604482015261756560f01b606482015260840161010f565b50565b6000807f7fffffffffffffffffffffffffffffff5d576e7357a4501ddfe92f46681b20a08311156110ff57506000905060036111ac565b8460ff16601b1415801561111757508460ff16601c14155b1561112857506000905060046111ac565b6040805160008082526020820180845289905260ff881692820192909252606081018690526080810185905260019060a0016020604051602081039080840390855afa15801561117c573d6000803e3d6000fd5b5050604051601f1901519150506001600160a01b0381166111a5576000600192509250506111ac565b9150600090505b94509492505050565b6000806001600160ff1b038316816111d260ff86901c601b611495565b90506111e0878288856110c8565b935093505050935093915050565b6001600160a01b03811681146110c557600080fd5b80151581146110c557600080fd5b60008083601f84011261122357600080fd5b50813567ffffffffffffffff81111561123b57600080fd5b602083019150836020828501011115610f0857600080fd5b60008060008060008060008060006101008a8c03121561127257600080fd5b893561127d816111ee565b985060208a013561128d816111ee565b975060408a0135965060608a0135955060808a0135945060a08a0135935060c08a01356112b981611203565b925060e08a013567ffffffffffffffff8111156112d557600080fd5b6112e18c828d01611211565b915080935050809150509295985092959850929598565b60008060008060008060008060e0898b03121561131457600080fd5b883561131f816111ee565b9750602089013561132f816111ee565b965060408901359550606089013594506080890135935060a0890135925060c089013567ffffffffffffffff81111561136757600080fd5b6113738b828c01611211565b999c989b5096995094979396929594505050565b711b585c9ad95d0b98dbdb9d1c9858dd17dddb60721b815260609190911b6bffffffffffffffffffffffff1916601282015260260190565b6000602082840312156113d157600080fd5b81516113dc81611203565b9392505050565b6000602082840312156113f557600080fd5b81516113dc816111ee565b6001600160a01b039384168152919092166020820152604081019190915260600190565b6000806040838503121561143757600080fd5b8251611442816111ee565b6020939093015192949293505050565b634e487b7160e01b600052601160045260246000fd5b60008282101561147a5761147a611452565b500390565b634e487b7160e01b600052602160045260246000fd5b600082198211156114a8576114a8611452565b50019056fea26469706673582212201f26f370206ecc58dc33868313eb61110181dbc0b94e47cb6c64863c590ff66164736f6c634300080e0033",
  "linkReferences": {},
  "deployedLinkReferences": {}
}