{
  "_format": "hh-sol-artifact-1",
  "contractName": "Marketplace",
  "sourceName": "contracts/Market/Marketplace.sol",
  "abi": [
    {
      "inputs": [
        {
          "internalType": "address",
          "name": "_storage",
          "type": "address"
        }
      ],
      "stateMutability": "nonpayable",
      "type": "constructor"
    },
    {
      "anonymous": false,
      "inputs": [
        {
          "indexed": true,
          "internalType": "address",
          "name": "buyer",
          "type": "address"
        },
        {
          "indexed": true,
          "internalType": "uint256",
          "name": "tokenId",
          "type": "uint256"
        },
        {
          "indexed": false,
          "internalType": "uint256",
          "name": "price",
          "type": "uint256"
        }
      ],
      "name": "ListedNFTSold",
      "type": "event"
    },
    {
      "anonymous": false,
      "inputs": [
        {
          "indexed": true,
          "internalType": "address",
          "name": "from",
          "type": "address"
        },
        {
          "indexed": true,
          "internalType": "address",
          "name": "contractAddress",
          "type": "address"
        },
        {
          "indexed": false,
          "internalType": "uint256",
          "name": "tokenId",
          "type": "uint256"
        },
        {
          "indexed": false,
          "internalType": "uint256",
          "name": "priceOffer",
          "type": "uint256"
        }
      ],
      "name": "NewBuyOffer",
      "type": "event"
    },
    {
      "inputs": [
        {
          "internalType": "address",
          "name": "contractAddress",
          "type": "address"
        },
        {
          "internalType": "uint256",
          "name": "tokenId",
          "type": "uint256"
        },
        {
          "internalType": "uint256",
          "name": "index",
          "type": "uint256"
        }
      ],
      "name": "acceptBuyOffer",
      "outputs": [],
      "stateMutability": "nonpayable",
      "type": "function"
    },
    {
      "inputs": [
        {
          "internalType": "address",
          "name": "contractAddress",
          "type": "address"
        },
        {
          "internalType": "uint256",
          "name": "tokenId",
          "type": "uint256"
        },
        {
          "internalType": "uint256",
          "name": "_priceOffer",
          "type": "uint256"
        },
        {
          "internalType": "uint32",
          "name": "expiresAt",
          "type": "uint32"
        }
      ],
      "name": "createBuyOffer",
      "outputs": [],
      "stateMutability": "nonpayable",
      "type": "function"
    },
    {
      "inputs": [
        {
          "internalType": "address",
          "name": "contractAddress",
          "type": "address"
        },
        {
          "internalType": "uint256",
          "name": "tokenId",
          "type": "uint256"
        },
        {
          "internalType": "uint256",
          "name": "price",
          "type": "uint256"
        }
      ],
      "name": "createSellOffer",
      "outputs": [],
      "stateMutability": "nonpayable",
      "type": "function"
    },
    {
      "inputs": [
        {
          "internalType": "address",
          "name": "contractAddress",
          "type": "address"
        },
        {
          "internalType": "uint256",
          "name": "tokenId",
          "type": "uint256"
        },
        {
          "internalType": "uint256",
          "name": "index",
          "type": "uint256"
        }
      ],
      "name": "getBuyOffer",
      "outputs": [
        {
          "internalType": "address",
          "name": "",
          "type": "address"
        },
        {
          "internalType": "uint32",
          "name": "",
          "type": "uint32"
        },
        {
          "internalType": "uint256",
          "name": "",
          "type": "uint256"
        }
      ],
      "stateMutability": "view",
      "type": "function"
    },
    {
      "inputs": [
        {
          "internalType": "address",
          "name": "contractAddress",
          "type": "address"
        },
        {
          "internalType": "uint256",
          "name": "tokenId",
          "type": "uint256"
        }
      ],
      "name": "takeSellOffer",
      "outputs": [],
      "stateMutability": "nonpayable",
      "type": "function"
    },
    {
      "inputs": [],
      "name": "token",
      "outputs": [
        {
          "internalType": "contract IERC20",
          "name": "",
          "type": "address"
        }
      ],
      "stateMutability": "view",
      "type": "function"
    }
  ],
  "bytecode": "0x60a03461007057601f6109ac38819003918201601f19168301916001600160401b038311848410176100755780849260209460405283398101031261007057516001600160a01b0381168103610070576001600160a01b0316608052604051610920908161008c8239608051815050f35b600080fd5b634e487b7160e01b600052604160045260246000fdfe604060808152600436101561001357600080fd5b600090813560e01c9182630b09d6bb1461009157505080632429856314610088578063350286f11461007f57806349d1f33e14610076578063f84390d31461006d5763fc0c546a14610065575b600080fd5b61006061078f565b50610060610675565b506100606104d6565b506100606103a6565b5061006061015f565b34610128576101246100cb836100a63661013c565b6001600160a01b0392831687526020878152848820928852919091529190942061082f565b50928080516100d9816107d0565b600163ffffffff87549687169687845260a01c169687602084015201549283910152519384938463ffffffff604092959493606083019660018060a01b031683521660208201520152565b0390f35b80fd5b6001600160a01b0381160361006057565b6060906003190112610060576004356101548161012b565b906024359060443590565b50346100605761016e3661013c565b60018060a09493941b038361027a610201838616946101fc846101ed604051996331a9108f60e11b8b526101d360209b8c818d81806101b58a600483019190602083019252565b03915afa908115610399575b60009161036c575b508a163314610886565b6001600160a01b0316600090815260208190526040902090565b90600052602052604060002090565b61082f565b5060025461021f906001600160a01b03165b6001600160a01b031690565b81546001830180546040516323b872dd60e01b81526001600160a01b039093166004840152336024840152604483015297918290829060649082906000905af1801561035f575b610331575b5050546001600160a01b031690565b845460405190815290928316907f61acef2aad9606c6292e919872b0289e7bd1db84840e160a7997459756e6c0b090602090a3813b1561006057604051635c46a7ef60e11b81523360048201526001600160a01b0391909116602482015260448101939093526080606484015260006084840181905292908390829060a490829084905af18015610324575b61030e575055005b8061031b610321926107f9565b80610784565b55005b61032c610879565b610306565b8161035092903d10610358575b610348818361080d565b8101906108d2565b50388061026b565b503d61033e565b610367610879565b610266565b61038c91508d803d10610392575b610384818361080d565b810190610861565b386101c9565b503d61037a565b6103a1610879565b6101c1565b5034610060576080366003190112610060576004356103c48161012b565b602435604435906064359063ffffffff82168092036100605760409283516103eb816107d0565b3381526020810193845284810182815260018060a01b038097169460009786895288602052878920868a5260205261043f888a20805490680100000000000000008210156104c9575b60018201815561082f565b9490946104b557518454925163ffffffff60a01b60a09190911b166001600160c01b031990931691166001600160a01b031617178255516001909101558351918252602082015233907f72ba9596af524023e646eefb79fbde617fe7ed0628c541e23359e62caefbcfe59080604081010390a351f35b634e487b7160e01b8a5260048a905260248afd5b6104d16107b9565b610434565b5034610060576040366003190112610060576004356104f48161012b565b602435610517816101ed8460018060a01b03166000526001602052604060002090565b80546001600160a01b03908116931690813b1561006057604051635c46a7ef60e11b81526001600160a01b03949094166004850152336024850152604484018390526080606485015260006084850181905293610321928590829060a490829084905af18015610668575b610655575b5060025461059d906001600160a01b0316610213565b81546001830180546040516323b872dd60e01b81523360048201526001600160a01b03909316602484015260448301529491602090829060649082908a905af18015610648575b61062a575b50835460405190815233907f61acef2aad9606c6292e919872b0289e7bd1db84840e160a7997459756e6c0b090602090a380546001600160a01b0319169055565b6106419060203d811161035857610348818361080d565b50386105e9565b610650610879565b6105e4565b8061031b610662926107f9565b38610587565b610670610879565b610582565b5034610060576106843661013c565b6040516331a9108f60e11b815260048101839052919290916001600160a01b036020826024818487165afa918215610777575b600092610757575b5033911603610708576001600160a01b03166000908152600160205260409020610706926106ec916101ed565b600181019190915580546001600160a01b03191633179055565b005b60405162461bcd60e51b815260206004820152602160248201527f4f6e6c79206f776e65722063616e206372656174652073656c6c206f666665726044820152607360f81b6064820152608490fd5b61077091925060203d811161039257610384818361080d565b90386106bf565b61077f610879565b6106b7565b600091031261006057565b5034610060576000366003190112610060576002546040516001600160a01b039091168152602090f35b50634e487b7160e01b600052604160045260246000fd5b6060810190811067ffffffffffffffff8211176107ec57604052565b6107f46107b9565b604052565b67ffffffffffffffff81116107ec57604052565b90601f8019910116810190811067ffffffffffffffff8211176107ec57604052565b805482101561084b5760005260206000209060011b0190600090565b634e487b7160e01b600052603260045260246000fd5b9081602091031261006057516108768161012b565b90565b506040513d6000823e3d90fd5b1561088d57565b60405162461bcd60e51b815260206004820152601b60248201527f4f6e6c79206f776e65722063616e20616363657074206f6666657200000000006044820152606490fd5b9081602091031261006057518015158103610060579056fea264697066735822122001013489e6daf17758bb2ba2dcf72f98a4e4caedee0cbf5de87dfcd3dbb0063964736f6c634300080e0033",
  "linkReferences": {},
  "deployedLinkReferences": {}
}