{
  "_format": "hh-sol-artifact-1",
  "contractName": "Auction",
  "sourceName": "contracts/Auction/Auction.sol",
  "abi": [
    {
      "anonymous": false,
      "inputs": [
        {
          "indexed": false,
          "internalType": "address",
          "name": "previousAdmin",
          "type": "address"
        },
        {
          "indexed": false,
          "internalType": "address",
          "name": "newAdmin",
          "type": "address"
        }
      ],
      "name": "AdminChanged",
      "type": "event"
    },
    {
      "anonymous": false,
      "inputs": [
        {
          "indexed": true,
          "internalType": "uint256",
          "name": "auctionId",
          "type": "uint256"
        },
        {
          "indexed": true,
          "internalType": "address",
          "name": "previousBidder",
          "type": "address"
        }
      ],
      "name": "AuctionCancelled",
      "type": "event"
    },
    {
      "anonymous": false,
      "inputs": [
        {
          "indexed": false,
          "internalType": "uint256",
          "name": "auctionId",
          "type": "uint256"
        },
        {
          "indexed": false,
          "internalType": "uint256",
          "name": "nftId",
          "type": "uint256"
        }
      ],
      "name": "AuctionCreated",
      "type": "event"
    },
    {
      "anonymous": false,
      "inputs": [
        {
          "indexed": true,
          "internalType": "uint256",
          "name": "auctionId",
          "type": "uint256"
        },
        {
          "indexed": true,
          "internalType": "address",
          "name": "highestBidder",
          "type": "address"
        },
        {
          "indexed": false,
          "internalType": "uint256",
          "name": "highestBid",
          "type": "uint256"
        }
      ],
      "name": "AuctionSettled",
      "type": "event"
    },
    {
      "anonymous": false,
      "inputs": [
        {
          "indexed": true,
          "internalType": "address",
          "name": "beacon",
          "type": "address"
        }
      ],
      "name": "BeaconUpgraded",
      "type": "event"
    },
    {
      "anonymous": false,
      "inputs": [
        {
          "indexed": true,
          "internalType": "uint256",
          "name": "auctionId",
          "type": "uint256"
        },
        {
          "indexed": true,
          "internalType": "address",
          "name": "newBidder",
          "type": "address"
        },
        {
          "indexed": true,
          "internalType": "address",
          "name": "previousBidder",
          "type": "address"
        },
        {
          "indexed": false,
          "internalType": "uint256",
          "name": "bidAmount",
          "type": "uint256"
        },
        {
          "indexed": false,
          "internalType": "uint256",
          "name": "newEndTime",
          "type": "uint256"
        }
      ],
      "name": "BidPlaced",
      "type": "event"
    },
    {
      "anonymous": false,
      "inputs": [
        {
          "indexed": false,
          "internalType": "uint8",
          "name": "version",
          "type": "uint8"
        }
      ],
      "name": "Initialized",
      "type": "event"
    },
    {
      "anonymous": false,
      "inputs": [
        {
          "indexed": false,
          "internalType": "address",
          "name": "account",
          "type": "address"
        }
      ],
      "name": "Paused",
      "type": "event"
    },
    {
      "anonymous": false,
      "inputs": [
        {
          "indexed": true,
          "internalType": "bytes32",
          "name": "role",
          "type": "bytes32"
        },
        {
          "indexed": true,
          "internalType": "bytes32",
          "name": "previousAdminRole",
          "type": "bytes32"
        },
        {
          "indexed": true,
          "internalType": "bytes32",
          "name": "newAdminRole",
          "type": "bytes32"
        }
      ],
      "name": "RoleAdminChanged",
      "type": "event"
    },
    {
      "anonymous": false,
      "inputs": [
        {
          "indexed": true,
          "internalType": "bytes32",
          "name": "role",
          "type": "bytes32"
        },
        {
          "indexed": true,
          "internalType": "address",
          "name": "account",
          "type": "address"
        },
        {
          "indexed": true,
          "internalType": "address",
          "name": "sender",
          "type": "address"
        }
      ],
      "name": "RoleGranted",
      "type": "event"
    },
    {
      "anonymous": false,
      "inputs": [
        {
          "indexed": true,
          "internalType": "bytes32",
          "name": "role",
          "type": "bytes32"
        },
        {
          "indexed": true,
          "internalType": "address",
          "name": "account",
          "type": "address"
        },
        {
          "indexed": true,
          "internalType": "address",
          "name": "sender",
          "type": "address"
        }
      ],
      "name": "RoleRevoked",
      "type": "event"
    },
    {
      "anonymous": false,
      "inputs": [
        {
          "indexed": false,
          "internalType": "address",
          "name": "account",
          "type": "address"
        }
      ],
      "name": "Unpaused",
      "type": "event"
    },
    {
      "anonymous": false,
      "inputs": [
        {
          "indexed": true,
          "internalType": "address",
          "name": "implementation",
          "type": "address"
        }
      ],
      "name": "Upgraded",
      "type": "event"
    },
    {
      "inputs": [],
      "name": "DEFAULT_ADMIN_ROLE",
      "outputs": [
        {
          "internalType": "bytes32",
          "name": "",
          "type": "bytes32"
        }
      ],
      "stateMutability": "view",
      "type": "function"
    },
    {
      "inputs": [
        {
          "internalType": "uint256",
          "name": "",
          "type": "uint256"
        }
      ],
      "name": "auctions",
      "outputs": [
        {
          "internalType": "address",
          "name": "highestBidder",
          "type": "address"
        },
        {
          "internalType": "contract INFT",
          "name": "nftContract",
          "type": "address"
        },
        {
          "internalType": "uint32",
          "name": "startTime",
          "type": "uint32"
        },
        {
          "internalType": "uint32",
          "name": "endTime",
          "type": "uint32"
        },
        {
          "internalType": "bool",
          "name": "settled",
          "type": "bool"
        },
        {
          "internalType": "uint256",
          "name": "nftId",
          "type": "uint256"
        },
        {
          "internalType": "uint256",
          "name": "minimumPrice",
          "type": "uint256"
        },
        {
          "internalType": "uint256",
          "name": "highestBid",
          "type": "uint256"
        },
        {
          "internalType": "uint256",
          "name": "auctionId",
          "type": "uint256"
        },
        {
          "internalType": "string",
          "name": "nftUri",
          "type": "string"
        }
      ],
      "stateMutability": "view",
      "type": "function"
    },
    {
      "inputs": [
        {
          "internalType": "uint256",
          "name": "_auctionId",
          "type": "uint256"
        },
        {
          "internalType": "uint256",
          "name": "_amount",
          "type": "uint256"
        }
      ],
      "name": "bid",
      "outputs": [],
      "stateMutability": "nonpayable",
      "type": "function"
    },
    {
      "inputs": [
        {
          "internalType": "uint256",
          "name": "_auctionId",
          "type": "uint256"
        }
      ],
      "name": "cancelAuction",
      "outputs": [],
      "stateMutability": "nonpayable",
      "type": "function"
    },
    {
      "inputs": [
        {
          "components": [
            {
              "internalType": "address",
              "name": "highestBidder",
              "type": "address"
            },
            {
              "internalType": "contract INFT",
              "name": "nftContract",
              "type": "address"
            },
            {
              "internalType": "uint32",
              "name": "startTime",
              "type": "uint32"
            },
            {
              "internalType": "uint32",
              "name": "endTime",
              "type": "uint32"
            },
            {
              "internalType": "bool",
              "name": "settled",
              "type": "bool"
            },
            {
              "internalType": "uint256",
              "name": "nftId",
              "type": "uint256"
            },
            {
              "internalType": "uint256",
              "name": "minimumPrice",
              "type": "uint256"
            },
            {
              "internalType": "uint256",
              "name": "highestBid",
              "type": "uint256"
            },
            {
              "internalType": "uint256",
              "name": "auctionId",
              "type": "uint256"
            },
            {
              "internalType": "string",
              "name": "nftUri",
              "type": "string"
            }
          ],
          "internalType": "struct Auction.AuctionInfo",
          "name": "_auctionInfo",
          "type": "tuple"
        }
      ],
      "name": "createAuction",
      "outputs": [],
      "stateMutability": "nonpayable",
      "type": "function"
    },
    {
      "inputs": [
        {
          "components": [
            {
              "internalType": "address",
              "name": "highestBidder",
              "type": "address"
            },
            {
              "internalType": "contract INFT",
              "name": "nftContract",
              "type": "address"
            },
            {
              "internalType": "uint32",
              "name": "startTime",
              "type": "uint32"
            },
            {
              "internalType": "uint32",
              "name": "endTime",
              "type": "uint32"
            },
            {
              "internalType": "bool",
              "name": "settled",
              "type": "bool"
            },
            {
              "internalType": "uint256",
              "name": "nftId",
              "type": "uint256"
            },
            {
              "internalType": "uint256",
              "name": "minimumPrice",
              "type": "uint256"
            },
            {
              "internalType": "uint256",
              "name": "highestBid",
              "type": "uint256"
            },
            {
              "internalType": "uint256",
              "name": "auctionId",
              "type": "uint256"
            },
            {
              "internalType": "string",
              "name": "nftUri",
              "type": "string"
            }
          ],
          "internalType": "struct Auction.AuctionInfo[]",
          "name": "_auctions",
          "type": "tuple[]"
        }
      ],
      "name": "createAuctionBatch",
      "outputs": [],
      "stateMutability": "nonpayable",
      "type": "function"
    },
    {
      "inputs": [],
      "name": "erc20",
      "outputs": [
        {
          "internalType": "contract IERC20",
          "name": "",
          "type": "address"
        }
      ],
      "stateMutability": "view",
      "type": "function"
    },
    {
      "inputs": [
        {
          "internalType": "uint256",
          "name": "_auctionId",
          "type": "uint256"
        }
      ],
      "name": "getAuction",
      "outputs": [
        {
          "components": [
            {
              "internalType": "address",
              "name": "highestBidder",
              "type": "address"
            },
            {
              "internalType": "contract INFT",
              "name": "nftContract",
              "type": "address"
            },
            {
              "internalType": "uint32",
              "name": "startTime",
              "type": "uint32"
            },
            {
              "internalType": "uint32",
              "name": "endTime",
              "type": "uint32"
            },
            {
              "internalType": "bool",
              "name": "settled",
              "type": "bool"
            },
            {
              "internalType": "uint256",
              "name": "nftId",
              "type": "uint256"
            },
            {
              "internalType": "uint256",
              "name": "minimumPrice",
              "type": "uint256"
            },
            {
              "internalType": "uint256",
              "name": "highestBid",
              "type": "uint256"
            },
            {
              "internalType": "uint256",
              "name": "auctionId",
              "type": "uint256"
            },
            {
              "internalType": "string",
              "name": "nftUri",
              "type": "string"
            }
          ],
          "internalType": "struct Auction.AuctionInfo",
          "name": "",
          "type": "tuple"
        }
      ],
      "stateMutability": "view",
      "type": "function"
    },
    {
      "inputs": [],
      "name": "getBidIncrementPercentage",
      "outputs": [
        {
          "internalType": "uint256",
          "name": "",
          "type": "uint256"
        }
      ],
      "stateMutability": "view",
      "type": "function"
    },
    {
      "inputs": [],
      "name": "getDefaultTimeExtension",
      "outputs": [
        {
          "internalType": "uint256",
          "name": "",
          "type": "uint256"
        }
      ],
      "stateMutability": "view",
      "type": "function"
    },
    {
      "inputs": [
        {
          "internalType": "bytes32",
          "name": "role",
          "type": "bytes32"
        }
      ],
      "name": "getRoleAdmin",
      "outputs": [
        {
          "internalType": "bytes32",
          "name": "",
          "type": "bytes32"
        }
      ],
      "stateMutability": "view",
      "type": "function"
    },
    {
      "inputs": [
        {
          "internalType": "bytes32",
          "name": "role",
          "type": "bytes32"
        },
        {
          "internalType": "address",
          "name": "account",
          "type": "address"
        }
      ],
      "name": "grantRole",
      "outputs": [],
      "stateMutability": "nonpayable",
      "type": "function"
    },
    {
      "inputs": [
        {
          "internalType": "bytes32",
          "name": "role",
          "type": "bytes32"
        },
        {
          "internalType": "address",
          "name": "account",
          "type": "address"
        }
      ],
      "name": "hasRole",
      "outputs": [
        {
          "internalType": "bool",
          "name": "",
          "type": "bool"
        }
      ],
      "stateMutability": "view",
      "type": "function"
    },
    {
      "inputs": [
        {
          "internalType": "address",
          "name": "_admin",
          "type": "address"
        },
        {
          "internalType": "uint256",
          "name": "_defaultTimeExtension",
          "type": "uint256"
        },
        {
          "internalType": "uint256",
          "name": "_bidIncrementPercentage",
          "type": "uint256"
        },
        {
          "internalType": "address",
          "name": "_token",
          "type": "address"
        },
        {
          "internalType": "address",
          "name": "_storage",
          "type": "address"
        }
      ],
      "name": "initialize",
      "outputs": [],
      "stateMutability": "nonpayable",
      "type": "function"
    },
    {
      "inputs": [],
      "name": "pause",
      "outputs": [],
      "stateMutability": "nonpayable",
      "type": "function"
    },
    {
      "inputs": [],
      "name": "paused",
      "outputs": [
        {
          "internalType": "bool",
          "name": "",
          "type": "bool"
        }
      ],
      "stateMutability": "view",
      "type": "function"
    },
    {
      "inputs": [],
      "name": "proxiableUUID",
      "outputs": [
        {
          "internalType": "bytes32",
          "name": "",
          "type": "bytes32"
        }
      ],
      "stateMutability": "view",
      "type": "function"
    },
    {
      "inputs": [
        {
          "internalType": "bytes32",
          "name": "role",
          "type": "bytes32"
        },
        {
          "internalType": "address",
          "name": "account",
          "type": "address"
        }
      ],
      "name": "renounceRole",
      "outputs": [],
      "stateMutability": "nonpayable",
      "type": "function"
    },
    {
      "inputs": [
        {
          "internalType": "bytes32",
          "name": "role",
          "type": "bytes32"
        },
        {
          "internalType": "address",
          "name": "account",
          "type": "address"
        }
      ],
      "name": "revokeRole",
      "outputs": [],
      "stateMutability": "nonpayable",
      "type": "function"
    },
    {
      "inputs": [
        {
          "internalType": "uint16",
          "name": "_bidIncrementPercentage",
          "type": "uint16"
        }
      ],
      "name": "setBidIncrementPercentage",
      "outputs": [],
      "stateMutability": "nonpayable",
      "type": "function"
    },
    {
      "inputs": [
        {
          "internalType": "uint16",
          "name": "_timeExtension",
          "type": "uint16"
        }
      ],
      "name": "setDefaultTimeExtension",
      "outputs": [],
      "stateMutability": "nonpayable",
      "type": "function"
    },
    {
      "inputs": [
        {
          "internalType": "uint256",
          "name": "_auctionId",
          "type": "uint256"
        }
      ],
      "name": "settleAuction",
      "outputs": [],
      "stateMutability": "nonpayable",
      "type": "function"
    },
    {
      "inputs": [
        {
          "internalType": "bytes4",
          "name": "interfaceId",
          "type": "bytes4"
        }
      ],
      "name": "supportsInterface",
      "outputs": [
        {
          "internalType": "bool",
          "name": "",
          "type": "bool"
        }
      ],
      "stateMutability": "view",
      "type": "function"
    },
    {
      "inputs": [],
      "name": "unpause",
      "outputs": [],
      "stateMutability": "nonpayable",
      "type": "function"
    },
    {
      "inputs": [
        {
          "internalType": "uint256",
          "name": "_auctionId",
          "type": "uint256"
        },
        {
          "internalType": "uint256",
          "name": "_minimumPrice",
          "type": "uint256"
        },
        {
          "internalType": "uint32",
          "name": "_endTime",
          "type": "uint32"
        }
      ],
      "name": "updateAuction",
      "outputs": [],
      "stateMutability": "nonpayable",
      "type": "function"
    },
    {
      "inputs": [
        {
          "internalType": "address",
          "name": "newImplementation",
          "type": "address"
        }
      ],
      "name": "upgradeTo",
      "outputs": [],
      "stateMutability": "nonpayable",
      "type": "function"
    },
    {
      "inputs": [
        {
          "internalType": "address",
          "name": "newImplementation",
          "type": "address"
        },
        {
          "internalType": "bytes",
          "name": "data",
          "type": "bytes"
        }
      ],
      "name": "upgradeToAndCall",
      "outputs": [],
      "stateMutability": "payable",
      "type": "function"
    }
  ],
  "bytecode": "0x60a06040523060805234801561001457600080fd5b506080516130ee61004c6000396000818161091b0152818161095b01528181610a9401528181610ad40152610b6301526130ee6000f3fe60806040526004361061019c5760003560e01c80635c975abb116100ec57806396b5a7551161008a578063c3c675bc11610064578063c3c675bc1461049d578063d547741f146104bd578063e4f8f5d5146104dd578063ff54a5ca146104fd57600080fd5b806396b5a75514610448578063a217fddf14610468578063b5200eae1461047d57600080fd5b8063809d6172116100c6578063809d6172146103dd5780638456cb59146103f35780638f8038421461040857806391d148541461042857600080fd5b80635c975abb1461035f578063785e9e861461037757806378bd7935146103b057600080fd5b80633659cfe6116101595780634f1ef286116101335780634f1ef286146102e157806352d1902d146102f4578063571a26a014610309578063598647f81461033f57600080fd5b80633659cfe6146102965780633f4ba83a146102b6578063481b13d2146102cb57600080fd5b806301ffc9a7146101a157806303b54d52146101d6578063248a9ca3146101f85780632e993611146102365780632f2ff15d1461025657806336568abe14610276575b600080fd5b3480156101ad57600080fd5b506101c16101bc3660046124b7565b61051d565b60405190151581526020015b60405180910390f35b3480156101e257600080fd5b506101f66101f13660046124f6565b610554565b005b34801561020457600080fd5b50610228610213366004612555565b60009081526065602052604090206001015490565b6040519081526020016101cd565b34801561024257600080fd5b506101f6610251366004612555565b610627565b34801561026257600080fd5b506101f661027136600461256e565b610869565b34801561028257600080fd5b506101f661029136600461256e565b610893565b3480156102a257600080fd5b506101f66102b136600461259e565b610911565b3480156102c257600080fd5b506101f66109f0565b3480156102d757600080fd5b5061016354610228565b6101f66102ef3660046125d1565b610a8a565b34801561030057600080fd5b50610228610b56565b34801561031557600080fd5b50610329610324366004612555565b610c09565b6040516101cd9a999897969594939291906126ed565b34801561034b57600080fd5b506101f661035a366004612765565b610d04565b34801561036b57600080fd5b5060fb5460ff166101c1565b34801561038357600080fd5b5061015f54610398906001600160a01b031681565b6040516001600160a01b0390911681526020016101cd565b3480156103bc57600080fd5b506103d06103cb366004612555565b611199565b6040516101cd9190612787565b3480156103e957600080fd5b5061016254610228565b3480156103ff57600080fd5b506101f6611348565b34801561041457600080fd5b506101f6610423366004612858565b6113e0565b34801561043457600080fd5b506101c161044336600461256e565b611549565b34801561045457600080fd5b506101f6610463366004612555565b611574565b34801561047457600080fd5b50610228600081565b34801561048957600080fd5b506101f6610498366004612891565b611771565b3480156104a957600080fd5b506101f66104b8366004612906565b61184a565b3480156104c957600080fd5b506101f66104d836600461256e565b6118e4565b3480156104e957600080fd5b506101f66104f836600461292a565b611909565b34801561050957600080fd5b506101f6610518366004612906565b611afa565b60006001600160e01b03198216637965db0b60e01b148061054e57506301ffc9a760e01b6001600160e01b03198316145b92915050565b60006105606001611b94565b90508015610578576000805461ff0019166101001790555b610580611c1c565b610588611c43565b610590611c1c565b61059b600087611c72565b61016285905561016384905561015f80546001600160a01b038086166001600160a01b031992831617909255610160805492851692909116919091179055801561061f576000805461ff0019169055604051600181527f7f26b83ff96e1f2b6a682f133852f6798a09c465da95921460cefb38474024989060200160405180910390a15b505050505050565b60fb5460ff16156106535760405162461bcd60e51b815260040161064a90612966565b60405180910390fd5b6000818152610161602052604090206001810154600160e01b900460ff161561068e5760405162461bcd60e51b815260040161064a90612990565b6004810154815460018301546001600160a01b0390911690600160c01b900463ffffffff1680158015906106c157508042115b61070d5760405162461bcd60e51b815260206004820152601860248201527f41756374696f6e206973207374696c6c2072756e6e696e670000000000000000604482015260640161064a565b60018401805460ff60e01b1916600160e01b1790556001600160a01b0382161561081e5760018401546002850154604051633349e71f60e21b81526001600160a01b039092169163cd279c7c9161076e9186919060068a0190600401612a01565b600060405180830381600087803b15801561078857600080fd5b505af115801561079c573d6000803e3d6000fd5b505061015f54600187015460405163a9059cbb60e01b81526001600160a01b039182166004820152602481018890529116925063a9059cbb91506044016020604051808303816000875af11580156107f8573d6000803e3d6000fd5b505050506040513d601f19601f8201168201806040525081019061081c9190612aab565b505b816001600160a01b0316857fc9f72b276a388619c6d185d146697036241880c36654b1a3ffdad07c24038d998560405161085a91815260200190565b60405180910390a35050505050565b60008281526065602052604090206001015461088481611cf8565b61088e8383611c72565b505050565b6001600160a01b03811633146109035760405162461bcd60e51b815260206004820152602f60248201527f416363657373436f6e74726f6c3a2063616e206f6e6c792072656e6f756e636560448201526e103937b632b9903337b91039b2b63360891b606482015260840161064a565b61090d8282611d02565b5050565b6001600160a01b037f00000000000000000000000000000000000000000000000000000000000000001630036109595760405162461bcd60e51b815260040161064a90612ac8565b7f00000000000000000000000000000000000000000000000000000000000000006001600160a01b03166109a2600080516020613072833981519152546001600160a01b031690565b6001600160a01b0316146109c85760405162461bcd60e51b815260040161064a90612b14565b6109d181611d69565b604080516000808252602082019092526109ed91839190611df9565b50565b61016054604051632474521560e21b8152600060048201523360248201526001600160a01b03909116906391d1485490604401602060405180830381865afa158015610a40573d6000803e3d6000fd5b505050506040513d601f19601f82011682018060405250810190610a649190612aab565b610a805760405162461bcd60e51b815260040161064a90612b60565b610a88611f64565b565b6001600160a01b037f0000000000000000000000000000000000000000000000000000000000000000163003610ad25760405162461bcd60e51b815260040161064a90612ac8565b7f00000000000000000000000000000000000000000000000000000000000000006001600160a01b0316610b1b600080516020613072833981519152546001600160a01b031690565b6001600160a01b031614610b415760405162461bcd60e51b815260040161064a90612b14565b610b4a82611d69565b61090d82826001611df9565b6000306001600160a01b037f00000000000000000000000000000000000000000000000000000000000000001614610bf65760405162461bcd60e51b815260206004820152603860248201527f555550535570677261646561626c653a206d757374206e6f742062652063616c60448201527f6c6564207468726f7567682064656c656761746563616c6c0000000000000000606482015260840161064a565b5060008051602061307283398151915290565b6101616020526000908152604090208054600182015460028301546003840154600485015460058601546006870180546001600160a01b039788169897871697600160a01b880463ffffffff90811698600160c01b810490911697600160e01b90910460ff16969095909490939092610c81906129c7565b80601f0160208091040260200160405190810160405280929190818152602001828054610cad906129c7565b8015610cfa5780601f10610ccf57610100808354040283529160200191610cfa565b820191906000526020600020905b815481529060010190602001808311610cdd57829003601f168201915b505050505090508a565b600261012d5403610d575760405162461bcd60e51b815260206004820152601f60248201527f5265656e7472616e637947756172643a207265656e7472616e742063616c6c00604482015260640161064a565b600261012d5560fb5460ff1615610d805760405162461bcd60e51b815260040161064a90612966565b600082815261016160205260409020600181015463ffffffff600160c01b8204811691600160a01b9004164281610df15760405162461bcd60e51b8152602060048201526015602482015274105d58dd1a5bdb88191bd95cdb89dd08195e1a5cdd605a1b604482015260640161064a565b81811015610e395760405162461bcd60e51b815260206004820152601560248201527441756374696f6e206e6f7420617661696c61626c6560581b604482015260640161064a565b821580610e4557508083115b610e855760405162461bcd60e51b8152602060048201526011602482015270105d58dd1a5bdb881a185cc8195b991959607a1b604482015260640161064a565b6001840154600160e01b900460ff1615610eb15760405162461bcd60e51b815260040161064a90612990565b600085118015610ec5575083600301548510155b610f115760405162461bcd60e51b815260206004820152601960248201527f426964206973206c6f776572207468616e206d696e696d756d00000000000000604482015260640161064a565b61271061016354612710610f259190612ba0565b8560040154610f349190612bb8565b610f3e9190612bd7565b851015610f9d5760405162461bcd60e51b815260206004820152602760248201527f426964206973206c6f776572207468616e20686967686573742062696420696e60448201526618dc995b595b9d60ca1b606482015260840161064a565b61015f546040516323b872dd60e01b8152336004820152306024820152604481018790526001600160a01b03909116906323b872dd906064016020604051808303816000875af1158015610ff5573d6000803e3d6000fd5b505050506040513d601f19601f820116820180604052508101906110199190612aab565b5083546004850180546001600160a01b0319831633178755908790556001600160a01b039091169081156110c15761015f5460405163a9059cbb60e01b81526001600160a01b038481166004830152602482018490529091169063a9059cbb906044016020604051808303816000875af115801561109b573d6000803e3d6000fd5b505050506040513d601f19601f820116820180604052508101906110bf9190612aab565b505b610162546000869003611102576110db6201518085612ba0565b8760010160186101000a81548163ffffffff021916908363ffffffff160217905550611140565b8061110d8588612bf9565b10156111405761111d8185612ba0565b60018801805463ffffffff60c01b1916600160c01b63ffffffff84160217905595505b60408051898152602081018890526001600160a01b0385169133918c917f2808decb743a25d04efe1bd3dc192acde3be644e2f6ad1dce5d3c46643e1c602910160405180910390a45050600161012d5550505050505050565b61120f60405180610140016040528060006001600160a01b0316815260200160006001600160a01b03168152602001600063ffffffff168152602001600063ffffffff16815260200160001515815260200160008152602001600081526020016000815260200160008152602001606081525090565b6000828152610161602090815260409182902082516101408101845281546001600160a01b039081168252600183015490811693820193909352600160a01b830463ffffffff90811694820194909452600160c01b83049093166060840152600160e01b90910460ff1615156080830152600281015460a0830152600381015460c0830152600481015460e08301526005810154610100830152600681018054610120840191906112bf906129c7565b80601f01602080910402602001604051908101604052809291908181526020018280546112eb906129c7565b80156113385780601f1061130d57610100808354040283529160200191611338565b820191906000526020600020905b81548152906001019060200180831161131b57829003601f168201915b5050505050815250509050919050565b61016054604051632474521560e21b8152600060048201523360248201526001600160a01b03909116906391d1485490604401602060405180830381865afa158015611398573d6000803e3d6000fd5b505050506040513d601f19601f820116820180604052508101906113bc9190612aab565b6113d85760405162461bcd60e51b815260040161064a90612b60565b610a88611ff7565b61016054604051632474521560e21b8152600060048201523360248201526001600160a01b03909116906391d1485490604401602060405180830381865afa158015611430573d6000803e3d6000fd5b505050506040513d601f19601f820116820180604052508101906114549190612aab565b6114705760405162461bcd60e51b815260040161064a90612b60565b60008381526101616020526040902060010154600160e01b900460ff16156114aa5760405162461bcd60e51b815260040161064a90612990565b60008381526101616020526040902060010154600160a01b900463ffffffff1661150a5760405162461bcd60e51b8152602060048201526011602482015270105d58dd1a5bdb881b9bdd08199bdd5b99607a1b604482015260640161064a565b600092835261016160205260409092206003810191909155600101805463ffffffff909216600160c01b0263ffffffff60c01b19909216919091179055565b60009182526065602090815260408084206001600160a01b0393909316845291905290205460ff1690565b61016054604051632474521560e21b8152600060048201523360248201526001600160a01b03909116906391d1485490604401602060405180830381865afa1580156115c4573d6000803e3d6000fd5b505050506040513d601f19601f820116820180604052508101906115e89190612aab565b6116045760405162461bcd60e51b815260040161064a90612b60565b6000818152610161602052604090206001810154600160e01b900460ff161561166f5760405162461bcd60e51b815260206004820152601b60248201527f41756374696f6e20697320616c72656164792066696e69736865640000000000604482015260640161064a565b80546004820180546001600160a01b03198316845560009091556001600160a01b039091169081156117155761015f5460405163a9059cbb60e01b81526001600160a01b038481166004830152602482018490529091169063a9059cbb906044016020604051808303816000875af11580156116ef573d6000803e3d6000fd5b505050506040513d601f19601f820116820180604052508101906117139190612aab565b505b60008481526101616020526040808220600101805460ff60e01b1916600160e01b179055516001600160a01b0384169186917f10ac9f0bb365b5d22d7bec500408692f23fdf83eadfec71615ef88b4c1134f0e9190a350505050565b61016054604051632474521560e21b8152600060048201523360248201526001600160a01b03909116906391d1485490604401602060405180830381865afa1580156117c1573d6000803e3d6000fd5b505050506040513d601f19601f820116820180604052508101906117e59190612aab565b6118015760405162461bcd60e51b815260040161064a90612b60565b8060005b818110156118445761183484848381811061182257611822612c10565b90506020028101906104f89190612c26565b61183d81612c47565b9050611805565b50505050565b61016054604051632474521560e21b8152600060048201523360248201526001600160a01b03909116906391d1485490604401602060405180830381865afa15801561189a573d6000803e3d6000fd5b505050506040513d601f19601f820116820180604052508101906118be9190612aab565b6118da5760405162461bcd60e51b815260040161064a90612b60565b61ffff1661016355565b6000828152606560205260409020600101546118ff81611cf8565b61088e8383611d02565b61016054604051632474521560e21b8152600060048201523360248201526001600160a01b03909116906391d1485490604401602060405180830381865afa158015611959573d6000803e3d6000fd5b505050506040513d601f19601f8201168201806040525081019061197d9190612aab565b6119995760405162461bcd60e51b815260040161064a90612b60565b6119a96080820160608301612c60565b63ffffffff1615806119e457506119c66060820160408301612c60565b63ffffffff166119dc6080830160608401612c60565b63ffffffff16115b611a275760405162461bcd60e51b8152602060048201526014602482015273496e76616c69642061756374696f6e2074696d6560601b604482015260640161064a565b61010081013560009081526101616020526040902060010154600160a01b900463ffffffff1615611a935760405162461bcd60e51b815260206004820152601660248201527541756374696f6e20616c72656164792065786973747360501b604482015260640161064a565b6101008101356000908152610161602052604090208190611ab48282612df9565b505060408051610100830135815260a083013560208201527fe00a2da3a0f34a566402a244ab7ec63f8ab7472591cb18edf3269aa00461a410910160405180910390a150565b61016054604051632474521560e21b8152600060048201523360248201526001600160a01b03909116906391d1485490604401602060405180830381865afa158015611b4a573d6000803e3d6000fd5b505050506040513d601f19601f82011682018060405250810190611b6e9190612aab565b611b8a5760405162461bcd60e51b815260040161064a90612b60565b61ffff1661016255565b60008054610100900460ff1615611bdb578160ff166001148015611bb75750303b155b611bd35760405162461bcd60e51b815260040161064a90612f0e565b506000919050565b60005460ff808416911610611c025760405162461bcd60e51b815260040161064a90612f0e565b506000805460ff191660ff92909216919091179055600190565b600054610100900460ff16610a885760405162461bcd60e51b815260040161064a90612f5c565b600054610100900460ff16611c6a5760405162461bcd60e51b815260040161064a90612f5c565b610a8861204f565b611c7c8282611549565b61090d5760008281526065602090815260408083206001600160a01b03851684529091529020805460ff19166001179055611cb43390565b6001600160a01b0316816001600160a01b0316837f2f8788117e7eff1d82e926ec794901d17c78024a50270940304540a733656f0d60405160405180910390a45050565b6109ed8133612082565b611d0c8282611549565b1561090d5760008281526065602090815260408083206001600160a01b0385168085529252808320805460ff1916905551339285917ff6391f5c32d9c69d2a47ea670b442974b53935d1edc7fd64eb21e047a839171b9190a45050565b61016054604051632474521560e21b8152600060048201523360248201526001600160a01b03909116906391d1485490604401602060405180830381865afa158015611db9573d6000803e3d6000fd5b505050506040513d601f19601f82011682018060405250810190611ddd9190612aab565b6109ed5760405162461bcd60e51b815260040161064a90612b60565b7f4910fdfa16fed3260ed0e7147f7cc6da11a60208b5b9406d12a635614ffd91435460ff1615611e2c5761088e836120e6565b826001600160a01b03166352d1902d6040518163ffffffff1660e01b8152600401602060405180830381865afa925050508015611e86575060408051601f3d908101601f19168201909252611e8391810190612fa7565b60015b611ee95760405162461bcd60e51b815260206004820152602e60248201527f45524331393637557067726164653a206e657720696d706c656d656e7461746960448201526d6f6e206973206e6f74205555505360901b606482015260840161064a565b6000805160206130728339815191528114611f585760405162461bcd60e51b815260206004820152602960248201527f45524331393637557067726164653a20756e737570706f727465642070726f786044820152681a58589b195555525160ba1b606482015260840161064a565b5061088e838383612182565b60fb5460ff16611fad5760405162461bcd60e51b815260206004820152601460248201527314185d5cd8589b194e881b9bdd081c185d5cd95960621b604482015260640161064a565b60fb805460ff191690557f5db9ee0a495bf2e6ff9c91a7834c1ba4fdd244a5e8aa4e537bd38aeae4b073aa335b6040516001600160a01b03909116815260200160405180910390a1565b60fb5460ff161561201a5760405162461bcd60e51b815260040161064a90612966565b60fb805460ff191660011790557f62e78cea01bee320cd4e420270b5ea74000d11b0c9f74754ebdbfc544b05a258611fda3390565b600054610100900460ff166120765760405162461bcd60e51b815260040161064a90612f5c565b60fb805460ff19169055565b61208c8282611549565b61090d576120a4816001600160a01b031660146121a7565b6120af8360206121a7565b6040516020016120c0929190612fc0565b60408051601f198184030181529082905262461bcd60e51b825261064a91600401613035565b6001600160a01b0381163b6121535760405162461bcd60e51b815260206004820152602d60248201527f455243313936373a206e657720696d706c656d656e746174696f6e206973206e60448201526c1bdd08184818dbdb9d1c9858dd609a1b606482015260840161064a565b60008051602061307283398151915280546001600160a01b0319166001600160a01b0392909216919091179055565b61218b8361234a565b6000825111806121985750805b1561088e57611844838361238a565b606060006121b6836002612bb8565b6121c1906002612ba0565b67ffffffffffffffff8111156121d9576121d96125bb565b6040519080825280601f01601f191660200182016040528015612203576020820181803683370190505b509050600360fc1b8160008151811061221e5761221e612c10565b60200101906001600160f81b031916908160001a905350600f60fb1b8160018151811061224d5761224d612c10565b60200101906001600160f81b031916908160001a9053506000612271846002612bb8565b61227c906001612ba0565b90505b60018111156122f4576f181899199a1a9b1b9c1cb0b131b232b360811b85600f16601081106122b0576122b0612c10565b1a60f81b8282815181106122c6576122c6612c10565b60200101906001600160f81b031916908160001a90535060049490941c936122ed81613048565b905061227f565b5083156123435760405162461bcd60e51b815260206004820181905260248201527f537472696e67733a20686578206c656e67746820696e73756666696369656e74604482015260640161064a565b9392505050565b612353816120e6565b6040516001600160a01b038216907fbc7cd75a20ee27fd9adebab32041f755214dbc6bffa90cc0225b39da2e5c2d3b90600090a250565b60606001600160a01b0383163b6123f25760405162461bcd60e51b815260206004820152602660248201527f416464726573733a2064656c65676174652063616c6c20746f206e6f6e2d636f6044820152651b9d1c9858dd60d21b606482015260840161064a565b600080846001600160a01b03168460405161240d919061305f565b600060405180830381855af49150503d8060008114612448576040519150601f19603f3d011682016040523d82523d6000602084013e61244d565b606091505b509150915061247582826040518060600160405280602781526020016130926027913961247e565b95945050505050565b6060831561248d575081612343565b82511561249d5782518084602001fd5b8160405162461bcd60e51b815260040161064a9190613035565b6000602082840312156124c957600080fd5b81356001600160e01b03198116811461234357600080fd5b6001600160a01b03811681146109ed57600080fd5b600080600080600060a0868803121561250e57600080fd5b8535612519816124e1565b945060208601359350604086013592506060860135612537816124e1565b91506080860135612547816124e1565b809150509295509295909350565b60006020828403121561256757600080fd5b5035919050565b6000806040838503121561258157600080fd5b823591506020830135612593816124e1565b809150509250929050565b6000602082840312156125b057600080fd5b8135612343816124e1565b634e487b7160e01b600052604160045260246000fd5b600080604083850312156125e457600080fd5b82356125ef816124e1565b9150602083013567ffffffffffffffff8082111561260c57600080fd5b818501915085601f83011261262057600080fd5b813581811115612632576126326125bb565b604051601f8201601f19908116603f0116810190838211818310171561265a5761265a6125bb565b8160405282815288602084870101111561267357600080fd5b8260208601602083013760006020848301015280955050505050509250929050565b60005b838110156126b0578181015183820152602001612698565b838111156118445750506000910152565b600081518084526126d9816020860160208601612695565b601f01601f19169290920160200192915050565b6001600160a01b038b811682528a16602082015263ffffffff898116604083015288166060820152861515608082015260a0810186905260c0810185905260e0810184905261010081018390526101406101208201819052600090612754838201856126c1565b9d9c50505050505050505050505050565b6000806040838503121561277857600080fd5b50508035926020909101359150565b602081526127a16020820183516001600160a01b03169052565b600060208301516127bd60408401826001600160a01b03169052565b50604083015163ffffffff8116606084015250606083015163ffffffff8116608084015250608083015180151560a08401525060a083015160c083015260c083015160e083015260e083015161010081818501528085015191505061012081818501528085015191505061014080818501525061283e6101608401826126c1565b949350505050565b63ffffffff811681146109ed57600080fd5b60008060006060848603121561286d57600080fd5b8335925060208401359150604084013561288681612846565b809150509250925092565b600080602083850312156128a457600080fd5b823567ffffffffffffffff808211156128bc57600080fd5b818501915085601f8301126128d057600080fd5b8135818111156128df57600080fd5b8660208260051b85010111156128f457600080fd5b60209290920196919550909350505050565b60006020828403121561291857600080fd5b813561ffff8116811461234357600080fd5b60006020828403121561293c57600080fd5b813567ffffffffffffffff81111561295357600080fd5b8201610140818503121561234357600080fd5b60208082526010908201526f14185d5cd8589b194e881c185d5cd95960821b604082015260600190565b60208082526017908201527f41756374696f6e20616c726561647920736574746c6564000000000000000000604082015260600190565b600181811c908216806129db57607f821691505b6020821081036129fb57634e487b7160e01b600052602260045260246000fd5b50919050565b60018060a01b03841681526000602084818401526060604084015260008454612a29816129c7565b8060608701526080600180841660008114612a4b5760018114612a5f57612a8d565b60ff1985168984015260a089019550612a8d565b896000528660002060005b85811015612a855781548b8201860152908301908801612a6a565b8a0184019650505b50939a9950505050505050505050565b80151581146109ed57600080fd5b600060208284031215612abd57600080fd5b815161234381612a9d565b6020808252602c908201527f46756e6374696f6e206d7573742062652063616c6c6564207468726f7567682060408201526b19195b1959d85d1958d85b1b60a21b606082015260800190565b6020808252602c908201527f46756e6374696f6e206d7573742062652063616c6c6564207468726f7567682060408201526b6163746976652070726f787960a01b606082015260800190565b60208082526010908201526f41646d696e2063616c6c73206f6e6c7960801b604082015260600190565b634e487b7160e01b600052601160045260246000fd5b60008219821115612bb357612bb3612b8a565b500190565b6000816000190483118215151615612bd257612bd2612b8a565b500290565b600082612bf457634e487b7160e01b600052601260045260246000fd5b500490565b600082821015612c0b57612c0b612b8a565b500390565b634e487b7160e01b600052603260045260246000fd5b6000823561013e19833603018112612c3d57600080fd5b9190910192915050565b600060018201612c5957612c59612b8a565b5060010190565b600060208284031215612c7257600080fd5b813561234381612846565b6000813561054e816124e1565b6000813561054e81612846565b6000813561054e81612a9d565b6000808335601e19843603018112612cbb57600080fd5b83018035915067ffffffffffffffff821115612cd657600080fd5b602001915036819003821315612ceb57600080fd5b9250929050565b601f82111561088e57600081815260208120601f850160051c81016020861015612d195750805b601f850160051c820191505b8181101561061f57828155600101612d25565b67ffffffffffffffff831115612d5057612d506125bb565b612d6483612d5e83546129c7565b83612cf2565b6000601f841160018114612d985760008515612d805750838201355b600019600387901b1c1916600186901b178355612df2565b600083815260209020601f19861690835b82811015612dc95786850135825560209485019460019092019101612da9565b5086821015612de65760001960f88860031b161c19848701351681555b505060018560011b0183555b5050505050565b612e22612e0583612c7d565b82546001600160a01b0319166001600160a01b0391909116178255565b60018101612e35612e0560208501612c7d565b612e68612e4460408501612c8a565b82805463ffffffff60a01b191660a09290921b63ffffffff60a01b16919091179055565b612e9b612e7760608501612c8a565b82805463ffffffff60c01b191660c09290921b63ffffffff60c01b16919091179055565b612ec8612eaa60808501612c97565b82805460ff60e01b191691151560e01b60ff60e01b16919091179055565b5060a0820135600282015560c0820135600382015560e082013560048201556101008201356005820155612f00610120830183612ca4565b611844818360068601612d38565b6020808252602e908201527f496e697469616c697a61626c653a20636f6e747261637420697320616c72656160408201526d191e481a5b9a5d1a585b1a5e995960921b606082015260800190565b6020808252602b908201527f496e697469616c697a61626c653a20636f6e7472616374206973206e6f74206960408201526a6e697469616c697a696e6760a81b606082015260800190565b600060208284031215612fb957600080fd5b5051919050565b7f416363657373436f6e74726f6c3a206163636f756e7420000000000000000000815260008351612ff8816017850160208801612695565b7001034b99036b4b9b9b4b733903937b6329607d1b6017918401918201528351613029816028840160208801612695565b01602801949350505050565b60208152600061234360208301846126c1565b60008161305757613057612b8a565b506000190190565b60008251612c3d81846020870161269556fe360894a13ba1a3210667c828492db98dca3e2076cc3735a920a3ca505d382bbc416464726573733a206c6f772d6c6576656c2064656c65676174652063616c6c206661696c6564a2646970667358221220f0b17c7ea75f51ef56fad43497f553395a123f343fd4cf6b450ea0bb15a5e98d64736f6c634300080e0033",
  "linkReferences": {},
  "deployedLinkReferences": {}
}