{
  "_format": "hh-sol-artifact-1",
  "contractName": "Auction",
  "sourceName": "contracts/Auction/Auction.sol",
  "abi": [
    {
      "anonymous": false,
      "inputs": [
        {
          "indexed": false,
          "internalType": "address",
          "name": "previousAdmin",
          "type": "address"
        },
        {
          "indexed": false,
          "internalType": "address",
          "name": "newAdmin",
          "type": "address"
        }
      ],
      "name": "AdminChanged",
      "type": "event"
    },
    {
      "anonymous": false,
      "inputs": [
        {
          "indexed": false,
          "internalType": "uint256",
          "name": "auctionId",
          "type": "uint256"
        }
      ],
      "name": "AuctionCancelled",
      "type": "event"
    },
    {
      "anonymous": false,
      "inputs": [
        {
          "indexed": false,
          "internalType": "uint256",
          "name": "auctionId",
          "type": "uint256"
        },
        {
          "indexed": false,
          "internalType": "uint256",
          "name": "nftId",
          "type": "uint256"
        }
      ],
      "name": "AuctionCreated",
      "type": "event"
    },
    {
      "anonymous": false,
      "inputs": [
        {
          "indexed": true,
          "internalType": "uint256",
          "name": "auctionId",
          "type": "uint256"
        },
        {
          "indexed": true,
          "internalType": "address",
          "name": "highestBidder",
          "type": "address"
        },
        {
          "indexed": false,
          "internalType": "uint256",
          "name": "highestBid",
          "type": "uint256"
        }
      ],
      "name": "AuctionSettled",
      "type": "event"
    },
    {
      "anonymous": false,
      "inputs": [
        {
          "indexed": true,
          "internalType": "address",
          "name": "beacon",
          "type": "address"
        }
      ],
      "name": "BeaconUpgraded",
      "type": "event"
    },
    {
      "anonymous": false,
      "inputs": [
        {
          "indexed": true,
          "internalType": "uint256",
          "name": "auctionId",
          "type": "uint256"
        },
        {
          "indexed": true,
          "internalType": "address",
          "name": "bidder",
          "type": "address"
        },
        {
          "indexed": false,
          "internalType": "uint256",
          "name": "bidAmount",
          "type": "uint256"
        },
        {
          "indexed": false,
          "internalType": "uint256",
          "name": "newEndTime",
          "type": "uint256"
        }
      ],
      "name": "BidPlaced",
      "type": "event"
    },
    {
      "anonymous": false,
      "inputs": [
        {
          "indexed": false,
          "internalType": "uint8",
          "name": "version",
          "type": "uint8"
        }
      ],
      "name": "Initialized",
      "type": "event"
    },
    {
      "anonymous": false,
      "inputs": [
        {
          "indexed": false,
          "internalType": "address",
          "name": "account",
          "type": "address"
        }
      ],
      "name": "Paused",
      "type": "event"
    },
    {
      "anonymous": false,
      "inputs": [
        {
          "indexed": true,
          "internalType": "bytes32",
          "name": "role",
          "type": "bytes32"
        },
        {
          "indexed": true,
          "internalType": "bytes32",
          "name": "previousAdminRole",
          "type": "bytes32"
        },
        {
          "indexed": true,
          "internalType": "bytes32",
          "name": "newAdminRole",
          "type": "bytes32"
        }
      ],
      "name": "RoleAdminChanged",
      "type": "event"
    },
    {
      "anonymous": false,
      "inputs": [
        {
          "indexed": true,
          "internalType": "bytes32",
          "name": "role",
          "type": "bytes32"
        },
        {
          "indexed": true,
          "internalType": "address",
          "name": "account",
          "type": "address"
        },
        {
          "indexed": true,
          "internalType": "address",
          "name": "sender",
          "type": "address"
        }
      ],
      "name": "RoleGranted",
      "type": "event"
    },
    {
      "anonymous": false,
      "inputs": [
        {
          "indexed": true,
          "internalType": "bytes32",
          "name": "role",
          "type": "bytes32"
        },
        {
          "indexed": true,
          "internalType": "address",
          "name": "account",
          "type": "address"
        },
        {
          "indexed": true,
          "internalType": "address",
          "name": "sender",
          "type": "address"
        }
      ],
      "name": "RoleRevoked",
      "type": "event"
    },
    {
      "anonymous": false,
      "inputs": [
        {
          "indexed": false,
          "internalType": "address",
          "name": "account",
          "type": "address"
        }
      ],
      "name": "Unpaused",
      "type": "event"
    },
    {
      "anonymous": false,
      "inputs": [
        {
          "indexed": true,
          "internalType": "address",
          "name": "implementation",
          "type": "address"
        }
      ],
      "name": "Upgraded",
      "type": "event"
    },
    {
      "inputs": [],
      "name": "DEFAULT_ADMIN_ROLE",
      "outputs": [
        {
          "internalType": "bytes32",
          "name": "",
          "type": "bytes32"
        }
      ],
      "stateMutability": "view",
      "type": "function"
    },
    {
      "inputs": [
        {
          "internalType": "uint256",
          "name": "",
          "type": "uint256"
        }
      ],
      "name": "auctions",
      "outputs": [
        {
          "internalType": "address",
          "name": "highestBidder",
          "type": "address"
        },
        {
          "internalType": "contract INFT",
          "name": "nftContract",
          "type": "address"
        },
        {
          "internalType": "uint32",
          "name": "startTime",
          "type": "uint32"
        },
        {
          "internalType": "uint32",
          "name": "endTime",
          "type": "uint32"
        },
        {
          "internalType": "bool",
          "name": "settled",
          "type": "bool"
        },
        {
          "internalType": "uint256",
          "name": "nftId",
          "type": "uint256"
        },
        {
          "internalType": "uint256",
          "name": "minimumPrice",
          "type": "uint256"
        },
        {
          "internalType": "uint256",
          "name": "highestBid",
          "type": "uint256"
        },
        {
          "internalType": "string",
          "name": "nftUri",
          "type": "string"
        }
      ],
      "stateMutability": "view",
      "type": "function"
    },
    {
      "inputs": [
        {
          "internalType": "uint256",
          "name": "_auctionId",
          "type": "uint256"
        },
        {
          "internalType": "uint256",
          "name": "_amount",
          "type": "uint256"
        }
      ],
      "name": "bid",
      "outputs": [],
      "stateMutability": "nonpayable",
      "type": "function"
    },
    {
      "inputs": [
        {
          "internalType": "uint256",
          "name": "_auctionId",
          "type": "uint256"
        }
      ],
      "name": "cancelAuction",
      "outputs": [],
      "stateMutability": "nonpayable",
      "type": "function"
    },
    {
      "inputs": [
        {
          "internalType": "uint256",
          "name": "_auctionId",
          "type": "uint256"
        },
        {
          "internalType": "uint256",
          "name": "_nftId",
          "type": "uint256"
        },
        {
          "internalType": "uint256",
          "name": "_minimumPrice",
          "type": "uint256"
        },
        {
          "internalType": "uint32",
          "name": "_startTime",
          "type": "uint32"
        },
        {
          "internalType": "uint32",
          "name": "_endTime",
          "type": "uint32"
        },
        {
          "internalType": "contract INFT",
          "name": "_nftContract",
          "type": "address"
        },
        {
          "internalType": "string",
          "name": "_nftUri",
          "type": "string"
        }
      ],
      "name": "createAuction",
      "outputs": [
        {
          "internalType": "uint256",
          "name": "auctionId",
          "type": "uint256"
        }
      ],
      "stateMutability": "nonpayable",
      "type": "function"
    },
    {
      "inputs": [
        {
          "internalType": "uint256",
          "name": "_auctionId",
          "type": "uint256"
        }
      ],
      "name": "getAuction",
      "outputs": [
        {
          "components": [
            {
              "internalType": "address",
              "name": "highestBidder",
              "type": "address"
            },
            {
              "internalType": "contract INFT",
              "name": "nftContract",
              "type": "address"
            },
            {
              "internalType": "uint32",
              "name": "startTime",
              "type": "uint32"
            },
            {
              "internalType": "uint32",
              "name": "endTime",
              "type": "uint32"
            },
            {
              "internalType": "bool",
              "name": "settled",
              "type": "bool"
            },
            {
              "internalType": "uint256",
              "name": "nftId",
              "type": "uint256"
            },
            {
              "internalType": "uint256",
              "name": "minimumPrice",
              "type": "uint256"
            },
            {
              "internalType": "uint256",
              "name": "highestBid",
              "type": "uint256"
            },
            {
              "internalType": "string",
              "name": "nftUri",
              "type": "string"
            }
          ],
          "internalType": "struct Auction.AuctionInfo",
          "name": "",
          "type": "tuple"
        }
      ],
      "stateMutability": "view",
      "type": "function"
    },
    {
      "inputs": [],
      "name": "getBidIncrementPercentage",
      "outputs": [
        {
          "internalType": "uint256",
          "name": "",
          "type": "uint256"
        }
      ],
      "stateMutability": "view",
      "type": "function"
    },
    {
      "inputs": [],
      "name": "getDefaultTimeExtension",
      "outputs": [
        {
          "internalType": "uint256",
          "name": "",
          "type": "uint256"
        }
      ],
      "stateMutability": "view",
      "type": "function"
    },
    {
      "inputs": [
        {
          "internalType": "bytes32",
          "name": "role",
          "type": "bytes32"
        }
      ],
      "name": "getRoleAdmin",
      "outputs": [
        {
          "internalType": "bytes32",
          "name": "",
          "type": "bytes32"
        }
      ],
      "stateMutability": "view",
      "type": "function"
    },
    {
      "inputs": [
        {
          "internalType": "bytes32",
          "name": "role",
          "type": "bytes32"
        },
        {
          "internalType": "address",
          "name": "account",
          "type": "address"
        }
      ],
      "name": "grantRole",
      "outputs": [],
      "stateMutability": "nonpayable",
      "type": "function"
    },
    {
      "inputs": [
        {
          "internalType": "bytes32",
          "name": "role",
          "type": "bytes32"
        },
        {
          "internalType": "address",
          "name": "account",
          "type": "address"
        }
      ],
      "name": "hasRole",
      "outputs": [
        {
          "internalType": "bool",
          "name": "",
          "type": "bool"
        }
      ],
      "stateMutability": "view",
      "type": "function"
    },
    {
      "inputs": [
        {
          "internalType": "address",
          "name": "_admin",
          "type": "address"
        },
        {
          "internalType": "uint256",
          "name": "_defaultTimeExtension",
          "type": "uint256"
        },
        {
          "internalType": "uint256",
          "name": "_bidIncrementPercentage",
          "type": "uint256"
        },
        {
          "internalType": "address",
          "name": "_token",
          "type": "address"
        }
      ],
      "name": "initialize",
      "outputs": [],
      "stateMutability": "nonpayable",
      "type": "function"
    },
    {
      "inputs": [],
      "name": "pause",
      "outputs": [],
      "stateMutability": "nonpayable",
      "type": "function"
    },
    {
      "inputs": [],
      "name": "paused",
      "outputs": [
        {
          "internalType": "bool",
          "name": "",
          "type": "bool"
        }
      ],
      "stateMutability": "view",
      "type": "function"
    },
    {
      "inputs": [],
      "name": "proxiableUUID",
      "outputs": [
        {
          "internalType": "bytes32",
          "name": "",
          "type": "bytes32"
        }
      ],
      "stateMutability": "view",
      "type": "function"
    },
    {
      "inputs": [
        {
          "internalType": "bytes32",
          "name": "role",
          "type": "bytes32"
        },
        {
          "internalType": "address",
          "name": "account",
          "type": "address"
        }
      ],
      "name": "renounceRole",
      "outputs": [],
      "stateMutability": "nonpayable",
      "type": "function"
    },
    {
      "inputs": [
        {
          "internalType": "bytes32",
          "name": "role",
          "type": "bytes32"
        },
        {
          "internalType": "address",
          "name": "account",
          "type": "address"
        }
      ],
      "name": "revokeRole",
      "outputs": [],
      "stateMutability": "nonpayable",
      "type": "function"
    },
    {
      "inputs": [
        {
          "internalType": "uint16",
          "name": "_bidIncrementPercentage",
          "type": "uint16"
        }
      ],
      "name": "setBidIncrementPercentage",
      "outputs": [],
      "stateMutability": "nonpayable",
      "type": "function"
    },
    {
      "inputs": [
        {
          "internalType": "uint16",
          "name": "_timeExtension",
          "type": "uint16"
        }
      ],
      "name": "setDefaultTimeExtension",
      "outputs": [],
      "stateMutability": "nonpayable",
      "type": "function"
    },
    {
      "inputs": [
        {
          "internalType": "address",
          "name": "_token",
          "type": "address"
        }
      ],
      "name": "setToken",
      "outputs": [],
      "stateMutability": "nonpayable",
      "type": "function"
    },
    {
      "inputs": [
        {
          "internalType": "uint256",
          "name": "_auctionId",
          "type": "uint256"
        }
      ],
      "name": "settleAuction",
      "outputs": [],
      "stateMutability": "nonpayable",
      "type": "function"
    },
    {
      "inputs": [
        {
          "internalType": "bytes4",
          "name": "interfaceId",
          "type": "bytes4"
        }
      ],
      "name": "supportsInterface",
      "outputs": [
        {
          "internalType": "bool",
          "name": "",
          "type": "bool"
        }
      ],
      "stateMutability": "view",
      "type": "function"
    },
    {
      "inputs": [],
      "name": "token",
      "outputs": [
        {
          "internalType": "contract IERC20",
          "name": "",
          "type": "address"
        }
      ],
      "stateMutability": "view",
      "type": "function"
    },
    {
      "inputs": [],
      "name": "unpause",
      "outputs": [],
      "stateMutability": "nonpayable",
      "type": "function"
    },
    {
      "inputs": [
        {
          "internalType": "uint256",
          "name": "_auctionId",
          "type": "uint256"
        },
        {
          "internalType": "uint256",
          "name": "_minimumPrice",
          "type": "uint256"
        },
        {
          "internalType": "uint32",
          "name": "_endTime",
          "type": "uint32"
        }
      ],
      "name": "updateAuction",
      "outputs": [],
      "stateMutability": "nonpayable",
      "type": "function"
    },
    {
      "inputs": [
        {
          "internalType": "address",
          "name": "newImplementation",
          "type": "address"
        }
      ],
      "name": "upgradeTo",
      "outputs": [],
      "stateMutability": "nonpayable",
      "type": "function"
    },
    {
      "inputs": [
        {
          "internalType": "address",
          "name": "newImplementation",
          "type": "address"
        },
        {
          "internalType": "bytes",
          "name": "data",
          "type": "bytes"
        }
      ],
      "name": "upgradeToAndCall",
      "outputs": [],
      "stateMutability": "payable",
      "type": "function"
    }
  ],
  "bytecode": "0x60a080604052346100315730608052612b809081610037823960805181818161078101528181610a4b0152610aba0152f35b600080fdfe60806040526004361015610013575b600080fd5b60003560e01c806301ffc9a71461022f578063144fa6d714610226578063248a9ca31461021d5780632e993611146102145780632f2ff15d1461020b57806336568abe146102025780633659cfe6146101f95780633f4ba83a146101f0578063481b13d2146101e75780634f1ef286146101de57806352d1902d146101d5578063571a26a0146101cc578063598647f8146101c35780635c975abb146101ba57806378bd7935146101b1578063809d6172146101a85780638456cb591461019f5780638f8038421461019657806391d148541461018d57806396b5a755146101845780639e3d87cd1461017b578063a217fddf14610172578063c3c675bc14610169578063d547741f14610160578063d828abe114610157578063fc0c546a1461014e5763ff54a5ca1461014657600080fd5b61000e61178d565b5061000e611762565b5061000e6116ea565b5061000e6116a7565b5061000e611666565b5061000e61162c565b5061000e611530565b5061000e61141e565b5061000e6113c7565b5061000e6112bd565b5061000e611203565b5061000e6111e3565b5061000e6110e9565b5061000e611037565b5061000e610d80565b5061000e610d01565b5061000e610aa6565b5061000e6109ef565b5061000e6108e7565b5061000e61082e565b5061000e610753565b5061000e6106ba565b5061000e6105e9565b5061000e610332565b5061000e610302565b5061000e610297565b503461000e57602036600319011261000e5760043563ffffffff60e01b811680910361000e57602090637965db0b60e01b8114908115610275575b506040519015158152f35b6301ffc9a760e01b1490503861026a565b6001600160a01b0381160361000e57565b503461000e57602036600319011261000e576004356102b581610286565b336000908152600080516020612b0b833981519152602052604090206102e09060ff905b54166123a3565b61015f80546001600160a01b0319166001600160a01b03909216919091179055005b503461000e57602036600319011261000e5760043560005260656020526020600160406000200154604051908152f35b503461000e5760208060031936011261000e5760043561035760ff60fb541615612764565b61036c81600052610160602052604060002090565b91600183019283549061038560ff8360e01c16156127a3565b600481015481549093906103b79063ffffffff906001600160a01b03169460c01c1680151590816105df575b506127ef565b855460ff60e01b1916600160e01b1786556001600160a01b0383169586610410575b604051858152879087907fc9f72b276a388619c6d185d146697036241880c36654b1a3ffdad07c24038d999080602081015b0390a3005b805493949293610430906001600160a01b03165b6001600160a01b031690565b600285015491813b1561000e576000846104b961042488947fc9f72b276a388619c6d185d146697036241880c36654b1a3ffdad07c24038d999b8561052c998699600561040b9f849061049b60405197889687958694633349e71f60e21b865201916004850161283b565b03925af180156105d2575b6105b9575b50546001600160a01b031690565b60046040518094819363c861e78f60e01b83525af19081156105ac575b60009161057f575b5061015f546104f5906001600160a01b0316610424565b60405163a9059cbb60e01b81526001600160a01b039092166004830152602482019290925292839190829060009082906044820190565b03925af18015610572575b610544575b8294506103d9565b8161056392903d1061056b575b61055b818361095c565b8101906128fe565b50388061053c565b503d610551565b61057a611b71565b610537565b61059f9150833d85116105a5575b610597818361095c565b8101906128e9565b386104de565b503d61058d565b6105b4611b71565b6104d6565b806105c66105cc9261091e565b80610823565b386104ab565b6105da611b71565b6104a6565b90504211386103b1565b503461000e5760408060031936011261000e576004359060243561060c81610286565b6000928084526065602052610626600184862001546117ce565b808452606560209081528385206001600160a01b03841660009081529152604090205460ff161561065657505051f35b808452606560209081528385206001600160a01b0384166000908152915260409020805460ff19166001179055825133926001600160a01b031691907f2f8788117e7eff1d82e926ec794901d17c78024a50270940304540a733656f0d908690a451f35b503461000e57604036600319011261000e576024356106d881610286565b336001600160a01b038216036106f6576106f4906004356119d5565b005b60405162461bcd60e51b815260206004820152602f60248201527f416363657373436f6e74726f6c3a2063616e206f6e6c792072656e6f756e636560448201526e103937b632b9903337b91039b2b63360891b6064820152608490fd5b503461000e57602036600319011261000e576106f460043561077481610286565b6107c66001600160a01b037f00000000000000000000000000000000000000000000000000000000000000008116906107af30831415611a65565b600080516020612b2b833981519152541614611ac6565b336000908152600080516020612b0b833981519152602052604090206107ee9060ff906102d9565b604051906020820182811067ffffffffffffffff821117610816575b60405260008252611c2b565b61081e610907565b61080a565b600091031261000e57565b503461000e576000806003193601126108e457808052606560209081526040808320336000908152925290206108669060ff906102d9565b60fb5460ff8116156108a85760ff191660fb557f5db9ee0a495bf2e6ff9c91a7834c1ba4fdd244a5e8aa4e537bd38aeae4b073aa6020604051338152a1604051f35b60405162461bcd60e51b815260206004820152601460248201527314185d5cd8589b194e881b9bdd081c185d5cd95960621b6044820152606490fd5b80fd5b503461000e57600036600319011261000e57602061016254604051908152f35b50634e487b7160e01b600052604160045260246000fd5b67ffffffffffffffff811161093257604052565b61093a610907565b604052565b610120810190811067ffffffffffffffff82111761093257604052565b90601f8019910116810190811067ffffffffffffffff82111761093257604052565b6040519061098b8261093f565b565b60209067ffffffffffffffff81116109ab575b601f01601f19160190565b6109b3610907565b6109a0565b9291926109c48261098d565b916109d2604051938461095c565b82948184528183011161000e578281602093846000960137010152565b50604036600319011261000e57600435610a0881610286565b6024359067ffffffffffffffff821161000e573660238301121561000e57610a3d6106f49236906024816004013591016109b8565b90610a796001600160a01b037f00000000000000000000000000000000000000000000000000000000000000008116906107af30831415611a65565b336000908152600080516020612b0b83398151915260205260409020610aa19060ff906102d9565b611cfe565b503461000e57600036600319011261000e577f00000000000000000000000000000000000000000000000000000000000000006001600160a01b03163003610b0557604051600080516020612b2b8339815191528152602090f35b0390f35b60405162461bcd60e51b815260206004820152603860248201527f555550535570677261646561626c653a206d757374206e6f742062652063616c60448201527f6c6564207468726f7567682064656c656761746563616c6c00000000000000006064820152608490fd5b90600182811c92168015610ba0575b6020831014610b8a57565b634e487b7160e01b600052602260045260246000fd5b91607f1691610b7f565b9060405191826000825492610bbe84610b70565b908184526001948581169081600014610c2b5750600114610be8575b505061098b9250038361095c565b9093915060005260209081600020936000915b818310610c1357505061098b93508201013880610bda565b85548884018501529485019487945091830191610bfb565b9550505050505060ff1916602083015261098b82604081013880610bda565b918091926000905b828210610c6a575011610c63575050565b6000910152565b91508060209183015181860152018291610c52565b90602091610c9881518092818552858086019101610c4a565b601f01601f1916010190565b9694929190610cfe999896949160018060a01b03809216895216602088015263ffffffff80921660408801521660608601521515608085015260a084015260c083015260e082015261012090816101008201520190610c7f565b90565b503461000e57602036600319011261000e57600435600052610160602052604060002060018060a01b0390610b0182825416926001830154926002810154600382015490610d56600560048501549401610baa565b9360405197889763ffffffff9160ff8260e01c1693838360c01c16938360a01c169216908a610ca4565b503461000e57604036600319011261000e576004356024359061012d6002815414610ff25760029055610db860ff60fb541615612764565b7f51db8e23b3f4479b162fd48823b8402895442b8f6cfd94f66239391881ec7b6f610f4e610df183600052610160602052604060002090565b6001810180549063ffffffff9187838260c01c1694610e17858460a01c16421015612916565b610e3a60ff871594858015610fe9575b610e309061295a565b60e01c16156127a3565b81151580610fdb575b610e4c9061299a565b610eef6004820191610e81610e79610e718554610e6b610162546120e9565b906120ca565b612710900490565b8510156129e6565b61015f54610e97906001600160a01b0316610424565b6040516323b872dd60e01b81523360048201523060248201526044810186905290602090829060649082906000905af18015610fce575b610fb0575b50610edd8b612a59565b80546001600160a01b03191633179055565b55610161549015610f5c5750610f359150610f15610f0c42612100565b63ffffffff1690565b815463ffffffff60c01b191660c09190911b63ffffffff60c01b16179055565b6040805195865260208601919091523394918291820190565b0390a36106f4600161012d55565b80610f674286612a42565b10610f75575b505050610f35565b610fa8929350610f859042612114565b815463ffffffff60c01b191693811660c01b63ffffffff60c01b16939093179055565b388080610f6d565b610fc79060203d811161056b5761055b818361095c565b5038610ed3565b610fd6611b71565b610ece565b506003810154821015610e43565b50428911610e27565b60405162461bcd60e51b815260206004820152601f60248201527f5265656e7472616e637947756172643a207265656e7472616e742063616c6c006044820152606490fd5b503461000e57600036600319011261000e57602060ff60fb54166040519015158152f35b602080825282516001600160a01b031690820152610cfe916101409060208101516001600160a01b03166040840152604081015163ffffffff166060840152606081015163ffffffff1660808401526080810151151560a084015260a081015160c084015260c081015160e084015260e0810151906101009182850152015191610120808201520190610c7f565b503461000e57602036600319011261000e57610b0160405161110a8161093f565b6040600080835280602084015280828401528060608401528060808401528060a08401528060c08401528060e0840152606061010080940152600435815261016060205220906111d3600561115d61097e565b84546001600160a01b031681529360018101546001600160a01b038116602087015263ffffffff60a082901c8116604088015260c082901c1660608701526111af9060ff9060e01c1615156080870152565b600281015460a0860152600381015460c0860152600481015460e086015201610baa565b908201526040519182918261105b565b503461000e57600036600319011261000e57602061016154604051908152f35b503461000e576000806003193601126108e4578080526065602090815260408083203360009081529252902061123b9060ff906102d9565b600160fb5461124d60ff821615612764565b60ff19161760fb557f62e78cea01bee320cd4e420270b5ea74000d11b0c9f74754ebdbfc544b05a2586020604051338152a1604051f35b6044359063ffffffff8216820361000e57565b6064359063ffffffff8216820361000e57565b6084359063ffffffff8216820361000e57565b503461000e57606036600319011261000e576004356112da611284565b336000908152600080516020612b0b83398151915260205260408120909291906113069060ff906102d9565b8183526101608060205261132760ff600160408720015460e01c16156127a3565b82845260205263ffffffff600160408520015460c01c161561138e57600161135d61138993600052610160602052604060002090565b602435600382015501805463ffffffff60c01b191660c09290921b63ffffffff60c01b16919091179055565b604051f35b60405162461bcd60e51b8152602060048201526011602482015270105d58dd1a5bdb881b9bdd08199bdd5b99607a1b6044820152606490fd5b503461000e57604036600319011261000e57602060ff6114126024356113ec81610286565b6004356000526065845260406000209060018060a01b0316600052602052604060002090565b54166040519015158152f35b503461000e57602036600319011261000e57336000908152600080516020612b0b833981519152602052604081206004359061145c9060ff906102d9565b80825261016060205260ff600160408420015460e01c166114eb576114e3816114a57f2809c7e17bf978fbc7194c0a694b638c4215e9140cacc6c38ca36010b45697df93612a59565b6114d360016114bf83600052610160602052604060002090565b01805460ff60e01b1916600160e01b179055565b6040519081529081906020820190565b0390a1604051f35b60405162461bcd60e51b815260206004820152601b60248201527f41756374696f6e20697320616c72656164792066696e697368656400000000006044820152606490fd5b503461000e57608036600319011261000e5760043561154e81610286565b60643561155a81610286565b6115a5611565612363565b9283611618575b6115746122ef565b61158e60ff60005460081c166115898161228f565b61228f565b60ff1960fb541660fb556115a06122ef565b61193f565b602435610161556044356101625561015f80546001600160a01b0319166001600160a01b039092169190911790556115d957005b6115e961ff001960005416600055565b604051600181527f7f26b83ff96e1f2b6a682f133852f6798a09c465da95921460cefb384740249890602090a1005b61010061ff0019600054161760005561156c565b503461000e57600036600319011261000e57602060405160008152f35b602090600319011261000e5760043561ffff8116810361000e5790565b503461000e5761ffff61167836611649565b336000908152600080516020612b0b833981519152602052604090206116a09060ff906102d9565b1661016255005b503461000e57604036600319011261000e576106f46024356004356116cb82610286565b8060005260656020526116e56001604060002001546117ce565b6119d5565b503461000e5760e036600319011261000e57611704611297565b61170c6112aa565b9060a4359061171a82610286565b60c4359167ffffffffffffffff831161000e573660238401121561000e57610b01936117536114d39436906024816004013591016109b8565b926044356024356004356123e2565b503461000e57600036600319011261000e5761015f546040516001600160a01b039091168152602090f35b503461000e5761ffff61179f36611649565b336000908152600080516020612b0b833981519152602052604090206117c79060ff906102d9565b1661016155005b600081815260656020908152604080832033845290915290205460ff16156117f35750565b33906117fd611b27565b91603061180984612137565b5360786118158461214d565b5360295b600181116118c8576118c46118816118ac8661189e6118418861183c8915612198565b6121e3565b61187b60405195869461187b602087016017907f416363657373436f6e74726f6c3a206163636f756e742000000000000000000081520190565b90611917565b7001034b99036b4b9b9b4b733903937b6329607d1b815260110190565b03601f19810183528261095c565b60405162461bcd60e51b81529182916004830161192e565b0390fd5b9080600f6119059216601081101561190a575b6f181899199a1a9b1b9c1cb0b131b232b360811b901a6118fb848761215e565b5360041c9161217d565b611819565b611912612120565b6118db565b9061192a60209282815194859201610c4a565b0190565b906020610cfe928181520190610c7f565b6001600160a01b0381166000908152600080516020612b0b833981519152602052604081205460ff1615611971575050565b8080526065602090815260408083206001600160a01b038516600090815292529020805460ff1916600117905560405133926001600160a01b031691907f2f8788117e7eff1d82e926ec794901d17c78024a50270940304540a733656f0d908290a4565b60008181526065602090815260408083206001600160a01b038616845290915290205460ff16611a03575050565b60008181526065602090815260408083206001600160a01b03861684529091529020805460ff1916905560405133926001600160a01b031691907ff6391f5c32d9c69d2a47ea670b442974b53935d1edc7fd64eb21e047a839171b90600090a4565b15611a6c57565b60405162461bcd60e51b815260206004820152602c60248201527f46756e6374696f6e206d7573742062652063616c6c6564207468726f7567682060448201526b19195b1959d85d1958d85b1b60a21b6064820152608490fd5b15611acd57565b60405162461bcd60e51b815260206004820152602c60248201527f46756e6374696f6e206d7573742062652063616c6c6564207468726f7567682060448201526b6163746976652070726f787960a01b6064820152608490fd5b604051906060820182811067ffffffffffffffff821117611b55575b604052602a8252604082602036910137565b611b5d610907565b611b43565b9081602091031261000e575190565b506040513d6000823e3d90fd5b15611b8557565b60405162461bcd60e51b815260206004820152602960248201527f45524331393637557067726164653a20756e737570706f727465642070726f786044820152681a58589b195555525160ba1b6064820152608490fd5b60809060208152602e60208201527f45524331393637557067726164653a206e657720696d706c656d656e7461746960408201526d6f6e206973206e6f74205555505360901b60608201520190565b90611c577f4910fdfa16fed3260ed0e7147f7cc6da11a60208b5b9406d12a635614ffd91435460ff1690565b15611c66575061098b90611dc1565b6040516352d1902d60e01b8152916020836004816001600160a01b0385165afa60009381611cce575b50611cad5760405162461bcd60e51b8152806118c460048201611bdc565b611cc9600080516020612b2b83398151915261098b9414611b7e565b611e51565b611cf091945060203d8111611cf7575b611ce8818361095c565b810190611b62565b9238611c8f565b503d611cde565b90611d2a7f4910fdfa16fed3260ed0e7147f7cc6da11a60208b5b9406d12a635614ffd91435460ff1690565b15611d39575061098b90611dc1565b6040516352d1902d60e01b8152916020836004816001600160a01b0385165afa60009381611da1575b50611d805760405162461bcd60e51b8152806118c460048201611bdc565b611d9c600080516020612b2b83398151915261098b9414611b7e565b611f61565b611dba91945060203d8111611cf757611ce8818361095c565b9238611d62565b803b15611df657600080516020612b2b83398151915280546001600160a01b0319166001600160a01b03909216919091179055565b60405162461bcd60e51b815260206004820152602d60248201527f455243313936373a206e657720696d706c656d656e746174696f6e206973206e60448201526c1bdd08184818dbdb9d1c9858dd609a1b6064820152608490fd5b90611e5b82611dc1565b604051600092906001600160a01b0382167fbc7cd75a20ee27fd9adebab32041f755214dbc6bffa90cc0225b39da2e5c2d3b8583a2825115801590611f5a575b611ea6575b50505050565b813b15611f095750918082611ef79460208395519201905af4903d15611f01573d611ed08161098d565b90611ede604051928361095c565b8152809160203d92013e5b611ef161200b565b91612073565b5038808080611ea0565b506060611ee9565b62461bcd60e51b815260206004820152602660248201527f416464726573733a2064656c65676174652063616c6c20746f206e6f6e2d636f6044820152651b9d1c9858dd60d21b6064820152608490fd5b5083611e9b565b611f6a81611dc1565b6040516001600160a01b0382167fbc7cd75a20ee27fd9adebab32041f755214dbc6bffa90cc0225b39da2e5c2d3b600083a2825115801590612003575b611fb057505050565b813b15611f09575060008281926020611ff995519201905af43d15611ffc573d611fd98161098d565b90611fe7604051928361095c565b81523d6000602083013e611ef161200b565b50565b6060611ee9565b506001611fa7565b604051906060820182811067ffffffffffffffff821117612066575b60405260278252660819985a5b195960ca1b6040837f416464726573733a206c6f772d6c6576656c2064656c65676174652063616c6c60208201520152565b61206e610907565b612027565b9091901561207f575090565b81511561208f5750805190602001fd5b60405162461bcd60e51b8152602060048201529081906118c4906024830190610c7f565b50634e487b7160e01b600052601160045260246000fd5b80600019048211811515166120dd570290565b6120e56120b3565b0290565b612710811981116120f8570190565b61192a6120b3565b6201518090620151801981116120f8570190565b811981116120f8570190565b50634e487b7160e01b600052603260045260246000fd5b602090805115612145570190565b61192a612120565b602190805160011015612145570190565b90602091805182101561217057010190565b612178612120565b010190565b801561218b575b6000190190565b6121936120b3565b612184565b1561219f57565b606460405162461bcd60e51b815260206004820152602060248201527f537472696e67733a20686578206c656e67746820696e73756666696369656e746044820152fd5b604051906080820182811067ffffffffffffffff821117612282575b604052604282526060366020840137603061221983612137565b5360786122258361214d565b536041905b6001821161223d57610cfe915015612198565b80600f61226f92166010811015612275575b6f181899199a1a9b1b9c1cb0b131b232b360811b901a6118fb848661215e565b9061222a565b61227d612120565b61224f565b61228a610907565b6121ff565b1561229657565b60405162461bcd60e51b815260206004820152602b60248201527f496e697469616c697a61626c653a20636f6e7472616374206973206e6f74206960448201526a6e697469616c697a696e6760a81b6064820152608490fd5b61098b60ff60005460081c1661228f565b1561230757565b60405162461bcd60e51b815260206004820152602e60248201527f496e697469616c697a61626c653a20636f6e747261637420697320616c72656160448201526d191e481a5b9a5d1a585b1a5e995960921b6064820152608490fd5b60005460ff8160081c166000146123855750612380303b15612300565b600090565b80612396600160ff81941610612300565b60ff191617600055600190565b156123aa57565b60405162461bcd60e51b815260206004820152601060248201526f41646d696e2063616c6c73206f6e6c7960801b6044820152606490fd5b336000908152600080516020612b0b8339815191526020526040812090977fe00a2da3a0f34a566402a244ab7ec63f8ab7472591cb18edf3269aa00461a41097939692956124d09591939192612499929161248c916124439060ff906102d9565b61245f63ffffffff80851680159182156124e3575b50506124ef565b61247f61246a61097e565b8d81526001600160a01b039098166020890152565b63ffffffff166040870152565b63ffffffff166060850152565b8760808401528560a084015260c08301528660e08301526101008201526124cb83600052610160602052604060002090565b612663565b604080519182526020820192909252a190565b84161090503880612458565b156124f657565b60405162461bcd60e51b8152602060048201526014602482015273496e76616c69642061756374696f6e2074696d6560601b6044820152606490fd5b90601f811161254057505050565b600091825260208220906020601f850160051c8301941061257c575b601f0160051c01915b82811061257157505050565b818155600101612565565b909250829061255c565b919091825167ffffffffffffffff8111612656575b6125af816125a98454610b70565b84612532565b602080601f83116001146125eb5750819293946000926125e0575b50508160011b916000199060031b1c1916179055565b0151905038806125ca565b90601f1983169561260185600052602060002090565b926000905b88821061263e57505083600195969710612625575b505050811b019055565b015160001960f88460031b161c1916905538808061261b565b80600185968294968601518155019501930190612606565b61265e610907565b61259b565b815181546001600160a01b0319166001600160a01b0390911617815561098b916005906101009060208101516001850180546001600160a01b0319166001600160a01b0390921691909117815561273d906126e86126c8604085015163ffffffff1690565b825463ffffffff60a01b191660a09190911b63ffffffff60a01b16178255565b61271c6126fc606085015163ffffffff1690565b825463ffffffff60c01b191660c09190911b63ffffffff60c01b16178255565b60808301511515815460ff60e01b191690151560e01b60ff60e01b16179055565b60a0810151600285015560c0810151600385015560e0810151600485015501519101612586565b1561276b57565b60405162461bcd60e51b815260206004820152601060248201526f14185d5cd8589b194e881c185d5cd95960821b6044820152606490fd5b156127aa57565b60405162461bcd60e51b815260206004820152601760248201527f41756374696f6e20616c726561647920736574746c65640000000000000000006044820152606490fd5b156127f657565b60405162461bcd60e51b815260206004820152601860248201527f41756374696f6e206973207374696c6c2072756e6e696e6700000000000000006044820152606490fd5b6001600160a01b039091168152602080820192909252606060408201528254600093929061286881610b70565b9384606085015260019182811690816000146128ca575060011461288f575b505050505090565b6000908152828120949550935b8585106128b6575050506080925001013880808080612887565b80548585016080015293820193810161289c565b9495505050505060a0925060ff19166080820152013880808080612887565b9081602091031261000e5751610cfe81610286565b9081602091031261000e5751801515810361000e5790565b1561291d57565b60405162461bcd60e51b815260206004820152601560248201527441756374696f6e206e6f7420617661696c61626c6560581b6044820152606490fd5b1561296157565b60405162461bcd60e51b8152602060048201526011602482015270105d58dd1a5bdb881a185cc8195b991959607a1b6044820152606490fd5b156129a157565b60405162461bcd60e51b815260206004820152601960248201527f426964206973206c6f776572207468616e206d696e696d756d000000000000006044820152606490fd5b156129ed57565b60405162461bcd60e51b815260206004820152602760248201527f426964206973206c6f776572207468616e20686967686573742062696420696e60448201526618dc995b595b9d60ca1b6064820152608490fd5b818110612a4d570390565b612a556120b3565b0390565b612a6e90600052610160602052604060002090565b80546004820180546001600160a01b03198316909355600090556001600160a01b039081169182612a9e57505050565b61015f5460405163a9059cbb60e01b81526001600160a01b03949094166004850152602484019190915260209183916044918391600091165af18015612afd575b612ae65750565b611ff99060203d811161056b5761055b818361095c565b612b05611b71565b612adf56feffdfc1249c027f9191656349feb0761381bb32c9f557e01f419fd08754bf5a1b360894a13ba1a3210667c828492db98dca3e2076cc3735a920a3ca505d382bbca26469706673582212203f0ceb9b0c7956fc6627dbf513774c6c15ab478d6bb89c3a891c0f2a2eefad7364736f6c634300080e0033",
  "linkReferences": {},
  "deployedLinkReferences": {}
}