{
  "_format": "hh-sol-artifact-1",
  "contractName": "Auction",
  "sourceName": "contracts/Auction/Auction.sol",
  "abi": [
    {
      "anonymous": false,
      "inputs": [
        {
          "indexed": false,
          "internalType": "address",
          "name": "previousAdmin",
          "type": "address"
        },
        {
          "indexed": false,
          "internalType": "address",
          "name": "newAdmin",
          "type": "address"
        }
      ],
      "name": "AdminChanged",
      "type": "event"
    },
    {
      "anonymous": false,
      "inputs": [
        {
          "indexed": true,
          "internalType": "uint256",
          "name": "auctionId",
          "type": "uint256"
        },
        {
          "indexed": true,
          "internalType": "address",
          "name": "previousBidder",
          "type": "address"
        }
      ],
      "name": "AuctionCancelled",
      "type": "event"
    },
    {
      "anonymous": false,
      "inputs": [
        {
          "indexed": false,
          "internalType": "uint256",
          "name": "auctionId",
          "type": "uint256"
        },
        {
          "indexed": false,
          "internalType": "uint256",
          "name": "nftId",
          "type": "uint256"
        }
      ],
      "name": "AuctionCreated",
      "type": "event"
    },
    {
      "anonymous": false,
      "inputs": [
        {
          "indexed": true,
          "internalType": "uint256",
          "name": "auctionId",
          "type": "uint256"
        },
        {
          "indexed": true,
          "internalType": "address",
          "name": "highestBidder",
          "type": "address"
        },
        {
          "indexed": false,
          "internalType": "uint256",
          "name": "highestBid",
          "type": "uint256"
        }
      ],
      "name": "AuctionSettled",
      "type": "event"
    },
    {
      "anonymous": false,
      "inputs": [
        {
          "indexed": true,
          "internalType": "address",
          "name": "beacon",
          "type": "address"
        }
      ],
      "name": "BeaconUpgraded",
      "type": "event"
    },
    {
      "anonymous": false,
      "inputs": [
        {
          "indexed": true,
          "internalType": "uint256",
          "name": "auctionId",
          "type": "uint256"
        },
        {
          "indexed": true,
          "internalType": "address",
          "name": "newBidder",
          "type": "address"
        },
        {
          "indexed": true,
          "internalType": "address",
          "name": "previousBidder",
          "type": "address"
        },
        {
          "indexed": false,
          "internalType": "uint256",
          "name": "bidAmount",
          "type": "uint256"
        },
        {
          "indexed": false,
          "internalType": "uint256",
          "name": "newEndTime",
          "type": "uint256"
        }
      ],
      "name": "BidPlaced",
      "type": "event"
    },
    {
      "anonymous": false,
      "inputs": [
        {
          "indexed": false,
          "internalType": "uint8",
          "name": "version",
          "type": "uint8"
        }
      ],
      "name": "Initialized",
      "type": "event"
    },
    {
      "anonymous": false,
      "inputs": [
        {
          "indexed": false,
          "internalType": "address",
          "name": "account",
          "type": "address"
        }
      ],
      "name": "Paused",
      "type": "event"
    },
    {
      "anonymous": false,
      "inputs": [
        {
          "indexed": true,
          "internalType": "bytes32",
          "name": "role",
          "type": "bytes32"
        },
        {
          "indexed": true,
          "internalType": "bytes32",
          "name": "previousAdminRole",
          "type": "bytes32"
        },
        {
          "indexed": true,
          "internalType": "bytes32",
          "name": "newAdminRole",
          "type": "bytes32"
        }
      ],
      "name": "RoleAdminChanged",
      "type": "event"
    },
    {
      "anonymous": false,
      "inputs": [
        {
          "indexed": true,
          "internalType": "bytes32",
          "name": "role",
          "type": "bytes32"
        },
        {
          "indexed": true,
          "internalType": "address",
          "name": "account",
          "type": "address"
        },
        {
          "indexed": true,
          "internalType": "address",
          "name": "sender",
          "type": "address"
        }
      ],
      "name": "RoleGranted",
      "type": "event"
    },
    {
      "anonymous": false,
      "inputs": [
        {
          "indexed": true,
          "internalType": "bytes32",
          "name": "role",
          "type": "bytes32"
        },
        {
          "indexed": true,
          "internalType": "address",
          "name": "account",
          "type": "address"
        },
        {
          "indexed": true,
          "internalType": "address",
          "name": "sender",
          "type": "address"
        }
      ],
      "name": "RoleRevoked",
      "type": "event"
    },
    {
      "anonymous": false,
      "inputs": [
        {
          "indexed": false,
          "internalType": "address",
          "name": "account",
          "type": "address"
        }
      ],
      "name": "Unpaused",
      "type": "event"
    },
    {
      "anonymous": false,
      "inputs": [
        {
          "indexed": true,
          "internalType": "address",
          "name": "implementation",
          "type": "address"
        }
      ],
      "name": "Upgraded",
      "type": "event"
    },
    {
      "inputs": [],
      "name": "DEFAULT_ADMIN_ROLE",
      "outputs": [
        {
          "internalType": "bytes32",
          "name": "",
          "type": "bytes32"
        }
      ],
      "stateMutability": "view",
      "type": "function"
    },
    {
      "inputs": [
        {
          "internalType": "uint256",
          "name": "",
          "type": "uint256"
        }
      ],
      "name": "auctions",
      "outputs": [
        {
          "internalType": "address",
          "name": "highestBidder",
          "type": "address"
        },
        {
          "internalType": "contract INFT",
          "name": "nftContract",
          "type": "address"
        },
        {
          "internalType": "uint32",
          "name": "startTime",
          "type": "uint32"
        },
        {
          "internalType": "uint32",
          "name": "endTime",
          "type": "uint32"
        },
        {
          "internalType": "bool",
          "name": "settled",
          "type": "bool"
        },
        {
          "internalType": "uint256",
          "name": "nftId",
          "type": "uint256"
        },
        {
          "internalType": "uint256",
          "name": "minimumPrice",
          "type": "uint256"
        },
        {
          "internalType": "uint256",
          "name": "highestBid",
          "type": "uint256"
        },
        {
          "internalType": "string",
          "name": "nftUri",
          "type": "string"
        }
      ],
      "stateMutability": "view",
      "type": "function"
    },
    {
      "inputs": [
        {
          "internalType": "uint256",
          "name": "_auctionId",
          "type": "uint256"
        },
        {
          "internalType": "uint256",
          "name": "_amount",
          "type": "uint256"
        }
      ],
      "name": "bid",
      "outputs": [],
      "stateMutability": "nonpayable",
      "type": "function"
    },
    {
      "inputs": [
        {
          "internalType": "uint256",
          "name": "_auctionId",
          "type": "uint256"
        }
      ],
      "name": "cancelAuction",
      "outputs": [],
      "stateMutability": "nonpayable",
      "type": "function"
    },
    {
      "inputs": [
        {
          "internalType": "uint256",
          "name": "_auctionId",
          "type": "uint256"
        },
        {
          "internalType": "uint256",
          "name": "_nftId",
          "type": "uint256"
        },
        {
          "internalType": "uint256",
          "name": "_minimumPrice",
          "type": "uint256"
        },
        {
          "internalType": "uint32",
          "name": "_startTime",
          "type": "uint32"
        },
        {
          "internalType": "uint32",
          "name": "_endTime",
          "type": "uint32"
        },
        {
          "internalType": "contract INFT",
          "name": "_nftContract",
          "type": "address"
        },
        {
          "internalType": "string",
          "name": "_nftUri",
          "type": "string"
        }
      ],
      "name": "createAuction",
      "outputs": [
        {
          "internalType": "uint256",
          "name": "auctionId",
          "type": "uint256"
        }
      ],
      "stateMutability": "nonpayable",
      "type": "function"
    },
    {
      "inputs": [],
      "name": "erc20",
      "outputs": [
        {
          "internalType": "contract IERC20",
          "name": "",
          "type": "address"
        }
      ],
      "stateMutability": "view",
      "type": "function"
    },
    {
      "inputs": [
        {
          "internalType": "uint256",
          "name": "_auctionId",
          "type": "uint256"
        }
      ],
      "name": "getAuction",
      "outputs": [
        {
          "components": [
            {
              "internalType": "address",
              "name": "highestBidder",
              "type": "address"
            },
            {
              "internalType": "contract INFT",
              "name": "nftContract",
              "type": "address"
            },
            {
              "internalType": "uint32",
              "name": "startTime",
              "type": "uint32"
            },
            {
              "internalType": "uint32",
              "name": "endTime",
              "type": "uint32"
            },
            {
              "internalType": "bool",
              "name": "settled",
              "type": "bool"
            },
            {
              "internalType": "uint256",
              "name": "nftId",
              "type": "uint256"
            },
            {
              "internalType": "uint256",
              "name": "minimumPrice",
              "type": "uint256"
            },
            {
              "internalType": "uint256",
              "name": "highestBid",
              "type": "uint256"
            },
            {
              "internalType": "string",
              "name": "nftUri",
              "type": "string"
            }
          ],
          "internalType": "struct Auction.AuctionInfo",
          "name": "",
          "type": "tuple"
        }
      ],
      "stateMutability": "view",
      "type": "function"
    },
    {
      "inputs": [],
      "name": "getBidIncrementPercentage",
      "outputs": [
        {
          "internalType": "uint256",
          "name": "",
          "type": "uint256"
        }
      ],
      "stateMutability": "view",
      "type": "function"
    },
    {
      "inputs": [],
      "name": "getDefaultTimeExtension",
      "outputs": [
        {
          "internalType": "uint256",
          "name": "",
          "type": "uint256"
        }
      ],
      "stateMutability": "view",
      "type": "function"
    },
    {
      "inputs": [
        {
          "internalType": "bytes32",
          "name": "role",
          "type": "bytes32"
        }
      ],
      "name": "getRoleAdmin",
      "outputs": [
        {
          "internalType": "bytes32",
          "name": "",
          "type": "bytes32"
        }
      ],
      "stateMutability": "view",
      "type": "function"
    },
    {
      "inputs": [
        {
          "internalType": "bytes32",
          "name": "role",
          "type": "bytes32"
        },
        {
          "internalType": "address",
          "name": "account",
          "type": "address"
        }
      ],
      "name": "grantRole",
      "outputs": [],
      "stateMutability": "nonpayable",
      "type": "function"
    },
    {
      "inputs": [
        {
          "internalType": "bytes32",
          "name": "role",
          "type": "bytes32"
        },
        {
          "internalType": "address",
          "name": "account",
          "type": "address"
        }
      ],
      "name": "hasRole",
      "outputs": [
        {
          "internalType": "bool",
          "name": "",
          "type": "bool"
        }
      ],
      "stateMutability": "view",
      "type": "function"
    },
    {
      "inputs": [
        {
          "internalType": "address",
          "name": "_admin",
          "type": "address"
        },
        {
          "internalType": "uint256",
          "name": "_defaultTimeExtension",
          "type": "uint256"
        },
        {
          "internalType": "uint256",
          "name": "_bidIncrementPercentage",
          "type": "uint256"
        },
        {
          "internalType": "address",
          "name": "_token",
          "type": "address"
        },
        {
          "internalType": "address",
          "name": "_storage",
          "type": "address"
        }
      ],
      "name": "initialize",
      "outputs": [],
      "stateMutability": "nonpayable",
      "type": "function"
    },
    {
      "inputs": [],
      "name": "pause",
      "outputs": [],
      "stateMutability": "nonpayable",
      "type": "function"
    },
    {
      "inputs": [],
      "name": "paused",
      "outputs": [
        {
          "internalType": "bool",
          "name": "",
          "type": "bool"
        }
      ],
      "stateMutability": "view",
      "type": "function"
    },
    {
      "inputs": [],
      "name": "proxiableUUID",
      "outputs": [
        {
          "internalType": "bytes32",
          "name": "",
          "type": "bytes32"
        }
      ],
      "stateMutability": "view",
      "type": "function"
    },
    {
      "inputs": [
        {
          "internalType": "bytes32",
          "name": "role",
          "type": "bytes32"
        },
        {
          "internalType": "address",
          "name": "account",
          "type": "address"
        }
      ],
      "name": "renounceRole",
      "outputs": [],
      "stateMutability": "nonpayable",
      "type": "function"
    },
    {
      "inputs": [
        {
          "internalType": "bytes32",
          "name": "role",
          "type": "bytes32"
        },
        {
          "internalType": "address",
          "name": "account",
          "type": "address"
        }
      ],
      "name": "revokeRole",
      "outputs": [],
      "stateMutability": "nonpayable",
      "type": "function"
    },
    {
      "inputs": [
        {
          "internalType": "uint16",
          "name": "_bidIncrementPercentage",
          "type": "uint16"
        }
      ],
      "name": "setBidIncrementPercentage",
      "outputs": [],
      "stateMutability": "nonpayable",
      "type": "function"
    },
    {
      "inputs": [
        {
          "internalType": "uint16",
          "name": "_timeExtension",
          "type": "uint16"
        }
      ],
      "name": "setDefaultTimeExtension",
      "outputs": [],
      "stateMutability": "nonpayable",
      "type": "function"
    },
    {
      "inputs": [
        {
          "internalType": "address",
          "name": "_token",
          "type": "address"
        }
      ],
      "name": "setToken",
      "outputs": [],
      "stateMutability": "nonpayable",
      "type": "function"
    },
    {
      "inputs": [
        {
          "internalType": "uint256",
          "name": "_auctionId",
          "type": "uint256"
        }
      ],
      "name": "settleAuction",
      "outputs": [],
      "stateMutability": "nonpayable",
      "type": "function"
    },
    {
      "inputs": [
        {
          "internalType": "bytes4",
          "name": "interfaceId",
          "type": "bytes4"
        }
      ],
      "name": "supportsInterface",
      "outputs": [
        {
          "internalType": "bool",
          "name": "",
          "type": "bool"
        }
      ],
      "stateMutability": "view",
      "type": "function"
    },
    {
      "inputs": [],
      "name": "unpause",
      "outputs": [],
      "stateMutability": "nonpayable",
      "type": "function"
    },
    {
      "inputs": [
        {
          "internalType": "uint256",
          "name": "_auctionId",
          "type": "uint256"
        },
        {
          "internalType": "uint256",
          "name": "_minimumPrice",
          "type": "uint256"
        },
        {
          "internalType": "uint32",
          "name": "_endTime",
          "type": "uint32"
        }
      ],
      "name": "updateAuction",
      "outputs": [],
      "stateMutability": "nonpayable",
      "type": "function"
    },
    {
      "inputs": [
        {
          "internalType": "address",
          "name": "newImplementation",
          "type": "address"
        }
      ],
      "name": "upgradeTo",
      "outputs": [],
      "stateMutability": "nonpayable",
      "type": "function"
    },
    {
      "inputs": [
        {
          "internalType": "address",
          "name": "newImplementation",
          "type": "address"
        },
        {
          "internalType": "bytes",
          "name": "data",
          "type": "bytes"
        }
      ],
      "name": "upgradeToAndCall",
      "outputs": [],
      "stateMutability": "payable",
      "type": "function"
    }
  ],
  "bytecode": "0x60a06040523060805234801561001457600080fd5b5060805161309861004c600039600081816109f501528181610a3501528181610b9601528181610bd60152610c6501526130986000f3fe60806040526004361061019c5760003560e01c8063598647f8116100ec57806391d148541161008a578063c3c675bc11610064578063c3c675bc1461049c578063d547741f146104bc578063d828abe1146104dc578063ff54a5ca146104fc57600080fd5b806391d148541461044757806396b5a75514610467578063a217fddf1461048757600080fd5b806378bd7935116100c657806378bd7935146103cf578063809d6172146103fc5780638456cb59146104125780638f8038421461042757600080fd5b8063598647f81461035e5780635c975abb1461037e578063785e9e861461039657600080fd5b806336568abe11610159578063481b13d211610133578063481b13d2146102eb5780634f1ef2861461030157806352d1902d14610314578063571a26a01461032957600080fd5b806336568abe146102965780633659cfe6146102b65780633f4ba83a146102d657600080fd5b806301ffc9a7146101a157806303b54d52146101d6578063144fa6d7146101f8578063248a9ca3146102185780632e993611146102565780632f2ff15d14610276575b600080fd5b3480156101ad57600080fd5b506101c16101bc366004612706565b61051c565b60405190151581526020015b60405180910390f35b3480156101e257600080fd5b506101f66101f1366004612745565b610553565b005b34801561020457600080fd5b506101f66102133660046127a4565b610626565b34801561022457600080fd5b506102486102333660046127c1565b60009081526065602052604090206001015490565b6040519081526020016101cd565b34801561026257600080fd5b506101f66102713660046127c1565b61070a565b34801561028257600080fd5b506101f66102913660046127da565b610943565b3480156102a257600080fd5b506101f66102b13660046127da565b61096d565b3480156102c257600080fd5b506101f66102d13660046127a4565b6109eb565b3480156102e257600080fd5b506101f6610aca565b3480156102f757600080fd5b5061016354610248565b6101f661030f366004612896565b610b8c565b34801561032057600080fd5b50610248610c58565b34801561033557600080fd5b506103496103443660046127c1565b610d0b565b6040516101cd99989796959493929190612952565b34801561036a57600080fd5b506101f66103793660046129c1565b610dff565b34801561038a57600080fd5b5060fb5460ff166101c1565b3480156103a257600080fd5b5061015f546103b7906001600160a01b031681565b6040516001600160a01b0390911681526020016101cd565b3480156103db57600080fd5b506103ef6103ea3660046127c1565b61124f565b6040516101cd91906129e3565b34801561040857600080fd5b5061016254610248565b34801561041e57600080fd5b506101f66113ec565b34801561043357600080fd5b506101f6610442366004612aa7565b6114ac565b34801561045357600080fd5b506101c16104623660046127da565b61163d565b34801561047357600080fd5b506101f66104823660046127c1565b611668565b34801561049357600080fd5b50610248600081565b3480156104a857600080fd5b506101f66104b7366004612adc565b61188d565b3480156104c857600080fd5b506101f66104d73660046127da565b61194f565b3480156104e857600080fd5b506102486104f7366004612b00565b611974565b34801561050857600080fd5b506101f6610517366004612adc565b611c55565b60006001600160e01b03198216637965db0b60e01b148061054d57506301ffc9a760e01b6001600160e01b03198316145b92915050565b600061055f6001611d17565b90508015610577576000805461ff0019166101001790555b61057f611da4565b610587611dcb565b61058f611da4565b61059a600087611dfa565b61016285905561016384905561015f80546001600160a01b038086166001600160a01b031992831617909255610160805492851692909116919091179055801561061e576000805461ff0019169055604051600181527f7f26b83ff96e1f2b6a682f133852f6798a09c465da95921460cefb38474024989060200160405180910390a15b505050505050565b610160546040516001600160a01b0390911690637ae1cfca9061064d903390602001612ba2565b604051602081830303815290604052805190602001206040518263ffffffff1660e01b815260040161068191815260200190565b602060405180830381865afa15801561069e573d6000803e3d6000fd5b505050506040513d601f19601f820116820180604052508101906106c29190612bd2565b6106e75760405162461bcd60e51b81526004016106de90612bf4565b60405180910390fd5b61015f80546001600160a01b0319166001600160a01b0392909216919091179055565b60fb5460ff161561072d5760405162461bcd60e51b81526004016106de90612c1e565b6000818152610161602052604090206001810154600160e01b900460ff16156107685760405162461bcd60e51b81526004016106de90612c48565b6004810154815460018301546001600160a01b0390911690600160c01b900463ffffffff16801580159061079b57508042115b6107e75760405162461bcd60e51b815260206004820152601860248201527f41756374696f6e206973207374696c6c2072756e6e696e67000000000000000060448201526064016106de565b60018401805460ff60e01b1916600160e01b1790556001600160a01b038216156108f85760018401546002850154604051633349e71f60e21b81526001600160a01b039092169163cd279c7c916108489186919060058a0190600401612cb9565b600060405180830381600087803b15801561086257600080fd5b505af1158015610876573d6000803e3d6000fd5b505061015f54600187015460405163a9059cbb60e01b81526001600160a01b039182166004820152602481018890529116925063a9059cbb91506044016020604051808303816000875af11580156108d2573d6000803e3d6000fd5b505050506040513d601f19601f820116820180604052508101906108f69190612bd2565b505b816001600160a01b0316857fc9f72b276a388619c6d185d146697036241880c36654b1a3ffdad07c24038d998560405161093491815260200190565b60405180910390a35050505050565b60008281526065602052604090206001015461095e81611e80565b6109688383611dfa565b505050565b6001600160a01b03811633146109dd5760405162461bcd60e51b815260206004820152602f60248201527f416363657373436f6e74726f6c3a2063616e206f6e6c792072656e6f756e636560448201526e103937b632b9903337b91039b2b63360891b60648201526084016106de565b6109e78282611e8a565b5050565b6001600160a01b037f0000000000000000000000000000000000000000000000000000000000000000163003610a335760405162461bcd60e51b81526004016106de90612d7a565b7f00000000000000000000000000000000000000000000000000000000000000006001600160a01b0316610a7c60008051602061301c833981519152546001600160a01b031690565b6001600160a01b031614610aa25760405162461bcd60e51b81526004016106de90612dc6565b610aab81611ef1565b60408051600080825260208201909252610ac791839190611fa9565b50565b610160546040516001600160a01b0390911690637ae1cfca90610af1903390602001612ba2565b604051602081830303815290604052805190602001206040518263ffffffff1660e01b8152600401610b2591815260200190565b602060405180830381865afa158015610b42573d6000803e3d6000fd5b505050506040513d601f19601f82011682018060405250810190610b669190612bd2565b610b825760405162461bcd60e51b81526004016106de90612bf4565b610b8a612114565b565b6001600160a01b037f0000000000000000000000000000000000000000000000000000000000000000163003610bd45760405162461bcd60e51b81526004016106de90612d7a565b7f00000000000000000000000000000000000000000000000000000000000000006001600160a01b0316610c1d60008051602061301c833981519152546001600160a01b031690565b6001600160a01b031614610c435760405162461bcd60e51b81526004016106de90612dc6565b610c4c82611ef1565b6109e782826001611fa9565b6000306001600160a01b037f00000000000000000000000000000000000000000000000000000000000000001614610cf85760405162461bcd60e51b815260206004820152603860248201527f555550535570677261646561626c653a206d757374206e6f742062652063616c60448201527f6c6564207468726f7567682064656c656761746563616c6c000000000000000060648201526084016106de565b5060008051602061301c83398151915290565b610161602052600090815260409020805460018201546002830154600384015460048501546005860180546001600160a01b039687169796861696600160a01b870463ffffffff90811697600160c01b810490911696600160e01b90910460ff1695909490939092610d7c90612c7f565b80601f0160208091040260200160405190810160405280929190818152602001828054610da890612c7f565b8015610df55780601f10610dca57610100808354040283529160200191610df5565b820191906000526020600020905b815481529060010190602001808311610dd857829003601f168201915b5050505050905089565b600261012d5403610e525760405162461bcd60e51b815260206004820152601f60248201527f5265656e7472616e637947756172643a207265656e7472616e742063616c6c0060448201526064016106de565b600261012d5560fb5460ff1615610e7b5760405162461bcd60e51b81526004016106de90612c1e565b600082815261016160205260409020600181015463ffffffff600160c01b8204811691600160a01b9004164281811015610eef5760405162461bcd60e51b815260206004820152601560248201527441756374696f6e206e6f7420617661696c61626c6560581b60448201526064016106de565b821580610efb57508083115b610f3b5760405162461bcd60e51b8152602060048201526011602482015270105d58dd1a5bdb881a185cc8195b991959607a1b60448201526064016106de565b6001840154600160e01b900460ff1615610f675760405162461bcd60e51b81526004016106de90612c48565b600085118015610f7b575083600301548510155b610fc75760405162461bcd60e51b815260206004820152601960248201527f426964206973206c6f776572207468616e206d696e696d756d0000000000000060448201526064016106de565b61271061016354612710610fdb9190612e28565b8560040154610fea9190612e40565b610ff49190612e5f565b8510156110535760405162461bcd60e51b815260206004820152602760248201527f426964206973206c6f776572207468616e20686967686573742062696420696e60448201526618dc995b595b9d60ca1b60648201526084016106de565b61015f546040516323b872dd60e01b8152336004820152306024820152604481018790526001600160a01b03909116906323b872dd906064016020604051808303816000875af11580156110ab573d6000803e3d6000fd5b505050506040513d601f19601f820116820180604052508101906110cf9190612bd2565b5083546004850180546001600160a01b0319831633178755908790556001600160a01b039091169081156111775761015f5460405163a9059cbb60e01b81526001600160a01b038481166004830152602482018490529091169063a9059cbb906044016020604051808303816000875af1158015611151573d6000803e3d6000fd5b505050506040513d601f19601f820116820180604052508101906111759190612bd2565b505b6101625460008690036111b8576111916201518085612e28565b8760010160186101000a81548163ffffffff021916908363ffffffff1602179055506111f6565b806111c38588612e81565b10156111f6576111d38185612e28565b60018801805463ffffffff60c01b1916600160c01b63ffffffff84160217905595505b60408051898152602081018890526001600160a01b0385169133918c917f2808decb743a25d04efe1bd3dc192acde3be644e2f6ad1dce5d3c46643e1c602910160405180910390a45050600161012d5550505050505050565b6112be60405180610120016040528060006001600160a01b0316815260200160006001600160a01b03168152602001600063ffffffff168152602001600063ffffffff168152602001600015158152602001600081526020016000815260200160008152602001606081525090565b6000828152610161602090815260409182902082516101208101845281546001600160a01b039081168252600183015490811693820193909352600160a01b830463ffffffff90811694820194909452600160c01b83049093166060840152600160e01b90910460ff1615156080830152600281015460a0830152600381015460c0830152600481015460e08301526005810180546101008401919061136390612c7f565b80601f016020809104026020016040519081016040528092919081815260200182805461138f90612c7f565b80156113dc5780601f106113b1576101008083540402835291602001916113dc565b820191906000526020600020905b8154815290600101906020018083116113bf57829003601f168201915b5050505050815250509050919050565b610160546040516001600160a01b0390911690637ae1cfca90611413903390602001612ba2565b604051602081830303815290604052805190602001206040518263ffffffff1660e01b815260040161144791815260200190565b602060405180830381865afa158015611464573d6000803e3d6000fd5b505050506040513d601f19601f820116820180604052508101906114889190612bd2565b6114a45760405162461bcd60e51b81526004016106de90612bf4565b610b8a6121a7565b610160546040516001600160a01b0390911690637ae1cfca906114d3903390602001612ba2565b604051602081830303815290604052805190602001206040518263ffffffff1660e01b815260040161150791815260200190565b602060405180830381865afa158015611524573d6000803e3d6000fd5b505050506040513d601f19601f820116820180604052508101906115489190612bd2565b6115645760405162461bcd60e51b81526004016106de90612bf4565b60008381526101616020526040902060010154600160e01b900460ff161561159e5760405162461bcd60e51b81526004016106de90612c48565b60008381526101616020526040902060010154600160c01b900463ffffffff166115fe5760405162461bcd60e51b8152602060048201526011602482015270105d58dd1a5bdb881b9bdd08199bdd5b99607a1b60448201526064016106de565b600092835261016160205260409092206003810191909155600101805463ffffffff909216600160c01b0263ffffffff60c01b19909216919091179055565b60009182526065602090815260408084206001600160a01b0393909316845291905290205460ff1690565b610160546040516001600160a01b0390911690637ae1cfca9061168f903390602001612ba2565b604051602081830303815290604052805190602001206040518263ffffffff1660e01b81526004016116c391815260200190565b602060405180830381865afa1580156116e0573d6000803e3d6000fd5b505050506040513d601f19601f820116820180604052508101906117049190612bd2565b6117205760405162461bcd60e51b81526004016106de90612bf4565b6000818152610161602052604090206001810154600160e01b900460ff161561178b5760405162461bcd60e51b815260206004820152601b60248201527f41756374696f6e20697320616c72656164792066696e6973686564000000000060448201526064016106de565b80546004820180546001600160a01b03198316845560009091556001600160a01b039091169081156118315761015f5460405163a9059cbb60e01b81526001600160a01b038481166004830152602482018490529091169063a9059cbb906044016020604051808303816000875af115801561180b573d6000803e3d6000fd5b505050506040513d601f19601f8201168201806040525081019061182f9190612bd2565b505b60008481526101616020526040808220600101805460ff60e01b1916600160e01b179055516001600160a01b0384169186917f10ac9f0bb365b5d22d7bec500408692f23fdf83eadfec71615ef88b4c1134f0e9190a350505050565b610160546040516001600160a01b0390911690637ae1cfca906118b4903390602001612ba2565b604051602081830303815290604052805190602001206040518263ffffffff1660e01b81526004016118e891815260200190565b602060405180830381865afa158015611905573d6000803e3d6000fd5b505050506040513d601f19601f820116820180604052508101906119299190612bd2565b6119455760405162461bcd60e51b81526004016106de90612bf4565b61ffff1661016355565b60008281526065602052604090206001015461196a81611e80565b6109688383611e8a565b610160546040516000916001600160a01b031690637ae1cfca9061199c903390602001612ba2565b604051602081830303815290604052805190602001206040518263ffffffff1660e01b81526004016119d091815260200190565b602060405180830381865afa1580156119ed573d6000803e3d6000fd5b505050506040513d601f19601f82011682018060405250810190611a119190612bd2565b611a2d5760405162461bcd60e51b81526004016106de90612bf4565b63ffffffff84161580611a4b57508463ffffffff168463ffffffff16115b611a8e5760405162461bcd60e51b8152602060048201526014602482015273496e76616c69642061756374696f6e2074696d6560601b60448201526064016106de565b600060405180610120016040528060006001600160a01b03168152602001856001600160a01b031681526020018763ffffffff1681526020018663ffffffff168152602001600015158152602001898152602001888152602001600081526020018481525090508061016160008b815260200190815260200160002060008201518160000160006101000a8154816001600160a01b0302191690836001600160a01b0316021790555060208201518160010160006101000a8154816001600160a01b0302191690836001600160a01b0316021790555060408201518160010160146101000a81548163ffffffff021916908363ffffffff16021790555060608201518160010160186101000a81548163ffffffff021916908363ffffffff160217905550608082015181600101601c6101000a81548160ff02191690831515021790555060a0820151816002015560c0820151816003015560e08201518160040155610100820151816005019080519060200190611c0d92919061266d565b5050604080518b8152602081018b90527fe00a2da3a0f34a566402a244ab7ec63f8ab7472591cb18edf3269aa00461a41092500160405180910390a150979650505050505050565b610160546040516001600160a01b0390911690637ae1cfca90611c7c903390602001612ba2565b604051602081830303815290604052805190602001206040518263ffffffff1660e01b8152600401611cb091815260200190565b602060405180830381865afa158015611ccd573d6000803e3d6000fd5b505050506040513d601f19601f82011682018060405250810190611cf19190612bd2565b611d0d5760405162461bcd60e51b81526004016106de90612bf4565b61ffff1661016255565b60008054610100900460ff1615611d5e578160ff166001148015611d3a5750303b155b611d565760405162461bcd60e51b81526004016106de90612e98565b506000919050565b60005460ff808416911610611d855760405162461bcd60e51b81526004016106de90612e98565b506000805460ff191660ff92909216919091179055600190565b919050565b600054610100900460ff16610b8a5760405162461bcd60e51b81526004016106de90612ee6565b600054610100900460ff16611df25760405162461bcd60e51b81526004016106de90612ee6565b610b8a6121ff565b611e04828261163d565b6109e75760008281526065602090815260408083206001600160a01b03851684529091529020805460ff19166001179055611e3c3390565b6001600160a01b0316816001600160a01b0316837f2f8788117e7eff1d82e926ec794901d17c78024a50270940304540a733656f0d60405160405180910390a45050565b610ac78133612232565b611e94828261163d565b156109e75760008281526065602090815260408083206001600160a01b0385168085529252808320805460ff1916905551339285917ff6391f5c32d9c69d2a47ea670b442974b53935d1edc7fd64eb21e047a839171b9190a45050565b610160546040516001600160a01b0390911690637ae1cfca90611f18903390602001612ba2565b604051602081830303815290604052805190602001206040518263ffffffff1660e01b8152600401611f4c91815260200190565b602060405180830381865afa158015611f69573d6000803e3d6000fd5b505050506040513d601f19601f82011682018060405250810190611f8d9190612bd2565b610ac75760405162461bcd60e51b81526004016106de90612bf4565b7f4910fdfa16fed3260ed0e7147f7cc6da11a60208b5b9406d12a635614ffd91435460ff1615611fdc5761096883612296565b826001600160a01b03166352d1902d6040518163ffffffff1660e01b8152600401602060405180830381865afa925050508015612036575060408051601f3d908101601f1916820190925261203391810190612f31565b60015b6120995760405162461bcd60e51b815260206004820152602e60248201527f45524331393637557067726164653a206e657720696d706c656d656e7461746960448201526d6f6e206973206e6f74205555505360901b60648201526084016106de565b60008051602061301c83398151915281146121085760405162461bcd60e51b815260206004820152602960248201527f45524331393637557067726164653a20756e737570706f727465642070726f786044820152681a58589b195555525160ba1b60648201526084016106de565b50610968838383612332565b60fb5460ff1661215d5760405162461bcd60e51b815260206004820152601460248201527314185d5cd8589b194e881b9bdd081c185d5cd95960621b60448201526064016106de565b60fb805460ff191690557f5db9ee0a495bf2e6ff9c91a7834c1ba4fdd244a5e8aa4e537bd38aeae4b073aa335b6040516001600160a01b03909116815260200160405180910390a1565b60fb5460ff16156121ca5760405162461bcd60e51b81526004016106de90612c1e565b60fb805460ff191660011790557f62e78cea01bee320cd4e420270b5ea74000d11b0c9f74754ebdbfc544b05a25861218a3390565b600054610100900460ff166122265760405162461bcd60e51b81526004016106de90612ee6565b60fb805460ff19169055565b61223c828261163d565b6109e757612254816001600160a01b0316601461235d565b61225f83602061235d565b604051602001612270929190612f4a565b60408051601f198184030181529082905262461bcd60e51b82526106de91600401612fbf565b6001600160a01b0381163b6123035760405162461bcd60e51b815260206004820152602d60248201527f455243313936373a206e657720696d706c656d656e746174696f6e206973206e60448201526c1bdd08184818dbdb9d1c9858dd609a1b60648201526084016106de565b60008051602061301c83398151915280546001600160a01b0319166001600160a01b0392909216919091179055565b61233b83612500565b6000825111806123485750805b15610968576123578383612540565b50505050565b6060600061236c836002612e40565b612377906002612e28565b67ffffffffffffffff81111561238f5761238f61280a565b6040519080825280601f01601f1916602001820160405280156123b9576020820181803683370190505b509050600360fc1b816000815181106123d4576123d4612fd2565b60200101906001600160f81b031916908160001a905350600f60fb1b8160018151811061240357612403612fd2565b60200101906001600160f81b031916908160001a9053506000612427846002612e40565b612432906001612e28565b90505b60018111156124aa576f181899199a1a9b1b9c1cb0b131b232b360811b85600f166010811061246657612466612fd2565b1a60f81b82828151811061247c5761247c612fd2565b60200101906001600160f81b031916908160001a90535060049490941c936124a381612fe8565b9050612435565b5083156124f95760405162461bcd60e51b815260206004820181905260248201527f537472696e67733a20686578206c656e67746820696e73756666696369656e7460448201526064016106de565b9392505050565b61250981612296565b6040516001600160a01b038216907fbc7cd75a20ee27fd9adebab32041f755214dbc6bffa90cc0225b39da2e5c2d3b90600090a250565b60606001600160a01b0383163b6125a85760405162461bcd60e51b815260206004820152602660248201527f416464726573733a2064656c65676174652063616c6c20746f206e6f6e2d636f6044820152651b9d1c9858dd60d21b60648201526084016106de565b600080846001600160a01b0316846040516125c39190612fff565b600060405180830381855af49150503d80600081146125fe576040519150601f19603f3d011682016040523d82523d6000602084013e612603565b606091505b509150915061262b828260405180606001604052806027815260200161303c60279139612634565b95945050505050565b606083156126435750816124f9565b8251156126535782518084602001fd5b8160405162461bcd60e51b81526004016106de9190612fbf565b82805461267990612c7f565b90600052602060002090601f01602090048101928261269b57600085556126e1565b82601f106126b457805160ff19168380011785556126e1565b828001600101855582156126e1579182015b828111156126e15782518255916020019190600101906126c6565b506126ed9291506126f1565b5090565b5b808211156126ed57600081556001016126f2565b60006020828403121561271857600080fd5b81356001600160e01b0319811681146124f957600080fd5b6001600160a01b0381168114610ac757600080fd5b600080600080600060a0868803121561275d57600080fd5b853561276881612730565b94506020860135935060408601359250606086013561278681612730565b9150608086013561279681612730565b809150509295509295909350565b6000602082840312156127b657600080fd5b81356124f981612730565b6000602082840312156127d357600080fd5b5035919050565b600080604083850312156127ed57600080fd5b8235915060208301356127ff81612730565b809150509250929050565b634e487b7160e01b600052604160045260246000fd5b600067ffffffffffffffff8084111561283b5761283b61280a565b604051601f8501601f19908116603f011681019082821181831017156128635761286361280a565b8160405280935085815286868601111561287c57600080fd5b858560208301376000602087830101525050509392505050565b600080604083850312156128a957600080fd5b82356128b481612730565b9150602083013567ffffffffffffffff8111156128d057600080fd5b8301601f810185136128e157600080fd5b6128f085823560208401612820565b9150509250929050565b60005b838110156129155781810151838201526020016128fd565b838111156123575750506000910152565b6000815180845261293e8160208601602086016128fa565b601f01601f19169290920160200192915050565b6001600160a01b038a811682528916602082015263ffffffff888116604083015287166060820152851515608082015260a0810185905260c0810184905260e0810183905261012061010082018190526000906129b183820185612926565b9c9b505050505050505050505050565b600080604083850312156129d457600080fd5b50508035926020909101359150565b602081526129fd6020820183516001600160a01b03169052565b60006020830151612a1960408401826001600160a01b03169052565b50604083015163ffffffff8116606084015250606083015163ffffffff8116608084015250608083015180151560a08401525060a083015160c083015260c083015160e083015260e0830151610100818185015280850151915050610120808185015250612a8b610140840182612926565b949350505050565b803563ffffffff81168114611d9f57600080fd5b600080600060608486031215612abc57600080fd5b8335925060208401359150612ad360408501612a93565b90509250925092565b600060208284031215612aee57600080fd5b813561ffff811681146124f957600080fd5b600080600080600080600060e0888a031215612b1b57600080fd5b873596506020880135955060408801359450612b3960608901612a93565b9350612b4760808901612a93565b925060a0880135612b5781612730565b915060c088013567ffffffffffffffff811115612b7357600080fd5b8801601f81018a13612b8457600080fd5b612b938a823560208401612820565b91505092959891949750929550565b693937b6329730b236b4b760b11b815260609190911b6bffffffffffffffffffffffff1916600a820152601e0190565b600060208284031215612be457600080fd5b815180151581146124f957600080fd5b60208082526010908201526f41646d696e2063616c6c73206f6e6c7960801b604082015260600190565b60208082526010908201526f14185d5cd8589b194e881c185d5cd95960821b604082015260600190565b60208082526017908201527f41756374696f6e20616c726561647920736574746c6564000000000000000000604082015260600190565b600181811c90821680612c9357607f821691505b602082108103612cb357634e487b7160e01b600052602260045260246000fd5b50919050565b6001600160a01b03841681526020808201849052606060408301528254600091908290600181811c9082811680612cf157607f831692505b8583108103612d0e57634e487b7160e01b85526022600452602485fd5b6060880183905260808801818015612d2d5760018114612d3e57612d69565b60ff19861682528782019650612d69565b60008b81526020902060005b86811015612d6357815484820152908501908901612d4a565b83019750505b50949b9a5050505050505050505050565b6020808252602c908201527f46756e6374696f6e206d7573742062652063616c6c6564207468726f7567682060408201526b19195b1959d85d1958d85b1b60a21b606082015260800190565b6020808252602c908201527f46756e6374696f6e206d7573742062652063616c6c6564207468726f7567682060408201526b6163746976652070726f787960a01b606082015260800190565b634e487b7160e01b600052601160045260246000fd5b60008219821115612e3b57612e3b612e12565b500190565b6000816000190483118215151615612e5a57612e5a612e12565b500290565b600082612e7c57634e487b7160e01b600052601260045260246000fd5b500490565b600082821015612e9357612e93612e12565b500390565b6020808252602e908201527f496e697469616c697a61626c653a20636f6e747261637420697320616c72656160408201526d191e481a5b9a5d1a585b1a5e995960921b606082015260800190565b6020808252602b908201527f496e697469616c697a61626c653a20636f6e7472616374206973206e6f74206960408201526a6e697469616c697a696e6760a81b606082015260800190565b600060208284031215612f4357600080fd5b5051919050565b7f416363657373436f6e74726f6c3a206163636f756e7420000000000000000000815260008351612f828160178501602088016128fa565b7001034b99036b4b9b9b4b733903937b6329607d1b6017918401918201528351612fb38160288401602088016128fa565b01602801949350505050565b6020815260006124f96020830184612926565b634e487b7160e01b600052603260045260246000fd5b600081612ff757612ff7612e12565b506000190190565b600082516130118184602087016128fa565b919091019291505056fe360894a13ba1a3210667c828492db98dca3e2076cc3735a920a3ca505d382bbc416464726573733a206c6f772d6c6576656c2064656c65676174652063616c6c206661696c6564a264697066735822122073a93eacffb32b96700e9a2c4a65efa2b1a36462662aa3ba8a2a996a31a1e42364736f6c634300080e0033",
  "linkReferences": {},
  "deployedLinkReferences": {}
}