{
  "_format": "hh-sol-artifact-1",
  "contractName": "Auction",
  "sourceName": "contracts/Auction/Auction.sol",
  "abi": [
    {
      "inputs": [],
      "stateMutability": "nonpayable",
      "type": "constructor"
    },
    {
      "anonymous": false,
      "inputs": [
        {
          "indexed": false,
          "internalType": "address",
          "name": "previousAdmin",
          "type": "address"
        },
        {
          "indexed": false,
          "internalType": "address",
          "name": "newAdmin",
          "type": "address"
        }
      ],
      "name": "AdminChanged",
      "type": "event"
    },
    {
      "anonymous": false,
      "inputs": [
        {
          "indexed": true,
          "internalType": "uint256",
          "name": "auctionId",
          "type": "uint256"
        },
        {
          "indexed": true,
          "internalType": "address",
          "name": "previousBidder",
          "type": "address"
        }
      ],
      "name": "AuctionCancelled",
      "type": "event"
    },
    {
      "anonymous": false,
      "inputs": [
        {
          "indexed": false,
          "internalType": "uint256",
          "name": "auctionId",
          "type": "uint256"
        },
        {
          "indexed": false,
          "internalType": "address",
          "name": "nftContract",
          "type": "address"
        }
      ],
      "name": "AuctionCreated",
      "type": "event"
    },
    {
      "anonymous": false,
      "inputs": [
        {
          "indexed": true,
          "internalType": "uint256",
          "name": "auctionId",
          "type": "uint256"
        },
        {
          "indexed": true,
          "internalType": "address",
          "name": "highestBidder",
          "type": "address"
        },
        {
          "indexed": false,
          "internalType": "uint256",
          "name": "highestBid",
          "type": "uint256"
        }
      ],
      "name": "AuctionSettled",
      "type": "event"
    },
    {
      "anonymous": false,
      "inputs": [
        {
          "indexed": true,
          "internalType": "address",
          "name": "beacon",
          "type": "address"
        }
      ],
      "name": "BeaconUpgraded",
      "type": "event"
    },
    {
      "anonymous": false,
      "inputs": [
        {
          "indexed": true,
          "internalType": "uint256",
          "name": "auctionId",
          "type": "uint256"
        },
        {
          "indexed": true,
          "internalType": "address",
          "name": "newBidder",
          "type": "address"
        },
        {
          "indexed": true,
          "internalType": "address",
          "name": "previousBidder",
          "type": "address"
        },
        {
          "indexed": false,
          "internalType": "uint256",
          "name": "bidAmount",
          "type": "uint256"
        },
        {
          "indexed": false,
          "internalType": "uint256",
          "name": "newEndTime",
          "type": "uint256"
        }
      ],
      "name": "BidPlaced",
      "type": "event"
    },
    {
      "anonymous": false,
      "inputs": [
        {
          "indexed": false,
          "internalType": "uint8",
          "name": "version",
          "type": "uint8"
        }
      ],
      "name": "Initialized",
      "type": "event"
    },
    {
      "anonymous": false,
      "inputs": [
        {
          "indexed": false,
          "internalType": "address",
          "name": "account",
          "type": "address"
        }
      ],
      "name": "Paused",
      "type": "event"
    },
    {
      "anonymous": false,
      "inputs": [
        {
          "indexed": false,
          "internalType": "address",
          "name": "account",
          "type": "address"
        }
      ],
      "name": "Unpaused",
      "type": "event"
    },
    {
      "anonymous": false,
      "inputs": [
        {
          "indexed": true,
          "internalType": "address",
          "name": "implementation",
          "type": "address"
        }
      ],
      "name": "Upgraded",
      "type": "event"
    },
    {
      "inputs": [],
      "name": "DEFAULT_EXTENSION",
      "outputs": [
        {
          "internalType": "uint256",
          "name": "",
          "type": "uint256"
        }
      ],
      "stateMutability": "view",
      "type": "function"
    },
    {
      "inputs": [
        {
          "internalType": "uint256",
          "name": "",
          "type": "uint256"
        }
      ],
      "name": "auctions",
      "outputs": [
        {
          "internalType": "address",
          "name": "highestBidder",
          "type": "address"
        },
        {
          "internalType": "contract INFT",
          "name": "nftContract",
          "type": "address"
        },
        {
          "internalType": "uint32",
          "name": "startTime",
          "type": "uint32"
        },
        {
          "internalType": "uint32",
          "name": "endTime",
          "type": "uint32"
        },
        {
          "internalType": "uint32",
          "name": "duration",
          "type": "uint32"
        },
        {
          "internalType": "bool",
          "name": "settled",
          "type": "bool"
        },
        {
          "internalType": "uint256",
          "name": "minimumPrice",
          "type": "uint256"
        },
        {
          "internalType": "uint256",
          "name": "highestBid",
          "type": "uint256"
        },
        {
          "internalType": "uint256",
          "name": "auctionId",
          "type": "uint256"
        },
        {
          "internalType": "string",
          "name": "nftUri",
          "type": "string"
        }
      ],
      "stateMutability": "view",
      "type": "function"
    },
    {
      "inputs": [
        {
          "internalType": "uint256",
          "name": "_auctionId",
          "type": "uint256"
        },
        {
          "internalType": "uint256",
          "name": "_amount",
          "type": "uint256"
        }
      ],
      "name": "bid",
      "outputs": [],
      "stateMutability": "nonpayable",
      "type": "function"
    },
    {
      "inputs": [
        {
          "internalType": "uint256",
          "name": "_auctionId",
          "type": "uint256"
        }
      ],
      "name": "cancelAuction",
      "outputs": [],
      "stateMutability": "nonpayable",
      "type": "function"
    },
    {
      "inputs": [
        {
          "components": [
            {
              "internalType": "address",
              "name": "highestBidder",
              "type": "address"
            },
            {
              "internalType": "contract INFT",
              "name": "nftContract",
              "type": "address"
            },
            {
              "internalType": "uint32",
              "name": "startTime",
              "type": "uint32"
            },
            {
              "internalType": "uint32",
              "name": "endTime",
              "type": "uint32"
            },
            {
              "internalType": "uint32",
              "name": "duration",
              "type": "uint32"
            },
            {
              "internalType": "bool",
              "name": "settled",
              "type": "bool"
            },
            {
              "internalType": "uint256",
              "name": "minimumPrice",
              "type": "uint256"
            },
            {
              "internalType": "uint256",
              "name": "highestBid",
              "type": "uint256"
            },
            {
              "internalType": "uint256",
              "name": "auctionId",
              "type": "uint256"
            },
            {
              "internalType": "string",
              "name": "nftUri",
              "type": "string"
            }
          ],
          "internalType": "struct Auction.AuctionInfo",
          "name": "_auctionInfo",
          "type": "tuple"
        }
      ],
      "name": "createAuction",
      "outputs": [],
      "stateMutability": "nonpayable",
      "type": "function"
    },
    {
      "inputs": [
        {
          "components": [
            {
              "internalType": "address",
              "name": "highestBidder",
              "type": "address"
            },
            {
              "internalType": "contract INFT",
              "name": "nftContract",
              "type": "address"
            },
            {
              "internalType": "uint32",
              "name": "startTime",
              "type": "uint32"
            },
            {
              "internalType": "uint32",
              "name": "endTime",
              "type": "uint32"
            },
            {
              "internalType": "uint32",
              "name": "duration",
              "type": "uint32"
            },
            {
              "internalType": "bool",
              "name": "settled",
              "type": "bool"
            },
            {
              "internalType": "uint256",
              "name": "minimumPrice",
              "type": "uint256"
            },
            {
              "internalType": "uint256",
              "name": "highestBid",
              "type": "uint256"
            },
            {
              "internalType": "uint256",
              "name": "auctionId",
              "type": "uint256"
            },
            {
              "internalType": "string",
              "name": "nftUri",
              "type": "string"
            }
          ],
          "internalType": "struct Auction.AuctionInfo[]",
          "name": "_auctions",
          "type": "tuple[]"
        }
      ],
      "name": "createAuctionBatch",
      "outputs": [],
      "stateMutability": "nonpayable",
      "type": "function"
    },
    {
      "inputs": [],
      "name": "erc20",
      "outputs": [
        {
          "internalType": "contract IERC20",
          "name": "",
          "type": "address"
        }
      ],
      "stateMutability": "view",
      "type": "function"
    },
    {
      "inputs": [
        {
          "internalType": "uint256",
          "name": "_auctionId",
          "type": "uint256"
        }
      ],
      "name": "getAuction",
      "outputs": [
        {
          "components": [
            {
              "internalType": "address",
              "name": "highestBidder",
              "type": "address"
            },
            {
              "internalType": "contract INFT",
              "name": "nftContract",
              "type": "address"
            },
            {
              "internalType": "uint32",
              "name": "startTime",
              "type": "uint32"
            },
            {
              "internalType": "uint32",
              "name": "endTime",
              "type": "uint32"
            },
            {
              "internalType": "uint32",
              "name": "duration",
              "type": "uint32"
            },
            {
              "internalType": "bool",
              "name": "settled",
              "type": "bool"
            },
            {
              "internalType": "uint256",
              "name": "minimumPrice",
              "type": "uint256"
            },
            {
              "internalType": "uint256",
              "name": "highestBid",
              "type": "uint256"
            },
            {
              "internalType": "uint256",
              "name": "auctionId",
              "type": "uint256"
            },
            {
              "internalType": "string",
              "name": "nftUri",
              "type": "string"
            }
          ],
          "internalType": "struct Auction.AuctionInfo",
          "name": "",
          "type": "tuple"
        }
      ],
      "stateMutability": "view",
      "type": "function"
    },
    {
      "inputs": [],
      "name": "getBidIncrementPercentage",
      "outputs": [
        {
          "internalType": "uint256",
          "name": "",
          "type": "uint256"
        }
      ],
      "stateMutability": "pure",
      "type": "function"
    },
    {
      "inputs": [
        {
          "internalType": "address",
          "name": "_token",
          "type": "address"
        },
        {
          "internalType": "address",
          "name": "_storage",
          "type": "address"
        }
      ],
      "name": "initialize",
      "outputs": [],
      "stateMutability": "nonpayable",
      "type": "function"
    },
    {
      "inputs": [],
      "name": "pause",
      "outputs": [],
      "stateMutability": "nonpayable",
      "type": "function"
    },
    {
      "inputs": [],
      "name": "paused",
      "outputs": [
        {
          "internalType": "bool",
          "name": "",
          "type": "bool"
        }
      ],
      "stateMutability": "view",
      "type": "function"
    },
    {
      "inputs": [],
      "name": "proxiableUUID",
      "outputs": [
        {
          "internalType": "bytes32",
          "name": "",
          "type": "bytes32"
        }
      ],
      "stateMutability": "view",
      "type": "function"
    },
    {
      "inputs": [
        {
          "internalType": "uint256",
          "name": "_auctionId",
          "type": "uint256"
        }
      ],
      "name": "settleAuction",
      "outputs": [],
      "stateMutability": "nonpayable",
      "type": "function"
    },
    {
      "inputs": [],
      "name": "unpause",
      "outputs": [],
      "stateMutability": "nonpayable",
      "type": "function"
    },
    {
      "inputs": [
        {
          "internalType": "uint256",
          "name": "_auctionId",
          "type": "uint256"
        },
        {
          "internalType": "uint256",
          "name": "_minimumPrice",
          "type": "uint256"
        },
        {
          "internalType": "uint32",
          "name": "_endTime",
          "type": "uint32"
        }
      ],
      "name": "updateAuction",
      "outputs": [],
      "stateMutability": "nonpayable",
      "type": "function"
    },
    {
      "inputs": [
        {
          "internalType": "address",
          "name": "newImplementation",
          "type": "address"
        }
      ],
      "name": "upgradeTo",
      "outputs": [],
      "stateMutability": "nonpayable",
      "type": "function"
    },
    {
      "inputs": [
        {
          "internalType": "address",
          "name": "newImplementation",
          "type": "address"
        },
        {
          "internalType": "bytes",
          "name": "data",
          "type": "bytes"
        }
      ],
      "name": "upgradeToAndCall",
      "outputs": [],
      "stateMutability": "payable",
      "type": "function"
    }
  ],
  "bytecode": "0x60a0604052306080523480156200001557600080fd5b506200002062000026565b620000e8565b600054610100900460ff1615620000935760405162461bcd60e51b815260206004820152602760248201527f496e697469616c697a61626c653a20636f6e747261637420697320696e697469604482015266616c697a696e6760c81b606482015260840160405180910390fd5b60005460ff9081161015620000e6576000805460ff191660ff9081179091556040519081527f7f26b83ff96e1f2b6a682f133852f6798a09c465da95921460cefb38474024989060200160405180910390a15b565b608051612871620001206000396000818161065a0152818161069a0152818161092a0152818161096a01526109fd01526128716000f3fe6080604052600436106101095760003560e01c8063598647f81161009557806378bd79351161006457806378bd7935146102c15780638456cb59146102ee5780638f8038421461030357806396b5a75514610323578063a473205c1461034357600080fd5b8063598647f8146102265780635c975abb146102465780635e6c1d6314610269578063785e9e861461028957600080fd5b8063481b13d2116100dc578063481b13d214610185578063485cc955146101a85780634f1ef286146101c857806352d1902d146101db578063571a26a0146101f057600080fd5b80632bb36adc1461010e5780632e993611146101305780633659cfe6146101505780633f4ba83a14610170575b600080fd5b34801561011a57600080fd5b5061012e610129366004611d92565b610359565b005b34801561013c57600080fd5b5061012e61014b366004611e07565b610447565b34801561015c57600080fd5b5061012e61016b366004611e35565b610650565b34801561017c57600080fd5b5061012e61072f565b34801561019157600080fd5b5060645b6040519081526020015b60405180910390f35b3480156101b457600080fd5b5061012e6101c3366004611e52565b6107d5565b61012e6101d6366004611ea1565b610920565b3480156101e757600080fd5b506101956109f0565b3480156101fc57600080fd5b5061021061020b366004611e07565b610aa3565b60405161019f9a99989796959493929190611fbd565b34801561023257600080fd5b5061012e610241366004612036565b610b9f565b34801561025257600080fd5b5060975460ff16604051901515815260200161019f565b34801561027557600080fd5b5061012e610284366004612058565b611013565b34801561029557600080fd5b5060fb546102a9906001600160a01b031681565b6040516001600160a01b03909116815260200161019f565b3480156102cd57600080fd5b506102e16102dc366004611e07565b611225565b60405161019f9190612094565b3480156102fa57600080fd5b5061012e6113b4565b34801561030f57600080fd5b5061012e61031e366004612169565b611458565b34801561032f57600080fd5b5061012e61033e366004611e07565b6115c3565b34801561034f57600080fd5b5061019561025881565b60fc54604051632474521560e21b815260008051602061281c83398151915260048201523360248201526001600160a01b03909116906391d1485490604401602060405180830381865afa1580156103b5573d6000803e3d6000fd5b505050506040513d601f19601f820116820180604052508101906103d991906121b0565b6103fe5760405162461bcd60e51b81526004016103f5906121cd565b60405180910390fd5b8060005b818110156104415761043184848381811061041f5761041f6121f7565b9050602002810190610284919061220d565b61043a81612244565b9050610402565b50505050565b61044f6117bc565b600081815260fd60205260409020600281015460ff16156104825760405162461bcd60e51b81526004016103f59061225d565b6004810154815460018301546001600160a01b0390911690600160c01b900463ffffffff1680158015906104b557508042115b6105015760405162461bcd60e51b815260206004820152601860248201527f41756374696f6e206973207374696c6c2072756e6e696e67000000000000000060448201526064016103f5565b60028401805460ff191660011790556001600160a01b03821615610605576001840154604051636902622f60e11b81526001600160a01b039091169063d204c45e9061055690859060068901906004016122ce565b600060405180830381600087803b15801561057057600080fd5b505af1158015610584573d6000803e3d6000fd5b505060fb54600187015460405163a9059cbb60e01b81526001600160a01b039182166004820152602481018890529116925063a9059cbb91506044016020604051808303816000875af11580156105df573d6000803e3d6000fd5b505050506040513d601f19601f8201168201806040525081019061060391906121b0565b505b816001600160a01b0316857fc9f72b276a388619c6d185d146697036241880c36654b1a3ffdad07c24038d998560405161064191815260200190565b60405180910390a35050505050565b6001600160a01b037f00000000000000000000000000000000000000000000000000000000000000001630036106985760405162461bcd60e51b81526004016103f590612363565b7f00000000000000000000000000000000000000000000000000000000000000006001600160a01b03166106e16000805160206127d5833981519152546001600160a01b031690565b6001600160a01b0316146107075760405162461bcd60e51b81526004016103f5906123af565b61071081611802565b6040805160008082526020820190925261072c91839190611891565b50565b60fc54604051632474521560e21b815260008051602061281c83398151915260048201523360248201526001600160a01b03909116906391d1485490604401602060405180830381865afa15801561078b573d6000803e3d6000fd5b505050506040513d601f19601f820116820180604052508101906107af91906121b0565b6107cb5760405162461bcd60e51b81526004016103f5906121cd565b6107d36119fc565b565b600054610100900460ff16158080156107f55750600054600160ff909116105b8061080f5750303b15801561080f575060005460ff166001145b6108725760405162461bcd60e51b815260206004820152602e60248201527f496e697469616c697a61626c653a20636f6e747261637420697320616c72656160448201526d191e481a5b9a5d1a585b1a5e995960921b60648201526084016103f5565b6000805460ff191660011790558015610895576000805461ff0019166101001790555b61089d611a4e565b6108a5611a7d565b60fb80546001600160a01b038086166001600160a01b03199283161790925560fc805492851692909116919091179055801561091b576000805461ff0019169055604051600181527f7f26b83ff96e1f2b6a682f133852f6798a09c465da95921460cefb38474024989060200160405180910390a15b505050565b6001600160a01b037f00000000000000000000000000000000000000000000000000000000000000001630036109685760405162461bcd60e51b81526004016103f590612363565b7f00000000000000000000000000000000000000000000000000000000000000006001600160a01b03166109b16000805160206127d5833981519152546001600160a01b031690565b6001600160a01b0316146109d75760405162461bcd60e51b81526004016103f5906123af565b6109e082611802565b6109ec82826001611891565b5050565b6000306001600160a01b037f00000000000000000000000000000000000000000000000000000000000000001614610a905760405162461bcd60e51b815260206004820152603860248201527f555550535570677261646561626c653a206d757374206e6f742062652063616c60448201527f6c6564207468726f7567682064656c656761746563616c6c000000000000000060648201526084016103f5565b506000805160206127d583398151915290565b60fd6020526000908152604090208054600182015460028301546003840154600485015460058601546006870180546001600160a01b03978816989787169763ffffffff600160a01b8904811698600160c01b8104821698600160e01b9091049091169660ff90911695909490939092610b1c90612294565b80601f0160208091040260200160405190810160405280929190818152602001828054610b4890612294565b8015610b955780601f10610b6a57610100808354040283529160200191610b95565b820191906000526020600020905b815481529060010190602001808311610b7857829003601f168201915b505050505090508a565b600260c95403610bf15760405162461bcd60e51b815260206004820152601f60248201527f5265656e7472616e637947756172643a207265656e7472616e742063616c6c0060448201526064016103f5565b600260c955610bfe6117bc565b600082815260fd60205260409020600181015463ffffffff600160c01b8204811691600160a01b9004164281610c6e5760405162461bcd60e51b8152602060048201526015602482015274105d58dd1a5bdb88191bd95cdb89dd08195e1a5cdd605a1b60448201526064016103f5565b81811015610cb65760405162461bcd60e51b815260206004820152601560248201527441756374696f6e206e6f7420617661696c61626c6560581b60448201526064016103f5565b821580610cc257508083115b610d025760405162461bcd60e51b8152602060048201526011602482015270105d58dd1a5bdb881a185cc8195b991959607a1b60448201526064016103f5565b600284015460ff1615610d275760405162461bcd60e51b81526004016103f59061225d565b600085118015610d3b575083600301548510155b610d875760405162461bcd60e51b815260206004820152601960248201527f426964206973206c6f776572207468616e206d696e696d756d0000000000000060448201526064016103f5565b612710610d956064826123fb565b8560040154610da49190612413565b610dae9190612432565b851015610e0d5760405162461bcd60e51b815260206004820152602760248201527f426964206973206c6f776572207468616e20686967686573742062696420696e60448201526618dc995b595b9d60ca1b60648201526084016103f5565b60fb546040516323b872dd60e01b8152336004820152306024820152604481018790526001600160a01b03909116906323b872dd906064016020604051808303816000875af1158015610e64573d6000803e3d6000fd5b505050506040513d601f19601f82011682018060405250810190610e8891906121b0565b5083546004850180546001600160a01b0319831633178755908790556001600160a01b03909116908115610f2f5760fb5460405163a9059cbb60e01b81526001600160a01b038481166004830152602482018490529091169063a9059cbb906044016020604051808303816000875af1158015610f09573d6000803e3d6000fd5b505050506040513d601f19601f82011682018060405250810190610f2d91906121b0565b505b84600003610f7a576001860154610f5390600160e01b900463ffffffff16846123fb565b8660010160186101000a81548163ffffffff021916908363ffffffff160217905550610fbc565b610258610f878487612454565b1015610fbc57610f99610258846123fb565b60018701805463ffffffff60c01b1916600160c01b63ffffffff84160217905594505b60408051888152602081018790526001600160a01b0384169133918b917f2808decb743a25d04efe1bd3dc192acde3be644e2f6ad1dce5d3c46643e1c602910160405180910390a45050600160c955505050505050565b60fc54604051632474521560e21b815260008051602061281c83398151915260048201523360248201526001600160a01b03909116906391d1485490604401602060405180830381865afa15801561106f573d6000803e3d6000fd5b505050506040513d601f19601f8201168201806040525081019061109391906121b0565b6110af5760405162461bcd60e51b81526004016103f5906121cd565b6110bf608082016060830161246b565b63ffffffff1615806110fa57506110dc606082016040830161246b565b63ffffffff166110f2608083016060840161246b565b63ffffffff16115b61113d5760405162461bcd60e51b8152602060048201526014602482015273496e76616c69642061756374696f6e2074696d6560601b60448201526064016103f5565b610100810135600090815260fd6020526040902060010154600160a01b900463ffffffff16156111a85760405162461bcd60e51b815260206004820152601660248201527541756374696f6e20616c72656164792065786973747360501b60448201526064016103f5565b610100810135600090815260fd6020526040902081906111c88282612612565b507f5d551e2a2cc977fd8c530317059b4f2d9f504fb82f7dfad736f8d56679bcdfd090506101008201356112026040840160208501611e35565b604080519283526001600160a01b0390911660208301520160405180910390a150565b604080516101408101825260008082526020820181905291810182905260608082018390526080820183905260a0820183905260c0820183905260e08201839052610100820192909252610120810191909152600082815260fd602090815260409182902082516101408101845281546001600160a01b03908116825260018301549081169382019390935263ffffffff600160a01b8404811694820194909452600160c01b830484166060820152600160e01b9092049092166080820152600282015460ff16151560a0820152600382015460c0820152600482015460e082015260058201546101008201526006820180549192916101208401919061132b90612294565b80601f016020809104026020016040519081016040528092919081815260200182805461135790612294565b80156113a45780601f10611379576101008083540402835291602001916113a4565b820191906000526020600020905b81548152906001019060200180831161138757829003601f168201915b5050505050815250509050919050565b60fc54604051632474521560e21b815260008051602061281c83398151915260048201523360248201526001600160a01b03909116906391d1485490604401602060405180830381865afa158015611410573d6000803e3d6000fd5b505050506040513d601f19601f8201168201806040525081019061143491906121b0565b6114505760405162461bcd60e51b81526004016103f5906121cd565b6107d3611aa4565b60fc54604051632474521560e21b815260008051602061281c83398151915260048201523360248201526001600160a01b03909116906391d1485490604401602060405180830381865afa1580156114b4573d6000803e3d6000fd5b505050506040513d601f19601f820116820180604052508101906114d891906121b0565b6114f45760405162461bcd60e51b81526004016103f5906121cd565b600083815260fd602052604090206002015460ff16156115265760405162461bcd60e51b81526004016103f59061225d565b600083815260fd6020526040902060010154600160a01b900463ffffffff166115855760405162461bcd60e51b8152602060048201526011602482015270105d58dd1a5bdb881b9bdd08199bdd5b99607a1b60448201526064016103f5565b600092835260fd60205260409092206003810191909155600101805463ffffffff909216600160c01b0263ffffffff60c01b19909216919091179055565b60fc54604051632474521560e21b815260008051602061281c83398151915260048201523360248201526001600160a01b03909116906391d1485490604401602060405180830381865afa15801561161f573d6000803e3d6000fd5b505050506040513d601f19601f8201168201806040525081019061164391906121b0565b61165f5760405162461bcd60e51b81526004016103f5906121cd565b600081815260fd60205260409020600281015460ff16156116c25760405162461bcd60e51b815260206004820152601b60248201527f41756374696f6e20697320616c72656164792066696e6973686564000000000060448201526064016103f5565b80546004820180546001600160a01b03198316845560009091556001600160a01b039091169081156117675760fb5460405163a9059cbb60e01b81526001600160a01b038481166004830152602482018490529091169063a9059cbb906044016020604051808303816000875af1158015611741573d6000803e3d6000fd5b505050506040513d601f19601f8201168201806040525081019061176591906121b0565b505b600084815260fd6020526040808220600201805460ff19166001179055516001600160a01b0384169186917f10ac9f0bb365b5d22d7bec500408692f23fdf83eadfec71615ef88b4c1134f0e9190a350505050565b60975460ff16156107d35760405162461bcd60e51b815260206004820152601060248201526f14185d5cd8589b194e881c185d5cd95960821b60448201526064016103f5565b60fc54604051632474521560e21b8152600060048201523360248201526001600160a01b03909116906391d1485490604401602060405180830381865afa158015611851573d6000803e3d6000fd5b505050506040513d601f19601f8201168201806040525081019061187591906121b0565b61072c5760405162461bcd60e51b81526004016103f5906121cd565b7f4910fdfa16fed3260ed0e7147f7cc6da11a60208b5b9406d12a635614ffd91435460ff16156118c45761091b83611ae1565b826001600160a01b03166352d1902d6040518163ffffffff1660e01b8152600401602060405180830381865afa92505050801561191e575060408051601f3d908101601f1916820190925261191b9181019061274b565b60015b6119815760405162461bcd60e51b815260206004820152602e60248201527f45524331393637557067726164653a206e657720696d706c656d656e7461746960448201526d6f6e206973206e6f74205555505360901b60648201526084016103f5565b6000805160206127d583398151915281146119f05760405162461bcd60e51b815260206004820152602960248201527f45524331393637557067726164653a20756e737570706f727465642070726f786044820152681a58589b195555525160ba1b60648201526084016103f5565b5061091b838383611b7d565b611a04611ba2565b6097805460ff191690557f5db9ee0a495bf2e6ff9c91a7834c1ba4fdd244a5e8aa4e537bd38aeae4b073aa335b6040516001600160a01b03909116815260200160405180910390a1565b600054610100900460ff16611a755760405162461bcd60e51b81526004016103f590612764565b6107d3611beb565b600054610100900460ff166107d35760405162461bcd60e51b81526004016103f590612764565b611aac6117bc565b6097805460ff191660011790557f62e78cea01bee320cd4e420270b5ea74000d11b0c9f74754ebdbfc544b05a258611a313390565b6001600160a01b0381163b611b4e5760405162461bcd60e51b815260206004820152602d60248201527f455243313936373a206e657720696d706c656d656e746174696f6e206973206e60448201526c1bdd08184818dbdb9d1c9858dd609a1b60648201526084016103f5565b6000805160206127d583398151915280546001600160a01b0319166001600160a01b0392909216919091179055565b611b8683611c1e565b600082511180611b935750805b1561091b576104418383611c5e565b60975460ff166107d35760405162461bcd60e51b815260206004820152601460248201527314185d5cd8589b194e881b9bdd081c185d5cd95960621b60448201526064016103f5565b600054610100900460ff16611c125760405162461bcd60e51b81526004016103f590612764565b6097805460ff19169055565b611c2781611ae1565b6040516001600160a01b038216907fbc7cd75a20ee27fd9adebab32041f755214dbc6bffa90cc0225b39da2e5c2d3b90600090a250565b60606001600160a01b0383163b611cc65760405162461bcd60e51b815260206004820152602660248201527f416464726573733a2064656c65676174652063616c6c20746f206e6f6e2d636f6044820152651b9d1c9858dd60d21b60648201526084016103f5565b600080846001600160a01b031684604051611ce191906127af565b600060405180830381855af49150503d8060008114611d1c576040519150601f19603f3d011682016040523d82523d6000602084013e611d21565b606091505b5091509150611d4982826040518060600160405280602781526020016127f560279139611d52565b95945050505050565b60608315611d61575081611d8b565b825115611d715782518084602001fd5b8160405162461bcd60e51b81526004016103f591906127c1565b9392505050565b60008060208385031215611da557600080fd5b823567ffffffffffffffff80821115611dbd57600080fd5b818501915085601f830112611dd157600080fd5b813581811115611de057600080fd5b8660208260051b8501011115611df557600080fd5b60209290920196919550909350505050565b600060208284031215611e1957600080fd5b5035919050565b6001600160a01b038116811461072c57600080fd5b600060208284031215611e4757600080fd5b8135611d8b81611e20565b60008060408385031215611e6557600080fd5b8235611e7081611e20565b91506020830135611e8081611e20565b809150509250929050565b634e487b7160e01b600052604160045260246000fd5b60008060408385031215611eb457600080fd5b8235611ebf81611e20565b9150602083013567ffffffffffffffff80821115611edc57600080fd5b818501915085601f830112611ef057600080fd5b813581811115611f0257611f02611e8b565b604051601f8201601f19908116603f01168101908382118183101715611f2a57611f2a611e8b565b81604052828152886020848701011115611f4357600080fd5b8260208601602083013760006020848301015280955050505050509250929050565b60005b83811015611f80578181015183820152602001611f68565b838111156104415750506000910152565b60008151808452611fa9816020860160208601611f65565b601f01601f19169290920160200192915050565b6001600160a01b038b811682528a16602082015263ffffffff898116604083015288811660608301528716608082015285151560a082015260c0810185905260e081018490526101008101839052610140610120820181905260009061202583820185611f91565b9d9c50505050505050505050505050565b6000806040838503121561204957600080fd5b50508035926020909101359150565b60006020828403121561206a57600080fd5b813567ffffffffffffffff81111561208157600080fd5b82016101408185031215611d8b57600080fd5b602081526120ae6020820183516001600160a01b03169052565b600060208301516120ca60408401826001600160a01b03169052565b50604083015163ffffffff8116606084015250606083015163ffffffff8116608084015250608083015163ffffffff811660a08401525060a083015180151560c08401525060c083015160e08381019190915283015161010080840191909152830151610120808401919091528301516101408084015261214f610160840182611f91565b949350505050565b63ffffffff8116811461072c57600080fd5b60008060006060848603121561217e57600080fd5b8335925060208401359150604084013561219781612157565b809150509250925092565b801515811461072c57600080fd5b6000602082840312156121c257600080fd5b8151611d8b816121a2565b60208082526010908201526f41646d696e2063616c6c73206f6e6c7960801b604082015260600190565b634e487b7160e01b600052603260045260246000fd5b6000823561013e1983360301811261222457600080fd5b9190910192915050565b634e487b7160e01b600052601160045260246000fd5b6000600182016122565761225661222e565b5060010190565b60208082526017908201527f41756374696f6e20616c726561647920736574746c6564000000000000000000604082015260600190565b600181811c908216806122a857607f821691505b6020821081036122c857634e487b7160e01b600052602260045260246000fd5b50919050565b60018060a01b038316815260006020604081840152600084546122f081612294565b8060408701526060600180841660008114612312576001811461232657612354565b60ff19851689840152608089019550612354565b896000528660002060005b8581101561234c5781548b8201860152908301908801612331565b8a0184019650505b50939998505050505050505050565b6020808252602c908201527f46756e6374696f6e206d7573742062652063616c6c6564207468726f7567682060408201526b19195b1959d85d1958d85b1b60a21b606082015260800190565b6020808252602c908201527f46756e6374696f6e206d7573742062652063616c6c6564207468726f7567682060408201526b6163746976652070726f787960a01b606082015260800190565b6000821982111561240e5761240e61222e565b500190565b600081600019048311821515161561242d5761242d61222e565b500290565b60008261244f57634e487b7160e01b600052601260045260246000fd5b500490565b6000828210156124665761246661222e565b500390565b60006020828403121561247d57600080fd5b8135611d8b81612157565b6000813561249581611e20565b92915050565b6000813561249581612157565b60008135612495816121a2565b6000808335601e198436030181126124cc57600080fd5b83018035915067ffffffffffffffff8211156124e757600080fd5b6020019150368190038213156124fc57600080fd5b9250929050565b601f82111561091b57600081815260208120601f850160051c8101602086101561252a5750805b601f850160051c820191505b8181101561254957828155600101612536565b505050505050565b67ffffffffffffffff83111561256957612569611e8b565b61257d836125778354612294565b83612503565b6000601f8411600181146125b157600085156125995750838201355b600019600387901b1c1916600186901b17835561260b565b600083815260209020601f19861690835b828110156125e257868501358255602094850194600190920191016125c2565b50868210156125ff5760001960f88860031b161c19848701351681555b505060018560011b0183555b5050505050565b61263b61261e83612488565b82546001600160a01b0319166001600160a01b0391909116178255565b6001810161264e61261e60208501612488565b61268161265d6040850161249b565b82805463ffffffff60a01b191660a09290921b63ffffffff60a01b16919091179055565b6126b46126906060850161249b565b82805463ffffffff60c01b191660c09290921b63ffffffff60c01b16919091179055565b6126e76126c36080850161249b565b8280546001600160e01b031660e09290921b6001600160e01b031916919091179055565b506127106126f760a084016124a8565b6002830160ff1981541660ff8315151681178255505050565b60c0820135600382015560e08201356004820155610100820135600582015561273d6101208301836124b5565b610441818360068601612551565b60006020828403121561275d57600080fd5b5051919050565b6020808252602b908201527f496e697469616c697a61626c653a20636f6e7472616374206973206e6f74206960408201526a6e697469616c697a696e6760a81b606082015260800190565b60008251612224818460208701611f65565b602081526000611d8b6020830184611f9156fe360894a13ba1a3210667c828492db98dca3e2076cc3735a920a3ca505d382bbc416464726573733a206c6f772d6c6576656c2064656c65676174652063616c6c206661696c6564e303cb88ace8c9e6ba216f1aecb44b3206dcab364c60512ffc6cbc920a1bf9d1a26469706673582212208dd05ac7d5814cb416668e29a756f00e128ff74d5507d90e6e858806d2e53ac064736f6c634300080e0033",
  "linkReferences": {},
  "deployedLinkReferences": {}
}