{
  "_format": "hh-sol-artifact-1",
  "contractName": "Auction",
  "sourceName": "contracts/Auction/Auction.sol",
  "abi": [
    {
      "inputs": [],
      "stateMutability": "nonpayable",
      "type": "constructor"
    },
    {
      "anonymous": false,
      "inputs": [
        {
          "indexed": false,
          "internalType": "address",
          "name": "previousAdmin",
          "type": "address"
        },
        {
          "indexed": false,
          "internalType": "address",
          "name": "newAdmin",
          "type": "address"
        }
      ],
      "name": "AdminChanged",
      "type": "event"
    },
    {
      "anonymous": false,
      "inputs": [
        {
          "indexed": true,
          "internalType": "uint256",
          "name": "auctionId",
          "type": "uint256"
        },
        {
          "indexed": true,
          "internalType": "address",
          "name": "previousBidder",
          "type": "address"
        }
      ],
      "name": "AuctionCancelled",
      "type": "event"
    },
    {
      "anonymous": false,
      "inputs": [
        {
          "indexed": false,
          "internalType": "uint256",
          "name": "auctionId",
          "type": "uint256"
        },
        {
          "indexed": false,
          "internalType": "address",
          "name": "nftContract",
          "type": "address"
        }
      ],
      "name": "AuctionCreated",
      "type": "event"
    },
    {
      "anonymous": false,
      "inputs": [
        {
          "indexed": true,
          "internalType": "uint256",
          "name": "auctionId",
          "type": "uint256"
        },
        {
          "indexed": true,
          "internalType": "address",
          "name": "highestBidder",
          "type": "address"
        },
        {
          "indexed": false,
          "internalType": "uint256",
          "name": "highestBid",
          "type": "uint256"
        }
      ],
      "name": "AuctionSettled",
      "type": "event"
    },
    {
      "anonymous": false,
      "inputs": [
        {
          "indexed": true,
          "internalType": "address",
          "name": "beacon",
          "type": "address"
        }
      ],
      "name": "BeaconUpgraded",
      "type": "event"
    },
    {
      "anonymous": false,
      "inputs": [
        {
          "indexed": true,
          "internalType": "uint256",
          "name": "auctionId",
          "type": "uint256"
        },
        {
          "indexed": true,
          "internalType": "address",
          "name": "newBidder",
          "type": "address"
        },
        {
          "indexed": true,
          "internalType": "address",
          "name": "previousBidder",
          "type": "address"
        },
        {
          "indexed": false,
          "internalType": "uint256",
          "name": "bidAmount",
          "type": "uint256"
        },
        {
          "indexed": false,
          "internalType": "uint256",
          "name": "newEndTime",
          "type": "uint256"
        }
      ],
      "name": "BidPlaced",
      "type": "event"
    },
    {
      "anonymous": false,
      "inputs": [
        {
          "indexed": false,
          "internalType": "uint8",
          "name": "version",
          "type": "uint8"
        }
      ],
      "name": "Initialized",
      "type": "event"
    },
    {
      "anonymous": false,
      "inputs": [
        {
          "indexed": false,
          "internalType": "address",
          "name": "account",
          "type": "address"
        }
      ],
      "name": "Paused",
      "type": "event"
    },
    {
      "anonymous": false,
      "inputs": [
        {
          "indexed": true,
          "internalType": "bytes32",
          "name": "role",
          "type": "bytes32"
        },
        {
          "indexed": true,
          "internalType": "bytes32",
          "name": "previousAdminRole",
          "type": "bytes32"
        },
        {
          "indexed": true,
          "internalType": "bytes32",
          "name": "newAdminRole",
          "type": "bytes32"
        }
      ],
      "name": "RoleAdminChanged",
      "type": "event"
    },
    {
      "anonymous": false,
      "inputs": [
        {
          "indexed": true,
          "internalType": "bytes32",
          "name": "role",
          "type": "bytes32"
        },
        {
          "indexed": true,
          "internalType": "address",
          "name": "account",
          "type": "address"
        },
        {
          "indexed": true,
          "internalType": "address",
          "name": "sender",
          "type": "address"
        }
      ],
      "name": "RoleGranted",
      "type": "event"
    },
    {
      "anonymous": false,
      "inputs": [
        {
          "indexed": true,
          "internalType": "bytes32",
          "name": "role",
          "type": "bytes32"
        },
        {
          "indexed": true,
          "internalType": "address",
          "name": "account",
          "type": "address"
        },
        {
          "indexed": true,
          "internalType": "address",
          "name": "sender",
          "type": "address"
        }
      ],
      "name": "RoleRevoked",
      "type": "event"
    },
    {
      "anonymous": false,
      "inputs": [
        {
          "indexed": false,
          "internalType": "address",
          "name": "account",
          "type": "address"
        }
      ],
      "name": "Unpaused",
      "type": "event"
    },
    {
      "anonymous": false,
      "inputs": [
        {
          "indexed": true,
          "internalType": "address",
          "name": "implementation",
          "type": "address"
        }
      ],
      "name": "Upgraded",
      "type": "event"
    },
    {
      "inputs": [],
      "name": "DEFAULT_ADMIN_ROLE",
      "outputs": [
        {
          "internalType": "bytes32",
          "name": "",
          "type": "bytes32"
        }
      ],
      "stateMutability": "view",
      "type": "function"
    },
    {
      "inputs": [],
      "name": "DEFAULT_EXTENSION",
      "outputs": [
        {
          "internalType": "uint256",
          "name": "",
          "type": "uint256"
        }
      ],
      "stateMutability": "view",
      "type": "function"
    },
    {
      "inputs": [
        {
          "internalType": "uint256",
          "name": "",
          "type": "uint256"
        }
      ],
      "name": "auctions",
      "outputs": [
        {
          "internalType": "address",
          "name": "highestBidder",
          "type": "address"
        },
        {
          "internalType": "contract INFT",
          "name": "nftContract",
          "type": "address"
        },
        {
          "internalType": "uint32",
          "name": "startTime",
          "type": "uint32"
        },
        {
          "internalType": "uint32",
          "name": "endTime",
          "type": "uint32"
        },
        {
          "internalType": "uint32",
          "name": "duration",
          "type": "uint32"
        },
        {
          "internalType": "bool",
          "name": "settled",
          "type": "bool"
        },
        {
          "internalType": "uint256",
          "name": "minimumPrice",
          "type": "uint256"
        },
        {
          "internalType": "uint256",
          "name": "highestBid",
          "type": "uint256"
        },
        {
          "internalType": "uint256",
          "name": "auctionId",
          "type": "uint256"
        },
        {
          "internalType": "string",
          "name": "nftUri",
          "type": "string"
        }
      ],
      "stateMutability": "view",
      "type": "function"
    },
    {
      "inputs": [
        {
          "internalType": "uint256",
          "name": "_auctionId",
          "type": "uint256"
        },
        {
          "internalType": "uint256",
          "name": "_amount",
          "type": "uint256"
        }
      ],
      "name": "bid",
      "outputs": [],
      "stateMutability": "nonpayable",
      "type": "function"
    },
    {
      "inputs": [
        {
          "internalType": "uint256",
          "name": "_auctionId",
          "type": "uint256"
        }
      ],
      "name": "cancelAuction",
      "outputs": [],
      "stateMutability": "nonpayable",
      "type": "function"
    },
    {
      "inputs": [
        {
          "components": [
            {
              "internalType": "address",
              "name": "highestBidder",
              "type": "address"
            },
            {
              "internalType": "contract INFT",
              "name": "nftContract",
              "type": "address"
            },
            {
              "internalType": "uint32",
              "name": "startTime",
              "type": "uint32"
            },
            {
              "internalType": "uint32",
              "name": "endTime",
              "type": "uint32"
            },
            {
              "internalType": "uint32",
              "name": "duration",
              "type": "uint32"
            },
            {
              "internalType": "bool",
              "name": "settled",
              "type": "bool"
            },
            {
              "internalType": "uint256",
              "name": "minimumPrice",
              "type": "uint256"
            },
            {
              "internalType": "uint256",
              "name": "highestBid",
              "type": "uint256"
            },
            {
              "internalType": "uint256",
              "name": "auctionId",
              "type": "uint256"
            },
            {
              "internalType": "string",
              "name": "nftUri",
              "type": "string"
            }
          ],
          "internalType": "struct Auction.AuctionInfo",
          "name": "_auctionInfo",
          "type": "tuple"
        }
      ],
      "name": "createAuction",
      "outputs": [],
      "stateMutability": "nonpayable",
      "type": "function"
    },
    {
      "inputs": [
        {
          "components": [
            {
              "internalType": "address",
              "name": "highestBidder",
              "type": "address"
            },
            {
              "internalType": "contract INFT",
              "name": "nftContract",
              "type": "address"
            },
            {
              "internalType": "uint32",
              "name": "startTime",
              "type": "uint32"
            },
            {
              "internalType": "uint32",
              "name": "endTime",
              "type": "uint32"
            },
            {
              "internalType": "uint32",
              "name": "duration",
              "type": "uint32"
            },
            {
              "internalType": "bool",
              "name": "settled",
              "type": "bool"
            },
            {
              "internalType": "uint256",
              "name": "minimumPrice",
              "type": "uint256"
            },
            {
              "internalType": "uint256",
              "name": "highestBid",
              "type": "uint256"
            },
            {
              "internalType": "uint256",
              "name": "auctionId",
              "type": "uint256"
            },
            {
              "internalType": "string",
              "name": "nftUri",
              "type": "string"
            }
          ],
          "internalType": "struct Auction.AuctionInfo[]",
          "name": "_auctions",
          "type": "tuple[]"
        }
      ],
      "name": "createAuctionBatch",
      "outputs": [],
      "stateMutability": "nonpayable",
      "type": "function"
    },
    {
      "inputs": [],
      "name": "erc20",
      "outputs": [
        {
          "internalType": "contract IERC20",
          "name": "",
          "type": "address"
        }
      ],
      "stateMutability": "view",
      "type": "function"
    },
    {
      "inputs": [
        {
          "internalType": "uint256",
          "name": "_auctionId",
          "type": "uint256"
        }
      ],
      "name": "getAuction",
      "outputs": [
        {
          "components": [
            {
              "internalType": "address",
              "name": "highestBidder",
              "type": "address"
            },
            {
              "internalType": "contract INFT",
              "name": "nftContract",
              "type": "address"
            },
            {
              "internalType": "uint32",
              "name": "startTime",
              "type": "uint32"
            },
            {
              "internalType": "uint32",
              "name": "endTime",
              "type": "uint32"
            },
            {
              "internalType": "uint32",
              "name": "duration",
              "type": "uint32"
            },
            {
              "internalType": "bool",
              "name": "settled",
              "type": "bool"
            },
            {
              "internalType": "uint256",
              "name": "minimumPrice",
              "type": "uint256"
            },
            {
              "internalType": "uint256",
              "name": "highestBid",
              "type": "uint256"
            },
            {
              "internalType": "uint256",
              "name": "auctionId",
              "type": "uint256"
            },
            {
              "internalType": "string",
              "name": "nftUri",
              "type": "string"
            }
          ],
          "internalType": "struct Auction.AuctionInfo",
          "name": "",
          "type": "tuple"
        }
      ],
      "stateMutability": "view",
      "type": "function"
    },
    {
      "inputs": [],
      "name": "getBidIncrementPercentage",
      "outputs": [
        {
          "internalType": "uint256",
          "name": "",
          "type": "uint256"
        }
      ],
      "stateMutability": "view",
      "type": "function"
    },
    {
      "inputs": [
        {
          "internalType": "bytes32",
          "name": "role",
          "type": "bytes32"
        }
      ],
      "name": "getRoleAdmin",
      "outputs": [
        {
          "internalType": "bytes32",
          "name": "",
          "type": "bytes32"
        }
      ],
      "stateMutability": "view",
      "type": "function"
    },
    {
      "inputs": [
        {
          "internalType": "bytes32",
          "name": "role",
          "type": "bytes32"
        },
        {
          "internalType": "address",
          "name": "account",
          "type": "address"
        }
      ],
      "name": "grantRole",
      "outputs": [],
      "stateMutability": "nonpayable",
      "type": "function"
    },
    {
      "inputs": [
        {
          "internalType": "bytes32",
          "name": "role",
          "type": "bytes32"
        },
        {
          "internalType": "address",
          "name": "account",
          "type": "address"
        }
      ],
      "name": "hasRole",
      "outputs": [
        {
          "internalType": "bool",
          "name": "",
          "type": "bool"
        }
      ],
      "stateMutability": "view",
      "type": "function"
    },
    {
      "inputs": [
        {
          "internalType": "address",
          "name": "_admin",
          "type": "address"
        },
        {
          "internalType": "address",
          "name": "_token",
          "type": "address"
        },
        {
          "internalType": "address",
          "name": "_storage",
          "type": "address"
        }
      ],
      "name": "initialize",
      "outputs": [],
      "stateMutability": "nonpayable",
      "type": "function"
    },
    {
      "inputs": [],
      "name": "pause",
      "outputs": [],
      "stateMutability": "nonpayable",
      "type": "function"
    },
    {
      "inputs": [],
      "name": "paused",
      "outputs": [
        {
          "internalType": "bool",
          "name": "",
          "type": "bool"
        }
      ],
      "stateMutability": "view",
      "type": "function"
    },
    {
      "inputs": [],
      "name": "proxiableUUID",
      "outputs": [
        {
          "internalType": "bytes32",
          "name": "",
          "type": "bytes32"
        }
      ],
      "stateMutability": "view",
      "type": "function"
    },
    {
      "inputs": [
        {
          "internalType": "bytes32",
          "name": "role",
          "type": "bytes32"
        },
        {
          "internalType": "address",
          "name": "account",
          "type": "address"
        }
      ],
      "name": "renounceRole",
      "outputs": [],
      "stateMutability": "nonpayable",
      "type": "function"
    },
    {
      "inputs": [
        {
          "internalType": "bytes32",
          "name": "role",
          "type": "bytes32"
        },
        {
          "internalType": "address",
          "name": "account",
          "type": "address"
        }
      ],
      "name": "revokeRole",
      "outputs": [],
      "stateMutability": "nonpayable",
      "type": "function"
    },
    {
      "inputs": [
        {
          "internalType": "uint256",
          "name": "_auctionId",
          "type": "uint256"
        }
      ],
      "name": "settleAuction",
      "outputs": [],
      "stateMutability": "nonpayable",
      "type": "function"
    },
    {
      "inputs": [
        {
          "internalType": "bytes4",
          "name": "interfaceId",
          "type": "bytes4"
        }
      ],
      "name": "supportsInterface",
      "outputs": [
        {
          "internalType": "bool",
          "name": "",
          "type": "bool"
        }
      ],
      "stateMutability": "view",
      "type": "function"
    },
    {
      "inputs": [],
      "name": "unpause",
      "outputs": [],
      "stateMutability": "nonpayable",
      "type": "function"
    },
    {
      "inputs": [
        {
          "internalType": "uint256",
          "name": "_auctionId",
          "type": "uint256"
        },
        {
          "internalType": "uint256",
          "name": "_minimumPrice",
          "type": "uint256"
        },
        {
          "internalType": "uint32",
          "name": "_endTime",
          "type": "uint32"
        }
      ],
      "name": "updateAuction",
      "outputs": [],
      "stateMutability": "nonpayable",
      "type": "function"
    },
    {
      "inputs": [
        {
          "internalType": "address",
          "name": "newImplementation",
          "type": "address"
        }
      ],
      "name": "upgradeTo",
      "outputs": [],
      "stateMutability": "nonpayable",
      "type": "function"
    },
    {
      "inputs": [
        {
          "internalType": "address",
          "name": "newImplementation",
          "type": "address"
        },
        {
          "internalType": "bytes",
          "name": "data",
          "type": "bytes"
        }
      ],
      "name": "upgradeToAndCall",
      "outputs": [],
      "stateMutability": "payable",
      "type": "function"
    }
  ],
  "bytecode": "0x60a0604052306080523480156200001557600080fd5b506200002062000026565b62000156565b6200003260ff62000035565b50565b60008054610100900460ff1615620000ce578160ff1660011480156200006e57506200006c306200014760201b620019ac1760201c565b155b620000c65760405162461bcd60e51b815260206004820152602e60248201526000805160206200308a83398151915260448201526d191e481a5b9a5d1a585b1a5e995960921b60648201526084015b60405180910390fd5b506000919050565b60005460ff8084169116106200012d5760405162461bcd60e51b815260206004820152602e60248201526000805160206200308a83398151915260448201526d191e481a5b9a5d1a585b1a5e995960921b6064820152608401620000bd565b506000805460ff191660ff92909216919091179055600190565b6001600160a01b03163b151590565b608051612efc6200018e60003960008181610896015281816108d601528181610a0f01528181610a4f0152610ade0152612efc6000f3fe6080604052600436106101665760003560e01c8063598647f8116100d15780638f8038421161008a578063a217fddf11610064578063a217fddf1461043a578063a473205c1461044f578063c0c53b8b14610465578063d547741f1461048557600080fd5b80638f803842146103da57806391d14854146103fa57806396b5a7551461041a57600080fd5b8063598647f8146103075780635c975abb146103275780635e6c1d631461033f578063785e9e861461035f57806378bd7935146103985780638456cb59146103c557600080fd5b80633659cfe6116101235780633659cfe6146102605780633f4ba83a14610280578063481b13d2146102955780634f1ef286146102a957806352d1902d146102bc578063571a26a0146102d157600080fd5b806301ffc9a71461016b578063248a9ca3146101a05780632bb36adc146101de5780632e993611146102005780632f2ff15d1461022057806336568abe14610240575b600080fd5b34801561017757600080fd5b5061018b6101863660046122de565b6104a5565b60405190151581526020015b60405180910390f35b3480156101ac57600080fd5b506101d06101bb366004612308565b60009081526065602052604090206001015490565b604051908152602001610197565b3480156101ea57600080fd5b506101fe6101f9366004612321565b6104dc565b005b34801561020c57600080fd5b506101fe61021b366004612308565b6105be565b34801561022c57600080fd5b506101fe61023b3660046123ab565b6107e4565b34801561024c57600080fd5b506101fe61025b3660046123ab565b61080e565b34801561026c57600080fd5b506101fe61027b3660046123db565b61088c565b34801561028c57600080fd5b506101fe61096b565b3480156102a157600080fd5b5060646101d0565b6101fe6102b736600461240e565b610a05565b3480156102c857600080fd5b506101d0610ad1565b3480156102dd57600080fd5b506102f16102ec366004612308565b610b84565b6040516101979a9998979695949392919061252a565b34801561031357600080fd5b506101fe6103223660046125a3565b610c81565b34801561033357600080fd5b5060fb5460ff1661018b565b34801561034b57600080fd5b506101fe61035a3660046125c5565b611116565b34801561036b57600080fd5b5061015f54610380906001600160a01b031681565b6040516001600160a01b039091168152602001610197565b3480156103a457600080fd5b506103b86103b3366004612308565b61131e565b6040516101979190612601565b3480156103d157600080fd5b506101fe6114ae565b3480156103e657600080fd5b506101fe6103f53660046126d6565b611546565b34801561040657600080fd5b5061018b6104153660046123ab565b6116a8565b34801561042657600080fd5b506101fe610435366004612308565b6116d3565b34801561044657600080fd5b506101d0600081565b34801561045b57600080fd5b506101d061025881565b34801561047157600080fd5b506101fe61048036600461270f565b6118c3565b34801561049157600080fd5b506101fe6104a03660046123ab565b611987565b60006001600160e01b03198216637965db0b60e01b14806104d657506301ffc9a760e01b6001600160e01b03198316145b92915050565b61016054604051632474521560e21b8152600060048201523360248201526001600160a01b03909116906391d1485490604401602060405180830381865afa15801561052c573d6000803e3d6000fd5b505050506040513d601f19601f82011682018060405250810190610550919061275d565b6105755760405162461bcd60e51b815260040161056c9061277a565b60405180910390fd5b8060005b818110156105b8576105a8848483818110610596576105966127a4565b905060200281019061035a91906127ba565b6105b1816127f1565b9050610579565b50505050565b60fb5460ff16156105e15760405162461bcd60e51b815260040161056c9061280a565b600081815261016160205260409020600281015460ff16156106155760405162461bcd60e51b815260040161056c90612834565b6004810154815460018301546001600160a01b0390911690600160c01b900463ffffffff16801580159061064857508042115b6106945760405162461bcd60e51b815260206004820152601860248201527f41756374696f6e206973207374696c6c2072756e6e696e670000000000000000604482015260640161056c565b60028401805460ff191660011790556001600160a01b03821615610799576001840154604051636902622f60e11b81526001600160a01b039091169063d204c45e906106e990859060068901906004016128a5565b600060405180830381600087803b15801561070357600080fd5b505af1158015610717573d6000803e3d6000fd5b505061015f54600187015460405163a9059cbb60e01b81526001600160a01b039182166004820152602481018890529116925063a9059cbb91506044016020604051808303816000875af1158015610773573d6000803e3d6000fd5b505050506040513d601f19601f82011682018060405250810190610797919061275d565b505b816001600160a01b0316857fc9f72b276a388619c6d185d146697036241880c36654b1a3ffdad07c24038d99856040516107d591815260200190565b60405180910390a35050505050565b6000828152606560205260409020600101546107ff816119bb565b61080983836119c5565b505050565b6001600160a01b038116331461087e5760405162461bcd60e51b815260206004820152602f60248201527f416363657373436f6e74726f6c3a2063616e206f6e6c792072656e6f756e636560448201526e103937b632b9903337b91039b2b63360891b606482015260840161056c565b6108888282611a4b565b5050565b6001600160a01b037f00000000000000000000000000000000000000000000000000000000000000001630036108d45760405162461bcd60e51b815260040161056c9061293a565b7f00000000000000000000000000000000000000000000000000000000000000006001600160a01b031661091d600080516020612e80833981519152546001600160a01b031690565b6001600160a01b0316146109435760405162461bcd60e51b815260040161056c90612986565b61094c81611ab2565b6040805160008082526020820190925261096891839190611b42565b50565b61016054604051632474521560e21b8152600060048201523360248201526001600160a01b03909116906391d1485490604401602060405180830381865afa1580156109bb573d6000803e3d6000fd5b505050506040513d601f19601f820116820180604052508101906109df919061275d565b6109fb5760405162461bcd60e51b815260040161056c9061277a565b610a03611cad565b565b6001600160a01b037f0000000000000000000000000000000000000000000000000000000000000000163003610a4d5760405162461bcd60e51b815260040161056c9061293a565b7f00000000000000000000000000000000000000000000000000000000000000006001600160a01b0316610a96600080516020612e80833981519152546001600160a01b031690565b6001600160a01b031614610abc5760405162461bcd60e51b815260040161056c90612986565b610ac582611ab2565b61088882826001611b42565b6000306001600160a01b037f00000000000000000000000000000000000000000000000000000000000000001614610b715760405162461bcd60e51b815260206004820152603860248201527f555550535570677261646561626c653a206d757374206e6f742062652063616c60448201527f6c6564207468726f7567682064656c656761746563616c6c0000000000000000606482015260840161056c565b50600080516020612e8083398151915290565b6101616020526000908152604090208054600182015460028301546003840154600485015460058601546006870180546001600160a01b03978816989787169763ffffffff600160a01b8904811698600160c01b8104821698600160e01b9091049091169660ff90911695909490939092610bfe9061286b565b80601f0160208091040260200160405190810160405280929190818152602001828054610c2a9061286b565b8015610c775780601f10610c4c57610100808354040283529160200191610c77565b820191906000526020600020905b815481529060010190602001808311610c5a57829003601f168201915b505050505090508a565b600261012d5403610cd45760405162461bcd60e51b815260206004820152601f60248201527f5265656e7472616e637947756172643a207265656e7472616e742063616c6c00604482015260640161056c565b600261012d5560fb5460ff1615610cfd5760405162461bcd60e51b815260040161056c9061280a565b600082815261016160205260409020600181015463ffffffff600160c01b8204811691600160a01b9004164281610d6e5760405162461bcd60e51b8152602060048201526015602482015274105d58dd1a5bdb88191bd95cdb89dd08195e1a5cdd605a1b604482015260640161056c565b81811015610db65760405162461bcd60e51b815260206004820152601560248201527441756374696f6e206e6f7420617661696c61626c6560581b604482015260640161056c565b821580610dc257508083115b610e025760405162461bcd60e51b8152602060048201526011602482015270105d58dd1a5bdb881a185cc8195b991959607a1b604482015260640161056c565b600284015460ff1615610e275760405162461bcd60e51b815260040161056c90612834565b600085118015610e3b575083600301548510155b610e875760405162461bcd60e51b815260206004820152601960248201527f426964206973206c6f776572207468616e206d696e696d756d00000000000000604482015260640161056c565b612710610e956064826129d2565b8560040154610ea491906129ea565b610eae9190612a09565b851015610f0d5760405162461bcd60e51b815260206004820152602760248201527f426964206973206c6f776572207468616e20686967686573742062696420696e60448201526618dc995b595b9d60ca1b606482015260840161056c565b61015f546040516323b872dd60e01b8152336004820152306024820152604481018790526001600160a01b03909116906323b872dd906064016020604051808303816000875af1158015610f65573d6000803e3d6000fd5b505050506040513d601f19601f82011682018060405250810190610f89919061275d565b5083546004850180546001600160a01b0319831633178755908790556001600160a01b039091169081156110315761015f5460405163a9059cbb60e01b81526001600160a01b038481166004830152602482018490529091169063a9059cbb906044016020604051808303816000875af115801561100b573d6000803e3d6000fd5b505050506040513d601f19601f8201168201806040525081019061102f919061275d565b505b8460000361107c57600186015461105590600160e01b900463ffffffff16846129d2565b8660010160186101000a81548163ffffffff021916908363ffffffff1602179055506110be565b6102586110898487612a2b565b10156110be5761109b610258846129d2565b60018701805463ffffffff60c01b1916600160c01b63ffffffff84160217905594505b60408051888152602081018790526001600160a01b0384169133918b917f2808decb743a25d04efe1bd3dc192acde3be644e2f6ad1dce5d3c46643e1c602910160405180910390a45050600161012d55505050505050565b61016054604051632474521560e21b8152600060048201523360248201526001600160a01b03909116906391d1485490604401602060405180830381865afa158015611166573d6000803e3d6000fd5b505050506040513d601f19601f8201168201806040525081019061118a919061275d565b6111a65760405162461bcd60e51b815260040161056c9061277a565b6111b66080820160608301612a42565b63ffffffff1615806111f157506111d36060820160408301612a42565b63ffffffff166111e96080830160608401612a42565b63ffffffff16115b6112345760405162461bcd60e51b8152602060048201526014602482015273496e76616c69642061756374696f6e2074696d6560601b604482015260640161056c565b61010081013560009081526101616020526040902060010154600160a01b900463ffffffff16156112a05760405162461bcd60e51b815260206004820152601660248201527541756374696f6e20616c72656164792065786973747360501b604482015260640161056c565b61010081013560009081526101616020526040902081906112c18282612be3565b507f5d551e2a2cc977fd8c530317059b4f2d9f504fb82f7dfad736f8d56679bcdfd090506101008201356112fb60408401602085016123db565b604080519283526001600160a01b0390911660208301520160405180910390a150565b604080516101408101825260008082526020820181905291810182905260608082018390526080820183905260a0820183905260c0820183905260e082018390526101008201929092526101208101919091526000828152610161602090815260409182902082516101408101845281546001600160a01b03908116825260018301549081169382019390935263ffffffff600160a01b8404811694820194909452600160c01b830484166060820152600160e01b9092049092166080820152600282015460ff16151560a0820152600382015460c0820152600482015460e08201526005820154610100820152600682018054919291610120840191906114259061286b565b80601f01602080910402602001604051908101604052809291908181526020018280546114519061286b565b801561149e5780601f106114735761010080835404028352916020019161149e565b820191906000526020600020905b81548152906001019060200180831161148157829003601f168201915b5050505050815250509050919050565b61016054604051632474521560e21b8152600060048201523360248201526001600160a01b03909116906391d1485490604401602060405180830381865afa1580156114fe573d6000803e3d6000fd5b505050506040513d601f19601f82011682018060405250810190611522919061275d565b61153e5760405162461bcd60e51b815260040161056c9061277a565b610a03611d40565b61016054604051632474521560e21b8152600060048201523360248201526001600160a01b03909116906391d1485490604401602060405180830381865afa158015611596573d6000803e3d6000fd5b505050506040513d601f19601f820116820180604052508101906115ba919061275d565b6115d65760405162461bcd60e51b815260040161056c9061277a565b6000838152610161602052604090206002015460ff16156116095760405162461bcd60e51b815260040161056c90612834565b60008381526101616020526040902060010154600160a01b900463ffffffff166116695760405162461bcd60e51b8152602060048201526011602482015270105d58dd1a5bdb881b9bdd08199bdd5b99607a1b604482015260640161056c565b600092835261016160205260409092206003810191909155600101805463ffffffff909216600160c01b0263ffffffff60c01b19909216919091179055565b60009182526065602090815260408084206001600160a01b0393909316845291905290205460ff1690565b61016054604051632474521560e21b8152600060048201523360248201526001600160a01b03909116906391d1485490604401602060405180830381865afa158015611723573d6000803e3d6000fd5b505050506040513d601f19601f82011682018060405250810190611747919061275d565b6117635760405162461bcd60e51b815260040161056c9061277a565b600081815261016160205260409020600281015460ff16156117c75760405162461bcd60e51b815260206004820152601b60248201527f41756374696f6e20697320616c72656164792066696e69736865640000000000604482015260640161056c565b80546004820180546001600160a01b03198316845560009091556001600160a01b0390911690811561186d5761015f5460405163a9059cbb60e01b81526001600160a01b038481166004830152602482018490529091169063a9059cbb906044016020604051808303816000875af1158015611847573d6000803e3d6000fd5b505050506040513d601f19601f8201168201806040525081019061186b919061275d565b505b60008481526101616020526040808220600201805460ff19166001179055516001600160a01b0384169186917f10ac9f0bb365b5d22d7bec500408692f23fdf83eadfec71615ef88b4c1134f0e9190a350505050565b60006118cf6001611d98565b905080156118e7576000805461ff0019166101001790555b6118ef611e20565b6118f7611e47565b6118ff611e20565b61190a6000856119c5565b61015f80546001600160a01b038086166001600160a01b03199283161790925561016080549285169290911691909117905580156105b8576000805461ff0019169055604051600181527f7f26b83ff96e1f2b6a682f133852f6798a09c465da95921460cefb38474024989060200160405180910390a150505050565b6000828152606560205260409020600101546119a2816119bb565b6108098383611a4b565b6001600160a01b03163b151590565b6109688133611e76565b6119cf82826116a8565b6108885760008281526065602090815260408083206001600160a01b03851684529091529020805460ff19166001179055611a073390565b6001600160a01b0316816001600160a01b0316837f2f8788117e7eff1d82e926ec794901d17c78024a50270940304540a733656f0d60405160405180910390a45050565b611a5582826116a8565b156108885760008281526065602090815260408083206001600160a01b0385168085529252808320805460ff1916905551339285917ff6391f5c32d9c69d2a47ea670b442974b53935d1edc7fd64eb21e047a839171b9190a45050565b61016054604051632474521560e21b8152600060048201523360248201526001600160a01b03909116906391d1485490604401602060405180830381865afa158015611b02573d6000803e3d6000fd5b505050506040513d601f19601f82011682018060405250810190611b26919061275d565b6109685760405162461bcd60e51b815260040161056c9061277a565b7f4910fdfa16fed3260ed0e7147f7cc6da11a60208b5b9406d12a635614ffd91435460ff1615611b755761080983611eda565b826001600160a01b03166352d1902d6040518163ffffffff1660e01b8152600401602060405180830381865afa925050508015611bcf575060408051601f3d908101601f19168201909252611bcc91810190612d1c565b60015b611c325760405162461bcd60e51b815260206004820152602e60248201527f45524331393637557067726164653a206e657720696d706c656d656e7461746960448201526d6f6e206973206e6f74205555505360901b606482015260840161056c565b600080516020612e808339815191528114611ca15760405162461bcd60e51b815260206004820152602960248201527f45524331393637557067726164653a20756e737570706f727465642070726f786044820152681a58589b195555525160ba1b606482015260840161056c565b50610809838383611f76565b60fb5460ff16611cf65760405162461bcd60e51b815260206004820152601460248201527314185d5cd8589b194e881b9bdd081c185d5cd95960621b604482015260640161056c565b60fb805460ff191690557f5db9ee0a495bf2e6ff9c91a7834c1ba4fdd244a5e8aa4e537bd38aeae4b073aa335b6040516001600160a01b03909116815260200160405180910390a1565b60fb5460ff1615611d635760405162461bcd60e51b815260040161056c9061280a565b60fb805460ff191660011790557f62e78cea01bee320cd4e420270b5ea74000d11b0c9f74754ebdbfc544b05a258611d233390565b60008054610100900460ff1615611ddf578160ff166001148015611dbb5750303b155b611dd75760405162461bcd60e51b815260040161056c90612d35565b506000919050565b60005460ff808416911610611e065760405162461bcd60e51b815260040161056c90612d35565b506000805460ff191660ff92909216919091179055600190565b600054610100900460ff16610a035760405162461bcd60e51b815260040161056c90612d83565b600054610100900460ff16611e6e5760405162461bcd60e51b815260040161056c90612d83565b610a03611f9b565b611e8082826116a8565b61088857611e98816001600160a01b03166014611fce565b611ea3836020611fce565b604051602001611eb4929190612dce565b60408051601f198184030181529082905262461bcd60e51b825261056c91600401612e43565b6001600160a01b0381163b611f475760405162461bcd60e51b815260206004820152602d60248201527f455243313936373a206e657720696d706c656d656e746174696f6e206973206e60448201526c1bdd08184818dbdb9d1c9858dd609a1b606482015260840161056c565b600080516020612e8083398151915280546001600160a01b0319166001600160a01b0392909216919091179055565b611f7f83612171565b600082511180611f8c5750805b15610809576105b883836121b1565b600054610100900460ff16611fc25760405162461bcd60e51b815260040161056c90612d83565b60fb805460ff19169055565b60606000611fdd8360026129ea565b611fe89060026129d2565b67ffffffffffffffff811115612000576120006123f8565b6040519080825280601f01601f19166020018201604052801561202a576020820181803683370190505b509050600360fc1b81600081518110612045576120456127a4565b60200101906001600160f81b031916908160001a905350600f60fb1b81600181518110612074576120746127a4565b60200101906001600160f81b031916908160001a90535060006120988460026129ea565b6120a39060016129d2565b90505b600181111561211b576f181899199a1a9b1b9c1cb0b131b232b360811b85600f16601081106120d7576120d76127a4565b1a60f81b8282815181106120ed576120ed6127a4565b60200101906001600160f81b031916908160001a90535060049490941c9361211481612e56565b90506120a6565b50831561216a5760405162461bcd60e51b815260206004820181905260248201527f537472696e67733a20686578206c656e67746820696e73756666696369656e74604482015260640161056c565b9392505050565b61217a81611eda565b6040516001600160a01b038216907fbc7cd75a20ee27fd9adebab32041f755214dbc6bffa90cc0225b39da2e5c2d3b90600090a250565b60606001600160a01b0383163b6122195760405162461bcd60e51b815260206004820152602660248201527f416464726573733a2064656c65676174652063616c6c20746f206e6f6e2d636f6044820152651b9d1c9858dd60d21b606482015260840161056c565b600080846001600160a01b0316846040516122349190612e6d565b600060405180830381855af49150503d806000811461226f576040519150601f19603f3d011682016040523d82523d6000602084013e612274565b606091505b509150915061229c8282604051806060016040528060278152602001612ea0602791396122a5565b95945050505050565b606083156122b457508161216a565b8251156122c45782518084602001fd5b8160405162461bcd60e51b815260040161056c9190612e43565b6000602082840312156122f057600080fd5b81356001600160e01b03198116811461216a57600080fd5b60006020828403121561231a57600080fd5b5035919050565b6000806020838503121561233457600080fd5b823567ffffffffffffffff8082111561234c57600080fd5b818501915085601f83011261236057600080fd5b81358181111561236f57600080fd5b8660208260051b850101111561238457600080fd5b60209290920196919550909350505050565b6001600160a01b038116811461096857600080fd5b600080604083850312156123be57600080fd5b8235915060208301356123d081612396565b809150509250929050565b6000602082840312156123ed57600080fd5b813561216a81612396565b634e487b7160e01b600052604160045260246000fd5b6000806040838503121561242157600080fd5b823561242c81612396565b9150602083013567ffffffffffffffff8082111561244957600080fd5b818501915085601f83011261245d57600080fd5b81358181111561246f5761246f6123f8565b604051601f8201601f19908116603f01168101908382118183101715612497576124976123f8565b816040528281528860208487010111156124b057600080fd5b8260208601602083013760006020848301015280955050505050509250929050565b60005b838110156124ed5781810151838201526020016124d5565b838111156105b85750506000910152565b600081518084526125168160208601602086016124d2565b601f01601f19169290920160200192915050565b6001600160a01b038b811682528a16602082015263ffffffff898116604083015288811660608301528716608082015285151560a082015260c0810185905260e0810184905261010081018390526101406101208201819052600090612592838201856124fe565b9d9c50505050505050505050505050565b600080604083850312156125b657600080fd5b50508035926020909101359150565b6000602082840312156125d757600080fd5b813567ffffffffffffffff8111156125ee57600080fd5b8201610140818503121561216a57600080fd5b6020815261261b6020820183516001600160a01b03169052565b6000602083015161263760408401826001600160a01b03169052565b50604083015163ffffffff8116606084015250606083015163ffffffff8116608084015250608083015163ffffffff811660a08401525060a083015180151560c08401525060c083015160e0838101919091528301516101008084019190915283015161012080840191909152830151610140808401526126bc6101608401826124fe565b949350505050565b63ffffffff8116811461096857600080fd5b6000806000606084860312156126eb57600080fd5b83359250602084013591506040840135612704816126c4565b809150509250925092565b60008060006060848603121561272457600080fd5b833561272f81612396565b9250602084013561273f81612396565b9150604084013561270481612396565b801515811461096857600080fd5b60006020828403121561276f57600080fd5b815161216a8161274f565b60208082526010908201526f41646d696e2063616c6c73206f6e6c7960801b604082015260600190565b634e487b7160e01b600052603260045260246000fd5b6000823561013e198336030181126127d157600080fd5b9190910192915050565b634e487b7160e01b600052601160045260246000fd5b600060018201612803576128036127db565b5060010190565b60208082526010908201526f14185d5cd8589b194e881c185d5cd95960821b604082015260600190565b60208082526017908201527f41756374696f6e20616c726561647920736574746c6564000000000000000000604082015260600190565b600181811c9082168061287f57607f821691505b60208210810361289f57634e487b7160e01b600052602260045260246000fd5b50919050565b60018060a01b038316815260006020604081840152600084546128c78161286b565b80604087015260606001808416600081146128e957600181146128fd5761292b565b60ff1985168984015260808901955061292b565b896000528660002060005b858110156129235781548b8201860152908301908801612908565b8a0184019650505b50939998505050505050505050565b6020808252602c908201527f46756e6374696f6e206d7573742062652063616c6c6564207468726f7567682060408201526b19195b1959d85d1958d85b1b60a21b606082015260800190565b6020808252602c908201527f46756e6374696f6e206d7573742062652063616c6c6564207468726f7567682060408201526b6163746976652070726f787960a01b606082015260800190565b600082198211156129e5576129e56127db565b500190565b6000816000190483118215151615612a0457612a046127db565b500290565b600082612a2657634e487b7160e01b600052601260045260246000fd5b500490565b600082821015612a3d57612a3d6127db565b500390565b600060208284031215612a5457600080fd5b813561216a816126c4565b600081356104d681612396565b600081356104d6816126c4565b600081356104d68161274f565b6000808335601e19843603018112612a9d57600080fd5b83018035915067ffffffffffffffff821115612ab857600080fd5b602001915036819003821315612acd57600080fd5b9250929050565b601f82111561080957600081815260208120601f850160051c81016020861015612afb5750805b601f850160051c820191505b81811015612b1a57828155600101612b07565b505050505050565b67ffffffffffffffff831115612b3a57612b3a6123f8565b612b4e83612b48835461286b565b83612ad4565b6000601f841160018114612b825760008515612b6a5750838201355b600019600387901b1c1916600186901b178355612bdc565b600083815260209020601f19861690835b82811015612bb35786850135825560209485019460019092019101612b93565b5086821015612bd05760001960f88860031b161c19848701351681555b505060018560011b0183555b5050505050565b612c0c612bef83612a5f565b82546001600160a01b0319166001600160a01b0391909116178255565b60018101612c1f612bef60208501612a5f565b612c52612c2e60408501612a6c565b82805463ffffffff60a01b191660a09290921b63ffffffff60a01b16919091179055565b612c85612c6160608501612a6c565b82805463ffffffff60c01b191660c09290921b63ffffffff60c01b16919091179055565b612cb8612c9460808501612a6c565b8280546001600160e01b031660e09290921b6001600160e01b031916919091179055565b50612ce1612cc860a08401612a79565b6002830160ff1981541660ff8315151681178255505050565b60c0820135600382015560e082013560048201556101008201356005820155612d0e610120830183612a86565b6105b8818360068601612b22565b600060208284031215612d2e57600080fd5b5051919050565b6020808252602e908201527f496e697469616c697a61626c653a20636f6e747261637420697320616c72656160408201526d191e481a5b9a5d1a585b1a5e995960921b606082015260800190565b6020808252602b908201527f496e697469616c697a61626c653a20636f6e7472616374206973206e6f74206960408201526a6e697469616c697a696e6760a81b606082015260800190565b7f416363657373436f6e74726f6c3a206163636f756e7420000000000000000000815260008351612e068160178501602088016124d2565b7001034b99036b4b9b9b4b733903937b6329607d1b6017918401918201528351612e378160288401602088016124d2565b01602801949350505050565b60208152600061216a60208301846124fe565b600081612e6557612e656127db565b506000190190565b600082516127d18184602087016124d256fe360894a13ba1a3210667c828492db98dca3e2076cc3735a920a3ca505d382bbc416464726573733a206c6f772d6c6576656c2064656c65676174652063616c6c206661696c6564a2646970667358221220faa0b60f6328127700ae44c2f71c46036374c0a819474f5b6b0eb5d8cef9181864736f6c634300080e0033496e697469616c697a61626c653a20636f6e747261637420697320616c726561",
  "linkReferences": {},
  "deployedLinkReferences": {}
}