{
  "_format": "hh-sol-artifact-1",
  "contractName": "Auction",
  "sourceName": "contracts/Auction/Auction.sol",
  "abi": [
    {
      "anonymous": false,
      "inputs": [
        {
          "indexed": false,
          "internalType": "address",
          "name": "previousAdmin",
          "type": "address"
        },
        {
          "indexed": false,
          "internalType": "address",
          "name": "newAdmin",
          "type": "address"
        }
      ],
      "name": "AdminChanged",
      "type": "event"
    },
    {
      "anonymous": false,
      "inputs": [
        {
          "indexed": false,
          "internalType": "uint256",
          "name": "auctionId",
          "type": "uint256"
        }
      ],
      "name": "AuctionCancelled",
      "type": "event"
    },
    {
      "anonymous": false,
      "inputs": [
        {
          "indexed": true,
          "internalType": "uint256",
          "name": "collectionId",
          "type": "uint256"
        },
        {
          "indexed": false,
          "internalType": "uint256",
          "name": "auctionId",
          "type": "uint256"
        },
        {
          "indexed": false,
          "internalType": "uint256",
          "name": "nftId",
          "type": "uint256"
        }
      ],
      "name": "AuctionCreated",
      "type": "event"
    },
    {
      "anonymous": false,
      "inputs": [
        {
          "indexed": true,
          "internalType": "uint256",
          "name": "auctionId",
          "type": "uint256"
        },
        {
          "indexed": true,
          "internalType": "address",
          "name": "highestBidder",
          "type": "address"
        },
        {
          "indexed": false,
          "internalType": "uint256",
          "name": "highestBid",
          "type": "uint256"
        }
      ],
      "name": "AuctionSettled",
      "type": "event"
    },
    {
      "anonymous": false,
      "inputs": [
        {
          "indexed": true,
          "internalType": "address",
          "name": "beacon",
          "type": "address"
        }
      ],
      "name": "BeaconUpgraded",
      "type": "event"
    },
    {
      "anonymous": false,
      "inputs": [
        {
          "indexed": true,
          "internalType": "uint256",
          "name": "auctionId",
          "type": "uint256"
        },
        {
          "indexed": true,
          "internalType": "address",
          "name": "bidder",
          "type": "address"
        },
        {
          "indexed": false,
          "internalType": "uint256",
          "name": "bidAmount",
          "type": "uint256"
        },
        {
          "indexed": false,
          "internalType": "uint256",
          "name": "newEndTime",
          "type": "uint256"
        }
      ],
      "name": "BidPlaced",
      "type": "event"
    },
    {
      "anonymous": false,
      "inputs": [
        {
          "indexed": false,
          "internalType": "uint8",
          "name": "version",
          "type": "uint8"
        }
      ],
      "name": "Initialized",
      "type": "event"
    },
    {
      "anonymous": false,
      "inputs": [
        {
          "indexed": false,
          "internalType": "address",
          "name": "account",
          "type": "address"
        }
      ],
      "name": "Paused",
      "type": "event"
    },
    {
      "anonymous": false,
      "inputs": [
        {
          "indexed": true,
          "internalType": "bytes32",
          "name": "role",
          "type": "bytes32"
        },
        {
          "indexed": true,
          "internalType": "bytes32",
          "name": "previousAdminRole",
          "type": "bytes32"
        },
        {
          "indexed": true,
          "internalType": "bytes32",
          "name": "newAdminRole",
          "type": "bytes32"
        }
      ],
      "name": "RoleAdminChanged",
      "type": "event"
    },
    {
      "anonymous": false,
      "inputs": [
        {
          "indexed": true,
          "internalType": "bytes32",
          "name": "role",
          "type": "bytes32"
        },
        {
          "indexed": true,
          "internalType": "address",
          "name": "account",
          "type": "address"
        },
        {
          "indexed": true,
          "internalType": "address",
          "name": "sender",
          "type": "address"
        }
      ],
      "name": "RoleGranted",
      "type": "event"
    },
    {
      "anonymous": false,
      "inputs": [
        {
          "indexed": true,
          "internalType": "bytes32",
          "name": "role",
          "type": "bytes32"
        },
        {
          "indexed": true,
          "internalType": "address",
          "name": "account",
          "type": "address"
        },
        {
          "indexed": true,
          "internalType": "address",
          "name": "sender",
          "type": "address"
        }
      ],
      "name": "RoleRevoked",
      "type": "event"
    },
    {
      "anonymous": false,
      "inputs": [
        {
          "indexed": false,
          "internalType": "address",
          "name": "account",
          "type": "address"
        }
      ],
      "name": "Unpaused",
      "type": "event"
    },
    {
      "anonymous": false,
      "inputs": [
        {
          "indexed": true,
          "internalType": "address",
          "name": "implementation",
          "type": "address"
        }
      ],
      "name": "Upgraded",
      "type": "event"
    },
    {
      "inputs": [],
      "name": "DEFAULT_ADMIN_ROLE",
      "outputs": [
        {
          "internalType": "bytes32",
          "name": "",
          "type": "bytes32"
        }
      ],
      "stateMutability": "view",
      "type": "function"
    },
    {
      "inputs": [
        {
          "internalType": "uint256",
          "name": "",
          "type": "uint256"
        }
      ],
      "name": "auctions",
      "outputs": [
        {
          "internalType": "address",
          "name": "highestBidder",
          "type": "address"
        },
        {
          "internalType": "contract INFT",
          "name": "nftContract",
          "type": "address"
        },
        {
          "internalType": "uint32",
          "name": "startTime",
          "type": "uint32"
        },
        {
          "internalType": "uint32",
          "name": "endTime",
          "type": "uint32"
        },
        {
          "internalType": "bool",
          "name": "settled",
          "type": "bool"
        },
        {
          "internalType": "uint256",
          "name": "collectionId",
          "type": "uint256"
        },
        {
          "internalType": "uint256",
          "name": "nftId",
          "type": "uint256"
        },
        {
          "internalType": "uint256",
          "name": "minimumPrice",
          "type": "uint256"
        },
        {
          "internalType": "uint256",
          "name": "highestBid",
          "type": "uint256"
        }
      ],
      "stateMutability": "view",
      "type": "function"
    },
    {
      "inputs": [
        {
          "internalType": "uint256",
          "name": "_auctionId",
          "type": "uint256"
        },
        {
          "internalType": "uint256",
          "name": "_amount",
          "type": "uint256"
        }
      ],
      "name": "bid",
      "outputs": [],
      "stateMutability": "nonpayable",
      "type": "function"
    },
    {
      "inputs": [],
      "name": "bidIncrementPercentage",
      "outputs": [
        {
          "internalType": "uint256",
          "name": "",
          "type": "uint256"
        }
      ],
      "stateMutability": "view",
      "type": "function"
    },
    {
      "inputs": [
        {
          "internalType": "uint256",
          "name": "_auctionId",
          "type": "uint256"
        }
      ],
      "name": "cancelAuction",
      "outputs": [],
      "stateMutability": "nonpayable",
      "type": "function"
    },
    {
      "inputs": [
        {
          "internalType": "uint256",
          "name": "_auctionId",
          "type": "uint256"
        },
        {
          "internalType": "uint256",
          "name": "_collectionId",
          "type": "uint256"
        },
        {
          "internalType": "uint256",
          "name": "_nftId",
          "type": "uint256"
        },
        {
          "internalType": "uint256",
          "name": "_minimumPrice",
          "type": "uint256"
        },
        {
          "internalType": "uint32",
          "name": "_startTime",
          "type": "uint32"
        },
        {
          "internalType": "uint32",
          "name": "_endTime",
          "type": "uint32"
        },
        {
          "internalType": "contract INFT",
          "name": "_nftContract",
          "type": "address"
        }
      ],
      "name": "createAuction",
      "outputs": [
        {
          "internalType": "uint256",
          "name": "auctionId",
          "type": "uint256"
        }
      ],
      "stateMutability": "nonpayable",
      "type": "function"
    },
    {
      "inputs": [],
      "name": "defaultTimeExtension",
      "outputs": [
        {
          "internalType": "uint256",
          "name": "",
          "type": "uint256"
        }
      ],
      "stateMutability": "view",
      "type": "function"
    },
    {
      "inputs": [
        {
          "internalType": "uint256",
          "name": "_auctionId",
          "type": "uint256"
        }
      ],
      "name": "getAuction",
      "outputs": [
        {
          "components": [
            {
              "internalType": "address",
              "name": "highestBidder",
              "type": "address"
            },
            {
              "internalType": "contract INFT",
              "name": "nftContract",
              "type": "address"
            },
            {
              "internalType": "uint32",
              "name": "startTime",
              "type": "uint32"
            },
            {
              "internalType": "uint32",
              "name": "endTime",
              "type": "uint32"
            },
            {
              "internalType": "bool",
              "name": "settled",
              "type": "bool"
            },
            {
              "internalType": "uint256",
              "name": "collectionId",
              "type": "uint256"
            },
            {
              "internalType": "uint256",
              "name": "nftId",
              "type": "uint256"
            },
            {
              "internalType": "uint256",
              "name": "minimumPrice",
              "type": "uint256"
            },
            {
              "internalType": "uint256",
              "name": "highestBid",
              "type": "uint256"
            }
          ],
          "internalType": "struct Auction.AuctionInfo",
          "name": "",
          "type": "tuple"
        }
      ],
      "stateMutability": "view",
      "type": "function"
    },
    {
      "inputs": [
        {
          "internalType": "bytes32",
          "name": "role",
          "type": "bytes32"
        }
      ],
      "name": "getRoleAdmin",
      "outputs": [
        {
          "internalType": "bytes32",
          "name": "",
          "type": "bytes32"
        }
      ],
      "stateMutability": "view",
      "type": "function"
    },
    {
      "inputs": [
        {
          "internalType": "bytes32",
          "name": "role",
          "type": "bytes32"
        },
        {
          "internalType": "address",
          "name": "account",
          "type": "address"
        }
      ],
      "name": "grantRole",
      "outputs": [],
      "stateMutability": "nonpayable",
      "type": "function"
    },
    {
      "inputs": [
        {
          "internalType": "bytes32",
          "name": "role",
          "type": "bytes32"
        },
        {
          "internalType": "address",
          "name": "account",
          "type": "address"
        }
      ],
      "name": "hasRole",
      "outputs": [
        {
          "internalType": "bool",
          "name": "",
          "type": "bool"
        }
      ],
      "stateMutability": "view",
      "type": "function"
    },
    {
      "inputs": [
        {
          "internalType": "address",
          "name": "_admin",
          "type": "address"
        },
        {
          "internalType": "uint256",
          "name": "_defaultTimeExtension",
          "type": "uint256"
        },
        {
          "internalType": "uint256",
          "name": "_bidIncrementPercentage",
          "type": "uint256"
        },
        {
          "internalType": "address",
          "name": "_token",
          "type": "address"
        }
      ],
      "name": "initialize",
      "outputs": [],
      "stateMutability": "nonpayable",
      "type": "function"
    },
    {
      "inputs": [],
      "name": "pause",
      "outputs": [],
      "stateMutability": "nonpayable",
      "type": "function"
    },
    {
      "inputs": [],
      "name": "paused",
      "outputs": [
        {
          "internalType": "bool",
          "name": "",
          "type": "bool"
        }
      ],
      "stateMutability": "view",
      "type": "function"
    },
    {
      "inputs": [],
      "name": "proxiableUUID",
      "outputs": [
        {
          "internalType": "bytes32",
          "name": "",
          "type": "bytes32"
        }
      ],
      "stateMutability": "view",
      "type": "function"
    },
    {
      "inputs": [
        {
          "internalType": "bytes32",
          "name": "role",
          "type": "bytes32"
        },
        {
          "internalType": "address",
          "name": "account",
          "type": "address"
        }
      ],
      "name": "renounceRole",
      "outputs": [],
      "stateMutability": "nonpayable",
      "type": "function"
    },
    {
      "inputs": [
        {
          "internalType": "bytes32",
          "name": "role",
          "type": "bytes32"
        },
        {
          "internalType": "address",
          "name": "account",
          "type": "address"
        }
      ],
      "name": "revokeRole",
      "outputs": [],
      "stateMutability": "nonpayable",
      "type": "function"
    },
    {
      "inputs": [
        {
          "internalType": "uint16",
          "name": "_bidIncrementPercentage",
          "type": "uint16"
        }
      ],
      "name": "setBidIncrementPercentage",
      "outputs": [],
      "stateMutability": "nonpayable",
      "type": "function"
    },
    {
      "inputs": [
        {
          "internalType": "uint16",
          "name": "_timeExtension",
          "type": "uint16"
        }
      ],
      "name": "setDefaultTimeExtension",
      "outputs": [],
      "stateMutability": "nonpayable",
      "type": "function"
    },
    {
      "inputs": [
        {
          "internalType": "address",
          "name": "_token",
          "type": "address"
        }
      ],
      "name": "setToken",
      "outputs": [],
      "stateMutability": "nonpayable",
      "type": "function"
    },
    {
      "inputs": [
        {
          "internalType": "uint256",
          "name": "_auctionId",
          "type": "uint256"
        }
      ],
      "name": "settleAuction",
      "outputs": [],
      "stateMutability": "nonpayable",
      "type": "function"
    },
    {
      "inputs": [
        {
          "internalType": "bytes4",
          "name": "interfaceId",
          "type": "bytes4"
        }
      ],
      "name": "supportsInterface",
      "outputs": [
        {
          "internalType": "bool",
          "name": "",
          "type": "bool"
        }
      ],
      "stateMutability": "view",
      "type": "function"
    },
    {
      "inputs": [],
      "name": "token",
      "outputs": [
        {
          "internalType": "contract IERC20",
          "name": "",
          "type": "address"
        }
      ],
      "stateMutability": "view",
      "type": "function"
    },
    {
      "inputs": [],
      "name": "unpause",
      "outputs": [],
      "stateMutability": "nonpayable",
      "type": "function"
    },
    {
      "inputs": [
        {
          "internalType": "uint256",
          "name": "_auctionId",
          "type": "uint256"
        },
        {
          "internalType": "uint256",
          "name": "_minimumPrice",
          "type": "uint256"
        },
        {
          "internalType": "uint32",
          "name": "_endTime",
          "type": "uint32"
        }
      ],
      "name": "updateAuction",
      "outputs": [],
      "stateMutability": "nonpayable",
      "type": "function"
    },
    {
      "inputs": [
        {
          "internalType": "address",
          "name": "newImplementation",
          "type": "address"
        }
      ],
      "name": "upgradeTo",
      "outputs": [],
      "stateMutability": "nonpayable",
      "type": "function"
    },
    {
      "inputs": [
        {
          "internalType": "address",
          "name": "newImplementation",
          "type": "address"
        },
        {
          "internalType": "bytes",
          "name": "data",
          "type": "bytes"
        }
      ],
      "name": "upgradeToAndCall",
      "outputs": [],
      "stateMutability": "payable",
      "type": "function"
    }
  ],
  "bytecode": "0x60a0806040523461003157306080526128b6908161003782396080518181816107ab01528181610c2d0152611ed10152f35b600080fdfe60806040526004361015610013575b600080fd5b60003560e01c806301ffc9a71461022f578063144fa6d714610226578063248a9ca31461021d5780632e993611146102145780632f2ff15d1461020b57806336568abe146102025780633659cfe6146101f95780633f4ba83a146101f057806341d47938146101e75780634f1ef286146101de57806352d1902d146101d5578063571a26a0146101cc578063598647f8146101c35780635c975abb146101ba57806378bd7935146101b15780638456cb59146101a85780638f8038421461019f57806391d148541461019657806396b5a7551461018d5780639e3d87cd14610184578063a217fddf1461017b578063c3c675bc14610172578063d2e30b2714610169578063d547741f14610160578063e9eace9114610157578063fc0c546a1461014e5763ff54a5ca1461014657600080fd5b61000e611645565b5061000e61161a565b5061000e6115fa565b5061000e6115b7565b5061000e611597565b5061000e611547565b5061000e61151e565b5061000e611422565b5061000e611310565b5061000e6112b9565b5061000e6111ee565b5061000e61116d565b5061000e611007565b5061000e610fe3565b5061000e610d89565b5061000e610cdf565b5061000e610c19565b5061000e610b9c565b5061000e61094a565b5061000e610858565b5061000e61077d565b5061000e6106e4565b5061000e610613565b5061000e610332565b5061000e610302565b5061000e610297565b503461000e57602036600319011261000e5760043563ffffffff60e01b811680910361000e57602090637965db0b60e01b8114908115610275575b506040519015158152f35b6301ffc9a760e01b1490503861026a565b6001600160a01b0381160361000e57565b503461000e57602036600319011261000e576004356102b581610286565b336000908152600080516020612841833981519152602052604090206102e09060ff905b5416612309565b61015f80546001600160a01b0319166001600160a01b03909216919091179055005b503461000e57602036600319011261000e5760043560005260656020526020600160406000200154604051908152f35b503461000e57602036600319011261000e5760043561035660ff60fb5416156124eb565b61036b81600052610160602052604060002090565b90600182019182549061038460ff8360e01c161561252a565b600581015481549092906103ad9063ffffffff906001600160a01b03169260c01c164211612576565b845460ff60e01b1916600160e01b1785556001600160a01b0381169485610405575b5050604051918252507fc9f72b276a388619c6d185d146697036241880c36654b1a3ffdad07c24038d999080602081015b0390a3005b805492939192610425906001600160a01b03165b6001600160a01b031690565b9260026003860154950190815494803b1561000e576104c8610400966105096020956104e6610419610567998b987fc9f72b276a388619c6d185d146697036241880c36654b1a3ffdad07c24038d999e604051809a8180946305661ce360e11b825260009d8e9d8e9d8e978894600485019160c0939160018060a01b03168352602083015260016040830152606082015260a06080820152600060a08201520190565b03925af18015610606575b6105ed575b50546001600160a01b031690565b905460405194858094819363d4e4d3dd60e01b8352600483019190602083019252565b03925af19081156105e0575b82916105ba575b5061015f54610533906001600160a01b0316610419565b60405163a9059cbb60e01b81526001600160a01b039092166004830152602482019390935293849291839182906044820190565b03925af180156105ad575b61057f575b8193506103cf565b61059f9060203d81116105a6575b6105978183610b40565b81019061238b565b5038610577565b503d61058d565b6105b5611a88565b610572565b6105d691503d8084833e6105ce8183610b40565b8101906125c2565b925050503861051c565b6105e8611a88565b610515565b806105fa61060092610b02565b8061084d565b386104d8565b61060e611a88565b6104d3565b503461000e5760408060031936011261000e576004359060243561063681610286565b600092808452606560205261065060018486200154611695565b808452606560209081528385206001600160a01b03841660009081529152604090205460ff161561068057505051f35b808452606560209081528385206001600160a01b0384166000908152915260409020805460ff19166001179055825133926001600160a01b031691907f2f8788117e7eff1d82e926ec794901d17c78024a50270940304540a733656f0d908690a451f35b503461000e57604036600319011261000e5760243561070281610286565b336001600160a01b038216036107205761071e906004356118ec565b005b60405162461bcd60e51b815260206004820152602f60248201527f416363657373436f6e74726f6c3a2063616e206f6e6c792072656e6f756e636560448201526e103937b632b9903337b91039b2b63360891b6064820152608490fd5b503461000e57602036600319011261000e5761071e60043561079e81610286565b6107f06001600160a01b037f00000000000000000000000000000000000000000000000000000000000000008116906107d93083141561197c565b6000805160206128618339815191525416146119dd565b336000908152600080516020612841833981519152602052604090206108189060ff906102d9565b604051906020820182811067ffffffffffffffff821117610840575b60405260008252611b42565b610848610aeb565b610834565b600091031261000e57565b503461000e5760008060031936011261090e57808052606560209081526040808320336000908152925290206108909060ff906102d9565b60fb5460ff8116156108d25760ff191660fb557f5db9ee0a495bf2e6ff9c91a7834c1ba4fdd244a5e8aa4e537bd38aeae4b073aa6020604051338152a1604051f35b60405162461bcd60e51b815260206004820152601460248201527314185d5cd8589b194e881b9bdd081c185d5cd95960621b6044820152606490fd5b80fd5b6084359063ffffffff8216820361000e57565b60a4359063ffffffff8216820361000e57565b6044359063ffffffff8216820361000e57565b503461000e5760e036600319011261000e576024357fd6eddd1118d71820909c1197aa966dbc15ed6f508554252169cc3d5ccac756ca604435600435610aa0610991610911565b610999610924565b90610a6660c435926109aa84610286565b336000908152600080516020612841833981519152602052604081209093610a59916109d89060ff906102d9565b6109ec63ffffffff80831690851611612348565b60405163185153c360e01b8152600481018c9052610a2c906020816024818a6001600160a01b038d165af1908115610ade575b8791610ac0575b506123a3565b610a4c610a37610b62565b8681526001600160a01b039097166020880152565b63ffffffff166040860152565b63ffffffff166060840152565b8060808301528660a08301528460c083015260643560e0830152610100820152610a9b83600052610160602052604060002090565b6123ef565b604080519182526020820192909252a260405160008152602090f35b0390f35b610ad8915060203d81116105a6576105978183610b40565b38610a26565b610ae6611a88565b610a1f565b50634e487b7160e01b600052604160045260246000fd5b67ffffffffffffffff8111610b1657604052565b610b1e610aeb565b604052565b610120810190811067ffffffffffffffff821117610b1657604052565b90601f8019910116810190811067ffffffffffffffff821117610b1657604052565b60405190610b6f82610b23565b565b60209067ffffffffffffffff8111610b8f575b601f01601f19160190565b610b97610aeb565b610b84565b50604036600319011261000e57600435610bb581610286565b6024359067ffffffffffffffff821161000e573660238301121561000e57816004013590610be282610b71565b91610bf06040519384610b40565b808352366024828601011161000e57602081600092602461071e97018387013784010152611ec7565b503461000e57600036600319011261000e577f00000000000000000000000000000000000000000000000000000000000000006001600160a01b03163003610c74576040516000805160206128618339815191528152602090f35b60405162461bcd60e51b815260206004820152603860248201527f555550535570677261646561626c653a206d757374206e6f742062652063616c60448201527f6c6564207468726f7567682064656c656761746563616c6c00000000000000006064820152608490fd5b503461000e57602036600319011261000e57600480356000908152610160602090815260409182902080546001820154600283015460038401549684015460059094015486516001600160a01b0394851681529383169584019590955263ffffffff60a083811c82169785019790975260c083811c909116606085015260ff60e093841c161515608085015295830152938101949094529183019190915261010082015261012090f35b503461000e57604036600319011261000e576004356024359061012d6002815414610f9e5760029055610dc160ff60fb5416156124eb565b7f51db8e23b3f4479b162fd48823b8402895442b8f6cfd94f66239391881ec7b6f610f1c610dfa83600052610160602052604060002090565b60018101908154918663ffffffff92610e2a60ff858760c01c1696610e20881515612650565b60e01c161561252a565b610e35428611612690565b81151580610f90575b610e47906126d0565b610eea6005820191610e7c610e74610e6c8554610e6661016254612060565b90612041565b612710900490565b85101561271c565b61015f54610e92906001600160a01b0316610419565b6040516323b872dd60e01b81523360048201523060248201526044810186905290602090829060649082906000905af18015610f83575b610f65575b50610ed88a61278f565b80546001600160a01b03191633179055565b556101615480610efa4286612778565b10610f2a575b5050604080519687526020870192909252503394918291820190565b0390a361071e600161012d55565b610f5d929350610f3a9042612077565b815463ffffffff60c01b191693811660c01b63ffffffff60c01b16939093179055565b388080610f00565b610f7c9060203d81116105a6576105978183610b40565b5038610ece565b610f8b611a88565b610ec9565b506004810154821015610e3e565b60405162461bcd60e51b815260206004820152601f60248201527f5265656e7472616e637947756172643a207265656e7472616e742063616c6c006044820152606490fd5b503461000e57600036600319011261000e57602060ff60fb54166040519015158152f35b503461000e57602036600319011261000e57610abc60405161102881610b23565b6040600080835280602084015280828401528060608401528060808401528060a08401528060c08401528060e08401528061010080940152600435815261016060205220906005611077610b62565b83546001600160a01b031681529260018101546001600160a01b038116602086015263ffffffff60a082901c8116604087015260c082901c1660608601526110c99060ff9060e01c1615156080860152565b600281015460a0850152600381015460c0850152600481015460e08501520154908201526040519182918281516001600160a01b0390811682526020808401519091169082015260408083015163ffffffff16908201526101208101929160608181015163ffffffff169083015260808181015115159083015260a081015160a083015260c081015160c083015260e081015160e083015261010080910151910152565b503461000e5760008060031936011261090e57808052606560209081526040808320336000908152925290206111a59060ff906102d9565b600160fb546111b760ff8216156124eb565b60ff19161760fb557f62e78cea01bee320cd4e420270b5ea74000d11b0c9f74754ebdbfc544b05a2586020604051338152a1604051f35b503461000e57606036600319011261000e576004356112b461120e610937565b336000908152600080516020612841833981519152602052604081209093906112399060ff906102d9565b808452610160908160205261125b60ff600160408820015460e01c161561252a565b8085528160205261127d63ffffffff600160408820015460c01c161515612650565b8452602052604083206024356004820155600101805463ffffffff60c01b191660c09290921b63ffffffff60c01b16919091179055565b604051f35b503461000e57604036600319011261000e57602060ff6113046024356112de81610286565b6004356000526065845260406000209060018060a01b0316600052602052604060002090565b54166040519015158152f35b503461000e57602036600319011261000e57336000908152600080516020612841833981519152602052604081206004359061134e9060ff906102d9565b80825261016060205260ff600160408420015460e01c166113dd576113d5816113977f2809c7e17bf978fbc7194c0a694b638c4215e9140cacc6c38ca36010b45697df9361278f565b6113c560016113b183600052610160602052604060002090565b01805460ff60e01b1916600160e01b179055565b6040519081529081906020820190565b0390a1604051f35b60405162461bcd60e51b815260206004820152601b60248201527f41756374696f6e20697320616c72656164792066696e697368656400000000006044820152606490fd5b503461000e57608036600319011261000e5760043561144081610286565b60643561144c81610286565b6114976114576122c9565b928361150a575b611466612255565b61148060ff60005460081c1661147b816121f5565b6121f5565b60ff1960fb541660fb55611492612255565b611856565b602435610161556044356101625561015f80546001600160a01b0319166001600160a01b039092169190911790556114cb57005b6114db61ff001960005416600055565b604051600181527f7f26b83ff96e1f2b6a682f133852f6798a09c465da95921460cefb384740249890602090a1005b61010061ff0019600054161760005561145e565b503461000e57600036600319011261000e57602060405160008152f35b61ffff81160361000e57565b503461000e57602036600319011261000e5761ffff6004356115688161153b565b336000908152600080516020612841833981519152602052604090206115909060ff906102d9565b1661016255005b503461000e57600036600319011261000e57602061016254604051908152f35b503461000e57604036600319011261000e5761071e6024356004356115db82610286565b8060005260656020526115f5600160406000200154611695565b6118ec565b503461000e57600036600319011261000e57602061016154604051908152f35b503461000e57600036600319011261000e5761015f546040516001600160a01b039091168152602090f35b503461000e57602036600319011261000e5761ffff6004356116668161153b565b3360009081526000805160206128418339815191526020526040902061168e9060ff906102d9565b1661016155005b600081815260656020908152604080832033845290915290205460ff16156116ba5750565b33906116c4611a3e565b9160306116d08461209a565b5360786116dc846120b0565b5360295b6001811161178f5761178b611748611773866117656117088861170389156120fb565b612146565b611742604051958694611742602087016017907f416363657373436f6e74726f6c3a206163636f756e742000000000000000000081520190565b90611813565b7001034b99036b4b9b9b4b733903937b6329607d1b815260110190565b03601f198101835282610b40565b60405162461bcd60e51b81529182916004830161182a565b0390fd5b9080600f6117cc921660108110156117d1575b6f181899199a1a9b1b9c1cb0b131b232b360811b901a6117c284876120c1565b5360041c916120e0565b6116e0565b6117d9612083565b6117a2565b918091926000905b8282106117fe5750116117f7575050565b6000910152565b915080602091830151818601520182916117e6565b90611826602092828151948592016117de565b0190565b6040916020825261184a81518092816020860152602086860191016117de565b601f01601f1916010190565b6001600160a01b0381166000908152600080516020612841833981519152602052604081205460ff1615611888575050565b8080526065602090815260408083206001600160a01b038516600090815292529020805460ff1916600117905560405133926001600160a01b031691907f2f8788117e7eff1d82e926ec794901d17c78024a50270940304540a733656f0d908290a4565b60008181526065602090815260408083206001600160a01b038616845290915290205460ff1661191a575050565b60008181526065602090815260408083206001600160a01b03861684529091529020805460ff1916905560405133926001600160a01b031691907ff6391f5c32d9c69d2a47ea670b442974b53935d1edc7fd64eb21e047a839171b90600090a4565b1561198357565b60405162461bcd60e51b815260206004820152602c60248201527f46756e6374696f6e206d7573742062652063616c6c6564207468726f7567682060448201526b19195b1959d85d1958d85b1b60a21b6064820152608490fd5b156119e457565b60405162461bcd60e51b815260206004820152602c60248201527f46756e6374696f6e206d7573742062652063616c6c6564207468726f7567682060448201526b6163746976652070726f787960a01b6064820152608490fd5b604051906060820182811067ffffffffffffffff821117611a6c575b604052602a8252604082602036910137565b611a74610aeb565b611a5a565b9081602091031261000e575190565b506040513d6000823e3d90fd5b15611a9c57565b60405162461bcd60e51b815260206004820152602960248201527f45524331393637557067726164653a20756e737570706f727465642070726f786044820152681a58589b195555525160ba1b6064820152608490fd5b60809060208152602e60208201527f45524331393637557067726164653a206e657720696d706c656d656e7461746960408201526d6f6e206973206e6f74205555505360901b60608201520190565b90611b6e7f4910fdfa16fed3260ed0e7147f7cc6da11a60208b5b9406d12a635614ffd91435460ff1690565b15611b7d5750610b6f90611c15565b6040516352d1902d60e01b8152916020836004816001600160a01b0385165afa60009381611be5575b50611bc45760405162461bcd60e51b81528061178b60048201611af3565b611be0600080516020612861833981519152610b6f9414611a95565b611ca5565b611c0791945060203d8111611c0e575b611bff8183610b40565b810190611a79565b9238611ba6565b503d611bf5565b803b15611c4a5760008051602061286183398151915280546001600160a01b0319166001600160a01b03909216919091179055565b60405162461bcd60e51b815260206004820152602d60248201527f455243313936373a206e657720696d706c656d656e746174696f6e206973206e60448201526c1bdd08184818dbdb9d1c9858dd609a1b6064820152608490fd5b90611caf82611c15565b604051600092906001600160a01b0382167fbc7cd75a20ee27fd9adebab32041f755214dbc6bffa90cc0225b39da2e5c2d3b8583a2825115801590611dae575b611cfa575b50505050565b813b15611d5d5750918082611d4b9460208395519201905af4903d15611d55573d611d2481610b71565b90611d326040519283610b40565b8152809160203d92013e5b611d45611e5f565b91611ff2565b5038808080611cf4565b506060611d3d565b62461bcd60e51b815260206004820152602660248201527f416464726573733a2064656c65676174652063616c6c20746f206e6f6e2d636f6044820152651b9d1c9858dd60d21b6064820152608490fd5b5083611cef565b611dbe81611c15565b6040516001600160a01b0382167fbc7cd75a20ee27fd9adebab32041f755214dbc6bffa90cc0225b39da2e5c2d3b600083a2825115801590611e57575b611e0457505050565b813b15611d5d575060008281926020611e4d95519201905af43d15611e50573d611e2d81610b71565b90611e3b6040519283610b40565b81523d6000602083013e611d45611e5f565b50565b6060611d3d565b506001611dfb565b604051906060820182811067ffffffffffffffff821117611eba575b60405260278252660819985a5b195960ca1b6040837f416464726573733a206c6f772d6c6576656c2064656c65676174652063616c6c60208201520152565b611ec2610aeb565b611e7b565b6001600160a01b037f000000000000000000000000000000000000000000000000000000000000000081169290611f003085141561197c565b611f1d6000805160206128618339815191529482865416146119dd565b33600090815260008051602061284183398151915260205260409020611f459060ff906102d9565b7f4910fdfa16fed3260ed0e7147f7cc6da11a60208b5b9406d12a635614ffd91435460ff1615611f7b575050610b6f9150611c15565b6020600491604094939451928380926352d1902d60e01b825286165afa60009181611fd2575b50611fbf5760405162461bcd60e51b81528061178b60048201611af3565b610b6f93611fcd9114611a95565b611db5565b611feb91925060203d8111611c0e57611bff8183610b40565b9038611fa1565b90919015611ffe575090565b81511561200e5750805190602001fd5b60405162461bcd60e51b815290819061178b906004830161182a565b50634e487b7160e01b600052601160045260246000fd5b8060001904821181151516612054570290565b61205c61202a565b0290565b6127108119811161206f570190565b61182661202a565b8119811161206f570190565b50634e487b7160e01b600052603260045260246000fd5b6020908051156120a8570190565b611826612083565b6021908051600110156120a8570190565b9060209180518210156120d357010190565b6120db612083565b010190565b80156120ee575b6000190190565b6120f661202a565b6120e7565b1561210257565b606460405162461bcd60e51b815260206004820152602060248201527f537472696e67733a20686578206c656e67746820696e73756666696369656e746044820152fd5b604051906080820182811067ffffffffffffffff8211176121e8575b604052604282526060366020840137603061217c8361209a565b536078612188836120b0565b536041905b600182116121a3576121a09150156120fb565b90565b80600f6121d5921660108110156121db575b6f181899199a1a9b1b9c1cb0b131b232b360811b901a6117c284866120c1565b9061218d565b6121e3612083565b6121b5565b6121f0610aeb565b612162565b156121fc57565b60405162461bcd60e51b815260206004820152602b60248201527f496e697469616c697a61626c653a20636f6e7472616374206973206e6f74206960448201526a6e697469616c697a696e6760a81b6064820152608490fd5b610b6f60ff60005460081c166121f5565b1561226d57565b60405162461bcd60e51b815260206004820152602e60248201527f496e697469616c697a61626c653a20636f6e747261637420697320616c72656160448201526d191e481a5b9a5d1a585b1a5e995960921b6064820152608490fd5b60005460ff8160081c166000146122eb57506122e6303b15612266565b600090565b806122fc600160ff81941610612266565b60ff191617600055600190565b1561231057565b60405162461bcd60e51b815260206004820152601060248201526f41646d696e2063616c6c73206f6e6c7960801b6044820152606490fd5b1561234f57565b60405162461bcd60e51b8152602060048201526014602482015273496e76616c69642061756374696f6e2074696d6560601b6044820152606490fd5b9081602091031261000e5751801515810361000e5790565b156123aa57565b60405162461bcd60e51b815260206004820152601960248201527f436f6c6c656374696f6e20646f6573206e6f74206578697374000000000000006044820152606490fd5b815181546001600160a01b0319166001600160a01b03909116178155906005906101009060208101516001850180546001600160a01b0319166001600160a01b039092169190911781556124c690612471612451604085015163ffffffff1690565b825463ffffffff60a01b191660a09190911b63ffffffff60a01b16178255565b6124a5612485606085015163ffffffff1690565b825463ffffffff60c01b191660c09190911b63ffffffff60c01b16178255565b60808301511515815460ff60e01b191690151560e01b60ff60e01b16179055565b60a0810151600285015560c0810151600385015560e081015160048501550151910155565b156124f257565b60405162461bcd60e51b815260206004820152601060248201526f14185d5cd8589b194e881c185d5cd95960821b6044820152606490fd5b1561253157565b60405162461bcd60e51b815260206004820152601760248201527f41756374696f6e20616c726561647920736574746c65640000000000000000006044820152606490fd5b1561257d57565b60405162461bcd60e51b815260206004820152601860248201527f41756374696f6e206973207374696c6c2072756e6e696e6700000000000000006044820152606490fd5b60808183031261000e5780516125d781610286565b9260208201516125e68161153b565b92604083015167ffffffffffffffff811161000e5783019080601f8301121561000e5781519161261583610b71565b916126236040519384610b40565b8383526020848301011161000e5760609261264491602080850191016117de565b9201516121a081610286565b1561265757565b60405162461bcd60e51b8152602060048201526011602482015270105d58dd1a5bdb881b9bdd08199bdd5b99607a1b6044820152606490fd5b1561269757565b60405162461bcd60e51b8152602060048201526011602482015270105d58dd1a5bdb881a185cc8195b991959607a1b6044820152606490fd5b156126d757565b60405162461bcd60e51b815260206004820152601960248201527f426964206973206c6f776572207468616e206d696e696d756d000000000000006044820152606490fd5b1561272357565b60405162461bcd60e51b815260206004820152602760248201527f426964206973206c6f776572207468616e20686967686573742062696420696e60448201526618dc995b595b9d60ca1b6064820152608490fd5b818110612783570390565b61278b61202a565b0390565b6127a490600052610160602052604060002090565b80546005820180546001600160a01b03198316909355600090556001600160a01b0390811691826127d457505050565b61015f5460405163a9059cbb60e01b81526001600160a01b03949094166004850152602484019190915260209183916044918391600091165af18015612833575b61281c5750565b611e4d9060203d81116105a6576105978183610b40565b61283b611a88565b61281556feffdfc1249c027f9191656349feb0761381bb32c9f557e01f419fd08754bf5a1b360894a13ba1a3210667c828492db98dca3e2076cc3735a920a3ca505d382bbca26469706673582212205c625912f5ede27d2561b6c0c3c082b5777b4a43aabcfae3db8f16f24dee408a64736f6c634300080e0033",
  "linkReferences": {},
  "deployedLinkReferences": {}
}