{
  "_format": "hh-sol-artifact-1",
  "contractName": "Auction",
  "sourceName": "contracts/Auction/Auction.sol",
  "abi": [
    {
      "inputs": [],
      "stateMutability": "nonpayable",
      "type": "constructor"
    },
    {
      "anonymous": false,
      "inputs": [
        {
          "indexed": false,
          "internalType": "address",
          "name": "previousAdmin",
          "type": "address"
        },
        {
          "indexed": false,
          "internalType": "address",
          "name": "newAdmin",
          "type": "address"
        }
      ],
      "name": "AdminChanged",
      "type": "event"
    },
    {
      "anonymous": false,
      "inputs": [
        {
          "indexed": true,
          "internalType": "uint256",
          "name": "auctionId",
          "type": "uint256"
        },
        {
          "indexed": true,
          "internalType": "address",
          "name": "previousBidder",
          "type": "address"
        }
      ],
      "name": "AuctionCancelled",
      "type": "event"
    },
    {
      "anonymous": false,
      "inputs": [
        {
          "indexed": false,
          "internalType": "uint256",
          "name": "auctionId",
          "type": "uint256"
        },
        {
          "indexed": false,
          "internalType": "address",
          "name": "nftContract",
          "type": "address"
        }
      ],
      "name": "AuctionCreated",
      "type": "event"
    },
    {
      "anonymous": false,
      "inputs": [
        {
          "indexed": true,
          "internalType": "uint256",
          "name": "auctionId",
          "type": "uint256"
        },
        {
          "indexed": true,
          "internalType": "address",
          "name": "highestBidder",
          "type": "address"
        },
        {
          "indexed": false,
          "internalType": "uint256",
          "name": "highestBid",
          "type": "uint256"
        }
      ],
      "name": "AuctionSettled",
      "type": "event"
    },
    {
      "anonymous": false,
      "inputs": [
        {
          "indexed": true,
          "internalType": "address",
          "name": "beacon",
          "type": "address"
        }
      ],
      "name": "BeaconUpgraded",
      "type": "event"
    },
    {
      "anonymous": false,
      "inputs": [
        {
          "indexed": true,
          "internalType": "uint256",
          "name": "auctionId",
          "type": "uint256"
        },
        {
          "indexed": true,
          "internalType": "address",
          "name": "newBidder",
          "type": "address"
        },
        {
          "indexed": true,
          "internalType": "address",
          "name": "previousBidder",
          "type": "address"
        },
        {
          "indexed": false,
          "internalType": "uint256",
          "name": "bidAmount",
          "type": "uint256"
        },
        {
          "indexed": false,
          "internalType": "uint256",
          "name": "newEndTime",
          "type": "uint256"
        }
      ],
      "name": "BidPlaced",
      "type": "event"
    },
    {
      "anonymous": false,
      "inputs": [
        {
          "indexed": false,
          "internalType": "uint8",
          "name": "version",
          "type": "uint8"
        }
      ],
      "name": "Initialized",
      "type": "event"
    },
    {
      "anonymous": false,
      "inputs": [
        {
          "indexed": false,
          "internalType": "address",
          "name": "account",
          "type": "address"
        }
      ],
      "name": "Paused",
      "type": "event"
    },
    {
      "anonymous": false,
      "inputs": [
        {
          "indexed": true,
          "internalType": "bytes32",
          "name": "role",
          "type": "bytes32"
        },
        {
          "indexed": true,
          "internalType": "bytes32",
          "name": "previousAdminRole",
          "type": "bytes32"
        },
        {
          "indexed": true,
          "internalType": "bytes32",
          "name": "newAdminRole",
          "type": "bytes32"
        }
      ],
      "name": "RoleAdminChanged",
      "type": "event"
    },
    {
      "anonymous": false,
      "inputs": [
        {
          "indexed": true,
          "internalType": "bytes32",
          "name": "role",
          "type": "bytes32"
        },
        {
          "indexed": true,
          "internalType": "address",
          "name": "account",
          "type": "address"
        },
        {
          "indexed": true,
          "internalType": "address",
          "name": "sender",
          "type": "address"
        }
      ],
      "name": "RoleGranted",
      "type": "event"
    },
    {
      "anonymous": false,
      "inputs": [
        {
          "indexed": true,
          "internalType": "bytes32",
          "name": "role",
          "type": "bytes32"
        },
        {
          "indexed": true,
          "internalType": "address",
          "name": "account",
          "type": "address"
        },
        {
          "indexed": true,
          "internalType": "address",
          "name": "sender",
          "type": "address"
        }
      ],
      "name": "RoleRevoked",
      "type": "event"
    },
    {
      "anonymous": false,
      "inputs": [
        {
          "indexed": false,
          "internalType": "address",
          "name": "account",
          "type": "address"
        }
      ],
      "name": "Unpaused",
      "type": "event"
    },
    {
      "anonymous": false,
      "inputs": [
        {
          "indexed": true,
          "internalType": "address",
          "name": "implementation",
          "type": "address"
        }
      ],
      "name": "Upgraded",
      "type": "event"
    },
    {
      "inputs": [],
      "name": "DEFAULT_ADMIN_ROLE",
      "outputs": [
        {
          "internalType": "bytes32",
          "name": "",
          "type": "bytes32"
        }
      ],
      "stateMutability": "view",
      "type": "function"
    },
    {
      "inputs": [],
      "name": "DEFAULT_EXTENSION",
      "outputs": [
        {
          "internalType": "uint256",
          "name": "",
          "type": "uint256"
        }
      ],
      "stateMutability": "view",
      "type": "function"
    },
    {
      "inputs": [
        {
          "internalType": "uint256",
          "name": "",
          "type": "uint256"
        }
      ],
      "name": "auctions",
      "outputs": [
        {
          "internalType": "address",
          "name": "highestBidder",
          "type": "address"
        },
        {
          "internalType": "contract INFT",
          "name": "nftContract",
          "type": "address"
        },
        {
          "internalType": "uint32",
          "name": "startTime",
          "type": "uint32"
        },
        {
          "internalType": "uint32",
          "name": "endTime",
          "type": "uint32"
        },
        {
          "internalType": "uint32",
          "name": "duration",
          "type": "uint32"
        },
        {
          "internalType": "bool",
          "name": "settled",
          "type": "bool"
        },
        {
          "internalType": "uint256",
          "name": "minimumPrice",
          "type": "uint256"
        },
        {
          "internalType": "uint256",
          "name": "highestBid",
          "type": "uint256"
        },
        {
          "internalType": "uint256",
          "name": "auctionId",
          "type": "uint256"
        },
        {
          "internalType": "string",
          "name": "nftUri",
          "type": "string"
        }
      ],
      "stateMutability": "view",
      "type": "function"
    },
    {
      "inputs": [
        {
          "internalType": "uint256",
          "name": "_auctionId",
          "type": "uint256"
        },
        {
          "internalType": "uint256",
          "name": "_amount",
          "type": "uint256"
        }
      ],
      "name": "bid",
      "outputs": [],
      "stateMutability": "nonpayable",
      "type": "function"
    },
    {
      "inputs": [
        {
          "internalType": "uint256",
          "name": "_auctionId",
          "type": "uint256"
        }
      ],
      "name": "cancelAuction",
      "outputs": [],
      "stateMutability": "nonpayable",
      "type": "function"
    },
    {
      "inputs": [
        {
          "components": [
            {
              "internalType": "address",
              "name": "highestBidder",
              "type": "address"
            },
            {
              "internalType": "contract INFT",
              "name": "nftContract",
              "type": "address"
            },
            {
              "internalType": "uint32",
              "name": "startTime",
              "type": "uint32"
            },
            {
              "internalType": "uint32",
              "name": "endTime",
              "type": "uint32"
            },
            {
              "internalType": "uint32",
              "name": "duration",
              "type": "uint32"
            },
            {
              "internalType": "bool",
              "name": "settled",
              "type": "bool"
            },
            {
              "internalType": "uint256",
              "name": "minimumPrice",
              "type": "uint256"
            },
            {
              "internalType": "uint256",
              "name": "highestBid",
              "type": "uint256"
            },
            {
              "internalType": "uint256",
              "name": "auctionId",
              "type": "uint256"
            },
            {
              "internalType": "string",
              "name": "nftUri",
              "type": "string"
            }
          ],
          "internalType": "struct Auction.AuctionInfo",
          "name": "_auctionInfo",
          "type": "tuple"
        }
      ],
      "name": "createAuction",
      "outputs": [],
      "stateMutability": "nonpayable",
      "type": "function"
    },
    {
      "inputs": [
        {
          "components": [
            {
              "internalType": "address",
              "name": "highestBidder",
              "type": "address"
            },
            {
              "internalType": "contract INFT",
              "name": "nftContract",
              "type": "address"
            },
            {
              "internalType": "uint32",
              "name": "startTime",
              "type": "uint32"
            },
            {
              "internalType": "uint32",
              "name": "endTime",
              "type": "uint32"
            },
            {
              "internalType": "uint32",
              "name": "duration",
              "type": "uint32"
            },
            {
              "internalType": "bool",
              "name": "settled",
              "type": "bool"
            },
            {
              "internalType": "uint256",
              "name": "minimumPrice",
              "type": "uint256"
            },
            {
              "internalType": "uint256",
              "name": "highestBid",
              "type": "uint256"
            },
            {
              "internalType": "uint256",
              "name": "auctionId",
              "type": "uint256"
            },
            {
              "internalType": "string",
              "name": "nftUri",
              "type": "string"
            }
          ],
          "internalType": "struct Auction.AuctionInfo[]",
          "name": "_auctions",
          "type": "tuple[]"
        }
      ],
      "name": "createAuctionBatch",
      "outputs": [],
      "stateMutability": "nonpayable",
      "type": "function"
    },
    {
      "inputs": [],
      "name": "erc20",
      "outputs": [
        {
          "internalType": "contract IERC20",
          "name": "",
          "type": "address"
        }
      ],
      "stateMutability": "view",
      "type": "function"
    },
    {
      "inputs": [
        {
          "internalType": "uint256",
          "name": "_auctionId",
          "type": "uint256"
        }
      ],
      "name": "getAuction",
      "outputs": [
        {
          "components": [
            {
              "internalType": "address",
              "name": "highestBidder",
              "type": "address"
            },
            {
              "internalType": "contract INFT",
              "name": "nftContract",
              "type": "address"
            },
            {
              "internalType": "uint32",
              "name": "startTime",
              "type": "uint32"
            },
            {
              "internalType": "uint32",
              "name": "endTime",
              "type": "uint32"
            },
            {
              "internalType": "uint32",
              "name": "duration",
              "type": "uint32"
            },
            {
              "internalType": "bool",
              "name": "settled",
              "type": "bool"
            },
            {
              "internalType": "uint256",
              "name": "minimumPrice",
              "type": "uint256"
            },
            {
              "internalType": "uint256",
              "name": "highestBid",
              "type": "uint256"
            },
            {
              "internalType": "uint256",
              "name": "auctionId",
              "type": "uint256"
            },
            {
              "internalType": "string",
              "name": "nftUri",
              "type": "string"
            }
          ],
          "internalType": "struct Auction.AuctionInfo",
          "name": "",
          "type": "tuple"
        }
      ],
      "stateMutability": "view",
      "type": "function"
    },
    {
      "inputs": [],
      "name": "getBidIncrementPercentage",
      "outputs": [
        {
          "internalType": "uint256",
          "name": "",
          "type": "uint256"
        }
      ],
      "stateMutability": "view",
      "type": "function"
    },
    {
      "inputs": [
        {
          "internalType": "bytes32",
          "name": "role",
          "type": "bytes32"
        }
      ],
      "name": "getRoleAdmin",
      "outputs": [
        {
          "internalType": "bytes32",
          "name": "",
          "type": "bytes32"
        }
      ],
      "stateMutability": "view",
      "type": "function"
    },
    {
      "inputs": [
        {
          "internalType": "bytes32",
          "name": "role",
          "type": "bytes32"
        },
        {
          "internalType": "address",
          "name": "account",
          "type": "address"
        }
      ],
      "name": "grantRole",
      "outputs": [],
      "stateMutability": "nonpayable",
      "type": "function"
    },
    {
      "inputs": [
        {
          "internalType": "bytes32",
          "name": "role",
          "type": "bytes32"
        },
        {
          "internalType": "address",
          "name": "account",
          "type": "address"
        }
      ],
      "name": "hasRole",
      "outputs": [
        {
          "internalType": "bool",
          "name": "",
          "type": "bool"
        }
      ],
      "stateMutability": "view",
      "type": "function"
    },
    {
      "inputs": [
        {
          "internalType": "address",
          "name": "_admin",
          "type": "address"
        },
        {
          "internalType": "uint256",
          "name": "_bidIncrementPercentage",
          "type": "uint256"
        },
        {
          "internalType": "address",
          "name": "_token",
          "type": "address"
        },
        {
          "internalType": "address",
          "name": "_storage",
          "type": "address"
        }
      ],
      "name": "initialize",
      "outputs": [],
      "stateMutability": "nonpayable",
      "type": "function"
    },
    {
      "inputs": [],
      "name": "pause",
      "outputs": [],
      "stateMutability": "nonpayable",
      "type": "function"
    },
    {
      "inputs": [],
      "name": "paused",
      "outputs": [
        {
          "internalType": "bool",
          "name": "",
          "type": "bool"
        }
      ],
      "stateMutability": "view",
      "type": "function"
    },
    {
      "inputs": [],
      "name": "proxiableUUID",
      "outputs": [
        {
          "internalType": "bytes32",
          "name": "",
          "type": "bytes32"
        }
      ],
      "stateMutability": "view",
      "type": "function"
    },
    {
      "inputs": [
        {
          "internalType": "bytes32",
          "name": "role",
          "type": "bytes32"
        },
        {
          "internalType": "address",
          "name": "account",
          "type": "address"
        }
      ],
      "name": "renounceRole",
      "outputs": [],
      "stateMutability": "nonpayable",
      "type": "function"
    },
    {
      "inputs": [
        {
          "internalType": "bytes32",
          "name": "role",
          "type": "bytes32"
        },
        {
          "internalType": "address",
          "name": "account",
          "type": "address"
        }
      ],
      "name": "revokeRole",
      "outputs": [],
      "stateMutability": "nonpayable",
      "type": "function"
    },
    {
      "inputs": [
        {
          "internalType": "uint16",
          "name": "_bidIncrementPercentage",
          "type": "uint16"
        }
      ],
      "name": "setBidIncrementPercentage",
      "outputs": [],
      "stateMutability": "nonpayable",
      "type": "function"
    },
    {
      "inputs": [
        {
          "internalType": "uint256",
          "name": "_auctionId",
          "type": "uint256"
        }
      ],
      "name": "settleAuction",
      "outputs": [],
      "stateMutability": "nonpayable",
      "type": "function"
    },
    {
      "inputs": [
        {
          "internalType": "bytes4",
          "name": "interfaceId",
          "type": "bytes4"
        }
      ],
      "name": "supportsInterface",
      "outputs": [
        {
          "internalType": "bool",
          "name": "",
          "type": "bool"
        }
      ],
      "stateMutability": "view",
      "type": "function"
    },
    {
      "inputs": [],
      "name": "unpause",
      "outputs": [],
      "stateMutability": "nonpayable",
      "type": "function"
    },
    {
      "inputs": [
        {
          "internalType": "uint256",
          "name": "_auctionId",
          "type": "uint256"
        },
        {
          "internalType": "uint256",
          "name": "_minimumPrice",
          "type": "uint256"
        },
        {
          "internalType": "uint32",
          "name": "_endTime",
          "type": "uint32"
        }
      ],
      "name": "updateAuction",
      "outputs": [],
      "stateMutability": "nonpayable",
      "type": "function"
    },
    {
      "inputs": [
        {
          "internalType": "address",
          "name": "newImplementation",
          "type": "address"
        }
      ],
      "name": "upgradeTo",
      "outputs": [],
      "stateMutability": "nonpayable",
      "type": "function"
    },
    {
      "inputs": [
        {
          "internalType": "address",
          "name": "newImplementation",
          "type": "address"
        },
        {
          "internalType": "bytes",
          "name": "data",
          "type": "bytes"
        }
      ],
      "name": "upgradeToAndCall",
      "outputs": [],
      "stateMutability": "payable",
      "type": "function"
    }
  ],
  "bytecode": "0x60a0604052306080523480156200001557600080fd5b506200002062000026565b62000156565b6200003260ff62000035565b50565b60008054610100900460ff1615620000ce578160ff1660011480156200006e57506200006c306200014760201b62001a911760201c565b155b620000c65760405162461bcd60e51b815260206004820152602e6024820152600080516020620031a583398151915260448201526d191e481a5b9a5d1a585b1a5e995960921b60648201526084015b60405180910390fd5b506000919050565b60005460ff8084169116106200012d5760405162461bcd60e51b815260206004820152602e6024820152600080516020620031a583398151915260448201526d191e481a5b9a5d1a585b1a5e995960921b6064820152608401620000bd565b506000805460ff191660ff92909216919091179055600190565b6001600160a01b03163b151590565b6080516130176200018e6000396000818161099f015281816109df01528181610b1801528181610b580152610be701526130176000f3fe6080604052600436106101815760003560e01c8063598647f8116100d15780638f8038421161008a578063a217fddf11610064578063a217fddf14610477578063a473205c1461048c578063c3c675bc146104a2578063d547741f146104c257600080fd5b80638f8038421461041757806391d148541461043757806396b5a7551461045757600080fd5b8063598647f8146103445780635c975abb146103645780635e6c1d631461037c578063785e9e861461039c57806378bd7935146103d55780638456cb591461040257600080fd5b806336568abe1161013e578063481b13d211610118578063481b13d2146102d05780634f1ef286146102e657806352d1902d146102f9578063571a26a01461030e57600080fd5b806336568abe1461027b5780633659cfe61461029b5780633f4ba83a146102bb57600080fd5b806301ffc9a714610186578063248a9ca3146101bb5780632bb36adc146101f95780632e9936111461021b5780632f2ff15d1461023b578063358394d81461025b575b600080fd5b34801561019257600080fd5b506101a66101a13660046123c3565b6104e2565b60405190151581526020015b60405180910390f35b3480156101c757600080fd5b506101eb6101d63660046123ed565b60009081526065602052604090206001015490565b6040519081526020016101b2565b34801561020557600080fd5b50610219610214366004612406565b610519565b005b34801561022757600080fd5b506102196102363660046123ed565b6105fb565b34801561024757600080fd5b50610219610256366004612490565b610821565b34801561026757600080fd5b506102196102763660046124c0565b61084b565b34801561028757600080fd5b50610219610296366004612490565b610917565b3480156102a757600080fd5b506102196102b6366004612513565b610995565b3480156102c757600080fd5b50610219610a74565b3480156102dc57600080fd5b50610162546101eb565b6102196102f4366004612546565b610b0e565b34801561030557600080fd5b506101eb610bda565b34801561031a57600080fd5b5061032e6103293660046123ed565b610c8d565b6040516101b29a99989796959493929190612662565b34801561035057600080fd5b5061021961035f3660046126db565b610d8a565b34801561037057600080fd5b5060fb5460ff166101a6565b34801561038857600080fd5b506102196103973660046126fd565b611225565b3480156103a857600080fd5b5061015f546103bd906001600160a01b031681565b6040516001600160a01b0390911681526020016101b2565b3480156103e157600080fd5b506103f56103f03660046123ed565b61142d565b6040516101b29190612739565b34801561040e57600080fd5b506102196115bd565b34801561042357600080fd5b5061021961043236600461280e565b611655565b34801561044357600080fd5b506101a6610452366004612490565b6117b7565b34801561046357600080fd5b506102196104723660046123ed565b6117e2565b34801561048357600080fd5b506101eb600081565b34801561049857600080fd5b506101eb61025881565b3480156104ae57600080fd5b506102196104bd366004612847565b6119d2565b3480156104ce57600080fd5b506102196104dd366004612490565b611a6c565b60006001600160e01b03198216637965db0b60e01b148061051357506301ffc9a760e01b6001600160e01b03198316145b92915050565b61016054604051632474521560e21b8152600060048201523360248201526001600160a01b03909116906391d1485490604401602060405180830381865afa158015610569573d6000803e3d6000fd5b505050506040513d601f19601f8201168201806040525081019061058d9190612879565b6105b25760405162461bcd60e51b81526004016105a990612896565b60405180910390fd5b8060005b818110156105f5576105e58484838181106105d3576105d36128c0565b905060200281019061039791906128d6565b6105ee8161290d565b90506105b6565b50505050565b60fb5460ff161561061e5760405162461bcd60e51b81526004016105a990612926565b600081815261016160205260409020600281015460ff16156106525760405162461bcd60e51b81526004016105a990612950565b6004810154815460018301546001600160a01b0390911690600160c01b900463ffffffff16801580159061068557508042115b6106d15760405162461bcd60e51b815260206004820152601860248201527f41756374696f6e206973207374696c6c2072756e6e696e67000000000000000060448201526064016105a9565b60028401805460ff191660011790556001600160a01b038216156107d6576001840154604051636902622f60e11b81526001600160a01b039091169063d204c45e9061072690859060068901906004016129c1565b600060405180830381600087803b15801561074057600080fd5b505af1158015610754573d6000803e3d6000fd5b505061015f54600187015460405163a9059cbb60e01b81526001600160a01b039182166004820152602481018890529116925063a9059cbb91506044016020604051808303816000875af11580156107b0573d6000803e3d6000fd5b505050506040513d601f19601f820116820180604052508101906107d49190612879565b505b816001600160a01b0316857fc9f72b276a388619c6d185d146697036241880c36654b1a3ffdad07c24038d998560405161081291815260200190565b60405180910390a35050505050565b60008281526065602052604090206001015461083c81611aa0565b6108468383611aaa565b505050565b60006108576001611b30565b9050801561086f576000805461ff0019166101001790555b610877611bb8565b61087f611bdf565b610887611bb8565b610892600086611aaa565b61016284905561015f80546001600160a01b038086166001600160a01b0319928316179092556101608054928516929091169190911790558015610910576000805461ff0019169055604051600181527f7f26b83ff96e1f2b6a682f133852f6798a09c465da95921460cefb38474024989060200160405180910390a15b5050505050565b6001600160a01b03811633146109875760405162461bcd60e51b815260206004820152602f60248201527f416363657373436f6e74726f6c3a2063616e206f6e6c792072656e6f756e636560448201526e103937b632b9903337b91039b2b63360891b60648201526084016105a9565b6109918282611c0e565b5050565b6001600160a01b037f00000000000000000000000000000000000000000000000000000000000000001630036109dd5760405162461bcd60e51b81526004016105a990612a56565b7f00000000000000000000000000000000000000000000000000000000000000006001600160a01b0316610a26600080516020612f9b833981519152546001600160a01b031690565b6001600160a01b031614610a4c5760405162461bcd60e51b81526004016105a990612aa2565b610a5581611c75565b60408051600080825260208201909252610a7191839190611d05565b50565b61016054604051632474521560e21b8152600060048201523360248201526001600160a01b03909116906391d1485490604401602060405180830381865afa158015610ac4573d6000803e3d6000fd5b505050506040513d601f19601f82011682018060405250810190610ae89190612879565b610b045760405162461bcd60e51b81526004016105a990612896565b610b0c611e70565b565b6001600160a01b037f0000000000000000000000000000000000000000000000000000000000000000163003610b565760405162461bcd60e51b81526004016105a990612a56565b7f00000000000000000000000000000000000000000000000000000000000000006001600160a01b0316610b9f600080516020612f9b833981519152546001600160a01b031690565b6001600160a01b031614610bc55760405162461bcd60e51b81526004016105a990612aa2565b610bce82611c75565b61099182826001611d05565b6000306001600160a01b037f00000000000000000000000000000000000000000000000000000000000000001614610c7a5760405162461bcd60e51b815260206004820152603860248201527f555550535570677261646561626c653a206d757374206e6f742062652063616c60448201527f6c6564207468726f7567682064656c656761746563616c6c000000000000000060648201526084016105a9565b50600080516020612f9b83398151915290565b6101616020526000908152604090208054600182015460028301546003840154600485015460058601546006870180546001600160a01b03978816989787169763ffffffff600160a01b8904811698600160c01b8104821698600160e01b9091049091169660ff90911695909490939092610d0790612987565b80601f0160208091040260200160405190810160405280929190818152602001828054610d3390612987565b8015610d805780601f10610d5557610100808354040283529160200191610d80565b820191906000526020600020905b815481529060010190602001808311610d6357829003601f168201915b505050505090508a565b600261012d5403610ddd5760405162461bcd60e51b815260206004820152601f60248201527f5265656e7472616e637947756172643a207265656e7472616e742063616c6c0060448201526064016105a9565b600261012d5560fb5460ff1615610e065760405162461bcd60e51b81526004016105a990612926565b600082815261016160205260409020600181015463ffffffff600160c01b8204811691600160a01b9004164281610e775760405162461bcd60e51b8152602060048201526015602482015274105d58dd1a5bdb88191bd95cdb89dd08195e1a5cdd605a1b60448201526064016105a9565b81811015610ebf5760405162461bcd60e51b815260206004820152601560248201527441756374696f6e206e6f7420617661696c61626c6560581b60448201526064016105a9565b821580610ecb57508083115b610f0b5760405162461bcd60e51b8152602060048201526011602482015270105d58dd1a5bdb881a185cc8195b991959607a1b60448201526064016105a9565b600284015460ff1615610f305760405162461bcd60e51b81526004016105a990612950565b600085118015610f44575083600301548510155b610f905760405162461bcd60e51b815260206004820152601960248201527f426964206973206c6f776572207468616e206d696e696d756d0000000000000060448201526064016105a9565b61271061016254612710610fa49190612aee565b8560040154610fb39190612b06565b610fbd9190612b25565b85101561101c5760405162461bcd60e51b815260206004820152602760248201527f426964206973206c6f776572207468616e20686967686573742062696420696e60448201526618dc995b595b9d60ca1b60648201526084016105a9565b61015f546040516323b872dd60e01b8152336004820152306024820152604481018790526001600160a01b03909116906323b872dd906064016020604051808303816000875af1158015611074573d6000803e3d6000fd5b505050506040513d601f19601f820116820180604052508101906110989190612879565b5083546004850180546001600160a01b0319831633178755908790556001600160a01b039091169081156111405761015f5460405163a9059cbb60e01b81526001600160a01b038481166004830152602482018490529091169063a9059cbb906044016020604051808303816000875af115801561111a573d6000803e3d6000fd5b505050506040513d601f19601f8201168201806040525081019061113e9190612879565b505b8460000361118b57600186015461116490600160e01b900463ffffffff1684612aee565b8660010160186101000a81548163ffffffff021916908363ffffffff1602179055506111cd565b6102586111988487612b47565b10156111cd576111aa61025884612aee565b60018701805463ffffffff60c01b1916600160c01b63ffffffff84160217905594505b60408051888152602081018790526001600160a01b0384169133918b917f2808decb743a25d04efe1bd3dc192acde3be644e2f6ad1dce5d3c46643e1c602910160405180910390a45050600161012d55505050505050565b61016054604051632474521560e21b8152600060048201523360248201526001600160a01b03909116906391d1485490604401602060405180830381865afa158015611275573d6000803e3d6000fd5b505050506040513d601f19601f820116820180604052508101906112999190612879565b6112b55760405162461bcd60e51b81526004016105a990612896565b6112c56080820160608301612b5e565b63ffffffff16158061130057506112e26060820160408301612b5e565b63ffffffff166112f86080830160608401612b5e565b63ffffffff16115b6113435760405162461bcd60e51b8152602060048201526014602482015273496e76616c69642061756374696f6e2074696d6560601b60448201526064016105a9565b61010081013560009081526101616020526040902060010154600160a01b900463ffffffff16156113af5760405162461bcd60e51b815260206004820152601660248201527541756374696f6e20616c72656164792065786973747360501b60448201526064016105a9565b61010081013560009081526101616020526040902081906113d08282612cfe565b507f5d551e2a2cc977fd8c530317059b4f2d9f504fb82f7dfad736f8d56679bcdfd0905061010082013561140a6040840160208501612513565b604080519283526001600160a01b0390911660208301520160405180910390a150565b604080516101408101825260008082526020820181905291810182905260608082018390526080820183905260a0820183905260c0820183905260e082018390526101008201929092526101208101919091526000828152610161602090815260409182902082516101408101845281546001600160a01b03908116825260018301549081169382019390935263ffffffff600160a01b8404811694820194909452600160c01b830484166060820152600160e01b9092049092166080820152600282015460ff16151560a0820152600382015460c0820152600482015460e082015260058201546101008201526006820180549192916101208401919061153490612987565b80601f016020809104026020016040519081016040528092919081815260200182805461156090612987565b80156115ad5780601f10611582576101008083540402835291602001916115ad565b820191906000526020600020905b81548152906001019060200180831161159057829003601f168201915b5050505050815250509050919050565b61016054604051632474521560e21b8152600060048201523360248201526001600160a01b03909116906391d1485490604401602060405180830381865afa15801561160d573d6000803e3d6000fd5b505050506040513d601f19601f820116820180604052508101906116319190612879565b61164d5760405162461bcd60e51b81526004016105a990612896565b610b0c611f03565b61016054604051632474521560e21b8152600060048201523360248201526001600160a01b03909116906391d1485490604401602060405180830381865afa1580156116a5573d6000803e3d6000fd5b505050506040513d601f19601f820116820180604052508101906116c99190612879565b6116e55760405162461bcd60e51b81526004016105a990612896565b6000838152610161602052604090206002015460ff16156117185760405162461bcd60e51b81526004016105a990612950565b60008381526101616020526040902060010154600160a01b900463ffffffff166117785760405162461bcd60e51b8152602060048201526011602482015270105d58dd1a5bdb881b9bdd08199bdd5b99607a1b60448201526064016105a9565b600092835261016160205260409092206003810191909155600101805463ffffffff909216600160c01b0263ffffffff60c01b19909216919091179055565b60009182526065602090815260408084206001600160a01b0393909316845291905290205460ff1690565b61016054604051632474521560e21b8152600060048201523360248201526001600160a01b03909116906391d1485490604401602060405180830381865afa158015611832573d6000803e3d6000fd5b505050506040513d601f19601f820116820180604052508101906118569190612879565b6118725760405162461bcd60e51b81526004016105a990612896565b600081815261016160205260409020600281015460ff16156118d65760405162461bcd60e51b815260206004820152601b60248201527f41756374696f6e20697320616c72656164792066696e6973686564000000000060448201526064016105a9565b80546004820180546001600160a01b03198316845560009091556001600160a01b0390911690811561197c5761015f5460405163a9059cbb60e01b81526001600160a01b038481166004830152602482018490529091169063a9059cbb906044016020604051808303816000875af1158015611956573d6000803e3d6000fd5b505050506040513d601f19601f8201168201806040525081019061197a9190612879565b505b60008481526101616020526040808220600201805460ff19166001179055516001600160a01b0384169186917f10ac9f0bb365b5d22d7bec500408692f23fdf83eadfec71615ef88b4c1134f0e9190a350505050565b61016054604051632474521560e21b8152600060048201523360248201526001600160a01b03909116906391d1485490604401602060405180830381865afa158015611a22573d6000803e3d6000fd5b505050506040513d601f19601f82011682018060405250810190611a469190612879565b611a625760405162461bcd60e51b81526004016105a990612896565b61ffff1661016255565b600082815260656020526040902060010154611a8781611aa0565b6108468383611c0e565b6001600160a01b03163b151590565b610a718133611f5b565b611ab482826117b7565b6109915760008281526065602090815260408083206001600160a01b03851684529091529020805460ff19166001179055611aec3390565b6001600160a01b0316816001600160a01b0316837f2f8788117e7eff1d82e926ec794901d17c78024a50270940304540a733656f0d60405160405180910390a45050565b60008054610100900460ff1615611b77578160ff166001148015611b535750303b155b611b6f5760405162461bcd60e51b81526004016105a990612e37565b506000919050565b60005460ff808416911610611b9e5760405162461bcd60e51b81526004016105a990612e37565b506000805460ff191660ff92909216919091179055600190565b600054610100900460ff16610b0c5760405162461bcd60e51b81526004016105a990612e85565b600054610100900460ff16611c065760405162461bcd60e51b81526004016105a990612e85565b610b0c611fbf565b611c1882826117b7565b156109915760008281526065602090815260408083206001600160a01b0385168085529252808320805460ff1916905551339285917ff6391f5c32d9c69d2a47ea670b442974b53935d1edc7fd64eb21e047a839171b9190a45050565b61016054604051632474521560e21b8152600060048201523360248201526001600160a01b03909116906391d1485490604401602060405180830381865afa158015611cc5573d6000803e3d6000fd5b505050506040513d601f19601f82011682018060405250810190611ce99190612879565b610a715760405162461bcd60e51b81526004016105a990612896565b7f4910fdfa16fed3260ed0e7147f7cc6da11a60208b5b9406d12a635614ffd91435460ff1615611d385761084683611ff2565b826001600160a01b03166352d1902d6040518163ffffffff1660e01b8152600401602060405180830381865afa925050508015611d92575060408051601f3d908101601f19168201909252611d8f91810190612ed0565b60015b611df55760405162461bcd60e51b815260206004820152602e60248201527f45524331393637557067726164653a206e657720696d706c656d656e7461746960448201526d6f6e206973206e6f74205555505360901b60648201526084016105a9565b600080516020612f9b8339815191528114611e645760405162461bcd60e51b815260206004820152602960248201527f45524331393637557067726164653a20756e737570706f727465642070726f786044820152681a58589b195555525160ba1b60648201526084016105a9565b5061084683838361208e565b60fb5460ff16611eb95760405162461bcd60e51b815260206004820152601460248201527314185d5cd8589b194e881b9bdd081c185d5cd95960621b60448201526064016105a9565b60fb805460ff191690557f5db9ee0a495bf2e6ff9c91a7834c1ba4fdd244a5e8aa4e537bd38aeae4b073aa335b6040516001600160a01b03909116815260200160405180910390a1565b60fb5460ff1615611f265760405162461bcd60e51b81526004016105a990612926565b60fb805460ff191660011790557f62e78cea01bee320cd4e420270b5ea74000d11b0c9f74754ebdbfc544b05a258611ee63390565b611f6582826117b7565b61099157611f7d816001600160a01b031660146120b3565b611f888360206120b3565b604051602001611f99929190612ee9565b60408051601f198184030181529082905262461bcd60e51b82526105a991600401612f5e565b600054610100900460ff16611fe65760405162461bcd60e51b81526004016105a990612e85565b60fb805460ff19169055565b6001600160a01b0381163b61205f5760405162461bcd60e51b815260206004820152602d60248201527f455243313936373a206e657720696d706c656d656e746174696f6e206973206e60448201526c1bdd08184818dbdb9d1c9858dd609a1b60648201526084016105a9565b600080516020612f9b83398151915280546001600160a01b0319166001600160a01b0392909216919091179055565b61209783612256565b6000825111806120a45750805b15610846576105f58383612296565b606060006120c2836002612b06565b6120cd906002612aee565b67ffffffffffffffff8111156120e5576120e5612530565b6040519080825280601f01601f19166020018201604052801561210f576020820181803683370190505b509050600360fc1b8160008151811061212a5761212a6128c0565b60200101906001600160f81b031916908160001a905350600f60fb1b81600181518110612159576121596128c0565b60200101906001600160f81b031916908160001a905350600061217d846002612b06565b612188906001612aee565b90505b6001811115612200576f181899199a1a9b1b9c1cb0b131b232b360811b85600f16601081106121bc576121bc6128c0565b1a60f81b8282815181106121d2576121d26128c0565b60200101906001600160f81b031916908160001a90535060049490941c936121f981612f71565b905061218b565b50831561224f5760405162461bcd60e51b815260206004820181905260248201527f537472696e67733a20686578206c656e67746820696e73756666696369656e7460448201526064016105a9565b9392505050565b61225f81611ff2565b6040516001600160a01b038216907fbc7cd75a20ee27fd9adebab32041f755214dbc6bffa90cc0225b39da2e5c2d3b90600090a250565b60606001600160a01b0383163b6122fe5760405162461bcd60e51b815260206004820152602660248201527f416464726573733a2064656c65676174652063616c6c20746f206e6f6e2d636f6044820152651b9d1c9858dd60d21b60648201526084016105a9565b600080846001600160a01b0316846040516123199190612f88565b600060405180830381855af49150503d8060008114612354576040519150601f19603f3d011682016040523d82523d6000602084013e612359565b606091505b50915091506123818282604051806060016040528060278152602001612fbb6027913961238a565b95945050505050565b6060831561239957508161224f565b8251156123a95782518084602001fd5b8160405162461bcd60e51b81526004016105a99190612f5e565b6000602082840312156123d557600080fd5b81356001600160e01b03198116811461224f57600080fd5b6000602082840312156123ff57600080fd5b5035919050565b6000806020838503121561241957600080fd5b823567ffffffffffffffff8082111561243157600080fd5b818501915085601f83011261244557600080fd5b81358181111561245457600080fd5b8660208260051b850101111561246957600080fd5b60209290920196919550909350505050565b6001600160a01b0381168114610a7157600080fd5b600080604083850312156124a357600080fd5b8235915060208301356124b58161247b565b809150509250929050565b600080600080608085870312156124d657600080fd5b84356124e18161247b565b93506020850135925060408501356124f88161247b565b915060608501356125088161247b565b939692955090935050565b60006020828403121561252557600080fd5b813561224f8161247b565b634e487b7160e01b600052604160045260246000fd5b6000806040838503121561255957600080fd5b82356125648161247b565b9150602083013567ffffffffffffffff8082111561258157600080fd5b818501915085601f83011261259557600080fd5b8135818111156125a7576125a7612530565b604051601f8201601f19908116603f011681019083821181831017156125cf576125cf612530565b816040528281528860208487010111156125e857600080fd5b8260208601602083013760006020848301015280955050505050509250929050565b60005b8381101561262557818101518382015260200161260d565b838111156105f55750506000910152565b6000815180845261264e81602086016020860161260a565b601f01601f19169290920160200192915050565b6001600160a01b038b811682528a16602082015263ffffffff898116604083015288811660608301528716608082015285151560a082015260c0810185905260e08101849052610100810183905261014061012082018190526000906126ca83820185612636565b9d9c50505050505050505050505050565b600080604083850312156126ee57600080fd5b50508035926020909101359150565b60006020828403121561270f57600080fd5b813567ffffffffffffffff81111561272657600080fd5b8201610140818503121561224f57600080fd5b602081526127536020820183516001600160a01b03169052565b6000602083015161276f60408401826001600160a01b03169052565b50604083015163ffffffff8116606084015250606083015163ffffffff8116608084015250608083015163ffffffff811660a08401525060a083015180151560c08401525060c083015160e0838101919091528301516101008084019190915283015161012080840191909152830151610140808401526127f4610160840182612636565b949350505050565b63ffffffff81168114610a7157600080fd5b60008060006060848603121561282357600080fd5b8335925060208401359150604084013561283c816127fc565b809150509250925092565b60006020828403121561285957600080fd5b813561ffff8116811461224f57600080fd5b8015158114610a7157600080fd5b60006020828403121561288b57600080fd5b815161224f8161286b565b60208082526010908201526f41646d696e2063616c6c73206f6e6c7960801b604082015260600190565b634e487b7160e01b600052603260045260246000fd5b6000823561013e198336030181126128ed57600080fd5b9190910192915050565b634e487b7160e01b600052601160045260246000fd5b60006001820161291f5761291f6128f7565b5060010190565b60208082526010908201526f14185d5cd8589b194e881c185d5cd95960821b604082015260600190565b60208082526017908201527f41756374696f6e20616c726561647920736574746c6564000000000000000000604082015260600190565b600181811c9082168061299b57607f821691505b6020821081036129bb57634e487b7160e01b600052602260045260246000fd5b50919050565b60018060a01b038316815260006020604081840152600084546129e381612987565b8060408701526060600180841660008114612a055760018114612a1957612a47565b60ff19851689840152608089019550612a47565b896000528660002060005b85811015612a3f5781548b8201860152908301908801612a24565b8a0184019650505b50939998505050505050505050565b6020808252602c908201527f46756e6374696f6e206d7573742062652063616c6c6564207468726f7567682060408201526b19195b1959d85d1958d85b1b60a21b606082015260800190565b6020808252602c908201527f46756e6374696f6e206d7573742062652063616c6c6564207468726f7567682060408201526b6163746976652070726f787960a01b606082015260800190565b60008219821115612b0157612b016128f7565b500190565b6000816000190483118215151615612b2057612b206128f7565b500290565b600082612b4257634e487b7160e01b600052601260045260246000fd5b500490565b600082821015612b5957612b596128f7565b500390565b600060208284031215612b7057600080fd5b813561224f816127fc565b600081356105138161247b565b60008135610513816127fc565b600081356105138161286b565b6000808335601e19843603018112612bb957600080fd5b83018035915067ffffffffffffffff821115612bd457600080fd5b602001915036819003821315612be957600080fd5b9250929050565b601f82111561084657600081815260208120601f850160051c81016020861015612c175750805b601f850160051c820191505b81811015612c3657828155600101612c23565b505050505050565b67ffffffffffffffff831115612c5657612c56612530565b612c6a83612c648354612987565b83612bf0565b6000601f841160018114612c9e5760008515612c865750838201355b600019600387901b1c1916600186901b178355610910565b600083815260209020601f19861690835b82811015612ccf5786850135825560209485019460019092019101612caf565b5086821015612cec5760001960f88860031b161c19848701351681555b505060018560011b0183555050505050565b612d27612d0a83612b7b565b82546001600160a01b0319166001600160a01b0391909116178255565b60018101612d3a612d0a60208501612b7b565b612d6d612d4960408501612b88565b82805463ffffffff60a01b191660a09290921b63ffffffff60a01b16919091179055565b612da0612d7c60608501612b88565b82805463ffffffff60c01b191660c09290921b63ffffffff60c01b16919091179055565b612dd3612daf60808501612b88565b8280546001600160e01b031660e09290921b6001600160e01b031916919091179055565b50612dfc612de360a08401612b95565b6002830160ff1981541660ff8315151681178255505050565b60c0820135600382015560e082013560048201556101008201356005820155612e29610120830183612ba2565b6105f5818360068601612c3e565b6020808252602e908201527f496e697469616c697a61626c653a20636f6e747261637420697320616c72656160408201526d191e481a5b9a5d1a585b1a5e995960921b606082015260800190565b6020808252602b908201527f496e697469616c697a61626c653a20636f6e7472616374206973206e6f74206960408201526a6e697469616c697a696e6760a81b606082015260800190565b600060208284031215612ee257600080fd5b5051919050565b7f416363657373436f6e74726f6c3a206163636f756e7420000000000000000000815260008351612f2181601785016020880161260a565b7001034b99036b4b9b9b4b733903937b6329607d1b6017918401918201528351612f5281602884016020880161260a565b01602801949350505050565b60208152600061224f6020830184612636565b600081612f8057612f806128f7565b506000190190565b600082516128ed81846020870161260a56fe360894a13ba1a3210667c828492db98dca3e2076cc3735a920a3ca505d382bbc416464726573733a206c6f772d6c6576656c2064656c65676174652063616c6c206661696c6564a26469706673582212205b2f4a67e20d0a66581f0a0f3a83fdcb90798fa0e88559b774185aa7ac3f380e64736f6c634300080e0033496e697469616c697a61626c653a20636f6e747261637420697320616c726561",
  "linkReferences": {},
  "deployedLinkReferences": {}
}