{
  "_format": "hh-sol-artifact-1",
  "contractName": "Auction",
  "sourceName": "contracts/Auction/Auction.sol",
  "abi": [
    {
      "anonymous": false,
      "inputs": [
        {
          "indexed": false,
          "internalType": "address",
          "name": "previousAdmin",
          "type": "address"
        },
        {
          "indexed": false,
          "internalType": "address",
          "name": "newAdmin",
          "type": "address"
        }
      ],
      "name": "AdminChanged",
      "type": "event"
    },
    {
      "anonymous": false,
      "inputs": [
        {
          "indexed": false,
          "internalType": "uint256",
          "name": "auctionId",
          "type": "uint256"
        }
      ],
      "name": "AuctionCancelled",
      "type": "event"
    },
    {
      "anonymous": false,
      "inputs": [
        {
          "indexed": true,
          "internalType": "uint256",
          "name": "collectionId",
          "type": "uint256"
        },
        {
          "indexed": false,
          "internalType": "uint256",
          "name": "auctionId",
          "type": "uint256"
        },
        {
          "indexed": false,
          "internalType": "uint256",
          "name": "nftId",
          "type": "uint256"
        }
      ],
      "name": "AuctionCreated",
      "type": "event"
    },
    {
      "anonymous": false,
      "inputs": [
        {
          "indexed": true,
          "internalType": "uint256",
          "name": "auctionId",
          "type": "uint256"
        },
        {
          "indexed": true,
          "internalType": "address",
          "name": "highestBidder",
          "type": "address"
        },
        {
          "indexed": false,
          "internalType": "uint256",
          "name": "highestBid",
          "type": "uint256"
        }
      ],
      "name": "AuctionSettled",
      "type": "event"
    },
    {
      "anonymous": false,
      "inputs": [
        {
          "indexed": true,
          "internalType": "address",
          "name": "beacon",
          "type": "address"
        }
      ],
      "name": "BeaconUpgraded",
      "type": "event"
    },
    {
      "anonymous": false,
      "inputs": [
        {
          "indexed": true,
          "internalType": "uint256",
          "name": "auctionId",
          "type": "uint256"
        },
        {
          "indexed": true,
          "internalType": "address",
          "name": "bidder",
          "type": "address"
        },
        {
          "indexed": false,
          "internalType": "uint256",
          "name": "bidAmount",
          "type": "uint256"
        },
        {
          "indexed": false,
          "internalType": "uint256",
          "name": "newEndTime",
          "type": "uint256"
        }
      ],
      "name": "BidPlaced",
      "type": "event"
    },
    {
      "anonymous": false,
      "inputs": [
        {
          "indexed": false,
          "internalType": "uint8",
          "name": "version",
          "type": "uint8"
        }
      ],
      "name": "Initialized",
      "type": "event"
    },
    {
      "anonymous": false,
      "inputs": [
        {
          "indexed": false,
          "internalType": "address",
          "name": "account",
          "type": "address"
        }
      ],
      "name": "Paused",
      "type": "event"
    },
    {
      "anonymous": false,
      "inputs": [
        {
          "indexed": true,
          "internalType": "bytes32",
          "name": "role",
          "type": "bytes32"
        },
        {
          "indexed": true,
          "internalType": "bytes32",
          "name": "previousAdminRole",
          "type": "bytes32"
        },
        {
          "indexed": true,
          "internalType": "bytes32",
          "name": "newAdminRole",
          "type": "bytes32"
        }
      ],
      "name": "RoleAdminChanged",
      "type": "event"
    },
    {
      "anonymous": false,
      "inputs": [
        {
          "indexed": true,
          "internalType": "bytes32",
          "name": "role",
          "type": "bytes32"
        },
        {
          "indexed": true,
          "internalType": "address",
          "name": "account",
          "type": "address"
        },
        {
          "indexed": true,
          "internalType": "address",
          "name": "sender",
          "type": "address"
        }
      ],
      "name": "RoleGranted",
      "type": "event"
    },
    {
      "anonymous": false,
      "inputs": [
        {
          "indexed": true,
          "internalType": "bytes32",
          "name": "role",
          "type": "bytes32"
        },
        {
          "indexed": true,
          "internalType": "address",
          "name": "account",
          "type": "address"
        },
        {
          "indexed": true,
          "internalType": "address",
          "name": "sender",
          "type": "address"
        }
      ],
      "name": "RoleRevoked",
      "type": "event"
    },
    {
      "anonymous": false,
      "inputs": [
        {
          "indexed": false,
          "internalType": "address",
          "name": "account",
          "type": "address"
        }
      ],
      "name": "Unpaused",
      "type": "event"
    },
    {
      "anonymous": false,
      "inputs": [
        {
          "indexed": true,
          "internalType": "address",
          "name": "implementation",
          "type": "address"
        }
      ],
      "name": "Upgraded",
      "type": "event"
    },
    {
      "inputs": [],
      "name": "DEFAULT_ADMIN_ROLE",
      "outputs": [
        {
          "internalType": "bytes32",
          "name": "",
          "type": "bytes32"
        }
      ],
      "stateMutability": "view",
      "type": "function"
    },
    {
      "inputs": [
        {
          "internalType": "uint256",
          "name": "",
          "type": "uint256"
        }
      ],
      "name": "auctions",
      "outputs": [
        {
          "internalType": "address",
          "name": "highestBidder",
          "type": "address"
        },
        {
          "internalType": "contract INFT",
          "name": "nftContract",
          "type": "address"
        },
        {
          "internalType": "uint32",
          "name": "startTime",
          "type": "uint32"
        },
        {
          "internalType": "uint32",
          "name": "endTime",
          "type": "uint32"
        },
        {
          "internalType": "bool",
          "name": "settled",
          "type": "bool"
        },
        {
          "internalType": "uint256",
          "name": "collectionId",
          "type": "uint256"
        },
        {
          "internalType": "uint256",
          "name": "nftId",
          "type": "uint256"
        },
        {
          "internalType": "uint256",
          "name": "buyNowPrice",
          "type": "uint256"
        },
        {
          "internalType": "uint256",
          "name": "minimumPrice",
          "type": "uint256"
        },
        {
          "internalType": "uint256",
          "name": "highestBid",
          "type": "uint256"
        }
      ],
      "stateMutability": "view",
      "type": "function"
    },
    {
      "inputs": [
        {
          "internalType": "uint256",
          "name": "_auctionId",
          "type": "uint256"
        },
        {
          "internalType": "uint256",
          "name": "_amount",
          "type": "uint256"
        }
      ],
      "name": "bid",
      "outputs": [],
      "stateMutability": "nonpayable",
      "type": "function"
    },
    {
      "inputs": [],
      "name": "bidIncrementPercentage",
      "outputs": [
        {
          "internalType": "uint256",
          "name": "",
          "type": "uint256"
        }
      ],
      "stateMutability": "view",
      "type": "function"
    },
    {
      "inputs": [
        {
          "internalType": "uint256",
          "name": "_auctionId",
          "type": "uint256"
        }
      ],
      "name": "cancelAuction",
      "outputs": [],
      "stateMutability": "nonpayable",
      "type": "function"
    },
    {
      "inputs": [
        {
          "internalType": "uint256",
          "name": "_collectionId",
          "type": "uint256"
        },
        {
          "internalType": "uint256",
          "name": "_auctionId",
          "type": "uint256"
        },
        {
          "internalType": "uint256",
          "name": "_nftId",
          "type": "uint256"
        },
        {
          "internalType": "uint256",
          "name": "_buyNowPrice",
          "type": "uint256"
        },
        {
          "internalType": "uint256",
          "name": "_minimumPrice",
          "type": "uint256"
        },
        {
          "internalType": "uint32",
          "name": "_startTime",
          "type": "uint32"
        },
        {
          "internalType": "uint32",
          "name": "_endTime",
          "type": "uint32"
        },
        {
          "internalType": "contract INFT",
          "name": "_nftContract",
          "type": "address"
        }
      ],
      "name": "createAuction",
      "outputs": [
        {
          "internalType": "uint256",
          "name": "auctionId",
          "type": "uint256"
        }
      ],
      "stateMutability": "nonpayable",
      "type": "function"
    },
    {
      "inputs": [],
      "name": "defaultTimeExtension",
      "outputs": [
        {
          "internalType": "uint256",
          "name": "",
          "type": "uint256"
        }
      ],
      "stateMutability": "view",
      "type": "function"
    },
    {
      "inputs": [
        {
          "internalType": "uint256",
          "name": "_auctionId",
          "type": "uint256"
        }
      ],
      "name": "getAuction",
      "outputs": [
        {
          "components": [
            {
              "internalType": "address",
              "name": "highestBidder",
              "type": "address"
            },
            {
              "internalType": "contract INFT",
              "name": "nftContract",
              "type": "address"
            },
            {
              "internalType": "uint32",
              "name": "startTime",
              "type": "uint32"
            },
            {
              "internalType": "uint32",
              "name": "endTime",
              "type": "uint32"
            },
            {
              "internalType": "bool",
              "name": "settled",
              "type": "bool"
            },
            {
              "internalType": "uint256",
              "name": "collectionId",
              "type": "uint256"
            },
            {
              "internalType": "uint256",
              "name": "nftId",
              "type": "uint256"
            },
            {
              "internalType": "uint256",
              "name": "buyNowPrice",
              "type": "uint256"
            },
            {
              "internalType": "uint256",
              "name": "minimumPrice",
              "type": "uint256"
            },
            {
              "internalType": "uint256",
              "name": "highestBid",
              "type": "uint256"
            }
          ],
          "internalType": "struct Auction.AuctionInfo",
          "name": "",
          "type": "tuple"
        }
      ],
      "stateMutability": "view",
      "type": "function"
    },
    {
      "inputs": [
        {
          "internalType": "bytes32",
          "name": "role",
          "type": "bytes32"
        }
      ],
      "name": "getRoleAdmin",
      "outputs": [
        {
          "internalType": "bytes32",
          "name": "",
          "type": "bytes32"
        }
      ],
      "stateMutability": "view",
      "type": "function"
    },
    {
      "inputs": [
        {
          "internalType": "bytes32",
          "name": "role",
          "type": "bytes32"
        },
        {
          "internalType": "address",
          "name": "account",
          "type": "address"
        }
      ],
      "name": "grantRole",
      "outputs": [],
      "stateMutability": "nonpayable",
      "type": "function"
    },
    {
      "inputs": [
        {
          "internalType": "bytes32",
          "name": "role",
          "type": "bytes32"
        },
        {
          "internalType": "address",
          "name": "account",
          "type": "address"
        }
      ],
      "name": "hasRole",
      "outputs": [
        {
          "internalType": "bool",
          "name": "",
          "type": "bool"
        }
      ],
      "stateMutability": "view",
      "type": "function"
    },
    {
      "inputs": [
        {
          "internalType": "address",
          "name": "_admin",
          "type": "address"
        },
        {
          "internalType": "uint256",
          "name": "_defaultTimeExtension",
          "type": "uint256"
        },
        {
          "internalType": "uint256",
          "name": "_bidIncrementPercentage",
          "type": "uint256"
        },
        {
          "internalType": "address",
          "name": "_token",
          "type": "address"
        }
      ],
      "name": "initialize",
      "outputs": [],
      "stateMutability": "nonpayable",
      "type": "function"
    },
    {
      "inputs": [],
      "name": "pause",
      "outputs": [],
      "stateMutability": "nonpayable",
      "type": "function"
    },
    {
      "inputs": [],
      "name": "paused",
      "outputs": [
        {
          "internalType": "bool",
          "name": "",
          "type": "bool"
        }
      ],
      "stateMutability": "view",
      "type": "function"
    },
    {
      "inputs": [],
      "name": "proxiableUUID",
      "outputs": [
        {
          "internalType": "bytes32",
          "name": "",
          "type": "bytes32"
        }
      ],
      "stateMutability": "view",
      "type": "function"
    },
    {
      "inputs": [
        {
          "internalType": "bytes32",
          "name": "role",
          "type": "bytes32"
        },
        {
          "internalType": "address",
          "name": "account",
          "type": "address"
        }
      ],
      "name": "renounceRole",
      "outputs": [],
      "stateMutability": "nonpayable",
      "type": "function"
    },
    {
      "inputs": [
        {
          "internalType": "bytes32",
          "name": "role",
          "type": "bytes32"
        },
        {
          "internalType": "address",
          "name": "account",
          "type": "address"
        }
      ],
      "name": "revokeRole",
      "outputs": [],
      "stateMutability": "nonpayable",
      "type": "function"
    },
    {
      "inputs": [
        {
          "internalType": "uint16",
          "name": "_bidIncrementPercentage",
          "type": "uint16"
        }
      ],
      "name": "setBidIncrementPercentage",
      "outputs": [],
      "stateMutability": "nonpayable",
      "type": "function"
    },
    {
      "inputs": [
        {
          "internalType": "uint16",
          "name": "_timeExtension",
          "type": "uint16"
        }
      ],
      "name": "setDefaultTimeExtension",
      "outputs": [],
      "stateMutability": "nonpayable",
      "type": "function"
    },
    {
      "inputs": [
        {
          "internalType": "address",
          "name": "_token",
          "type": "address"
        }
      ],
      "name": "setToken",
      "outputs": [],
      "stateMutability": "nonpayable",
      "type": "function"
    },
    {
      "inputs": [
        {
          "internalType": "uint256",
          "name": "_auctionId",
          "type": "uint256"
        }
      ],
      "name": "settleAuction",
      "outputs": [],
      "stateMutability": "nonpayable",
      "type": "function"
    },
    {
      "inputs": [
        {
          "internalType": "bytes4",
          "name": "interfaceId",
          "type": "bytes4"
        }
      ],
      "name": "supportsInterface",
      "outputs": [
        {
          "internalType": "bool",
          "name": "",
          "type": "bool"
        }
      ],
      "stateMutability": "view",
      "type": "function"
    },
    {
      "inputs": [],
      "name": "token",
      "outputs": [
        {
          "internalType": "contract IERC20",
          "name": "",
          "type": "address"
        }
      ],
      "stateMutability": "view",
      "type": "function"
    },
    {
      "inputs": [],
      "name": "unpause",
      "outputs": [],
      "stateMutability": "nonpayable",
      "type": "function"
    },
    {
      "inputs": [
        {
          "internalType": "uint256",
          "name": "_auctionId",
          "type": "uint256"
        },
        {
          "internalType": "uint256",
          "name": "_buyNowPrice",
          "type": "uint256"
        },
        {
          "internalType": "uint256",
          "name": "_minimumPrice",
          "type": "uint256"
        },
        {
          "internalType": "uint32",
          "name": "_endTime",
          "type": "uint32"
        }
      ],
      "name": "updateAuction",
      "outputs": [],
      "stateMutability": "nonpayable",
      "type": "function"
    },
    {
      "inputs": [
        {
          "internalType": "address",
          "name": "newImplementation",
          "type": "address"
        }
      ],
      "name": "upgradeTo",
      "outputs": [],
      "stateMutability": "nonpayable",
      "type": "function"
    },
    {
      "inputs": [
        {
          "internalType": "address",
          "name": "newImplementation",
          "type": "address"
        },
        {
          "internalType": "bytes",
          "name": "data",
          "type": "bytes"
        }
      ],
      "name": "upgradeToAndCall",
      "outputs": [],
      "stateMutability": "payable",
      "type": "function"
    }
  ],
  "bytecode": "0x60a080604052346100315730608052612bd3908161003782396080518181816109b001528181610c580152611f870152f35b600080fdfe60806040526004361015610013575b600080fd5b60003560e01c806301ffc9a71461022f578063144fa6d714610226578063248a9ca31461021d5780632e993611146102145780632f2ff15d1461020b57806335b391cd1461020257806336568abe146101f95780633659cfe6146101f05780633f4ba83a146101e75780634f1ef286146101de57806352d1902d146101d5578063571a26a0146101cc578063598647f8146101c35780635c975abb146101ba57806378bd7935146101b15780638456cb59146101a857806391d148541461019f57806396b5a755146101965780639e3d87cd1461018d578063a217fddf14610184578063b3b7e48e1461017b578063c3c675bc14610172578063d2e30b2714610169578063d547741f14610160578063e9eace9114610157578063fc0c546a1461014e5763ff54a5ca1461014657600080fd5b61000e6116fb565b5061000e6116d0565b5061000e6116b0565b5061000e61166d565b5061000e61164d565b5061000e6115fd565b5061000e611515565b5061000e6114f8565b5061000e6113fc565b5061000e6112ea565b5061000e611293565b5061000e611212565b5061000e61108a565b5061000e611066565b5061000e610dc5565b5061000e610d0a565b5061000e610c44565b5061000e610bc7565b5061000e610a5d565b5061000e610982565b5061000e6108e9565b5061000e61070d565b5061000e610603565b5061000e610332565b5061000e610302565b5061000e610297565b503461000e57602036600319011261000e5760043563ffffffff60e01b811680910361000e57602090637965db0b60e01b8114908115610275575b506040519015158152f35b6301ffc9a760e01b1490503861026a565b6001600160a01b0381160361000e57565b503461000e57602036600319011261000e576004356102b581610286565b336000908152600080516020612b3e833981519152602052604090206102e09060ff905b54166123bf565b61015f80546001600160a01b0319166001600160a01b03909216919091179055005b503461000e57602036600319011261000e5760043560005260656020526020600160406000200154604051908152f35b503461000e57602036600319011261000e5760043561035660ff60fb5416156125f0565b61036b81600052610160602052604060002090565b90600182019182549061038460ff8360e01c16156127db565b6006810154815490929063ffffffff906001600160a01b03169160c01c16421180156105f6575b6103b490612827565b845460ff60e01b1916600160e01b1785556001600160a01b03811694856103fa575b505060405191825250600080516020612b7e8339815191529080602081015b0390a3005b80549293919261041a906001600160a01b03165b6001600160a01b031690565b9260026003860154950190815494803b1561000e576104ab6103f5966104ec6020956104c961040e61054a998b98600080516020612b7e8339815191529e604051809a8180946305661ce360e11b825260009d8e9d8e9d8e978894600485019160c0939160018060a01b03168352602083015260016040830152606082015260a06080820152600060a08201520190565b03925af180156105e9575b6105d0575b50546001600160a01b031690565b905460405194858094819363d4e4d3dd60e01b8352600483019190602083019252565b03925af19081156105c3575b829161059d575b5061015f54610516906001600160a01b031661040e565b60405163a9059cbb60e01b81526001600160a01b039092166004830152602482019390935293849291839182906044820190565b03925af18015610590575b610562575b8193506103d6565b6105829060203d8111610589575b61057a8183610b6b565b810190612485565b503861055a565b503d610570565b610598611b3e565b610555565b6105b991503d8084833e6105b18183610b6b565b810190612873565b92505050386104ff565b6105cb611b3e565b6104f8565b806105dd6105e392610b2d565b80610a52565b386104bb565b6105f1611b3e565b6104b6565b50600482015483146103ab565b503461000e5760408060031936011261000e576004359060243561062681610286565b60009280845260656020526106406001848620015461174b565b808452606560209081528385206001600160a01b03841660009081529152604090205460ff161561067057505051f35b808452606560209081528385206001600160a01b0384166000908152915260409020805460ff19166001179055825133926001600160a01b031691907f2f8788117e7eff1d82e926ec794901d17c78024a50270940304540a733656f0d908690a451f35b60a4359063ffffffff8216820361000e57565b60c4359063ffffffff8216820361000e57565b6064359063ffffffff8216820361000e57565b503461000e576101008060031936011261000e577fd6eddd1118d71820909c1197aa966dbc15ed6f508554252169cc3d5ccac756ca600435916024356108946108208560443594606435906084359161085a6107676106d4565b61084d6107726106e7565b9160e4359889986107828a610286565b336000908152600080516020612b3e833981519152602090815260408220919b8c9391926107fe92906107b79060ff906102d9565b6107cb63ffffffff808916908b16116123fe565b8a1580156108df575b6107dd90612441565b60405194858094819363185153c360e01b8352600483019190602083019252565b03926001600160a01b03165af19081156108d2575b8a916108b4575b5061249d565b61084061082b610b8d565b8981526001600160a01b03909a1660208b0152565b63ffffffff166040890152565b63ffffffff166060870152565b8360808601528960a08601528760c086015260e085015283015261012082015261088f83600052610160602052604060002090565b6124e9565b604080519182526020820192909252a260405160008152602090f35b0390f35b6108cc915060203d81116105895761057a8183610b6b565b3861081a565b6108da611b3e565b610813565b508c8b10156107d4565b503461000e57604036600319011261000e5760243561090781610286565b336001600160a01b0382160361092557610923906004356119a2565b005b60405162461bcd60e51b815260206004820152602f60248201527f416363657373436f6e74726f6c3a2063616e206f6e6c792072656e6f756e636560448201526e103937b632b9903337b91039b2b63360891b6064820152608490fd5b503461000e57602036600319011261000e576109236004356109a381610286565b6109f56001600160a01b037f00000000000000000000000000000000000000000000000000000000000000008116906109de30831415611a32565b600080516020612b5e833981519152541614611a93565b336000908152600080516020612b3e83398151915260205260409020610a1d9060ff906102d9565b604051906020820182811067ffffffffffffffff821117610a45575b60405260008252611bf8565b610a4d610b16565b610a39565b600091031261000e57565b503461000e57600080600319360112610b135780805260656020908152604080832033600090815292529020610a959060ff906102d9565b60fb5460ff811615610ad75760ff191660fb557f5db9ee0a495bf2e6ff9c91a7834c1ba4fdd244a5e8aa4e537bd38aeae4b073aa6020604051338152a1604051f35b60405162461bcd60e51b815260206004820152601460248201527314185d5cd8589b194e881b9bdd081c185d5cd95960621b6044820152606490fd5b80fd5b50634e487b7160e01b600052604160045260246000fd5b67ffffffffffffffff8111610b4157604052565b610b49610b16565b604052565b610140810190811067ffffffffffffffff821117610b4157604052565b90601f8019910116810190811067ffffffffffffffff821117610b4157604052565b60405190610b9a82610b4e565b565b60209067ffffffffffffffff8111610bba575b601f01601f19160190565b610bc2610b16565b610baf565b50604036600319011261000e57600435610be081610286565b6024359067ffffffffffffffff821161000e573660238301121561000e57816004013590610c0d82610b9c565b91610c1b6040519384610b6b565b808352366024828601011161000e57602081600092602461092397018387013784010152611f7d565b503461000e57600036600319011261000e577f00000000000000000000000000000000000000000000000000000000000000006001600160a01b03163003610c9f57604051600080516020612b5e8339815191528152602090f35b60405162461bcd60e51b815260206004820152603860248201527f555550535570677261646561626c653a206d757374206e6f742062652063616c60448201527f6c6564207468726f7567682064656c656761746563616c6c00000000000000006064820152608490fd5b503461000e57602036600319011261000e576004803560009081526101606020908152604091829020805460018201546002830154600384015496840154600585015460069095015487516001600160a01b0395861681529484169685019690965263ffffffff60a084811c82169886019890985260c084811c909116606086015260ff60e094851c161515608086015296840191909152948201959095529384019290925261010083019190915261012082015261014090f35b503461000e57604036600319011261000e576004356024359061012d60028154146110215760029055610dfd60ff60fb5416156125f0565b7f51db8e23b3f4479b162fd48823b8402895442b8f6cfd94f66239391881ec7b6f610f47610e3683600052610160602052604060002090565b600181019081549163ffffffff91828460c01c1693610e6b60ff600484015492610e61881515612901565b60e01c16156127db565b610e76428611612941565b88151580611013575b610e8890612981565b88600682821493848015610fe1575b610ea0906129cd565b61015f54610eb6906001600160a01b031661040e565b6040516323b872dd60e01b81523360048201523060248201526044810185905290602090829060649082906000905af18015610fd4575b610fb6575b50610efc8b612a8c565b80546001600160a01b03191633178155015580610f90575b50506101615480610f254286612a75565b10610f55575b5050604080519687526020870192909252503394918291820190565b0390a3610923600161012d55565b610f88929350610f65904261212d565b815463ffffffff60c01b191693811660c01b63ffffffff60c01b16939093179055565b388080610f2b565b610f9c90891115612a29565b610fa8575b3880610f14565b610fb18661262f565b610fa1565b610fcd9060203d81116105895761057a8183610b6b565b5038610ef2565b610fdc611b3e565b610eed565b50610ea061100961100184840154610ffb61016254612116565b906120f7565b612710900490565b8410159050610e97565b506005820154891015610e7f565b60405162461bcd60e51b815260206004820152601f60248201527f5265656e7472616e637947756172643a207265656e7472616e742063616c6c006044820152606490fd5b503461000e57600036600319011261000e57602060ff60fb54166040519015158152f35b503461000e57602036600319011261000e576108b06040516110ab81610b4e565b6000908181528160208201528160408201528160608201528160808201528160a08201528160c08201528160e0820152600660406101009380858501528061012080950152600435815261016060205220611104610b8d565b81546001600160a01b031681529360018201546001600160a01b038116602087015263ffffffff60a082901c8116604088015260c082901c1660608701526111569060ff9060e01c1615156080870152565b600282015460a0860152600382015460c0860152600482015460e08601526005820154908501520154908201526040519182918281516001600160a01b03168152610140810192916020818101516001600160a01b03169083015260408181015163ffffffff169083015260608181015163ffffffff169083015260808181015115159083015260a081015160a083015260c081015160c083015260e081015160e0830152610100808201519083015261012080910151910152565b503461000e57600080600319360112610b13578080526065602090815260408083203360009081529252902061124a9060ff906102d9565b600160fb5461125c60ff8216156125f0565b60ff19161760fb557f62e78cea01bee320cd4e420270b5ea74000d11b0c9f74754ebdbfc544b05a2586020604051338152a1604051f35b503461000e57604036600319011261000e57602060ff6112de6024356112b881610286565b6004356000526065845260406000209060018060a01b0316600052602052604060002090565b54166040519015158152f35b503461000e57602036600319011261000e57336000908152600080516020612b3e83398151915260205260408120600435906113289060ff906102d9565b80825261016060205260ff600160408420015460e01c166113b7576113af816113717f2809c7e17bf978fbc7194c0a694b638c4215e9140cacc6c38ca36010b45697df93612a8c565b61139f600161138b83600052610160602052604060002090565b01805460ff60e01b1916600160e01b179055565b6040519081529081906020820190565b0390a1604051f35b60405162461bcd60e51b815260206004820152601b60248201527f41756374696f6e20697320616c72656164792066696e697368656400000000006044820152606490fd5b503461000e57608036600319011261000e5760043561141a81610286565b60643561142681610286565b61147161143161237f565b92836114e4575b61144061230b565b61145a60ff60005460081c16611455816122ab565b6122ab565b60ff1960fb541660fb5561146c61230b565b61190c565b602435610161556044356101625561015f80546001600160a01b0319166001600160a01b039092169190911790556114a557005b6114b561ff001960005416600055565b604051600181527f7f26b83ff96e1f2b6a682f133852f6798a09c465da95921460cefb384740249890602090a1005b61010061ff00196000541617600055611438565b503461000e57600036600319011261000e57602060405160008152f35b503461000e57608036600319011261000e576004356115ec6115356106fa565b336000908152600080516020612b3e8339815191526020526040812090936001916115b891906115679060ff906102d9565b8086526101608060205261158760ff8560408a20015460e01c16156127db565b8187526020526115a763ffffffff8460408920015460c01c161515612901565b600052610160602052604060002090565b6024356004820155604435600582015501805463ffffffff60c01b191660c09290921b63ffffffff60c01b16919091179055565b604051f35b61ffff81160361000e57565b503461000e57602036600319011261000e5761ffff60043561161e816115f1565b336000908152600080516020612b3e833981519152602052604090206116469060ff906102d9565b1661016255005b503461000e57600036600319011261000e57602061016254604051908152f35b503461000e57604036600319011261000e5761092360243560043561169182610286565b8060005260656020526116ab60016040600020015461174b565b6119a2565b503461000e57600036600319011261000e57602061016154604051908152f35b503461000e57600036600319011261000e5761015f546040516001600160a01b039091168152602090f35b503461000e57602036600319011261000e5761ffff60043561171c816115f1565b336000908152600080516020612b3e833981519152602052604090206117449060ff906102d9565b1661016155005b600081815260656020908152604080832033845290915290205460ff16156117705750565b339061177a611af4565b91603061178684612150565b53607861179284612166565b5360295b60018111611845576118416117fe6118298661181b6117be886117b989156121b1565b6121fc565b6117f86040519586946117f8602087016017907f416363657373436f6e74726f6c3a206163636f756e742000000000000000000081520190565b906118c9565b7001034b99036b4b9b9b4b733903937b6329607d1b815260110190565b03601f198101835282610b6b565b60405162461bcd60e51b8152918291600483016118e0565b0390fd5b9080600f61188292166010811015611887575b6f181899199a1a9b1b9c1cb0b131b232b360811b901a6118788487612177565b5360041c91612196565b611796565b61188f612139565b611858565b918091926000905b8282106118b45750116118ad575050565b6000910152565b9150806020918301518186015201829161189c565b906118dc60209282815194859201611894565b0190565b604091602082526119008151809281602086015260208686019101611894565b601f01601f1916010190565b6001600160a01b0381166000908152600080516020612b3e833981519152602052604081205460ff161561193e575050565b8080526065602090815260408083206001600160a01b038516600090815292529020805460ff1916600117905560405133926001600160a01b031691907f2f8788117e7eff1d82e926ec794901d17c78024a50270940304540a733656f0d908290a4565b60008181526065602090815260408083206001600160a01b038616845290915290205460ff166119d0575050565b60008181526065602090815260408083206001600160a01b03861684529091529020805460ff1916905560405133926001600160a01b031691907ff6391f5c32d9c69d2a47ea670b442974b53935d1edc7fd64eb21e047a839171b90600090a4565b15611a3957565b60405162461bcd60e51b815260206004820152602c60248201527f46756e6374696f6e206d7573742062652063616c6c6564207468726f7567682060448201526b19195b1959d85d1958d85b1b60a21b6064820152608490fd5b15611a9a57565b60405162461bcd60e51b815260206004820152602c60248201527f46756e6374696f6e206d7573742062652063616c6c6564207468726f7567682060448201526b6163746976652070726f787960a01b6064820152608490fd5b604051906060820182811067ffffffffffffffff821117611b22575b604052602a8252604082602036910137565b611b2a610b16565b611b10565b9081602091031261000e575190565b506040513d6000823e3d90fd5b15611b5257565b60405162461bcd60e51b815260206004820152602960248201527f45524331393637557067726164653a20756e737570706f727465642070726f786044820152681a58589b195555525160ba1b6064820152608490fd5b60809060208152602e60208201527f45524331393637557067726164653a206e657720696d706c656d656e7461746960408201526d6f6e206973206e6f74205555505360901b60608201520190565b90611c247f4910fdfa16fed3260ed0e7147f7cc6da11a60208b5b9406d12a635614ffd91435460ff1690565b15611c335750610b9a90611ccb565b6040516352d1902d60e01b8152916020836004816001600160a01b0385165afa60009381611c9b575b50611c7a5760405162461bcd60e51b81528061184160048201611ba9565b611c96600080516020612b5e833981519152610b9a9414611b4b565b611d5b565b611cbd91945060203d8111611cc4575b611cb58183610b6b565b810190611b2f565b9238611c5c565b503d611cab565b803b15611d0057600080516020612b5e83398151915280546001600160a01b0319166001600160a01b03909216919091179055565b60405162461bcd60e51b815260206004820152602d60248201527f455243313936373a206e657720696d706c656d656e746174696f6e206973206e60448201526c1bdd08184818dbdb9d1c9858dd609a1b6064820152608490fd5b90611d6582611ccb565b604051600092906001600160a01b0382167fbc7cd75a20ee27fd9adebab32041f755214dbc6bffa90cc0225b39da2e5c2d3b8583a2825115801590611e64575b611db0575b50505050565b813b15611e135750918082611e019460208395519201905af4903d15611e0b573d611dda81610b9c565b90611de86040519283610b6b565b8152809160203d92013e5b611dfb611f15565b916120a8565b5038808080611daa565b506060611df3565b62461bcd60e51b815260206004820152602660248201527f416464726573733a2064656c65676174652063616c6c20746f206e6f6e2d636f6044820152651b9d1c9858dd60d21b6064820152608490fd5b5083611da5565b611e7481611ccb565b6040516001600160a01b0382167fbc7cd75a20ee27fd9adebab32041f755214dbc6bffa90cc0225b39da2e5c2d3b600083a2825115801590611f0d575b611eba57505050565b813b15611e13575060008281926020611f0395519201905af43d15611f06573d611ee381610b9c565b90611ef16040519283610b6b565b81523d6000602083013e611dfb611f15565b50565b6060611df3565b506001611eb1565b604051906060820182811067ffffffffffffffff821117611f70575b60405260278252660819985a5b195960ca1b6040837f416464726573733a206c6f772d6c6576656c2064656c65676174652063616c6c60208201520152565b611f78610b16565b611f31565b6001600160a01b037f000000000000000000000000000000000000000000000000000000000000000081169290611fb630851415611a32565b611fd3600080516020612b5e833981519152948286541614611a93565b336000908152600080516020612b3e83398151915260205260409020611ffb9060ff906102d9565b7f4910fdfa16fed3260ed0e7147f7cc6da11a60208b5b9406d12a635614ffd91435460ff1615612031575050610b9a9150611ccb565b6020600491604094939451928380926352d1902d60e01b825286165afa60009181612088575b506120755760405162461bcd60e51b81528061184160048201611ba9565b610b9a936120839114611b4b565b611e6b565b6120a191925060203d8111611cc457611cb58183610b6b565b9038612057565b909190156120b4575090565b8151156120c45750805190602001fd5b60405162461bcd60e51b815290819061184190600483016118e0565b50634e487b7160e01b600052601160045260246000fd5b806000190482118115151661210a570290565b6121126120e0565b0290565b61271081198111612125570190565b6118dc6120e0565b81198111612125570190565b50634e487b7160e01b600052603260045260246000fd5b60209080511561215e570190565b6118dc612139565b60219080516001101561215e570190565b90602091805182101561218957010190565b612191612139565b010190565b80156121a4575b6000190190565b6121ac6120e0565b61219d565b156121b857565b606460405162461bcd60e51b815260206004820152602060248201527f537472696e67733a20686578206c656e67746820696e73756666696369656e746044820152fd5b604051906080820182811067ffffffffffffffff82111761229e575b604052604282526060366020840137603061223283612150565b53607861223e83612166565b536041905b60018211612259576122569150156121b1565b90565b80600f61228b92166010811015612291575b6f181899199a1a9b1b9c1cb0b131b232b360811b901a6118788486612177565b90612243565b612299612139565b61226b565b6122a6610b16565b612218565b156122b257565b60405162461bcd60e51b815260206004820152602b60248201527f496e697469616c697a61626c653a20636f6e7472616374206973206e6f74206960448201526a6e697469616c697a696e6760a81b6064820152608490fd5b610b9a60ff60005460081c166122ab565b1561232357565b60405162461bcd60e51b815260206004820152602e60248201527f496e697469616c697a61626c653a20636f6e747261637420697320616c72656160448201526d191e481a5b9a5d1a585b1a5e995960921b6064820152608490fd5b60005460ff8160081c166000146123a1575061239c303b1561231c565b600090565b806123b2600160ff8194161061231c565b60ff191617600055600190565b156123c657565b60405162461bcd60e51b815260206004820152601060248201526f41646d696e2063616c6c73206f6e6c7960801b6044820152606490fd5b1561240557565b60405162461bcd60e51b8152602060048201526014602482015273496e76616c69642061756374696f6e2074696d6560601b6044820152606490fd5b1561244857565b60405162461bcd60e51b8152602060048201526015602482015274496e76616c696420627579206e6f7720707269636560581b6044820152606490fd5b9081602091031261000e5751801515810361000e5790565b156124a457565b60405162461bcd60e51b815260206004820152601960248201527f436f6c6c656374696f6e20646f6573206e6f74206578697374000000000000006044820152606490fd5b815181546001600160a01b0319166001600160a01b03909116178155906006906101209060208101516001850180546001600160a01b0319166001600160a01b039092169190911781556125c09061256b61254b604085015163ffffffff1690565b825463ffffffff60a01b191660a09190911b63ffffffff60a01b16178255565b61259f61257f606085015163ffffffff1690565b825463ffffffff60c01b191660c09190911b63ffffffff60c01b16178255565b60808301511515815460ff60e01b191690151560e01b60ff60e01b16179055565b60a0810151600285015560c0810151600385015560e0810151600485015561010081015160058501550151910155565b156125f757565b60405162461bcd60e51b815260206004820152601060248201526f14185d5cd8589b194e881c185d5cd95960821b6044820152606490fd5b61263e60ff60fb5416156125f0565b61265381600052610160602052604060002090565b90600182019182549061266c60ff8360e01c16156127db565b6006810154815490929063ffffffff906001600160a01b03169160c01c16421180156127ce575b61269c90612827565b845460ff60e01b1916600160e01b1785556001600160a01b03811694856126e2575b505060405191825250600080516020612b7e8339815191529080602081015b0390a3565b8054929391926126fa906001600160a01b031661040e565b9260026003860154950190815494803b1561000e576104ab6126dd966104ec6020956104c961040e61278b998b98600080516020612b7e8339815191529e604051809a8180946305661ce360e11b825260009d8e9d8e9d8e978894600485019160c0939160018060a01b03168352602083015260016040830152606082015260a06080820152600060a08201520190565b03925af180156127c1575b6127a3575b8193506126be565b6127ba9060203d81116105895761057a8183610b6b565b503861279b565b6127c9611b3e565b612796565b5060048201548314612693565b156127e257565b60405162461bcd60e51b815260206004820152601760248201527f41756374696f6e20616c726561647920736574746c65640000000000000000006044820152606490fd5b1561282e57565b60405162461bcd60e51b815260206004820152601860248201527f41756374696f6e206973207374696c6c2072756e6e696e6700000000000000006044820152606490fd5b60808183031261000e57805161288881610286565b926020820151612897816115f1565b92604083015167ffffffffffffffff811161000e5783019080601f8301121561000e578151916128c683610b9c565b916128d46040519384610b6b565b8383526020848301011161000e576060926128f59160208085019101611894565b92015161225681610286565b1561290857565b60405162461bcd60e51b8152602060048201526011602482015270105d58dd1a5bdb881b9bdd08199bdd5b99607a1b6044820152606490fd5b1561294857565b60405162461bcd60e51b8152602060048201526011602482015270105d58dd1a5bdb881a185cc8195b991959607a1b6044820152606490fd5b1561298857565b60405162461bcd60e51b815260206004820152601960248201527f426964206973206c6f776572207468616e206d696e696d756d000000000000006044820152606490fd5b156129d457565b60405162461bcd60e51b815260206004820152602760248201527f426964206973206c6f776572207468616e20686967686573742062696420696e60448201526618dc995b595b9d60ca1b6064820152608490fd5b15612a3057565b60405162461bcd60e51b815260206004820152601d60248201527f42696420686967686572207468616e20627579206e6f772070726963650000006044820152606490fd5b818110612a80570390565b612a886120e0565b0390565b612aa190600052610160602052604060002090565b80546006820180546001600160a01b03198316909355600090556001600160a01b039081169182612ad157505050565b61015f5460405163a9059cbb60e01b81526001600160a01b03949094166004850152602484019190915260209183916044918391600091165af18015612b30575b612b195750565b611f039060203d81116105895761057a8183610b6b565b612b38611b3e565b612b1256feffdfc1249c027f9191656349feb0761381bb32c9f557e01f419fd08754bf5a1b360894a13ba1a3210667c828492db98dca3e2076cc3735a920a3ca505d382bbcc9f72b276a388619c6d185d146697036241880c36654b1a3ffdad07c24038d99a26469706673582212204734f5aaa58aa4144c7481dab07c48d6dd4f05fcbfcb1a727743f9b33072cfe864736f6c634300080e0033",
  "linkReferences": {},
  "deployedLinkReferences": {}
}