{
  "_format": "hh-sol-artifact-1",
  "contractName": "Auction",
  "sourceName": "contracts/Auction/Auction.sol",
  "abi": [
    {
      "anonymous": false,
      "inputs": [
        {
          "indexed": false,
          "internalType": "address",
          "name": "previousAdmin",
          "type": "address"
        },
        {
          "indexed": false,
          "internalType": "address",
          "name": "newAdmin",
          "type": "address"
        }
      ],
      "name": "AdminChanged",
      "type": "event"
    },
    {
      "anonymous": false,
      "inputs": [
        {
          "indexed": true,
          "internalType": "uint256",
          "name": "auctionId",
          "type": "uint256"
        },
        {
          "indexed": true,
          "internalType": "address",
          "name": "previousBidder",
          "type": "address"
        }
      ],
      "name": "AuctionCancelled",
      "type": "event"
    },
    {
      "anonymous": false,
      "inputs": [
        {
          "indexed": false,
          "internalType": "uint256",
          "name": "auctionId",
          "type": "uint256"
        },
        {
          "indexed": false,
          "internalType": "uint256",
          "name": "nftId",
          "type": "uint256"
        }
      ],
      "name": "AuctionCreated",
      "type": "event"
    },
    {
      "anonymous": false,
      "inputs": [
        {
          "indexed": true,
          "internalType": "uint256",
          "name": "auctionId",
          "type": "uint256"
        },
        {
          "indexed": true,
          "internalType": "address",
          "name": "highestBidder",
          "type": "address"
        },
        {
          "indexed": false,
          "internalType": "uint256",
          "name": "highestBid",
          "type": "uint256"
        }
      ],
      "name": "AuctionSettled",
      "type": "event"
    },
    {
      "anonymous": false,
      "inputs": [
        {
          "indexed": true,
          "internalType": "address",
          "name": "beacon",
          "type": "address"
        }
      ],
      "name": "BeaconUpgraded",
      "type": "event"
    },
    {
      "anonymous": false,
      "inputs": [
        {
          "indexed": true,
          "internalType": "uint256",
          "name": "auctionId",
          "type": "uint256"
        },
        {
          "indexed": true,
          "internalType": "address",
          "name": "newBidder",
          "type": "address"
        },
        {
          "indexed": true,
          "internalType": "address",
          "name": "previousBidder",
          "type": "address"
        },
        {
          "indexed": false,
          "internalType": "uint256",
          "name": "bidAmount",
          "type": "uint256"
        },
        {
          "indexed": false,
          "internalType": "uint256",
          "name": "newEndTime",
          "type": "uint256"
        }
      ],
      "name": "BidPlaced",
      "type": "event"
    },
    {
      "anonymous": false,
      "inputs": [
        {
          "indexed": false,
          "internalType": "uint8",
          "name": "version",
          "type": "uint8"
        }
      ],
      "name": "Initialized",
      "type": "event"
    },
    {
      "anonymous": false,
      "inputs": [
        {
          "indexed": false,
          "internalType": "address",
          "name": "account",
          "type": "address"
        }
      ],
      "name": "Paused",
      "type": "event"
    },
    {
      "anonymous": false,
      "inputs": [
        {
          "indexed": true,
          "internalType": "bytes32",
          "name": "role",
          "type": "bytes32"
        },
        {
          "indexed": true,
          "internalType": "bytes32",
          "name": "previousAdminRole",
          "type": "bytes32"
        },
        {
          "indexed": true,
          "internalType": "bytes32",
          "name": "newAdminRole",
          "type": "bytes32"
        }
      ],
      "name": "RoleAdminChanged",
      "type": "event"
    },
    {
      "anonymous": false,
      "inputs": [
        {
          "indexed": true,
          "internalType": "bytes32",
          "name": "role",
          "type": "bytes32"
        },
        {
          "indexed": true,
          "internalType": "address",
          "name": "account",
          "type": "address"
        },
        {
          "indexed": true,
          "internalType": "address",
          "name": "sender",
          "type": "address"
        }
      ],
      "name": "RoleGranted",
      "type": "event"
    },
    {
      "anonymous": false,
      "inputs": [
        {
          "indexed": true,
          "internalType": "bytes32",
          "name": "role",
          "type": "bytes32"
        },
        {
          "indexed": true,
          "internalType": "address",
          "name": "account",
          "type": "address"
        },
        {
          "indexed": true,
          "internalType": "address",
          "name": "sender",
          "type": "address"
        }
      ],
      "name": "RoleRevoked",
      "type": "event"
    },
    {
      "anonymous": false,
      "inputs": [
        {
          "indexed": false,
          "internalType": "address",
          "name": "account",
          "type": "address"
        }
      ],
      "name": "Unpaused",
      "type": "event"
    },
    {
      "anonymous": false,
      "inputs": [
        {
          "indexed": true,
          "internalType": "address",
          "name": "implementation",
          "type": "address"
        }
      ],
      "name": "Upgraded",
      "type": "event"
    },
    {
      "inputs": [],
      "name": "DEFAULT_ADMIN_ROLE",
      "outputs": [
        {
          "internalType": "bytes32",
          "name": "",
          "type": "bytes32"
        }
      ],
      "stateMutability": "view",
      "type": "function"
    },
    {
      "inputs": [
        {
          "internalType": "uint256",
          "name": "",
          "type": "uint256"
        }
      ],
      "name": "auctions",
      "outputs": [
        {
          "internalType": "address",
          "name": "highestBidder",
          "type": "address"
        },
        {
          "internalType": "contract INFT",
          "name": "nftContract",
          "type": "address"
        },
        {
          "internalType": "uint32",
          "name": "startTime",
          "type": "uint32"
        },
        {
          "internalType": "uint32",
          "name": "endTime",
          "type": "uint32"
        },
        {
          "internalType": "bool",
          "name": "settled",
          "type": "bool"
        },
        {
          "internalType": "uint256",
          "name": "nftId",
          "type": "uint256"
        },
        {
          "internalType": "uint256",
          "name": "minimumPrice",
          "type": "uint256"
        },
        {
          "internalType": "uint256",
          "name": "highestBid",
          "type": "uint256"
        },
        {
          "internalType": "string",
          "name": "nftUri",
          "type": "string"
        }
      ],
      "stateMutability": "view",
      "type": "function"
    },
    {
      "inputs": [
        {
          "internalType": "uint256",
          "name": "_auctionId",
          "type": "uint256"
        },
        {
          "internalType": "uint256",
          "name": "_amount",
          "type": "uint256"
        }
      ],
      "name": "bid",
      "outputs": [],
      "stateMutability": "nonpayable",
      "type": "function"
    },
    {
      "inputs": [
        {
          "internalType": "uint256",
          "name": "_auctionId",
          "type": "uint256"
        }
      ],
      "name": "cancelAuction",
      "outputs": [],
      "stateMutability": "nonpayable",
      "type": "function"
    },
    {
      "inputs": [
        {
          "internalType": "uint256",
          "name": "_auctionId",
          "type": "uint256"
        },
        {
          "internalType": "uint256",
          "name": "_nftId",
          "type": "uint256"
        },
        {
          "internalType": "uint256",
          "name": "_minimumPrice",
          "type": "uint256"
        },
        {
          "internalType": "uint32",
          "name": "_startTime",
          "type": "uint32"
        },
        {
          "internalType": "uint32",
          "name": "_endTime",
          "type": "uint32"
        },
        {
          "internalType": "contract INFT",
          "name": "_nftContract",
          "type": "address"
        },
        {
          "internalType": "string",
          "name": "_nftUri",
          "type": "string"
        }
      ],
      "name": "createAuction",
      "outputs": [
        {
          "internalType": "uint256",
          "name": "auctionId",
          "type": "uint256"
        }
      ],
      "stateMutability": "nonpayable",
      "type": "function"
    },
    {
      "inputs": [],
      "name": "erc20",
      "outputs": [
        {
          "internalType": "contract IERC20",
          "name": "",
          "type": "address"
        }
      ],
      "stateMutability": "view",
      "type": "function"
    },
    {
      "inputs": [
        {
          "internalType": "uint256",
          "name": "_auctionId",
          "type": "uint256"
        }
      ],
      "name": "getAuction",
      "outputs": [
        {
          "components": [
            {
              "internalType": "address",
              "name": "highestBidder",
              "type": "address"
            },
            {
              "internalType": "contract INFT",
              "name": "nftContract",
              "type": "address"
            },
            {
              "internalType": "uint32",
              "name": "startTime",
              "type": "uint32"
            },
            {
              "internalType": "uint32",
              "name": "endTime",
              "type": "uint32"
            },
            {
              "internalType": "bool",
              "name": "settled",
              "type": "bool"
            },
            {
              "internalType": "uint256",
              "name": "nftId",
              "type": "uint256"
            },
            {
              "internalType": "uint256",
              "name": "minimumPrice",
              "type": "uint256"
            },
            {
              "internalType": "uint256",
              "name": "highestBid",
              "type": "uint256"
            },
            {
              "internalType": "string",
              "name": "nftUri",
              "type": "string"
            }
          ],
          "internalType": "struct Auction.AuctionInfo",
          "name": "",
          "type": "tuple"
        }
      ],
      "stateMutability": "view",
      "type": "function"
    },
    {
      "inputs": [],
      "name": "getBidIncrementPercentage",
      "outputs": [
        {
          "internalType": "uint256",
          "name": "",
          "type": "uint256"
        }
      ],
      "stateMutability": "view",
      "type": "function"
    },
    {
      "inputs": [],
      "name": "getDefaultTimeExtension",
      "outputs": [
        {
          "internalType": "uint256",
          "name": "",
          "type": "uint256"
        }
      ],
      "stateMutability": "view",
      "type": "function"
    },
    {
      "inputs": [
        {
          "internalType": "bytes32",
          "name": "role",
          "type": "bytes32"
        }
      ],
      "name": "getRoleAdmin",
      "outputs": [
        {
          "internalType": "bytes32",
          "name": "",
          "type": "bytes32"
        }
      ],
      "stateMutability": "view",
      "type": "function"
    },
    {
      "inputs": [
        {
          "internalType": "bytes32",
          "name": "role",
          "type": "bytes32"
        },
        {
          "internalType": "address",
          "name": "account",
          "type": "address"
        }
      ],
      "name": "grantRole",
      "outputs": [],
      "stateMutability": "nonpayable",
      "type": "function"
    },
    {
      "inputs": [
        {
          "internalType": "bytes32",
          "name": "role",
          "type": "bytes32"
        },
        {
          "internalType": "address",
          "name": "account",
          "type": "address"
        }
      ],
      "name": "hasRole",
      "outputs": [
        {
          "internalType": "bool",
          "name": "",
          "type": "bool"
        }
      ],
      "stateMutability": "view",
      "type": "function"
    },
    {
      "inputs": [
        {
          "internalType": "address",
          "name": "_admin",
          "type": "address"
        },
        {
          "internalType": "uint256",
          "name": "_defaultTimeExtension",
          "type": "uint256"
        },
        {
          "internalType": "uint256",
          "name": "_bidIncrementPercentage",
          "type": "uint256"
        },
        {
          "internalType": "address",
          "name": "_token",
          "type": "address"
        },
        {
          "internalType": "address",
          "name": "_storage",
          "type": "address"
        }
      ],
      "name": "initialize",
      "outputs": [],
      "stateMutability": "nonpayable",
      "type": "function"
    },
    {
      "inputs": [],
      "name": "pause",
      "outputs": [],
      "stateMutability": "nonpayable",
      "type": "function"
    },
    {
      "inputs": [],
      "name": "paused",
      "outputs": [
        {
          "internalType": "bool",
          "name": "",
          "type": "bool"
        }
      ],
      "stateMutability": "view",
      "type": "function"
    },
    {
      "inputs": [],
      "name": "proxiableUUID",
      "outputs": [
        {
          "internalType": "bytes32",
          "name": "",
          "type": "bytes32"
        }
      ],
      "stateMutability": "view",
      "type": "function"
    },
    {
      "inputs": [
        {
          "internalType": "bytes32",
          "name": "role",
          "type": "bytes32"
        },
        {
          "internalType": "address",
          "name": "account",
          "type": "address"
        }
      ],
      "name": "renounceRole",
      "outputs": [],
      "stateMutability": "nonpayable",
      "type": "function"
    },
    {
      "inputs": [
        {
          "internalType": "bytes32",
          "name": "role",
          "type": "bytes32"
        },
        {
          "internalType": "address",
          "name": "account",
          "type": "address"
        }
      ],
      "name": "revokeRole",
      "outputs": [],
      "stateMutability": "nonpayable",
      "type": "function"
    },
    {
      "inputs": [
        {
          "internalType": "uint16",
          "name": "_bidIncrementPercentage",
          "type": "uint16"
        }
      ],
      "name": "setBidIncrementPercentage",
      "outputs": [],
      "stateMutability": "nonpayable",
      "type": "function"
    },
    {
      "inputs": [
        {
          "internalType": "uint16",
          "name": "_timeExtension",
          "type": "uint16"
        }
      ],
      "name": "setDefaultTimeExtension",
      "outputs": [],
      "stateMutability": "nonpayable",
      "type": "function"
    },
    {
      "inputs": [
        {
          "internalType": "address",
          "name": "_token",
          "type": "address"
        }
      ],
      "name": "setToken",
      "outputs": [],
      "stateMutability": "nonpayable",
      "type": "function"
    },
    {
      "inputs": [
        {
          "internalType": "uint256",
          "name": "_auctionId",
          "type": "uint256"
        }
      ],
      "name": "settleAuction",
      "outputs": [],
      "stateMutability": "nonpayable",
      "type": "function"
    },
    {
      "inputs": [
        {
          "internalType": "bytes4",
          "name": "interfaceId",
          "type": "bytes4"
        }
      ],
      "name": "supportsInterface",
      "outputs": [
        {
          "internalType": "bool",
          "name": "",
          "type": "bool"
        }
      ],
      "stateMutability": "view",
      "type": "function"
    },
    {
      "inputs": [],
      "name": "unpause",
      "outputs": [],
      "stateMutability": "nonpayable",
      "type": "function"
    },
    {
      "inputs": [
        {
          "internalType": "uint256",
          "name": "_auctionId",
          "type": "uint256"
        },
        {
          "internalType": "uint256",
          "name": "_minimumPrice",
          "type": "uint256"
        },
        {
          "internalType": "uint32",
          "name": "_endTime",
          "type": "uint32"
        }
      ],
      "name": "updateAuction",
      "outputs": [],
      "stateMutability": "nonpayable",
      "type": "function"
    },
    {
      "inputs": [
        {
          "internalType": "address",
          "name": "newImplementation",
          "type": "address"
        }
      ],
      "name": "upgradeTo",
      "outputs": [],
      "stateMutability": "nonpayable",
      "type": "function"
    },
    {
      "inputs": [
        {
          "internalType": "address",
          "name": "newImplementation",
          "type": "address"
        },
        {
          "internalType": "bytes",
          "name": "data",
          "type": "bytes"
        }
      ],
      "name": "upgradeToAndCall",
      "outputs": [],
      "stateMutability": "payable",
      "type": "function"
    }
  ],
  "bytecode": "0x60a080604052346100315730608052612cd3908161003782396080518181816108bd01528181610ad80152610b1e0152f35b600080fdfe60806040526004361015610013575b600080fd5b60003560e01c806301ffc9a71461022f57806303b54d5214610226578063144fa6d71461021d578063248a9ca3146102145780632e9936111461020b5780632f2ff15d1461020257806336568abe146101f95780633659cfe6146101f05780633f4ba83a146101e7578063481b13d2146101de5780634f1ef286146101d557806352d1902d146101cc578063571a26a0146101c3578063598647f8146101ba5780635c975abb146101b1578063785e9e86146101a857806378bd79351461019f578063809d6172146101965780638456cb591461018d5780638f8038421461018457806391d148541461017b57806396b5a75514610172578063a217fddf14610169578063c3c675bc14610160578063d547741f14610157578063d828abe11461014e5763ff54a5ca1461014657600080fd5b61000e6115d6565b5061000e61154e565b5061000e61150b565b5061000e6114d2565b5061000e611498565b5061000e61145e565b5061000e611407565b5061000e6113c2565b5061000e611352565b5061000e611332565b5061000e611238565b5061000e61117f565b5061000e61115b565b5061000e610de4565b5061000e610d65565b5061000e610b0a565b5061000e610a74565b5061000e61096c565b5061000e610935565b5061000e610887565b5061000e6107f0565b5061000e61071f565b5061000e6104db565b5061000e6104ab565b5061000e6103b3565b5061000e610297565b503461000e57602036600319011261000e5760043563ffffffff60e01b811680910361000e57602090637965db0b60e01b8114908115610275575b506040519015158152f35b6301ffc9a760e01b1490503861026a565b6001600160a01b0381160361000e57565b503461000e5760a036600319011261000e576004356102b581610286565b6103596064356102c481610286565b6084356102d081610286565b61031b6102db6121e1565b948561039f575b6102ea61216d565b61030460ff60005460081c166102ff8161210d565b61210d565b60ff1960fb541660fb5561031661216d565b611772565b602435610162556044356101635561015f80546001600160a01b039384166001600160a01b0319918216179091556101608054929093169116179055565b610360575b005b61037061ff001960005416600055565b604051600181527f7f26b83ff96e1f2b6a682f133852f6798a09c465da95921460cefb384740249890602090a1005b61010061ff001960005416176000556102e2565b503461000e57602036600319011261000e5761035e6004356103d481610286565b6101605461044e90610434906020906001600160a01b03165b60405182810190610410816104023385612221565b03601f1981018352826109e1565b519020906040518080958194633d70e7e560e11b8352600483019190602083019252565b03915afa90811561049e575b600091610470575b50612268565b61015f80546001600160a01b0319166001600160a01b03909216919091179055565b610491915060203d8111610497575b61048981836109e1565b810190612250565b38610448565b503d61047f565b6104a66119ef565b610440565b503461000e57602036600319011261000e5760043560005260656020526020600160406000200154604051908152f35b503461000e57602036600319011261000e576004356104ff60ff60fb54161561267c565b61051481600052610161602052604060002090565b906001820180549061052c60ff8360e01c16156126bb565b6004840154845490929061055e9063ffffffff906001600160a01b03169260c01c168015159081610715575b50612707565b815460ff60e01b1916600160e01b1782556001600160a01b03811694856105b6575b5050604051918252507fc9f72b276a388619c6d185d146697036241880c36654b1a3ffdad07c24038d999080602081015b0390a3005b8254929391926105d6906001600160a01b03165b6001600160a01b031690565b600282015490803b1561000e577fc9f72b276a388619c6d185d146697036241880c36654b1a3ffdad07c24038d99956105b195600060209487946005836106ac9961063960405197889687958694633349e71f60e21b8652019160048501612753565b03925af18015610708575b6106ef575b5061015f54610674906105ca90610666906001600160a01b031682565b92546001600160a01b031690565b60405163a9059cbb60e01b81526001600160a01b03909116600482015260248101929092529092839190829060009082906044820190565b03925af180156106e2575b6106c4575b819350610580565b6106db9060203d81116104975761048981836109e1565b50386106bc565b6106ea6119ef565b6106b7565b806106fc610702926109a3565b8061092a565b38610649565b6107106119ef565b610644565b9050421138610558565b503461000e5760408060031936011261000e576004359060243561074281610286565b600092808452606560205261075c6001848620015461160f565b808452606560209081528385206001600160a01b03841660009081529152604090205460ff161561078c57505051f35b808452606560209081528385206001600160a01b0384166000908152915260409020805460ff19166001179055825133926001600160a01b031691907f2f8788117e7eff1d82e926ec794901d17c78024a50270940304540a733656f0d908690a451f35b503461000e57604036600319011261000e5760243561080e81610286565b336001600160a01b0382160361082a5761035e9060043561181a565b60405162461bcd60e51b815260206004820152602f60248201527f416363657373436f6e74726f6c3a2063616e206f6e6c792072656e6f756e636560448201526e103937b632b9903337b91039b2b63360891b6064820152608490fd5b503461000e57602036600319011261000e5761035e6004356108a881610286565b61091c61043460206001600160a01b036109027f000000000000000000000000000000000000000000000000000000000000000082166108ea308214156118aa565b82600080516020612c7e83398151915254161461190b565b610160541660405182810190610410816104023385612221565b61092461196c565b90611aa9565b600091031261000e57565b503461000e57600036600319011261000e576101605461096490610434906020906001600160a01b03166103ed565b61035e612c02565b503461000e57600036600319011261000e57602061016354604051908152f35b50634e487b7160e01b600052604160045260246000fd5b67ffffffffffffffff81116109b757604052565b6109bf61098c565b604052565b610120810190811067ffffffffffffffff8211176109b757604052565b90601f8019910116810190811067ffffffffffffffff8211176109b757604052565b60405190610a10826109c4565b565b60209067ffffffffffffffff8111610a30575b601f01601f19160190565b610a3861098c565b610a25565b929192610a4982610a12565b91610a5760405193846109e1565b82948184528183011161000e578281602093846000960137010152565b50604036600319011261000e57600435610a8d81610286565b6024359067ffffffffffffffff821161000e573660238301121561000e57610ac261035e923690602481600401359101610a3d565b90610b0561043460206001600160a01b036109027f000000000000000000000000000000000000000000000000000000000000000082166108ea308214156118aa565b611b7c565b503461000e57600036600319011261000e577f00000000000000000000000000000000000000000000000000000000000000006001600160a01b03163003610b6957604051600080516020612c7e8339815191528152602090f35b0390f35b60405162461bcd60e51b815260206004820152603860248201527f555550535570677261646561626c653a206d757374206e6f742062652063616c60448201527f6c6564207468726f7567682064656c656761746563616c6c00000000000000006064820152608490fd5b90600182811c92168015610c04575b6020831014610bee57565b634e487b7160e01b600052602260045260246000fd5b91607f1691610be3565b9060405191826000825492610c2284610bd4565b908184526001948581169081600014610c8f5750600114610c4c575b5050610a10925003836109e1565b9093915060005260209081600020936000915b818310610c77575050610a1093508201013880610c3e565b85548884018501529485019487945091830191610c5f565b9550505050505060ff19166020830152610a1082604081013880610c3e565b918091926000905b828210610cce575011610cc7575050565b6000910152565b91508060209183015181860152018291610cb6565b90602091610cfc81518092818552858086019101610cae565b601f01601f1916010190565b9694929190610d62999896949160018060a01b03809216895216602088015263ffffffff80921660408801521660608601521515608085015260a084015260c083015260e082015261012090816101008201520190610ce3565b90565b503461000e57602036600319011261000e57600435600052610161602052604060002060018060a01b0390610b6582825416926001830154926002810154600382015490610dba600560048501549401610c0e565b9360405197889763ffffffff9160ff8260e01c1693838360c01c16938360a01c169216908a610d08565b503461000e5760408060031936011261000e57600435906024359161012d92600284541461111757600260009455610e2160ff60fb54161561267c565b610e3682600052610161602052604060002090565b917f2808decb743a25d04efe1bd3dc192acde3be644e2f6ad1dce5d3c46643e1c602610fe26001850180549063ffffffff90818360c01c1692610e80838260a01c16421015612a79565b610ea360ff85159283801561110e575b610e9990612abd565b60e01c16156126bb565b87151580611100575b610eb590612afd565b610f3c60048a01610ee9610ee1610ed98354610ed361016354611f67565b90611f48565b612710900490565b8b1015612b49565b61015f80548d908c90610f04906001600160a01b03166105ca565b91516323b872dd60e01b8152336004820152306024820152604481019190915260209490918591839190829060009082906064820190565b03925af180156110f3575b6110d6575b508b548b906001600160a01b031683548e546001600160a01b0319163317909e5592556001600160a01b0382169b8d8d611047575b505050505061016254908b14610ff35750610fcc9150610fac610fa342611f7e565b63ffffffff1690565b815463ffffffff60c01b191660c09190911b63ffffffff60c01b16179055565b8651948552602085015233939081906040820190565b0390a4610ff0600161012d55565b51f35b80610ffe4286612ba5565b1061100c575b505050610fcc565b61103f92935061101c9042611f92565b815463ffffffff60c01b191693811660c01b63ffffffff60c01b16939093179055565b388080611004565b8f93611093946110616105ca88965460018060a01b031690565b925163a9059cbb60e01b81526001600160a01b0390921660048301526024820193909352938492839182906044820190565b03925af180156110c9575b6110ab575b80808d610f81565b816110c192903d106104975761048981836109e1565b5038806110a3565b6110d16119ef565b61109e565b6110ec90843d86116104975761048981836109e1565b5038610f4c565b6110fb6119ef565b610f47565b506003890154881015610eac565b50428711610e90565b825162461bcd60e51b815260206004820152601f60248201527f5265656e7472616e637947756172643a207265656e7472616e742063616c6c006044820152606490fd5b503461000e57600036600319011261000e57602060ff60fb54166040519015158152f35b503461000e57600036600319011261000e5761015f546040516001600160a01b039091168152602090f35b602080825282516001600160a01b031690820152610d62916101409060208101516001600160a01b03166040840152604081015163ffffffff166060840152606081015163ffffffff1660808401526080810151151560a084015260a081015160c084015260c081015160e084015260e0810151906101009182850152015191610120808201520190610ce3565b503461000e57602036600319011261000e57610b65604051611259816109c4565b6040600080835280602084015280828401528060608401528060808401528060a08401528060c08401528060e08401526060610100809401526004358152610161602052209061132260056112ac610a03565b84546001600160a01b031681529360018101546001600160a01b038116602087015263ffffffff60a082901c8116604088015260c082901c1660608701526112fe9060ff9060e01c1615156080870152565b600281015460a0860152600381015460c0860152600481015460e086015201610c0e565b90820152604051918291826111aa565b503461000e57600036600319011261000e57602061016254604051908152f35b503461000e57600036600319011261000e576101605461138190610434906020906001600160a01b03166103ed565b61035e612bbc565b6044359063ffffffff8216820361000e57565b6064359063ffffffff8216820361000e57565b6084359063ffffffff8216820361000e57565b503461000e57606036600319011261000e5761035e6113df611389565b610160546113fc90610434906020906001600160a01b03166103ed565b602435600435612801565b503461000e57604036600319011261000e57602060ff61145260243561142c81610286565b6004356000526065845260406000209060018060a01b0316600052602052604060002090565b54166040519015158152f35b503461000e57602036600319011261000e576101605461148d90610434906020906001600160a01b03166103ed565b61035e600435612911565b503461000e57600036600319011261000e57602060405160008152f35b602090600319011261000e5760043561ffff8116810361000e5790565b503461000e5761035e6114e4366114b5565b6101605461150190610434906020906001600160a01b03166103ed565b61ffff1661016355565b503461000e57604036600319011261000e5761035e60243560043561152f82610286565b80600052606560205261154960016040600020015461160f565b61181a565b503461000e5760e036600319011261000e5761156861139c565b6115706113af565b9060a4359061157e82610286565b60c4359167ffffffffffffffff831161000e573660238401121561000e57610b65936115b76115c6943690602481600401359101610a3d565b926044356024356004356122a7565b6040519081529081906020820190565b503461000e5761035e6115e8366114b5565b6101605461160590610434906020906001600160a01b03166103ed565b61ffff1661016255565b600081815260656020908152604080832033845290915290205460ff16156116345750565b339061163e6119a5565b91603061164a84611fb5565b53607861165684611fcb565b5360295b600181116116fb576116f76116c26116df866104026116828861167d8915612016565b612061565b6116bc6040519586946116bc602087016017907f416363657373436f6e74726f6c3a206163636f756e742000000000000000000081520190565b9061174a565b7001034b99036b4b9b9b4b733903937b6329607d1b815260110190565b60405162461bcd60e51b815291829160048301611761565b0390fd5b9080600f6117389216601081101561173d575b6f181899199a1a9b1b9c1cb0b131b232b360811b901a61172e8487611fdc565b5360041c91611ffb565b61165a565b611745611f9e565b61170e565b9061175d60209282815194859201610cae565b0190565b906020610d62928181520190610ce3565b6001600160a01b03811660009081527fffdfc1249c027f9191656349feb0761381bb32c9f557e01f419fd08754bf5a1b602052604081205460ff16156117b6575050565b8080526065602090815260408083206001600160a01b038516600090815292529020805460ff1916600117905560405133926001600160a01b031691907f2f8788117e7eff1d82e926ec794901d17c78024a50270940304540a733656f0d908290a4565b60008181526065602090815260408083206001600160a01b038616845290915290205460ff16611848575050565b60008181526065602090815260408083206001600160a01b03861684529091529020805460ff1916905560405133926001600160a01b031691907ff6391f5c32d9c69d2a47ea670b442974b53935d1edc7fd64eb21e047a839171b90600090a4565b156118b157565b60405162461bcd60e51b815260206004820152602c60248201527f46756e6374696f6e206d7573742062652063616c6c6564207468726f7567682060448201526b19195b1959d85d1958d85b1b60a21b6064820152608490fd5b1561191257565b60405162461bcd60e51b815260206004820152602c60248201527f46756e6374696f6e206d7573742062652063616c6c6564207468726f7567682060448201526b6163746976652070726f787960a01b6064820152608490fd5b604051906000602083019280841067ffffffffffffffff851117611998575b8360405281815292369037565b6119a061098c565b61198b565b604051906060820182811067ffffffffffffffff8211176119d3575b604052602a8252604082602036910137565b6119db61098c565b6119c1565b9081602091031261000e575190565b506040513d6000823e3d90fd5b15611a0357565b60405162461bcd60e51b815260206004820152602960248201527f45524331393637557067726164653a20756e737570706f727465642070726f786044820152681a58589b195555525160ba1b6064820152608490fd5b60809060208152602e60208201527f45524331393637557067726164653a206e657720696d706c656d656e7461746960408201526d6f6e206973206e6f74205555505360901b60608201520190565b90611ad57f4910fdfa16fed3260ed0e7147f7cc6da11a60208b5b9406d12a635614ffd91435460ff1690565b15611ae45750610a1090611c3f565b6040516352d1902d60e01b8152916020836004816001600160a01b0385165afa60009381611b4c575b50611b2b5760405162461bcd60e51b8152806116f760048201611a5a565b611b47600080516020612c7e833981519152610a1094146119fc565b611ccf565b611b6e91945060203d8111611b75575b611b6681836109e1565b8101906119e0565b9238611b0d565b503d611b5c565b90611ba87f4910fdfa16fed3260ed0e7147f7cc6da11a60208b5b9406d12a635614ffd91435460ff1690565b15611bb75750610a1090611c3f565b6040516352d1902d60e01b8152916020836004816001600160a01b0385165afa60009381611c1f575b50611bfe5760405162461bcd60e51b8152806116f760048201611a5a565b611c1a600080516020612c7e833981519152610a1094146119fc565b611ddf565b611c3891945060203d8111611b7557611b6681836109e1565b9238611be0565b803b15611c7457600080516020612c7e83398151915280546001600160a01b0319166001600160a01b03909216919091179055565b60405162461bcd60e51b815260206004820152602d60248201527f455243313936373a206e657720696d706c656d656e746174696f6e206973206e60448201526c1bdd08184818dbdb9d1c9858dd609a1b6064820152608490fd5b90611cd982611c3f565b604051600092906001600160a01b0382167fbc7cd75a20ee27fd9adebab32041f755214dbc6bffa90cc0225b39da2e5c2d3b8583a2825115801590611dd8575b611d24575b50505050565b813b15611d875750918082611d759460208395519201905af4903d15611d7f573d611d4e81610a12565b90611d5c60405192836109e1565b8152809160203d92013e5b611d6f611e89565b91611ef1565b5038808080611d1e565b506060611d67565b62461bcd60e51b815260206004820152602660248201527f416464726573733a2064656c65676174652063616c6c20746f206e6f6e2d636f6044820152651b9d1c9858dd60d21b6064820152608490fd5b5083611d19565b611de881611c3f565b6040516001600160a01b0382167fbc7cd75a20ee27fd9adebab32041f755214dbc6bffa90cc0225b39da2e5c2d3b600083a2825115801590611e81575b611e2e57505050565b813b15611d87575060008281926020611e7795519201905af43d15611e7a573d611e5781610a12565b90611e6560405192836109e1565b81523d6000602083013e611d6f611e89565b50565b6060611d67565b506001611e25565b604051906060820182811067ffffffffffffffff821117611ee4575b60405260278252660819985a5b195960ca1b6040837f416464726573733a206c6f772d6c6576656c2064656c65676174652063616c6c60208201520152565b611eec61098c565b611ea5565b90919015611efd575090565b815115611f0d5750805190602001fd5b60405162461bcd60e51b8152602060048201529081906116f7906024830190610ce3565b50634e487b7160e01b600052601160045260246000fd5b8060001904821181151516611f5b570290565b611f63611f31565b0290565b61271081198111611f76570190565b61175d611f31565b620151809062015180198111611f76570190565b81198111611f76570190565b50634e487b7160e01b600052603260045260246000fd5b602090805115611fc3570190565b61175d611f9e565b602190805160011015611fc3570190565b906020918051821015611fee57010190565b611ff6611f9e565b010190565b8015612009575b6000190190565b612011611f31565b612002565b1561201d57565b606460405162461bcd60e51b815260206004820152602060248201527f537472696e67733a20686578206c656e67746820696e73756666696369656e746044820152fd5b604051906080820182811067ffffffffffffffff821117612100575b604052604282526060366020840137603061209783611fb5565b5360786120a383611fcb565b536041905b600182116120bb57610d62915015612016565b80600f6120ed921660108110156120f3575b6f181899199a1a9b1b9c1cb0b131b232b360811b901a61172e8486611fdc565b906120a8565b6120fb611f9e565b6120cd565b61210861098c565b61207d565b1561211457565b60405162461bcd60e51b815260206004820152602b60248201527f496e697469616c697a61626c653a20636f6e7472616374206973206e6f74206960448201526a6e697469616c697a696e6760a81b6064820152608490fd5b610a1060ff60005460081c1661210d565b1561218557565b60405162461bcd60e51b815260206004820152602e60248201527f496e697469616c697a61626c653a20636f6e747261637420697320616c72656160448201526d191e481a5b9a5d1a585b1a5e995960921b6064820152608490fd5b60005460ff8160081c1660001461220357506121fe303b1561217e565b600090565b80612214600160ff8194161061217e565b60ff191617600055600190565b601e91693937b6329730b236b4b760b11b82526bffffffffffffffffffffffff199060601b16600a8201520190565b9081602091031261000e5751801515810361000e5790565b1561226f57565b60405162461bcd60e51b815260206004820152601060248201526f41646d696e2063616c6c73206f6e6c7960801b6044820152606490fd5b93909496959260018060a01b036101605416976123096040519960208b81809d01906122d7816104023385612221565b519020602460405180948193633d70e7e560e11b835260048301525afa90811561243d575b6000916124265750612268565b63ffffffff808416801591821561241a575b5050156123de576123c994926123837fe00a2da3a0f34a566402a244ab7ec63f8ab7472591cb18edf3269aa00461a410999a95936123766123909461235e610a03565b600081526001600160a01b0390911698810198909852565b63ffffffff166040870152565b63ffffffff166060850152565b600060808401528560a084015260c0830152600060e08301526101008201526123c483600052610161602052604060002090565b61257b565b604080519182526020820192909252a1600090565b60405162461bcd60e51b8152600481018a90526014602482015273496e76616c69642061756374696f6e2074696d6560601b6044820152606490fd5b8416109050388061231b565b61049191508b3d8d116104975761048981836109e1565b6124456119ef565b6122fc565b90601f811161245857505050565b600091825260208220906020601f850160051c83019410612494575b601f0160051c01915b82811061248957505050565b81815560010161247d565b9092508290612474565b919091825167ffffffffffffffff811161256e575b6124c7816124c18454610bd4565b8461244a565b602080601f83116001146125035750819293946000926124f8575b50508160011b916000199060031b1c1916179055565b0151905038806124e2565b90601f1983169561251985600052602060002090565b926000905b8882106125565750508360019596971061253d575b505050811b019055565b015160001960f88460031b161c19169055388080612533565b8060018596829496860151815501950193019061251e565b61257661098c565b6124b3565b815181546001600160a01b0319166001600160a01b03909116178155610a10916005906101009060208101516001850180546001600160a01b0319166001600160a01b03909216919091178155612655906126006125e0604085015163ffffffff1690565b825463ffffffff60a01b191660a09190911b63ffffffff60a01b16178255565b612634612614606085015163ffffffff1690565b825463ffffffff60c01b191660c09190911b63ffffffff60c01b16178255565b60808301511515815460ff60e01b191690151560e01b60ff60e01b16179055565b60a0810151600285015560c0810151600385015560e081015160048501550151910161249e565b1561268357565b60405162461bcd60e51b815260206004820152601060248201526f14185d5cd8589b194e881c185d5cd95960821b6044820152606490fd5b156126c257565b60405162461bcd60e51b815260206004820152601760248201527f41756374696f6e20616c726561647920736574746c65640000000000000000006044820152606490fd5b1561270e57565b60405162461bcd60e51b815260206004820152601860248201527f41756374696f6e206973207374696c6c2072756e6e696e6700000000000000006044820152606490fd5b6001600160a01b039091168152602080820192909252606060408201528254600093929061278081610bd4565b9384606085015260019182811690816000146127e257506001146127a7575b505050505090565b6000908152828120949550935b8585106127ce57505050608092500101388080808061279f565b8054858501608001529382019381016127b4565b9495505050505060a0925060ff1916608082015201388080808061279f565b919091806000526101618060205261282760ff60016040600020015460e01c16156126bb565b8160005260205263ffffffff60016040600020015460c01c161561288c57610a1092612860600192600052610161602052604060002090565b600381019190915501805463ffffffff60c01b191660c09290921b63ffffffff60c01b16919091179055565b60405162461bcd60e51b8152602060048201526011602482015270105d58dd1a5bdb881b9bdd08199bdd5b99607a1b6044820152606490fd5b156128cc57565b60405162461bcd60e51b815260206004820152601b60248201527f41756374696f6e20697320616c72656164792066696e697368656400000000006044820152606490fd5b61292681600052610161602052604060002090565b9061294861294361293f600185015460ff9060e01c1690565b1590565b6128c5565b81546001600160a01b0316916000600482016129778154936bffffffffffffffffffffffff60a01b8154169055565b556001600160a01b03831692836129e2575b50506129b960016129a583600052610161602052604060002090565b01805460ff60e01b1916600160e01b179055565b7f10ac9f0bb365b5d22d7bec500408692f23fdf83eadfec71615ef88b4c1134f0e6000604051a3565b61015f54612a38926020929091612a01906001600160a01b03166105ca565b60405163a9059cbb60e01b81526001600160a01b039092166004830152602482019290925292839190829060009082906044820190565b03925af18015612a6c575b612a4e575b80612989565b612a659060203d81116104975761048981836109e1565b5038612a48565b612a746119ef565b612a43565b15612a8057565b60405162461bcd60e51b815260206004820152601560248201527441756374696f6e206e6f7420617661696c61626c6560581b6044820152606490fd5b15612ac457565b60405162461bcd60e51b8152602060048201526011602482015270105d58dd1a5bdb881a185cc8195b991959607a1b6044820152606490fd5b15612b0457565b60405162461bcd60e51b815260206004820152601960248201527f426964206973206c6f776572207468616e206d696e696d756d000000000000006044820152606490fd5b15612b5057565b60405162461bcd60e51b815260206004820152602760248201527f426964206973206c6f776572207468616e20686967686573742062696420696e60448201526618dc995b595b9d60ca1b6064820152608490fd5b818110612bb0570390565b612bb8611f31565b0390565b600160fb54612bce60ff82161561267c565b60ff19161760fb557f62e78cea01bee320cd4e420270b5ea74000d11b0c9f74754ebdbfc544b05a2586020604051338152a1565b60fb5460ff811615612c415760ff191660fb557f5db9ee0a495bf2e6ff9c91a7834c1ba4fdd244a5e8aa4e537bd38aeae4b073aa6020604051338152a1565b60405162461bcd60e51b815260206004820152601460248201527314185d5cd8589b194e881b9bdd081c185d5cd95960621b6044820152606490fdfe360894a13ba1a3210667c828492db98dca3e2076cc3735a920a3ca505d382bbca2646970667358221220d3b4c990536c5f49c7b603e8a45ed3974f668f95882137fd923add814601119564736f6c634300080e0033",
  "linkReferences": {},
  "deployedLinkReferences": {}
}