{
  "_format": "hh-sol-artifact-1",
  "contractName": "Auction",
  "sourceName": "contracts/Auction/Auction.sol",
  "abi": [
    {
      "inputs": [],
      "stateMutability": "nonpayable",
      "type": "constructor"
    },
    {
      "anonymous": false,
      "inputs": [
        {
          "indexed": false,
          "internalType": "address",
          "name": "previousAdmin",
          "type": "address"
        },
        {
          "indexed": false,
          "internalType": "address",
          "name": "newAdmin",
          "type": "address"
        }
      ],
      "name": "AdminChanged",
      "type": "event"
    },
    {
      "anonymous": false,
      "inputs": [
        {
          "indexed": true,
          "internalType": "uint256",
          "name": "auctionId",
          "type": "uint256"
        },
        {
          "indexed": true,
          "internalType": "address",
          "name": "previousBidder",
          "type": "address"
        }
      ],
      "name": "AuctionCancelled",
      "type": "event"
    },
    {
      "anonymous": false,
      "inputs": [
        {
          "indexed": false,
          "internalType": "uint256",
          "name": "auctionId",
          "type": "uint256"
        },
        {
          "indexed": false,
          "internalType": "address",
          "name": "nftContract",
          "type": "address"
        }
      ],
      "name": "AuctionCreated",
      "type": "event"
    },
    {
      "anonymous": false,
      "inputs": [
        {
          "indexed": true,
          "internalType": "uint256",
          "name": "auctionId",
          "type": "uint256"
        },
        {
          "indexed": true,
          "internalType": "address",
          "name": "highestBidder",
          "type": "address"
        },
        {
          "indexed": false,
          "internalType": "uint256",
          "name": "highestBid",
          "type": "uint256"
        }
      ],
      "name": "AuctionSettled",
      "type": "event"
    },
    {
      "anonymous": false,
      "inputs": [
        {
          "indexed": true,
          "internalType": "address",
          "name": "beacon",
          "type": "address"
        }
      ],
      "name": "BeaconUpgraded",
      "type": "event"
    },
    {
      "anonymous": false,
      "inputs": [
        {
          "indexed": true,
          "internalType": "uint256",
          "name": "auctionId",
          "type": "uint256"
        },
        {
          "indexed": true,
          "internalType": "address",
          "name": "newBidder",
          "type": "address"
        },
        {
          "indexed": true,
          "internalType": "address",
          "name": "previousBidder",
          "type": "address"
        },
        {
          "indexed": false,
          "internalType": "uint256",
          "name": "bidAmount",
          "type": "uint256"
        },
        {
          "indexed": false,
          "internalType": "uint256",
          "name": "newEndTime",
          "type": "uint256"
        }
      ],
      "name": "BidPlaced",
      "type": "event"
    },
    {
      "anonymous": false,
      "inputs": [
        {
          "indexed": false,
          "internalType": "uint8",
          "name": "version",
          "type": "uint8"
        }
      ],
      "name": "Initialized",
      "type": "event"
    },
    {
      "anonymous": false,
      "inputs": [
        {
          "indexed": false,
          "internalType": "address",
          "name": "account",
          "type": "address"
        }
      ],
      "name": "Paused",
      "type": "event"
    },
    {
      "anonymous": false,
      "inputs": [
        {
          "indexed": false,
          "internalType": "address",
          "name": "account",
          "type": "address"
        }
      ],
      "name": "Unpaused",
      "type": "event"
    },
    {
      "anonymous": false,
      "inputs": [
        {
          "indexed": true,
          "internalType": "address",
          "name": "implementation",
          "type": "address"
        }
      ],
      "name": "Upgraded",
      "type": "event"
    },
    {
      "inputs": [],
      "name": "DEFAULT_EXTENSION",
      "outputs": [
        {
          "internalType": "uint256",
          "name": "",
          "type": "uint256"
        }
      ],
      "stateMutability": "view",
      "type": "function"
    },
    {
      "inputs": [
        {
          "internalType": "uint256",
          "name": "",
          "type": "uint256"
        }
      ],
      "name": "auctions",
      "outputs": [
        {
          "internalType": "address",
          "name": "highestBidder",
          "type": "address"
        },
        {
          "internalType": "contract INFT",
          "name": "nftContract",
          "type": "address"
        },
        {
          "internalType": "uint32",
          "name": "startTime",
          "type": "uint32"
        },
        {
          "internalType": "uint32",
          "name": "endTime",
          "type": "uint32"
        },
        {
          "internalType": "uint32",
          "name": "duration",
          "type": "uint32"
        },
        {
          "internalType": "bool",
          "name": "settled",
          "type": "bool"
        },
        {
          "internalType": "uint256",
          "name": "minimumPrice",
          "type": "uint256"
        },
        {
          "internalType": "uint256",
          "name": "highestBid",
          "type": "uint256"
        },
        {
          "internalType": "uint256",
          "name": "auctionId",
          "type": "uint256"
        },
        {
          "internalType": "string",
          "name": "nftUri",
          "type": "string"
        }
      ],
      "stateMutability": "view",
      "type": "function"
    },
    {
      "inputs": [
        {
          "internalType": "uint256",
          "name": "_auctionId",
          "type": "uint256"
        },
        {
          "internalType": "uint256",
          "name": "_amount",
          "type": "uint256"
        }
      ],
      "name": "bid",
      "outputs": [],
      "stateMutability": "nonpayable",
      "type": "function"
    },
    {
      "inputs": [
        {
          "internalType": "uint256",
          "name": "_auctionId",
          "type": "uint256"
        }
      ],
      "name": "cancelAuction",
      "outputs": [],
      "stateMutability": "nonpayable",
      "type": "function"
    },
    {
      "inputs": [
        {
          "components": [
            {
              "internalType": "address",
              "name": "highestBidder",
              "type": "address"
            },
            {
              "internalType": "contract INFT",
              "name": "nftContract",
              "type": "address"
            },
            {
              "internalType": "uint32",
              "name": "startTime",
              "type": "uint32"
            },
            {
              "internalType": "uint32",
              "name": "endTime",
              "type": "uint32"
            },
            {
              "internalType": "uint32",
              "name": "duration",
              "type": "uint32"
            },
            {
              "internalType": "bool",
              "name": "settled",
              "type": "bool"
            },
            {
              "internalType": "uint256",
              "name": "minimumPrice",
              "type": "uint256"
            },
            {
              "internalType": "uint256",
              "name": "highestBid",
              "type": "uint256"
            },
            {
              "internalType": "uint256",
              "name": "auctionId",
              "type": "uint256"
            },
            {
              "internalType": "string",
              "name": "nftUri",
              "type": "string"
            }
          ],
          "internalType": "struct Auction.AuctionInfo",
          "name": "_auctionInfo",
          "type": "tuple"
        }
      ],
      "name": "createAuction",
      "outputs": [],
      "stateMutability": "nonpayable",
      "type": "function"
    },
    {
      "inputs": [
        {
          "components": [
            {
              "internalType": "address",
              "name": "highestBidder",
              "type": "address"
            },
            {
              "internalType": "contract INFT",
              "name": "nftContract",
              "type": "address"
            },
            {
              "internalType": "uint32",
              "name": "startTime",
              "type": "uint32"
            },
            {
              "internalType": "uint32",
              "name": "endTime",
              "type": "uint32"
            },
            {
              "internalType": "uint32",
              "name": "duration",
              "type": "uint32"
            },
            {
              "internalType": "bool",
              "name": "settled",
              "type": "bool"
            },
            {
              "internalType": "uint256",
              "name": "minimumPrice",
              "type": "uint256"
            },
            {
              "internalType": "uint256",
              "name": "highestBid",
              "type": "uint256"
            },
            {
              "internalType": "uint256",
              "name": "auctionId",
              "type": "uint256"
            },
            {
              "internalType": "string",
              "name": "nftUri",
              "type": "string"
            }
          ],
          "internalType": "struct Auction.AuctionInfo[]",
          "name": "_auctions",
          "type": "tuple[]"
        }
      ],
      "name": "createAuctionBatch",
      "outputs": [],
      "stateMutability": "nonpayable",
      "type": "function"
    },
    {
      "inputs": [
        {
          "internalType": "uint256",
          "name": "_auctionId",
          "type": "uint256"
        }
      ],
      "name": "getAuction",
      "outputs": [
        {
          "components": [
            {
              "internalType": "address",
              "name": "highestBidder",
              "type": "address"
            },
            {
              "internalType": "contract INFT",
              "name": "nftContract",
              "type": "address"
            },
            {
              "internalType": "uint32",
              "name": "startTime",
              "type": "uint32"
            },
            {
              "internalType": "uint32",
              "name": "endTime",
              "type": "uint32"
            },
            {
              "internalType": "uint32",
              "name": "duration",
              "type": "uint32"
            },
            {
              "internalType": "bool",
              "name": "settled",
              "type": "bool"
            },
            {
              "internalType": "uint256",
              "name": "minimumPrice",
              "type": "uint256"
            },
            {
              "internalType": "uint256",
              "name": "highestBid",
              "type": "uint256"
            },
            {
              "internalType": "uint256",
              "name": "auctionId",
              "type": "uint256"
            },
            {
              "internalType": "string",
              "name": "nftUri",
              "type": "string"
            }
          ],
          "internalType": "struct Auction.AuctionInfo",
          "name": "",
          "type": "tuple"
        }
      ],
      "stateMutability": "view",
      "type": "function"
    },
    {
      "inputs": [],
      "name": "getBidIncrementPercentage",
      "outputs": [
        {
          "internalType": "uint256",
          "name": "",
          "type": "uint256"
        }
      ],
      "stateMutability": "pure",
      "type": "function"
    },
    {
      "inputs": [
        {
          "internalType": "address",
          "name": "_token",
          "type": "address"
        },
        {
          "internalType": "address",
          "name": "_storage",
          "type": "address"
        }
      ],
      "name": "initialize",
      "outputs": [],
      "stateMutability": "nonpayable",
      "type": "function"
    },
    {
      "inputs": [],
      "name": "pause",
      "outputs": [],
      "stateMutability": "nonpayable",
      "type": "function"
    },
    {
      "inputs": [],
      "name": "paused",
      "outputs": [
        {
          "internalType": "bool",
          "name": "",
          "type": "bool"
        }
      ],
      "stateMutability": "view",
      "type": "function"
    },
    {
      "inputs": [],
      "name": "proxiableUUID",
      "outputs": [
        {
          "internalType": "bytes32",
          "name": "",
          "type": "bytes32"
        }
      ],
      "stateMutability": "view",
      "type": "function"
    },
    {
      "inputs": [
        {
          "internalType": "uint256",
          "name": "_auctionId",
          "type": "uint256"
        }
      ],
      "name": "settleAuction",
      "outputs": [],
      "stateMutability": "nonpayable",
      "type": "function"
    },
    {
      "inputs": [],
      "name": "token",
      "outputs": [
        {
          "internalType": "contract IERC20",
          "name": "",
          "type": "address"
        }
      ],
      "stateMutability": "view",
      "type": "function"
    },
    {
      "inputs": [],
      "name": "unpause",
      "outputs": [],
      "stateMutability": "nonpayable",
      "type": "function"
    },
    {
      "inputs": [
        {
          "internalType": "uint256",
          "name": "_auctionId",
          "type": "uint256"
        },
        {
          "internalType": "uint256",
          "name": "_minimumPrice",
          "type": "uint256"
        },
        {
          "internalType": "uint32",
          "name": "_endTime",
          "type": "uint32"
        }
      ],
      "name": "updateAuction",
      "outputs": [],
      "stateMutability": "nonpayable",
      "type": "function"
    },
    {
      "inputs": [
        {
          "internalType": "address",
          "name": "newImplementation",
          "type": "address"
        }
      ],
      "name": "upgradeTo",
      "outputs": [],
      "stateMutability": "nonpayable",
      "type": "function"
    },
    {
      "inputs": [
        {
          "internalType": "address",
          "name": "newImplementation",
          "type": "address"
        },
        {
          "internalType": "bytes",
          "name": "data",
          "type": "bytes"
        }
      ],
      "name": "upgradeToAndCall",
      "outputs": [],
      "stateMutability": "payable",
      "type": "function"
    }
  ],
  "bytecode": "0x60a0604052306080523480156200001557600080fd5b506200002062000026565b620000e8565b600054610100900460ff1615620000935760405162461bcd60e51b815260206004820152602760248201527f496e697469616c697a61626c653a20636f6e747261637420697320696e697469604482015266616c697a696e6760c81b606482015260840160405180910390fd5b60005460ff9081161015620000e6576000805460ff191660ff9081179091556040519081527f7f26b83ff96e1f2b6a682f133852f6798a09c465da95921460cefb38474024989060200160405180910390a15b565b608051612a1462000120600039600081816107e00152818161082001528181610ab001528181610af00152610b830152612a146000f3fe6080604052600436106101095760003560e01c8063598647f8116100955780638456cb59116100645780638456cb59146102b65780638f803842146102cb57806396b5a755146102eb578063a473205c1461030b578063fc0c546a1461032157600080fd5b8063598647f8146102265780635c975abb146102465780635e6c1d631461026957806378bd79351461028957600080fd5b8063481b13d2116100dc578063481b13d214610185578063485cc955146101a85780634f1ef286146101c857806352d1902d146101db578063571a26a0146101f057600080fd5b80632bb36adc1461010e5780632e993611146101305780633659cfe6146101505780633f4ba83a14610170575b600080fd5b34801561011a57600080fd5b5061012e610129366004611f18565b610359565b005b34801561013c57600080fd5b5061012e61014b366004611f8d565b610447565b34801561015c57600080fd5b5061012e61016b366004611fbb565b6107d6565b34801561017c57600080fd5b5061012e6108b5565b34801561019157600080fd5b5060645b6040519081526020015b60405180910390f35b3480156101b457600080fd5b5061012e6101c3366004611fd8565b61095b565b61012e6101d6366004612027565b610aa6565b3480156101e757600080fd5b50610195610b76565b3480156101fc57600080fd5b5061021061020b366004611f8d565b610c29565b60405161019f9a99989796959493929190612143565b34801561023257600080fd5b5061012e6102413660046121bc565b610d25565b34801561025257600080fd5b5060975460ff16604051901515815260200161019f565b34801561027557600080fd5b5061012e6102843660046121de565b611199565b34801561029557600080fd5b506102a96102a4366004611f8d565b6113ab565b60405161019f919061221a565b3480156102c257600080fd5b5061012e61153a565b3480156102d757600080fd5b5061012e6102e63660046122ef565b6115de565b3480156102f757600080fd5b5061012e610306366004611f8d565b611749565b34801561031757600080fd5b5061019561025881565b34801561032d57600080fd5b5060fd54610341906001600160a01b031681565b6040516001600160a01b03909116815260200161019f565b60fb54604051632474521560e21b81526000805160206129bf83398151915260048201523360248201526001600160a01b03909116906391d1485490604401602060405180830381865afa1580156103b5573d6000803e3d6000fd5b505050506040513d601f19601f820116820180604052508101906103d99190612336565b6103fe5760405162461bcd60e51b81526004016103f590612353565b60405180910390fd5b8060005b818110156104415761043184848381811061041f5761041f61237d565b90506020028101906102849190612393565b61043a816123ca565b9050610402565b50505050565b61044f611942565b600081815260fc60205260409020600281015460ff16156104825760405162461bcd60e51b81526004016103f5906123e3565b6004810154815460018301546001600160a01b0390911690600160c01b900463ffffffff1680158015906104b557508042115b6105015760405162461bcd60e51b815260206004820152601860248201527f41756374696f6e206973207374696c6c2072756e6e696e67000000000000000060448201526064016103f5565b60028401805460ff191660011790556001600160a01b0382161561078b576001840154604051636902622f60e11b81526001600160a01b039091169063d204c45e906105569085906006890190600401612454565b600060405180830381600087803b15801561057057600080fd5b505af1158015610584573d6000803e3d6000fd5b505050506000612710611f408561059b91906124e9565b6105a59190612508565b60fd546001870154604080516321de0b0960e11b815290519394506001600160a01b039283169363a9059cbb93909216916343bc1612916004808201926020929091908290030181865afa158015610601573d6000803e3d6000fd5b505050506040513d601f19601f82011682018060405250810190610625919061252a565b6040516001600160e01b031960e084901b1681526001600160a01b039091166004820152602481018490526044016020604051808303816000875af1158015610672573d6000803e3d6000fd5b505050506040513d601f19601f820116820180604052508101906106969190612336565b5060fd5460fb5460408051634783c35b60e01b815290516001600160a01b039384169363a9059cbb931691634783c35b9160048083019260209291908290030181865afa1580156106eb573d6000803e3d6000fd5b505050506040513d601f19601f8201168201806040525081019061070f919061252a565b6107198488612547565b6040516001600160e01b031960e085901b1681526001600160a01b03909216600483015260248201526044016020604051808303816000875af1158015610764573d6000803e3d6000fd5b505050506040513d601f19601f820116820180604052508101906107889190612336565b50505b816001600160a01b0316857fc9f72b276a388619c6d185d146697036241880c36654b1a3ffdad07c24038d99856040516107c791815260200190565b60405180910390a35050505050565b6001600160a01b037f000000000000000000000000000000000000000000000000000000000000000016300361081e5760405162461bcd60e51b81526004016103f59061255e565b7f00000000000000000000000000000000000000000000000000000000000000006001600160a01b0316610867600080516020612978833981519152546001600160a01b031690565b6001600160a01b03161461088d5760405162461bcd60e51b81526004016103f5906125aa565b61089681611988565b604080516000808252602082019092526108b291839190611a17565b50565b60fb54604051632474521560e21b81526000805160206129bf83398151915260048201523360248201526001600160a01b03909116906391d1485490604401602060405180830381865afa158015610911573d6000803e3d6000fd5b505050506040513d601f19601f820116820180604052508101906109359190612336565b6109515760405162461bcd60e51b81526004016103f590612353565b610959611b82565b565b600054610100900460ff161580801561097b5750600054600160ff909116105b806109955750303b158015610995575060005460ff166001145b6109f85760405162461bcd60e51b815260206004820152602e60248201527f496e697469616c697a61626c653a20636f6e747261637420697320616c72656160448201526d191e481a5b9a5d1a585b1a5e995960921b60648201526084016103f5565b6000805460ff191660011790558015610a1b576000805461ff0019166101001790555b610a23611bd4565b610a2b611c03565b60fd80546001600160a01b038086166001600160a01b03199283161790925560fb8054928516929091169190911790558015610aa1576000805461ff0019169055604051600181527f7f26b83ff96e1f2b6a682f133852f6798a09c465da95921460cefb38474024989060200160405180910390a15b505050565b6001600160a01b037f0000000000000000000000000000000000000000000000000000000000000000163003610aee5760405162461bcd60e51b81526004016103f59061255e565b7f00000000000000000000000000000000000000000000000000000000000000006001600160a01b0316610b37600080516020612978833981519152546001600160a01b031690565b6001600160a01b031614610b5d5760405162461bcd60e51b81526004016103f5906125aa565b610b6682611988565b610b7282826001611a17565b5050565b6000306001600160a01b037f00000000000000000000000000000000000000000000000000000000000000001614610c165760405162461bcd60e51b815260206004820152603860248201527f555550535570677261646561626c653a206d757374206e6f742062652063616c60448201527f6c6564207468726f7567682064656c656761746563616c6c000000000000000060648201526084016103f5565b5060008051602061297883398151915290565b60fc6020526000908152604090208054600182015460028301546003840154600485015460058601546006870180546001600160a01b03978816989787169763ffffffff600160a01b8904811698600160c01b8104821698600160e01b9091049091169660ff90911695909490939092610ca29061241a565b80601f0160208091040260200160405190810160405280929190818152602001828054610cce9061241a565b8015610d1b5780601f10610cf057610100808354040283529160200191610d1b565b820191906000526020600020905b815481529060010190602001808311610cfe57829003601f168201915b505050505090508a565b600260c95403610d775760405162461bcd60e51b815260206004820152601f60248201527f5265656e7472616e637947756172643a207265656e7472616e742063616c6c0060448201526064016103f5565b600260c955610d84611942565b600082815260fc60205260409020600181015463ffffffff600160c01b8204811691600160a01b9004164281610df45760405162461bcd60e51b8152602060048201526015602482015274105d58dd1a5bdb88191bd95cdb89dd08195e1a5cdd605a1b60448201526064016103f5565b81811015610e3c5760405162461bcd60e51b815260206004820152601560248201527441756374696f6e206e6f7420617661696c61626c6560581b60448201526064016103f5565b821580610e4857508083115b610e885760405162461bcd60e51b8152602060048201526011602482015270105d58dd1a5bdb881a185cc8195b991959607a1b60448201526064016103f5565b600284015460ff1615610ead5760405162461bcd60e51b81526004016103f5906123e3565b600085118015610ec1575083600301548510155b610f0d5760405162461bcd60e51b815260206004820152601960248201527f426964206973206c6f776572207468616e206d696e696d756d0000000000000060448201526064016103f5565b612710610f1b6064826125f6565b8560040154610f2a91906124e9565b610f349190612508565b851015610f935760405162461bcd60e51b815260206004820152602760248201527f426964206973206c6f776572207468616e20686967686573742062696420696e60448201526618dc995b595b9d60ca1b60648201526084016103f5565b60fd546040516323b872dd60e01b8152336004820152306024820152604481018790526001600160a01b03909116906323b872dd906064016020604051808303816000875af1158015610fea573d6000803e3d6000fd5b505050506040513d601f19601f8201168201806040525081019061100e9190612336565b5083546004850180546001600160a01b0319831633178755908790556001600160a01b039091169081156110b55760fd5460405163a9059cbb60e01b81526001600160a01b038481166004830152602482018490529091169063a9059cbb906044016020604051808303816000875af115801561108f573d6000803e3d6000fd5b505050506040513d601f19601f820116820180604052508101906110b39190612336565b505b846000036111005760018601546110d990600160e01b900463ffffffff16846125f6565b8660010160186101000a81548163ffffffff021916908363ffffffff160217905550611142565b61025861110d8487612547565b10156111425761111f610258846125f6565b60018701805463ffffffff60c01b1916600160c01b63ffffffff84160217905594505b60408051888152602081018790526001600160a01b0384169133918b917f2808decb743a25d04efe1bd3dc192acde3be644e2f6ad1dce5d3c46643e1c602910160405180910390a45050600160c955505050505050565b60fb54604051632474521560e21b81526000805160206129bf83398151915260048201523360248201526001600160a01b03909116906391d1485490604401602060405180830381865afa1580156111f5573d6000803e3d6000fd5b505050506040513d601f19601f820116820180604052508101906112199190612336565b6112355760405162461bcd60e51b81526004016103f590612353565b611245608082016060830161260e565b63ffffffff1615806112805750611262606082016040830161260e565b63ffffffff16611278608083016060840161260e565b63ffffffff16115b6112c35760405162461bcd60e51b8152602060048201526014602482015273496e76616c69642061756374696f6e2074696d6560601b60448201526064016103f5565b610100810135600090815260fc6020526040902060010154600160a01b900463ffffffff161561132e5760405162461bcd60e51b815260206004820152601660248201527541756374696f6e20616c72656164792065786973747360501b60448201526064016103f5565b610100810135600090815260fc60205260409020819061134e82826127b5565b507f5d551e2a2cc977fd8c530317059b4f2d9f504fb82f7dfad736f8d56679bcdfd090506101008201356113886040840160208501611fbb565b604080519283526001600160a01b0390911660208301520160405180910390a150565b604080516101408101825260008082526020820181905291810182905260608082018390526080820183905260a0820183905260c0820183905260e08201839052610100820192909252610120810191909152600082815260fc602090815260409182902082516101408101845281546001600160a01b03908116825260018301549081169382019390935263ffffffff600160a01b8404811694820194909452600160c01b830484166060820152600160e01b9092049092166080820152600282015460ff16151560a0820152600382015460c0820152600482015460e08201526005820154610100820152600682018054919291610120840191906114b19061241a565b80601f01602080910402602001604051908101604052809291908181526020018280546114dd9061241a565b801561152a5780601f106114ff5761010080835404028352916020019161152a565b820191906000526020600020905b81548152906001019060200180831161150d57829003601f168201915b5050505050815250509050919050565b60fb54604051632474521560e21b81526000805160206129bf83398151915260048201523360248201526001600160a01b03909116906391d1485490604401602060405180830381865afa158015611596573d6000803e3d6000fd5b505050506040513d601f19601f820116820180604052508101906115ba9190612336565b6115d65760405162461bcd60e51b81526004016103f590612353565b610959611c2a565b60fb54604051632474521560e21b81526000805160206129bf83398151915260048201523360248201526001600160a01b03909116906391d1485490604401602060405180830381865afa15801561163a573d6000803e3d6000fd5b505050506040513d601f19601f8201168201806040525081019061165e9190612336565b61167a5760405162461bcd60e51b81526004016103f590612353565b600083815260fc602052604090206002015460ff16156116ac5760405162461bcd60e51b81526004016103f5906123e3565b600083815260fc6020526040902060010154600160a01b900463ffffffff1661170b5760405162461bcd60e51b8152602060048201526011602482015270105d58dd1a5bdb881b9bdd08199bdd5b99607a1b60448201526064016103f5565b600092835260fc60205260409092206003810191909155600101805463ffffffff909216600160c01b0263ffffffff60c01b19909216919091179055565b60fb54604051632474521560e21b81526000805160206129bf83398151915260048201523360248201526001600160a01b03909116906391d1485490604401602060405180830381865afa1580156117a5573d6000803e3d6000fd5b505050506040513d601f19601f820116820180604052508101906117c99190612336565b6117e55760405162461bcd60e51b81526004016103f590612353565b600081815260fc60205260409020600281015460ff16156118485760405162461bcd60e51b815260206004820152601b60248201527f41756374696f6e20697320616c72656164792066696e6973686564000000000060448201526064016103f5565b80546004820180546001600160a01b03198316845560009091556001600160a01b039091169081156118ed5760fd5460405163a9059cbb60e01b81526001600160a01b038481166004830152602482018490529091169063a9059cbb906044016020604051808303816000875af11580156118c7573d6000803e3d6000fd5b505050506040513d601f19601f820116820180604052508101906118eb9190612336565b505b600084815260fc6020526040808220600201805460ff19166001179055516001600160a01b0384169186917f10ac9f0bb365b5d22d7bec500408692f23fdf83eadfec71615ef88b4c1134f0e9190a350505050565b60975460ff16156109595760405162461bcd60e51b815260206004820152601060248201526f14185d5cd8589b194e881c185d5cd95960821b60448201526064016103f5565b60fb54604051632474521560e21b8152600060048201523360248201526001600160a01b03909116906391d1485490604401602060405180830381865afa1580156119d7573d6000803e3d6000fd5b505050506040513d601f19601f820116820180604052508101906119fb9190612336565b6108b25760405162461bcd60e51b81526004016103f590612353565b7f4910fdfa16fed3260ed0e7147f7cc6da11a60208b5b9406d12a635614ffd91435460ff1615611a4a57610aa183611c67565b826001600160a01b03166352d1902d6040518163ffffffff1660e01b8152600401602060405180830381865afa925050508015611aa4575060408051601f3d908101601f19168201909252611aa1918101906128ee565b60015b611b075760405162461bcd60e51b815260206004820152602e60248201527f45524331393637557067726164653a206e657720696d706c656d656e7461746960448201526d6f6e206973206e6f74205555505360901b60648201526084016103f5565b6000805160206129788339815191528114611b765760405162461bcd60e51b815260206004820152602960248201527f45524331393637557067726164653a20756e737570706f727465642070726f786044820152681a58589b195555525160ba1b60648201526084016103f5565b50610aa1838383611d03565b611b8a611d28565b6097805460ff191690557f5db9ee0a495bf2e6ff9c91a7834c1ba4fdd244a5e8aa4e537bd38aeae4b073aa335b6040516001600160a01b03909116815260200160405180910390a1565b600054610100900460ff16611bfb5760405162461bcd60e51b81526004016103f590612907565b610959611d71565b600054610100900460ff166109595760405162461bcd60e51b81526004016103f590612907565b611c32611942565b6097805460ff191660011790557f62e78cea01bee320cd4e420270b5ea74000d11b0c9f74754ebdbfc544b05a258611bb73390565b6001600160a01b0381163b611cd45760405162461bcd60e51b815260206004820152602d60248201527f455243313936373a206e657720696d706c656d656e746174696f6e206973206e60448201526c1bdd08184818dbdb9d1c9858dd609a1b60648201526084016103f5565b60008051602061297883398151915280546001600160a01b0319166001600160a01b0392909216919091179055565b611d0c83611da4565b600082511180611d195750805b15610aa1576104418383611de4565b60975460ff166109595760405162461bcd60e51b815260206004820152601460248201527314185d5cd8589b194e881b9bdd081c185d5cd95960621b60448201526064016103f5565b600054610100900460ff16611d985760405162461bcd60e51b81526004016103f590612907565b6097805460ff19169055565b611dad81611c67565b6040516001600160a01b038216907fbc7cd75a20ee27fd9adebab32041f755214dbc6bffa90cc0225b39da2e5c2d3b90600090a250565b60606001600160a01b0383163b611e4c5760405162461bcd60e51b815260206004820152602660248201527f416464726573733a2064656c65676174652063616c6c20746f206e6f6e2d636f6044820152651b9d1c9858dd60d21b60648201526084016103f5565b600080846001600160a01b031684604051611e679190612952565b600060405180830381855af49150503d8060008114611ea2576040519150601f19603f3d011682016040523d82523d6000602084013e611ea7565b606091505b5091509150611ecf828260405180606001604052806027815260200161299860279139611ed8565b95945050505050565b60608315611ee7575081611f11565b825115611ef75782518084602001fd5b8160405162461bcd60e51b81526004016103f59190612964565b9392505050565b60008060208385031215611f2b57600080fd5b823567ffffffffffffffff80821115611f4357600080fd5b818501915085601f830112611f5757600080fd5b813581811115611f6657600080fd5b8660208260051b8501011115611f7b57600080fd5b60209290920196919550909350505050565b600060208284031215611f9f57600080fd5b5035919050565b6001600160a01b03811681146108b257600080fd5b600060208284031215611fcd57600080fd5b8135611f1181611fa6565b60008060408385031215611feb57600080fd5b8235611ff681611fa6565b9150602083013561200681611fa6565b809150509250929050565b634e487b7160e01b600052604160045260246000fd5b6000806040838503121561203a57600080fd5b823561204581611fa6565b9150602083013567ffffffffffffffff8082111561206257600080fd5b818501915085601f83011261207657600080fd5b81358181111561208857612088612011565b604051601f8201601f19908116603f011681019083821181831017156120b0576120b0612011565b816040528281528860208487010111156120c957600080fd5b8260208601602083013760006020848301015280955050505050509250929050565b60005b838110156121065781810151838201526020016120ee565b838111156104415750506000910152565b6000815180845261212f8160208601602086016120eb565b601f01601f19169290920160200192915050565b6001600160a01b038b811682528a16602082015263ffffffff898116604083015288811660608301528716608082015285151560a082015260c0810185905260e08101849052610100810183905261014061012082018190526000906121ab83820185612117565b9d9c50505050505050505050505050565b600080604083850312156121cf57600080fd5b50508035926020909101359150565b6000602082840312156121f057600080fd5b813567ffffffffffffffff81111561220757600080fd5b82016101408185031215611f1157600080fd5b602081526122346020820183516001600160a01b03169052565b6000602083015161225060408401826001600160a01b03169052565b50604083015163ffffffff8116606084015250606083015163ffffffff8116608084015250608083015163ffffffff811660a08401525060a083015180151560c08401525060c083015160e0838101919091528301516101008084019190915283015161012080840191909152830151610140808401526122d5610160840182612117565b949350505050565b63ffffffff811681146108b257600080fd5b60008060006060848603121561230457600080fd5b8335925060208401359150604084013561231d816122dd565b809150509250925092565b80151581146108b257600080fd5b60006020828403121561234857600080fd5b8151611f1181612328565b60208082526010908201526f41646d696e2063616c6c73206f6e6c7960801b604082015260600190565b634e487b7160e01b600052603260045260246000fd5b6000823561013e198336030181126123aa57600080fd5b9190910192915050565b634e487b7160e01b600052601160045260246000fd5b6000600182016123dc576123dc6123b4565b5060010190565b60208082526017908201527f41756374696f6e20616c726561647920736574746c6564000000000000000000604082015260600190565b600181811c9082168061242e57607f821691505b60208210810361244e57634e487b7160e01b600052602260045260246000fd5b50919050565b60018060a01b038316815260006020604081840152600084546124768161241a565b806040870152606060018084166000811461249857600181146124ac576124da565b60ff198516898401526080890195506124da565b896000528660002060005b858110156124d25781548b82018601529083019088016124b7565b8a0184019650505b50939998505050505050505050565b6000816000190483118215151615612503576125036123b4565b500290565b60008261252557634e487b7160e01b600052601260045260246000fd5b500490565b60006020828403121561253c57600080fd5b8151611f1181611fa6565b600082821015612559576125596123b4565b500390565b6020808252602c908201527f46756e6374696f6e206d7573742062652063616c6c6564207468726f7567682060408201526b19195b1959d85d1958d85b1b60a21b606082015260800190565b6020808252602c908201527f46756e6374696f6e206d7573742062652063616c6c6564207468726f7567682060408201526b6163746976652070726f787960a01b606082015260800190565b60008219821115612609576126096123b4565b500190565b60006020828403121561262057600080fd5b8135611f11816122dd565b6000813561263881611fa6565b92915050565b60008135612638816122dd565b6000813561263881612328565b6000808335601e1984360301811261266f57600080fd5b83018035915067ffffffffffffffff82111561268a57600080fd5b60200191503681900382131561269f57600080fd5b9250929050565b601f821115610aa157600081815260208120601f850160051c810160208610156126cd5750805b601f850160051c820191505b818110156126ec578281556001016126d9565b505050505050565b67ffffffffffffffff83111561270c5761270c612011565b6127208361271a835461241a565b836126a6565b6000601f841160018114612754576000851561273c5750838201355b600019600387901b1c1916600186901b1783556127ae565b600083815260209020601f19861690835b828110156127855786850135825560209485019460019092019101612765565b50868210156127a25760001960f88860031b161c19848701351681555b505060018560011b0183555b5050505050565b6127de6127c18361262b565b82546001600160a01b0319166001600160a01b0391909116178255565b600181016127f16127c16020850161262b565b6128246128006040850161263e565b82805463ffffffff60a01b191660a09290921b63ffffffff60a01b16919091179055565b6128576128336060850161263e565b82805463ffffffff60c01b191660c09290921b63ffffffff60c01b16919091179055565b61288a6128666080850161263e565b8280546001600160e01b031660e09290921b6001600160e01b031916919091179055565b506128b361289a60a0840161264b565b6002830160ff1981541660ff8315151681178255505050565b60c0820135600382015560e0820135600482015561010082013560058201556128e0610120830183612658565b6104418183600686016126f4565b60006020828403121561290057600080fd5b5051919050565b6020808252602b908201527f496e697469616c697a61626c653a20636f6e7472616374206973206e6f74206960408201526a6e697469616c697a696e6760a81b606082015260800190565b600082516123aa8184602087016120eb565b602081526000611f11602083018461211756fe360894a13ba1a3210667c828492db98dca3e2076cc3735a920a3ca505d382bbc416464726573733a206c6f772d6c6576656c2064656c65676174652063616c6c206661696c6564e303cb88ace8c9e6ba216f1aecb44b3206dcab364c60512ffc6cbc920a1bf9d1a26469706673582212202487dbccd3124825d7b83e7448d1e68cd33937647cfb1eb786d8d1b7b5bc9e5b64736f6c634300080e0033",
  "linkReferences": {},
  "deployedLinkReferences": {}
}