{
  "_format": "hh-sol-artifact-1",
  "contractName": "Auction",
  "sourceName": "contracts/Auction/Auction.sol",
  "abi": [
    {
      "anonymous": false,
      "inputs": [
        {
          "indexed": false,
          "internalType": "address",
          "name": "previousAdmin",
          "type": "address"
        },
        {
          "indexed": false,
          "internalType": "address",
          "name": "newAdmin",
          "type": "address"
        }
      ],
      "name": "AdminChanged",
      "type": "event"
    },
    {
      "anonymous": false,
      "inputs": [
        {
          "indexed": true,
          "internalType": "uint256",
          "name": "auctionId",
          "type": "uint256"
        },
        {
          "indexed": true,
          "internalType": "address",
          "name": "previousBidder",
          "type": "address"
        }
      ],
      "name": "AuctionCancelled",
      "type": "event"
    },
    {
      "anonymous": false,
      "inputs": [
        {
          "indexed": false,
          "internalType": "uint256",
          "name": "auctionId",
          "type": "uint256"
        },
        {
          "indexed": false,
          "internalType": "uint256",
          "name": "nftId",
          "type": "uint256"
        }
      ],
      "name": "AuctionCreated",
      "type": "event"
    },
    {
      "anonymous": false,
      "inputs": [
        {
          "indexed": true,
          "internalType": "uint256",
          "name": "auctionId",
          "type": "uint256"
        },
        {
          "indexed": true,
          "internalType": "address",
          "name": "highestBidder",
          "type": "address"
        },
        {
          "indexed": false,
          "internalType": "uint256",
          "name": "highestBid",
          "type": "uint256"
        }
      ],
      "name": "AuctionSettled",
      "type": "event"
    },
    {
      "anonymous": false,
      "inputs": [
        {
          "indexed": true,
          "internalType": "address",
          "name": "beacon",
          "type": "address"
        }
      ],
      "name": "BeaconUpgraded",
      "type": "event"
    },
    {
      "anonymous": false,
      "inputs": [
        {
          "indexed": true,
          "internalType": "uint256",
          "name": "auctionId",
          "type": "uint256"
        },
        {
          "indexed": true,
          "internalType": "address",
          "name": "newBidder",
          "type": "address"
        },
        {
          "indexed": true,
          "internalType": "address",
          "name": "previousBidder",
          "type": "address"
        },
        {
          "indexed": false,
          "internalType": "uint256",
          "name": "bidAmount",
          "type": "uint256"
        },
        {
          "indexed": false,
          "internalType": "uint256",
          "name": "newEndTime",
          "type": "uint256"
        }
      ],
      "name": "BidPlaced",
      "type": "event"
    },
    {
      "anonymous": false,
      "inputs": [
        {
          "indexed": false,
          "internalType": "uint8",
          "name": "version",
          "type": "uint8"
        }
      ],
      "name": "Initialized",
      "type": "event"
    },
    {
      "anonymous": false,
      "inputs": [
        {
          "indexed": false,
          "internalType": "address",
          "name": "account",
          "type": "address"
        }
      ],
      "name": "Paused",
      "type": "event"
    },
    {
      "anonymous": false,
      "inputs": [
        {
          "indexed": true,
          "internalType": "bytes32",
          "name": "role",
          "type": "bytes32"
        },
        {
          "indexed": true,
          "internalType": "bytes32",
          "name": "previousAdminRole",
          "type": "bytes32"
        },
        {
          "indexed": true,
          "internalType": "bytes32",
          "name": "newAdminRole",
          "type": "bytes32"
        }
      ],
      "name": "RoleAdminChanged",
      "type": "event"
    },
    {
      "anonymous": false,
      "inputs": [
        {
          "indexed": true,
          "internalType": "bytes32",
          "name": "role",
          "type": "bytes32"
        },
        {
          "indexed": true,
          "internalType": "address",
          "name": "account",
          "type": "address"
        },
        {
          "indexed": true,
          "internalType": "address",
          "name": "sender",
          "type": "address"
        }
      ],
      "name": "RoleGranted",
      "type": "event"
    },
    {
      "anonymous": false,
      "inputs": [
        {
          "indexed": true,
          "internalType": "bytes32",
          "name": "role",
          "type": "bytes32"
        },
        {
          "indexed": true,
          "internalType": "address",
          "name": "account",
          "type": "address"
        },
        {
          "indexed": true,
          "internalType": "address",
          "name": "sender",
          "type": "address"
        }
      ],
      "name": "RoleRevoked",
      "type": "event"
    },
    {
      "anonymous": false,
      "inputs": [
        {
          "indexed": false,
          "internalType": "address",
          "name": "account",
          "type": "address"
        }
      ],
      "name": "Unpaused",
      "type": "event"
    },
    {
      "anonymous": false,
      "inputs": [
        {
          "indexed": true,
          "internalType": "address",
          "name": "implementation",
          "type": "address"
        }
      ],
      "name": "Upgraded",
      "type": "event"
    },
    {
      "inputs": [],
      "name": "DEFAULT_ADMIN_ROLE",
      "outputs": [
        {
          "internalType": "bytes32",
          "name": "",
          "type": "bytes32"
        }
      ],
      "stateMutability": "view",
      "type": "function"
    },
    {
      "inputs": [
        {
          "internalType": "uint256",
          "name": "",
          "type": "uint256"
        }
      ],
      "name": "auctions",
      "outputs": [
        {
          "internalType": "address",
          "name": "highestBidder",
          "type": "address"
        },
        {
          "internalType": "contract INFT",
          "name": "nftContract",
          "type": "address"
        },
        {
          "internalType": "uint32",
          "name": "startTime",
          "type": "uint32"
        },
        {
          "internalType": "uint32",
          "name": "endTime",
          "type": "uint32"
        },
        {
          "internalType": "bool",
          "name": "settled",
          "type": "bool"
        },
        {
          "internalType": "uint256",
          "name": "nftId",
          "type": "uint256"
        },
        {
          "internalType": "uint256",
          "name": "minimumPrice",
          "type": "uint256"
        },
        {
          "internalType": "uint256",
          "name": "highestBid",
          "type": "uint256"
        },
        {
          "internalType": "string",
          "name": "nftUri",
          "type": "string"
        }
      ],
      "stateMutability": "view",
      "type": "function"
    },
    {
      "inputs": [
        {
          "internalType": "uint256",
          "name": "_auctionId",
          "type": "uint256"
        },
        {
          "internalType": "uint256",
          "name": "_amount",
          "type": "uint256"
        }
      ],
      "name": "bid",
      "outputs": [],
      "stateMutability": "nonpayable",
      "type": "function"
    },
    {
      "inputs": [
        {
          "internalType": "uint256",
          "name": "_auctionId",
          "type": "uint256"
        }
      ],
      "name": "cancelAuction",
      "outputs": [],
      "stateMutability": "nonpayable",
      "type": "function"
    },
    {
      "inputs": [
        {
          "internalType": "uint256",
          "name": "_auctionId",
          "type": "uint256"
        },
        {
          "internalType": "uint256",
          "name": "_nftId",
          "type": "uint256"
        },
        {
          "internalType": "uint256",
          "name": "_minimumPrice",
          "type": "uint256"
        },
        {
          "internalType": "uint32",
          "name": "_startTime",
          "type": "uint32"
        },
        {
          "internalType": "uint32",
          "name": "_endTime",
          "type": "uint32"
        },
        {
          "internalType": "contract INFT",
          "name": "_nftContract",
          "type": "address"
        },
        {
          "internalType": "string",
          "name": "_nftUri",
          "type": "string"
        }
      ],
      "name": "createAuction",
      "outputs": [
        {
          "internalType": "uint256",
          "name": "auctionId",
          "type": "uint256"
        }
      ],
      "stateMutability": "nonpayable",
      "type": "function"
    },
    {
      "inputs": [],
      "name": "erc20",
      "outputs": [
        {
          "internalType": "contract IERC20",
          "name": "",
          "type": "address"
        }
      ],
      "stateMutability": "view",
      "type": "function"
    },
    {
      "inputs": [
        {
          "internalType": "uint256",
          "name": "_auctionId",
          "type": "uint256"
        }
      ],
      "name": "getAuction",
      "outputs": [
        {
          "components": [
            {
              "internalType": "address",
              "name": "highestBidder",
              "type": "address"
            },
            {
              "internalType": "contract INFT",
              "name": "nftContract",
              "type": "address"
            },
            {
              "internalType": "uint32",
              "name": "startTime",
              "type": "uint32"
            },
            {
              "internalType": "uint32",
              "name": "endTime",
              "type": "uint32"
            },
            {
              "internalType": "bool",
              "name": "settled",
              "type": "bool"
            },
            {
              "internalType": "uint256",
              "name": "nftId",
              "type": "uint256"
            },
            {
              "internalType": "uint256",
              "name": "minimumPrice",
              "type": "uint256"
            },
            {
              "internalType": "uint256",
              "name": "highestBid",
              "type": "uint256"
            },
            {
              "internalType": "string",
              "name": "nftUri",
              "type": "string"
            }
          ],
          "internalType": "struct Auction.AuctionInfo",
          "name": "",
          "type": "tuple"
        }
      ],
      "stateMutability": "view",
      "type": "function"
    },
    {
      "inputs": [],
      "name": "getBidIncrementPercentage",
      "outputs": [
        {
          "internalType": "uint256",
          "name": "",
          "type": "uint256"
        }
      ],
      "stateMutability": "view",
      "type": "function"
    },
    {
      "inputs": [],
      "name": "getDefaultTimeExtension",
      "outputs": [
        {
          "internalType": "uint256",
          "name": "",
          "type": "uint256"
        }
      ],
      "stateMutability": "view",
      "type": "function"
    },
    {
      "inputs": [
        {
          "internalType": "bytes32",
          "name": "role",
          "type": "bytes32"
        }
      ],
      "name": "getRoleAdmin",
      "outputs": [
        {
          "internalType": "bytes32",
          "name": "",
          "type": "bytes32"
        }
      ],
      "stateMutability": "view",
      "type": "function"
    },
    {
      "inputs": [
        {
          "internalType": "bytes32",
          "name": "role",
          "type": "bytes32"
        },
        {
          "internalType": "address",
          "name": "account",
          "type": "address"
        }
      ],
      "name": "grantRole",
      "outputs": [],
      "stateMutability": "nonpayable",
      "type": "function"
    },
    {
      "inputs": [
        {
          "internalType": "bytes32",
          "name": "role",
          "type": "bytes32"
        },
        {
          "internalType": "address",
          "name": "account",
          "type": "address"
        }
      ],
      "name": "hasRole",
      "outputs": [
        {
          "internalType": "bool",
          "name": "",
          "type": "bool"
        }
      ],
      "stateMutability": "view",
      "type": "function"
    },
    {
      "inputs": [
        {
          "internalType": "address",
          "name": "_admin",
          "type": "address"
        },
        {
          "internalType": "uint256",
          "name": "_defaultTimeExtension",
          "type": "uint256"
        },
        {
          "internalType": "uint256",
          "name": "_bidIncrementPercentage",
          "type": "uint256"
        },
        {
          "internalType": "address",
          "name": "_token",
          "type": "address"
        },
        {
          "internalType": "address",
          "name": "_storage",
          "type": "address"
        }
      ],
      "name": "initialize",
      "outputs": [],
      "stateMutability": "nonpayable",
      "type": "function"
    },
    {
      "inputs": [],
      "name": "pause",
      "outputs": [],
      "stateMutability": "nonpayable",
      "type": "function"
    },
    {
      "inputs": [],
      "name": "paused",
      "outputs": [
        {
          "internalType": "bool",
          "name": "",
          "type": "bool"
        }
      ],
      "stateMutability": "view",
      "type": "function"
    },
    {
      "inputs": [],
      "name": "proxiableUUID",
      "outputs": [
        {
          "internalType": "bytes32",
          "name": "",
          "type": "bytes32"
        }
      ],
      "stateMutability": "view",
      "type": "function"
    },
    {
      "inputs": [
        {
          "internalType": "bytes32",
          "name": "role",
          "type": "bytes32"
        },
        {
          "internalType": "address",
          "name": "account",
          "type": "address"
        }
      ],
      "name": "renounceRole",
      "outputs": [],
      "stateMutability": "nonpayable",
      "type": "function"
    },
    {
      "inputs": [
        {
          "internalType": "bytes32",
          "name": "role",
          "type": "bytes32"
        },
        {
          "internalType": "address",
          "name": "account",
          "type": "address"
        }
      ],
      "name": "revokeRole",
      "outputs": [],
      "stateMutability": "nonpayable",
      "type": "function"
    },
    {
      "inputs": [
        {
          "internalType": "uint16",
          "name": "_bidIncrementPercentage",
          "type": "uint16"
        }
      ],
      "name": "setBidIncrementPercentage",
      "outputs": [],
      "stateMutability": "nonpayable",
      "type": "function"
    },
    {
      "inputs": [
        {
          "internalType": "uint16",
          "name": "_timeExtension",
          "type": "uint16"
        }
      ],
      "name": "setDefaultTimeExtension",
      "outputs": [],
      "stateMutability": "nonpayable",
      "type": "function"
    },
    {
      "inputs": [
        {
          "internalType": "uint256",
          "name": "_auctionId",
          "type": "uint256"
        }
      ],
      "name": "settleAuction",
      "outputs": [],
      "stateMutability": "nonpayable",
      "type": "function"
    },
    {
      "inputs": [
        {
          "internalType": "bytes4",
          "name": "interfaceId",
          "type": "bytes4"
        }
      ],
      "name": "supportsInterface",
      "outputs": [
        {
          "internalType": "bool",
          "name": "",
          "type": "bool"
        }
      ],
      "stateMutability": "view",
      "type": "function"
    },
    {
      "inputs": [],
      "name": "unpause",
      "outputs": [],
      "stateMutability": "nonpayable",
      "type": "function"
    },
    {
      "inputs": [
        {
          "internalType": "uint256",
          "name": "_auctionId",
          "type": "uint256"
        },
        {
          "internalType": "uint256",
          "name": "_minimumPrice",
          "type": "uint256"
        },
        {
          "internalType": "uint32",
          "name": "_endTime",
          "type": "uint32"
        }
      ],
      "name": "updateAuction",
      "outputs": [],
      "stateMutability": "nonpayable",
      "type": "function"
    },
    {
      "inputs": [
        {
          "internalType": "address",
          "name": "newImplementation",
          "type": "address"
        }
      ],
      "name": "upgradeTo",
      "outputs": [],
      "stateMutability": "nonpayable",
      "type": "function"
    },
    {
      "inputs": [
        {
          "internalType": "address",
          "name": "newImplementation",
          "type": "address"
        },
        {
          "internalType": "bytes",
          "name": "data",
          "type": "bytes"
        }
      ],
      "name": "upgradeToAndCall",
      "outputs": [],
      "stateMutability": "payable",
      "type": "function"
    }
  ],
  "bytecode": "0x60a06040523060805234801561001457600080fd5b50608051612e5761004c600039600081816108df0152818161091f01528181610a5801528181610a980152610b270152612e576000f3fe6080604052600436106101815760003560e01c80635c975abb116100d157806391d148541161008a578063c3c675bc11610064578063c3c675bc14610461578063d547741f14610481578063d828abe1146104a1578063ff54a5ca146104c157600080fd5b806391d148541461040c57806396b5a7551461042c578063a217fddf1461044c57600080fd5b80635c975abb14610343578063785e9e861461035b57806378bd793514610394578063809d6172146103c15780638456cb59146103d75780638f803842146103ec57600080fd5b80633659cfe61161013e5780634f1ef286116101185780634f1ef286146102c657806352d1902d146102d9578063571a26a0146102ee578063598647f81461032357600080fd5b80633659cfe61461027b5780633f4ba83a1461029b578063481b13d2146102b057600080fd5b806301ffc9a71461018657806303b54d52146101bb578063248a9ca3146101dd5780632e9936111461021b5780632f2ff15d1461023b57806336568abe1461025b575b600080fd5b34801561019257600080fd5b506101a66101a13660046124f5565b6104e1565b60405190151581526020015b60405180910390f35b3480156101c757600080fd5b506101db6101d6366004612534565b610518565b005b3480156101e957600080fd5b5061020d6101f8366004612593565b60009081526065602052604090206001015490565b6040519081526020016101b2565b34801561022757600080fd5b506101db610236366004612593565b6105eb565b34801561024757600080fd5b506101db6102563660046125ac565b61082d565b34801561026757600080fd5b506101db6102763660046125ac565b610857565b34801561028757600080fd5b506101db6102963660046125dc565b6108d5565b3480156102a757600080fd5b506101db6109b4565b3480156102bc57600080fd5b506101635461020d565b6101db6102d4366004612685565b610a4e565b3480156102e557600080fd5b5061020d610b1a565b3480156102fa57600080fd5b5061030e610309366004612593565b610bcd565b6040516101b299989796959493929190612741565b34801561032f57600080fd5b506101db61033e3660046127b0565b610cc1565b34801561034f57600080fd5b5060fb5460ff166101a6565b34801561036757600080fd5b5061015f5461037c906001600160a01b031681565b6040516001600160a01b0390911681526020016101b2565b3480156103a057600080fd5b506103b46103af366004612593565b611156565b6040516101b291906127d2565b3480156103cd57600080fd5b506101625461020d565b3480156103e357600080fd5b506101db6112f3565b3480156103f857600080fd5b506101db610407366004612896565b61138b565b34801561041857600080fd5b506101a66104273660046125ac565b6114f4565b34801561043857600080fd5b506101db610447366004612593565b61151f565b34801561045857600080fd5b5061020d600081565b34801561046d57600080fd5b506101db61047c3660046128cb565b61171c565b34801561048d57600080fd5b506101db61049c3660046125ac565b6117b6565b3480156104ad57600080fd5b5061020d6104bc3660046128ef565b6117db565b3480156104cd57600080fd5b506101db6104dc3660046128cb565b611a94565b60006001600160e01b03198216637965db0b60e01b148061051257506301ffc9a760e01b6001600160e01b03198316145b92915050565b60006105246001611b2e565b9050801561053c576000805461ff0019166101001790555b610544611bbb565b61054c611be2565b610554611bbb565b61055f600087611c11565b61016285905561016384905561015f80546001600160a01b038086166001600160a01b03199283161790925561016080549285169290911691909117905580156105e3576000805461ff0019169055604051600181527f7f26b83ff96e1f2b6a682f133852f6798a09c465da95921460cefb38474024989060200160405180910390a15b505050505050565b60fb5460ff16156106175760405162461bcd60e51b815260040161060e90612991565b60405180910390fd5b6000818152610161602052604090206001810154600160e01b900460ff16156106525760405162461bcd60e51b815260040161060e906129bb565b6004810154815460018301546001600160a01b0390911690600160c01b900463ffffffff16801580159061068557508042115b6106d15760405162461bcd60e51b815260206004820152601860248201527f41756374696f6e206973207374696c6c2072756e6e696e670000000000000000604482015260640161060e565b60018401805460ff60e01b1916600160e01b1790556001600160a01b038216156107e25760018401546002850154604051633349e71f60e21b81526001600160a01b039092169163cd279c7c916107329186919060058a0190600401612a2c565b600060405180830381600087803b15801561074c57600080fd5b505af1158015610760573d6000803e3d6000fd5b505061015f54600187015460405163a9059cbb60e01b81526001600160a01b039182166004820152602481018890529116925063a9059cbb91506044016020604051808303816000875af11580156107bc573d6000803e3d6000fd5b505050506040513d601f19601f820116820180604052508101906107e09190612aed565b505b816001600160a01b0316857fc9f72b276a388619c6d185d146697036241880c36654b1a3ffdad07c24038d998560405161081e91815260200190565b60405180910390a35050505050565b60008281526065602052604090206001015461084881611c97565b6108528383611c11565b505050565b6001600160a01b03811633146108c75760405162461bcd60e51b815260206004820152602f60248201527f416363657373436f6e74726f6c3a2063616e206f6e6c792072656e6f756e636560448201526e103937b632b9903337b91039b2b63360891b606482015260840161060e565b6108d18282611ca1565b5050565b6001600160a01b037f000000000000000000000000000000000000000000000000000000000000000016300361091d5760405162461bcd60e51b815260040161060e90612b0f565b7f00000000000000000000000000000000000000000000000000000000000000006001600160a01b0316610966600080516020612ddb833981519152546001600160a01b031690565b6001600160a01b03161461098c5760405162461bcd60e51b815260040161060e90612b5b565b61099581611d08565b604080516000808252602082019092526109b191839190611d98565b50565b61016054604051632474521560e21b8152600060048201523360248201526001600160a01b03909116906391d1485490604401602060405180830381865afa158015610a04573d6000803e3d6000fd5b505050506040513d601f19601f82011682018060405250810190610a289190612aed565b610a445760405162461bcd60e51b815260040161060e90612ba7565b610a4c611f03565b565b6001600160a01b037f0000000000000000000000000000000000000000000000000000000000000000163003610a965760405162461bcd60e51b815260040161060e90612b0f565b7f00000000000000000000000000000000000000000000000000000000000000006001600160a01b0316610adf600080516020612ddb833981519152546001600160a01b031690565b6001600160a01b031614610b055760405162461bcd60e51b815260040161060e90612b5b565b610b0e82611d08565b6108d182826001611d98565b6000306001600160a01b037f00000000000000000000000000000000000000000000000000000000000000001614610bba5760405162461bcd60e51b815260206004820152603860248201527f555550535570677261646561626c653a206d757374206e6f742062652063616c60448201527f6c6564207468726f7567682064656c656761746563616c6c0000000000000000606482015260840161060e565b50600080516020612ddb83398151915290565b610161602052600090815260409020805460018201546002830154600384015460048501546005860180546001600160a01b039687169796861696600160a01b870463ffffffff90811697600160c01b810490911696600160e01b90910460ff1695909490939092610c3e906129f2565b80601f0160208091040260200160405190810160405280929190818152602001828054610c6a906129f2565b8015610cb75780601f10610c8c57610100808354040283529160200191610cb7565b820191906000526020600020905b815481529060010190602001808311610c9a57829003601f168201915b5050505050905089565b600261012d5403610d145760405162461bcd60e51b815260206004820152601f60248201527f5265656e7472616e637947756172643a207265656e7472616e742063616c6c00604482015260640161060e565b600261012d5560fb5460ff1615610d3d5760405162461bcd60e51b815260040161060e90612991565b600082815261016160205260409020600181015463ffffffff600160c01b8204811691600160a01b9004164281610dae5760405162461bcd60e51b8152602060048201526015602482015274105d58dd1a5bdb88191bd95cdb89dd08195e1a5cdd605a1b604482015260640161060e565b81811015610df65760405162461bcd60e51b815260206004820152601560248201527441756374696f6e206e6f7420617661696c61626c6560581b604482015260640161060e565b821580610e0257508083115b610e425760405162461bcd60e51b8152602060048201526011602482015270105d58dd1a5bdb881a185cc8195b991959607a1b604482015260640161060e565b6001840154600160e01b900460ff1615610e6e5760405162461bcd60e51b815260040161060e906129bb565b600085118015610e82575083600301548510155b610ece5760405162461bcd60e51b815260206004820152601960248201527f426964206973206c6f776572207468616e206d696e696d756d00000000000000604482015260640161060e565b61271061016354612710610ee29190612be7565b8560040154610ef19190612bff565b610efb9190612c1e565b851015610f5a5760405162461bcd60e51b815260206004820152602760248201527f426964206973206c6f776572207468616e20686967686573742062696420696e60448201526618dc995b595b9d60ca1b606482015260840161060e565b61015f546040516323b872dd60e01b8152336004820152306024820152604481018790526001600160a01b03909116906323b872dd906064016020604051808303816000875af1158015610fb2573d6000803e3d6000fd5b505050506040513d601f19601f82011682018060405250810190610fd69190612aed565b5083546004850180546001600160a01b0319831633178755908790556001600160a01b0390911690811561107e5761015f5460405163a9059cbb60e01b81526001600160a01b038481166004830152602482018490529091169063a9059cbb906044016020604051808303816000875af1158015611058573d6000803e3d6000fd5b505050506040513d601f19601f8201168201806040525081019061107c9190612aed565b505b6101625460008690036110bf576110986201518085612be7565b8760010160186101000a81548163ffffffff021916908363ffffffff1602179055506110fd565b806110ca8588612c40565b10156110fd576110da8185612be7565b60018801805463ffffffff60c01b1916600160c01b63ffffffff84160217905595505b60408051898152602081018890526001600160a01b0385169133918c917f2808decb743a25d04efe1bd3dc192acde3be644e2f6ad1dce5d3c46643e1c602910160405180910390a45050600161012d5550505050505050565b6111c560405180610120016040528060006001600160a01b0316815260200160006001600160a01b03168152602001600063ffffffff168152602001600063ffffffff168152602001600015158152602001600081526020016000815260200160008152602001606081525090565b6000828152610161602090815260409182902082516101208101845281546001600160a01b039081168252600183015490811693820193909352600160a01b830463ffffffff90811694820194909452600160c01b83049093166060840152600160e01b90910460ff1615156080830152600281015460a0830152600381015460c0830152600481015460e08301526005810180546101008401919061126a906129f2565b80601f0160208091040260200160405190810160405280929190818152602001828054611296906129f2565b80156112e35780601f106112b8576101008083540402835291602001916112e3565b820191906000526020600020905b8154815290600101906020018083116112c657829003601f168201915b5050505050815250509050919050565b61016054604051632474521560e21b8152600060048201523360248201526001600160a01b03909116906391d1485490604401602060405180830381865afa158015611343573d6000803e3d6000fd5b505050506040513d601f19601f820116820180604052508101906113679190612aed565b6113835760405162461bcd60e51b815260040161060e90612ba7565b610a4c611f96565b61016054604051632474521560e21b8152600060048201523360248201526001600160a01b03909116906391d1485490604401602060405180830381865afa1580156113db573d6000803e3d6000fd5b505050506040513d601f19601f820116820180604052508101906113ff9190612aed565b61141b5760405162461bcd60e51b815260040161060e90612ba7565b60008381526101616020526040902060010154600160e01b900460ff16156114555760405162461bcd60e51b815260040161060e906129bb565b60008381526101616020526040902060010154600160a01b900463ffffffff166114b55760405162461bcd60e51b8152602060048201526011602482015270105d58dd1a5bdb881b9bdd08199bdd5b99607a1b604482015260640161060e565b600092835261016160205260409092206003810191909155600101805463ffffffff909216600160c01b0263ffffffff60c01b19909216919091179055565b60009182526065602090815260408084206001600160a01b0393909316845291905290205460ff1690565b61016054604051632474521560e21b8152600060048201523360248201526001600160a01b03909116906391d1485490604401602060405180830381865afa15801561156f573d6000803e3d6000fd5b505050506040513d601f19601f820116820180604052508101906115939190612aed565b6115af5760405162461bcd60e51b815260040161060e90612ba7565b6000818152610161602052604090206001810154600160e01b900460ff161561161a5760405162461bcd60e51b815260206004820152601b60248201527f41756374696f6e20697320616c72656164792066696e69736865640000000000604482015260640161060e565b80546004820180546001600160a01b03198316845560009091556001600160a01b039091169081156116c05761015f5460405163a9059cbb60e01b81526001600160a01b038481166004830152602482018490529091169063a9059cbb906044016020604051808303816000875af115801561169a573d6000803e3d6000fd5b505050506040513d601f19601f820116820180604052508101906116be9190612aed565b505b60008481526101616020526040808220600101805460ff60e01b1916600160e01b179055516001600160a01b0384169186917f10ac9f0bb365b5d22d7bec500408692f23fdf83eadfec71615ef88b4c1134f0e9190a350505050565b61016054604051632474521560e21b8152600060048201523360248201526001600160a01b03909116906391d1485490604401602060405180830381865afa15801561176c573d6000803e3d6000fd5b505050506040513d601f19601f820116820180604052508101906117909190612aed565b6117ac5760405162461bcd60e51b815260040161060e90612ba7565b61ffff1661016355565b6000828152606560205260409020600101546117d181611c97565b6108528383611ca1565b61016054604051632474521560e21b8152600060048201819052336024830152916001600160a01b0316906391d1485490604401602060405180830381865afa15801561182c573d6000803e3d6000fd5b505050506040513d601f19601f820116820180604052508101906118509190612aed565b61186c5760405162461bcd60e51b815260040161060e90612ba7565b63ffffffff8416158061188a57508463ffffffff168463ffffffff16115b6118cd5760405162461bcd60e51b8152602060048201526014602482015273496e76616c69642061756374696f6e2074696d6560601b604482015260640161060e565b600060405180610120016040528060006001600160a01b03168152602001856001600160a01b031681526020018763ffffffff1681526020018663ffffffff168152602001600015158152602001898152602001888152602001600081526020018481525090508061016160008b815260200190815260200160002060008201518160000160006101000a8154816001600160a01b0302191690836001600160a01b0316021790555060208201518160010160006101000a8154816001600160a01b0302191690836001600160a01b0316021790555060408201518160010160146101000a81548163ffffffff021916908363ffffffff16021790555060608201518160010160186101000a81548163ffffffff021916908363ffffffff160217905550608082015181600101601c6101000a81548160ff02191690831515021790555060a0820151816002015560c0820151816003015560e08201518160040155610100820151816005019080519060200190611a4c92919061245c565b5050604080518b8152602081018b90527fe00a2da3a0f34a566402a244ab7ec63f8ab7472591cb18edf3269aa00461a41092500160405180910390a150979650505050505050565b61016054604051632474521560e21b8152600060048201523360248201526001600160a01b03909116906391d1485490604401602060405180830381865afa158015611ae4573d6000803e3d6000fd5b505050506040513d601f19601f82011682018060405250810190611b089190612aed565b611b245760405162461bcd60e51b815260040161060e90612ba7565b61ffff1661016255565b60008054610100900460ff1615611b75578160ff166001148015611b515750303b155b611b6d5760405162461bcd60e51b815260040161060e90612c57565b506000919050565b60005460ff808416911610611b9c5760405162461bcd60e51b815260040161060e90612c57565b506000805460ff191660ff92909216919091179055600190565b919050565b600054610100900460ff16610a4c5760405162461bcd60e51b815260040161060e90612ca5565b600054610100900460ff16611c095760405162461bcd60e51b815260040161060e90612ca5565b610a4c611fee565b611c1b82826114f4565b6108d15760008281526065602090815260408083206001600160a01b03851684529091529020805460ff19166001179055611c533390565b6001600160a01b0316816001600160a01b0316837f2f8788117e7eff1d82e926ec794901d17c78024a50270940304540a733656f0d60405160405180910390a45050565b6109b18133612021565b611cab82826114f4565b156108d15760008281526065602090815260408083206001600160a01b0385168085529252808320805460ff1916905551339285917ff6391f5c32d9c69d2a47ea670b442974b53935d1edc7fd64eb21e047a839171b9190a45050565b61016054604051632474521560e21b8152600060048201523360248201526001600160a01b03909116906391d1485490604401602060405180830381865afa158015611d58573d6000803e3d6000fd5b505050506040513d601f19601f82011682018060405250810190611d7c9190612aed565b6109b15760405162461bcd60e51b815260040161060e90612ba7565b7f4910fdfa16fed3260ed0e7147f7cc6da11a60208b5b9406d12a635614ffd91435460ff1615611dcb5761085283612085565b826001600160a01b03166352d1902d6040518163ffffffff1660e01b8152600401602060405180830381865afa925050508015611e25575060408051601f3d908101601f19168201909252611e2291810190612cf0565b60015b611e885760405162461bcd60e51b815260206004820152602e60248201527f45524331393637557067726164653a206e657720696d706c656d656e7461746960448201526d6f6e206973206e6f74205555505360901b606482015260840161060e565b600080516020612ddb8339815191528114611ef75760405162461bcd60e51b815260206004820152602960248201527f45524331393637557067726164653a20756e737570706f727465642070726f786044820152681a58589b195555525160ba1b606482015260840161060e565b50610852838383612121565b60fb5460ff16611f4c5760405162461bcd60e51b815260206004820152601460248201527314185d5cd8589b194e881b9bdd081c185d5cd95960621b604482015260640161060e565b60fb805460ff191690557f5db9ee0a495bf2e6ff9c91a7834c1ba4fdd244a5e8aa4e537bd38aeae4b073aa335b6040516001600160a01b03909116815260200160405180910390a1565b60fb5460ff1615611fb95760405162461bcd60e51b815260040161060e90612991565b60fb805460ff191660011790557f62e78cea01bee320cd4e420270b5ea74000d11b0c9f74754ebdbfc544b05a258611f793390565b600054610100900460ff166120155760405162461bcd60e51b815260040161060e90612ca5565b60fb805460ff19169055565b61202b82826114f4565b6108d157612043816001600160a01b0316601461214c565b61204e83602061214c565b60405160200161205f929190612d09565b60408051601f198184030181529082905262461bcd60e51b825261060e91600401612d7e565b6001600160a01b0381163b6120f25760405162461bcd60e51b815260206004820152602d60248201527f455243313936373a206e657720696d706c656d656e746174696f6e206973206e60448201526c1bdd08184818dbdb9d1c9858dd609a1b606482015260840161060e565b600080516020612ddb83398151915280546001600160a01b0319166001600160a01b0392909216919091179055565b61212a836122ef565b6000825111806121375750805b1561085257612146838361232f565b50505050565b6060600061215b836002612bff565b612166906002612be7565b67ffffffffffffffff81111561217e5761217e6125f9565b6040519080825280601f01601f1916602001820160405280156121a8576020820181803683370190505b509050600360fc1b816000815181106121c3576121c3612d91565b60200101906001600160f81b031916908160001a905350600f60fb1b816001815181106121f2576121f2612d91565b60200101906001600160f81b031916908160001a9053506000612216846002612bff565b612221906001612be7565b90505b6001811115612299576f181899199a1a9b1b9c1cb0b131b232b360811b85600f166010811061225557612255612d91565b1a60f81b82828151811061226b5761226b612d91565b60200101906001600160f81b031916908160001a90535060049490941c9361229281612da7565b9050612224565b5083156122e85760405162461bcd60e51b815260206004820181905260248201527f537472696e67733a20686578206c656e67746820696e73756666696369656e74604482015260640161060e565b9392505050565b6122f881612085565b6040516001600160a01b038216907fbc7cd75a20ee27fd9adebab32041f755214dbc6bffa90cc0225b39da2e5c2d3b90600090a250565b60606001600160a01b0383163b6123975760405162461bcd60e51b815260206004820152602660248201527f416464726573733a2064656c65676174652063616c6c20746f206e6f6e2d636f6044820152651b9d1c9858dd60d21b606482015260840161060e565b600080846001600160a01b0316846040516123b29190612dbe565b600060405180830381855af49150503d80600081146123ed576040519150601f19603f3d011682016040523d82523d6000602084013e6123f2565b606091505b509150915061241a8282604051806060016040528060278152602001612dfb60279139612423565b95945050505050565b606083156124325750816122e8565b8251156124425782518084602001fd5b8160405162461bcd60e51b815260040161060e9190612d7e565b828054612468906129f2565b90600052602060002090601f01602090048101928261248a57600085556124d0565b82601f106124a357805160ff19168380011785556124d0565b828001600101855582156124d0579182015b828111156124d05782518255916020019190600101906124b5565b506124dc9291506124e0565b5090565b5b808211156124dc57600081556001016124e1565b60006020828403121561250757600080fd5b81356001600160e01b0319811681146122e857600080fd5b6001600160a01b03811681146109b157600080fd5b600080600080600060a0868803121561254c57600080fd5b85356125578161251f565b9450602086013593506040860135925060608601356125758161251f565b915060808601356125858161251f565b809150509295509295909350565b6000602082840312156125a557600080fd5b5035919050565b600080604083850312156125bf57600080fd5b8235915060208301356125d18161251f565b809150509250929050565b6000602082840312156125ee57600080fd5b81356122e88161251f565b634e487b7160e01b600052604160045260246000fd5b600067ffffffffffffffff8084111561262a5761262a6125f9565b604051601f8501601f19908116603f01168101908282118183101715612652576126526125f9565b8160405280935085815286868601111561266b57600080fd5b858560208301376000602087830101525050509392505050565b6000806040838503121561269857600080fd5b82356126a38161251f565b9150602083013567ffffffffffffffff8111156126bf57600080fd5b8301601f810185136126d057600080fd5b6126df8582356020840161260f565b9150509250929050565b60005b838110156127045781810151838201526020016126ec565b838111156121465750506000910152565b6000815180845261272d8160208601602086016126e9565b601f01601f19169290920160200192915050565b6001600160a01b038a811682528916602082015263ffffffff888116604083015287166060820152851515608082015260a0810185905260c0810184905260e0810183905261012061010082018190526000906127a083820185612715565b9c9b505050505050505050505050565b600080604083850312156127c357600080fd5b50508035926020909101359150565b602081526127ec6020820183516001600160a01b03169052565b6000602083015161280860408401826001600160a01b03169052565b50604083015163ffffffff8116606084015250606083015163ffffffff8116608084015250608083015180151560a08401525060a083015160c083015260c083015160e083015260e083015161010081818501528085015191505061012080818501525061287a610140840182612715565b949350505050565b803563ffffffff81168114611bb657600080fd5b6000806000606084860312156128ab57600080fd5b83359250602084013591506128c260408501612882565b90509250925092565b6000602082840312156128dd57600080fd5b813561ffff811681146122e857600080fd5b600080600080600080600060e0888a03121561290a57600080fd5b87359650602088013595506040880135945061292860608901612882565b935061293660808901612882565b925060a08801356129468161251f565b915060c088013567ffffffffffffffff81111561296257600080fd5b8801601f81018a1361297357600080fd5b6129828a82356020840161260f565b91505092959891949750929550565b60208082526010908201526f14185d5cd8589b194e881c185d5cd95960821b604082015260600190565b60208082526017908201527f41756374696f6e20616c726561647920736574746c6564000000000000000000604082015260600190565b600181811c90821680612a0657607f821691505b602082108103612a2657634e487b7160e01b600052602260045260246000fd5b50919050565b6001600160a01b03841681526020808201849052606060408301528254600091908290600181811c9082811680612a6457607f831692505b8583108103612a8157634e487b7160e01b85526022600452602485fd5b6060880183905260808801818015612aa05760018114612ab157612adc565b60ff19861682528782019650612adc565b60008b81526020902060005b86811015612ad657815484820152908501908901612abd565b83019750505b50949b9a5050505050505050505050565b600060208284031215612aff57600080fd5b815180151581146122e857600080fd5b6020808252602c908201527f46756e6374696f6e206d7573742062652063616c6c6564207468726f7567682060408201526b19195b1959d85d1958d85b1b60a21b606082015260800190565b6020808252602c908201527f46756e6374696f6e206d7573742062652063616c6c6564207468726f7567682060408201526b6163746976652070726f787960a01b606082015260800190565b60208082526010908201526f41646d696e2063616c6c73206f6e6c7960801b604082015260600190565b634e487b7160e01b600052601160045260246000fd5b60008219821115612bfa57612bfa612bd1565b500190565b6000816000190483118215151615612c1957612c19612bd1565b500290565b600082612c3b57634e487b7160e01b600052601260045260246000fd5b500490565b600082821015612c5257612c52612bd1565b500390565b6020808252602e908201527f496e697469616c697a61626c653a20636f6e747261637420697320616c72656160408201526d191e481a5b9a5d1a585b1a5e995960921b606082015260800190565b6020808252602b908201527f496e697469616c697a61626c653a20636f6e7472616374206973206e6f74206960408201526a6e697469616c697a696e6760a81b606082015260800190565b600060208284031215612d0257600080fd5b5051919050565b7f416363657373436f6e74726f6c3a206163636f756e7420000000000000000000815260008351612d418160178501602088016126e9565b7001034b99036b4b9b9b4b733903937b6329607d1b6017918401918201528351612d728160288401602088016126e9565b01602801949350505050565b6020815260006122e86020830184612715565b634e487b7160e01b600052603260045260246000fd5b600081612db657612db6612bd1565b506000190190565b60008251612dd08184602087016126e9565b919091019291505056fe360894a13ba1a3210667c828492db98dca3e2076cc3735a920a3ca505d382bbc416464726573733a206c6f772d6c6576656c2064656c65676174652063616c6c206661696c6564a26469706673582212204a4a1f5b97cf5414361b0fdd11a8180342d2a53d2a0e7e48640e1c708707b1f064736f6c634300080e0033",
  "linkReferences": {},
  "deployedLinkReferences": {}
}