{
  "_format": "hh-sol-artifact-1",
  "contractName": "Auction",
  "sourceName": "contracts/Auction/Auction.sol",
  "abi": [
    {
      "anonymous": false,
      "inputs": [
        {
          "indexed": false,
          "internalType": "address",
          "name": "previousAdmin",
          "type": "address"
        },
        {
          "indexed": false,
          "internalType": "address",
          "name": "newAdmin",
          "type": "address"
        }
      ],
      "name": "AdminChanged",
      "type": "event"
    },
    {
      "anonymous": false,
      "inputs": [
        {
          "indexed": true,
          "internalType": "uint256",
          "name": "auctionId",
          "type": "uint256"
        },
        {
          "indexed": true,
          "internalType": "address",
          "name": "previousBidder",
          "type": "address"
        }
      ],
      "name": "AuctionCancelled",
      "type": "event"
    },
    {
      "anonymous": false,
      "inputs": [
        {
          "indexed": false,
          "internalType": "uint256",
          "name": "auctionId",
          "type": "uint256"
        },
        {
          "indexed": false,
          "internalType": "uint256",
          "name": "nftId",
          "type": "uint256"
        }
      ],
      "name": "AuctionCreated",
      "type": "event"
    },
    {
      "anonymous": false,
      "inputs": [
        {
          "indexed": true,
          "internalType": "uint256",
          "name": "auctionId",
          "type": "uint256"
        },
        {
          "indexed": true,
          "internalType": "address",
          "name": "highestBidder",
          "type": "address"
        },
        {
          "indexed": false,
          "internalType": "uint256",
          "name": "highestBid",
          "type": "uint256"
        }
      ],
      "name": "AuctionSettled",
      "type": "event"
    },
    {
      "anonymous": false,
      "inputs": [
        {
          "indexed": true,
          "internalType": "address",
          "name": "beacon",
          "type": "address"
        }
      ],
      "name": "BeaconUpgraded",
      "type": "event"
    },
    {
      "anonymous": false,
      "inputs": [
        {
          "indexed": true,
          "internalType": "uint256",
          "name": "auctionId",
          "type": "uint256"
        },
        {
          "indexed": true,
          "internalType": "address",
          "name": "newBidder",
          "type": "address"
        },
        {
          "indexed": true,
          "internalType": "address",
          "name": "previousBidder",
          "type": "address"
        },
        {
          "indexed": false,
          "internalType": "uint256",
          "name": "bidAmount",
          "type": "uint256"
        },
        {
          "indexed": false,
          "internalType": "uint256",
          "name": "newEndTime",
          "type": "uint256"
        }
      ],
      "name": "BidPlaced",
      "type": "event"
    },
    {
      "anonymous": false,
      "inputs": [
        {
          "indexed": false,
          "internalType": "uint8",
          "name": "version",
          "type": "uint8"
        }
      ],
      "name": "Initialized",
      "type": "event"
    },
    {
      "anonymous": false,
      "inputs": [
        {
          "indexed": false,
          "internalType": "address",
          "name": "account",
          "type": "address"
        }
      ],
      "name": "Paused",
      "type": "event"
    },
    {
      "anonymous": false,
      "inputs": [
        {
          "indexed": true,
          "internalType": "bytes32",
          "name": "role",
          "type": "bytes32"
        },
        {
          "indexed": true,
          "internalType": "bytes32",
          "name": "previousAdminRole",
          "type": "bytes32"
        },
        {
          "indexed": true,
          "internalType": "bytes32",
          "name": "newAdminRole",
          "type": "bytes32"
        }
      ],
      "name": "RoleAdminChanged",
      "type": "event"
    },
    {
      "anonymous": false,
      "inputs": [
        {
          "indexed": true,
          "internalType": "bytes32",
          "name": "role",
          "type": "bytes32"
        },
        {
          "indexed": true,
          "internalType": "address",
          "name": "account",
          "type": "address"
        },
        {
          "indexed": true,
          "internalType": "address",
          "name": "sender",
          "type": "address"
        }
      ],
      "name": "RoleGranted",
      "type": "event"
    },
    {
      "anonymous": false,
      "inputs": [
        {
          "indexed": true,
          "internalType": "bytes32",
          "name": "role",
          "type": "bytes32"
        },
        {
          "indexed": true,
          "internalType": "address",
          "name": "account",
          "type": "address"
        },
        {
          "indexed": true,
          "internalType": "address",
          "name": "sender",
          "type": "address"
        }
      ],
      "name": "RoleRevoked",
      "type": "event"
    },
    {
      "anonymous": false,
      "inputs": [
        {
          "indexed": false,
          "internalType": "address",
          "name": "account",
          "type": "address"
        }
      ],
      "name": "Unpaused",
      "type": "event"
    },
    {
      "anonymous": false,
      "inputs": [
        {
          "indexed": true,
          "internalType": "address",
          "name": "implementation",
          "type": "address"
        }
      ],
      "name": "Upgraded",
      "type": "event"
    },
    {
      "inputs": [],
      "name": "DEFAULT_ADMIN_ROLE",
      "outputs": [
        {
          "internalType": "bytes32",
          "name": "",
          "type": "bytes32"
        }
      ],
      "stateMutability": "view",
      "type": "function"
    },
    {
      "inputs": [],
      "name": "DEFAULT_EXTENSION",
      "outputs": [
        {
          "internalType": "uint256",
          "name": "",
          "type": "uint256"
        }
      ],
      "stateMutability": "view",
      "type": "function"
    },
    {
      "inputs": [
        {
          "internalType": "uint256",
          "name": "",
          "type": "uint256"
        }
      ],
      "name": "auctions",
      "outputs": [
        {
          "internalType": "address",
          "name": "highestBidder",
          "type": "address"
        },
        {
          "internalType": "contract INFT",
          "name": "nftContract",
          "type": "address"
        },
        {
          "internalType": "uint32",
          "name": "startTime",
          "type": "uint32"
        },
        {
          "internalType": "uint32",
          "name": "endTime",
          "type": "uint32"
        },
        {
          "internalType": "uint32",
          "name": "duration",
          "type": "uint32"
        },
        {
          "internalType": "bool",
          "name": "settled",
          "type": "bool"
        },
        {
          "internalType": "uint256",
          "name": "nftId",
          "type": "uint256"
        },
        {
          "internalType": "uint256",
          "name": "minimumPrice",
          "type": "uint256"
        },
        {
          "internalType": "uint256",
          "name": "highestBid",
          "type": "uint256"
        },
        {
          "internalType": "uint256",
          "name": "auctionId",
          "type": "uint256"
        },
        {
          "internalType": "string",
          "name": "nftUri",
          "type": "string"
        }
      ],
      "stateMutability": "view",
      "type": "function"
    },
    {
      "inputs": [
        {
          "internalType": "uint256",
          "name": "_auctionId",
          "type": "uint256"
        },
        {
          "internalType": "uint256",
          "name": "_amount",
          "type": "uint256"
        }
      ],
      "name": "bid",
      "outputs": [],
      "stateMutability": "nonpayable",
      "type": "function"
    },
    {
      "inputs": [
        {
          "internalType": "uint256",
          "name": "_auctionId",
          "type": "uint256"
        }
      ],
      "name": "cancelAuction",
      "outputs": [],
      "stateMutability": "nonpayable",
      "type": "function"
    },
    {
      "inputs": [
        {
          "components": [
            {
              "internalType": "address",
              "name": "highestBidder",
              "type": "address"
            },
            {
              "internalType": "contract INFT",
              "name": "nftContract",
              "type": "address"
            },
            {
              "internalType": "uint32",
              "name": "startTime",
              "type": "uint32"
            },
            {
              "internalType": "uint32",
              "name": "endTime",
              "type": "uint32"
            },
            {
              "internalType": "uint32",
              "name": "duration",
              "type": "uint32"
            },
            {
              "internalType": "bool",
              "name": "settled",
              "type": "bool"
            },
            {
              "internalType": "uint256",
              "name": "nftId",
              "type": "uint256"
            },
            {
              "internalType": "uint256",
              "name": "minimumPrice",
              "type": "uint256"
            },
            {
              "internalType": "uint256",
              "name": "highestBid",
              "type": "uint256"
            },
            {
              "internalType": "uint256",
              "name": "auctionId",
              "type": "uint256"
            },
            {
              "internalType": "string",
              "name": "nftUri",
              "type": "string"
            }
          ],
          "internalType": "struct Auction.AuctionInfo",
          "name": "_auctionInfo",
          "type": "tuple"
        }
      ],
      "name": "createAuction",
      "outputs": [],
      "stateMutability": "nonpayable",
      "type": "function"
    },
    {
      "inputs": [
        {
          "components": [
            {
              "internalType": "address",
              "name": "highestBidder",
              "type": "address"
            },
            {
              "internalType": "contract INFT",
              "name": "nftContract",
              "type": "address"
            },
            {
              "internalType": "uint32",
              "name": "startTime",
              "type": "uint32"
            },
            {
              "internalType": "uint32",
              "name": "endTime",
              "type": "uint32"
            },
            {
              "internalType": "uint32",
              "name": "duration",
              "type": "uint32"
            },
            {
              "internalType": "bool",
              "name": "settled",
              "type": "bool"
            },
            {
              "internalType": "uint256",
              "name": "nftId",
              "type": "uint256"
            },
            {
              "internalType": "uint256",
              "name": "minimumPrice",
              "type": "uint256"
            },
            {
              "internalType": "uint256",
              "name": "highestBid",
              "type": "uint256"
            },
            {
              "internalType": "uint256",
              "name": "auctionId",
              "type": "uint256"
            },
            {
              "internalType": "string",
              "name": "nftUri",
              "type": "string"
            }
          ],
          "internalType": "struct Auction.AuctionInfo[]",
          "name": "_auctions",
          "type": "tuple[]"
        }
      ],
      "name": "createAuctionBatch",
      "outputs": [],
      "stateMutability": "nonpayable",
      "type": "function"
    },
    {
      "inputs": [],
      "name": "erc20",
      "outputs": [
        {
          "internalType": "contract IERC20",
          "name": "",
          "type": "address"
        }
      ],
      "stateMutability": "view",
      "type": "function"
    },
    {
      "inputs": [
        {
          "internalType": "uint256",
          "name": "_auctionId",
          "type": "uint256"
        }
      ],
      "name": "getAuction",
      "outputs": [
        {
          "components": [
            {
              "internalType": "address",
              "name": "highestBidder",
              "type": "address"
            },
            {
              "internalType": "contract INFT",
              "name": "nftContract",
              "type": "address"
            },
            {
              "internalType": "uint32",
              "name": "startTime",
              "type": "uint32"
            },
            {
              "internalType": "uint32",
              "name": "endTime",
              "type": "uint32"
            },
            {
              "internalType": "uint32",
              "name": "duration",
              "type": "uint32"
            },
            {
              "internalType": "bool",
              "name": "settled",
              "type": "bool"
            },
            {
              "internalType": "uint256",
              "name": "nftId",
              "type": "uint256"
            },
            {
              "internalType": "uint256",
              "name": "minimumPrice",
              "type": "uint256"
            },
            {
              "internalType": "uint256",
              "name": "highestBid",
              "type": "uint256"
            },
            {
              "internalType": "uint256",
              "name": "auctionId",
              "type": "uint256"
            },
            {
              "internalType": "string",
              "name": "nftUri",
              "type": "string"
            }
          ],
          "internalType": "struct Auction.AuctionInfo",
          "name": "",
          "type": "tuple"
        }
      ],
      "stateMutability": "view",
      "type": "function"
    },
    {
      "inputs": [],
      "name": "getBidIncrementPercentage",
      "outputs": [
        {
          "internalType": "uint256",
          "name": "",
          "type": "uint256"
        }
      ],
      "stateMutability": "view",
      "type": "function"
    },
    {
      "inputs": [
        {
          "internalType": "bytes32",
          "name": "role",
          "type": "bytes32"
        }
      ],
      "name": "getRoleAdmin",
      "outputs": [
        {
          "internalType": "bytes32",
          "name": "",
          "type": "bytes32"
        }
      ],
      "stateMutability": "view",
      "type": "function"
    },
    {
      "inputs": [
        {
          "internalType": "bytes32",
          "name": "role",
          "type": "bytes32"
        },
        {
          "internalType": "address",
          "name": "account",
          "type": "address"
        }
      ],
      "name": "grantRole",
      "outputs": [],
      "stateMutability": "nonpayable",
      "type": "function"
    },
    {
      "inputs": [
        {
          "internalType": "bytes32",
          "name": "role",
          "type": "bytes32"
        },
        {
          "internalType": "address",
          "name": "account",
          "type": "address"
        }
      ],
      "name": "hasRole",
      "outputs": [
        {
          "internalType": "bool",
          "name": "",
          "type": "bool"
        }
      ],
      "stateMutability": "view",
      "type": "function"
    },
    {
      "inputs": [
        {
          "internalType": "address",
          "name": "_admin",
          "type": "address"
        },
        {
          "internalType": "uint256",
          "name": "_bidIncrementPercentage",
          "type": "uint256"
        },
        {
          "internalType": "address",
          "name": "_token",
          "type": "address"
        },
        {
          "internalType": "address",
          "name": "_storage",
          "type": "address"
        }
      ],
      "name": "initialize",
      "outputs": [],
      "stateMutability": "nonpayable",
      "type": "function"
    },
    {
      "inputs": [],
      "name": "pause",
      "outputs": [],
      "stateMutability": "nonpayable",
      "type": "function"
    },
    {
      "inputs": [],
      "name": "paused",
      "outputs": [
        {
          "internalType": "bool",
          "name": "",
          "type": "bool"
        }
      ],
      "stateMutability": "view",
      "type": "function"
    },
    {
      "inputs": [],
      "name": "proxiableUUID",
      "outputs": [
        {
          "internalType": "bytes32",
          "name": "",
          "type": "bytes32"
        }
      ],
      "stateMutability": "view",
      "type": "function"
    },
    {
      "inputs": [
        {
          "internalType": "bytes32",
          "name": "role",
          "type": "bytes32"
        },
        {
          "internalType": "address",
          "name": "account",
          "type": "address"
        }
      ],
      "name": "renounceRole",
      "outputs": [],
      "stateMutability": "nonpayable",
      "type": "function"
    },
    {
      "inputs": [
        {
          "internalType": "bytes32",
          "name": "role",
          "type": "bytes32"
        },
        {
          "internalType": "address",
          "name": "account",
          "type": "address"
        }
      ],
      "name": "revokeRole",
      "outputs": [],
      "stateMutability": "nonpayable",
      "type": "function"
    },
    {
      "inputs": [
        {
          "internalType": "uint16",
          "name": "_bidIncrementPercentage",
          "type": "uint16"
        }
      ],
      "name": "setBidIncrementPercentage",
      "outputs": [],
      "stateMutability": "nonpayable",
      "type": "function"
    },
    {
      "inputs": [
        {
          "internalType": "uint256",
          "name": "_auctionId",
          "type": "uint256"
        }
      ],
      "name": "settleAuction",
      "outputs": [],
      "stateMutability": "nonpayable",
      "type": "function"
    },
    {
      "inputs": [
        {
          "internalType": "bytes4",
          "name": "interfaceId",
          "type": "bytes4"
        }
      ],
      "name": "supportsInterface",
      "outputs": [
        {
          "internalType": "bool",
          "name": "",
          "type": "bool"
        }
      ],
      "stateMutability": "view",
      "type": "function"
    },
    {
      "inputs": [],
      "name": "unpause",
      "outputs": [],
      "stateMutability": "nonpayable",
      "type": "function"
    },
    {
      "inputs": [
        {
          "internalType": "uint256",
          "name": "_auctionId",
          "type": "uint256"
        },
        {
          "internalType": "uint256",
          "name": "_minimumPrice",
          "type": "uint256"
        },
        {
          "internalType": "uint32",
          "name": "_endTime",
          "type": "uint32"
        }
      ],
      "name": "updateAuction",
      "outputs": [],
      "stateMutability": "nonpayable",
      "type": "function"
    },
    {
      "inputs": [
        {
          "internalType": "address",
          "name": "newImplementation",
          "type": "address"
        }
      ],
      "name": "upgradeTo",
      "outputs": [],
      "stateMutability": "nonpayable",
      "type": "function"
    },
    {
      "inputs": [
        {
          "internalType": "address",
          "name": "newImplementation",
          "type": "address"
        },
        {
          "internalType": "bytes",
          "name": "data",
          "type": "bytes"
        }
      ],
      "name": "upgradeToAndCall",
      "outputs": [],
      "stateMutability": "payable",
      "type": "function"
    }
  ],
  "bytecode": "0x60a06040523060805234801561001457600080fd5b5060805161306261004c600039600081816108cd0152818161090d01528181610a4601528181610a860152610b1501526130626000f3fe6080604052600436106101815760003560e01c80635c975abb116100d157806391d148541161008a578063a473205c11610064578063a473205c1461046d578063c3c675bc14610483578063d3919731146104a3578063d547741f146104c357600080fd5b806391d148541461041857806396b5a75514610438578063a217fddf1461045857600080fd5b80635c975abb146103455780636953f4731461035d578063785e9e861461037d57806378bd7935146103b65780638456cb59146103e35780638f803842146103f857600080fd5b80633659cfe61161013e5780634f1ef286116101185780634f1ef286146102c657806352d1902d146102d9578063571a26a0146102ee578063598647f81461032557600080fd5b80633659cfe61461027b5780633f4ba83a1461029b578063481b13d2146102b057600080fd5b806301ffc9a714610186578063248a9ca3146101bb5780632e993611146101f95780632f2ff15d1461021b578063358394d81461023b57806336568abe1461025b575b600080fd5b34801561019257600080fd5b506101a66101a13660046123e6565b6104e3565b60405190151581526020015b60405180910390f35b3480156101c757600080fd5b506101eb6101d6366004612410565b60009081526065602052604090206001015490565b6040519081526020016101b2565b34801561020557600080fd5b50610219610214366004612410565b61051a565b005b34801561022757600080fd5b5061021961023636600461243e565b61074f565b34801561024757600080fd5b5061021961025636600461246e565b610779565b34801561026757600080fd5b5061021961027636600461243e565b610845565b34801561028757600080fd5b506102196102963660046124c1565b6108c3565b3480156102a757600080fd5b506102196109a2565b3480156102bc57600080fd5b50610162546101eb565b6102196102d43660046124f4565b610a3c565b3480156102e557600080fd5b506101eb610b08565b3480156102fa57600080fd5b5061030e610309366004612410565b610bbb565b6040516101b29b9a99989796959493929190612610565b34801561033157600080fd5b50610219610340366004612692565b610cbf565b34801561035157600080fd5b5060fb5460ff166101a6565b34801561036957600080fd5b506102196103783660046126b4565b61115a565b34801561038957600080fd5b5061015f5461039e906001600160a01b031681565b6040516001600160a01b0390911681526020016101b2565b3480156103c257600080fd5b506103d66103d1366004612410565b611233565b6040516101b29190612729565b3480156103ef57600080fd5b506102196113fe565b34801561040457600080fd5b5061021961041336600461280b565b611496565b34801561042457600080fd5b506101a661043336600461243e565b6115f8565b34801561044457600080fd5b50610219610453366004612410565b611623565b34801561046457600080fd5b506101eb600081565b34801561047957600080fd5b506101eb61025881565b34801561048f57600080fd5b5061021961049e366004612844565b611813565b3480156104af57600080fd5b506102196104be366004612868565b6118ad565b3480156104cf57600080fd5b506102196104de36600461243e565b611a9e565b60006001600160e01b03198216637965db0b60e01b148061051457506301ffc9a760e01b6001600160e01b03198316145b92915050565b60fb5460ff16156105465760405162461bcd60e51b815260040161053d906128a4565b60405180910390fd5b600081815261016160205260409020600281015460ff161561057a5760405162461bcd60e51b815260040161053d906128ce565b6005810154815460018301546001600160a01b0390911690600160c01b900463ffffffff1680158015906105ad57508042115b6105f95760405162461bcd60e51b815260206004820152601860248201527f41756374696f6e206973207374696c6c2072756e6e696e670000000000000000604482015260640161053d565b60028401805460ff191660011790556001600160a01b038216156107045760018401546003850154604051633349e71f60e21b81526001600160a01b039092169163cd279c7c916106549186919060078a019060040161293f565b600060405180830381600087803b15801561066e57600080fd5b505af1158015610682573d6000803e3d6000fd5b505061015f54600187015460405163a9059cbb60e01b81526001600160a01b039182166004820152602481018890529116925063a9059cbb91506044016020604051808303816000875af11580156106de573d6000803e3d6000fd5b505050506040513d601f19601f8201168201806040525081019061070291906129e9565b505b816001600160a01b0316857fc9f72b276a388619c6d185d146697036241880c36654b1a3ffdad07c24038d998560405161074091815260200190565b60405180910390a35050505050565b60008281526065602052604090206001015461076a81611ac3565b6107748383611acd565b505050565b60006107856001611b53565b9050801561079d576000805461ff0019166101001790555b6107a5611bdb565b6107ad611c02565b6107b5611bdb565b6107c0600086611acd565b61016284905561015f80546001600160a01b038086166001600160a01b031992831617909255610160805492851692909116919091179055801561083e576000805461ff0019169055604051600181527f7f26b83ff96e1f2b6a682f133852f6798a09c465da95921460cefb38474024989060200160405180910390a15b5050505050565b6001600160a01b03811633146108b55760405162461bcd60e51b815260206004820152602f60248201527f416363657373436f6e74726f6c3a2063616e206f6e6c792072656e6f756e636560448201526e103937b632b9903337b91039b2b63360891b606482015260840161053d565b6108bf8282611c31565b5050565b6001600160a01b037f000000000000000000000000000000000000000000000000000000000000000016300361090b5760405162461bcd60e51b815260040161053d90612a06565b7f00000000000000000000000000000000000000000000000000000000000000006001600160a01b0316610954600080516020612fe6833981519152546001600160a01b031690565b6001600160a01b03161461097a5760405162461bcd60e51b815260040161053d90612a52565b61098381611c98565b6040805160008082526020820190925261099f91839190611d28565b50565b61016054604051632474521560e21b8152600060048201523360248201526001600160a01b03909116906391d1485490604401602060405180830381865afa1580156109f2573d6000803e3d6000fd5b505050506040513d601f19601f82011682018060405250810190610a1691906129e9565b610a325760405162461bcd60e51b815260040161053d90612a9e565b610a3a611e93565b565b6001600160a01b037f0000000000000000000000000000000000000000000000000000000000000000163003610a845760405162461bcd60e51b815260040161053d90612a06565b7f00000000000000000000000000000000000000000000000000000000000000006001600160a01b0316610acd600080516020612fe6833981519152546001600160a01b031690565b6001600160a01b031614610af35760405162461bcd60e51b815260040161053d90612a52565b610afc82611c98565b6108bf82826001611d28565b6000306001600160a01b037f00000000000000000000000000000000000000000000000000000000000000001614610ba85760405162461bcd60e51b815260206004820152603860248201527f555550535570677261646561626c653a206d757374206e6f742062652063616c60448201527f6c6564207468726f7567682064656c656761746563616c6c0000000000000000606482015260840161053d565b50600080516020612fe683398151915290565b61016160205260009081526040902080546001820154600283015460038401546004850154600586015460068701546007880180546001600160a01b03988916999888169863ffffffff600160a01b8a04811699600160c01b8104821699600160e01b9091049091169760ff909116969095909490939092610c3c90612905565b80601f0160208091040260200160405190810160405280929190818152602001828054610c6890612905565b8015610cb55780601f10610c8a57610100808354040283529160200191610cb5565b820191906000526020600020905b815481529060010190602001808311610c9857829003601f168201915b505050505090508b565b600261012d5403610d125760405162461bcd60e51b815260206004820152601f60248201527f5265656e7472616e637947756172643a207265656e7472616e742063616c6c00604482015260640161053d565b600261012d5560fb5460ff1615610d3b5760405162461bcd60e51b815260040161053d906128a4565b600082815261016160205260409020600181015463ffffffff600160c01b8204811691600160a01b9004164281610dac5760405162461bcd60e51b8152602060048201526015602482015274105d58dd1a5bdb88191bd95cdb89dd08195e1a5cdd605a1b604482015260640161053d565b81811015610df45760405162461bcd60e51b815260206004820152601560248201527441756374696f6e206e6f7420617661696c61626c6560581b604482015260640161053d565b821580610e0057508083115b610e405760405162461bcd60e51b8152602060048201526011602482015270105d58dd1a5bdb881a185cc8195b991959607a1b604482015260640161053d565b600284015460ff1615610e655760405162461bcd60e51b815260040161053d906128ce565b600085118015610e79575083600401548510155b610ec55760405162461bcd60e51b815260206004820152601960248201527f426964206973206c6f776572207468616e206d696e696d756d00000000000000604482015260640161053d565b61271061016254612710610ed99190612ade565b8560050154610ee89190612af6565b610ef29190612b15565b851015610f515760405162461bcd60e51b815260206004820152602760248201527f426964206973206c6f776572207468616e20686967686573742062696420696e60448201526618dc995b595b9d60ca1b606482015260840161053d565b61015f546040516323b872dd60e01b8152336004820152306024820152604481018790526001600160a01b03909116906323b872dd906064016020604051808303816000875af1158015610fa9573d6000803e3d6000fd5b505050506040513d601f19601f82011682018060405250810190610fcd91906129e9565b5083546005850180546001600160a01b0319831633178755908790556001600160a01b039091169081156110755761015f5460405163a9059cbb60e01b81526001600160a01b038481166004830152602482018490529091169063a9059cbb906044016020604051808303816000875af115801561104f573d6000803e3d6000fd5b505050506040513d601f19601f8201168201806040525081019061107391906129e9565b505b846000036110c057600186015461109990600160e01b900463ffffffff1684612ade565b8660010160186101000a81548163ffffffff021916908363ffffffff160217905550611102565b6102586110cd8487612b37565b1015611102576110df61025884612ade565b60018701805463ffffffff60c01b1916600160c01b63ffffffff84160217905594505b60408051888152602081018790526001600160a01b0384169133918b917f2808decb743a25d04efe1bd3dc192acde3be644e2f6ad1dce5d3c46643e1c602910160405180910390a45050600161012d55505050505050565b61016054604051632474521560e21b8152600060048201523360248201526001600160a01b03909116906391d1485490604401602060405180830381865afa1580156111aa573d6000803e3d6000fd5b505050506040513d601f19601f820116820180604052508101906111ce91906129e9565b6111ea5760405162461bcd60e51b815260040161053d90612a9e565b8060005b8181101561122d5761121d84848381811061120b5761120b612b4e565b90506020028101906104be9190612b64565b61122681612b85565b90506111ee565b50505050565b6112b660405180610160016040528060006001600160a01b0316815260200160006001600160a01b03168152602001600063ffffffff168152602001600063ffffffff168152602001600063ffffffff16815260200160001515815260200160008152602001600081526020016000815260200160008152602001606081525090565b6000828152610161602090815260409182902082516101608101845281546001600160a01b03908116825260018301549081169382019390935263ffffffff600160a01b8404811694820194909452600160c01b830484166060820152600160e01b9092049092166080820152600282015460ff16151560a0820152600382015460c0820152600482015460e0820152600582015461010082015260068201546101208201526007820180549192916101408401919061137590612905565b80601f01602080910402602001604051908101604052809291908181526020018280546113a190612905565b80156113ee5780601f106113c3576101008083540402835291602001916113ee565b820191906000526020600020905b8154815290600101906020018083116113d157829003601f168201915b5050505050815250509050919050565b61016054604051632474521560e21b8152600060048201523360248201526001600160a01b03909116906391d1485490604401602060405180830381865afa15801561144e573d6000803e3d6000fd5b505050506040513d601f19601f8201168201806040525081019061147291906129e9565b61148e5760405162461bcd60e51b815260040161053d90612a9e565b610a3a611f26565b61016054604051632474521560e21b8152600060048201523360248201526001600160a01b03909116906391d1485490604401602060405180830381865afa1580156114e6573d6000803e3d6000fd5b505050506040513d601f19601f8201168201806040525081019061150a91906129e9565b6115265760405162461bcd60e51b815260040161053d90612a9e565b6000838152610161602052604090206002015460ff16156115595760405162461bcd60e51b815260040161053d906128ce565b60008381526101616020526040902060010154600160a01b900463ffffffff166115b95760405162461bcd60e51b8152602060048201526011602482015270105d58dd1a5bdb881b9bdd08199bdd5b99607a1b604482015260640161053d565b600092835261016160205260409092206004810191909155600101805463ffffffff909216600160c01b0263ffffffff60c01b19909216919091179055565b60009182526065602090815260408084206001600160a01b0393909316845291905290205460ff1690565b61016054604051632474521560e21b8152600060048201523360248201526001600160a01b03909116906391d1485490604401602060405180830381865afa158015611673573d6000803e3d6000fd5b505050506040513d601f19601f8201168201806040525081019061169791906129e9565b6116b35760405162461bcd60e51b815260040161053d90612a9e565b600081815261016160205260409020600281015460ff16156117175760405162461bcd60e51b815260206004820152601b60248201527f41756374696f6e20697320616c72656164792066696e69736865640000000000604482015260640161053d565b80546005820180546001600160a01b03198316845560009091556001600160a01b039091169081156117bd5761015f5460405163a9059cbb60e01b81526001600160a01b038481166004830152602482018490529091169063a9059cbb906044016020604051808303816000875af1158015611797573d6000803e3d6000fd5b505050506040513d601f19601f820116820180604052508101906117bb91906129e9565b505b60008481526101616020526040808220600201805460ff19166001179055516001600160a01b0384169186917f10ac9f0bb365b5d22d7bec500408692f23fdf83eadfec71615ef88b4c1134f0e9190a350505050565b61016054604051632474521560e21b8152600060048201523360248201526001600160a01b03909116906391d1485490604401602060405180830381865afa158015611863573d6000803e3d6000fd5b505050506040513d601f19601f8201168201806040525081019061188791906129e9565b6118a35760405162461bcd60e51b815260040161053d90612a9e565b61ffff1661016255565b61016054604051632474521560e21b8152600060048201523360248201526001600160a01b03909116906391d1485490604401602060405180830381865afa1580156118fd573d6000803e3d6000fd5b505050506040513d601f19601f8201168201806040525081019061192191906129e9565b61193d5760405162461bcd60e51b815260040161053d90612a9e565b61194d6080820160608301612b9e565b63ffffffff161580611988575061196a6060820160408301612b9e565b63ffffffff166119806080830160608401612b9e565b63ffffffff16115b6119cb5760405162461bcd60e51b8152602060048201526014602482015273496e76616c69642061756374696f6e2074696d6560601b604482015260640161053d565b61012081013560009081526101616020526040902060010154600160a01b900463ffffffff1615611a375760405162461bcd60e51b815260206004820152601660248201527541756374696f6e20616c72656164792065786973747360501b604482015260640161053d565b6101208101356000908152610161602052604090208190611a588282612d3e565b505060408051610120830135815260c083013560208201527fe00a2da3a0f34a566402a244ab7ec63f8ab7472591cb18edf3269aa00461a410910160405180910390a150565b600082815260656020526040902060010154611ab981611ac3565b6107748383611c31565b61099f8133611f7e565b611ad782826115f8565b6108bf5760008281526065602090815260408083206001600160a01b03851684529091529020805460ff19166001179055611b0f3390565b6001600160a01b0316816001600160a01b0316837f2f8788117e7eff1d82e926ec794901d17c78024a50270940304540a733656f0d60405160405180910390a45050565b60008054610100900460ff1615611b9a578160ff166001148015611b765750303b155b611b925760405162461bcd60e51b815260040161053d90612e82565b506000919050565b60005460ff808416911610611bc15760405162461bcd60e51b815260040161053d90612e82565b506000805460ff191660ff92909216919091179055600190565b600054610100900460ff16610a3a5760405162461bcd60e51b815260040161053d90612ed0565b600054610100900460ff16611c295760405162461bcd60e51b815260040161053d90612ed0565b610a3a611fe2565b611c3b82826115f8565b156108bf5760008281526065602090815260408083206001600160a01b0385168085529252808320805460ff1916905551339285917ff6391f5c32d9c69d2a47ea670b442974b53935d1edc7fd64eb21e047a839171b9190a45050565b61016054604051632474521560e21b8152600060048201523360248201526001600160a01b03909116906391d1485490604401602060405180830381865afa158015611ce8573d6000803e3d6000fd5b505050506040513d601f19601f82011682018060405250810190611d0c91906129e9565b61099f5760405162461bcd60e51b815260040161053d90612a9e565b7f4910fdfa16fed3260ed0e7147f7cc6da11a60208b5b9406d12a635614ffd91435460ff1615611d5b5761077483612015565b826001600160a01b03166352d1902d6040518163ffffffff1660e01b8152600401602060405180830381865afa925050508015611db5575060408051601f3d908101601f19168201909252611db291810190612f1b565b60015b611e185760405162461bcd60e51b815260206004820152602e60248201527f45524331393637557067726164653a206e657720696d706c656d656e7461746960448201526d6f6e206973206e6f74205555505360901b606482015260840161053d565b600080516020612fe68339815191528114611e875760405162461bcd60e51b815260206004820152602960248201527f45524331393637557067726164653a20756e737570706f727465642070726f786044820152681a58589b195555525160ba1b606482015260840161053d565b506107748383836120b1565b60fb5460ff16611edc5760405162461bcd60e51b815260206004820152601460248201527314185d5cd8589b194e881b9bdd081c185d5cd95960621b604482015260640161053d565b60fb805460ff191690557f5db9ee0a495bf2e6ff9c91a7834c1ba4fdd244a5e8aa4e537bd38aeae4b073aa335b6040516001600160a01b03909116815260200160405180910390a1565b60fb5460ff1615611f495760405162461bcd60e51b815260040161053d906128a4565b60fb805460ff191660011790557f62e78cea01bee320cd4e420270b5ea74000d11b0c9f74754ebdbfc544b05a258611f093390565b611f8882826115f8565b6108bf57611fa0816001600160a01b031660146120d6565b611fab8360206120d6565b604051602001611fbc929190612f34565b60408051601f198184030181529082905262461bcd60e51b825261053d91600401612fa9565b600054610100900460ff166120095760405162461bcd60e51b815260040161053d90612ed0565b60fb805460ff19169055565b6001600160a01b0381163b6120825760405162461bcd60e51b815260206004820152602d60248201527f455243313936373a206e657720696d706c656d656e746174696f6e206973206e60448201526c1bdd08184818dbdb9d1c9858dd609a1b606482015260840161053d565b600080516020612fe683398151915280546001600160a01b0319166001600160a01b0392909216919091179055565b6120ba83612279565b6000825111806120c75750805b156107745761122d83836122b9565b606060006120e5836002612af6565b6120f0906002612ade565b67ffffffffffffffff811115612108576121086124de565b6040519080825280601f01601f191660200182016040528015612132576020820181803683370190505b509050600360fc1b8160008151811061214d5761214d612b4e565b60200101906001600160f81b031916908160001a905350600f60fb1b8160018151811061217c5761217c612b4e565b60200101906001600160f81b031916908160001a90535060006121a0846002612af6565b6121ab906001612ade565b90505b6001811115612223576f181899199a1a9b1b9c1cb0b131b232b360811b85600f16601081106121df576121df612b4e565b1a60f81b8282815181106121f5576121f5612b4e565b60200101906001600160f81b031916908160001a90535060049490941c9361221c81612fbc565b90506121ae565b5083156122725760405162461bcd60e51b815260206004820181905260248201527f537472696e67733a20686578206c656e67746820696e73756666696369656e74604482015260640161053d565b9392505050565b61228281612015565b6040516001600160a01b038216907fbc7cd75a20ee27fd9adebab32041f755214dbc6bffa90cc0225b39da2e5c2d3b90600090a250565b60606001600160a01b0383163b6123215760405162461bcd60e51b815260206004820152602660248201527f416464726573733a2064656c65676174652063616c6c20746f206e6f6e2d636f6044820152651b9d1c9858dd60d21b606482015260840161053d565b600080846001600160a01b03168460405161233c9190612fd3565b600060405180830381855af49150503d8060008114612377576040519150601f19603f3d011682016040523d82523d6000602084013e61237c565b606091505b50915091506123a48282604051806060016040528060278152602001613006602791396123ad565b95945050505050565b606083156123bc575081612272565b8251156123cc5782518084602001fd5b8160405162461bcd60e51b815260040161053d9190612fa9565b6000602082840312156123f857600080fd5b81356001600160e01b03198116811461227257600080fd5b60006020828403121561242257600080fd5b5035919050565b6001600160a01b038116811461099f57600080fd5b6000806040838503121561245157600080fd5b82359150602083013561246381612429565b809150509250929050565b6000806000806080858703121561248457600080fd5b843561248f81612429565b93506020850135925060408501356124a681612429565b915060608501356124b681612429565b939692955090935050565b6000602082840312156124d357600080fd5b813561227281612429565b634e487b7160e01b600052604160045260246000fd5b6000806040838503121561250757600080fd5b823561251281612429565b9150602083013567ffffffffffffffff8082111561252f57600080fd5b818501915085601f83011261254357600080fd5b813581811115612555576125556124de565b604051601f8201601f19908116603f0116810190838211818310171561257d5761257d6124de565b8160405282815288602084870101111561259657600080fd5b8260208601602083013760006020848301015280955050505050509250929050565b60005b838110156125d35781810151838201526020016125bb565b8381111561122d5750506000910152565b600081518084526125fc8160208601602086016125b8565b601f01601f19169290920160200192915050565b6001600160a01b038c811682528b16602082015263ffffffff8a8116604083015289811660608301528816608082015286151560a082015260c0810186905260e08101859052610100810184905261012081018390526101606101408201819052600090612680838201856125e4565b9e9d5050505050505050505050505050565b600080604083850312156126a557600080fd5b50508035926020909101359150565b600080602083850312156126c757600080fd5b823567ffffffffffffffff808211156126df57600080fd5b818501915085601f8301126126f357600080fd5b81358181111561270257600080fd5b8660208260051b850101111561271757600080fd5b60209290920196919550909350505050565b602081526127436020820183516001600160a01b03169052565b6000602083015161275f60408401826001600160a01b03169052565b50604083015163ffffffff8116606084015250606083015163ffffffff8116608084015250608083015163ffffffff811660a08401525060a083015180151560c08401525060c083015160e083810191909152830151610100808401919091528301516101208084019190915283015161014080840191909152830151610160808401526127f16101808401826125e4565b949350505050565b63ffffffff8116811461099f57600080fd5b60008060006060848603121561282057600080fd5b83359250602084013591506040840135612839816127f9565b809150509250925092565b60006020828403121561285657600080fd5b813561ffff8116811461227257600080fd5b60006020828403121561287a57600080fd5b813567ffffffffffffffff81111561289157600080fd5b8201610160818503121561227257600080fd5b60208082526010908201526f14185d5cd8589b194e881c185d5cd95960821b604082015260600190565b60208082526017908201527f41756374696f6e20616c726561647920736574746c6564000000000000000000604082015260600190565b600181811c9082168061291957607f821691505b60208210810361293957634e487b7160e01b600052602260045260246000fd5b50919050565b60018060a01b0384168152600060208481840152606060408401526000845461296781612905565b8060608701526080600180841660008114612989576001811461299d576129cb565b60ff1985168984015260a0890195506129cb565b896000528660002060005b858110156129c35781548b82018601529083019088016129a8565b8a0184019650505b50939a9950505050505050505050565b801515811461099f57600080fd5b6000602082840312156129fb57600080fd5b8151612272816129db565b6020808252602c908201527f46756e6374696f6e206d7573742062652063616c6c6564207468726f7567682060408201526b19195b1959d85d1958d85b1b60a21b606082015260800190565b6020808252602c908201527f46756e6374696f6e206d7573742062652063616c6c6564207468726f7567682060408201526b6163746976652070726f787960a01b606082015260800190565b60208082526010908201526f41646d696e2063616c6c73206f6e6c7960801b604082015260600190565b634e487b7160e01b600052601160045260246000fd5b60008219821115612af157612af1612ac8565b500190565b6000816000190483118215151615612b1057612b10612ac8565b500290565b600082612b3257634e487b7160e01b600052601260045260246000fd5b500490565b600082821015612b4957612b49612ac8565b500390565b634e487b7160e01b600052603260045260246000fd5b6000823561015e19833603018112612b7b57600080fd5b9190910192915050565b600060018201612b9757612b97612ac8565b5060010190565b600060208284031215612bb057600080fd5b8135612272816127f9565b6000813561051481612429565b60008135610514816127f9565b60008135610514816129db565b6000808335601e19843603018112612bf957600080fd5b83018035915067ffffffffffffffff821115612c1457600080fd5b602001915036819003821315612c2957600080fd5b9250929050565b601f82111561077457600081815260208120601f850160051c81016020861015612c575750805b601f850160051c820191505b81811015612c7657828155600101612c63565b505050505050565b67ffffffffffffffff831115612c9657612c966124de565b612caa83612ca48354612905565b83612c30565b6000601f841160018114612cde5760008515612cc65750838201355b600019600387901b1c1916600186901b17835561083e565b600083815260209020601f19861690835b82811015612d0f5786850135825560209485019460019092019101612cef565b5086821015612d2c5760001960f88860031b161c19848701351681555b505060018560011b0183555050505050565b612d67612d4a83612bbb565b82546001600160a01b0319166001600160a01b0391909116178255565b60018101612d7a612d4a60208501612bbb565b612dad612d8960408501612bc8565b82805463ffffffff60a01b191660a09290921b63ffffffff60a01b16919091179055565b612de0612dbc60608501612bc8565b82805463ffffffff60c01b191660c09290921b63ffffffff60c01b16919091179055565b612e13612def60808501612bc8565b8280546001600160e01b031660e09290921b6001600160e01b031916919091179055565b50612e3c612e2360a08401612bd5565b6002830160ff1981541660ff8315151681178255505050565b60c0820135600382015560e0820135600482015561010082013560058201556101208201356006820155612e74610140830183612be2565b61122d818360078601612c7e565b6020808252602e908201527f496e697469616c697a61626c653a20636f6e747261637420697320616c72656160408201526d191e481a5b9a5d1a585b1a5e995960921b606082015260800190565b6020808252602b908201527f496e697469616c697a61626c653a20636f6e7472616374206973206e6f74206960408201526a6e697469616c697a696e6760a81b606082015260800190565b600060208284031215612f2d57600080fd5b5051919050565b7f416363657373436f6e74726f6c3a206163636f756e7420000000000000000000815260008351612f6c8160178501602088016125b8565b7001034b99036b4b9b9b4b733903937b6329607d1b6017918401918201528351612f9d8160288401602088016125b8565b01602801949350505050565b60208152600061227260208301846125e4565b600081612fcb57612fcb612ac8565b506000190190565b60008251612b7b8184602087016125b856fe360894a13ba1a3210667c828492db98dca3e2076cc3735a920a3ca505d382bbc416464726573733a206c6f772d6c6576656c2064656c65676174652063616c6c206661696c6564a2646970667358221220a326dc0170d421051ef27be74ba252e40af3b35fbfdc95c04ab9b4c241b4f92264736f6c634300080e0033",
  "linkReferences": {},
  "deployedLinkReferences": {}
}