{
  "_format": "hh-sol-artifact-1",
  "contractName": "Auction",
  "sourceName": "contracts/Auction/Auction.sol",
  "abi": [
    {
      "anonymous": false,
      "inputs": [
        {
          "indexed": false,
          "internalType": "address",
          "name": "previousAdmin",
          "type": "address"
        },
        {
          "indexed": false,
          "internalType": "address",
          "name": "newAdmin",
          "type": "address"
        }
      ],
      "name": "AdminChanged",
      "type": "event"
    },
    {
      "anonymous": false,
      "inputs": [
        {
          "indexed": true,
          "internalType": "uint256",
          "name": "auctionId",
          "type": "uint256"
        },
        {
          "indexed": true,
          "internalType": "address",
          "name": "previousBidder",
          "type": "address"
        }
      ],
      "name": "AuctionCancelled",
      "type": "event"
    },
    {
      "anonymous": false,
      "inputs": [
        {
          "indexed": false,
          "internalType": "uint256",
          "name": "auctionId",
          "type": "uint256"
        },
        {
          "indexed": false,
          "internalType": "uint256",
          "name": "nftId",
          "type": "uint256"
        }
      ],
      "name": "AuctionCreated",
      "type": "event"
    },
    {
      "anonymous": false,
      "inputs": [
        {
          "indexed": true,
          "internalType": "uint256",
          "name": "auctionId",
          "type": "uint256"
        },
        {
          "indexed": true,
          "internalType": "address",
          "name": "highestBidder",
          "type": "address"
        },
        {
          "indexed": false,
          "internalType": "uint256",
          "name": "highestBid",
          "type": "uint256"
        }
      ],
      "name": "AuctionSettled",
      "type": "event"
    },
    {
      "anonymous": false,
      "inputs": [
        {
          "indexed": true,
          "internalType": "address",
          "name": "beacon",
          "type": "address"
        }
      ],
      "name": "BeaconUpgraded",
      "type": "event"
    },
    {
      "anonymous": false,
      "inputs": [
        {
          "indexed": true,
          "internalType": "uint256",
          "name": "auctionId",
          "type": "uint256"
        },
        {
          "indexed": true,
          "internalType": "address",
          "name": "newBidder",
          "type": "address"
        },
        {
          "indexed": true,
          "internalType": "address",
          "name": "previousBidder",
          "type": "address"
        },
        {
          "indexed": false,
          "internalType": "uint256",
          "name": "bidAmount",
          "type": "uint256"
        },
        {
          "indexed": false,
          "internalType": "uint256",
          "name": "newEndTime",
          "type": "uint256"
        }
      ],
      "name": "BidPlaced",
      "type": "event"
    },
    {
      "anonymous": false,
      "inputs": [
        {
          "indexed": false,
          "internalType": "uint8",
          "name": "version",
          "type": "uint8"
        }
      ],
      "name": "Initialized",
      "type": "event"
    },
    {
      "anonymous": false,
      "inputs": [
        {
          "indexed": false,
          "internalType": "address",
          "name": "account",
          "type": "address"
        }
      ],
      "name": "Paused",
      "type": "event"
    },
    {
      "anonymous": false,
      "inputs": [
        {
          "indexed": true,
          "internalType": "bytes32",
          "name": "role",
          "type": "bytes32"
        },
        {
          "indexed": true,
          "internalType": "bytes32",
          "name": "previousAdminRole",
          "type": "bytes32"
        },
        {
          "indexed": true,
          "internalType": "bytes32",
          "name": "newAdminRole",
          "type": "bytes32"
        }
      ],
      "name": "RoleAdminChanged",
      "type": "event"
    },
    {
      "anonymous": false,
      "inputs": [
        {
          "indexed": true,
          "internalType": "bytes32",
          "name": "role",
          "type": "bytes32"
        },
        {
          "indexed": true,
          "internalType": "address",
          "name": "account",
          "type": "address"
        },
        {
          "indexed": true,
          "internalType": "address",
          "name": "sender",
          "type": "address"
        }
      ],
      "name": "RoleGranted",
      "type": "event"
    },
    {
      "anonymous": false,
      "inputs": [
        {
          "indexed": true,
          "internalType": "bytes32",
          "name": "role",
          "type": "bytes32"
        },
        {
          "indexed": true,
          "internalType": "address",
          "name": "account",
          "type": "address"
        },
        {
          "indexed": true,
          "internalType": "address",
          "name": "sender",
          "type": "address"
        }
      ],
      "name": "RoleRevoked",
      "type": "event"
    },
    {
      "anonymous": false,
      "inputs": [
        {
          "indexed": false,
          "internalType": "address",
          "name": "account",
          "type": "address"
        }
      ],
      "name": "Unpaused",
      "type": "event"
    },
    {
      "anonymous": false,
      "inputs": [
        {
          "indexed": true,
          "internalType": "address",
          "name": "implementation",
          "type": "address"
        }
      ],
      "name": "Upgraded",
      "type": "event"
    },
    {
      "inputs": [],
      "name": "DEFAULT_ADMIN_ROLE",
      "outputs": [
        {
          "internalType": "bytes32",
          "name": "",
          "type": "bytes32"
        }
      ],
      "stateMutability": "view",
      "type": "function"
    },
    {
      "inputs": [
        {
          "internalType": "uint256",
          "name": "",
          "type": "uint256"
        }
      ],
      "name": "auctions",
      "outputs": [
        {
          "internalType": "address",
          "name": "highestBidder",
          "type": "address"
        },
        {
          "internalType": "contract INFT",
          "name": "nftContract",
          "type": "address"
        },
        {
          "internalType": "uint32",
          "name": "startTime",
          "type": "uint32"
        },
        {
          "internalType": "uint32",
          "name": "endTime",
          "type": "uint32"
        },
        {
          "internalType": "bool",
          "name": "settled",
          "type": "bool"
        },
        {
          "internalType": "uint256",
          "name": "nftId",
          "type": "uint256"
        },
        {
          "internalType": "uint256",
          "name": "minimumPrice",
          "type": "uint256"
        },
        {
          "internalType": "uint256",
          "name": "highestBid",
          "type": "uint256"
        },
        {
          "internalType": "string",
          "name": "nftUri",
          "type": "string"
        }
      ],
      "stateMutability": "view",
      "type": "function"
    },
    {
      "inputs": [
        {
          "internalType": "uint256",
          "name": "_auctionId",
          "type": "uint256"
        },
        {
          "internalType": "uint256",
          "name": "_amount",
          "type": "uint256"
        }
      ],
      "name": "bid",
      "outputs": [],
      "stateMutability": "nonpayable",
      "type": "function"
    },
    {
      "inputs": [
        {
          "internalType": "uint256",
          "name": "_auctionId",
          "type": "uint256"
        }
      ],
      "name": "cancelAuction",
      "outputs": [],
      "stateMutability": "nonpayable",
      "type": "function"
    },
    {
      "inputs": [
        {
          "internalType": "uint256",
          "name": "_auctionId",
          "type": "uint256"
        },
        {
          "internalType": "uint256",
          "name": "_nftId",
          "type": "uint256"
        },
        {
          "internalType": "uint256",
          "name": "_minimumPrice",
          "type": "uint256"
        },
        {
          "internalType": "uint32",
          "name": "_startTime",
          "type": "uint32"
        },
        {
          "internalType": "uint32",
          "name": "_endTime",
          "type": "uint32"
        },
        {
          "internalType": "contract INFT",
          "name": "_nftContract",
          "type": "address"
        },
        {
          "internalType": "string",
          "name": "_nftUri",
          "type": "string"
        }
      ],
      "name": "createAuction",
      "outputs": [
        {
          "internalType": "uint256",
          "name": "auctionId",
          "type": "uint256"
        }
      ],
      "stateMutability": "nonpayable",
      "type": "function"
    },
    {
      "inputs": [],
      "name": "erc20",
      "outputs": [
        {
          "internalType": "contract IERC20",
          "name": "",
          "type": "address"
        }
      ],
      "stateMutability": "view",
      "type": "function"
    },
    {
      "inputs": [
        {
          "internalType": "uint256",
          "name": "_auctionId",
          "type": "uint256"
        }
      ],
      "name": "getAuction",
      "outputs": [
        {
          "components": [
            {
              "internalType": "address",
              "name": "highestBidder",
              "type": "address"
            },
            {
              "internalType": "contract INFT",
              "name": "nftContract",
              "type": "address"
            },
            {
              "internalType": "uint32",
              "name": "startTime",
              "type": "uint32"
            },
            {
              "internalType": "uint32",
              "name": "endTime",
              "type": "uint32"
            },
            {
              "internalType": "bool",
              "name": "settled",
              "type": "bool"
            },
            {
              "internalType": "uint256",
              "name": "nftId",
              "type": "uint256"
            },
            {
              "internalType": "uint256",
              "name": "minimumPrice",
              "type": "uint256"
            },
            {
              "internalType": "uint256",
              "name": "highestBid",
              "type": "uint256"
            },
            {
              "internalType": "string",
              "name": "nftUri",
              "type": "string"
            }
          ],
          "internalType": "struct Auction.AuctionInfo",
          "name": "",
          "type": "tuple"
        }
      ],
      "stateMutability": "view",
      "type": "function"
    },
    {
      "inputs": [],
      "name": "getBidIncrementPercentage",
      "outputs": [
        {
          "internalType": "uint256",
          "name": "",
          "type": "uint256"
        }
      ],
      "stateMutability": "view",
      "type": "function"
    },
    {
      "inputs": [],
      "name": "getDefaultTimeExtension",
      "outputs": [
        {
          "internalType": "uint256",
          "name": "",
          "type": "uint256"
        }
      ],
      "stateMutability": "view",
      "type": "function"
    },
    {
      "inputs": [
        {
          "internalType": "bytes32",
          "name": "role",
          "type": "bytes32"
        }
      ],
      "name": "getRoleAdmin",
      "outputs": [
        {
          "internalType": "bytes32",
          "name": "",
          "type": "bytes32"
        }
      ],
      "stateMutability": "view",
      "type": "function"
    },
    {
      "inputs": [
        {
          "internalType": "bytes32",
          "name": "role",
          "type": "bytes32"
        },
        {
          "internalType": "address",
          "name": "account",
          "type": "address"
        }
      ],
      "name": "grantRole",
      "outputs": [],
      "stateMutability": "nonpayable",
      "type": "function"
    },
    {
      "inputs": [
        {
          "internalType": "bytes32",
          "name": "role",
          "type": "bytes32"
        },
        {
          "internalType": "address",
          "name": "account",
          "type": "address"
        }
      ],
      "name": "hasRole",
      "outputs": [
        {
          "internalType": "bool",
          "name": "",
          "type": "bool"
        }
      ],
      "stateMutability": "view",
      "type": "function"
    },
    {
      "inputs": [
        {
          "internalType": "address",
          "name": "_admin",
          "type": "address"
        },
        {
          "internalType": "uint256",
          "name": "_defaultTimeExtension",
          "type": "uint256"
        },
        {
          "internalType": "uint256",
          "name": "_bidIncrementPercentage",
          "type": "uint256"
        },
        {
          "internalType": "address",
          "name": "_token",
          "type": "address"
        }
      ],
      "name": "initialize",
      "outputs": [],
      "stateMutability": "nonpayable",
      "type": "function"
    },
    {
      "inputs": [],
      "name": "pause",
      "outputs": [],
      "stateMutability": "nonpayable",
      "type": "function"
    },
    {
      "inputs": [],
      "name": "paused",
      "outputs": [
        {
          "internalType": "bool",
          "name": "",
          "type": "bool"
        }
      ],
      "stateMutability": "view",
      "type": "function"
    },
    {
      "inputs": [],
      "name": "proxiableUUID",
      "outputs": [
        {
          "internalType": "bytes32",
          "name": "",
          "type": "bytes32"
        }
      ],
      "stateMutability": "view",
      "type": "function"
    },
    {
      "inputs": [
        {
          "internalType": "bytes32",
          "name": "role",
          "type": "bytes32"
        },
        {
          "internalType": "address",
          "name": "account",
          "type": "address"
        }
      ],
      "name": "renounceRole",
      "outputs": [],
      "stateMutability": "nonpayable",
      "type": "function"
    },
    {
      "inputs": [
        {
          "internalType": "bytes32",
          "name": "role",
          "type": "bytes32"
        },
        {
          "internalType": "address",
          "name": "account",
          "type": "address"
        }
      ],
      "name": "revokeRole",
      "outputs": [],
      "stateMutability": "nonpayable",
      "type": "function"
    },
    {
      "inputs": [
        {
          "internalType": "uint16",
          "name": "_bidIncrementPercentage",
          "type": "uint16"
        }
      ],
      "name": "setBidIncrementPercentage",
      "outputs": [],
      "stateMutability": "nonpayable",
      "type": "function"
    },
    {
      "inputs": [
        {
          "internalType": "uint16",
          "name": "_timeExtension",
          "type": "uint16"
        }
      ],
      "name": "setDefaultTimeExtension",
      "outputs": [],
      "stateMutability": "nonpayable",
      "type": "function"
    },
    {
      "inputs": [
        {
          "internalType": "address",
          "name": "_token",
          "type": "address"
        }
      ],
      "name": "setToken",
      "outputs": [],
      "stateMutability": "nonpayable",
      "type": "function"
    },
    {
      "inputs": [
        {
          "internalType": "uint256",
          "name": "_auctionId",
          "type": "uint256"
        }
      ],
      "name": "settleAuction",
      "outputs": [],
      "stateMutability": "nonpayable",
      "type": "function"
    },
    {
      "inputs": [
        {
          "internalType": "bytes4",
          "name": "interfaceId",
          "type": "bytes4"
        }
      ],
      "name": "supportsInterface",
      "outputs": [
        {
          "internalType": "bool",
          "name": "",
          "type": "bool"
        }
      ],
      "stateMutability": "view",
      "type": "function"
    },
    {
      "inputs": [],
      "name": "unpause",
      "outputs": [],
      "stateMutability": "nonpayable",
      "type": "function"
    },
    {
      "inputs": [
        {
          "internalType": "uint256",
          "name": "_auctionId",
          "type": "uint256"
        },
        {
          "internalType": "uint256",
          "name": "_minimumPrice",
          "type": "uint256"
        },
        {
          "internalType": "uint32",
          "name": "_endTime",
          "type": "uint32"
        }
      ],
      "name": "updateAuction",
      "outputs": [],
      "stateMutability": "nonpayable",
      "type": "function"
    },
    {
      "inputs": [
        {
          "internalType": "address",
          "name": "newImplementation",
          "type": "address"
        }
      ],
      "name": "upgradeTo",
      "outputs": [],
      "stateMutability": "nonpayable",
      "type": "function"
    },
    {
      "inputs": [
        {
          "internalType": "address",
          "name": "newImplementation",
          "type": "address"
        },
        {
          "internalType": "bytes",
          "name": "data",
          "type": "bytes"
        }
      ],
      "name": "upgradeToAndCall",
      "outputs": [],
      "stateMutability": "payable",
      "type": "function"
    }
  ],
  "bytecode": "0x60a080604052346100315730608052612c059081610037823960805181818161071e015281816109e80152610a570152f35b600080fdfe60806040526004361015610013575b600080fd5b60003560e01c806301ffc9a71461022f578063144fa6d714610226578063248a9ca31461021d5780632e993611146102145780632f2ff15d1461020b57806336568abe146102025780633659cfe6146101f95780633f4ba83a146101f0578063481b13d2146101e75780634f1ef286146101de57806352d1902d146101d5578063571a26a0146101cc578063598647f8146101c35780635c975abb146101ba578063785e9e86146101b157806378bd7935146101a8578063809d61721461019f5780638456cb59146101965780638f8038421461018d57806391d148541461018457806396b5a7551461017b5780639e3d87cd14610172578063a217fddf14610169578063c3c675bc14610160578063d547741f14610157578063d828abe11461014e5763ff54a5ca1461014657600080fd5b61000e61188c565b5061000e611804565b5061000e6117c1565b5061000e611780565b5061000e611746565b5061000e61164a565b5061000e6114a6565b5061000e61144f565b5061000e611345565b5061000e61128b565b5061000e61126b565b5061000e611171565b5061000e6110b8565b5061000e611094565b5061000e610d1d565b5061000e610c9e565b5061000e610a43565b5061000e61098c565b5061000e610884565b5061000e6107cb565b5061000e6106f0565b5061000e610657565b5061000e610586565b5061000e610332565b5061000e610302565b5061000e610297565b503461000e57602036600319011261000e5760043563ffffffff60e01b811680910361000e57602090637965db0b60e01b8114908115610275575b506040519015158152f35b6301ffc9a760e01b1490503861026a565b6001600160a01b0381160361000e57565b503461000e57602036600319011261000e576004356102b581610286565b336000908152600080516020612b90833981519152602052604090206102e09060ff905b54166124a2565b61015f80546001600160a01b0319166001600160a01b03909216919091179055005b503461000e57602036600319011261000e5760043560005260656020526020600160406000200154604051908152f35b503461000e57602036600319011261000e5760043561035660ff60fb541615612863565b61036b81600052610160602052604060002090565b906001820180549061038360ff8360e01c16156128a2565b600484015484549092906103b59063ffffffff906001600160a01b03169260c01c16801515908161057c575b506128ee565b815460ff60e01b1916600160e01b1782556001600160a01b038116948561040d575b5050604051918252507fc9f72b276a388619c6d185d146697036241880c36654b1a3ffdad07c24038d999080602081015b0390a3005b82549293919261042d906001600160a01b03165b6001600160a01b031690565b600282015490803b1561000e577fc9f72b276a388619c6d185d146697036241880c36654b1a3ffdad07c24038d999561040895600060209487946005836105039961049060405197889687958694633349e71f60e21b865201916004850161293a565b03925af1801561056f575b610556575b5061015f546104cb90610421906104bd906001600160a01b031682565b92546001600160a01b031690565b60405163a9059cbb60e01b81526001600160a01b03909116600482015260248101929092529092839190829060009082906044820190565b03925af18015610549575b61051b575b8193506103d7565b61053b9060203d8111610542575b61053381836108f9565b8101906129e8565b5038610513565b503d610529565b610551611c70565b61050e565b80610563610569926108bb565b806107c0565b386104a0565b610577611c70565b61049b565b90504211386103af565b503461000e5760408060031936011261000e57600435906024356105a981610286565b60009280845260656020526105c3600184862001546118cd565b808452606560209081528385206001600160a01b03841660009081529152604090205460ff16156105f357505051f35b808452606560209081528385206001600160a01b0384166000908152915260409020805460ff19166001179055825133926001600160a01b031691907f2f8788117e7eff1d82e926ec794901d17c78024a50270940304540a733656f0d908690a451f35b503461000e57604036600319011261000e5760243561067581610286565b336001600160a01b038216036106935761069190600435611ad4565b005b60405162461bcd60e51b815260206004820152602f60248201527f416363657373436f6e74726f6c3a2063616e206f6e6c792072656e6f756e636560448201526e103937b632b9903337b91039b2b63360891b6064820152608490fd5b503461000e57602036600319011261000e5761069160043561071181610286565b6107636001600160a01b037f000000000000000000000000000000000000000000000000000000000000000081169061074c30831415611b64565b600080516020612bb0833981519152541614611bc5565b336000908152600080516020612b908339815191526020526040902061078b9060ff906102d9565b604051906020820182811067ffffffffffffffff8211176107b3575b60405260008252611d2a565b6107bb6108a4565b6107a7565b600091031261000e57565b503461000e5760008060031936011261088157808052606560209081526040808320336000908152925290206108039060ff906102d9565b60fb5460ff8116156108455760ff191660fb557f5db9ee0a495bf2e6ff9c91a7834c1ba4fdd244a5e8aa4e537bd38aeae4b073aa6020604051338152a1604051f35b60405162461bcd60e51b815260206004820152601460248201527314185d5cd8589b194e881b9bdd081c185d5cd95960621b6044820152606490fd5b80fd5b503461000e57600036600319011261000e57602061016254604051908152f35b50634e487b7160e01b600052604160045260246000fd5b67ffffffffffffffff81116108cf57604052565b6108d76108a4565b604052565b610120810190811067ffffffffffffffff8211176108cf57604052565b90601f8019910116810190811067ffffffffffffffff8211176108cf57604052565b60405190610928826108dc565b565b60209067ffffffffffffffff8111610948575b601f01601f19160190565b6109506108a4565b61093d565b9291926109618261092a565b9161096f60405193846108f9565b82948184528183011161000e578281602093846000960137010152565b50604036600319011261000e576004356109a581610286565b6024359067ffffffffffffffff821161000e573660238301121561000e576109da610691923690602481600401359101610955565b90610a166001600160a01b037f000000000000000000000000000000000000000000000000000000000000000081169061074c30831415611b64565b336000908152600080516020612b9083398151915260205260409020610a3e9060ff906102d9565b611dfd565b503461000e57600036600319011261000e577f00000000000000000000000000000000000000000000000000000000000000006001600160a01b03163003610aa257604051600080516020612bb08339815191528152602090f35b0390f35b60405162461bcd60e51b815260206004820152603860248201527f555550535570677261646561626c653a206d757374206e6f742062652063616c60448201527f6c6564207468726f7567682064656c656761746563616c6c00000000000000006064820152608490fd5b90600182811c92168015610b3d575b6020831014610b2757565b634e487b7160e01b600052602260045260246000fd5b91607f1691610b1c565b9060405191826000825492610b5b84610b0d565b908184526001948581169081600014610bc85750600114610b85575b5050610928925003836108f9565b9093915060005260209081600020936000915b818310610bb057505061092893508201013880610b77565b85548884018501529485019487945091830191610b98565b9550505050505060ff1916602083015261092882604081013880610b77565b918091926000905b828210610c07575011610c00575050565b6000910152565b91508060209183015181860152018291610bef565b90602091610c3581518092818552858086019101610be7565b601f01601f1916010190565b9694929190610c9b999896949160018060a01b03809216895216602088015263ffffffff80921660408801521660608601521515608085015260a084015260c083015260e082015261012090816101008201520190610c1c565b90565b503461000e57602036600319011261000e57600435600052610160602052604060002060018060a01b0390610a9e82825416926001830154926002810154600382015490610cf3600560048501549401610b47565b9360405197889763ffffffff9160ff8260e01c1693838360c01c16938360a01c169216908a610c41565b503461000e5760408060031936011261000e57600435906024359161012d92600284541461105057600260009455610d5a60ff60fb541615612863565b610d6f82600052610160602052604060002090565b917f2808decb743a25d04efe1bd3dc192acde3be644e2f6ad1dce5d3c46643e1c602610f1b6001850180549063ffffffff90818360c01c1692610db9838260a01c16421015612a4c565b610ddc60ff851592838015611047575b610dd290612a90565b60e01c16156128a2565b87151580611039575b610dee90612ad0565b610e7560048a01610e22610e1a610e128354610e0c610162546121e8565b906121c9565b612710900490565b8b1015612b1c565b61015f80548d908c90610e3d906001600160a01b0316610421565b91516323b872dd60e01b8152336004820152306024820152604481019190915260209490918591839190829060009082906064820190565b03925af1801561102c575b61100f575b508b548b906001600160a01b031683548e546001600160a01b0319163317909e5592556001600160a01b0382169b8d8d610f80575b505050505061016154908b14610f2c5750610f059150610ee5610edc426121ff565b63ffffffff1690565b815463ffffffff60c01b191660c09190911b63ffffffff60c01b16179055565b8651948552602085015233939081906040820190565b0390a4610f29600161012d55565b51f35b80610f374286612b78565b10610f45575b505050610f05565b610f78929350610f559042612213565b815463ffffffff60c01b191693811660c01b63ffffffff60c01b16939093179055565b388080610f3d565b8f93610fcc94610f9a61042188965460018060a01b031690565b925163a9059cbb60e01b81526001600160a01b0390921660048301526024820193909352938492839182906044820190565b03925af18015611002575b610fe4575b80808d610eba565b81610ffa92903d106105425761053381836108f9565b503880610fdc565b61100a611c70565b610fd7565b61102590843d86116105425761053381836108f9565b5038610e85565b611034611c70565b610e80565b506003890154881015610de5565b50428711610dc9565b825162461bcd60e51b815260206004820152601f60248201527f5265656e7472616e637947756172643a207265656e7472616e742063616c6c006044820152606490fd5b503461000e57600036600319011261000e57602060ff60fb54166040519015158152f35b503461000e57600036600319011261000e5761015f546040516001600160a01b039091168152602090f35b602080825282516001600160a01b031690820152610c9b916101409060208101516001600160a01b03166040840152604081015163ffffffff166060840152606081015163ffffffff1660808401526080810151151560a084015260a081015160c084015260c081015160e084015260e0810151906101009182850152015191610120808201520190610c1c565b503461000e57602036600319011261000e57610a9e604051611192816108dc565b6040600080835280602084015280828401528060608401528060808401528060a08401528060c08401528060e08401526060610100809401526004358152610160602052209061125b60056111e561091b565b84546001600160a01b031681529360018101546001600160a01b038116602087015263ffffffff60a082901c8116604088015260c082901c1660608701526112379060ff9060e01c1615156080870152565b600281015460a0860152600381015460c0860152600481015460e086015201610b47565b90820152604051918291826110e3565b503461000e57600036600319011261000e57602061016154604051908152f35b503461000e5760008060031936011261088157808052606560209081526040808320336000908152925290206112c39060ff906102d9565b600160fb546112d560ff821615612863565b60ff19161760fb557f62e78cea01bee320cd4e420270b5ea74000d11b0c9f74754ebdbfc544b05a2586020604051338152a1604051f35b6044359063ffffffff8216820361000e57565b6064359063ffffffff8216820361000e57565b6084359063ffffffff8216820361000e57565b503461000e57606036600319011261000e5760043561136261130c565b336000908152600080516020612b90833981519152602052604081209092919061138e9060ff906102d9565b818352610160806020526113af60ff600160408720015460e01c16156128a2565b82845260205263ffffffff600160408520015460c01c16156114165760016113e561141193600052610160602052604060002090565b602435600382015501805463ffffffff60c01b191660c09290921b63ffffffff60c01b16919091179055565b604051f35b60405162461bcd60e51b8152602060048201526011602482015270105d58dd1a5bdb881b9bdd08199bdd5b99607a1b6044820152606490fd5b503461000e57604036600319011261000e57602060ff61149a60243561147481610286565b6004356000526065845260406000209060018060a01b0316600052602052604060002090565b54166040519015158152f35b503461000e57602036600319011261000e57336000908152600080516020612b9083398151915260205260408120600435906114e49060ff906102d9565b6114f981600052610160602052604060002090565b61151a611515611511600184015460ff9060e01c1690565b1590565b612a00565b80546001600160a01b03169083600482016115488154936bffffffffffffffffffffffff60a01b8154169055565b556001600160a01b03821691826115b4575b505061158a600161157684600052610160602052604060002090565b01805460ff60e01b1916600160e01b179055565b604051917f10ac9f0bb365b5d22d7bec500408692f23fdf83eadfec71615ef88b4c1134f0e8484a3f35b61015f546116099260209290916115d3906001600160a01b0316610421565b60405163a9059cbb60e01b81526001600160a01b0390921660048301526024820192909252928391908290889082906044820190565b03925af1801561163d575b61161f575b8061155a565b6116369060203d81116105425761053381836108f9565b5038611619565b611645611c70565b611614565b503461000e57608036600319011261000e5760043561166881610286565b60643561167481610286565b6116bf61167f612462565b9283611732575b61168e6123ee565b6116a860ff60005460081c166116a38161238e565b61238e565b60ff1960fb541660fb556116ba6123ee565b611a3e565b602435610161556044356101625561015f80546001600160a01b0319166001600160a01b039092169190911790556116f357005b61170361ff001960005416600055565b604051600181527f7f26b83ff96e1f2b6a682f133852f6798a09c465da95921460cefb384740249890602090a1005b61010061ff00196000541617600055611686565b503461000e57600036600319011261000e57602060405160008152f35b602090600319011261000e5760043561ffff8116810361000e5790565b503461000e5761ffff61179236611763565b336000908152600080516020612b90833981519152602052604090206117ba9060ff906102d9565b1661016255005b503461000e57604036600319011261000e576106916024356004356117e582610286565b8060005260656020526117ff6001604060002001546118cd565b611ad4565b503461000e5760e036600319011261000e5761181e61131f565b611826611332565b9060a4359061183482610286565b60c4359167ffffffffffffffff831161000e573660238401121561000e57610a9e9361186d61187c943690602481600401359101610955565b926044356024356004356124e1565b6040519081529081906020820190565b503461000e5761ffff61189e36611763565b336000908152600080516020612b90833981519152602052604090206118c69060ff906102d9565b1661016155005b600081815260656020908152604080832033845290915290205460ff16156118f25750565b33906118fc611c26565b91603061190884612236565b5360786119148461224c565b5360295b600181116119c7576119c36119806119ab8661199d6119408861193b8915612297565b6122e2565b61197a60405195869461197a602087016017907f416363657373436f6e74726f6c3a206163636f756e742000000000000000000081520190565b90611a16565b7001034b99036b4b9b9b4b733903937b6329607d1b815260110190565b03601f1981018352826108f9565b60405162461bcd60e51b815291829160048301611a2d565b0390fd5b9080600f611a0492166010811015611a09575b6f181899199a1a9b1b9c1cb0b131b232b360811b901a6119fa848761225d565b5360041c9161227c565b611918565b611a1161221f565b6119da565b90611a2960209282815194859201610be7565b0190565b906020610c9b928181520190610c1c565b6001600160a01b0381166000908152600080516020612b90833981519152602052604081205460ff1615611a70575050565b8080526065602090815260408083206001600160a01b038516600090815292529020805460ff1916600117905560405133926001600160a01b031691907f2f8788117e7eff1d82e926ec794901d17c78024a50270940304540a733656f0d908290a4565b60008181526065602090815260408083206001600160a01b038616845290915290205460ff16611b02575050565b60008181526065602090815260408083206001600160a01b03861684529091529020805460ff1916905560405133926001600160a01b031691907ff6391f5c32d9c69d2a47ea670b442974b53935d1edc7fd64eb21e047a839171b90600090a4565b15611b6b57565b60405162461bcd60e51b815260206004820152602c60248201527f46756e6374696f6e206d7573742062652063616c6c6564207468726f7567682060448201526b19195b1959d85d1958d85b1b60a21b6064820152608490fd5b15611bcc57565b60405162461bcd60e51b815260206004820152602c60248201527f46756e6374696f6e206d7573742062652063616c6c6564207468726f7567682060448201526b6163746976652070726f787960a01b6064820152608490fd5b604051906060820182811067ffffffffffffffff821117611c54575b604052602a8252604082602036910137565b611c5c6108a4565b611c42565b9081602091031261000e575190565b506040513d6000823e3d90fd5b15611c8457565b60405162461bcd60e51b815260206004820152602960248201527f45524331393637557067726164653a20756e737570706f727465642070726f786044820152681a58589b195555525160ba1b6064820152608490fd5b60809060208152602e60208201527f45524331393637557067726164653a206e657720696d706c656d656e7461746960408201526d6f6e206973206e6f74205555505360901b60608201520190565b90611d567f4910fdfa16fed3260ed0e7147f7cc6da11a60208b5b9406d12a635614ffd91435460ff1690565b15611d65575061092890611ec0565b6040516352d1902d60e01b8152916020836004816001600160a01b0385165afa60009381611dcd575b50611dac5760405162461bcd60e51b8152806119c360048201611cdb565b611dc8600080516020612bb08339815191526109289414611c7d565b611f50565b611def91945060203d8111611df6575b611de781836108f9565b810190611c61565b9238611d8e565b503d611ddd565b90611e297f4910fdfa16fed3260ed0e7147f7cc6da11a60208b5b9406d12a635614ffd91435460ff1690565b15611e38575061092890611ec0565b6040516352d1902d60e01b8152916020836004816001600160a01b0385165afa60009381611ea0575b50611e7f5760405162461bcd60e51b8152806119c360048201611cdb565b611e9b600080516020612bb08339815191526109289414611c7d565b612060565b611eb991945060203d8111611df657611de781836108f9565b9238611e61565b803b15611ef557600080516020612bb083398151915280546001600160a01b0319166001600160a01b03909216919091179055565b60405162461bcd60e51b815260206004820152602d60248201527f455243313936373a206e657720696d706c656d656e746174696f6e206973206e60448201526c1bdd08184818dbdb9d1c9858dd609a1b6064820152608490fd5b90611f5a82611ec0565b604051600092906001600160a01b0382167fbc7cd75a20ee27fd9adebab32041f755214dbc6bffa90cc0225b39da2e5c2d3b8583a2825115801590612059575b611fa5575b50505050565b813b156120085750918082611ff69460208395519201905af4903d15612000573d611fcf8161092a565b90611fdd60405192836108f9565b8152809160203d92013e5b611ff061210a565b91612172565b5038808080611f9f565b506060611fe8565b62461bcd60e51b815260206004820152602660248201527f416464726573733a2064656c65676174652063616c6c20746f206e6f6e2d636f6044820152651b9d1c9858dd60d21b6064820152608490fd5b5083611f9a565b61206981611ec0565b6040516001600160a01b0382167fbc7cd75a20ee27fd9adebab32041f755214dbc6bffa90cc0225b39da2e5c2d3b600083a2825115801590612102575b6120af57505050565b813b156120085750600082819260206120f895519201905af43d156120fb573d6120d88161092a565b906120e660405192836108f9565b81523d6000602083013e611ff061210a565b50565b6060611fe8565b5060016120a6565b604051906060820182811067ffffffffffffffff821117612165575b60405260278252660819985a5b195960ca1b6040837f416464726573733a206c6f772d6c6576656c2064656c65676174652063616c6c60208201520152565b61216d6108a4565b612126565b9091901561217e575090565b81511561218e5750805190602001fd5b60405162461bcd60e51b8152602060048201529081906119c3906024830190610c1c565b50634e487b7160e01b600052601160045260246000fd5b80600019048211811515166121dc570290565b6121e46121b2565b0290565b612710811981116121f7570190565b611a296121b2565b6201518090620151801981116121f7570190565b811981116121f7570190565b50634e487b7160e01b600052603260045260246000fd5b602090805115612244570190565b611a2961221f565b602190805160011015612244570190565b90602091805182101561226f57010190565b61227761221f565b010190565b801561228a575b6000190190565b6122926121b2565b612283565b1561229e57565b606460405162461bcd60e51b815260206004820152602060248201527f537472696e67733a20686578206c656e67746820696e73756666696369656e746044820152fd5b604051906080820182811067ffffffffffffffff821117612381575b604052604282526060366020840137603061231883612236565b5360786123248361224c565b536041905b6001821161233c57610c9b915015612297565b80600f61236e92166010811015612374575b6f181899199a1a9b1b9c1cb0b131b232b360811b901a6119fa848661225d565b90612329565b61237c61221f565b61234e565b6123896108a4565b6122fe565b1561239557565b60405162461bcd60e51b815260206004820152602b60248201527f496e697469616c697a61626c653a20636f6e7472616374206973206e6f74206960448201526a6e697469616c697a696e6760a81b6064820152608490fd5b61092860ff60005460081c1661238e565b1561240657565b60405162461bcd60e51b815260206004820152602e60248201527f496e697469616c697a61626c653a20636f6e747261637420697320616c72656160448201526d191e481a5b9a5d1a585b1a5e995960921b6064820152608490fd5b60005460ff8160081c16600014612484575061247f303b156123ff565b600090565b80612495600160ff819416106123ff565b60ff191617600055600190565b156124a957565b60405162461bcd60e51b815260206004820152601060248201526f41646d696e2063616c6c73206f6e6c7960801b6044820152606490fd5b336000908152600080516020612b908339815191526020526040812090977fe00a2da3a0f34a566402a244ab7ec63f8ab7472591cb18edf3269aa00461a41097939692956125cf9591939192612598929161258b916125429060ff906102d9565b61255e63ffffffff80851680159182156125e2575b50506125ee565b61257e61256961091b565b8d81526001600160a01b039098166020890152565b63ffffffff166040870152565b63ffffffff166060850152565b8760808401528560a084015260c08301528660e08301526101008201526125ca83600052610160602052604060002090565b612762565b604080519182526020820192909252a190565b84161090503880612557565b156125f557565b60405162461bcd60e51b8152602060048201526014602482015273496e76616c69642061756374696f6e2074696d6560601b6044820152606490fd5b90601f811161263f57505050565b600091825260208220906020601f850160051c8301941061267b575b601f0160051c01915b82811061267057505050565b818155600101612664565b909250829061265b565b919091825167ffffffffffffffff8111612755575b6126ae816126a88454610b0d565b84612631565b602080601f83116001146126ea5750819293946000926126df575b50508160011b916000199060031b1c1916179055565b0151905038806126c9565b90601f1983169561270085600052602060002090565b926000905b88821061273d57505083600195969710612724575b505050811b019055565b015160001960f88460031b161c1916905538808061271a565b80600185968294968601518155019501930190612705565b61275d6108a4565b61269a565b815181546001600160a01b0319166001600160a01b03909116178155610928916005906101009060208101516001850180546001600160a01b0319166001600160a01b0390921691909117815561283c906127e76127c7604085015163ffffffff1690565b825463ffffffff60a01b191660a09190911b63ffffffff60a01b16178255565b61281b6127fb606085015163ffffffff1690565b825463ffffffff60c01b191660c09190911b63ffffffff60c01b16178255565b60808301511515815460ff60e01b191690151560e01b60ff60e01b16179055565b60a0810151600285015560c0810151600385015560e0810151600485015501519101612685565b1561286a57565b60405162461bcd60e51b815260206004820152601060248201526f14185d5cd8589b194e881c185d5cd95960821b6044820152606490fd5b156128a957565b60405162461bcd60e51b815260206004820152601760248201527f41756374696f6e20616c726561647920736574746c65640000000000000000006044820152606490fd5b156128f557565b60405162461bcd60e51b815260206004820152601860248201527f41756374696f6e206973207374696c6c2072756e6e696e6700000000000000006044820152606490fd5b6001600160a01b039091168152602080820192909252606060408201528254600093929061296781610b0d565b9384606085015260019182811690816000146129c9575060011461298e575b505050505090565b6000908152828120949550935b8585106129b5575050506080925001013880808080612986565b80548585016080015293820193810161299b565b9495505050505060a0925060ff19166080820152013880808080612986565b9081602091031261000e5751801515810361000e5790565b15612a0757565b60405162461bcd60e51b815260206004820152601b60248201527f41756374696f6e20697320616c72656164792066696e697368656400000000006044820152606490fd5b15612a5357565b60405162461bcd60e51b815260206004820152601560248201527441756374696f6e206e6f7420617661696c61626c6560581b6044820152606490fd5b15612a9757565b60405162461bcd60e51b8152602060048201526011602482015270105d58dd1a5bdb881a185cc8195b991959607a1b6044820152606490fd5b15612ad757565b60405162461bcd60e51b815260206004820152601960248201527f426964206973206c6f776572207468616e206d696e696d756d000000000000006044820152606490fd5b15612b2357565b60405162461bcd60e51b815260206004820152602760248201527f426964206973206c6f776572207468616e20686967686573742062696420696e60448201526618dc995b595b9d60ca1b6064820152608490fd5b818110612b83570390565b612b8b6121b2565b039056feffdfc1249c027f9191656349feb0761381bb32c9f557e01f419fd08754bf5a1b360894a13ba1a3210667c828492db98dca3e2076cc3735a920a3ca505d382bbca2646970667358221220b00dc2853d63e2c9df66e7704aa162a255f47418674975829deca4f466cb25d264736f6c634300080e0033",
  "linkReferences": {},
  "deployedLinkReferences": {}
}