{
  "_format": "hh-sol-artifact-1",
  "contractName": "SageStorage",
  "sourceName": "contracts/Utils/SageStorage.sol",
  "abi": [
    {
      "inputs": [],
      "stateMutability": "nonpayable",
      "type": "constructor"
    },
    {
      "inputs": [
        {
          "internalType": "bytes32",
          "name": "_key",
          "type": "bytes32"
        },
        {
          "internalType": "uint256",
          "name": "_amount",
          "type": "uint256"
        }
      ],
      "name": "addUint",
      "outputs": [],
      "stateMutability": "nonpayable",
      "type": "function"
    },
    {
      "inputs": [
        {
          "internalType": "bytes32",
          "name": "_key",
          "type": "bytes32"
        }
      ],
      "name": "deleteAddress",
      "outputs": [],
      "stateMutability": "nonpayable",
      "type": "function"
    },
    {
      "inputs": [
        {
          "internalType": "bytes32",
          "name": "_key",
          "type": "bytes32"
        }
      ],
      "name": "deleteBool",
      "outputs": [],
      "stateMutability": "nonpayable",
      "type": "function"
    },
    {
      "inputs": [
        {
          "internalType": "bytes32",
          "name": "_key",
          "type": "bytes32"
        }
      ],
      "name": "deleteBytes",
      "outputs": [],
      "stateMutability": "nonpayable",
      "type": "function"
    },
    {
      "inputs": [
        {
          "internalType": "bytes32",
          "name": "_key",
          "type": "bytes32"
        }
      ],
      "name": "deleteBytes32",
      "outputs": [],
      "stateMutability": "nonpayable",
      "type": "function"
    },
    {
      "inputs": [
        {
          "internalType": "bytes32",
          "name": "_key",
          "type": "bytes32"
        }
      ],
      "name": "deleteInt",
      "outputs": [],
      "stateMutability": "nonpayable",
      "type": "function"
    },
    {
      "inputs": [
        {
          "internalType": "bytes32",
          "name": "_key",
          "type": "bytes32"
        }
      ],
      "name": "deleteString",
      "outputs": [],
      "stateMutability": "nonpayable",
      "type": "function"
    },
    {
      "inputs": [
        {
          "internalType": "bytes32",
          "name": "_key",
          "type": "bytes32"
        }
      ],
      "name": "deleteUint",
      "outputs": [],
      "stateMutability": "nonpayable",
      "type": "function"
    },
    {
      "inputs": [
        {
          "internalType": "bytes32",
          "name": "_key",
          "type": "bytes32"
        }
      ],
      "name": "getAddress",
      "outputs": [
        {
          "internalType": "address",
          "name": "r",
          "type": "address"
        }
      ],
      "stateMutability": "view",
      "type": "function"
    },
    {
      "inputs": [
        {
          "internalType": "bytes32",
          "name": "_key",
          "type": "bytes32"
        }
      ],
      "name": "getBool",
      "outputs": [
        {
          "internalType": "bool",
          "name": "r",
          "type": "bool"
        }
      ],
      "stateMutability": "view",
      "type": "function"
    },
    {
      "inputs": [
        {
          "internalType": "bytes32",
          "name": "_key",
          "type": "bytes32"
        }
      ],
      "name": "getBytes",
      "outputs": [
        {
          "internalType": "bytes",
          "name": "",
          "type": "bytes"
        }
      ],
      "stateMutability": "view",
      "type": "function"
    },
    {
      "inputs": [
        {
          "internalType": "bytes32",
          "name": "_key",
          "type": "bytes32"
        }
      ],
      "name": "getBytes32",
      "outputs": [
        {
          "internalType": "bytes32",
          "name": "r",
          "type": "bytes32"
        }
      ],
      "stateMutability": "view",
      "type": "function"
    },
    {
      "inputs": [
        {
          "internalType": "bytes32",
          "name": "_key",
          "type": "bytes32"
        }
      ],
      "name": "getInt",
      "outputs": [
        {
          "internalType": "int256",
          "name": "r",
          "type": "int256"
        }
      ],
      "stateMutability": "view",
      "type": "function"
    },
    {
      "inputs": [
        {
          "internalType": "bytes32",
          "name": "_key",
          "type": "bytes32"
        }
      ],
      "name": "getString",
      "outputs": [
        {
          "internalType": "string",
          "name": "",
          "type": "string"
        }
      ],
      "stateMutability": "view",
      "type": "function"
    },
    {
      "inputs": [
        {
          "internalType": "bytes32",
          "name": "_key",
          "type": "bytes32"
        }
      ],
      "name": "getUint",
      "outputs": [
        {
          "internalType": "uint256",
          "name": "r",
          "type": "uint256"
        }
      ],
      "stateMutability": "view",
      "type": "function"
    },
    {
      "inputs": [
        {
          "internalType": "bytes32",
          "name": "_key",
          "type": "bytes32"
        },
        {
          "internalType": "address",
          "name": "_value",
          "type": "address"
        }
      ],
      "name": "setAddress",
      "outputs": [],
      "stateMutability": "nonpayable",
      "type": "function"
    },
    {
      "inputs": [
        {
          "internalType": "bytes32",
          "name": "_key",
          "type": "bytes32"
        },
        {
          "internalType": "bool",
          "name": "_value",
          "type": "bool"
        }
      ],
      "name": "setBool",
      "outputs": [],
      "stateMutability": "nonpayable",
      "type": "function"
    },
    {
      "inputs": [
        {
          "internalType": "bytes32",
          "name": "_key",
          "type": "bytes32"
        },
        {
          "internalType": "bytes",
          "name": "_value",
          "type": "bytes"
        }
      ],
      "name": "setBytes",
      "outputs": [],
      "stateMutability": "nonpayable",
      "type": "function"
    },
    {
      "inputs": [
        {
          "internalType": "bytes32",
          "name": "_key",
          "type": "bytes32"
        },
        {
          "internalType": "bytes32",
          "name": "_value",
          "type": "bytes32"
        }
      ],
      "name": "setBytes32",
      "outputs": [],
      "stateMutability": "nonpayable",
      "type": "function"
    },
    {
      "inputs": [
        {
          "internalType": "bytes32",
          "name": "_key",
          "type": "bytes32"
        },
        {
          "internalType": "int256",
          "name": "_value",
          "type": "int256"
        }
      ],
      "name": "setInt",
      "outputs": [],
      "stateMutability": "nonpayable",
      "type": "function"
    },
    {
      "inputs": [
        {
          "internalType": "bytes32",
          "name": "_key",
          "type": "bytes32"
        },
        {
          "internalType": "string",
          "name": "_value",
          "type": "string"
        }
      ],
      "name": "setString",
      "outputs": [],
      "stateMutability": "nonpayable",
      "type": "function"
    },
    {
      "inputs": [
        {
          "internalType": "bytes32",
          "name": "_key",
          "type": "bytes32"
        },
        {
          "internalType": "uint256",
          "name": "_value",
          "type": "uint256"
        }
      ],
      "name": "setUint",
      "outputs": [],
      "stateMutability": "nonpayable",
      "type": "function"
    },
    {
      "inputs": [
        {
          "internalType": "bytes32",
          "name": "_key",
          "type": "bytes32"
        },
        {
          "internalType": "uint256",
          "name": "_amount",
          "type": "uint256"
        }
      ],
      "name": "subUint",
      "outputs": [],
      "stateMutability": "nonpayable",
      "type": "function"
    }
  ],
  "bytecode": "0x608060405234801561001057600080fd5b50604051693937b6329730b236b4b760b11b60208201526001600160601b03193360601b16602a82015261006490603e0160405160208183030381529060405280519060200120600161007660201b60201c565b6000805460ff1916600117905561014c565b60005460ff1615806100d45750604051693937b6329730b236b4b760b11b60208201526001600160601b03193360601b16602a8201526100d490603e016040516020818303038152906040528051906020012061013760201b60201c565b6101175760405162461bcd60e51b815260206004820152601060248201526f41646d696e2063616c6c73206f6e6c7960801b604482015260640160405180910390fd5b600091825260066020526040909120805460ff1916911515919091179055565b60009081526006602052604090205460ff1690565b610d8a8061015b6000396000f3fe608060405234801561001057600080fd5b506004361061014d5760003560e01c8063986e791a116100c3578063ca446dd91161007c578063ca446dd91461031f578063dc97d96214610332578063e2a4853a14610352578063e2b202bf14610365578063ebb9d8c914610378578063f6bb3cc41461038b57600080fd5b8063986e791a14610278578063a6ed563e14610298578063abfdcced146102c6578063adb353dc146102d9578063bd02d0f5146102ec578063c031a1801461030c57600080fd5b80633e49bed0116101155780633e49bed0146101e65780634e91db08146101f9578063616b59f61461020c5780636e8995501461021f5780637ae1cfca146102325780638c1600951461026557600080fd5b80630b9adc57146101525780630e14a3761461016757806321f8a7211461017a5780632c62ff2d146101c05780632e28d084146101d3575b600080fd5b610165610160366004610ade565b61039e565b005b610165610175366004610ade565b610420565b6101a3610188366004610ade565b6000908152600560205260409020546001600160a01b031690565b6040516001600160a01b0390911681526020015b60405180910390f35b6101656101ce366004610ade565b61047b565b6101656101e1366004610b40565b6104d0565b6101656101f4366004610b8c565b61052c565b610165610207366004610b8c565b61057b565b61016561021a366004610ade565b6105ca565b61016561022d366004610b40565b610621565b610255610240366004610ade565b60009081526006602052604090205460ff1690565b60405190151581526020016101b7565b610165610273366004610ade565b610677565b61028b610286366004610ade565b6106c5565b6040516101b79190610bfb565b6102b86102a6366004610ade565b60009081526007602052604090205490565b6040519081526020016101b7565b6101656102d4366004610c15565b610767565b6101656102e7366004610b8c565b6107c4565b6102b86102fa366004610ade565b60009081526003602052604090205490565b61028b61031a366004610ade565b61083b565b61016561032d366004610c4a565b610858565b6102b8610340366004610ade565b60009081526004602052604090205490565b610165610360366004610b8c565b6108c3565b610165610373366004610ade565b610912565b610165610386366004610b8c565b610960565b610165610399366004610ade565b6109bb565b60005460ff1615806103ea57506103ea336040516020016103bf9190610c7b565b6040516020818303038152906040528051906020012060009081526006602052604090205460ff1690565b61040f5760405162461bcd60e51b815260040161040690610cab565b60405180910390fd5b600090815260076020526040812055565b60005460ff1615806104415750610441336040516020016103bf9190610c7b565b61045d5760405162461bcd60e51b815260040161040690610cab565b600090815260056020526040902080546001600160a01b0319169055565b60005460ff16158061049c575061049c336040516020016103bf9190610c7b565b6104b85760405162461bcd60e51b815260040161040690610cab565b6000908152600660205260409020805460ff19169055565b60005460ff1615806104f157506104f1336040516020016103bf9190610c7b565b61050d5760405162461bcd60e51b815260040161040690610cab565b6000838152600260205260409020610526908383610a0f565b50505050565b60005460ff16158061054d575061054d336040516020016103bf9190610c7b565b6105695760405162461bcd60e51b815260040161040690610cab565b60009182526004602052604090912055565b60005460ff16158061059c575061059c336040516020016103bf9190610c7b565b6105b85760405162461bcd60e51b815260040161040690610cab565b60009182526007602052604090912055565b60005460ff1615806105eb57506105eb336040516020016103bf9190610c7b565b6106075760405162461bcd60e51b815260040161040690610cab565b600081815260026020526040812061061e91610a93565b50565b60005460ff1615806106425750610642336040516020016103bf9190610c7b565b61065e5760405162461bcd60e51b815260040161040690610cab565b6000838152600160205260409020610526908383610a0f565b60005460ff1615806106985750610698336040516020016103bf9190610c7b565b6106b45760405162461bcd60e51b815260040161040690610cab565b600090815260046020526040812055565b60008181526001602052604090208054606091906106e290610cd5565b80601f016020809104026020016040519081016040528092919081815260200182805461070e90610cd5565b801561075b5780601f106107305761010080835404028352916020019161075b565b820191906000526020600020905b81548152906001019060200180831161073e57829003601f168201915b50505050509050919050565b60005460ff1615806107885750610788336040516020016103bf9190610c7b565b6107a45760405162461bcd60e51b815260040161040690610cab565b600091825260066020526040909120805460ff1916911515919091179055565b60005460ff1615806107e557506107e5336040516020016103bf9190610c7b565b6108015760405162461bcd60e51b815260040161040690610cab565b6000828152600360205260408120805483929061081f908490610d25565b9182905550600093845260036020526040909320929092555050565b60008181526002602052604090208054606091906106e290610cd5565b60005460ff1615806108795750610879336040516020016103bf9190610c7b565b6108955760405162461bcd60e51b815260040161040690610cab565b60009182526005602052604090912080546001600160a01b0319166001600160a01b03909216919091179055565b60005460ff1615806108e457506108e4336040516020016103bf9190610c7b565b6109005760405162461bcd60e51b815260040161040690610cab565b60009182526003602052604090912055565b60005460ff1615806109335750610933336040516020016103bf9190610c7b565b61094f5760405162461bcd60e51b815260040161040690610cab565b600090815260036020526040812055565b60005460ff1615806109815750610981336040516020016103bf9190610c7b565b61099d5760405162461bcd60e51b815260040161040690610cab565b6000828152600360205260408120805483929061081f908490610d3d565b60005460ff1615806109dc57506109dc336040516020016103bf9190610c7b565b6109f85760405162461bcd60e51b815260040161040690610cab565b600081815260016020526040812061061e91610a93565b828054610a1b90610cd5565b90600052602060002090601f016020900481019282610a3d5760008555610a83565b82601f10610a565782800160ff19823516178555610a83565b82800160010185558215610a83579182015b82811115610a83578235825591602001919060010190610a68565b50610a8f929150610ac9565b5090565b508054610a9f90610cd5565b6000825580601f10610aaf575050565b601f01602090049060005260206000209081019061061e91905b5b80821115610a8f5760008155600101610aca565b600060208284031215610af057600080fd5b5035919050565b60008083601f840112610b0957600080fd5b50813567ffffffffffffffff811115610b2157600080fd5b602083019150836020828501011115610b3957600080fd5b9250929050565b600080600060408486031215610b5557600080fd5b83359250602084013567ffffffffffffffff811115610b7357600080fd5b610b7f86828701610af7565b9497909650939450505050565b60008060408385031215610b9f57600080fd5b50508035926020909101359150565b6000815180845260005b81811015610bd457602081850181015186830182015201610bb8565b81811115610be6576000602083870101525b50601f01601f19169290920160200192915050565b602081526000610c0e6020830184610bae565b9392505050565b60008060408385031215610c2857600080fd5b8235915060208301358015158114610c3f57600080fd5b809150509250929050565b60008060408385031215610c5d57600080fd5b8235915060208301356001600160a01b0381168114610c3f57600080fd5b693937b6329730b236b4b760b11b815260609190911b6bffffffffffffffffffffffff1916600a820152601e0190565b60208082526010908201526f41646d696e2063616c6c73206f6e6c7960801b604082015260600190565b600181811c90821680610ce957607f821691505b602082108103610d0957634e487b7160e01b600052602260045260246000fd5b50919050565b634e487b7160e01b600052601160045260246000fd5b60008219821115610d3857610d38610d0f565b500190565b600082821015610d4f57610d4f610d0f565b50039056fea26469706673582212203d0f2ff95fec2e9b7d392a41a71930a150cabe64904bb04006a482046cbbfaf964736f6c634300080e0033",
  "linkReferences": {},
  "deployedLinkReferences": {}
}