{
  "_format": "hh-sol-artifact-1",
  "contractName": "SageStorage",
  "sourceName": "contracts/Utils/SageStorage.sol",
  "abi": [
    {
      "inputs": [],
      "stateMutability": "nonpayable",
      "type": "constructor"
    },
    {
      "inputs": [
        {
          "internalType": "bytes32",
          "name": "_key",
          "type": "bytes32"
        },
        {
          "internalType": "uint256",
          "name": "_amount",
          "type": "uint256"
        }
      ],
      "name": "addUint",
      "outputs": [],
      "stateMutability": "nonpayable",
      "type": "function"
    },
    {
      "inputs": [
        {
          "internalType": "bytes32",
          "name": "_key",
          "type": "bytes32"
        }
      ],
      "name": "deleteAddress",
      "outputs": [],
      "stateMutability": "nonpayable",
      "type": "function"
    },
    {
      "inputs": [
        {
          "internalType": "bytes32",
          "name": "_key",
          "type": "bytes32"
        }
      ],
      "name": "deleteBool",
      "outputs": [],
      "stateMutability": "nonpayable",
      "type": "function"
    },
    {
      "inputs": [
        {
          "internalType": "bytes32",
          "name": "_key",
          "type": "bytes32"
        }
      ],
      "name": "deleteBytes",
      "outputs": [],
      "stateMutability": "nonpayable",
      "type": "function"
    },
    {
      "inputs": [
        {
          "internalType": "bytes32",
          "name": "_key",
          "type": "bytes32"
        }
      ],
      "name": "deleteBytes32",
      "outputs": [],
      "stateMutability": "nonpayable",
      "type": "function"
    },
    {
      "inputs": [
        {
          "internalType": "bytes32",
          "name": "_key",
          "type": "bytes32"
        }
      ],
      "name": "deleteInt",
      "outputs": [],
      "stateMutability": "nonpayable",
      "type": "function"
    },
    {
      "inputs": [
        {
          "internalType": "bytes32",
          "name": "_key",
          "type": "bytes32"
        }
      ],
      "name": "deleteString",
      "outputs": [],
      "stateMutability": "nonpayable",
      "type": "function"
    },
    {
      "inputs": [
        {
          "internalType": "bytes32",
          "name": "_key",
          "type": "bytes32"
        }
      ],
      "name": "deleteUint",
      "outputs": [],
      "stateMutability": "nonpayable",
      "type": "function"
    },
    {
      "inputs": [
        {
          "internalType": "bytes32",
          "name": "_key",
          "type": "bytes32"
        }
      ],
      "name": "getAddress",
      "outputs": [
        {
          "internalType": "address",
          "name": "r",
          "type": "address"
        }
      ],
      "stateMutability": "view",
      "type": "function"
    },
    {
      "inputs": [
        {
          "internalType": "bytes32",
          "name": "_key",
          "type": "bytes32"
        }
      ],
      "name": "getBool",
      "outputs": [
        {
          "internalType": "bool",
          "name": "r",
          "type": "bool"
        }
      ],
      "stateMutability": "view",
      "type": "function"
    },
    {
      "inputs": [
        {
          "internalType": "bytes32",
          "name": "_key",
          "type": "bytes32"
        }
      ],
      "name": "getBytes",
      "outputs": [
        {
          "internalType": "bytes",
          "name": "",
          "type": "bytes"
        }
      ],
      "stateMutability": "view",
      "type": "function"
    },
    {
      "inputs": [
        {
          "internalType": "bytes32",
          "name": "_key",
          "type": "bytes32"
        }
      ],
      "name": "getBytes32",
      "outputs": [
        {
          "internalType": "bytes32",
          "name": "r",
          "type": "bytes32"
        }
      ],
      "stateMutability": "view",
      "type": "function"
    },
    {
      "inputs": [
        {
          "internalType": "bytes32",
          "name": "_key",
          "type": "bytes32"
        }
      ],
      "name": "getInt",
      "outputs": [
        {
          "internalType": "int256",
          "name": "r",
          "type": "int256"
        }
      ],
      "stateMutability": "view",
      "type": "function"
    },
    {
      "inputs": [
        {
          "internalType": "bytes32",
          "name": "_key",
          "type": "bytes32"
        }
      ],
      "name": "getString",
      "outputs": [
        {
          "internalType": "string",
          "name": "",
          "type": "string"
        }
      ],
      "stateMutability": "view",
      "type": "function"
    },
    {
      "inputs": [
        {
          "internalType": "bytes32",
          "name": "_key",
          "type": "bytes32"
        }
      ],
      "name": "getUint",
      "outputs": [
        {
          "internalType": "uint256",
          "name": "r",
          "type": "uint256"
        }
      ],
      "stateMutability": "view",
      "type": "function"
    },
    {
      "inputs": [
        {
          "internalType": "bytes32",
          "name": "_key",
          "type": "bytes32"
        },
        {
          "internalType": "address",
          "name": "_value",
          "type": "address"
        }
      ],
      "name": "setAddress",
      "outputs": [],
      "stateMutability": "nonpayable",
      "type": "function"
    },
    {
      "inputs": [
        {
          "internalType": "bytes32",
          "name": "_key",
          "type": "bytes32"
        },
        {
          "internalType": "bool",
          "name": "_value",
          "type": "bool"
        }
      ],
      "name": "setBool",
      "outputs": [],
      "stateMutability": "nonpayable",
      "type": "function"
    },
    {
      "inputs": [
        {
          "internalType": "bytes32",
          "name": "_key",
          "type": "bytes32"
        },
        {
          "internalType": "bytes",
          "name": "_value",
          "type": "bytes"
        }
      ],
      "name": "setBytes",
      "outputs": [],
      "stateMutability": "nonpayable",
      "type": "function"
    },
    {
      "inputs": [
        {
          "internalType": "bytes32",
          "name": "_key",
          "type": "bytes32"
        },
        {
          "internalType": "bytes32",
          "name": "_value",
          "type": "bytes32"
        }
      ],
      "name": "setBytes32",
      "outputs": [],
      "stateMutability": "nonpayable",
      "type": "function"
    },
    {
      "inputs": [
        {
          "internalType": "bytes32",
          "name": "_key",
          "type": "bytes32"
        },
        {
          "internalType": "int256",
          "name": "_value",
          "type": "int256"
        }
      ],
      "name": "setInt",
      "outputs": [],
      "stateMutability": "nonpayable",
      "type": "function"
    },
    {
      "inputs": [
        {
          "internalType": "bytes32",
          "name": "_key",
          "type": "bytes32"
        },
        {
          "internalType": "string",
          "name": "_value",
          "type": "string"
        }
      ],
      "name": "setString",
      "outputs": [],
      "stateMutability": "nonpayable",
      "type": "function"
    },
    {
      "inputs": [
        {
          "internalType": "bytes32",
          "name": "_key",
          "type": "bytes32"
        },
        {
          "internalType": "uint256",
          "name": "_value",
          "type": "uint256"
        }
      ],
      "name": "setUint",
      "outputs": [],
      "stateMutability": "nonpayable",
      "type": "function"
    },
    {
      "inputs": [
        {
          "internalType": "bytes32",
          "name": "_key",
          "type": "bytes32"
        },
        {
          "internalType": "uint256",
          "name": "_amount",
          "type": "uint256"
        }
      ],
      "name": "subUint",
      "outputs": [],
      "stateMutability": "nonpayable",
      "type": "function"
    }
  ],
  "bytecode": "0x6080806040523461012e57693937b6329730b236b4b760b11b602082019081526001600160601b03193360601b16602a830152601e8252601f1991610045603e82610133565b5190209060ff60005416159081156100d5575b501561009d5761007c9060005260066020526040600020600160ff19825416179055565b61008e600160ff196000541617600055565b604051610f0f908161016d8239f35b60405162461bcd60e51b815260206004820152601060248201526f41646d696e2063616c6c73206f6e6c7960801b6044820152606490fd5b604051693937b6329730b236b4b760b11b602082019081526001600160601b03193360601b16602a830152603e92830182529250906101149082610133565b519020600052600660205260ff6040600020541638610058565b600080fd5b601f909101601f19168101906001600160401b0382119082101761015657604052565b634e487b7160e01b600052604160045260246000fdfe60806040526004361015610013575b600080fd5b60003560e01c80630b9adc57146101df5780630e14a376146101d657806321f8a721146101cd5780632c62ff2d146101c45780632e28d084146101bb5780633e49bed0146101b25780634e91db08146101a9578063616b59f6146101a05780636e899550146101975780637ae1cfca1461018e5780638c16009514610185578063986e791a1461017c578063a6ed563e14610173578063abfdcced1461016a578063adb353dc14610161578063bd02d0f514610158578063c031a1801461014f578063ca446dd914610146578063dc97d9621461013d578063e2a4853a14610134578063e2b202bf1461012b578063ebb9d8c9146101225763f6bb3cc41461011a57600080fd5b61000e610c7f565b5061000e610bfa565b5061000e610b99565b5061000e610b3d565b5061000e610b10565b5061000e610a8a565b5061000e610a53565b5061000e610a26565b5061000e6109a0565b5061000e61090c565b5061000e6108df565b5061000e610889565b5061000e6107d2565b5061000e61079a565b5061000e610681565b5061000e6105c6565b5061000e61055e565b5061000e6104f6565b5061000e6103bd565b5061000e610308565b5061000e6102d3565b5061000e610265565b503461000e57602036600319011261000e5760ff6000541615801561021c575b61020890610e25565b600435600090815260076020526040812055005b5061020861025e6040516020810190610247816102393385610df6565b03601f198101835282610dc7565b519020600052600660205260ff6040600020541690565b90506101ff565b503461000e57602036600319011261000e5760ff600054161580156102af575b61028e90610e25565b600435600090815260056020526040902080546001600160a01b0319169055005b5061028e6102cc6040516020810190610247816102393385610df6565b9050610285565b503461000e57602036600319011261000e576004356000526005602052602060018060a01b0360406000205416604051908152f35b503461000e57602036600319011261000e5760ff6000541615801561034c575b61033190610e25565b6004356000908152600660205260409020805460ff19169055005b506103316103696040516020810190610247816102393385610df6565b9050610328565b604060031982011261000e576004359160243567ffffffffffffffff9283821161000e578060238301121561000e57816004013593841161000e576024848301011161000e576024019190565b503461000e576103cc36610370565b919060009160ff8354161580156104d2575b6103e790610e25565b825260209260028452604083209167ffffffffffffffff82116104c5575b610419826104138554610ce6565b85610e7b565b8394601f831160011461045757509383948293949261044c575b50508160011b916000199060031b1c1916179055604051f35b013590503880610433565b90601f1983169561046d85600052602060002090565b9286905b8882106104ad57505083600195969710610493575b505050811b019055604051f35b0135600019600384901b60f8161c19169055388080610486565b80600184968294958701358155019501920190610471565b6104cd610db0565b610405565b506103e76104ef6040516020810190610247816102393385610df6565b90506103de565b503461000e57604036600319011261000e5760ff6000541615801561053a575b61051f90610e25565b60043560005260046020526024356040600020556000604051f35b5061051f6105576040516020810190610247816102393385610df6565b9050610516565b503461000e57604036600319011261000e5760ff600054161580156105a2575b61058790610e25565b60043560005260076020526024356040600020556000604051f35b506105876105bf6040516020810190610247816102393385610df6565b905061057e565b503461000e57602036600319011261000e5760ff6000541615801561065d575b6105ef90610e25565b600435600052600260205260406000206106098154610ce6565b908161061157005b601f8211600114610623576000915055005b61064b61065b926001601f61063d85600052602060002090565b920160051c82019101610e64565b6000908082528160208120915555565b005b506105ef61067a6040516020810190610247816102393385610df6565b90506105e6565b503461000e5761069036610370565b60009260ff845416158015610776575b6106a990610e25565b83526001906020828152604085209367ffffffffffffffff8311610769575b6106dc836106d68754610ce6565b87610e7b565b8591601f84116001146107185750928293918392879461070d575b50501b916000199060031b1c1916179055604051f35b0135925038806106f7565b9183601f19811661072e88600052602060002090565b9489905b8883831061074f575050501061049357505050811b019055604051f35b868601358855909601959384019387935090810190610732565b610771610db0565b6106c8565b506106a96107936040516020810190610247816102393385610df6565b90506106a0565b503461000e57602036600319011261000e5760206107c8600435600052600660205260ff6040600020541690565b6040519015158152f35b503461000e57602036600319011261000e5760ff60005416158015610814575b6107fb90610e25565b6004356000526004602052600060408120556000604051f35b506107fb6108316040516020810190610247816102393385610df6565b90506107f2565b91908251928382526000905b848210610871575092806020939411610864575b601f01601f1916010190565b6000838284010152610858565b90602090818082850101519082860101520190610844565b503461000e57602036600319011261000e5760043560005260016020526108db6108c06108c7604060002060405192838092610d20565b0382610dc7565b604051918291602083526020830190610838565b0390f35b503461000e57602036600319011261000e5760043560005260076020526020604060002054604051908152f35b503461000e57604036600319011261000e5760243580151580910361000e5760ff60005416158015610966575b61094290610e25565b600435600052600660205260406000209060ff801983541691161790556000604051f35b506109426109836040516020810190610247816102393385610df6565b9050610939565b604090600319011261000e576004359060243590565b503461000e576109af3661098a565b60009160ff835416158015610a02575b6109c890610e25565b808352600360205260408320918254811981116109f5575b01809255825260036020526040822055604051f35b6109fd610ec2565b6109e0565b506109c8610a1f6040516020810190610247816102393385610df6565b90506109bf565b503461000e57602036600319011261000e5760043560005260036020526020604060002054604051908152f35b503461000e57602036600319011261000e5760043560005260026020526108db6108c06108c7604060002060405192838092610d20565b503461000e57604036600319011261000e576024356001600160a01b0381169081900361000e5760ff60005416158015610aec575b610ac890610e25565b600435600090815260056020526040902080546001600160a01b0319169091179055005b50610ac8610b096040516020810190610247816102393385610df6565b9050610abf565b503461000e57602036600319011261000e5760043560005260046020526020604060002054604051908152f35b503461000e57610b4c3661098a565b9060ff60005416158015610b75575b610b6490610e25565b600090815260036020526040902055005b50610b64610b926040516020810190610247816102393385610df6565b9050610b5b565b503461000e57602036600319011261000e5760ff60005416158015610bd6575b610bc290610e25565b600435600090815260036020526040812055005b50610bc2610bf36040516020810190610247816102393385610df6565b9050610bb9565b503461000e57610c093661098a565b60009160ff835416158015610c5b575b610c2290610e25565b808352600360205260408320918254818110610c4e575b03809255825260036020526040822055604051f35b610c56610ec2565b610c39565b50610c22610c786040516020810190610247816102393385610df6565b9050610c19565b503461000e57602036600319011261000e5760ff60005416158015610cc2575b610ca890610e25565b600435600052600160205260406000206106098154610ce6565b50610ca8610cdf6040516020810190610247816102393385610df6565b9050610c9f565b90600182811c92168015610d16575b6020831014610d0057565b634e487b7160e01b600052602260045260246000fd5b91607f1691610cf5565b9060009291805491610d3183610ce6565b918282526001938481169081600014610d935750600114610d53575b50505050565b90919394506000526020928360002092846000945b838610610d7f575050505001019038808080610d4d565b805485870183015294019385908201610d68565b60ff19166020840152505060400193503891508190508080610d4d565b50634e487b7160e01b600052604160045260246000fd5b90601f8019910116810190811067ffffffffffffffff821117610de957604052565b610df1610db0565b604052565b601e91693937b6329730b236b4b760b11b82526bffffffffffffffffffffffff199060601b16600a8201520190565b15610e2c57565b60405162461bcd60e51b815260206004820152601060248201526f41646d696e2063616c6c73206f6e6c7960801b6044820152606490fd5b818110610e6f575050565b60008155600101610e64565b9190601f8111610e8a57505050565b610eb6926000526020600020906020601f840160051c83019310610eb8575b601f0160051c0190610e64565b565b9091508190610ea9565b50634e487b7160e01b600052601160045260246000fdfea2646970667358221220925004437e002d01d70f5454784de4c13844cc331b99d7f1b0a2188cdf871c3564736f6c634300080e0033",
  "linkReferences": {},
  "deployedLinkReferences": {}
}