{
  "_format": "hh-sol-artifact-1",
  "contractName": "SageStorage",
  "sourceName": "contracts/Utils/SageStorage.sol",
  "abi": [
    {
      "inputs": [
        {
          "internalType": "address",
          "name": "admin",
          "type": "address"
        }
      ],
      "stateMutability": "nonpayable",
      "type": "constructor"
    },
    {
      "anonymous": false,
      "inputs": [
        {
          "indexed": true,
          "internalType": "bytes32",
          "name": "role",
          "type": "bytes32"
        },
        {
          "indexed": true,
          "internalType": "bytes32",
          "name": "previousAdminRole",
          "type": "bytes32"
        },
        {
          "indexed": true,
          "internalType": "bytes32",
          "name": "newAdminRole",
          "type": "bytes32"
        }
      ],
      "name": "RoleAdminChanged",
      "type": "event"
    },
    {
      "anonymous": false,
      "inputs": [
        {
          "indexed": true,
          "internalType": "bytes32",
          "name": "role",
          "type": "bytes32"
        },
        {
          "indexed": true,
          "internalType": "address",
          "name": "account",
          "type": "address"
        },
        {
          "indexed": true,
          "internalType": "address",
          "name": "sender",
          "type": "address"
        }
      ],
      "name": "RoleGranted",
      "type": "event"
    },
    {
      "anonymous": false,
      "inputs": [
        {
          "indexed": true,
          "internalType": "bytes32",
          "name": "role",
          "type": "bytes32"
        },
        {
          "indexed": true,
          "internalType": "address",
          "name": "account",
          "type": "address"
        },
        {
          "indexed": true,
          "internalType": "address",
          "name": "sender",
          "type": "address"
        }
      ],
      "name": "RoleRevoked",
      "type": "event"
    },
    {
      "inputs": [],
      "name": "ADMIN_ROLE",
      "outputs": [
        {
          "internalType": "bytes32",
          "name": "",
          "type": "bytes32"
        }
      ],
      "stateMutability": "view",
      "type": "function"
    },
    {
      "inputs": [],
      "name": "ARTIST_ROLE",
      "outputs": [
        {
          "internalType": "bytes32",
          "name": "",
          "type": "bytes32"
        }
      ],
      "stateMutability": "view",
      "type": "function"
    },
    {
      "inputs": [],
      "name": "BURNER_ROLE",
      "outputs": [
        {
          "internalType": "bytes32",
          "name": "",
          "type": "bytes32"
        }
      ],
      "stateMutability": "view",
      "type": "function"
    },
    {
      "inputs": [],
      "name": "DEFAULT_ADMIN_ROLE",
      "outputs": [
        {
          "internalType": "bytes32",
          "name": "",
          "type": "bytes32"
        }
      ],
      "stateMutability": "view",
      "type": "function"
    },
    {
      "inputs": [],
      "name": "MANAGE_POINTS_ROLE",
      "outputs": [
        {
          "internalType": "bytes32",
          "name": "",
          "type": "bytes32"
        }
      ],
      "stateMutability": "view",
      "type": "function"
    },
    {
      "inputs": [],
      "name": "MINTER_ROLE",
      "outputs": [
        {
          "internalType": "bytes32",
          "name": "",
          "type": "bytes32"
        }
      ],
      "stateMutability": "view",
      "type": "function"
    },
    {
      "inputs": [
        {
          "internalType": "bytes32",
          "name": "_key",
          "type": "bytes32"
        },
        {
          "internalType": "uint256",
          "name": "_amount",
          "type": "uint256"
        }
      ],
      "name": "addUint",
      "outputs": [],
      "stateMutability": "nonpayable",
      "type": "function"
    },
    {
      "inputs": [
        {
          "internalType": "bytes32",
          "name": "_key",
          "type": "bytes32"
        }
      ],
      "name": "deleteAddress",
      "outputs": [],
      "stateMutability": "nonpayable",
      "type": "function"
    },
    {
      "inputs": [
        {
          "internalType": "bytes32",
          "name": "_key",
          "type": "bytes32"
        }
      ],
      "name": "deleteBool",
      "outputs": [],
      "stateMutability": "nonpayable",
      "type": "function"
    },
    {
      "inputs": [
        {
          "internalType": "bytes32",
          "name": "_key",
          "type": "bytes32"
        }
      ],
      "name": "deleteBytes",
      "outputs": [],
      "stateMutability": "nonpayable",
      "type": "function"
    },
    {
      "inputs": [
        {
          "internalType": "bytes32",
          "name": "_key",
          "type": "bytes32"
        }
      ],
      "name": "deleteBytes32",
      "outputs": [],
      "stateMutability": "nonpayable",
      "type": "function"
    },
    {
      "inputs": [
        {
          "internalType": "bytes32",
          "name": "_key",
          "type": "bytes32"
        }
      ],
      "name": "deleteInt",
      "outputs": [],
      "stateMutability": "nonpayable",
      "type": "function"
    },
    {
      "inputs": [
        {
          "internalType": "bytes32",
          "name": "_key",
          "type": "bytes32"
        }
      ],
      "name": "deleteString",
      "outputs": [],
      "stateMutability": "nonpayable",
      "type": "function"
    },
    {
      "inputs": [
        {
          "internalType": "bytes32",
          "name": "_key",
          "type": "bytes32"
        }
      ],
      "name": "deleteUint",
      "outputs": [],
      "stateMutability": "nonpayable",
      "type": "function"
    },
    {
      "inputs": [
        {
          "internalType": "bytes32",
          "name": "_key",
          "type": "bytes32"
        }
      ],
      "name": "getAddress",
      "outputs": [
        {
          "internalType": "address",
          "name": "r",
          "type": "address"
        }
      ],
      "stateMutability": "view",
      "type": "function"
    },
    {
      "inputs": [
        {
          "internalType": "bytes32",
          "name": "_key",
          "type": "bytes32"
        }
      ],
      "name": "getBool",
      "outputs": [
        {
          "internalType": "bool",
          "name": "r",
          "type": "bool"
        }
      ],
      "stateMutability": "view",
      "type": "function"
    },
    {
      "inputs": [
        {
          "internalType": "bytes32",
          "name": "_key",
          "type": "bytes32"
        }
      ],
      "name": "getBytes",
      "outputs": [
        {
          "internalType": "bytes",
          "name": "",
          "type": "bytes"
        }
      ],
      "stateMutability": "view",
      "type": "function"
    },
    {
      "inputs": [
        {
          "internalType": "bytes32",
          "name": "_key",
          "type": "bytes32"
        }
      ],
      "name": "getBytes32",
      "outputs": [
        {
          "internalType": "bytes32",
          "name": "r",
          "type": "bytes32"
        }
      ],
      "stateMutability": "view",
      "type": "function"
    },
    {
      "inputs": [
        {
          "internalType": "bytes32",
          "name": "_key",
          "type": "bytes32"
        }
      ],
      "name": "getInt",
      "outputs": [
        {
          "internalType": "int256",
          "name": "r",
          "type": "int256"
        }
      ],
      "stateMutability": "view",
      "type": "function"
    },
    {
      "inputs": [
        {
          "internalType": "bytes32",
          "name": "role",
          "type": "bytes32"
        }
      ],
      "name": "getRoleAdmin",
      "outputs": [
        {
          "internalType": "bytes32",
          "name": "",
          "type": "bytes32"
        }
      ],
      "stateMutability": "view",
      "type": "function"
    },
    {
      "inputs": [
        {
          "internalType": "bytes32",
          "name": "_key",
          "type": "bytes32"
        }
      ],
      "name": "getString",
      "outputs": [
        {
          "internalType": "string",
          "name": "",
          "type": "string"
        }
      ],
      "stateMutability": "view",
      "type": "function"
    },
    {
      "inputs": [
        {
          "internalType": "bytes32",
          "name": "_key",
          "type": "bytes32"
        }
      ],
      "name": "getUint",
      "outputs": [
        {
          "internalType": "uint256",
          "name": "r",
          "type": "uint256"
        }
      ],
      "stateMutability": "view",
      "type": "function"
    },
    {
      "inputs": [
        {
          "internalType": "bytes32",
          "name": "role",
          "type": "bytes32"
        },
        {
          "internalType": "address",
          "name": "account",
          "type": "address"
        }
      ],
      "name": "grantRole",
      "outputs": [],
      "stateMutability": "nonpayable",
      "type": "function"
    },
    {
      "inputs": [
        {
          "internalType": "bytes32",
          "name": "role",
          "type": "bytes32"
        },
        {
          "internalType": "address",
          "name": "account",
          "type": "address"
        }
      ],
      "name": "hasRole",
      "outputs": [
        {
          "internalType": "bool",
          "name": "",
          "type": "bool"
        }
      ],
      "stateMutability": "view",
      "type": "function"
    },
    {
      "inputs": [
        {
          "internalType": "bytes32",
          "name": "role",
          "type": "bytes32"
        },
        {
          "internalType": "address",
          "name": "account",
          "type": "address"
        }
      ],
      "name": "renounceRole",
      "outputs": [],
      "stateMutability": "nonpayable",
      "type": "function"
    },
    {
      "inputs": [
        {
          "internalType": "bytes32",
          "name": "role",
          "type": "bytes32"
        },
        {
          "internalType": "address",
          "name": "account",
          "type": "address"
        }
      ],
      "name": "revokeRole",
      "outputs": [],
      "stateMutability": "nonpayable",
      "type": "function"
    },
    {
      "inputs": [
        {
          "internalType": "bytes32",
          "name": "_key",
          "type": "bytes32"
        },
        {
          "internalType": "address",
          "name": "_value",
          "type": "address"
        }
      ],
      "name": "setAddress",
      "outputs": [],
      "stateMutability": "nonpayable",
      "type": "function"
    },
    {
      "inputs": [
        {
          "internalType": "bytes32",
          "name": "_key",
          "type": "bytes32"
        },
        {
          "internalType": "bool",
          "name": "_value",
          "type": "bool"
        }
      ],
      "name": "setBool",
      "outputs": [],
      "stateMutability": "nonpayable",
      "type": "function"
    },
    {
      "inputs": [
        {
          "internalType": "bytes32",
          "name": "_key",
          "type": "bytes32"
        },
        {
          "internalType": "bytes",
          "name": "_value",
          "type": "bytes"
        }
      ],
      "name": "setBytes",
      "outputs": [],
      "stateMutability": "nonpayable",
      "type": "function"
    },
    {
      "inputs": [
        {
          "internalType": "bytes32",
          "name": "_key",
          "type": "bytes32"
        },
        {
          "internalType": "bytes32",
          "name": "_value",
          "type": "bytes32"
        }
      ],
      "name": "setBytes32",
      "outputs": [],
      "stateMutability": "nonpayable",
      "type": "function"
    },
    {
      "inputs": [
        {
          "internalType": "bytes32",
          "name": "_key",
          "type": "bytes32"
        },
        {
          "internalType": "int256",
          "name": "_value",
          "type": "int256"
        }
      ],
      "name": "setInt",
      "outputs": [],
      "stateMutability": "nonpayable",
      "type": "function"
    },
    {
      "inputs": [
        {
          "internalType": "bytes32",
          "name": "_key",
          "type": "bytes32"
        },
        {
          "internalType": "string",
          "name": "_value",
          "type": "string"
        }
      ],
      "name": "setString",
      "outputs": [],
      "stateMutability": "nonpayable",
      "type": "function"
    },
    {
      "inputs": [
        {
          "internalType": "bytes32",
          "name": "_key",
          "type": "bytes32"
        },
        {
          "internalType": "uint256",
          "name": "_value",
          "type": "uint256"
        }
      ],
      "name": "setUint",
      "outputs": [],
      "stateMutability": "nonpayable",
      "type": "function"
    },
    {
      "inputs": [
        {
          "internalType": "bytes32",
          "name": "_key",
          "type": "bytes32"
        },
        {
          "internalType": "uint256",
          "name": "_amount",
          "type": "uint256"
        }
      ],
      "name": "subUint",
      "outputs": [],
      "stateMutability": "nonpayable",
      "type": "function"
    },
    {
      "inputs": [
        {
          "internalType": "bytes4",
          "name": "interfaceId",
          "type": "bytes4"
        }
      ],
      "name": "supportsInterface",
      "outputs": [
        {
          "internalType": "bool",
          "name": "",
          "type": "bool"
        }
      ],
      "stateMutability": "view",
      "type": "function"
    }
  ],
  "bytecode": "0x60806040523480156200001157600080fd5b506040516200157138038062001571833981016040819052620000349162000145565b620000556000737af3ba4a5854438a6bf27e4d005cd07d5497c33e62000095565b6200006260008262000095565b6200008e7fe303cb88ace8c9e6ba216f1aecb44b3206dcab364c60512ffc6cbc920a1bf9d18262000095565b5062000177565b620000a18282620000a5565b5050565b6000828152602081815260408083206001600160a01b038516845290915290205460ff16620000a1576000828152602081815260408083206001600160a01b03851684529091529020805460ff19166001179055620001013390565b6001600160a01b0316816001600160a01b0316837f2f8788117e7eff1d82e926ec794901d17c78024a50270940304540a733656f0d60405160405180910390a45050565b6000602082840312156200015857600080fd5b81516001600160a01b03811681146200017057600080fd5b9392505050565b6113ea80620001876000396000f3fe608060405234801561001057600080fd5b50600436106102115760003560e01c80638c16009511610125578063c031a180116100ad578063dc97d9621161007c578063dc97d96214610531578063e2a4853a14610551578063e2b202bf14610564578063ebb9d8c914610577578063f6bb3cc41461058a57600080fd5b8063c031a180146104d1578063ca446dd9146104e4578063d5391393146104f7578063d547741f1461051e57600080fd5b8063a6ed563e116100f4578063a6ed563e14610444578063a966a0df14610464578063abfdcced1461048b578063adb353dc1461049e578063bd02d0f5146104b157600080fd5b80638c160095146103f657806391d1485414610409578063986e791a1461041c578063a217fddf1461043c57600080fd5b80632f2ff15d116101a85780634e91db08116101775780634e91db0814610385578063616b59f6146103985780636e899550146103ab57806375b238fc146103be5780637ae1cfca146103d357600080fd5b80632f2ff15d1461032557806336568abe146103385780633e49bed01461034b57806349123dac1461035e57600080fd5b8063248a9ca3116101e4578063248a9ca3146102a7578063282c51f3146102d85780632c62ff2d146102ff5780632e28d0841461031257600080fd5b806301ffc9a7146102165780630b9adc571461023e5780630e14a3761461025357806321f8a72114610266575b600080fd5b610229610224366004611049565b61059d565b60405190151581526020015b60405180910390f35b61025161024c366004611073565b6105d4565b005b610251610261366004611073565b610622565b61028f610274366004611073565b6000908152600560205260409020546001600160a01b031690565b6040516001600160a01b039091168152602001610235565b6102ca6102b5366004611073565b60009081526020819052604090206001015490565b604051908152602001610235565b6102ca7f3b25106add3a89098ef82030314e486ca1f967bd742e45817c5014c5ef3e806481565b61025161030d366004611073565b610674565b6102516103203660046110d5565b6106c0565b610251610333366004611121565b610713565b610251610346366004611121565b61073d565b61025161035936600461115d565b6107bb565b6102ca7f408bc7479ef9119d5f38cec4b670571000f4d832df9a54fc1998e43ee684284181565b61025161039336600461115d565b610801565b6102516103a6366004611073565b610847565b6102516103b93660046110d5565b610895565b6102ca60008051602061139583398151915281565b6102296103e1366004611073565b60009081526006602052604090205460ff1690565b610251610404366004611073565b6108e2565b610229610417366004611121565b610927565b61042f61042a366004611073565b610950565b60405161023591906111d7565b6102ca600081565b6102ca610452366004611073565b60009081526007602052604090205490565b6102ca7fc18c9ce59aaa739e2eb7c0e63fb0e95821f115c643b2d4c9d3d194ec807d510081565b6102516104993660046111ea565b6109f2565b6102516104ac36600461115d565b610a46565b6102ca6104bf366004611073565b60009081526003602052604090205490565b61042f6104df366004611073565b610ab4565b6102516104f2366004611121565b610ad1565b6102ca7f43c12360602d49748153591f2df5a853821ec8410115f225b90a7a49bd5d2bb981565b61025161052c366004611121565b610b33565b6102ca61053f366004611073565b60009081526004602052604090205490565b61025161055f36600461115d565b610b58565b610251610572366004611073565b610b9e565b61025161058536600461115d565b610be3565b610251610598366004611073565b610c35565b60006001600160e01b03198216637965db0b60e01b14806105ce57506301ffc9a760e01b6001600160e01b03198316145b92915050565b6105ec60008051602061139583398151915233610927565b6106115760405162461bcd60e51b815260040161060890611214565b60405180910390fd5b600090815260076020526040812055565b61063a60008051602061139583398151915233610927565b6106565760405162461bcd60e51b815260040161060890611214565b600090815260056020526040902080546001600160a01b0319169055565b61068c60008051602061139583398151915233610927565b6106a85760405162461bcd60e51b815260040161060890611214565b6000908152600660205260409020805460ff19169055565b6106d860008051602061139583398151915233610927565b6106f45760405162461bcd60e51b815260040161060890611214565b600083815260026020526040902061070d908383610f7a565b50505050565b60008281526020819052604090206001015461072e81610c80565b6107388383610c8a565b505050565b6001600160a01b03811633146107ad5760405162461bcd60e51b815260206004820152602f60248201527f416363657373436f6e74726f6c3a2063616e206f6e6c792072656e6f756e636560448201526e103937b632b9903337b91039b2b63360891b6064820152608401610608565b6107b78282610d0e565b5050565b6107d360008051602061139583398151915233610927565b6107ef5760405162461bcd60e51b815260040161060890611214565b60009182526004602052604090912055565b61081960008051602061139583398151915233610927565b6108355760405162461bcd60e51b815260040161060890611214565b60009182526007602052604090912055565b61085f60008051602061139583398151915233610927565b61087b5760405162461bcd60e51b815260040161060890611214565b600081815260026020526040812061089291610ffe565b50565b6108ad60008051602061139583398151915233610927565b6108c95760405162461bcd60e51b815260040161060890611214565b600083815260016020526040902061070d908383610f7a565b6108fa60008051602061139583398151915233610927565b6109165760405162461bcd60e51b815260040161060890611214565b600090815260046020526040812055565b6000918252602082815260408084206001600160a01b0393909316845291905290205460ff1690565b600081815260016020526040902080546060919061096d9061123e565b80601f01602080910402602001604051908101604052809291908181526020018280546109999061123e565b80156109e65780601f106109bb576101008083540402835291602001916109e6565b820191906000526020600020905b8154815290600101906020018083116109c957829003601f168201915b50505050509050919050565b610a0a60008051602061139583398151915233610927565b610a265760405162461bcd60e51b815260040161060890611214565b600091825260066020526040909120805460ff1916911515919091179055565b610a5e60008051602061139583398151915233610927565b610a7a5760405162461bcd60e51b815260040161060890611214565b60008281526003602052604081208054839290610a9890849061128e565b9182905550600093845260036020526040909320929092555050565b600081815260026020526040902080546060919061096d9061123e565b610ae960008051602061139583398151915233610927565b610b055760405162461bcd60e51b815260040161060890611214565b60009182526005602052604090912080546001600160a01b0319166001600160a01b03909216919091179055565b600082815260208190526040902060010154610b4e81610c80565b6107388383610d0e565b610b7060008051602061139583398151915233610927565b610b8c5760405162461bcd60e51b815260040161060890611214565b60009182526003602052604090912055565b610bb660008051602061139583398151915233610927565b610bd25760405162461bcd60e51b815260040161060890611214565b600090815260036020526040812055565b610bfb60008051602061139583398151915233610927565b610c175760405162461bcd60e51b815260040161060890611214565b60008281526003602052604081208054839290610a989084906112a6565b610c4d60008051602061139583398151915233610927565b610c695760405162461bcd60e51b815260040161060890611214565b600081815260016020526040812061089291610ffe565b6108928133610d73565b610c948282610927565b6107b7576000828152602081815260408083206001600160a01b03851684529091529020805460ff19166001179055610cca3390565b6001600160a01b0316816001600160a01b0316837f2f8788117e7eff1d82e926ec794901d17c78024a50270940304540a733656f0d60405160405180910390a45050565b610d188282610927565b156107b7576000828152602081815260408083206001600160a01b0385168085529252808320805460ff1916905551339285917ff6391f5c32d9c69d2a47ea670b442974b53935d1edc7fd64eb21e047a839171b9190a45050565b610d7d8282610927565b6107b757610d95816001600160a01b03166014610dd7565b610da0836020610dd7565b604051602001610db19291906112bd565b60408051601f198184030181529082905262461bcd60e51b8252610608916004016111d7565b60606000610de6836002611332565b610df190600261128e565b67ffffffffffffffff811115610e0957610e09611351565b6040519080825280601f01601f191660200182016040528015610e33576020820181803683370190505b509050600360fc1b81600081518110610e4e57610e4e611367565b60200101906001600160f81b031916908160001a905350600f60fb1b81600181518110610e7d57610e7d611367565b60200101906001600160f81b031916908160001a9053506000610ea1846002611332565b610eac90600161128e565b90505b6001811115610f24576f181899199a1a9b1b9c1cb0b131b232b360811b85600f1660108110610ee057610ee0611367565b1a60f81b828281518110610ef657610ef6611367565b60200101906001600160f81b031916908160001a90535060049490941c93610f1d8161137d565b9050610eaf565b508315610f735760405162461bcd60e51b815260206004820181905260248201527f537472696e67733a20686578206c656e67746820696e73756666696369656e746044820152606401610608565b9392505050565b828054610f869061123e565b90600052602060002090601f016020900481019282610fa85760008555610fee565b82601f10610fc15782800160ff19823516178555610fee565b82800160010185558215610fee579182015b82811115610fee578235825591602001919060010190610fd3565b50610ffa929150611034565b5090565b50805461100a9061123e565b6000825580601f1061101a575050565b601f01602090049060005260206000209081019061089291905b5b80821115610ffa5760008155600101611035565b60006020828403121561105b57600080fd5b81356001600160e01b031981168114610f7357600080fd5b60006020828403121561108557600080fd5b5035919050565b60008083601f84011261109e57600080fd5b50813567ffffffffffffffff8111156110b657600080fd5b6020830191508360208285010111156110ce57600080fd5b9250929050565b6000806000604084860312156110ea57600080fd5b83359250602084013567ffffffffffffffff81111561110857600080fd5b6111148682870161108c565b9497909650939450505050565b6000806040838503121561113457600080fd5b8235915060208301356001600160a01b038116811461115257600080fd5b809150509250929050565b6000806040838503121561117057600080fd5b50508035926020909101359150565b60005b8381101561119a578181015183820152602001611182565b8381111561070d5750506000910152565b600081518084526111c381602086016020860161117f565b601f01601f19169290920160200192915050565b602081526000610f7360208301846111ab565b600080604083850312156111fd57600080fd5b823591506020830135801515811461115257600080fd5b60208082526010908201526f41646d696e2063616c6c73206f6e6c7960801b604082015260600190565b600181811c9082168061125257607f821691505b60208210810361127257634e487b7160e01b600052602260045260246000fd5b50919050565b634e487b7160e01b600052601160045260246000fd5b600082198211156112a1576112a1611278565b500190565b6000828210156112b8576112b8611278565b500390565b7f416363657373436f6e74726f6c3a206163636f756e74200000000000000000008152600083516112f581601785016020880161117f565b7001034b99036b4b9b9b4b733903937b6329607d1b601791840191820152835161132681602884016020880161117f565b01602801949350505050565b600081600019048311821515161561134c5761134c611278565b500290565b634e487b7160e01b600052604160045260246000fd5b634e487b7160e01b600052603260045260246000fd5b60008161138c5761138c611278565b50600019019056fee303cb88ace8c9e6ba216f1aecb44b3206dcab364c60512ffc6cbc920a1bf9d1a26469706673582212207809d88a92cd182bbfdd2fddb4da7597f7946f9c1bc30c74ca8fe5cfffead9e464736f6c634300080e0033",
  "linkReferences": {},
  "deployedLinkReferences": {}
}