{
  "_format": "hh-sol-artifact-1",
  "contractName": "SageStorage",
  "sourceName": "contracts/Utils/SageStorage.sol",
  "abi": [
    {
      "inputs": [
        {
          "internalType": "address",
          "name": "admin",
          "type": "address"
        }
      ],
      "stateMutability": "nonpayable",
      "type": "constructor"
    },
    {
      "anonymous": false,
      "inputs": [
        {
          "indexed": true,
          "internalType": "bytes32",
          "name": "role",
          "type": "bytes32"
        },
        {
          "indexed": true,
          "internalType": "bytes32",
          "name": "previousAdminRole",
          "type": "bytes32"
        },
        {
          "indexed": true,
          "internalType": "bytes32",
          "name": "newAdminRole",
          "type": "bytes32"
        }
      ],
      "name": "RoleAdminChanged",
      "type": "event"
    },
    {
      "anonymous": false,
      "inputs": [
        {
          "indexed": true,
          "internalType": "bytes32",
          "name": "role",
          "type": "bytes32"
        },
        {
          "indexed": true,
          "internalType": "address",
          "name": "account",
          "type": "address"
        },
        {
          "indexed": true,
          "internalType": "address",
          "name": "sender",
          "type": "address"
        }
      ],
      "name": "RoleGranted",
      "type": "event"
    },
    {
      "anonymous": false,
      "inputs": [
        {
          "indexed": true,
          "internalType": "bytes32",
          "name": "role",
          "type": "bytes32"
        },
        {
          "indexed": true,
          "internalType": "address",
          "name": "account",
          "type": "address"
        },
        {
          "indexed": true,
          "internalType": "address",
          "name": "sender",
          "type": "address"
        }
      ],
      "name": "RoleRevoked",
      "type": "event"
    },
    {
      "inputs": [],
      "name": "ARTIST_ROLE",
      "outputs": [
        {
          "internalType": "bytes32",
          "name": "",
          "type": "bytes32"
        }
      ],
      "stateMutability": "view",
      "type": "function"
    },
    {
      "inputs": [],
      "name": "BURNER_ROLE",
      "outputs": [
        {
          "internalType": "bytes32",
          "name": "",
          "type": "bytes32"
        }
      ],
      "stateMutability": "view",
      "type": "function"
    },
    {
      "inputs": [],
      "name": "DEFAULT_ADMIN_ROLE",
      "outputs": [
        {
          "internalType": "bytes32",
          "name": "",
          "type": "bytes32"
        }
      ],
      "stateMutability": "view",
      "type": "function"
    },
    {
      "inputs": [],
      "name": "MANAGE_POINTS_ROLE",
      "outputs": [
        {
          "internalType": "bytes32",
          "name": "",
          "type": "bytes32"
        }
      ],
      "stateMutability": "view",
      "type": "function"
    },
    {
      "inputs": [],
      "name": "MINTER_ROLE",
      "outputs": [
        {
          "internalType": "bytes32",
          "name": "",
          "type": "bytes32"
        }
      ],
      "stateMutability": "view",
      "type": "function"
    },
    {
      "inputs": [
        {
          "internalType": "bytes32",
          "name": "_key",
          "type": "bytes32"
        },
        {
          "internalType": "uint256",
          "name": "_amount",
          "type": "uint256"
        }
      ],
      "name": "addUint",
      "outputs": [],
      "stateMutability": "nonpayable",
      "type": "function"
    },
    {
      "inputs": [
        {
          "internalType": "bytes32",
          "name": "_key",
          "type": "bytes32"
        }
      ],
      "name": "deleteAddress",
      "outputs": [],
      "stateMutability": "nonpayable",
      "type": "function"
    },
    {
      "inputs": [
        {
          "internalType": "bytes32",
          "name": "_key",
          "type": "bytes32"
        }
      ],
      "name": "deleteBool",
      "outputs": [],
      "stateMutability": "nonpayable",
      "type": "function"
    },
    {
      "inputs": [
        {
          "internalType": "bytes32",
          "name": "_key",
          "type": "bytes32"
        }
      ],
      "name": "deleteBytes",
      "outputs": [],
      "stateMutability": "nonpayable",
      "type": "function"
    },
    {
      "inputs": [
        {
          "internalType": "bytes32",
          "name": "_key",
          "type": "bytes32"
        }
      ],
      "name": "deleteBytes32",
      "outputs": [],
      "stateMutability": "nonpayable",
      "type": "function"
    },
    {
      "inputs": [
        {
          "internalType": "bytes32",
          "name": "_key",
          "type": "bytes32"
        }
      ],
      "name": "deleteInt",
      "outputs": [],
      "stateMutability": "nonpayable",
      "type": "function"
    },
    {
      "inputs": [
        {
          "internalType": "bytes32",
          "name": "_key",
          "type": "bytes32"
        }
      ],
      "name": "deleteString",
      "outputs": [],
      "stateMutability": "nonpayable",
      "type": "function"
    },
    {
      "inputs": [
        {
          "internalType": "bytes32",
          "name": "_key",
          "type": "bytes32"
        }
      ],
      "name": "deleteUint",
      "outputs": [],
      "stateMutability": "nonpayable",
      "type": "function"
    },
    {
      "inputs": [
        {
          "internalType": "bytes32",
          "name": "_key",
          "type": "bytes32"
        }
      ],
      "name": "getAddress",
      "outputs": [
        {
          "internalType": "address",
          "name": "r",
          "type": "address"
        }
      ],
      "stateMutability": "view",
      "type": "function"
    },
    {
      "inputs": [
        {
          "internalType": "bytes32",
          "name": "_key",
          "type": "bytes32"
        }
      ],
      "name": "getBool",
      "outputs": [
        {
          "internalType": "bool",
          "name": "r",
          "type": "bool"
        }
      ],
      "stateMutability": "view",
      "type": "function"
    },
    {
      "inputs": [
        {
          "internalType": "bytes32",
          "name": "_key",
          "type": "bytes32"
        }
      ],
      "name": "getBytes",
      "outputs": [
        {
          "internalType": "bytes",
          "name": "",
          "type": "bytes"
        }
      ],
      "stateMutability": "view",
      "type": "function"
    },
    {
      "inputs": [
        {
          "internalType": "bytes32",
          "name": "_key",
          "type": "bytes32"
        }
      ],
      "name": "getBytes32",
      "outputs": [
        {
          "internalType": "bytes32",
          "name": "r",
          "type": "bytes32"
        }
      ],
      "stateMutability": "view",
      "type": "function"
    },
    {
      "inputs": [
        {
          "internalType": "bytes32",
          "name": "_key",
          "type": "bytes32"
        }
      ],
      "name": "getInt",
      "outputs": [
        {
          "internalType": "int256",
          "name": "r",
          "type": "int256"
        }
      ],
      "stateMutability": "view",
      "type": "function"
    },
    {
      "inputs": [
        {
          "internalType": "bytes32",
          "name": "role",
          "type": "bytes32"
        }
      ],
      "name": "getRoleAdmin",
      "outputs": [
        {
          "internalType": "bytes32",
          "name": "",
          "type": "bytes32"
        }
      ],
      "stateMutability": "view",
      "type": "function"
    },
    {
      "inputs": [
        {
          "internalType": "bytes32",
          "name": "_key",
          "type": "bytes32"
        }
      ],
      "name": "getString",
      "outputs": [
        {
          "internalType": "string",
          "name": "",
          "type": "string"
        }
      ],
      "stateMutability": "view",
      "type": "function"
    },
    {
      "inputs": [
        {
          "internalType": "bytes32",
          "name": "_key",
          "type": "bytes32"
        }
      ],
      "name": "getUint",
      "outputs": [
        {
          "internalType": "uint256",
          "name": "r",
          "type": "uint256"
        }
      ],
      "stateMutability": "view",
      "type": "function"
    },
    {
      "inputs": [
        {
          "internalType": "address",
          "name": "account",
          "type": "address"
        }
      ],
      "name": "grantAdmin",
      "outputs": [],
      "stateMutability": "nonpayable",
      "type": "function"
    },
    {
      "inputs": [
        {
          "internalType": "bytes32",
          "name": "role",
          "type": "bytes32"
        },
        {
          "internalType": "address",
          "name": "account",
          "type": "address"
        }
      ],
      "name": "grantRole",
      "outputs": [],
      "stateMutability": "nonpayable",
      "type": "function"
    },
    {
      "inputs": [
        {
          "internalType": "bytes32",
          "name": "role",
          "type": "bytes32"
        },
        {
          "internalType": "address",
          "name": "account",
          "type": "address"
        }
      ],
      "name": "hasRole",
      "outputs": [
        {
          "internalType": "bool",
          "name": "",
          "type": "bool"
        }
      ],
      "stateMutability": "view",
      "type": "function"
    },
    {
      "inputs": [
        {
          "internalType": "bytes32",
          "name": "role",
          "type": "bytes32"
        },
        {
          "internalType": "address",
          "name": "account",
          "type": "address"
        }
      ],
      "name": "renounceRole",
      "outputs": [],
      "stateMutability": "nonpayable",
      "type": "function"
    },
    {
      "inputs": [
        {
          "internalType": "bytes32",
          "name": "role",
          "type": "bytes32"
        },
        {
          "internalType": "address",
          "name": "account",
          "type": "address"
        }
      ],
      "name": "revokeRole",
      "outputs": [],
      "stateMutability": "nonpayable",
      "type": "function"
    },
    {
      "inputs": [
        {
          "internalType": "bytes32",
          "name": "_key",
          "type": "bytes32"
        },
        {
          "internalType": "address",
          "name": "_value",
          "type": "address"
        }
      ],
      "name": "setAddress",
      "outputs": [],
      "stateMutability": "nonpayable",
      "type": "function"
    },
    {
      "inputs": [
        {
          "internalType": "bytes32",
          "name": "_key",
          "type": "bytes32"
        },
        {
          "internalType": "bool",
          "name": "_value",
          "type": "bool"
        }
      ],
      "name": "setBool",
      "outputs": [],
      "stateMutability": "nonpayable",
      "type": "function"
    },
    {
      "inputs": [
        {
          "internalType": "bytes32",
          "name": "_key",
          "type": "bytes32"
        },
        {
          "internalType": "bytes",
          "name": "_value",
          "type": "bytes"
        }
      ],
      "name": "setBytes",
      "outputs": [],
      "stateMutability": "nonpayable",
      "type": "function"
    },
    {
      "inputs": [
        {
          "internalType": "bytes32",
          "name": "_key",
          "type": "bytes32"
        },
        {
          "internalType": "bytes32",
          "name": "_value",
          "type": "bytes32"
        }
      ],
      "name": "setBytes32",
      "outputs": [],
      "stateMutability": "nonpayable",
      "type": "function"
    },
    {
      "inputs": [
        {
          "internalType": "bytes32",
          "name": "_key",
          "type": "bytes32"
        },
        {
          "internalType": "int256",
          "name": "_value",
          "type": "int256"
        }
      ],
      "name": "setInt",
      "outputs": [],
      "stateMutability": "nonpayable",
      "type": "function"
    },
    {
      "inputs": [
        {
          "internalType": "bytes32",
          "name": "_key",
          "type": "bytes32"
        },
        {
          "internalType": "string",
          "name": "_value",
          "type": "string"
        }
      ],
      "name": "setString",
      "outputs": [],
      "stateMutability": "nonpayable",
      "type": "function"
    },
    {
      "inputs": [
        {
          "internalType": "bytes32",
          "name": "_key",
          "type": "bytes32"
        },
        {
          "internalType": "uint256",
          "name": "_value",
          "type": "uint256"
        }
      ],
      "name": "setUint",
      "outputs": [],
      "stateMutability": "nonpayable",
      "type": "function"
    },
    {
      "inputs": [
        {
          "internalType": "bytes32",
          "name": "_key",
          "type": "bytes32"
        },
        {
          "internalType": "uint256",
          "name": "_amount",
          "type": "uint256"
        }
      ],
      "name": "subUint",
      "outputs": [],
      "stateMutability": "nonpayable",
      "type": "function"
    },
    {
      "inputs": [
        {
          "internalType": "bytes4",
          "name": "interfaceId",
          "type": "bytes4"
        }
      ],
      "name": "supportsInterface",
      "outputs": [
        {
          "internalType": "bool",
          "name": "",
          "type": "bool"
        }
      ],
      "stateMutability": "view",
      "type": "function"
    }
  ],
  "bytecode": "0x608060405234801561001057600080fd5b5060405161147a38038061147a83398101604081905261002f916100df565b61003a600082610040565b5061010f565b6000828152602081815260408083206001600160a01b038516845290915290205460ff166100db576000828152602081815260408083206001600160a01b03851684529091529020805460ff1916600117905561009a3390565b6001600160a01b0316816001600160a01b0316837f2f8788117e7eff1d82e926ec794901d17c78024a50270940304540a733656f0d60405160405180910390a45b5050565b6000602082840312156100f157600080fd5b81516001600160a01b038116811461010857600080fd5b9392505050565b61135c8061011e6000396000f3fe608060405234801561001057600080fd5b50600436106102115760003560e01c80638c16009511610125578063c031a180116100ad578063dc97d9621161007c578063dc97d9621461052f578063e2a4853a1461054f578063e2b202bf14610562578063ebb9d8c914610575578063f6bb3cc41461058857600080fd5b8063c031a180146104cf578063ca446dd9146104e2578063d5391393146104f5578063d547741f1461051c57600080fd5b8063a6ed563e116100f4578063a6ed563e14610442578063a966a0df14610462578063abfdcced14610489578063adb353dc1461049c578063bd02d0f5146104af57600080fd5b80638c160095146103f457806391d1485414610407578063986e791a1461041a578063a217fddf1461043a57600080fd5b80632f2ff15d116101a857806349123dac1161017757806349123dac146103715780634e91db0814610398578063616b59f6146103ab5780636e899550146103be5780637ae1cfca146103d157600080fd5b80632f2ff15d1461032557806335bb3e161461033857806336568abe1461034b5780633e49bed01461035e57600080fd5b8063248a9ca3116101e4578063248a9ca3146102a7578063282c51f3146102d85780632c62ff2d146102ff5780632e28d0841461031257600080fd5b806301ffc9a7146102165780630b9adc571461023e5780630e14a3761461025357806321f8a72114610266575b600080fd5b610229610224366004610fa9565b61059b565b60405190151581526020015b60405180910390f35b61025161024c366004610fd3565b6105d2565b005b610251610261366004610fd3565b610613565b61028f610274366004610fd3565b6000908152600560205260409020546001600160a01b031690565b6040516001600160a01b039091168152602001610235565b6102ca6102b5366004610fd3565b60009081526020819052604090206001015490565b604051908152602001610235565b6102ca7f3b25106add3a89098ef82030314e486ca1f967bd742e45817c5014c5ef3e806481565b61025161030d366004610fd3565b610658565b610251610320366004611035565b610697565b61025161033336600461109d565b6106dd565b6102516103463660046110c9565b610707565b61025161035936600461109d565b61073c565b61025161036c3660046110e4565b6107ba565b6102ca7f408bc7479ef9119d5f38cec4b670571000f4d832df9a54fc1998e43ee684284181565b6102516103a63660046110e4565b6107f3565b6102516103b9366004610fd3565b61082c565b6102516103cc366004611035565b61086a565b6102296103df366004610fd3565b60009081526006602052604090205460ff1690565b610251610402366004610fd3565b6108aa565b61022961041536600461109d565b6108e2565b61042d610428366004610fd3565b61090b565b604051610235919061115e565b6102ca600081565b6102ca610450366004610fd3565b60009081526007602052604090205490565b6102ca7fc18c9ce59aaa739e2eb7c0e63fb0e95821f115c643b2d4c9d3d194ec807d510081565b610251610497366004611171565b6109ad565b6102516104aa3660046110e4565b6109f4565b6102ca6104bd366004610fd3565b60009081526003602052604090205490565b61042d6104dd366004610fd3565b610a55565b6102516104f036600461109d565b610a72565b6102ca7f43c12360602d49748153591f2df5a853821ec8410115f225b90a7a49bd5d2bb981565b61025161052a36600461109d565b610ac7565b6102ca61053d366004610fd3565b60009081526004602052604090205490565b61025161055d3660046110e4565b610aec565b610251610570366004610fd3565b610b25565b6102516105833660046110e4565b610b5d565b610251610596366004610fd3565b610ba2565b60006001600160e01b03198216637965db0b60e01b14806105cc57506301ffc9a760e01b6001600160e01b03198316145b92915050565b6105dd6000336108e2565b6106025760405162461bcd60e51b81526004016105f9906111a6565b60405180910390fd5b600090815260076020526040812055565b61061e6000336108e2565b61063a5760405162461bcd60e51b81526004016105f9906111a6565b600090815260056020526040902080546001600160a01b0319169055565b6106636000336108e2565b61067f5760405162461bcd60e51b81526004016105f9906111a6565b6000908152600660205260409020805460ff19169055565b6106a26000336108e2565b6106be5760405162461bcd60e51b81526004016105f9906111a6565b60008381526002602052604090206106d7908383610eda565b50505050565b6000828152602081905260409020600101546106f881610be0565b6107028383610bea565b505050565b6107126000336108e2565b61072e5760405162461bcd60e51b81526004016105f9906111a6565b610739600082610bea565b50565b6001600160a01b03811633146107ac5760405162461bcd60e51b815260206004820152602f60248201527f416363657373436f6e74726f6c3a2063616e206f6e6c792072656e6f756e636560448201526e103937b632b9903337b91039b2b63360891b60648201526084016105f9565b6107b68282610c6e565b5050565b6107c56000336108e2565b6107e15760405162461bcd60e51b81526004016105f9906111a6565b60009182526004602052604090912055565b6107fe6000336108e2565b61081a5760405162461bcd60e51b81526004016105f9906111a6565b60009182526007602052604090912055565b6108376000336108e2565b6108535760405162461bcd60e51b81526004016105f9906111a6565b600081815260026020526040812061073991610f5e565b6108756000336108e2565b6108915760405162461bcd60e51b81526004016105f9906111a6565b60008381526001602052604090206106d7908383610eda565b6108b56000336108e2565b6108d15760405162461bcd60e51b81526004016105f9906111a6565b600090815260046020526040812055565b6000918252602082815260408084206001600160a01b0393909316845291905290205460ff1690565b6000818152600160205260409020805460609190610928906111d0565b80601f0160208091040260200160405190810160405280929190818152602001828054610954906111d0565b80156109a15780601f10610976576101008083540402835291602001916109a1565b820191906000526020600020905b81548152906001019060200180831161098457829003601f168201915b50505050509050919050565b6109b86000336108e2565b6109d45760405162461bcd60e51b81526004016105f9906111a6565b600091825260066020526040909120805460ff1916911515919091179055565b6109ff6000336108e2565b610a1b5760405162461bcd60e51b81526004016105f9906111a6565b60008281526003602052604081208054839290610a39908490611220565b9182905550600093845260036020526040909320929092555050565b6000818152600260205260409020805460609190610928906111d0565b610a7d6000336108e2565b610a995760405162461bcd60e51b81526004016105f9906111a6565b60009182526005602052604090912080546001600160a01b0319166001600160a01b03909216919091179055565b600082815260208190526040902060010154610ae281610be0565b6107028383610c6e565b610af76000336108e2565b610b135760405162461bcd60e51b81526004016105f9906111a6565b60009182526003602052604090912055565b610b306000336108e2565b610b4c5760405162461bcd60e51b81526004016105f9906111a6565b600090815260036020526040812055565b610b686000336108e2565b610b845760405162461bcd60e51b81526004016105f9906111a6565b60008281526003602052604081208054839290610a39908490611238565b610bad6000336108e2565b610bc95760405162461bcd60e51b81526004016105f9906111a6565b600081815260016020526040812061073991610f5e565b6107398133610cd3565b610bf482826108e2565b6107b6576000828152602081815260408083206001600160a01b03851684529091529020805460ff19166001179055610c2a3390565b6001600160a01b0316816001600160a01b0316837f2f8788117e7eff1d82e926ec794901d17c78024a50270940304540a733656f0d60405160405180910390a45050565b610c7882826108e2565b156107b6576000828152602081815260408083206001600160a01b0385168085529252808320805460ff1916905551339285917ff6391f5c32d9c69d2a47ea670b442974b53935d1edc7fd64eb21e047a839171b9190a45050565b610cdd82826108e2565b6107b657610cf5816001600160a01b03166014610d37565b610d00836020610d37565b604051602001610d1192919061124f565b60408051601f198184030181529082905262461bcd60e51b82526105f99160040161115e565b60606000610d468360026112c4565b610d51906002611220565b67ffffffffffffffff811115610d6957610d696112e3565b6040519080825280601f01601f191660200182016040528015610d93576020820181803683370190505b509050600360fc1b81600081518110610dae57610dae6112f9565b60200101906001600160f81b031916908160001a905350600f60fb1b81600181518110610ddd57610ddd6112f9565b60200101906001600160f81b031916908160001a9053506000610e018460026112c4565b610e0c906001611220565b90505b6001811115610e84576f181899199a1a9b1b9c1cb0b131b232b360811b85600f1660108110610e4057610e406112f9565b1a60f81b828281518110610e5657610e566112f9565b60200101906001600160f81b031916908160001a90535060049490941c93610e7d8161130f565b9050610e0f565b508315610ed35760405162461bcd60e51b815260206004820181905260248201527f537472696e67733a20686578206c656e67746820696e73756666696369656e7460448201526064016105f9565b9392505050565b828054610ee6906111d0565b90600052602060002090601f016020900481019282610f085760008555610f4e565b82601f10610f215782800160ff19823516178555610f4e565b82800160010185558215610f4e579182015b82811115610f4e578235825591602001919060010190610f33565b50610f5a929150610f94565b5090565b508054610f6a906111d0565b6000825580601f10610f7a575050565b601f01602090049060005260206000209081019061073991905b5b80821115610f5a5760008155600101610f95565b600060208284031215610fbb57600080fd5b81356001600160e01b031981168114610ed357600080fd5b600060208284031215610fe557600080fd5b5035919050565b60008083601f840112610ffe57600080fd5b50813567ffffffffffffffff81111561101657600080fd5b60208301915083602082850101111561102e57600080fd5b9250929050565b60008060006040848603121561104a57600080fd5b83359250602084013567ffffffffffffffff81111561106857600080fd5b61107486828701610fec565b9497909650939450505050565b80356001600160a01b038116811461109857600080fd5b919050565b600080604083850312156110b057600080fd5b823591506110c060208401611081565b90509250929050565b6000602082840312156110db57600080fd5b610ed382611081565b600080604083850312156110f757600080fd5b50508035926020909101359150565b60005b83811015611121578181015183820152602001611109565b838111156106d75750506000910152565b6000815180845261114a816020860160208601611106565b601f01601f19169290920160200192915050565b602081526000610ed36020830184611132565b6000806040838503121561118457600080fd5b823591506020830135801515811461119b57600080fd5b809150509250929050565b60208082526010908201526f41646d696e2063616c6c73206f6e6c7960801b604082015260600190565b600181811c908216806111e457607f821691505b60208210810361120457634e487b7160e01b600052602260045260246000fd5b50919050565b634e487b7160e01b600052601160045260246000fd5b600082198211156112335761123361120a565b500190565b60008282101561124a5761124a61120a565b500390565b7f416363657373436f6e74726f6c3a206163636f756e7420000000000000000000815260008351611287816017850160208801611106565b7001034b99036b4b9b9b4b733903937b6329607d1b60179184019182015283516112b8816028840160208801611106565b01602801949350505050565b60008160001904831182151516156112de576112de61120a565b500290565b634e487b7160e01b600052604160045260246000fd5b634e487b7160e01b600052603260045260246000fd5b60008161131e5761131e61120a565b50600019019056fea26469706673582212207a175a8f2385ccd1d60cf90ac36944af2b7c452c8eac094e8d722cfc6c14d16664736f6c634300080e0033",
  "linkReferences": {},
  "deployedLinkReferences": {}
}