{
  "_format": "hh-sol-artifact-1",
  "contractName": "SageStorage",
  "sourceName": "contracts/Utils/SageStorage.sol",
  "abi": [
    {
      "inputs": [
        {
          "internalType": "address",
          "name": "_admin",
          "type": "address"
        },
        {
          "internalType": "address",
          "name": "_multisig",
          "type": "address"
        }
      ],
      "stateMutability": "nonpayable",
      "type": "constructor"
    },
    {
      "anonymous": false,
      "inputs": [
        {
          "indexed": true,
          "internalType": "bytes32",
          "name": "role",
          "type": "bytes32"
        },
        {
          "indexed": true,
          "internalType": "bytes32",
          "name": "previousAdminRole",
          "type": "bytes32"
        },
        {
          "indexed": true,
          "internalType": "bytes32",
          "name": "newAdminRole",
          "type": "bytes32"
        }
      ],
      "name": "RoleAdminChanged",
      "type": "event"
    },
    {
      "anonymous": false,
      "inputs": [
        {
          "indexed": true,
          "internalType": "bytes32",
          "name": "role",
          "type": "bytes32"
        },
        {
          "indexed": true,
          "internalType": "address",
          "name": "account",
          "type": "address"
        },
        {
          "indexed": true,
          "internalType": "address",
          "name": "sender",
          "type": "address"
        }
      ],
      "name": "RoleGranted",
      "type": "event"
    },
    {
      "anonymous": false,
      "inputs": [
        {
          "indexed": true,
          "internalType": "bytes32",
          "name": "role",
          "type": "bytes32"
        },
        {
          "indexed": true,
          "internalType": "address",
          "name": "account",
          "type": "address"
        },
        {
          "indexed": true,
          "internalType": "address",
          "name": "sender",
          "type": "address"
        }
      ],
      "name": "RoleRevoked",
      "type": "event"
    },
    {
      "inputs": [],
      "name": "ADMIN_ROLE",
      "outputs": [
        {
          "internalType": "bytes32",
          "name": "",
          "type": "bytes32"
        }
      ],
      "stateMutability": "view",
      "type": "function"
    },
    {
      "inputs": [],
      "name": "ARTIST_ROLE",
      "outputs": [
        {
          "internalType": "bytes32",
          "name": "",
          "type": "bytes32"
        }
      ],
      "stateMutability": "view",
      "type": "function"
    },
    {
      "inputs": [],
      "name": "BURNER_ROLE",
      "outputs": [
        {
          "internalType": "bytes32",
          "name": "",
          "type": "bytes32"
        }
      ],
      "stateMutability": "view",
      "type": "function"
    },
    {
      "inputs": [],
      "name": "DEFAULT_ADMIN_ROLE",
      "outputs": [
        {
          "internalType": "bytes32",
          "name": "",
          "type": "bytes32"
        }
      ],
      "stateMutability": "view",
      "type": "function"
    },
    {
      "inputs": [],
      "name": "MANAGE_POINTS_ROLE",
      "outputs": [
        {
          "internalType": "bytes32",
          "name": "",
          "type": "bytes32"
        }
      ],
      "stateMutability": "view",
      "type": "function"
    },
    {
      "inputs": [],
      "name": "MINTER_ROLE",
      "outputs": [
        {
          "internalType": "bytes32",
          "name": "",
          "type": "bytes32"
        }
      ],
      "stateMutability": "view",
      "type": "function"
    },
    {
      "inputs": [
        {
          "internalType": "bytes32",
          "name": "_key",
          "type": "bytes32"
        }
      ],
      "name": "deleteAddress",
      "outputs": [],
      "stateMutability": "nonpayable",
      "type": "function"
    },
    {
      "inputs": [
        {
          "internalType": "bytes32",
          "name": "_key",
          "type": "bytes32"
        }
      ],
      "name": "getAddress",
      "outputs": [
        {
          "internalType": "address",
          "name": "r",
          "type": "address"
        }
      ],
      "stateMutability": "view",
      "type": "function"
    },
    {
      "inputs": [
        {
          "internalType": "bytes32",
          "name": "role",
          "type": "bytes32"
        }
      ],
      "name": "getRoleAdmin",
      "outputs": [
        {
          "internalType": "bytes32",
          "name": "",
          "type": "bytes32"
        }
      ],
      "stateMutability": "view",
      "type": "function"
    },
    {
      "inputs": [
        {
          "internalType": "bytes32",
          "name": "role",
          "type": "bytes32"
        },
        {
          "internalType": "address",
          "name": "account",
          "type": "address"
        }
      ],
      "name": "grantRole",
      "outputs": [],
      "stateMutability": "nonpayable",
      "type": "function"
    },
    {
      "inputs": [
        {
          "internalType": "bytes32",
          "name": "role",
          "type": "bytes32"
        },
        {
          "internalType": "address",
          "name": "account",
          "type": "address"
        }
      ],
      "name": "hasRole",
      "outputs": [
        {
          "internalType": "bool",
          "name": "",
          "type": "bool"
        }
      ],
      "stateMutability": "view",
      "type": "function"
    },
    {
      "inputs": [],
      "name": "multisig",
      "outputs": [
        {
          "internalType": "address",
          "name": "",
          "type": "address"
        }
      ],
      "stateMutability": "view",
      "type": "function"
    },
    {
      "inputs": [
        {
          "internalType": "bytes32",
          "name": "role",
          "type": "bytes32"
        },
        {
          "internalType": "address",
          "name": "account",
          "type": "address"
        }
      ],
      "name": "renounceRole",
      "outputs": [],
      "stateMutability": "nonpayable",
      "type": "function"
    },
    {
      "inputs": [
        {
          "internalType": "bytes32",
          "name": "role",
          "type": "bytes32"
        },
        {
          "internalType": "address",
          "name": "account",
          "type": "address"
        }
      ],
      "name": "revokeRole",
      "outputs": [],
      "stateMutability": "nonpayable",
      "type": "function"
    },
    {
      "inputs": [
        {
          "internalType": "bytes32",
          "name": "_key",
          "type": "bytes32"
        },
        {
          "internalType": "address",
          "name": "_value",
          "type": "address"
        }
      ],
      "name": "setAddress",
      "outputs": [],
      "stateMutability": "nonpayable",
      "type": "function"
    },
    {
      "inputs": [
        {
          "internalType": "address",
          "name": "_multisig",
          "type": "address"
        }
      ],
      "name": "setMultisig",
      "outputs": [],
      "stateMutability": "nonpayable",
      "type": "function"
    },
    {
      "inputs": [
        {
          "internalType": "bytes32",
          "name": "role",
          "type": "bytes32"
        },
        {
          "internalType": "bytes32",
          "name": "adminRole",
          "type": "bytes32"
        }
      ],
      "name": "setRoleAdmin",
      "outputs": [],
      "stateMutability": "nonpayable",
      "type": "function"
    },
    {
      "inputs": [
        {
          "internalType": "bytes4",
          "name": "interfaceId",
          "type": "bytes4"
        }
      ],
      "name": "supportsInterface",
      "outputs": [
        {
          "internalType": "bool",
          "name": "",
          "type": "bool"
        }
      ],
      "stateMutability": "view",
      "type": "function"
    }
  ],
  "bytecode": "0x60806040523480156200001157600080fd5b5060405162000e3e38038062000e3e8339810160408190526200003491620001df565b600180546001600160a01b0319166001600160a01b0383161790556200005c600082620000c7565b62000069600083620000c7565b6200008460008051602062000e1e83398151915283620000c7565b620000bf7fc18c9ce59aaa739e2eb7c0e63fb0e95821f115c643b2d4c9d3d194ec807d510060008051602062000e1e833981519152620000d7565b505062000217565b620000d3828262000122565b5050565b600082815260208190526040808220600101805490849055905190918391839186917fbd79b86ffe0ab8e8776151514217cd7cacd52c909f66475c3af44e129f0b00ff9190a4505050565b6000828152602081815260408083206001600160a01b038516845290915290205460ff16620000d3576000828152602081815260408083206001600160a01b03851684529091529020805460ff191660011790556200017e3390565b6001600160a01b0316816001600160a01b0316837f2f8788117e7eff1d82e926ec794901d17c78024a50270940304540a733656f0d60405160405180910390a45050565b80516001600160a01b0381168114620001da57600080fd5b919050565b60008060408385031215620001f357600080fd5b620001fe83620001c2565b91506200020e60208401620001c2565b90509250929050565b610bf780620002276000396000f3fe608060405234801561001057600080fd5b50600436106101165760003560e01c806349123dac116100a2578063a966a0df11610071578063a966a0df146102a6578063ca446dd9146102cd578063d5391393146102e0578063d547741f14610307578063f3283fba1461031a57600080fd5b806349123dac1461023d57806375b238fc1461026457806391d148541461028b578063a217fddf1461029e57600080fd5b8063248a9ca3116100e9578063248a9ca3146101ac578063282c51f3146101dd5780632f2ff15d1461020457806336568abe146102175780634783c35b1461022a57600080fd5b806301ffc9a71461011b5780630e14a376146101435780631e4e00911461015857806321f8a7211461016b575b600080fd5b61012e610129366004610991565b61032d565b60405190151581526020015b60405180910390f35b6101566101513660046109bb565b610364565b005b6101566101663660046109d4565b6103f0565b6101946101793660046109bb565b6000908152600260205260409020546001600160a01b031690565b6040516001600160a01b03909116815260200161013a565b6101cf6101ba3660046109bb565b60009081526020819052604090206001015490565b60405190815260200161013a565b6101cf7f3b25106add3a89098ef82030314e486ca1f967bd742e45817c5014c5ef3e806481565b610156610212366004610a12565b61044e565b610156610225366004610a12565b610478565b600154610194906001600160a01b031681565b6101cf7f408bc7479ef9119d5f38cec4b670571000f4d832df9a54fc1998e43ee684284181565b6101cf7fe303cb88ace8c9e6ba216f1aecb44b3206dcab364c60512ffc6cbc920a1bf9d181565b61012e610299366004610a12565b6104f2565b6101cf600081565b6101cf7fc18c9ce59aaa739e2eb7c0e63fb0e95821f115c643b2d4c9d3d194ec807d510081565b6101566102db366004610a12565b61051b565b6101cf7f43c12360602d49748153591f2df5a853821ec8410115f225b90a7a49bd5d2bb981565b610156610315366004610a12565b6105b2565b610156610328366004610a3e565b6105d7565b60006001600160e01b03198216637965db0b60e01b148061035e57506301ffc9a760e01b6001600160e01b03198316145b92915050565b61038e7fe303cb88ace8c9e6ba216f1aecb44b3206dcab364c60512ffc6cbc920a1bf9d1336104f2565b6103d25760405162461bcd60e51b815260206004820152601060248201526f41646d696e2063616c6c73206f6e6c7960801b60448201526064015b60405180910390fd5b600090815260026020526040902080546001600160a01b0319169055565b6001546001600160a01b031633146104405760405162461bcd60e51b81526020600482015260136024820152724d756c74697369672063616c6c73206f6e6c7960681b60448201526064016103c9565b61044a8282610649565b5050565b60008281526020819052604090206001015461046981610694565b61047383836106a1565b505050565b6001600160a01b03811633146104e85760405162461bcd60e51b815260206004820152602f60248201527f416363657373436f6e74726f6c3a2063616e206f6e6c792072656e6f756e636560448201526e103937b632b9903337b91039b2b63360891b60648201526084016103c9565b61044a8282610725565b6000918252602082815260408084206001600160a01b0393909316845291905290205460ff1690565b6105457fe303cb88ace8c9e6ba216f1aecb44b3206dcab364c60512ffc6cbc920a1bf9d1336104f2565b6105845760405162461bcd60e51b815260206004820152601060248201526f41646d696e2063616c6c73206f6e6c7960801b60448201526064016103c9565b60009182526002602052604090912080546001600160a01b0319166001600160a01b03909216919091179055565b6000828152602081905260409020600101546105cd81610694565b6104738383610725565b6001546001600160a01b031633146106275760405162461bcd60e51b81526020600482015260136024820152724d756c74697369672063616c6c73206f6e6c7960681b60448201526064016103c9565b600180546001600160a01b0319166001600160a01b0392909216919091179055565b600082815260208190526040808220600101805490849055905190918391839186917fbd79b86ffe0ab8e8776151514217cd7cacd52c909f66475c3af44e129f0b00ff9190a4505050565b61069e813361078a565b50565b6106ab82826104f2565b61044a576000828152602081815260408083206001600160a01b03851684529091529020805460ff191660011790556106e13390565b6001600160a01b0316816001600160a01b0316837f2f8788117e7eff1d82e926ec794901d17c78024a50270940304540a733656f0d60405160405180910390a45050565b61072f82826104f2565b1561044a576000828152602081815260408083206001600160a01b0385168085529252808320805460ff1916905551339285917ff6391f5c32d9c69d2a47ea670b442974b53935d1edc7fd64eb21e047a839171b9190a45050565b61079482826104f2565b61044a576107ac816001600160a01b031660146107ee565b6107b78360206107ee565b6040516020016107c8929190610a89565b60408051601f198184030181529082905262461bcd60e51b82526103c991600401610afe565b606060006107fd836002610b47565b610808906002610b66565b67ffffffffffffffff81111561082057610820610b7e565b6040519080825280601f01601f19166020018201604052801561084a576020820181803683370190505b509050600360fc1b8160008151811061086557610865610b94565b60200101906001600160f81b031916908160001a905350600f60fb1b8160018151811061089457610894610b94565b60200101906001600160f81b031916908160001a90535060006108b8846002610b47565b6108c3906001610b66565b90505b600181111561093b576f181899199a1a9b1b9c1cb0b131b232b360811b85600f16601081106108f7576108f7610b94565b1a60f81b82828151811061090d5761090d610b94565b60200101906001600160f81b031916908160001a90535060049490941c9361093481610baa565b90506108c6565b50831561098a5760405162461bcd60e51b815260206004820181905260248201527f537472696e67733a20686578206c656e67746820696e73756666696369656e7460448201526064016103c9565b9392505050565b6000602082840312156109a357600080fd5b81356001600160e01b03198116811461098a57600080fd5b6000602082840312156109cd57600080fd5b5035919050565b600080604083850312156109e757600080fd5b50508035926020909101359150565b80356001600160a01b0381168114610a0d57600080fd5b919050565b60008060408385031215610a2557600080fd5b82359150610a35602084016109f6565b90509250929050565b600060208284031215610a5057600080fd5b61098a826109f6565b60005b83811015610a74578181015183820152602001610a5c565b83811115610a83576000848401525b50505050565b7f416363657373436f6e74726f6c3a206163636f756e7420000000000000000000815260008351610ac1816017850160208801610a59565b7001034b99036b4b9b9b4b733903937b6329607d1b6017918401918201528351610af2816028840160208801610a59565b01602801949350505050565b6020815260008251806020840152610b1d816040850160208701610a59565b601f01601f19169190910160400192915050565b634e487b7160e01b600052601160045260246000fd5b6000816000190483118215151615610b6157610b61610b31565b500290565b60008219821115610b7957610b79610b31565b500190565b634e487b7160e01b600052604160045260246000fd5b634e487b7160e01b600052603260045260246000fd5b600081610bb957610bb9610b31565b50600019019056fea26469706673582212202a0d91fdcdff171ba3db713e280f6a3ac61840c8fdf9e7fba5d0ff843f89ddca64736f6c634300080e0033e303cb88ace8c9e6ba216f1aecb44b3206dcab364c60512ffc6cbc920a1bf9d1",
  "linkReferences": {},
  "deployedLinkReferences": {}
}