{
  "_format": "hh-sol-artifact-1",
  "contractName": "SageStorage",
  "sourceName": "contracts/Utils/SageStorage.sol",
  "abi": [
    {
      "inputs": [
        {
          "internalType": "address",
          "name": "_admin",
          "type": "address"
        },
        {
          "internalType": "address",
          "name": "_multisig",
          "type": "address"
        }
      ],
      "stateMutability": "nonpayable",
      "type": "constructor"
    },
    {
      "anonymous": false,
      "inputs": [
        {
          "indexed": true,
          "internalType": "bytes32",
          "name": "role",
          "type": "bytes32"
        },
        {
          "indexed": true,
          "internalType": "bytes32",
          "name": "previousAdminRole",
          "type": "bytes32"
        },
        {
          "indexed": true,
          "internalType": "bytes32",
          "name": "newAdminRole",
          "type": "bytes32"
        }
      ],
      "name": "RoleAdminChanged",
      "type": "event"
    },
    {
      "anonymous": false,
      "inputs": [
        {
          "indexed": true,
          "internalType": "bytes32",
          "name": "role",
          "type": "bytes32"
        },
        {
          "indexed": true,
          "internalType": "address",
          "name": "account",
          "type": "address"
        },
        {
          "indexed": true,
          "internalType": "address",
          "name": "sender",
          "type": "address"
        }
      ],
      "name": "RoleGranted",
      "type": "event"
    },
    {
      "anonymous": false,
      "inputs": [
        {
          "indexed": true,
          "internalType": "bytes32",
          "name": "role",
          "type": "bytes32"
        },
        {
          "indexed": true,
          "internalType": "address",
          "name": "account",
          "type": "address"
        },
        {
          "indexed": true,
          "internalType": "address",
          "name": "sender",
          "type": "address"
        }
      ],
      "name": "RoleRevoked",
      "type": "event"
    },
    {
      "inputs": [],
      "name": "ADMIN_ROLE",
      "outputs": [
        {
          "internalType": "bytes32",
          "name": "",
          "type": "bytes32"
        }
      ],
      "stateMutability": "view",
      "type": "function"
    },
    {
      "inputs": [],
      "name": "ARTIST_ROLE",
      "outputs": [
        {
          "internalType": "bytes32",
          "name": "",
          "type": "bytes32"
        }
      ],
      "stateMutability": "view",
      "type": "function"
    },
    {
      "inputs": [],
      "name": "BURNER_ROLE",
      "outputs": [
        {
          "internalType": "bytes32",
          "name": "",
          "type": "bytes32"
        }
      ],
      "stateMutability": "view",
      "type": "function"
    },
    {
      "inputs": [],
      "name": "DEFAULT_ADMIN_ROLE",
      "outputs": [
        {
          "internalType": "bytes32",
          "name": "",
          "type": "bytes32"
        }
      ],
      "stateMutability": "view",
      "type": "function"
    },
    {
      "inputs": [],
      "name": "MANAGE_POINTS_ROLE",
      "outputs": [
        {
          "internalType": "bytes32",
          "name": "",
          "type": "bytes32"
        }
      ],
      "stateMutability": "view",
      "type": "function"
    },
    {
      "inputs": [],
      "name": "MINTER_ROLE",
      "outputs": [
        {
          "internalType": "bytes32",
          "name": "",
          "type": "bytes32"
        }
      ],
      "stateMutability": "view",
      "type": "function"
    },
    {
      "inputs": [
        {
          "internalType": "bytes32",
          "name": "_key",
          "type": "bytes32"
        }
      ],
      "name": "deleteAddress",
      "outputs": [],
      "stateMutability": "nonpayable",
      "type": "function"
    },
    {
      "inputs": [
        {
          "internalType": "bytes32",
          "name": "_key",
          "type": "bytes32"
        }
      ],
      "name": "getAddress",
      "outputs": [
        {
          "internalType": "address",
          "name": "r",
          "type": "address"
        }
      ],
      "stateMutability": "view",
      "type": "function"
    },
    {
      "inputs": [
        {
          "internalType": "bytes32",
          "name": "role",
          "type": "bytes32"
        }
      ],
      "name": "getRoleAdmin",
      "outputs": [
        {
          "internalType": "bytes32",
          "name": "",
          "type": "bytes32"
        }
      ],
      "stateMutability": "view",
      "type": "function"
    },
    {
      "inputs": [
        {
          "internalType": "bytes32",
          "name": "role",
          "type": "bytes32"
        },
        {
          "internalType": "address",
          "name": "account",
          "type": "address"
        }
      ],
      "name": "grantRole",
      "outputs": [],
      "stateMutability": "nonpayable",
      "type": "function"
    },
    {
      "inputs": [
        {
          "internalType": "bytes32",
          "name": "role",
          "type": "bytes32"
        },
        {
          "internalType": "address",
          "name": "account",
          "type": "address"
        }
      ],
      "name": "hasRole",
      "outputs": [
        {
          "internalType": "bool",
          "name": "",
          "type": "bool"
        }
      ],
      "stateMutability": "view",
      "type": "function"
    },
    {
      "inputs": [],
      "name": "multisig",
      "outputs": [
        {
          "internalType": "address",
          "name": "",
          "type": "address"
        }
      ],
      "stateMutability": "view",
      "type": "function"
    },
    {
      "inputs": [
        {
          "internalType": "bytes32",
          "name": "role",
          "type": "bytes32"
        },
        {
          "internalType": "address",
          "name": "account",
          "type": "address"
        }
      ],
      "name": "renounceRole",
      "outputs": [],
      "stateMutability": "nonpayable",
      "type": "function"
    },
    {
      "inputs": [
        {
          "internalType": "bytes32",
          "name": "role",
          "type": "bytes32"
        },
        {
          "internalType": "address",
          "name": "account",
          "type": "address"
        }
      ],
      "name": "revokeRole",
      "outputs": [],
      "stateMutability": "nonpayable",
      "type": "function"
    },
    {
      "inputs": [
        {
          "internalType": "bytes32",
          "name": "_key",
          "type": "bytes32"
        },
        {
          "internalType": "address",
          "name": "_value",
          "type": "address"
        }
      ],
      "name": "setAddress",
      "outputs": [],
      "stateMutability": "nonpayable",
      "type": "function"
    },
    {
      "inputs": [
        {
          "internalType": "address",
          "name": "_multisig",
          "type": "address"
        }
      ],
      "name": "setMultisig",
      "outputs": [],
      "stateMutability": "nonpayable",
      "type": "function"
    },
    {
      "inputs": [
        {
          "internalType": "bytes4",
          "name": "interfaceId",
          "type": "bytes4"
        }
      ],
      "name": "supportsInterface",
      "outputs": [
        {
          "internalType": "bool",
          "name": "",
          "type": "bool"
        }
      ],
      "stateMutability": "view",
      "type": "function"
    }
  ],
  "bytecode": "0x608060405234801561001057600080fd5b50604051610cad380380610cad83398101604081905261002f91610159565b600180546001600160a01b0319166001600160a01b038316179055610055600082610091565b610060600083610091565b61008a7fe303cb88ace8c9e6ba216f1aecb44b3206dcab364c60512ffc6cbc920a1bf9d183610091565b505061018c565b61009b828261009f565b5050565b6000828152602081815260408083206001600160a01b038516845290915290205460ff1661009b576000828152602081815260408083206001600160a01b03851684529091529020805460ff191660011790556100f93390565b6001600160a01b0316816001600160a01b0316837f2f8788117e7eff1d82e926ec794901d17c78024a50270940304540a733656f0d60405160405180910390a45050565b80516001600160a01b038116811461015457600080fd5b919050565b6000806040838503121561016c57600080fd5b6101758361013d565b91506101836020840161013d565b90509250929050565b610b128061019b6000396000f3fe608060405234801561001057600080fd5b506004361061010b5760003560e01c806349123dac116100a2578063a966a0df11610071578063a966a0df14610288578063ca446dd9146102af578063d5391393146102c2578063d547741f146102e9578063f3283fba146102fc57600080fd5b806349123dac1461021f57806375b238fc1461024657806391d148541461026d578063a217fddf1461028057600080fd5b8063282c51f3116100de578063282c51f3146101bf5780632f2ff15d146101e657806336568abe146101f95780634783c35b1461020c57600080fd5b806301ffc9a7146101105780630e14a3761461013857806321f8a7211461014d578063248a9ca31461018e575b600080fd5b61012361011e3660046108ce565b61030f565b60405190151581526020015b60405180910390f35b61014b6101463660046108f8565b610346565b005b61017661015b3660046108f8565b6000908152600260205260409020546001600160a01b031690565b6040516001600160a01b03909116815260200161012f565b6101b161019c3660046108f8565b60009081526020819052604090206001015490565b60405190815260200161012f565b6101b17f3b25106add3a89098ef82030314e486ca1f967bd742e45817c5014c5ef3e806481565b61014b6101f436600461092d565b6103d2565b61014b61020736600461092d565b6103fc565b600154610176906001600160a01b031681565b6101b17f408bc7479ef9119d5f38cec4b670571000f4d832df9a54fc1998e43ee684284181565b6101b17fe303cb88ace8c9e6ba216f1aecb44b3206dcab364c60512ffc6cbc920a1bf9d181565b61012361027b36600461092d565b61047a565b6101b1600081565b6101b17fc18c9ce59aaa739e2eb7c0e63fb0e95821f115c643b2d4c9d3d194ec807d510081565b61014b6102bd36600461092d565b6104a3565b6101b17f43c12360602d49748153591f2df5a853821ec8410115f225b90a7a49bd5d2bb981565b61014b6102f736600461092d565b61053a565b61014b61030a366004610959565b61055f565b60006001600160e01b03198216637965db0b60e01b148061034057506301ffc9a760e01b6001600160e01b03198316145b92915050565b6103707fe303cb88ace8c9e6ba216f1aecb44b3206dcab364c60512ffc6cbc920a1bf9d13361047a565b6103b45760405162461bcd60e51b815260206004820152601060248201526f41646d696e2063616c6c73206f6e6c7960801b60448201526064015b60405180910390fd5b600090815260026020526040902080546001600160a01b0319169055565b6000828152602081905260409020600101546103ed816105d1565b6103f783836105de565b505050565b6001600160a01b038116331461046c5760405162461bcd60e51b815260206004820152602f60248201527f416363657373436f6e74726f6c3a2063616e206f6e6c792072656e6f756e636560448201526e103937b632b9903337b91039b2b63360891b60648201526084016103ab565b6104768282610662565b5050565b6000918252602082815260408084206001600160a01b0393909316845291905290205460ff1690565b6104cd7fe303cb88ace8c9e6ba216f1aecb44b3206dcab364c60512ffc6cbc920a1bf9d13361047a565b61050c5760405162461bcd60e51b815260206004820152601060248201526f41646d696e2063616c6c73206f6e6c7960801b60448201526064016103ab565b60009182526002602052604090912080546001600160a01b0319166001600160a01b03909216919091179055565b600082815260208190526040902060010154610555816105d1565b6103f78383610662565b6001546001600160a01b031633146105af5760405162461bcd60e51b81526020600482015260136024820152724d756c74697369672063616c6c73206f6e6c7960681b60448201526064016103ab565b600180546001600160a01b0319166001600160a01b0392909216919091179055565b6105db81336106c7565b50565b6105e8828261047a565b610476576000828152602081815260408083206001600160a01b03851684529091529020805460ff1916600117905561061e3390565b6001600160a01b0316816001600160a01b0316837f2f8788117e7eff1d82e926ec794901d17c78024a50270940304540a733656f0d60405160405180910390a45050565b61066c828261047a565b15610476576000828152602081815260408083206001600160a01b0385168085529252808320805460ff1916905551339285917ff6391f5c32d9c69d2a47ea670b442974b53935d1edc7fd64eb21e047a839171b9190a45050565b6106d1828261047a565b610476576106e9816001600160a01b0316601461072b565b6106f483602061072b565b6040516020016107059291906109a4565b60408051601f198184030181529082905262461bcd60e51b82526103ab91600401610a19565b6060600061073a836002610a62565b610745906002610a81565b67ffffffffffffffff81111561075d5761075d610a99565b6040519080825280601f01601f191660200182016040528015610787576020820181803683370190505b509050600360fc1b816000815181106107a2576107a2610aaf565b60200101906001600160f81b031916908160001a905350600f60fb1b816001815181106107d1576107d1610aaf565b60200101906001600160f81b031916908160001a90535060006107f5846002610a62565b610800906001610a81565b90505b6001811115610878576f181899199a1a9b1b9c1cb0b131b232b360811b85600f166010811061083457610834610aaf565b1a60f81b82828151811061084a5761084a610aaf565b60200101906001600160f81b031916908160001a90535060049490941c9361087181610ac5565b9050610803565b5083156108c75760405162461bcd60e51b815260206004820181905260248201527f537472696e67733a20686578206c656e67746820696e73756666696369656e7460448201526064016103ab565b9392505050565b6000602082840312156108e057600080fd5b81356001600160e01b0319811681146108c757600080fd5b60006020828403121561090a57600080fd5b5035919050565b80356001600160a01b038116811461092857600080fd5b919050565b6000806040838503121561094057600080fd5b8235915061095060208401610911565b90509250929050565b60006020828403121561096b57600080fd5b6108c782610911565b60005b8381101561098f578181015183820152602001610977565b8381111561099e576000848401525b50505050565b7f416363657373436f6e74726f6c3a206163636f756e74200000000000000000008152600083516109dc816017850160208801610974565b7001034b99036b4b9b9b4b733903937b6329607d1b6017918401918201528351610a0d816028840160208801610974565b01602801949350505050565b6020815260008251806020840152610a38816040850160208701610974565b601f01601f19169190910160400192915050565b634e487b7160e01b600052601160045260246000fd5b6000816000190483118215151615610a7c57610a7c610a4c565b500290565b60008219821115610a9457610a94610a4c565b500190565b634e487b7160e01b600052604160045260246000fd5b634e487b7160e01b600052603260045260246000fd5b600081610ad457610ad4610a4c565b50600019019056fea264697066735822122014c8c12cf921c411c07c58e8262bdbfa31b1600db42b234a5cc1176e9816960864736f6c634300080e0033",
  "linkReferences": {},
  "deployedLinkReferences": {}
}