{
  "_format": "hh-sol-artifact-1",
  "contractName": "NFTFactory",
  "sourceName": "contracts/NFT/NFTFactory.sol",
  "abi": [
    {
      "inputs": [
        {
          "internalType": "address",
          "name": "_sageStorage",
          "type": "address"
        }
      ],
      "stateMutability": "nonpayable",
      "type": "constructor"
    },
    {
      "anonymous": false,
      "inputs": [
        {
          "indexed": true,
          "internalType": "address",
          "name": "contractAddress",
          "type": "address"
        },
        {
          "indexed": true,
          "internalType": "address",
          "name": "artistAddress",
          "type": "address"
        }
      ],
      "name": "NewNFTContract",
      "type": "event"
    },
    {
      "inputs": [],
      "name": "DEFAULT_ADMIN_ROLE",
      "outputs": [
        {
          "internalType": "bytes32",
          "name": "",
          "type": "bytes32"
        }
      ],
      "stateMutability": "view",
      "type": "function"
    },
    {
      "inputs": [
        {
          "internalType": "address",
          "name": "artistAddress",
          "type": "address"
        },
        {
          "internalType": "string",
          "name": "name",
          "type": "string"
        },
        {
          "internalType": "string",
          "name": "symbol",
          "type": "string"
        }
      ],
      "name": "deployByAdmin",
      "outputs": [],
      "stateMutability": "nonpayable",
      "type": "function"
    },
    {
      "inputs": [
        {
          "internalType": "string",
          "name": "name",
          "type": "string"
        },
        {
          "internalType": "string",
          "name": "symbol",
          "type": "string"
        }
      ],
      "name": "deployByArtist",
      "outputs": [],
      "stateMutability": "nonpayable",
      "type": "function"
    },
    {
      "inputs": [
        {
          "internalType": "address",
          "name": "artistAddress",
          "type": "address"
        }
      ],
      "name": "getContractAddress",
      "outputs": [
        {
          "internalType": "address",
          "name": "",
          "type": "address"
        }
      ],
      "stateMutability": "view",
      "type": "function"
    },
    {
      "inputs": [
        {
          "internalType": "address",
          "name": "contractAddress",
          "type": "address"
        }
      ],
      "name": "removeWhitelistedContract",
      "outputs": [],
      "stateMutability": "nonpayable",
      "type": "function"
    }
  ],
  "bytecode": "0x60a060405234801561001057600080fd5b506040516137f13803806137f183398101604081905261002f91610040565b6001600160a01b0316608052610070565b60006020828403121561005257600080fd5b81516001600160a01b038116811461006957600080fd5b9392505050565b60805161373c6100b56000396000818161010f0152818161013e015281816102a30152818161035c015281816104280152818161055b0152610648015261373c6000f3fe60806040523480156200001157600080fd5b50600436106200005d5760003560e01c80626825cd14620000625780630ff24ee2146200007b578063102c484e1462000092578063622bc90e14620000a9578063a217fddf14620000f5575b600080fd5b620000796200007336600462000786565b6200010d565b005b620000796200008c36600462000816565b62000287565b62000079620000a33660046200083b565b6200040c565b620000d8620000ba36600462000816565b6001600160a01b039081166000908152602081905260409020541690565b6040516001600160a01b0390911681526020015b60405180910390f35b620000fe600081565b604051908152602001620000ec565b7f00000000000000000000000000000000000000000000000000000000000000006001600160a01b03166391d148547f00000000000000000000000000000000000000000000000000000000000000006001600160a01b031663a966a0df6040518163ffffffff1660e01b81526004016020604051808303816000875af11580156200019d573d6000803e3d6000fd5b505050506040513d601f19601f82011682018060405250810190620001c39190620008c5565b6040516001600160e01b031960e084901b1681526004810191909152336024820152604401602060405180830381865afa15801562000206573d6000803e3d6000fd5b505050506040513d601f19601f820116820180604052508101906200022c9190620008df565b620002725760405162461bcd60e51b81526020600482015260116024820152704172746973742063616c6c73206f6e6c7960781b60448201526064015b60405180910390fd5b620002813385858585620004e9565b50505050565b604051632474521560e21b8152600060048201523360248201527f00000000000000000000000000000000000000000000000000000000000000006001600160a01b0316906391d1485490604401602060405180830381865afa158015620002f3573d6000803e3d6000fd5b505050506040513d601f19601f82011682018060405250810190620003199190620008df565b6200035a5760405162461bcd60e51b815260206004820152601060248201526f41646d696e2063616c6c73206f6e6c7960801b604482015260640162000269565b7f00000000000000000000000000000000000000000000000000000000000000006001600160a01b031663abfdcced826040516020016200039c919062000903565b60408051601f198184030181529082905280516020909101206001600160e01b031960e084901b168252600482015260006024820152604401600060405180830381600087803b158015620003f057600080fd5b505af115801562000405573d6000803e3d6000fd5b5050505050565b604051632474521560e21b8152600060048201523360248201527f00000000000000000000000000000000000000000000000000000000000000006001600160a01b0316906391d1485490604401602060405180830381865afa15801562000478573d6000803e3d6000fd5b505050506040513d601f19601f820116820180604052508101906200049e9190620008df565b620004df5760405162461bcd60e51b815260206004820152601060248201526f41646d696e2063616c6c73206f6e6c7960801b604482015260640162000269565b6200040585858585855b6001600160a01b038581166000908152602081905260409020541615620005535760405162461bcd60e51b815260206004820152601760248201527f436f6e747261637420616c726561647920657869737473000000000000000000604482015260640162000269565b6000848484847f000000000000000000000000000000000000000000000000000000000000000060405162000588906200072c565b6200059895949392919062000964565b604051809103906000f080158015620005b5573d6000803e3d6000fd5b5060405163f2fde38b60e01b81526001600160a01b0388811660048301529192509082169063f2fde38b90602401600060405180830381600087803b158015620005fe57600080fd5b505af115801562000613573d6000803e3d6000fd5b505050506001600160a01b038681166000908152602081815260409182902080546001600160a01b03191685851617905590517f00000000000000000000000000000000000000000000000000000000000000009092169163abfdcced916200067f9185910162000903565b60408051601f198184030181529082905280516020909101206001600160e01b031960e084901b168252600482015260016024820152604401600060405180830381600087803b158015620006d357600080fd5b505af1158015620006e8573d6000803e3d6000fd5b50506040516001600160a01b03808a169350841691507fb6033d0dde1ac5b6c6e41733e23c9ae072dc72d9abffbffc8cfd4ec044b3251190600090a3505050505050565b612d5c80620009ab83390190565b60008083601f8401126200074d57600080fd5b50813567ffffffffffffffff8111156200076657600080fd5b6020830191508360208285010111156200077f57600080fd5b9250929050565b600080600080604085870312156200079d57600080fd5b843567ffffffffffffffff80821115620007b657600080fd5b620007c4888389016200073a565b90965094506020870135915080821115620007de57600080fd5b50620007ed878288016200073a565b95989497509550505050565b80356001600160a01b03811681146200081157600080fd5b919050565b6000602082840312156200082957600080fd5b6200083482620007f9565b9392505050565b6000806000806000606086880312156200085457600080fd5b6200085f86620007f9565b9450602086013567ffffffffffffffff808211156200087d57600080fd5b6200088b89838a016200073a565b90965094506040880135915080821115620008a557600080fd5b50620008b4888289016200073a565b969995985093965092949392505050565b600060208284031215620008d857600080fd5b5051919050565b600060208284031215620008f257600080fd5b815180151581146200083457600080fd5b711b585c9ad95d0b98dbdb9d1c9858dd17dddb60721b815260609190911b6bffffffffffffffffffffffff1916601282015260260190565b81835281816020850137506000828201602090810191909152601f909101601f19169091010190565b6060815260006200097a6060830187896200093b565b82810360208401526200098f8186886200093b565b91505060018060a01b0383166040830152969550505050505056fe60a06040523480156200001157600080fd5b5060405162002d5c38038062002d5c83398101604081905262000034916200025e565b8251839083906200004d906000906020850190620000eb565b50805162000063906001906020840190620000eb565b505050620000806200007a6200009560201b60201c565b62000099565b6001600160a01b031660805250620003279050565b3390565b600b80546001600160a01b038381166001600160a01b0319831681179093556040519116919082907f8be0079c531659141344cd1fd0a4f28419497f9722a3daafe3b4186f6b6457e090600090a35050565b828054620000f990620002eb565b90600052602060002090601f0160209004810192826200011d576000855562000168565b82601f106200013857805160ff191683800117855562000168565b8280016001018555821562000168579182015b82811115620001685782518255916020019190600101906200014b565b50620001769291506200017a565b5090565b5b808211156200017657600081556001016200017b565b634e487b7160e01b600052604160045260246000fd5b600082601f830112620001b957600080fd5b81516001600160401b0380821115620001d657620001d662000191565b604051601f8301601f19908116603f0116810190828211818310171562000201576200020162000191565b816040528381526020925086838588010111156200021e57600080fd5b600091505b8382101562000242578582018301518183018401529082019062000223565b83821115620002545760008385830101525b9695505050505050565b6000806000606084860312156200027457600080fd5b83516001600160401b03808211156200028c57600080fd5b6200029a87838801620001a7565b94506020860151915080821115620002b157600080fd5b50620002c086828701620001a7565b604086015190935090506001600160a01b0381168114620002e057600080fd5b809150509250925092565b600181811c908216806200030057607f821691505b6020821081036200032157634e487b7160e01b600052602260045260246000fd5b50919050565b6080516129f66200036660003960008181610cee01528181610d1d01528181610e8401528181610eb301528181611013015261109901526129f66000f3fe6080604052600436106101bb5760003560e01c806370a08231116100ec578063b88d4fde1161008a578063e002460411610064578063e0024604146104e8578063e985e9c5146104fd578063f2fde38b1461051d578063f4f3b2001461053d57600080fd5b8063b88d4fde14610488578063c87b56dd146104a8578063cd279c7c146104c857600080fd5b806395d89b41116100c657806395d89b411461041e578063a217fddf14610433578063a22cb46514610448578063a82670d31461046857600080fd5b806370a08231146103cb578063715018a6146103eb5780638da5cb5b1461040057600080fd5b80632f745c591161015957806342966c681161013357806342966c681461034b5780634f6ccce71461036b5780635ce8ac791461038b5780636352211e146103ab57600080fd5b80632f745c59146102f65780633ccfd60b1461031657806342842e0e1461032b57600080fd5b8063095ea7b311610195578063095ea7b31461025657806318160ddd1461027857806323b872dd146102975780632a55205a146102b757600080fd5b806301ffc9a7146101c757806306fdde03146101fc578063081812fc1461021e57600080fd5b366101c257005b600080fd5b3480156101d357600080fd5b506101e76101e2366004612395565b61055d565b60405190151581526020015b60405180910390f35b34801561020857600080fd5b50610211610588565b6040516101f3919061240a565b34801561022a57600080fd5b5061023e61023936600461241d565b61061a565b6040516001600160a01b0390911681526020016101f3565b34801561026257600080fd5b5061027661027136600461244b565b6106a7565b005b34801561028457600080fd5b506008545b6040519081526020016101f3565b3480156102a357600080fd5b506102766102b2366004612477565b6107bc565b3480156102c357600080fd5b506102d76102d23660046124b8565b6107ee565b604080516001600160a01b0390931683526020830191909152016101f3565b34801561030257600080fd5b5061028961031136600461244b565b610816565b34801561032257600080fd5b506102766108ac565b34801561033757600080fd5b50610276610346366004612477565b6109fe565b34801561035757600080fd5b5061027661036636600461241d565b610a19565b34801561037757600080fd5b5061028961038636600461241d565b610a93565b34801561039757600080fd5b506102766103a63660046124da565b610b26565b3480156103b757600080fd5b5061023e6103c636600461241d565b610b9a565b3480156103d757600080fd5b506102896103e6366004612563565b610c11565b3480156103f757600080fd5b50610276610c98565b34801561040c57600080fd5b50600b546001600160a01b031661023e565b34801561042a57600080fd5b50610211610cce565b34801561043f57600080fd5b50610289600081565b34801561045457600080fd5b5061027661046336600461258e565b610cdd565b34801561047457600080fd5b5061027661048336600461241d565b610cec565b34801561049457600080fd5b506102766104a33660046125dd565b610e45565b3480156104b457600080fd5b506102116104c336600461241d565b610e77565b3480156104d457600080fd5b506102766104e33660046124da565b610e82565b3480156104f457600080fd5b5061023e610fdb565b34801561050957600080fd5b506101e76105183660046126bd565b61108b565b34801561052957600080fd5b50610276610538366004612563565b6111ab565b34801561054957600080fd5b50610276610558366004612563565b611243565b60006001600160e01b0319821663152a902d60e11b148061058257506105828261144b565b92915050565b606060008054610597906126eb565b80601f01602080910402602001604051908101604052809291908181526020018280546105c3906126eb565b80156106105780601f106105e557610100808354040283529160200191610610565b820191906000526020600020905b8154815290600101906020018083116105f357829003601f168201915b5050505050905090565b600061062582611470565b61068b5760405162461bcd60e51b815260206004820152602c60248201527f4552433732313a20617070726f76656420717565727920666f72206e6f6e657860448201526b34b9ba32b73a103a37b5b2b760a11b60648201526084015b60405180910390fd5b506000908152600460205260409020546001600160a01b031690565b60006106b282610b9a565b9050806001600160a01b0316836001600160a01b03160361071f5760405162461bcd60e51b815260206004820152602160248201527f4552433732313a20617070726f76616c20746f2063757272656e74206f776e656044820152603960f91b6064820152608401610682565b336001600160a01b038216148061073b575061073b813361108b565b6107ad5760405162461bcd60e51b815260206004820152603860248201527f4552433732313a20617070726f76652063616c6c6572206973206e6f74206f7760448201527f6e6572206e6f7220617070726f76656420666f7220616c6c00000000000000006064820152608401610682565b6107b7838361148d565b505050565b6107c7335b826114fb565b6107e35760405162461bcd60e51b815260040161068290612725565b6107b78383836115c5565b600080306127106108016103e88661278c565b61080b91906127c1565b915091509250929050565b600061082183610c11565b82106108835760405162461bcd60e51b815260206004820152602b60248201527f455243373231456e756d657261626c653a206f776e657220696e646578206f7560448201526a74206f6620626f756e647360a81b6064820152608401610682565b506001600160a01b03919091166000908152600660209081526040808320938352929052205490565b60006108b6610fdb565b90506001600160a01b0381166109045760405162461bcd60e51b81526020600482015260136024820152724e6f207472656173757279206164647265737360681b6044820152606401610682565b47600061271061091683611f4061278c565b61092091906127c1565b90506000610936600b546001600160a01b031690565b6001600160a01b03168260405160006040518083038185875af1925050503d8060008114610980576040519150601f19603f3d011682016040523d82523d6000602084013e610985565b606091505b505090508061099357600080fd5b6001600160a01b0384166109a783856127d5565b604051600081818185875af1925050503d80600081146109e3576040519150601f19603f3d011682016040523d82523d6000602084013e6109e8565b606091505b505080915050806109f857600080fd5b50505050565b6107b783838360405180602001604052806000815250610e45565b610a22336107c1565b610a875760405162461bcd60e51b815260206004820152603060248201527f4552433732314275726e61626c653a2063616c6c6572206973206e6f74206f7760448201526f1b995c881b9bdc88185c1c1c9bdd995960821b6064820152608401610682565b610a908161176c565b50565b6000610a9e60085490565b8210610b015760405162461bcd60e51b815260206004820152602c60248201527f455243373231456e756d657261626c653a20676c6f62616c20696e646578206f60448201526b7574206f6620626f756e647360a01b6064820152608401610682565b60088281548110610b1457610b146127ec565b90600052602060002001549050919050565b600b546001600160a01b03163314610b505760405162461bcd60e51b815260040161068290612802565b610b5a8484611775565b6109f88383838080601f01602080910402602001604051908101604052809392919081815260200183838082843760009201919091525061178f92505050565b6000818152600260205260408120546001600160a01b0316806105825760405162461bcd60e51b815260206004820152602960248201527f4552433732313a206f776e657220717565727920666f72206e6f6e657869737460448201526832b73a103a37b5b2b760b91b6064820152608401610682565b60006001600160a01b038216610c7c5760405162461bcd60e51b815260206004820152602a60248201527f4552433732313a2062616c616e636520717565727920666f7220746865207a65604482015269726f206164647265737360b01b6064820152608401610682565b506001600160a01b031660009081526003602052604090205490565b600b546001600160a01b03163314610cc25760405162461bcd60e51b815260040161068290612802565b610ccc600061181a565b565b606060018054610597906126eb565b610ce833838361186c565b5050565b7f00000000000000000000000000000000000000000000000000000000000000006001600160a01b03166391d148547f00000000000000000000000000000000000000000000000000000000000000006001600160a01b031663282c51f36040518163ffffffff1660e01b81526004016020604051808303816000875af1158015610d7b573d6000803e3d6000fd5b505050506040513d601f19601f82011682018060405250810190610d9f9190612837565b6040516001600160e01b031960e084901b1681526004810191909152336024820152604401602060405180830381865afa158015610de1573d6000803e3d6000fd5b505050506040513d601f19601f82011682018060405250810190610e059190612850565b610a875760405162461bcd60e51b81526020600482015260116024820152704e6f206275726e696e672072696768747360781b6044820152606401610682565b610e4f33836114fb565b610e6b5760405162461bcd60e51b815260040161068290612725565b6109f88484848461193a565b60606105828261196d565b7f00000000000000000000000000000000000000000000000000000000000000006001600160a01b03166391d148547f00000000000000000000000000000000000000000000000000000000000000006001600160a01b031663d53913936040518163ffffffff1660e01b81526004016020604051808303816000875af1158015610f11573d6000803e3d6000fd5b505050506040513d601f19601f82011682018060405250810190610f359190612837565b6040516001600160e01b031960e084901b1681526004810191909152336024820152604401602060405180830381865afa158015610f77573d6000803e3d6000fd5b505050506040513d601f19601f82011682018060405250810190610f9b9190612850565b610b505760405162461bcd60e51b81526020600482015260116024820152704e6f206d696e74696e672072696768747360781b6044820152606401610682565b6040516321f8a72160e01b81527f5aad79a694ac6ca78a20cbd2164b148bc12f654b6422e8b4c7608fe064ba0bec60048201526000907f00000000000000000000000000000000000000000000000000000000000000006001600160a01b0316906321f8a72190602401602060405180830381865afa158015611062573d6000803e3d6000fd5b505050506040513d601f19601f82011682018060405250810190611086919061286d565b905090565b6000816001600160a01b03167f00000000000000000000000000000000000000000000000000000000000000006001600160a01b03166321f8a7216040516020016110ef9072616464726573732e6d61726b6574706c61636560681b815260130190565b604051602081830303815290604052805190602001206040518263ffffffff1660e01b815260040161112391815260200190565b602060405180830381865afa158015611140573d6000803e3d6000fd5b505050506040513d601f19601f82011682018060405250810190611164919061286d565b6001600160a01b03160361117a57506001610582565b6001600160a01b0380841660009081526005602090815260408083209386168352929052205460ff165b9392505050565b600b546001600160a01b031633146111d55760405162461bcd60e51b815260040161068290612802565b6001600160a01b03811661123a5760405162461bcd60e51b815260206004820152602660248201527f4f776e61626c653a206e6577206f776e657220697320746865207a65726f206160448201526564647265737360d01b6064820152608401610682565b610a908161181a565b600061124d610fdb565b90506001600160a01b03811661129b5760405162461bcd60e51b81526020600482015260136024820152724e6f207472656173757279206164647265737360681b6044820152606401610682565b6040516370a0823160e01b815230600482015282906000906001600160a01b038316906370a0823190602401602060405180830381865afa1580156112e4573d6000803e3d6000fd5b505050506040513d601f19601f820116820180604052508101906113089190612837565b9050600061271061131b83611f4061278c565b61132591906127c1565b9050826001600160a01b031663a9059cbb611348600b546001600160a01b031690565b6040516001600160e01b031960e084901b1681526001600160a01b039091166004820152602481018490526044016020604051808303816000875af1158015611395573d6000803e3d6000fd5b505050506040513d601f19601f820116820180604052508101906113b99190612850565b506001600160a01b03831663a9059cbb856113d484866127d5565b6040516001600160e01b031960e085901b1681526001600160a01b03909216600483015260248201526044016020604051808303816000875af115801561141f573d6000803e3d6000fd5b505050506040513d601f19601f820116820180604052508101906114439190612850565b505050505050565b60006001600160e01b0319821663780e9d6360e01b1480610582575061058282611adb565b6000908152600260205260409020546001600160a01b0316151590565b600081815260046020526040902080546001600160a01b0319166001600160a01b03841690811790915581906114c282610b9a565b6001600160a01b03167f8c5be1e5ebec7d5bd14f71427d1e84f3dd0314c0f7b2291e5b200ac8c7c3b92560405160405180910390a45050565b600061150682611470565b6115675760405162461bcd60e51b815260206004820152602c60248201527f4552433732313a206f70657261746f7220717565727920666f72206e6f6e657860448201526b34b9ba32b73a103a37b5b2b760a11b6064820152608401610682565b600061157283610b9a565b9050806001600160a01b0316846001600160a01b031614806115995750611599818561108b565b806115bd5750836001600160a01b03166115b28461061a565b6001600160a01b0316145b949350505050565b826001600160a01b03166115d882610b9a565b6001600160a01b03161461163c5760405162461bcd60e51b815260206004820152602560248201527f4552433732313a207472616e736665722066726f6d20696e636f72726563742060448201526437bbb732b960d91b6064820152608401610682565b6001600160a01b03821661169e5760405162461bcd60e51b8152602060048201526024808201527f4552433732313a207472616e7366657220746f20746865207a65726f206164646044820152637265737360e01b6064820152608401610682565b6116a9838383611b2b565b6116b460008261148d565b6001600160a01b03831660009081526003602052604081208054600192906116dd9084906127d5565b90915550506001600160a01b038216600090815260036020526040812080546001929061170b90849061288a565b909155505060008181526002602052604080822080546001600160a01b0319166001600160a01b0386811691821790925591518493918716917fddf252ad1be2c89b69c2b068fc378daa952ba7f163c4a11628f55a4df523b3ef91a4505050565b610a9081611b36565b610ce8828260405180602001604052806000815250611b76565b61179882611470565b6117fb5760405162461bcd60e51b815260206004820152602e60248201527f45524337323155524953746f726167653a2055524920736574206f66206e6f6e60448201526d32bc34b9ba32b73a103a37b5b2b760911b6064820152608401610682565b6000828152600a6020908152604090912082516107b7928401906122b0565b600b80546001600160a01b038381166001600160a01b0319831681179093556040519116919082907f8be0079c531659141344cd1fd0a4f28419497f9722a3daafe3b4186f6b6457e090600090a35050565b816001600160a01b0316836001600160a01b0316036118cd5760405162461bcd60e51b815260206004820152601960248201527f4552433732313a20617070726f766520746f2063616c6c6572000000000000006044820152606401610682565b6001600160a01b03838116600081815260056020908152604080832094871680845294825291829020805460ff191686151590811790915591519182527f17307eab39ab6107e8899845ad3d59bd9653f200f220920489ca2b5937696c31910160405180910390a3505050565b6119458484846115c5565b61195184848484611ba9565b6109f85760405162461bcd60e51b8152600401610682906128a2565b606061197882611470565b6119de5760405162461bcd60e51b815260206004820152603160248201527f45524337323155524953746f726167653a2055524920717565727920666f72206044820152703737b732bc34b9ba32b73a103a37b5b2b760791b6064820152608401610682565b6000828152600a6020526040812080546119f7906126eb565b80601f0160208091040260200160405190810160405280929190818152602001828054611a23906126eb565b8015611a705780601f10611a4557610100808354040283529160200191611a70565b820191906000526020600020905b815481529060010190602001808311611a5357829003601f168201915b505050505090506000611a8e60408051602081019091526000815290565b90508051600003611aa0575092915050565b815115611ad2578082604051602001611aba9291906128f4565b60405160208183030381529060405292505050919050565b6115bd84611caa565b60006001600160e01b031982166380ac58cd60e01b1480611b0c57506001600160e01b03198216635b5e139f60e01b145b8061058257506301ffc9a760e01b6001600160e01b0319831614610582565b6107b7838383611d81565b611b3f81611e39565b6000818152600a602052604090208054611b58906126eb565b159050610a90576000818152600a60205260408120610a9091612334565b611b808383611ee0565b611b8d6000848484611ba9565b6107b75760405162461bcd60e51b8152600401610682906128a2565b60006001600160a01b0384163b15611c9f57604051630a85bd0160e11b81526001600160a01b0385169063150b7a0290611bed903390899088908890600401612923565b6020604051808303816000875af1925050508015611c28575060408051601f3d908101601f19168201909252611c2591810190612960565b60015b611c85573d808015611c56576040519150601f19603f3d011682016040523d82523d6000602084013e611c5b565b606091505b508051600003611c7d5760405162461bcd60e51b8152600401610682906128a2565b805181602001fd5b6001600160e01b031916630a85bd0160e11b1490506115bd565b506001949350505050565b6060611cb582611470565b611d195760405162461bcd60e51b815260206004820152602f60248201527f4552433732314d657461646174613a2055524920717565727920666f72206e6f60448201526e3732bc34b9ba32b73a103a37b5b2b760891b6064820152608401610682565b6000611d3060408051602081019091526000815290565b90506000815111611d5057604051806020016040528060008152506111a4565b80611d5a8461201f565b604051602001611d6b9291906128f4565b6040516020818303038152906040529392505050565b6001600160a01b038316611ddc57611dd781600880546000838152600960205260408120829055600182018355919091527ff3f7a9fe364faab93b216da50a3214154f22a0a2b415b23a84c8169e8b636ee30155565b611dff565b816001600160a01b0316836001600160a01b031614611dff57611dff8382612120565b6001600160a01b038216611e16576107b7816121bd565b826001600160a01b0316826001600160a01b0316146107b7576107b7828261226c565b6000611e4482610b9a565b9050611e5281600084611b2b565b611e5d60008361148d565b6001600160a01b0381166000908152600360205260408120805460019290611e869084906127d5565b909155505060008281526002602052604080822080546001600160a01b0319169055518391906001600160a01b038416907fddf252ad1be2c89b69c2b068fc378daa952ba7f163c4a11628f55a4df523b3ef908390a45050565b6001600160a01b038216611f365760405162461bcd60e51b815260206004820181905260248201527f4552433732313a206d696e7420746f20746865207a65726f20616464726573736044820152606401610682565b611f3f81611470565b15611f8c5760405162461bcd60e51b815260206004820152601c60248201527f4552433732313a20746f6b656e20616c7265616479206d696e746564000000006044820152606401610682565b611f9860008383611b2b565b6001600160a01b0382166000908152600360205260408120805460019290611fc190849061288a565b909155505060008181526002602052604080822080546001600160a01b0319166001600160a01b03861690811790915590518392907fddf252ad1be2c89b69c2b068fc378daa952ba7f163c4a11628f55a4df523b3ef908290a45050565b6060816000036120465750506040805180820190915260018152600360fc1b602082015290565b8160005b8115612070578061205a8161297d565b91506120699050600a836127c1565b915061204a565b60008167ffffffffffffffff81111561208b5761208b6125c7565b6040519080825280601f01601f1916602001820160405280156120b5576020820181803683370190505b5090505b84156115bd576120ca6001836127d5565b91506120d7600a86612996565b6120e290603061288a565b60f81b8183815181106120f7576120f76127ec565b60200101906001600160f81b031916908160001a905350612119600a866127c1565b94506120b9565b6000600161212d84610c11565b61213791906127d5565b60008381526007602052604090205490915080821461218a576001600160a01b03841660009081526006602090815260408083208584528252808320548484528184208190558352600790915290208190555b5060009182526007602090815260408084208490556001600160a01b039094168352600681528383209183525290812055565b6008546000906121cf906001906127d5565b600083815260096020526040812054600880549394509092849081106121f7576121f76127ec565b906000526020600020015490508060088381548110612218576122186127ec565b6000918252602080832090910192909255828152600990915260408082208490558582528120556008805480612250576122506129aa565b6001900381819060005260206000200160009055905550505050565b600061227783610c11565b6001600160a01b039093166000908152600660209081526040808320868452825280832085905593825260079052919091209190915550565b8280546122bc906126eb565b90600052602060002090601f0160209004810192826122de5760008555612324565b82601f106122f757805160ff1916838001178555612324565b82800160010185558215612324579182015b82811115612324578251825591602001919060010190612309565b5061233092915061236a565b5090565b508054612340906126eb565b6000825580601f10612350575050565b601f016020900490600052602060002090810190610a9091905b5b80821115612330576000815560010161236b565b6001600160e01b031981168114610a9057600080fd5b6000602082840312156123a757600080fd5b81356111a48161237f565b60005b838110156123cd5781810151838201526020016123b5565b838111156109f85750506000910152565b600081518084526123f68160208601602086016123b2565b601f01601f19169290920160200192915050565b6020815260006111a460208301846123de565b60006020828403121561242f57600080fd5b5035919050565b6001600160a01b0381168114610a9057600080fd5b6000806040838503121561245e57600080fd5b823561246981612436565b946020939093013593505050565b60008060006060848603121561248c57600080fd5b833561249781612436565b925060208401356124a781612436565b929592945050506040919091013590565b600080604083850312156124cb57600080fd5b50508035926020909101359150565b600080600080606085870312156124f057600080fd5b84356124fb81612436565b935060208501359250604085013567ffffffffffffffff8082111561251f57600080fd5b818701915087601f83011261253357600080fd5b81358181111561254257600080fd5b88602082850101111561255457600080fd5b95989497505060200194505050565b60006020828403121561257557600080fd5b81356111a481612436565b8015158114610a9057600080fd5b600080604083850312156125a157600080fd5b82356125ac81612436565b915060208301356125bc81612580565b809150509250929050565b634e487b7160e01b600052604160045260246000fd5b600080600080608085870312156125f357600080fd5b84356125fe81612436565b9350602085013561260e81612436565b925060408501359150606085013567ffffffffffffffff8082111561263257600080fd5b818701915087601f83011261264657600080fd5b813581811115612658576126586125c7565b604051601f8201601f19908116603f01168101908382118183101715612680576126806125c7565b816040528281528a602084870101111561269957600080fd5b82602086016020830137600060208483010152809550505050505092959194509250565b600080604083850312156126d057600080fd5b82356126db81612436565b915060208301356125bc81612436565b600181811c908216806126ff57607f821691505b60208210810361271f57634e487b7160e01b600052602260045260246000fd5b50919050565b60208082526031908201527f4552433732313a207472616e736665722063616c6c6572206973206e6f74206f6040820152701ddb995c881b9bdc88185c1c1c9bdd9959607a1b606082015260800190565b634e487b7160e01b600052601160045260246000fd5b60008160001904831182151516156127a6576127a6612776565b500290565b634e487b7160e01b600052601260045260246000fd5b6000826127d0576127d06127ab565b500490565b6000828210156127e7576127e7612776565b500390565b634e487b7160e01b600052603260045260246000fd5b6020808252818101527f4f776e61626c653a2063616c6c6572206973206e6f7420746865206f776e6572604082015260600190565b60006020828403121561284957600080fd5b5051919050565b60006020828403121561286257600080fd5b81516111a481612580565b60006020828403121561287f57600080fd5b81516111a481612436565b6000821982111561289d5761289d612776565b500190565b60208082526032908201527f4552433732313a207472616e7366657220746f206e6f6e20455243373231526560408201527131b2b4bb32b91034b6b83632b6b2b73a32b960711b606082015260800190565b600083516129068184602088016123b2565b83519083019061291a8183602088016123b2565b01949350505050565b6001600160a01b0385811682528416602082015260408101839052608060608201819052600090612956908301846123de565b9695505050505050565b60006020828403121561297257600080fd5b81516111a48161237f565b60006001820161298f5761298f612776565b5060010190565b6000826129a5576129a56127ab565b500690565b634e487b7160e01b600052603160045260246000fdfea26469706673582212200a69243f48d6db3eee5da065430c8d4bb2403bc3156ff3453d5bc69d9341574964736f6c634300080e0033a2646970667358221220cfd6ced8c56374a7d8f361434c759c54d8d52b64506a189703b7632b0eae82e164736f6c634300080e0033",
  "linkReferences": {},
  "deployedLinkReferences": {}
}