{
  "_format": "hh-sol-artifact-1",
  "contractName": "NFTFactory",
  "sourceName": "contracts/NFT/NFTFactory.sol",
  "abi": [
    {
      "inputs": [
        {
          "internalType": "address",
          "name": "_sageStorage",
          "type": "address"
        }
      ],
      "stateMutability": "nonpayable",
      "type": "constructor"
    },
    {
      "inputs": [
        {
          "internalType": "address",
          "name": "artistAddress",
          "type": "address"
        },
        {
          "internalType": "string",
          "name": "name",
          "type": "string"
        },
        {
          "internalType": "string",
          "name": "symbol",
          "type": "string"
        }
      ],
      "name": "createNFTContract",
      "outputs": [],
      "stateMutability": "nonpayable",
      "type": "function"
    },
    {
      "inputs": [
        {
          "internalType": "address",
          "name": "artistAddress",
          "type": "address"
        }
      ],
      "name": "getContractAddress",
      "outputs": [
        {
          "internalType": "address",
          "name": "",
          "type": "address"
        }
      ],
      "stateMutability": "view",
      "type": "function"
    }
  ],
  "bytecode": "0x60803461007e57601f6131ab38819003918201601f19168301916001600160401b038311848410176100835780849260209460405283398101031261007e57516001600160a01b038116810361007e57600180546001600160a01b0319166001600160a01b0392909216919091179055604051613111908161009a8239f35b600080fd5b634e487b7160e01b600052604160045260246000fdfe60808060405260043610156200001457600080fd5b6000803560e01c9182630a51481f146200004557505063622bc90e146200003b575b600080fd5b62000036620001ee565b34620001a2576060366003190112620001a25762000062620001a6565b9067ffffffffffffffff906024358281116200019e5762000088903690600401620001bd565b906044359384116200019a5762000150946200014a6200012e620000b36020973690600401620001bd565b60015490989197906001600160a01b0316693937b6329730b236b4b760b11b8383019081523360601b6bffffffffffffffffffffffff1916600a82015290916200010a81601e840103601f19810183528262000245565b519020906040518080958194633d70e7e560e11b8352600483019190602083019252565b03915afa9081156200018a575b899162000155575b506200029e565b62000347565b604051f35b6200017b915060203d811162000182575b62000172818362000245565b81019062000277565b8962000143565b503d62000166565b6200019462000291565b6200013b565b8580fd5b8480fd5b5080fd5b600435906001600160a01b03821682036200003657565b9181601f84011215620000365782359167ffffffffffffffff83116200003657602083818601950101116200003657565b503462000036576020366003190112620000365760206001600160a01b038062000217620001a6565b166000526000825260406000205416604051908152f35b50634e487b7160e01b600052604160045260246000fd5b90601f8019910116810190811067ffffffffffffffff8211176200026857604052565b620002726200022e565b604052565b908160209103126200003657518015158103620000365790565b506040513d6000823e3d90fd5b15620002a657565b60405162461bcd60e51b815260206004820152601060248201526f41646d696e2063616c6c73206f6e6c7960801b6044820152606490fd5b908060209392818452848401376000828201840152601f01601f1916010190565b94929093620003216060956200033094999899608089526080890191620002de565b918683036020880152620002de565b6001600160a01b0391821660408501529416910152565b9293919060018060a01b038085166000526000602052604060002054166200044557620003c9846200040f96620003f0956200039a6200038e60015460018060a01b031690565b6001600160a01b031690565b91604051968796612c518089019089821067ffffffffffffffff83111762000435575b6200048b8a39620002ff565b03906000f091821562000411576001600160a01b0316600090815260208190526040902090565b80546001600160a01b0319166001600160a01b03909216919091179055565b565b6200041b62000291565b6001600160a01b0316600090815260208190526040902090565b6200043f6200022e565b620003bd565b60405162461bcd60e51b815260206004820152601760248201527f436f6e747261637420616c7265616479206578697374730000000000000000006044820152606490fdfe60a060405234620000ba5762002c51803803806200001d81620000d6565b928339810190608081830312620000ba5780516001600160401b039190828111620000ba5783620000509183016200010b565b916020820151908111620000ba576200009393620000709183016200010b565b6200008c606062000084604085016200019f565b93016200019f565b92620001b4565b60405161275b9081620004f6823960805181818161072c01528181610d600152610fe90152f35b600080fd5b50634e487b7160e01b600052604160045260246000fd5b6040519190601f01601f191682016001600160401b03811183821017620000fc57604052565b62000106620000bf565b604052565b81601f82011215620000ba578051906001600160401b0382116200018f575b60209062000141601f8401601f19168301620000d6565b93838552828483010111620000ba5782906000905b8383831062000176575050116200016c57505090565b6000918301015290565b8193508281939201015182828801015201839162000156565b62000199620000bf565b6200012a565b51906001600160a01b0382168203620000ba57565b805191949392916001600160401b038111620002f2575b600091620001e582620001df855462000302565b6200033f565b60209081601f84116001146200025d5750918084926200024f98999462000227969262000251575b50508160011b916000199060031b1c1916179055620003f3565b6001600160a01b03908116608052600b80546001600160a01b03191692909116919091179055565b565b0151905038806200020d565b600080529190601f1984167f290decd9548b62a8d60345a988386fc84ba6bc95484008f6362f93160ef3e5639386905b828210620002d95750509260019285926200024f9a9b9662000227989610620002bf575b505050811b019055620003f3565b015160001960f88460031b161c19169055388080620002b1565b806001869782949787015181550196019401906200028d565b620002fc620000bf565b620001cb565b90600182811c9216801562000334575b60208310146200031e57565b634e487b7160e01b600052602260045260246000fd5b91607f169162000312565b601f81116200034c575050565b60009081805260208220906020601f850160051c830194106200038c575b601f0160051c01915b8281106200038057505050565b81815560010162000373565b90925082906200036a565b90601f8211620003a5575050565b60019160009083825260208220906020601f850160051c83019410620003e8575b601f0160051c01915b828110620003dd5750505050565b8181558301620003cf565b9092508290620003c6565b80519091906001600160401b038111620004e5575b60019062000422816200041c845462000302565b62000397565b602080601f83116001146200046057508192939460009262000454575b5050600019600383901b1c191690821b179055565b0151905038806200043f565b6001600052601f198316959091907fb10e2d527612073b26eecdfd717e6a320cf44b4afac2b0732d9fcbe2b7fa0cf6926000905b888210620004cd5750508385969710620004b3575b505050811b019055565b015160001960f88460031b161c19169055388080620004a9565b80878596829496860151815501950193019062000494565b620004ef620000bf565b6200040856fe6080604052600436101561001b575b361561001957600080fd5b005b60003560e01c806301ffc9a7146101fb57806306fdde03146101f2578063081812fc146101e9578063095ea7b3146101e057806318160ddd146101d757806323b872dd146101ce5780632a55205a146101c55780632f745c59146101bc5780633ccfd60b146101b357806342842e0e146101aa57806342966c68146101a15780634f6ccce7146101985780636352211e1461018f57806370a082311461018657806395d89b411461017d578063a22cb46514610174578063a22e4faa1461016b578063a82670d314610162578063b88d4fde14610159578063c87b56dd14610150578063cd279c7c14610147578063d7eb3f3a1461013e578063e985e9c5146101355763f4f3b2000361000e576101306110e6565b61000e565b50610130611088565b5061013061105e565b50610130610f4b565b50610130610f17565b50610130610eb6565b50610130610cf2565b50610130610c9f565b50610130610bb2565b50610130610b02565b50610130610ad6565b50610130610ab7565b50610130610a0b565b506101306107d8565b506101306107af565b506101306106d3565b5061013061061f565b506101306105d0565b506101306105a6565b50610130610552565b50610130610464565b50610130610407565b5061013061032c565b5061013061021b565b6001600160e01b031981160361021657565b600080fd5b503461021657602036600319011261021657602060043561023b81610204565b63ffffffff60e01b1663152a902d60e11b8114908115610261575b506040519015158152f35b63780e9d6360e01b81149150811561027b575b5038610256565b6380ac58cd60e01b8114915081156102ad575b811561029c575b5038610274565b6301ffc9a760e01b14905038610295565b635b5e139f60e01b8114915061028e565b918091926000905b8282106102de5750116102d7575050565b6000910152565b915080602091830151818601520182916102c6565b9060209161030c815180928185528580860191016102be565b601f01601f1916010190565b9060206103299281815201906102f3565b90565b503461021657600080600319360112610404576040519080805461034f81611211565b808552916001918083169081156103e35750600114610389575b6103858561037981870382610e32565b60405191829182610318565b0390f35b80809450527f290decd9548b62a8d60345a988386fc84ba6bc95484008f6362f93160ef3e5635b8284106103cb57505050810160200161037982610385610369565b805460208587018101919091529093019281016103b0565b60ff1916602087015250506040840192506103799150839050610385610369565b80fd5b503461021657602036600319011261021657602061042660043561135f565b6040516001600160a01b039091168152f35b600435906001600160a01b038216820361021657565b602435906001600160a01b038216820361021657565b50346102165760403660031901126102165761047e610438565b60243561048a81611199565b916001600160a01b03808416908216811461050357610019936104b79133149081156104bc575b506112ed565b611846565b6001600160a01b031660009081526005602052604090206104fd91506104f69033905b9060018060a01b0316600052602052604060002090565b5460ff1690565b386104b1565b60405162461bcd60e51b815260206004820152602160248201527f4552433732313a20617070726f76616c20746f2063757272656e74206f776e656044820152603960f91b6064820152608490fd5b5034610216576000366003190112610216576020600854604051908152f35b6060906003190112610216576001600160a01b0390600435828116810361021657916024359081168103610216579060443590565b5034610216576100196105b836610571565b916105cb6105c6843361150d565b6113f1565b6116d9565b5034610216576040366003190112610216576103e8602435801515600019829004831116610612575b6040805130815261271093909202929092046020820152f35b61061a611655565b6105f9565b503461021657604036600319011261021657610639610438565b6024359061064681611121565b82101561067a576001600160a01b031660009081526006602090815260408083209383529281529082902054915191825290f35b60405162461bcd60e51b815260206004820152602b60248201527f455243373231456e756d657261626c653a206f776e657220696e646578206f7560448201526a74206f6620626f756e647360a81b6064820152608490fd5b50346102165760003660031901126102165761076c604051602081019061070c816106fe3385611db4565b03601f198101835282610e32565b519020604051633d70e7e560e11b815260048101919091526020816024817f00000000000000000000000000000000000000000000000000000000000000006001600160a01b03165afa9081156107a2575b600091610774575b50611dde565b610019611fae565b610795915060203d811161079b575b61078d8183610e32565b810190611a6e565b38610766565b503d610783565b6107aa61191d565b61075e565b5034610216576100196107c136610571565b90604051926107cf84610ded565b6000845261146a565b5034610216576020366003190112610216576004356107f7813361150d565b156109ad5780600061080882611199565b6001600160a01b0381169061085490821584146108d957610828856121a5565b6108318561221e565b61083a856117f0565b6001600160a01b0316600090815260036020526040902090565b61085e815461166c565b9055610887610877846000526002602052604060002090565b80546001600160a01b0319169055565b60008051602061270683398151915282604051a46108b76108b282600052600a602052604060002090565b612333565b6108bd57005b6108d461001991600052600a602052604060002090565b61233d565b6108e281611121565b600181106109a0575b84190161094785918783526007602052604083205481810361094d575b508261091e896000526007602052604060002090565b556001600160a01b03841660009081526006602052604090205b90600052602052604060002090565b55610828565b868452600660205260408420828552602052610999604085205480610988846109388a60018060a01b03166000526006602052604060002090565b556000526007602052604060002090565b5538610908565b6109a8611655565b6108eb565b60405162461bcd60e51b815260206004820152603060248201527f4552433732314275726e61626c653a2063616c6c6572206973206e6f74206f7760448201526f1b995c881b9bdc88185c1c1c9bdd995960821b6064820152608490fd5b503461021657602036600319011261021657600435600854811015610a5d5760086000527ff3f7a9fe364faab93b216da50a3214154f22a0a2b415b23a84c8169e8b636ee30154604051908152602090f35b60405162461bcd60e51b815260206004820152602c60248201527f455243373231456e756d657261626c653a20676c6f62616c20696e646578206f60448201526b7574206f6620626f756e647360a01b6064820152608490fd5b5034610216576020366003190112610216576020610426600435611199565b5034610216576020366003190112610216576020610afa610af5610438565b611121565b604051908152f35b5034610216576000806003193601126104045760405190806001805491610b2883611211565b808652928281169081156103e35750600114610b4e576103858561037981870382610e32565b92508083527fb10e2d527612073b26eecdfd717e6a320cf44b4afac2b0732d9fcbe2b7fa0cf65b828410610b9057505050810160200161037982610385610369565b80546020858701810191909152909301928101610b75565b8015150361021657565b503461021657604036600319011261021657610bcc610438565b602435610bd881610ba8565b6001600160a01b03821691338314610c5a5781610c17610c289233600052600560205260406000209060018060a01b0316600052602052604060002090565b9060ff801983541691151516179055565b604051901515815233907f17307eab39ab6107e8899845ad3d59bd9653f200f220920489ca2b5937696c3190602090a3005b60405162461bcd60e51b815260206004820152601960248201527f4552433732313a20617070726f766520746f2063616c6c6572000000000000006044820152606490fd5b503461021657602036600319011261021657610019610cbc610438565b610cd5604051602081019061070c816106fe3385611db4565b60018060a01b03166001600160601b0360a01b600b541617600b55565b503461021657602036600319011261021657610da0610d5c6020604051818101906a3937b63297313ab93732b960a91b82523360601b602b820152601f8152610d3a81610e16565b51902060405180938192633d70e7e560e11b8352600483019190602083019252565b03817f00000000000000000000000000000000000000000000000000000000000000006001600160a01b03165afa908115610dc9575b600091610dab575b50612421565b610019600435612389565b610dc3915060203d811161079b5761078d8183610e32565b38610d9a565b610dd161191d565b610d92565b50634e487b7160e01b600052604160045260246000fd5b6020810190811067ffffffffffffffff821117610e0957604052565b610e11610dd6565b604052565b6040810190811067ffffffffffffffff821117610e0957604052565b90601f8019910116810190811067ffffffffffffffff821117610e0957604052565b60209067ffffffffffffffff8111610e72575b601f01601f19160190565b610e7a610dd6565b610e67565b929192610e8b82610e54565b91610e996040519384610e32565b829481845281830111610216578281602093846000960137010152565b503461021657608036600319011261021657610ed0610438565b610ed861044e565b6064359167ffffffffffffffff8311610216573660238401121561021657610f0d610019933690602481600401359101610e7f565b916044359161146a565b503461021657602036600319011261021657610385610f37600435612474565b6040519182916020835260208301906102f3565b503461021657606036600319011261021657610f65610438565b6044359060243567ffffffffffffffff831161021657366023840112156102165761102e81610fa1610019953690602481600401359101610e7f565b93611029610fe5602060405181810190610d3a816106fe3385601f916a3937b6329736b4b73a32b960a91b82526001600160601b03199060601b16600b8201520190565b03817f00000000000000000000000000000000000000000000000000000000000000006001600160a01b03165afa908115611051575b600091611033575b50611a83565b611ac3565b611c50565b61104b915060203d811161079b5761078d8183610e32565b38611023565b61105961191d565b61101b565b503461021657600036600319011261021657600b546040516001600160a01b039091168152602090f35b503461021657604036600319011261021657602060ff6110da6110a9610438565b6110b161044e565b6001600160a01b0391821660009081526005865260408082209290931681526020919091522090565b54166040519015158152f35b503461021657602036600319011261021657610019611103610438565b61111c604051602081019061070c816106fe3385611db4565b611e4f565b6001600160a01b0316801561114157600052600360205260406000205490565b60405162461bcd60e51b815260206004820152602a60248201527f4552433732313a2062616c616e636520717565727920666f7220746865207a65604482015269726f206164647265737360b01b6064820152608490fd5b6000908152600260205260409020546001600160a01b031680156111ba5790565b60405162461bcd60e51b815260206004820152602960248201527f4552433732313a206f776e657220717565727920666f72206e6f6e657869737460448201526832b73a103a37b5b2b760b91b6064820152608490fd5b90600182811c92168015611241575b602083101461122b57565b634e487b7160e01b600052602260045260246000fd5b91607f1691611220565b906040519182600082549261125f84611211565b9081845260019485811690816000146112ce575060011461128b575b505061128992500383610e32565b565b9093915060005260209081600020936000915b8183106112b65750506112899350820101388061127b565b8554888401850152948501948794509183019161129e565b9550505050505060ff191660208301526112898260408101388061127b565b156112f457565b60405162461bcd60e51b815260206004820152603860248201527f4552433732313a20617070726f76652063616c6c6572206973206e6f74206f7760448201527f6e6572206e6f7220617070726f76656420666f7220616c6c00000000000000006064820152608490fd5b6000818152600260205260409020546001600160a01b031615611397576000908152600460205260409020546001600160a01b031690565b60405162461bcd60e51b815260206004820152602c60248201527f4552433732313a20617070726f76656420717565727920666f72206e6f6e657860448201526b34b9ba32b73a103a37b5b2b760a11b6064820152608490fd5b156113f857565b60405162461bcd60e51b815260206004820152603160248201527f4552433732313a207472616e736665722063616c6c6572206973206e6f74206f6044820152701ddb995c881b9bdc88185c1c1c9bdd9959607a1b6064820152608490fd5b6040519061146482610ded565b60008252565b916112899391611491936114816105c6843361150d565b61148c8383836116d9565b611a1b565b6114e9565b60809060208152603260208201527f4552433732313a207472616e7366657220746f206e6f6e20455243373231526560408201527131b2b4bb32b91034b6b83632b6b2b73a32b960711b60608201520190565b156114f057565b60405162461bcd60e51b81528061150960048201611496565b0390fd5b6000828152600260205260409020546001600160a01b0316156115a35761153382611199565b9160018060a01b0390818316928285168414948515611572575b5050831561155c575b50505090565b6115689192935061135f565b1614388080611556565b6001600160a01b0316600090815260056020526040902091945060ff9161159991906104df565b541692388061154d565b60405162461bcd60e51b815260206004820152602c60248201527f4552433732313a206f70657261746f7220717565727920666f72206e6f6e657860448201526b34b9ba32b73a103a37b5b2b760a11b6064820152608490fd5b1561160457565b60405162461bcd60e51b8152602060048201526024808201527f4552433732313a207472616e7366657220746f20746865207a65726f206164646044820152637265737360e01b6064820152608490fd5b50634e487b7160e01b600052601160045260246000fd5b6001811061167c575b6000190190565b611684611655565b611675565b818110611694570390565b61169c611655565b0390565b60019060011981116116b0570190565b6116b8611655565b0190565b80196030116116cc575b60300190565b6116d4611655565b6116c6565b906116e383611199565b6001600160a01b03838116929091821683900361179d576117236117869282169461170f8615156115fd565b61171a878483612068565b61083a876117f0565b61172d815461166c565b90556001600160a01b038116600090815260036020526040902061175181546116a0565b9055611767856000526002602052604060002090565b80546001600160a01b0319166001600160a01b03909216919091179055565b6000805160206127068339815191526000604051a4565b60405162461bcd60e51b815260206004820152602560248201527f4552433732313a207472616e736665722066726f6d20696e636f72726563742060448201526437bbb732b960d91b6064820152608490fd5b600081815260046020526040812080546001600160a01b03191690556001600160a01b0361181d83611199565b167f8c5be1e5ebec7d5bd14f71427d1e84f3dd0314c0f7b2291e5b200ac8c7c3b92582604051a4565b600082815260046020526040902080546001600160a01b0319166001600160a01b0383161790556001600160a01b038061187f84611199565b169116907f8c5be1e5ebec7d5bd14f71427d1e84f3dd0314c0f7b2291e5b200ac8c7c3b9256000604051a4565b90816020910312610216575161032981610204565b610329939260809260018060a01b0316825260006020830152604082015281606082015201906102f3565b6001600160a01b039182168152911660208201526040810191909152608060608201819052610329929101906102f3565b506040513d6000823e3d90fd5b3d15611955573d9061193b82610e54565b916119496040519384610e32565b82523d6000602084013e565b606090565b909190803b15611a135761198c602091600093604051948580948193630a85bd0160e11b998a845233600485016118c1565b03926001600160a01b03165af1600091816119e3575b506119d5576119af61192a565b805190816119d05760405162461bcd60e51b81528061150960048201611496565b602001fd5b6001600160e01b0319161490565b611a0591925060203d8111611a0c575b6119fd8183610e32565b8101906118ac565b90386119a2565b503d6119f3565b505050600190565b92909190823b15611a4e5761198c926020926000604051809681958294630a85bd0160e11b9a8b855233600486016118ec565b50505050600190565b50634e487b7160e01b600052603260045260246000fd5b90816020910312610216575161032981610ba8565b15611a8a57565b60405162461bcd60e51b81526020600482015260116024820152704e6f206d696e74696e672072696768747360781b6044820152606490fd5b90604051611ad081610ded565b600081526001600160a01b038316918215611bb0576000818152600260205260409020546001600160a01b0316611b6b57838161149194611b14826112899861203d565b6001600160a01b0383166000908152600360205260409020611b3681546116a0565b9055611b5083611767846000526002602052604060002090565b600060008051602061270683398151915281604051a461195a565b60405162461bcd60e51b815260206004820152601c60248201527f4552433732313a20746f6b656e20616c7265616479206d696e746564000000006044820152606490fd5b606460405162461bcd60e51b815260206004820152602060248201527f4552433732313a206d696e7420746f20746865207a65726f20616464726573736044820152fd5b818110611bff575050565b60008155600101611bf4565b9190601f8111611c1a57505050565b611289926000526020600020906020601f840160051c83019310611c46575b601f0160051c0190611bf4565b9091508190611c39565b6000818152600260205260409020549192916001600160a01b031615611d58576000526020600a815260406000209083519067ffffffffffffffff8211611d4b575b611ca682611ca08554611211565b85611c0b565b80601f8311600114611ce0575081929394600092611cd5575b50508160011b916000199060031b1c1916179055565b015190503880611cbf565b90601f19831695611cf685600052602060002090565b926000905b888210611d3357505083600195969710611d1a575b505050811b019055565b015160001960f88460031b161c19169055388080611d10565b80600185968294968601518155019501930190611cfb565b611d53610dd6565b611c92565b60405162461bcd60e51b815260206004820152602e60248201527f45524337323155524953746f726167653a2055524920736574206f66206e6f6e60448201526d32bc34b9ba32b73a103a37b5b2b760911b6064820152608490fd5b601e91693937b6329730b236b4b760b11b82526001600160601b03199060601b16600a8201520190565b15611de557565b60405162461bcd60e51b815260206004820152601060248201526f41646d696e2063616c6c73206f6e6c7960801b6044820152606490fd5b90816020910312610216575190565b611f40908060001904821181151516611e43570290565b611e4b611655565b0290565b6040516370a0823160e01b8152306004820152602091611f0f9183916001600160a01b03168282602481845afa918215611fa1575b600092611f72575b50611eeb611ea4611e9c84611e2c565b612710900490565b600b5460405163a9059cbb60e01b8082526001600160a01b0390921660048201526024810183905290949086816044816000895af18015611f65575b611f48575b50611689565b60405192835233600484015260248301529092839190829060009082906044820190565b03925af18015611f3b575b611f22575050565b81611f3892903d1061079b5761078d8183610e32565b50565b611f4361191d565b611f1a565b611f5e90873d891161079b5761078d8183610e32565b5038611ee5565b611f6d61191d565b611ee0565b611f93919250833d8511611f9a575b611f8b8183610e32565b810190611e1d565b9038611e8c565b503d611f81565b611fa961191d565b611e84565b611fb730611121565b612710611f408260001904811183151516612030575b8202049060018060a01b03600b54169160008080809584604051915af1611ff261192a565b501561202c5782828282949383941061201f575b6040519103335af161201661192a565b50156104045750565b612027611655565b612006565b8280fd5b612038611655565b611fcd565b90612047816121a5565b6001600160a01b03821661205f57611289915061221e565b6112899161216d565b9091906001600160a01b0380821691826120a25750612086836121a5565b831680612099575050611289915061221e565b0361205f575050565b81851683036120b2575b50612086565b6121176120be82611121565b60018110612160575b600019016109386000938785526007602052604085205483810361211e575b50846120fc896000526007602052604060002090565b556001600160a01b0316600090815260066020526040902090565b55386120ac565b878652600660205260408620848752602052612159604087205480610988846109388760018060a01b03166000526006602052604060002090565b55386120e6565b612168611655565b6120c7565b60409061217981611121565b9260009160018060a01b0316825260066020528282208483526020528083832055815260076020522055565b6008548160005260096020528060406000205568010000000000000000811015612211575b6001810180600855811015612204575b60086000527ff3f7a9fe364faab93b216da50a3214154f22a0a2b415b23a84c8169e8b636ee30155565b61220c611a57565b6121da565b612219610dd6565b6121ca565b6008805460018110612326575b6000908382526009602052816122cd60408220549560001996848881011015612319575b8684526122bc7ff3f7a9fe364faab93b216da50a3214154f22a0a2b415b23a84c8169e8b636ee295868101549083101561230c575b88865280837ff3f7a9fe364faab93b216da50a3214154f22a0a2b415b23a84c8169e8b636ee301556000526009602052604060002090565b556000526009602052604060002090565b5582549384156122f857840193808510156122eb575b838352015555565b6122f3611a57565b6122e3565b634e487b7160e01b83526031600452602483fd5b612314611a57565b612284565b612321611a57565b61224f565b61232e611655565b61222b565b6103299054611211565b6123478154611211565b9081612351575050565b81601f60009311600114612363575055565b8183526020832061237f91601f0160051c810190600101611bf4565b8160208120915555565b80600061239582611199565b6001600160a01b038116906123b590821584146108d957610828856121a5565b6123bf815461166c565b90556123d8610877846000526002602052604060002090565b60008051602061270683398151915282604051a46124036108b282600052600a602052604060002090565b61240a5750565b6108d461128991600052600a602052604060002090565b1561242857565b60405162461bcd60e51b81526020600482015260116024820152704e6f206275726e696e672072696768747360781b6044820152606490fd5b906116b8602092828151948592016102be565b6000818152600260205260409020546001600160a01b0316156124f5576124ad6124a882600052600a602052604060002090565b61124b565b906124b6611457565b8051156124f05782516124ce57506103299150612554565b61032991506106fe6124ea936040519485936020850190612461565b90612461565b505090565b60405162461bcd60e51b815260206004820152603160248201527f45524337323155524953746f726167653a2055524920717565727920666f72206044820152703737b732bc34b9ba32b73a103a37b5b2b760791b6064820152608490fd5b6000818152600260205260409020546001600160a01b0316156125b057612579611457565b8051909190156125a6576124ea916106fe6125966103299361262c565b6040519485936020850190612461565b5050610329611457565b60405162461bcd60e51b815260206004820152602f60248201527f4552433732314d657461646174613a2055524920717565727920666f72206e6f60448201526e3732bc34b9ba32b73a103a37b5b2b760891b6064820152608490fd5b90602091805182101561261f57010190565b612627611a57565b010190565b80156126e757806000908282935b6126c1575061264883610e54565b926126566040519485610e32565b80845281601f1961266683610e54565b013660208701375b6126785750505090565b6126819061166c565b90600a906126ac61269c6126968484066116bc565b60ff1690565b60f81b6001600160f81b03191690565b841a6126b8848761260d565b5304908161266e565b926001600a9160001981146126da575b0193048061263a565b6126e2611655565b6126d1565b506040516126f481610e16565b60018152600360fc1b60208201529056feddf252ad1be2c89b69c2b068fc378daa952ba7f163c4a11628f55a4df523b3efa26469706673582212201b34170ab5107419b0f7f25ab4e0a3d50b125327bcca79ea00ea09f56fbfd1ff64736f6c634300080e0033a2646970667358221220e3065334d1ef77ff5a94287b7bfc2a2801ed41302ea812e99b6babfc8e9b654764736f6c634300080e0033",
  "linkReferences": {},
  "deployedLinkReferences": {}
}