{
  "_format": "hh-sol-artifact-1",
  "contractName": "NFTFactory",
  "sourceName": "contracts/NFT/NFTFactory.sol",
  "abi": [
    {
      "inputs": [
        {
          "internalType": "address",
          "name": "_sageStorage",
          "type": "address"
        }
      ],
      "stateMutability": "nonpayable",
      "type": "constructor"
    },
    {
      "anonymous": false,
      "inputs": [
        {
          "indexed": true,
          "internalType": "address",
          "name": "contractAddress",
          "type": "address"
        },
        {
          "indexed": true,
          "internalType": "address",
          "name": "artistAddress",
          "type": "address"
        }
      ],
      "name": "NewNFTContract",
      "type": "event"
    },
    {
      "inputs": [],
      "name": "DEFAULT_ADMIN_ROLE",
      "outputs": [
        {
          "internalType": "bytes32",
          "name": "",
          "type": "bytes32"
        }
      ],
      "stateMutability": "view",
      "type": "function"
    },
    {
      "inputs": [
        {
          "internalType": "address",
          "name": "artistAddress",
          "type": "address"
        },
        {
          "internalType": "string",
          "name": "name",
          "type": "string"
        },
        {
          "internalType": "string",
          "name": "symbol",
          "type": "string"
        }
      ],
      "name": "deployByAdmin",
      "outputs": [],
      "stateMutability": "nonpayable",
      "type": "function"
    },
    {
      "inputs": [
        {
          "internalType": "string",
          "name": "name",
          "type": "string"
        },
        {
          "internalType": "string",
          "name": "symbol",
          "type": "string"
        }
      ],
      "name": "deployByArtist",
      "outputs": [],
      "stateMutability": "nonpayable",
      "type": "function"
    },
    {
      "inputs": [
        {
          "internalType": "address",
          "name": "artistAddress",
          "type": "address"
        }
      ],
      "name": "getContractAddress",
      "outputs": [
        {
          "internalType": "address",
          "name": "",
          "type": "address"
        }
      ],
      "stateMutability": "view",
      "type": "function"
    },
    {
      "inputs": [],
      "name": "getTreasuryAddress",
      "outputs": [
        {
          "internalType": "address",
          "name": "",
          "type": "address"
        }
      ],
      "stateMutability": "view",
      "type": "function"
    },
    {
      "inputs": [
        {
          "internalType": "address",
          "name": "contractAddress",
          "type": "address"
        }
      ],
      "name": "removeWhitelistedContract",
      "outputs": [],
      "stateMutability": "nonpayable",
      "type": "function"
    }
  ],
  "bytecode": "0x60a060405234801561001057600080fd5b50604051613cc0380380613cc083398101604081905261002f91610040565b6001600160a01b0316608052610070565b60006020828403121561005257600080fd5b81516001600160a01b038116811461006957600080fd5b9392505050565b608051613c046100bc600039600081816101250152818161015401528181610332015281816103eb015281816104b7015281816105bd015281816106ac015261073d0152613c046000f3fe60806040523480156200001157600080fd5b5060043610620000695760003560e01c80626825cd146200006e5780630ff24ee21462000087578063102c484e146200009e578063622bc90e14620000b5578063a217fddf1462000101578063e00246041462000119575b600080fd5b620000856200007f3660046200087d565b62000123565b005b620000856200009836600462000909565b62000316565b62000085620000af36600462000930565b6200049b565b620000e4620000c636600462000909565b6001600160a01b039081166000908152602081905260409020541690565b6040516001600160a01b0390911681526020015b60405180910390f35b6200010a600081565b604051908152602001620000f8565b620000e462000585565b7f00000000000000000000000000000000000000000000000000000000000000006001600160a01b03166391d148547f00000000000000000000000000000000000000000000000000000000000000006001600160a01b031663a966a0df6040518163ffffffff1660e01b81526004016020604051808303816000875af1158015620001b3573d6000803e3d6000fd5b505050506040513d601f19601f82011682018060405250810190620001d99190620009bc565b6040516001600160e01b031960e084901b1681526004810191909152336024820152604401602060405180830381865afa1580156200021c573d6000803e3d6000fd5b505050506040513d601f19601f82011682018060405250810190620002429190620009d6565b620002885760405162461bcd60e51b81526020600482015260116024820152704172746973742063616c6c73206f6e6c7960781b60448201526064015b60405180910390fd5b600062000299338686868662000638565b9050806001600160a01b031663f2fde38b620002b462000585565b6040516001600160e01b031960e084901b1681526001600160a01b039091166004820152602401600060405180830381600087803b158015620002f657600080fd5b505af11580156200030b573d6000803e3d6000fd5b505050505050505050565b604051632474521560e21b8152600060048201523360248201527f00000000000000000000000000000000000000000000000000000000000000006001600160a01b0316906391d1485490604401602060405180830381865afa15801562000382573d6000803e3d6000fd5b505050506040513d601f19601f82011682018060405250810190620003a89190620009d6565b620003e95760405162461bcd60e51b815260206004820152601060248201526f41646d696e2063616c6c73206f6e6c7960801b60448201526064016200027f565b7f00000000000000000000000000000000000000000000000000000000000000006001600160a01b031663abfdcced826040516020016200042b9190620009fa565b60408051601f198184030181529082905280516020909101206001600160e01b031960e084901b168252600482015260006024820152604401600060405180830381600087803b1580156200047f57600080fd5b505af115801562000494573d6000803e3d6000fd5b5050505050565b604051632474521560e21b8152600060048201523360248201527f00000000000000000000000000000000000000000000000000000000000000006001600160a01b0316906391d1485490604401602060405180830381865afa15801562000507573d6000803e3d6000fd5b505050506040513d601f19601f820116820180604052508101906200052d9190620009d6565b6200056e5760405162461bcd60e51b815260206004820152601060248201526f41646d696e2063616c6c73206f6e6c7960801b60448201526064016200027f565b6200057d858585858562000638565b505050505050565b6040516321f8a72160e01b81527f5aad79a694ac6ca78a20cbd2164b148bc12f654b6422e8b4c7608fe064ba0bec60048201526000907f00000000000000000000000000000000000000000000000000000000000000006001600160a01b0316906321f8a72190602401602060405180830381865afa1580156200060d573d6000803e3d6000fd5b505050506040513d601f19601f8201168201806040525081019062000633919062000a32565b905090565b6001600160a01b0385811660009081526020819052604081205490911615620006a45760405162461bcd60e51b815260206004820152601760248201527f436f6e747261637420616c72656164792065786973747300000000000000000060448201526064016200027f565b6000858585857f00000000000000000000000000000000000000000000000000000000000000008b604051620006da9062000823565b620006eb9695949392919062000a7b565b604051809103906000f08015801562000708573d6000803e3d6000fd5b506001600160a01b038881166000908152602081815260409182902080546001600160a01b03191685851617905590519293507f00000000000000000000000000000000000000000000000000000000000000009091169163abfdcced916200077491859101620009fa565b60408051601f198184030181529082905280516020909101206001600160e01b031960e084901b168252600482015260016024820152604401600060405180830381600087803b158015620007c857600080fd5b505af1158015620007dd573d6000803e3d6000fd5b50506040516001600160a01b03808b169350841691507fb6033d0dde1ac5b6c6e41733e23c9ae072dc72d9abffbffc8cfd4ec044b3251190600090a39695505050505050565b6131018062000ace83390190565b60008083601f8401126200084457600080fd5b50813567ffffffffffffffff8111156200085d57600080fd5b6020830191508360208285010111156200087657600080fd5b9250929050565b600080600080604085870312156200089457600080fd5b843567ffffffffffffffff80821115620008ad57600080fd5b620008bb8883890162000831565b90965094506020870135915080821115620008d557600080fd5b50620008e48782880162000831565b95989497509550505050565b6001600160a01b03811681146200090657600080fd5b50565b6000602082840312156200091c57600080fd5b81356200092981620008f0565b9392505050565b6000806000806000606086880312156200094957600080fd5b85356200095681620008f0565b9450602086013567ffffffffffffffff808211156200097457600080fd5b6200098289838a0162000831565b909650945060408801359150808211156200099c57600080fd5b50620009ab8882890162000831565b969995985093965092949392505050565b600060208284031215620009cf57600080fd5b5051919050565b600060208284031215620009e957600080fd5b815180151581146200092957600080fd5b711b585c9ad95d0b98dbdb9d1c9858dd17dddb60721b815260609190911b6bffffffffffffffffffffffff1916601282015260260190565b60006020828403121562000a4557600080fd5b81516200092981620008f0565b81835281816020850137506000828201602090810191909152601f909101601f19169091010190565b60808152600062000a9160808301888a62000a52565b828103602084015262000aa681878962000a52565b6001600160a01b03958616604085015293909416606090920191909152509594505050505056fe60c06040523480156200001157600080fd5b5060405162003101380380620031018339810160408190526200003491620002a4565b8351849084906200004d90600090602085019062000114565b5080516200006390600190602084019062000114565b505050620000806200007a620000b560201b60201c565b620000b9565b6001600160a01b03828116608052811660a052620000ab600d6200010b602090811b6200164b17901c565b505050506200036f565b3390565b600b80546001600160a01b038381166001600160a01b0319831681179093556040519116919082907f8be0079c531659141344cd1fd0a4f28419497f9722a3daafe3b4186f6b6457e090600090a35050565b80546001019055565b828054620001229062000333565b90600052602060002090601f01602090048101928262000146576000855562000191565b82601f106200016157805160ff191683800117855562000191565b8280016001018555821562000191579182015b828111156200019157825182559160200191906001019062000174565b506200019f929150620001a3565b5090565b5b808211156200019f5760008155600101620001a4565b634e487b7160e01b600052604160045260246000fd5b600082601f830112620001e257600080fd5b81516001600160401b0380821115620001ff57620001ff620001ba565b604051601f8301601f19908116603f011681019082821181831017156200022a576200022a620001ba565b816040528381526020925086838588010111156200024757600080fd5b600091505b838210156200026b57858201830151818301840152908201906200024c565b838211156200027d5760008385830101525b9695505050505050565b80516001600160a01b03811681146200029f57600080fd5b919050565b60008060008060808587031215620002bb57600080fd5b84516001600160401b0380821115620002d357600080fd5b620002e188838901620001d0565b95506020870151915080821115620002f857600080fd5b506200030787828801620001d0565b935050620003186040860162000287565b9150620003286060860162000287565b905092959194509250565b600181811c908216806200034857607f821691505b6020821081036200036957634e487b7160e01b600052602260045260246000fd5b50919050565b60805160a051612d26620003db600039600081816103de015281816108f101528181610ab201528181610ba9015261144c01526000818161086d01528181610ec101528181610ef00152818161105d0152818161108c015281816111d1015261158d0152612d266000f3fe6080604052600436106101dc5760003560e01c80636352211e11610102578063b88d4fde11610095578063e985e9c511610064578063e985e9c514610572578063f2fde38b14610592578063f4f3b200146105b2578063fce55037146105d257600080fd5b8063b88d4fde146104fd578063c87b56dd1461051d578063d204c45e1461053d578063e8a3d4851461055d57600080fd5b806395d89b41116100d157806395d89b4114610493578063a217fddf146104a8578063a22cb465146104bd578063a82670d3146104dd57600080fd5b80636352211e1461042057806370a0823114610440578063715018a6146104605780638da5cb5b1461047557600080fd5b80632a55205a1161017a57806342842e0e1161014957806342842e0e1461038c57806342966c68146103ac57806343bc1612146103cc5780634f6ccce71461040057600080fd5b80632a55205a146102f85780632f745c59146103375780633ccfd60b14610357578063407da2521461036c57600080fd5b8063095ea7b3116101b6578063095ea7b314610277578063162094c41461029957806318160ddd146102b957806323b872dd146102d857600080fd5b806301ffc9a7146101e857806306fdde031461021d578063081812fc1461023f57600080fd5b366101e357005b600080fd5b3480156101f457600080fd5b50610208610203366004612677565b6105f2565b60405190151581526020015b60405180910390f35b34801561022957600080fd5b5061023261061d565b60405161021491906126ec565b34801561024b57600080fd5b5061025f61025a3660046126ff565b6106af565b6040516001600160a01b039091168152602001610214565b34801561028357600080fd5b5061029761029236600461272d565b61073c565b005b3480156102a557600080fd5b506102976102b436600461279b565b610851565b3480156102c557600080fd5b506008545b604051908152602001610214565b3480156102e457600080fd5b506102976102f33660046127e7565b61099f565b34801561030457600080fd5b50610318610313366004612828565b6109d1565b604080516001600160a01b039093168352602083019190915201610214565b34801561034357600080fd5b506102ca61035236600461272d565b6109fa565b34801561036357600080fd5b50610297610a90565b34801561037857600080fd5b5061029761038736600461284a565b610b9e565b34801561039857600080fd5b506102976103a73660046127e7565b610c15565b3480156103b857600080fd5b506102976103c73660046126ff565b610c30565b3480156103d857600080fd5b5061025f7f000000000000000000000000000000000000000000000000000000000000000081565b34801561040c57600080fd5b506102ca61041b3660046126ff565b610caa565b34801561042c57600080fd5b5061025f61043b3660046126ff565b610d3d565b34801561044c57600080fd5b506102ca61045b366004612886565b610db4565b34801561046c57600080fd5b50610297610e3b565b34801561048157600080fd5b50600b546001600160a01b031661025f565b34801561049f57600080fd5b50610232610ea1565b3480156104b457600080fd5b506102ca600081565b3480156104c957600080fd5b506102976104d83660046128b1565b610eb0565b3480156104e957600080fd5b506102976104f83660046126ff565b610ebf565b34801561050957600080fd5b50610297610518366004612900565b611018565b34801561052957600080fd5b506102326105383660046126ff565b611050565b34801561054957600080fd5b5061029761055836600461284a565b61105b565b34801561056957600080fd5b506102326111b4565b34801561057e57600080fd5b5061020861058d3660046129e0565b6111c3565b34801561059e57600080fd5b506102976105ad366004612886565b6112e3565b3480156105be57600080fd5b506102976105cd366004612886565b6113ab565b3480156105de57600080fd5b506102976105ed366004612a0e565b611571565b60006001600160e01b0319821663152a902d60e11b1480610617575061061782611654565b92915050565b60606000805461062c90612a50565b80601f016020809104026020016040519081016040528092919081815260200182805461065890612a50565b80156106a55780601f1061067a576101008083540402835291602001916106a5565b820191906000526020600020905b81548152906001019060200180831161068857829003601f168201915b5050505050905090565b60006106ba82611679565b6107205760405162461bcd60e51b815260206004820152602c60248201527f4552433732313a20617070726f76656420717565727920666f72206e6f6e657860448201526b34b9ba32b73a103a37b5b2b760a11b60648201526084015b60405180910390fd5b506000908152600460205260409020546001600160a01b031690565b600061074782610d3d565b9050806001600160a01b0316836001600160a01b0316036107b45760405162461bcd60e51b815260206004820152602160248201527f4552433732313a20617070726f76616c20746f2063757272656e74206f776e656044820152603960f91b6064820152608401610717565b336001600160a01b03821614806107d057506107d081336111c3565b6108425760405162461bcd60e51b815260206004820152603860248201527f4552433732313a20617070726f76652063616c6c6572206973206e6f74206f7760448201527f6e6572206e6f7220617070726f76656420666f7220616c6c00000000000000006064820152608401610717565b61084c8383611696565b505050565b604051632474521560e21b8152600060048201523360248201527f00000000000000000000000000000000000000000000000000000000000000006001600160a01b0316906391d1485490604401602060405180830381865afa1580156108bc573d6000803e3d6000fd5b505050506040513d601f19601f820116820180604052508101906108e09190612a8a565b806109135750336001600160a01b037f000000000000000000000000000000000000000000000000000000000000000016145b61095f5760405162461bcd60e51b815260206004820152601b60248201527f4f6e6c792063726561746f72206f722061646d696e2063616c6c7300000000006044820152606401610717565b61084c8383838080601f01602080910402602001604051908101604052809392919081815260200183838082843760009201919091525061170492505050565b6109aa335b8261178f565b6109c65760405162461bcd60e51b815260040161071790612aa7565b61084c838383611859565b600080306127106109e46103e886612b0e565b6109ee9190612b43565b915091505b9250929050565b6000610a0583610db4565b8210610a675760405162461bcd60e51b815260206004820152602b60248201527f455243373231456e756d657261626c653a206f776e657220696e646578206f7560448201526a74206f6620626f756e647360a81b6064820152608401610717565b506001600160a01b03919091166000908152600660209081526040808320938352929052205490565b476000612710610aa283611f40612b0e565b610aac9190612b43565b905060007f00000000000000000000000000000000000000000000000000000000000000006001600160a01b03168260405160006040518083038185875af1925050503d8060008114610b1b576040519150601f19603f3d011682016040523d82523d6000602084013e610b20565b606091505b5050905080610b2e57600080fd5b737af3ba4a5854438a6bf27e4d005cd07d5497c33e610b4d8385612b57565b604051600081818185875af1925050503d8060008114610b89576040519150601f19603f3d011682016040523d82523d6000602084013e610b8e565b606091505b5050809150508061084c57600080fd5b336001600160a01b037f00000000000000000000000000000000000000000000000000000000000000001614610c0a5760405162461bcd60e51b81526020600482015260116024820152704f6e6c79206172746973742063616c6c7360781b6044820152606401610717565b61084c838383611a00565b61084c83838360405180602001604052806000815250611018565b610c39336109a4565b610c9e5760405162461bcd60e51b815260206004820152603060248201527f4552433732314275726e61626c653a2063616c6c6572206973206e6f74206f7760448201526f1b995c881b9bdc88185c1c1c9bdd995960821b6064820152608401610717565b610ca781611a65565b50565b6000610cb560085490565b8210610d185760405162461bcd60e51b815260206004820152602c60248201527f455243373231456e756d657261626c653a20676c6f62616c20696e646578206f60448201526b7574206f6620626f756e647360a01b6064820152608401610717565b60088281548110610d2b57610d2b612b6e565b90600052602060002001549050919050565b6000818152600260205260408120546001600160a01b0316806106175760405162461bcd60e51b815260206004820152602960248201527f4552433732313a206f776e657220717565727920666f72206e6f6e657869737460448201526832b73a103a37b5b2b760b91b6064820152608401610717565b60006001600160a01b038216610e1f5760405162461bcd60e51b815260206004820152602a60248201527f4552433732313a2062616c616e636520717565727920666f7220746865207a65604482015269726f206164647265737360b01b6064820152608401610717565b506001600160a01b031660009081526003602052604090205490565b600b546001600160a01b03163314610e955760405162461bcd60e51b815260206004820181905260248201527f4f776e61626c653a2063616c6c6572206973206e6f7420746865206f776e65726044820152606401610717565b610e9f6000611a6e565b565b60606001805461062c90612a50565b610ebb338383611ac0565b5050565b7f00000000000000000000000000000000000000000000000000000000000000006001600160a01b03166391d148547f00000000000000000000000000000000000000000000000000000000000000006001600160a01b031663282c51f36040518163ffffffff1660e01b81526004016020604051808303816000875af1158015610f4e573d6000803e3d6000fd5b505050506040513d601f19601f82011682018060405250810190610f729190612b84565b6040516001600160e01b031960e084901b1681526004810191909152336024820152604401602060405180830381865afa158015610fb4573d6000803e3d6000fd5b505050506040513d601f19601f82011682018060405250810190610fd89190612a8a565b610c9e5760405162461bcd60e51b81526020600482015260116024820152704e6f206275726e696e672072696768747360781b6044820152606401610717565b611022338361178f565b61103e5760405162461bcd60e51b815260040161071790612aa7565b61104a84848484611b8e565b50505050565b606061061782611bc1565b7f00000000000000000000000000000000000000000000000000000000000000006001600160a01b03166391d148547f00000000000000000000000000000000000000000000000000000000000000006001600160a01b031663d53913936040518163ffffffff1660e01b81526004016020604051808303816000875af11580156110ea573d6000803e3d6000fd5b505050506040513d601f19601f8201168201806040525081019061110e9190612b84565b6040516001600160e01b031960e084901b1681526004810191909152336024820152604401602060405180830381865afa158015611150573d6000803e3d6000fd5b505050506040513d601f19601f820116820180604052508101906111749190612a8a565b610c0a5760405162461bcd60e51b81526020600482015260116024820152704e6f206d696e74696e672072696768747360781b6044820152606401610717565b6060600c805461062c90612a50565b6000816001600160a01b03167f00000000000000000000000000000000000000000000000000000000000000006001600160a01b03166321f8a7216040516020016112279072616464726573732e6d61726b6574706c61636560681b815260130190565b604051602081830303815290604052805190602001206040518263ffffffff1660e01b815260040161125b91815260200190565b602060405180830381865afa158015611278573d6000803e3d6000fd5b505050506040513d601f19601f8201168201806040525081019061129c9190612b9d565b6001600160a01b0316036112b257506001610617565b6001600160a01b0380841660009081526005602090815260408083209386168352929052205460ff165b9392505050565b600b546001600160a01b0316331461133d5760405162461bcd60e51b815260206004820181905260248201527f4f776e61626c653a2063616c6c6572206973206e6f7420746865206f776e65726044820152606401610717565b6001600160a01b0381166113a25760405162461bcd60e51b815260206004820152602660248201527f4f776e61626c653a206e6577206f776e657220697320746865207a65726f206160448201526564647265737360d01b6064820152608401610717565b610ca781611a6e565b6040516370a0823160e01b815230600482015281906000906001600160a01b038316906370a0823190602401602060405180830381865afa1580156113f4573d6000803e3d6000fd5b505050506040513d601f19601f820116820180604052508101906114189190612b84565b9050600061271061142b83611f40612b0e565b6114359190612b43565b60405163a9059cbb60e01b81526001600160a01b037f000000000000000000000000000000000000000000000000000000000000000081166004830152602482018390529192509084169063a9059cbb906044016020604051808303816000875af11580156114a8573d6000803e3d6000fd5b505050506040513d601f19601f820116820180604052508101906114cc9190612a8a565b506001600160a01b03831663a9059cbb737af3ba4a5854438a6bf27e4d005cd07d5497c33e6114fb8486612b57565b6040516001600160e01b031960e085901b1681526001600160a01b03909216600483015260248201526044016020604051808303816000875af1158015611546573d6000803e3d6000fd5b505050506040513d601f19601f8201168201806040525081019061156a9190612a8a565b5050505050565b604051632474521560e21b8152600060048201523360248201527f00000000000000000000000000000000000000000000000000000000000000006001600160a01b0316906391d1485490604401602060405180830381865afa1580156115dc573d6000803e3d6000fd5b505050506040513d601f19601f820116820180604052508101906116009190612a8a565b61163f5760405162461bcd60e51b815260206004820152601060248201526f41646d696e2063616c6c73206f6e6c7960801b6044820152606401610717565b61084c600c838361251e565b80546001019055565b60006001600160e01b0319821663780e9d6360e01b1480610617575061061782611d2f565b6000908152600260205260409020546001600160a01b0316151590565b600081815260046020526040902080546001600160a01b0319166001600160a01b03841690811790915581906116cb82610d3d565b6001600160a01b03167f8c5be1e5ebec7d5bd14f71427d1e84f3dd0314c0f7b2291e5b200ac8c7c3b92560405160405180910390a45050565b61170d82611679565b6117705760405162461bcd60e51b815260206004820152602e60248201527f45524337323155524953746f726167653a2055524920736574206f66206e6f6e60448201526d32bc34b9ba32b73a103a37b5b2b760911b6064820152608401610717565b6000828152600a60209081526040909120825161084c928401906125a2565b600061179a82611679565b6117fb5760405162461bcd60e51b815260206004820152602c60248201527f4552433732313a206f70657261746f7220717565727920666f72206e6f6e657860448201526b34b9ba32b73a103a37b5b2b760a11b6064820152608401610717565b600061180683610d3d565b9050806001600160a01b0316846001600160a01b0316148061182d575061182d81856111c3565b806118515750836001600160a01b0316611846846106af565b6001600160a01b0316145b949350505050565b826001600160a01b031661186c82610d3d565b6001600160a01b0316146118d05760405162461bcd60e51b815260206004820152602560248201527f4552433732313a207472616e736665722066726f6d20696e636f72726563742060448201526437bbb732b960d91b6064820152608401610717565b6001600160a01b0382166119325760405162461bcd60e51b8152602060048201526024808201527f4552433732313a207472616e7366657220746f20746865207a65726f206164646044820152637265737360e01b6064820152608401610717565b61193d838383611d7f565b611948600082611696565b6001600160a01b0383166000908152600360205260408120805460019290611971908490612b57565b90915550506001600160a01b038216600090815260036020526040812080546001929061199f908490612bba565b909155505060008181526002602052604080822080546001600160a01b0319166001600160a01b0386811691821790925591518493918716917fddf252ad1be2c89b69c2b068fc378daa952ba7f163c4a11628f55a4df523b3ef91a4505050565b6000611a0b600d5490565b9050611a1b600d80546001019055565b611a258482611d8a565b61104a8184848080601f01602080910402602001604051908101604052809392919081815260200183838082843760009201919091525061170492505050565b610ca781611da4565b600b80546001600160a01b038381166001600160a01b0319831681179093556040519116919082907f8be0079c531659141344cd1fd0a4f28419497f9722a3daafe3b4186f6b6457e090600090a35050565b816001600160a01b0316836001600160a01b031603611b215760405162461bcd60e51b815260206004820152601960248201527f4552433732313a20617070726f766520746f2063616c6c6572000000000000006044820152606401610717565b6001600160a01b03838116600081815260056020908152604080832094871680845294825291829020805460ff191686151590811790915591519182527f17307eab39ab6107e8899845ad3d59bd9653f200f220920489ca2b5937696c31910160405180910390a3505050565b611b99848484611859565b611ba584848484611de4565b61104a5760405162461bcd60e51b815260040161071790612bd2565b6060611bcc82611679565b611c325760405162461bcd60e51b815260206004820152603160248201527f45524337323155524953746f726167653a2055524920717565727920666f72206044820152703737b732bc34b9ba32b73a103a37b5b2b760791b6064820152608401610717565b6000828152600a602052604081208054611c4b90612a50565b80601f0160208091040260200160405190810160405280929190818152602001828054611c7790612a50565b8015611cc45780601f10611c9957610100808354040283529160200191611cc4565b820191906000526020600020905b815481529060010190602001808311611ca757829003601f168201915b505050505090506000611ce260408051602081019091526000815290565b90508051600003611cf4575092915050565b815115611d26578082604051602001611d0e929190612c24565b60405160208183030381529060405292505050919050565b61185184611ee5565b60006001600160e01b031982166380ac58cd60e01b1480611d6057506001600160e01b03198216635b5e139f60e01b145b8061061757506301ffc9a760e01b6001600160e01b0319831614610617565b61084c838383611fbc565b610ebb828260405180602001604052806000815250612074565b611dad816120a7565b6000818152600a602052604090208054611dc690612a50565b159050610ca7576000818152600a60205260408120610ca791612616565b60006001600160a01b0384163b15611eda57604051630a85bd0160e11b81526001600160a01b0385169063150b7a0290611e28903390899088908890600401612c53565b6020604051808303816000875af1925050508015611e63575060408051601f3d908101601f19168201909252611e6091810190612c90565b60015b611ec0573d808015611e91576040519150601f19603f3d011682016040523d82523d6000602084013e611e96565b606091505b508051600003611eb85760405162461bcd60e51b815260040161071790612bd2565b805181602001fd5b6001600160e01b031916630a85bd0160e11b149050611851565b506001949350505050565b6060611ef082611679565b611f545760405162461bcd60e51b815260206004820152602f60248201527f4552433732314d657461646174613a2055524920717565727920666f72206e6f60448201526e3732bc34b9ba32b73a103a37b5b2b760891b6064820152608401610717565b6000611f6b60408051602081019091526000815290565b90506000815111611f8b57604051806020016040528060008152506112dc565b80611f958461214e565b604051602001611fa6929190612c24565b6040516020818303038152906040529392505050565b6001600160a01b0383166120175761201281600880546000838152600960205260408120829055600182018355919091527ff3f7a9fe364faab93b216da50a3214154f22a0a2b415b23a84c8169e8b636ee30155565b61203a565b816001600160a01b0316836001600160a01b03161461203a5761203a838261224f565b6001600160a01b0382166120515761084c816122ec565b826001600160a01b0316826001600160a01b03161461084c5761084c828261239b565b61207e83836123df565b61208b6000848484611de4565b61084c5760405162461bcd60e51b815260040161071790612bd2565b60006120b282610d3d565b90506120c081600084611d7f565b6120cb600083611696565b6001600160a01b03811660009081526003602052604081208054600192906120f4908490612b57565b909155505060008281526002602052604080822080546001600160a01b0319169055518391906001600160a01b038416907fddf252ad1be2c89b69c2b068fc378daa952ba7f163c4a11628f55a4df523b3ef908390a45050565b6060816000036121755750506040805180820190915260018152600360fc1b602082015290565b8160005b811561219f578061218981612cad565b91506121989050600a83612b43565b9150612179565b60008167ffffffffffffffff8111156121ba576121ba6128ea565b6040519080825280601f01601f1916602001820160405280156121e4576020820181803683370190505b5090505b8415611851576121f9600183612b57565b9150612206600a86612cc6565b612211906030612bba565b60f81b81838151811061222657612226612b6e565b60200101906001600160f81b031916908160001a905350612248600a86612b43565b94506121e8565b6000600161225c84610db4565b6122669190612b57565b6000838152600760205260409020549091508082146122b9576001600160a01b03841660009081526006602090815260408083208584528252808320548484528184208190558352600790915290208190555b5060009182526007602090815260408084208490556001600160a01b039094168352600681528383209183525290812055565b6008546000906122fe90600190612b57565b6000838152600960205260408120546008805493945090928490811061232657612326612b6e565b90600052602060002001549050806008838154811061234757612347612b6e565b600091825260208083209091019290925582815260099091526040808220849055858252812055600880548061237f5761237f612cda565b6001900381819060005260206000200160009055905550505050565b60006123a683610db4565b6001600160a01b039093166000908152600660209081526040808320868452825280832085905593825260079052919091209190915550565b6001600160a01b0382166124355760405162461bcd60e51b815260206004820181905260248201527f4552433732313a206d696e7420746f20746865207a65726f20616464726573736044820152606401610717565b61243e81611679565b1561248b5760405162461bcd60e51b815260206004820152601c60248201527f4552433732313a20746f6b656e20616c7265616479206d696e746564000000006044820152606401610717565b61249760008383611d7f565b6001600160a01b03821660009081526003602052604081208054600192906124c0908490612bba565b909155505060008181526002602052604080822080546001600160a01b0319166001600160a01b03861690811790915590518392907fddf252ad1be2c89b69c2b068fc378daa952ba7f163c4a11628f55a4df523b3ef908290a45050565b82805461252a90612a50565b90600052602060002090601f01602090048101928261254c5760008555612592565b82601f106125655782800160ff19823516178555612592565b82800160010185558215612592579182015b82811115612592578235825591602001919060010190612577565b5061259e92915061264c565b5090565b8280546125ae90612a50565b90600052602060002090601f0160209004810192826125d05760008555612592565b82601f106125e957805160ff1916838001178555612592565b82800160010185558215612592579182015b828111156125925782518255916020019190600101906125fb565b50805461262290612a50565b6000825580601f10612632575050565b601f016020900490600052602060002090810190610ca791905b5b8082111561259e576000815560010161264d565b6001600160e01b031981168114610ca757600080fd5b60006020828403121561268957600080fd5b81356112dc81612661565b60005b838110156126af578181015183820152602001612697565b8381111561104a5750506000910152565b600081518084526126d8816020860160208601612694565b601f01601f19169290920160200192915050565b6020815260006112dc60208301846126c0565b60006020828403121561271157600080fd5b5035919050565b6001600160a01b0381168114610ca757600080fd5b6000806040838503121561274057600080fd5b823561274b81612718565b946020939093013593505050565b60008083601f84011261276b57600080fd5b50813567ffffffffffffffff81111561278357600080fd5b6020830191508360208285010111156109f357600080fd5b6000806000604084860312156127b057600080fd5b83359250602084013567ffffffffffffffff8111156127ce57600080fd5b6127da86828701612759565b9497909650939450505050565b6000806000606084860312156127fc57600080fd5b833561280781612718565b9250602084013561281781612718565b929592945050506040919091013590565b6000806040838503121561283b57600080fd5b50508035926020909101359150565b60008060006040848603121561285f57600080fd5b833561286a81612718565b9250602084013567ffffffffffffffff8111156127ce57600080fd5b60006020828403121561289857600080fd5b81356112dc81612718565b8015158114610ca757600080fd5b600080604083850312156128c457600080fd5b82356128cf81612718565b915060208301356128df816128a3565b809150509250929050565b634e487b7160e01b600052604160045260246000fd5b6000806000806080858703121561291657600080fd5b843561292181612718565b9350602085013561293181612718565b925060408501359150606085013567ffffffffffffffff8082111561295557600080fd5b818701915087601f83011261296957600080fd5b81358181111561297b5761297b6128ea565b604051601f8201601f19908116603f011681019083821181831017156129a3576129a36128ea565b816040528281528a60208487010111156129bc57600080fd5b82602086016020830137600060208483010152809550505050505092959194509250565b600080604083850312156129f357600080fd5b82356129fe81612718565b915060208301356128df81612718565b60008060208385031215612a2157600080fd5b823567ffffffffffffffff811115612a3857600080fd5b612a4485828601612759565b90969095509350505050565b600181811c90821680612a6457607f821691505b602082108103612a8457634e487b7160e01b600052602260045260246000fd5b50919050565b600060208284031215612a9c57600080fd5b81516112dc816128a3565b60208082526031908201527f4552433732313a207472616e736665722063616c6c6572206973206e6f74206f6040820152701ddb995c881b9bdc88185c1c1c9bdd9959607a1b606082015260800190565b634e487b7160e01b600052601160045260246000fd5b6000816000190483118215151615612b2857612b28612af8565b500290565b634e487b7160e01b600052601260045260246000fd5b600082612b5257612b52612b2d565b500490565b600082821015612b6957612b69612af8565b500390565b634e487b7160e01b600052603260045260246000fd5b600060208284031215612b9657600080fd5b5051919050565b600060208284031215612baf57600080fd5b81516112dc81612718565b60008219821115612bcd57612bcd612af8565b500190565b60208082526032908201527f4552433732313a207472616e7366657220746f206e6f6e20455243373231526560408201527131b2b4bb32b91034b6b83632b6b2b73a32b960711b606082015260800190565b60008351612c36818460208801612694565b835190830190612c4a818360208801612694565b01949350505050565b6001600160a01b0385811682528416602082015260408101839052608060608201819052600090612c86908301846126c0565b9695505050505050565b600060208284031215612ca257600080fd5b81516112dc81612661565b600060018201612cbf57612cbf612af8565b5060010190565b600082612cd557612cd5612b2d565b500690565b634e487b7160e01b600052603160045260246000fdfea26469706673582212201b80f06d9a54e334009b048d7acf2242dcfe6a47cc163695bc0ffc644128c57564736f6c634300080e0033a26469706673582212205daaeebbc79f899368bb9cbecc2e9122808f264e4faed35bdfbe4771ec87d8ca64736f6c634300080e0033",
  "linkReferences": {},
  "deployedLinkReferences": {}
}