{
  "_format": "hh-sol-artifact-1",
  "contractName": "NFTFactory",
  "sourceName": "contracts/NFT/NFTFactory.sol",
  "abi": [
    {
      "inputs": [
        {
          "internalType": "address",
          "name": "_sageStorage",
          "type": "address"
        }
      ],
      "stateMutability": "nonpayable",
      "type": "constructor"
    },
    {
      "inputs": [],
      "name": "PermissionDenied",
      "type": "error"
    },
    {
      "inputs": [
        {
          "internalType": "address",
          "name": "artistAddress",
          "type": "address"
        },
        {
          "internalType": "string",
          "name": "name",
          "type": "string"
        },
        {
          "internalType": "string",
          "name": "symbol",
          "type": "string"
        }
      ],
      "name": "createNFTContract",
      "outputs": [],
      "stateMutability": "nonpayable",
      "type": "function"
    },
    {
      "inputs": [
        {
          "internalType": "string",
          "name": "name",
          "type": "string"
        },
        {
          "internalType": "string",
          "name": "symbol",
          "type": "string"
        }
      ],
      "name": "deployOwnContract",
      "outputs": [],
      "stateMutability": "nonpayable",
      "type": "function"
    },
    {
      "inputs": [
        {
          "internalType": "address",
          "name": "artistAddress",
          "type": "address"
        }
      ],
      "name": "getContractAddress",
      "outputs": [
        {
          "internalType": "address",
          "name": "",
          "type": "address"
        }
      ],
      "stateMutability": "view",
      "type": "function"
    }
  ],
  "bytecode": "0x60803461007e57601f6136f238819003918201601f19168301916001600160401b038311848410176100835780849260209460405283398101031261007e57516001600160a01b038116810361007e57600180546001600160a01b0319166001600160a01b0392909216919091179055604051613658908161009a8239f35b600080fd5b634e487b7160e01b600052604160045260246000fdfe6080604052600436101562000014575b600080fd5b6000803560e01c9081630a51481f146200005a5750806317161096146200004f5763622bc90e146200004557600080fd5b6200000f620002ce565b506200000f6200020b565b34620001c0576060366003190112620001c05762000077620001c3565b67ffffffffffffffff602435818111620001bc576200009b903690600401620001da565b91604435908111620001b857620000b7903690600401620001da565b929091620001356020620000ca62000389565b600154620000e8906001600160a01b03165b6001600160a01b031690565b9060405162000111816200010286820194339086620003b1565b03601f19810183528262000366565b519020906040518080958194633d70e7e560e11b8352600483019190602083019252565b03915afa908115620001a8575b879162000173575b501562000161576200015c94620004ee565b604051f35b604051630782484160e21b8152600490fd5b62000199915060203d8111620001a0575b62000190818362000366565b8101906200040e565b876200014a565b503d62000184565b620001b262000428565b62000142565b8480fd5b8380fd5b80fd5b600435906001600160a01b03821682036200000f57565b9181601f840112156200000f5782359167ffffffffffffffff83116200000f57602083818601950101116200000f57565b50346200000f5760403660031901126200000f5767ffffffffffffffff6004358181116200000f5762000243903690600401620001da565b90916024359081116200000f5762000260903690600401620001da565b91620002716020620000ca62000669565b03915afa908115620002be575b6000916200029b575b50156200016157620002999362000693565b005b620002b7915060203d8111620001a05762000190818362000366565b3862000287565b620002c862000428565b6200027e565b50346200000f5760203660031901126200000f5760206001600160a01b0380620002f7620001c3565b166000526000825260406000205416604051908152f35b50634e487b7160e01b600052604160045260246000fd5b67ffffffffffffffff81116200033a57604052565b620003446200030e565b604052565b6040810190811067ffffffffffffffff8211176200033a57604052565b90601f8019910116810190811067ffffffffffffffff8211176200033a57604052565b60405190620003988262000349565b600a8252693937b6329730b236b4b760b11b6020830152565b929190928351906000945b828610620003f85750816014949511620003ec575b01906bffffffffffffffffffffffff199060601b1681520190565b600082820152620003d1565b94806020809288010151818401520194620003bc565b908160209103126200000f575180151581036200000f5790565b506040513d6000823e3d90fd5b156200043d57565b60405162461bcd60e51b815260206004820152601760248201527f436f6e747261637420616c7265616479206578697374730000000000000000006044820152606490fd5b908060209392818452848401376000828201840152601f01601f1916010190565b93620004c360409492620004d29498979860608852606088019162000482565b91858303602087015262000482565b6001600160a01b03909416910152565b60009103126200000f57565b9392620005829060018060a01b03946200053c8662000534620000dc620005278b60018060a01b03166000526000602052604060002090565b546001600160a01b031690565b161562000435565b60015462000553906001600160a01b0316620000dc565b91604051958695612f208088019088821067ffffffffffffffff83111762000659575b620007038939620004a3565b03906000f090811562000649575b8116803b156200000f5760405163f2fde38b60e01b81526001600160a01b03841660048201526200061993620005fa929091906000908290602490829084905af1801562000639575b6200061b575b506001600160a01b0316600090815260208190526040902090565b80546001600160a01b0319166001600160a01b03909216919091179055565b565b806200062b620006329262000325565b80620004e2565b38620005df565b6200064362000428565b620005d9565b6200065362000428565b62000590565b620006636200030e565b62000576565b60405190620006788262000349565b600c82526b3937b6329731b932b0ba37b960a11b6020830152565b929190620006a66020620000ca62000389565b03915afa908115620006f2575b600091620006cf575b50156200016157620006199333620004ee565b620006eb915060203d8111620001a05762000190818362000366565b38620006bc565b620006fc62000428565b620006b356fe60a060405234620000bc5762002f20803803806200001d81620000d8565b928339810190606081830312620000bc5780516001600160401b039290838111620000bc5781620000509184016200010d565b926020830151908111620000bc576040916200006e9184016200010d565b910151906001600160a01b0382168203620000bc576200008e92620001a1565b604051612a0c908162000514823960805181818161078801528181610e9f015281816110fb01526128f70152f35b600080fd5b50634e487b7160e01b600052604160045260246000fd5b6040519190601f01601f191682016001600160401b03811183821017620000fe57604052565b62000108620000c1565b604052565b81601f82011215620000bc578051906001600160401b03821162000191575b60209062000143601f8401601f19168301620000d8565b93838552828483010111620000bc5782906000905b8383831062000178575050116200016e57505090565b6000918301015290565b8193508281939201015182828801015201839162000158565b6200019b620000c1565b6200012c565b80519091906001600160401b038111620002c2575b600090620001d081620001ca8454620002d2565b6200030f565b602080601f83116001146200022e575081906200020995849262000222575b50508160011b916000199060031b1c1916179055620003c3565b6200021433620004c5565b6001600160a01b0316608052565b015190503880620001ef565b60008052939492939192601f1984167f290decd9548b62a8d60345a988386fc84ba6bc95484008f6362f93160ef3e5639386905b828210620002a95750509160019391856200020998979694106200028f575b505050811b019055620003c3565b015160001960f88460031b161c1916905538808062000281565b8060018697829497870151815501960194019062000262565b620002cc620000c1565b620001b6565b90600182811c9216801562000304575b6020831014620002ee57565b634e487b7160e01b600052602260045260246000fd5b91607f1691620002e2565b601f81116200031c575050565b60009081805260208220906020601f850160051c830194106200035c575b601f0160051c01915b8281106200035057505050565b81815560010162000343565b90925082906200033a565b90601f821162000375575050565b60019160009083825260208220906020601f850160051c83019410620003b8575b601f0160051c01915b828110620003ad5750505050565b81815583016200039f565b909250829062000396565b80519091906001600160401b038111620004b5575b600190620003f281620003ec8454620002d2565b62000367565b602080601f83116001146200043057508192939460009262000424575b5050600019600383901b1c191690821b179055565b0151905038806200040f565b6001600052601f198316959091907fb10e2d527612073b26eecdfd717e6a320cf44b4afac2b0732d9fcbe2b7fa0cf6926000905b8882106200049d575050838596971062000483575b505050811b019055565b015160001960f88460031b161c1916905538808062000479565b80878596829496860151815501950193019062000464565b620004bf620000c1565b620003d8565b600b80546001600160a01b039283166001600160a01b031982168117909255604051919216907f8be0079c531659141344cd1fd0a4f28419497f9722a3daafe3b4186f6b6457e090600090a356fe6080604052600436101561001b575b361561001957600080fd5b005b60003560e01c806301ffc9a71461022357806306fdde031461021a578063081812fc14610211578063095ea7b31461020857806318160ddd146101ff57806323b872dd146101f65780632a55205a146101ed5780632f745c59146101e45780633ccfd60b146101db57806342842e0e146101d257806342966c68146101c95780634f6ccce7146101c05780636352211e146101b757806370a08231146101ae578063715018a6146101a55780638da5cb5b1461019c57806395d89b4114610193578063a22cb4651461018a578063a3299d2b14610181578063a82670d314610178578063b88d4fde1461016f578063c87b56dd14610166578063cd279c7c1461015d578063e985e9c514610154578063f2fde38b1461014b5763f4f3b2000361000e57610146611240565b61000e565b506101466111a5565b50610146611166565b50610146611092565b5061014661105e565b50610146610ff5565b50610146610e31565b50610146610ded565b50610146610ca1565b50610146610bf1565b50610146610bc7565b50610146610b62565b50610146610b32565b50610146610b13565b50610146610a67565b50610146610834565b5061014661080b565b50610146610710565b50610146610658565b50610146610609565b506101466105df565b50610146610594565b50610146610471565b5061014661042f565b50610146610354565b50610146610243565b6001600160e01b031981160361023e57565b600080fd5b503461023e57602036600319011261023e5760206004356102638161022c565b63ffffffff60e01b1663152a902d60e11b8114908115610289575b506040519015158152f35b63780e9d6360e01b8114915081156102a3575b503861027e565b6380ac58cd60e01b8114915081156102d5575b81156102c4575b503861029c565b6301ffc9a760e01b149050386102bd565b635b5e139f60e01b811491506102b6565b918091926000905b8282106103065750116102ff575050565b6000910152565b915080602091830151818601520182916102ee565b90602091610334815180928185528580860191016102e6565b601f01601f1916010190565b90602061035192818152019061031b565b90565b503461023e5760008060031936011261042c57604051908080546103778161142d565b8085529160019180831690811561040b57506001146103b1575b6103ad856103a181870382610f71565b60405191829182610340565b0390f35b80809450527f290decd9548b62a8d60345a988386fc84ba6bc95484008f6362f93160ef3e5635b8284106103f35750505081016020016103a1826103ad610391565b805460208587018101919091529093019281016103d8565b60ff1916602087015250506040840192506103a191508390506103ad610391565b80fd5b503461023e57602036600319011261023e57602061044e600435611509565b6040516001600160a01b039091168152f35b6001600160a01b0381160361023e57565b503461023e57604036600319011261023e5760043561048f81610460565b60243561049b816113b5565b6001600160a01b038181169084168114610545573314908115610533575b50156104c857610019916119d2565b60405162461bcd60e51b815260206004820152603860248201527f4552433732313a20617070726f76652063616c6c6572206973206e6f74206f7760448201527f6e6572206e6f7220617070726f76656420666f7220616c6c00000000000000006064820152608490fd5b61053f9150339061287c565b386104b9565b60405162461bcd60e51b815260206004820152602160248201527f4552433732313a20617070726f76616c20746f2063757272656e74206f776e656044820152603960f91b6064820152608490fd5b503461023e57600036600319011261023e576020600854604051908152f35b606090600319011261023e576004356105cb81610460565b906024356105d881610460565b9060443590565b503461023e576100196105f1366105b3565b916106046105ff84336116b7565b61159b565b611865565b503461023e57604036600319011261023e576103e860243580151560001982900483111661064b575b6040805130815261271093909202929092046020820152f35b6106536117e1565b610632565b503461023e57604036600319011261023e5760043561067681610460565b602435906106838161133d565b8210156106b7576001600160a01b031660009081526006602090815260408083209383529281529082902054915191825290f35b60405162461bcd60e51b815260206004820152602b60248201527f455243373231456e756d657261626c653a206f776e657220696e646578206f7560448201526a74206f6620626f756e647360a81b6064820152608490fd5b503461023e57600036600319011261023e57604051693937b6329730b236b4b760b11b602082019081523360601b6001600160601b031916602a8301526107c89161076881603e81015b03601f198101835282610f71565b519020604051633d70e7e560e11b815260048101919091526020816024817f00000000000000000000000000000000000000000000000000000000000000006001600160a01b03165afa9081156107fe575b6000916107d0575b50611f40565b610019612110565b6107f1915060203d81116107f7575b6107e98183610f71565b810190611eeb565b386107c2565b503d6107df565b610806611aa9565b6107ba565b503461023e5761001961081d366105b3565b906040519261082b84610f2c565b60008452611614565b503461023e57602036600319011261023e5760043561085381336116b7565b15610a0957806000610864826113b5565b6001600160a01b038116906108b090821584146109355761088485612307565b61088d85612380565b6108968561197c565b6001600160a01b0316600090815260036020526040902090565b6108ba81546117f8565b90556108e36108d3846000526002602052604060002090565b80546001600160a01b0319169055565b6000805160206129b783398151915282604051a461091361090e82600052600a602052604060002090565b612495565b61091957005b61093061001991600052600a602052604060002090565b61249f565b61093e8161133d565b600181106109fc575b8419016109a38591878352600760205260408320548181036109a9575b508261097a896000526007602052604060002090565b556001600160a01b03841660009081526006602052604090205b90600052602052604060002090565b55610884565b8684526006602052604084208285526020526109f56040852054806109e4846109948a60018060a01b03166000526006602052604060002090565b556000526007602052604060002090565b5538610964565b610a046117e1565b610947565b60405162461bcd60e51b815260206004820152603060248201527f4552433732314275726e61626c653a2063616c6c6572206973206e6f74206f7760448201526f1b995c881b9bdc88185c1c1c9bdd995960821b6064820152608490fd5b503461023e57602036600319011261023e57600435600854811015610ab95760086000527ff3f7a9fe364faab93b216da50a3214154f22a0a2b415b23a84c8169e8b636ee30154604051908152602090f35b60405162461bcd60e51b815260206004820152602c60248201527f455243373231456e756d657261626c653a20676c6f62616c20696e646578206f60448201526b7574206f6620626f756e647360a01b6064820152608490fd5b503461023e57602036600319011261023e57602061044e6004356113b5565b503461023e57602036600319011261023e576020610b5a600435610b5581610460565b61133d565b604051908152f35b503461023e5760008060031936011261042c57600b546001600160a01b03811690610b8e3383146112a2565b6001600160a01b031916600b556040519082907f8be0079c531659141344cd1fd0a4f28419497f9722a3daafe3b4186f6b6457e08284a3f35b503461023e57600036600319011261023e57600b546040516001600160a01b039091168152602090f35b503461023e5760008060031936011261042c5760405190806001805491610c178361142d565b8086529282811690811561040b5750600114610c3d576103ad856103a181870382610f71565b92508083527fb10e2d527612073b26eecdfd717e6a320cf44b4afac2b0732d9fcbe2b7fa0cf65b828410610c7f5750505081016020016103a1826103ad610391565b80546020858701810191909152909301928101610c64565b8015150361023e57565b503461023e57604036600319011261023e57600435610cbf81610460565b602435610ccb81610c97565b6001600160a01b03821691338314610d4d5781610d0a610d1b9233600052600560205260406000209060018060a01b0316600052602052604060002090565b9060ff801983541691151516179055565b604051901515815233907f17307eab39ab6107e8899845ad3d59bd9653f200f220920489ca2b5937696c3190602090a3005b60405162461bcd60e51b815260206004820152601960248201527f4552433732313a20617070726f766520746f2063616c6c6572000000000000006044820152606490fd5b90606060031983011261023e57600435610dab81610460565b916024359160443567ffffffffffffffff9283821161023e578060238301121561023e57816004013593841161023e576024848301011161023e576024019190565b503461023e57610019610e24610e2b610e0536610d92565b9180959193610e1f60018060a01b03600b541633146112a2565b611bfa565b3691610fbe565b90611d87565b503461023e57602036600319011261023e57610edf610e9b6020604051818101906a3937b63297313ab93732b960a91b82523360601b602b820152601f8152610e7981610f55565b51902060405180938192633d70e7e560e11b8352600483019190602083019252565b03817f00000000000000000000000000000000000000000000000000000000000000006001600160a01b03165afa908115610f08575b600091610eea575b50612583565b6100196004356124eb565b610f02915060203d81116107f7576107e98183610f71565b38610ed9565b610f10611aa9565b610ed1565b50634e487b7160e01b600052604160045260246000fd5b6020810190811067ffffffffffffffff821117610f4857604052565b610f50610f15565b604052565b6040810190811067ffffffffffffffff821117610f4857604052565b90601f8019910116810190811067ffffffffffffffff821117610f4857604052565b60209067ffffffffffffffff8111610fb1575b601f01601f19160190565b610fb9610f15565b610fa6565b929192610fca82610f93565b91610fd86040519384610f71565b82948184528183011161023e578281602093846000960137010152565b503461023e57608036600319011261023e5760043561101381610460565b60243561101f81610460565b6064359167ffffffffffffffff831161023e573660238401121561023e57611054610019933690602481600401359101610fbe565b9160443591611614565b503461023e57602036600319011261023e576103ad61107e6004356125d6565b60405191829160208352602083019061031b565b503461023e57610019610e24610e2b6110aa36610d92565b9180959193610e1f6110f7602060405181810190610e798161075a3385601f916a3937b6329736b4b73a32b960a91b82526bffffffffffffffffffffffff199060601b16600b8201520190565b03817f00000000000000000000000000000000000000000000000000000000000000006001600160a01b03165afa908115611159575b60009161113b575b50611f00565b611153915060203d81116107f7576107e98183610f71565b38611135565b611161611aa9565b61112d565b503461023e57604036600319011261023e57602061119b60043561118981610460565b6024359061119682610460565b61287c565b6040519015158152f35b503461023e57602036600319011261023e576004356111c381610460565b600b546001600160a01b03906111dc90821633146112a2565b8116156111ec57610019906112ed565b60405162461bcd60e51b815260206004820152602660248201527f4f776e61626c653a206e6577206f776e657220697320746865207a65726f206160448201526564647265737360d01b6064820152608490fd5b503461023e57602036600319011261023e5761001960043561126181610460565b604051693937b6329730b236b4b760b11b602082019081523360601b6001600160601b031916602a83015261129d9161076881603e810161075a565b611fb1565b156112a957565b606460405162461bcd60e51b815260206004820152602060248201527f4f776e61626c653a2063616c6c6572206973206e6f7420746865206f776e65726044820152fd5b600b549060018060a01b0380911691826bffffffffffffffffffffffff60a01b821617600b55167f8be0079c531659141344cd1fd0a4f28419497f9722a3daafe3b4186f6b6457e06000604051a3565b6001600160a01b0316801561135d57600052600360205260406000205490565b60405162461bcd60e51b815260206004820152602a60248201527f4552433732313a2062616c616e636520717565727920666f7220746865207a65604482015269726f206164647265737360b01b6064820152608490fd5b6000908152600260205260409020546001600160a01b031680156113d65790565b60405162461bcd60e51b815260206004820152602960248201527f4552433732313a206f776e657220717565727920666f72206e6f6e657869737460448201526832b73a103a37b5b2b760b91b6064820152608490fd5b90600182811c9216801561145d575b602083101461144757565b634e487b7160e01b600052602260045260246000fd5b91607f169161143c565b906040519182600082549261147b8461142d565b9081845260019485811690816000146114ea57506001146114a7575b50506114a592500383610f71565b565b9093915060005260209081600020936000915b8183106114d25750506114a593508201013880611497565b855488840185015294850194879450918301916114ba565b9550505050505060ff191660208301526114a582604081013880611497565b6000818152600260205260409020546001600160a01b031615611541576000908152600460205260409020546001600160a01b031690565b60405162461bcd60e51b815260206004820152602c60248201527f4552433732313a20617070726f76656420717565727920666f72206e6f6e657860448201526b34b9ba32b73a103a37b5b2b760a11b6064820152608490fd5b156115a257565b60405162461bcd60e51b815260206004820152603160248201527f4552433732313a207472616e736665722063616c6c6572206973206e6f74206f6044820152701ddb995c881b9bdc88185c1c1c9bdd9959607a1b6064820152608490fd5b6040519061160e82610f2c565b60008252565b916114a5939161163b9361162b6105ff84336116b7565b611636838383611865565b611ba7565b611693565b60809060208152603260208201527f4552433732313a207472616e7366657220746f206e6f6e20455243373231526560408201527131b2b4bb32b91034b6b83632b6b2b73a32b960711b60608201520190565b1561169a57565b60405162461bcd60e51b8152806116b360048201611640565b0390fd5b6000828152600260205260409020546001600160a01b03161561172f576116dd826113b5565b9160018060a01b039081831692828516841494851561171c575b50508315611706575b50505090565b61171291929350611509565b1614388080611700565b61172792955061287c565b9238806116f7565b60405162461bcd60e51b815260206004820152602c60248201527f4552433732313a206f70657261746f7220717565727920666f72206e6f6e657860448201526b34b9ba32b73a103a37b5b2b760a11b6064820152608490fd5b1561179057565b60405162461bcd60e51b8152602060048201526024808201527f4552433732313a207472616e7366657220746f20746865207a65726f206164646044820152637265737360e01b6064820152608490fd5b50634e487b7160e01b600052601160045260246000fd5b60018110611808575b6000190190565b6118106117e1565b611801565b818110611820570390565b6118286117e1565b0390565b600190600119811161183c570190565b6118446117e1565b0190565b8019603011611858575b60300190565b6118606117e1565b611852565b9061186f836113b5565b6001600160a01b038381169290918216839003611929576118af6119129282169461189b861515611789565b6118a68784836121ca565b6108968761197c565b6118b981546117f8565b90556001600160a01b03811660009081526003602052604090206118dd815461182c565b90556118f3856000526002602052604060002090565b80546001600160a01b0319166001600160a01b03909216919091179055565b6000805160206129b78339815191526000604051a4565b60405162461bcd60e51b815260206004820152602560248201527f4552433732313a207472616e736665722066726f6d20696e636f72726563742060448201526437bbb732b960d91b6064820152608490fd5b600081815260046020526040812080546001600160a01b03191690556001600160a01b036119a9836113b5565b167f8c5be1e5ebec7d5bd14f71427d1e84f3dd0314c0f7b2291e5b200ac8c7c3b92582604051a4565b600082815260046020526040902080546001600160a01b0319166001600160a01b0383161790556001600160a01b0380611a0b846113b5565b169116907f8c5be1e5ebec7d5bd14f71427d1e84f3dd0314c0f7b2291e5b200ac8c7c3b9256000604051a4565b9081602091031261023e57516103518161022c565b610351939260809260018060a01b03168252600060208301526040820152816060820152019061031b565b6001600160a01b0391821681529116602082015260408101919091526080606082018190526103519291019061031b565b506040513d6000823e3d90fd5b3d15611ae1573d90611ac782610f93565b91611ad56040519384610f71565b82523d6000602084013e565b606090565b909190803b15611b9f57611b18602091600093604051948580948193630a85bd0160e11b998a84523360048501611a4d565b03926001600160a01b03165af160009181611b6f575b50611b6157611b3b611ab6565b80519081611b5c5760405162461bcd60e51b8152806116b360048201611640565b602001fd5b6001600160e01b0319161490565b611b9191925060203d8111611b98575b611b898183610f71565b810190611a38565b9038611b2e565b503d611b7f565b505050600190565b92909190823b15611bda57611b18926020926000604051809681958294630a85bd0160e11b9a8b85523360048601611a78565b50505050600190565b50634e487b7160e01b600052603260045260246000fd5b90604051611c0781610f2c565b600081526001600160a01b038316918215611ce7576000818152600260205260409020546001600160a01b0316611ca257838161163b94611c4b826114a59861219f565b6001600160a01b0383166000908152600360205260409020611c6d815461182c565b9055611c87836118f3846000526002602052604060002090565b60006000805160206129b783398151915281604051a4611ae6565b60405162461bcd60e51b815260206004820152601c60248201527f4552433732313a20746f6b656e20616c7265616479206d696e746564000000006044820152606490fd5b606460405162461bcd60e51b815260206004820152602060248201527f4552433732313a206d696e7420746f20746865207a65726f20616464726573736044820152fd5b818110611d36575050565b60008155600101611d2b565b9190601f8111611d5157505050565b6114a5926000526020600020906020601f840160051c83019310611d7d575b601f0160051c0190611d2b565b9091508190611d70565b6000818152600260205260409020549192916001600160a01b031615611e8f576000526020600a815260406000209083519067ffffffffffffffff8211611e82575b611ddd82611dd7855461142d565b85611d42565b80601f8311600114611e17575081929394600092611e0c575b50508160011b916000199060031b1c1916179055565b015190503880611df6565b90601f19831695611e2d85600052602060002090565b926000905b888210611e6a57505083600195969710611e51575b505050811b019055565b015160001960f88460031b161c19169055388080611e47565b80600185968294968601518155019501930190611e32565b611e8a610f15565b611dc9565b60405162461bcd60e51b815260206004820152602e60248201527f45524337323155524953746f726167653a2055524920736574206f66206e6f6e60448201526d32bc34b9ba32b73a103a37b5b2b760911b6064820152608490fd5b9081602091031261023e575161035181610c97565b15611f0757565b60405162461bcd60e51b81526020600482015260116024820152704e6f206d696e74696e672072696768747360781b6044820152606490fd5b15611f4757565b60405162461bcd60e51b815260206004820152601060248201526f41646d696e2063616c6c73206f6e6c7960801b6044820152606490fd5b9081602091031261023e575190565b611f40908060001904821181151516611fa5570290565b611fad6117e1565b0290565b6040516370a0823160e01b81523060048201526020916120719183916001600160a01b03168282602481845afa918215612103575b6000926120d4575b5061204d612006611ffe84611f8e565b612710900490565b600b5460405163a9059cbb60e01b8082526001600160a01b0390921660048201526024810183905290949086816044816000895af180156120c7575b6120aa575b50611815565b60405192835233600484015260248301529092839190829060009082906044820190565b03925af1801561209d575b612084575050565b8161209a92903d106107f7576107e98183610f71565b50565b6120a5611aa9565b61207c565b6120c090873d89116107f7576107e98183610f71565b5038612047565b6120cf611aa9565b612042565b6120f5919250833d85116120fc575b6120ed8183610f71565b810190611f7f565b9038611fee565b503d6120e3565b61210b611aa9565b611fe6565b6121193061133d565b612710611f408260001904811183151516612192575b8202049060018060a01b03600b54169160008080809584604051915af1612154611ab6565b501561218e57828282829493839410612181575b6040519103335af1612178611ab6565b501561042c5750565b6121896117e1565b612168565b8280fd5b61219a6117e1565b61212f565b906121a981612307565b6001600160a01b0382166121c1576114a59150612380565b6114a5916122cf565b9091906001600160a01b03808216918261220457506121e883612307565b8316806121fb5750506114a59150612380565b036121c1575050565b8185168303612214575b506121e8565b6122796122208261133d565b600181106122c2575b6000190161099460009387855260076020526040852054838103612280575b508461225e896000526007602052604060002090565b556001600160a01b0316600090815260066020526040902090565b553861220e565b8786526006602052604086208487526020526122bb6040872054806109e4846109948760018060a01b03166000526006602052604060002090565b5538612248565b6122ca6117e1565b612229565b6040906122db8161133d565b9260009160018060a01b0316825260066020528282208483526020528083832055815260076020522055565b6008548160005260096020528060406000205568010000000000000000811015612373575b6001810180600855811015612366575b60086000527ff3f7a9fe364faab93b216da50a3214154f22a0a2b415b23a84c8169e8b636ee30155565b61236e611be3565b61233c565b61237b610f15565b61232c565b6008805460018110612488575b60009083825260096020528161242f6040822054956000199684888101101561247b575b86845261241e7ff3f7a9fe364faab93b216da50a3214154f22a0a2b415b23a84c8169e8b636ee295868101549083101561246e575b88865280837ff3f7a9fe364faab93b216da50a3214154f22a0a2b415b23a84c8169e8b636ee301556000526009602052604060002090565b556000526009602052604060002090565b55825493841561245a578401938085101561244d575b838352015555565b612455611be3565b612445565b634e487b7160e01b83526031600452602483fd5b612476611be3565b6123e6565b612483611be3565b6123b1565b6124906117e1565b61238d565b610351905461142d565b6124a9815461142d565b90816124b3575050565b81601f600093116001146124c5575055565b818352602083206124e191601f0160051c810190600101611d2b565b8160208120915555565b8060006124f7826113b5565b6001600160a01b0381169061251790821584146109355761088485612307565b61252181546117f8565b905561253a6108d3846000526002602052604060002090565b6000805160206129b783398151915282604051a461256561090e82600052600a602052604060002090565b61256c5750565b6109306114a591600052600a602052604060002090565b1561258a57565b60405162461bcd60e51b81526020600482015260116024820152704e6f206275726e696e672072696768747360781b6044820152606490fd5b90611844602092828151948592016102e6565b6000818152600260205260409020546001600160a01b0316156126575761260f61260a82600052600a602052604060002090565b611467565b90612618611601565b805115612652578251612630575061035191506126b6565b610351915061075a61264c9360405194859360208501906125c3565b906125c3565b505090565b60405162461bcd60e51b815260206004820152603160248201527f45524337323155524953746f726167653a2055524920717565727920666f72206044820152703737b732bc34b9ba32b73a103a37b5b2b760791b6064820152608490fd5b6000818152600260205260409020546001600160a01b031615612712576126db611601565b8051909190156127085761264c9161075a6126f86103519361278e565b60405194859360208501906125c3565b5050610351611601565b60405162461bcd60e51b815260206004820152602f60248201527f4552433732314d657461646174613a2055524920717565727920666f72206e6f60448201526e3732bc34b9ba32b73a103a37b5b2b760891b6064820152608490fd5b90602091805182101561278157010190565b612789611be3565b010190565b801561284957806000908282935b61282357506127aa83610f93565b926127b86040519485610f71565b80845281601f196127c883610f93565b013660208701375b6127da5750505090565b6127e3906117f8565b90600a9061280e6127fe6127f8848406611848565b60ff1690565b60f81b6001600160f81b03191690565b841a61281a848761276f565b530490816127d0565b926001600a91600019811461283c575b0193048061279c565b6128446117e1565b612833565b5060405161285681610f55565b60018152600360fc1b602082015290565b9081602091031261023e575161035181610460565b60405172616464726573732e6d61726b6574706c61636560681b60208201908152606084901b6001600160601b03191660338301526128e4916128c2816047810161075a565b5190206040516321f8a72160e01b815260048101919091529081906024820190565b6001600160a01b039160209184919003817f000000000000000000000000000000000000000000000000000000000000000085165afa9182156129a9575b600092612979575b50808416911614612972576001600160a01b031660009081526005602052604090206103519161296b919060018060a01b0316600052602052604060002090565b5460ff1690565b5050600190565b61299b91925060203d81116129a2575b6129938183610f71565b810190612867565b903861292a565b503d612989565b6129b1611aa9565b61292256feddf252ad1be2c89b69c2b068fc378daa952ba7f163c4a11628f55a4df523b3efa2646970667358221220aaf7449a8a0f5143782fbffce49a235376d5fb414dc2ad1d9fbda705895c2a8764736f6c634300080e0033a2646970667358221220ce4eca1cd15ae935808908d62781f440752860eeddafeb106619a2f2d4b641ec64736f6c634300080e0033",
  "linkReferences": {},
  "deployedLinkReferences": {}
}