{
  "_format": "hh-sol-artifact-1",
  "contractName": "NFTFactory",
  "sourceName": "contracts/NFT/NFTFactory.sol",
  "abi": [
    {
      "inputs": [
        {
          "internalType": "address",
          "name": "_sageStorage",
          "type": "address"
        }
      ],
      "stateMutability": "nonpayable",
      "type": "constructor"
    },
    {
      "anonymous": false,
      "inputs": [
        {
          "indexed": true,
          "internalType": "address",
          "name": "contractAddress",
          "type": "address"
        },
        {
          "indexed": true,
          "internalType": "address",
          "name": "artistAddress",
          "type": "address"
        }
      ],
      "name": "NewNFTContract",
      "type": "event"
    },
    {
      "inputs": [],
      "name": "ADMIN_ROLE",
      "outputs": [
        {
          "internalType": "bytes32",
          "name": "",
          "type": "bytes32"
        }
      ],
      "stateMutability": "view",
      "type": "function"
    },
    {
      "inputs": [],
      "name": "ARTIST_ROLE",
      "outputs": [
        {
          "internalType": "bytes32",
          "name": "",
          "type": "bytes32"
        }
      ],
      "stateMutability": "view",
      "type": "function"
    },
    {
      "inputs": [
        {
          "internalType": "address",
          "name": "artistAddress",
          "type": "address"
        },
        {
          "internalType": "string",
          "name": "name",
          "type": "string"
        },
        {
          "internalType": "string",
          "name": "symbol",
          "type": "string"
        },
        {
          "internalType": "uint256",
          "name": "artistShare",
          "type": "uint256"
        }
      ],
      "name": "deployByAdmin",
      "outputs": [],
      "stateMutability": "nonpayable",
      "type": "function"
    },
    {
      "inputs": [
        {
          "internalType": "string",
          "name": "name",
          "type": "string"
        },
        {
          "internalType": "string",
          "name": "symbol",
          "type": "string"
        }
      ],
      "name": "deployByArtist",
      "outputs": [],
      "stateMutability": "nonpayable",
      "type": "function"
    },
    {
      "inputs": [
        {
          "internalType": "address",
          "name": "artistAddress",
          "type": "address"
        }
      ],
      "name": "getContractAddress",
      "outputs": [
        {
          "internalType": "address",
          "name": "",
          "type": "address"
        }
      ],
      "stateMutability": "view",
      "type": "function"
    },
    {
      "inputs": [
        {
          "internalType": "address",
          "name": "_artist",
          "type": "address"
        }
      ],
      "name": "resetArtistContract",
      "outputs": [],
      "stateMutability": "nonpayable",
      "type": "function"
    }
  ],
  "bytecode": "0x60a060405234801561001057600080fd5b50604051613b39380380613b3983398101604081905261002f91610040565b6001600160a01b0316608052610070565b60006020828403121561005257600080fd5b81516001600160a01b038116811461006957600080fd5b9392505050565b608051613a926100a76000396000818161019b0152818161027e0152818161039e0152818161048a01526105dc0152613a926000f3fe60806040523480156200001157600080fd5b5060043610620000695760003560e01c80626825cd146200006e5780631272df3e146200008757806332f83983146200009e578063622bc90e14620000b557806375b238fc1462000101578063a966a0df1462000138575b600080fd5b620000856200007f366004620006f8565b62000160565b005b620000856200009836600462000784565b62000363565b62000085620000af36600462000818565b6200046e565b620000e4620000c636600462000818565b6001600160a01b039081166000908152602081905260409020541690565b6040516001600160a01b0390911681526020015b60405180910390f35b620001297fe303cb88ace8c9e6ba216f1aecb44b3206dcab364c60512ffc6cbc920a1bf9d181565b604051908152602001620000f8565b620001297fc18c9ce59aaa739e2eb7c0e63fb0e95821f115c643b2d4c9d3d194ec807d510081565b604051632474521560e21b81527fc18c9ce59aaa739e2eb7c0e63fb0e95821f115c643b2d4c9d3d194ec807d510060048201523360248201527f00000000000000000000000000000000000000000000000000000000000000006001600160a01b0316906391d1485490604401602060405180830381865afa158015620001eb573d6000803e3d6000fd5b505050506040513d601f19601f820116820180604052508101906200021191906200083f565b620002575760405162461bcd60e51b81526020600482015260116024820152704172746973742063616c6c73206f6e6c7960781b60448201526064015b60405180910390fd5b60006200026b338686868661208d62000568565b9050806001600160a01b031663f2fde38b7f00000000000000000000000000000000000000000000000000000000000000006001600160a01b0316634783c35b6040518163ffffffff1660e01b8152600401602060405180830381865afa158015620002db573d6000803e3d6000fd5b505050506040513d601f19601f8201168201806040525081019062000301919062000863565b6040516001600160e01b031960e084901b1681526001600160a01b039091166004820152602401600060405180830381600087803b1580156200034357600080fd5b505af115801562000358573d6000803e3d6000fd5b505050505050505050565b604051632474521560e21b81527fe303cb88ace8c9e6ba216f1aecb44b3206dcab364c60512ffc6cbc920a1bf9d160048201523360248201527f00000000000000000000000000000000000000000000000000000000000000006001600160a01b0316906391d1485490604401602060405180830381865afa158015620003ee573d6000803e3d6000fd5b505050506040513d601f19601f820116820180604052508101906200041491906200083f565b620004555760405162461bcd60e51b815260206004820152601060248201526f41646d696e2063616c6c73206f6e6c7960801b60448201526064016200024e565b6200046586868686868662000568565b50505050505050565b604051632474521560e21b8152600060048201523360248201527f00000000000000000000000000000000000000000000000000000000000000006001600160a01b0316906391d1485490604401602060405180830381865afa158015620004da573d6000803e3d6000fd5b505050506040513d601f19601f820116820180604052508101906200050091906200083f565b620005415760405162461bcd60e51b815260206004820152601060248201526f41646d696e2063616c6c73206f6e6c7960801b60448201526064016200024e565b6001600160a01b0316600090815260208190526040902080546001600160a01b0319169055565b6001600160a01b0386811660009081526020819052604081205490911615620005d45760405162461bcd60e51b815260206004820152601760248201527f436f6e747261637420616c72656164792065786973747300000000000000000060448201526064016200024e565b6000868686867f00000000000000000000000000000000000000000000000000000000000000008c886040516200060b906200069e565b6200061d9796959493929190620008ac565b604051809103906000f0801580156200063a573d6000803e3d6000fd5b506001600160a01b0389811660008181526020819052604080822080546001600160a01b03191694861694851790555193945090927fb6033d0dde1ac5b6c6e41733e23c9ae072dc72d9abffbffc8cfd4ec044b325119190a3979650505050505050565b61315e80620008ff83390190565b60008083601f840112620006bf57600080fd5b50813567ffffffffffffffff811115620006d857600080fd5b602083019150836020828501011115620006f157600080fd5b9250929050565b600080600080604085870312156200070f57600080fd5b843567ffffffffffffffff808211156200072857600080fd5b6200073688838901620006ac565b909650945060208701359150808211156200075057600080fd5b506200075f87828801620006ac565b95989497509550505050565b6001600160a01b03811681146200078157600080fd5b50565b600080600080600080608087890312156200079e57600080fd5b8635620007ab816200076b565b9550602087013567ffffffffffffffff80821115620007c957600080fd5b620007d78a838b01620006ac565b90975095506040890135915080821115620007f157600080fd5b506200080089828a01620006ac565b979a9699509497949695606090950135949350505050565b6000602082840312156200082b57600080fd5b813562000838816200076b565b9392505050565b6000602082840312156200085257600080fd5b815180151581146200083857600080fd5b6000602082840312156200087657600080fd5b815162000838816200076b565b81835281816020850137506000828201602090810191909152601f909101601f19169091010190565b60a081526000620008c260a08301898b62000883565b8281036020840152620008d781888a62000883565b6001600160a01b03968716604085015294909516606083015250608001529594505050505056fe60a06040523480156200001157600080fd5b506040516200315e3803806200315e8339810160408190526200003491620002bc565b8451859085906200004d9060009060208501906200012c565b508051620000639060019060208401906200012c565b505050620000806200007a620000cd60201b60201c565b620000d1565b6001600160a01b03838116608052600c80546001600160a01b031916918416919091179055600d819055620000c2600f62000123602090811b620016f217901c565b505050505062000391565b3390565b600b80546001600160a01b038381166001600160a01b0319831681179093556040519116919082907f8be0079c531659141344cd1fd0a4f28419497f9722a3daafe3b4186f6b6457e090600090a35050565b80546001019055565b8280546200013a9062000355565b90600052602060002090601f0160209004810192826200015e5760008555620001a9565b82601f106200017957805160ff1916838001178555620001a9565b82800160010185558215620001a9579182015b82811115620001a95782518255916020019190600101906200018c565b50620001b7929150620001bb565b5090565b5b80821115620001b75760008155600101620001bc565b634e487b7160e01b600052604160045260246000fd5b600082601f830112620001fa57600080fd5b81516001600160401b0380821115620002175762000217620001d2565b604051601f8301601f19908116603f01168101908282118183101715620002425762000242620001d2565b816040528381526020925086838588010111156200025f57600080fd5b600091505b8382101562000283578582018301518183018401529082019062000264565b83821115620002955760008385830101525b9695505050505050565b80516001600160a01b0381168114620002b757600080fd5b919050565b600080600080600060a08688031215620002d557600080fd5b85516001600160401b0380821115620002ed57600080fd5b620002fb89838a01620001e8565b965060208801519150808211156200031257600080fd5b506200032188828901620001e8565b94505062000332604087016200029f565b925062000342606087016200029f565b9150608086015190509295509295909350565b600181811c908216806200036a57607f821691505b6020821081036200038b57634e487b7160e01b600052602260045260246000fd5b50919050565b608051612d79620003e5600039600081816108de01528181610b9901528181610e6201528181610f62015281816110930152818161115d01528181611242015281816114df01526115fb0152612d796000f3fe6080604052600436106102135760003560e01c8063715018a611610118578063c87b56dd116100a0578063e8a3d4851161006f578063e8a3d4851461063f578063e985e9c514610654578063f2fde38b14610674578063f4f3b20014610694578063fce55037146106b457600080fd5b8063c87b56dd146105ab578063d204c45e146105cb578063d4c97533146105eb578063d53913931461060b57600080fd5b806395d89b41116100e757806395d89b4114610521578063a217fddf14610536578063a22cb4651461054b578063a82670d31461056b578063b88d4fde1461058b57600080fd5b8063715018a6146104b757806375794a3c146104cc5780637eeab095146104e35780638da5cb5b1461050357600080fd5b80632a55205a1161019b57806342966c681161016a57806342966c681461041757806343bc1612146104375780634f6ccce7146104575780636352211e1461047757806370a082311461049757600080fd5b80632a55205a146103835780632f745c59146103c25780633ccfd60b146103e257806342842e0e146103f757600080fd5b8063162094c4116101e2578063162094c4146102d057806318160ddd146102f057806323b872dd1461030f578063282c51f31461032f5780632a0befc21461036357600080fd5b806301ffc9a71461021f57806306fdde0314610254578063081812fc14610276578063095ea7b3146102ae57600080fd5b3661021a57005b600080fd5b34801561022b57600080fd5b5061023f61023a3660046126a3565b6106d4565b60405190151581526020015b60405180910390f35b34801561026057600080fd5b506102696106ff565b60405161024b9190612718565b34801561028257600080fd5b5061029661029136600461272b565b610791565b6040516001600160a01b03909116815260200161024b565b3480156102ba57600080fd5b506102ce6102c9366004612759565b6107b8565b005b3480156102dc57600080fd5b506102ce6102eb3660046127c7565b6108d2565b3480156102fc57600080fd5b506008545b60405190815260200161024b565b34801561031b57600080fd5b506102ce61032a366004612813565b6109c4565b34801561033b57600080fd5b506103017f3b25106add3a89098ef82030314e486ca1f967bd742e45817c5014c5ef3e806481565b34801561036f57600080fd5b506102ce61037e366004612854565b6109f6565b34801561038f57600080fd5b506103a361039e366004612896565b610a53565b604080516001600160a01b03909316835260208301919091520161024b565b3480156103ce57600080fd5b506103016103dd366004612759565b610a7c565b3480156103ee57600080fd5b506102ce610b12565b34801561040357600080fd5b506102ce610412366004612813565b610c7d565b34801561042357600080fd5b506102ce61043236600461272b565b610c98565b34801561044357600080fd5b50600c54610296906001600160a01b031681565b34801561046357600080fd5b5061030161047236600461272b565b610cc9565b34801561048357600080fd5b5061029661049236600461272b565b610d5c565b3480156104a357600080fd5b506103016104b23660046128b8565b610dbc565b3480156104c357600080fd5b506102ce610e42565b3480156104d857600080fd5b50600f546103019081565b3480156104ef57600080fd5b506102ce6104fe36600461272b565b610e56565b34801561050f57600080fd5b50600b546001600160a01b0316610296565b34801561052d57600080fd5b50610269610f0d565b34801561054257600080fd5b50610301600081565b34801561055757600080fd5b506102ce6105663660046128e3565b610f1c565b34801561057757600080fd5b506102ce61058636600461272b565b610f27565b34801561059757600080fd5b506102ce6105a6366004612932565b611015565b3480156105b757600080fd5b506102696105c636600461272b565b61104d565b3480156105d757600080fd5b506102ce6105e6366004612a12565b611058565b3480156105f757600080fd5b506102ce6106063660046128b8565b611151565b34801561061757600080fd5b506103017f43c12360602d49748153591f2df5a853821ec8410115f225b90a7a49bd5d2bb981565b34801561064b57600080fd5b50610269611225565b34801561066057600080fd5b5061023f61066f366004612a4e565b611234565b34801561068057600080fd5b506102ce61068f3660046128b8565b611354565b3480156106a057600080fd5b506102ce6106af3660046128b8565b6113ca565b3480156106c057600080fd5b506102ce6106cf366004612854565b6115df565b60006001600160e01b0319821663152a902d60e11b14806106f957506106f9826116fb565b92915050565b60606000805461070e90612a7c565b80601f016020809104026020016040519081016040528092919081815260200182805461073a90612a7c565b80156107875780601f1061075c57610100808354040283529160200191610787565b820191906000526020600020905b81548152906001019060200180831161076a57829003601f168201915b5050505050905090565b600061079c82611720565b506000908152600460205260409020546001600160a01b031690565b60006107c382610d5c565b9050806001600160a01b0316836001600160a01b0316036108355760405162461bcd60e51b815260206004820152602160248201527f4552433732313a20617070726f76616c20746f2063757272656e74206f776e656044820152603960f91b60648201526084015b60405180910390fd5b336001600160a01b038216148061085157506108518133611234565b6108c35760405162461bcd60e51b815260206004820152603e60248201527f4552433732313a20617070726f76652063616c6c6572206973206e6f7420746f60448201527f6b656e206f776e6572206e6f7220617070726f76656420666f7220616c6c0000606482015260840161082c565b6108cd838361177f565b505050565b336001600160a01b03167f00000000000000000000000000000000000000000000000000000000000000006001600160a01b0316634783c35b6040518163ffffffff1660e01b8152600401602060405180830381865afa15801561093a573d6000803e3d6000fd5b505050506040513d601f19601f8201168201806040525081019061095e9190612ab6565b6001600160a01b0316146109845760405162461bcd60e51b815260040161082c90612ad3565b6108cd8383838080601f0160208091040260200160405190810160405280939291908181526020018383808284376000920191909152506117ed92505050565b6109cf335b82611887565b6109eb5760405162461bcd60e51b815260040161082c90612afd565b6108cd8383836118e6565b600c546001600160a01b03163314610a445760405162461bcd60e51b81526020600482015260116024820152704f6e6c79206172746973742063616c6c7360781b604482015260640161082c565b610a4f338383611a8d565b5050565b60008030612710610a666104b086612b61565b610a709190612b96565b915091505b9250929050565b6000610a8783610dbc565b8210610ae95760405162461bcd60e51b815260206004820152602b60248201527f455243373231456e756d657261626c653a206f776e657220696e646578206f7560448201526a74206f6620626f756e647360a81b606482015260840161082c565b506001600160a01b03919091166000908152600660209081526040808320938352929052205490565b600d54479060009061271090610b289084612b61565b610b329190612b96565b600c546040519192506000916001600160a01b039091169083908381818185875af1925050503d8060008114610b84576040519150601f19603f3d011682016040523d82523d6000602084013e610b89565b606091505b5050905080610b9757600080fd5b7f00000000000000000000000000000000000000000000000000000000000000006001600160a01b0316634783c35b6040518163ffffffff1660e01b8152600401602060405180830381865afa158015610bf5573d6000803e3d6000fd5b505050506040513d601f19601f82011682018060405250810190610c199190612ab6565b6001600160a01b0316610c2c8385612baa565b604051600081818185875af1925050503d8060008114610c68576040519150601f19603f3d011682016040523d82523d6000602084013e610c6d565b606091505b505080915050806108cd57600080fd5b6108cd83838360405180602001604052806000815250611015565b610ca1336109c9565b610cbd5760405162461bcd60e51b815260040161082c90612afd565b610cc681611af2565b50565b6000610cd460085490565b8210610d375760405162461bcd60e51b815260206004820152602c60248201527f455243373231456e756d657261626c653a20676c6f62616c20696e646578206f60448201526b7574206f6620626f756e647360a01b606482015260840161082c565b60088281548110610d4a57610d4a612bc1565b90600052602060002001549050919050565b6000818152600260205260408120546001600160a01b0316806106f95760405162461bcd60e51b8152602060048201526018602482015277115490cdcc8c4e881a5b9d985b1a59081d1bdad95b88125160421b604482015260640161082c565b60006001600160a01b038216610e265760405162461bcd60e51b815260206004820152602960248201527f4552433732313a2061646472657373207a65726f206973206e6f7420612076616044820152683634b21037bbb732b960b91b606482015260840161082c565b506001600160a01b031660009081526003602052604090205490565b610e4a611afb565b610e546000611b55565b565b336001600160a01b03167f00000000000000000000000000000000000000000000000000000000000000006001600160a01b0316634783c35b6040518163ffffffff1660e01b8152600401602060405180830381865afa158015610ebe573d6000803e3d6000fd5b505050506040513d601f19601f82011682018060405250810190610ee29190612ab6565b6001600160a01b031614610f085760405162461bcd60e51b815260040161082c90612ad3565b600d55565b60606001805461070e90612a7c565b610a4f338383611ba7565b604051632474521560e21b81527f3b25106add3a89098ef82030314e486ca1f967bd742e45817c5014c5ef3e806460048201523360248201527f00000000000000000000000000000000000000000000000000000000000000006001600160a01b0316906391d1485490604401602060405180830381865afa158015610fb1573d6000803e3d6000fd5b505050506040513d601f19601f82011682018060405250810190610fd59190612bd7565b610cbd5760405162461bcd60e51b81526020600482015260116024820152704e6f206275726e696e672072696768747360781b604482015260640161082c565b61101f3383611887565b61103b5760405162461bcd60e51b815260040161082c90612afd565b61104784848484611c75565b50505050565b60606106f982611ca8565b604051632474521560e21b81527f43c12360602d49748153591f2df5a853821ec8410115f225b90a7a49bd5d2bb960048201523360248201527f00000000000000000000000000000000000000000000000000000000000000006001600160a01b0316906391d1485490604401602060405180830381865afa1580156110e2573d6000803e3d6000fd5b505050506040513d601f19601f820116820180604052508101906111069190612bd7565b6111465760405162461bcd60e51b81526020600482015260116024820152704e6f206d696e74696e672072696768747360781b604482015260640161082c565b6108cd838383611a8d565b336001600160a01b03167f00000000000000000000000000000000000000000000000000000000000000006001600160a01b0316634783c35b6040518163ffffffff1660e01b8152600401602060405180830381865afa1580156111b9573d6000803e3d6000fd5b505050506040513d601f19601f820116820180604052508101906111dd9190612ab6565b6001600160a01b0316146112035760405162461bcd60e51b815260040161082c90612ad3565b600c80546001600160a01b0319166001600160a01b0392909216919091179055565b6060600e805461070e90612a7c565b6000816001600160a01b03167f00000000000000000000000000000000000000000000000000000000000000006001600160a01b03166321f8a7216040516020016112989072616464726573732e6d61726b6574706c61636560681b815260130190565b604051602081830303815290604052805190602001206040518263ffffffff1660e01b81526004016112cc91815260200190565b602060405180830381865afa1580156112e9573d6000803e3d6000fd5b505050506040513d601f19601f8201168201806040525081019061130d9190612ab6565b6001600160a01b031603611323575060016106f9565b6001600160a01b0380841660009081526005602090815260408083209386168352929052205460ff165b9392505050565b61135c611afb565b6001600160a01b0381166113c15760405162461bcd60e51b815260206004820152602660248201527f4f776e61626c653a206e6577206f776e657220697320746865207a65726f206160448201526564647265737360d01b606482015260840161082c565b610cc681611b55565b6040516370a0823160e01b815230600482015281906000906001600160a01b038316906370a0823190602401602060405180830381865afa158015611413573d6000803e3d6000fd5b505050506040513d601f19601f820116820180604052508101906114379190612bf4565b9050600061271061144a8361208d612b61565b6114549190612b96565b600c5460405163a9059cbb60e01b81526001600160a01b0391821660048201526024810183905291925084169063a9059cbb906044016020604051808303816000875af11580156114a9573d6000803e3d6000fd5b505050506040513d601f19601f820116820180604052508101906114cd9190612bd7565b50826001600160a01b031663a9059cbb7f00000000000000000000000000000000000000000000000000000000000000006001600160a01b0316634783c35b6040518163ffffffff1660e01b8152600401602060405180830381865afa15801561153b573d6000803e3d6000fd5b505050506040513d601f19601f8201168201806040525081019061155f9190612ab6565b6115698486612baa565b6040516001600160e01b031960e085901b1681526001600160a01b03909216600483015260248201526044016020604051808303816000875af11580156115b4573d6000803e3d6000fd5b505050506040513d601f19601f820116820180604052508101906115d89190612bd7565b5050505050565b604051632474521560e21b8152600060048201523360248201527f00000000000000000000000000000000000000000000000000000000000000006001600160a01b0316906391d1485490604401602060405180830381865afa15801561164a573d6000803e3d6000fd5b505050506040513d601f19601f8201168201806040525081019061166e9190612bd7565b8061169a5750600c546001600160a01b03163314801561169a5750600e805461169690612a7c565b1590505b6116e65760405162461bcd60e51b815260206004820152601b60248201527f4f6e6c792063726561746f72206f722061646d696e2063616c6c730000000000604482015260640161082c565b6108cd600e838361254a565b80546001019055565b60006001600160e01b0319821663780e9d6360e01b14806106f957506106f982611db0565b6000818152600260205260409020546001600160a01b0316610cc65760405162461bcd60e51b8152602060048201526018602482015277115490cdcc8c4e881a5b9d985b1a59081d1bdad95b88125160421b604482015260640161082c565b600081815260046020526040902080546001600160a01b0319166001600160a01b03841690811790915581906117b482610d5c565b6001600160a01b03167f8c5be1e5ebec7d5bd14f71427d1e84f3dd0314c0f7b2291e5b200ac8c7c3b92560405160405180910390a45050565b6000828152600260205260409020546001600160a01b03166118685760405162461bcd60e51b815260206004820152602e60248201527f45524337323155524953746f726167653a2055524920736574206f66206e6f6e60448201526d32bc34b9ba32b73a103a37b5b2b760911b606482015260840161082c565b6000828152600a6020908152604090912082516108cd928401906125ce565b60008061189383610d5c565b9050806001600160a01b0316846001600160a01b031614806118ba57506118ba8185611234565b806118de5750836001600160a01b03166118d384610791565b6001600160a01b0316145b949350505050565b826001600160a01b03166118f982610d5c565b6001600160a01b03161461195d5760405162461bcd60e51b815260206004820152602560248201527f4552433732313a207472616e736665722066726f6d20696e636f72726563742060448201526437bbb732b960d91b606482015260840161082c565b6001600160a01b0382166119bf5760405162461bcd60e51b8152602060048201526024808201527f4552433732313a207472616e7366657220746f20746865207a65726f206164646044820152637265737360e01b606482015260840161082c565b6119ca838383611e00565b6119d560008261177f565b6001600160a01b03831660009081526003602052604081208054600192906119fe908490612baa565b90915550506001600160a01b0382166000908152600360205260408120805460019290611a2c908490612c0d565b909155505060008181526002602052604080822080546001600160a01b0319166001600160a01b0386811691821790925591518493918716917fddf252ad1be2c89b69c2b068fc378daa952ba7f163c4a11628f55a4df523b3ef91a4505050565b6000611a98600f5490565b9050611aa8600f80546001019055565b611ab28482611e0b565b6110478184848080601f0160208091040260200160405190810160405280939291908181526020018383808284376000920191909152506117ed92505050565b610cc681611e25565b600b546001600160a01b03163314610e545760405162461bcd60e51b815260206004820181905260248201527f4f776e61626c653a2063616c6c6572206973206e6f7420746865206f776e6572604482015260640161082c565b600b80546001600160a01b038381166001600160a01b0319831681179093556040519116919082907f8be0079c531659141344cd1fd0a4f28419497f9722a3daafe3b4186f6b6457e090600090a35050565b816001600160a01b0316836001600160a01b031603611c085760405162461bcd60e51b815260206004820152601960248201527f4552433732313a20617070726f766520746f2063616c6c657200000000000000604482015260640161082c565b6001600160a01b03838116600081815260056020908152604080832094871680845294825291829020805460ff191686151590811790915591519182527f17307eab39ab6107e8899845ad3d59bd9653f200f220920489ca2b5937696c31910160405180910390a3505050565b611c808484846118e6565b611c8c84848484611e65565b6110475760405162461bcd60e51b815260040161082c90612c25565b6060611cb382611720565b6000828152600a602052604081208054611ccc90612a7c565b80601f0160208091040260200160405190810160405280929190818152602001828054611cf890612a7c565b8015611d455780601f10611d1a57610100808354040283529160200191611d45565b820191906000526020600020905b815481529060010190602001808311611d2857829003601f168201915b505050505090506000611d6360408051602081019091526000815290565b90508051600003611d75575092915050565b815115611da7578082604051602001611d8f929190612c77565b60405160208183030381529060405292505050919050565b6118de84611f66565b60006001600160e01b031982166380ac58cd60e01b1480611de157506001600160e01b03198216635b5e139f60e01b145b806106f957506301ffc9a760e01b6001600160e01b03198316146106f9565b6108cd838383611fd9565b610a4f828260405180602001604052806000815250612091565b611e2e816120c4565b6000818152600a602052604090208054611e4790612a7c565b159050610cc6576000818152600a60205260408120610cc691612642565b60006001600160a01b0384163b15611f5b57604051630a85bd0160e11b81526001600160a01b0385169063150b7a0290611ea9903390899088908890600401612ca6565b6020604051808303816000875af1925050508015611ee4575060408051601f3d908101601f19168201909252611ee191810190612ce3565b60015b611f41573d808015611f12576040519150601f19603f3d011682016040523d82523d6000602084013e611f17565b606091505b508051600003611f395760405162461bcd60e51b815260040161082c90612c25565b805181602001fd5b6001600160e01b031916630a85bd0160e11b1490506118de565b506001949350505050565b6060611f7182611720565b6000611f8860408051602081019091526000815290565b90506000815111611fa8576040518060200160405280600081525061134d565b80611fb28461216b565b604051602001611fc3929190612c77565b6040516020818303038152906040529392505050565b6001600160a01b0383166120345761202f81600880546000838152600960205260408120829055600182018355919091527ff3f7a9fe364faab93b216da50a3214154f22a0a2b415b23a84c8169e8b636ee30155565b612057565b816001600160a01b0316836001600160a01b03161461205757612057838261226c565b6001600160a01b03821661206e576108cd81612309565b826001600160a01b0316826001600160a01b0316146108cd576108cd82826123b8565b61209b83836123fc565b6120a86000848484611e65565b6108cd5760405162461bcd60e51b815260040161082c90612c25565b60006120cf82610d5c565b90506120dd81600084611e00565b6120e860008361177f565b6001600160a01b0381166000908152600360205260408120805460019290612111908490612baa565b909155505060008281526002602052604080822080546001600160a01b0319169055518391906001600160a01b038416907fddf252ad1be2c89b69c2b068fc378daa952ba7f163c4a11628f55a4df523b3ef908390a45050565b6060816000036121925750506040805180820190915260018152600360fc1b602082015290565b8160005b81156121bc57806121a681612d00565b91506121b59050600a83612b96565b9150612196565b60008167ffffffffffffffff8111156121d7576121d761291c565b6040519080825280601f01601f191660200182016040528015612201576020820181803683370190505b5090505b84156118de57612216600183612baa565b9150612223600a86612d19565b61222e906030612c0d565b60f81b81838151811061224357612243612bc1565b60200101906001600160f81b031916908160001a905350612265600a86612b96565b9450612205565b6000600161227984610dbc565b6122839190612baa565b6000838152600760205260409020549091508082146122d6576001600160a01b03841660009081526006602090815260408083208584528252808320548484528184208190558352600790915290208190555b5060009182526007602090815260408084208490556001600160a01b039094168352600681528383209183525290812055565b60085460009061231b90600190612baa565b6000838152600960205260408120546008805493945090928490811061234357612343612bc1565b90600052602060002001549050806008838154811061236457612364612bc1565b600091825260208083209091019290925582815260099091526040808220849055858252812055600880548061239c5761239c612d2d565b6001900381819060005260206000200160009055905550505050565b60006123c383610dbc565b6001600160a01b039093166000908152600660209081526040808320868452825280832085905593825260079052919091209190915550565b6001600160a01b0382166124525760405162461bcd60e51b815260206004820181905260248201527f4552433732313a206d696e7420746f20746865207a65726f2061646472657373604482015260640161082c565b6000818152600260205260409020546001600160a01b0316156124b75760405162461bcd60e51b815260206004820152601c60248201527f4552433732313a20746f6b656e20616c7265616479206d696e74656400000000604482015260640161082c565b6124c360008383611e00565b6001600160a01b03821660009081526003602052604081208054600192906124ec908490612c0d565b909155505060008181526002602052604080822080546001600160a01b0319166001600160a01b03861690811790915590518392907fddf252ad1be2c89b69c2b068fc378daa952ba7f163c4a11628f55a4df523b3ef908290a45050565b82805461255690612a7c565b90600052602060002090601f01602090048101928261257857600085556125be565b82601f106125915782800160ff198235161785556125be565b828001600101855582156125be579182015b828111156125be5782358255916020019190600101906125a3565b506125ca929150612678565b5090565b8280546125da90612a7c565b90600052602060002090601f0160209004810192826125fc57600085556125be565b82601f1061261557805160ff19168380011785556125be565b828001600101855582156125be579182015b828111156125be578251825591602001919060010190612627565b50805461264e90612a7c565b6000825580601f1061265e575050565b601f016020900490600052602060002090810190610cc691905b5b808211156125ca5760008155600101612679565b6001600160e01b031981168114610cc657600080fd5b6000602082840312156126b557600080fd5b813561134d8161268d565b60005b838110156126db5781810151838201526020016126c3565b838111156110475750506000910152565b600081518084526127048160208601602086016126c0565b601f01601f19169290920160200192915050565b60208152600061134d60208301846126ec565b60006020828403121561273d57600080fd5b5035919050565b6001600160a01b0381168114610cc657600080fd5b6000806040838503121561276c57600080fd5b823561277781612744565b946020939093013593505050565b60008083601f84011261279757600080fd5b50813567ffffffffffffffff8111156127af57600080fd5b602083019150836020828501011115610a7557600080fd5b6000806000604084860312156127dc57600080fd5b83359250602084013567ffffffffffffffff8111156127fa57600080fd5b61280686828701612785565b9497909650939450505050565b60008060006060848603121561282857600080fd5b833561283381612744565b9250602084013561284381612744565b929592945050506040919091013590565b6000806020838503121561286757600080fd5b823567ffffffffffffffff81111561287e57600080fd5b61288a85828601612785565b90969095509350505050565b600080604083850312156128a957600080fd5b50508035926020909101359150565b6000602082840312156128ca57600080fd5b813561134d81612744565b8015158114610cc657600080fd5b600080604083850312156128f657600080fd5b823561290181612744565b91506020830135612911816128d5565b809150509250929050565b634e487b7160e01b600052604160045260246000fd5b6000806000806080858703121561294857600080fd5b843561295381612744565b9350602085013561296381612744565b925060408501359150606085013567ffffffffffffffff8082111561298757600080fd5b818701915087601f83011261299b57600080fd5b8135818111156129ad576129ad61291c565b604051601f8201601f19908116603f011681019083821181831017156129d5576129d561291c565b816040528281528a60208487010111156129ee57600080fd5b82602086016020830137600060208483010152809550505050505092959194509250565b600080600060408486031215612a2757600080fd5b8335612a3281612744565b9250602084013567ffffffffffffffff8111156127fa57600080fd5b60008060408385031215612a6157600080fd5b8235612a6c81612744565b9150602083013561291181612744565b600181811c90821680612a9057607f821691505b602082108103612ab057634e487b7160e01b600052602260045260246000fd5b50919050565b600060208284031215612ac857600080fd5b815161134d81612744565b60208082526010908201526f41646d696e2063616c6c73206f6e6c7960801b604082015260600190565b6020808252602e908201527f4552433732313a2063616c6c6572206973206e6f7420746f6b656e206f776e6560408201526d1c881b9bdc88185c1c1c9bdd995960921b606082015260800190565b634e487b7160e01b600052601160045260246000fd5b6000816000190483118215151615612b7b57612b7b612b4b565b500290565b634e487b7160e01b600052601260045260246000fd5b600082612ba557612ba5612b80565b500490565b600082821015612bbc57612bbc612b4b565b500390565b634e487b7160e01b600052603260045260246000fd5b600060208284031215612be957600080fd5b815161134d816128d5565b600060208284031215612c0657600080fd5b5051919050565b60008219821115612c2057612c20612b4b565b500190565b60208082526032908201527f4552433732313a207472616e7366657220746f206e6f6e20455243373231526560408201527131b2b4bb32b91034b6b83632b6b2b73a32b960711b606082015260800190565b60008351612c898184602088016126c0565b835190830190612c9d8183602088016126c0565b01949350505050565b6001600160a01b0385811682528416602082015260408101839052608060608201819052600090612cd9908301846126ec565b9695505050505050565b600060208284031215612cf557600080fd5b815161134d8161268d565b600060018201612d1257612d12612b4b565b5060010190565b600082612d2857612d28612b80565b500690565b634e487b7160e01b600052603160045260246000fdfea2646970667358221220d30d6ffd65694fdf20519a4b437dd287fc5ae2c1e4ea8c407a29e7579ec2da4b64736f6c634300080e0033a2646970667358221220838681fe31eab6a29301496acf19c2784dc2512c52766b5c51c9613798c312df64736f6c634300080e0033",
  "linkReferences": {},
  "deployedLinkReferences": {}
}