{
  "_format": "hh-sol-artifact-1",
  "contractName": "NFTFactory",
  "sourceName": "contracts/NFT/NFTFactory.sol",
  "abi": [
    {
      "inputs": [
        {
          "internalType": "address",
          "name": "_sageStorage",
          "type": "address"
        }
      ],
      "stateMutability": "nonpayable",
      "type": "constructor"
    },
    {
      "anonymous": false,
      "inputs": [
        {
          "indexed": true,
          "internalType": "address",
          "name": "contractAddress",
          "type": "address"
        },
        {
          "indexed": true,
          "internalType": "address",
          "name": "artistAddress",
          "type": "address"
        }
      ],
      "name": "NewNFTContract",
      "type": "event"
    },
    {
      "inputs": [],
      "name": "ADMIN_ROLE",
      "outputs": [
        {
          "internalType": "bytes32",
          "name": "",
          "type": "bytes32"
        }
      ],
      "stateMutability": "view",
      "type": "function"
    },
    {
      "inputs": [],
      "name": "ARTIST_ROLE",
      "outputs": [
        {
          "internalType": "bytes32",
          "name": "",
          "type": "bytes32"
        }
      ],
      "stateMutability": "view",
      "type": "function"
    },
    {
      "inputs": [
        {
          "internalType": "address",
          "name": "artistAddress",
          "type": "address"
        },
        {
          "internalType": "string",
          "name": "name",
          "type": "string"
        },
        {
          "internalType": "string",
          "name": "symbol",
          "type": "string"
        },
        {
          "internalType": "uint256",
          "name": "artistShare",
          "type": "uint256"
        }
      ],
      "name": "deployByAdmin",
      "outputs": [],
      "stateMutability": "nonpayable",
      "type": "function"
    },
    {
      "inputs": [
        {
          "internalType": "string",
          "name": "name",
          "type": "string"
        },
        {
          "internalType": "string",
          "name": "symbol",
          "type": "string"
        }
      ],
      "name": "deployByArtist",
      "outputs": [],
      "stateMutability": "nonpayable",
      "type": "function"
    },
    {
      "inputs": [
        {
          "internalType": "address",
          "name": "artistAddress",
          "type": "address"
        }
      ],
      "name": "getContractAddress",
      "outputs": [
        {
          "internalType": "address",
          "name": "",
          "type": "address"
        }
      ],
      "stateMutability": "view",
      "type": "function"
    },
    {
      "inputs": [
        {
          "internalType": "address",
          "name": "_artist",
          "type": "address"
        }
      ],
      "name": "resetArtistContract",
      "outputs": [],
      "stateMutability": "nonpayable",
      "type": "function"
    }
  ],
  "bytecode": "0x60a060405234801561001057600080fd5b50604051613d83380380613d8383398101604081905261002f91610040565b6001600160a01b0316608052610070565b60006020828403121561005257600080fd5b81516001600160a01b038116811461006957600080fd5b9392505050565b608051613cdc6100a76000396000818161019b0152818161027e0152818161039e0152818161048a01526105dc0152613cdc6000f3fe60806040523480156200001157600080fd5b5060043610620000695760003560e01c80626825cd146200006e5780631272df3e146200008757806332f83983146200009e578063622bc90e14620000b557806375b238fc1462000101578063a966a0df1462000138575b600080fd5b620000856200007f366004620006f8565b62000160565b005b620000856200009836600462000784565b62000363565b62000085620000af36600462000818565b6200046e565b620000e4620000c636600462000818565b6001600160a01b039081166000908152602081905260409020541690565b6040516001600160a01b0390911681526020015b60405180910390f35b620001297fe303cb88ace8c9e6ba216f1aecb44b3206dcab364c60512ffc6cbc920a1bf9d181565b604051908152602001620000f8565b620001297fc18c9ce59aaa739e2eb7c0e63fb0e95821f115c643b2d4c9d3d194ec807d510081565b604051632474521560e21b81527fc18c9ce59aaa739e2eb7c0e63fb0e95821f115c643b2d4c9d3d194ec807d510060048201523360248201527f00000000000000000000000000000000000000000000000000000000000000006001600160a01b0316906391d1485490604401602060405180830381865afa158015620001eb573d6000803e3d6000fd5b505050506040513d601f19601f820116820180604052508101906200021191906200083f565b620002575760405162461bcd60e51b81526020600482015260116024820152704172746973742063616c6c73206f6e6c7960781b60448201526064015b60405180910390fd5b60006200026b338686868661208d62000568565b9050806001600160a01b031663f2fde38b7f00000000000000000000000000000000000000000000000000000000000000006001600160a01b0316634783c35b6040518163ffffffff1660e01b8152600401602060405180830381865afa158015620002db573d6000803e3d6000fd5b505050506040513d601f19601f8201168201806040525081019062000301919062000863565b6040516001600160e01b031960e084901b1681526001600160a01b039091166004820152602401600060405180830381600087803b1580156200034357600080fd5b505af115801562000358573d6000803e3d6000fd5b505050505050505050565b604051632474521560e21b81527fe303cb88ace8c9e6ba216f1aecb44b3206dcab364c60512ffc6cbc920a1bf9d160048201523360248201527f00000000000000000000000000000000000000000000000000000000000000006001600160a01b0316906391d1485490604401602060405180830381865afa158015620003ee573d6000803e3d6000fd5b505050506040513d601f19601f820116820180604052508101906200041491906200083f565b620004555760405162461bcd60e51b815260206004820152601060248201526f41646d696e2063616c6c73206f6e6c7960801b60448201526064016200024e565b6200046586868686868662000568565b50505050505050565b604051632474521560e21b8152600060048201523360248201527f00000000000000000000000000000000000000000000000000000000000000006001600160a01b0316906391d1485490604401602060405180830381865afa158015620004da573d6000803e3d6000fd5b505050506040513d601f19601f820116820180604052508101906200050091906200083f565b620005415760405162461bcd60e51b815260206004820152601060248201526f41646d696e2063616c6c73206f6e6c7960801b60448201526064016200024e565b6001600160a01b0316600090815260208190526040902080546001600160a01b0319169055565b6001600160a01b0386811660009081526020819052604081205490911615620005d45760405162461bcd60e51b815260206004820152601760248201527f436f6e747261637420616c72656164792065786973747300000000000000000060448201526064016200024e565b6000868686867f00000000000000000000000000000000000000000000000000000000000000008c886040516200060b906200069e565b6200061d9796959493929190620008ac565b604051809103906000f0801580156200063a573d6000803e3d6000fd5b506001600160a01b0389811660008181526020819052604080822080546001600160a01b03191694861694851790555193945090927fb6033d0dde1ac5b6c6e41733e23c9ae072dc72d9abffbffc8cfd4ec044b325119190a3979650505050505050565b6133a880620008ff83390190565b60008083601f840112620006bf57600080fd5b50813567ffffffffffffffff811115620006d857600080fd5b602083019150836020828501011115620006f157600080fd5b9250929050565b600080600080604085870312156200070f57600080fd5b843567ffffffffffffffff808211156200072857600080fd5b6200073688838901620006ac565b909650945060208701359150808211156200075057600080fd5b506200075f87828801620006ac565b95989497509550505050565b6001600160a01b03811681146200078157600080fd5b50565b600080600080600080608087890312156200079e57600080fd5b8635620007ab816200076b565b9550602087013567ffffffffffffffff80821115620007c957600080fd5b620007d78a838b01620006ac565b90975095506040890135915080821115620007f157600080fd5b506200080089828a01620006ac565b979a9699509497949695606090950135949350505050565b6000602082840312156200082b57600080fd5b813562000838816200076b565b9392505050565b6000602082840312156200085257600080fd5b815180151581146200083857600080fd5b6000602082840312156200087657600080fd5b815162000838816200076b565b81835281816020850137506000828201602090810191909152601f909101601f19169091010190565b60a081526000620008c260a08301898b62000883565b8281036020840152620008d781888a62000883565b6001600160a01b03968716604085015294909516606083015250608001529594505050505056fe60a06040523480156200001157600080fd5b50604051620033a8380380620033a88339810160408190526200003491620002bc565b8451859085906200004d9060009060208501906200012c565b508051620000639060019060208401906200012c565b505050620000806200007a620000cd60201b60201c565b620000d1565b6001600160a01b03838116608052600c80546001600160a01b031916918416919091179055600d819055620000c2600f62000123602090811b620018b017901c565b505050505062000391565b3390565b600b80546001600160a01b038381166001600160a01b0319831681179093556040519116919082907f8be0079c531659141344cd1fd0a4f28419497f9722a3daafe3b4186f6b6457e090600090a35050565b80546001019055565b8280546200013a9062000355565b90600052602060002090601f0160209004810192826200015e5760008555620001a9565b82601f106200017957805160ff1916838001178555620001a9565b82800160010185558215620001a9579182015b82811115620001a95782518255916020019190600101906200018c565b50620001b7929150620001bb565b5090565b5b80821115620001b75760008155600101620001bc565b634e487b7160e01b600052604160045260246000fd5b600082601f830112620001fa57600080fd5b81516001600160401b0380821115620002175762000217620001d2565b604051601f8301601f19908116603f01168101908282118183101715620002425762000242620001d2565b816040528381526020925086838588010111156200025f57600080fd5b600091505b8382101562000283578582018301518183018401529082019062000264565b83821115620002955760008385830101525b9695505050505050565b80516001600160a01b0381168114620002b757600080fd5b919050565b600080600080600060a08688031215620002d557600080fd5b85516001600160401b0380821115620002ed57600080fd5b620002fb89838a01620001e8565b965060208801519150808211156200031257600080fd5b506200032188828901620001e8565b94505062000332604087016200029f565b925062000342606087016200029f565b9150608086015190509295509295909350565b600181811c908216806200036a57607f821691505b6020821081036200038b57634e487b7160e01b600052602260045260246000fd5b50919050565b608051612fb5620003f3600039600081816108c101528181610b7c01528181610ef801528181610fbf01528181610fee0152818161115b0152818161118a015281816112c9015281816113ae0152818161169d01526117b90152612fb56000f3fe6080604052600436106101fd5760003560e01c8063715018a61161010d578063b88d4fde116100a0578063e8a3d4851161006f578063e8a3d485146105c1578063e985e9c5146105d6578063f2fde38b146105f6578063f4f3b20014610616578063fce550371461063657600080fd5b8063b88d4fde14610541578063c87b56dd14610561578063d204c45e14610581578063d4c97533146105a157600080fd5b806395d89b41116100dc57806395d89b41146104d7578063a217fddf146104ec578063a22cb46514610501578063a82670d31461052157600080fd5b8063715018a61461046d57806375794a3c146104825780637eeab095146104995780638da5cb5b146104b957600080fd5b80632a55205a1161019057806342966c681161015f57806342966c68146103cd57806343bc1612146103ed5780634f6ccce71461040d5780636352211e1461042d57806370a082311461044d57600080fd5b80632a55205a146103395780632f745c59146103785780633ccfd60b1461039857806342842e0e146103ad57600080fd5b8063162094c4116101cc578063162094c4146102ba57806318160ddd146102da57806323b872dd146102f95780632a0befc21461031957600080fd5b806301ffc9a71461020957806306fdde031461023e578063081812fc14610260578063095ea7b31461029857600080fd5b3661020457005b600080fd5b34801561021557600080fd5b506102296102243660046128dc565b610656565b60405190151581526020015b60405180910390f35b34801561024a57600080fd5b50610253610681565b6040516102359190612951565b34801561026c57600080fd5b5061028061027b366004612964565b610713565b6040516001600160a01b039091168152602001610235565b3480156102a457600080fd5b506102b86102b3366004612992565b6107a0565b005b3480156102c657600080fd5b506102b86102d5366004612a00565b6108b5565b3480156102e657600080fd5b506008545b604051908152602001610235565b34801561030557600080fd5b506102b8610314366004612a4c565b6109a7565b34801561032557600080fd5b506102b8610334366004612a8d565b6109d9565b34801561034557600080fd5b50610359610354366004612acf565b610a36565b604080516001600160a01b039093168352602083019190915201610235565b34801561038457600080fd5b506102eb610393366004612992565b610a5f565b3480156103a457600080fd5b506102b8610af5565b3480156103b957600080fd5b506102b86103c8366004612a4c565b610c60565b3480156103d957600080fd5b506102b86103e8366004612964565b610c7b565b3480156103f957600080fd5b50600c54610280906001600160a01b031681565b34801561041957600080fd5b506102eb610428366004612964565b610cf5565b34801561043957600080fd5b50610280610448366004612964565b610d88565b34801561045957600080fd5b506102eb610468366004612af1565b610dff565b34801561047957600080fd5b506102b8610e86565b34801561048e57600080fd5b50600f546102eb9081565b3480156104a557600080fd5b506102b86104b4366004612964565b610eec565b3480156104c557600080fd5b50600b546001600160a01b0316610280565b3480156104e357600080fd5b50610253610fa3565b3480156104f857600080fd5b506102eb600081565b34801561050d57600080fd5b506102b861051c366004612b1c565b610fb2565b34801561052d57600080fd5b506102b861053c366004612964565b610fbd565b34801561054d57600080fd5b506102b861055c366004612b6b565b611116565b34801561056d57600080fd5b5061025361057c366004612964565b61114e565b34801561058d57600080fd5b506102b861059c366004612c4b565b611159565b3480156105ad57600080fd5b506102b86105bc366004612af1565b6112bd565b3480156105cd57600080fd5b50610253611391565b3480156105e257600080fd5b506102296105f1366004612c87565b6113a0565b34801561060257600080fd5b506102b8610611366004612af1565b6114c0565b34801561062257600080fd5b506102b8610631366004612af1565b611588565b34801561064257600080fd5b506102b8610651366004612a8d565b61179d565b60006001600160e01b0319821663152a902d60e11b148061067b575061067b826118b9565b92915050565b60606000805461069090612cb5565b80601f01602080910402602001604051908101604052809291908181526020018280546106bc90612cb5565b80156107095780601f106106de57610100808354040283529160200191610709565b820191906000526020600020905b8154815290600101906020018083116106ec57829003601f168201915b5050505050905090565b600061071e826118de565b6107845760405162461bcd60e51b815260206004820152602c60248201527f4552433732313a20617070726f76656420717565727920666f72206e6f6e657860448201526b34b9ba32b73a103a37b5b2b760a11b60648201526084015b60405180910390fd5b506000908152600460205260409020546001600160a01b031690565b60006107ab82610d88565b9050806001600160a01b0316836001600160a01b0316036108185760405162461bcd60e51b815260206004820152602160248201527f4552433732313a20617070726f76616c20746f2063757272656e74206f776e656044820152603960f91b606482015260840161077b565b336001600160a01b0382161480610834575061083481336113a0565b6108a65760405162461bcd60e51b815260206004820152603860248201527f4552433732313a20617070726f76652063616c6c6572206973206e6f74206f7760448201527f6e6572206e6f7220617070726f76656420666f7220616c6c0000000000000000606482015260840161077b565b6108b083836118fb565b505050565b336001600160a01b03167f00000000000000000000000000000000000000000000000000000000000000006001600160a01b0316634783c35b6040518163ffffffff1660e01b8152600401602060405180830381865afa15801561091d573d6000803e3d6000fd5b505050506040513d601f19601f820116820180604052508101906109419190612cef565b6001600160a01b0316146109675760405162461bcd60e51b815260040161077b90612d0c565b6108b08383838080601f01602080910402602001604051908101604052809392919081815260200183838082843760009201919091525061196992505050565b6109b2335b826119f4565b6109ce5760405162461bcd60e51b815260040161077b90612d36565b6108b0838383611abe565b600c546001600160a01b03163314610a275760405162461bcd60e51b81526020600482015260116024820152704f6e6c79206172746973742063616c6c7360781b604482015260640161077b565b610a32338383611c65565b5050565b60008030612710610a496104b086612d9d565b610a539190612dd2565b915091505b9250929050565b6000610a6a83610dff565b8210610acc5760405162461bcd60e51b815260206004820152602b60248201527f455243373231456e756d657261626c653a206f776e657220696e646578206f7560448201526a74206f6620626f756e647360a81b606482015260840161077b565b506001600160a01b03919091166000908152600660209081526040808320938352929052205490565b600d54479060009061271090610b0b9084612d9d565b610b159190612dd2565b600c546040519192506000916001600160a01b039091169083908381818185875af1925050503d8060008114610b67576040519150601f19603f3d011682016040523d82523d6000602084013e610b6c565b606091505b5050905080610b7a57600080fd5b7f00000000000000000000000000000000000000000000000000000000000000006001600160a01b0316634783c35b6040518163ffffffff1660e01b8152600401602060405180830381865afa158015610bd8573d6000803e3d6000fd5b505050506040513d601f19601f82011682018060405250810190610bfc9190612cef565b6001600160a01b0316610c0f8385612de6565b604051600081818185875af1925050503d8060008114610c4b576040519150601f19603f3d011682016040523d82523d6000602084013e610c50565b606091505b505080915050806108b057600080fd5b6108b083838360405180602001604052806000815250611116565b610c84336109ac565b610ce95760405162461bcd60e51b815260206004820152603060248201527f4552433732314275726e61626c653a2063616c6c6572206973206e6f74206f7760448201526f1b995c881b9bdc88185c1c1c9bdd995960821b606482015260840161077b565b610cf281611cca565b50565b6000610d0060085490565b8210610d635760405162461bcd60e51b815260206004820152602c60248201527f455243373231456e756d657261626c653a20676c6f62616c20696e646578206f60448201526b7574206f6620626f756e647360a01b606482015260840161077b565b60088281548110610d7657610d76612dfd565b90600052602060002001549050919050565b6000818152600260205260408120546001600160a01b03168061067b5760405162461bcd60e51b815260206004820152602960248201527f4552433732313a206f776e657220717565727920666f72206e6f6e657869737460448201526832b73a103a37b5b2b760b91b606482015260840161077b565b60006001600160a01b038216610e6a5760405162461bcd60e51b815260206004820152602a60248201527f4552433732313a2062616c616e636520717565727920666f7220746865207a65604482015269726f206164647265737360b01b606482015260840161077b565b506001600160a01b031660009081526003602052604090205490565b600b546001600160a01b03163314610ee05760405162461bcd60e51b815260206004820181905260248201527f4f776e61626c653a2063616c6c6572206973206e6f7420746865206f776e6572604482015260640161077b565b610eea6000611cd3565b565b336001600160a01b03167f00000000000000000000000000000000000000000000000000000000000000006001600160a01b0316634783c35b6040518163ffffffff1660e01b8152600401602060405180830381865afa158015610f54573d6000803e3d6000fd5b505050506040513d601f19601f82011682018060405250810190610f789190612cef565b6001600160a01b031614610f9e5760405162461bcd60e51b815260040161077b90612d0c565b600d55565b60606001805461069090612cb5565b610a32338383611d25565b7f00000000000000000000000000000000000000000000000000000000000000006001600160a01b03166391d148547f00000000000000000000000000000000000000000000000000000000000000006001600160a01b031663282c51f36040518163ffffffff1660e01b81526004016020604051808303816000875af115801561104c573d6000803e3d6000fd5b505050506040513d601f19601f820116820180604052508101906110709190612e13565b6040516001600160e01b031960e084901b1681526004810191909152336024820152604401602060405180830381865afa1580156110b2573d6000803e3d6000fd5b505050506040513d601f19601f820116820180604052508101906110d69190612e2c565b610ce95760405162461bcd60e51b81526020600482015260116024820152704e6f206275726e696e672072696768747360781b604482015260640161077b565b61112033836119f4565b61113c5760405162461bcd60e51b815260040161077b90612d36565b61114884848484611df3565b50505050565b606061067b82611e26565b7f00000000000000000000000000000000000000000000000000000000000000006001600160a01b03166391d148547f00000000000000000000000000000000000000000000000000000000000000006001600160a01b031663d53913936040518163ffffffff1660e01b81526004016020604051808303816000875af11580156111e8573d6000803e3d6000fd5b505050506040513d601f19601f8201168201806040525081019061120c9190612e13565b6040516001600160e01b031960e084901b1681526004810191909152336024820152604401602060405180830381865afa15801561124e573d6000803e3d6000fd5b505050506040513d601f19601f820116820180604052508101906112729190612e2c565b6112b25760405162461bcd60e51b81526020600482015260116024820152704e6f206d696e74696e672072696768747360781b604482015260640161077b565b6108b0838383611c65565b336001600160a01b03167f00000000000000000000000000000000000000000000000000000000000000006001600160a01b0316634783c35b6040518163ffffffff1660e01b8152600401602060405180830381865afa158015611325573d6000803e3d6000fd5b505050506040513d601f19601f820116820180604052508101906113499190612cef565b6001600160a01b03161461136f5760405162461bcd60e51b815260040161077b90612d0c565b600c80546001600160a01b0319166001600160a01b0392909216919091179055565b6060600e805461069090612cb5565b6000816001600160a01b03167f00000000000000000000000000000000000000000000000000000000000000006001600160a01b03166321f8a7216040516020016114049072616464726573732e6d61726b6574706c61636560681b815260130190565b604051602081830303815290604052805190602001206040518263ffffffff1660e01b815260040161143891815260200190565b602060405180830381865afa158015611455573d6000803e3d6000fd5b505050506040513d601f19601f820116820180604052508101906114799190612cef565b6001600160a01b03160361148f5750600161067b565b6001600160a01b0380841660009081526005602090815260408083209386168352929052205460ff165b9392505050565b600b546001600160a01b0316331461151a5760405162461bcd60e51b815260206004820181905260248201527f4f776e61626c653a2063616c6c6572206973206e6f7420746865206f776e6572604482015260640161077b565b6001600160a01b03811661157f5760405162461bcd60e51b815260206004820152602660248201527f4f776e61626c653a206e6577206f776e657220697320746865207a65726f206160448201526564647265737360d01b606482015260840161077b565b610cf281611cd3565b6040516370a0823160e01b815230600482015281906000906001600160a01b038316906370a0823190602401602060405180830381865afa1580156115d1573d6000803e3d6000fd5b505050506040513d601f19601f820116820180604052508101906115f59190612e13565b905060006127106116088361208d612d9d565b6116129190612dd2565b600c5460405163a9059cbb60e01b81526001600160a01b0391821660048201526024810183905291925084169063a9059cbb906044016020604051808303816000875af1158015611667573d6000803e3d6000fd5b505050506040513d601f19601f8201168201806040525081019061168b9190612e2c565b50826001600160a01b031663a9059cbb7f00000000000000000000000000000000000000000000000000000000000000006001600160a01b0316634783c35b6040518163ffffffff1660e01b8152600401602060405180830381865afa1580156116f9573d6000803e3d6000fd5b505050506040513d601f19601f8201168201806040525081019061171d9190612cef565b6117278486612de6565b6040516001600160e01b031960e085901b1681526001600160a01b03909216600483015260248201526044016020604051808303816000875af1158015611772573d6000803e3d6000fd5b505050506040513d601f19601f820116820180604052508101906117969190612e2c565b5050505050565b604051632474521560e21b8152600060048201523360248201527f00000000000000000000000000000000000000000000000000000000000000006001600160a01b0316906391d1485490604401602060405180830381865afa158015611808573d6000803e3d6000fd5b505050506040513d601f19601f8201168201806040525081019061182c9190612e2c565b806118585750600c546001600160a01b0316331480156118585750600e805461185490612cb5565b1590505b6118a45760405162461bcd60e51b815260206004820152601b60248201527f4f6e6c792063726561746f72206f722061646d696e2063616c6c730000000000604482015260640161077b565b6108b0600e8383612783565b80546001019055565b60006001600160e01b0319821663780e9d6360e01b148061067b575061067b82611f94565b6000908152600260205260409020546001600160a01b0316151590565b600081815260046020526040902080546001600160a01b0319166001600160a01b038416908117909155819061193082610d88565b6001600160a01b03167f8c5be1e5ebec7d5bd14f71427d1e84f3dd0314c0f7b2291e5b200ac8c7c3b92560405160405180910390a45050565b611972826118de565b6119d55760405162461bcd60e51b815260206004820152602e60248201527f45524337323155524953746f726167653a2055524920736574206f66206e6f6e60448201526d32bc34b9ba32b73a103a37b5b2b760911b606482015260840161077b565b6000828152600a6020908152604090912082516108b092840190612807565b60006119ff826118de565b611a605760405162461bcd60e51b815260206004820152602c60248201527f4552433732313a206f70657261746f7220717565727920666f72206e6f6e657860448201526b34b9ba32b73a103a37b5b2b760a11b606482015260840161077b565b6000611a6b83610d88565b9050806001600160a01b0316846001600160a01b03161480611a925750611a9281856113a0565b80611ab65750836001600160a01b0316611aab84610713565b6001600160a01b0316145b949350505050565b826001600160a01b0316611ad182610d88565b6001600160a01b031614611b355760405162461bcd60e51b815260206004820152602560248201527f4552433732313a207472616e736665722066726f6d20696e636f72726563742060448201526437bbb732b960d91b606482015260840161077b565b6001600160a01b038216611b975760405162461bcd60e51b8152602060048201526024808201527f4552433732313a207472616e7366657220746f20746865207a65726f206164646044820152637265737360e01b606482015260840161077b565b611ba2838383611fe4565b611bad6000826118fb565b6001600160a01b0383166000908152600360205260408120805460019290611bd6908490612de6565b90915550506001600160a01b0382166000908152600360205260408120805460019290611c04908490612e49565b909155505060008181526002602052604080822080546001600160a01b0319166001600160a01b0386811691821790925591518493918716917fddf252ad1be2c89b69c2b068fc378daa952ba7f163c4a11628f55a4df523b3ef91a4505050565b6000611c70600f5490565b9050611c80600f80546001019055565b611c8a8482611fef565b6111488184848080601f01602080910402602001604051908101604052809392919081815260200183838082843760009201919091525061196992505050565b610cf281612009565b600b80546001600160a01b038381166001600160a01b0319831681179093556040519116919082907f8be0079c531659141344cd1fd0a4f28419497f9722a3daafe3b4186f6b6457e090600090a35050565b816001600160a01b0316836001600160a01b031603611d865760405162461bcd60e51b815260206004820152601960248201527f4552433732313a20617070726f766520746f2063616c6c657200000000000000604482015260640161077b565b6001600160a01b03838116600081815260056020908152604080832094871680845294825291829020805460ff191686151590811790915591519182527f17307eab39ab6107e8899845ad3d59bd9653f200f220920489ca2b5937696c31910160405180910390a3505050565b611dfe848484611abe565b611e0a84848484612049565b6111485760405162461bcd60e51b815260040161077b90612e61565b6060611e31826118de565b611e975760405162461bcd60e51b815260206004820152603160248201527f45524337323155524953746f726167653a2055524920717565727920666f72206044820152703737b732bc34b9ba32b73a103a37b5b2b760791b606482015260840161077b565b6000828152600a602052604081208054611eb090612cb5565b80601f0160208091040260200160405190810160405280929190818152602001828054611edc90612cb5565b8015611f295780601f10611efe57610100808354040283529160200191611f29565b820191906000526020600020905b815481529060010190602001808311611f0c57829003601f168201915b505050505090506000611f4760408051602081019091526000815290565b90508051600003611f59575092915050565b815115611f8b578082604051602001611f73929190612eb3565b60405160208183030381529060405292505050919050565b611ab68461214a565b60006001600160e01b031982166380ac58cd60e01b1480611fc557506001600160e01b03198216635b5e139f60e01b145b8061067b57506301ffc9a760e01b6001600160e01b031983161461067b565b6108b0838383612221565b610a328282604051806020016040528060008152506122d9565b6120128161230c565b6000818152600a60205260409020805461202b90612cb5565b159050610cf2576000818152600a60205260408120610cf29161287b565b60006001600160a01b0384163b1561213f57604051630a85bd0160e11b81526001600160a01b0385169063150b7a029061208d903390899088908890600401612ee2565b6020604051808303816000875af19250505080156120c8575060408051601f3d908101601f191682019092526120c591810190612f1f565b60015b612125573d8080156120f6576040519150601f19603f3d011682016040523d82523d6000602084013e6120fb565b606091505b50805160000361211d5760405162461bcd60e51b815260040161077b90612e61565b805181602001fd5b6001600160e01b031916630a85bd0160e11b149050611ab6565b506001949350505050565b6060612155826118de565b6121b95760405162461bcd60e51b815260206004820152602f60248201527f4552433732314d657461646174613a2055524920717565727920666f72206e6f60448201526e3732bc34b9ba32b73a103a37b5b2b760891b606482015260840161077b565b60006121d060408051602081019091526000815290565b905060008151116121f057604051806020016040528060008152506114b9565b806121fa846123b3565b60405160200161220b929190612eb3565b6040516020818303038152906040529392505050565b6001600160a01b03831661227c5761227781600880546000838152600960205260408120829055600182018355919091527ff3f7a9fe364faab93b216da50a3214154f22a0a2b415b23a84c8169e8b636ee30155565b61229f565b816001600160a01b0316836001600160a01b03161461229f5761229f83826124b4565b6001600160a01b0382166122b6576108b081612551565b826001600160a01b0316826001600160a01b0316146108b0576108b08282612600565b6122e38383612644565b6122f06000848484612049565b6108b05760405162461bcd60e51b815260040161077b90612e61565b600061231782610d88565b905061232581600084611fe4565b6123306000836118fb565b6001600160a01b0381166000908152600360205260408120805460019290612359908490612de6565b909155505060008281526002602052604080822080546001600160a01b0319169055518391906001600160a01b038416907fddf252ad1be2c89b69c2b068fc378daa952ba7f163c4a11628f55a4df523b3ef908390a45050565b6060816000036123da5750506040805180820190915260018152600360fc1b602082015290565b8160005b811561240457806123ee81612f3c565b91506123fd9050600a83612dd2565b91506123de565b60008167ffffffffffffffff81111561241f5761241f612b55565b6040519080825280601f01601f191660200182016040528015612449576020820181803683370190505b5090505b8415611ab65761245e600183612de6565b915061246b600a86612f55565b612476906030612e49565b60f81b81838151811061248b5761248b612dfd565b60200101906001600160f81b031916908160001a9053506124ad600a86612dd2565b945061244d565b600060016124c184610dff565b6124cb9190612de6565b60008381526007602052604090205490915080821461251e576001600160a01b03841660009081526006602090815260408083208584528252808320548484528184208190558352600790915290208190555b5060009182526007602090815260408084208490556001600160a01b039094168352600681528383209183525290812055565b60085460009061256390600190612de6565b6000838152600960205260408120546008805493945090928490811061258b5761258b612dfd565b9060005260206000200154905080600883815481106125ac576125ac612dfd565b60009182526020808320909101929092558281526009909152604080822084905585825281205560088054806125e4576125e4612f69565b6001900381819060005260206000200160009055905550505050565b600061260b83610dff565b6001600160a01b039093166000908152600660209081526040808320868452825280832085905593825260079052919091209190915550565b6001600160a01b03821661269a5760405162461bcd60e51b815260206004820181905260248201527f4552433732313a206d696e7420746f20746865207a65726f2061646472657373604482015260640161077b565b6126a3816118de565b156126f05760405162461bcd60e51b815260206004820152601c60248201527f4552433732313a20746f6b656e20616c7265616479206d696e74656400000000604482015260640161077b565b6126fc60008383611fe4565b6001600160a01b0382166000908152600360205260408120805460019290612725908490612e49565b909155505060008181526002602052604080822080546001600160a01b0319166001600160a01b03861690811790915590518392907fddf252ad1be2c89b69c2b068fc378daa952ba7f163c4a11628f55a4df523b3ef908290a45050565b82805461278f90612cb5565b90600052602060002090601f0160209004810192826127b157600085556127f7565b82601f106127ca5782800160ff198235161785556127f7565b828001600101855582156127f7579182015b828111156127f75782358255916020019190600101906127dc565b506128039291506128b1565b5090565b82805461281390612cb5565b90600052602060002090601f01602090048101928261283557600085556127f7565b82601f1061284e57805160ff19168380011785556127f7565b828001600101855582156127f7579182015b828111156127f7578251825591602001919060010190612860565b50805461288790612cb5565b6000825580601f10612897575050565b601f016020900490600052602060002090810190610cf291905b5b8082111561280357600081556001016128b2565b6001600160e01b031981168114610cf257600080fd5b6000602082840312156128ee57600080fd5b81356114b9816128c6565b60005b838110156129145781810151838201526020016128fc565b838111156111485750506000910152565b6000815180845261293d8160208601602086016128f9565b601f01601f19169290920160200192915050565b6020815260006114b96020830184612925565b60006020828403121561297657600080fd5b5035919050565b6001600160a01b0381168114610cf257600080fd5b600080604083850312156129a557600080fd5b82356129b08161297d565b946020939093013593505050565b60008083601f8401126129d057600080fd5b50813567ffffffffffffffff8111156129e857600080fd5b602083019150836020828501011115610a5857600080fd5b600080600060408486031215612a1557600080fd5b83359250602084013567ffffffffffffffff811115612a3357600080fd5b612a3f868287016129be565b9497909650939450505050565b600080600060608486031215612a6157600080fd5b8335612a6c8161297d565b92506020840135612a7c8161297d565b929592945050506040919091013590565b60008060208385031215612aa057600080fd5b823567ffffffffffffffff811115612ab757600080fd5b612ac3858286016129be565b90969095509350505050565b60008060408385031215612ae257600080fd5b50508035926020909101359150565b600060208284031215612b0357600080fd5b81356114b98161297d565b8015158114610cf257600080fd5b60008060408385031215612b2f57600080fd5b8235612b3a8161297d565b91506020830135612b4a81612b0e565b809150509250929050565b634e487b7160e01b600052604160045260246000fd5b60008060008060808587031215612b8157600080fd5b8435612b8c8161297d565b93506020850135612b9c8161297d565b925060408501359150606085013567ffffffffffffffff80821115612bc057600080fd5b818701915087601f830112612bd457600080fd5b813581811115612be657612be6612b55565b604051601f8201601f19908116603f01168101908382118183101715612c0e57612c0e612b55565b816040528281528a6020848701011115612c2757600080fd5b82602086016020830137600060208483010152809550505050505092959194509250565b600080600060408486031215612c6057600080fd5b8335612c6b8161297d565b9250602084013567ffffffffffffffff811115612a3357600080fd5b60008060408385031215612c9a57600080fd5b8235612ca58161297d565b91506020830135612b4a8161297d565b600181811c90821680612cc957607f821691505b602082108103612ce957634e487b7160e01b600052602260045260246000fd5b50919050565b600060208284031215612d0157600080fd5b81516114b98161297d565b60208082526010908201526f41646d696e2063616c6c73206f6e6c7960801b604082015260600190565b60208082526031908201527f4552433732313a207472616e736665722063616c6c6572206973206e6f74206f6040820152701ddb995c881b9bdc88185c1c1c9bdd9959607a1b606082015260800190565b634e487b7160e01b600052601160045260246000fd5b6000816000190483118215151615612db757612db7612d87565b500290565b634e487b7160e01b600052601260045260246000fd5b600082612de157612de1612dbc565b500490565b600082821015612df857612df8612d87565b500390565b634e487b7160e01b600052603260045260246000fd5b600060208284031215612e2557600080fd5b5051919050565b600060208284031215612e3e57600080fd5b81516114b981612b0e565b60008219821115612e5c57612e5c612d87565b500190565b60208082526032908201527f4552433732313a207472616e7366657220746f206e6f6e20455243373231526560408201527131b2b4bb32b91034b6b83632b6b2b73a32b960711b606082015260800190565b60008351612ec58184602088016128f9565b835190830190612ed98183602088016128f9565b01949350505050565b6001600160a01b0385811682528416602082015260408101839052608060608201819052600090612f1590830184612925565b9695505050505050565b600060208284031215612f3157600080fd5b81516114b9816128c6565b600060018201612f4e57612f4e612d87565b5060010190565b600082612f6457612f64612dbc565b500690565b634e487b7160e01b600052603160045260246000fdfea264697066735822122071cdc37be9dd437ad585a3db8861a5e98146ad2dbc49f2fd6cc776bc1ac61fbc64736f6c634300080e0033a26469706673582212202cd53d2ba4a3b4d287d4fd0c503bf1426c47186c8f6c050cb76d0af6ef3125b464736f6c634300080e0033",
  "linkReferences": {},
  "deployedLinkReferences": {}
}