{
  "_format": "hh-sol-artifact-1",
  "contractName": "Whitelist",
  "sourceName": "contracts/Utils/Whitelist.sol",
  "abi": [
    {
      "inputs": [
        {
          "internalType": "address",
          "name": "_admin",
          "type": "address"
        }
      ],
      "stateMutability": "nonpayable",
      "type": "constructor"
    },
    {
      "anonymous": false,
      "inputs": [
        {
          "indexed": true,
          "internalType": "bytes32",
          "name": "role",
          "type": "bytes32"
        },
        {
          "indexed": true,
          "internalType": "bytes32",
          "name": "previousAdminRole",
          "type": "bytes32"
        },
        {
          "indexed": true,
          "internalType": "bytes32",
          "name": "newAdminRole",
          "type": "bytes32"
        }
      ],
      "name": "RoleAdminChanged",
      "type": "event"
    },
    {
      "anonymous": false,
      "inputs": [
        {
          "indexed": true,
          "internalType": "bytes32",
          "name": "role",
          "type": "bytes32"
        },
        {
          "indexed": true,
          "internalType": "address",
          "name": "account",
          "type": "address"
        },
        {
          "indexed": true,
          "internalType": "address",
          "name": "sender",
          "type": "address"
        }
      ],
      "name": "RoleGranted",
      "type": "event"
    },
    {
      "anonymous": false,
      "inputs": [
        {
          "indexed": true,
          "internalType": "bytes32",
          "name": "role",
          "type": "bytes32"
        },
        {
          "indexed": true,
          "internalType": "address",
          "name": "account",
          "type": "address"
        },
        {
          "indexed": true,
          "internalType": "address",
          "name": "sender",
          "type": "address"
        }
      ],
      "name": "RoleRevoked",
      "type": "event"
    },
    {
      "inputs": [],
      "name": "DEFAULT_ADMIN_ROLE",
      "outputs": [
        {
          "internalType": "bytes32",
          "name": "",
          "type": "bytes32"
        }
      ],
      "stateMutability": "view",
      "type": "function"
    },
    {
      "inputs": [
        {
          "internalType": "address",
          "name": "_address",
          "type": "address"
        },
        {
          "internalType": "uint256",
          "name": "_minBalance",
          "type": "uint256"
        },
        {
          "internalType": "uint256",
          "name": "_collectionId",
          "type": "uint256"
        }
      ],
      "name": "addAddress",
      "outputs": [],
      "stateMutability": "nonpayable",
      "type": "function"
    },
    {
      "inputs": [
        {
          "internalType": "bytes32",
          "name": "role",
          "type": "bytes32"
        }
      ],
      "name": "getRoleAdmin",
      "outputs": [
        {
          "internalType": "bytes32",
          "name": "",
          "type": "bytes32"
        }
      ],
      "stateMutability": "view",
      "type": "function"
    },
    {
      "inputs": [
        {
          "internalType": "bytes32",
          "name": "role",
          "type": "bytes32"
        },
        {
          "internalType": "address",
          "name": "account",
          "type": "address"
        }
      ],
      "name": "grantRole",
      "outputs": [],
      "stateMutability": "nonpayable",
      "type": "function"
    },
    {
      "inputs": [
        {
          "internalType": "bytes32",
          "name": "role",
          "type": "bytes32"
        },
        {
          "internalType": "address",
          "name": "account",
          "type": "address"
        }
      ],
      "name": "hasRole",
      "outputs": [
        {
          "internalType": "bool",
          "name": "",
          "type": "bool"
        }
      ],
      "stateMutability": "view",
      "type": "function"
    },
    {
      "inputs": [
        {
          "internalType": "address",
          "name": "_address",
          "type": "address"
        },
        {
          "internalType": "uint256",
          "name": "_collectionId",
          "type": "uint256"
        }
      ],
      "name": "isWhitelisted",
      "outputs": [
        {
          "internalType": "bool",
          "name": "",
          "type": "bool"
        }
      ],
      "stateMutability": "view",
      "type": "function"
    },
    {
      "inputs": [
        {
          "internalType": "address",
          "name": "_address",
          "type": "address"
        },
        {
          "internalType": "uint256",
          "name": "_collectionId",
          "type": "uint256"
        }
      ],
      "name": "removeAddress",
      "outputs": [],
      "stateMutability": "nonpayable",
      "type": "function"
    },
    {
      "inputs": [
        {
          "internalType": "bytes32",
          "name": "role",
          "type": "bytes32"
        },
        {
          "internalType": "address",
          "name": "account",
          "type": "address"
        }
      ],
      "name": "renounceRole",
      "outputs": [],
      "stateMutability": "nonpayable",
      "type": "function"
    },
    {
      "inputs": [
        {
          "internalType": "bytes32",
          "name": "role",
          "type": "bytes32"
        },
        {
          "internalType": "address",
          "name": "account",
          "type": "address"
        }
      ],
      "name": "revokeRole",
      "outputs": [],
      "stateMutability": "nonpayable",
      "type": "function"
    },
    {
      "inputs": [
        {
          "internalType": "bytes4",
          "name": "interfaceId",
          "type": "bytes4"
        }
      ],
      "name": "supportsInterface",
      "outputs": [
        {
          "internalType": "bool",
          "name": "",
          "type": "bool"
        }
      ],
      "stateMutability": "view",
      "type": "function"
    },
    {
      "inputs": [
        {
          "internalType": "uint256",
          "name": "",
          "type": "uint256"
        },
        {
          "internalType": "uint256",
          "name": "",
          "type": "uint256"
        }
      ],
      "name": "whitelist",
      "outputs": [
        {
          "internalType": "address",
          "name": "contractAddress",
          "type": "address"
        },
        {
          "internalType": "uint256",
          "name": "minBalance",
          "type": "uint256"
        }
      ],
      "stateMutability": "view",
      "type": "function"
    }
  ],
  "bytecode": "0x60803461006757601f610f5f38819003918201601f19168301916001600160401b0383118484101761006c5780849260209460405283398101031261006757516001600160a01b03811681036100675761005890610082565b604051610e3690816101298239f35b600080fd5b634e487b7160e01b600052604160045260246000fd5b6001600160a01b03811660009081527fad3228b676f7d3cd4284a5443f17f1962b36e491b30a40b2405849e597ba5fb5602052604081205460ff16156100c6575050565b808052602081815260408083206001600160a01b038516600090815292529020805460ff1916600117905560405133926001600160a01b031691907f2f8788117e7eff1d82e926ec794901d17c78024a50270940304540a733656f0d908290a456fe60806040526004361015610013575b600080fd5b60003560e01c806301ffc9a7146100ef5780630662f008146100e6578063248a9ca3146100dd5780632f2ff15d146100d457806336568abe146100cb57806344aac430146100c25780634cd4ccd6146100b9578063830639ac146100b057806391d14854146100a7578063a217fddf1461009e5763d547741f1461009657600080fd5b61000e610582565b5061000e610565565b5061000e610512565b5061000e6104e0565b5061000e6103f8565b5061000e6103a3565b5061000e6102cf565b5061000e610207565b5061000e6101d7565b5061000e610172565b503461000e57602036600319011261000e5760043563ffffffff60e01b811680910361000e57602090637965db0b60e01b8114908115610135575b506040519015158152f35b6301ffc9a760e01b1490503861012a565b600435906001600160a01b038216820361000e57565b602435906001600160a01b038216820361000e57565b503461000e57604036600319011261000e576101d561018f610146565b3360009081527fad3228b676f7d3cd4284a5443f17f1962b36e491b30a40b2405849e597ba5fb5602052604090206101cc9060ff905b5416610bef565b60243590610d0e565b005b503461000e57602036600319011261000e5760043560005260006020526020600160406000200154604051908152f35b503461000e5760408060031936011261000e576004359061022661015c565b6000928084528360205261023f600184862001546105c2565b80845260208481528385206001600160a01b03841660009081529152604090205460ff161561026d57505051f35b80845260208481528385206001600160a01b0384166000908152915260409020805460ff19166001179055825133926001600160a01b031691907f2f8788117e7eff1d82e926ec794901d17c78024a50270940304540a733656f0d908690a451f35b503461000e57604036600319011261000e576102e961015c565b336001600160a01b03821603610305576101d5906004356107e2565b60405162461bcd60e51b815260206004820152602f60248201527f416363657373436f6e74726f6c3a2063616e206f6e6c792072656e6f756e636560448201526e103937b632b9903337b91039b2b63360891b6064820152608490fd5b50634e487b7160e01b600052603260045260246000fd5b8054821015610396575b60005260206000209060011b0190600090565b61039e610362565b610383565b503461000e57604036600319011261000e5760243560043560005260016020526040600020805482101561000e576040916103dd91610379565b506001808060a01b0382541691015482519182526020820152f35b503461000e57606036600319011261000e57610412610146565b3360009081527fad3228b676f7d3cd4284a5443f17f1962b36e491b30a40b2405849e597ba5fb5602052604081209091602435916104529060ff906101c5565b81156104905761048b91604051916104698361076b565b60018060a01b0316825260208201526044358352600160205260408320610c45565b604051f35b60405162461bcd60e51b815260206004820152602260248201527f4d696e2062616c616e6365206d7573742062652067726561746572207468616e604482015261020360f41b6064820152608490fd5b503461000e57604036600319011261000e5760206105086104ff610146565b60243590610afa565b6040519015158152f35b503461000e57604036600319011261000e57602060ff61055961053361015c565b6004356000526000845260406000209060018060a01b0316600052602052604060002090565b54166040519015158152f35b503461000e57600036600319011261000e57602060405160008152f35b503461000e57604036600319011261000e576101d56004356105a261015c565b908060005260006020526105bd6001604060002001546105c2565b6107e2565b60008181526020818152604080832033845290915290205460ff16156105e55750565b33906105ef610885565b9160306105fb846108c0565b536078610607846108d6565b5360295b600181116106b9576106b561066c61069d8661068f6106338861062e8915610921565b61096c565b6106896040519586947f416363657373436f6e74726f6c3a206163636f756e74200000000000000000006020870152603786019061073d565b7001034b99036b4b9b9b4b733903937b6329607d1b815260110190565b9061073d565b03601f198101835282610794565b60405162461bcd60e51b8152918291600483016107b6565b0390fd5b9080600f6106f6921660108110156106fb575b6f181899199a1a9b1b9c1cb0b131b232b360811b901a6106ec84876108e7565b5360041c91610906565b61060b565b610703610362565b6106cc565b918091926000905b828210610728575011610721575050565b6000910152565b91508060209183015181860152018291610710565b9061075060209282815194859201610708565b0190565b50634e487b7160e01b600052604160045260246000fd5b6040810190811067ffffffffffffffff82111761078757604052565b61078f610754565b604052565b90601f8019910116810190811067ffffffffffffffff82111761078757604052565b604091602082526107d68151809281602086015260208686019101610708565b601f01601f1916010190565b6000818152602081815260408083206001600160a01b038616845290915281205490919060ff1661081257505050565b808252602082815260408084206001600160a01b038616600090815292529020805460ff1916905560405133936001600160a01b0316927ff6391f5c32d9c69d2a47ea670b442974b53935d1edc7fd64eb21e047a839171b91a4565b50634e487b7160e01b600052601160045260246000fd5b604051906060820182811067ffffffffffffffff8211176108b3575b604052602a8252604082602036910137565b6108bb610754565b6108a1565b6020908051156108ce570190565b610750610362565b6021908051600110156108ce570190565b9060209180518210156108f957010190565b610901610362565b010190565b8015610914575b6000190190565b61091c61086e565b61090d565b1561092857565b606460405162461bcd60e51b815260206004820152602060248201527f537472696e67733a20686578206c656e67746820696e73756666696369656e746044820152fd5b604051906080820182811067ffffffffffffffff821117610a0e575b60405260428252606036602084013760306109a2836108c0565b5360786109ae836108d6565b536041905b600182116109c9576109c6915015610921565b90565b80600f6109fb92166010811015610a01575b6f181899199a1a9b1b9c1cb0b131b232b360811b901a6106ec84866108e7565b906109b3565b610a09610362565b6109db565b610a16610754565b610988565b90815467ffffffffffffffff8111610a97575b604092835193602090610a46828560051b0187610794565b8386526000928352818320908287015b858510610a6557505050505050565b6002846001928451610a768161076b565b848060a01b0387541681528487015483820152815201930194019391610a56565b610a9f610754565b610a2e565b6001906000198114610ab4570190565b61075061086e565b6020918151811015610ad1575b60051b010190565b610ad9610362565b610ac9565b9081602091031261000e575190565b506040513d6000823e3d90fd5b90610b12610b17916000526001602052604060002090565b610a1b565b9060005b8251811015610be757610b2e8184610abc565b518051610b5190610b45906001600160a01b031681565b6001600160a01b031690565b6040516370a0823160e01b81526001600160a01b0385166004820152916020918290849060249082905afa928315610bda575b600093610bab575b5001511115610ba357610b9e90610aa4565b610b1b565b505050600190565b610bcc919350823d8411610bd3575b610bc48183610794565b810190610ade565b9138610b8c565b503d610bba565b610be2610aed565b610b84565b505050600090565b15610bf657565b60405162461bcd60e51b815260206004820152601060248201526f41646d696e2063616c6c73206f6e6c7960801b6044820152606490fd5b50634e487b7160e01b600052600060045260246000fd5b6020610c6c60019280549068010000000000000000821015610cb6575b8482018155610379565b939093610ca9575b610ca2838060a01b03825116859060018060a01b03166bffffffffffffffffffffffff60a01b825416179055565b0151910155565b610cb1610c2e565b610c74565b610cbe610754565b610c62565b80548015610cf857600019019060006001610cde8484610379565b610ceb575b828155015555565b610cf3610c2e565b610ce3565b634e487b7160e01b600052603160045260246000fd5b9060005260019081602052604060002090826000905b610d2f575b50505050565b825480821015610dfa57610d438285610379565b50546001600160a01b039190821684831614610d6d57505090610d668492610aa4565b9091610d24565b85929350610d8d81610dae97610d959310610ded575b6000190186610379565b509385610379565b939093610de0575b808403610db0575b50505050610cc3565b565b805484546001600160a01b0319166001600160a01b03919093161691909117835581015491015538808080610da5565b610de8610c2e565b610d9d565b610df561086e565b610d83565b50610d2956fea2646970667358221220aeda9e14524e62714262ab91a633f41f96cfba2b3b82019059c4ac35fb60524564736f6c634300080e0033",
  "linkReferences": {},
  "deployedLinkReferences": {}
}