{
  "_format": "hh-sol-artifact-1",
  "contractName": "Whitelist",
  "sourceName": "contracts/Utils/Whitelist.sol",
  "abi": [
    {
      "inputs": [
        {
          "internalType": "address",
          "name": "_admin",
          "type": "address"
        }
      ],
      "stateMutability": "nonpayable",
      "type": "constructor"
    },
    {
      "anonymous": false,
      "inputs": [
        {
          "indexed": true,
          "internalType": "bytes32",
          "name": "role",
          "type": "bytes32"
        },
        {
          "indexed": true,
          "internalType": "bytes32",
          "name": "previousAdminRole",
          "type": "bytes32"
        },
        {
          "indexed": true,
          "internalType": "bytes32",
          "name": "newAdminRole",
          "type": "bytes32"
        }
      ],
      "name": "RoleAdminChanged",
      "type": "event"
    },
    {
      "anonymous": false,
      "inputs": [
        {
          "indexed": true,
          "internalType": "bytes32",
          "name": "role",
          "type": "bytes32"
        },
        {
          "indexed": true,
          "internalType": "address",
          "name": "account",
          "type": "address"
        },
        {
          "indexed": true,
          "internalType": "address",
          "name": "sender",
          "type": "address"
        }
      ],
      "name": "RoleGranted",
      "type": "event"
    },
    {
      "anonymous": false,
      "inputs": [
        {
          "indexed": true,
          "internalType": "bytes32",
          "name": "role",
          "type": "bytes32"
        },
        {
          "indexed": true,
          "internalType": "address",
          "name": "account",
          "type": "address"
        },
        {
          "indexed": true,
          "internalType": "address",
          "name": "sender",
          "type": "address"
        }
      ],
      "name": "RoleRevoked",
      "type": "event"
    },
    {
      "inputs": [],
      "name": "DEFAULT_ADMIN_ROLE",
      "outputs": [
        {
          "internalType": "bytes32",
          "name": "",
          "type": "bytes32"
        }
      ],
      "stateMutability": "view",
      "type": "function"
    },
    {
      "inputs": [
        {
          "internalType": "address",
          "name": "_address",
          "type": "address"
        },
        {
          "internalType": "uint256",
          "name": "_minBalance",
          "type": "uint256"
        },
        {
          "internalType": "uint256",
          "name": "_collectionId",
          "type": "uint256"
        }
      ],
      "name": "addAddress",
      "outputs": [],
      "stateMutability": "nonpayable",
      "type": "function"
    },
    {
      "inputs": [
        {
          "internalType": "bytes32",
          "name": "role",
          "type": "bytes32"
        }
      ],
      "name": "getRoleAdmin",
      "outputs": [
        {
          "internalType": "bytes32",
          "name": "",
          "type": "bytes32"
        }
      ],
      "stateMutability": "view",
      "type": "function"
    },
    {
      "inputs": [
        {
          "internalType": "bytes32",
          "name": "role",
          "type": "bytes32"
        },
        {
          "internalType": "address",
          "name": "account",
          "type": "address"
        }
      ],
      "name": "grantRole",
      "outputs": [],
      "stateMutability": "nonpayable",
      "type": "function"
    },
    {
      "inputs": [
        {
          "internalType": "bytes32",
          "name": "role",
          "type": "bytes32"
        },
        {
          "internalType": "address",
          "name": "account",
          "type": "address"
        }
      ],
      "name": "hasRole",
      "outputs": [
        {
          "internalType": "bool",
          "name": "",
          "type": "bool"
        }
      ],
      "stateMutability": "view",
      "type": "function"
    },
    {
      "inputs": [
        {
          "internalType": "address",
          "name": "_address",
          "type": "address"
        },
        {
          "internalType": "uint256",
          "name": "_collectionId",
          "type": "uint256"
        }
      ],
      "name": "isWhitelisted",
      "outputs": [
        {
          "internalType": "bool",
          "name": "",
          "type": "bool"
        }
      ],
      "stateMutability": "view",
      "type": "function"
    },
    {
      "inputs": [
        {
          "internalType": "address",
          "name": "_address",
          "type": "address"
        },
        {
          "internalType": "uint256",
          "name": "_collectionId",
          "type": "uint256"
        }
      ],
      "name": "removeAddress",
      "outputs": [],
      "stateMutability": "nonpayable",
      "type": "function"
    },
    {
      "inputs": [
        {
          "internalType": "bytes32",
          "name": "role",
          "type": "bytes32"
        },
        {
          "internalType": "address",
          "name": "account",
          "type": "address"
        }
      ],
      "name": "renounceRole",
      "outputs": [],
      "stateMutability": "nonpayable",
      "type": "function"
    },
    {
      "inputs": [
        {
          "internalType": "bytes32",
          "name": "role",
          "type": "bytes32"
        },
        {
          "internalType": "address",
          "name": "account",
          "type": "address"
        }
      ],
      "name": "revokeRole",
      "outputs": [],
      "stateMutability": "nonpayable",
      "type": "function"
    },
    {
      "inputs": [
        {
          "internalType": "bytes4",
          "name": "interfaceId",
          "type": "bytes4"
        }
      ],
      "name": "supportsInterface",
      "outputs": [
        {
          "internalType": "bool",
          "name": "",
          "type": "bool"
        }
      ],
      "stateMutability": "view",
      "type": "function"
    },
    {
      "inputs": [
        {
          "internalType": "uint256",
          "name": "",
          "type": "uint256"
        },
        {
          "internalType": "uint256",
          "name": "",
          "type": "uint256"
        }
      ],
      "name": "whitelist",
      "outputs": [
        {
          "internalType": "address",
          "name": "contractAddress",
          "type": "address"
        },
        {
          "internalType": "uint256",
          "name": "minBalance",
          "type": "uint256"
        }
      ],
      "stateMutability": "view",
      "type": "function"
    }
  ],
  "bytecode": "0x608060405234801561001057600080fd5b50604051610e1f380380610e1f83398101604081905261002f916100ec565b61003a600082610040565b5061011c565b61004a828261004e565b5050565b6000828152602081815260408083206001600160a01b038516845290915290205460ff1661004a576000828152602081815260408083206001600160a01b03851684529091529020805460ff191660011790556100a83390565b6001600160a01b0316816001600160a01b0316837f2f8788117e7eff1d82e926ec794901d17c78024a50270940304540a733656f0d60405160405180910390a45050565b6000602082840312156100fe57600080fd5b81516001600160a01b038116811461011557600080fd5b9392505050565b610cf48061012b6000396000f3fe608060405234801561001057600080fd5b50600436106100a95760003560e01c806344aac4301161007157806344aac430146101425780634cd4ccd614610174578063830639ac1461018757806391d148541461019a578063a217fddf146101ad578063d547741f146101b557600080fd5b806301ffc9a7146100ae5780630662f008146100d6578063248a9ca3146100eb5780632f2ff15d1461011c57806336568abe1461012f575b600080fd5b6100c16100bc3660046109f1565b6101c8565b60405190151581526020015b60405180910390f35b6100e96100e4366004610a37565b6101ff565b005b61010e6100f9366004610a61565b60009081526020819052604090206001015490565b6040519081526020016100cd565b6100e961012a366004610a7a565b610375565b6100e961013d366004610a7a565b61039f565b610155610150366004610aa6565b610419565b604080516001600160a01b0390931683526020830191909152016100cd565b6100e9610182366004610ac8565b61045f565b6100c1610195366004610a37565b610560565b6100c16101a8366004610a7a565b6106a6565b61010e600081565b6100e96101c3366004610a7a565b6106cf565b60006001600160e01b03198216637965db0b60e01b14806101f957506301ffc9a760e01b6001600160e01b03198316145b92915050565b61020a6000336106a6565b61024e5760405162461bcd60e51b815260206004820152601060248201526f41646d696e2063616c6c73206f6e6c7960801b60448201526064015b60405180910390fd5b6000818152600160205260408120905b815481101561036e57836001600160a01b031682828154811061028357610283610afb565b60009182526020909120600290910201546001600160a01b03160361035c57815482906102b290600190610b27565b815481106102c2576102c2610afb565b90600052602060002090600202018282815481106102e2576102e2610afb565b60009182526020909120825460029092020180546001600160a01b0319166001600160a01b03909216919091178155600191820154910155815482908061032b5761032b610b3e565b60008281526020812060026000199093019283020180546001600160a01b0319168155600101559055506103719050565b8061036681610b54565b91505061025e565b50505b5050565b600082815260208190526040902060010154610390816106f4565b61039a8383610701565b505050565b6001600160a01b038116331461040f5760405162461bcd60e51b815260206004820152602f60248201527f416363657373436f6e74726f6c3a2063616e206f6e6c792072656e6f756e636560448201526e103937b632b9903337b91039b2b63360891b6064820152608401610245565b6103718282610785565b6001602052816000526040600020818154811061043557600080fd5b6000918252602090912060029091020180546001909101546001600160a01b039091169250905082565b61046a6000336106a6565b6104a95760405162461bcd60e51b815260206004820152601060248201526f41646d696e2063616c6c73206f6e6c7960801b6044820152606401610245565b600082116105045760405162461bcd60e51b815260206004820152602260248201527f4d696e2062616c616e6365206d7573742062652067726561746572207468616e604482015261020360f41b6064820152608401610245565b6040805180820182526001600160a01b039485168152602080820194855260009384526001808252928420805480850182559085529320905160029093020180546001600160a01b031916929094169190911783559051910155565b600081815260016020908152604080832080548251818502810185019093528083528493849084015b828210156105d1576000848152602090819020604080518082019091526002850290910180546001600160a01b03168252600190810154828401529083529092019101610589565b50505050905060005b815181101561069b5760008282815181106105f7576105f7610afb565b6020908102919091018101519081015181516040516370a0823160e01b81526001600160a01b038a81166004830152939450919216906370a0823190602401602060405180830381865afa158015610653573d6000803e3d6000fd5b505050506040513d601f19601f820116820180604052508101906106779190610b6d565b1061068857600193505050506101f9565b508061069381610b54565b9150506105da565b506000949350505050565b6000918252602082815260408084206001600160a01b0393909316845291905290205460ff1690565b6000828152602081905260409020600101546106ea816106f4565b61039a8383610785565b6106fe81336107ea565b50565b61070b82826106a6565b610371576000828152602081815260408083206001600160a01b03851684529091529020805460ff191660011790556107413390565b6001600160a01b0316816001600160a01b0316837f2f8788117e7eff1d82e926ec794901d17c78024a50270940304540a733656f0d60405160405180910390a45050565b61078f82826106a6565b15610371576000828152602081815260408083206001600160a01b0385168085529252808320805460ff1916905551339285917ff6391f5c32d9c69d2a47ea670b442974b53935d1edc7fd64eb21e047a839171b9190a45050565b6107f482826106a6565b6103715761080c816001600160a01b0316601461084e565b61081783602061084e565b604051602001610828929190610bb2565b60408051601f198184030181529082905262461bcd60e51b825261024591600401610c27565b6060600061085d836002610c5a565b610868906002610c79565b67ffffffffffffffff81111561088057610880610c91565b6040519080825280601f01601f1916602001820160405280156108aa576020820181803683370190505b509050600360fc1b816000815181106108c5576108c5610afb565b60200101906001600160f81b031916908160001a905350600f60fb1b816001815181106108f4576108f4610afb565b60200101906001600160f81b031916908160001a9053506000610918846002610c5a565b610923906001610c79565b90505b600181111561099b576f181899199a1a9b1b9c1cb0b131b232b360811b85600f166010811061095757610957610afb565b1a60f81b82828151811061096d5761096d610afb565b60200101906001600160f81b031916908160001a90535060049490941c9361099481610ca7565b9050610926565b5083156109ea5760405162461bcd60e51b815260206004820181905260248201527f537472696e67733a20686578206c656e67746820696e73756666696369656e746044820152606401610245565b9392505050565b600060208284031215610a0357600080fd5b81356001600160e01b0319811681146109ea57600080fd5b80356001600160a01b0381168114610a3257600080fd5b919050565b60008060408385031215610a4a57600080fd5b610a5383610a1b565b946020939093013593505050565b600060208284031215610a7357600080fd5b5035919050565b60008060408385031215610a8d57600080fd5b82359150610a9d60208401610a1b565b90509250929050565b60008060408385031215610ab957600080fd5b50508035926020909101359150565b600080600060608486031215610add57600080fd5b610ae684610a1b565b95602085013595506040909401359392505050565b634e487b7160e01b600052603260045260246000fd5b634e487b7160e01b600052601160045260246000fd5b600082821015610b3957610b39610b11565b500390565b634e487b7160e01b600052603160045260246000fd5b600060018201610b6657610b66610b11565b5060010190565b600060208284031215610b7f57600080fd5b5051919050565b60005b83811015610ba1578181015183820152602001610b89565b8381111561036e5750506000910152565b7f416363657373436f6e74726f6c3a206163636f756e7420000000000000000000815260008351610bea816017850160208801610b86565b7001034b99036b4b9b9b4b733903937b6329607d1b6017918401918201528351610c1b816028840160208801610b86565b01602801949350505050565b6020815260008251806020840152610c46816040850160208701610b86565b601f01601f19169190910160400192915050565b6000816000190483118215151615610c7457610c74610b11565b500290565b60008219821115610c8c57610c8c610b11565b500190565b634e487b7160e01b600052604160045260246000fd5b600081610cb657610cb6610b11565b50600019019056fea26469706673582212209c1957a20de2f48717ee4934f6d517e231fd2c6c09e8eb18b2148f17fa4bf19764736f6c634300080e0033",
  "linkReferences": {},
  "deployedLinkReferences": {}
}